{
  "_format": "hh-sol-artifact-1",
  "contractName": "ColletiveFundingPoolAdapterContract",
  "sourceName": "contracts/collective/adapters/CollectiveFundingPoolAdapter.sol",
  "abi": [
    {
      "inputs": [],
      "name": "ACCESS_DENIED",
      "type": "error"
    },
    {
      "inputs": [],
      "name": "AMOUNT_EXCEED_FUND_RAISING_DEPOSIT",
      "type": "error"
    },
    {
      "inputs": [],
      "name": "EXECUTED_ALREADY",
      "type": "error"
    },
    {
      "inputs": [],
      "name": "FUNDRAISE_ENDTIME_NOT_UP",
      "type": "error"
    },
    {
      "inputs": [],
      "name": "GREATER_MAX_DEPOSIT_AMOUNT",
      "type": "error"
    },
    {
      "inputs": [],
      "name": "GREATER_MAX_FUND_RAISE_AMOUNT",
      "type": "error"
    },
    {
      "inputs": [],
      "name": "INSUFFICIENT_ALLOWANCE",
      "type": "error"
    },
    {
      "inputs": [],
      "name": "INSUFFICIENT_FUND",
      "type": "error"
    },
    {
      "inputs": [],
      "name": "INVALID_AMOUNT",
      "type": "error"
    },
    {
      "inputs": [],
      "name": "INVESTMENT_GRACE_PERIOD",
      "type": "error"
    },
    {
      "inputs": [],
      "name": "LESS_MIN_DEPOSIT_AMOUNT",
      "type": "error"
    },
    {
      "inputs": [],
      "name": "MAX_PATICIPANT_AMOUNT_REACH",
      "type": "error"
    },
    {
      "inputs": [],
      "name": "NOT_CLEAR_FUND_TIME",
      "type": "error"
    },
    {
      "inputs": [],
      "name": "NOT_IN_FUND_RAISE_WINDOW",
      "type": "error"
    },
    {
      "anonymous": false,
      "inputs": [
        {
          "indexed": false,
          "internalType": "address",
          "name": "daoAddress",
          "type": "address"
        },
        {
          "indexed": false,
          "internalType": "uint256",
          "name": "escrowAmount",
          "type": "uint256"
        },
        {
          "indexed": false,
          "internalType": "address",
          "name": "executer",
          "type": "address"
        }
      ],
      "name": "ClearFund",
      "type": "event"
    },
    {
      "anonymous": false,
      "inputs": [
        {
          "indexed": false,
          "internalType": "address",
          "name": "daoAddress",
          "type": "address"
        },
        {
          "indexed": false,
          "internalType": "uint256",
          "name": "amount",
          "type": "uint256"
        },
        {
          "indexed": false,
          "internalType": "address",
          "name": "account",
          "type": "address"
        }
      ],
      "name": "Deposit",
      "type": "event"
    },
    {
      "anonymous": false,
      "inputs": [
        {
          "indexed": false,
          "internalType": "address",
          "name": "daoAddress",
          "type": "address"
        },
        {
          "indexed": false,
          "internalType": "address",
          "name": "account",
          "type": "address"
        },
        {
          "indexed": false,
          "internalType": "uint256",
          "name": "receivedAmount",
          "type": "uint256"
        }
      ],
      "name": "DistributeRedemptionFee",
      "type": "event"
    },
    {
      "anonymous": false,
      "inputs": [
        {
          "indexed": false,
          "internalType": "address",
          "name": "daoAddress",
          "type": "address"
        },
        {
          "indexed": false,
          "internalType": "enum ColletiveFundingPoolAdapterContract.FundState",
          "name": "state",
          "type": "uint8"
        },
        {
          "indexed": false,
          "internalType": "uint256",
          "name": "totalRaised",
          "type": "uint256"
        }
      ],
      "name": "ProcessFundRaise",
      "type": "event"
    },
    {
      "anonymous": false,
      "inputs": [
        {
          "indexed": false,
          "internalType": "address",
          "name": "daoAddress",
          "type": "address"
        },
        {
          "indexed": false,
          "internalType": "uint256",
          "name": "amount",
          "type": "uint256"
        },
        {
          "indexed": false,
          "internalType": "address",
          "name": "account",
          "type": "address"
        }
      ],
      "name": "WithDraw",
      "type": "event"
    },
    {
      "inputs": [
        {
          "internalType": "address",
          "name": "",
          "type": "address"
        }
      ],
      "name": "accumulateRaiseAmount",
      "outputs": [
        {
          "internalType": "uint256",
          "name": "",
          "type": "uint256"
        }
      ],
      "stateMutability": "view",
      "type": "function"
    },
    {
      "inputs": [
        {
          "internalType": "contract DaoRegistry",
          "name": "dao",
          "type": "address"
        },
        {
          "internalType": "address",
          "name": "investorAddr",
          "type": "address"
        }
      ],
      "name": "balanceOf",
      "outputs": [
        {
          "internalType": "uint256",
          "name": "",
          "type": "uint256"
        }
      ],
      "stateMutability": "view",
      "type": "function"
    },
    {
      "inputs": [
        {
          "internalType": "contract DaoRegistry",
          "name": "dao",
          "type": "address"
        }
      ],
      "name": "clearFund",
      "outputs": [],
      "stateMutability": "nonpayable",
      "type": "function"
    },
    {
      "inputs": [
        {
          "internalType": "contract DaoRegistry",
          "name": "dao",
          "type": "address"
        },
        {
          "internalType": "uint256",
          "name": "amount",
          "type": "uint256"
        }
      ],
      "name": "deposit",
      "outputs": [],
      "stateMutability": "nonpayable",
      "type": "function"
    },
    {
      "inputs": [
        {
          "internalType": "address",
          "name": "",
          "type": "address"
        },
        {
          "internalType": "bytes32",
          "name": "",
          "type": "bytes32"
        }
      ],
      "name": "freeINPriorityDeposits",
      "outputs": [
        {
          "internalType": "uint256",
          "name": "",
          "type": "uint256"
        }
      ],
      "stateMutability": "view",
      "type": "function"
    },
    {
      "inputs": [
        {
          "internalType": "address",
          "name": "",
          "type": "address"
        },
        {
          "internalType": "bytes32",
          "name": "",
          "type": "bytes32"
        }
      ],
      "name": "fundRaisedByProposalId",
      "outputs": [
        {
          "internalType": "uint256",
          "name": "",
          "type": "uint256"
        }
      ],
      "stateMutability": "view",
      "type": "function"
    },
    {
      "inputs": [
        {
          "internalType": "address",
          "name": "",
          "type": "address"
        }
      ],
      "name": "fundState",
      "outputs": [
        {
          "internalType": "enum ColletiveFundingPoolAdapterContract.FundState",
          "name": "",
          "type": "uint8"
        }
      ],
      "stateMutability": "view",
      "type": "function"
    },
    {
      "inputs": [
        {
          "internalType": "contract DaoRegistry",
          "name": "dao",
          "type": "address"
        }
      ],
      "name": "getAllInvestors",
      "outputs": [
        {
          "internalType": "address[]",
          "name": "",
          "type": "address[]"
        }
      ],
      "stateMutability": "view",
      "type": "function"
    },
    {
      "inputs": [
        {
          "internalType": "contract DaoRegistry",
          "name": "dao",
          "type": "address"
        },
        {
          "internalType": "address",
          "name": "account",
          "type": "address"
        }
      ],
      "name": "getGraceWithdrawAmount",
      "outputs": [
        {
          "internalType": "uint256",
          "name": "",
          "type": "uint256"
        }
      ],
      "stateMutability": "view",
      "type": "function"
    },
    {
      "inputs": [
        {
          "internalType": "bytes32",
          "name": "",
          "type": "bytes32"
        },
        {
          "internalType": "address",
          "name": "",
          "type": "address"
        }
      ],
      "name": "graceWithdrawAmount",
      "outputs": [
        {
          "internalType": "uint256",
          "name": "",
          "type": "uint256"
        }
      ],
      "stateMutability": "view",
      "type": "function"
    },
    {
      "inputs": [
        {
          "internalType": "address",
          "name": "",
          "type": "address"
        },
        {
          "internalType": "bytes32",
          "name": "",
          "type": "bytes32"
        },
        {
          "internalType": "address",
          "name": "",
          "type": "address"
        }
      ],
      "name": "investorsDepositAmountByFundRaise",
      "outputs": [
        {
          "internalType": "uint256",
          "name": "",
          "type": "uint256"
        }
      ],
      "stateMutability": "view",
      "type": "function"
    },
    {
      "inputs": [
        {
          "internalType": "address",
          "name": "",
          "type": "address"
        }
      ],
      "name": "liquidationId",
      "outputs": [
        {
          "internalType": "uint256",
          "name": "",
          "type": "uint256"
        }
      ],
      "stateMutability": "view",
      "type": "function"
    },
    {
      "inputs": [
        {
          "internalType": "contract DaoRegistry",
          "name": "dao",
          "type": "address"
        }
      ],
      "name": "poolBalance",
      "outputs": [
        {
          "internalType": "uint256",
          "name": "",
          "type": "uint256"
        }
      ],
      "stateMutability": "view",
      "type": "function"
    },
    {
      "inputs": [
        {
          "internalType": "address",
          "name": "",
          "type": "address"
        },
        {
          "internalType": "bytes32",
          "name": "",
          "type": "bytes32"
        },
        {
          "internalType": "address",
          "name": "",
          "type": "address"
        }
      ],
      "name": "priorityDepositers",
      "outputs": [
        {
          "internalType": "bool",
          "name": "",
          "type": "bool"
        }
      ],
      "stateMutability": "view",
      "type": "function"
    },
    {
      "inputs": [
        {
          "internalType": "contract DaoRegistry",
          "name": "dao",
          "type": "address"
        }
      ],
      "name": "processFundRaise",
      "outputs": [
        {
          "internalType": "bool",
          "name": "",
          "type": "bool"
        }
      ],
      "stateMutability": "nonpayable",
      "type": "function"
    },
    {
      "inputs": [],
      "name": "protocolFee",
      "outputs": [
        {
          "internalType": "uint256",
          "name": "",
          "type": "uint256"
        }
      ],
      "stateMutability": "view",
      "type": "function"
    },
    {
      "inputs": [
        {
          "internalType": "contract DaoRegistry",
          "name": "dao",
          "type": "address"
        }
      ],
      "name": "resetFundRaiseState",
      "outputs": [],
      "stateMutability": "nonpayable",
      "type": "function"
    },
    {
      "inputs": [
        {
          "internalType": "address",
          "name": "",
          "type": "address"
        }
      ],
      "name": "resetFundStateBlockNum",
      "outputs": [
        {
          "internalType": "uint256",
          "name": "",
          "type": "uint256"
        }
      ],
      "stateMutability": "view",
      "type": "function"
    },
    {
      "inputs": [
        {
          "internalType": "contract DaoRegistry",
          "name": "dao",
          "type": "address"
        },
        {
          "internalType": "address",
          "name": "account",
          "type": "address"
        },
        {
          "internalType": "bool",
          "name": "redempitonFee",
          "type": "bool"
        }
      ],
      "name": "returnFundToQuitGovernor",
      "outputs": [
        {
          "internalType": "bool",
          "name": "",
          "type": "bool"
        }
      ],
      "stateMutability": "nonpayable",
      "type": "function"
    },
    {
      "inputs": [
        {
          "internalType": "contract DaoRegistry",
          "name": "dao",
          "type": "address"
        },
        {
          "internalType": "uint256",
          "name": "feeProtocol",
          "type": "uint256"
        }
      ],
      "name": "setProtocolFee",
      "outputs": [],
      "stateMutability": "nonpayable",
      "type": "function"
    },
    {
      "inputs": [
        {
          "internalType": "contract DaoRegistry",
          "name": "dao",
          "type": "address"
        },
        {
          "internalType": "uint256",
          "name": "amount",
          "type": "uint256"
        }
      ],
      "name": "withdraw",
      "outputs": [],
      "stateMutability": "nonpayable",
      "type": "function"
    }
  ],
  "bytecode": "0x6080604052660aa87bee538000600b5534801561001b57600080fd5b50615c8b806200002c6000396000f3fe608060405234801561001057600080fd5b50600436106101775760003560e01c8063861f6752116100d8578063d5d7d2df1161008c578063f3fef3a311610066578063f3fef3a3146103b1578063f5a9b5d9146103c4578063f7888aec146103ef57600080fd5b8063d5d7d2df14610378578063d7cec87d1461038b578063f10e6b6b1461039e57600080fd5b8063b0936452116100bd578063b09364521461033c578063b0e21e8a1461035c578063b5b3ca2c1461036557600080fd5b8063861f6752146102fe57806396609c421461032957600080fd5b80635e1d06061161012f57806368abb5e01161011457806368abb5e0146102a757806381227bf1146102ba57806383cffffe146102eb57600080fd5b80635e1d06061461023857806364e30ab01461027c57600080fd5b80631c0ecc7f116101605780631c0ecc7f146101e357806347e7ef241461020357806350d9e6881461021857600080fd5b80630c916bae1461017c5780630cf6aae7146101b5575b600080fd5b61019f61018a366004615836565b60036020526000908152604090205460ff1681565b6040516101ac9190615b49565b60405180910390f35b6101d56101c3366004615836565b60096020526000908152604090205481565b6040519081526020016101ac565b6101d56101f1366004615836565b60056020526000908152604090205481565b610216610211366004615a9d565b610402565b005b61022b610226366004615836565b611245565b6040516101ac9190615afc565b61026c610246366004615899565b600860209081526000938452604080852082529284528284209052825290205460ff1681565b60405190151581526020016101ac565b6101d561028a366004615a02565b600a60209081526000928352604080842090915290825290205481565b6101d56102b5366004615836565b61126f565b6101d56102c8366004615899565b600260209081526000938452604080852082529284528284209052825290205481565b6102166102f9366004615836565b61138e565b6101d561030c36600461586e565b600660209081526000928352604080842090915290825290205481565b61026c610337366004615836565b611b3d565b6101d561034a366004615836565b60046020526000908152604090205481565b6101d5600b5481565b610216610373366004615a9d565b61203a565b61026c610386366004615a5e565b61209f565b6101d5610399366004615a31565b61248e565b6102166103ac366004615836565b6125ea565b6102166103bf366004615a9d565b612727565b6101d56103d236600461586e565b600760209081526000928352604080842090915290825290205481565b6101d56103fd366004615a31565b6132e9565b81600061040e8261340a565b90506000831161044a576040517ffae8279100000000000000000000000000000000000000000000000000000000815260040160405180910390fd5b61048e6040518060a0016040528060008152602001600081526020016000815260200160006001600160a01b0316815260200160006001600160a01b031681525090565b6040516317ba7d8560e01b81527f3a06648a49edffe95b8384794dfe9cf3ab34782fab0130b4c91bfd53f3407e6b60048201526001600160a01b038616906317ba7d859060240160206040518083038186803b1580156104ed57600080fd5b505afa158015610501573d6000803e3d6000fd5b505050506040513d601f19601f820116820180604052508101906105259190615852565b6001600160a01b039081166080830152604051634941d71d60e11b81527f5fa39c8100b49336846e52d39403e353bf782275f905a885f09224779ff1c924600482015290861690639283ae3a9060240160206040518083038186803b15801561058d57600080fd5b505afa1580156105a1573d6000803e3d6000fd5b505050506040513d601f19601f820116820180604052508101906105c591906159ea565b8152604051634941d71d60e11b81527fbdd40865e74210f0a46799ae63462c62010da92014a08cbc32f1d049d0a22c6b60048201526001600160a01b03861690639283ae3a9060240160206040518083038186803b15801561062657600080fd5b505afa15801561063a573d6000803e3d6000fd5b505050506040513d601f19601f8201168201806040525081019061065e91906159ea565b602082015260808101516040516301c22a3d60e01b81526001600160a01b03878116600483015260009216906301c22a3d9060240160206040518083038186803b1580156106ab57600080fd5b505afa1580156106bf573d6000803e3d6000fd5b505050506040513d601f19601f820116820180604052508101906106e391906159ea565b604051634941d71d60e11b81527f7e07fb4530796d057ca1d76d83f47aa8629dbb7e942ac28f30ad6f5e9e8d418960048201529091506001600160a01b03871690639283ae3a9060240160206040518083038186803b15801561074557600080fd5b505afa158015610759573d6000803e3d6000fd5b505050506040513d601f19601f8201168201806040525081019061077d91906159ea565b60408301526020820151156107ca5781602001518510156107ca576040517f0f3fbd1c00000000000000000000000000000000000000000000000000000000815260040160405180910390fd5b8151156108415781516001600160a01b038716600090815260026020908152604080832085845282528083203384529091529020546108099087615b57565b1115610841576040517f75d3208400000000000000000000000000000000000000000000000000000000815260040160405180910390fd5b604051634941d71d60e11b81527fbd04d44792b7dbfe3b50b0f9f2006f7ef449e374a39021cb9bfa7cd0bdd850d7600482015242906001600160a01b03881690639283ae3a9060240160206040518083038186803b1580156108a257600080fd5b505afa1580156108b6573d6000803e3d6000fd5b505050506040513d601f19601f820116820180604052508101906108da91906159ea565b118061097c5750604051634941d71d60e11b81527f533afc15b6312917b5e28e2272ea69d44e5ea8e00d3bd57cada1275c2f14c9e8600482015242906001600160a01b03881690639283ae3a9060240160206040518083038186803b15801561094257600080fd5b505afa158015610956573d6000803e3d6000fd5b505050506040513d601f19601f8201168201806040525081019061097a91906159ea565b105b156109b3576040517fa8ec9ad500000000000000000000000000000000000000000000000000000000815260040160405180910390fd5b604051634941d71d60e11b81527ff301d5aec67a9d816d38f9b645cac1e79a3308ff9803564bbe63a862db82f46b60048201526001600160a01b03871690639283ae3a9060240160206040518083038186803b158015610a1257600080fd5b505afa158015610a26573d6000803e3d6000fd5b505050506040513d601f19601f82011682018060405250810190610a4a91906159ea565b158015610a5b575060008260400151115b15610acc576040808301516001600160a01b03881660009081526007602090815283822085835290529190912054610a94908790615b57565b1115610acc576040517fd3b07c5200000000000000000000000000000000000000000000000000000000815260040160405180910390fd5b604051632c9f4b5b60e11b81527f3909e87234f428ccb8748126e2c93f66a62f92a70d315fa5803dec6362be07ab60048201526001600160a01b0387169063593e96b69060240160206040518083038186803b158015610b2b57600080fd5b505afa158015610b3f573d6000803e3d6000fd5b505050506040513d601f19601f82011682018060405250810190610b639190615852565b6001600160a01b03166060830152610b7c8682336136f3565b15610bb3576040517ffa088e8a00000000000000000000000000000000000000000000000000000000815260040160405180910390fd5b600082606001516001600160a01b031663a87af66c6040518163ffffffff1660e01b815260040160206040518083038186803b158015610bf257600080fd5b505afa158015610c06573d6000803e3d6000fd5b505050506040513d601f19601f82011682018060405250810190610c2a9190615852565b6040516370a0823160e01b815233600482015290915086906001600160a01b038316906370a082319060240160206040518083038186803b158015610c6e57600080fd5b505afa158015610c82573d6000803e3d6000fd5b505050506040513d601f19601f82011682018060405250810190610ca691906159ea565b1015610cde576040517f5cabbf5000000000000000000000000000000000000000000000000000000000815260040160405180910390fd5b6040517fdd62ed3e00000000000000000000000000000000000000000000000000000000815233600482015230602482015286906001600160a01b0383169063dd62ed3e9060440160206040518083038186803b158015610d3e57600080fd5b505afa158015610d52573d6000803e3d6000fd5b505050506040513d601f19601f82011682018060405250810190610d7691906159ea565b1015610dae576040517f0fd3919300000000000000000000000000000000000000000000000000000000815260040160405180910390fd5b6040517f23b872dd000000000000000000000000000000000000000000000000000000008152336004820152306024820152604481018790526001600160a01b038216906323b872dd90606401602060405180830381600087803b158015610e1557600080fd5b505af1158015610e29573d6000803e3d6000fd5b505050506040513d601f19601f82011682018060405250810190610e4d91906159a1565b50604051632c9f4b5b60e11b81527f3909e87234f428ccb8748126e2c93f66a62f92a70d315fa5803dec6362be07ab60048201526001600160a01b038083169163095ea7b3918a169063593e96b69060240160206040518083038186803b158015610eb757600080fd5b505afa158015610ecb573d6000803e3d6000fd5b505050506040513d601f19601f82011682018060405250810190610eef9190615852565b6040516001600160e01b031960e084901b1681526001600160a01b03909116600482015260248101899052604401602060405180830381600087803b158015610f3757600080fd5b505af1158015610f4b573d6000803e3d6000fd5b505050506040513d601f19601f82011682018060405250810190610f6f91906159a1565b5060608301516040517fb08079a6000000000000000000000000000000000000000000000000000000008152336004820152602481018890526001600160a01b039091169063b08079a690604401600060405180830381600087803b158015610fd757600080fd5b505af1158015610feb573d6000803e3d6000fd5b50505050610ff98733613af0565b6001600160a01b038716600090815260016020908152604080832085845290915290206110269033613b3e565b611059576001600160a01b038716600090815260016020908152604080832085845290915290206110579033613b60565b505b60808301516040517f6d3cc0400000000000000000000000000000000000000000000000000000000081526001600160a01b0389811660048301526024820185905233604483015290911690636d3cc0409060640160206040518083038186803b1580156110c657600080fd5b505afa1580156110da573d6000803e3d6000fd5b505050506040513d601f19601f820116820180604052508101906110fe91906159a1565b15611172576001600160a01b038716600090815260066020908152604080832085845290915281208054889290611136908490615b57565b90915550506001600160a01b038716600090815260086020908152604080832085845282528083203384529091529020805460ff191660011790555b6001600160a01b03871660009081526002602090815260408083208584528252808320338452909152812080548892906111ad908490615b57565b90915550506001600160a01b0387166000908152600760209081526040808320858452909152812080548892906111e5908490615b57565b9091555050604080516001600160a01b038916815260208101889052338183015290517fe31c7b8d08ee7db0afa68782e1028ef92305caeea8626633ad44d413e30f6b2f9181900360600190a150505061123f8282613b75565b50505050565b6001600160a01b038116600090815260208190526040902060609061126990613b80565b92915050565b604051632c9f4b5b60e11b81527f3909e87234f428ccb8748126e2c93f66a62f92a70d315fa5803dec6362be07ab600482015260009081906001600160a01b0384169063593e96b69060240160206040518083038186803b1580156112d357600080fd5b505afa1580156112e7573d6000803e3d6000fd5b505050506040513d601f19601f8201168201806040525081019061130b9190615852565b6040516370a0823160e01b815261decd60048201529091506001600160a01b038216906370a082319060240160206040518083038186803b15801561134f57600080fd5b505afa158015611363573d6000803e3d6000fd5b505050506040513d601f19601f8201168201806040525081019061138791906159ea565b9392505050565b6040516317ba7d8560e01b81527f851d65965a45a40b902ee7de04ff05b19ff7fde56dd486fd3108dc5cd9249f0660048201526001600160a01b038216906317ba7d859060240160206040518083038186803b1580156113ed57600080fd5b505afa158015611401573d6000803e3d6000fd5b505050506040513d601f19601f820116820180604052508101906114259190615852565b6001600160a01b0316336001600160a01b031614611456576040516395383ea160e01b815260040160405180910390fd5b604051634941d71d60e11b81527f533afc15b6312917b5e28e2272ea69d44e5ea8e00d3bd57cada1275c2f14c9e860048201526001600160a01b03821690639283ae3a9060240160206040518083038186803b1580156114b557600080fd5b505afa1580156114c9573d6000803e3d6000fd5b505050506040513d601f19601f820116820180604052508101906114ed91906159ea565b4210801561157a57506001600160a01b038116600090815260036020819052604082205460ff169081111561153257634e487b7160e01b600052602160045260246000fd5b148061157a575060016001600160a01b03821660009081526003602081905260409091205460ff169081111561157857634e487b7160e01b600052602160045260246000fd5b145b156115b1576040517f465e5dc900000000000000000000000000000000000000000000000000000000815260040160405180910390fd5b604051632c9f4b5b60e11b81527f3909e87234f428ccb8748126e2c93f66a62f92a70d315fa5803dec6362be07ab60048201526000906001600160a01b0383169063593e96b69060240160206040518083038186803b15801561161357600080fd5b505afa158015611627573d6000803e3d6000fd5b505050506040513d601f19601f8201168201806040525081019061164b9190615852565b90506000816001600160a01b031663a87af66c6040518163ffffffff1660e01b815260040160206040518083038186803b15801561168857600080fd5b505afa15801561169c573d6000803e3d6000fd5b505050506040513d601f19601f820116820180604052508101906116c09190615852565b6001600160a01b0384166000908152602081905260408120919250906116e590613b80565b80519091501561123f576001600160a01b0384166000908152600960205260408120805460019190839061171a908490615b57565b90915550600090505b82518160ff161015611ad757600061176587858460ff168151811061175857634e487b7160e01b600052603260045260246000fd5b60200260200101516132e9565b90508015611a90576040516317ba7d8560e01b81527f372fda66f626a705d3a459960a1457403a7c3564acccedc00092ea70262b708360048201526000906001600160a01b038916906317ba7d859060240160206040518083038186803b1580156117cf57600080fd5b505afa1580156117e3573d6000803e3d6000fd5b505050506040513d601f19601f820116820180604052508101906118079190615852565b9050806001600160a01b0316638f8f4d218988888760ff168151811061183d57634e487b7160e01b600052603260045260246000fd5b6020908102919091018101516001600160a01b03808f16600090815260099093526040928390205492516001600160e01b031960e088901b1681529481166004860152928316602485015291909116604483015260648201869052608482015260a401600060405180830381600087803b1580156118ba57600080fd5b505af11580156118ce573d6000803e3d6000fd5b50506040516317ba7d8560e01b81527f372fda66f626a705d3a459960a1457403a7c3564acccedc00092ea70262b708360048201526001600160a01b03808b16935063e176b35e92508b16906317ba7d859060240160206040518083038186803b15801561193b57600080fd5b505afa15801561194f573d6000803e3d6000fd5b505050506040513d601f19601f820116820180604052508101906119739190615852565b6040516001600160e01b031960e084901b1681526001600160a01b039182166004820152908916602482015260448101859052606401600060405180830381600087803b1580156119c357600080fd5b505af11580156119d7573d6000803e3d6000fd5b50505050866001600160a01b031663e3a05cc1868560ff1681518110611a0d57634e487b7160e01b600052603260045260246000fd5b60209081029190910101516040516001600160e01b031960e084901b1681526001600160a01b039182166004820152908916602482015260448101859052606401600060405180830381600087803b158015611a6857600080fd5b505af1158015611a7c573d6000803e3d6000fd5b505050508184611a8c9190615b57565b9350505b611ac487858460ff1681518110611ab757634e487b7160e01b600052603260045260246000fd5b6020026020010151613b8d565b5080611acf81615be3565b915050611723565b506001600160a01b038516600081815260036020908152604091829020805460ff19169055815192835282018390523382820152517f12d0dcfe23709357491021067eb05d73fa0b1f1aeb69310c2071218e089f057f9181900360600190a15050505050565b604051634941d71d60e11b81527f533afc15b6312917b5e28e2272ea69d44e5ea8e00d3bd57cada1275c2f14c9e860048201526000906001600160a01b03831690639283ae3a9060240160206040518083038186803b158015611b9f57600080fd5b505afa158015611bb3573d6000803e3d6000fd5b505050506040513d601f19601f82011682018060405250810190611bd791906159ea565b4211611c0f576040517ff082211800000000000000000000000000000000000000000000000000000000815260040160405180910390fd5b6040516317ba7d8560e01b81527f3a06648a49edffe95b8384794dfe9cf3ab34782fab0130b4c91bfd53f3407e6b60048201526000906001600160a01b038416906317ba7d859060240160206040518083038186803b158015611c7157600080fd5b505afa158015611c85573d6000803e3d6000fd5b505050506040513d601f19601f82011682018060405250810190611ca99190615852565b6040516301c22a3d60e01b81526001600160a01b0385811660048301529192506000918316906301c22a3d9060240160206040518083038186803b158015611cf057600080fd5b505afa158015611d04573d6000803e3d6000fd5b505050506040513d601f19601f82011682018060405250810190611d2891906159ea565b905060016001600160a01b03851660009081526003602081905260409091205460ff1690811115611d6957634e487b7160e01b600052602160045260246000fd5b1415611ffe576001600160a01b038416600081815260076020908152604080832085845290915290819020549051634941d71d60e11b81527f31af571e53636dddd77f772cce9d30b42075760f2da731636acc6962da2fbef86004820152909190639283ae3a9060240160206040518083038186803b158015611deb57600080fd5b505afa158015611dff573d6000803e3d6000fd5b505050506040513d601f19601f82011682018060405250810190611e2391906159ea565b8110611ee057611e3285613d4d565b611e3c8583614886565b6001600160a01b0385811660008181526003602052604090819020805460ff19166002179055517f0c1c6f440000000000000000000000000000000000000000000000000000000081526004810191909152602481018490526001604482015290841690630c1c6f4490606401600060405180830381600087803b158015611ec357600080fd5b505af1158015611ed7573d6000803e3d6000fd5b50505050611fa0565b6001600160a01b03851660009081526003602081905260408220805460ff19169091179055611f0e8661126f565b1115611f1d57611f1d85614a2e565b6040517f0c1c6f440000000000000000000000000000000000000000000000000000000081526001600160a01b0386811660048301526024820184905260006044830152841690630c1c6f4490606401600060405180830381600087803b158015611f8757600080fd5b505af1158015611f9b573d6000803e3d6000fd5b505050505b6001600160a01b038516600090815260036020526040908190205490517fe9975264b50cb635621ce71b45426b9994cf2bf91f3aa9d73b337a96cf2d728391611ff091889160ff16908590615ad1565b60405180910390a150612030565b6040517ff918bf6c00000000000000000000000000000000000000000000000000000000815260040160405180910390fd5b5060019392505050565b8160006120468261340a565b9050836120528161521f565b6001600160a01b0316336001600160a01b03161461206f57600080fd5b670de0b6b3a7640000841080156120865750600084115b61208f57600080fd5b50600b83905561123f8282613b75565b6000806120ac85856132e9565b116120b957506000611387565b6040516317ba7d8560e01b81527f1a4f1390baec30049008138e650571a3c4374eba88116bc89dc192f2f9295efe60048201526001600160a01b038516906317ba7d859060240160206040518083038186803b15801561211857600080fd5b505afa15801561212c573d6000803e3d6000fd5b505050506040513d601f19601f820116820180604052508101906121509190615852565b6001600160a01b0316336001600160a01b031614612181576040516395383ea160e01b815260040160405180910390fd5b600061218d85856132e9565b90506000831561224f57604051634941d71d60e11b81527f51cc27e85946200c558b984a0c15cad2122655d647f9c02ebe9529f2a0b25a2f6004820152670de0b6b3a7640000906001600160a01b03881690639283ae3a9060240160206040518083038186803b15801561220057600080fd5b505afa158015612214573d6000803e3d6000fd5b505050506040513d601f19601f8201168201806040525081019061223891906159ea565b6122429084615b8f565b61224c9190615b6f565b90505b604051632c9f4b5b60e11b81527f3909e87234f428ccb8748126e2c93f66a62f92a70d315fa5803dec6362be07ab60048201526000906001600160a01b0388169063593e96b69060240160206040518083038186803b1580156122b157600080fd5b505afa1580156122c5573d6000803e3d6000fd5b505050506040513d601f19601f820116820180604052508101906122e99190615852565b90506000816001600160a01b031663a87af66c6040518163ffffffff1660e01b815260040160206040518083038186803b15801561232657600080fd5b505afa15801561233a573d6000803e3d6000fd5b505050506040513d601f19601f8201168201806040525081019061235e9190615852565b90506001600160a01b03821663d9caed12888361237b8789615bcc565b6040516001600160e01b031960e086901b1681526001600160a01b0393841660048201529290911660248301526044820152606401600060405180830381600087803b1580156123ca57600080fd5b505af11580156123de573d6000803e3d6000fd5b50506040517fe3a05cc10000000000000000000000000000000000000000000000000000000081526001600160a01b038a811660048301528481166024830152604482018890528516925063e3a05cc19150606401600060405180830381600087803b15801561244d57600080fd5b505af1158015612461573d6000803e3d6000fd5b5050505061246f8888613b8d565b821561248057612480888285615302565b506001979650505050505050565b6040516317ba7d8560e01b81527f72894213a5c7f56b36b2947fa6ea18963d6bb1a68746b46d7f552cca76e1a7a8600482015260009081906001600160a01b038516906317ba7d859060240160206040518083038186803b1580156124f257600080fd5b505afa158015612506573d6000803e3d6000fd5b505050506040513d601f19601f8201168201806040525081019061252a9190615852565b6040517f62e86df50000000000000000000000000000000000000000000000000000000081526001600160a01b03868116600483015291909116906362e86df59060240160206040518083038186803b15801561258657600080fd5b505afa15801561259a573d6000803e3d6000fd5b505050506040513d601f19601f820116820180604052508101906125be91906159ea565b6000908152600a602090815260408083206001600160a01b038716845290915290205491505092915050565b6040516317ba7d8560e01b81527f3a06648a49edffe95b8384794dfe9cf3ab34782fab0130b4c91bfd53f3407e6b60048201526001600160a01b038216906317ba7d859060240160206040518083038186803b15801561264957600080fd5b505afa15801561265d573d6000803e3d6000fd5b505050506040513d601f19601f820116820180604052508101906126819190615852565b6001600160a01b0316336001600160a01b0316146126b2576040516395383ea160e01b815260040160405180910390fd5b6001600160a01b0381166000908152600360205260409020805460ff191660011790556126de8161126f565b6001600160a01b03821660009081526004602052604081208054909190612706908490615b57565b90915550506001600160a01b03166000908152600560205260409020439055565b8160006127338261340a565b6040516317ba7d8560e01b81527f72894213a5c7f56b36b2947fa6ea18963d6bb1a68746b46d7f552cca76e1a7a860048201529091506001600160a01b038516906317ba7d859060240160206040518083038186803b15801561279557600080fd5b505afa1580156127a9573d6000803e3d6000fd5b505050506040513d601f19601f820116820180604052508101906127cd9190615852565b6040517f4fd194f60000000000000000000000000000000000000000000000000000000081526001600160a01b0386811660048301529190911690634fd194f69060240160206040518083038186803b15801561282957600080fd5b505afa15801561283d573d6000803e3d6000fd5b505050506040513d601f19601f8201168201806040525081019061286191906159a1565b612897576040517f6132398d00000000000000000000000000000000000000000000000000000000815260040160405180910390fd5b6040516317ba7d8560e01b81527f72894213a5c7f56b36b2947fa6ea18963d6bb1a68746b46d7f552cca76e1a7a860048201526000906001600160a01b038616906317ba7d859060240160206040518083038186803b1580156128f957600080fd5b505afa15801561290d573d6000803e3d6000fd5b505050506040513d601f19601f820116820180604052508101906129319190615852565b6040517f62e86df50000000000000000000000000000000000000000000000000000000081526001600160a01b03878116600483015291909116906362e86df59060240160206040518083038186803b15801561298d57600080fd5b505afa1580156129a1573d6000803e3d6000fd5b505050506040513d601f19601f820116820180604052508101906129c591906159ea565b6000818152600a602090815260408083203384529091528120805492935086929091906129f3908490615b57565b9091555050604051632c9f4b5b60e11b81527f3909e87234f428ccb8748126e2c93f66a62f92a70d315fa5803dec6362be07ab6004820152600091506001600160a01b0386169063593e96b69060240160206040518083038186803b158015612a5b57600080fd5b505afa158015612a6f573d6000803e3d6000fd5b505050506040513d601f19601f82011682018060405250810190612a939190615852565b6040516317ba7d8560e01b81527f3a06648a49edffe95b8384794dfe9cf3ab34782fab0130b4c91bfd53f3407e6b60048201529091506000906001600160a01b038716906317ba7d859060240160206040518083038186803b158015612af857600080fd5b505afa158015612b0c573d6000803e3d6000fd5b505050506040513d601f19601f82011682018060405250810190612b309190615852565b6040516301c22a3d60e01b81526001600160a01b0388811660048301529192506000918316906301c22a3d9060240160206040518083038186803b158015612b7757600080fd5b505afa158015612b8b573d6000803e3d6000fd5b505050506040513d601f19601f82011682018060405250810190612baf91906159ea565b90506000836001600160a01b031663a87af66c6040518163ffffffff1660e01b815260040160206040518083038186803b158015612bec57600080fd5b505afa158015612c00573d6000803e3d6000fd5b505050506040513d601f19601f82011682018060405250810190612c249190615852565b905060008711612c60576040517ffae8279100000000000000000000000000000000000000000000000000000000815260040160405180910390fd5b612c6a88336132e9565b871115612ca3576040517f5cabbf5000000000000000000000000000000000000000000000000000000000815260040160405180910390fd5b604051634941d71d60e11b81527fbd04d44792b7dbfe3b50b0f9f2006f7ef449e374a39021cb9bfa7cd0bdd850d760048201526001600160a01b03891690639283ae3a9060240160206040518083038186803b158015612d0257600080fd5b505afa158015612d16573d6000803e3d6000fd5b505050506040513d601f19601f82011682018060405250810190612d3a91906159ea565b42118015612ddd5750604051634941d71d60e11b81527f533afc15b6312917b5e28e2272ea69d44e5ea8e00d3bd57cada1275c2f14c9e860048201526001600160a01b03891690639283ae3a9060240160206040518083038186803b158015612da257600080fd5b505afa158015612db6573d6000803e3d6000fd5b505050506040513d601f19601f82011682018060405250810190612dda91906159ea565b42105b15612ec0576001600160a01b03881660009081526002602090815260408083208584528252808320338452909152902054871115612e47576040517f290cc5d400000000000000000000000000000000000000000000000000000000815260040160405180910390fd5b6001600160a01b0388166000908152600260209081526040808320858452825280832033845290915281208054899290612e82908490615bcc565b90915550506001600160a01b038816600090815260076020908152604080832085845290915281208054899290612eba908490615bcc565b90915550505b604051634941d71d60e11b81527f533afc15b6312917b5e28e2272ea69d44e5ea8e00d3bd57cada1275c2f14c9e860048201526000906001600160a01b038a1690639283ae3a9060240160206040518083038186803b158015612f2257600080fd5b505afa158015612f36573d6000803e3d6000fd5b505050506040513d601f19601f82011682018060405250810190612f5a91906159ea565b42111561301957604051634941d71d60e11b81527f51cc27e85946200c558b984a0c15cad2122655d647f9c02ebe9529f2a0b25a2f6004820152670de0b6b3a7640000906001600160a01b038b1690639283ae3a9060240160206040518083038186803b158015612fca57600080fd5b505afa158015612fde573d6000803e3d6000fd5b505050506040513d601f19601f8201168201806040525081019061300291906159ea565b61300c908a615b8f565b6130169190615b6f565b90505b6001600160a01b03851663d9caed123384613034858d615bcc565b6040516001600160e01b031960e086901b1681526001600160a01b0393841660048201529290911660248301526044820152606401600060405180830381600087803b15801561308357600080fd5b505af1158015613097573d6000803e3d6000fd5b50506040517fe3a05cc10000000000000000000000000000000000000000000000000000000081523360048201526001600160a01b038581166024830152604482018c90528816925063e3a05cc19150606401600060405180830381600087803b15801561310457600080fd5b505af1158015613118573d6000803e3d6000fd5b5050505060006131288a336132e9565b11613166576131378933613b8d565b6001600160a01b038916600090815260016020908152604080832086845290915290206131649033615553565b505b801561317757613177898383615302565b6001600160a01b0389166000908152600860209081526040808320868452825280832033845290915290205460ff1680156132475750604051634941d71d60e11b81527f533afc15b6312917b5e28e2272ea69d44e5ea8e00d3bd57cada1275c2f14c9e860048201526001600160a01b038a1690639283ae3a9060240160206040518083038186803b15801561320c57600080fd5b505afa158015613220573d6000803e3d6000fd5b505050506040513d601f19601f8201168201806040525081019061324491906159ea565b42105b15613285576001600160a01b0389166000908152600660209081526040808320868452909152812080548a929061327f908490615bcc565b90915550505b7fd432fbc5f79eaeefd01acbebd76cf4b0d5f43d8372c2fd3e23761c06a60a75f1896132b1838b615bcc565b604080516001600160a01b0390931683526020830191909152339082015260600160405180910390a1505050505061123f8282613b75565b604051632c9f4b5b60e11b81527f3909e87234f428ccb8748126e2c93f66a62f92a70d315fa5803dec6362be07ab600482015260009081906001600160a01b0385169063593e96b69060240160206040518083038186803b15801561334d57600080fd5b505afa158015613361573d6000803e3d6000fd5b505050506040513d601f19601f820116820180604052508101906133859190615852565b6040516370a0823160e01b81526001600160a01b038581166004830152919250908216906370a082319060240160206040518083038186803b1580156133ca57600080fd5b505afa1580156133de573d6000803e3d6000fd5b505050506040513d601f19601f8201168201806040525081019061340291906159ea565b949350505050565b6040805160808101825260008082526020820181905291810182905260608101919091525a81600001818152505043826001600160a01b031663b21634826040518163ffffffff1660e01b815260040160206040518083038186803b15801561347257600080fd5b505afa158015613486573d6000803e3d6000fd5b505050506040513d601f19601f820116820180604052508101906134aa91906159ea565b1415613516576040517f08c379a000000000000000000000000000000000000000000000000000000000815260206004820152601060248201527f7265656e7472616e637920677561726400000000000000000000000000000000604482015260640160405180910390fd5b816001600160a01b03166310fdb0a26040518163ffffffff1660e01b8152600401600060405180830381600087803b15801561355157600080fd5b505af1158015613565573d6000803e3d6000fd5b50506040517f72c6838f0000000000000000000000000000000000000000000000000000000081527f1f2fd42ad6a6cacd573c4b212beb7a4e2499ad45d742a65337097f130e71daff6004820152600092506001600160a01b03851691506372c6838f9060240160206040518083038186803b1580156135e457600080fd5b505afa1580156135f8573d6000803e3d6000fd5b505050506040513d601f19601f8201168201806040525081019061361c9190615852565b90506001600160a01b03811661363857600060208301526136ed565b6001600160a01b038181166060840181905283516040517f43a8a3f1000000000000000000000000000000000000000000000000000000008152928616600484015260248301526000918291906343a8a3f190604401604080518083038186803b1580156136a557600080fd5b505afa1580156136b9573d6000803e3d6000fd5b505050506040513d601f19601f820116820180604052508101906136dd91906159bd565b9015156020860152604085015250505b50919050565b6001600160a01b03831660009081526001602090815260408083208584529091528120819061372190613b80565b51856001600160a01b031663a6f636416040518163ffffffff1660e01b815260040160006040518083038186803b15801561375b57600080fd5b505afa15801561376f573d6000803e3d6000fd5b505050506040513d6000823e601f3d908101601f1916820160405261379791908101906158da565b516137a29190615b57565b6001600160a01b03861660009081526001602090815260408083208884529091528120919250906137d290613b80565b8051909150156138c75760005b81518160ff1610156138c557866001600160a01b031663a230c524838360ff168151811061381d57634e487b7160e01b600052603260045260246000fd5b60200260200101516040518263ffffffff1660e01b815260040161385091906001600160a01b0391909116815260200190565b60206040518083038186803b15801561386857600080fd5b505afa15801561387c573d6000803e3d6000fd5b505050506040513d601f19601f820116820180604052508101906138a091906159a1565b156138b3576138b0600184615bcc565b92505b806138bd81615be3565b9150506137df565b505b604051634941d71d60e11b81527f69f4ffb3ebcb7809550bddd3e4d449a47e737bf6635bc7a730996643997b0e4860048201526001600160a01b03871690639283ae3a9060240160206040518083038186803b15801561392657600080fd5b505afa15801561393a573d6000803e3d6000fd5b505050506040513d601f19601f8201168201806040525081019061395e91906159ea565b6001148015613a035750604051634941d71d60e11b81527fecbde689cc6337d29a750b8b8a8abbfa97427b4ac800ab55be2f2c87311510f260048201526001600160a01b03871690639283ae3a9060240160206040518083038186803b1580156139c757600080fd5b505afa1580156139db573d6000803e3d6000fd5b505050506040513d601f19601f820116820180604052508101906139ff91906159ea565b8210155b8015613a9e57506040517fa230c5240000000000000000000000000000000000000000000000000000000081526001600160a01b03858116600483015287169063a230c5249060240160206040518083038186803b158015613a6457600080fd5b505afa158015613a78573d6000803e3d6000fd5b505050506040513d601f19601f82011682018060405250810190613a9c91906159a1565b155b8015613ad457506001600160a01b03861660009081526001602090815260408083208884529091529020613ad29085613b3e565b155b15613ae457600192505050611387565b50600095945050505050565b6001600160a01b0382166000908152602081905260409020613b129082613b3e565b613b3a576001600160a01b0382166000908152602081905260409020613b389082613b60565b505b5050565b6001600160a01b03811660009081526001830160205260408120541515611387565b6000611387836001600160a01b038416615568565b613b3a8282336155b7565b60606000611387836156ad565b6001600160a01b0382166000908152602081905260409020613baf9082615553565b506040517fa230c5240000000000000000000000000000000000000000000000000000000081526001600160a01b03828116600483015283169063a230c5249060240160206040518083038186803b158015613c0a57600080fd5b505afa158015613c1e573d6000803e3d6000fd5b505050506040513d601f19601f82011682018060405250810190613c4291906159a1565b8015613cd05750806001600160a01b0316826001600160a01b031663149acf9a6040518163ffffffff1660e01b815260040160206040518083038186803b158015613c8c57600080fd5b505afa158015613ca0573d6000803e3d6000fd5b505050506040513d601f19601f82011682018060405250810190613cc49190615852565b6001600160a01b031614155b15613b3a576040517f0b1ca49a0000000000000000000000000000000000000000000000000000000081526001600160a01b038281166004830152831690630b1ca49a90602401600060405180830381600087803b158015613d3157600080fd5b505af1158015613d45573d6000803e3d6000fd5b505050505050565b6040805161014081018252600080825260208201819052818301819052606082018190526080820181905260a0820181905260c0820181905260e08201819052610100820181905261012082015290516317ba7d8560e01b81527f372fda66f626a705d3a459960a1457403a7c3564acccedc00092ea70262b708360048201526001600160a01b038316906317ba7d859060240160206040518083038186803b158015613df957600080fd5b505afa158015613e0d573d6000803e3d6000fd5b505050506040513d601f19601f82011682018060405250810190613e319190615852565b6001600160a01b039081166101208301526040516317ba7d8560e01b81527f3a06648a49edffe95b8384794dfe9cf3ab34782fab0130b4c91bfd53f3407e6b6004820152908316906317ba7d859060240160206040518083038186803b158015613e9a57600080fd5b505afa158015613eae573d6000803e3d6000fd5b505050506040513d601f19601f82011682018060405250810190613ed29190615852565b6001600160a01b03908116606083018190526040516301c22a3d60e01b81529184166004830152906301c22a3d9060240160206040518083038186803b158015613f1b57600080fd5b505afa158015613f2f573d6000803e3d6000fd5b505050506040513d601f19601f82011682018060405250810190613f5391906159ea565b60e0820152604051634941d71d60e11b81527ff301d5aec67a9d816d38f9b645cac1e79a3308ff9803564bbe63a862db82f46b60048201526001600160a01b03831690639283ae3a9060240160206040518083038186803b158015613fb757600080fd5b505afa158015613fcb573d6000803e3d6000fd5b505050506040513d601f19601f82011682018060405250810190613fef91906159ea565b60011480156140ba5750604051634941d71d60e11b81527f7e07fb4530796d057ca1d76d83f47aa8629dbb7e942ac28f30ad6f5e9e8d418960048201526001600160a01b03831690639283ae3a9060240160206040518083038186803b15801561405857600080fd5b505afa15801561406c573d6000803e3d6000fd5b505050506040513d601f19601f8201168201806040525081019061409091906159ea565b6001600160a01b038316600090815260076020908152604080832060e08601518452909152902054115b15613b3a57604051632c9f4b5b60e11b81527f3909e87234f428ccb8748126e2c93f66a62f92a70d315fa5803dec6362be07ab60048201526001600160a01b0383169063593e96b69060240160206040518083038186803b15801561411e57600080fd5b505afa158015614132573d6000803e3d6000fd5b505050506040513d601f19601f820116820180604052508101906141569190615852565b6001600160a01b0390811682528216600090815260016020908152604080832060e08501518452909152812061418b90613b80565b9050600082602001818152505081600001516001600160a01b031663a87af66c6040518163ffffffff1660e01b815260040160206040518083038186803b1580156141d557600080fd5b505afa1580156141e9573d6000803e3d6000fd5b505050506040513d601f19601f8201168201806040525081019061420d9190615852565b6001600160a01b0390811660408481019190915251634941d71d60e11b81527f7e07fb4530796d057ca1d76d83f47aa8629dbb7e942ac28f30ad6f5e9e8d4189600482015290841690639283ae3a9060240160206040518083038186803b15801561427757600080fd5b505afa15801561428b573d6000803e3d6000fd5b505050506040513d601f19601f820116820180604052508101906142af91906159ea565b60808301526001600160a01b038316600081815260066020908152604080832060e08701805185529083528184205460a088015293835260078252808320935183529290529081205460c08401525b81518160ff16101561123f576001600160a01b038416600090815260026020908152604080832060e0870151845290915281208351909190849060ff851690811061435957634e487b7160e01b600052603260045260246000fd5b60200260200101516001600160a01b03166001600160a01b03168152602001908152602001600020548361010001818152505082608001518360a0015110614464576001600160a01b038416600090815260086020908152604080832060e0870151845290915281208351909190849060ff85169081106143ea57634e487b7160e01b600052603260045260246000fd5b6020908102919091018101516001600160a01b031682528101919091526040016000205460ff1615614454578260a0015183608001518461010001516144309190615b8f565b61443a9190615b6f565b83610100015161444a9190615bcc565b6020840152614543565b6101008301516020840152614543565b6001600160a01b038416600090815260086020908152604080832060e0870151845290915281208351909190849060ff85169081106144b357634e487b7160e01b600052603260045260246000fd5b6020908102919091018101516001600160a01b031682528101919091526040016000205460ff16156144eb5760006020840152614543565b8260a001518360c001516144ff9190615bcc565b8360a0015184608001516145139190615bcc565b8461010001516145239190615b8f565b61452d9190615b6f565b83610100015161453d9190615bcc565b60208401525b602083015115614874578261012001516001600160a01b03166301144ffd858560400151858560ff168151811061458a57634e487b7160e01b600052603260045260246000fd5b6020908102919091018101519088015160608901516040517fe956369e0000000000000000000000000000000000000000000000000000000081526001600160a01b038c811660048301529091169063e956369e9060240160206040518083038186803b1580156145fa57600080fd5b505afa15801561460e573d6000803e3d6000fd5b505050506040513d601f19601f8201168201806040525081019061463291906159ea565b6040516001600160e01b031960e088901b1681526001600160a01b03958616600482015293851660248501529390911660448301526064820152608481019190915260a401600060405180830381600087803b15801561469157600080fd5b505af11580156146a5573d6000803e3d6000fd5b505084516040516317ba7d8560e01b81527f372fda66f626a705d3a459960a1457403a7c3564acccedc00092ea70262b708360048201526001600160a01b03918216935063e176b35e9250908716906317ba7d859060240160206040518083038186803b15801561471557600080fd5b505afa158015614729573d6000803e3d6000fd5b505050506040513d601f19601f8201168201806040525081019061474d9190615852565b604080870151602088015191516001600160e01b031960e086901b1681526001600160a01b039384166004820152921660248301526044820152606401600060405180830381600087803b1580156147a457600080fd5b505af11580156147b8573d6000803e3d6000fd5b5050505082600001516001600160a01b031663e3a05cc1838360ff16815181106147f257634e487b7160e01b600052603260045260246000fd5b6020026020010151856040015186602001516040518463ffffffff1660e01b8152600401614841939291906001600160a01b039384168152919092166020820152604081019190915260600190565b600060405180830381600087803b15801561485b57600080fd5b505af115801561486f573d6000803e3d6000fd5b505050505b8061487e81615be3565b9150506142fe565b6001600160a01b038216600090815260016020908152604080832084845290915281206148b290613b80565b805190915015613b385760005b81518160ff16101561123f57836001600160a01b031663a230c524838360ff16815181106148fd57634e487b7160e01b600052603260045260246000fd5b60200260200101516040518263ffffffff1660e01b815260040161493091906001600160a01b0391909116815260200190565b60206040518083038186803b15801561494857600080fd5b505afa15801561495c573d6000803e3d6000fd5b505050506040513d601f19601f8201168201806040525081019061498091906159a1565b614a1c57836001600160a01b031663dc929f4a838360ff16815181106149b657634e487b7160e01b600052603260045260246000fd5b60200260200101516040518263ffffffff1660e01b81526004016149e991906001600160a01b0391909116815260200190565b600060405180830381600087803b158015614a0357600080fd5b505af1158015614a17573d6000803e3d6000fd5b505050505b80614a2681615be3565b9150506148bf565b6040805160e08101825260008082526020820181905281830181905260608083018290526080830182905260a083015260c08201529051632c9f4b5b60e11b81527f3909e87234f428ccb8748126e2c93f66a62f92a70d315fa5803dec6362be07ab60048201526001600160a01b0383169063593e96b69060240160206040518083038186803b158015614ac157600080fd5b505afa158015614ad5573d6000803e3d6000fd5b505050506040513d601f19601f82011682018060405250810190614af99190615852565b6001600160a01b0390811682526040516317ba7d8560e01b81527f3a06648a49edffe95b8384794dfe9cf3ab34782fab0130b4c91bfd53f3407e6b6004820152908316906317ba7d859060240160206040518083038186803b158015614b5e57600080fd5b505afa158015614b72573d6000803e3d6000fd5b505050506040513d601f19601f82011682018060405250810190614b969190615852565b6001600160a01b03908116602083018190526040516301c22a3d60e01b81529184166004830152906301c22a3d9060240160206040518083038186803b158015614bdf57600080fd5b505afa158015614bf3573d6000803e3d6000fd5b505050506040513d601f19601f82011682018060405250810190614c1791906159ea565b81606001818152505080600001516001600160a01b031663a87af66c6040518163ffffffff1660e01b815260040160206040518083038186803b158015614c5d57600080fd5b505afa158015614c71573d6000803e3d6000fd5b505050506040513d601f19601f82011682018060405250810190614c959190615852565b6001600160a01b03908116608083015282166000908152600160209081526040808320606085015184529091529020614ccd90613b80565b60a082018190525115613b3a5760005b8160a00151518160ff161015613b38576001600160a01b038316600090815260026020908152604080832060608601518452909152812060a0840151805191929160ff8516908110614d3f57634e487b7160e01b600052603260045260246000fd5b6020908102919091018101516001600160a01b031682528101919091526040016000205460c083018190521561512c576040516317ba7d8560e01b81527f372fda66f626a705d3a459960a1457403a7c3564acccedc00092ea70262b708360048201526001600160a01b038416906317ba7d859060240160206040518083038186803b158015614dce57600080fd5b505afa158015614de2573d6000803e3d6000fd5b505050506040513d601f19601f82011682018060405250810190614e069190615852565b6001600160a01b031660408301819052608083015160a08401518051636b99029e928792909160ff8716908110614e4d57634e487b7160e01b600052603260045260246000fd5b60200260200101518660c0015187602001516001600160a01b031663e956369e8a6040518263ffffffff1660e01b8152600401614e9991906001600160a01b0391909116815260200190565b60206040518083038186803b158015614eb157600080fd5b505afa158015614ec5573d6000803e3d6000fd5b505050506040513d601f19601f82011682018060405250810190614ee991906159ea565b6040516001600160e01b031960e088901b1681526001600160a01b03958616600482015293851660248501529390911660448301526064820152608481019190915260a401600060405180830381600087803b158015614f4857600080fd5b505af1158015614f5c573d6000803e3d6000fd5b505083516040516317ba7d8560e01b81527f372fda66f626a705d3a459960a1457403a7c3564acccedc00092ea70262b708360048201526001600160a01b03918216935063e176b35e9250908616906317ba7d859060240160206040518083038186803b158015614fcc57600080fd5b505afa158015614fe0573d6000803e3d6000fd5b505050506040513d601f19601f820116820180604052508101906150049190615852565b608085015160c08601516040516001600160e01b031960e086901b1681526001600160a01b0393841660048201529290911660248301526044820152606401600060405180830381600087803b15801561505d57600080fd5b505af1158015615071573d6000803e3d6000fd5b5050505081600001516001600160a01b031663e3a05cc18360a001518360ff16815181106150af57634e487b7160e01b600052603260045260246000fd5b6020908102919091010151608085015160c08601516040516001600160e01b031960e086901b1681526001600160a01b0393841660048201529290911660248301526044820152606401600060405180830381600087803b15801561511357600080fd5b505af1158015615127573d6000803e3d6000fd5b505050505b6001600160a01b038316600090815260026020908152604080832060608601518452909152812060a0840151805183919060ff861690811061517e57634e487b7160e01b600052603260045260246000fd5b60200260200101516001600160a01b03166001600160a01b031681526020019081526020016000208190555061520c8260a001518260ff16815181106151d457634e487b7160e01b600052603260045260246000fd5b6020908102919091018101516001600160a01b0386166000908152600183526040808220606088015183529093529190912090615553565b508061521781615be3565b915050614cdd565b6000816001600160a01b03166348f7f2a36040518163ffffffff1660e01b815260040160206040518083038186803b15801561525a57600080fd5b505afa15801561526e573d6000803e3d6000fd5b505050506040513d601f19601f820116820180604052508101906152929190615852565b6001600160a01b0316638da5cb5b6040518163ffffffff1660e01b815260040160206040518083038186803b1580156152ca57600080fd5b505afa1580156152de573d6000803e3d6000fd5b505050506040513d601f19601f820116820180604052508101906112699190615852565b6040516317ba7d8560e01b81527f1ec3ab9b73a5166bb51de3096776c3fb06df7dc0a5e2df3038eb0588fad3adbc60048201526000906001600160a01b038516906317ba7d859060240160206040518083038186803b15801561536457600080fd5b505afa158015615378573d6000803e3d6000fd5b505050506040513d601f19601f8201168201806040525081019061539c9190615852565b604051632c9f4b5b60e11b81527f3909e87234f428ccb8748126e2c93f66a62f92a70d315fa5803dec6362be07ab600482015290915081906000906001600160a01b0387169063593e96b69060240160206040518083038186803b15801561540357600080fd5b505afa158015615417573d6000803e3d6000fd5b505050506040513d601f19601f8201168201806040525081019061543b9190615852565b6040517f871c22370000000000000000000000000000000000000000000000000000000081526001600160a01b0388811660048301524360248301528781166044830152606482018790529192509083169063871c223790608401600060405180830381600087803b1580156154b057600080fd5b505af11580156154c4573d6000803e3d6000fd5b50506040517fe176b35e0000000000000000000000000000000000000000000000000000000081526001600160a01b0386811660048301528881166024830152604482018890528416925063e176b35e9150606401600060405180830381600087803b15801561553357600080fd5b505af1158015615547573d6000803e3d6000fd5b50505050505050505050565b6000611387836001600160a01b038416615709565b60008181526001830160205260408120546155af57508154600181810184556000848152602080822090930184905584548482528286019093526040902091909155611269565b506000611269565b8160200151156156555781606001516001600160a01b0316635e5eb01384835a86516155e39190615bcc565b60408088015190516001600160e01b031960e087901b1681526001600160a01b03948516600482015293909216602484015260448301526064820152608401600060405180830381600087803b15801561563c57600080fd5b505af1158015615650573d6000803e3d6000fd5b505050505b826001600160a01b031663d4f7af436040518163ffffffff1660e01b8152600401600060405180830381600087803b15801561569057600080fd5b505af11580156156a4573d6000803e3d6000fd5b50505050505050565b6060816000018054806020026020016040519081016040528092919081815260200182805480156156fd57602002820191906000526020600020905b8154815260200190600101908083116156e9575b50505050509050919050565b6000818152600183016020526040812054801561581c57600061572d600183615bcc565b855490915060009061574190600190615bcc565b90508181146157c257600086600001828154811061576f57634e487b7160e01b600052603260045260246000fd5b90600052602060002001549050808760000184815481106157a057634e487b7160e01b600052603260045260246000fd5b6000918252602080832090910192909255918252600188019052604090208390555b85548690806157e157634e487b7160e01b600052603160045260246000fd5b600190038181906000526020600020016000905590558560010160008681526020019081526020016000206000905560019350505050611269565b6000915050611269565b805161583181615c2f565b919050565b600060208284031215615847578081fd5b813561138781615c2f565b600060208284031215615863578081fd5b815161138781615c2f565b60008060408385031215615880578081fd5b823561588b81615c2f565b946020939093013593505050565b6000806000606084860312156158ad578081fd5b83356158b881615c2f565b92506020840135915060408401356158cf81615c2f565b809150509250925092565b600060208083850312156158ec578182fd5b825167ffffffffffffffff80821115615903578384fd5b818501915085601f830112615916578384fd5b81518181111561592857615928615c19565b8060051b604051601f19603f8301168101818110858211171561594d5761594d615c19565b604052828152858101935084860182860187018a101561596b578788fd5b8795505b838610156159945761598081615826565b85526001959095019493860193860161596f565b5098975050505050505050565b6000602082840312156159b2578081fd5b815161138781615c47565b600080604083850312156159cf578182fd5b82516159da81615c47565b6020939093015192949293505050565b6000602082840312156159fb578081fd5b5051919050565b60008060408385031215615a14578182fd5b823591506020830135615a2681615c2f565b809150509250929050565b60008060408385031215615a43578182fd5b8235615a4e81615c2f565b91506020830135615a2681615c2f565b600080600060608486031215615a72578283fd5b8335615a7d81615c2f565b92506020840135615a8d81615c2f565b915060408401356158cf81615c47565b60008060408385031215615880578182fd5b60048110615acd57634e487b7160e01b600052602160045260246000fd5b9052565b6001600160a01b038416815260608101615aee6020830185615aaf565b826040830152949350505050565b6020808252825182820181905260009190848201906040850190845b81811015615b3d5783516001600160a01b031683529284019291840191600101615b18565b50909695505050505050565b602081016112698284615aaf565b60008219821115615b6a57615b6a615c03565b500190565b600082615b8a57634e487b7160e01b81526012600452602481fd5b500490565b6000817fffffffffffffffffffffffffffffffffffffffffffffffffffffffffffffffff0483118215151615615bc757615bc7615c03565b500290565b600082821015615bde57615bde615c03565b500390565b600060ff821660ff811415615bfa57615bfa615c03565b60010192915050565b634e487b7160e01b600052601160045260246000fd5b634e487b7160e01b600052604160045260246000fd5b6001600160a01b0381168114615c4457600080fd5b50565b8015158114615c4457600080fdfea2646970667358221220832bbcc5e096b8b438201a4536963bff81ec40d35b860286df405014045ba64264736f6c63430008040033",
  "linkReferences": {},
  "deployedLinkReferences": {}
}