{
  "_format": "hh-sol-artifact-1",
  "contractName": "ColletiveGovernorManagementAdapterContract",
  "sourceName": "contracts/collective/adapters/CollectiveGovernorManagementAdapter.sol",
  "abi": [
    {
      "inputs": [],
      "name": "GRACE_PERIOD",
      "type": "error"
    },
    {
      "inputs": [],
      "name": "SUMMONOR_CANT_QUIT",
      "type": "error"
    },
    {
      "inputs": [],
      "name": "UNDONE_INVESTMET_PROPOSAL",
      "type": "error"
    },
    {
      "anonymous": false,
      "inputs": [
        {
          "indexed": false,
          "internalType": "address",
          "name": "daoAddr",
          "type": "address"
        },
        {
          "indexed": false,
          "internalType": "address",
          "name": "governor",
          "type": "address"
        }
      ],
      "name": "GovernorQuit",
      "type": "event"
    },
    {
      "anonymous": false,
      "inputs": [
        {
          "indexed": false,
          "internalType": "address",
          "name": "daoAddr",
          "type": "address"
        },
        {
          "indexed": false,
          "internalType": "bytes32",
          "name": "proposalId",
          "type": "bytes32"
        },
        {
          "indexed": false,
          "internalType": "address",
          "name": "account",
          "type": "address"
        },
        {
          "indexed": false,
          "internalType": "uint256",
          "name": "creationTime",
          "type": "uint256"
        },
        {
          "indexed": false,
          "internalType": "uint256",
          "name": "stopVoteTime",
          "type": "uint256"
        },
        {
          "indexed": false,
          "internalType": "enum ColletiveGovernorManagementAdapterContract.ProposalType",
          "name": "pType",
          "type": "uint8"
        }
      ],
      "name": "ProposalCreated",
      "type": "event"
    },
    {
      "anonymous": false,
      "inputs": [
        {
          "indexed": false,
          "internalType": "address",
          "name": "daoAddr",
          "type": "address"
        },
        {
          "indexed": false,
          "internalType": "bytes32",
          "name": "proposalId",
          "type": "bytes32"
        },
        {
          "indexed": false,
          "internalType": "enum ColletiveGovernorManagementAdapterContract.ProposalState",
          "name": "state",
          "type": "uint8"
        },
        {
          "indexed": false,
          "internalType": "uint128",
          "name": "allVotingWeight",
          "type": "uint128"
        },
        {
          "indexed": false,
          "internalType": "uint256",
          "name": "nbYes",
          "type": "uint256"
        },
        {
          "indexed": false,
          "internalType": "uint256",
          "name": "nbNo",
          "type": "uint256"
        },
        {
          "indexed": false,
          "internalType": "uint256",
          "name": "voteResult",
          "type": "uint256"
        }
      ],
      "name": "ProposalProcessed",
      "type": "event"
    },
    {
      "anonymous": false,
      "inputs": [
        {
          "indexed": false,
          "internalType": "address",
          "name": "daoAddr",
          "type": "address"
        },
        {
          "indexed": false,
          "internalType": "bytes32",
          "name": "proposalId",
          "type": "bytes32"
        },
        {
          "indexed": false,
          "internalType": "enum ColletiveGovernorManagementAdapterContract.ProposalState",
          "name": "state",
          "type": "uint8"
        },
        {
          "indexed": false,
          "internalType": "uint256",
          "name": "startVoteTime",
          "type": "uint256"
        },
        {
          "indexed": false,
          "internalType": "uint256",
          "name": "stopVoteTime",
          "type": "uint256"
        }
      ],
      "name": "StartVoting",
      "type": "event"
    },
    {
      "inputs": [
        {
          "internalType": "contract DaoRegistry",
          "name": "dao",
          "type": "address"
        }
      ],
      "name": "allDone",
      "outputs": [
        {
          "internalType": "bool",
          "name": "",
          "type": "bool"
        }
      ],
      "stateMutability": "view",
      "type": "function"
    },
    {
      "inputs": [
        {
          "internalType": "address",
          "name": "",
          "type": "address"
        },
        {
          "internalType": "bytes32",
          "name": "",
          "type": "bytes32"
        },
        {
          "internalType": "address",
          "name": "",
          "type": "address"
        },
        {
          "internalType": "address",
          "name": "",
          "type": "address"
        }
      ],
      "name": "approvedInfos",
      "outputs": [
        {
          "internalType": "uint256",
          "name": "",
          "type": "uint256"
        }
      ],
      "stateMutability": "view",
      "type": "function"
    },
    {
      "inputs": [
        {
          "internalType": "contract DaoRegistry",
          "name": "dao",
          "type": "address"
        }
      ],
      "name": "clearGovernorWhitelist",
      "outputs": [],
      "stateMutability": "nonpayable",
      "type": "function"
    },
    {
      "inputs": [
        {
          "internalType": "contract DaoRegistry",
          "name": "dao",
          "type": "address"
        }
      ],
      "name": "getAllGovernor",
      "outputs": [
        {
          "internalType": "address[]",
          "name": "",
          "type": "address[]"
        }
      ],
      "stateMutability": "view",
      "type": "function"
    },
    {
      "inputs": [
        {
          "internalType": "contract DaoRegistry",
          "name": "dao",
          "type": "address"
        }
      ],
      "name": "getGovernorAmount",
      "outputs": [
        {
          "internalType": "uint256",
          "name": "",
          "type": "uint256"
        }
      ],
      "stateMutability": "view",
      "type": "function"
    },
    {
      "inputs": [
        {
          "internalType": "address",
          "name": "daoAddr",
          "type": "address"
        }
      ],
      "name": "getGovernorWhitelist",
      "outputs": [
        {
          "internalType": "address[]",
          "name": "",
          "type": "address[]"
        }
      ],
      "stateMutability": "view",
      "type": "function"
    },
    {
      "inputs": [
        {
          "internalType": "contract DaoRegistry",
          "name": "dao",
          "type": "address"
        },
        {
          "internalType": "address",
          "name": "_addr",
          "type": "address"
        }
      ],
      "name": "isActiveMember",
      "outputs": [
        {
          "internalType": "bool",
          "name": "",
          "type": "bool"
        }
      ],
      "stateMutability": "view",
      "type": "function"
    },
    {
      "inputs": [
        {
          "internalType": "contract DaoRegistry",
          "name": "dao",
          "type": "address"
        },
        {
          "internalType": "address",
          "name": "account",
          "type": "address"
        }
      ],
      "name": "isGovernorWhiteList",
      "outputs": [
        {
          "internalType": "bool",
          "name": "",
          "type": "bool"
        }
      ],
      "stateMutability": "view",
      "type": "function"
    },
    {
      "inputs": [
        {
          "internalType": "contract DaoRegistry",
          "name": "dao",
          "type": "address"
        },
        {
          "internalType": "bytes32",
          "name": "proposalId",
          "type": "bytes32"
        }
      ],
      "name": "processProposal",
      "outputs": [],
      "stateMutability": "nonpayable",
      "type": "function"
    },
    {
      "inputs": [
        {
          "internalType": "contract DaoRegistry",
          "name": "",
          "type": "address"
        },
        {
          "internalType": "bytes32",
          "name": "",
          "type": "bytes32"
        }
      ],
      "name": "proposals",
      "outputs": [
        {
          "internalType": "bytes32",
          "name": "id",
          "type": "bytes32"
        },
        {
          "internalType": "address",
          "name": "account",
          "type": "address"
        },
        {
          "internalType": "address",
          "name": "tokenAddress",
          "type": "address"
        },
        {
          "internalType": "uint256",
          "name": "depositAmount",
          "type": "uint256"
        },
        {
          "internalType": "uint256",
          "name": "startVoteTime",
          "type": "uint256"
        },
        {
          "internalType": "uint256",
          "name": "stopVoteTime",
          "type": "uint256"
        },
        {
          "internalType": "enum ColletiveGovernorManagementAdapterContract.ProposalState",
          "name": "state",
          "type": "uint8"
        },
        {
          "internalType": "enum ColletiveGovernorManagementAdapterContract.ProposalType",
          "name": "pType",
          "type": "uint8"
        }
      ],
      "stateMutability": "view",
      "type": "function"
    },
    {
      "inputs": [
        {
          "internalType": "contract DaoRegistry",
          "name": "dao",
          "type": "address"
        }
      ],
      "name": "quit",
      "outputs": [],
      "stateMutability": "nonpayable",
      "type": "function"
    },
    {
      "inputs": [
        {
          "internalType": "contract DaoRegistry",
          "name": "dao",
          "type": "address"
        },
        {
          "internalType": "address",
          "name": "account",
          "type": "address"
        }
      ],
      "name": "registerGovernorWhiteList",
      "outputs": [],
      "stateMutability": "nonpayable",
      "type": "function"
    },
    {
      "inputs": [
        {
          "internalType": "address",
          "name": "dao",
          "type": "address"
        },
        {
          "internalType": "bytes32",
          "name": "proposalId",
          "type": "bytes32"
        },
        {
          "internalType": "address",
          "name": "erc20",
          "type": "address"
        },
        {
          "internalType": "uint256",
          "name": "amount",
          "type": "uint256"
        }
      ],
      "name": "setGovernorInApprove",
      "outputs": [
        {
          "internalType": "bool",
          "name": "",
          "type": "bool"
        }
      ],
      "stateMutability": "nonpayable",
      "type": "function"
    },
    {
      "inputs": [
        {
          "internalType": "contract DaoRegistry",
          "name": "dao",
          "type": "address"
        },
        {
          "internalType": "bytes32",
          "name": "proposalId",
          "type": "bytes32"
        }
      ],
      "name": "startVoting",
      "outputs": [
        {
          "internalType": "bool",
          "name": "",
          "type": "bool"
        }
      ],
      "stateMutability": "nonpayable",
      "type": "function"
    },
    {
      "inputs": [
        {
          "internalType": "contract DaoRegistry",
          "name": "dao",
          "type": "address"
        },
        {
          "internalType": "address",
          "name": "applicant",
          "type": "address"
        },
        {
          "internalType": "uint256",
          "name": "depositAmount",
          "type": "uint256"
        }
      ],
      "name": "submitGovernorInProposal",
      "outputs": [
        {
          "internalType": "bytes32",
          "name": "",
          "type": "bytes32"
        }
      ],
      "stateMutability": "nonpayable",
      "type": "function"
    },
    {
      "inputs": [
        {
          "internalType": "contract DaoRegistry",
          "name": "dao",
          "type": "address"
        },
        {
          "internalType": "address",
          "name": "applicant",
          "type": "address"
        }
      ],
      "name": "submitGovernorOutProposal",
      "outputs": [
        {
          "internalType": "bytes32",
          "name": "",
          "type": "bytes32"
        }
      ],
      "stateMutability": "nonpayable",
      "type": "function"
    }
  ],
  "bytecode": "0x608060405234801561001057600080fd5b506150f9806100206000396000f3fe608060405234801561001057600080fd5b50600436106101005760003560e01c80637bf8003c11610097578063bda4f97711610066578063bda4f977146102e7578063d32b91dd146102fa578063dab12fee1461030d578063fbb65b701461032057600080fd5b80637bf8003c146102625780638ecf7720146102755780639573167d146102885780639cc3c2791461029b57600080fd5b80635cb75276116100d35780635cb752761461018d57806360c5c28f1461020c578063642fc0c01461021f578063792c41061461024257600080fd5b806322c5c2cc146101055780632d258e721461011a57806333f7bc0c14610140578063416c5ddd14610153575b600080fd5b610118610113366004614967565b610333565b005b61012d610128366004614967565b610509565b6040519081526020015b60405180910390f35b61011861014e366004614b5c565b61051a565b61012d61016136600461499f565b600360209081526000948552604080862082529385528385208152918452828420909152825290205481565b6101f861019b366004614bd4565b6000602081815292815260408082209093529081522080546001820154600283015460038401546004850154600586015460069096015494956001600160a01b039485169594909316939192909160ff8082169161010090041688565b604051610137989796959493929190614e7a565b61012d61021a366004614b5c565b61066c565b61023261022d366004614967565b610c6a565b6040519015158152602001610137565b610255610250366004614967565b610ca1565b6040516101379190614e2d565b61012d610270366004614b94565b610cac565b610232610283366004614b5c565b6118fa565b610118610296366004614bd4565b61197e565b6102326102a93660046149f1565b6001600160a01b0393841660009081526003602090815260408083209583529481528482203383528152848220939095168152919093522055600190565b6102556102f5366004614967565b612393565b610118610308366004614967565b6123b7565b61023261031b366004614b5c565b612870565b61023261032e366004614bd4565b612892565b6040516317ba7d8560e01b81527fdac6d9ce728ebc92a61253866b4e5a4c73b76ba0aa11e7297a633f6232f5423760048201526001600160a01b038216906317ba7d859060240160206040518083038186803b15801561039257600080fd5b505afa1580156103a6573d6000803e3d6000fd5b505050506040513d601f19601f820116820180604052508101906103ca9190614983565b6001600160a01b0316336001600160a01b03161461042f5760405162461bcd60e51b815260206004820152600760248201527f216163636573730000000000000000000000000000000000000000000000000060448201526064015b60405180910390fd5b6001600160a01b038116600090815260016020526040812061045090612db0565b516001600160a01b038316600090815260016020526040902090915060609061047890612db0565b905081156105045760005b828160ff161015610502576104ef828260ff16815181106104b457634e487b7160e01b600052603260045260246000fd5b602002602001015160016000876001600160a01b03166001600160a01b03168152602001908152602001600020612dbd90919063ffffffff16565b50806104fa8161501f565b915050610483565b505b505050565b600061051482612dd2565b92915050565b6040516317ba7d8560e01b81527fdac6d9ce728ebc92a61253866b4e5a4c73b76ba0aa11e7297a633f6232f5423760048201526001600160a01b038316906317ba7d859060240160206040518083038186803b15801561057957600080fd5b505afa15801561058d573d6000803e3d6000fd5b505050506040513d601f19601f820116820180604052508101906105b19190614983565b6001600160a01b0316336001600160a01b031614806105d457506105d482612fae565b6106205760405162461bcd60e51b815260206004820152600760248201527f21616363657373000000000000000000000000000000000000000000000000006044820152606401610426565b6001600160a01b038216600090815260016020526040902061064290826131ce565b610668576001600160a01b038216600090815260016020526040902061050490826131f0565b5050565b6000826106798133613205565b8360006106858261325b565b60405163288c314960e21b81526001600160a01b0387811660048301529192509087169063a230c5249060240160206040518083038186803b1580156106ca57600080fd5b505afa1580156106de573d6000803e3d6000fd5b505050506040513d601f19601f820116820180604052508101906107029190614aff565b61074e5760405162461bcd60e51b815260206004820152601760248201527f4170706c6963616e742049736e7420476f7665726e6f720000000000000000006044820152606401610426565b61075786613526565b6107a35760405162461bcd60e51b815260206004820152601660248201527f556e446f6e652044616f7365742050726f706f73616c000000000000000000006044820152606401610426565b6040516317ba7d8560e01b81527f72894213a5c7f56b36b2947fa6ea18963d6bb1a68746b46d7f552cca76e1a7a860048201526000906001600160a01b038816906317ba7d859060240160206040518083038186803b15801561080557600080fd5b505afa158015610819573d6000803e3d6000fd5b505050506040513d601f19601f8201168201806040525081019061083d9190614983565b6040517f62e86df50000000000000000000000000000000000000000000000000000000081526001600160a01b0389811660048301529192506000918316906362e86df59060240160206040518083038186803b15801561089d57600080fd5b505afa1580156108b1573d6000803e3d6000fd5b505050506040513d601f19601f820116820180604052508101906108d59190614b44565b1461090c576040517fda21951f00000000000000000000000000000000000000000000000000000000815260040160405180910390fd5b866001600160a01b031663250a70b76040518163ffffffff1660e01b8152600401600060405180830381600087803b15801561094757600080fd5b505af115801561095b573d6000803e3d6000fd5b505050506000610a068860c01b6109e18a6001600160a01b0316633ea34b866040518163ffffffff1660e01b815260040160206040518083038186803b1580156109a457600080fd5b505afa1580156109b8573d6000803e3d6000fd5b505050506040513d601f19601f820116820180604052508101906109dc9190614b44565b613620565b6040516020016109f2929190614ce9565b604051602081830303815290604052613776565b604051634941d71d60e11b81527f9876c0f0505bfb2b1c38d3bbd25ba13159172cd0868972d76927723f5a9480fc600482015290915042906000906001600160a01b038b1690639283ae3a9060240160206040518083038186803b158015610a6d57600080fd5b505afa158015610a81573d6000803e3d6000fd5b505050506040513d601f19601f82011682018060405250810190610aa59190614b44565b610aaf9083614f77565b9050610abe8a848b8585613792565b610ac88a84613a45565b6040516317ba7d8560e01b81527f907642cbfe4e58ddd14eaa320923fbe4c29721dd0950ae4cb3b2626e292791ae60048201526000906001600160a01b038c16906317ba7d859060240160206040518083038186803b158015610b2a57600080fd5b505afa158015610b3e573d6000803e3d6000fd5b505050506040513d601f19601f82011682018060405250810190610b629190614983565b604080516020810182526000815290517f2b0974d00000000000000000000000000000000000000000000000000000000081529192506001600160a01b03831691632b0974d091610bb9918f918991600401614ef9565b600060405180830381600087803b158015610bd357600080fd5b505af1158015610be7573d6000803e3d6000fd5b5050506001600160a01b038c166000908152600260205260409020610c0d915085613b61565b507ffea2665062ba82dc413c7c18c28f836789917497e349b8c156ebaaae175ddabf8b858c86866001604051610c4896959493929190614d57565b60405180910390a150919650505050610c618282613b6d565b50505092915050565b6001600160a01b03811660009081526002602052604081208190610c8d90613b78565b11610c99576001610514565b600092915050565b606061051482613b82565b6000836000610cba8261325b565b905085610cc78133613205565b604051634941d71d60e11b81527f02049446ffbff09ad55d6fdb03c8c6027cf548332d30663e8fdf960abdab86ea6004820152879087906001600160a01b03831690639283ae3a9060240160206040518083038186803b158015610d2a57600080fd5b505afa158015610d3e573d6000803e3d6000fd5b505050506040513d601f19601f82011682018060405250810190610d629190614b44565b6001141561144957604051634941d71d60e11b81527f09f0ac4191623c4a1e481e66bb865f218d9f5bcef4e65b597583a054b10182bc60048201526000906001600160a01b03841690639283ae3a9060240160206040518083038186803b158015610dcc57600080fd5b505afa158015610de0573d6000803e3d6000fd5b505050506040513d601f19601f82011682018060405250810190610e049190614b44565b604051634941d71d60e11b81527f6bdd30ca7a0b5a78cdfd780fd2f234880048cafa893e9ccbc9f82df25cdc717f60048201529091506000906001600160a01b03851690639283ae3a9060240160206040518083038186803b158015610e6957600080fd5b505afa158015610e7d573d6000803e3d6000fd5b505050506040513d601f19601f82011682018060405250810190610ea19190614b44565b604051634941d71d60e11b81527f032de4639c5a8edd1ea478b1345b2d031f42ecd2b29442d3080c9ac0545b5f8e60048201529091506000906001600160a01b03861690639283ae3a9060240160206040518083038186803b158015610f0657600080fd5b505afa158015610f1a573d6000803e3d6000fd5b505050506040513d601f19601f82011682018060405250810190610f3e9190614b44565b6040517ffd310d290000000000000000000000000000000000000000000000000000000081527f0567bf43e78d815625031c35adddd5d701cb6b913fbad3b625b4f8c00fdc42aa60048201529091506000906001600160a01b0387169063fd310d299060240160206040518083038186803b158015610fbc57600080fd5b505afa158015610fd0573d6000803e3d6000fd5b505050506040513d601f19601f82011682018060405250810190610ff49190614983565b6040516317ba7d8560e01b81527f8f5b4aabbdb8527d420a29cc90ae207773ad49b73c632c3cfd2f29eb8776f2ea60048201529091506000906001600160a01b038816906317ba7d859060240160206040518083038186803b15801561105957600080fd5b505afa15801561106d573d6000803e3d6000fd5b505050506040513d601f19601f820116820180604052508101906110919190614983565b90508461118c576040516370a0823160e01b81526001600160a01b0387811660048301528591908416906370a082319060240160206040518083038186803b1580156110dc57600080fd5b505afa1580156110f0573d6000803e3d6000fd5b505050506040513d601f19601f820116820180604052508101906111149190614b44565b10156111875760405162461bcd60e51b8152602060048201526024808201527f3c20657263323020746f6b656e206d696e20686f6c64696e672072657175697260448201527f6d656e74000000000000000000000000000000000000000000000000000000006064820152608401610426565b611443565b8460011415611285576040516370a0823160e01b81526001600160a01b0387811660048301528591908416906370a082319060240160206040518083038186803b1580156111d957600080fd5b505afa1580156111ed573d6000803e3d6000fd5b505050506040513d601f19601f820116820180604052508101906112119190614b44565b10156111875760405162461bcd60e51b815260206004820152602560248201527f3c2065726337323120746f6b656e206d696e20686f6c64696e6720726571756960448201527f726d656e740000000000000000000000000000000000000000000000000000006064820152608401610426565b846002141561139c576040517efdd58e0000000000000000000000000000000000000000000000000000000081526001600160a01b0387811660048301526024820185905285919084169062fdd58e9060440160206040518083038186803b1580156112f057600080fd5b505afa158015611304573d6000803e3d6000fd5b505050506040513d601f19601f820116820180604052508101906113289190614b44565b10156111875760405162461bcd60e51b815260206004820152602660248201527f3c206572633131353520746f6b656e206d696e20686f6c64696e67207265717560448201527f69726d656e7400000000000000000000000000000000000000000000000000006064820152608401610426565b84600314156113fb576113af8787612870565b6111875760405162461bcd60e51b815260206004820152601960248201527f6e6f7420696e20676f7665726e6f722077686974656c697374000000000000006044820152606401610426565b60405162461bcd60e51b815260206004820152601760248201527f696e76616c6964206d656d6265727368697020747970650000000000000000006044820152606401610426565b50505050505b6040805160608101825260008082526020820181905281830152905163288c314960e21b81526001600160a01b038a811660048301528b169063a230c5249060240160206040518083038186803b1580156114a357600080fd5b505afa1580156114b7573d6000803e3d6000fd5b505050506040513d601f19601f820116820180604052508101906114db9190614aff565b156115285760405162461bcd60e51b815260206004820152601360248201527f497320476f7665726e6f7220616c7265616479000000000000000000000000006044820152606401610426565b6115318a613526565b61157d5760405162461bcd60e51b815260206004820152601660248201527f556e446f6e652044616f7365742050726f706f73616c000000000000000000006044820152606401610426565b6040516317ba7d8560e01b81527f72894213a5c7f56b36b2947fa6ea18963d6bb1a68746b46d7f552cca76e1a7a860048201526000906001600160a01b038c16906317ba7d859060240160206040518083038186803b1580156115df57600080fd5b505afa1580156115f3573d6000803e3d6000fd5b505050506040513d601f19601f820116820180604052508101906116179190614983565b6040517f62e86df50000000000000000000000000000000000000000000000000000000081526001600160a01b038d811660048301529192506000918316906362e86df59060240160206040518083038186803b15801561167757600080fd5b505afa15801561168b573d6000803e3d6000fd5b505050506040513d601f19601f820116820180604052508101906116af9190614b44565b146116e6576040517fda21951f00000000000000000000000000000000000000000000000000000000815260040160405180910390fd5b8a6001600160a01b031663ec56a1f26040518163ffffffff1660e01b8152600401600060405180830381600087803b15801561172157600080fd5b505af1158015611735573d6000803e3d6000fd5b5050505061178d8b60c01b61177c8d6001600160a01b03166352c1d9016040518163ffffffff1660e01b815260040160206040518083038186803b1580156109a457600080fd5b6040516020016109f2929190614c7b565b82526040517ffd310d290000000000000000000000000000000000000000000000000000000081527f7fa36390a0e9b8b8004035572fd8345b1128cea12d1763a1baf8fbd4fb7b202760048201526000906001600160a01b038d169063fd310d299060240160206040518083038186803b15801561180a57600080fd5b505afa15801561181e573d6000803e3d6000fd5b505050506040513d601f19601f820116820180604052508101906118429190614983565b905061185f8c84600001518d848e88602001518960400151613bf9565b61186d8c8460000151613a45565b82516001600160a01b038d16600090815260026020526040902061189091613b61565b507ffea2665062ba82dc413c7c18c28f836789917497e349b8c156ebaaae175ddabf8c84600001518d8660200151876040015160006040516118d796959493929190614d57565b60405180910390a150505195505050506118f18282613b6d565b50509392505050565b60405163288c314960e21b81526001600160a01b0382811660048301526000919084169063a230c5249060240160206040518083038186803b15801561193f57600080fd5b505afa158015611953573d6000803e3d6000fd5b505050506040513d601f19601f820116820180604052508101906119779190614aff565b9392505050565b81600061198a8261325b565b6001600160a01b038516600090815260208181526040808320878452909152902080549192509084146119ff5760405162461bcd60e51b815260206004820152601760248201527f70726f706f73616c20646f6573206e6f742065786973740000000000000000006044820152606401610426565b6040517ff941f6910000000000000000000000000000000000000000000000000000000081526001600160a01b0386169063f941f69190611a47908790600290600401614ed5565b60206040518083038186803b158015611a5f57600080fd5b505afa158015611a73573d6000803e3d6000fd5b505050506040513d601f19601f82011682018060405250810190611a979190614aff565b15611ae45760405162461bcd60e51b815260206004820152601a60248201527f70726f706f73616c20616c72656164792070726f6365737365640000000000006044820152606401610426565b6001600682015460ff166004811115611b0d57634e487b7160e01b600052602160045260246000fd5b14611b5a5760405162461bcd60e51b815260206004820152601160248201527f616c72656164792070726f6365737365640000000000000000000000000000006044820152606401610426565b6040516317ba7d8560e01b81527f907642cbfe4e58ddd14eaa320923fbe4c29721dd0950ae4cb3b2626e292791ae60048201526000906001600160a01b038716906317ba7d859060240160206040518083038186803b158015611bbc57600080fd5b505afa158015611bd0573d6000803e3d6000fd5b505050506040513d601f19601f82011682018060405250810190611bf49190614983565b90506001600160a01b038116611c4c5760405162461bcd60e51b815260206004820152601160248201527f61646170746572206e6f7420666f756e640000000000000000000000000000006044820152606401610426565b6040517f76225e730000000000000000000000000000000000000000000000000000000081526001600160a01b0387811660048301526024820187905260009182918291908516906376225e7390604401606060405180830381600087803b158015611cb757600080fd5b505af1158015611ccb573d6000803e3d6000fd5b505050506040513d601f19601f82011682018060405250810190611cef9190614c1e565b919450925090506000611d018a613ead565b6040517f30490e91000000000000000000000000000000000000000000000000000000008152600481018b90529091506001600160a01b038b16906330490e9190602401600060405180830381600087803b158015611d5f57600080fd5b505af1158015611d73573d6000803e3d6000fd5b5060029250611d80915050565b846005811115611da057634e487b7160e01b600052602160045260246000fd5b14156121f857600686018054600260ff1990911617908190556001808801546001600160a01b03169160009161010090910460ff1690811115611df357634e487b7160e01b600052602160045260246000fd5b1415612000576040516317ba7d8560e01b81527f8f5b4aabbdb8527d420a29cc90ae207773ad49b73c632c3cfd2f29eb8776f2ea60048201526000906001600160a01b038d16906317ba7d859060240160206040518083038186803b158015611e5b57600080fd5b505afa158015611e6f573d6000803e3d6000fd5b505050506040513d601f19601f82011682018060405250810190611e939190614983565b9050806001600160a01b03166342bb30798d8a60020160009054906101000a90046001600160a01b03168b60010160009054906101000a90046001600160a01b03168c600301546040518563ffffffff1660e01b8152600401611f1e94939291906001600160a01b039485168152928416602084015292166040820152606081019190915260800190565b602060405180830381600087803b158015611f3857600080fd5b505af1158015611f4c573d6000803e3d6000fd5b505050506040513d601f19601f82011682018060405250810190611f709190614aff565b15611fee576040517fdc929f4a0000000000000000000000000000000000000000000000000000000081526001600160a01b0383811660048301528d169063dc929f4a90602401600060405180830381600087803b158015611fd157600080fd5b505af1158015611fe5573d6000803e3d6000fd5b50505050611ffe565b60068801805460ff191660041790555b505b60016006880154610100900460ff16600181111561202e57634e487b7160e01b600052602160045260246000fd5b14156121f2576040517f0b1ca49a0000000000000000000000000000000000000000000000000000000081526001600160a01b0382811660048301528c1690630b1ca49a90602401600060405180830381600087803b15801561209057600080fd5b505af11580156120a4573d6000803e3d6000fd5b50506040516317ba7d8560e01b81527f8f5b4aabbdb8527d420a29cc90ae207773ad49b73c632c3cfd2f29eb8776f2ea6004820152600092506001600160a01b038e1691506317ba7d859060240160206040518083038186803b15801561210a57600080fd5b505afa15801561211e573d6000803e3d6000fd5b505050506040513d601f19601f820116820180604052508101906121429190614983565b6040517fa2d165d20000000000000000000000000000000000000000000000000000000081526001600160a01b038e811660048301523360248301529192509082169063a2d165d290604401602060405180830381600087803b1580156121a857600080fd5b505af11580156121bc573d6000803e3d6000fd5b505050506040513d601f19601f820116820180604052508101906121e09190614aff565b505060068701805460ff191660031790555b506122cc565b600384600581111561221a57634e487b7160e01b600052602160045260246000fd5b14806122455750600184600581111561224357634e487b7160e01b600052602160045260246000fd5b145b1561225e5760068601805460ff191660041790556122cc565b60405162461bcd60e51b815260206004820152602260248201527f70726f706f73616c20686173206e6f74206265656e20766f746564206f6e207960448201527f65740000000000000000000000000000000000000000000000000000000000006064820152608401610426565b6001600160a01b038a1660009081526002602052604090206122ee908a613f89565b15612317576001600160a01b038a166000908152600260205260409020612315908a613fa1565b505b60068601547f7ab29e6deeb60f3b76461422909b7ae5bda1be890b270b70c56a32d54cd2a456908b908b9060ff168487878a600581111561236857634e487b7160e01b600052602160045260246000fd5b60405161237b9796959493929190614d9c565b60405180910390a15050505050506105028282613b6d565b6001600160a01b038116600090815260016020526040902060609061051490612db0565b806123c28133613205565b6001826001600160a01b031663c19d93fb6040518163ffffffff1660e01b815260040160206040518083038186803b1580156123fd57600080fd5b505afa158015612411573d6000803e3d6000fd5b505050506040513d601f19601f820116820180604052508101906124359190614bff565b600181111561245457634e487b7160e01b600052602160045260246000fd5b14156127b8576040516317ba7d8560e01b81527f72894213a5c7f56b36b2947fa6ea18963d6bb1a68746b46d7f552cca76e1a7a860048201526000906001600160a01b038416906317ba7d859060240160206040518083038186803b1580156124bc57600080fd5b505afa1580156124d0573d6000803e3d6000fd5b505050506040513d601f19601f820116820180604052508101906124f49190614983565b6040517f4fd194f60000000000000000000000000000000000000000000000000000000081526001600160a01b03858116600483015291925090821690634fd194f69060240160206040518083038186803b15801561255257600080fd5b505afa158015612566573d6000803e3d6000fd5b505050506040513d601f19601f8201168201806040525081019061258a9190614aff565b6125c0576040517fc1a287e200000000000000000000000000000000000000000000000000000000815260040160405180910390fd5b336001600160a01b0316836001600160a01b031663149acf9a6040518163ffffffff1660e01b815260040160206040518083038186803b15801561260357600080fd5b505afa158015612617573d6000803e3d6000fd5b505050506040513d601f19601f8201168201806040525081019061263b9190614983565b6001600160a01b0316141561267c576040517f84287f8f00000000000000000000000000000000000000000000000000000000815260040160405180910390fd5b6040516317ba7d8560e01b81527f8f5b4aabbdb8527d420a29cc90ae207773ad49b73c632c3cfd2f29eb8776f2ea60048201526000906001600160a01b038516906317ba7d859060240160206040518083038186803b1580156126de57600080fd5b505afa1580156126f2573d6000803e3d6000fd5b505050506040513d601f19601f820116820180604052508101906127169190614983565b6040517fa2d165d20000000000000000000000000000000000000000000000000000000081526001600160a01b0386811660048301523360248301529192509082169063a2d165d290604401602060405180830381600087803b15801561277c57600080fd5b505af1158015612790573d6000803e3d6000fd5b505050506040513d601f19601f820116820180604052508101906127b49190614aff565b5050505b6040517f0b1ca49a0000000000000000000000000000000000000000000000000000000081523360048201526001600160a01b03831690630b1ca49a90602401600060405180830381600087803b15801561281257600080fd5b505af1158015612826573d6000803e3d6000fd5b5050604080516001600160a01b03861681523360208201527f6d7e1cc2497d6dc5b776413f5494868312739c131140c4a3b9440610c098e90f935001905060405180910390a15050565b6001600160a01b038216600090815260016020526040812061197790836131ce565b6001600160a01b038216600090815260208181526040808320848452909152812081600682015460ff1660048111156128db57634e487b7160e01b600052602160045260246000fd5b146129285760405162461bcd60e51b815260206004820152600a60248201527f215375626d6974746564000000000000000000000000000000000000000000006044820152606401610426565b6003810154600282015460018301546040516370a0823160e01b81526001600160a01b0391821660048201529116906370a082319060240160206040518083038186803b15801561297857600080fd5b505afa15801561298c573d6000803e3d6000fd5b505050506040513d601f19601f820116820180604052508101906129b09190614b44565b1080612b0357506003810154600282015460018301546040516317ba7d8560e01b81527f8f5b4aabbdb8527d420a29cc90ae207773ad49b73c632c3cfd2f29eb8776f2ea60048201526001600160a01b039283169263dd62ed3e92811691908916906317ba7d859060240160206040518083038186803b158015612a3357600080fd5b505afa158015612a47573d6000803e3d6000fd5b505050506040513d601f19601f82011682018060405250810190612a6b9190614983565b6040517fffffffff0000000000000000000000000000000000000000000000000000000060e085901b1681526001600160a01b0392831660048201529116602482015260440160206040518083038186803b158015612ac957600080fd5b505afa158015612add573d6000803e3d6000fd5b505050506040513d601f19601f82011682018060405250810190612b019190614b44565b105b80612b5357506003808201546001600160a01b0380871660009081526020938452604080822088835285528082206001870154841683528552808220600287015490931682529190935290912054105b15612b6e57600601805460ff19166004179055506000610514565b6040516317ba7d8560e01b81527f907642cbfe4e58ddd14eaa320923fbe4c29721dd0950ae4cb3b2626e292791ae60048201526000906001600160a01b038616906317ba7d859060240160206040518083038186803b158015612bd057600080fd5b505afa158015612be4573d6000803e3d6000fd5b505050506040513d601f19601f82011682018060405250810190612c089190614983565b604080516020810182526000815290517f2b0974d00000000000000000000000000000000000000000000000000000000081529192506001600160a01b03831691632b0974d091612c5f9189918991600401614ef9565b600060405180830381600087803b158015612c7957600080fd5b505af1158015612c8d573d6000803e3d6000fd5b5050505060068201805460ff1916600117905542600480840191909155604051634941d71d60e11b81527f9876c0f0505bfb2b1c38d3bbd25ba13159172cd0868972d76927723f5a9480fc918101919091526001600160a01b03861690639283ae3a9060240160206040518083038186803b158015612d0b57600080fd5b505afa158015612d1f573d6000803e3d6000fd5b505050506040513d601f19601f82011682018060405250810190612d439190614b44565b8260040154612d529190614f77565b60058301819055600683015460048401546040517ff5ff14337f1c8865ea504525020833044e927a5ff7d30ef2b4eec61f8bf1db9b93612d9d938a938a9360ff909216929091614df6565b60405180910390a1506001949350505050565b6060600061197783613fad565b6000611977836001600160a01b038416614009565b600080826001600160a01b031663c67143666040518163ffffffff1660e01b815260040160206040518083038186803b158015612e0e57600080fd5b505afa158015612e22573d6000803e3d6000fd5b505050506040513d601f19601f82011682018060405250810190612e469190614b44565b90506000805b828160ff161015612fa6576040517f9029444a00000000000000000000000000000000000000000000000000000000815260ff821660048201526001600160a01b0386169063a230c524908290639029444a9060240160206040518083038186803b158015612eba57600080fd5b505afa158015612ece573d6000803e3d6000fd5b505050506040513d601f19601f82011682018060405250810190612ef29190614983565b6040517fffffffff0000000000000000000000000000000000000000000000000000000060e084901b1681526001600160a01b03909116600482015260240160206040518083038186803b158015612f4957600080fd5b505afa158015612f5d573d6000803e3d6000fd5b505050506040513d601f19601f82011682018060405250810190612f819190614aff565b15612f9457612f91600183614f77565b91505b80612f9e8161501f565b915050612e4c565b509392505050565b600080826001600160a01b031663c19d93fb6040518163ffffffff1660e01b815260040160206040518083038186803b158015612fea57600080fd5b505afa158015612ffe573d6000803e3d6000fd5b505050506040513d601f19601f820116820180604052508101906130229190614bff565b600181111561304157634e487b7160e01b600052602160045260246000fd5b1480156105145750816001600160a01b031663c67143666040518163ffffffff1660e01b815260040160206040518083038186803b15801561308257600080fd5b505afa158015613096573d6000803e3d6000fd5b505050506040513d601f19601f820116820180604052508101906130ba9190614b44565b1580613138575060405163288c314960e21b81523360048201526001600160a01b0383169063a230c5249060240160206040518083038186803b15801561310057600080fd5b505afa158015613114573d6000803e3d6000fd5b505050506040513d601f19601f820116820180604052508101906131389190614aff565b8061051457506040517f68c18beb0000000000000000000000000000000000000000000000000000000081523360048201526001600160a01b038316906368c18beb9060240160206040518083038186803b15801561319657600080fd5b505afa1580156131aa573d6000803e3d6000fd5b505050506040513d601f19601f820116820180604052508101906105149190614aff565b6001600160a01b03811660009081526001830160205260408120541515611977565b6000611977836001600160a01b038416614126565b61320f82826118fa565b6106685760405162461bcd60e51b815260206004820152600c60248201527f6f6e6c79476f7665726e6f7200000000000000000000000000000000000000006044820152606401610426565b6040805160808101825260008082526020820181905291810182905260608101919091525a81600001818152505043826001600160a01b031663b21634826040518163ffffffff1660e01b815260040160206040518083038186803b1580156132c357600080fd5b505afa1580156132d7573d6000803e3d6000fd5b505050506040513d601f19601f820116820180604052508101906132fb9190614b44565b14156133495760405162461bcd60e51b815260206004820152601060248201527f7265656e7472616e6379206775617264000000000000000000000000000000006044820152606401610426565b816001600160a01b03166310fdb0a26040518163ffffffff1660e01b8152600401600060405180830381600087803b15801561338457600080fd5b505af1158015613398573d6000803e3d6000fd5b50506040517f72c6838f0000000000000000000000000000000000000000000000000000000081527f1f2fd42ad6a6cacd573c4b212beb7a4e2499ad45d742a65337097f130e71daff6004820152600092506001600160a01b03851691506372c6838f9060240160206040518083038186803b15801561341757600080fd5b505afa15801561342b573d6000803e3d6000fd5b505050506040513d601f19601f8201168201806040525081019061344f9190614983565b90506001600160a01b03811661346b5760006020830152613520565b6001600160a01b038181166060840181905283516040517f43a8a3f1000000000000000000000000000000000000000000000000000000008152928616600484015260248301526000918291906343a8a3f190604401604080518083038186803b1580156134d857600080fd5b505afa1580156134ec573d6000803e3d6000fd5b505050506040513d601f19601f820116820180604052508101906135109190614b19565b9015156020860152604085015250505b50919050565b6040516317ba7d8560e01b81527fdac6d9ce728ebc92a61253866b4e5a4c73b76ba0aa11e7297a633f6232f54237600482015260009081906001600160a01b038416906317ba7d859060240160206040518083038186803b15801561358a57600080fd5b505afa15801561359e573d6000803e3d6000fd5b505050506040513d601f19601f820116820180604052508101906135c29190614983565b6040517f9a0242fc0000000000000000000000000000000000000000000000000000000081526001600160a01b03858116600483015291925090821690639a0242fc9060240160206040518083038186803b15801561193f57600080fd5b60608161366057505060408051808201909152600181527f3000000000000000000000000000000000000000000000000000000000000000602082015290565b8160005b811561368a578061367481614fe6565b91506136839050600a83614f8f565b9150613664565b60008167ffffffffffffffff8111156136b357634e487b7160e01b600052604160045260246000fd5b6040519080825280601f01601f1916602001820160405280156136dd576020820181803683370190505b5090505b841561376e576136f2600183614fa3565b91506136ff600a8661503f565b61370a906030614f77565b60f81b81838151811061372d57634e487b7160e01b600052603260045260246000fd5b60200101907effffffffffffffffffffffffffffffffffffffffffffffffffffffffffffff1916908160001a905350613767600a86614f8f565b94506136e1565b949350505050565b600081516000141561378a57506000919050565b506020015190565b60405163288c314960e21b81526001600160a01b03848116600483015286169063a230c5249060240160206040518083038186803b1580156137d357600080fd5b505afa1580156137e7573d6000803e3d6000fd5b505050506040513d601f19601f8201168201806040525081019061380b9190614aff565b6138575760405162461bcd60e51b815260206004820152600d60248201527f69736e7420676f7665726e6f72000000000000000000000000000000000000006044820152606401610426565b604051806101000160405280858152602001846001600160a01b0316815260200160006001600160a01b0316815260200160008152602001838152602001828152602001600160048111156138bc57634e487b7160e01b600052602160045260246000fd5b8152602001600190526001600160a01b038087166000908152602081815260408083208984528252918290208451815590840151600180830180549286167fffffffffffffffffffffffff0000000000000000000000000000000000000000938416179055928501516002830180549190951691161790925560608301516003830155608083015160048084019190915560a0840151600584015560c08401516006840180549193909260ff1990921691849081111561398c57634e487b7160e01b600052602160045260246000fd5b021790555060e082015160068201805461ff0019166101008360018111156139c457634e487b7160e01b600052602160045260246000fd5b0217905550506040517fb73dc389000000000000000000000000000000000000000000000000000000008152600481018690526001600160a01b038716915063b73dc38990602401600060405180830381600087803b158015613a2657600080fd5b505af1158015613a3a573d6000803e3d6000fd5b505050505050505050565b6040516317ba7d8560e01b81527f907642cbfe4e58ddd14eaa320923fbe4c29721dd0950ae4cb3b2626e292791ae60048201526001600160a01b0383169063815a2bf490839083906317ba7d859060240160206040518083038186803b158015613aae57600080fd5b505afa158015613ac2573d6000803e3d6000fd5b505050506040513d601f19601f82011682018060405250810190613ae69190614983565b6040517fffffffff0000000000000000000000000000000000000000000000000000000060e085901b16815260048101929092526001600160a01b03166024820152604401600060405180830381600087803b158015613b4557600080fd5b505af1158015613b59573d6000803e3d6000fd5b505050505050565b60006119778383614126565b610668828233614175565b6000610514825490565b6060816001600160a01b031663a6f636416040518163ffffffff1660e01b815260040160006040518083038186803b158015613bbd57600080fd5b505afa158015613bd1573d6000803e3d6000fd5b505050506040513d6000823e601f3d908101601f191682016040526105149190810190614a38565b60405163288c314960e21b81526001600160a01b03868116600483015288169063a230c5249060240160206040518083038186803b158015613c3a57600080fd5b505afa158015613c4e573d6000803e3d6000fd5b505050506040513d601f19601f82011682018060405250810190613c729190614aff565b15613cbf5760405162461bcd60e51b815260206004820152601060248201527f676f7665726e6f722065786973746564000000000000000000000000000000006044820152606401610426565b604051806101000160405280878152602001866001600160a01b03168152602001856001600160a01b0316815260200184815260200183815260200182815260200160006004811115613d2257634e487b7160e01b600052602160045260246000fd5b8152602001600090526001600160a01b038089166000908152602081815260408083208b84528252918290208451815590840151600180830180549286167fffffffffffffffffffffffff0000000000000000000000000000000000000000938416179055928501516002830180549190951691161790925560608301516003830155608083015160048084019190915560a0840151600584015560c08401516006840180549193909260ff19909216918490811115613df257634e487b7160e01b600052602160045260246000fd5b021790555060e082015160068201805461ff001916610100836001811115613e2a57634e487b7160e01b600052602160045260246000fd5b0217905550506040517fb73dc389000000000000000000000000000000000000000000000000000000008152600481018890526001600160a01b038916915063b73dc38990602401600060405180830381600087803b158015613e8c57600080fd5b505af1158015613ea0573d6000803e3d6000fd5b5050505050505050505050565b600080826001600160a01b031663a6f636416040518163ffffffff1660e01b815260040160006040518083038186803b158015613ee957600080fd5b505afa158015613efd573d6000803e3d6000fd5b505050506040513d6000823e601f3d908101601f19168201604052613f259190810190614a38565b90506000805b82518160ff161015612fa657613f6b85848360ff1681518110613f5e57634e487b7160e01b600052603260045260246000fd5b6020026020010151614283565b613f759083614f43565b915080613f818161501f565b915050613f2b565b60008181526001830160205260408120541515611977565b60006119778383614009565b606081600001805480602002602001604051908101604052809291908181526020018280548015613ffd57602002820191906000526020600020905b815481526020019060010190808311613fe9575b50505050509050919050565b6000818152600183016020526040812054801561411c57600061402d600183614fa3565b855490915060009061404190600190614fa3565b90508181146140c257600086600001828154811061406f57634e487b7160e01b600052603260045260246000fd5b90600052602060002001549050808760000184815481106140a057634e487b7160e01b600052603260045260246000fd5b6000918252602080832090910192909255918252600188019052604090208390555b85548690806140e157634e487b7160e01b600052603160045260246000fd5b600190038181906000526020600020016000905590558560010160008681526020019081526020016000206000905560019350505050610514565b6000915050610514565b600081815260018301602052604081205461416d57508154600181810184556000848152602080822090930184905584548482528286019093526040902091909155610514565b506000610514565b81602001511561422b5781606001516001600160a01b0316635e5eb01384835a86516141a19190614fa3565b60408088015190517fffffffff0000000000000000000000000000000000000000000000000000000060e087901b1681526001600160a01b03948516600482015293909216602484015260448301526064820152608401600060405180830381600087803b15801561421257600080fd5b505af1158015614226573d6000803e3d6000fd5b505050505b826001600160a01b031663d4f7af436040518163ffffffff1660e01b8152600401600060405180830381600087803b15801561426657600080fd5b505af115801561427a573d6000803e3d6000fd5b50505050505050565b604051634941d71d60e11b81527feee23dc9ab95b6666db01c2b6cae6a5ef706099a25926e21e0a2e043fe885604600482015260009081906001600160a01b03851690639283ae3a9060240160206040518083038186803b1580156142e757600080fd5b505afa1580156142fb573d6000803e3d6000fd5b505050506040513d601f19601f8201168201806040525081019061431f9190614b44565b604051634941d71d60e11b81527fd093d4a34a12a221b19c0a6689d5449f1346aa769d15cca4e9782c36fda9339a60048201529091506000906001600160a01b03861690639283ae3a9060240160206040518083038186803b15801561438457600080fd5b505afa158015614398573d6000803e3d6000fd5b505050506040513d601f19601f820116820180604052508101906143bc9190614b44565b6040516317ba7d8560e01b81527f8f5b4aabbdb8527d420a29cc90ae207773ad49b73c632c3cfd2f29eb8776f2ea60048201529091506000906001600160a01b038716906317ba7d859060240160206040518083038186803b15801561442157600080fd5b505afa158015614435573d6000803e3d6000fd5b505050506040513d601f19601f820116820180604052508101906144599190614983565b6040517f68abb5e00000000000000000000000000000000000000000000000000000000081526001600160a01b0388811660048301529192506000918316906368abb5e09060240160206040518083038186803b1580156144b957600080fd5b505afa1580156144cd573d6000803e3d6000fd5b505050506040513d601f19601f820116820180604052508101906144f19190614b44565b11158015614573575060405163288c314960e21b81526001600160a01b03868116600483015287169063a230c5249060240160206040518083038186803b15801561453b57600080fd5b505afa15801561454f573d6000803e3d6000fd5b505050506040513d601f19601f820116820180604052508101906145739190614aff565b156145845760019350505050610514565b81600114156146a15760008361463157604051633de222bb60e21b81526001600160a01b0388811660048301528781166024830152670de0b6b3a7640000919084169063f7888aec9060440160206040518083038186803b1580156145e857600080fd5b505afa1580156145fc573d6000803e3d6000fd5b505050506040513d601f19601f820116820180604052508101906146209190614b44565b61462a9190614f8f565b905061463e565b6000945050505050610514565b60008111614653576000945050505050610514565b677fffffffffffffff811061466f576032945050505050610514565b600061468a6146856146808461480b565b614829565b61492b565b67ffffffffffffffff169550610514945050505050565b81600214156147565760008361463157604051633de222bb60e21b81526001600160a01b03888116600483015287811660248301526000919084169063f7888aec9060440160206040518083038186803b1580156146fe57600080fd5b505afa158015614712573d6000803e3d6000fd5b505050506040513d601f19601f820116820180604052508101906147369190614b44565b11614742576000614745565b60015b60ff1690505b935061051492505050565b816147ff5760008361463157604051633de222bb60e21b81526001600160a01b0388811660048301528781166024830152670de0b6b3a7640000919084169063f7888aec9060440160206040518083038186803b1580156147b657600080fd5b505afa1580156147ca573d6000803e3d6000fd5b505050506040513d601f19601f820116820180604052508101906147ee9190614b44565b6147f89190614f8f565b905061474b565b60009350505050610514565b6000677fffffffffffffff82111561482257600080fd5b5060401b90565b60008082600f0b1361483a57600080fd5b6000600f83900b680100000000000000008112614859576040918201911d5b640100000000811261486d576020918201911d5b62010000811261487f576010918201911d5b6101008112614890576008918201911d5b601081126148a0576004918201911d5b600481126148b0576002918201911d5b600281126148bf576001820191505b7fffffffffffffffffffffffffffffffffffffffffffffffffffffffffffffffc0820160401b600f85900b607f8490031b6780000000000000005b60008113156149205790800260ff81901c8281029390930192607f011c9060011d6148fa565b509095945050505050565b60008082600f0b121561493d57600080fd5b50600f0b60401d90565b8051614952816150ab565b919050565b8051801515811461495257600080fd5b600060208284031215614978578081fd5b8135611977816150ab565b600060208284031215614994578081fd5b8151611977816150ab565b600080600080608085870312156149b4578283fd5b84356149bf816150ab565b93506020850135925060408501356149d6816150ab565b915060608501356149e6816150ab565b939692955090935050565b60008060008060808587031215614a06578384fd5b8435614a11816150ab565b9350602085013592506040850135614a28816150ab565b9396929550929360600135925050565b60006020808385031215614a4a578182fd5b825167ffffffffffffffff80821115614a61578384fd5b818501915085601f830112614a74578384fd5b815181811115614a8657614a86615095565b8060051b604051601f19603f83011681018181108582111715614aab57614aab615095565b604052828152858101935084860182860187018a1015614ac9578788fd5b8795505b83861015614af257614ade81614947565b855260019590950194938601938601614acd565b5098975050505050505050565b600060208284031215614b10578081fd5b61197782614957565b60008060408385031215614b2b578182fd5b614b3483614957565b9150602083015190509250929050565b600060208284031215614b55578081fd5b5051919050565b60008060408385031215614b6e578182fd5b8235614b79816150ab565b91506020830135614b89816150ab565b809150509250929050565b600080600060608486031215614ba8578283fd5b8335614bb3816150ab565b92506020840135614bc3816150ab565b929592945050506040919091013590565b60008060408385031215614be6578182fd5b8235614bf1816150ab565b946020939093013593505050565b600060208284031215614c10578081fd5b815160028110611977578182fd5b600080600060608486031215614c32578081fd5b835160068110614c40578182fd5b602085015160409095015190969495509392505050565b60058110614c6757614c6761507f565b9052565b60028110614c6757614c6761507f565b7fffffffffffffffff000000000000000000000000000000000000000000000000831681527f476f7665726e6f722d496e230000000000000000000000000000000000000000600882015260008251614cdb816014850160208701614fba565b919091016014019392505050565b7fffffffffffffffff000000000000000000000000000000000000000000000000831681527f476f7665726e6f722d4f75742300000000000000000000000000000000000000600882015260008251614d49816015850160208701614fba565b919091016015019392505050565b6001600160a01b0387811682526020820187905285166040820152606081018490526080810183905260c08101614d9160a0830184614c6b565b979650505050505050565b6001600160a01b03881681526020810187905260e08101614dc06040830188614c57565b6fffffffffffffffffffffffffffffffff861660608301528460808301528360a08301528260c083015298975050505050505050565b6001600160a01b03861681526020810185905260a08101614e1a6040830186614c57565b6060820193909352608001529392505050565b6020808252825182820181905260009190848201906040850190845b81811015614e6e5783516001600160a01b031683529284019291840191600101614e49565b50909695505050505050565b8881526001600160a01b03888116602083015287166040820152606081018690526080810185905260a081018490526101008101614ebb60c0830185614c57565b614ec860e0830184614c6b565b9998505050505050505050565b8281526040810160038310614eec57614eec61507f565b8260208301529392505050565b6001600160a01b03841681528260208201526060604082015260008251806060840152614f2d816080850160208701614fba565b601f01601f191691909101608001949350505050565b60006fffffffffffffffffffffffffffffffff808316818516808303821115614f6e57614f6e615053565b01949350505050565b60008219821115614f8a57614f8a615053565b500190565b600082614f9e57614f9e615069565b500490565b600082821015614fb557614fb5615053565b500390565b60005b83811015614fd5578181015183820152602001614fbd565b838111156105025750506000910152565b60007fffffffffffffffffffffffffffffffffffffffffffffffffffffffffffffffff82141561501857615018615053565b5060010190565b600060ff821660ff81141561503657615036615053565b60010192915050565b60008261504e5761504e615069565b500690565b634e487b7160e01b600052601160045260246000fd5b634e487b7160e01b600052601260045260246000fd5b634e487b7160e01b600052602160045260246000fd5b634e487b7160e01b600052604160045260246000fd5b6001600160a01b03811681146150c057600080fd5b5056fea264697066735822122023c6bb2a916dd5a1022bd0d9798a91e08d7ea9d2937a0c0a2b7800bcd8a4693c64736f6c63430008040033",
  "linkReferences": {},
  "deployedLinkReferences": {}
}