{
  "_format": "hh-sol-artifact-1",
  "contractName": "ColletiveFundRaiseProposalAdapterContract",
  "sourceName": "contracts/collective/adapters/CollectiveFundRaiseProposalAdapter.sol",
  "abi": [
    {
      "inputs": [],
      "name": "INVALID_PARAM",
      "type": "error"
    },
    {
      "inputs": [],
      "name": "LAST_NEW_FUND_PROPOSAL_NOT_FINISH",
      "type": "error"
    },
    {
      "inputs": [],
      "name": "VOTING_NOT_FINISH",
      "type": "error"
    },
    {
      "anonymous": false,
      "inputs": [
        {
          "indexed": false,
          "internalType": "address",
          "name": "daoAddr",
          "type": "address"
        },
        {
          "indexed": false,
          "internalType": "bytes32",
          "name": "proposalId",
          "type": "bytes32"
        }
      ],
      "name": "ProposalCreated",
      "type": "event"
    },
    {
      "anonymous": false,
      "inputs": [
        {
          "indexed": false,
          "internalType": "address",
          "name": "daoAddr",
          "type": "address"
        },
        {
          "indexed": false,
          "internalType": "bytes32",
          "name": "proposalId",
          "type": "bytes32"
        },
        {
          "indexed": false,
          "internalType": "enum ICollectiveFundRaise.ProposalState",
          "name": "state",
          "type": "uint8"
        },
        {
          "indexed": false,
          "internalType": "uint256",
          "name": "allVotingWeight",
          "type": "uint256"
        },
        {
          "indexed": false,
          "internalType": "uint256",
          "name": "nbYes",
          "type": "uint256"
        },
        {
          "indexed": false,
          "internalType": "uint256",
          "name": "nbNo",
          "type": "uint256"
        },
        {
          "indexed": false,
          "internalType": "uint256",
          "name": "voteResult",
          "type": "uint256"
        }
      ],
      "name": "proposalExecuted",
      "type": "event"
    },
    {
      "inputs": [
        {
          "internalType": "contract DaoRegistry",
          "name": "dao",
          "type": "address"
        }
      ],
      "name": "allDone",
      "outputs": [
        {
          "internalType": "bool",
          "name": "",
          "type": "bool"
        }
      ],
      "stateMutability": "view",
      "type": "function"
    },
    {
      "inputs": [
        {
          "internalType": "contract DaoRegistry",
          "name": "dao",
          "type": "address"
        },
        {
          "internalType": "bytes32",
          "name": "proposalId",
          "type": "bytes32"
        }
      ],
      "name": "getPriorityDepositeWhiteList",
      "outputs": [
        {
          "internalType": "address[]",
          "name": "",
          "type": "address[]"
        }
      ],
      "stateMutability": "view",
      "type": "function"
    },
    {
      "inputs": [
        {
          "internalType": "contract DaoRegistry",
          "name": "dao",
          "type": "address"
        },
        {
          "internalType": "address",
          "name": "_addr",
          "type": "address"
        }
      ],
      "name": "isActiveMember",
      "outputs": [
        {
          "internalType": "bool",
          "name": "",
          "type": "bool"
        }
      ],
      "stateMutability": "view",
      "type": "function"
    },
    {
      "inputs": [
        {
          "internalType": "address",
          "name": "",
          "type": "address"
        }
      ],
      "name": "lastProposalIds",
      "outputs": [
        {
          "internalType": "bytes32",
          "name": "",
          "type": "bytes32"
        }
      ],
      "stateMutability": "view",
      "type": "function"
    },
    {
      "inputs": [
        {
          "internalType": "contract DaoRegistry",
          "name": "dao",
          "type": "address"
        },
        {
          "internalType": "bytes32",
          "name": "proposalId",
          "type": "bytes32"
        }
      ],
      "name": "processProposal",
      "outputs": [],
      "stateMutability": "nonpayable",
      "type": "function"
    },
    {
      "inputs": [
        {
          "internalType": "contract DaoRegistry",
          "name": "",
          "type": "address"
        },
        {
          "internalType": "bytes32",
          "name": "",
          "type": "bytes32"
        }
      ],
      "name": "proposals",
      "outputs": [
        {
          "components": [
            {
              "internalType": "uint256",
              "name": "startTime",
              "type": "uint256"
            },
            {
              "internalType": "uint256",
              "name": "endTime",
              "type": "uint256"
            }
          ],
          "internalType": "struct ICollectiveFundRaise.FundRaiseTimeInfo",
          "name": "timeInfo",
          "type": "tuple"
        },
        {
          "components": [
            {
              "internalType": "address",
              "name": "tokenAddress",
              "type": "address"
            },
            {
              "internalType": "uint256",
              "name": "miniTarget",
              "type": "uint256"
            },
            {
              "internalType": "uint256",
              "name": "maxCap",
              "type": "uint256"
            },
            {
              "internalType": "uint256",
              "name": "miniDeposit",
              "type": "uint256"
            },
            {
              "internalType": "uint256",
              "name": "maxDeposit",
              "type": "uint256"
            }
          ],
          "internalType": "struct ICollectiveFundRaise.FundInfo",
          "name": "fundInfo",
          "type": "tuple"
        },
        {
          "components": [
            {
              "internalType": "bool",
              "name": "enable",
              "type": "bool"
            },
            {
              "internalType": "uint8",
              "name": "valifyType",
              "type": "uint8"
            },
            {
              "internalType": "address",
              "name": "tokenAddress",
              "type": "address"
            },
            {
              "internalType": "uint256",
              "name": "tokenId",
              "type": "uint256"
            },
            {
              "internalType": "uint256",
              "name": "miniHolding",
              "type": "uint256"
            },
            {
              "internalType": "address[]",
              "name": "whitelist",
              "type": "address[]"
            }
          ],
          "internalType": "struct ICollectiveFundRaise.PriorityDepositorInfo",
          "name": "priorityDepositor",
          "type": "tuple"
        },
        {
          "internalType": "uint8",
          "name": "fundRaiseType",
          "type": "uint8"
        },
        {
          "internalType": "enum ICollectiveFundRaise.ProposalState",
          "name": "state",
          "type": "uint8"
        },
        {
          "internalType": "uint256",
          "name": "creationTime",
          "type": "uint256"
        },
        {
          "internalType": "uint256",
          "name": "stopVoteTime",
          "type": "uint256"
        }
      ],
      "stateMutability": "view",
      "type": "function"
    },
    {
      "inputs": [
        {
          "components": [
            {
              "internalType": "contract DaoRegistry",
              "name": "dao",
              "type": "address"
            },
            {
              "internalType": "uint8",
              "name": "fundRaiseType",
              "type": "uint8"
            },
            {
              "components": [
                {
                  "internalType": "address",
                  "name": "tokenAddress",
                  "type": "address"
                },
                {
                  "internalType": "uint256",
                  "name": "miniTarget",
                  "type": "uint256"
                },
                {
                  "internalType": "uint256",
                  "name": "maxCap",
                  "type": "uint256"
                },
                {
                  "internalType": "uint256",
                  "name": "miniDeposit",
                  "type": "uint256"
                },
                {
                  "internalType": "uint256",
                  "name": "maxDeposit",
                  "type": "uint256"
                }
              ],
              "internalType": "struct ICollectiveFundRaise.FundInfo",
              "name": "fundInfo",
              "type": "tuple"
            },
            {
              "components": [
                {
                  "internalType": "uint256",
                  "name": "startTime",
                  "type": "uint256"
                },
                {
                  "internalType": "uint256",
                  "name": "endTime",
                  "type": "uint256"
                }
              ],
              "internalType": "struct ICollectiveFundRaise.FundRaiseTimeInfo",
              "name": "timeInfo",
              "type": "tuple"
            },
            {
              "components": [
                {
                  "internalType": "bool",
                  "name": "enable",
                  "type": "bool"
                },
                {
                  "internalType": "uint8",
                  "name": "valifyType",
                  "type": "uint8"
                },
                {
                  "internalType": "address",
                  "name": "tokenAddress",
                  "type": "address"
                },
                {
                  "internalType": "uint256",
                  "name": "tokenId",
                  "type": "uint256"
                },
                {
                  "internalType": "uint256",
                  "name": "miniHolding",
                  "type": "uint256"
                },
                {
                  "internalType": "address[]",
                  "name": "whitelist",
                  "type": "address[]"
                }
              ],
              "internalType": "struct ICollectiveFundRaise.PriorityDepositorInfo",
              "name": "priorityDepositor",
              "type": "tuple"
            }
          ],
          "internalType": "struct ICollectiveFundRaise.ProposalParams",
          "name": "params",
          "type": "tuple"
        }
      ],
      "name": "submitProposal",
      "outputs": [
        {
          "internalType": "bool",
          "name": "",
          "type": "bool"
        }
      ],
      "stateMutability": "nonpayable",
      "type": "function"
    }
  ],
  "bytecode": "0x608060405234801561001057600080fd5b506138b4806100206000396000f3fe608060405234801561001057600080fd5b506004361061007d5760003560e01c8063642fc0c01161005b578063642fc0c0146100fb5780638ecf77201461011e5780639573167d14610131578063baf175bc1461014657600080fd5b806301c22a3d14610082578063315b39eb146100b55780635cb75276146100d5575b600080fd5b6100a2610090366004613211565b60036020526000908152604090205481565b6040519081526020015b60405180910390f35b6100c86100c33660046132fe565b610159565b6040516100ac919061355c565b6100e86100e33660046132fe565b61018f565b6040516100ac9796959493929190613611565b61010e610109366004613211565b6102d4565b60405190151581526020016100ac565b61010e61012c3660046132c6565b61030b565b61014461013f3660046132fe565b6103a1565b005b61010e610154366004613381565b610ac3565b6001600160a01b03821660009081526020818152604080832084845290915290206060906101869061215e565b90505b92915050565b600160208181526000938452604080852082529284529282902082518084018452815481529181015482850152825160a0808201855260028301546001600160a01b03908116835260038401548388015260048401548387015260058401546060808501919091526006850154608080860191909152875160c08101895260078701805460ff80821615158452610100820416838d0152620100009004909416818a0152600887015492810192909252600986015490820152600a850180548851818b0281018b0190995280895296989497959691959294938601939091908301828280156102a757602002820191906000526020600020905b81546001600160a01b03168152600190910190602001808311610289575b50505091909252505050600b820154600c830154600d90930154919260ff80831693610100909304169187565b6001600160a01b038116600090815260026020526040812081906102f790612172565b11610303576001610189565b600092915050565b6040517fa230c5240000000000000000000000000000000000000000000000000000000081526001600160a01b0382811660048301526000919084169063a230c5249060240160206040518083038186803b15801561036957600080fd5b505afa15801561037d573d6000803e3d6000fd5b505050506040513d601f19601f820116820180604052508101906101869190613265565b8160006103ad8261217c565b90506103b761306f565b6001600160a01b03851660008181526001602090815260408083208884529091529081902090517f30490e91000000000000000000000000000000000000000000000000000000008152600481018790529091906330490e9190602401600060405180830381600087803b15801561042e57600080fd5b505af1158015610442573d6000803e3d6000fd5b50506040516317ba7d8560e01b81527f8f5b4aabbdb8527d420a29cc90ae207773ad49b73c632c3cfd2f29eb8776f2ea60048201526001600160a01b03891692506317ba7d85915060240160206040518083038186803b1580156104a557600080fd5b505afa1580156104b9573d6000803e3d6000fd5b505050506040513d601f19601f820116820180604052508101906104dd919061322d565b6001600160a01b0390811683526040517f40de703e00000000000000000000000000000000000000000000000000000000815260048101879052908716906340de703e9060240160206040518083038186803b15801561053c57600080fd5b505afa158015610550573d6000803e3d6000fd5b505050506040513d601f19601f82011682018060405250810190610574919061322d565b6001600160a01b0316602083018190526105d55760405162461bcd60e51b815260206004820152601860248201527f766f74696e672061646170746572206e6f7420666f756e64000000000000000060448201526064015b60405180910390fd5b60208201516040517f76225e730000000000000000000000000000000000000000000000000000000081526001600160a01b03888116600483015260248201889052909116906376225e739060440160606040518083038186803b15801561063c57600080fd5b505afa158015610650573d6000803e3d6000fd5b505050506040513d601f19601f820116820180604052508101906106749190613348565b6080850181905260608501829052604085018360058111156106a657634e487b7160e01b600052602160045260246000fd5b60058111156106c557634e487b7160e01b600052602160045260246000fd5b905250600291506106d39050565b826040015160058111156106f757634e487b7160e01b600052602160045260246000fd5b141561094057600b8101805461ff0019166101009081179091556040805161012081018252835460e082019081526001850154828501528152815160a0808201845260028601546001600160a01b03908116835260038701546020808501919091526004880154848701526005880154606080860191909152600689015460808087019190915282870195909552865160c08101885260078a01805460ff808216151584529a8104909a16828501526201000090990490931683880152600889015490830152600988015493820193909352600a8701805486518186028101860188528181526108ac988f988b97908901969194918601939083018282801561082957602002820191906000526020600020905b81546001600160a01b0316815260019091019060200180831161080b575b505050919092525050508152600b82015460ff808216602084015260409092019161010090910416600381111561087057634e487b7160e01b600052602160045260246000fd5b600381111561088f57634e487b7160e01b600052602160045260246000fd5b8152602001600c8201548152602001600d82015481525050612447565b81516040517ff10e6b6b0000000000000000000000000000000000000000000000000000000081526001600160a01b0388811660048301529091169063f10e6b6b90602401600060405180830381600087803b15801561090b57600080fd5b505af115801561091f573d6000803e3d6000fd5b505050600b820180546002925061ff001916610100835b02179055506109e4565b60038260400151600581111561096657634e487b7160e01b600052602160045260246000fd5b1480610995575060018260400151600581111561099357634e487b7160e01b600052602160045260246000fd5b145b156109b257600b810180546003919061ff00191661010083610936565b6040517f70fc772800000000000000000000000000000000000000000000000000000000815260040160405180910390fd5b6001600160a01b0386166000908152600260205260409020610a069086612617565b15610a2f576001600160a01b0386166000908152600260205260409020610a2d908661262f565b505b60007fdcc911819967718b3aa2f12f31ede4b5b207e7a5c1b86cbfa291fe31dee26644878784600b0160019054906101000a900460ff16848760600151886080015189604001516005811115610a9557634e487b7160e01b600052602160045260246000fd5b604051610aa89796959493929190613502565b60405180910390a1505050610abd828261263b565b50505050565b6000610ad26020830183613211565b6000610add8261217c565b9050610aec6020850185613211565b610af68133612646565b6000600381610b086020890189613211565b6001600160a01b03166001600160a01b031681526020019081526020016000205414158015610c905750600060016000610b456020890189613211565b6001600160a01b03166001600160a01b03168152602001908152602001600020600060036000896000016020810190610b7e9190613211565b6001600160a01b03166001600160a01b03168152602001908152602001600020548152602001908152602001600020600b0160019054906101000a900460ff166003811115610bdd57634e487b7160e01b600052602160045260246000fd5b1480610c9057506001806000610bf66020890189613211565b6001600160a01b03166001600160a01b03168152602001908152602001600020600060036000896000016020810190610c2f9190613211565b6001600160a01b03166001600160a01b03168152602001908152602001600020548152602001908152602001600020600b0160019054906101000a900460ff166003811115610c8e57634e487b7160e01b600052602160045260246000fd5b145b15610cc7576040517fc49f1f0a00000000000000000000000000000000000000000000000000000000815260040160405180910390fd5b6040805160e08101825260008082526020808301829052928201819052606082018190526080820181905260a0820181905260c082015290610d0b90870187613211565b6040516317ba7d8560e01b81527fdac6d9ce728ebc92a61253866b4e5a4c73b76ba0aa11e7297a633f6232f5423760048201526001600160a01b0391909116906317ba7d859060240160206040518083038186803b158015610d6c57600080fd5b505afa158015610d80573d6000803e3d6000fd5b505050506040513d601f19601f82011682018060405250810190610da4919061322d565b6001600160a01b0316808252639a0242fc610dc26020890189613211565b6040516001600160e01b031960e084901b1681526001600160a01b03909116600482015260240160206040518083038186803b158015610e0157600080fd5b505afa158015610e15573d6000803e3d6000fd5b505050506040513d601f19601f82011682018060405250810190610e399190613265565b610e855760405162461bcd60e51b815260206004820152601660248201527f44616f5365742050726f706f73616c20556e646f6e650000000000000000000060448201526064016105cc565b610e926020870187613211565b6040516317ba7d8560e01b81527f72894213a5c7f56b36b2947fa6ea18963d6bb1a68746b46d7f552cca76e1a7a860048201526001600160a01b0391909116906317ba7d859060240160206040518083038186803b158015610ef357600080fd5b505afa158015610f07573d6000803e3d6000fd5b505050506040513d601f19601f82011682018060405250810190610f2b919061322d565b6001600160a01b03166040820181905260009063a5d6fb13610f5060208a018a613211565b6040516001600160e01b031960e084901b1681526001600160a01b03909116600482015260240160206040518083038186803b158015610f8f57600080fd5b505afa158015610fa3573d6000803e3d6000fd5b505050506040513d601f19601f82011682018060405250810190610fc791906132ae565b1115801561106c575060408101516000906001600160a01b03166362e86df5610ff360208a018a613211565b6040516001600160e01b031960e084901b1681526001600160a01b03909116600482015260240160206040518083038186803b15801561103257600080fd5b505afa158015611046573d6000803e3d6000fd5b505050506040513d601f19601f8201168201806040525081019061106a91906132ae565b145b6110b85760405162461bcd60e51b815260206004820152601a60248201527f556e646f6e6520496e766573746d656e742050726f706f73616c00000000000060448201526064016105cc565b6110c56020870187613211565b604051634941d71d60e11b81527f9ce69cf04065e3c7823cc5540c0598d8a694bd7a9a5a2a786d8bccf14ed6e2ea60048201526001600160a01b039190911690639283ae3a9060240160206040518083038186803b15801561112657600080fd5b505afa15801561113a573d6000803e3d6000fd5b505050506040513d601f19601f8201168201806040525081019061115e91906132ae565b60808201526111706020870187613211565b604051634941d71d60e11b81527fb0d4178853a5320a41f8c55fa6d58af06637e392beff71e66dba4e8f32c39bb860048201526001600160a01b039190911690639283ae3a9060240160206040518083038186803b1580156111d157600080fd5b505afa1580156111e5573d6000803e3d6000fd5b505050506040513d601f19601f8201168201806040525081019061120991906132ae565b60a082015261121b6020870187613211565b6040516317ba7d8560e01b81527f8f5b4aabbdb8527d420a29cc90ae207773ad49b73c632c3cfd2f29eb8776f2ea60048201526001600160a01b0391909116906317ba7d859060240160206040518083038186803b15801561127c57600080fd5b505afa158015611290573d6000803e3d6000fd5b505050506040513d601f19601f820116820180604052508101906112b4919061322d565b6001600160a01b0316606082018190526000906368abb5e06112d960208a018a613211565b6040516001600160e01b031960e084901b1681526001600160a01b03909116600482015260240160206040518083038186803b15801561131857600080fd5b505afa15801561132c573d6000803e3d6000fd5b505050506040513d601f19601f8201168201806040525081019061135091906132ae565b111561139e5760405162461bcd60e51b815260206004820152600b60248201527f21636c6561722066756e6400000000000000000000000000000000000000000060448201526064016105cc565b600060608201516001600160a01b0316630c916bae6113c060208a018a613211565b6040516001600160e01b031960e084901b1681526001600160a01b03909116600482015260240160206040518083038186803b1580156113ff57600080fd5b505afa158015611413573d6000803e3d6000fd5b505050506040513d601f19601f820116820180604052508101906114379190613329565b600381111561145657634e487b7160e01b600052602160045260246000fd5b14806115175750600360608201516001600160a01b0316630c916bae61147f60208a018a613211565b6040516001600160e01b031960e084901b1681526001600160a01b03909116600482015260240160206040518083038186803b1580156114be57600080fd5b505afa1580156114d2573d6000803e3d6000fd5b505050506040513d601f19601f820116820180604052508101906114f69190613329565b600381111561151557634e487b7160e01b600052602160045260246000fd5b145b806115f45750600260608201516001600160a01b0316630c916bae61153f60208a018a613211565b6040516001600160e01b031960e084901b1681526001600160a01b03909116600482015260240160206040518083038186803b15801561157e57600080fd5b505afa158015611592573d6000803e3d6000fd5b505050506040513d601f19601f820116820180604052508101906115b69190613329565b60038111156115d557634e487b7160e01b600052602160045260246000fd5b1480156115f457508060a0015181608001516115f19190613750565b42115b6116405760405162461bcd60e51b815260206004820152600760248201527f6e6f74206e6f770000000000000000000000000000000000000000000000000060448201526064016105cc565b80606001516001600160a01b031663b0e21e8a6040518163ffffffff1660e01b815260040160206040518083038186803b15801561167d57600080fd5b505afa158015611691573d6000803e3d6000fd5b505050506040513d601f19601f820116820180604052508101906116b591906132ae565b60c0820152606086013515806116e057506080860135158015906116e0575060608601356080870135105b806116e9575060005b8061170a575060c08601351580159061170a575060a086013560c087013511155b8061171857504260e0870135105b8061172b575060e0860135610100870135105b15611762576040517f22ee6ae700000000000000000000000000000000000000000000000000000000815260040160405180910390fd5b61176f6020870187613211565b6001600160a01b0316630b9411ba6040518163ffffffff1660e01b8152600401600060405180830381600087803b1580156117a957600080fd5b505af11580156117bd573d6000803e3d6000fd5b5061188092506117d39150506020880188613211565b60c01b61185b6117e660208a018a613211565b6001600160a01b031663a25950c56040518163ffffffff1660e01b815260040160206040518083038186803b15801561181e57600080fd5b505afa158015611832573d6000803e3d6000fd5b505050506040513d601f19601f8201168201806040525081019061185691906132ae565b61269c565b60405160200161186c929190613494565b6040516020818303038152906040526127f2565b602080830191909152604080516101208101825260e089810135908201908152610100808b0135908301528152815160a081018352909283019181906118cc9060608c01908c01613211565b6001600160a01b03168152602001896040016020013581526020018960400160400135815260200189604001606001358152602001896040016080013581525081526020016040518060c001604052808980610120019061192d9190613713565b61193b906020810190613249565b151581526020016119506101208b018b613713565b6119619060408101906020016133ba565b60ff1681526020016119776101208b018b613713565b611988906060810190604001613211565b6001600160a01b031681526020016119a46101208b018b613713565b6060013581526020016119bb6101208b018b613713565b6080013581526020016119d26101208b018b613713565b6119e09060a08101906136a6565b8080602002602001604051908101604052809392919081815260200183836020028082843760009201919091525050509152508152602090810190611a2b9060408a01908a016133ba565b60ff16815260200160008152602001428152602001876000016020810190611a539190613211565b604051634941d71d60e11b81527f9876c0f0505bfb2b1c38d3bbd25ba13159172cd0868972d76927723f5a9480fc60048201526001600160a01b039190911690639283ae3a9060240160206040518083038186803b158015611ab457600080fd5b505afa158015611ac8573d6000803e3d6000fd5b505050506040513d601f19601f82011682018060405250810190611aec91906132ae565b611af69042613750565b905260016000611b0960208a018a613211565b6001600160a01b03908116825260208083019390935260409182016000908120868501518252845282902084518051825584015160018201558484015180516002830180547fffffffffffffffffffffffff00000000000000000000000000000000000000001691851691909117905580850151600383015580840151600483015560608082015160058401556080918201516006840155868501518051600785018054838a01519884015161ffff1990911692151561ff0019169290921761010060ff90991698909802979097177fffffffffffffffffffff0000000000000000000000000000000000000000ffff166201000091909616029490941785558301516008830155820151600982015560a082015180519194929392611c3792600a870192909101906130b1565b5050506060820151600b8201805460ff9092167fffffffffffffffffffffffffffffffffffffffffffffffffffffffffffffff0083168117825560808501519261ffff191617610100836003811115611ca057634e487b7160e01b600052602160045260246000fd5b021790555060a0820151600c82015560c090910151600d909101556000611ccb610120880188613713565b611cd99060a08101906136a6565b90501115611db55760005b611cf2610120880188613713565b611d009060a08101906136a6565b90508160ff161015611db357611da0611d1d610120890189613713565b611d2b9060a08101906136a6565b8360ff16818110611d4c57634e487b7160e01b600052603260045260246000fd5b9050602002016020810190611d619190613211565b600080611d7160208c018c613211565b6001600160a01b031681526020808201929092526040908101600090812087840151825290925290209061280e565b5080611dab816137f8565b915050611ce4565b505b611dc26020870187613211565b6001600160a01b031663b73dc38982602001516040518263ffffffff1660e01b8152600401611df391815260200190565b600060405180830381600087803b158015611e0d57600080fd5b505af1158015611e21573d6000803e3d6000fd5b50611e33925050506020870187613211565b6001600160a01b031663815a2bf48260200151886000016020810190611e599190613211565b6040516317ba7d8560e01b81527f907642cbfe4e58ddd14eaa320923fbe4c29721dd0950ae4cb3b2626e292791ae60048201526001600160a01b0391909116906317ba7d859060240160206040518083038186803b158015611eba57600080fd5b505afa158015611ece573d6000803e3d6000fd5b505050506040513d601f19601f82011682018060405250810190611ef2919061322d565b6040516001600160e01b031960e085901b16815260048101929092526001600160a01b03166024820152604401600060405180830381600087803b158015611f3957600080fd5b505af1158015611f4d573d6000803e3d6000fd5b5060009250611f629150506020880188613211565b6040516317ba7d8560e01b81527f907642cbfe4e58ddd14eaa320923fbe4c29721dd0950ae4cb3b2626e292791ae60048201526001600160a01b0391909116906317ba7d859060240160206040518083038186803b158015611fc357600080fd5b505afa158015611fd7573d6000803e3d6000fd5b505050506040513d601f19601f82011682018060405250810190611ffb919061322d565b90506001600160a01b038116632b0974d061201960208a018a613211565b60208086015160408051928301815260008352516001600160e01b031960e086901b16815261204c9392906004016135a9565b600060405180830381600087803b15801561206657600080fd5b505af115801561207a573d6000803e3d6000fd5b505050506120bc8260200151600260008a600001602081019061209d9190613211565b6001600160a01b03168152602081019190915260400160002090612823565b50602080830151906003906000906120d6908b018b613211565b6001600160a01b03168152602080820192909252604001600020919091557ffe22c13d0cc04eef2a813c30901da5f8cd64f5ba91866fccce71c606ce4648749061212290890189613211565b602080850151604080516001600160a01b039094168452918301520160405180910390a160019550505050612157828261263b565b5050919050565b6060600061216b8361282f565b9392505050565b6000610189825490565b6040805160808101825260008082526020820181905291810182905260608101919091525a81600001818152505043826001600160a01b031663b21634826040518163ffffffff1660e01b815260040160206040518083038186803b1580156121e457600080fd5b505afa1580156121f8573d6000803e3d6000fd5b505050506040513d601f19601f8201168201806040525081019061221c91906132ae565b141561226a5760405162461bcd60e51b815260206004820152601060248201527f7265656e7472616e63792067756172640000000000000000000000000000000060448201526064016105cc565b816001600160a01b03166310fdb0a26040518163ffffffff1660e01b8152600401600060405180830381600087803b1580156122a557600080fd5b505af11580156122b9573d6000803e3d6000fd5b50506040517f72c6838f0000000000000000000000000000000000000000000000000000000081527f1f2fd42ad6a6cacd573c4b212beb7a4e2499ad45d742a65337097f130e71daff6004820152600092506001600160a01b03851691506372c6838f9060240160206040518083038186803b15801561233857600080fd5b505afa15801561234c573d6000803e3d6000fd5b505050506040513d601f19601f82011682018060405250810190612370919061322d565b90506001600160a01b03811661238c5760006020830152612441565b6001600160a01b038181166060840181905283516040517f43a8a3f1000000000000000000000000000000000000000000000000000000008152928616600484015260248301526000918291906343a8a3f190604401604080518083038186803b1580156123f957600080fd5b505afa15801561240d573d6000803e3d6000fd5b505050506040513d601f19601f820116820180604052508101906124319190613281565b9015156020860152604085015250505b50919050565b6060810151604051630da0f6c760e41b81527ff301d5aec67a9d816d38f9b645cac1e79a3308ff9803564bbe63a862db82f46b600482015260ff90911660248201526001600160a01b0383169063da0f6c7090604401600060405180830381600087803b1580156124b757600080fd5b505af11580156124cb573d6000803e3d6000fd5b5050505061251982604051806080016040528084602001516020015181526020018460200151604001518152602001846020015160600151815260200184602001516080015181525061288b565b60408051808201909152815151815281516020908101519082015261253f908390612aae565b6020810151516040517f3b4f921a0000000000000000000000000000000000000000000000000000000081527f7fa36390a0e9b8b8004035572fd8345b1128cea12d1763a1baf8fbd4fb7b202760048201526001600160a01b03918216602482015290831690633b4f921a90604401600060405180830381600087803b1580156125c857600080fd5b505af11580156125dc573d6000803e3d6000fd5b5050505060408101515115612613576040808201516020810151918101516060820151608090920151612613938693909291612b6a565b5050565b60008181526001830160205260408120541515610186565b60006101868383612e0d565b612613828233612f2a565b612650828261030b565b6126135760405162461bcd60e51b815260206004820152600c60248201527f6f6e6c79476f7665726e6f72000000000000000000000000000000000000000060448201526064016105cc565b6060816126dc57505060408051808201909152600181527f3000000000000000000000000000000000000000000000000000000000000000602082015290565b8160005b811561270657806126f0816137bf565b91506126ff9050600a83613768565b91506126e0565b60008167ffffffffffffffff81111561272f57634e487b7160e01b600052604160045260246000fd5b6040519080825280601f01601f191660200182016040528015612759576020820181803683370190505b5090505b84156127ea5761276e60018361377c565b915061277b600a86613818565b612786906030613750565b60f81b8183815181106127a957634e487b7160e01b600052603260045260246000fd5b60200101907effffffffffffffffffffffffffffffffffffffffffffffffffffffffffffff1916908160001a9053506127e3600a86613768565b945061275d565b949350505050565b600081516000141561280657506000919050565b506020015190565b6000610186836001600160a01b038416613020565b60006101868383613020565b60608160000180548060200260200160405190810160405280929190818152602001828054801561287f57602002820191906000526020600020905b81548152602001906001019080831161286b575b50505050509050919050565b8051604051630da0f6c760e41b81527f31af571e53636dddd77f772cce9d30b42075760f2da731636acc6962da2fbef8600482015260248101919091526001600160a01b0383169063da0f6c7090604401600060405180830381600087803b1580156128f657600080fd5b505af115801561290a573d6000803e3d6000fd5b5050506020820151604051630da0f6c760e41b81527f7e07fb4530796d057ca1d76d83f47aa8629dbb7e942ac28f30ad6f5e9e8d4189600482015260248101919091526001600160a01b038416915063da0f6c7090604401600060405180830381600087803b15801561297c57600080fd5b505af1158015612990573d6000803e3d6000fd5b5050506040808301519051630da0f6c760e41b81527fbdd40865e74210f0a46799ae63462c62010da92014a08cbc32f1d049d0a22c6b600482015260248101919091526001600160a01b038416915063da0f6c7090604401600060405180830381600087803b158015612a0257600080fd5b505af1158015612a16573d6000803e3d6000fd5b5050506001600160a01b038316905063da0f6c707f5fa39c8100b49336846e52d39403e353bf782275f905a885f09224779ff1c9248360035b60200201516040516001600160e01b031960e085901b16815260048101929092526024820152604401600060405180830381600087803b158015612a9257600080fd5b505af1158015612aa6573d6000803e3d6000fd5b505050505050565b8051604051630da0f6c760e41b81527fbd04d44792b7dbfe3b50b0f9f2006f7ef449e374a39021cb9bfa7cd0bdd850d7600482015260248101919091526001600160a01b0383169063da0f6c7090604401600060405180830381600087803b158015612b1957600080fd5b505af1158015612b2d573d6000803e3d6000fd5b5050506001600160a01b038316905063da0f6c707f533afc15b6312917b5e28e2272ea69d44e5ea8e00d3bd57cada1275c2f14c9e8836001612a4f565b604051630da0f6c760e41b81527f87f768842f3bb4c7742d189f32b11c2bf0d7f4a6bad0b4b7a45937b15319e9fb6004820152600160248201526001600160a01b0386169063da0f6c7090604401600060405180830381600087803b158015612bd257600080fd5b505af1158015612be6573d6000803e3d6000fd5b5050604051630da0f6c760e41b81527f5cd8f6e95e052e3c0e0cc859654925ecc6c0d54b86a47d5ab47f1e8fc71daad9600482015260ff871660248201526001600160a01b038816925063da0f6c709150604401600060405180830381600087803b158015612c5457600080fd5b505af1158015612c68573d6000803e3d6000fd5b5050604051630da0f6c760e41b81527f52cf9e13c44455102d3bdf6a2d2539e3a78562a7c366394927a7d6cff60a27a66004820152602481018590526001600160a01b038816925063da0f6c709150604401600060405180830381600087803b158015612cd457600080fd5b505af1158015612ce8573d6000803e3d6000fd5b5050604051630da0f6c760e41b81527f0ebc415f2a9c53ba3b90c65925f402605b16daf54b8f18bc2a4ac5cf2026ff536004820152602481018490526001600160a01b038816925063da0f6c709150604401600060405180830381600087803b158015612d5457600080fd5b505af1158015612d68573d6000803e3d6000fd5b50506040517f3b4f921a0000000000000000000000000000000000000000000000000000000081527f6468a9b13d5f0011479da2d9211ad507a42070e4a58df895adf3136147416db260048201526001600160a01b03868116602483015288169250633b4f921a9150604401600060405180830381600087803b158015612dee57600080fd5b505af1158015612e02573d6000803e3d6000fd5b505050505050505050565b60008181526001830160205260408120548015612f20576000612e3160018361377c565b8554909150600090612e459060019061377c565b9050818114612ec6576000866000018281548110612e7357634e487b7160e01b600052603260045260246000fd5b9060005260206000200154905080876000018481548110612ea457634e487b7160e01b600052603260045260246000fd5b6000918252602080832090910192909255918252600188019052604090208390555b8554869080612ee557634e487b7160e01b600052603160045260246000fd5b600190038181906000526020600020016000905590558560010160008681526020019081526020016000206000905560019350505050610189565b6000915050610189565b816020015115612fc85781606001516001600160a01b0316635e5eb01384835a8651612f56919061377c565b60408088015190516001600160e01b031960e087901b1681526001600160a01b03948516600482015293909216602484015260448301526064820152608401600060405180830381600087803b158015612faf57600080fd5b505af1158015612fc3573d6000803e3d6000fd5b505050505b826001600160a01b031663d4f7af436040518163ffffffff1660e01b8152600401600060405180830381600087803b15801561300357600080fd5b505af1158015613017573d6000803e3d6000fd5b50505050505050565b600081815260018301602052604081205461306757508154600181810184556000848152602080822090930184905584548482528286019093526040902091909155610189565b506000610189565b6040805160e081018252600080825260208201819052909182019081526020016000815260200160008152602001600081526020016130ac61312e565b905290565b82805482825590600052602060002090810192821561311e579160200282015b8281111561311e57825182547fffffffffffffffffffffffff0000000000000000000000000000000000000000166001600160a01b039091161782556020909201916001909101906130d1565b5061312a9291506131fc565b5090565b604080516101208101909152600060e082018181526101008301919091528190815260200161318e6040518060a0016040528060006001600160a01b03168152602001600081526020016000815260200160008152602001600081525090565b81526020016131da6040518060c00160405280600015158152602001600060ff16815260200160006001600160a01b031681526020016000815260200160008152602001606081525090565b8152600060208201819052604082018190526060820181905260809091015290565b5b8082111561312a57600081556001016131fd565b600060208284031215613222578081fd5b813561216b81613858565b60006020828403121561323e578081fd5b815161216b81613858565b60006020828403121561325a578081fd5b813561216b81613870565b600060208284031215613276578081fd5b815161216b81613870565b60008060408385031215613293578081fd5b825161329e81613870565b6020939093015192949293505050565b6000602082840312156132bf578081fd5b5051919050565b600080604083850312156132d8578182fd5b82356132e381613858565b915060208301356132f381613858565b809150509250929050565b60008060408385031215613310578182fd5b823561331b81613858565b946020939093013593505050565b60006020828403121561333a578081fd5b81516004811061216b578182fd5b60008060006060848603121561335c578081fd5b83516006811061336a578182fd5b602085015160409095015190969495509392505050565b600060208284031215613392578081fd5b813567ffffffffffffffff8111156133a8578182fd5b8201610140818503121561216b578182fd5b6000602082840312156133cb578081fd5b813560ff8116811461216b578182fd5b600481106133f957634e487b7160e01b600052602160045260246000fd5b9052565b600060c08301825115158452602060ff8185015116818601526001600160a01b036040850151166040860152606084015160608601526080840151608086015260a084015160c060a087015282815180855260e08801915083830194508592505b808310156134895784516001600160a01b03168252602082019150838501945060018301925061345e565b509695505050505050565b7fffffffffffffffff000000000000000000000000000000000000000000000000831681527f46756e6445737461626c6973686d656e742300000000000000000000000000006008820152600082516134f481601a850160208701613793565b91909101601a019392505050565b6001600160a01b03881681526020810187905260e0810161352660408301886133db565b6fffffffffffffffffffffffffffffffff861660608301528460808301528360a08301528260c083015298975050505050505050565b6020808252825182820181905260009190848201906040850190845b8181101561359d5783516001600160a01b031683529284019291840191600101613578565b50909695505050505050565b6001600160a01b038416815282602082015260606040820152600082518060608401526135dd816080850160208701613793565b601f017fffffffffffffffffffffffffffffffffffffffffffffffffffffffffffffffe01691909101608001949350505050565b60006101808951835260208a015160208401526001600160a01b0389511660408401526020890151606084015260408901516080840152606089015160a0840152608089015160c08401528060e084015261366e818401896133fd565b91505061368161010083018760ff169052565b61368f6101208301866133db565b610140820193909352610160015295945050505050565b60008083357fffffffffffffffffffffffffffffffffffffffffffffffffffffffffffffffe18436030181126136da578283fd5b83018035915067ffffffffffffffff8211156136f4578283fd5b6020019150600581901b360382131561370c57600080fd5b9250929050565b600082357fffffffffffffffffffffffffffffffffffffffffffffffffffffffffffffff41833603018112613746578182fd5b9190910192915050565b600082198211156137635761376361382c565b500190565b60008261377757613777613842565b500490565b60008282101561378e5761378e61382c565b500390565b60005b838110156137ae578181015183820152602001613796565b83811115610abd5750506000910152565b60007fffffffffffffffffffffffffffffffffffffffffffffffffffffffffffffffff8214156137f1576137f161382c565b5060010190565b600060ff821660ff81141561380f5761380f61382c565b60010192915050565b60008261382757613827613842565b500690565b634e487b7160e01b600052601160045260246000fd5b634e487b7160e01b600052601260045260246000fd5b6001600160a01b038116811461386d57600080fd5b50565b801515811461386d57600080fdfea26469706673582212209fda349f37901ce9ac84afb1f568a5f407bfbd7f2cafdd6d3758445aa1a05a1c64736f6c63430008040033",
  "linkReferences": {},
  "deployedLinkReferences": {}
}