{
  "_format": "hh-sol-artifact-1",
  "contractName": "ColletiveFundRaiseProposalAdapterContract",
  "sourceName": "contracts/collective/adapters/CollectiveFundRaiseProposalAdapter.sol",
  "abi": [
    {
      "inputs": [],
      "name": "ACCESS_DENIED",
      "type": "error"
    },
    {
      "inputs": [],
      "name": "DAOSET_PROPOSAL_UNDONE",
      "type": "error"
    },
    {
      "inputs": [],
      "name": "INVALID_PARAM",
      "type": "error"
    },
    {
      "inputs": [],
      "name": "LAST_NEW_FUND_PROPOSAL_NOT_FINISH",
      "type": "error"
    },
    {
      "inputs": [],
      "name": "UNEXECUTE",
      "type": "error"
    },
    {
      "inputs": [],
      "name": "VOTING_ADAPTER_NOT_FOUND",
      "type": "error"
    },
    {
      "inputs": [],
      "name": "VOTING_NOT_FINISH",
      "type": "error"
    },
    {
      "anonymous": false,
      "inputs": [
        {
          "indexed": false,
          "internalType": "address",
          "name": "daoAddr",
          "type": "address"
        },
        {
          "indexed": false,
          "internalType": "bytes32",
          "name": "proposalId",
          "type": "bytes32"
        }
      ],
      "name": "ProposalCreated",
      "type": "event"
    },
    {
      "anonymous": false,
      "inputs": [
        {
          "indexed": false,
          "internalType": "address",
          "name": "daoAddr",
          "type": "address"
        },
        {
          "indexed": false,
          "internalType": "bytes32",
          "name": "proposalId",
          "type": "bytes32"
        },
        {
          "indexed": false,
          "internalType": "enum ICollectiveFundRaise.ProposalState",
          "name": "state",
          "type": "uint8"
        },
        {
          "indexed": false,
          "internalType": "uint256",
          "name": "allVotingWeight",
          "type": "uint256"
        },
        {
          "indexed": false,
          "internalType": "uint256",
          "name": "nbYes",
          "type": "uint256"
        },
        {
          "indexed": false,
          "internalType": "uint256",
          "name": "nbNo",
          "type": "uint256"
        },
        {
          "indexed": false,
          "internalType": "uint256",
          "name": "voteResult",
          "type": "uint256"
        }
      ],
      "name": "proposalExecuted",
      "type": "event"
    },
    {
      "inputs": [
        {
          "internalType": "contract DaoRegistry",
          "name": "dao",
          "type": "address"
        }
      ],
      "name": "allDone",
      "outputs": [
        {
          "internalType": "bool",
          "name": "",
          "type": "bool"
        }
      ],
      "stateMutability": "view",
      "type": "function"
    },
    {
      "inputs": [
        {
          "internalType": "address",
          "name": "",
          "type": "address"
        }
      ],
      "name": "fundRaisingId",
      "outputs": [
        {
          "internalType": "uint256",
          "name": "",
          "type": "uint256"
        }
      ],
      "stateMutability": "view",
      "type": "function"
    },
    {
      "inputs": [
        {
          "internalType": "contract DaoRegistry",
          "name": "dao",
          "type": "address"
        },
        {
          "internalType": "bytes32",
          "name": "proposalId",
          "type": "bytes32"
        }
      ],
      "name": "getPriorityDepositeWhiteList",
      "outputs": [
        {
          "internalType": "address[]",
          "name": "",
          "type": "address[]"
        }
      ],
      "stateMutability": "view",
      "type": "function"
    },
    {
      "inputs": [
        {
          "internalType": "contract DaoRegistry",
          "name": "dao",
          "type": "address"
        },
        {
          "internalType": "address",
          "name": "_addr",
          "type": "address"
        }
      ],
      "name": "isActiveMember",
      "outputs": [
        {
          "internalType": "bool",
          "name": "",
          "type": "bool"
        }
      ],
      "stateMutability": "view",
      "type": "function"
    },
    {
      "inputs": [
        {
          "internalType": "contract DaoRegistry",
          "name": "dao",
          "type": "address"
        },
        {
          "internalType": "bytes32",
          "name": "proposalId",
          "type": "bytes32"
        },
        {
          "internalType": "address",
          "name": "account",
          "type": "address"
        }
      ],
      "name": "isPriorityDepositer",
      "outputs": [
        {
          "internalType": "bool",
          "name": "",
          "type": "bool"
        }
      ],
      "stateMutability": "view",
      "type": "function"
    },
    {
      "inputs": [
        {
          "internalType": "address",
          "name": "",
          "type": "address"
        }
      ],
      "name": "lastProposalIds",
      "outputs": [
        {
          "internalType": "bytes32",
          "name": "",
          "type": "bytes32"
        }
      ],
      "stateMutability": "view",
      "type": "function"
    },
    {
      "inputs": [
        {
          "internalType": "contract DaoRegistry",
          "name": "dao",
          "type": "address"
        },
        {
          "internalType": "bytes32",
          "name": "proposalId",
          "type": "bytes32"
        }
      ],
      "name": "processProposal",
      "outputs": [],
      "stateMutability": "nonpayable",
      "type": "function"
    },
    {
      "inputs": [
        {
          "internalType": "contract DaoRegistry",
          "name": "",
          "type": "address"
        },
        {
          "internalType": "bytes32",
          "name": "",
          "type": "bytes32"
        }
      ],
      "name": "proposals",
      "outputs": [
        {
          "components": [
            {
              "internalType": "uint256",
              "name": "startTime",
              "type": "uint256"
            },
            {
              "internalType": "uint256",
              "name": "endTime",
              "type": "uint256"
            }
          ],
          "internalType": "struct ICollectiveFundRaise.FundRaiseTimeInfo",
          "name": "timeInfo",
          "type": "tuple"
        },
        {
          "components": [
            {
              "internalType": "address",
              "name": "tokenAddress",
              "type": "address"
            },
            {
              "internalType": "uint256",
              "name": "miniTarget",
              "type": "uint256"
            },
            {
              "internalType": "uint256",
              "name": "maxCap",
              "type": "uint256"
            },
            {
              "internalType": "uint256",
              "name": "miniDeposit",
              "type": "uint256"
            },
            {
              "internalType": "uint256",
              "name": "maxDeposit",
              "type": "uint256"
            }
          ],
          "internalType": "struct ICollectiveFundRaise.FundInfo",
          "name": "fundInfo",
          "type": "tuple"
        },
        {
          "components": [
            {
              "internalType": "bool",
              "name": "enable",
              "type": "bool"
            },
            {
              "internalType": "uint8",
              "name": "valifyType",
              "type": "uint8"
            },
            {
              "internalType": "address",
              "name": "tokenAddress",
              "type": "address"
            },
            {
              "internalType": "uint256",
              "name": "tokenId",
              "type": "uint256"
            },
            {
              "internalType": "uint256",
              "name": "miniHolding",
              "type": "uint256"
            },
            {
              "internalType": "address[]",
              "name": "whitelist",
              "type": "address[]"
            }
          ],
          "internalType": "struct ICollectiveFundRaise.PriorityDepositorInfo",
          "name": "priorityDepositor",
          "type": "tuple"
        },
        {
          "internalType": "uint8",
          "name": "fundRaiseType",
          "type": "uint8"
        },
        {
          "internalType": "enum ICollectiveFundRaise.ProposalState",
          "name": "state",
          "type": "uint8"
        },
        {
          "internalType": "uint256",
          "name": "creationTime",
          "type": "uint256"
        },
        {
          "internalType": "uint256",
          "name": "stopVoteTime",
          "type": "uint256"
        }
      ],
      "stateMutability": "view",
      "type": "function"
    },
    {
      "inputs": [
        {
          "internalType": "contract DaoRegistry",
          "name": "dao",
          "type": "address"
        },
        {
          "internalType": "bytes32",
          "name": "proposalId",
          "type": "bytes32"
        },
        {
          "internalType": "bool",
          "name": "state",
          "type": "bool"
        }
      ],
      "name": "setProposalState",
      "outputs": [],
      "stateMutability": "nonpayable",
      "type": "function"
    },
    {
      "inputs": [
        {
          "components": [
            {
              "internalType": "contract DaoRegistry",
              "name": "dao",
              "type": "address"
            },
            {
              "internalType": "uint8",
              "name": "fundRaiseType",
              "type": "uint8"
            },
            {
              "components": [
                {
                  "internalType": "address",
                  "name": "tokenAddress",
                  "type": "address"
                },
                {
                  "internalType": "uint256",
                  "name": "miniTarget",
                  "type": "uint256"
                },
                {
                  "internalType": "uint256",
                  "name": "maxCap",
                  "type": "uint256"
                },
                {
                  "internalType": "uint256",
                  "name": "miniDeposit",
                  "type": "uint256"
                },
                {
                  "internalType": "uint256",
                  "name": "maxDeposit",
                  "type": "uint256"
                }
              ],
              "internalType": "struct ICollectiveFundRaise.FundInfo",
              "name": "fundInfo",
              "type": "tuple"
            },
            {
              "components": [
                {
                  "internalType": "uint256",
                  "name": "startTime",
                  "type": "uint256"
                },
                {
                  "internalType": "uint256",
                  "name": "endTime",
                  "type": "uint256"
                }
              ],
              "internalType": "struct ICollectiveFundRaise.FundRaiseTimeInfo",
              "name": "timeInfo",
              "type": "tuple"
            },
            {
              "components": [
                {
                  "internalType": "bool",
                  "name": "enable",
                  "type": "bool"
                },
                {
                  "internalType": "uint8",
                  "name": "valifyType",
                  "type": "uint8"
                },
                {
                  "internalType": "address",
                  "name": "tokenAddress",
                  "type": "address"
                },
                {
                  "internalType": "uint256",
                  "name": "tokenId",
                  "type": "uint256"
                },
                {
                  "internalType": "uint256",
                  "name": "miniHolding",
                  "type": "uint256"
                },
                {
                  "internalType": "address[]",
                  "name": "whitelist",
                  "type": "address[]"
                }
              ],
              "internalType": "struct ICollectiveFundRaise.PriorityDepositorInfo",
              "name": "priorityDepositor",
              "type": "tuple"
            }
          ],
          "internalType": "struct ICollectiveFundRaise.ProposalParams",
          "name": "params",
          "type": "tuple"
        }
      ],
      "name": "submitProposal",
      "outputs": [
        {
          "internalType": "bool",
          "name": "",
          "type": "bool"
        }
      ],
      "stateMutability": "nonpayable",
      "type": "function"
    }
  ],
  "bytecode": "0x608060405234801561001057600080fd5b50614762806100206000396000f3fe608060405234801561001057600080fd5b50600436106100be5760003560e01c80636d3cc040116100765780639573167d1161005b5780639573167d1461019a578063baf175bc146101ad578063e956369e146101c057600080fd5b80636d3cc040146101745780638ecf77201461018757600080fd5b8063315b39eb116100a7578063315b39eb1461010b5780635cb752761461012b578063642fc0c01461015157600080fd5b806301c22a3d146100c35780630c1c6f44146100f6575b600080fd5b6100e36100d1366004613f8e565b60036020526000908152604090205481565b6040519081526020015b60405180910390f35b6101096101043660046141ae565b6101e0565b005b61011e610119366004614142565b610318565b6040516100ed9190614418565b61013e610139366004614142565b61034e565b6040516100ed9796959493929190614475565b61016461015f366004613f8e565b610493565b60405190151581526020016100ed565b61016461018236600461416d565b6104ca565b61016461019536600461410a565b610a48565b6101096101a8366004614142565b610ade565b6101646101bb36600461423c565b611218565b6100e36101ce366004613f8e565b60046020526000908152604090205481565b6040516317ba7d8560e01b81527f8f5b4aabbdb8527d420a29cc90ae207773ad49b73c632c3cfd2f29eb8776f2ea60048201526001600160a01b038416906317ba7d859060240160206040518083038186803b15801561023f57600080fd5b505afa158015610253573d6000803e3d6000fd5b505050506040513d601f19601f820116820180604052508101906102779190613faa565b6001600160a01b0316336001600160a01b0316146102c1576040517f95383ea100000000000000000000000000000000000000000000000000000000815260040160405180910390fd5b6001600160a01b03831660009081526001602090815260408083208584529091529020811561030057600b8101805461ff001916610300179055610312565b600b8101805461ff0019166104001790555b50505050565b6001600160a01b0382166000908152602081815260408083208484529091529020606090610345906124b5565b90505b92915050565b600160208181526000938452604080852082529284529282902082518084018452815481529181015482850152825160a0808201855260028301546001600160a01b03908116835260038401548388015260048401548387015260058401546060808501919091526006850154608080860191909152875160c08101895260078701805460ff80821615158452610100820416838d0152620100009004909416818a0152600887015492810192909252600986015490820152600a850180548851818b0281018b01909952808952969894979596919592949386019390919083018282801561046657602002820191906000526020600020905b81546001600160a01b03168152600190910190602001808311610448575b50505091909252505050600b820154600c830154600d90930154919260ff80831693610100909304169187565b6001600160a01b038116600090815260026020526040812081906104b6906124c2565b116104c2576001610348565b600092915050565b604051634941d71d60e11b81527f87f768842f3bb4c7742d189f32b11c2bf0d7f4a6bad0b4b7a45937b15319e9fb60048201526000906001600160a01b03851690639283ae3a9060240160206040518083038186803b15801561052c57600080fd5b505afa158015610540573d6000803e3d6000fd5b505050506040513d601f19601f8201168201806040525081019061056491906140f2565b60011415610a3d57604051634941d71d60e11b81527f5cd8f6e95e052e3c0e0cc859654925ecc6c0d54b86a47d5ab47f1e8fc71daad960048201526000906001600160a01b03861690639283ae3a9060240160206040518083038186803b1580156105ce57600080fd5b505afa1580156105e2573d6000803e3d6000fd5b505050506040513d601f19601f8201168201806040525081019061060691906140f2565b6040517ffd310d290000000000000000000000000000000000000000000000000000000081527f6468a9b13d5f0011479da2d9211ad507a42070e4a58df895adf3136147416db260048201529091506000906001600160a01b0387169063fd310d299060240160206040518083038186803b15801561068457600080fd5b505afa158015610698573d6000803e3d6000fd5b505050506040513d601f19601f820116820180604052508101906106bc9190613faa565b604051634941d71d60e11b81527f0ebc415f2a9c53ba3b90c65925f402605b16daf54b8f18bc2a4ac5cf2026ff5360048201529091506000906001600160a01b03881690639283ae3a9060240160206040518083038186803b15801561072157600080fd5b505afa158015610735573d6000803e3d6000fd5b505050506040513d601f19601f8201168201806040525081019061075991906140f2565b604051634941d71d60e11b81527f52cf9e13c44455102d3bdf6a2d2539e3a78562a7c366394927a7d6cff60a27a660048201529091506000906001600160a01b03891690639283ae3a9060240160206040518083038186803b1580156107be57600080fd5b505afa1580156107d2573d6000803e3d6000fd5b505050506040513d601f19601f820116820180604052508101906107f691906140f2565b90508315801561088057506040516370a0823160e01b81526001600160a01b0387811660048301528391908516906370a082319060240160206040518083038186803b15801561084557600080fd5b505afa158015610859573d6000803e3d6000fd5b505050506040513d601f19601f8201168201806040525081019061087d91906140f2565b10155b15610892576001945050505050610a41565b83600114801561091c57506040516370a0823160e01b81526001600160a01b0387811660048301528391908516906370a082319060240160206040518083038186803b1580156108e157600080fd5b505afa1580156108f5573d6000803e3d6000fd5b505050506040513d601f19601f8201168201806040525081019061091991906140f2565b10155b1561092e576001945050505050610a41565b8360021480156109d657506040517efdd58e0000000000000000000000000000000000000000000000000000000081526001600160a01b0387811660048301526024820183905283919085169062fdd58e9060440160206040518083038186803b15801561099b57600080fd5b505afa1580156109af573d6000803e3d6000fd5b505050506040513d601f19601f820116820180604052508101906109d391906140f2565b10155b156109e8576001945050505050610a41565b836003148015610a1e57506001600160a01b0388166000908152602081815260408083208a84529091529020610a1e90876124cc565b15610a30576001945050505050610a41565b6000945050505050610a41565b5060005b9392505050565b6040517fa230c5240000000000000000000000000000000000000000000000000000000081526001600160a01b0382811660048301526000919084169063a230c5249060240160206040518083038186803b158015610aa657600080fd5b505afa158015610aba573d6000803e3d6000fd5b505050506040513d601f19601f8201168201806040525081019061034591906140a9565b816000610aea826124ee565b9050610af4613ddc565b6001600160a01b03851660008181526001602090815260408083208884529091529081902090517f30490e91000000000000000000000000000000000000000000000000000000008152600481018790529091906330490e9190602401600060405180830381600087803b158015610b6b57600080fd5b505af1158015610b7f573d6000803e3d6000fd5b50506040516317ba7d8560e01b81527f8f5b4aabbdb8527d420a29cc90ae207773ad49b73c632c3cfd2f29eb8776f2ea60048201526001600160a01b03891692506317ba7d85915060240160206040518083038186803b158015610be257600080fd5b505afa158015610bf6573d6000803e3d6000fd5b505050506040513d601f19601f82011682018060405250810190610c1a9190613faa565b6001600160a01b0390811683526040517f40de703e00000000000000000000000000000000000000000000000000000000815260048101879052908716906340de703e9060240160206040518083038186803b158015610c7957600080fd5b505afa158015610c8d573d6000803e3d6000fd5b505050506040513d601f19601f82011682018060405250810190610cb19190613faa565b6001600160a01b031660208301819052610cf7576040517f72bacacc00000000000000000000000000000000000000000000000000000000815260040160405180910390fd5b60208201516040517f76225e730000000000000000000000000000000000000000000000000000000081526001600160a01b03888116600483015260248201889052909116906376225e739060440160606040518083038186803b158015610d5e57600080fd5b505afa158015610d72573d6000803e3d6000fd5b505050506040513d601f19601f82011682018060405250810190610d969190614203565b608085018190526060850182905260408501836005811115610dc857634e487b7160e01b600052602160045260246000fd5b6005811115610de757634e487b7160e01b600052602160045260246000fd5b90525060029150610df59050565b82604001516005811115610e1957634e487b7160e01b600052602160045260246000fd5b141561109057600b8101805461ff0019166101009081179091556040805161012081018252835460e082019081526001850154828501528152815160a0808201845260028601546001600160a01b03908116835260038701546020808501919091526004880154848701526005880154606080860191909152600689015460808087019190915282870195909552865160c08101885260078a01805460ff808216151584529a8104909a16828501526201000090990490931683880152600889015490830152600988015493820193909352600a870180548651818602810186018852818152610fce988f988b979089019691949186019390830182828015610f4b57602002820191906000526020600020905b81546001600160a01b03168152600190910190602001808311610f2d575b505050919092525050508152600b82015460ff8082166020840152604090920191610100909104166004811115610f9257634e487b7160e01b600052602160045260246000fd5b6004811115610fb157634e487b7160e01b600052602160045260246000fd5b8152602001600c8201548152602001600d820154815250506127b9565b6001600160a01b0386166000908152600460205260408120805460019290610ff79084906145e8565b909155505081516040517ff10e6b6b0000000000000000000000000000000000000000000000000000000081526001600160a01b0388811660048301529091169063f10e6b6b90602401600060405180830381600087803b15801561105b57600080fd5b505af115801561106f573d6000803e3d6000fd5b505050600b820180546002925061ff001916610100835b0217905550611134565b6003826040015160058111156110b657634e487b7160e01b600052602160045260246000fd5b14806110e557506001826040015160058111156110e357634e487b7160e01b600052602160045260246000fd5b145b1561110257600b810180546004919061ff00191661010083611086565b6040517f70fc772800000000000000000000000000000000000000000000000000000000815260040160405180910390fd5b6001600160a01b03861660009081526002602052604090206111569086612989565b1561117f576001600160a01b038616600090815260026020526040902061117d90866129a1565b505b600061118a876129ad565b90507fdcc911819967718b3aa2f12f31ede4b5b207e7a5c1b86cbfa291fe31dee26644878784600b0160019054906101000a900460ff168487606001518860800151896040015160058111156111f057634e487b7160e01b600052602160045260246000fd5b60405161120397969594939291906143be565b60405180910390a15050506103128282612a91565b60006112276020830183613f8e565b6000611232826124ee565b90506112416020850185613f8e565b61124b8133612a9c565b6040805160e081018252600080825260208201819052918101829052606081018290526080810182905260a0810182905260c0810191909152600060038161129660208a018a613f8e565b6001600160a01b03166001600160a01b03168152602001908152602001600020541415801561141e57506000600160006112d360208a018a613f8e565b6001600160a01b03166001600160a01b031681526020019081526020016000206000600360008a600001602081019061130c9190613f8e565b6001600160a01b03166001600160a01b03168152602001908152602001600020548152602001908152602001600020600b0160019054906101000a900460ff16600481111561136b57634e487b7160e01b600052602160045260246000fd5b148061141e5750600180600061138460208a018a613f8e565b6001600160a01b03166001600160a01b031681526020019081526020016000206000600360008a60000160208101906113bd9190613f8e565b6001600160a01b03166001600160a01b03168152602001908152602001600020548152602001908152602001600020600b0160019054906101000a900460ff16600481111561141c57634e487b7160e01b600052602160045260246000fd5b145b15611455576040517fc49f1f0a00000000000000000000000000000000000000000000000000000000815260040160405180910390fd5b6114626020870187613f8e565b6040516317ba7d8560e01b81527fdac6d9ce728ebc92a61253866b4e5a4c73b76ba0aa11e7297a633f6232f5423760048201526001600160a01b0391909116906317ba7d859060240160206040518083038186803b1580156114c357600080fd5b505afa1580156114d7573d6000803e3d6000fd5b505050506040513d601f19601f820116820180604052508101906114fb9190613faa565b6001600160a01b0316808252639a0242fc6115196020890189613f8e565b6040516001600160e01b031960e084901b1681526001600160a01b03909116600482015260240160206040518083038186803b15801561155857600080fd5b505afa15801561156c573d6000803e3d6000fd5b505050506040513d601f19601f8201168201806040525081019061159091906140a9565b6115c6576040517fd9c6abc500000000000000000000000000000000000000000000000000000000815260040160405180910390fd5b6115d36020870187613f8e565b6040516317ba7d8560e01b81527f72894213a5c7f56b36b2947fa6ea18963d6bb1a68746b46d7f552cca76e1a7a860048201526001600160a01b0391909116906317ba7d859060240160206040518083038186803b15801561163457600080fd5b505afa158015611648573d6000803e3d6000fd5b505050506040513d601f19601f8201168201806040525081019061166c9190613faa565b6001600160a01b03166040820181905260009063a5d6fb1361169160208a018a613f8e565b6040516001600160e01b031960e084901b1681526001600160a01b03909116600482015260240160206040518083038186803b1580156116d057600080fd5b505afa1580156116e4573d6000803e3d6000fd5b505050506040513d601f19601f8201168201806040525081019061170891906140f2565b111580156117ad575060408101516000906001600160a01b03166362e86df561173460208a018a613f8e565b6040516001600160e01b031960e084901b1681526001600160a01b03909116600482015260240160206040518083038186803b15801561177357600080fd5b505afa158015611787573d6000803e3d6000fd5b505050506040513d601f19601f820116820180604052508101906117ab91906140f2565b145b6117fe5760405162461bcd60e51b815260206004820152601a60248201527f556e646f6e6520496e766573746d656e742050726f706f73616c00000000000060448201526064015b60405180910390fd5b61180b6020870187613f8e565b6040516317ba7d8560e01b81527f8f5b4aabbdb8527d420a29cc90ae207773ad49b73c632c3cfd2f29eb8776f2ea60048201526001600160a01b0391909116906317ba7d859060240160206040518083038186803b15801561186c57600080fd5b505afa158015611880573d6000803e3d6000fd5b505050506040513d601f19601f820116820180604052508101906118a49190613faa565b6001600160a01b031660608201819052600190630c916bae6118c960208a018a613f8e565b6040516001600160e01b031960e084901b1681526001600160a01b03909116600482015260240160206040518083038186803b15801561190857600080fd5b505afa15801561191c573d6000803e3d6000fd5b505050506040513d601f19601f8201168201806040525081019061194091906141e4565b600381111561195f57634e487b7160e01b600052602160045260246000fd5b1415611997576040517f997cddba00000000000000000000000000000000000000000000000000000000815260040160405180910390fd5b80606001516001600160a01b031663b0e21e8a6040518163ffffffff1660e01b815260040160206040518083038186803b1580156119d457600080fd5b505afa1580156119e8573d6000803e3d6000fd5b505050506040513d601f19601f82011682018060405250810190611a0c91906140f2565b60c082015260608601351580611a375750608086013515801590611a37575060608601356080870135105b80611a40575060005b80611a61575060c086013515801590611a61575060a086013560c087013511155b80611a6f57504260e0870135105b80611a82575060e0860135610100870135105b15611ab9576040517f22ee6ae700000000000000000000000000000000000000000000000000000000815260040160405180910390fd5b611ac66020870187613f8e565b6001600160a01b0316630b9411ba6040518163ffffffff1660e01b8152600401600060405180830381600087803b158015611b0057600080fd5b505af1158015611b14573d6000803e3d6000fd5b50611bd79250611b2a9150506020880188613f8e565b60c01b611bb2611b3d60208a018a613f8e565b6001600160a01b031663a25950c56040518163ffffffff1660e01b815260040160206040518083038186803b158015611b7557600080fd5b505afa158015611b89573d6000803e3d6000fd5b505050506040513d601f19601f82011682018060405250810190611bad91906140f2565b612af2565b604051602001611bc3929190614350565b604051602081830303815290604052612c48565b602080830191909152604080516101208101825260e089810135908201908152610100808b0135908301528152815160a08101835290928301918190611c239060608c01908c01613f8e565b6001600160a01b03168152602001896040016020013581526020018960400160400135815260200189604001606001358152602001896040016080013581525081526020016040518060c0016040528089806101200190611c849190614577565b611c9290602081019061408d565b15158152602001611ca76101208b018b614577565b611cb8906040810190602001614275565b60ff168152602001611cce6101208b018b614577565b611cdf906060810190604001613f8e565b6001600160a01b03168152602001611cfb6101208b018b614577565b606001358152602001611d126101208b018b614577565b608001358152602001611d296101208b018b614577565b611d379060a081019061450a565b8080602002602001604051908101604052809392919081815260200183836020028082843760009201919091525050509152508152602090810190611d829060408a01908a01614275565b60ff16815260200160008152602001428152602001876000016020810190611daa9190613f8e565b604051634941d71d60e11b81527f9876c0f0505bfb2b1c38d3bbd25ba13159172cd0868972d76927723f5a9480fc60048201526001600160a01b039190911690639283ae3a9060240160206040518083038186803b158015611e0b57600080fd5b505afa158015611e1f573d6000803e3d6000fd5b505050506040513d601f19601f82011682018060405250810190611e4391906140f2565b611e4d90426145e8565b905260016000611e6060208a018a613f8e565b6001600160a01b03908116825260208083019390935260409182016000908120868501518252845282902084518051825584015160018201558484015180516002830180547fffffffffffffffffffffffff00000000000000000000000000000000000000001691851691909117905580850151600383015580840151600483015560608082015160058401556080918201516006840155868501518051600785018054838a01519884015161ffff1990911692151561ff0019169290921761010060ff90991698909802979097177fffffffffffffffffffff0000000000000000000000000000000000000000ffff166201000091909616029490941785558301516008830155820151600982015560a082015180519194929392611f8e92600a87019290910190613e1e565b5050506060820151600b8201805460ff9092167fffffffffffffffffffffffffffffffffffffffffffffffffffffffffffffff0083168117825560808501519261ffff191617610100836004811115611ff757634e487b7160e01b600052602160045260246000fd5b021790555060a0820151600c82015560c090910151600d909101556000612022610120880188614577565b6120309060a081019061450a565b9050111561210c5760005b612049610120880188614577565b6120579060a081019061450a565b90508160ff16101561210a576120f7612074610120890189614577565b6120829060a081019061450a565b8360ff168181106120a357634e487b7160e01b600052603260045260246000fd5b90506020020160208101906120b89190613f8e565b6000806120c860208c018c613f8e565b6001600160a01b0316815260208082019290925260409081016000908120878401518252909252902090612c64565b508061210281614690565b91505061203b565b505b6121196020870187613f8e565b6001600160a01b031663b73dc38982602001516040518263ffffffff1660e01b815260040161214a91815260200190565b600060405180830381600087803b15801561216457600080fd5b505af1158015612178573d6000803e3d6000fd5b5061218a925050506020870187613f8e565b6001600160a01b031663815a2bf482602001518860000160208101906121b09190613f8e565b6040516317ba7d8560e01b81527f907642cbfe4e58ddd14eaa320923fbe4c29721dd0950ae4cb3b2626e292791ae60048201526001600160a01b0391909116906317ba7d859060240160206040518083038186803b15801561221157600080fd5b505afa158015612225573d6000803e3d6000fd5b505050506040513d601f19601f820116820180604052508101906122499190613faa565b6040516001600160e01b031960e085901b16815260048101929092526001600160a01b03166024820152604401600060405180830381600087803b15801561229057600080fd5b505af11580156122a4573d6000803e3d6000fd5b50600092506122b99150506020880188613f8e565b6040516317ba7d8560e01b81527f907642cbfe4e58ddd14eaa320923fbe4c29721dd0950ae4cb3b2626e292791ae60048201526001600160a01b0391909116906317ba7d859060240160206040518083038186803b15801561231a57600080fd5b505afa15801561232e573d6000803e3d6000fd5b505050506040513d601f19601f820116820180604052508101906123529190613faa565b90506001600160a01b038116632b0974d061237060208a018a613f8e565b60208086015160408051928301815260008352516001600160e01b031960e086901b1681526123a393929060040161442b565b600060405180830381600087803b1580156123bd57600080fd5b505af11580156123d1573d6000803e3d6000fd5b505050506124138260200151600260008a60000160208101906123f49190613f8e565b6001600160a01b03168152602081019190915260400160002090612c79565b506020808301519060039060009061242d908b018b613f8e565b6001600160a01b03168152602080820192909252604001600020919091557ffe22c13d0cc04eef2a813c30901da5f8cd64f5ba91866fccce71c606ce4648749061247990890189613f8e565b602080850151604080516001600160a01b039094168452918301520160405180910390a1600195505050506124ae8282612a91565b5050919050565b60606000610a4183612c85565b6000610348825490565b6001600160a01b03811660009081526001830160205260408120541515610345565b6040805160808101825260008082526020820181905291810182905260608101919091525a81600001818152505043826001600160a01b031663b21634826040518163ffffffff1660e01b815260040160206040518083038186803b15801561255657600080fd5b505afa15801561256a573d6000803e3d6000fd5b505050506040513d601f19601f8201168201806040525081019061258e91906140f2565b14156125dc5760405162461bcd60e51b815260206004820152601060248201527f7265656e7472616e63792067756172640000000000000000000000000000000060448201526064016117f5565b816001600160a01b03166310fdb0a26040518163ffffffff1660e01b8152600401600060405180830381600087803b15801561261757600080fd5b505af115801561262b573d6000803e3d6000fd5b50506040517f72c6838f0000000000000000000000000000000000000000000000000000000081527f1f2fd42ad6a6cacd573c4b212beb7a4e2499ad45d742a65337097f130e71daff6004820152600092506001600160a01b03851691506372c6838f9060240160206040518083038186803b1580156126aa57600080fd5b505afa1580156126be573d6000803e3d6000fd5b505050506040513d601f19601f820116820180604052508101906126e29190613faa565b90506001600160a01b0381166126fe57600060208301526127b3565b6001600160a01b038181166060840181905283516040517f43a8a3f1000000000000000000000000000000000000000000000000000000008152928616600484015260248301526000918291906343a8a3f190604401604080518083038186803b15801561276b57600080fd5b505afa15801561277f573d6000803e3d6000fd5b505050506040513d601f19601f820116820180604052508101906127a391906140c5565b9015156020860152604085015250505b50919050565b6060810151604051630da0f6c760e41b81527ff301d5aec67a9d816d38f9b645cac1e79a3308ff9803564bbe63a862db82f46b600482015260ff90911660248201526001600160a01b0383169063da0f6c7090604401600060405180830381600087803b15801561282957600080fd5b505af115801561283d573d6000803e3d6000fd5b5050505061288b826040518060800160405280846020015160200151815260200184602001516040015181526020018460200151606001518152602001846020015160800151815250612ce1565b6040805180820190915281515181528151602090810151908201526128b1908390612f04565b6020810151516040517f3b4f921a0000000000000000000000000000000000000000000000000000000081527f7fa36390a0e9b8b8004035572fd8345b1128cea12d1763a1baf8fbd4fb7b202760048201526001600160a01b03918216602482015290831690633b4f921a90604401600060405180830381600087803b15801561293a57600080fd5b505af115801561294e573d6000803e3d6000fd5b5050505060408101515115612985576040808201516020810151918101516060820151608090920151612985938693909291612fc0565b5050565b60008181526001830160205260408120541515610345565b60006103458383613263565b600080826001600160a01b031663a6f636416040518163ffffffff1660e01b815260040160006040518083038186803b1580156129e957600080fd5b505afa1580156129fd573d6000803e3d6000fd5b505050506040513d6000823e601f3d908101601f19168201604052612a259190810190613fc6565b90506000805b82518160ff161015612a8957612a6b85848360ff1681518110612a5e57634e487b7160e01b600052603260045260246000fd5b6020026020010151613380565b612a7590836145b4565b915080612a8181614690565b915050612a2b565b509392505050565b612985828233613b5b565b612aa68282610a48565b6129855760405162461bcd60e51b815260206004820152600c60248201527f6f6e6c79476f7665726e6f72000000000000000000000000000000000000000060448201526064016117f5565b606081612b3257505060408051808201909152600181527f3000000000000000000000000000000000000000000000000000000000000000602082015290565b8160005b8115612b5c5780612b4681614657565b9150612b559050600a83614600565b9150612b36565b60008167ffffffffffffffff811115612b8557634e487b7160e01b600052604160045260246000fd5b6040519080825280601f01601f191660200182016040528015612baf576020820181803683370190505b5090505b8415612c4057612bc4600183614614565b9150612bd1600a866146b0565b612bdc9060306145e8565b60f81b818381518110612bff57634e487b7160e01b600052603260045260246000fd5b60200101907effffffffffffffffffffffffffffffffffffffffffffffffffffffffffffff1916908160001a905350612c39600a86614600565b9450612bb3565b949350505050565b6000815160001415612c5c57506000919050565b506020015190565b6000610345836001600160a01b038416613c51565b60006103458383613c51565b606081600001805480602002602001604051908101604052809291908181526020018280548015612cd557602002820191906000526020600020905b815481526020019060010190808311612cc1575b50505050509050919050565b8051604051630da0f6c760e41b81527f31af571e53636dddd77f772cce9d30b42075760f2da731636acc6962da2fbef8600482015260248101919091526001600160a01b0383169063da0f6c7090604401600060405180830381600087803b158015612d4c57600080fd5b505af1158015612d60573d6000803e3d6000fd5b5050506020820151604051630da0f6c760e41b81527f7e07fb4530796d057ca1d76d83f47aa8629dbb7e942ac28f30ad6f5e9e8d4189600482015260248101919091526001600160a01b038416915063da0f6c7090604401600060405180830381600087803b158015612dd257600080fd5b505af1158015612de6573d6000803e3d6000fd5b5050506040808301519051630da0f6c760e41b81527fbdd40865e74210f0a46799ae63462c62010da92014a08cbc32f1d049d0a22c6b600482015260248101919091526001600160a01b038416915063da0f6c7090604401600060405180830381600087803b158015612e5857600080fd5b505af1158015612e6c573d6000803e3d6000fd5b5050506001600160a01b038316905063da0f6c707f5fa39c8100b49336846e52d39403e353bf782275f905a885f09224779ff1c9248360035b60200201516040516001600160e01b031960e085901b16815260048101929092526024820152604401600060405180830381600087803b158015612ee857600080fd5b505af1158015612efc573d6000803e3d6000fd5b505050505050565b8051604051630da0f6c760e41b81527fbd04d44792b7dbfe3b50b0f9f2006f7ef449e374a39021cb9bfa7cd0bdd850d7600482015260248101919091526001600160a01b0383169063da0f6c7090604401600060405180830381600087803b158015612f6f57600080fd5b505af1158015612f83573d6000803e3d6000fd5b5050506001600160a01b038316905063da0f6c707f533afc15b6312917b5e28e2272ea69d44e5ea8e00d3bd57cada1275c2f14c9e8836001612ea5565b604051630da0f6c760e41b81527f87f768842f3bb4c7742d189f32b11c2bf0d7f4a6bad0b4b7a45937b15319e9fb6004820152600160248201526001600160a01b0386169063da0f6c7090604401600060405180830381600087803b15801561302857600080fd5b505af115801561303c573d6000803e3d6000fd5b5050604051630da0f6c760e41b81527f5cd8f6e95e052e3c0e0cc859654925ecc6c0d54b86a47d5ab47f1e8fc71daad9600482015260ff871660248201526001600160a01b038816925063da0f6c709150604401600060405180830381600087803b1580156130aa57600080fd5b505af11580156130be573d6000803e3d6000fd5b5050604051630da0f6c760e41b81527f52cf9e13c44455102d3bdf6a2d2539e3a78562a7c366394927a7d6cff60a27a66004820152602481018590526001600160a01b038816925063da0f6c709150604401600060405180830381600087803b15801561312a57600080fd5b505af115801561313e573d6000803e3d6000fd5b5050604051630da0f6c760e41b81527f0ebc415f2a9c53ba3b90c65925f402605b16daf54b8f18bc2a4ac5cf2026ff536004820152602481018490526001600160a01b038816925063da0f6c709150604401600060405180830381600087803b1580156131aa57600080fd5b505af11580156131be573d6000803e3d6000fd5b50506040517f3b4f921a0000000000000000000000000000000000000000000000000000000081527f6468a9b13d5f0011479da2d9211ad507a42070e4a58df895adf3136147416db260048201526001600160a01b03868116602483015288169250633b4f921a9150604401600060405180830381600087803b15801561324457600080fd5b505af1158015613258573d6000803e3d6000fd5b505050505050505050565b60008181526001830160205260408120548015613376576000613287600183614614565b855490915060009061329b90600190614614565b905081811461331c5760008660000182815481106132c957634e487b7160e01b600052603260045260246000fd5b90600052602060002001549050808760000184815481106132fa57634e487b7160e01b600052603260045260246000fd5b6000918252602080832090910192909255918252600188019052604090208390555b855486908061333b57634e487b7160e01b600052603160045260246000fd5b600190038181906000526020600020016000905590558560010160008681526020019081526020016000206000905560019350505050610348565b6000915050610348565b604051634941d71d60e11b81527feee23dc9ab95b6666db01c2b6cae6a5ef706099a25926e21e0a2e043fe885604600482015260009081906001600160a01b03851690639283ae3a9060240160206040518083038186803b1580156133e457600080fd5b505afa1580156133f8573d6000803e3d6000fd5b505050506040513d601f19601f8201168201806040525081019061341c91906140f2565b604051634941d71d60e11b81527fd093d4a34a12a221b19c0a6689d5449f1346aa769d15cca4e9782c36fda9339a60048201529091506000906001600160a01b03861690639283ae3a9060240160206040518083038186803b15801561348157600080fd5b505afa158015613495573d6000803e3d6000fd5b505050506040513d601f19601f820116820180604052508101906134b991906140f2565b6040516317ba7d8560e01b81527f8f5b4aabbdb8527d420a29cc90ae207773ad49b73c632c3cfd2f29eb8776f2ea60048201529091506000906001600160a01b038716906317ba7d859060240160206040518083038186803b15801561351e57600080fd5b505afa158015613532573d6000803e3d6000fd5b505050506040513d601f19601f820116820180604052508101906135569190613faa565b6040517f593e96b60000000000000000000000000000000000000000000000000000000081527f3909e87234f428ccb8748126e2c93f66a62f92a70d315fa5803dec6362be07ab60048201529091506000906001600160a01b0388169063593e96b69060240160206040518083038186803b1580156135d457600080fd5b505afa1580156135e8573d6000803e3d6000fd5b505050506040513d601f19601f8201168201806040525081019061360c9190613faa565b6040516370a0823160e01b815261decd60048201526001600160a01b0391909116906370a082319060240160206040518083038186803b15801561364f57600080fd5b505afa158015613663573d6000803e3d6000fd5b505050506040513d601f19601f8201168201806040525081019061368791906140f2565b1115801561372257506040517fa230c5240000000000000000000000000000000000000000000000000000000081526001600160a01b03868116600483015287169063a230c5249060240160206040518083038186803b1580156136ea57600080fd5b505afa1580156136fe573d6000803e3d6000fd5b505050506040513d601f19601f8201168201806040525081019061372291906140a9565b156137335760019350505050610348565b81600114156138db5760008361386b5760405163d7cec87d60e01b81526001600160a01b0388811660048301528781166024830152670de0b6b3a7640000919084169063d7cec87d9060440160206040518083038186803b15801561379757600080fd5b505afa1580156137ab573d6000803e3d6000fd5b505050506040513d601f19601f820116820180604052508101906137cf91906140f2565b604051633de222bb60e21b81526001600160a01b038a81166004830152898116602483015285169063f7888aec9060440160206040518083038186803b15801561381857600080fd5b505afa15801561382c573d6000803e3d6000fd5b505050506040513d601f19601f8201168201806040525081019061385091906140f2565b61385a91906145e8565b6138649190614600565b9050613878565b6000945050505050610348565b6000811161388d576000945050505050610348565b677fffffffffffffff81106138a9576032945050505050610348565b60006138c46138bf6138ba84613ca0565b613cbe565b613dc0565b67ffffffffffffffff169550610348945050505050565b8160021415613a1b5760008361386b5760405163d7cec87d60e01b81526001600160a01b03888116600483015287811660248301526000919084169063d7cec87d9060440160206040518083038186803b15801561393857600080fd5b505afa15801561394c573d6000803e3d6000fd5b505050506040513d601f19601f8201168201806040525081019061397091906140f2565b604051633de222bb60e21b81526001600160a01b038a81166004830152898116602483015285169063f7888aec9060440160206040518083038186803b1580156139b957600080fd5b505afa1580156139cd573d6000803e3d6000fd5b505050506040513d601f19601f820116820180604052508101906139f191906140f2565b6139fb91906145e8565b11613a07576000613a0a565b60015b60ff1690505b935061034892505050565b81613b4f5760008361386b5760405163d7cec87d60e01b81526001600160a01b0388811660048301528781166024830152670de0b6b3a7640000919084169063d7cec87d9060440160206040518083038186803b158015613a7b57600080fd5b505afa158015613a8f573d6000803e3d6000fd5b505050506040513d601f19601f82011682018060405250810190613ab391906140f2565b604051633de222bb60e21b81526001600160a01b038a81166004830152898116602483015285169063f7888aec9060440160206040518083038186803b158015613afc57600080fd5b505afa158015613b10573d6000803e3d6000fd5b505050506040513d601f19601f82011682018060405250810190613b3491906140f2565b613b3e91906145e8565b613b489190614600565b9050613a10565b60009350505050610348565b816020015115613bf95781606001516001600160a01b0316635e5eb01384835a8651613b879190614614565b60408088015190516001600160e01b031960e087901b1681526001600160a01b03948516600482015293909216602484015260448301526064820152608401600060405180830381600087803b158015613be057600080fd5b505af1158015613bf4573d6000803e3d6000fd5b505050505b826001600160a01b031663d4f7af436040518163ffffffff1660e01b8152600401600060405180830381600087803b158015613c3457600080fd5b505af1158015613c48573d6000803e3d6000fd5b50505050505050565b6000818152600183016020526040812054613c9857508154600181810184556000848152602080822090930184905584548482528286019093526040902091909155610348565b506000610348565b6000677fffffffffffffff821115613cb757600080fd5b5060401b90565b60008082600f0b13613ccf57600080fd5b6000600f83900b680100000000000000008112613cee576040918201911d5b6401000000008112613d02576020918201911d5b620100008112613d14576010918201911d5b6101008112613d25576008918201911d5b60108112613d35576004918201911d5b60048112613d45576002918201911d5b60028112613d54576001820191505b7fffffffffffffffffffffffffffffffffffffffffffffffffffffffffffffffc0820160401b600f85900b607f8490031b6780000000000000005b6000811315613db55790800260ff81901c8281029390930192607f011c9060011d613d8f565b509095945050505050565b60008082600f0b1215613dd257600080fd5b50600f0b60401d90565b6040805160e08101825260008082526020820181905290918201908152602001600081526020016000815260200160008152602001613e19613e9b565b905290565b828054828255906000526020600020908101928215613e8b579160200282015b82811115613e8b57825182547fffffffffffffffffffffffff0000000000000000000000000000000000000000166001600160a01b03909116178255602090920191600190910190613e3e565b50613e97929150613f69565b5090565b604080516101208101909152600060e0820181815261010083019190915281908152602001613efb6040518060a0016040528060006001600160a01b03168152602001600081526020016000815260200160008152602001600081525090565b8152602001613f476040518060c00160405280600015158152602001600060ff16815260200160006001600160a01b031681526020016000815260200160008152602001606081525090565b8152600060208201819052604082018190526060820181905260809091015290565b5b80821115613e975760008155600101613f6a565b8051613f8981614706565b919050565b600060208284031215613f9f578081fd5b8135610a4181614706565b600060208284031215613fbb578081fd5b8151610a4181614706565b60006020808385031215613fd8578182fd5b825167ffffffffffffffff80821115613fef578384fd5b818501915085601f830112614002578384fd5b815181811115614014576140146146f0565b8060051b604051601f19603f83011681018181108582111715614039576140396146f0565b604052828152858101935084860182860187018a1015614057578788fd5b8795505b838610156140805761406c81613f7e565b85526001959095019493860193860161405b565b5098975050505050505050565b60006020828403121561409e578081fd5b8135610a418161471e565b6000602082840312156140ba578081fd5b8151610a418161471e565b600080604083850312156140d7578081fd5b82516140e28161471e565b6020939093015192949293505050565b600060208284031215614103578081fd5b5051919050565b6000806040838503121561411c578182fd5b823561412781614706565b9150602083013561413781614706565b809150509250929050565b60008060408385031215614154578182fd5b823561415f81614706565b946020939093013593505050565b600080600060608486031215614181578081fd5b833561418c81614706565b92506020840135915060408401356141a381614706565b809150509250925092565b6000806000606084860312156141c2578283fd5b83356141cd81614706565b92506020840135915060408401356141a38161471e565b6000602082840312156141f5578081fd5b815160048110610a41578182fd5b600080600060608486031215614217578081fd5b835160068110614225578182fd5b602085015160409095015190969495509392505050565b60006020828403121561424d578081fd5b813567ffffffffffffffff811115614263578182fd5b82016101408185031215610a41578182fd5b600060208284031215614286578081fd5b813560ff81168114610a41578182fd5b6000815180845260208085019450808401835b838110156142ce5781516001600160a01b0316875295820195908201906001016142a9565b509495945050505050565b600581106142f757634e487b7160e01b600052602160045260246000fd5b9052565b80511515825260ff60208201511660208301526001600160a01b0360408201511660408301526060810151606083015260808101516080830152600060a082015160c060a0850152612c4060c0850182614296565b7fffffffffffffffff000000000000000000000000000000000000000000000000831681527f46756e6445737461626c6973686d656e742300000000000000000000000000006008820152600082516143b081601a85016020870161462b565b91909101601a019392505050565b6001600160a01b03881681526020810187905260e081016143e260408301886142d9565b6fffffffffffffffffffffffffffffffff861660608301528460808301528360a08301528260c083015298975050505050505050565b6020815260006103456020830184614296565b6001600160a01b0384168152826020820152606060408201526000825180606084015261445f81608085016020870161462b565b601f01601f191691909101608001949350505050565b60006101808951835260208a015160208401526001600160a01b0389511660408401526020890151606084015260408901516080840152606089015160a0840152608089015160c08401528060e08401526144d2818401896142fb565b9150506144e561010083018760ff169052565b6144f36101208301866142d9565b610140820193909352610160015295945050505050565b60008083357fffffffffffffffffffffffffffffffffffffffffffffffffffffffffffffffe184360301811261453e578283fd5b83018035915067ffffffffffffffff821115614558578283fd5b6020019150600581901b360382131561457057600080fd5b9250929050565b600082357fffffffffffffffffffffffffffffffffffffffffffffffffffffffffffffff418336030181126145aa578182fd5b9190910192915050565b60006fffffffffffffffffffffffffffffffff8083168185168083038211156145df576145df6146c4565b01949350505050565b600082198211156145fb576145fb6146c4565b500190565b60008261460f5761460f6146da565b500490565b600082821015614626576146266146c4565b500390565b60005b8381101561464657818101518382015260200161462e565b838111156103125750506000910152565b60007fffffffffffffffffffffffffffffffffffffffffffffffffffffffffffffffff821415614689576146896146c4565b5060010190565b600060ff821660ff8114156146a7576146a76146c4565b60010192915050565b6000826146bf576146bf6146da565b500690565b634e487b7160e01b600052601160045260246000fd5b634e487b7160e01b600052601260045260246000fd5b634e487b7160e01b600052604160045260246000fd5b6001600160a01b038116811461471b57600080fd5b50565b801515811461471b57600080fdfea2646970667358221220e8e3688ff20b122a5a588fe86c8989529487c2591204d294651f1405580c51a364736f6c63430008040033",
  "linkReferences": {},
  "deployedLinkReferences": {}
}