{
  "_format": "hh-sol-artifact-1",
  "contractName": "ColletiveDaoSetProposalAdapterContract",
  "sourceName": "contracts/collective/adapters/CollectiveDaoSetProposalAdapter.sol",
  "abi": [
    {
      "inputs": [],
      "name": "UNDONE_PROPOSALS",
      "type": "error"
    },
    {
      "inputs": [],
      "name": "VOTING_NOT_FINISH",
      "type": "error"
    },
    {
      "anonymous": false,
      "inputs": [
        {
          "indexed": false,
          "internalType": "address",
          "name": "daoAddr",
          "type": "address"
        },
        {
          "indexed": false,
          "internalType": "bytes32",
          "name": "proposalId",
          "type": "bytes32"
        },
        {
          "indexed": false,
          "internalType": "enum ColletiveDaoSetProposalAdapterContract.ProposalType",
          "name": "pType",
          "type": "uint8"
        }
      ],
      "name": "ProposalCreated",
      "type": "event"
    },
    {
      "anonymous": false,
      "inputs": [
        {
          "indexed": false,
          "internalType": "address",
          "name": "daoAddr",
          "type": "address"
        },
        {
          "indexed": false,
          "internalType": "bytes32",
          "name": "proposalId",
          "type": "bytes32"
        },
        {
          "indexed": false,
          "internalType": "enum ColletiveDaoSetProposalAdapterContract.ProposalState",
          "name": "state",
          "type": "uint8"
        },
        {
          "indexed": false,
          "internalType": "uint256",
          "name": "voteResult",
          "type": "uint256"
        },
        {
          "indexed": false,
          "internalType": "uint128",
          "name": "allVotingWeight",
          "type": "uint128"
        },
        {
          "indexed": false,
          "internalType": "uint256",
          "name": "nbYes",
          "type": "uint256"
        },
        {
          "indexed": false,
          "internalType": "uint256",
          "name": "nbNo",
          "type": "uint256"
        }
      ],
      "name": "ProposalProcessed",
      "type": "event"
    },
    {
      "inputs": [
        {
          "internalType": "address",
          "name": "",
          "type": "address"
        },
        {
          "internalType": "bytes32",
          "name": "",
          "type": "bytes32"
        }
      ],
      "name": "feesProposals",
      "outputs": [
        {
          "internalType": "bytes32",
          "name": "proposalId",
          "type": "bytes32"
        },
        {
          "internalType": "uint256",
          "name": "redemptionFeeAmount",
          "type": "uint256"
        },
        {
          "internalType": "uint256",
          "name": "creationTime",
          "type": "uint256"
        },
        {
          "internalType": "uint256",
          "name": "stopVoteTime",
          "type": "uint256"
        },
        {
          "internalType": "enum ColletiveDaoSetProposalAdapterContract.ProposalState",
          "name": "state",
          "type": "uint8"
        }
      ],
      "stateMutability": "view",
      "type": "function"
    },
    {
      "inputs": [
        {
          "internalType": "address",
          "name": "",
          "type": "address"
        },
        {
          "internalType": "bytes32",
          "name": "",
          "type": "bytes32"
        }
      ],
      "name": "governorMembershipProposals",
      "outputs": [
        {
          "internalType": "bytes32",
          "name": "proposalId",
          "type": "bytes32"
        },
        {
          "internalType": "bool",
          "name": "enable",
          "type": "bool"
        },
        {
          "internalType": "uint8",
          "name": "varifyType",
          "type": "uint8"
        },
        {
          "internalType": "uint256",
          "name": "minAmount",
          "type": "uint256"
        },
        {
          "internalType": "address",
          "name": "tokenAddress",
          "type": "address"
        },
        {
          "internalType": "uint256",
          "name": "tokenId",
          "type": "uint256"
        },
        {
          "internalType": "uint256",
          "name": "creationTime",
          "type": "uint256"
        },
        {
          "internalType": "uint256",
          "name": "stopVoteTime",
          "type": "uint256"
        },
        {
          "internalType": "enum ColletiveDaoSetProposalAdapterContract.ProposalState",
          "name": "state",
          "type": "uint8"
        }
      ],
      "stateMutability": "view",
      "type": "function"
    },
    {
      "inputs": [
        {
          "internalType": "address",
          "name": "",
          "type": "address"
        },
        {
          "internalType": "bytes32",
          "name": "",
          "type": "bytes32"
        }
      ],
      "name": "investorCapProposals",
      "outputs": [
        {
          "internalType": "bytes32",
          "name": "proposalId",
          "type": "bytes32"
        },
        {
          "internalType": "bool",
          "name": "enable",
          "type": "bool"
        },
        {
          "internalType": "uint256",
          "name": "cap",
          "type": "uint256"
        },
        {
          "internalType": "uint256",
          "name": "creationTime",
          "type": "uint256"
        },
        {
          "internalType": "uint256",
          "name": "stopVoteTime",
          "type": "uint256"
        },
        {
          "internalType": "enum ColletiveDaoSetProposalAdapterContract.ProposalState",
          "name": "state",
          "type": "uint8"
        }
      ],
      "stateMutability": "view",
      "type": "function"
    },
    {
      "inputs": [
        {
          "internalType": "contract DaoRegistry",
          "name": "dao",
          "type": "address"
        }
      ],
      "name": "isProposalAllDone",
      "outputs": [
        {
          "internalType": "bool",
          "name": "",
          "type": "bool"
        }
      ],
      "stateMutability": "view",
      "type": "function"
    },
    {
      "inputs": [
        {
          "internalType": "address",
          "name": "",
          "type": "address"
        }
      ],
      "name": "ongoingFeesProposal",
      "outputs": [
        {
          "internalType": "bytes32",
          "name": "",
          "type": "bytes32"
        }
      ],
      "stateMutability": "view",
      "type": "function"
    },
    {
      "inputs": [
        {
          "internalType": "address",
          "name": "",
          "type": "address"
        }
      ],
      "name": "ongoingGovernorMembershipProposal",
      "outputs": [
        {
          "internalType": "bytes32",
          "name": "",
          "type": "bytes32"
        }
      ],
      "stateMutability": "view",
      "type": "function"
    },
    {
      "inputs": [
        {
          "internalType": "address",
          "name": "",
          "type": "address"
        }
      ],
      "name": "ongoingInvestorCapProposal",
      "outputs": [
        {
          "internalType": "bytes32",
          "name": "",
          "type": "bytes32"
        }
      ],
      "stateMutability": "view",
      "type": "function"
    },
    {
      "inputs": [
        {
          "internalType": "address",
          "name": "",
          "type": "address"
        }
      ],
      "name": "ongoingProposerRewardProposal",
      "outputs": [
        {
          "internalType": "bytes32",
          "name": "",
          "type": "bytes32"
        }
      ],
      "stateMutability": "view",
      "type": "function"
    },
    {
      "inputs": [
        {
          "internalType": "address",
          "name": "",
          "type": "address"
        }
      ],
      "name": "ongoingVotingProposal",
      "outputs": [
        {
          "internalType": "bytes32",
          "name": "",
          "type": "bytes32"
        }
      ],
      "stateMutability": "view",
      "type": "function"
    },
    {
      "inputs": [
        {
          "internalType": "contract DaoRegistry",
          "name": "dao",
          "type": "address"
        },
        {
          "internalType": "bytes32",
          "name": "proposalId",
          "type": "bytes32"
        }
      ],
      "name": "processFeesProposal",
      "outputs": [],
      "stateMutability": "nonpayable",
      "type": "function"
    },
    {
      "inputs": [
        {
          "internalType": "contract DaoRegistry",
          "name": "dao",
          "type": "address"
        },
        {
          "internalType": "bytes32",
          "name": "proposalId",
          "type": "bytes32"
        }
      ],
      "name": "processGovernorMembershipProposal",
      "outputs": [],
      "stateMutability": "nonpayable",
      "type": "function"
    },
    {
      "inputs": [
        {
          "internalType": "contract DaoRegistry",
          "name": "dao",
          "type": "address"
        },
        {
          "internalType": "bytes32",
          "name": "proposalId",
          "type": "bytes32"
        }
      ],
      "name": "processInvestorCapProposal",
      "outputs": [],
      "stateMutability": "nonpayable",
      "type": "function"
    },
    {
      "inputs": [
        {
          "internalType": "contract DaoRegistry",
          "name": "dao",
          "type": "address"
        },
        {
          "internalType": "bytes32",
          "name": "proposalId",
          "type": "bytes32"
        }
      ],
      "name": "processProposerRewardProposal",
      "outputs": [],
      "stateMutability": "nonpayable",
      "type": "function"
    },
    {
      "inputs": [
        {
          "internalType": "contract DaoRegistry",
          "name": "dao",
          "type": "address"
        },
        {
          "internalType": "bytes32",
          "name": "proposalId",
          "type": "bytes32"
        }
      ],
      "name": "processVotingProposal",
      "outputs": [],
      "stateMutability": "nonpayable",
      "type": "function"
    },
    {
      "inputs": [
        {
          "internalType": "address",
          "name": "",
          "type": "address"
        },
        {
          "internalType": "bytes32",
          "name": "",
          "type": "bytes32"
        }
      ],
      "name": "proposerRewardProposals",
      "outputs": [
        {
          "internalType": "bytes32",
          "name": "proposalId",
          "type": "bytes32"
        },
        {
          "internalType": "uint256",
          "name": "fundFromInvestorAmount",
          "type": "uint256"
        },
        {
          "internalType": "uint256",
          "name": "paybackTokenFromInvestorAmount",
          "type": "uint256"
        },
        {
          "internalType": "uint256",
          "name": "creationTime",
          "type": "uint256"
        },
        {
          "internalType": "uint256",
          "name": "stopVoteTime",
          "type": "uint256"
        },
        {
          "internalType": "enum ColletiveDaoSetProposalAdapterContract.ProposalState",
          "name": "state",
          "type": "uint8"
        }
      ],
      "stateMutability": "view",
      "type": "function"
    },
    {
      "inputs": [
        {
          "internalType": "contract DaoRegistry",
          "name": "dao",
          "type": "address"
        },
        {
          "internalType": "uint256",
          "name": "redemtionFee",
          "type": "uint256"
        }
      ],
      "name": "submitFeesProposal",
      "outputs": [],
      "stateMutability": "nonpayable",
      "type": "function"
    },
    {
      "inputs": [
        {
          "internalType": "contract DaoRegistry",
          "name": "dao",
          "type": "address"
        },
        {
          "internalType": "bool",
          "name": "enable",
          "type": "bool"
        },
        {
          "internalType": "uint8",
          "name": "varifyType",
          "type": "uint8"
        },
        {
          "internalType": "uint256",
          "name": "minAmount",
          "type": "uint256"
        },
        {
          "internalType": "address",
          "name": "tokenAddress",
          "type": "address"
        },
        {
          "internalType": "uint256",
          "name": "tokenId",
          "type": "uint256"
        },
        {
          "internalType": "address[]",
          "name": "whiteList",
          "type": "address[]"
        }
      ],
      "name": "submitGovernorMembershpProposal",
      "outputs": [],
      "stateMutability": "nonpayable",
      "type": "function"
    },
    {
      "inputs": [
        {
          "internalType": "contract DaoRegistry",
          "name": "dao",
          "type": "address"
        },
        {
          "internalType": "bool",
          "name": "enable",
          "type": "bool"
        },
        {
          "internalType": "uint256",
          "name": "cap",
          "type": "uint256"
        }
      ],
      "name": "submitInvestorCapProposal",
      "outputs": [],
      "stateMutability": "nonpayable",
      "type": "function"
    },
    {
      "inputs": [
        {
          "internalType": "contract DaoRegistry",
          "name": "dao",
          "type": "address"
        },
        {
          "internalType": "uint256",
          "name": "fundFromInvestorAmount",
          "type": "uint256"
        },
        {
          "internalType": "uint256",
          "name": "paybackTokenFromInvestorAmount",
          "type": "uint256"
        }
      ],
      "name": "submitProposerRewardProposal",
      "outputs": [],
      "stateMutability": "nonpayable",
      "type": "function"
    },
    {
      "inputs": [
        {
          "internalType": "contract DaoRegistry",
          "name": "dao",
          "type": "address"
        },
        {
          "components": [
            {
              "internalType": "uint256",
              "name": "votingAssetType",
              "type": "uint256"
            },
            {
              "internalType": "address",
              "name": "tokenAddress",
              "type": "address"
            },
            {
              "internalType": "uint256",
              "name": "tokenID",
              "type": "uint256"
            },
            {
              "internalType": "uint256",
              "name": "votingWeightedType",
              "type": "uint256"
            },
            {
              "internalType": "uint256",
              "name": "supportType",
              "type": "uint256"
            },
            {
              "internalType": "uint256",
              "name": "quorumType",
              "type": "uint256"
            },
            {
              "internalType": "uint256",
              "name": "support",
              "type": "uint256"
            },
            {
              "internalType": "uint256",
              "name": "quorum",
              "type": "uint256"
            },
            {
              "internalType": "uint256",
              "name": "votingPeriod",
              "type": "uint256"
            },
            {
              "internalType": "uint256",
              "name": "executingPeriod",
              "type": "uint256"
            }
          ],
          "internalType": "struct ColletiveDaoSetProposalAdapterContract.VotingParams",
          "name": "params",
          "type": "tuple"
        }
      ],
      "name": "submitVotingProposal",
      "outputs": [],
      "stateMutability": "nonpayable",
      "type": "function"
    },
    {
      "inputs": [
        {
          "internalType": "address",
          "name": "",
          "type": "address"
        },
        {
          "internalType": "bytes32",
          "name": "",
          "type": "bytes32"
        }
      ],
      "name": "votingProposals",
      "outputs": [
        {
          "internalType": "bytes32",
          "name": "proposalId",
          "type": "bytes32"
        },
        {
          "components": [
            {
              "internalType": "uint256",
              "name": "supportType",
              "type": "uint256"
            },
            {
              "internalType": "uint256",
              "name": "quorumType",
              "type": "uint256"
            },
            {
              "internalType": "uint256",
              "name": "support",
              "type": "uint256"
            },
            {
              "internalType": "uint256",
              "name": "quorum",
              "type": "uint256"
            }
          ],
          "internalType": "struct ColletiveDaoSetProposalAdapterContract.VotingSupportInfo",
          "name": "supportInfo",
          "type": "tuple"
        },
        {
          "components": [
            {
              "internalType": "uint256",
              "name": "votingAssetType",
              "type": "uint256"
            },
            {
              "internalType": "address",
              "name": "tokenAddress",
              "type": "address"
            },
            {
              "internalType": "uint256",
              "name": "tokenID",
              "type": "uint256"
            },
            {
              "internalType": "uint256",
              "name": "votingWeightedType",
              "type": "uint256"
            }
          ],
          "internalType": "struct ColletiveDaoSetProposalAdapterContract.VotingAssetInfo",
          "name": "votingAssetInfo",
          "type": "tuple"
        },
        {
          "components": [
            {
              "internalType": "uint256",
              "name": "votingPeriod",
              "type": "uint256"
            },
            {
              "internalType": "uint256",
              "name": "executingPeriod",
              "type": "uint256"
            },
            {
              "internalType": "uint256",
              "name": "creationTime",
              "type": "uint256"
            },
            {
              "internalType": "uint256",
              "name": "stopVoteTime",
              "type": "uint256"
            }
          ],
          "internalType": "struct ColletiveDaoSetProposalAdapterContract.VotingTimeInfo",
          "name": "timeInfo",
          "type": "tuple"
        },
        {
          "internalType": "enum ColletiveDaoSetProposalAdapterContract.ProposalState",
          "name": "state",
          "type": "uint8"
        }
      ],
      "stateMutability": "view",
      "type": "function"
    }
  ],
  "bytecode": "0x608060405234801561001057600080fd5b5061559980620000216000396000f3fe608060405234801561001057600080fd5b50600436106101775760003560e01c80638805212d116100d8578063b6939b7f1161008c578063d2ae72e511610066578063d2ae72e514610559578063eb1147721461056c578063f8ffc75b1461057f57600080fd5b8063b6939b7f14610506578063ba3e9e2e14610526578063be2176251461053957600080fd5b80639a0242fc116100bd5780639a0242fc146104bd578063a860dfdd146104e0578063ae984545146104f357600080fd5b80638805212d1461048a5780638e3588dc146104aa57600080fd5b80631d625e241161012f5780634ad743cc116101145780634ad743cc146103b857806355ba6cf4146104145780635dd12f891461042757600080fd5b80631d625e24146102525780631eb1cf391461033057600080fd5b806307dc8eb81161016057806307dc8eb8146101fe578063115111861461021157806311c747cb1461023f57600080fd5b806301362c231461017c578063034f82fe14610191575b600080fd5b61018f61018a366004614e46565b61059f565b005b6101e361019f366004614bf8565b60056020818152600093845260408085209091529183529120805460018201546002830154600384015460048501549490950154929460ff92831694919390921686565b6040516101f5969594939291906151da565b60405180910390f35b61018f61020c366004614e46565b6109e3565b61023161021f366004614bc0565b60046020526000908152604090205481565b6040519081526020016101f5565b61018f61024d366004614e99565b610c6e565b61031f610260366004614bf8565b60086020818152600093845260408085208252928452928290208054835160808082018652600184015482526002840154828801526003840154828701526004840154606080840191909152865180830188526005860154815260068601546001600160a01b0316818a015260078601548189015295850154868201528651918201875260098501548252600a85015497820197909752600b84015495810195909552600c83015495850195909552600d909101549093929060ff1685565b6040516101f595949392919061527b565b6103a361033e366004614bf8565b6006602081815260009384526040808520909152918352912080546001820154600283015460038401546004850154600586015496860154600790960154949660ff8086169761010090960481169694956001600160a01b0390941694929391921689565b6040516101f599989796959493929190615219565b6104036103c6366004614bf8565b6007602090815260009283526040808420909152908252902080546001820154600283015460038401546004909401549293919290919060ff1685565b6040516101f5959493929190615321565b61018f610422366004614e46565b610fce565b610478610435366004614bf8565b6009602090815260009283526040808420909152908252902080546001820154600283015460038401546004850154600590950154939492939192909160ff1686565b6040516101f596959493929190615357565b610231610498366004614bc0565b60026020526000908152604090205481565b61018f6104b8366004614e46565b6112c7565b6104d06104cb366004614bc0565b6115a3565b60405190151581526020016101f5565b61018f6104ee366004614e46565b61165b565b61018f610501366004614d33565b611937565b610231610514366004614bc0565b60036020526000908152604090205481565b61018f610534366004614d73565b611bfe565b610231610547366004614bc0565b60016020526000908152604090205481565b61018f610567366004614e58565b612072565b61018f61057a366004614e46565b6124a2565b61023161058d366004614bc0565b60006020819052908152604090205481565b8160006105ab826127f9565b6001600160a01b03851660008181526009602090815260408083208884529091529081902090516330490e9160e01b815260048101879052929350916330490e9190602401600060405180830381600087803b15801561060a57600080fd5b505af115801561061e573d6000803e3d6000fd5b50506040516317ba7d8560e01b81527f907642cbfe4e58ddd14eaa320923fbe4c29721dd0950ae4cb3b2626e292791ae6004820152600092506001600160a01b03881691506317ba7d859060240160206040518083038186803b15801561068457600080fd5b505afa158015610698573d6000803e3d6000fd5b505050506040513d601f19601f820116820180604052508101906106bc9190614bdc565b6040516376225e7360e01b81526001600160a01b03888116600483015260248201889052919250600091829182918516906376225e7390604401606060405180830381600087803b15801561071057600080fd5b505af1158015610724573d6000803e3d6000fd5b505050506040513d601f19601f820116820180604052508101906107489190614ecd565b91945092509050600283600581111561077157634e487b7160e01b600052602160045260246000fd5b141561089e576001850154604051630da0f6c760e41b81527fb035c58a9b643066fc5cd78a708da0456c36221a03ca174ff3b76d4306ff7c6c600482015260248101919091526001600160a01b038a169063da0f6c7090604401600060405180830381600087803b1580156107e557600080fd5b505af11580156107f9573d6000803e3d6000fd5b505050506002850154604051630da0f6c760e41b81527f558062fa5fcc8623e6c743ab5b51793317989a5a93f03b32a485f94843f77da3600482015260248101919091526001600160a01b038a169063da0f6c7090604401600060405180830381600087803b15801561086b57600080fd5b505af115801561087f573d6000803e3d6000fd5b5050506005860180546002925060ff19166001835b0217905550610938565b60038360058111156108c057634e487b7160e01b600052602160045260246000fd5b14806108eb575060018360058111156108e957634e487b7160e01b600052602160045260246000fd5b145b15610906576005850180546003919060ff1916600183610894565b6040517f70fc772800000000000000000000000000000000000000000000000000000000815260040160405180910390fd5b6001600160a01b038916600090815260036020526040812081905561095d8a8a612ac4565b6005808801549192507f9a4c9dc7fb16f7e4b4638e51757f59669af6a1ed1c31c3a44d9834d8976c05c5918c918c9160ff169088908111156109af57634e487b7160e01b600052602160045260246000fd5b8588886040516109c59796959493929190615151565b60405180910390a15050505050506109dd8282612df2565b50505050565b8160006109ef826127f9565b6001600160a01b03851660008181526005602090815260408083208884529091529081902090516330490e9160e01b815260048101879052929350916330490e9190602401600060405180830381600087803b158015610a4e57600080fd5b505af1158015610a62573d6000803e3d6000fd5b50506040516317ba7d8560e01b81527f907642cbfe4e58ddd14eaa320923fbe4c29721dd0950ae4cb3b2626e292791ae6004820152600092506001600160a01b03881691506317ba7d859060240160206040518083038186803b158015610ac857600080fd5b505afa158015610adc573d6000803e3d6000fd5b505050506040513d601f19601f82011682018060405250810190610b009190614bdc565b6040516376225e7360e01b81526001600160a01b03888116600483015260248201889052919250600091829182918516906376225e7390604401606060405180830381600087803b158015610b5457600080fd5b505af1158015610b68573d6000803e3d6000fd5b505050506040513d601f19601f82011682018060405250810190610b8c9190614ecd565b919450925090506002836005811115610bb557634e487b7160e01b600052602160045260246000fd5b1415610be157610bc58986612e01565b6005850180546002919060ff19166001835b0217905550610c49565b6003836005811115610c0357634e487b7160e01b600052602160045260246000fd5b1480610c2e57506001836005811115610c2c57634e487b7160e01b600052602160045260246000fd5b145b15610906576005850180546003919060ff1916600183610bd7565b6001600160a01b038916600090815260208190526040812081905561095d8a8a612ac4565b82610c798133612f44565b836000610c85826127f9565b9050610c9086613022565b6001600160a01b03861660009081526002602052604090205415610cfb5760405162461bcd60e51b815260206004820152601f60248201527f6c617374206361702070726f706f73616c206e6f742066696e616c697a65640060448201526064015b60405180910390fd5b856001600160a01b0316633477500f6040518163ffffffff1660e01b8152600401600060405180830381600087803b158015610d3657600080fd5b505af1158015610d4a573d6000803e3d6000fd5b505050506000610df58760c01b610dd0896001600160a01b031663d7543df96040518163ffffffff1660e01b815260040160206040518083038186803b158015610d9357600080fd5b505afa158015610da7573d6000803e3d6000fd5b505050506040513d601f19601f82011682018060405250810190610dcb9190614f36565b6135e9565b604051602001610de1929190614f4e565b60405160208183030381529060405261373f565b90506040518060c00160405280828152602001878152602001868152602001428152602001886001600160a01b0316639283ae3a7f9876c0f0505bfb2b1c38d3bbd25ba13159172cd0868972d76927723f5a9480fc6040518263ffffffff1660e01b8152600401610e6891815260200190565b60206040518083038186803b158015610e8057600080fd5b505afa158015610e94573d6000803e3d6000fd5b505050506040513d601f19601f82011682018060405250810190610eb89190614f36565b610ec29042615401565b8152600060209182018190526001600160a01b038a168152600982526040808220858352835290819020835181559183015160018084019190915590830151600283015560608301516003808401919091556080840151600484015560a08401516005840180549193909260ff19909216918490811115610f5357634e487b7160e01b600052602160045260246000fd5b021790555050506001600160a01b0387166000908152600260205260409020819055610f7f878261375b565b7fa65d0c07e3b0d876ee52e871c234a4b150b9bf17a08f356f5aeda8d6782cc31a87826000604051610fb3939291906151ac565b60405180910390a150610fc68282612df2565b505050505050565b81610fd98133612f44565b826000610fe5826127f9565b9050610ff085613022565b6001600160a01b038516600090815260046020526040902054156110565760405162461bcd60e51b815260206004820152601f60248201527f6c617374206361702070726f706f73616c206e6f742066696e616c697a6564006044820152606401610cf2565b846001600160a01b031663091a3e9c6040518163ffffffff1660e01b8152600401600060405180830381600087803b15801561109157600080fd5b505af11580156110a5573d6000803e3d6000fd5b5050505060006110ff8660c01b6110ee886001600160a01b031663f8385b2d6040518163ffffffff1660e01b815260040160206040518083038186803b158015610d9357600080fd5b604051602001610de1929190614fb5565b90506040518060a00160405280828152602001868152602001428152602001876001600160a01b0316639283ae3a7f9876c0f0505bfb2b1c38d3bbd25ba13159172cd0868972d76927723f5a9480fc6040518263ffffffff1660e01b815260040161116c91815260200190565b60206040518083038186803b15801561118457600080fd5b505afa158015611198573d6000803e3d6000fd5b505050506040513d601f19601f820116820180604052508101906111bc9190614f36565b6111c69042615401565b8152600060209182018190526001600160a01b03891681526007825260408082208583528352908190208351815591830151600180840191909155908301516002830155606083015160038084019190915560808401516004840180549193909260ff1990921691849081111561124d57634e487b7160e01b600052602160045260246000fd5b021790555050506001600160a01b0386166000908152600460205260409020819055611279868261375b565b7fa65d0c07e3b0d876ee52e871c234a4b150b9bf17a08f356f5aeda8d6782cc31a868260006040516112ad939291906151ac565b60405180910390a1506112c08282612df2565b5050505050565b8160006112d3826127f9565b6001600160a01b03851660008181526006602090815260408083208884529091529081902090516330490e9160e01b815260048101879052929350916330490e9190602401600060405180830381600087803b15801561133257600080fd5b505af1158015611346573d6000803e3d6000fd5b50506040516317ba7d8560e01b81527f907642cbfe4e58ddd14eaa320923fbe4c29721dd0950ae4cb3b2626e292791ae6004820152600092506001600160a01b03881691506317ba7d859060240160206040518083038186803b1580156113ac57600080fd5b505afa1580156113c0573d6000803e3d6000fd5b505050506040513d601f19601f820116820180604052508101906113e49190614bdc565b6040516376225e7360e01b81526001600160a01b03888116600483015260248201889052919250600091829182918516906376225e7390604401606060405180830381600087803b15801561143857600080fd5b505af115801561144c573d6000803e3d6000fd5b505050506040513d601f19601f820116820180604052508101906114709190614ecd565b91945092509050600283600581111561149957634e487b7160e01b600052602160045260246000fd5b14156114c5576114a98986613971565b6007850180546002919060ff19166001835b021790555061152d565b60038360058111156114e757634e487b7160e01b600052602160045260246000fd5b14806115125750600183600581111561151057634e487b7160e01b600052602160045260246000fd5b145b15610906576007850180546003919060ff19166001836114bb565b6001600160a01b03891660009081526001602052604081208190556115528a8a612ac4565b60078701549091507f9a4c9dc7fb16f7e4b4638e51757f59669af6a1ed1c31c3a44d9834d8976c05c5908b908b9060ff168760058111156109af57634e487b7160e01b600052602160045260246000fd5b6001600160a01b0381166000908152602081905260408120541515806115e057506001600160a01b03821660009081526001602052604090205415155b8061160257506001600160a01b03821660009081526004602052604090205415155b8061162457506001600160a01b03821660009081526003602052604090205415155b8061164657506001600160a01b03821660009081526002602052604090205415155b1561165357506000919050565b506001919050565b816000611667826127f9565b6001600160a01b03851660008181526008602090815260408083208884529091529081902090516330490e9160e01b815260048101879052929350916330490e9190602401600060405180830381600087803b1580156116c657600080fd5b505af11580156116da573d6000803e3d6000fd5b50506040516317ba7d8560e01b81527f907642cbfe4e58ddd14eaa320923fbe4c29721dd0950ae4cb3b2626e292791ae6004820152600092506001600160a01b03881691506317ba7d859060240160206040518083038186803b15801561174057600080fd5b505afa158015611754573d6000803e3d6000fd5b505050506040513d601f19601f820116820180604052508101906117789190614bdc565b6040516376225e7360e01b81526001600160a01b03888116600483015260248201889052919250600091829182918516906376225e7390604401606060405180830381600087803b1580156117cc57600080fd5b505af11580156117e0573d6000803e3d6000fd5b505050506040513d601f19601f820116820180604052508101906118049190614ecd565b91945092509050600283600581111561182d57634e487b7160e01b600052602160045260246000fd5b14156118595761183d8986613e95565b600d850180546002919060ff19166001835b02179055506118c1565b600383600581111561187b57634e487b7160e01b600052602160045260246000fd5b14806118a6575060018360058111156118a457634e487b7160e01b600052602160045260246000fd5b145b1561090657600d850180546003919060ff191660018361184f565b6001600160a01b03891660009081526003602052604081208190556118e68a8a612ac4565b600d8701549091507f9a4c9dc7fb16f7e4b4638e51757f59669af6a1ed1c31c3a44d9834d8976c05c5908b908b9060ff168760058111156109af57634e487b7160e01b600052602160045260246000fd5b826119428133612f44565b83600061194e826127f9565b905061195986613022565b6001600160a01b038616600090815260208190526040902054156119bf5760405162461bcd60e51b815260206004820152601f60248201527f6c617374206361702070726f706f73616c206e6f742066696e616c697a6564006044820152606401610cf2565b856001600160a01b0316631785092b6040518163ffffffff1660e01b8152600401600060405180830381600087803b1580156119fa57600080fd5b505af1158015611a0e573d6000803e3d6000fd5b505050506000611a688760c01b611a57896001600160a01b0316633f8a3d496040518163ffffffff1660e01b815260040160206040518083038186803b158015610d9357600080fd5b604051602001610de192919061501c565b90506040518060c001604052808281526020018715158152602001868152602001428152602001886001600160a01b0316639283ae3a7f9876c0f0505bfb2b1c38d3bbd25ba13159172cd0868972d76927723f5a9480fc6040518263ffffffff1660e01b8152600401611add91815260200190565b60206040518083038186803b158015611af557600080fd5b505afa158015611b09573d6000803e3d6000fd5b505050506040513d601f19601f82011682018060405250810190611b2d9190614f36565b611b379042615401565b8152602001600090526001600160a01b038816600090815260056020818152604080842086855282529283902084518155908401516001808301805492151560ff1993841617905593850151600283015560608501516003808401919091556080860151600484015560a086015193830180549395909390921691908490811115611bd257634e487b7160e01b600052602160045260246000fd5b021790555050506001600160a01b0387166000908152602081905260409020819055610f7f878261375b565b87611c098133612f44565b886000611c15826127f9565b6001600160a01b038c1660009081526001602052604090205490915015611ca45760405162461bcd60e51b815260206004820152602e60248201527f6c61737420476f7665726e6f724d656d626572736869702070726f706f73616c60448201527f206e6f742066696e616c697a65640000000000000000000000000000000000006064820152608401610cf2565b611cad8b613022565b8a6001600160a01b031663c7e820cc6040518163ffffffff1660e01b8152600401600060405180830381600087803b158015611ce857600080fd5b505af1158015611cfc573d6000803e3d6000fd5b505050506000611d568c60c01b611d458e6001600160a01b0316639e42c4036040518163ffffffff1660e01b815260040160206040518083038186803b158015610d9357600080fd5b604051602001610de19291906150ea565b90506040518061012001604052808281526020018c151581526020018b60ff1681526020018a8152602001896001600160a01b031681526020018881526020014281526020018d6001600160a01b0316639283ae3a7f9876c0f0505bfb2b1c38d3bbd25ba13159172cd0868972d76927723f5a9480fc6040518263ffffffff1660e01b8152600401611dea91815260200190565b60206040518083038186803b158015611e0257600080fd5b505afa158015611e16573d6000803e3d6000fd5b505050506040513d601f19601f82011682018060405250810190611e3a9190614f36565b611e449042615401565b8152602001600090526001600160a01b038d81166000908152600660208181526040808420878552825292839020855181559085015160018083018054958801517fffffffffffffffffffffffffffffffffffffffffffffffffffffffffffff00009096169215157fffffffffffffffffffffffffffffffffffffffffffffffffffffffffffff00ff169290921761010060ff909616860217909155606086015160028301556080860151600380840180547fffffffffffffffffffffffff000000000000000000000000000000000000000016929097169190911790955560a0860151600483015560c0860151600583015560e0860151928201929092559184015160078301805493949193909260ff19909116918490811115611f7957634e487b7160e01b600052602160045260246000fd5b02179055505085159050611ff95760005b60ff8116861115611ff757611fe487878360ff16818110611fbb57634e487b7160e01b600052603260045260246000fd5b9050602002016020810190611fd09190614bc0565b6000848152600a6020526040902090614298565b5080611fef816154a9565b915050611f8a565b505b6001600160a01b038c16600090815260016020526040902081905561201e8c8261375b565b7fa65d0c07e3b0d876ee52e871c234a4b150b9bf17a08f356f5aeda8d6782cc31a8c826001604051612052939291906151ac565b60405180910390a1506120658282612df2565b5050505050505050505050565b8161207d8133612f44565b826000612089826127f9565b6001600160a01b038616600090815260036020526040902054909150156121185760405162461bcd60e51b815260206004820152602260248201527f6c61737420766f74696e672070726f706f73616c206e6f742066696e616c697a60448201527f65640000000000000000000000000000000000000000000000000000000000006064820152608401610cf2565b61212185613022565b846001600160a01b0316631bc0f7876040518163ffffffff1660e01b8152600401600060405180830381600087803b15801561215c57600080fd5b505af1158015612170573d6000803e3d6000fd5b5050505060006121ca8660c01b6121b9886001600160a01b031663656f9f996040518163ffffffff1660e01b815260040160206040518083038186803b158015610d9357600080fd5b604051602001610de1929190615083565b90506040518060a001604052808281526020016040518060800160405280886080013581526020018860a0013581526020018860c0013581526020018860e00135815250815260200160405180608001604052808860000135815260200188602001602081019061223b9190614bc0565b6001600160a01b031681526020018860400135815260200188606001358152508152602001604051806080016040528088610100013581526020018861012001358152602001428152602001896001600160a01b0316639283ae3a7f9876c0f0505bfb2b1c38d3bbd25ba13159172cd0868972d76927723f5a9480fc6040518263ffffffff1660e01b81526004016122d591815260200190565b60206040518083038186803b1580156122ed57600080fd5b505afa158015612301573d6000803e3d6000fd5b505050506040513d601f19601f820116820180604052508101906123259190614f36565b61232f9042615401565b90528152602001600090526001600160a01b038781166000908152600860208181526040808420878552825292839020855181558582015180516001808401919091558184015160028401558186015160038085019190915560609283015160048501558887015180516005860155808601516006860180547fffffffffffffffffffffffff00000000000000000000000000000000000000001691909a16179098558787015160078501559682015194830194909455808701518051600984015592830151600a83015593820151600b820155920151600c8301556080840151600d8301805493949193909260ff1990911691849081111561244257634e487b7160e01b600052602160045260246000fd5b021790555050506001600160a01b038616600090815260036020526040902081905561246e868261375b565b7fa65d0c07e3b0d876ee52e871c234a4b150b9bf17a08f356f5aeda8d6782cc31a868260036040516112ad939291906151ac565b8160006124ae826127f9565b6001600160a01b03851660008181526007602090815260408083208884529091529081902090516330490e9160e01b815260048101879052929350916330490e9190602401600060405180830381600087803b15801561250d57600080fd5b505af1158015612521573d6000803e3d6000fd5b50506040516317ba7d8560e01b81527f907642cbfe4e58ddd14eaa320923fbe4c29721dd0950ae4cb3b2626e292791ae6004820152600092506001600160a01b03881691506317ba7d859060240160206040518083038186803b15801561258757600080fd5b505afa15801561259b573d6000803e3d6000fd5b505050506040513d601f19601f820116820180604052508101906125bf9190614bdc565b6040516376225e7360e01b81526001600160a01b03888116600483015260248201889052919250600091829182918516906376225e7390604401606060405180830381600087803b15801561261357600080fd5b505af1158015612627573d6000803e3d6000fd5b505050506040513d601f19601f8201168201806040525081019061264b9190614ecd565b91945092509050600283600581111561267457634e487b7160e01b600052602160045260246000fd5b141561271b576001850154604051630da0f6c760e41b81527f51cc27e85946200c558b984a0c15cad2122655d647f9c02ebe9529f2a0b25a2f600482015260248101919091526001600160a01b038a169063da0f6c7090604401600060405180830381600087803b1580156126e857600080fd5b505af11580156126fc573d6000803e3d6000fd5b5050506004860180546002925060ff19166001835b0217905550612783565b600383600581111561273d57634e487b7160e01b600052602160045260246000fd5b14806127685750600183600581111561276657634e487b7160e01b600052602160045260246000fd5b145b15610906576004850180546003919060ff1916600183612711565b6001600160a01b03891660009081526003602052604081208190556127a88a8a612ac4565b60048701549091507f9a4c9dc7fb16f7e4b4638e51757f59669af6a1ed1c31c3a44d9834d8976c05c5908b908b9060ff168760058111156109af57634e487b7160e01b600052602160045260246000fd5b6040805160808101825260008082526020820181905291810182905260608101919091525a81600001818152505043826001600160a01b031663b21634826040518163ffffffff1660e01b815260040160206040518083038186803b15801561286157600080fd5b505afa158015612875573d6000803e3d6000fd5b505050506040513d601f19601f820116820180604052508101906128999190614f36565b14156128e75760405162461bcd60e51b815260206004820152601060248201527f7265656e7472616e6379206775617264000000000000000000000000000000006044820152606401610cf2565b816001600160a01b03166310fdb0a26040518163ffffffff1660e01b8152600401600060405180830381600087803b15801561292257600080fd5b505af1158015612936573d6000803e3d6000fd5b50506040517f72c6838f0000000000000000000000000000000000000000000000000000000081527f1f2fd42ad6a6cacd573c4b212beb7a4e2499ad45d742a65337097f130e71daff6004820152600092506001600160a01b03851691506372c6838f9060240160206040518083038186803b1580156129b557600080fd5b505afa1580156129c9573d6000803e3d6000fd5b505050506040513d601f19601f820116820180604052508101906129ed9190614bdc565b90506001600160a01b038116612a095760006020830152612abe565b6001600160a01b038181166060840181905283516040517f43a8a3f1000000000000000000000000000000000000000000000000000000008152928616600484015260248301526000918291906343a8a3f190604401604080518083038186803b158015612a7657600080fd5b505afa158015612a8a573d6000803e3d6000fd5b505050506040513d601f19601f82011682018060405250810190612aae9190614d06565b9015156020860152604085015250505b50919050565b600080836001600160a01b031663a6f636416040518163ffffffff1660e01b815260040160006040518083038186803b158015612b0057600080fd5b505afa158015612b14573d6000803e3d6000fd5b505050506040513d6000823e601f3d908101601f19168201604052612b3c9190810190614c23565b6040516317ba7d8560e01b81527f907642cbfe4e58ddd14eaa320923fbe4c29721dd0950ae4cb3b2626e292791ae600482015290915060009081906001600160a01b038716906317ba7d859060240160206040518083038186803b158015612ba357600080fd5b505afa158015612bb7573d6000803e3d6000fd5b505050506040513d601f19601f82011682018060405250810190612bdb9190614bdc565b905060005b83518160ff161015612de557816001600160a01b03166324a2cceb8888878560ff1681518110612c2057634e487b7160e01b600052603260045260246000fd5b60200260200101516040518463ffffffff1660e01b8152600401612c64939291906001600160a01b0393841681526020810192909252909116604082015260600190565b60206040518083038186803b158015612c7c57600080fd5b505afa158015612c90573d6000803e3d6000fd5b505050506040513d601f19601f82011682018060405250810190612cb49190614cea565b15612d9257816001600160a01b03166391d2fd538888878560ff1681518110612ced57634e487b7160e01b600052603260045260246000fd5b60200260200101516040518463ffffffff1660e01b8152600401612d31939291906001600160a01b0393841681526020810192909252909116604082015260600190565b60206040518083038186803b158015612d4957600080fd5b505afa158015612d5d573d6000803e3d6000fd5b505050506040513d601f19601f82011682018060405250810190612d819190614f06565b612d8b90846153cd565b9250612dd3565b612dc687858360ff1681518110612db957634e487b7160e01b600052603260045260246000fd5b60200260200101516142b4565b612dd090846153cd565b92505b80612ddd816154a9565b915050612be0565b5090925050505b92915050565b612dfd828233614887565b5050565b6001808201546001600160a01b0384169163da0f6c70917f69f4ffb3ebcb7809550bddd3e4d449a47e737bf6635bc7a730996643997b0e489160ff909116151514612e4d576000612e50565b60015b6040517fffffffff0000000000000000000000000000000000000000000000000000000060e085901b168152600481019290925260ff166024820152604401600060405180830381600087803b158015612ea957600080fd5b505af1158015612ebd573d6000803e3d6000fd5b505050506002810154604051630da0f6c760e41b81527fecbde689cc6337d29a750b8b8a8abbfa97427b4ac800ab55be2f2c87311510f2600482015260248101919091526001600160a01b0383169063da0f6c70906044015b600060405180830381600087803b158015612f3057600080fd5b505af1158015610fc6573d6000803e3d6000fd5b6040517fa230c5240000000000000000000000000000000000000000000000000000000081526001600160a01b03828116600483015283169063a230c5249060240160206040518083038186803b158015612f9e57600080fd5b505afa158015612fb2573d6000803e3d6000fd5b505050506040513d601f19601f82011682018060405250810190612fd69190614cea565b612dfd5760405162461bcd60e51b815260206004820152600c60248201527f6f6e6c79476f7665726e6f7200000000000000000000000000000000000000006044820152606401610cf2565b6040516317ba7d8560e01b81527fd0e09561b13ad01191fc8f65f6fc85651e4f495d3f9ab93d95010ea58382434b60048201526000906001600160a01b038316906317ba7d859060240160206040518083038186803b15801561308457600080fd5b505afa158015613098573d6000803e3d6000fd5b505050506040513d601f19601f820116820180604052508101906130bc9190614bdc565b6040516317ba7d8560e01b81527f72894213a5c7f56b36b2947fa6ea18963d6bb1a68746b46d7f552cca76e1a7a860048201529091506000906001600160a01b038416906317ba7d859060240160206040518083038186803b15801561312157600080fd5b505afa158015613135573d6000803e3d6000fd5b505050506040513d601f19601f820116820180604052508101906131599190614bdc565b6040516317ba7d8560e01b81527f3a06648a49edffe95b8384794dfe9cf3ab34782fab0130b4c91bfd53f3407e6b60048201529091506000906001600160a01b038516906317ba7d859060240160206040518083038186803b1580156131be57600080fd5b505afa1580156131d2573d6000803e3d6000fd5b505050506040513d601f19601f820116820180604052508101906131f69190614bdc565b6040516317ba7d8560e01b81527f1a4f1390baec30049008138e650571a3c4374eba88116bc89dc192f2f9295efe60048201529091506000906001600160a01b038616906317ba7d859060240160206040518083038186803b15801561325b57600080fd5b505afa15801561326f573d6000803e3d6000fd5b505050506040513d601f19601f820116820180604052508101906132939190614bdc565b6040516317ba7d8560e01b81527f3b4de3360220463b2e1b681516ac7919070009f0544e8465d80dc511828dae5b60048201529091506000906001600160a01b038716906317ba7d859060240160206040518083038186803b1580156132f857600080fd5b505afa15801561330c573d6000803e3d6000fd5b505050506040513d601f19601f820116820180604052508101906133309190614bdc565b604051630190bf0360e61b81526001600160a01b0388811660048301529192509086169063642fc0c09060240160206040518083038186803b15801561337557600080fd5b505afa158015613389573d6000803e3d6000fd5b505050506040513d601f19601f820116820180604052508101906133ad9190614cea565b158061342f5750604051630190bf0360e61b81526001600160a01b03878116600483015285169063642fc0c09060240160206040518083038186803b1580156133f557600080fd5b505afa158015613409573d6000803e3d6000fd5b505050506040513d601f19601f8201168201806040525081019061342d9190614cea565b155b806134b05750604051630190bf0360e61b81526001600160a01b03878116600483015284169063642fc0c09060240160206040518083038186803b15801561347657600080fd5b505afa15801561348a573d6000803e3d6000fd5b505050506040513d601f19601f820116820180604052508101906134ae9190614cea565b155b806135315750604051630190bf0360e61b81526001600160a01b03878116600483015283169063642fc0c09060240160206040518083038186803b1580156134f757600080fd5b505afa15801561350b573d6000803e3d6000fd5b505050506040513d601f19601f8201168201806040525081019061352f9190614cea565b155b806135b25750604051630190bf0360e61b81526001600160a01b03878116600483015282169063642fc0c09060240160206040518083038186803b15801561357857600080fd5b505afa15801561358c573d6000803e3d6000fd5b505050506040513d601f19601f820116820180604052508101906135b09190614cea565b155b15610fc6576040517fabeb532d00000000000000000000000000000000000000000000000000000000815260040160405180910390fd5b60608161362957505060408051808201909152600181527f3000000000000000000000000000000000000000000000000000000000000000602082015290565b8160005b8115613653578061363d81615470565b915061364c9050600a83615419565b915061362d565b60008167ffffffffffffffff81111561367c57634e487b7160e01b600052604160045260246000fd5b6040519080825280601f01601f1916602001820160405280156136a6576020820181803683370190505b5090505b8415613737576136bb60018361542d565b91506136c8600a866154c9565b6136d3906030615401565b60f81b8183815181106136f657634e487b7160e01b600052603260045260246000fd5b60200101907effffffffffffffffffffffffffffffffffffffffffffffffffffffffffffff1916908160001a905350613730600a86615419565b94506136aa565b949350505050565b600081516000141561375357506000919050565b506020015190565b6040517fb73dc389000000000000000000000000000000000000000000000000000000008152600481018290526001600160a01b0383169063b73dc38990602401600060405180830381600087803b1580156137b657600080fd5b505af11580156137ca573d6000803e3d6000fd5b50506040516317ba7d8560e01b81527f907642cbfe4e58ddd14eaa320923fbe4c29721dd0950ae4cb3b2626e292791ae6004820152600092506001600160a01b03851691506317ba7d859060240160206040518083038186803b15801561383057600080fd5b505afa158015613844573d6000803e3d6000fd5b505050506040513d601f19601f820116820180604052508101906138689190614bdc565b604080516020810182526000815290517f2b0974d00000000000000000000000000000000000000000000000000000000081529192506001600160a01b03831691632b0974d0916138bf9187918791600401615383565b600060405180830381600087803b1580156138d957600080fd5b505af11580156138ed573d6000803e3d6000fd5b50506040517f815a2bf4000000000000000000000000000000000000000000000000000000008152600481018590526001600160a01b0384811660248301528616925063815a2bf49150604401600060405180830381600087803b15801561395457600080fd5b505af1158015613968573d6000803e3d6000fd5b50505050505050565b6001808201546001600160a01b0384169163da0f6c70917f02049446ffbff09ad55d6fdb03c8c6027cf548332d30663e8fdf960abdab86ea9160ff9091161515146139bd5760006139c0565b60015b6040517fffffffff0000000000000000000000000000000000000000000000000000000060e085901b168152600481019290925260ff166024820152604401600060405180830381600087803b158015613a1957600080fd5b505af1158015613a2d573d6000803e3d6000fd5b50505050600181015460ff1615612dfd576001810154604051630da0f6c760e41b81527f09f0ac4191623c4a1e481e66bb865f218d9f5bcef4e65b597583a054b10182bc600482015261010090910460ff1660248201526001600160a01b0383169063da0f6c7090604401600060405180830381600087803b158015613ab257600080fd5b505af1158015613ac6573d6000803e3d6000fd5b505050506002810154604051630da0f6c760e41b81527f6bdd30ca7a0b5a78cdfd780fd2f234880048cafa893e9ccbc9f82df25cdc717f600482015260248101919091526001600160a01b0383169063da0f6c7090604401600060405180830381600087803b158015613b3857600080fd5b505af1158015613b4c573d6000803e3d6000fd5b5050505060038101546040517f3b4f921a0000000000000000000000000000000000000000000000000000000081527f0567bf43e78d815625031c35adddd5d701cb6b913fbad3b625b4f8c00fdc42aa60048201526001600160a01b03918216602482015290831690633b4f921a90604401600060405180830381600087803b158015613bd857600080fd5b505af1158015613bec573d6000803e3d6000fd5b50505050600481810154604051630da0f6c760e41b81527f032de4639c5a8edd1ea478b1345b2d031f42ecd2b29442d3080c9ac0545b5f8e9281019290925260248201526001600160a01b0383169063da0f6c7090604401600060405180830381600087803b158015613c5e57600080fd5b505af1158015613c72573d6000803e3d6000fd5b505082546000908152600a60205260408120909250613c919150614978565b519050600081118015613cb057506001820154610100900460ff166003145b15613e90576040516317ba7d8560e01b81527f1a4f1390baec30049008138e650571a3c4374eba88116bc89dc192f2f9295efe60048201526000906001600160a01b038516906317ba7d859060240160206040518083038186803b158015613d1757600080fd5b505afa158015613d2b573d6000803e3d6000fd5b505050506040513d601f19601f82011682018060405250810190613d4f9190614bdc565b6040517f22c5c2cc0000000000000000000000000000000000000000000000000000000081526001600160a01b038681166004830152919250908216906322c5c2cc90602401600060405180830381600087803b158015613daf57600080fd5b505af1158015613dc3573d6000803e3d6000fd5b5050505060005b828160ff1610156112c05783546000908152600a602052604090206001600160a01b038316906333f7bc0c908790613e059060ff8616614985565b6040517fffffffff0000000000000000000000000000000000000000000000000000000060e085901b1681526001600160a01b03928316600482015291166024820152604401600060405180830381600087803b158015613e6557600080fd5b505af1158015613e79573d6000803e3d6000fd5b505050508080613e88906154a9565b915050613dca565b505050565b6005810154604051630da0f6c760e41b81527feee23dc9ab95b6666db01c2b6cae6a5ef706099a25926e21e0a2e043fe885604600482015260248101919091526001600160a01b0383169063da0f6c7090604401600060405180830381600087803b158015613f0357600080fd5b505af1158015613f17573d6000803e3d6000fd5b505050506008810154604051630da0f6c760e41b81527fd093d4a34a12a221b19c0a6689d5449f1346aa769d15cca4e9782c36fda9339a600482015260248101919091526001600160a01b0383169063da0f6c7090604401600060405180830381600087803b158015613f8957600080fd5b505af1158015613f9d573d6000803e3d6000fd5b505050506001810154604051630da0f6c760e41b81527f1aeed2c0ea31fb81f41489b79a1d09374a270e0f9340ace7354cce77586a7d16600482015260248101919091526001600160a01b0383169063da0f6c7090604401600060405180830381600087803b15801561400f57600080fd5b505af1158015614023573d6000803e3d6000fd5b505050506002810154604051630da0f6c760e41b81527f0e0434138ea29dceb1f2c0ca9b9f923f9d1c32d3d96bab2de9991f140daca712600482015260248101919091526001600160a01b0383169063da0f6c7090604401600060405180830381600087803b15801561409557600080fd5b505af11580156140a9573d6000803e3d6000fd5b50505050600481810154604051630da0f6c760e41b81527f0324de13a5a6e302ddb95a9fdf81cc736fc8acee2abe558970daac27395904e79281019290925260248201526001600160a01b0383169063da0f6c7090604401600060405180830381600087803b15801561411b57600080fd5b505af115801561412f573d6000803e3d6000fd5b505050506003810154604051630da0f6c760e41b81527fb4c601c38beae7eebb719eda3438f59fcbfd4c6dd7d38c00665b6fd5b432df32600482015260248101919091526001600160a01b0383169063da0f6c7090604401600060405180830381600087803b1580156141a157600080fd5b505af11580156141b5573d6000803e3d6000fd5b505050506009810154604051630da0f6c760e41b81527f9876c0f0505bfb2b1c38d3bbd25ba13159172cd0868972d76927723f5a9480fc600482015260248101919091526001600160a01b0383169063da0f6c7090604401600060405180830381600087803b15801561422757600080fd5b505af115801561423b573d6000803e3d6000fd5b50505050600a810154604051630da0f6c760e41b81527f02a3530cbb6e7c084516c86f68bd62c3e3fcd783c6c5d7e138616207f7a32250600482015260248101919091526001600160a01b0383169063da0f6c7090604401612f16565b60006142ad836001600160a01b038416614991565b9392505050565b6040517f9283ae3a0000000000000000000000000000000000000000000000000000000081527feee23dc9ab95b6666db01c2b6cae6a5ef706099a25926e21e0a2e043fe885604600482015260009081906001600160a01b03851690639283ae3a9060240160206040518083038186803b15801561433157600080fd5b505afa158015614345573d6000803e3d6000fd5b505050506040513d601f19601f820116820180604052508101906143699190614f36565b6040517f9283ae3a0000000000000000000000000000000000000000000000000000000081527fd093d4a34a12a221b19c0a6689d5449f1346aa769d15cca4e9782c36fda9339a60048201529091506000906001600160a01b03861690639283ae3a9060240160206040518083038186803b1580156143e757600080fd5b505afa1580156143fb573d6000803e3d6000fd5b505050506040513d601f19601f8201168201806040525081019061441f9190614f36565b6040516317ba7d8560e01b81527f8f5b4aabbdb8527d420a29cc90ae207773ad49b73c632c3cfd2f29eb8776f2ea60048201529091506000906001600160a01b038716906317ba7d859060240160206040518083038186803b15801561448457600080fd5b505afa158015614498573d6000803e3d6000fd5b505050506040513d601f19601f820116820180604052508101906144bc9190614bdc565b6040517f68abb5e00000000000000000000000000000000000000000000000000000000081526001600160a01b0388811660048301529192506000918316906368abb5e09060240160206040518083038186803b15801561451c57600080fd5b505afa158015614530573d6000803e3d6000fd5b505050506040513d601f19601f820116820180604052508101906145549190614f36565b111580156145ef57506040517fa230c5240000000000000000000000000000000000000000000000000000000081526001600160a01b03868116600483015287169063a230c5249060240160206040518083038186803b1580156145b757600080fd5b505afa1580156145cb573d6000803e3d6000fd5b505050506040513d601f19601f820116820180604052508101906145ef9190614cea565b156146005760019350505050612dec565b816001141561471d576000836146ad57604051633de222bb60e21b81526001600160a01b0388811660048301528781166024830152670de0b6b3a7640000919084169063f7888aec9060440160206040518083038186803b15801561466457600080fd5b505afa158015614678573d6000803e3d6000fd5b505050506040513d601f19601f8201168201806040525081019061469c9190614f36565b6146a69190615419565b90506146ba565b6000945050505050612dec565b600081116146cf576000945050505050612dec565b677fffffffffffffff81106146eb576032945050505050612dec565b60006147066147016146fc846149e0565b6149fe565b614b00565b67ffffffffffffffff169550612dec945050505050565b81600214156147d2576000836146ad57604051633de222bb60e21b81526001600160a01b03888116600483015287811660248301526000919084169063f7888aec9060440160206040518083038186803b15801561477a57600080fd5b505afa15801561478e573d6000803e3d6000fd5b505050506040513d601f19601f820116820180604052508101906147b29190614f36565b116147be5760006147c1565b60015b60ff1690505b9350612dec92505050565b8161487b576000836146ad57604051633de222bb60e21b81526001600160a01b0388811660048301528781166024830152670de0b6b3a7640000919084169063f7888aec9060440160206040518083038186803b15801561483257600080fd5b505afa158015614846573d6000803e3d6000fd5b505050506040513d601f19601f8201168201806040525081019061486a9190614f36565b6148749190615419565b90506147c7565b60009350505050612dec565b81602001511561493d5781606001516001600160a01b0316635e5eb01384835a86516148b3919061542d565b60408088015190517fffffffff0000000000000000000000000000000000000000000000000000000060e087901b1681526001600160a01b03948516600482015293909216602484015260448301526064820152608401600060405180830381600087803b15801561492457600080fd5b505af1158015614938573d6000803e3d6000fd5b505050505b826001600160a01b031663d4f7af436040518163ffffffff1660e01b8152600401600060405180830381600087803b15801561395457600080fd5b606060006142ad83614b1c565b60006142ad8383614b78565b60008181526001830160205260408120546149d857508154600181810184556000848152602080822090930184905584548482528286019093526040902091909155612dec565b506000612dec565b6000677fffffffffffffff8211156149f757600080fd5b5060401b90565b60008082600f0b13614a0f57600080fd5b6000600f83900b680100000000000000008112614a2e576040918201911d5b6401000000008112614a42576020918201911d5b620100008112614a54576010918201911d5b6101008112614a65576008918201911d5b60108112614a75576004918201911d5b60048112614a85576002918201911d5b60028112614a94576001820191505b7fffffffffffffffffffffffffffffffffffffffffffffffffffffffffffffffc0820160401b600f85900b607f8490031b6780000000000000005b6000811315614af55790800260ff81901c8281029390930192607f011c9060011d614acf565b509095945050505050565b60008082600f0b1215614b1257600080fd5b50600f0b60401d90565b606081600001805480602002602001604051908101604052809291908181526020018280548015614b6c57602002820191906000526020600020905b815481526020019060010190808311614b58575b50505050509050919050565b6000826000018281548110614b9d57634e487b7160e01b600052603260045260246000fd5b9060005260206000200154905092915050565b8051614bbb81615540565b919050565b600060208284031215614bd1578081fd5b81356142ad81615540565b600060208284031215614bed578081fd5b81516142ad81615540565b60008060408385031215614c0a578081fd5b8235614c1581615540565b946020939093013593505050565b60006020808385031215614c35578182fd5b825167ffffffffffffffff80821115614c4c578384fd5b818501915085601f830112614c5f578384fd5b815181811115614c7157614c71615509565b8060051b604051601f19603f83011681018181108582111715614c9657614c96615509565b604052828152858101935084860182860187018a1015614cb4578788fd5b8795505b83861015614cdd57614cc981614bb0565b855260019590950194938601938601614cb8565b5098975050505050505050565b600060208284031215614cfb578081fd5b81516142ad81615555565b60008060408385031215614d18578182fd5b8251614d2381615555565b6020939093015192949293505050565b600080600060608486031215614d47578081fd5b8335614d5281615540565b92506020840135614d6281615555565b929592945050506040919091013590565b60008060008060008060008060e0898b031215614d8e578384fd5b8835614d9981615540565b97506020890135614da981615555565b9650604089013560ff81168114614dbe578485fd5b9550606089013594506080890135614dd581615540565b935060a0890135925060c089013567ffffffffffffffff80821115614df8578384fd5b818b0191508b601f830112614e0b578384fd5b813581811115614e19578485fd5b8c60208260051b8501011115614e2d578485fd5b6020830194508093505050509295985092959890939650565b60008060408385031215614c0a578182fd5b600080828403610160811215614e6c578283fd5b8335614e7781615540565b9250610140601f1982011215614e8b578182fd5b506020830190509250929050565b600080600060608486031215614ead578081fd5b8335614eb881615540565b95602085013595506040909401359392505050565b600080600060608486031215614ee1578081fd5b835160068110614eef578182fd5b602085015160409095015190969495509392505050565b600060208284031215614f17578081fd5b81516fffffffffffffffffffffffffffffffff811681146142ad578182fd5b600060208284031215614f47578081fd5b5051919050565b77ffffffffffffffffffffffffffffffffffffffffffffffff19831681527f50726f706f7365722d5265776172642300000000000000000000000000000000600882015260008251614fa7816018850160208701615444565b919091016018019392505050565b77ffffffffffffffffffffffffffffffffffffffffffffffff19831681527f466565732300000000000000000000000000000000000000000000000000000060088201526000825161500e81600d850160208701615444565b91909101600d019392505050565b77ffffffffffffffffffffffffffffffffffffffffffffffff19831681527f496e766573746f722d4361702300000000000000000000000000000000000000600882015260008251615075816015850160208701615444565b919091016015019392505050565b77ffffffffffffffffffffffffffffffffffffffffffffffff19831681527f766f74696e6723000000000000000000000000000000000000000000000000006008820152600082516150dc81600f850160208701615444565b91909101600f019392505050565b77ffffffffffffffffffffffffffffffffffffffffffffffff19831681527f476f7665726e6f722d4d656d626572736869702300000000000000000000000060088201526000825161514381601c850160208701615444565b91909101601c019392505050565b6001600160a01b03881681526020810187905260e081016151718761551f565b604082019690965260608101949094526fffffffffffffffffffffffffffffffff92909216608084015260a083015260c09091015292915050565b6001600160a01b038416815260208101839052606081016151cc8361551f565b826040830152949350505050565b600060c08201905087825286151560208301528560408301528460608301528360808301526152088361551f565b8260a0830152979650505050505050565b6000610120820190508a8252891515602083015260ff891660408301528760608301526001600160a01b03871660808301528560a08301528460c08301528360e08301526152668361551f565b826101008301529a9950505050505050505050565b8581526101c081016152b16020830187805182526020810151602083015260408101516040830152606081015160608301525050565b845160a08301526020808601516001600160a01b031660c084015260408087015160e08501526060808801516101008601528651610120860152918601516101408501528501516101608401528401516101808301526153108361551f565b826101a08301529695505050505050565b600060a0820190508682528560208301528460408301528360608301526153478361551f565b8260808301529695505050505050565b600060c0820190508782528660208301528560408301528460608301528360808301526152088361551f565b6001600160a01b038416815282602082015260606040820152600082518060608401526153b7816080850160208701615444565b601f01601f191691909101608001949350505050565b60006fffffffffffffffffffffffffffffffff8083168185168083038211156153f8576153f86154dd565b01949350505050565b60008219821115615414576154146154dd565b500190565b600082615428576154286154f3565b500490565b60008282101561543f5761543f6154dd565b500390565b60005b8381101561545f578181015183820152602001615447565b838111156109dd5750506000910152565b60007fffffffffffffffffffffffffffffffffffffffffffffffffffffffffffffffff8214156154a2576154a26154dd565b5060010190565b600060ff821660ff8114156154c0576154c06154dd565b60010192915050565b6000826154d8576154d86154f3565b500690565b634e487b7160e01b600052601160045260246000fd5b634e487b7160e01b600052601260045260246000fd5b634e487b7160e01b600052604160045260246000fd5b6004811061553d57634e487b7160e01b600052602160045260246000fd5b50565b6001600160a01b038116811461553d57600080fd5b801515811461553d57600080fdfea2646970667358221220c168a39177cd40724d1351bf9c5b2f3665e4fc7b95d9728ceb25f2877d92beb064736f6c63430008040033",
  "linkReferences": {},
  "deployedLinkReferences": {}
}