{
  "_format": "hh-sol-artifact-1",
  "contractName": "ColletiveSetRiceReceiverProposalAdapterContract",
  "sourceName": "contracts/collective/adapters/CollectiveSetRiceReceiverProposalAdapter.sol",
  "abi": [
    {
      "inputs": [],
      "name": "VOTE_NOT_START",
      "type": "error"
    },
    {
      "anonymous": false,
      "inputs": [
        {
          "indexed": false,
          "internalType": "address",
          "name": "daoAddr",
          "type": "address"
        },
        {
          "indexed": false,
          "internalType": "bytes32",
          "name": "proposalId",
          "type": "bytes32"
        }
      ],
      "name": "ProposalCreated",
      "type": "event"
    },
    {
      "anonymous": false,
      "inputs": [
        {
          "indexed": false,
          "internalType": "address",
          "name": "daoAddr",
          "type": "address"
        },
        {
          "indexed": false,
          "internalType": "bytes32",
          "name": "proposalId",
          "type": "bytes32"
        },
        {
          "indexed": false,
          "internalType": "enum ColletiveSetRiceReceiverProposalAdapterContract.ProposalState",
          "name": "state",
          "type": "uint8"
        },
        {
          "indexed": false,
          "internalType": "uint256",
          "name": "voteResult",
          "type": "uint256"
        },
        {
          "indexed": false,
          "internalType": "uint256",
          "name": "allVotingWeight",
          "type": "uint256"
        },
        {
          "indexed": false,
          "internalType": "uint256",
          "name": "nbYes",
          "type": "uint256"
        },
        {
          "indexed": false,
          "internalType": "uint256",
          "name": "nbNo",
          "type": "uint256"
        }
      ],
      "name": "ProposalProcessed",
      "type": "event"
    },
    {
      "inputs": [
        {
          "internalType": "contract DaoRegistry",
          "name": "dao",
          "type": "address"
        }
      ],
      "name": "allDone",
      "outputs": [
        {
          "internalType": "bool",
          "name": "",
          "type": "bool"
        }
      ],
      "stateMutability": "view",
      "type": "function"
    },
    {
      "inputs": [
        {
          "internalType": "contract DaoRegistry",
          "name": "dao",
          "type": "address"
        },
        {
          "internalType": "bytes32",
          "name": "proposalId",
          "type": "bytes32"
        }
      ],
      "name": "processProposal",
      "outputs": [
        {
          "internalType": "bool",
          "name": "",
          "type": "bool"
        }
      ],
      "stateMutability": "nonpayable",
      "type": "function"
    },
    {
      "inputs": [
        {
          "internalType": "address",
          "name": "",
          "type": "address"
        },
        {
          "internalType": "bytes32",
          "name": "",
          "type": "bytes32"
        }
      ],
      "name": "proposals",
      "outputs": [
        {
          "internalType": "address",
          "name": "riceReceiver",
          "type": "address"
        },
        {
          "internalType": "address",
          "name": "proposer",
          "type": "address"
        },
        {
          "internalType": "uint256",
          "name": "creationTime",
          "type": "uint256"
        },
        {
          "internalType": "uint256",
          "name": "stopVoteTime",
          "type": "uint256"
        },
        {
          "internalType": "enum ColletiveSetRiceReceiverProposalAdapterContract.ProposalState",
          "name": "state",
          "type": "uint8"
        }
      ],
      "stateMutability": "view",
      "type": "function"
    },
    {
      "inputs": [
        {
          "internalType": "contract DaoRegistry",
          "name": "dao",
          "type": "address"
        },
        {
          "internalType": "address",
          "name": "riceReceiver",
          "type": "address"
        }
      ],
      "name": "summbitProposal",
      "outputs": [],
      "stateMutability": "nonpayable",
      "type": "function"
    }
  ],
  "bytecode": "0x608060405234801561001057600080fd5b50612249806100206000396000f3fe608060405234801561001057600080fd5b506004361061004c5760003560e01c8063497cdb3d146100515780635cb7527614610066578063642fc0c0146100d45780639573167d146100f7575b600080fd5b61006461005f366004611e6d565b61010a565b005b6100ba610074366004611d1a565b6000602081815292815260408082209093529081522080546001820154600283015460038401546004909401546001600160a01b03938416949390921692909160ff1685565b6040516100cb959493929190611f8a565b60405180910390f35b6100e76100e2366004611e51565b6106ca565b60405190151581526020016100cb565b6100e7610105366004611ea5565b610702565b816101158133610c86565b82600061012182610d68565b9050846001600160a01b031663d1480ddc6040518163ffffffff1660e01b8152600401600060405180830381600087803b15801561015e57600080fd5b505af1158015610172573d6000803e3d6000fd5b50505050600061021d8660c01b6101f8886001600160a01b031663e34bf3f86040518163ffffffff1660e01b815260040160206040518083038186803b1580156101bb57600080fd5b505afa1580156101cf573d6000803e3d6000fd5b505050506040513d601f19601f820116820180604052508101906101f39190611ef0565b611033565b604051602001610209929190611f1c565b604051602081830303815290604052611189565b6040805160a0810182526001600160a01b03808916825233602083015242828401529151634941d71d60e11b81527f9876c0f0505bfb2b1c38d3bbd25ba13159172cd0868972d76927723f5a9480fc6004820152929350916060830191891690639283ae3a9060240160206040518083038186803b15801561029e57600080fd5b505afa1580156102b2573d6000803e3d6000fd5b505050506040513d601f19601f820116820180604052508101906102d69190611ef0565b6102e090426120c3565b8152602001600090526001600160a01b03808816600090815260208181526040808320868452825291829020845181549085167fffffffffffffffffffffffff00000000000000000000000000000000000000009182161782559185015160018083018054929096169190931617909355908301516002830155606083015160038084019190915560808401516004840180549193909260ff1990921691849081111561039d57634e487b7160e01b600052602160045260246000fd5b0217905550506040517fb73dc389000000000000000000000000000000000000000000000000000000008152600481018390526001600160a01b038816915063b73dc38990602401600060405180830381600087803b1580156103ff57600080fd5b505af1158015610413573d6000803e3d6000fd5b50506040516317ba7d8560e01b81527f907642cbfe4e58ddd14eaa320923fbe4c29721dd0950ae4cb3b2626e292791ae60048201526001600160a01b038916925063815a2bf49150839083906317ba7d859060240160206040518083038186803b15801561048057600080fd5b505afa158015610494573d6000803e3d6000fd5b505050506040513d601f19601f820116820180604052508101906104b89190611cfe565b6040517fffffffff0000000000000000000000000000000000000000000000000000000060e085901b16815260048101929092526001600160a01b03166024820152604401600060405180830381600087803b15801561051757600080fd5b505af115801561052b573d6000803e3d6000fd5b50506040516317ba7d8560e01b81527f907642cbfe4e58ddd14eaa320923fbe4c29721dd0950ae4cb3b2626e292791ae6004820152600092506001600160a01b03891691506317ba7d859060240160206040518083038186803b15801561059157600080fd5b505afa1580156105a5573d6000803e3d6000fd5b505050506040513d601f19601f820116820180604052508101906105c99190611cfe565b604080516020810182526000815290517f2b0974d00000000000000000000000000000000000000000000000000000000081529192506001600160a01b03831691632b0974d091610620918b918791600401612045565b600060405180830381600087803b15801561063a57600080fd5b505af115801561064e573d6000803e3d6000fd5b5050506001600160a01b03881660009081526001602052604090206106749150836111a5565b50604080516001600160a01b0389168152602081018490527ffe22c13d0cc04eef2a813c30901da5f8cd64f5ba91866fccce71c606ce464874910160405180910390a150506106c382826111b8565b5050505050565b6001600160a01b038116600090815260016020526040812081906106ed906111c3565b116106f95760016106fc565b60005b92915050565b600082600061071082610d68565b6001600160a01b0386166000818152602081815260408083208984529091529081902090517ff941f6910000000000000000000000000000000000000000000000000000000081529293509163f941f69190610773908890600290600401612021565b60206040518083038186803b15801561078b57600080fd5b505afa15801561079f573d6000803e3d6000fd5b505050506040513d601f19601f820116820180604052508101906107c39190611e0c565b156108155760405162461bcd60e51b815260206004820152601a60248201527f70726f706f73616c20616c72656164792070726f63657373656400000000000060448201526064015b60405180910390fd5b6040516317ba7d8560e01b81527f907642cbfe4e58ddd14eaa320923fbe4c29721dd0950ae4cb3b2626e292791ae60048201526000906001600160a01b038816906317ba7d859060240160206040518083038186803b15801561087757600080fd5b505afa15801561088b573d6000803e3d6000fd5b505050506040513d601f19601f820116820180604052508101906108af9190611cfe565b90506001600160a01b0381166109075760405162461bcd60e51b815260206004820152601160248201527f61646170746572206e6f7420666f756e64000000000000000000000000000000604482015260640161080c565b6040517f76225e730000000000000000000000000000000000000000000000000000000081526001600160a01b0388811660048301526024820188905260009182918291908516906376225e7390604401606060405180830381600087803b15801561097257600080fd5b505af1158015610986573d6000803e3d6000fd5b505050506040513d601f19601f820116820180604052508101906109aa9190611eb7565b9194509250905060006109bc8b6111cd565b6040517f30490e91000000000000000000000000000000000000000000000000000000008152600481018c90529091506001600160a01b038c16906330490e9190602401600060405180830381600087803b158015610a1a57600080fd5b505af1158015610a2e573d6000803e3d6000fd5b5060029250610a3b915050565b846005811115610a5b57634e487b7160e01b600052602160045260246000fd5b1415610b195785546040517f3b4f921a0000000000000000000000000000000000000000000000000000000081527fc77068975ba2254bd67080aa196783f213ee682a15d902d03f33782130cf737d60048201526001600160a01b039182166024820152908c1690633b4f921a90604401600060405180830381600087803b158015610ae657600080fd5b505af1158015610afa573d6000803e3d6000fd5b5050506004870180546002925060ff19166001835b0217905550610bb3565b6003846005811115610b3b57634e487b7160e01b600052602160045260246000fd5b1480610b6657506001846005811115610b6457634e487b7160e01b600052602160045260246000fd5b145b15610b81576004860180546003919060ff1916600183610b0f565b6040517f97cbb52b00000000000000000000000000000000000000000000000000000000815260040160405180910390fd5b6001600160a01b038b166000908152600160205260409020610bd5908b6112b1565b15610bfe576001600160a01b038b166000908152600160205260409020610bfc908b6112c9565b505b60048601547ff3d22b9e73b9947a3edd70bd6279f80eda44c15f3cc8af46dc57bfb8191edd2b908c908c9060ff168487878a6005811115610c4f57634e487b7160e01b600052602160045260246000fd5b604051610c629796959493929190611fc7565b60405180910390a160019850505050505050610c7e82826111b8565b505092915050565b6040517fa230c5240000000000000000000000000000000000000000000000000000000081526001600160a01b03828116600483015283169063a230c5249060240160206040518083038186803b158015610ce057600080fd5b505afa158015610cf4573d6000803e3d6000fd5b505050506040513d601f19601f82011682018060405250810190610d189190611e0c565b610d645760405162461bcd60e51b815260206004820152600c60248201527f6f6e6c79476f7665726e6f720000000000000000000000000000000000000000604482015260640161080c565b5050565b6040805160808101825260008082526020820181905291810182905260608101919091525a81600001818152505043826001600160a01b031663b21634826040518163ffffffff1660e01b815260040160206040518083038186803b158015610dd057600080fd5b505afa158015610de4573d6000803e3d6000fd5b505050506040513d601f19601f82011682018060405250810190610e089190611ef0565b1415610e565760405162461bcd60e51b815260206004820152601060248201527f7265656e7472616e637920677561726400000000000000000000000000000000604482015260640161080c565b816001600160a01b03166310fdb0a26040518163ffffffff1660e01b8152600401600060405180830381600087803b158015610e9157600080fd5b505af1158015610ea5573d6000803e3d6000fd5b50506040517f72c6838f0000000000000000000000000000000000000000000000000000000081527f1f2fd42ad6a6cacd573c4b212beb7a4e2499ad45d742a65337097f130e71daff6004820152600092506001600160a01b03851691506372c6838f9060240160206040518083038186803b158015610f2457600080fd5b505afa158015610f38573d6000803e3d6000fd5b505050506040513d601f19601f82011682018060405250810190610f5c9190611cfe565b90506001600160a01b038116610f78576000602083015261102d565b6001600160a01b038181166060840181905283516040517f43a8a3f1000000000000000000000000000000000000000000000000000000008152928616600484015260248301526000918291906343a8a3f190604401604080518083038186803b158015610fe557600080fd5b505afa158015610ff9573d6000803e3d6000fd5b505050506040513d601f19601f8201168201806040525081019061101d9190611e26565b9015156020860152604085015250505b50919050565b60608161107357505060408051808201909152600181527f3000000000000000000000000000000000000000000000000000000000000000602082015290565b8160005b811561109d578061108781612136565b91506110969050600a836120db565b9150611077565b60008167ffffffffffffffff8111156110c657634e487b7160e01b600052604160045260246000fd5b6040519080825280601f01601f1916602001820160405280156110f0576020820181803683370190505b5090505b8415611181576111056001836120ef565b9150611112600a8661218f565b61111d9060306120c3565b60f81b81838151811061114057634e487b7160e01b600052603260045260246000fd5b60200101907effffffffffffffffffffffffffffffffffffffffffffffffffffffffffffff1916908160001a90535061117a600a866120db565b94506110f4565b949350505050565b600081516000141561119d57506000919050565b506020015190565b60006111b183836112d5565b9392505050565b610d64828233611324565b60006106fc825490565b600080826001600160a01b031663a6f636416040518163ffffffff1660e01b815260040160006040518083038186803b15801561120957600080fd5b505afa15801561121d573d6000803e3d6000fd5b505050506040513d6000823e601f3d908101601f191682016040526112459190810190611d45565b90506000805b82518160ff1610156112a95761128b85848360ff168151811061127e57634e487b7160e01b600052603260045260246000fd5b6020026020010151611432565b611295908361208f565b9150806112a18161216f565b91505061124b565b509392505050565b600081815260018301602052604081205415156111b1565b60006111b18383611a85565b600081815260018301602052604081205461131c575081546001818101845560008481526020808220909301849055845484825282860190935260409020919091556106fc565b5060006106fc565b8160200151156113da5781606001516001600160a01b0316635e5eb01384835a865161135091906120ef565b60408088015190517fffffffff0000000000000000000000000000000000000000000000000000000060e087901b1681526001600160a01b03948516600482015293909216602484015260448301526064820152608401600060405180830381600087803b1580156113c157600080fd5b505af11580156113d5573d6000803e3d6000fd5b505050505b826001600160a01b031663d4f7af436040518163ffffffff1660e01b8152600401600060405180830381600087803b15801561141557600080fd5b505af1158015611429573d6000803e3d6000fd5b50505050505050565b604051634941d71d60e11b81527feee23dc9ab95b6666db01c2b6cae6a5ef706099a25926e21e0a2e043fe885604600482015260009081906001600160a01b03851690639283ae3a9060240160206040518083038186803b15801561149657600080fd5b505afa1580156114aa573d6000803e3d6000fd5b505050506040513d601f19601f820116820180604052508101906114ce9190611ef0565b604051634941d71d60e11b81527fd093d4a34a12a221b19c0a6689d5449f1346aa769d15cca4e9782c36fda9339a60048201529091506000906001600160a01b03861690639283ae3a9060240160206040518083038186803b15801561153357600080fd5b505afa158015611547573d6000803e3d6000fd5b505050506040513d601f19601f8201168201806040525081019061156b9190611ef0565b6040516317ba7d8560e01b81527f8f5b4aabbdb8527d420a29cc90ae207773ad49b73c632c3cfd2f29eb8776f2ea60048201529091506000906001600160a01b038716906317ba7d859060240160206040518083038186803b1580156115d057600080fd5b505afa1580156115e4573d6000803e3d6000fd5b505050506040513d601f19601f820116820180604052508101906116089190611cfe565b6040517f593e96b60000000000000000000000000000000000000000000000000000000081527f3909e87234f428ccb8748126e2c93f66a62f92a70d315fa5803dec6362be07ab60048201529091506000906001600160a01b0388169063593e96b69060240160206040518083038186803b15801561168657600080fd5b505afa15801561169a573d6000803e3d6000fd5b505050506040513d601f19601f820116820180604052508101906116be9190611cfe565b6040517f70a0823100000000000000000000000000000000000000000000000000000000815261decd60048201526001600160a01b0391909116906370a082319060240160206040518083038186803b15801561171a57600080fd5b505afa15801561172e573d6000803e3d6000fd5b505050506040513d601f19601f820116820180604052508101906117529190611ef0565b111580156117ed57506040517fa230c5240000000000000000000000000000000000000000000000000000000081526001600160a01b03868116600483015287169063a230c5249060240160206040518083038186803b1580156117b557600080fd5b505afa1580156117c9573d6000803e3d6000fd5b505050506040513d601f19601f820116820180604052508101906117ed9190611e0c565b156117fe57600193505050506106fc565b816001141561191b576000836118ab57604051633de222bb60e21b81526001600160a01b0388811660048301528781166024830152670de0b6b3a7640000919084169063f7888aec9060440160206040518083038186803b15801561186257600080fd5b505afa158015611876573d6000803e3d6000fd5b505050506040513d601f19601f8201168201806040525081019061189a9190611ef0565b6118a491906120db565b90506118b8565b60009450505050506106fc565b600081116118cd5760009450505050506106fc565b677fffffffffffffff81106118e95760329450505050506106fc565b60006119046118ff6118fa84611ba2565b611bc0565b611cc2565b67ffffffffffffffff1695506106fc945050505050565b81600214156119d0576000836118ab57604051633de222bb60e21b81526001600160a01b03888116600483015287811660248301526000919084169063f7888aec9060440160206040518083038186803b15801561197857600080fd5b505afa15801561198c573d6000803e3d6000fd5b505050506040513d601f19601f820116820180604052508101906119b09190611ef0565b116119bc5760006119bf565b60015b60ff1690505b93506106fc92505050565b81611a79576000836118ab57604051633de222bb60e21b81526001600160a01b0388811660048301528781166024830152670de0b6b3a7640000919084169063f7888aec9060440160206040518083038186803b158015611a3057600080fd5b505afa158015611a44573d6000803e3d6000fd5b505050506040513d601f19601f82011682018060405250810190611a689190611ef0565b611a7291906120db565b90506119c5565b600093505050506106fc565b60008181526001830160205260408120548015611b98576000611aa96001836120ef565b8554909150600090611abd906001906120ef565b9050818114611b3e576000866000018281548110611aeb57634e487b7160e01b600052603260045260246000fd5b9060005260206000200154905080876000018481548110611b1c57634e487b7160e01b600052603260045260246000fd5b6000918252602080832090910192909255918252600188019052604090208390555b8554869080611b5d57634e487b7160e01b600052603160045260246000fd5b6001900381819060005260206000200160009055905585600101600086815260200190815260200160002060009055600193505050506106fc565b60009150506106fc565b6000677fffffffffffffff821115611bb957600080fd5b5060401b90565b60008082600f0b13611bd157600080fd5b6000600f83900b680100000000000000008112611bf0576040918201911d5b6401000000008112611c04576020918201911d5b620100008112611c16576010918201911d5b6101008112611c27576008918201911d5b60108112611c37576004918201911d5b60048112611c47576002918201911d5b60028112611c56576001820191505b7fffffffffffffffffffffffffffffffffffffffffffffffffffffffffffffffc0820160401b600f85900b607f8490031b6780000000000000005b6000811315611cb75790800260ff81901c8281029390930192607f011c9060011d611c91565b509095945050505050565b60008082600f0b1215611cd457600080fd5b50600f0b60401d90565b8051611ce9816121fb565b919050565b80518015158114611ce957600080fd5b600060208284031215611d0f578081fd5b81516111b1816121fb565b60008060408385031215611d2c578081fd5b8235611d37816121fb565b946020939093013593505050565b60006020808385031215611d57578182fd5b825167ffffffffffffffff80821115611d6e578384fd5b818501915085601f830112611d81578384fd5b815181811115611d9357611d936121e5565b8060051b604051601f19603f83011681018181108582111715611db857611db86121e5565b604052828152858101935084860182860187018a1015611dd6578788fd5b8795505b83861015611dff57611deb81611cde565b855260019590950194938601938601611dda565b5098975050505050505050565b600060208284031215611e1d578081fd5b6111b182611cee565b60008060408385031215611e38578182fd5b611e4183611cee565b9150602083015190509250929050565b600060208284031215611e62578081fd5b81356111b1816121fb565b60008060408385031215611e7f578182fd5b8235611e8a816121fb565b91506020830135611e9a816121fb565b809150509250929050565b60008060408385031215611d2c578182fd5b600080600060608486031215611ecb578081fd5b835160068110611ed9578182fd5b602085015160409095015190969495509392505050565b600060208284031215611f01578081fd5b5051919050565b60048110611f1857611f186121cf565b9052565b7fffffffffffffffff000000000000000000000000000000000000000000000000831681527f5365745269636552656365697665722300000000000000000000000000000000600882015260008251611f7c816018850160208701612106565b919091016018019392505050565b6001600160a01b03868116825285166020820152604081018490526060810183905260a08101611fbd6080830184611f08565b9695505050505050565b6001600160a01b03881681526020810187905260e08101611feb6040830188611f08565b6fffffffffffffffffffffffffffffffff861660608301528460808301528360a08301528260c083015298975050505050505050565b8281526040810160038310612038576120386121cf565b8260208301529392505050565b6001600160a01b03841681528260208201526060604082015260008251806060840152612079816080850160208701612106565b601f01601f191691909101608001949350505050565b60006fffffffffffffffffffffffffffffffff8083168185168083038211156120ba576120ba6121a3565b01949350505050565b600082198211156120d6576120d66121a3565b500190565b6000826120ea576120ea6121b9565b500490565b600082821015612101576121016121a3565b500390565b60005b83811015612121578181015183820152602001612109565b83811115612130576000848401525b50505050565b60007fffffffffffffffffffffffffffffffffffffffffffffffffffffffffffffffff821415612168576121686121a3565b5060010190565b600060ff821660ff811415612186576121866121a3565b60010192915050565b60008261219e5761219e6121b9565b500690565b634e487b7160e01b600052601160045260246000fd5b634e487b7160e01b600052601260045260246000fd5b634e487b7160e01b600052602160045260246000fd5b634e487b7160e01b600052604160045260246000fd5b6001600160a01b038116811461221057600080fd5b5056fea26469706673582212206514b4e6d97951b81bb0ed701ec66ec2a241b964b24d7f8386224a0ba20ca8f564736f6c63430008040033",
  "linkReferences": {},
  "deployedLinkReferences": {}
}