{
  "_format": "hh-sol-artifact-1",
  "contractName": "ColletiveGovernorManagementAdapterContract",
  "sourceName": "contracts/collective/adapters/CollectiveGovernorManagementAdapter.sol",
  "abi": [
    {
      "inputs": [],
      "name": "GRACE_PERIOD",
      "type": "error"
    },
    {
      "inputs": [],
      "name": "SUMMONOR_CANT_QUIT",
      "type": "error"
    },
    {
      "inputs": [],
      "name": "UNDONE_INVESTMET_PROPOSAL",
      "type": "error"
    },
    {
      "anonymous": false,
      "inputs": [
        {
          "indexed": false,
          "internalType": "address",
          "name": "daoAddr",
          "type": "address"
        },
        {
          "indexed": false,
          "internalType": "address",
          "name": "governor",
          "type": "address"
        }
      ],
      "name": "GovernorQuit",
      "type": "event"
    },
    {
      "anonymous": false,
      "inputs": [
        {
          "indexed": false,
          "internalType": "address",
          "name": "daoAddr",
          "type": "address"
        },
        {
          "indexed": false,
          "internalType": "bytes32",
          "name": "proposalId",
          "type": "bytes32"
        },
        {
          "indexed": false,
          "internalType": "address",
          "name": "account",
          "type": "address"
        },
        {
          "indexed": false,
          "internalType": "uint256",
          "name": "creationTime",
          "type": "uint256"
        },
        {
          "indexed": false,
          "internalType": "uint256",
          "name": "stopVoteTime",
          "type": "uint256"
        },
        {
          "indexed": false,
          "internalType": "enum ColletiveGovernorManagementAdapterContract.ProposalType",
          "name": "pType",
          "type": "uint8"
        }
      ],
      "name": "ProposalCreated",
      "type": "event"
    },
    {
      "anonymous": false,
      "inputs": [
        {
          "indexed": false,
          "internalType": "address",
          "name": "daoAddr",
          "type": "address"
        },
        {
          "indexed": false,
          "internalType": "bytes32",
          "name": "proposalId",
          "type": "bytes32"
        },
        {
          "indexed": false,
          "internalType": "enum ColletiveGovernorManagementAdapterContract.ProposalState",
          "name": "state",
          "type": "uint8"
        },
        {
          "indexed": false,
          "internalType": "uint128",
          "name": "allVotingWeight",
          "type": "uint128"
        },
        {
          "indexed": false,
          "internalType": "uint256",
          "name": "nbYes",
          "type": "uint256"
        },
        {
          "indexed": false,
          "internalType": "uint256",
          "name": "nbNo",
          "type": "uint256"
        },
        {
          "indexed": false,
          "internalType": "uint256",
          "name": "voteResult",
          "type": "uint256"
        }
      ],
      "name": "ProposalProcessed",
      "type": "event"
    },
    {
      "anonymous": false,
      "inputs": [
        {
          "indexed": false,
          "internalType": "address",
          "name": "daoAddr",
          "type": "address"
        },
        {
          "indexed": false,
          "internalType": "bytes32",
          "name": "proposalId",
          "type": "bytes32"
        },
        {
          "indexed": false,
          "internalType": "enum ColletiveGovernorManagementAdapterContract.ProposalState",
          "name": "state",
          "type": "uint8"
        },
        {
          "indexed": false,
          "internalType": "uint256",
          "name": "startVoteTime",
          "type": "uint256"
        },
        {
          "indexed": false,
          "internalType": "uint256",
          "name": "stopVoteTime",
          "type": "uint256"
        }
      ],
      "name": "StartVoting",
      "type": "event"
    },
    {
      "inputs": [
        {
          "internalType": "contract DaoRegistry",
          "name": "dao",
          "type": "address"
        }
      ],
      "name": "allDone",
      "outputs": [
        {
          "internalType": "bool",
          "name": "",
          "type": "bool"
        }
      ],
      "stateMutability": "view",
      "type": "function"
    },
    {
      "inputs": [
        {
          "internalType": "contract DaoRegistry",
          "name": "dao",
          "type": "address"
        }
      ],
      "name": "clearGovernorWhitelist",
      "outputs": [],
      "stateMutability": "nonpayable",
      "type": "function"
    },
    {
      "inputs": [
        {
          "internalType": "contract DaoRegistry",
          "name": "dao",
          "type": "address"
        }
      ],
      "name": "getAllGovernor",
      "outputs": [
        {
          "internalType": "address[]",
          "name": "",
          "type": "address[]"
        }
      ],
      "stateMutability": "view",
      "type": "function"
    },
    {
      "inputs": [
        {
          "internalType": "contract DaoRegistry",
          "name": "dao",
          "type": "address"
        }
      ],
      "name": "getGovernorAmount",
      "outputs": [
        {
          "internalType": "uint256",
          "name": "",
          "type": "uint256"
        }
      ],
      "stateMutability": "view",
      "type": "function"
    },
    {
      "inputs": [
        {
          "internalType": "address",
          "name": "daoAddr",
          "type": "address"
        }
      ],
      "name": "getGovernorWhitelist",
      "outputs": [
        {
          "internalType": "address[]",
          "name": "",
          "type": "address[]"
        }
      ],
      "stateMutability": "view",
      "type": "function"
    },
    {
      "inputs": [
        {
          "internalType": "contract DaoRegistry",
          "name": "dao",
          "type": "address"
        },
        {
          "internalType": "address",
          "name": "_addr",
          "type": "address"
        }
      ],
      "name": "isActiveMember",
      "outputs": [
        {
          "internalType": "bool",
          "name": "",
          "type": "bool"
        }
      ],
      "stateMutability": "view",
      "type": "function"
    },
    {
      "inputs": [
        {
          "internalType": "contract DaoRegistry",
          "name": "dao",
          "type": "address"
        },
        {
          "internalType": "address",
          "name": "account",
          "type": "address"
        }
      ],
      "name": "isGovernorWhiteList",
      "outputs": [
        {
          "internalType": "bool",
          "name": "",
          "type": "bool"
        }
      ],
      "stateMutability": "view",
      "type": "function"
    },
    {
      "inputs": [
        {
          "internalType": "contract DaoRegistry",
          "name": "dao",
          "type": "address"
        },
        {
          "internalType": "bytes32",
          "name": "proposalId",
          "type": "bytes32"
        }
      ],
      "name": "processProposal",
      "outputs": [],
      "stateMutability": "nonpayable",
      "type": "function"
    },
    {
      "inputs": [
        {
          "internalType": "contract DaoRegistry",
          "name": "",
          "type": "address"
        },
        {
          "internalType": "bytes32",
          "name": "",
          "type": "bytes32"
        }
      ],
      "name": "proposals",
      "outputs": [
        {
          "internalType": "bytes32",
          "name": "id",
          "type": "bytes32"
        },
        {
          "internalType": "address",
          "name": "account",
          "type": "address"
        },
        {
          "internalType": "address",
          "name": "tokenAddress",
          "type": "address"
        },
        {
          "internalType": "uint256",
          "name": "depositAmount",
          "type": "uint256"
        },
        {
          "internalType": "uint256",
          "name": "startVoteTime",
          "type": "uint256"
        },
        {
          "internalType": "uint256",
          "name": "stopVoteTime",
          "type": "uint256"
        },
        {
          "internalType": "enum ColletiveGovernorManagementAdapterContract.ProposalState",
          "name": "state",
          "type": "uint8"
        },
        {
          "internalType": "enum ColletiveGovernorManagementAdapterContract.ProposalType",
          "name": "pType",
          "type": "uint8"
        }
      ],
      "stateMutability": "view",
      "type": "function"
    },
    {
      "inputs": [
        {
          "internalType": "contract DaoRegistry",
          "name": "dao",
          "type": "address"
        }
      ],
      "name": "quit",
      "outputs": [],
      "stateMutability": "nonpayable",
      "type": "function"
    },
    {
      "inputs": [
        {
          "internalType": "contract DaoRegistry",
          "name": "dao",
          "type": "address"
        },
        {
          "internalType": "address",
          "name": "account",
          "type": "address"
        }
      ],
      "name": "registerGovernorWhiteList",
      "outputs": [],
      "stateMutability": "nonpayable",
      "type": "function"
    },
    {
      "inputs": [
        {
          "internalType": "contract DaoRegistry",
          "name": "dao",
          "type": "address"
        },
        {
          "internalType": "bytes32",
          "name": "proposalId",
          "type": "bytes32"
        }
      ],
      "name": "startVoting",
      "outputs": [
        {
          "internalType": "bool",
          "name": "",
          "type": "bool"
        }
      ],
      "stateMutability": "nonpayable",
      "type": "function"
    },
    {
      "inputs": [
        {
          "internalType": "contract DaoRegistry",
          "name": "dao",
          "type": "address"
        },
        {
          "internalType": "address",
          "name": "applicant",
          "type": "address"
        },
        {
          "internalType": "uint256",
          "name": "depositAmount",
          "type": "uint256"
        }
      ],
      "name": "submitGovernorInProposal",
      "outputs": [
        {
          "internalType": "bytes32",
          "name": "",
          "type": "bytes32"
        }
      ],
      "stateMutability": "nonpayable",
      "type": "function"
    },
    {
      "inputs": [
        {
          "internalType": "contract DaoRegistry",
          "name": "dao",
          "type": "address"
        },
        {
          "internalType": "address",
          "name": "applicant",
          "type": "address"
        }
      ],
      "name": "submitGovernorOutProposal",
      "outputs": [
        {
          "internalType": "bytes32",
          "name": "",
          "type": "bytes32"
        }
      ],
      "stateMutability": "nonpayable",
      "type": "function"
    }
  ],
  "bytecode": "0x608060405234801561001057600080fd5b5061468a806100206000396000f3fe608060405234801561001057600080fd5b50600436106100ea5760003560e01c80637bf8003c1161008c578063bda4f97711610066578063bda4f9771461024b578063d32b91dd1461025e578063dab12fee14610271578063fbb65b701461028457600080fd5b80637bf8003c146102125780638ecf7720146102255780639573167d1461023857600080fd5b80635cb75276116100c85780635cb752761461013d57806360c5c28f146101bc578063642fc0c0146101cf578063792c4106146101f257600080fd5b806322c5c2cc146100ef5780632d258e721461010457806333f7bc0c1461012a575b600080fd5b6101026100fd366004613fc5565b610297565b005b610117610112366004613fc5565b61046d565b6040519081526020015b60405180910390f35b610102610138366004614121565b61047e565b6101a861014b366004614199565b6000602081815292815260408082209093529081522080546001820154600283015460038401546004850154600586015460069096015494956001600160a01b039485169594909316939192909160ff8082169161010090041688565b60405161012198979695949392919061443f565b6101176101ca366004614121565b6105d0565b6101e26101dd366004613fc5565b610bce565b6040519015158152602001610121565b610205610200366004613fc5565b610c05565b60405161012191906143f2565b610117610220366004614159565b610c10565b6101e2610233366004614121565b611890565b610102610246366004614199565b611914565b610205610259366004613fc5565b612271565b61010261026c366004613fc5565b612295565b6101e261027f366004614121565b61274e565b6101e2610292366004614199565b612770565b6040516317ba7d8560e01b81527fdac6d9ce728ebc92a61253866b4e5a4c73b76ba0aa11e7297a633f6232f5423760048201526001600160a01b038216906317ba7d859060240160206040518083038186803b1580156102f657600080fd5b505afa15801561030a573d6000803e3d6000fd5b505050506040513d601f19601f8201168201806040525081019061032e9190613fe1565b6001600160a01b0316336001600160a01b0316146103935760405162461bcd60e51b815260206004820152600760248201527f216163636573730000000000000000000000000000000000000000000000000060448201526064015b60405180910390fd5b6001600160a01b03811660009081526001602052604081206103b490612bae565b516001600160a01b03831660009081526001602052604090209091506060906103dc90612bae565b905081156104685760005b828160ff16101561046657610453828260ff168151811061041857634e487b7160e01b600052603260045260246000fd5b602002602001015160016000876001600160a01b03166001600160a01b03168152602001908152602001600020612bbb90919063ffffffff16565b508061045e816145b0565b9150506103e7565b505b505050565b600061047882612bd0565b92915050565b6040516317ba7d8560e01b81527fdac6d9ce728ebc92a61253866b4e5a4c73b76ba0aa11e7297a633f6232f5423760048201526001600160a01b038316906317ba7d859060240160206040518083038186803b1580156104dd57600080fd5b505afa1580156104f1573d6000803e3d6000fd5b505050506040513d601f19601f820116820180604052508101906105159190613fe1565b6001600160a01b0316336001600160a01b03161480610538575061053882612dac565b6105845760405162461bcd60e51b815260206004820152600760248201527f2161636365737300000000000000000000000000000000000000000000000000604482015260640161038a565b6001600160a01b03821660009081526001602052604090206105a69082612fcc565b6105cc576001600160a01b03821660009081526001602052604090206104689082612fee565b5050565b6000826105dd8133613003565b8360006105e982613059565b60405163288c314960e21b81526001600160a01b0387811660048301529192509087169063a230c5249060240160206040518083038186803b15801561062e57600080fd5b505afa158015610642573d6000803e3d6000fd5b505050506040513d601f19601f8201168201806040525081019061066691906140c4565b6106b25760405162461bcd60e51b815260206004820152601760248201527f4170706c6963616e742049736e7420476f7665726e6f72000000000000000000604482015260640161038a565b6106bb86613324565b6107075760405162461bcd60e51b815260206004820152601660248201527f556e446f6e652044616f7365742050726f706f73616c00000000000000000000604482015260640161038a565b6040516317ba7d8560e01b81527f72894213a5c7f56b36b2947fa6ea18963d6bb1a68746b46d7f552cca76e1a7a860048201526000906001600160a01b038816906317ba7d859060240160206040518083038186803b15801561076957600080fd5b505afa15801561077d573d6000803e3d6000fd5b505050506040513d601f19601f820116820180604052508101906107a19190613fe1565b6040517f62e86df50000000000000000000000000000000000000000000000000000000081526001600160a01b0389811660048301529192506000918316906362e86df59060240160206040518083038186803b15801561080157600080fd5b505afa158015610815573d6000803e3d6000fd5b505050506040513d601f19601f820116820180604052508101906108399190614109565b14610870576040517fda21951f00000000000000000000000000000000000000000000000000000000815260040160405180910390fd5b866001600160a01b031663250a70b76040518163ffffffff1660e01b8152600401600060405180830381600087803b1580156108ab57600080fd5b505af11580156108bf573d6000803e3d6000fd5b50505050600061096a8860c01b6109458a6001600160a01b0316633ea34b866040518163ffffffff1660e01b815260040160206040518083038186803b15801561090857600080fd5b505afa15801561091c573d6000803e3d6000fd5b505050506040513d601f19601f820116820180604052508101906109409190614109565b61341e565b6040516020016109569291906142ae565b604051602081830303815290604052613574565b604051634941d71d60e11b81527f9876c0f0505bfb2b1c38d3bbd25ba13159172cd0868972d76927723f5a9480fc600482015290915042906000906001600160a01b038b1690639283ae3a9060240160206040518083038186803b1580156109d157600080fd5b505afa1580156109e5573d6000803e3d6000fd5b505050506040513d601f19601f82011682018060405250810190610a099190614109565b610a139083614508565b9050610a228a848b8585613590565b610a2c8a84613843565b6040516317ba7d8560e01b81527f907642cbfe4e58ddd14eaa320923fbe4c29721dd0950ae4cb3b2626e292791ae60048201526000906001600160a01b038c16906317ba7d859060240160206040518083038186803b158015610a8e57600080fd5b505afa158015610aa2573d6000803e3d6000fd5b505050506040513d601f19601f82011682018060405250810190610ac69190613fe1565b604080516020810182526000815290517f2b0974d00000000000000000000000000000000000000000000000000000000081529192506001600160a01b03831691632b0974d091610b1d918f9189916004016144be565b600060405180830381600087803b158015610b3757600080fd5b505af1158015610b4b573d6000803e3d6000fd5b5050506001600160a01b038c166000908152600260205260409020610b7191508561395f565b507ffea2665062ba82dc413c7c18c28f836789917497e349b8c156ebaaae175ddabf8b858c86866001604051610bac9695949392919061431c565b60405180910390a150919650505050610bc5828261396b565b50505092915050565b6001600160a01b03811660009081526002602052604081208190610bf190613976565b11610bfd576001610478565b600092915050565b606061047882613980565b6000836000610c1e82613059565b905085610c2b8133613003565b604051634941d71d60e11b81527f02049446ffbff09ad55d6fdb03c8c6027cf548332d30663e8fdf960abdab86ea6004820152879087906001600160a01b03831690639283ae3a9060240160206040518083038186803b158015610c8e57600080fd5b505afa158015610ca2573d6000803e3d6000fd5b505050506040513d601f19601f82011682018060405250810190610cc69190614109565b600114156113df57604051634941d71d60e11b81527f09f0ac4191623c4a1e481e66bb865f218d9f5bcef4e65b597583a054b10182bc60048201526000906001600160a01b03841690639283ae3a9060240160206040518083038186803b158015610d3057600080fd5b505afa158015610d44573d6000803e3d6000fd5b505050506040513d601f19601f82011682018060405250810190610d689190614109565b604051634941d71d60e11b81527f6bdd30ca7a0b5a78cdfd780fd2f234880048cafa893e9ccbc9f82df25cdc717f60048201529091506000906001600160a01b03851690639283ae3a9060240160206040518083038186803b158015610dcd57600080fd5b505afa158015610de1573d6000803e3d6000fd5b505050506040513d601f19601f82011682018060405250810190610e059190614109565b604051634941d71d60e11b81527f032de4639c5a8edd1ea478b1345b2d031f42ecd2b29442d3080c9ac0545b5f8e60048201529091506000906001600160a01b03861690639283ae3a9060240160206040518083038186803b158015610e6a57600080fd5b505afa158015610e7e573d6000803e3d6000fd5b505050506040513d601f19601f82011682018060405250810190610ea29190614109565b6040517ffd310d290000000000000000000000000000000000000000000000000000000081527f0567bf43e78d815625031c35adddd5d701cb6b913fbad3b625b4f8c00fdc42aa60048201529091506000906001600160a01b0387169063fd310d299060240160206040518083038186803b158015610f2057600080fd5b505afa158015610f34573d6000803e3d6000fd5b505050506040513d601f19601f82011682018060405250810190610f589190613fe1565b6040516317ba7d8560e01b81527f8f5b4aabbdb8527d420a29cc90ae207773ad49b73c632c3cfd2f29eb8776f2ea60048201529091506000906001600160a01b038816906317ba7d859060240160206040518083038186803b158015610fbd57600080fd5b505afa158015610fd1573d6000803e3d6000fd5b505050506040513d601f19601f82011682018060405250810190610ff59190613fe1565b905084611109576040517f70a082310000000000000000000000000000000000000000000000000000000081526001600160a01b0387811660048301528591908416906370a082319060240160206040518083038186803b15801561105957600080fd5b505afa15801561106d573d6000803e3d6000fd5b505050506040513d601f19601f820116820180604052508101906110919190614109565b10156111045760405162461bcd60e51b8152602060048201526024808201527f3c20657263323020746f6b656e206d696e20686f6c64696e672072657175697260448201527f6d656e7400000000000000000000000000000000000000000000000000000000606482015260840161038a565b6113d9565b846001141561121b576040517f70a082310000000000000000000000000000000000000000000000000000000081526001600160a01b0387811660048301528591908416906370a082319060240160206040518083038186803b15801561116f57600080fd5b505afa158015611183573d6000803e3d6000fd5b505050506040513d601f19601f820116820180604052508101906111a79190614109565b10156111045760405162461bcd60e51b815260206004820152602560248201527f3c2065726337323120746f6b656e206d696e20686f6c64696e6720726571756960448201527f726d656e74000000000000000000000000000000000000000000000000000000606482015260840161038a565b8460021415611332576040517efdd58e0000000000000000000000000000000000000000000000000000000081526001600160a01b0387811660048301526024820185905285919084169062fdd58e9060440160206040518083038186803b15801561128657600080fd5b505afa15801561129a573d6000803e3d6000fd5b505050506040513d601f19601f820116820180604052508101906112be9190614109565b10156111045760405162461bcd60e51b815260206004820152602660248201527f3c206572633131353520746f6b656e206d696e20686f6c64696e67207265717560448201527f69726d656e740000000000000000000000000000000000000000000000000000606482015260840161038a565b846003141561139157611345878761274e565b6111045760405162461bcd60e51b815260206004820152601960248201527f6e6f7420696e20676f7665726e6f722077686974656c69737400000000000000604482015260640161038a565b60405162461bcd60e51b815260206004820152601760248201527f696e76616c6964206d656d626572736869702074797065000000000000000000604482015260640161038a565b50505050505b6040805160608101825260008082526020820181905281830152905163288c314960e21b81526001600160a01b038a811660048301528b169063a230c5249060240160206040518083038186803b15801561143957600080fd5b505afa15801561144d573d6000803e3d6000fd5b505050506040513d601f19601f8201168201806040525081019061147191906140c4565b156114be5760405162461bcd60e51b815260206004820152601360248201527f497320476f7665726e6f7220616c726561647900000000000000000000000000604482015260640161038a565b6114c78a613324565b6115135760405162461bcd60e51b815260206004820152601660248201527f556e446f6e652044616f7365742050726f706f73616c00000000000000000000604482015260640161038a565b6040516317ba7d8560e01b81527f72894213a5c7f56b36b2947fa6ea18963d6bb1a68746b46d7f552cca76e1a7a860048201526000906001600160a01b038c16906317ba7d859060240160206040518083038186803b15801561157557600080fd5b505afa158015611589573d6000803e3d6000fd5b505050506040513d601f19601f820116820180604052508101906115ad9190613fe1565b6040517f62e86df50000000000000000000000000000000000000000000000000000000081526001600160a01b038d811660048301529192506000918316906362e86df59060240160206040518083038186803b15801561160d57600080fd5b505afa158015611621573d6000803e3d6000fd5b505050506040513d601f19601f820116820180604052508101906116459190614109565b1461167c576040517fda21951f00000000000000000000000000000000000000000000000000000000815260040160405180910390fd5b8a6001600160a01b031663ec56a1f26040518163ffffffff1660e01b8152600401600060405180830381600087803b1580156116b757600080fd5b505af11580156116cb573d6000803e3d6000fd5b505050506117238b60c01b6117128d6001600160a01b03166352c1d9016040518163ffffffff1660e01b815260040160206040518083038186803b15801561090857600080fd5b604051602001610956929190614240565b82526040517ffd310d290000000000000000000000000000000000000000000000000000000081527f7fa36390a0e9b8b8004035572fd8345b1128cea12d1763a1baf8fbd4fb7b202760048201526000906001600160a01b038d169063fd310d299060240160206040518083038186803b1580156117a057600080fd5b505afa1580156117b4573d6000803e3d6000fd5b505050506040513d601f19601f820116820180604052508101906117d89190613fe1565b90506117f58c84600001518d848e886020015189604001516139f7565b6118038c8460000151613843565b82516001600160a01b038d1660009081526002602052604090206118269161395f565b507ffea2665062ba82dc413c7c18c28f836789917497e349b8c156ebaaae175ddabf8c84600001518d86602001518760400151600060405161186d9695949392919061431c565b60405180910390a15050519550505050611887828261396b565b50509392505050565b60405163288c314960e21b81526001600160a01b0382811660048301526000919084169063a230c5249060240160206040518083038186803b1580156118d557600080fd5b505afa1580156118e9573d6000803e3d6000fd5b505050506040513d601f19601f8201168201806040525081019061190d91906140c4565b9392505050565b81600061192082613059565b6001600160a01b038516600090815260208181526040808320878452909152902080549192509084146119955760405162461bcd60e51b815260206004820152601760248201527f70726f706f73616c20646f6573206e6f74206578697374000000000000000000604482015260640161038a565b6040517ff941f6910000000000000000000000000000000000000000000000000000000081526001600160a01b0386169063f941f691906119dd90879060029060040161449a565b60206040518083038186803b1580156119f557600080fd5b505afa158015611a09573d6000803e3d6000fd5b505050506040513d601f19601f82011682018060405250810190611a2d91906140c4565b15611a7a5760405162461bcd60e51b815260206004820152601a60248201527f70726f706f73616c20616c72656164792070726f636573736564000000000000604482015260640161038a565b6040516317ba7d8560e01b81527f907642cbfe4e58ddd14eaa320923fbe4c29721dd0950ae4cb3b2626e292791ae60048201526000906001600160a01b038716906317ba7d859060240160206040518083038186803b158015611adc57600080fd5b505afa158015611af0573d6000803e3d6000fd5b505050506040513d601f19601f82011682018060405250810190611b149190613fe1565b90506001600160a01b038116611b6c5760405162461bcd60e51b815260206004820152601160248201527f61646170746572206e6f7420666f756e64000000000000000000000000000000604482015260640161038a565b6040517f76225e730000000000000000000000000000000000000000000000000000000081526001600160a01b0387811660048301526024820187905260009182918291908516906376225e7390604401606060405180830381600087803b158015611bd757600080fd5b505af1158015611beb573d6000803e3d6000fd5b505050506040513d601f19601f82011682018060405250810190611c0f91906141e3565b919450925090506000806040517f30490e91000000000000000000000000000000000000000000000000000000008152600481018b90529091506001600160a01b038b16906330490e9190602401600060405180830381600087803b158015611c7757600080fd5b505af1158015611c8b573d6000803e3d6000fd5b5060029250611c98915050565b846005811115611cb857634e487b7160e01b600052602160045260246000fd5b14156120d657600686018054600260ff1990911617908190556001808801546001600160a01b03169160009161010090910460ff1690811115611d0b57634e487b7160e01b600052602160045260246000fd5b1415611ede576040517fdc929f4a0000000000000000000000000000000000000000000000000000000081526001600160a01b0382811660048301528c169063dc929f4a90602401600060405180830381600087803b158015611d6d57600080fd5b505af1158015611d81573d6000803e3d6000fd5b50506040516317ba7d8560e01b81527f8f5b4aabbdb8527d420a29cc90ae207773ad49b73c632c3cfd2f29eb8776f2ea6004820152600092506001600160a01b038e1691506317ba7d859060240160206040518083038186803b158015611de757600080fd5b505afa158015611dfb573d6000803e3d6000fd5b505050506040513d601f19601f82011682018060405250810190611e1f9190613fe1565b9050806001600160a01b03166342bb30798d8a60020160009054906101000a90046001600160a01b03168b60010160009054906101000a90046001600160a01b03168c600301546040518563ffffffff1660e01b8152600401611eaa94939291906001600160a01b039485168152928416602084015292166040820152606081019190915260800190565b600060405180830381600087803b158015611ec457600080fd5b505af1158015611ed8573d6000803e3d6000fd5b50505050505b60016006880154610100900460ff166001811115611f0c57634e487b7160e01b600052602160045260246000fd5b14156120c1576040517f0b1ca49a0000000000000000000000000000000000000000000000000000000081526001600160a01b0382811660048301528c1690630b1ca49a90602401600060405180830381600087803b158015611f6e57600080fd5b505af1158015611f82573d6000803e3d6000fd5b50506040516317ba7d8560e01b81527f8f5b4aabbdb8527d420a29cc90ae207773ad49b73c632c3cfd2f29eb8776f2ea6004820152600092506001600160a01b038e1691506317ba7d859060240160206040518083038186803b158015611fe857600080fd5b505afa158015611ffc573d6000803e3d6000fd5b505050506040513d601f19601f820116820180604052508101906120209190613fe1565b6040517fa2d165d20000000000000000000000000000000000000000000000000000000081526001600160a01b038e811660048301523360248301529192509082169063a2d165d290604401602060405180830381600087803b15801561208657600080fd5b505af115801561209a573d6000803e3d6000fd5b505050506040513d601f19601f820116820180604052508101906120be91906140c4565b50505b5060068601805460ff191660031790556121aa565b60038460058111156120f857634e487b7160e01b600052602160045260246000fd5b14806121235750600184600581111561212157634e487b7160e01b600052602160045260246000fd5b145b1561213c5760068601805460ff191660041790556121aa565b60405162461bcd60e51b815260206004820152602260248201527f70726f706f73616c20686173206e6f74206265656e20766f746564206f6e207960448201527f6574000000000000000000000000000000000000000000000000000000000000606482015260840161038a565b6001600160a01b038a1660009081526002602052604090206121cc908a613cab565b156121f5576001600160a01b038a1660009081526002602052604090206121f3908a613cc3565b505b60068601547f7ab29e6deeb60f3b76461422909b7ae5bda1be890b270b70c56a32d54cd2a456908b908b9060ff168487878a600581111561224657634e487b7160e01b600052602160045260246000fd5b6040516122599796959493929190614361565b60405180910390a1505050505050610466828261396b565b6001600160a01b038116600090815260016020526040902060609061047890612bae565b806122a08133613003565b6001826001600160a01b031663c19d93fb6040518163ffffffff1660e01b815260040160206040518083038186803b1580156122db57600080fd5b505afa1580156122ef573d6000803e3d6000fd5b505050506040513d601f19601f8201168201806040525081019061231391906141c4565b600181111561233257634e487b7160e01b600052602160045260246000fd5b1415612696576040516317ba7d8560e01b81527f72894213a5c7f56b36b2947fa6ea18963d6bb1a68746b46d7f552cca76e1a7a860048201526000906001600160a01b038416906317ba7d859060240160206040518083038186803b15801561239a57600080fd5b505afa1580156123ae573d6000803e3d6000fd5b505050506040513d601f19601f820116820180604052508101906123d29190613fe1565b6040517f4fd194f60000000000000000000000000000000000000000000000000000000081526001600160a01b03858116600483015291925090821690634fd194f69060240160206040518083038186803b15801561243057600080fd5b505afa158015612444573d6000803e3d6000fd5b505050506040513d601f19601f8201168201806040525081019061246891906140c4565b61249e576040517fc1a287e200000000000000000000000000000000000000000000000000000000815260040160405180910390fd5b336001600160a01b0316836001600160a01b031663149acf9a6040518163ffffffff1660e01b815260040160206040518083038186803b1580156124e157600080fd5b505afa1580156124f5573d6000803e3d6000fd5b505050506040513d601f19601f820116820180604052508101906125199190613fe1565b6001600160a01b0316141561255a576040517f84287f8f00000000000000000000000000000000000000000000000000000000815260040160405180910390fd5b6040516317ba7d8560e01b81527f8f5b4aabbdb8527d420a29cc90ae207773ad49b73c632c3cfd2f29eb8776f2ea60048201526000906001600160a01b038516906317ba7d859060240160206040518083038186803b1580156125bc57600080fd5b505afa1580156125d0573d6000803e3d6000fd5b505050506040513d601f19601f820116820180604052508101906125f49190613fe1565b6040517fa2d165d20000000000000000000000000000000000000000000000000000000081526001600160a01b0386811660048301523360248301529192509082169063a2d165d290604401602060405180830381600087803b15801561265a57600080fd5b505af115801561266e573d6000803e3d6000fd5b505050506040513d601f19601f8201168201806040525081019061269291906140c4565b5050505b6040517f0b1ca49a0000000000000000000000000000000000000000000000000000000081523360048201526001600160a01b03831690630b1ca49a90602401600060405180830381600087803b1580156126f057600080fd5b505af1158015612704573d6000803e3d6000fd5b5050604080516001600160a01b03861681523360208201527f6d7e1cc2497d6dc5b776413f5494868312739c131140c4a3b9440610c098e90f935001905060405180910390a15050565b6001600160a01b038216600090815260016020526040812061190d9083612fcc565b6001600160a01b038216600090815260208181526040808320848452909152812081600682015460ff1660048111156127b957634e487b7160e01b600052602160045260246000fd5b146128065760405162461bcd60e51b815260206004820152600a60248201527f215375626d697474656400000000000000000000000000000000000000000000604482015260640161038a565b6003810154600282015460018301546040516317ba7d8560e01b81527f8f5b4aabbdb8527d420a29cc90ae207773ad49b73c632c3cfd2f29eb8776f2ea60048201526001600160a01b039283169263dd62ed3e92811691908916906317ba7d859060240160206040518083038186803b15801561288257600080fd5b505afa158015612896573d6000803e3d6000fd5b505050506040513d601f19601f820116820180604052508101906128ba9190613fe1565b6040517fffffffff0000000000000000000000000000000000000000000000000000000060e085901b1681526001600160a01b0392831660048201529116602482015260440160206040518083038186803b15801561291857600080fd5b505afa15801561292c573d6000803e3d6000fd5b505050506040513d601f19601f820116820180604052508101906129509190614109565b101561296c57600601805460ff19166004179055506000610478565b6040516317ba7d8560e01b81527f907642cbfe4e58ddd14eaa320923fbe4c29721dd0950ae4cb3b2626e292791ae60048201526000906001600160a01b038616906317ba7d859060240160206040518083038186803b1580156129ce57600080fd5b505afa1580156129e2573d6000803e3d6000fd5b505050506040513d601f19601f82011682018060405250810190612a069190613fe1565b604080516020810182526000815290517f2b0974d00000000000000000000000000000000000000000000000000000000081529192506001600160a01b03831691632b0974d091612a5d91899189916004016144be565b600060405180830381600087803b158015612a7757600080fd5b505af1158015612a8b573d6000803e3d6000fd5b5050505060068201805460ff1916600117905542600480840191909155604051634941d71d60e11b81527f9876c0f0505bfb2b1c38d3bbd25ba13159172cd0868972d76927723f5a9480fc918101919091526001600160a01b03861690639283ae3a9060240160206040518083038186803b158015612b0957600080fd5b505afa158015612b1d573d6000803e3d6000fd5b505050506040513d601f19601f82011682018060405250810190612b419190614109565b8260040154612b509190614508565b60058301819055600683015460048401546040517ff5ff14337f1c8865ea504525020833044e927a5ff7d30ef2b4eec61f8bf1db9b93612b9b938a938a9360ff9092169290916143bb565b60405180910390a1506001949350505050565b6060600061190d83613ccf565b600061190d836001600160a01b038416613d2b565b600080826001600160a01b031663c67143666040518163ffffffff1660e01b815260040160206040518083038186803b158015612c0c57600080fd5b505afa158015612c20573d6000803e3d6000fd5b505050506040513d601f19601f82011682018060405250810190612c449190614109565b90506000805b828160ff161015612da4576040517f9029444a00000000000000000000000000000000000000000000000000000000815260ff821660048201526001600160a01b0386169063a230c524908290639029444a9060240160206040518083038186803b158015612cb857600080fd5b505afa158015612ccc573d6000803e3d6000fd5b505050506040513d601f19601f82011682018060405250810190612cf09190613fe1565b6040517fffffffff0000000000000000000000000000000000000000000000000000000060e084901b1681526001600160a01b03909116600482015260240160206040518083038186803b158015612d4757600080fd5b505afa158015612d5b573d6000803e3d6000fd5b505050506040513d601f19601f82011682018060405250810190612d7f91906140c4565b15612d9257612d8f600183614508565b91505b80612d9c816145b0565b915050612c4a565b509392505050565b600080826001600160a01b031663c19d93fb6040518163ffffffff1660e01b815260040160206040518083038186803b158015612de857600080fd5b505afa158015612dfc573d6000803e3d6000fd5b505050506040513d601f19601f82011682018060405250810190612e2091906141c4565b6001811115612e3f57634e487b7160e01b600052602160045260246000fd5b1480156104785750816001600160a01b031663c67143666040518163ffffffff1660e01b815260040160206040518083038186803b158015612e8057600080fd5b505afa158015612e94573d6000803e3d6000fd5b505050506040513d601f19601f82011682018060405250810190612eb89190614109565b1580612f36575060405163288c314960e21b81523360048201526001600160a01b0383169063a230c5249060240160206040518083038186803b158015612efe57600080fd5b505afa158015612f12573d6000803e3d6000fd5b505050506040513d601f19601f82011682018060405250810190612f3691906140c4565b8061047857506040517f68c18beb0000000000000000000000000000000000000000000000000000000081523360048201526001600160a01b038316906368c18beb9060240160206040518083038186803b158015612f9457600080fd5b505afa158015612fa8573d6000803e3d6000fd5b505050506040513d601f19601f8201168201806040525081019061047891906140c4565b6001600160a01b0381166000908152600183016020526040812054151561190d565b600061190d836001600160a01b038416613e48565b61300d8282611890565b6105cc5760405162461bcd60e51b815260206004820152600c60248201527f6f6e6c79476f7665726e6f720000000000000000000000000000000000000000604482015260640161038a565b6040805160808101825260008082526020820181905291810182905260608101919091525a81600001818152505043826001600160a01b031663b21634826040518163ffffffff1660e01b815260040160206040518083038186803b1580156130c157600080fd5b505afa1580156130d5573d6000803e3d6000fd5b505050506040513d601f19601f820116820180604052508101906130f99190614109565b14156131475760405162461bcd60e51b815260206004820152601060248201527f7265656e7472616e637920677561726400000000000000000000000000000000604482015260640161038a565b816001600160a01b03166310fdb0a26040518163ffffffff1660e01b8152600401600060405180830381600087803b15801561318257600080fd5b505af1158015613196573d6000803e3d6000fd5b50506040517f72c6838f0000000000000000000000000000000000000000000000000000000081527f1f2fd42ad6a6cacd573c4b212beb7a4e2499ad45d742a65337097f130e71daff6004820152600092506001600160a01b03851691506372c6838f9060240160206040518083038186803b15801561321557600080fd5b505afa158015613229573d6000803e3d6000fd5b505050506040513d601f19601f8201168201806040525081019061324d9190613fe1565b90506001600160a01b038116613269576000602083015261331e565b6001600160a01b038181166060840181905283516040517f43a8a3f1000000000000000000000000000000000000000000000000000000008152928616600484015260248301526000918291906343a8a3f190604401604080518083038186803b1580156132d657600080fd5b505afa1580156132ea573d6000803e3d6000fd5b505050506040513d601f19601f8201168201806040525081019061330e91906140de565b9015156020860152604085015250505b50919050565b6040516317ba7d8560e01b81527fdac6d9ce728ebc92a61253866b4e5a4c73b76ba0aa11e7297a633f6232f54237600482015260009081906001600160a01b038416906317ba7d859060240160206040518083038186803b15801561338857600080fd5b505afa15801561339c573d6000803e3d6000fd5b505050506040513d601f19601f820116820180604052508101906133c09190613fe1565b6040517f9a0242fc0000000000000000000000000000000000000000000000000000000081526001600160a01b03858116600483015291925090821690639a0242fc9060240160206040518083038186803b1580156118d557600080fd5b60608161345e57505060408051808201909152600181527f3000000000000000000000000000000000000000000000000000000000000000602082015290565b8160005b8115613488578061347281614577565b91506134819050600a83614520565b9150613462565b60008167ffffffffffffffff8111156134b157634e487b7160e01b600052604160045260246000fd5b6040519080825280601f01601f1916602001820160405280156134db576020820181803683370190505b5090505b841561356c576134f0600183614534565b91506134fd600a866145d0565b613508906030614508565b60f81b81838151811061352b57634e487b7160e01b600052603260045260246000fd5b60200101907effffffffffffffffffffffffffffffffffffffffffffffffffffffffffffff1916908160001a905350613565600a86614520565b94506134df565b949350505050565b600081516000141561358857506000919050565b506020015190565b60405163288c314960e21b81526001600160a01b03848116600483015286169063a230c5249060240160206040518083038186803b1580156135d157600080fd5b505afa1580156135e5573d6000803e3d6000fd5b505050506040513d601f19601f8201168201806040525081019061360991906140c4565b6136555760405162461bcd60e51b815260206004820152600d60248201527f69736e7420676f7665726e6f7200000000000000000000000000000000000000604482015260640161038a565b604051806101000160405280858152602001846001600160a01b0316815260200160006001600160a01b0316815260200160008152602001838152602001828152602001600160048111156136ba57634e487b7160e01b600052602160045260246000fd5b8152602001600190526001600160a01b038087166000908152602081815260408083208984528252918290208451815590840151600180830180549286167fffffffffffffffffffffffff0000000000000000000000000000000000000000938416179055928501516002830180549190951691161790925560608301516003830155608083015160048084019190915560a0840151600584015560c08401516006840180549193909260ff1990921691849081111561378a57634e487b7160e01b600052602160045260246000fd5b021790555060e082015160068201805461ff0019166101008360018111156137c257634e487b7160e01b600052602160045260246000fd5b0217905550506040517fb73dc389000000000000000000000000000000000000000000000000000000008152600481018690526001600160a01b038716915063b73dc38990602401600060405180830381600087803b15801561382457600080fd5b505af1158015613838573d6000803e3d6000fd5b505050505050505050565b6040516317ba7d8560e01b81527f907642cbfe4e58ddd14eaa320923fbe4c29721dd0950ae4cb3b2626e292791ae60048201526001600160a01b0383169063815a2bf490839083906317ba7d859060240160206040518083038186803b1580156138ac57600080fd5b505afa1580156138c0573d6000803e3d6000fd5b505050506040513d601f19601f820116820180604052508101906138e49190613fe1565b6040517fffffffff0000000000000000000000000000000000000000000000000000000060e085901b16815260048101929092526001600160a01b03166024820152604401600060405180830381600087803b15801561394357600080fd5b505af1158015613957573d6000803e3d6000fd5b505050505050565b600061190d8383613e48565b6105cc828233613e97565b6000610478825490565b6060816001600160a01b031663a6f636416040518163ffffffff1660e01b815260040160006040518083038186803b1580156139bb57600080fd5b505afa1580156139cf573d6000803e3d6000fd5b505050506040513d6000823e601f3d908101601f191682016040526104789190810190613ffd565b60405163288c314960e21b81526001600160a01b03868116600483015288169063a230c5249060240160206040518083038186803b158015613a3857600080fd5b505afa158015613a4c573d6000803e3d6000fd5b505050506040513d601f19601f82011682018060405250810190613a7091906140c4565b15613abd5760405162461bcd60e51b815260206004820152601060248201527f676f7665726e6f72206578697374656400000000000000000000000000000000604482015260640161038a565b604051806101000160405280878152602001866001600160a01b03168152602001856001600160a01b0316815260200184815260200183815260200182815260200160006004811115613b2057634e487b7160e01b600052602160045260246000fd5b8152602001600090526001600160a01b038089166000908152602081815260408083208b84528252918290208451815590840151600180830180549286167fffffffffffffffffffffffff0000000000000000000000000000000000000000938416179055928501516002830180549190951691161790925560608301516003830155608083015160048084019190915560a0840151600584015560c08401516006840180549193909260ff19909216918490811115613bf057634e487b7160e01b600052602160045260246000fd5b021790555060e082015160068201805461ff001916610100836001811115613c2857634e487b7160e01b600052602160045260246000fd5b0217905550506040517fb73dc389000000000000000000000000000000000000000000000000000000008152600481018890526001600160a01b038916915063b73dc38990602401600060405180830381600087803b158015613c8a57600080fd5b505af1158015613c9e573d6000803e3d6000fd5b5050505050505050505050565b6000818152600183016020526040812054151561190d565b600061190d8383613d2b565b606081600001805480602002602001604051908101604052809291908181526020018280548015613d1f57602002820191906000526020600020905b815481526020019060010190808311613d0b575b50505050509050919050565b60008181526001830160205260408120548015613e3e576000613d4f600183614534565b8554909150600090613d6390600190614534565b9050818114613de4576000866000018281548110613d9157634e487b7160e01b600052603260045260246000fd5b9060005260206000200154905080876000018481548110613dc257634e487b7160e01b600052603260045260246000fd5b6000918252602080832090910192909255918252600188019052604090208390555b8554869080613e0357634e487b7160e01b600052603160045260246000fd5b600190038181906000526020600020016000905590558560010160008681526020019081526020016000206000905560019350505050610478565b6000915050610478565b6000818152600183016020526040812054613e8f57508154600181810184556000848152602080822090930184905584548482528286019093526040902091909155610478565b506000610478565b816020015115613f4d5781606001516001600160a01b0316635e5eb01384835a8651613ec39190614534565b60408088015190517fffffffff0000000000000000000000000000000000000000000000000000000060e087901b1681526001600160a01b03948516600482015293909216602484015260448301526064820152608401600060405180830381600087803b158015613f3457600080fd5b505af1158015613f48573d6000803e3d6000fd5b505050505b826001600160a01b031663d4f7af436040518163ffffffff1660e01b8152600401600060405180830381600087803b158015613f8857600080fd5b505af1158015613f9c573d6000803e3d6000fd5b50505050505050565b8051613fb08161463c565b919050565b80518015158114613fb057600080fd5b600060208284031215613fd6578081fd5b813561190d8161463c565b600060208284031215613ff2578081fd5b815161190d8161463c565b6000602080838503121561400f578182fd5b825167ffffffffffffffff80821115614026578384fd5b818501915085601f830112614039578384fd5b81518181111561404b5761404b614626565b8060051b604051601f19603f8301168101818110858211171561407057614070614626565b604052828152858101935084860182860187018a101561408e578788fd5b8795505b838610156140b7576140a381613fa5565b855260019590950194938601938601614092565b5098975050505050505050565b6000602082840312156140d5578081fd5b61190d82613fb5565b600080604083850312156140f0578081fd5b6140f983613fb5565b9150602083015190509250929050565b60006020828403121561411a578081fd5b5051919050565b60008060408385031215614133578182fd5b823561413e8161463c565b9150602083013561414e8161463c565b809150509250929050565b60008060006060848603121561416d578081fd5b83356141788161463c565b925060208401356141888161463c565b929592945050506040919091013590565b600080604083850312156141ab578182fd5b82356141b68161463c565b946020939093013593505050565b6000602082840312156141d5578081fd5b81516002811061190d578182fd5b6000806000606084860312156141f7578283fd5b835160068110614205578384fd5b602085015160409095015190969495509392505050565b6005811061422c5761422c614610565b9052565b6002811061422c5761422c614610565b7fffffffffffffffff000000000000000000000000000000000000000000000000831681527f476f7665726e6f722d496e2300000000000000000000000000000000000000006008820152600082516142a081601485016020870161454b565b919091016014019392505050565b7fffffffffffffffff000000000000000000000000000000000000000000000000831681527f476f7665726e6f722d4f7574230000000000000000000000000000000000000060088201526000825161430e81601585016020870161454b565b919091016015019392505050565b6001600160a01b0387811682526020820187905285166040820152606081018490526080810183905260c0810161435660a0830184614230565b979650505050505050565b6001600160a01b03881681526020810187905260e08101614385604083018861421c565b6fffffffffffffffffffffffffffffffff861660608301528460808301528360a08301528260c083015298975050505050505050565b6001600160a01b03861681526020810185905260a081016143df604083018661421c565b6060820193909352608001529392505050565b6020808252825182820181905260009190848201906040850190845b818110156144335783516001600160a01b03168352928401929184019160010161440e565b50909695505050505050565b8881526001600160a01b03888116602083015287166040820152606081018690526080810185905260a08101849052610100810161448060c083018561421c565b61448d60e0830184614230565b9998505050505050505050565b82815260408101600383106144b1576144b1614610565b8260208301529392505050565b6001600160a01b038416815282602082015260606040820152600082518060608401526144f281608085016020870161454b565b601f01601f191691909101608001949350505050565b6000821982111561451b5761451b6145e4565b500190565b60008261452f5761452f6145fa565b500490565b600082821015614546576145466145e4565b500390565b60005b8381101561456657818101518382015260200161454e565b838111156104665750506000910152565b60007fffffffffffffffffffffffffffffffffffffffffffffffffffffffffffffffff8214156145a9576145a96145e4565b5060010190565b600060ff821660ff8114156145c7576145c76145e4565b60010192915050565b6000826145df576145df6145fa565b500690565b634e487b7160e01b600052601160045260246000fd5b634e487b7160e01b600052601260045260246000fd5b634e487b7160e01b600052602160045260246000fd5b634e487b7160e01b600052604160045260246000fd5b6001600160a01b038116811461465157600080fd5b5056fea2646970667358221220e1458b7d5818af0105249e1933b92271c340d8a02a5272ca50750120b682856364736f6c63430008040033",
  "linkReferences": {},
  "deployedLinkReferences": {}
}