{
  "_format": "hh-sol-artifact-1",
  "contractName": "ColletiveFundRaiseProposalAdapterContract",
  "sourceName": "contracts/collective/adapters/CollectiveFundRaiseProposalAdapter.sol",
  "abi": [
    {
      "inputs": [],
      "name": "INVALID_PARAM",
      "type": "error"
    },
    {
      "inputs": [],
      "name": "LAST_NEW_FUND_PROPOSAL_NOT_FINISH",
      "type": "error"
    },
    {
      "inputs": [],
      "name": "UNEXECUTE",
      "type": "error"
    },
    {
      "inputs": [],
      "name": "VOTING_NOT_FINISH",
      "type": "error"
    },
    {
      "anonymous": false,
      "inputs": [
        {
          "indexed": false,
          "internalType": "address",
          "name": "daoAddr",
          "type": "address"
        },
        {
          "indexed": false,
          "internalType": "bytes32",
          "name": "proposalId",
          "type": "bytes32"
        }
      ],
      "name": "ProposalCreated",
      "type": "event"
    },
    {
      "anonymous": false,
      "inputs": [
        {
          "indexed": false,
          "internalType": "address",
          "name": "daoAddr",
          "type": "address"
        },
        {
          "indexed": false,
          "internalType": "bytes32",
          "name": "proposalId",
          "type": "bytes32"
        },
        {
          "indexed": false,
          "internalType": "enum ICollectiveFundRaise.ProposalState",
          "name": "state",
          "type": "uint8"
        },
        {
          "indexed": false,
          "internalType": "uint256",
          "name": "allVotingWeight",
          "type": "uint256"
        },
        {
          "indexed": false,
          "internalType": "uint256",
          "name": "nbYes",
          "type": "uint256"
        },
        {
          "indexed": false,
          "internalType": "uint256",
          "name": "nbNo",
          "type": "uint256"
        },
        {
          "indexed": false,
          "internalType": "uint256",
          "name": "voteResult",
          "type": "uint256"
        }
      ],
      "name": "proposalExecuted",
      "type": "event"
    },
    {
      "inputs": [
        {
          "internalType": "contract DaoRegistry",
          "name": "dao",
          "type": "address"
        }
      ],
      "name": "allDone",
      "outputs": [
        {
          "internalType": "bool",
          "name": "",
          "type": "bool"
        }
      ],
      "stateMutability": "view",
      "type": "function"
    },
    {
      "inputs": [
        {
          "internalType": "contract DaoRegistry",
          "name": "dao",
          "type": "address"
        },
        {
          "internalType": "bytes32",
          "name": "proposalId",
          "type": "bytes32"
        }
      ],
      "name": "getPriorityDepositeWhiteList",
      "outputs": [
        {
          "internalType": "address[]",
          "name": "",
          "type": "address[]"
        }
      ],
      "stateMutability": "view",
      "type": "function"
    },
    {
      "inputs": [
        {
          "internalType": "contract DaoRegistry",
          "name": "dao",
          "type": "address"
        },
        {
          "internalType": "address",
          "name": "_addr",
          "type": "address"
        }
      ],
      "name": "isActiveMember",
      "outputs": [
        {
          "internalType": "bool",
          "name": "",
          "type": "bool"
        }
      ],
      "stateMutability": "view",
      "type": "function"
    },
    {
      "inputs": [
        {
          "internalType": "contract DaoRegistry",
          "name": "dao",
          "type": "address"
        },
        {
          "internalType": "bytes32",
          "name": "proposalId",
          "type": "bytes32"
        },
        {
          "internalType": "address",
          "name": "account",
          "type": "address"
        }
      ],
      "name": "isPriorityDepositer",
      "outputs": [
        {
          "internalType": "bool",
          "name": "",
          "type": "bool"
        }
      ],
      "stateMutability": "view",
      "type": "function"
    },
    {
      "inputs": [
        {
          "internalType": "address",
          "name": "",
          "type": "address"
        }
      ],
      "name": "lastProposalIds",
      "outputs": [
        {
          "internalType": "bytes32",
          "name": "",
          "type": "bytes32"
        }
      ],
      "stateMutability": "view",
      "type": "function"
    },
    {
      "inputs": [
        {
          "internalType": "contract DaoRegistry",
          "name": "dao",
          "type": "address"
        },
        {
          "internalType": "bytes32",
          "name": "proposalId",
          "type": "bytes32"
        }
      ],
      "name": "processProposal",
      "outputs": [],
      "stateMutability": "nonpayable",
      "type": "function"
    },
    {
      "inputs": [
        {
          "internalType": "contract DaoRegistry",
          "name": "",
          "type": "address"
        },
        {
          "internalType": "bytes32",
          "name": "",
          "type": "bytes32"
        }
      ],
      "name": "proposals",
      "outputs": [
        {
          "components": [
            {
              "internalType": "uint256",
              "name": "startTime",
              "type": "uint256"
            },
            {
              "internalType": "uint256",
              "name": "endTime",
              "type": "uint256"
            }
          ],
          "internalType": "struct ICollectiveFundRaise.FundRaiseTimeInfo",
          "name": "timeInfo",
          "type": "tuple"
        },
        {
          "components": [
            {
              "internalType": "address",
              "name": "tokenAddress",
              "type": "address"
            },
            {
              "internalType": "uint256",
              "name": "miniTarget",
              "type": "uint256"
            },
            {
              "internalType": "uint256",
              "name": "maxCap",
              "type": "uint256"
            },
            {
              "internalType": "uint256",
              "name": "miniDeposit",
              "type": "uint256"
            },
            {
              "internalType": "uint256",
              "name": "maxDeposit",
              "type": "uint256"
            }
          ],
          "internalType": "struct ICollectiveFundRaise.FundInfo",
          "name": "fundInfo",
          "type": "tuple"
        },
        {
          "components": [
            {
              "internalType": "bool",
              "name": "enable",
              "type": "bool"
            },
            {
              "internalType": "uint8",
              "name": "valifyType",
              "type": "uint8"
            },
            {
              "internalType": "address",
              "name": "tokenAddress",
              "type": "address"
            },
            {
              "internalType": "uint256",
              "name": "tokenId",
              "type": "uint256"
            },
            {
              "internalType": "uint256",
              "name": "miniHolding",
              "type": "uint256"
            },
            {
              "internalType": "address[]",
              "name": "whitelist",
              "type": "address[]"
            }
          ],
          "internalType": "struct ICollectiveFundRaise.PriorityDepositorInfo",
          "name": "priorityDepositor",
          "type": "tuple"
        },
        {
          "internalType": "uint8",
          "name": "fundRaiseType",
          "type": "uint8"
        },
        {
          "internalType": "enum ICollectiveFundRaise.ProposalState",
          "name": "state",
          "type": "uint8"
        },
        {
          "internalType": "uint256",
          "name": "creationTime",
          "type": "uint256"
        },
        {
          "internalType": "uint256",
          "name": "stopVoteTime",
          "type": "uint256"
        }
      ],
      "stateMutability": "view",
      "type": "function"
    },
    {
      "inputs": [
        {
          "components": [
            {
              "internalType": "contract DaoRegistry",
              "name": "dao",
              "type": "address"
            },
            {
              "internalType": "uint8",
              "name": "fundRaiseType",
              "type": "uint8"
            },
            {
              "components": [
                {
                  "internalType": "address",
                  "name": "tokenAddress",
                  "type": "address"
                },
                {
                  "internalType": "uint256",
                  "name": "miniTarget",
                  "type": "uint256"
                },
                {
                  "internalType": "uint256",
                  "name": "maxCap",
                  "type": "uint256"
                },
                {
                  "internalType": "uint256",
                  "name": "miniDeposit",
                  "type": "uint256"
                },
                {
                  "internalType": "uint256",
                  "name": "maxDeposit",
                  "type": "uint256"
                }
              ],
              "internalType": "struct ICollectiveFundRaise.FundInfo",
              "name": "fundInfo",
              "type": "tuple"
            },
            {
              "components": [
                {
                  "internalType": "uint256",
                  "name": "startTime",
                  "type": "uint256"
                },
                {
                  "internalType": "uint256",
                  "name": "endTime",
                  "type": "uint256"
                }
              ],
              "internalType": "struct ICollectiveFundRaise.FundRaiseTimeInfo",
              "name": "timeInfo",
              "type": "tuple"
            },
            {
              "components": [
                {
                  "internalType": "bool",
                  "name": "enable",
                  "type": "bool"
                },
                {
                  "internalType": "uint8",
                  "name": "valifyType",
                  "type": "uint8"
                },
                {
                  "internalType": "address",
                  "name": "tokenAddress",
                  "type": "address"
                },
                {
                  "internalType": "uint256",
                  "name": "tokenId",
                  "type": "uint256"
                },
                {
                  "internalType": "uint256",
                  "name": "miniHolding",
                  "type": "uint256"
                },
                {
                  "internalType": "address[]",
                  "name": "whitelist",
                  "type": "address[]"
                }
              ],
              "internalType": "struct ICollectiveFundRaise.PriorityDepositorInfo",
              "name": "priorityDepositor",
              "type": "tuple"
            }
          ],
          "internalType": "struct ICollectiveFundRaise.ProposalParams",
          "name": "params",
          "type": "tuple"
        }
      ],
      "name": "submitProposal",
      "outputs": [
        {
          "internalType": "bool",
          "name": "",
          "type": "bool"
        }
      ],
      "stateMutability": "nonpayable",
      "type": "function"
    }
  ],
  "bytecode": "0x608060405234801561001057600080fd5b50614387806100206000396000f3fe608060405234801561001057600080fd5b50600436106100885760003560e01c80636d3cc0401161005b5780636d3cc040146101295780638ecf77201461013c5780639573167d1461014f578063baf175bc1461016457600080fd5b806301c22a3d1461008d578063315b39eb146100c05780635cb75276146100e0578063642fc0c014610106575b600080fd5b6100ad61009b366004613be9565b60036020526000908152604090205481565b6040519081526020015b60405180910390f35b6100d36100ce366004613d9d565b610177565b6040516100b7919061403d565b6100f36100ee366004613d9d565b6101ad565b6040516100b7979695949392919061409a565b610119610114366004613be9565b6102f2565b60405190151581526020016100b7565b610119610137366004613dc8565b610329565b61011961014a366004613d65565b6108d9565b61016261015d366004613d9d565b61096f565b005b610119610172366004613e61565b61109c565b6001600160a01b03821660009081526020818152604080832084845290915290206060906101a49061234a565b90505b92915050565b600160208181526000938452604080852082529284529282902082518084018452815481529181015482850152825160a0808201855260028301546001600160a01b03908116835260038401548388015260048401548387015260058401546060808501919091526006850154608080860191909152875160c08101895260078701805460ff80821615158452610100820416838d0152620100009004909416818a0152600887015492810192909252600986015490820152600a850180548851818b0281018b0190995280895296989497959691959294938601939091908301828280156102c557602002820191906000526020600020905b81546001600160a01b031681526001909101906020018083116102a7575b50505091909252505050600b820154600c830154600d90930154919260ff80831693610100909304169187565b6001600160a01b0381166000908152600260205260408120819061031590612357565b116103215760016101a7565b600092915050565b604051634941d71d60e11b81527f87f768842f3bb4c7742d189f32b11c2bf0d7f4a6bad0b4b7a45937b15319e9fb60048201526000906001600160a01b03851690639283ae3a9060240160206040518083038186803b15801561038b57600080fd5b505afa15801561039f573d6000803e3d6000fd5b505050506040513d601f19601f820116820180604052508101906103c39190613d4d565b600114156108ce57604051634941d71d60e11b81527f5cd8f6e95e052e3c0e0cc859654925ecc6c0d54b86a47d5ab47f1e8fc71daad960048201526000906001600160a01b03861690639283ae3a9060240160206040518083038186803b15801561042d57600080fd5b505afa158015610441573d6000803e3d6000fd5b505050506040513d601f19601f820116820180604052508101906104659190613d4d565b6040517ffd310d290000000000000000000000000000000000000000000000000000000081527f6468a9b13d5f0011479da2d9211ad507a42070e4a58df895adf3136147416db260048201529091506000906001600160a01b0387169063fd310d299060240160206040518083038186803b1580156104e357600080fd5b505afa1580156104f7573d6000803e3d6000fd5b505050506040513d601f19601f8201168201806040525081019061051b9190613c05565b604051634941d71d60e11b81527f0ebc415f2a9c53ba3b90c65925f402605b16daf54b8f18bc2a4ac5cf2026ff5360048201529091506000906001600160a01b03881690639283ae3a9060240160206040518083038186803b15801561058057600080fd5b505afa158015610594573d6000803e3d6000fd5b505050506040513d601f19601f820116820180604052508101906105b89190613d4d565b604051634941d71d60e11b81527f52cf9e13c44455102d3bdf6a2d2539e3a78562a7c366394927a7d6cff60a27a660048201529091506000906001600160a01b03891690639283ae3a9060240160206040518083038186803b15801561061d57600080fd5b505afa158015610631573d6000803e3d6000fd5b505050506040513d601f19601f820116820180604052508101906106559190613d4d565b9050831580156106f857506040517f70a082310000000000000000000000000000000000000000000000000000000081526001600160a01b0387811660048301528391908516906370a082319060240160206040518083038186803b1580156106bd57600080fd5b505afa1580156106d1573d6000803e3d6000fd5b505050506040513d601f19601f820116820180604052508101906106f59190613d4d565b10155b1561070a5760019450505050506108d2565b8360011480156107ad57506040517f70a082310000000000000000000000000000000000000000000000000000000081526001600160a01b0387811660048301528391908516906370a082319060240160206040518083038186803b15801561077257600080fd5b505afa158015610786573d6000803e3d6000fd5b505050506040513d601f19601f820116820180604052508101906107aa9190613d4d565b10155b156107bf5760019450505050506108d2565b83600214801561086757506040517efdd58e0000000000000000000000000000000000000000000000000000000081526001600160a01b0387811660048301526024820183905283919085169062fdd58e9060440160206040518083038186803b15801561082c57600080fd5b505afa158015610840573d6000803e3d6000fd5b505050506040513d601f19601f820116820180604052508101906108649190613d4d565b10155b156108795760019450505050506108d2565b8360031480156108af57506001600160a01b0388166000908152602081815260408083208a845290915290206108af9087612361565b156108c15760019450505050506108d2565b60009450505050506108d2565b5060005b9392505050565b6040517fa230c5240000000000000000000000000000000000000000000000000000000081526001600160a01b0382811660048301526000919084169063a230c5249060240160206040518083038186803b15801561093757600080fd5b505afa15801561094b573d6000803e3d6000fd5b505050506040513d601f19601f820116820180604052508101906101a49190613d04565b81600061097b82612383565b9050610985613a37565b6001600160a01b03851660008181526001602090815260408083208884529091529081902090517f30490e91000000000000000000000000000000000000000000000000000000008152600481018790529091906330490e9190602401600060405180830381600087803b1580156109fc57600080fd5b505af1158015610a10573d6000803e3d6000fd5b50506040516317ba7d8560e01b81527f8f5b4aabbdb8527d420a29cc90ae207773ad49b73c632c3cfd2f29eb8776f2ea60048201526001600160a01b03891692506317ba7d85915060240160206040518083038186803b158015610a7357600080fd5b505afa158015610a87573d6000803e3d6000fd5b505050506040513d601f19601f82011682018060405250810190610aab9190613c05565b6001600160a01b0390811683526040517f40de703e00000000000000000000000000000000000000000000000000000000815260048101879052908716906340de703e9060240160206040518083038186803b158015610b0a57600080fd5b505afa158015610b1e573d6000803e3d6000fd5b505050506040513d601f19601f82011682018060405250810190610b429190613c05565b6001600160a01b031660208301819052610ba35760405162461bcd60e51b815260206004820152601860248201527f766f74696e672061646170746572206e6f7420666f756e64000000000000000060448201526064015b60405180910390fd5b60208201516040517f76225e730000000000000000000000000000000000000000000000000000000081526001600160a01b03888116600483015260248201889052909116906376225e739060440160606040518083038186803b158015610c0a57600080fd5b505afa158015610c1e573d6000803e3d6000fd5b505050506040513d601f19601f82011682018060405250810190610c429190613e28565b608085018190526060850182905260408501836005811115610c7457634e487b7160e01b600052602160045260246000fd5b6005811115610c9357634e487b7160e01b600052602160045260246000fd5b90525060029150610ca19050565b82604001516005811115610cc557634e487b7160e01b600052602160045260246000fd5b1415610f0e57600b8101805461ff0019166101009081179091556040805161012081018252835460e082019081526001850154828501528152815160a0808201845260028601546001600160a01b03908116835260038701546020808501919091526004880154848701526005880154606080860191909152600689015460808087019190915282870195909552865160c08101885260078a01805460ff808216151584529a8104909a16828501526201000090990490931683880152600889015490830152600988015493820193909352600a870180548651818602810186018852818152610e7a988f988b979089019691949186019390830182828015610df757602002820191906000526020600020905b81546001600160a01b03168152600190910190602001808311610dd9575b505050919092525050508152600b82015460ff8082166020840152604090920191610100909104166003811115610e3e57634e487b7160e01b600052602160045260246000fd5b6003811115610e5d57634e487b7160e01b600052602160045260246000fd5b8152602001600c8201548152602001600d8201548152505061264e565b81516040517ff10e6b6b0000000000000000000000000000000000000000000000000000000081526001600160a01b0388811660048301529091169063f10e6b6b90602401600060405180830381600087803b158015610ed957600080fd5b505af1158015610eed573d6000803e3d6000fd5b505050600b820180546002925061ff001916610100835b0217905550610fb2565b600382604001516005811115610f3457634e487b7160e01b600052602160045260246000fd5b1480610f635750600182604001516005811115610f6157634e487b7160e01b600052602160045260246000fd5b145b15610f8057600b810180546003919061ff00191661010083610f04565b6040517f70fc772800000000000000000000000000000000000000000000000000000000815260040160405180910390fd5b6001600160a01b0386166000908152600260205260409020610fd4908661281e565b15610ffd576001600160a01b0386166000908152600260205260409020610ffb9086612836565b505b600061100887612842565b90507fdcc911819967718b3aa2f12f31ede4b5b207e7a5c1b86cbfa291fe31dee26644878784600b0160019054906101000a900460ff1684876060015188608001518960400151600581111561106e57634e487b7160e01b600052602160045260246000fd5b6040516110819796959493929190613fe3565b60405180910390a15050506110968282612926565b50505050565b60006110ab6020830183613be9565b60006110b682612383565b90506110c56020850185613be9565b6110cf8133612931565b6040805160e081018252600080825260208201819052918101829052606081018290526080810182905260a0810182905260c0810191909152600060038161111a60208a018a613be9565b6001600160a01b03166001600160a01b0316815260200190815260200160002054141580156112a2575060006001600061115760208a018a613be9565b6001600160a01b03166001600160a01b031681526020019081526020016000206000600360008a60000160208101906111909190613be9565b6001600160a01b03166001600160a01b03168152602001908152602001600020548152602001908152602001600020600b0160019054906101000a900460ff1660038111156111ef57634e487b7160e01b600052602160045260246000fd5b14806112a25750600180600061120860208a018a613be9565b6001600160a01b03166001600160a01b031681526020019081526020016000206000600360008a60000160208101906112419190613be9565b6001600160a01b03166001600160a01b03168152602001908152602001600020548152602001908152602001600020600b0160019054906101000a900460ff1660038111156112a057634e487b7160e01b600052602160045260246000fd5b145b156112d9576040517fc49f1f0a00000000000000000000000000000000000000000000000000000000815260040160405180910390fd5b6112e66020870187613be9565b6040516317ba7d8560e01b81527fdac6d9ce728ebc92a61253866b4e5a4c73b76ba0aa11e7297a633f6232f5423760048201526001600160a01b0391909116906317ba7d859060240160206040518083038186803b15801561134757600080fd5b505afa15801561135b573d6000803e3d6000fd5b505050506040513d601f19601f8201168201806040525081019061137f9190613c05565b6001600160a01b0316808252639a0242fc61139d6020890189613be9565b6040516001600160e01b031960e084901b1681526001600160a01b03909116600482015260240160206040518083038186803b1580156113dc57600080fd5b505afa1580156113f0573d6000803e3d6000fd5b505050506040513d601f19601f820116820180604052508101906114149190613d04565b6114605760405162461bcd60e51b815260206004820152601660248201527f44616f5365742050726f706f73616c20556e646f6e65000000000000000000006044820152606401610b9a565b61146d6020870187613be9565b6040516317ba7d8560e01b81527f72894213a5c7f56b36b2947fa6ea18963d6bb1a68746b46d7f552cca76e1a7a860048201526001600160a01b0391909116906317ba7d859060240160206040518083038186803b1580156114ce57600080fd5b505afa1580156114e2573d6000803e3d6000fd5b505050506040513d601f19601f820116820180604052508101906115069190613c05565b6001600160a01b03166040820181905260009063a5d6fb1361152b60208a018a613be9565b6040516001600160e01b031960e084901b1681526001600160a01b03909116600482015260240160206040518083038186803b15801561156a57600080fd5b505afa15801561157e573d6000803e3d6000fd5b505050506040513d601f19601f820116820180604052508101906115a29190613d4d565b11158015611647575060408101516000906001600160a01b03166362e86df56115ce60208a018a613be9565b6040516001600160e01b031960e084901b1681526001600160a01b03909116600482015260240160206040518083038186803b15801561160d57600080fd5b505afa158015611621573d6000803e3d6000fd5b505050506040513d601f19601f820116820180604052508101906116459190613d4d565b145b6116935760405162461bcd60e51b815260206004820152601a60248201527f556e646f6e6520496e766573746d656e742050726f706f73616c0000000000006044820152606401610b9a565b6116a06020870187613be9565b6040516317ba7d8560e01b81527f8f5b4aabbdb8527d420a29cc90ae207773ad49b73c632c3cfd2f29eb8776f2ea60048201526001600160a01b0391909116906317ba7d859060240160206040518083038186803b15801561170157600080fd5b505afa158015611715573d6000803e3d6000fd5b505050506040513d601f19601f820116820180604052508101906117399190613c05565b6001600160a01b031660608201819052600190630c916bae61175e60208a018a613be9565b6040516001600160e01b031960e084901b1681526001600160a01b03909116600482015260240160206040518083038186803b15801561179d57600080fd5b505afa1580156117b1573d6000803e3d6000fd5b505050506040513d601f19601f820116820180604052508101906117d59190613e09565b60038111156117f457634e487b7160e01b600052602160045260246000fd5b141561182c576040517f997cddba00000000000000000000000000000000000000000000000000000000815260040160405180910390fd5b80606001516001600160a01b031663b0e21e8a6040518163ffffffff1660e01b815260040160206040518083038186803b15801561186957600080fd5b505afa15801561187d573d6000803e3d6000fd5b505050506040513d601f19601f820116820180604052508101906118a19190613d4d565b60c0820152606086013515806118cc57506080860135158015906118cc575060608601356080870135105b806118d5575060005b806118f6575060c0860135158015906118f6575060a086013560c087013511155b8061190457504260e0870135105b80611917575060e0860135610100870135105b1561194e576040517f22ee6ae700000000000000000000000000000000000000000000000000000000815260040160405180910390fd5b61195b6020870187613be9565b6001600160a01b0316630b9411ba6040518163ffffffff1660e01b8152600401600060405180830381600087803b15801561199557600080fd5b505af11580156119a9573d6000803e3d6000fd5b50611a6c92506119bf9150506020880188613be9565b60c01b611a476119d260208a018a613be9565b6001600160a01b031663a25950c56040518163ffffffff1660e01b815260040160206040518083038186803b158015611a0a57600080fd5b505afa158015611a1e573d6000803e3d6000fd5b505050506040513d601f19601f82011682018060405250810190611a429190613d4d565b612987565b604051602001611a58929190613f75565b604051602081830303815290604052612add565b602080830191909152604080516101208101825260e089810135908201908152610100808b0135908301528152815160a08101835290928301918190611ab89060608c01908c01613be9565b6001600160a01b03168152602001896040016020013581526020018960400160400135815260200189604001606001358152602001896040016080013581525081526020016040518060c0016040528089806101200190611b19919061419c565b611b27906020810190613ce8565b15158152602001611b3c6101208b018b61419c565b611b4d906040810190602001613e9a565b60ff168152602001611b636101208b018b61419c565b611b74906060810190604001613be9565b6001600160a01b03168152602001611b906101208b018b61419c565b606001358152602001611ba76101208b018b61419c565b608001358152602001611bbe6101208b018b61419c565b611bcc9060a081019061412f565b8080602002602001604051908101604052809392919081815260200183836020028082843760009201919091525050509152508152602090810190611c179060408a01908a01613e9a565b60ff16815260200160008152602001428152602001876000016020810190611c3f9190613be9565b604051634941d71d60e11b81527f9876c0f0505bfb2b1c38d3bbd25ba13159172cd0868972d76927723f5a9480fc60048201526001600160a01b039190911690639283ae3a9060240160206040518083038186803b158015611ca057600080fd5b505afa158015611cb4573d6000803e3d6000fd5b505050506040513d601f19601f82011682018060405250810190611cd89190613d4d565b611ce2904261420d565b905260016000611cf560208a018a613be9565b6001600160a01b03908116825260208083019390935260409182016000908120868501518252845282902084518051825584015160018201558484015180516002830180547fffffffffffffffffffffffff00000000000000000000000000000000000000001691851691909117905580850151600383015580840151600483015560608082015160058401556080918201516006840155868501518051600785018054838a01519884015161ffff1990911692151561ff0019169290921761010060ff90991698909802979097177fffffffffffffffffffff0000000000000000000000000000000000000000ffff166201000091909616029490941785558301516008830155820151600982015560a082015180519194929392611e2392600a87019290910190613a79565b5050506060820151600b8201805460ff9092167fffffffffffffffffffffffffffffffffffffffffffffffffffffffffffffff0083168117825560808501519261ffff191617610100836003811115611e8c57634e487b7160e01b600052602160045260246000fd5b021790555060a0820151600c82015560c090910151600d909101556000611eb761012088018861419c565b611ec59060a081019061412f565b90501115611fa15760005b611ede61012088018861419c565b611eec9060a081019061412f565b90508160ff161015611f9f57611f8c611f0961012089018961419c565b611f179060a081019061412f565b8360ff16818110611f3857634e487b7160e01b600052603260045260246000fd5b9050602002016020810190611f4d9190613be9565b600080611f5d60208c018c613be9565b6001600160a01b0316815260208082019290925260409081016000908120878401518252909252902090612af9565b5080611f97816142b5565b915050611ed0565b505b611fae6020870187613be9565b6001600160a01b031663b73dc38982602001516040518263ffffffff1660e01b8152600401611fdf91815260200190565b600060405180830381600087803b158015611ff957600080fd5b505af115801561200d573d6000803e3d6000fd5b5061201f925050506020870187613be9565b6001600160a01b031663815a2bf482602001518860000160208101906120459190613be9565b6040516317ba7d8560e01b81527f907642cbfe4e58ddd14eaa320923fbe4c29721dd0950ae4cb3b2626e292791ae60048201526001600160a01b0391909116906317ba7d859060240160206040518083038186803b1580156120a657600080fd5b505afa1580156120ba573d6000803e3d6000fd5b505050506040513d601f19601f820116820180604052508101906120de9190613c05565b6040516001600160e01b031960e085901b16815260048101929092526001600160a01b03166024820152604401600060405180830381600087803b15801561212557600080fd5b505af1158015612139573d6000803e3d6000fd5b506000925061214e9150506020880188613be9565b6040516317ba7d8560e01b81527f907642cbfe4e58ddd14eaa320923fbe4c29721dd0950ae4cb3b2626e292791ae60048201526001600160a01b0391909116906317ba7d859060240160206040518083038186803b1580156121af57600080fd5b505afa1580156121c3573d6000803e3d6000fd5b505050506040513d601f19601f820116820180604052508101906121e79190613c05565b90506001600160a01b038116632b0974d061220560208a018a613be9565b60208086015160408051928301815260008352516001600160e01b031960e086901b168152612238939290600401614050565b600060405180830381600087803b15801561225257600080fd5b505af1158015612266573d6000803e3d6000fd5b505050506122a88260200151600260008a60000160208101906122899190613be9565b6001600160a01b03168152602081019190915260400160002090612b0e565b50602080830151906003906000906122c2908b018b613be9565b6001600160a01b03168152602080820192909252604001600020919091557ffe22c13d0cc04eef2a813c30901da5f8cd64f5ba91866fccce71c606ce4648749061230e90890189613be9565b602080850151604080516001600160a01b039094168452918301520160405180910390a1600195505050506123438282612926565b5050919050565b606060006108d283612b1a565b60006101a7825490565b6001600160a01b038116600090815260018301602052604081205415156101a4565b6040805160808101825260008082526020820181905291810182905260608101919091525a81600001818152505043826001600160a01b031663b21634826040518163ffffffff1660e01b815260040160206040518083038186803b1580156123eb57600080fd5b505afa1580156123ff573d6000803e3d6000fd5b505050506040513d601f19601f820116820180604052508101906124239190613d4d565b14156124715760405162461bcd60e51b815260206004820152601060248201527f7265656e7472616e6379206775617264000000000000000000000000000000006044820152606401610b9a565b816001600160a01b03166310fdb0a26040518163ffffffff1660e01b8152600401600060405180830381600087803b1580156124ac57600080fd5b505af11580156124c0573d6000803e3d6000fd5b50506040517f72c6838f0000000000000000000000000000000000000000000000000000000081527f1f2fd42ad6a6cacd573c4b212beb7a4e2499ad45d742a65337097f130e71daff6004820152600092506001600160a01b03851691506372c6838f9060240160206040518083038186803b15801561253f57600080fd5b505afa158015612553573d6000803e3d6000fd5b505050506040513d601f19601f820116820180604052508101906125779190613c05565b90506001600160a01b0381166125935760006020830152612648565b6001600160a01b038181166060840181905283516040517f43a8a3f1000000000000000000000000000000000000000000000000000000008152928616600484015260248301526000918291906343a8a3f190604401604080518083038186803b15801561260057600080fd5b505afa158015612614573d6000803e3d6000fd5b505050506040513d601f19601f820116820180604052508101906126389190613d20565b9015156020860152604085015250505b50919050565b6060810151604051630da0f6c760e41b81527ff301d5aec67a9d816d38f9b645cac1e79a3308ff9803564bbe63a862db82f46b600482015260ff90911660248201526001600160a01b0383169063da0f6c7090604401600060405180830381600087803b1580156126be57600080fd5b505af11580156126d2573d6000803e3d6000fd5b50505050612720826040518060800160405280846020015160200151815260200184602001516040015181526020018460200151606001518152602001846020015160800151815250612b76565b604080518082019091528151518152815160209081015190820152612746908390612d99565b6020810151516040517f3b4f921a0000000000000000000000000000000000000000000000000000000081527f7fa36390a0e9b8b8004035572fd8345b1128cea12d1763a1baf8fbd4fb7b202760048201526001600160a01b03918216602482015290831690633b4f921a90604401600060405180830381600087803b1580156127cf57600080fd5b505af11580156127e3573d6000803e3d6000fd5b505050506040810151511561281a57604080820151602081015191810151606082015160809092015161281a938693909291612e55565b5050565b600081815260018301602052604081205415156101a4565b60006101a483836130f8565b600080826001600160a01b031663a6f636416040518163ffffffff1660e01b815260040160006040518083038186803b15801561287e57600080fd5b505afa158015612892573d6000803e3d6000fd5b505050506040513d6000823e601f3d908101601f191682016040526128ba9190810190613c21565b90506000805b82518160ff16101561291e5761290085848360ff16815181106128f357634e487b7160e01b600052603260045260246000fd5b6020026020010151613215565b61290a90836141d9565b915080612916816142b5565b9150506128c0565b509392505050565b61281a8282336137b6565b61293b82826108d9565b61281a5760405162461bcd60e51b815260206004820152600c60248201527f6f6e6c79476f7665726e6f7200000000000000000000000000000000000000006044820152606401610b9a565b6060816129c757505060408051808201909152600181527f3000000000000000000000000000000000000000000000000000000000000000602082015290565b8160005b81156129f157806129db8161427c565b91506129ea9050600a83614225565b91506129cb565b60008167ffffffffffffffff811115612a1a57634e487b7160e01b600052604160045260246000fd5b6040519080825280601f01601f191660200182016040528015612a44576020820181803683370190505b5090505b8415612ad557612a59600183614239565b9150612a66600a866142d5565b612a7190603061420d565b60f81b818381518110612a9457634e487b7160e01b600052603260045260246000fd5b60200101907effffffffffffffffffffffffffffffffffffffffffffffffffffffffffffff1916908160001a905350612ace600a86614225565b9450612a48565b949350505050565b6000815160001415612af157506000919050565b506020015190565b60006101a4836001600160a01b0384166138ac565b60006101a483836138ac565b606081600001805480602002602001604051908101604052809291908181526020018280548015612b6a57602002820191906000526020600020905b815481526020019060010190808311612b56575b50505050509050919050565b8051604051630da0f6c760e41b81527f31af571e53636dddd77f772cce9d30b42075760f2da731636acc6962da2fbef8600482015260248101919091526001600160a01b0383169063da0f6c7090604401600060405180830381600087803b158015612be157600080fd5b505af1158015612bf5573d6000803e3d6000fd5b5050506020820151604051630da0f6c760e41b81527f7e07fb4530796d057ca1d76d83f47aa8629dbb7e942ac28f30ad6f5e9e8d4189600482015260248101919091526001600160a01b038416915063da0f6c7090604401600060405180830381600087803b158015612c6757600080fd5b505af1158015612c7b573d6000803e3d6000fd5b5050506040808301519051630da0f6c760e41b81527fbdd40865e74210f0a46799ae63462c62010da92014a08cbc32f1d049d0a22c6b600482015260248101919091526001600160a01b038416915063da0f6c7090604401600060405180830381600087803b158015612ced57600080fd5b505af1158015612d01573d6000803e3d6000fd5b5050506001600160a01b038316905063da0f6c707f5fa39c8100b49336846e52d39403e353bf782275f905a885f09224779ff1c9248360035b60200201516040516001600160e01b031960e085901b16815260048101929092526024820152604401600060405180830381600087803b158015612d7d57600080fd5b505af1158015612d91573d6000803e3d6000fd5b505050505050565b8051604051630da0f6c760e41b81527fbd04d44792b7dbfe3b50b0f9f2006f7ef449e374a39021cb9bfa7cd0bdd850d7600482015260248101919091526001600160a01b0383169063da0f6c7090604401600060405180830381600087803b158015612e0457600080fd5b505af1158015612e18573d6000803e3d6000fd5b5050506001600160a01b038316905063da0f6c707f533afc15b6312917b5e28e2272ea69d44e5ea8e00d3bd57cada1275c2f14c9e8836001612d3a565b604051630da0f6c760e41b81527f87f768842f3bb4c7742d189f32b11c2bf0d7f4a6bad0b4b7a45937b15319e9fb6004820152600160248201526001600160a01b0386169063da0f6c7090604401600060405180830381600087803b158015612ebd57600080fd5b505af1158015612ed1573d6000803e3d6000fd5b5050604051630da0f6c760e41b81527f5cd8f6e95e052e3c0e0cc859654925ecc6c0d54b86a47d5ab47f1e8fc71daad9600482015260ff871660248201526001600160a01b038816925063da0f6c709150604401600060405180830381600087803b158015612f3f57600080fd5b505af1158015612f53573d6000803e3d6000fd5b5050604051630da0f6c760e41b81527f52cf9e13c44455102d3bdf6a2d2539e3a78562a7c366394927a7d6cff60a27a66004820152602481018590526001600160a01b038816925063da0f6c709150604401600060405180830381600087803b158015612fbf57600080fd5b505af1158015612fd3573d6000803e3d6000fd5b5050604051630da0f6c760e41b81527f0ebc415f2a9c53ba3b90c65925f402605b16daf54b8f18bc2a4ac5cf2026ff536004820152602481018490526001600160a01b038816925063da0f6c709150604401600060405180830381600087803b15801561303f57600080fd5b505af1158015613053573d6000803e3d6000fd5b50506040517f3b4f921a0000000000000000000000000000000000000000000000000000000081527f6468a9b13d5f0011479da2d9211ad507a42070e4a58df895adf3136147416db260048201526001600160a01b03868116602483015288169250633b4f921a9150604401600060405180830381600087803b1580156130d957600080fd5b505af11580156130ed573d6000803e3d6000fd5b505050505050505050565b6000818152600183016020526040812054801561320b57600061311c600183614239565b855490915060009061313090600190614239565b90508181146131b157600086600001828154811061315e57634e487b7160e01b600052603260045260246000fd5b906000526020600020015490508087600001848154811061318f57634e487b7160e01b600052603260045260246000fd5b6000918252602080832090910192909255918252600188019052604090208390555b85548690806131d057634e487b7160e01b600052603160045260246000fd5b6001900381819060005260206000200160009055905585600101600086815260200190815260200160002060009055600193505050506101a7565b60009150506101a7565b604051634941d71d60e11b81527feee23dc9ab95b6666db01c2b6cae6a5ef706099a25926e21e0a2e043fe885604600482015260009081906001600160a01b03851690639283ae3a9060240160206040518083038186803b15801561327957600080fd5b505afa15801561328d573d6000803e3d6000fd5b505050506040513d601f19601f820116820180604052508101906132b19190613d4d565b604051634941d71d60e11b81527fd093d4a34a12a221b19c0a6689d5449f1346aa769d15cca4e9782c36fda9339a60048201529091506000906001600160a01b03861690639283ae3a9060240160206040518083038186803b15801561331657600080fd5b505afa15801561332a573d6000803e3d6000fd5b505050506040513d601f19601f8201168201806040525081019061334e9190613d4d565b6040516317ba7d8560e01b81527f8f5b4aabbdb8527d420a29cc90ae207773ad49b73c632c3cfd2f29eb8776f2ea60048201529091506000906001600160a01b038716906317ba7d859060240160206040518083038186803b1580156133b357600080fd5b505afa1580156133c7573d6000803e3d6000fd5b505050506040513d601f19601f820116820180604052508101906133eb9190613c05565b6040517f68abb5e00000000000000000000000000000000000000000000000000000000081526001600160a01b0388811660048301529192506000918316906368abb5e09060240160206040518083038186803b15801561344b57600080fd5b505afa15801561345f573d6000803e3d6000fd5b505050506040513d601f19601f820116820180604052508101906134839190613d4d565b1115801561351e57506040517fa230c5240000000000000000000000000000000000000000000000000000000081526001600160a01b03868116600483015287169063a230c5249060240160206040518083038186803b1580156134e657600080fd5b505afa1580156134fa573d6000803e3d6000fd5b505050506040513d601f19601f8201168201806040525081019061351e9190613d04565b1561352f57600193505050506101a7565b816001141561364c576000836135dc57604051633de222bb60e21b81526001600160a01b0388811660048301528781166024830152670de0b6b3a7640000919084169063f7888aec9060440160206040518083038186803b15801561359357600080fd5b505afa1580156135a7573d6000803e3d6000fd5b505050506040513d601f19601f820116820180604052508101906135cb9190613d4d565b6135d59190614225565b90506135e9565b60009450505050506101a7565b600081116135fe5760009450505050506101a7565b677fffffffffffffff811061361a5760329450505050506101a7565b600061363561363061362b846138fb565b613919565b613a1b565b67ffffffffffffffff1695506101a7945050505050565b8160021415613701576000836135dc57604051633de222bb60e21b81526001600160a01b03888116600483015287811660248301526000919084169063f7888aec9060440160206040518083038186803b1580156136a957600080fd5b505afa1580156136bd573d6000803e3d6000fd5b505050506040513d601f19601f820116820180604052508101906136e19190613d4d565b116136ed5760006136f0565b60015b60ff1690505b93506101a792505050565b816137aa576000836135dc57604051633de222bb60e21b81526001600160a01b0388811660048301528781166024830152670de0b6b3a7640000919084169063f7888aec9060440160206040518083038186803b15801561376157600080fd5b505afa158015613775573d6000803e3d6000fd5b505050506040513d601f19601f820116820180604052508101906137999190613d4d565b6137a39190614225565b90506136f6565b600093505050506101a7565b8160200151156138545781606001516001600160a01b0316635e5eb01384835a86516137e29190614239565b60408088015190516001600160e01b031960e087901b1681526001600160a01b03948516600482015293909216602484015260448301526064820152608401600060405180830381600087803b15801561383b57600080fd5b505af115801561384f573d6000803e3d6000fd5b505050505b826001600160a01b031663d4f7af436040518163ffffffff1660e01b8152600401600060405180830381600087803b15801561388f57600080fd5b505af11580156138a3573d6000803e3d6000fd5b50505050505050565b60008181526001830160205260408120546138f3575081546001818101845560008481526020808220909301849055845484825282860190935260409020919091556101a7565b5060006101a7565b6000677fffffffffffffff82111561391257600080fd5b5060401b90565b60008082600f0b1361392a57600080fd5b6000600f83900b680100000000000000008112613949576040918201911d5b640100000000811261395d576020918201911d5b62010000811261396f576010918201911d5b6101008112613980576008918201911d5b60108112613990576004918201911d5b600481126139a0576002918201911d5b600281126139af576001820191505b7fffffffffffffffffffffffffffffffffffffffffffffffffffffffffffffffc0820160401b600f85900b607f8490031b6780000000000000005b6000811315613a105790800260ff81901c8281029390930192607f011c9060011d6139ea565b509095945050505050565b60008082600f0b1215613a2d57600080fd5b50600f0b60401d90565b6040805160e08101825260008082526020820181905290918201908152602001600081526020016000815260200160008152602001613a74613af6565b905290565b828054828255906000526020600020908101928215613ae6579160200282015b82811115613ae657825182547fffffffffffffffffffffffff0000000000000000000000000000000000000000166001600160a01b03909116178255602090920191600190910190613a99565b50613af2929150613bc4565b5090565b604080516101208101909152600060e0820181815261010083019190915281908152602001613b566040518060a0016040528060006001600160a01b03168152602001600081526020016000815260200160008152602001600081525090565b8152602001613ba26040518060c00160405280600015158152602001600060ff16815260200160006001600160a01b031681526020016000815260200160008152602001606081525090565b8152600060208201819052604082018190526060820181905260809091015290565b5b80821115613af25760008155600101613bc5565b8051613be48161432b565b919050565b600060208284031215613bfa578081fd5b81356108d28161432b565b600060208284031215613c16578081fd5b81516108d28161432b565b60006020808385031215613c33578182fd5b825167ffffffffffffffff80821115613c4a578384fd5b818501915085601f830112613c5d578384fd5b815181811115613c6f57613c6f614315565b8060051b604051601f19603f83011681018181108582111715613c9457613c94614315565b604052828152858101935084860182860187018a1015613cb2578788fd5b8795505b83861015613cdb57613cc781613bd9565b855260019590950194938601938601613cb6565b5098975050505050505050565b600060208284031215613cf9578081fd5b81356108d281614343565b600060208284031215613d15578081fd5b81516108d281614343565b60008060408385031215613d32578081fd5b8251613d3d81614343565b6020939093015192949293505050565b600060208284031215613d5e578081fd5b5051919050565b60008060408385031215613d77578182fd5b8235613d828161432b565b91506020830135613d928161432b565b809150509250929050565b60008060408385031215613daf578182fd5b8235613dba8161432b565b946020939093013593505050565b600080600060608486031215613ddc578081fd5b8335613de78161432b565b9250602084013591506040840135613dfe8161432b565b809150509250925092565b600060208284031215613e1a578081fd5b8151600481106108d2578182fd5b600080600060608486031215613e3c578283fd5b835160068110613e4a578384fd5b602085015160409095015190969495509392505050565b600060208284031215613e72578081fd5b813567ffffffffffffffff811115613e88578182fd5b820161014081850312156108d2578182fd5b600060208284031215613eab578081fd5b813560ff811681146108d2578182fd5b6000815180845260208085019450808401835b83811015613ef35781516001600160a01b031687529582019590820190600101613ece565b509495945050505050565b60048110613f1c57634e487b7160e01b600052602160045260246000fd5b9052565b80511515825260ff60208201511660208301526001600160a01b0360408201511660408301526060810151606083015260808101516080830152600060a082015160c060a0850152612ad560c0850182613ebb565b7fffffffffffffffff000000000000000000000000000000000000000000000000831681527f46756e6445737461626c6973686d656e74230000000000000000000000000000600882015260008251613fd581601a850160208701614250565b91909101601a019392505050565b6001600160a01b03881681526020810187905260e081016140076040830188613efe565b6fffffffffffffffffffffffffffffffff861660608301528460808301528360a08301528260c083015298975050505050505050565b6020815260006101a46020830184613ebb565b6001600160a01b03841681528260208201526060604082015260008251806060840152614084816080850160208701614250565b601f01601f191691909101608001949350505050565b60006101808951835260208a015160208401526001600160a01b0389511660408401526020890151606084015260408901516080840152606089015160a0840152608089015160c08401528060e08401526140f781840189613f20565b91505061410a61010083018760ff169052565b614118610120830186613efe565b610140820193909352610160015295945050505050565b60008083357fffffffffffffffffffffffffffffffffffffffffffffffffffffffffffffffe1843603018112614163578283fd5b83018035915067ffffffffffffffff82111561417d578283fd5b6020019150600581901b360382131561419557600080fd5b9250929050565b600082357fffffffffffffffffffffffffffffffffffffffffffffffffffffffffffffff418336030181126141cf578182fd5b9190910192915050565b60006fffffffffffffffffffffffffffffffff808316818516808303821115614204576142046142e9565b01949350505050565b60008219821115614220576142206142e9565b500190565b600082614234576142346142ff565b500490565b60008282101561424b5761424b6142e9565b500390565b60005b8381101561426b578181015183820152602001614253565b838111156110965750506000910152565b60007fffffffffffffffffffffffffffffffffffffffffffffffffffffffffffffffff8214156142ae576142ae6142e9565b5060010190565b600060ff821660ff8114156142cc576142cc6142e9565b60010192915050565b6000826142e4576142e46142ff565b500690565b634e487b7160e01b600052601160045260246000fd5b634e487b7160e01b600052601260045260246000fd5b634e487b7160e01b600052604160045260246000fd5b6001600160a01b038116811461434057600080fd5b50565b801515811461434057600080fdfea26469706673582212208946aca6f42da4fba97554a1a458995be3483849610cf8250e2d2cbac78b84d464736f6c63430008040033",
  "linkReferences": {},
  "deployedLinkReferences": {}
}