{
  "_format": "hh-sol-artifact-1",
  "contractName": "ColletiveFundingProposalAdapterContract",
  "sourceName": "contracts/collective/adapters/CollectiveFundingProposalAdapter.sol",
  "abi": [
    {
      "inputs": [],
      "name": "Empty",
      "type": "error"
    },
    {
      "inputs": [],
      "name": "INVESTMENT_PROPOSAL_NOT_FINALIZED",
      "type": "error"
    },
    {
      "anonymous": false,
      "inputs": [
        {
          "indexed": false,
          "internalType": "address",
          "name": "daoAddr",
          "type": "address"
        },
        {
          "indexed": false,
          "internalType": "bytes32",
          "name": "proposalId",
          "type": "bytes32"
        }
      ],
      "name": "ProposalCreated",
      "type": "event"
    },
    {
      "anonymous": false,
      "inputs": [
        {
          "indexed": false,
          "internalType": "address",
          "name": "daoAddr",
          "type": "address"
        },
        {
          "indexed": false,
          "internalType": "bytes32",
          "name": "proposalId",
          "type": "bytes32"
        },
        {
          "indexed": false,
          "internalType": "uint256",
          "name": "allVotingWeight",
          "type": "uint256"
        },
        {
          "indexed": false,
          "internalType": "uint256",
          "name": "nbYes",
          "type": "uint256"
        },
        {
          "indexed": false,
          "internalType": "uint256",
          "name": "nbNo",
          "type": "uint256"
        }
      ],
      "name": "ProposalExecuted",
      "type": "event"
    },
    {
      "anonymous": false,
      "inputs": [
        {
          "indexed": false,
          "internalType": "address",
          "name": "daoAddr",
          "type": "address"
        },
        {
          "indexed": false,
          "internalType": "bytes32",
          "name": "proposalId",
          "type": "bytes32"
        }
      ],
      "name": "StartVoting",
      "type": "event"
    },
    {
      "inputs": [
        {
          "internalType": "contract DaoRegistry",
          "name": "dao",
          "type": "address"
        }
      ],
      "name": "allDone",
      "outputs": [
        {
          "internalType": "bool",
          "name": "",
          "type": "bool"
        }
      ],
      "stateMutability": "view",
      "type": "function"
    },
    {
      "inputs": [
        {
          "internalType": "address",
          "name": "",
          "type": "address"
        },
        {
          "internalType": "bytes32",
          "name": "",
          "type": "bytes32"
        },
        {
          "internalType": "address",
          "name": "",
          "type": "address"
        }
      ],
      "name": "escrowPaybackTokens",
      "outputs": [
        {
          "internalType": "uint256",
          "name": "",
          "type": "uint256"
        }
      ],
      "stateMutability": "view",
      "type": "function"
    },
    {
      "inputs": [
        {
          "internalType": "address",
          "name": "",
          "type": "address"
        },
        {
          "internalType": "bytes32",
          "name": "",
          "type": "bytes32"
        },
        {
          "internalType": "address",
          "name": "",
          "type": "address"
        }
      ],
      "name": "escrowedPaybackToken",
      "outputs": [
        {
          "internalType": "uint256",
          "name": "",
          "type": "uint256"
        }
      ],
      "stateMutability": "view",
      "type": "function"
    },
    {
      "inputs": [
        {
          "internalType": "contract DaoRegistry",
          "name": "dao",
          "type": "address"
        }
      ],
      "name": "getQueueLength",
      "outputs": [
        {
          "internalType": "uint256",
          "name": "",
          "type": "uint256"
        }
      ],
      "stateMutability": "view",
      "type": "function"
    },
    {
      "inputs": [
        {
          "internalType": "contract DaoRegistry",
          "name": "dao",
          "type": "address"
        },
        {
          "internalType": "address",
          "name": "_addr",
          "type": "address"
        }
      ],
      "name": "isActiveMember",
      "outputs": [
        {
          "internalType": "bool",
          "name": "",
          "type": "bool"
        }
      ],
      "stateMutability": "view",
      "type": "function"
    },
    {
      "inputs": [
        {
          "internalType": "contract DaoRegistry",
          "name": "dao",
          "type": "address"
        }
      ],
      "name": "isPrposalInGracePeriod",
      "outputs": [
        {
          "internalType": "bool",
          "name": "",
          "type": "bool"
        }
      ],
      "stateMutability": "view",
      "type": "function"
    },
    {
      "inputs": [
        {
          "internalType": "address",
          "name": "",
          "type": "address"
        }
      ],
      "name": "ongoingProposal",
      "outputs": [
        {
          "internalType": "bytes32",
          "name": "",
          "type": "bytes32"
        }
      ],
      "stateMutability": "view",
      "type": "function"
    },
    {
      "inputs": [
        {
          "internalType": "contract DaoRegistry",
          "name": "dao",
          "type": "address"
        },
        {
          "internalType": "bytes32",
          "name": "proposalId",
          "type": "bytes32"
        }
      ],
      "name": "processProposal",
      "outputs": [
        {
          "internalType": "bool",
          "name": "",
          "type": "bool"
        }
      ],
      "stateMutability": "nonpayable",
      "type": "function"
    },
    {
      "inputs": [
        {
          "internalType": "address",
          "name": "",
          "type": "address"
        }
      ],
      "name": "proposalQueue",
      "outputs": [
        {
          "internalType": "int128",
          "name": "_begin",
          "type": "int128"
        },
        {
          "internalType": "int128",
          "name": "_end",
          "type": "int128"
        }
      ],
      "stateMutability": "view",
      "type": "function"
    },
    {
      "inputs": [
        {
          "internalType": "address",
          "name": "",
          "type": "address"
        },
        {
          "internalType": "bytes32",
          "name": "",
          "type": "bytes32"
        }
      ],
      "name": "proposals",
      "outputs": [
        {
          "components": [
            {
              "internalType": "address",
              "name": "token",
              "type": "address"
            },
            {
              "internalType": "uint256",
              "name": "fundingAmount",
              "type": "uint256"
            },
            {
              "internalType": "uint256",
              "name": "totalAmount",
              "type": "uint256"
            },
            {
              "internalType": "address",
              "name": "receiver",
              "type": "address"
            }
          ],
          "internalType": "struct ICollectiveFunding.FundingInfo",
          "name": "fundingInfo",
          "type": "tuple"
        },
        {
          "components": [
            {
              "internalType": "bool",
              "name": "escrow",
              "type": "bool"
            },
            {
              "internalType": "address",
              "name": "paybackToken",
              "type": "address"
            },
            {
              "internalType": "uint256",
              "name": "price",
              "type": "uint256"
            },
            {
              "internalType": "uint256",
              "name": "paybackAmount",
              "type": "uint256"
            },
            {
              "internalType": "address",
              "name": "approver",
              "type": "address"
            }
          ],
          "internalType": "struct ICollectiveFunding.EscrowInfo",
          "name": "escrowInfo",
          "type": "tuple"
        },
        {
          "components": [
            {
              "internalType": "uint256",
              "name": "startTime",
              "type": "uint256"
            },
            {
              "internalType": "uint256",
              "name": "endTime",
              "type": "uint256"
            },
            {
              "internalType": "uint256",
              "name": "cliffEndTime",
              "type": "uint256"
            },
            {
              "internalType": "uint256",
              "name": "cliffVestingAmount",
              "type": "uint256"
            },
            {
              "internalType": "uint256",
              "name": "vestingInterval",
              "type": "uint256"
            },
            {
              "internalType": "bool",
              "name": "nftEnable",
              "type": "bool"
            },
            {
              "internalType": "address",
              "name": "erc721",
              "type": "address"
            },
            {
              "internalType": "string",
              "name": "vestName",
              "type": "string"
            },
            {
              "internalType": "string",
              "name": "vestDescription",
              "type": "string"
            }
          ],
          "internalType": "struct ICollectiveFunding.VestingInfo",
          "name": "vestingInfo",
          "type": "tuple"
        },
        {
          "components": [
            {
              "internalType": "uint256",
              "name": "startVotingTime",
              "type": "uint256"
            },
            {
              "internalType": "uint256",
              "name": "stopVotingTime",
              "type": "uint256"
            }
          ],
          "internalType": "struct ICollectiveFunding.TimeInfo",
          "name": "timeInfo",
          "type": "tuple"
        },
        {
          "internalType": "address",
          "name": "proposer",
          "type": "address"
        },
        {
          "internalType": "uint256",
          "name": "executeBlockNum",
          "type": "uint256"
        },
        {
          "internalType": "enum ICollectiveFunding.ProposalState",
          "name": "state",
          "type": "uint8"
        }
      ],
      "stateMutability": "view",
      "type": "function"
    },
    {
      "inputs": [],
      "name": "protocolAddress",
      "outputs": [
        {
          "internalType": "address",
          "name": "",
          "type": "address"
        }
      ],
      "stateMutability": "view",
      "type": "function"
    },
    {
      "inputs": [
        {
          "internalType": "contract DaoRegistry",
          "name": "dao",
          "type": "address"
        },
        {
          "internalType": "address",
          "name": "_protocolAddress",
          "type": "address"
        }
      ],
      "name": "setProtocolAddress",
      "outputs": [],
      "stateMutability": "nonpayable",
      "type": "function"
    },
    {
      "inputs": [
        {
          "internalType": "contract DaoRegistry",
          "name": "dao",
          "type": "address"
        },
        {
          "internalType": "bytes32",
          "name": "proposalId",
          "type": "bytes32"
        }
      ],
      "name": "startVotingProcess",
      "outputs": [],
      "stateMutability": "nonpayable",
      "type": "function"
    },
    {
      "inputs": [
        {
          "components": [
            {
              "internalType": "contract DaoRegistry",
              "name": "dao",
              "type": "address"
            },
            {
              "components": [
                {
                  "internalType": "address",
                  "name": "token",
                  "type": "address"
                },
                {
                  "internalType": "uint256",
                  "name": "fundingAmount",
                  "type": "uint256"
                },
                {
                  "internalType": "uint256",
                  "name": "totalAmount",
                  "type": "uint256"
                },
                {
                  "internalType": "address",
                  "name": "receiver",
                  "type": "address"
                }
              ],
              "internalType": "struct ICollectiveFunding.FundingInfo",
              "name": "fundingInfo",
              "type": "tuple"
            },
            {
              "components": [
                {
                  "internalType": "bool",
                  "name": "escrow",
                  "type": "bool"
                },
                {
                  "internalType": "address",
                  "name": "paybackToken",
                  "type": "address"
                },
                {
                  "internalType": "uint256",
                  "name": "price",
                  "type": "uint256"
                },
                {
                  "internalType": "uint256",
                  "name": "paybackAmount",
                  "type": "uint256"
                },
                {
                  "internalType": "address",
                  "name": "approver",
                  "type": "address"
                }
              ],
              "internalType": "struct ICollectiveFunding.EscrowInfo",
              "name": "escrowInfo",
              "type": "tuple"
            },
            {
              "components": [
                {
                  "internalType": "uint256",
                  "name": "startTime",
                  "type": "uint256"
                },
                {
                  "internalType": "uint256",
                  "name": "endTime",
                  "type": "uint256"
                },
                {
                  "internalType": "uint256",
                  "name": "cliffEndTime",
                  "type": "uint256"
                },
                {
                  "internalType": "uint256",
                  "name": "cliffVestingAmount",
                  "type": "uint256"
                },
                {
                  "internalType": "uint256",
                  "name": "vestingInterval",
                  "type": "uint256"
                },
                {
                  "internalType": "bool",
                  "name": "nftEnable",
                  "type": "bool"
                },
                {
                  "internalType": "address",
                  "name": "erc721",
                  "type": "address"
                },
                {
                  "internalType": "string",
                  "name": "vestName",
                  "type": "string"
                },
                {
                  "internalType": "string",
                  "name": "vestDescription",
                  "type": "string"
                }
              ],
              "internalType": "struct ICollectiveFunding.VestingInfo",
              "name": "vestingInfo",
              "type": "tuple"
            }
          ],
          "internalType": "struct ICollectiveFunding.ProposalParams",
          "name": "params",
          "type": "tuple"
        }
      ],
      "name": "submitProposal",
      "outputs": [
        {
          "internalType": "bool",
          "name": "",
          "type": "bool"
        }
      ],
      "stateMutability": "nonpayable",
      "type": "function"
    },
    {
      "inputs": [
        {
          "internalType": "contract DaoRegistry",
          "name": "dao",
          "type": "address"
        },
        {
          "internalType": "bytes32",
          "name": "proposalId",
          "type": "bytes32"
        }
      ],
      "name": "withdrawPaybakcToken",
      "outputs": [],
      "stateMutability": "nonpayable",
      "type": "function"
    }
  ],
  "bytecode": "0x6080604052600580546001600160a01b031916739ac9c636404c8d46d9eb966d7179983ba5a3941a17905534801561003657600080fd5b50614a3f806100466000396000f3fe608060405234801561001057600080fd5b50600436106100f55760003560e01c806362e86df511610097578063a5d6fb1311610066578063a5d6fb1314610246578063ca696d8314610259578063d07e7068146102a2578063e7cbc8a8146102b557600080fd5b806362e86df5146101ed578063642fc0c01461020d5780638ecf7720146102205780639573167d1461023357600080fd5b80633f8a6acb116100d35780633f8a6acb1461017e578063438d9312146101915780634fd194f6146101a45780635cb75276146101c757600080fd5b806305a4da6d146100fa5780630676c1b71461013e5780632b73de3514610169575b600080fd5b61012b6101083660046141ca565b600260209081526000938452604080852082529284528284209052825290205481565b6040519081526020015b60405180910390f35b600554610151906001600160a01b031681565b6040516001600160a01b039091168152602001610135565b61017c61017736600461436f565b6102e6565b005b61017c61018c36600461436f565b610aca565b61017c61019f366004614337565b610c4f565b6101b76101b2366004614160565b610cb7565b6040519015158152602001610135565b6101da6101d536600461419f565b610dd2565b60405161013597969594939291906146ea565b61012b6101fb366004614160565b60036020526000908152604090205481565b6101b761021b366004614160565b61102c565b6101b761022e366004614337565b611070565b6101b761024136600461436f565b61110f565b61012b610254366004614160565b611e14565b610288610267366004614160565b600160205260009081526040902054600f81810b91600160801b9004900b82565b60408051600f93840b81529190920b602082015201610135565b6101b76102b03660046143d9565b611e85565b61012b6102c33660046141ca565b600460209081526000938452604080852082529284528284209052825290205481565b8160006102f282612c03565b9050836102ff8133612ece565b600061030a86611e14565b1161035c5760405162461bcd60e51b815260206004820152600e60248201527f2150726f706f73616c517565756500000000000000000000000000000000000060448201526064015b60405180910390fd5b6001600160a01b038516600090815260016020526040902061037d90612f28565b84146103cb5760405162461bcd60e51b815260206004820152601460248201527f2148656164517565756550726f706f73616c49640000000000000000000000006044820152606401610353565b6040805160a0810182526000808252602080830182905282840182905260608301829052608083018290526001600160a01b03891680835260038252848320548452825281815283822088835290529190912081511561050e5760036001600160a01b0388166000908152602081815260408083208651845290915290206014015460ff16600481111561046f57634e487b7160e01b600052602160045260246000fd5b14806104c2575060046001600160a01b0388166000908152602081815260408083208651845290915290206014015460ff1660048111156104c057634e487b7160e01b600052602160045260246000fd5b145b61050e5760405162461bcd60e51b815260206004820152601160248201527f50726550726f7073616c4e6f74446f6e650000000000000000000000000000006044820152606401610353565b6040516317ba7d8560e01b81527f8f5b4aabbdb8527d420a29cc90ae207773ad49b73c632c3cfd2f29eb8776f2ea60048201526001600160a01b038816906317ba7d859060240160206040518083038186803b15801561056d57600080fd5b505afa158015610581573d6000803e3d6000fd5b505050506040513d601f19601f820116820180604052508101906105a59190614183565b6001600160a01b039081166060840152604051634941d71d60e11b81527f9876c0f0505bfb2b1c38d3bbd25ba13159172cd0868972d76927723f5a9480fc600482015290881690639283ae3a9060240160206040518083038186803b15801561060d57600080fd5b505afa158015610621573d6000803e3d6000fd5b505050506040513d601f19601f820116820180604052508101906106459190614442565b61064f904261488f565b60208301526000601482015460ff16600481111561067d57634e487b7160e01b600052602160045260246000fd5b146106ca5760405162461bcd60e51b815260206004820152601260248201527f50726f706f73616c4e6f74496e517565756500000000000000000000000000006044820152606401610353565b6001600160a01b03871660009081526001602052604090206106eb90612f9f565b506040516317ba7d8560e01b81527f907642cbfe4e58ddd14eaa320923fbe4c29721dd0950ae4cb3b2626e292791ae60048201526001600160a01b038816906317ba7d859060240160206040518083038186803b15801561074b57600080fd5b505afa15801561075f573d6000803e3d6000fd5b505050506040513d601f19601f820116820180604052508101906107839190614183565b6001600160a01b039081166040848101919091526002830154606085015191517f68abb5e00000000000000000000000000000000000000000000000000000000081528a84166004820152909291909116906368abb5e09060240160206040518083038186803b1580156107f657600080fd5b505afa15801561080a573d6000803e3d6000fd5b505050506040513d601f19601f8201168201806040525081019061082e9190614442565b1015610850576014810180546004919060ff19166001835b0217905550610a75565b600481015460ff16156109ad5760078101546004820154600683015461088e928a926001600160a01b0391821692610100909104909116908a61305c565b1515608083018190526108b1576014810180546004919060ff1916600183610846565b60068101546001600160a01b0380891660009081526004602081815260408084208c85528252808420600788015486168552825280842095909555868501518551918201865292815293517f2b0974d00000000000000000000000000000000000000000000000000000000081529190921692632b0974d09261093a928c928c929091016146b9565b600060405180830381600087803b15801561095457600080fd5b505af1158015610968573d6000803e3d6000fd5b5050426010840155505060208083015160118301556001600160a01b03881660009081526003909152604090208690556014810180546001919060ff19168280610846565b60408083015181516020810183526000815291517f2b0974d00000000000000000000000000000000000000000000000000000000081526001600160a01b0390911691632b0974d091610a07918b918b91906004016146b9565b600060405180830381600087803b158015610a2157600080fd5b505af1158015610a35573d6000803e3d6000fd5b5050426010840155505060208281015160118301556001600160a01b038816600090815260039091526040902086905560148101805460ff191660011790555b604080516001600160a01b0389168152602081018890527f18ddb9cf36ff335a8de479588545839bd65d46922c1ca875c417a1f6056c08bc910160405180910390a1505050610ac482826131b9565b50505050565b816000610ad682612c03565b6001600160a01b03851660008181526020818152604080832088845290915280822090516317ba7d8560e01b81527f3b8222b84816150ff171ef9b3356ce3d250b8e7c01c09c0208949acc0880db346004820152939450929091906317ba7d859060240160206040518083038186803b158015610b5257600080fd5b505afa158015610b66573d6000803e3d6000fd5b505050506040513d601f19601f82011682018060405250810190610b8a9190614183565b60048084015460148501546040517f94f1d45a0000000000000000000000000000000000000000000000000000000081529394506001600160a01b03808616946394f1d45a94610bf0948d948d9461010090920490911692339260ff9092169101614685565b602060405180830381600087803b158015610c0a57600080fd5b505af1158015610c1e573d6000803e3d6000fd5b505050506040513d601f19601f82011682018060405250810190610c4291906142ee565b505050610ac482826131b9565b816000610c5b82612c03565b905083610c67816131c4565b6001600160a01b0316336001600160a01b031614610c8457600080fd5b506005805473ffffffffffffffffffffffffffffffffffffffff19166001600160a01b038516179055610ac482826131b9565b6001600160a01b038116600090815260036020526040812054610cdc57506001919050565b6001600160a01b038216600090815260208181526040808320600383528184205484529091529020601181015442118015610dbb5750604051634941d71d60e11b81527fb646599143db51c9136a4861a55f7140eab851836e3e1a42ba7804f5356a365560048201526001600160a01b03841690639283ae3a9060240160206040518083038186803b158015610d7157600080fd5b505afa158015610d85573d6000803e3d6000fd5b505050506040513d601f19601f82011682018060405250810190610da99190614442565b6011820154610db8919061488f565b42105b15610dc95750600192915050565b50600092915050565b600060208181529281526040808220845291815281902081516080808201845282546001600160a01b03908116835260018401548387015260028401548386015260038401548116606080850191909152855160a08082018852600487015460ff80821615158452610100918290048616848c01526005890154848b01526006890154848601526007890154861684880152895161012081018b5260088a018054825260098b01549c82019c909c52600a8a01549a81019a909a52600b890154948a0194909452600c88015495890195909552600d8701549283161515908801529290041660c0850152600e83018054929591949260e084019190610ed69061491d565b80601f0160208091040260200160405190810160405280929190818152602001828054610f029061491d565b8015610f4f5780601f10610f2457610100808354040283529160200191610f4f565b820191906000526020600020905b815481529060010190602001808311610f3257829003601f168201915b50505050508152602001600782018054610f689061491d565b80601f0160208091040260200160405190810160405280929190818152602001828054610f949061491d565b8015610fe15780601f10610fb657610100808354040283529160200191610fe1565b820191906000526020600020905b815481529060010190602001808311610fc457829003601f168201915b50505091909252505060408051808201909152601084015481526011840154602082015260128401546013850154601490950154939491936001600160a01b03909116925060ff1687565b60008061103883611e14565b118061105b57506001600160a01b03821660009081526003602052604090205415155b1561106857506000919050565b506001919050565b6040517fa230c5240000000000000000000000000000000000000000000000000000000081526001600160a01b0382811660048301526000919084169063a230c5249060240160206040518083038186803b1580156110ce57600080fd5b505afa1580156110e2573d6000803e3d6000fd5b505050506040513d601f19601f8201168201806040525081019061110691906142ee565b90505b92915050565b600082600061111d82612c03565b905061117c60408051610160810182526000808252602082018190529181018290526060810182905290608082019081526020016000815260200160008152602001600081526020016000815260200160008152602001600081525090565b6001600160a01b038616600090815260036020526040902054808252156111ed57805185146111ed5760405162461bcd60e51b815260206004820152601160248201527f496e76616c6964205072706f73616c49640000000000000000000000000000006044820152606401610353565b6001600160a01b038616600081815260208181526040808320898452909152908190209051634941d71d60e11b81527fb646599143db51c9136a4861a55f7140eab851836e3e1a42ba7804f5356a36556004820152909190639283ae3a9060240160206040518083038186803b15801561126657600080fd5b505afa15801561127a573d6000803e3d6000fd5b505050506040513d601f19601f8201168201806040525081019061129e9190614442565b60118201546112ad919061488f565b42116112fb5760405162461bcd60e51b815260206004820152601060248201527f496e20566f74696e6720506572696f64000000000000000000000000000000006044820152606401610353565b6002601482015460ff16600481111561132457634e487b7160e01b600052602160045260246000fd5b14156113725760405162461bcd60e51b815260206004820152601360248201527f496e20457865637574652050726f6772657373000000000000000000000000006044820152606401610353565b6040517f30490e91000000000000000000000000000000000000000000000000000000008152600481018790526001600160a01b038816906330490e9190602401600060405180830381600087803b1580156113cd57600080fd5b505af11580156113e1573d6000803e3d6000fd5b50506040517f593e96b60000000000000000000000000000000000000000000000000000000081527f3909e87234f428ccb8748126e2c93f66a62f92a70d315fa5803dec6362be07ab60048201526001600160a01b038a16925063593e96b6915060240160206040518083038186803b15801561145d57600080fd5b505afa158015611471573d6000803e3d6000fd5b505050506040513d601f19601f820116820180604052508101906114959190614183565b6001600160a01b0390811660608401526040517f40de703e00000000000000000000000000000000000000000000000000000000815260048101889052908816906340de703e9060240160206040518083038186803b1580156114f757600080fd5b505afa15801561150b573d6000803e3d6000fd5b505050506040513d601f19601f8201168201806040525081019061152f9190614183565b6001600160a01b03166020830181905261158b5760405162461bcd60e51b815260206004820152601160248201527f41646170746572204e6f7420466f756e640000000000000000000000000000006044820152606401610353565b61159587876132a7565b6fffffffffffffffffffffffffffffffff1660e083015260208201516040517f76225e730000000000000000000000000000000000000000000000000000000081526001600160a01b03898116600483015260248201899052909116906376225e739060440160606040518083038186803b15801561161357600080fd5b505afa158015611627573d6000803e3d6000fd5b505050506040513d601f19601f8201168201806040525081019061164b91906143a0565b60c0850181905260a085018290526080850183600581111561167d57634e487b7160e01b600052602160045260246000fd5b600581111561169c57634e487b7160e01b600052602160045260246000fd5b905250600291506116aa9050565b826080015160058111156116ce57634e487b7160e01b600052602160045260246000fd5b1415611cdb5760148101805460ff191660021790556001600160a01b03871660008181526003602052604090819020889055516317ba7d8560e01b81527f8f5b4aabbdb8527d420a29cc90ae207773ad49b73c632c3cfd2f29eb8776f2ea60048201526317ba7d859060240160206040518083038186803b15801561175257600080fd5b505afa158015611766573d6000803e3d6000fd5b505050506040513d601f19601f8201168201806040525081019061178a9190614183565b6001600160a01b0390811660408481019190915251634941d71d60e11b81527f11618fa890234170104debf73b2563b667bd200bac1d7d8dd024e2f3fadaefd26004820152670de0b6b3a764000091891690639283ae3a9060240160206040518083038186803b1580156117fd57600080fd5b505afa158015611811573d6000803e3d6000fd5b505050506040513d601f19601f820116820180604052508101906118359190614442565b600283015461184491906148bb565b61184e91906148a7565b82610120018181525050670de0b6b3a764000082604001516001600160a01b031663b0e21e8a6040518163ffffffff1660e01b815260040160206040518083038186803b15801561189e57600080fd5b505afa1580156118b2573d6000803e3d6000fd5b505050506040513d601f19601f820116820180604052508101906118d69190614442565b60028301546118e591906148bb565b6118ef91906148a7565b610100830152604051634941d71d60e11b81527f93cedac00cdd81a5ba30fc10f5a5cde34b890441afbdd84297eb8623d720a89c6004820152670de0b6b3a7640000906001600160a01b03891690639283ae3a9060240160206040518083038186803b15801561195e57600080fd5b505afa158015611972573d6000803e3d6000fd5b505050506040513d601f19601f820116820180604052508101906119969190614442565b60028301546119a591906148bb565b6119af91906148a7565b82610140018181525050806000016002015482606001516001600160a01b03166318160ddd6040518163ffffffff1660e01b815260040160206040518083038186803b1580156119fe57600080fd5b505afa158015611a12573d6000803e3d6000fd5b505050506040513d601f19601f82011682018060405250810190611a369190614442565b1015611a58576014810180546004919060ff19166001835b0217905550611d7d565b6040516317ba7d8560e01b81527f183027a84d1b84d3cbf7b351110205fd057b5701a490be772ea6489292256ee360048201526000906001600160a01b038916906317ba7d859060240160206040518083038186803b158015611aba57600080fd5b505afa158015611ace573d6000803e3d6000fd5b505050506040513d601f19601f82011682018060405250810190611af29190614183565b604080516060808201835260038601546001600160a01b039081168352600554811660208085019190915260128801548216848601528451608081018652600189015481526101208a015191810191909152610100890151818601526101408901519281019290925292517f9f8c714900000000000000000000000000000000000000000000000000000000815293945091841692639f8c714992611b9e928d92909190600401614614565b600060405180830381600087803b158015611bb857600080fd5b505af1158015611bcc573d6000803e3d6000fd5b50505050600482015460ff1615611c1d57611be788886135d3565b6001600160a01b0380891660009081526004602090815260408083208b8452825280832060078701549094168352929052908120555b60018201546101008401516101208501516101408601516040517fba8c778f0000000000000000000000000000000000000000000000000000000081526001600160a01b038d8116600483015260248201959095526044810193909352606483019190915260848201529082169063ba8c778f9060a401600060405180830381600087803b158015611cae57600080fd5b505af1158015611cc2573d6000803e3d6000fd5b5050505060148201805460ff1916600317905550611d7d565b600382608001516005811115611d0157634e487b7160e01b600052602160045260246000fd5b1480611d305750600182608001516005811115611d2e57634e487b7160e01b600052602160045260246000fd5b145b15611d4b576014810180546004919060ff1916600183611a4e565b6040517f70ea4a3100000000000000000000000000000000000000000000000000000000815260040160405180910390fd5b6001600160a01b03871660008181526003602090815260408083209290925543601385015560e085015160a08087015160c088015185519687529386018c905293850191909152606084019290925260808301527feb7de2ff344b95e3e9be6f0a9c4463fa2b498062fa230c3f635a694855a2affe910160405180910390a1600194505050611e0c82826131b9565b505092915050565b6001600160a01b038116600090815260016020526040812054600f81810b810b600160801b909204810b900b1315611e78576001600160a01b038216600090815260016020526040902054600f81810b810b600160801b909204810b900b03611109565b506000919050565b919050565b6000611e946020830183614160565b6000611e9f82612c03565b9050611eae6020850185614160565b611eb88133612ece565b6000611ec76020870187614160565b6040516317ba7d8560e01b81527f8f5b4aabbdb8527d420a29cc90ae207773ad49b73c632c3cfd2f29eb8776f2ea60048201526001600160a01b0391909116906317ba7d859060240160206040518083038186803b158015611f2857600080fd5b505afa158015611f3c573d6000803e3d6000fd5b505050506040513d601f19601f82011682018060405250810190611f609190614183565b90506001600160a01b0381166396609c42611f7e6020890189614160565b6040517fffffffff0000000000000000000000000000000000000000000000000000000060e084901b1681526001600160a01b039091166004820152602401602060405180830381600087803b158015611fd757600080fd5b505af1158015611feb573d6000803e3d6000fd5b505050506040513d601f19601f8201168201806040525081019061200f91906142ee565b5060026001600160a01b038216630c916bae61202e60208a018a614160565b6040517fffffffff0000000000000000000000000000000000000000000000000000000060e084901b1681526001600160a01b03909116600482015260240160206040518083038186803b15801561208557600080fd5b505afa158015612099573d6000803e3d6000fd5b505050506040513d601f19601f820116820180604052508101906120bd9190614381565b60038111156120dc57634e487b7160e01b600052602160045260246000fd5b14801561218d57506120f16020870187614160565b604051634941d71d60e11b81527f533afc15b6312917b5e28e2272ea69d44e5ea8e00d3bd57cada1275c2f14c9e860048201526001600160a01b039190911690639283ae3a9060240160206040518083038186803b15801561215257600080fd5b505afa158015612166573d6000803e3d6000fd5b505050506040513d601f19601f8201168201806040525081019061218a9190614442565b42115b6121ff5760405162461bcd60e51b815260206004820152602c60248201527f4f6e6c792063616e207375626d69742070726f706f73616c20696e20696e766560448201527f7374696e6720706572696f6400000000000000000000000000000000000000006064820152608401610353565b61220c6020870187614160565b6001600160a01b031663776d13c56040518163ffffffff1660e01b8152600401600060405180830381600087803b15801561224657600080fd5b505af115801561225a573d6000803e3d6000fd5b505060408051602081019091526000815291506122749050565b6123316122846020890189614160565b60c01b61230c61229760208b018b614160565b6001600160a01b031663f1457aac6040518163ffffffff1660e01b815260040160206040518083038186803b1580156122cf57600080fd5b505afa1580156122e3573d6000803e3d6000fd5b505050506040513d601f19601f820116820180604052508101906123079190614442565b61376a565b60405160200161231d929190614544565b6040516020818303038152906040526138c0565b81526123406020880188614160565b81516040517fb73dc3890000000000000000000000000000000000000000000000000000000081526001600160a01b03929092169163b73dc3899161238b9160040190815260200190565b600060405180830381600087803b1580156123a557600080fd5b505af11580156123b9573d6000803e3d6000fd5b50600092506123ce9150506020890189614160565b604051634941d71d60e11b81527fb035c58a9b643066fc5cd78a708da0456c36221a03ca174ff3b76d4306ff7c6c60048201526001600160a01b039190911690639283ae3a9060240160206040518083038186803b15801561242f57600080fd5b505afa158015612443573d6000803e3d6000fd5b505050506040513d601f19601f820116820180604052508101906124679190614442565b836001600160a01b031663b0e21e8a6040518163ffffffff1660e01b815260040160206040518083038186803b1580156124a057600080fd5b505afa1580156124b4573d6000803e3d6000fd5b505050506040513d601f19601f820116820180604052508101906124d89190614442565b6124e2919061488f565b6124f490670de0b6b3a76400006148da565b61250a670de0b6b3a764000060408b01356148bb565b61251491906148a7565b6040805161016081018252919250819060e0820190819061253a908d0160208e01614160565b6001600160a01b031681526040808d01356020830152810185905260600161256860a08d0160808e01614160565b6001600160a01b031681525081526020016040518060a001604052808b60a001600001602081019061259a91906142d2565b151581526020016125b160e08d0160c08e01614160565b6001600160a01b0316815260e08c013560208201526101008c013560408201526060016125e66101408d016101208e01614160565b6001600160a01b031681525081526020016040518061012001604052808b806101400190612614919061481e565b3581526020016126286101408d018d61481e565b60209081013582520161263f6101408d018d61481e565b6040013581526020016126566101408d018d61481e565b60600135815260200161266d6101408d018d61481e565b6080013581526020016126846101408d018d61481e565b6126959060c081019060a0016142d2565b151581526020016126aa6101408d018d61481e565b6126bb9060e081019060c001614160565b6001600160a01b031681526020016126d76101408d018d61481e565b6126e59060e08101906147b4565b8080601f01602080910402602001604051908101604052809392919081815260200183838082843760009201919091525050509082525060200161272d6101408d018d61481e565b61273c906101008101906147b4565b8080601f01602080910402602001604051908101604052809392919081815260200183838082843760009201829052509390945250509183525060408051808201825282815260208181018490528401523390830152606082018190526080909101526000806127af60208c018c614160565b6001600160a01b0390811682526020808301939093526040918201600090812087518252845282902084518051825473ffffffffffffffffffffffffffffffffffffffff199081169185169190911783558186015160018401558185015160028401556060918201516003840180548316918616919091179055868601518051600485018054838a01517fffffffffffffffffffffff0000000000000000000000000000000000000000009182169315157fffffffffffffffffffffff0000000000000000000000000000000000000000ff90811694909417610100918a168202179092558389015160058801558386015160068801556080938401516007880180549096169089161790945589880151805160088801908155818b0151600989015598810151600a88015594850151600b87015591840151600c86015560a0840151600d8601805460c087015195169115159092161792909516021790925560e08201518051919492939261292d92600e870192909101906140bc565b50610100820151805161294a9160078401916020909101906140bc565b505050606082015180516010830155602001516011820155608082015160128201805473ffffffffffffffffffffffffffffffffffffffff19166001600160a01b0390921691909117905560a0820151601382015560c082015160148201805460ff191660018360048111156129d057634e487b7160e01b600052602160045260246000fd5b02179055506129e59150506020890189614160565b82516001600160a01b03919091169063815a2bf490612a0760208c018c614160565b6040516317ba7d8560e01b81527f907642cbfe4e58ddd14eaa320923fbe4c29721dd0950ae4cb3b2626e292791ae60048201526001600160a01b0391909116906317ba7d859060240160206040518083038186803b158015612a6857600080fd5b505afa158015612a7c573d6000803e3d6000fd5b505050506040513d601f19601f82011682018060405250810190612aa09190614183565b6040517fffffffff0000000000000000000000000000000000000000000000000000000060e085901b16815260048101929092526001600160a01b03166024820152604401600060405180830381600087803b158015612aff57600080fd5b505af1158015612b13573d6000803e3d6000fd5b50508351612b989250905060016000612b2f60208d018d614160565b6001600160a01b031681526020810191909152604001600020908154600160801b90819004600f90810b80820b820b6000908152600180870160205260409091209490945584549301900b6fffffffffffffffffffffffffffffffff9081169091029116179055565b7ffe22c13d0cc04eef2a813c30901da5f8cd64f5ba91866fccce71c606ce464874612bc660208a018a614160565b8351604080516001600160a01b03909316835260208301919091520160405180910390a16001965050505050612bfc82826131b9565b5050919050565b6040805160808101825260008082526020820181905291810182905260608101919091525a81600001818152505043826001600160a01b031663b21634826040518163ffffffff1660e01b815260040160206040518083038186803b158015612c6b57600080fd5b505afa158015612c7f573d6000803e3d6000fd5b505050506040513d601f19601f82011682018060405250810190612ca39190614442565b1415612cf15760405162461bcd60e51b815260206004820152601060248201527f7265656e7472616e6379206775617264000000000000000000000000000000006044820152606401610353565b816001600160a01b03166310fdb0a26040518163ffffffff1660e01b8152600401600060405180830381600087803b158015612d2c57600080fd5b505af1158015612d40573d6000803e3d6000fd5b50506040517f72c6838f0000000000000000000000000000000000000000000000000000000081527f1f2fd42ad6a6cacd573c4b212beb7a4e2499ad45d742a65337097f130e71daff6004820152600092506001600160a01b03851691506372c6838f9060240160206040518083038186803b158015612dbf57600080fd5b505afa158015612dd3573d6000803e3d6000fd5b505050506040513d601f19601f82011682018060405250810190612df79190614183565b90506001600160a01b038116612e135760006020830152612ec8565b6001600160a01b038181166060840181905283516040517f43a8a3f1000000000000000000000000000000000000000000000000000000008152928616600484015260248301526000918291906343a8a3f190604401604080518083038186803b158015612e8057600080fd5b505afa158015612e94573d6000803e3d6000fd5b505050506040513d601f19601f82011682018060405250810190612eb8919061430a565b9015156020860152604085015250505b50919050565b612ed88282611070565b612f245760405162461bcd60e51b815260206004820152600c60248201527f6f6e6c79476f7665726e6f7200000000000000000000000000000000000000006044820152606401610353565b5050565b6000612f478254600f81810b810b600160801b909204810b900b131590565b15612f7e576040517f3db2a12a00000000000000000000000000000000000000000000000000000000815260040160405180910390fd5b508054600f90810b810b900b60009081526001909101602052604090205490565b6000612fbe8254600f81810b810b600160801b909204810b900b131590565b15612ff5576040517f3db2a12a00000000000000000000000000000000000000000000000000000000815260040160405180910390fd5b508054600f90810b80820b820b600090815260018085016020526040822080549290558454920190920b6fffffffffffffffffffffffffffffffff167fffffffffffffffffffffffffffffffff000000000000000000000000000000009091161790915590565b6040516317ba7d8560e01b81527f3b8222b84816150ff171ef9b3356ce3d250b8e7c01c09c0208949acc0880db34600482015260009081906001600160a01b038816906317ba7d859060240160206040518083038186803b1580156130c057600080fd5b505afa1580156130d4573d6000803e3d6000fd5b505050506040513d601f19601f820116820180604052508101906130f89190614183565b6040517f54fcae87000000000000000000000000000000000000000000000000000000008152600481018690526001600160a01b0389811660248301528881166044830152878116606483015260848201869052919250908216906354fcae879060a401602060405180830381600087803b15801561317657600080fd5b505af115801561318a573d6000803e3d6000fd5b505050506040513d601f19601f820116820180604052508101906131ae91906142ee565b979650505050505050565b612f248282336138dc565b6000816001600160a01b03166348f7f2a36040518163ffffffff1660e01b815260040160206040518083038186803b1580156131ff57600080fd5b505afa158015613213573d6000803e3d6000fd5b505050506040513d601f19601f820116820180604052508101906132379190614183565b6001600160a01b0316638da5cb5b6040518163ffffffff1660e01b815260040160206040518083038186803b15801561326f57600080fd5b505afa158015613283573d6000803e3d6000fd5b505050506040513d601f19601f820116820180604052508101906111099190614183565b600080836001600160a01b031663a6f636416040518163ffffffff1660e01b815260040160006040518083038186803b1580156132e357600080fd5b505afa1580156132f7573d6000803e3d6000fd5b505050506040513d6000823e601f3d908101601f1916820160405261331f919081019061420b565b6040516317ba7d8560e01b81527f907642cbfe4e58ddd14eaa320923fbe4c29721dd0950ae4cb3b2626e292791ae600482015290915060009081906001600160a01b038716906317ba7d859060240160206040518083038186803b15801561338657600080fd5b505afa15801561339a573d6000803e3d6000fd5b505050506040513d601f19601f820116820180604052508101906133be9190614183565b905060005b83518160ff1610156135c857816001600160a01b03166324a2cceb8888878560ff168151811061340357634e487b7160e01b600052603260045260246000fd5b60200260200101516040518463ffffffff1660e01b8152600401613447939291906001600160a01b0393841681526020810192909252909116604082015260600190565b60206040518083038186803b15801561345f57600080fd5b505afa158015613473573d6000803e3d6000fd5b505050506040513d601f19601f8201168201806040525081019061349791906142ee565b1561357557816001600160a01b03166391d2fd538888878560ff16815181106134d057634e487b7160e01b600052603260045260246000fd5b60200260200101516040518463ffffffff1660e01b8152600401613514939291906001600160a01b0393841681526020810192909252909116604082015260600190565b60206040518083038186803b15801561352c57600080fd5b505afa158015613540573d6000803e3d6000fd5b505050506040513d601f19601f820116820180604052508101906135649190614412565b61356e908461485b565b92506135b6565b6135a987858360ff168151811061359c57634e487b7160e01b600052603260045260246000fd5b60200260200101516139ea565b6135b3908461485b565b92505b806135c08161496d565b9150506133c3565b509095945050505050565b6040516317ba7d8560e01b81527fbba99fd05ef530e2ad5cae360774c7ec6b1f135b279ab165354152f7dc991c1060048201526000906001600160a01b038416906317ba7d859060240160206040518083038186803b15801561363557600080fd5b505afa158015613649573d6000803e3d6000fd5b505050506040513d601f19601f8201168201806040525081019061366d9190614183565b6001600160a01b03808516600090815260208181526040808320878452825291829020825160c08101845260068201548152600882015492810192909252600981015482840152600a8101546060830152600b8101546080830152600c81015460a0830152600480820154601283015494517f24d1669d00000000000000000000000000000000000000000000000000000000815296975091959294808816946324d1669d94613731948c9461010090910484169392909216918b918991016145b2565b600060405180830381600087803b15801561374b57600080fd5b505af115801561375f573d6000803e3d6000fd5b505050505050505050565b6060816137aa57505060408051808201909152600181527f3000000000000000000000000000000000000000000000000000000000000000602082015290565b8160005b81156137d457806137be81614952565b91506137cd9050600a836148a7565b91506137ae565b60008167ffffffffffffffff8111156137fd57634e487b7160e01b600052604160045260246000fd5b6040519080825280601f01601f191660200182016040528015613827576020820181803683370190505b5090505b84156138b85761383c6001836148da565b9150613849600a8661498d565b61385490603061488f565b60f81b81838151811061387757634e487b7160e01b600052603260045260246000fd5b60200101907effffffffffffffffffffffffffffffffffffffffffffffffffffffffffffff1916908160001a9053506138b1600a866148a7565b945061382b565b949350505050565b60008151600014156138d457506000919050565b506020015190565b8160200151156139925781606001516001600160a01b0316635e5eb01384835a865161390891906148da565b60408088015190517fffffffff0000000000000000000000000000000000000000000000000000000060e087901b1681526001600160a01b03948516600482015293909216602484015260448301526064820152608401600060405180830381600087803b15801561397957600080fd5b505af115801561398d573d6000803e3d6000fd5b505050505b826001600160a01b031663d4f7af436040518163ffffffff1660e01b8152600401600060405180830381600087803b1580156139cd57600080fd5b505af11580156139e1573d6000803e3d6000fd5b50505050505050565b604051634941d71d60e11b81527feee23dc9ab95b6666db01c2b6cae6a5ef706099a25926e21e0a2e043fe885604600482015260009081906001600160a01b03851690639283ae3a9060240160206040518083038186803b158015613a4e57600080fd5b505afa158015613a62573d6000803e3d6000fd5b505050506040513d601f19601f82011682018060405250810190613a869190614442565b604051634941d71d60e11b81527fd093d4a34a12a221b19c0a6689d5449f1346aa769d15cca4e9782c36fda9339a60048201529091506000906001600160a01b03861690639283ae3a9060240160206040518083038186803b158015613aeb57600080fd5b505afa158015613aff573d6000803e3d6000fd5b505050506040513d601f19601f82011682018060405250810190613b239190614442565b6040516317ba7d8560e01b81527f8f5b4aabbdb8527d420a29cc90ae207773ad49b73c632c3cfd2f29eb8776f2ea60048201529091506000906001600160a01b038716906317ba7d859060240160206040518083038186803b158015613b8857600080fd5b505afa158015613b9c573d6000803e3d6000fd5b505050506040513d601f19601f82011682018060405250810190613bc09190614183565b6040517f68abb5e00000000000000000000000000000000000000000000000000000000081526001600160a01b0388811660048301529192506000918316906368abb5e09060240160206040518083038186803b158015613c2057600080fd5b505afa158015613c34573d6000803e3d6000fd5b505050506040513d601f19601f82011682018060405250810190613c589190614442565b11158015613cf357506040517fa230c5240000000000000000000000000000000000000000000000000000000081526001600160a01b03868116600483015287169063a230c5249060240160206040518083038186803b158015613cbb57600080fd5b505afa158015613ccf573d6000803e3d6000fd5b505050506040513d601f19601f82011682018060405250810190613cf391906142ee565b15613d045760019350505050611109565b8160011415613e2157600083613db157604051633de222bb60e21b81526001600160a01b0388811660048301528781166024830152670de0b6b3a7640000919084169063f7888aec9060440160206040518083038186803b158015613d6857600080fd5b505afa158015613d7c573d6000803e3d6000fd5b505050506040513d601f19601f82011682018060405250810190613da09190614442565b613daa91906148a7565b9050613dbe565b6000945050505050611109565b60008111613dd3576000945050505050611109565b677fffffffffffffff8110613def576032945050505050611109565b6000613e0a613e05613e0084613f8b565b613fa9565b6140a0565b67ffffffffffffffff169550611109945050505050565b8160021415613ed657600083613db157604051633de222bb60e21b81526001600160a01b03888116600483015287811660248301526000919084169063f7888aec9060440160206040518083038186803b158015613e7e57600080fd5b505afa158015613e92573d6000803e3d6000fd5b505050506040513d601f19601f82011682018060405250810190613eb69190614442565b11613ec2576000613ec5565b60015b60ff1690505b935061110992505050565b81613f7f57600083613db157604051633de222bb60e21b81526001600160a01b0388811660048301528781166024830152670de0b6b3a7640000919084169063f7888aec9060440160206040518083038186803b158015613f3657600080fd5b505afa158015613f4a573d6000803e3d6000fd5b505050506040513d601f19601f82011682018060405250810190613f6e9190614442565b613f7891906148a7565b9050613ecb565b60009350505050611109565b6000677fffffffffffffff821115613fa257600080fd5b5060401b90565b60008082600f0b13613fba57600080fd5b6000600f83900b680100000000000000008112613fd9576040918201911d5b6401000000008112613fed576020918201911d5b620100008112613fff576010918201911d5b6101008112614010576008918201911d5b60108112614020576004918201911d5b60048112614030576002918201911d5b6002811261403f576001820191505b7fffffffffffffffffffffffffffffffffffffffffffffffffffffffffffffffc0820160401b600f85900b607f8490031b6780000000000000005b60008113156135c85790800260ff81901c8281029390930192607f011c9060011d61407a565b60008082600f0b12156140b257600080fd5b50600f0b60401d90565b8280546140c89061491d565b90600052602060002090601f0160209004810192826140ea5760008555614130565b82601f1061410357805160ff1916838001178555614130565b82800160010185558215614130579182015b82811115614130578251825591602001919060010190614115565b5061413c929150614140565b5090565b5b8082111561413c5760008155600101614141565b8051611e80816149e3565b600060208284031215614171578081fd5b813561417c816149e3565b9392505050565b600060208284031215614194578081fd5b815161417c816149e3565b600080604083850312156141b1578081fd5b82356141bc816149e3565b946020939093013593505050565b6000806000606084860312156141de578081fd5b83356141e9816149e3565b9250602084013591506040840135614200816149e3565b809150509250925092565b6000602080838503121561421d578182fd5b825167ffffffffffffffff80821115614234578384fd5b818501915085601f830112614247578384fd5b815181811115614259576142596149cd565b8060051b604051601f19603f8301168101818110858211171561427e5761427e6149cd565b604052828152858101935084860182860187018a101561429c578788fd5b8795505b838610156142c5576142b181614155565b8552600195909501949386019386016142a0565b5098975050505050505050565b6000602082840312156142e3578081fd5b813561417c816149fb565b6000602082840312156142ff578081fd5b815161417c816149fb565b6000806040838503121561431c578182fd5b8251614327816149fb565b6020939093015192949293505050565b60008060408385031215614349578182fd5b8235614354816149e3565b91506020830135614364816149e3565b809150509250929050565b600080604083850312156141b1578182fd5b600060208284031215614392578081fd5b81516004811061417c578182fd5b6000806000606084860312156143b4578283fd5b8351600681106143c2578384fd5b602085015160409095015190969495509392505050565b6000602082840312156143ea578081fd5b813567ffffffffffffffff811115614400578182fd5b8201610160818503121561417c578182fd5b600060208284031215614423578081fd5b81516fffffffffffffffffffffffffffffffff8116811461417c578182fd5b600060208284031215614453578081fd5b5051919050565b600081518084526144728160208601602086016148f1565b601f01601f19169290920160200192915050565b600581106144a457634e487b7160e01b600052602160045260246000fd5b9052565b6000610120825184526020830151602085015260408301516040850152606083015160608501526080830151608085015260a08301516144ec60a086018215159052565b5060c083015161450760c08601826001600160a01b03169052565b5060e08301518160e086015261451f8286018261445a565b915050610100808401518583038287015261453a838261445a565b9695505050505050565b7fffffffffffffffff000000000000000000000000000000000000000000000000831681527f496e766573746d656e74230000000000000000000000000000000000000000006008820152600082516145a48160138501602087016148f1565b919091016013019392505050565b6000610140820190506001600160a01b03808816835260208188168185015281871660408501528560608501526080840191508460005b6006811015614606578151845292820192908201906001016145e9565b505050509695505050505050565b6001600160a01b03848116825261010082019060208084018660005b600381101561464f578151851683529183019190830190600101614630565b5050506080840191508460005b60048110156146795781518452928201929082019060010161465c565b50505050949350505050565b6001600160a01b0386811682526020820186905284811660408301528316606082015260a0810161453a6080830184614486565b6001600160a01b03841681528260208201526060604082015260006146e1606083018461445a565b95945050505050565b60006101e06001600160a01b03808b5116845260208b0151602085015260408b015160408501528060608c01511660608501528951151560808501528060208b01511660a085015260408a015160c085015260608a015160e08501528060808b0151166101008501525080610120840152614767818401896144a8565b8751610140850152602088015161016085015291506147839050565b6001600160a01b038516610180830152836101a08301526147a86101c0830184614486565b98975050505050505050565b60008083357fffffffffffffffffffffffffffffffffffffffffffffffffffffffffffffffe18436030181126147e8578283fd5b83018035915067ffffffffffffffff821115614802578283fd5b60200191503681900382131561481757600080fd5b9250929050565b600082357ffffffffffffffffffffffffffffffffffffffffffffffffffffffffffffffee1833603018112614851578182fd5b9190910192915050565b60006fffffffffffffffffffffffffffffffff808316818516808303821115614886576148866149a1565b01949350505050565b600082198211156148a2576148a26149a1565b500190565b6000826148b6576148b66149b7565b500490565b60008160001904831182151516156148d5576148d56149a1565b500290565b6000828210156148ec576148ec6149a1565b500390565b60005b8381101561490c5781810151838201526020016148f4565b83811115610ac45750506000910152565b600181811c9082168061493157607f821691505b60208210811415612ec857634e487b7160e01b600052602260045260246000fd5b6000600019821415614966576149666149a1565b5060010190565b600060ff821660ff811415614984576149846149a1565b60010192915050565b60008261499c5761499c6149b7565b500690565b634e487b7160e01b600052601160045260246000fd5b634e487b7160e01b600052601260045260246000fd5b634e487b7160e01b600052604160045260246000fd5b6001600160a01b03811681146149f857600080fd5b50565b80151581146149f857600080fdfea2646970667358221220e11e088219687252466ef85801f0cc110f45bd5f79621217244260ea11cf12b364736f6c63430008040033",
  "linkReferences": {},
  "deployedLinkReferences": {}
}