{
  "_format": "hh-sol-artifact-1",
  "contractName": "ColletiveFundRaiseProposalAdapterContract",
  "sourceName": "contracts/collective/adapters/CollectiveFundRaiseProposalAdapter.sol",
  "abi": [
    {
      "inputs": [],
      "name": "INVALID_PARAM",
      "type": "error"
    },
    {
      "inputs": [],
      "name": "LAST_NEW_FUND_PROPOSAL_NOT_FINISH",
      "type": "error"
    },
    {
      "inputs": [],
      "name": "UNEXECUTE",
      "type": "error"
    },
    {
      "inputs": [],
      "name": "VOTING_NOT_FINISH",
      "type": "error"
    },
    {
      "anonymous": false,
      "inputs": [
        {
          "indexed": false,
          "internalType": "address",
          "name": "daoAddr",
          "type": "address"
        },
        {
          "indexed": false,
          "internalType": "bytes32",
          "name": "proposalId",
          "type": "bytes32"
        }
      ],
      "name": "ProposalCreated",
      "type": "event"
    },
    {
      "anonymous": false,
      "inputs": [
        {
          "indexed": false,
          "internalType": "address",
          "name": "daoAddr",
          "type": "address"
        },
        {
          "indexed": false,
          "internalType": "bytes32",
          "name": "proposalId",
          "type": "bytes32"
        },
        {
          "indexed": false,
          "internalType": "enum ICollectiveFundRaise.ProposalState",
          "name": "state",
          "type": "uint8"
        },
        {
          "indexed": false,
          "internalType": "uint256",
          "name": "allVotingWeight",
          "type": "uint256"
        },
        {
          "indexed": false,
          "internalType": "uint256",
          "name": "nbYes",
          "type": "uint256"
        },
        {
          "indexed": false,
          "internalType": "uint256",
          "name": "nbNo",
          "type": "uint256"
        },
        {
          "indexed": false,
          "internalType": "uint256",
          "name": "voteResult",
          "type": "uint256"
        }
      ],
      "name": "proposalExecuted",
      "type": "event"
    },
    {
      "inputs": [
        {
          "internalType": "contract DaoRegistry",
          "name": "dao",
          "type": "address"
        }
      ],
      "name": "allDone",
      "outputs": [
        {
          "internalType": "bool",
          "name": "",
          "type": "bool"
        }
      ],
      "stateMutability": "view",
      "type": "function"
    },
    {
      "inputs": [
        {
          "internalType": "address",
          "name": "",
          "type": "address"
        }
      ],
      "name": "fundRaisingId",
      "outputs": [
        {
          "internalType": "uint256",
          "name": "",
          "type": "uint256"
        }
      ],
      "stateMutability": "view",
      "type": "function"
    },
    {
      "inputs": [
        {
          "internalType": "contract DaoRegistry",
          "name": "dao",
          "type": "address"
        },
        {
          "internalType": "bytes32",
          "name": "proposalId",
          "type": "bytes32"
        }
      ],
      "name": "getPriorityDepositeWhiteList",
      "outputs": [
        {
          "internalType": "address[]",
          "name": "",
          "type": "address[]"
        }
      ],
      "stateMutability": "view",
      "type": "function"
    },
    {
      "inputs": [
        {
          "internalType": "contract DaoRegistry",
          "name": "dao",
          "type": "address"
        },
        {
          "internalType": "address",
          "name": "_addr",
          "type": "address"
        }
      ],
      "name": "isActiveMember",
      "outputs": [
        {
          "internalType": "bool",
          "name": "",
          "type": "bool"
        }
      ],
      "stateMutability": "view",
      "type": "function"
    },
    {
      "inputs": [
        {
          "internalType": "contract DaoRegistry",
          "name": "dao",
          "type": "address"
        },
        {
          "internalType": "bytes32",
          "name": "proposalId",
          "type": "bytes32"
        },
        {
          "internalType": "address",
          "name": "account",
          "type": "address"
        }
      ],
      "name": "isPriorityDepositer",
      "outputs": [
        {
          "internalType": "bool",
          "name": "",
          "type": "bool"
        }
      ],
      "stateMutability": "view",
      "type": "function"
    },
    {
      "inputs": [
        {
          "internalType": "address",
          "name": "",
          "type": "address"
        }
      ],
      "name": "lastProposalIds",
      "outputs": [
        {
          "internalType": "bytes32",
          "name": "",
          "type": "bytes32"
        }
      ],
      "stateMutability": "view",
      "type": "function"
    },
    {
      "inputs": [
        {
          "internalType": "contract DaoRegistry",
          "name": "dao",
          "type": "address"
        },
        {
          "internalType": "bytes32",
          "name": "proposalId",
          "type": "bytes32"
        }
      ],
      "name": "processProposal",
      "outputs": [],
      "stateMutability": "nonpayable",
      "type": "function"
    },
    {
      "inputs": [
        {
          "internalType": "contract DaoRegistry",
          "name": "",
          "type": "address"
        },
        {
          "internalType": "bytes32",
          "name": "",
          "type": "bytes32"
        }
      ],
      "name": "proposals",
      "outputs": [
        {
          "components": [
            {
              "internalType": "uint256",
              "name": "startTime",
              "type": "uint256"
            },
            {
              "internalType": "uint256",
              "name": "endTime",
              "type": "uint256"
            }
          ],
          "internalType": "struct ICollectiveFundRaise.FundRaiseTimeInfo",
          "name": "timeInfo",
          "type": "tuple"
        },
        {
          "components": [
            {
              "internalType": "address",
              "name": "tokenAddress",
              "type": "address"
            },
            {
              "internalType": "uint256",
              "name": "miniTarget",
              "type": "uint256"
            },
            {
              "internalType": "uint256",
              "name": "maxCap",
              "type": "uint256"
            },
            {
              "internalType": "uint256",
              "name": "miniDeposit",
              "type": "uint256"
            },
            {
              "internalType": "uint256",
              "name": "maxDeposit",
              "type": "uint256"
            }
          ],
          "internalType": "struct ICollectiveFundRaise.FundInfo",
          "name": "fundInfo",
          "type": "tuple"
        },
        {
          "components": [
            {
              "internalType": "bool",
              "name": "enable",
              "type": "bool"
            },
            {
              "internalType": "uint8",
              "name": "valifyType",
              "type": "uint8"
            },
            {
              "internalType": "address",
              "name": "tokenAddress",
              "type": "address"
            },
            {
              "internalType": "uint256",
              "name": "tokenId",
              "type": "uint256"
            },
            {
              "internalType": "uint256",
              "name": "miniHolding",
              "type": "uint256"
            },
            {
              "internalType": "address[]",
              "name": "whitelist",
              "type": "address[]"
            }
          ],
          "internalType": "struct ICollectiveFundRaise.PriorityDepositorInfo",
          "name": "priorityDepositor",
          "type": "tuple"
        },
        {
          "internalType": "uint8",
          "name": "fundRaiseType",
          "type": "uint8"
        },
        {
          "internalType": "enum ICollectiveFundRaise.ProposalState",
          "name": "state",
          "type": "uint8"
        },
        {
          "internalType": "uint256",
          "name": "creationTime",
          "type": "uint256"
        },
        {
          "internalType": "uint256",
          "name": "stopVoteTime",
          "type": "uint256"
        }
      ],
      "stateMutability": "view",
      "type": "function"
    },
    {
      "inputs": [
        {
          "components": [
            {
              "internalType": "contract DaoRegistry",
              "name": "dao",
              "type": "address"
            },
            {
              "internalType": "uint8",
              "name": "fundRaiseType",
              "type": "uint8"
            },
            {
              "components": [
                {
                  "internalType": "address",
                  "name": "tokenAddress",
                  "type": "address"
                },
                {
                  "internalType": "uint256",
                  "name": "miniTarget",
                  "type": "uint256"
                },
                {
                  "internalType": "uint256",
                  "name": "maxCap",
                  "type": "uint256"
                },
                {
                  "internalType": "uint256",
                  "name": "miniDeposit",
                  "type": "uint256"
                },
                {
                  "internalType": "uint256",
                  "name": "maxDeposit",
                  "type": "uint256"
                }
              ],
              "internalType": "struct ICollectiveFundRaise.FundInfo",
              "name": "fundInfo",
              "type": "tuple"
            },
            {
              "components": [
                {
                  "internalType": "uint256",
                  "name": "startTime",
                  "type": "uint256"
                },
                {
                  "internalType": "uint256",
                  "name": "endTime",
                  "type": "uint256"
                }
              ],
              "internalType": "struct ICollectiveFundRaise.FundRaiseTimeInfo",
              "name": "timeInfo",
              "type": "tuple"
            },
            {
              "components": [
                {
                  "internalType": "bool",
                  "name": "enable",
                  "type": "bool"
                },
                {
                  "internalType": "uint8",
                  "name": "valifyType",
                  "type": "uint8"
                },
                {
                  "internalType": "address",
                  "name": "tokenAddress",
                  "type": "address"
                },
                {
                  "internalType": "uint256",
                  "name": "tokenId",
                  "type": "uint256"
                },
                {
                  "internalType": "uint256",
                  "name": "miniHolding",
                  "type": "uint256"
                },
                {
                  "internalType": "address[]",
                  "name": "whitelist",
                  "type": "address[]"
                }
              ],
              "internalType": "struct ICollectiveFundRaise.PriorityDepositorInfo",
              "name": "priorityDepositor",
              "type": "tuple"
            }
          ],
          "internalType": "struct ICollectiveFundRaise.ProposalParams",
          "name": "params",
          "type": "tuple"
        }
      ],
      "name": "submitProposal",
      "outputs": [
        {
          "internalType": "bool",
          "name": "",
          "type": "bool"
        }
      ],
      "stateMutability": "nonpayable",
      "type": "function"
    }
  ],
  "bytecode": "0x608060405234801561001057600080fd5b506143f0806100206000396000f3fe608060405234801561001057600080fd5b50600436106100a35760003560e01c80636d3cc040116100765780639573167d1161005b5780639573167d1461016a578063baf175bc1461017f578063e956369e1461019257600080fd5b80636d3cc040146101445780638ecf77201461015757600080fd5b806301c22a3d146100a8578063315b39eb146100db5780635cb75276146100fb578063642fc0c014610121575b600080fd5b6100c86100b6366004613c52565b60036020526000908152604090205481565b6040519081526020015b60405180910390f35b6100ee6100e9366004613e06565b6101b2565b6040516100d291906140a6565b61010e610109366004613e06565b6101e8565b6040516100d29796959493929190614103565b61013461012f366004613c52565b61032d565b60405190151581526020016100d2565b610134610152366004613e31565b610364565b610134610165366004613dce565b610914565b61017d610178366004613e06565b6109aa565b005b61013461018d366004613eca565b611105565b6100c86101a0366004613c52565b60046020526000908152604090205481565b6001600160a01b03821660009081526020818152604080832084845290915290206060906101df906123b3565b90505b92915050565b600160208181526000938452604080852082529284529282902082518084018452815481529181015482850152825160a0808201855260028301546001600160a01b03908116835260038401548388015260048401548387015260058401546060808501919091526006850154608080860191909152875160c08101895260078701805460ff80821615158452610100820416838d0152620100009004909416818a0152600887015492810192909252600986015490820152600a850180548851818b0281018b01909952808952969894979596919592949386019390919083018282801561030057602002820191906000526020600020905b81546001600160a01b031681526001909101906020018083116102e2575b50505091909252505050600b820154600c830154600d90930154919260ff80831693610100909304169187565b6001600160a01b03811660009081526002602052604081208190610350906123c0565b1161035c5760016101e2565b600092915050565b604051634941d71d60e11b81527f87f768842f3bb4c7742d189f32b11c2bf0d7f4a6bad0b4b7a45937b15319e9fb60048201526000906001600160a01b03851690639283ae3a9060240160206040518083038186803b1580156103c657600080fd5b505afa1580156103da573d6000803e3d6000fd5b505050506040513d601f19601f820116820180604052508101906103fe9190613db6565b6001141561090957604051634941d71d60e11b81527f5cd8f6e95e052e3c0e0cc859654925ecc6c0d54b86a47d5ab47f1e8fc71daad960048201526000906001600160a01b03861690639283ae3a9060240160206040518083038186803b15801561046857600080fd5b505afa15801561047c573d6000803e3d6000fd5b505050506040513d601f19601f820116820180604052508101906104a09190613db6565b6040517ffd310d290000000000000000000000000000000000000000000000000000000081527f6468a9b13d5f0011479da2d9211ad507a42070e4a58df895adf3136147416db260048201529091506000906001600160a01b0387169063fd310d299060240160206040518083038186803b15801561051e57600080fd5b505afa158015610532573d6000803e3d6000fd5b505050506040513d601f19601f820116820180604052508101906105569190613c6e565b604051634941d71d60e11b81527f0ebc415f2a9c53ba3b90c65925f402605b16daf54b8f18bc2a4ac5cf2026ff5360048201529091506000906001600160a01b03881690639283ae3a9060240160206040518083038186803b1580156105bb57600080fd5b505afa1580156105cf573d6000803e3d6000fd5b505050506040513d601f19601f820116820180604052508101906105f39190613db6565b604051634941d71d60e11b81527f52cf9e13c44455102d3bdf6a2d2539e3a78562a7c366394927a7d6cff60a27a660048201529091506000906001600160a01b03891690639283ae3a9060240160206040518083038186803b15801561065857600080fd5b505afa15801561066c573d6000803e3d6000fd5b505050506040513d601f19601f820116820180604052508101906106909190613db6565b90508315801561073357506040517f70a082310000000000000000000000000000000000000000000000000000000081526001600160a01b0387811660048301528391908516906370a082319060240160206040518083038186803b1580156106f857600080fd5b505afa15801561070c573d6000803e3d6000fd5b505050506040513d601f19601f820116820180604052508101906107309190613db6565b10155b1561074557600194505050505061090d565b8360011480156107e857506040517f70a082310000000000000000000000000000000000000000000000000000000081526001600160a01b0387811660048301528391908516906370a082319060240160206040518083038186803b1580156107ad57600080fd5b505afa1580156107c1573d6000803e3d6000fd5b505050506040513d601f19601f820116820180604052508101906107e59190613db6565b10155b156107fa57600194505050505061090d565b8360021480156108a257506040517efdd58e0000000000000000000000000000000000000000000000000000000081526001600160a01b0387811660048301526024820183905283919085169062fdd58e9060440160206040518083038186803b15801561086757600080fd5b505afa15801561087b573d6000803e3d6000fd5b505050506040513d601f19601f8201168201806040525081019061089f9190613db6565b10155b156108b457600194505050505061090d565b8360031480156108ea57506001600160a01b0388166000908152602081815260408083208a845290915290206108ea90876123ca565b156108fc57600194505050505061090d565b600094505050505061090d565b5060005b9392505050565b6040517fa230c5240000000000000000000000000000000000000000000000000000000081526001600160a01b0382811660048301526000919084169063a230c5249060240160206040518083038186803b15801561097257600080fd5b505afa158015610986573d6000803e3d6000fd5b505050506040513d601f19601f820116820180604052508101906101df9190613d6d565b8160006109b6826123ec565b90506109c0613aa0565b6001600160a01b03851660008181526001602090815260408083208884529091529081902090517f30490e91000000000000000000000000000000000000000000000000000000008152600481018790529091906330490e9190602401600060405180830381600087803b158015610a3757600080fd5b505af1158015610a4b573d6000803e3d6000fd5b50506040516317ba7d8560e01b81527f8f5b4aabbdb8527d420a29cc90ae207773ad49b73c632c3cfd2f29eb8776f2ea60048201526001600160a01b03891692506317ba7d85915060240160206040518083038186803b158015610aae57600080fd5b505afa158015610ac2573d6000803e3d6000fd5b505050506040513d601f19601f82011682018060405250810190610ae69190613c6e565b6001600160a01b0390811683526040517f40de703e00000000000000000000000000000000000000000000000000000000815260048101879052908716906340de703e9060240160206040518083038186803b158015610b4557600080fd5b505afa158015610b59573d6000803e3d6000fd5b505050506040513d601f19601f82011682018060405250810190610b7d9190613c6e565b6001600160a01b031660208301819052610bde5760405162461bcd60e51b815260206004820152601860248201527f766f74696e672061646170746572206e6f7420666f756e64000000000000000060448201526064015b60405180910390fd5b60208201516040517f76225e730000000000000000000000000000000000000000000000000000000081526001600160a01b03888116600483015260248201889052909116906376225e739060440160606040518083038186803b158015610c4557600080fd5b505afa158015610c59573d6000803e3d6000fd5b505050506040513d601f19601f82011682018060405250810190610c7d9190613e91565b608085018190526060850182905260408501836005811115610caf57634e487b7160e01b600052602160045260246000fd5b6005811115610cce57634e487b7160e01b600052602160045260246000fd5b90525060029150610cdc9050565b82604001516005811115610d0057634e487b7160e01b600052602160045260246000fd5b1415610f7757600b8101805461ff0019166101009081179091556040805161012081018252835460e082019081526001850154828501528152815160a0808201845260028601546001600160a01b03908116835260038701546020808501919091526004880154848701526005880154606080860191909152600689015460808087019190915282870195909552865160c08101885260078a01805460ff808216151584529a8104909a16828501526201000090990490931683880152600889015490830152600988015493820193909352600a870180548651818602810186018852818152610eb5988f988b979089019691949186019390830182828015610e3257602002820191906000526020600020905b81546001600160a01b03168152600190910190602001808311610e14575b505050919092525050508152600b82015460ff8082166020840152604090920191610100909104166003811115610e7957634e487b7160e01b600052602160045260246000fd5b6003811115610e9857634e487b7160e01b600052602160045260246000fd5b8152602001600c8201548152602001600d820154815250506126b7565b6001600160a01b0386166000908152600460205260408120805460019290610ede908490614276565b909155505081516040517ff10e6b6b0000000000000000000000000000000000000000000000000000000081526001600160a01b0388811660048301529091169063f10e6b6b90602401600060405180830381600087803b158015610f4257600080fd5b505af1158015610f56573d6000803e3d6000fd5b505050600b820180546002925061ff001916610100835b021790555061101b565b600382604001516005811115610f9d57634e487b7160e01b600052602160045260246000fd5b1480610fcc5750600182604001516005811115610fca57634e487b7160e01b600052602160045260246000fd5b145b15610fe957600b810180546003919061ff00191661010083610f6d565b6040517f70fc772800000000000000000000000000000000000000000000000000000000815260040160405180910390fd5b6001600160a01b038616600090815260026020526040902061103d9086612887565b15611066576001600160a01b0386166000908152600260205260409020611064908661289f565b505b6000611071876128ab565b90507fdcc911819967718b3aa2f12f31ede4b5b207e7a5c1b86cbfa291fe31dee26644878784600b0160019054906101000a900460ff168487606001518860800151896040015160058111156110d757634e487b7160e01b600052602160045260246000fd5b6040516110ea979695949392919061404c565b60405180910390a15050506110ff828261298f565b50505050565b60006111146020830183613c52565b600061111f826123ec565b905061112e6020850185613c52565b611138813361299a565b6040805160e081018252600080825260208201819052918101829052606081018290526080810182905260a0810182905260c0810191909152600060038161118360208a018a613c52565b6001600160a01b03166001600160a01b03168152602001908152602001600020541415801561130b57506000600160006111c060208a018a613c52565b6001600160a01b03166001600160a01b031681526020019081526020016000206000600360008a60000160208101906111f99190613c52565b6001600160a01b03166001600160a01b03168152602001908152602001600020548152602001908152602001600020600b0160019054906101000a900460ff16600381111561125857634e487b7160e01b600052602160045260246000fd5b148061130b5750600180600061127160208a018a613c52565b6001600160a01b03166001600160a01b031681526020019081526020016000206000600360008a60000160208101906112aa9190613c52565b6001600160a01b03166001600160a01b03168152602001908152602001600020548152602001908152602001600020600b0160019054906101000a900460ff16600381111561130957634e487b7160e01b600052602160045260246000fd5b145b15611342576040517fc49f1f0a00000000000000000000000000000000000000000000000000000000815260040160405180910390fd5b61134f6020870187613c52565b6040516317ba7d8560e01b81527fdac6d9ce728ebc92a61253866b4e5a4c73b76ba0aa11e7297a633f6232f5423760048201526001600160a01b0391909116906317ba7d859060240160206040518083038186803b1580156113b057600080fd5b505afa1580156113c4573d6000803e3d6000fd5b505050506040513d601f19601f820116820180604052508101906113e89190613c6e565b6001600160a01b0316808252639a0242fc6114066020890189613c52565b6040516001600160e01b031960e084901b1681526001600160a01b03909116600482015260240160206040518083038186803b15801561144557600080fd5b505afa158015611459573d6000803e3d6000fd5b505050506040513d601f19601f8201168201806040525081019061147d9190613d6d565b6114c95760405162461bcd60e51b815260206004820152601660248201527f44616f5365742050726f706f73616c20556e646f6e65000000000000000000006044820152606401610bd5565b6114d66020870187613c52565b6040516317ba7d8560e01b81527f72894213a5c7f56b36b2947fa6ea18963d6bb1a68746b46d7f552cca76e1a7a860048201526001600160a01b0391909116906317ba7d859060240160206040518083038186803b15801561153757600080fd5b505afa15801561154b573d6000803e3d6000fd5b505050506040513d601f19601f8201168201806040525081019061156f9190613c6e565b6001600160a01b03166040820181905260009063a5d6fb1361159460208a018a613c52565b6040516001600160e01b031960e084901b1681526001600160a01b03909116600482015260240160206040518083038186803b1580156115d357600080fd5b505afa1580156115e7573d6000803e3d6000fd5b505050506040513d601f19601f8201168201806040525081019061160b9190613db6565b111580156116b0575060408101516000906001600160a01b03166362e86df561163760208a018a613c52565b6040516001600160e01b031960e084901b1681526001600160a01b03909116600482015260240160206040518083038186803b15801561167657600080fd5b505afa15801561168a573d6000803e3d6000fd5b505050506040513d601f19601f820116820180604052508101906116ae9190613db6565b145b6116fc5760405162461bcd60e51b815260206004820152601a60248201527f556e646f6e6520496e766573746d656e742050726f706f73616c0000000000006044820152606401610bd5565b6117096020870187613c52565b6040516317ba7d8560e01b81527f8f5b4aabbdb8527d420a29cc90ae207773ad49b73c632c3cfd2f29eb8776f2ea60048201526001600160a01b0391909116906317ba7d859060240160206040518083038186803b15801561176a57600080fd5b505afa15801561177e573d6000803e3d6000fd5b505050506040513d601f19601f820116820180604052508101906117a29190613c6e565b6001600160a01b031660608201819052600190630c916bae6117c760208a018a613c52565b6040516001600160e01b031960e084901b1681526001600160a01b03909116600482015260240160206040518083038186803b15801561180657600080fd5b505afa15801561181a573d6000803e3d6000fd5b505050506040513d601f19601f8201168201806040525081019061183e9190613e72565b600381111561185d57634e487b7160e01b600052602160045260246000fd5b1415611895576040517f997cddba00000000000000000000000000000000000000000000000000000000815260040160405180910390fd5b80606001516001600160a01b031663b0e21e8a6040518163ffffffff1660e01b815260040160206040518083038186803b1580156118d257600080fd5b505afa1580156118e6573d6000803e3d6000fd5b505050506040513d601f19601f8201168201806040525081019061190a9190613db6565b60c0820152606086013515806119355750608086013515801590611935575060608601356080870135105b8061193e575060005b8061195f575060c08601351580159061195f575060a086013560c087013511155b8061196d57504260e0870135105b80611980575060e0860135610100870135105b156119b7576040517f22ee6ae700000000000000000000000000000000000000000000000000000000815260040160405180910390fd5b6119c46020870187613c52565b6001600160a01b0316630b9411ba6040518163ffffffff1660e01b8152600401600060405180830381600087803b1580156119fe57600080fd5b505af1158015611a12573d6000803e3d6000fd5b50611ad59250611a289150506020880188613c52565b60c01b611ab0611a3b60208a018a613c52565b6001600160a01b031663a25950c56040518163ffffffff1660e01b815260040160206040518083038186803b158015611a7357600080fd5b505afa158015611a87573d6000803e3d6000fd5b505050506040513d601f19601f82011682018060405250810190611aab9190613db6565b6129f0565b604051602001611ac1929190613fde565b604051602081830303815290604052612b46565b602080830191909152604080516101208101825260e089810135908201908152610100808b0135908301528152815160a08101835290928301918190611b219060608c01908c01613c52565b6001600160a01b03168152602001896040016020013581526020018960400160400135815260200189604001606001358152602001896040016080013581525081526020016040518060c0016040528089806101200190611b829190614205565b611b90906020810190613d51565b15158152602001611ba56101208b018b614205565b611bb6906040810190602001613f03565b60ff168152602001611bcc6101208b018b614205565b611bdd906060810190604001613c52565b6001600160a01b03168152602001611bf96101208b018b614205565b606001358152602001611c106101208b018b614205565b608001358152602001611c276101208b018b614205565b611c359060a0810190614198565b8080602002602001604051908101604052809392919081815260200183836020028082843760009201919091525050509152508152602090810190611c809060408a01908a01613f03565b60ff16815260200160008152602001428152602001876000016020810190611ca89190613c52565b604051634941d71d60e11b81527f9876c0f0505bfb2b1c38d3bbd25ba13159172cd0868972d76927723f5a9480fc60048201526001600160a01b039190911690639283ae3a9060240160206040518083038186803b158015611d0957600080fd5b505afa158015611d1d573d6000803e3d6000fd5b505050506040513d601f19601f82011682018060405250810190611d419190613db6565b611d4b9042614276565b905260016000611d5e60208a018a613c52565b6001600160a01b03908116825260208083019390935260409182016000908120868501518252845282902084518051825584015160018201558484015180516002830180547fffffffffffffffffffffffff00000000000000000000000000000000000000001691851691909117905580850151600383015580840151600483015560608082015160058401556080918201516006840155868501518051600785018054838a01519884015161ffff1990911692151561ff0019169290921761010060ff90991698909802979097177fffffffffffffffffffff0000000000000000000000000000000000000000ffff166201000091909616029490941785558301516008830155820151600982015560a082015180519194929392611e8c92600a87019290910190613ae2565b5050506060820151600b8201805460ff9092167fffffffffffffffffffffffffffffffffffffffffffffffffffffffffffffff0083168117825560808501519261ffff191617610100836003811115611ef557634e487b7160e01b600052602160045260246000fd5b021790555060a0820151600c82015560c090910151600d909101556000611f20610120880188614205565b611f2e9060a0810190614198565b9050111561200a5760005b611f47610120880188614205565b611f559060a0810190614198565b90508160ff16101561200857611ff5611f72610120890189614205565b611f809060a0810190614198565b8360ff16818110611fa157634e487b7160e01b600052603260045260246000fd5b9050602002016020810190611fb69190613c52565b600080611fc660208c018c613c52565b6001600160a01b0316815260208082019290925260409081016000908120878401518252909252902090612b62565b50806120008161431e565b915050611f39565b505b6120176020870187613c52565b6001600160a01b031663b73dc38982602001516040518263ffffffff1660e01b815260040161204891815260200190565b600060405180830381600087803b15801561206257600080fd5b505af1158015612076573d6000803e3d6000fd5b50612088925050506020870187613c52565b6001600160a01b031663815a2bf482602001518860000160208101906120ae9190613c52565b6040516317ba7d8560e01b81527f907642cbfe4e58ddd14eaa320923fbe4c29721dd0950ae4cb3b2626e292791ae60048201526001600160a01b0391909116906317ba7d859060240160206040518083038186803b15801561210f57600080fd5b505afa158015612123573d6000803e3d6000fd5b505050506040513d601f19601f820116820180604052508101906121479190613c6e565b6040516001600160e01b031960e085901b16815260048101929092526001600160a01b03166024820152604401600060405180830381600087803b15801561218e57600080fd5b505af11580156121a2573d6000803e3d6000fd5b50600092506121b79150506020880188613c52565b6040516317ba7d8560e01b81527f907642cbfe4e58ddd14eaa320923fbe4c29721dd0950ae4cb3b2626e292791ae60048201526001600160a01b0391909116906317ba7d859060240160206040518083038186803b15801561221857600080fd5b505afa15801561222c573d6000803e3d6000fd5b505050506040513d601f19601f820116820180604052508101906122509190613c6e565b90506001600160a01b038116632b0974d061226e60208a018a613c52565b60208086015160408051928301815260008352516001600160e01b031960e086901b1681526122a19392906004016140b9565b600060405180830381600087803b1580156122bb57600080fd5b505af11580156122cf573d6000803e3d6000fd5b505050506123118260200151600260008a60000160208101906122f29190613c52565b6001600160a01b03168152602081019190915260400160002090612b77565b506020808301519060039060009061232b908b018b613c52565b6001600160a01b03168152602080820192909252604001600020919091557ffe22c13d0cc04eef2a813c30901da5f8cd64f5ba91866fccce71c606ce4648749061237790890189613c52565b602080850151604080516001600160a01b039094168452918301520160405180910390a1600195505050506123ac828261298f565b5050919050565b6060600061090d83612b83565b60006101e2825490565b6001600160a01b038116600090815260018301602052604081205415156101df565b6040805160808101825260008082526020820181905291810182905260608101919091525a81600001818152505043826001600160a01b031663b21634826040518163ffffffff1660e01b815260040160206040518083038186803b15801561245457600080fd5b505afa158015612468573d6000803e3d6000fd5b505050506040513d601f19601f8201168201806040525081019061248c9190613db6565b14156124da5760405162461bcd60e51b815260206004820152601060248201527f7265656e7472616e6379206775617264000000000000000000000000000000006044820152606401610bd5565b816001600160a01b03166310fdb0a26040518163ffffffff1660e01b8152600401600060405180830381600087803b15801561251557600080fd5b505af1158015612529573d6000803e3d6000fd5b50506040517f72c6838f0000000000000000000000000000000000000000000000000000000081527f1f2fd42ad6a6cacd573c4b212beb7a4e2499ad45d742a65337097f130e71daff6004820152600092506001600160a01b03851691506372c6838f9060240160206040518083038186803b1580156125a857600080fd5b505afa1580156125bc573d6000803e3d6000fd5b505050506040513d601f19601f820116820180604052508101906125e09190613c6e565b90506001600160a01b0381166125fc57600060208301526126b1565b6001600160a01b038181166060840181905283516040517f43a8a3f1000000000000000000000000000000000000000000000000000000008152928616600484015260248301526000918291906343a8a3f190604401604080518083038186803b15801561266957600080fd5b505afa15801561267d573d6000803e3d6000fd5b505050506040513d601f19601f820116820180604052508101906126a19190613d89565b9015156020860152604085015250505b50919050565b6060810151604051630da0f6c760e41b81527ff301d5aec67a9d816d38f9b645cac1e79a3308ff9803564bbe63a862db82f46b600482015260ff90911660248201526001600160a01b0383169063da0f6c7090604401600060405180830381600087803b15801561272757600080fd5b505af115801561273b573d6000803e3d6000fd5b50505050612789826040518060800160405280846020015160200151815260200184602001516040015181526020018460200151606001518152602001846020015160800151815250612bdf565b6040805180820190915281515181528151602090810151908201526127af908390612e02565b6020810151516040517f3b4f921a0000000000000000000000000000000000000000000000000000000081527f7fa36390a0e9b8b8004035572fd8345b1128cea12d1763a1baf8fbd4fb7b202760048201526001600160a01b03918216602482015290831690633b4f921a90604401600060405180830381600087803b15801561283857600080fd5b505af115801561284c573d6000803e3d6000fd5b5050505060408101515115612883576040808201516020810151918101516060820151608090920151612883938693909291612ebe565b5050565b600081815260018301602052604081205415156101df565b60006101df8383613161565b600080826001600160a01b031663a6f636416040518163ffffffff1660e01b815260040160006040518083038186803b1580156128e757600080fd5b505afa1580156128fb573d6000803e3d6000fd5b505050506040513d6000823e601f3d908101601f191682016040526129239190810190613c8a565b90506000805b82518160ff1610156129875761296985848360ff168151811061295c57634e487b7160e01b600052603260045260246000fd5b602002602001015161327e565b6129739083614242565b91508061297f8161431e565b915050612929565b509392505050565b61288382823361381f565b6129a48282610914565b6128835760405162461bcd60e51b815260206004820152600c60248201527f6f6e6c79476f7665726e6f7200000000000000000000000000000000000000006044820152606401610bd5565b606081612a3057505060408051808201909152600181527f3000000000000000000000000000000000000000000000000000000000000000602082015290565b8160005b8115612a5a5780612a44816142e5565b9150612a539050600a8361428e565b9150612a34565b60008167ffffffffffffffff811115612a8357634e487b7160e01b600052604160045260246000fd5b6040519080825280601f01601f191660200182016040528015612aad576020820181803683370190505b5090505b8415612b3e57612ac26001836142a2565b9150612acf600a8661433e565b612ada906030614276565b60f81b818381518110612afd57634e487b7160e01b600052603260045260246000fd5b60200101907effffffffffffffffffffffffffffffffffffffffffffffffffffffffffffff1916908160001a905350612b37600a8661428e565b9450612ab1565b949350505050565b6000815160001415612b5a57506000919050565b506020015190565b60006101df836001600160a01b038416613915565b60006101df8383613915565b606081600001805480602002602001604051908101604052809291908181526020018280548015612bd357602002820191906000526020600020905b815481526020019060010190808311612bbf575b50505050509050919050565b8051604051630da0f6c760e41b81527f31af571e53636dddd77f772cce9d30b42075760f2da731636acc6962da2fbef8600482015260248101919091526001600160a01b0383169063da0f6c7090604401600060405180830381600087803b158015612c4a57600080fd5b505af1158015612c5e573d6000803e3d6000fd5b5050506020820151604051630da0f6c760e41b81527f7e07fb4530796d057ca1d76d83f47aa8629dbb7e942ac28f30ad6f5e9e8d4189600482015260248101919091526001600160a01b038416915063da0f6c7090604401600060405180830381600087803b158015612cd057600080fd5b505af1158015612ce4573d6000803e3d6000fd5b5050506040808301519051630da0f6c760e41b81527fbdd40865e74210f0a46799ae63462c62010da92014a08cbc32f1d049d0a22c6b600482015260248101919091526001600160a01b038416915063da0f6c7090604401600060405180830381600087803b158015612d5657600080fd5b505af1158015612d6a573d6000803e3d6000fd5b5050506001600160a01b038316905063da0f6c707f5fa39c8100b49336846e52d39403e353bf782275f905a885f09224779ff1c9248360035b60200201516040516001600160e01b031960e085901b16815260048101929092526024820152604401600060405180830381600087803b158015612de657600080fd5b505af1158015612dfa573d6000803e3d6000fd5b505050505050565b8051604051630da0f6c760e41b81527fbd04d44792b7dbfe3b50b0f9f2006f7ef449e374a39021cb9bfa7cd0bdd850d7600482015260248101919091526001600160a01b0383169063da0f6c7090604401600060405180830381600087803b158015612e6d57600080fd5b505af1158015612e81573d6000803e3d6000fd5b5050506001600160a01b038316905063da0f6c707f533afc15b6312917b5e28e2272ea69d44e5ea8e00d3bd57cada1275c2f14c9e8836001612da3565b604051630da0f6c760e41b81527f87f768842f3bb4c7742d189f32b11c2bf0d7f4a6bad0b4b7a45937b15319e9fb6004820152600160248201526001600160a01b0386169063da0f6c7090604401600060405180830381600087803b158015612f2657600080fd5b505af1158015612f3a573d6000803e3d6000fd5b5050604051630da0f6c760e41b81527f5cd8f6e95e052e3c0e0cc859654925ecc6c0d54b86a47d5ab47f1e8fc71daad9600482015260ff871660248201526001600160a01b038816925063da0f6c709150604401600060405180830381600087803b158015612fa857600080fd5b505af1158015612fbc573d6000803e3d6000fd5b5050604051630da0f6c760e41b81527f52cf9e13c44455102d3bdf6a2d2539e3a78562a7c366394927a7d6cff60a27a66004820152602481018590526001600160a01b038816925063da0f6c709150604401600060405180830381600087803b15801561302857600080fd5b505af115801561303c573d6000803e3d6000fd5b5050604051630da0f6c760e41b81527f0ebc415f2a9c53ba3b90c65925f402605b16daf54b8f18bc2a4ac5cf2026ff536004820152602481018490526001600160a01b038816925063da0f6c709150604401600060405180830381600087803b1580156130a857600080fd5b505af11580156130bc573d6000803e3d6000fd5b50506040517f3b4f921a0000000000000000000000000000000000000000000000000000000081527f6468a9b13d5f0011479da2d9211ad507a42070e4a58df895adf3136147416db260048201526001600160a01b03868116602483015288169250633b4f921a9150604401600060405180830381600087803b15801561314257600080fd5b505af1158015613156573d6000803e3d6000fd5b505050505050505050565b600081815260018301602052604081205480156132745760006131856001836142a2565b8554909150600090613199906001906142a2565b905081811461321a5760008660000182815481106131c757634e487b7160e01b600052603260045260246000fd5b90600052602060002001549050808760000184815481106131f857634e487b7160e01b600052603260045260246000fd5b6000918252602080832090910192909255918252600188019052604090208390555b855486908061323957634e487b7160e01b600052603160045260246000fd5b6001900381819060005260206000200160009055905585600101600086815260200190815260200160002060009055600193505050506101e2565b60009150506101e2565b604051634941d71d60e11b81527feee23dc9ab95b6666db01c2b6cae6a5ef706099a25926e21e0a2e043fe885604600482015260009081906001600160a01b03851690639283ae3a9060240160206040518083038186803b1580156132e257600080fd5b505afa1580156132f6573d6000803e3d6000fd5b505050506040513d601f19601f8201168201806040525081019061331a9190613db6565b604051634941d71d60e11b81527fd093d4a34a12a221b19c0a6689d5449f1346aa769d15cca4e9782c36fda9339a60048201529091506000906001600160a01b03861690639283ae3a9060240160206040518083038186803b15801561337f57600080fd5b505afa158015613393573d6000803e3d6000fd5b505050506040513d601f19601f820116820180604052508101906133b79190613db6565b6040516317ba7d8560e01b81527f8f5b4aabbdb8527d420a29cc90ae207773ad49b73c632c3cfd2f29eb8776f2ea60048201529091506000906001600160a01b038716906317ba7d859060240160206040518083038186803b15801561341c57600080fd5b505afa158015613430573d6000803e3d6000fd5b505050506040513d601f19601f820116820180604052508101906134549190613c6e565b6040517f68abb5e00000000000000000000000000000000000000000000000000000000081526001600160a01b0388811660048301529192506000918316906368abb5e09060240160206040518083038186803b1580156134b457600080fd5b505afa1580156134c8573d6000803e3d6000fd5b505050506040513d601f19601f820116820180604052508101906134ec9190613db6565b1115801561358757506040517fa230c5240000000000000000000000000000000000000000000000000000000081526001600160a01b03868116600483015287169063a230c5249060240160206040518083038186803b15801561354f57600080fd5b505afa158015613563573d6000803e3d6000fd5b505050506040513d601f19601f820116820180604052508101906135879190613d6d565b1561359857600193505050506101e2565b81600114156136b55760008361364557604051633de222bb60e21b81526001600160a01b0388811660048301528781166024830152670de0b6b3a7640000919084169063f7888aec9060440160206040518083038186803b1580156135fc57600080fd5b505afa158015613610573d6000803e3d6000fd5b505050506040513d601f19601f820116820180604052508101906136349190613db6565b61363e919061428e565b9050613652565b60009450505050506101e2565b600081116136675760009450505050506101e2565b677fffffffffffffff81106136835760329450505050506101e2565b600061369e61369961369484613964565b613982565b613a84565b67ffffffffffffffff1695506101e2945050505050565b816002141561376a5760008361364557604051633de222bb60e21b81526001600160a01b03888116600483015287811660248301526000919084169063f7888aec9060440160206040518083038186803b15801561371257600080fd5b505afa158015613726573d6000803e3d6000fd5b505050506040513d601f19601f8201168201806040525081019061374a9190613db6565b11613756576000613759565b60015b60ff1690505b93506101e292505050565b816138135760008361364557604051633de222bb60e21b81526001600160a01b0388811660048301528781166024830152670de0b6b3a7640000919084169063f7888aec9060440160206040518083038186803b1580156137ca57600080fd5b505afa1580156137de573d6000803e3d6000fd5b505050506040513d601f19601f820116820180604052508101906138029190613db6565b61380c919061428e565b905061375f565b600093505050506101e2565b8160200151156138bd5781606001516001600160a01b0316635e5eb01384835a865161384b91906142a2565b60408088015190516001600160e01b031960e087901b1681526001600160a01b03948516600482015293909216602484015260448301526064820152608401600060405180830381600087803b1580156138a457600080fd5b505af11580156138b8573d6000803e3d6000fd5b505050505b826001600160a01b031663d4f7af436040518163ffffffff1660e01b8152600401600060405180830381600087803b1580156138f857600080fd5b505af115801561390c573d6000803e3d6000fd5b50505050505050565b600081815260018301602052604081205461395c575081546001818101845560008481526020808220909301849055845484825282860190935260409020919091556101e2565b5060006101e2565b6000677fffffffffffffff82111561397b57600080fd5b5060401b90565b60008082600f0b1361399357600080fd5b6000600f83900b6801000000000000000081126139b2576040918201911d5b64010000000081126139c6576020918201911d5b6201000081126139d8576010918201911d5b61010081126139e9576008918201911d5b601081126139f9576004918201911d5b60048112613a09576002918201911d5b60028112613a18576001820191505b7fffffffffffffffffffffffffffffffffffffffffffffffffffffffffffffffc0820160401b600f85900b607f8490031b6780000000000000005b6000811315613a795790800260ff81901c8281029390930192607f011c9060011d613a53565b509095945050505050565b60008082600f0b1215613a9657600080fd5b50600f0b60401d90565b6040805160e08101825260008082526020820181905290918201908152602001600081526020016000815260200160008152602001613add613b5f565b905290565b828054828255906000526020600020908101928215613b4f579160200282015b82811115613b4f57825182547fffffffffffffffffffffffff0000000000000000000000000000000000000000166001600160a01b03909116178255602090920191600190910190613b02565b50613b5b929150613c2d565b5090565b604080516101208101909152600060e0820181815261010083019190915281908152602001613bbf6040518060a0016040528060006001600160a01b03168152602001600081526020016000815260200160008152602001600081525090565b8152602001613c0b6040518060c00160405280600015158152602001600060ff16815260200160006001600160a01b031681526020016000815260200160008152602001606081525090565b8152600060208201819052604082018190526060820181905260809091015290565b5b80821115613b5b5760008155600101613c2e565b8051613c4d81614394565b919050565b600060208284031215613c63578081fd5b813561090d81614394565b600060208284031215613c7f578081fd5b815161090d81614394565b60006020808385031215613c9c578182fd5b825167ffffffffffffffff80821115613cb3578384fd5b818501915085601f830112613cc6578384fd5b815181811115613cd857613cd861437e565b8060051b604051601f19603f83011681018181108582111715613cfd57613cfd61437e565b604052828152858101935084860182860187018a1015613d1b578788fd5b8795505b83861015613d4457613d3081613c42565b855260019590950194938601938601613d1f565b5098975050505050505050565b600060208284031215613d62578081fd5b813561090d816143ac565b600060208284031215613d7e578081fd5b815161090d816143ac565b60008060408385031215613d9b578081fd5b8251613da6816143ac565b6020939093015192949293505050565b600060208284031215613dc7578081fd5b5051919050565b60008060408385031215613de0578182fd5b8235613deb81614394565b91506020830135613dfb81614394565b809150509250929050565b60008060408385031215613e18578182fd5b8235613e2381614394565b946020939093013593505050565b600080600060608486031215613e45578081fd5b8335613e5081614394565b9250602084013591506040840135613e6781614394565b809150509250925092565b600060208284031215613e83578081fd5b81516004811061090d578182fd5b600080600060608486031215613ea5578283fd5b835160068110613eb3578384fd5b602085015160409095015190969495509392505050565b600060208284031215613edb578081fd5b813567ffffffffffffffff811115613ef1578182fd5b8201610140818503121561090d578182fd5b600060208284031215613f14578081fd5b813560ff8116811461090d578182fd5b6000815180845260208085019450808401835b83811015613f5c5781516001600160a01b031687529582019590820190600101613f37565b509495945050505050565b60048110613f8557634e487b7160e01b600052602160045260246000fd5b9052565b80511515825260ff60208201511660208301526001600160a01b0360408201511660408301526060810151606083015260808101516080830152600060a082015160c060a0850152612b3e60c0850182613f24565b7fffffffffffffffff000000000000000000000000000000000000000000000000831681527f46756e6445737461626c6973686d656e7423000000000000000000000000000060088201526000825161403e81601a8501602087016142b9565b91909101601a019392505050565b6001600160a01b03881681526020810187905260e081016140706040830188613f67565b6fffffffffffffffffffffffffffffffff861660608301528460808301528360a08301528260c083015298975050505050505050565b6020815260006101df6020830184613f24565b6001600160a01b038416815282602082015260606040820152600082518060608401526140ed8160808501602087016142b9565b601f01601f191691909101608001949350505050565b60006101808951835260208a015160208401526001600160a01b0389511660408401526020890151606084015260408901516080840152606089015160a0840152608089015160c08401528060e084015261416081840189613f89565b91505061417361010083018760ff169052565b614181610120830186613f67565b610140820193909352610160015295945050505050565b60008083357fffffffffffffffffffffffffffffffffffffffffffffffffffffffffffffffe18436030181126141cc578283fd5b83018035915067ffffffffffffffff8211156141e6578283fd5b6020019150600581901b36038213156141fe57600080fd5b9250929050565b600082357fffffffffffffffffffffffffffffffffffffffffffffffffffffffffffffff41833603018112614238578182fd5b9190910192915050565b60006fffffffffffffffffffffffffffffffff80831681851680830382111561426d5761426d614352565b01949350505050565b6000821982111561428957614289614352565b500190565b60008261429d5761429d614368565b500490565b6000828210156142b4576142b4614352565b500390565b60005b838110156142d45781810151838201526020016142bc565b838111156110ff5750506000910152565b60007fffffffffffffffffffffffffffffffffffffffffffffffffffffffffffffffff82141561431757614317614352565b5060010190565b600060ff821660ff81141561433557614335614352565b60010192915050565b60008261434d5761434d614368565b500690565b634e487b7160e01b600052601160045260246000fd5b634e487b7160e01b600052601260045260246000fd5b634e487b7160e01b600052604160045260246000fd5b6001600160a01b03811681146143a957600080fd5b50565b80151581146143a957600080fdfea2646970667358221220904afe371268b4adb56bc259a7a1e528f18a82142135e2335014041bbd9a500d64736f6c63430008040033",
  "linkReferences": {},
  "deployedLinkReferences": {}
}