{
  "_format": "hh-sol-artifact-1",
  "contractName": "CollectiveVotingAdapterContract",
  "sourceName": "contracts/collective/adapters/CollectiveVotingAdapter.sol",
  "abi": [
    {
      "anonymous": false,
      "inputs": [
        {
          "indexed": false,
          "internalType": "address",
          "name": "daoAddr",
          "type": "address"
        },
        {
          "indexed": false,
          "internalType": "bytes32",
          "name": "proposalId",
          "type": "bytes32"
        },
        {
          "indexed": false,
          "internalType": "uint256",
          "name": "votingTime",
          "type": "uint256"
        },
        {
          "indexed": false,
          "internalType": "uint256",
          "name": "voteStartTime",
          "type": "uint256"
        },
        {
          "indexed": false,
          "internalType": "uint256",
          "name": "voteStopTime",
          "type": "uint256"
        },
        {
          "indexed": false,
          "internalType": "address",
          "name": "voter",
          "type": "address"
        },
        {
          "indexed": false,
          "internalType": "uint256",
          "name": "voteValue",
          "type": "uint256"
        },
        {
          "indexed": false,
          "internalType": "uint256",
          "name": "nbYes",
          "type": "uint256"
        },
        {
          "indexed": false,
          "internalType": "uint256",
          "name": "nbNo",
          "type": "uint256"
        },
        {
          "indexed": false,
          "internalType": "uint256",
          "name": "currentQuorum",
          "type": "uint256"
        },
        {
          "indexed": false,
          "internalType": "uint256",
          "name": "currentSupport",
          "type": "uint256"
        }
      ],
      "name": "SubmitVote",
      "type": "event"
    },
    {
      "inputs": [],
      "name": "ADAPTER_NAME",
      "outputs": [
        {
          "internalType": "string",
          "name": "",
          "type": "string"
        }
      ],
      "stateMutability": "view",
      "type": "function"
    },
    {
      "inputs": [
        {
          "internalType": "contract DaoRegistry",
          "name": "dao",
          "type": "address"
        },
        {
          "internalType": "bytes32",
          "name": "proposalId",
          "type": "bytes32"
        },
        {
          "internalType": "address",
          "name": "voterAddr",
          "type": "address"
        }
      ],
      "name": "checkIfVoted",
      "outputs": [
        {
          "internalType": "bool",
          "name": "",
          "type": "bool"
        }
      ],
      "stateMutability": "view",
      "type": "function"
    },
    {
      "inputs": [],
      "name": "getAdapterName",
      "outputs": [
        {
          "internalType": "string",
          "name": "",
          "type": "string"
        }
      ],
      "stateMutability": "pure",
      "type": "function"
    },
    {
      "inputs": [
        {
          "internalType": "contract DaoRegistry",
          "name": "dao",
          "type": "address"
        }
      ],
      "name": "getAllGovernorWeight",
      "outputs": [
        {
          "internalType": "uint128",
          "name": "",
          "type": "uint128"
        }
      ],
      "stateMutability": "view",
      "type": "function"
    },
    {
      "inputs": [
        {
          "internalType": "contract DaoRegistry",
          "name": "",
          "type": "address"
        },
        {
          "internalType": "address",
          "name": "",
          "type": "address"
        },
        {
          "internalType": "bytes",
          "name": "",
          "type": "bytes"
        },
        {
          "internalType": "address",
          "name": "sender",
          "type": "address"
        }
      ],
      "name": "getSenderAddress",
      "outputs": [
        {
          "internalType": "address",
          "name": "",
          "type": "address"
        }
      ],
      "stateMutability": "pure",
      "type": "function"
    },
    {
      "inputs": [
        {
          "internalType": "contract DaoRegistry",
          "name": "dao",
          "type": "address"
        },
        {
          "internalType": "address",
          "name": "account",
          "type": "address"
        }
      ],
      "name": "getVotingWeight",
      "outputs": [
        {
          "internalType": "uint128",
          "name": "",
          "type": "uint128"
        }
      ],
      "stateMutability": "view",
      "type": "function"
    },
    {
      "inputs": [
        {
          "internalType": "contract DaoRegistry",
          "name": "dao",
          "type": "address"
        },
        {
          "internalType": "address",
          "name": "_addr",
          "type": "address"
        }
      ],
      "name": "isActiveMember",
      "outputs": [
        {
          "internalType": "bool",
          "name": "",
          "type": "bool"
        }
      ],
      "stateMutability": "view",
      "type": "function"
    },
    {
      "inputs": [
        {
          "internalType": "contract DaoRegistry",
          "name": "dao",
          "type": "address"
        },
        {
          "internalType": "bytes32",
          "name": "proposalId",
          "type": "bytes32"
        },
        {
          "internalType": "bytes",
          "name": "",
          "type": "bytes"
        }
      ],
      "name": "startNewVotingForProposal",
      "outputs": [],
      "stateMutability": "nonpayable",
      "type": "function"
    },
    {
      "inputs": [
        {
          "internalType": "contract DaoRegistry",
          "name": "dao",
          "type": "address"
        },
        {
          "internalType": "bytes32",
          "name": "proposalId",
          "type": "bytes32"
        },
        {
          "internalType": "uint256",
          "name": "voteValue",
          "type": "uint256"
        }
      ],
      "name": "submitVote",
      "outputs": [],
      "stateMutability": "nonpayable",
      "type": "function"
    },
    {
      "inputs": [
        {
          "internalType": "contract DaoRegistry",
          "name": "dao",
          "type": "address"
        },
        {
          "internalType": "bytes32",
          "name": "proposalId",
          "type": "bytes32"
        }
      ],
      "name": "voteResult",
      "outputs": [
        {
          "internalType": "enum ICollectiveVoting.VotingState",
          "name": "state",
          "type": "uint8"
        },
        {
          "internalType": "uint256",
          "name": "nbYes",
          "type": "uint256"
        },
        {
          "internalType": "uint256",
          "name": "nbNo",
          "type": "uint256"
        }
      ],
      "stateMutability": "view",
      "type": "function"
    },
    {
      "inputs": [
        {
          "internalType": "address",
          "name": "",
          "type": "address"
        },
        {
          "internalType": "bytes32",
          "name": "",
          "type": "bytes32"
        },
        {
          "internalType": "address",
          "name": "",
          "type": "address"
        }
      ],
      "name": "voteWeights",
      "outputs": [
        {
          "internalType": "uint128",
          "name": "",
          "type": "uint128"
        }
      ],
      "stateMutability": "view",
      "type": "function"
    },
    {
      "inputs": [
        {
          "internalType": "address",
          "name": "",
          "type": "address"
        },
        {
          "internalType": "bytes32",
          "name": "",
          "type": "bytes32"
        }
      ],
      "name": "votes",
      "outputs": [
        {
          "internalType": "uint256",
          "name": "nbYes",
          "type": "uint256"
        },
        {
          "internalType": "uint256",
          "name": "nbNo",
          "type": "uint256"
        },
        {
          "internalType": "uint256",
          "name": "startingTime",
          "type": "uint256"
        },
        {
          "internalType": "uint256",
          "name": "stopTime",
          "type": "uint256"
        }
      ],
      "stateMutability": "view",
      "type": "function"
    }
  ],
  "bytecode": "0x608060405234801561001057600080fd5b5061264f806100206000396000f3fe608060405234801561001057600080fd5b50600436106100d45760003560e01c80637fd3cd8b1161008157806391d2fd531161005b57806391d2fd531461026e578063966917d0146102b0578063f2b95da0146102dd57600080fd5b80637fd3cd8b146101eb57806387b9e959146102275780638ecf77201461025b57600080fd5b80632b0974d0116100b25780632b0974d0146101a1578063325b72f2146101b657806376225e73146101c957600080fd5b80631db5ade8146100d95780631f86f5b31461013c57806324a2cceb1461017e575b600080fd5b6101176100e7366004612179565b60016020818152600093845260408085209091529183529120805491810154600282015460039092015490919084565b6040805194855260208501939093529183015260608201526080015b60405180910390f35b60408051808201909152601881527f436f6c6c656374697665566f74696e67436f6e7472616374000000000000000060208201525b60405161013391906124c0565b61019161018c366004612371565b6102f0565b6040519015158152602001610133565b6101b46101af366004612385565b61033f565b005b6101b46101c4366004612409565b610501565b6101dc6101d736600461235f565b610bdf565b60405161013393929190612498565b6101716040518060400160405280601881526020017f436f6c6c656374697665566f74696e67436f6e7472616374000000000000000081525081565b61023a610235366004612246565b61118b565b6040516fffffffffffffffffffffffffffffffff9091168152602001610133565b610191610269366004612246565b6111a0565b61023a61027c3660046121a4565b600060208181529381526040808220855292815282812090935282529020546fffffffffffffffffffffffffffffffff1681565b6102c56102be36600461227e565b9392505050565b6040516001600160a01b039091168152602001610133565b61023a6102eb36600461222a565b61121d565b6001600160a01b03808416600090815260016020908152604080832086845282528083209385168352600484019091528120549091906103345760009150506102be565b506001949350505050565b6040517f68c18beb00000000000000000000000000000000000000000000000000000000815233600482015284906001600160a01b038216906368c18beb9060240160206040518083038186803b15801561039957600080fd5b505afa1580156103ad573d6000803e3d6000fd5b505050506040513d601f19601f820116820180604052508101906103d191906121e5565b806103e057506103e081611226565b6104315760405162461bcd60e51b815260206004820152600b60248201527f6f6e6c794164617074657200000000000000000000000000000000000000000060448201526064015b60405180910390fd5b6001600160a01b0385166000818152600160209081526040808320888452909152908190204260028201559051634941d71d60e11b81527f9876c0f0505bfb2b1c38d3bbd25ba13159172cd0868972d76927723f5a9480fc6004820152909190639283ae3a9060240160206040518083038186803b1580156104b257600080fd5b505afa1580156104c6573d6000803e3d6000fd5b505050506040513d601f19601f820116820180604052508101906104ea919061245c565b6104f49042612513565b6003909101555050505050565b8261050c8133611446565b836000610518826114a0565b6040517ff941f6910000000000000000000000000000000000000000000000000000000081529091506001600160a01b0387169063f941f69190610563908890600190600401612474565b60206040518083038186803b15801561057b57600080fd5b505afa15801561058f573d6000803e3d6000fd5b505050506040513d601f19601f820116820180604052508101906105b391906121e5565b6106255760405162461bcd60e51b815260206004820152602760248201527f7468652070726f706f73616c20686173206e6f74206265656e2073706f6e736f60448201527f72656420796574000000000000000000000000000000000000000000000000006064820152608401610428565b6040517ff941f6910000000000000000000000000000000000000000000000000000000081526001600160a01b0387169063f941f6919061066d908890600290600401612474565b60206040518083038186803b15801561068557600080fd5b505afa158015610699573d6000803e3d6000fd5b505050506040513d601f19601f820116820180604052508101906106bd91906121e5565b156107305760405162461bcd60e51b815260206004820152602760248201527f7468652070726f706f73616c2068617320616c7265616479206265656e20707260448201527f6f636573736564000000000000000000000000000000000000000000000000006064820152608401610428565b6003841080156107405750600084115b6107b25760405162461bcd60e51b815260206004820152602b60248201527f6f6e6c79207965732028312920616e64206e6f202832292061726520706f737360448201527f69626c652076616c7565730000000000000000000000000000000000000000006064820152608401610428565b6001600160a01b03861660009081526001602090815260408083208884529091529020600281015461084c5760405162461bcd60e51b815260206004820152603260248201527f746869732070726f706f73616c496420686173206e6f20766f746520676f696e60448201527f67206f6e20617420746865206d6f6d656e7400000000000000000000000000006064820152608401610428565b8060030154421061089f5760405162461bcd60e51b815260206004820152601660248201527f766f74652068617320616c726561647920656e646564000000000000000000006044820152606401610428565b6040517fc89bb8ba0000000000000000000000000000000000000000000000000000000081523360048201526000906001600160a01b0389169063c89bb8ba9060240160206040518083038186803b1580156108fa57600080fd5b505afa15801561090e573d6000803e3d6000fd5b505050506040513d601f19601f82011682018060405250810190610932919061215d565b6001600160a01b03811660009081526004840160205260409020549091501561099d5760405162461bcd60e51b815260206004820152601860248201527f6d656d6265722068617320616c726561647920766f74656400000000000000006044820152606401610428565b60006109a9893361176b565b6001600160a01b038a81166000908152602081815260408083208d84528252808320338452825280832080547fffffffffffffffffffffffffffffffff00000000000000000000000000000000166fffffffffffffffffffffffffffffffff871617905592861682526004870190522088905590506001871415610a5857806fffffffffffffffffffffffffffffffff16836000016000828254610a4d9190612513565b90915550610a8d9050565b8660021415610a8d57806fffffffffffffffffffffffffffffffff16836001016000828254610a879190612513565b90915550505b60018301548354600091610aa091612513565b15610ad25760018401548454610ab69190612513565b8454610ac390606461254b565b610acd919061252b565b610ad5565b60005b90506000610ae28b611d0c565b60018601548654610af39190612513565b610afe90606461254b565b610b08919061252b565b90507f702c2a29993fe1e5ce4c366928ffc1d53e245b20536bf8192399abb82b66c7108b8b4288600201548960030154338f8c600001548d600101548b8b604051610bc09b9a999897969594939291906000610160820190506001600160a01b03808e1683528c60208401528b60408401528a606084015289608084015280891660a0840152508660c08301528560e08301528461010083015283610120830152826101408301529c9b505050505050505050505050565b60405180910390a15050505050610bd78282611ee8565b505050505050565b6001600160a01b03821660009081526001602090815260408083208484529091528120600281015482918291610c2057600080600093509350935050611184565b8060030154421015610c3d57600460008093509350935050611184565b604051634941d71d60e11b81527fe815a3c082eed7f7f7baab546f11a8718682c0eb3017b099ddc301a92f6673e360048201526000906001600160a01b03881690639283ae3a9060240160206040518083038186803b158015610c9f57600080fd5b505afa158015610cb3573d6000803e3d6000fd5b505050506040513d601f19601f82011682018060405250810190610cd7919061245c565b604051634941d71d60e11b81527f730faccfe82f70711a34ce5202c6e1b1f79f421c16fcef745a9d92d06a7c0d4c60048201529091506000906001600160a01b03891690639283ae3a9060240160206040518083038186803b158015610d3c57600080fd5b505afa158015610d50573d6000803e3d6000fd5b505050506040513d601f19601f82011682018060405250810190610d74919061245c565b90506000610d818961121d565b905081610e7d57604051634941d71d60e11b81527f0324de13a5a6e302ddb95a9fdf81cc736fc8acee2abe558970daac27395904e760048201526000906064906001600160a01b038c1690639283ae3a9060240160206040518083038186803b158015610ded57600080fd5b505afa158015610e01573d6000803e3d6000fd5b505050506040513d601f19601f82011682018060405250810190610e25919061245c565b610e41906fffffffffffffffffffffffffffffffff851661254b565b610e4b919061252b565b6001860154865491925001818111610e7a57600386600001548760010154985098509850505050505050611184565b50505b8160011415610f575760018401548454600091610e9991612513565b604051634941d71d60e11b81527f0324de13a5a6e302ddb95a9fdf81cc736fc8acee2abe558970daac27395904e760048201529091506001600160a01b038b1690639283ae3a9060240160206040518083038186803b158015610efb57600080fd5b505afa158015610f0f573d6000803e3d6000fd5b505050506040513d601f19601f82011682018060405250810190610f33919061245c565b8111610f55576003856000015486600101549750975097505050505050611184565b505b8261107c5760018401548454600091610f6f91612513565b604051634941d71d60e11b81527fb4c601c38beae7eebb719eda3438f59fcbfd4c6dd7d38c00665b6fd5b432df3260048201529091506000906064906001600160a01b038d1690639283ae3a9060240160206040518083038186803b158015610fd757600080fd5b505afa158015610feb573d6000803e3d6000fd5b505050506040513d601f19601f8201168201806040525081019061100f919061245c565b611019908461254b565b611023919061252b565b90508015801561103257508554155b1561105457600186600001548760010154985098509850505050505050611184565b8554811061107957600386600001548760010154985098509850505050505050611184565b50505b826001141561116d57600084600101548560000154101561109e5760006110af565b600185015485546110af9190612588565b604051634941d71d60e11b81527fb4c601c38beae7eebb719eda3438f59fcbfd4c6dd7d38c00665b6fd5b432df3260048201529091506001600160a01b038b1690639283ae3a9060240160206040518083038186803b15801561111157600080fd5b505afa158015611125573d6000803e3d6000fd5b505050506040513d601f19601f82011682018060405250810190611149919061245c565b811161116b576003856000015486600101549750975097505050505050611184565b505b600284600001548560010154965096509650505050505b9250925092565b6000611197838361176b565b90505b92915050565b60405163288c314960e21b81526001600160a01b0382811660048301526000919084169063a230c5249060240160206040518083038186803b1580156111e557600080fd5b505afa1580156111f9573d6000803e3d6000fd5b505050506040513d601f19601f8201168201806040525081019061119791906121e5565b600080806102be565b600080826001600160a01b031663c19d93fb6040518163ffffffff1660e01b815260040160206040518083038186803b15801561126257600080fd5b505afa158015611276573d6000803e3d6000fd5b505050506040513d601f19601f8201168201806040525081019061129a919061243d565b60018111156112b957634e487b7160e01b600052602160045260246000fd5b14801561119a5750816001600160a01b031663c67143666040518163ffffffff1660e01b815260040160206040518083038186803b1580156112fa57600080fd5b505afa15801561130e573d6000803e3d6000fd5b505050506040513d601f19601f82011682018060405250810190611332919061245c565b15806113b0575060405163288c314960e21b81523360048201526001600160a01b0383169063a230c5249060240160206040518083038186803b15801561137857600080fd5b505afa15801561138c573d6000803e3d6000fd5b505050506040513d601f19601f820116820180604052508101906113b091906121e5565b8061119a57506040517f68c18beb0000000000000000000000000000000000000000000000000000000081523360048201526001600160a01b038316906368c18beb9060240160206040518083038186803b15801561140e57600080fd5b505afa158015611422573d6000803e3d6000fd5b505050506040513d601f19601f8201168201806040525081019061119a91906121e5565b61145082826111a0565b61149c5760405162461bcd60e51b815260206004820152600c60248201527f6f6e6c79476f7665726e6f7200000000000000000000000000000000000000006044820152606401610428565b5050565b6040805160808101825260008082526020820181905291810182905260608101919091525a81600001818152505043826001600160a01b031663b21634826040518163ffffffff1660e01b815260040160206040518083038186803b15801561150857600080fd5b505afa15801561151c573d6000803e3d6000fd5b505050506040513d601f19601f82011682018060405250810190611540919061245c565b141561158e5760405162461bcd60e51b815260206004820152601060248201527f7265656e7472616e6379206775617264000000000000000000000000000000006044820152606401610428565b816001600160a01b03166310fdb0a26040518163ffffffff1660e01b8152600401600060405180830381600087803b1580156115c957600080fd5b505af11580156115dd573d6000803e3d6000fd5b50506040517f72c6838f0000000000000000000000000000000000000000000000000000000081527f1f2fd42ad6a6cacd573c4b212beb7a4e2499ad45d742a65337097f130e71daff6004820152600092506001600160a01b03851691506372c6838f9060240160206040518083038186803b15801561165c57600080fd5b505afa158015611670573d6000803e3d6000fd5b505050506040513d601f19601f82011682018060405250810190611694919061215d565b90506001600160a01b0381166116b05760006020830152611765565b6001600160a01b038181166060840181905283516040517f43a8a3f1000000000000000000000000000000000000000000000000000000008152928616600484015260248301526000918291906343a8a3f190604401604080518083038186803b15801561171d57600080fd5b505afa158015611731573d6000803e3d6000fd5b505050506040513d601f19601f8201168201806040525081019061175591906121ff565b9015156020860152604085015250505b50919050565b604051634941d71d60e11b81527feee23dc9ab95b6666db01c2b6cae6a5ef706099a25926e21e0a2e043fe885604600482015260009081906001600160a01b03851690639283ae3a9060240160206040518083038186803b1580156117cf57600080fd5b505afa1580156117e3573d6000803e3d6000fd5b505050506040513d601f19601f82011682018060405250810190611807919061245c565b604051634941d71d60e11b81527fd093d4a34a12a221b19c0a6689d5449f1346aa769d15cca4e9782c36fda9339a60048201529091506000906001600160a01b03861690639283ae3a9060240160206040518083038186803b15801561186c57600080fd5b505afa158015611880573d6000803e3d6000fd5b505050506040513d601f19601f820116820180604052508101906118a4919061245c565b6040517f17ba7d850000000000000000000000000000000000000000000000000000000081527f8f5b4aabbdb8527d420a29cc90ae207773ad49b73c632c3cfd2f29eb8776f2ea60048201529091506000906001600160a01b038716906317ba7d859060240160206040518083038186803b15801561192257600080fd5b505afa158015611936573d6000803e3d6000fd5b505050506040513d601f19601f8201168201806040525081019061195a919061215d565b6040517f68abb5e00000000000000000000000000000000000000000000000000000000081526001600160a01b0388811660048301529192506000918316906368abb5e09060240160206040518083038186803b1580156119ba57600080fd5b505afa1580156119ce573d6000803e3d6000fd5b505050506040513d601f19601f820116820180604052508101906119f2919061245c565b11158015611a74575060405163288c314960e21b81526001600160a01b03868116600483015287169063a230c5249060240160206040518083038186803b158015611a3c57600080fd5b505afa158015611a50573d6000803e3d6000fd5b505050506040513d601f19601f82011682018060405250810190611a7491906121e5565b15611a85576001935050505061119a565b8160011415611ba257600083611b3257604051633de222bb60e21b81526001600160a01b0388811660048301528781166024830152670de0b6b3a7640000919084169063f7888aec9060440160206040518083038186803b158015611ae957600080fd5b505afa158015611afd573d6000803e3d6000fd5b505050506040513d601f19601f82011682018060405250810190611b21919061245c565b611b2b919061252b565b9050611b3f565b600094505050505061119a565b60008111611b5457600094505050505061119a565b677fffffffffffffff8110611b7057603294505050505061119a565b6000611b8b611b86611b8184611ef3565b611f11565b612013565b67ffffffffffffffff16955061119a945050505050565b8160021415611c5757600083611b3257604051633de222bb60e21b81526001600160a01b03888116600483015287811660248301526000919084169063f7888aec9060440160206040518083038186803b158015611bff57600080fd5b505afa158015611c13573d6000803e3d6000fd5b505050506040513d601f19601f82011682018060405250810190611c37919061245c565b11611c43576000611c46565b60015b60ff1690505b935061119a92505050565b81611d0057600083611b3257604051633de222bb60e21b81526001600160a01b0388811660048301528781166024830152670de0b6b3a7640000919084169063f7888aec9060440160206040518083038186803b158015611cb757600080fd5b505afa158015611ccb573d6000803e3d6000fd5b505050506040513d601f19601f82011682018060405250810190611cef919061245c565b611cf9919061252b565b9050611c4c565b6000935050505061119a565b600080826001600160a01b031663c67143666040518163ffffffff1660e01b815260040160206040518083038186803b158015611d4857600080fd5b505afa158015611d5c573d6000803e3d6000fd5b505050506040513d601f19601f82011682018060405250810190611d80919061245c565b90506000805b828160ff161015611ee0576040517f9029444a00000000000000000000000000000000000000000000000000000000815260ff821660048201526001600160a01b0386169063a230c524908290639029444a9060240160206040518083038186803b158015611df457600080fd5b505afa158015611e08573d6000803e3d6000fd5b505050506040513d601f19601f82011682018060405250810190611e2c919061215d565b6040517fffffffff0000000000000000000000000000000000000000000000000000000060e084901b1681526001600160a01b03909116600482015260240160206040518083038186803b158015611e8357600080fd5b505afa158015611e97573d6000803e3d6000fd5b505050506040513d601f19601f82011682018060405250810190611ebb91906121e5565b15611ece57611ecb600183612513565b91505b80611ed88161259f565b915050611d86565b509392505050565b61149c82823361202f565b6000677fffffffffffffff821115611f0a57600080fd5b5060401b90565b60008082600f0b13611f2257600080fd5b6000600f83900b680100000000000000008112611f41576040918201911d5b6401000000008112611f55576020918201911d5b620100008112611f67576010918201911d5b6101008112611f78576008918201911d5b60108112611f88576004918201911d5b60048112611f98576002918201911d5b60028112611fa7576001820191505b7fffffffffffffffffffffffffffffffffffffffffffffffffffffffffffffffc0820160401b600f85900b607f8490031b6780000000000000005b60008113156120085790800260ff81901c8281029390930192607f011c9060011d611fe2565b509095945050505050565b60008082600f0b121561202557600080fd5b50600f0b60401d90565b8160200151156120e55781606001516001600160a01b0316635e5eb01384835a865161205b9190612588565b60408088015190517fffffffff0000000000000000000000000000000000000000000000000000000060e087901b1681526001600160a01b03948516600482015293909216602484015260448301526064820152608401600060405180830381600087803b1580156120cc57600080fd5b505af11580156120e0573d6000803e3d6000fd5b505050505b826001600160a01b031663d4f7af436040518163ffffffff1660e01b8152600401600060405180830381600087803b15801561212057600080fd5b505af1158015612134573d6000803e3d6000fd5b50505050505050565b803561214881612601565b919050565b8051801515811461214857600080fd5b60006020828403121561216e578081fd5b81516102be81612601565b6000806040838503121561218b578081fd5b823561219681612601565b946020939093013593505050565b6000806000606084860312156121b8578081fd5b83356121c381612601565b92506020840135915060408401356121da81612601565b809150509250925092565b6000602082840312156121f6578081fd5b6111978261214d565b60008060408385031215612211578182fd5b61221a8361214d565b9150602083015190509250929050565b60006020828403121561223b578081fd5b81356102be81612601565b60008060408385031215612258578182fd5b823561226381612601565b9150602083013561227381612601565b809150509250929050565b60008060008060808587031215612293578081fd5b843561229e81612601565b935060208501356122ae81612601565b9250604085013567ffffffffffffffff808211156122ca578283fd5b818701915087601f8301126122dd578283fd5b8135818111156122ef576122ef6125eb565b604051601f8201601f19908116603f01168101908382118183101715612317576123176125eb565b816040528281528a602084870101111561232f578586fd5b826020860160208301379182016020018590525093506123549150506060860161213d565b905092959194509250565b6000806040838503121561218b578182fd5b6000806000606084860312156121b8578283fd5b6000806000806060858703121561239a578384fd5b84356123a581612601565b935060208501359250604085013567ffffffffffffffff808211156123c8578384fd5b818701915087601f8301126123db578384fd5b8135818111156123e9578485fd5b8860208285010111156123fa578485fd5b95989497505060200194505050565b60008060006060848603121561241d578283fd5b833561242881612601565b95602085013595506040909401359392505050565b60006020828403121561244e578081fd5b8151600281106102be578182fd5b60006020828403121561246d578081fd5b5051919050565b828152604081016003831061248b5761248b6125d5565b8260208301529392505050565b60608101600685106124ac576124ac6125d5565b938152602081019290925260409091015290565b6000602080835283518082850152825b818110156124ec578581018301518582016040015282016124d0565b818111156124fd5783604083870101525b50601f01601f1916929092016040019392505050565b60008219821115612526576125266125bf565b500190565b60008261254657634e487b7160e01b81526012600452602481fd5b500490565b6000817fffffffffffffffffffffffffffffffffffffffffffffffffffffffffffffffff0483118215151615612583576125836125bf565b500290565b60008282101561259a5761259a6125bf565b500390565b600060ff821660ff8114156125b6576125b66125bf565b60010192915050565b634e487b7160e01b600052601160045260246000fd5b634e487b7160e01b600052602160045260246000fd5b634e487b7160e01b600052604160045260246000fd5b6001600160a01b038116811461261657600080fd5b5056fea26469706673582212205626c402608078d7bdeea79754927a718bb29f0a00681db0482971ab96c5a90364736f6c63430008040033",
  "linkReferences": {},
  "deployedLinkReferences": {}
}