{
  "_format": "hh-sol-artifact-1",
  "contractName": "CollectiveVotingAdapterContract",
  "sourceName": "contracts/collective/adapters/CollectiveVotingAdapter.sol",
  "abi": [
    {
      "anonymous": false,
      "inputs": [
        {
          "indexed": false,
          "internalType": "address",
          "name": "daoAddr",
          "type": "address"
        },
        {
          "indexed": false,
          "internalType": "bytes32",
          "name": "proposalId",
          "type": "bytes32"
        },
        {
          "indexed": false,
          "internalType": "uint256",
          "name": "votingTime",
          "type": "uint256"
        },
        {
          "indexed": false,
          "internalType": "uint256",
          "name": "voteStartTime",
          "type": "uint256"
        },
        {
          "indexed": false,
          "internalType": "uint256",
          "name": "voteStopTime",
          "type": "uint256"
        },
        {
          "indexed": false,
          "internalType": "address",
          "name": "voter",
          "type": "address"
        },
        {
          "indexed": false,
          "internalType": "uint256",
          "name": "voteValue",
          "type": "uint256"
        },
        {
          "indexed": false,
          "internalType": "uint256",
          "name": "nbYes",
          "type": "uint256"
        },
        {
          "indexed": false,
          "internalType": "uint256",
          "name": "nbNo",
          "type": "uint256"
        },
        {
          "indexed": false,
          "internalType": "uint256",
          "name": "currentQuorum",
          "type": "uint256"
        },
        {
          "indexed": false,
          "internalType": "uint256",
          "name": "currentSupport",
          "type": "uint256"
        }
      ],
      "name": "SubmitVote",
      "type": "event"
    },
    {
      "inputs": [],
      "name": "ADAPTER_NAME",
      "outputs": [
        {
          "internalType": "string",
          "name": "",
          "type": "string"
        }
      ],
      "stateMutability": "view",
      "type": "function"
    },
    {
      "inputs": [
        {
          "internalType": "contract DaoRegistry",
          "name": "dao",
          "type": "address"
        },
        {
          "internalType": "bytes32",
          "name": "proposalId",
          "type": "bytes32"
        },
        {
          "internalType": "address",
          "name": "voterAddr",
          "type": "address"
        }
      ],
      "name": "checkIfVoted",
      "outputs": [
        {
          "internalType": "bool",
          "name": "",
          "type": "bool"
        }
      ],
      "stateMutability": "view",
      "type": "function"
    },
    {
      "inputs": [],
      "name": "getAdapterName",
      "outputs": [
        {
          "internalType": "string",
          "name": "",
          "type": "string"
        }
      ],
      "stateMutability": "pure",
      "type": "function"
    },
    {
      "inputs": [
        {
          "internalType": "contract DaoRegistry",
          "name": "dao",
          "type": "address"
        }
      ],
      "name": "getAllGovernorWeight",
      "outputs": [
        {
          "internalType": "uint128",
          "name": "",
          "type": "uint128"
        }
      ],
      "stateMutability": "view",
      "type": "function"
    },
    {
      "inputs": [
        {
          "internalType": "contract DaoRegistry",
          "name": "dao",
          "type": "address"
        },
        {
          "internalType": "bytes32",
          "name": "proposalId",
          "type": "bytes32"
        }
      ],
      "name": "getAllGovernorWeightByProposalId",
      "outputs": [
        {
          "internalType": "uint128",
          "name": "",
          "type": "uint128"
        }
      ],
      "stateMutability": "view",
      "type": "function"
    },
    {
      "inputs": [
        {
          "internalType": "contract DaoRegistry",
          "name": "",
          "type": "address"
        },
        {
          "internalType": "address",
          "name": "",
          "type": "address"
        },
        {
          "internalType": "bytes",
          "name": "",
          "type": "bytes"
        },
        {
          "internalType": "address",
          "name": "sender",
          "type": "address"
        }
      ],
      "name": "getSenderAddress",
      "outputs": [
        {
          "internalType": "address",
          "name": "",
          "type": "address"
        }
      ],
      "stateMutability": "pure",
      "type": "function"
    },
    {
      "inputs": [
        {
          "internalType": "contract DaoRegistry",
          "name": "dao",
          "type": "address"
        },
        {
          "internalType": "address",
          "name": "account",
          "type": "address"
        }
      ],
      "name": "getVotingWeight",
      "outputs": [
        {
          "internalType": "uint128",
          "name": "",
          "type": "uint128"
        }
      ],
      "stateMutability": "view",
      "type": "function"
    },
    {
      "inputs": [
        {
          "internalType": "contract DaoRegistry",
          "name": "dao",
          "type": "address"
        },
        {
          "internalType": "address",
          "name": "account",
          "type": "address"
        },
        {
          "internalType": "uint256",
          "name": "amount",
          "type": "uint256"
        }
      ],
      "name": "getVotingWeightByDepositAmount",
      "outputs": [
        {
          "internalType": "uint128",
          "name": "",
          "type": "uint128"
        }
      ],
      "stateMutability": "view",
      "type": "function"
    },
    {
      "inputs": [
        {
          "internalType": "contract DaoRegistry",
          "name": "dao",
          "type": "address"
        },
        {
          "internalType": "address",
          "name": "_addr",
          "type": "address"
        }
      ],
      "name": "isActiveMember",
      "outputs": [
        {
          "internalType": "bool",
          "name": "",
          "type": "bool"
        }
      ],
      "stateMutability": "view",
      "type": "function"
    },
    {
      "inputs": [
        {
          "internalType": "contract DaoRegistry",
          "name": "dao",
          "type": "address"
        },
        {
          "internalType": "bytes32",
          "name": "proposalId",
          "type": "bytes32"
        },
        {
          "internalType": "bytes",
          "name": "",
          "type": "bytes"
        }
      ],
      "name": "startNewVotingForProposal",
      "outputs": [],
      "stateMutability": "nonpayable",
      "type": "function"
    },
    {
      "inputs": [
        {
          "internalType": "contract DaoRegistry",
          "name": "dao",
          "type": "address"
        },
        {
          "internalType": "bytes32",
          "name": "proposalId",
          "type": "bytes32"
        },
        {
          "internalType": "uint256",
          "name": "voteValue",
          "type": "uint256"
        }
      ],
      "name": "submitVote",
      "outputs": [],
      "stateMutability": "nonpayable",
      "type": "function"
    },
    {
      "inputs": [
        {
          "internalType": "contract DaoRegistry",
          "name": "dao",
          "type": "address"
        },
        {
          "internalType": "bytes32",
          "name": "proposalId",
          "type": "bytes32"
        }
      ],
      "name": "voteResult",
      "outputs": [
        {
          "internalType": "enum ICollectiveVoting.VotingState",
          "name": "state",
          "type": "uint8"
        },
        {
          "internalType": "uint256",
          "name": "nbYes",
          "type": "uint256"
        },
        {
          "internalType": "uint256",
          "name": "nbNo",
          "type": "uint256"
        }
      ],
      "stateMutability": "view",
      "type": "function"
    },
    {
      "inputs": [
        {
          "internalType": "address",
          "name": "",
          "type": "address"
        },
        {
          "internalType": "bytes32",
          "name": "",
          "type": "bytes32"
        },
        {
          "internalType": "address",
          "name": "",
          "type": "address"
        }
      ],
      "name": "voteWeights",
      "outputs": [
        {
          "internalType": "uint128",
          "name": "",
          "type": "uint128"
        }
      ],
      "stateMutability": "view",
      "type": "function"
    },
    {
      "inputs": [
        {
          "internalType": "address",
          "name": "",
          "type": "address"
        },
        {
          "internalType": "bytes32",
          "name": "",
          "type": "bytes32"
        }
      ],
      "name": "votes",
      "outputs": [
        {
          "internalType": "uint256",
          "name": "nbYes",
          "type": "uint256"
        },
        {
          "internalType": "uint256",
          "name": "nbNo",
          "type": "uint256"
        },
        {
          "internalType": "uint256",
          "name": "startingTime",
          "type": "uint256"
        },
        {
          "internalType": "uint256",
          "name": "stopTime",
          "type": "uint256"
        }
      ],
      "stateMutability": "view",
      "type": "function"
    }
  ],
  "bytecode": "0x608060405234801561001057600080fd5b50612fc1806100206000396000f3fe608060405234801561001057600080fd5b50600436106100ea5760003560e01c80637fd3cd8b1161008c5780638ecf7720116100665780638ecf77201461029757806391d2fd53146102aa578063966917d0146102ec578063f2b95da01461031957600080fd5b80637fd3cd8b1461023557806387b9e959146102715780638e780a081461028457600080fd5b80632b0974d0116100c85780632b0974d0146101b7578063325b72f2146101cc578063669fd0ca146101df57806376225e731461021357600080fd5b80631db5ade8146100ef5780631f86f5b31461015257806324a2cceb14610194575b600080fd5b61012d6100fd3660046129a6565b60016020818152600093845260408085209091529183529120805491810154600282015460039092015490919084565b6040805194855260208501939093529183015260608201526080015b60405180910390f35b60408051808201909152601881527f436f6c6c656374697665566f74696e67436f6e7472616374000000000000000060208201525b6040516101499190612dcd565b6101a76101a23660046129d1565b61032c565b6040519015158152602001610149565b6101ca6101c5366004612c62565b61037b565b005b6101ca6101da366004612ce6565b61053d565b6101f26101ed3660046129a6565b610c1b565b6040516fffffffffffffffffffffffffffffffff9091168152602001610149565b6102266102213660046129a6565b610c32565b60405161014993929190612da5565b6101876040518060400160405280601881526020017f436f6c6c656374697665566f74696e67436f6e7472616374000000000000000081525081565b6101f261027f366004612b27565b6111de565b6101f2610292366004612c22565b6111ea565b6101a76102a5366004612b27565b6111ff565b6101f26102b83660046129d1565b600060208181529381526040808220855292815282812090935282529020546fffffffffffffffffffffffffffffffff1681565b6103016102fa366004612b5f565b9392505050565b6040516001600160a01b039091168152602001610149565b6101f2610327366004612b0b565b61127c565b6001600160a01b03808416600090815260016020908152604080832086845282528083209385168352600484019091528120549091906103705760009150506102fa565b506001949350505050565b6040517f68c18beb00000000000000000000000000000000000000000000000000000000815233600482015284906001600160a01b038216906368c18beb9060240160206040518083038186803b1580156103d557600080fd5b505afa1580156103e9573d6000803e3d6000fd5b505050506040513d601f19601f8201168201806040525081019061040d9190612ac6565b8061041c575061041c81611288565b61046d5760405162461bcd60e51b815260206004820152600b60248201527f6f6e6c794164617074657200000000000000000000000000000000000000000060448201526064015b60405180910390fd5b6001600160a01b0385166000818152600160209081526040808320888452909152908190204260028201559051634941d71d60e11b81527f9876c0f0505bfb2b1c38d3bbd25ba13159172cd0868972d76927723f5a9480fc6004820152909190639283ae3a9060240160206040518083038186803b1580156104ee57600080fd5b505afa158015610502573d6000803e3d6000fd5b505050506040513d601f19601f820116820180604052508101906105269190612d69565b6105309042612e85565b6003909101555050505050565b8261054881336114a8565b83600061055482611502565b6040517ff941f6910000000000000000000000000000000000000000000000000000000081529091506001600160a01b0387169063f941f6919061059f908890600190600401612d81565b60206040518083038186803b1580156105b757600080fd5b505afa1580156105cb573d6000803e3d6000fd5b505050506040513d601f19601f820116820180604052508101906105ef9190612ac6565b6106615760405162461bcd60e51b815260206004820152602760248201527f7468652070726f706f73616c20686173206e6f74206265656e2073706f6e736f60448201527f72656420796574000000000000000000000000000000000000000000000000006064820152608401610464565b6040517ff941f6910000000000000000000000000000000000000000000000000000000081526001600160a01b0387169063f941f691906106a9908890600290600401612d81565b60206040518083038186803b1580156106c157600080fd5b505afa1580156106d5573d6000803e3d6000fd5b505050506040513d601f19601f820116820180604052508101906106f99190612ac6565b1561076c5760405162461bcd60e51b815260206004820152602760248201527f7468652070726f706f73616c2068617320616c7265616479206265656e20707260448201527f6f636573736564000000000000000000000000000000000000000000000000006064820152608401610464565b60038410801561077c5750600084115b6107ee5760405162461bcd60e51b815260206004820152602b60248201527f6f6e6c79207965732028312920616e64206e6f202832292061726520706f737360448201527f69626c652076616c7565730000000000000000000000000000000000000000006064820152608401610464565b6001600160a01b0386166000908152600160209081526040808320888452909152902060028101546108885760405162461bcd60e51b815260206004820152603260248201527f746869732070726f706f73616c496420686173206e6f20766f746520676f696e60448201527f67206f6e20617420746865206d6f6d656e7400000000000000000000000000006064820152608401610464565b806003015442106108db5760405162461bcd60e51b815260206004820152601660248201527f766f74652068617320616c726561647920656e646564000000000000000000006044820152606401610464565b6040517fc89bb8ba0000000000000000000000000000000000000000000000000000000081523360048201526000906001600160a01b0389169063c89bb8ba9060240160206040518083038186803b15801561093657600080fd5b505afa15801561094a573d6000803e3d6000fd5b505050506040513d601f19601f8201168201806040525081019061096e919061298a565b6001600160a01b0381166000908152600484016020526040902054909150156109d95760405162461bcd60e51b815260206004820152601860248201527f6d656d6265722068617320616c726561647920766f74656400000000000000006044820152606401610464565b60006109e589336117cd565b6001600160a01b038a81166000908152602081815260408083208d84528252808320338452825280832080547fffffffffffffffffffffffffffffffff00000000000000000000000000000000166fffffffffffffffffffffffffffffffff871617905592861682526004870190522088905590506001871415610a9457806fffffffffffffffffffffffffffffffff16836000016000828254610a899190612e85565b90915550610ac99050565b8660021415610ac957806fffffffffffffffffffffffffffffffff16836001016000828254610ac39190612e85565b90915550505b60018301548354600091610adc91612e85565b15610b0e5760018401548454610af29190612e85565b8454610aff906064612ebd565b610b099190612e9d565b610b11565b60005b90506000610b1e8b611d55565b60018601548654610b2f9190612e85565b610b3a906064612ebd565b610b449190612e9d565b90507f702c2a29993fe1e5ce4c366928ffc1d53e245b20536bf8192399abb82b66c7108b8b4288600201548960030154338f8c600001548d600101548b8b604051610bfc9b9a999897969594939291906000610160820190506001600160a01b03808e1683528c60208401528b60408401528a606084015289608084015280891660a0840152508660c08301528560e08301528461010083015283610120830152826101408301529c9b505050505050505050505050565b60405180910390a15050505050610c138282611f31565b505050505050565b600080610c288484611f3c565b9150505b92915050565b6001600160a01b03821660009081526001602090815260408083208484529091528120600281015482918291610c73576000806000935093509350506111d7565b8060030154421015610c90576004600080935093509350506111d7565b604051634941d71d60e11b81527fe815a3c082eed7f7f7baab546f11a8718682c0eb3017b099ddc301a92f6673e360048201526000906001600160a01b03881690639283ae3a9060240160206040518083038186803b158015610cf257600080fd5b505afa158015610d06573d6000803e3d6000fd5b505050506040513d601f19601f82011682018060405250810190610d2a9190612d69565b604051634941d71d60e11b81527f730faccfe82f70711a34ce5202c6e1b1f79f421c16fcef745a9d92d06a7c0d4c60048201529091506000906001600160a01b03891690639283ae3a9060240160206040518083038186803b158015610d8f57600080fd5b505afa158015610da3573d6000803e3d6000fd5b505050506040513d601f19601f82011682018060405250810190610dc79190612d69565b90506000610dd48961127c565b905081610ed057604051634941d71d60e11b81527f0324de13a5a6e302ddb95a9fdf81cc736fc8acee2abe558970daac27395904e760048201526000906064906001600160a01b038c1690639283ae3a9060240160206040518083038186803b158015610e4057600080fd5b505afa158015610e54573d6000803e3d6000fd5b505050506040513d601f19601f82011682018060405250810190610e789190612d69565b610e94906fffffffffffffffffffffffffffffffff8516612ebd565b610e9e9190612e9d565b6001860154865491925001818111610ecd576003866000015487600101549850985098505050505050506111d7565b50505b8160011415610faa5760018401548454600091610eec91612e85565b604051634941d71d60e11b81527f0324de13a5a6e302ddb95a9fdf81cc736fc8acee2abe558970daac27395904e760048201529091506001600160a01b038b1690639283ae3a9060240160206040518083038186803b158015610f4e57600080fd5b505afa158015610f62573d6000803e3d6000fd5b505050506040513d601f19601f82011682018060405250810190610f869190612d69565b8111610fa85760038560000154866001015497509750975050505050506111d7565b505b826110cf5760018401548454600091610fc291612e85565b604051634941d71d60e11b81527fb4c601c38beae7eebb719eda3438f59fcbfd4c6dd7d38c00665b6fd5b432df3260048201529091506000906064906001600160a01b038d1690639283ae3a9060240160206040518083038186803b15801561102a57600080fd5b505afa15801561103e573d6000803e3d6000fd5b505050506040513d601f19601f820116820180604052508101906110629190612d69565b61106c9084612ebd565b6110769190612e9d565b90508015801561108557508554155b156110a7576001866000015487600101549850985098505050505050506111d7565b855481106110cc576003866000015487600101549850985098505050505050506111d7565b50505b82600114156111c05760008460010154856000015410156110f1576000611102565b600185015485546111029190612efa565b604051634941d71d60e11b81527fb4c601c38beae7eebb719eda3438f59fcbfd4c6dd7d38c00665b6fd5b432df3260048201529091506001600160a01b038b1690639283ae3a9060240160206040518083038186803b15801561116457600080fd5b505afa158015611178573d6000803e3d6000fd5b505050506040513d601f19601f8201168201806040525081019061119c9190612d69565b81116111be5760038560000154866001015497509750975050505050506111d7565b505b600284600001548560010154965096509650505050505b9250925092565b60006102fa83836117cd565b60006111f7848484612268565b949350505050565b60405163288c314960e21b81526001600160a01b0382811660048301526000919084169063a230c5249060240160206040518083038186803b15801561124457600080fd5b505afa158015611258573d6000803e3d6000fd5b505050506040513d601f19601f820116820180604052508101906102fa9190612ac6565b6000806102fa8361265c565b600080826001600160a01b031663c19d93fb6040518163ffffffff1660e01b815260040160206040518083038186803b1580156112c457600080fd5b505afa1580156112d8573d6000803e3d6000fd5b505050506040513d601f19601f820116820180604052508101906112fc9190612d1a565b600181111561131b57634e487b7160e01b600052602160045260246000fd5b148015610c2c5750816001600160a01b031663c67143666040518163ffffffff1660e01b815260040160206040518083038186803b15801561135c57600080fd5b505afa158015611370573d6000803e3d6000fd5b505050506040513d601f19601f820116820180604052508101906113949190612d69565b1580611412575060405163288c314960e21b81523360048201526001600160a01b0383169063a230c5249060240160206040518083038186803b1580156113da57600080fd5b505afa1580156113ee573d6000803e3d6000fd5b505050506040513d601f19601f820116820180604052508101906114129190612ac6565b80610c2c57506040517f68c18beb0000000000000000000000000000000000000000000000000000000081523360048201526001600160a01b038316906368c18beb9060240160206040518083038186803b15801561147057600080fd5b505afa158015611484573d6000803e3d6000fd5b505050506040513d601f19601f82011682018060405250810190610c2c9190612ac6565b6114b282826111ff565b6114fe5760405162461bcd60e51b815260206004820152600c60248201527f6f6e6c79476f7665726e6f7200000000000000000000000000000000000000006044820152606401610464565b5050565b6040805160808101825260008082526020820181905291810182905260608101919091525a81600001818152505043826001600160a01b031663b21634826040518163ffffffff1660e01b815260040160206040518083038186803b15801561156a57600080fd5b505afa15801561157e573d6000803e3d6000fd5b505050506040513d601f19601f820116820180604052508101906115a29190612d69565b14156115f05760405162461bcd60e51b815260206004820152601060248201527f7265656e7472616e6379206775617264000000000000000000000000000000006044820152606401610464565b816001600160a01b03166310fdb0a26040518163ffffffff1660e01b8152600401600060405180830381600087803b15801561162b57600080fd5b505af115801561163f573d6000803e3d6000fd5b50506040517f72c6838f0000000000000000000000000000000000000000000000000000000081527f1f2fd42ad6a6cacd573c4b212beb7a4e2499ad45d742a65337097f130e71daff6004820152600092506001600160a01b03851691506372c6838f9060240160206040518083038186803b1580156116be57600080fd5b505afa1580156116d2573d6000803e3d6000fd5b505050506040513d601f19601f820116820180604052508101906116f6919061298a565b90506001600160a01b03811661171257600060208301526117c7565b6001600160a01b038181166060840181905283516040517f43a8a3f1000000000000000000000000000000000000000000000000000000008152928616600484015260248301526000918291906343a8a3f190604401604080518083038186803b15801561177f57600080fd5b505afa158015611793573d6000803e3d6000fd5b505050506040513d601f19601f820116820180604052508101906117b79190612ae0565b9015156020860152604085015250505b50919050565b604051634941d71d60e11b81527feee23dc9ab95b6666db01c2b6cae6a5ef706099a25926e21e0a2e043fe885604600482015260009081906001600160a01b03851690639283ae3a9060240160206040518083038186803b15801561183157600080fd5b505afa158015611845573d6000803e3d6000fd5b505050506040513d601f19601f820116820180604052508101906118699190612d69565b604051634941d71d60e11b81527fd093d4a34a12a221b19c0a6689d5449f1346aa769d15cca4e9782c36fda9339a60048201529091506000906001600160a01b03861690639283ae3a9060240160206040518083038186803b1580156118ce57600080fd5b505afa1580156118e2573d6000803e3d6000fd5b505050506040513d601f19601f820116820180604052508101906119069190612d69565b6040516317ba7d8560e01b81527f8f5b4aabbdb8527d420a29cc90ae207773ad49b73c632c3cfd2f29eb8776f2ea60048201529091506000906001600160a01b038716906317ba7d859060240160206040518083038186803b15801561196b57600080fd5b505afa15801561197f573d6000803e3d6000fd5b505050506040513d601f19601f820116820180604052508101906119a3919061298a565b6040517f68abb5e00000000000000000000000000000000000000000000000000000000081526001600160a01b0388811660048301529192506000918316906368abb5e09060240160206040518083038186803b158015611a0357600080fd5b505afa158015611a17573d6000803e3d6000fd5b505050506040513d601f19601f82011682018060405250810190611a3b9190612d69565b11158015611abd575060405163288c314960e21b81526001600160a01b03868116600483015287169063a230c5249060240160206040518083038186803b158015611a8557600080fd5b505afa158015611a99573d6000803e3d6000fd5b505050506040513d601f19601f82011682018060405250810190611abd9190612ac6565b15611ace5760019350505050610c2c565b8160011415611beb57600083611b7b57604051633de222bb60e21b81526001600160a01b0388811660048301528781166024830152670de0b6b3a7640000919084169063f7888aec9060440160206040518083038186803b158015611b3257600080fd5b505afa158015611b46573d6000803e3d6000fd5b505050506040513d601f19601f82011682018060405250810190611b6a9190612d69565b611b749190612e9d565b9050611b88565b6000945050505050610c2c565b60008111611b9d576000945050505050610c2c565b677fffffffffffffff8110611bb9576032945050505050610c2c565b6000611bd4611bcf611bca8461272b565b612749565b612840565b67ffffffffffffffff169550610c2c945050505050565b8160021415611ca057600083611b7b57604051633de222bb60e21b81526001600160a01b03888116600483015287811660248301526000919084169063f7888aec9060440160206040518083038186803b158015611c4857600080fd5b505afa158015611c5c573d6000803e3d6000fd5b505050506040513d601f19601f82011682018060405250810190611c809190612d69565b11611c8c576000611c8f565b60015b60ff1690505b9350610c2c92505050565b81611d4957600083611b7b57604051633de222bb60e21b81526001600160a01b0388811660048301528781166024830152670de0b6b3a7640000919084169063f7888aec9060440160206040518083038186803b158015611d0057600080fd5b505afa158015611d14573d6000803e3d6000fd5b505050506040513d601f19601f82011682018060405250810190611d389190612d69565b611d429190612e9d565b9050611c95565b60009350505050610c2c565b600080826001600160a01b031663c67143666040518163ffffffff1660e01b815260040160206040518083038186803b158015611d9157600080fd5b505afa158015611da5573d6000803e3d6000fd5b505050506040513d601f19601f82011682018060405250810190611dc99190612d69565b90506000805b828160ff161015611f29576040517f9029444a00000000000000000000000000000000000000000000000000000000815260ff821660048201526001600160a01b0386169063a230c524908290639029444a9060240160206040518083038186803b158015611e3d57600080fd5b505afa158015611e51573d6000803e3d6000fd5b505050506040513d601f19601f82011682018060405250810190611e75919061298a565b6040517fffffffff0000000000000000000000000000000000000000000000000000000060e084901b1681526001600160a01b03909116600482015260240160206040518083038186803b158015611ecc57600080fd5b505afa158015611ee0573d6000803e3d6000fd5b505050506040513d601f19601f82011682018060405250810190611f049190612ac6565b15611f1757611f14600183612e85565b91505b80611f2181612f11565b915050611dcf565b509392505050565b6114fe82823361285c565b600080836001600160a01b031663a6f636416040518163ffffffff1660e01b815260040160006040518083038186803b158015611f7857600080fd5b505afa158015611f8c573d6000803e3d6000fd5b505050506040513d6000823e601f3d908101601f19168201604052611fb49190810190612a12565b6040516317ba7d8560e01b81527f907642cbfe4e58ddd14eaa320923fbe4c29721dd0950ae4cb3b2626e292791ae600482015290915060009081906001600160a01b038716906317ba7d859060240160206040518083038186803b15801561201b57600080fd5b505afa15801561202f573d6000803e3d6000fd5b505050506040513d601f19601f82011682018060405250810190612053919061298a565b905060005b83518160ff16101561225d57816001600160a01b03166324a2cceb8888878560ff168151811061209857634e487b7160e01b600052603260045260246000fd5b60200260200101516040518463ffffffff1660e01b81526004016120dc939291906001600160a01b0393841681526020810192909252909116604082015260600190565b60206040518083038186803b1580156120f457600080fd5b505afa158015612108573d6000803e3d6000fd5b505050506040513d601f19601f8201168201806040525081019061212c9190612ac6565b1561220a57816001600160a01b03166391d2fd538888878560ff168151811061216557634e487b7160e01b600052603260045260246000fd5b60200260200101516040518463ffffffff1660e01b81526004016121a9939291906001600160a01b0393841681526020810192909252909116604082015260600190565b60206040518083038186803b1580156121c157600080fd5b505afa1580156121d5573d6000803e3d6000fd5b505050506040513d601f19601f820116820180604052508101906121f99190612d39565b6122039084612e51565b925061224b565b61223e87858360ff168151811061223157634e487b7160e01b600052603260045260246000fd5b60200260200101516117cd565b6122489084612e51565b92505b8061225581612f11565b915050612058565b509095945050505050565b604051634941d71d60e11b81527feee23dc9ab95b6666db01c2b6cae6a5ef706099a25926e21e0a2e043fe885604600482015260009081906001600160a01b03861690639283ae3a9060240160206040518083038186803b1580156122cc57600080fd5b505afa1580156122e0573d6000803e3d6000fd5b505050506040513d601f19601f820116820180604052508101906123049190612d69565b604051634941d71d60e11b81527fd093d4a34a12a221b19c0a6689d5449f1346aa769d15cca4e9782c36fda9339a60048201529091506000906001600160a01b03871690639283ae3a9060240160206040518083038186803b15801561236957600080fd5b505afa15801561237d573d6000803e3d6000fd5b505050506040513d601f19601f820116820180604052508101906123a19190612d69565b6040516317ba7d8560e01b81527f8f5b4aabbdb8527d420a29cc90ae207773ad49b73c632c3cfd2f29eb8776f2ea60048201529091506000906001600160a01b038816906317ba7d859060240160206040518083038186803b15801561240657600080fd5b505afa15801561241a573d6000803e3d6000fd5b505050506040513d601f19601f8201168201806040525081019061243e919061298a565b6040517f68abb5e00000000000000000000000000000000000000000000000000000000081526001600160a01b0389811660048301529192506000918316906368abb5e09060240160206040518083038186803b15801561249e57600080fd5b505afa1580156124b2573d6000803e3d6000fd5b505050506040513d601f19601f820116820180604052508101906124d69190612d69565b11158015612558575060405163288c314960e21b81526001600160a01b03878116600483015288169063a230c5249060240160206040518083038186803b15801561252057600080fd5b505afa158015612534573d6000803e3d6000fd5b505050506040513d601f19601f820116820180604052508101906125589190612ac6565b1561256957600193505050506102fa565b81600114156125f8576000836125925761258b670de0b6b3a764000087612e9d565b905061259f565b60009450505050506102fa565b600081116125b45760009450505050506102fa565b677fffffffffffffff81106125d05760329450505050506102fa565b60006125e1611bcf611bca8461272b565b67ffffffffffffffff1695506102fa945050505050565b816002141561262b57600083612592576000861161261757600061261a565b60015b60ff1690505b93506102fa92505050565b816126505760008361259257612649670de0b6b3a764000087612e9d565b9050612620565b600093505050506102fa565b600080826001600160a01b031663a6f636416040518163ffffffff1660e01b815260040160006040518083038186803b15801561269857600080fd5b505afa1580156126ac573d6000803e3d6000fd5b505050506040513d6000823e601f3d908101601f191682016040526126d49190810190612a12565b90506000805b82518160ff161015611f295761270d85848360ff168151811061223157634e487b7160e01b600052603260045260246000fd5b6127179083612e51565b91508061272381612f11565b9150506126da565b6000677fffffffffffffff82111561274257600080fd5b5060401b90565b60008082600f0b1361275a57600080fd5b6000600f83900b680100000000000000008112612779576040918201911d5b640100000000811261278d576020918201911d5b62010000811261279f576010918201911d5b61010081126127b0576008918201911d5b601081126127c0576004918201911d5b600481126127d0576002918201911d5b600281126127df576001820191505b7fffffffffffffffffffffffffffffffffffffffffffffffffffffffffffffffc0820160401b600f85900b607f8490031b6780000000000000005b600081131561225d5790800260ff81901c8281029390930192607f011c9060011d61281a565b60008082600f0b121561285257600080fd5b50600f0b60401d90565b8160200151156129125781606001516001600160a01b0316635e5eb01384835a86516128889190612efa565b60408088015190517fffffffff0000000000000000000000000000000000000000000000000000000060e087901b1681526001600160a01b03948516600482015293909216602484015260448301526064820152608401600060405180830381600087803b1580156128f957600080fd5b505af115801561290d573d6000803e3d6000fd5b505050505b826001600160a01b031663d4f7af436040518163ffffffff1660e01b8152600401600060405180830381600087803b15801561294d57600080fd5b505af1158015612961573d6000803e3d6000fd5b50505050505050565b803561297581612f73565b919050565b8051801515811461297557600080fd5b60006020828403121561299b578081fd5b81516102fa81612f73565b600080604083850312156129b8578081fd5b82356129c381612f73565b946020939093013593505050565b6000806000606084860312156129e5578081fd5b83356129f081612f73565b9250602084013591506040840135612a0781612f73565b809150509250925092565b60006020808385031215612a24578182fd5b825167ffffffffffffffff80821115612a3b578384fd5b818501915085601f830112612a4e578384fd5b815181811115612a6057612a60612f5d565b8060051b9150612a71848301612e20565b8181528481019084860184860187018a1015612a8b578788fd5b8795505b83861015612ab95780519450612aa485612f73565b84835260019590950194918601918601612a8f565b5098975050505050505050565b600060208284031215612ad7578081fd5b6102fa8261297a565b60008060408385031215612af2578182fd5b612afb8361297a565b9150602083015190509250929050565b600060208284031215612b1c578081fd5b81356102fa81612f73565b60008060408385031215612b39578182fd5b8235612b4481612f73565b91506020830135612b5481612f73565b809150509250929050565b60008060008060808587031215612b74578081fd5b8435612b7f81612f73565b9350602085810135612b9081612f73565b9350604086013567ffffffffffffffff80821115612bac578384fd5b818801915088601f830112612bbf578384fd5b813581811115612bd157612bd1612f5d565b612be384601f19601f84011601612e20565b91508082528984828501011115612bf8578485fd5b80848401858401378101909201839052509150612c176060860161296a565b905092959194509250565b600080600060608486031215612c36578283fd5b8335612c4181612f73565b92506020840135612c5181612f73565b929592945050506040919091013590565b60008060008060608587031215612c77578182fd5b8435612c8281612f73565b935060208501359250604085013567ffffffffffffffff80821115612ca5578384fd5b818701915087601f830112612cb8578384fd5b813581811115612cc6578485fd5b886020828501011115612cd7578485fd5b95989497505060200194505050565b600080600060608486031215612cfa578081fd5b8335612d0581612f73565b95602085013595506040909401359392505050565b600060208284031215612d2b578081fd5b8151600281106102fa578182fd5b600060208284031215612d4a578081fd5b81516fffffffffffffffffffffffffffffffff811681146102fa578182fd5b600060208284031215612d7a578081fd5b5051919050565b8281526040810160038310612d9857612d98612f47565b8260208301529392505050565b6060810160068510612db957612db9612f47565b938152602081019290925260409091015290565b6000602080835283518082850152825b81811015612df957858101830151858201604001528201612ddd565b81811115612e0a5783604083870101525b50601f01601f1916929092016040019392505050565b604051601f8201601f1916810167ffffffffffffffff81118282101715612e4957612e49612f5d565b604052919050565b60006fffffffffffffffffffffffffffffffff808316818516808303821115612e7c57612e7c612f31565b01949350505050565b60008219821115612e9857612e98612f31565b500190565b600082612eb857634e487b7160e01b81526012600452602481fd5b500490565b6000817fffffffffffffffffffffffffffffffffffffffffffffffffffffffffffffffff0483118215151615612ef557612ef5612f31565b500290565b600082821015612f0c57612f0c612f31565b500390565b600060ff821660ff811415612f2857612f28612f31565b60010192915050565b634e487b7160e01b600052601160045260246000fd5b634e487b7160e01b600052602160045260246000fd5b634e487b7160e01b600052604160045260246000fd5b6001600160a01b0381168114612f8857600080fd5b5056fea2646970667358221220b7a751efd05b807912a9d7b29247b04ebe307ad69be0361ce21fa5e5df27ee5464736f6c63430008040033",
  "linkReferences": {},
  "deployedLinkReferences": {}
}