{
  "_format": "hh-sol-artifact-1",
  "contractName": "ColletiveFundingProposalAdapterContract",
  "sourceName": "contracts/collective/adapters/CollectiveFundingProposalAdapter.sol",
  "abi": [
    {
      "inputs": [],
      "name": "ADAPTER_NOT_FOUND",
      "type": "error"
    },
    {
      "inputs": [],
      "name": "DAOSET_PROPOSALS_UNDONE",
      "type": "error"
    },
    {
      "inputs": [],
      "name": "Empty",
      "type": "error"
    },
    {
      "inputs": [],
      "name": "FUND_RAISE_UNEXECUTE",
      "type": "error"
    },
    {
      "inputs": [],
      "name": "GRACE_PERIOD",
      "type": "error"
    },
    {
      "inputs": [],
      "name": "INVALID_PROPOSALID",
      "type": "error"
    },
    {
      "inputs": [],
      "name": "INVESTMENT_PROPOSAL_NOT_FINALIZED",
      "type": "error"
    },
    {
      "inputs": [],
      "name": "IN_EXECUTE_PROGRESS",
      "type": "error"
    },
    {
      "inputs": [],
      "name": "NOT_INVESTMENT_PERIOD",
      "type": "error"
    },
    {
      "inputs": [],
      "name": "UNDONE_OPERATION_PROPOSALS",
      "type": "error"
    },
    {
      "inputs": [],
      "name": "VOTING_PERIOD",
      "type": "error"
    },
    {
      "anonymous": false,
      "inputs": [
        {
          "indexed": false,
          "internalType": "address",
          "name": "daoAddr",
          "type": "address"
        },
        {
          "indexed": false,
          "internalType": "bytes32",
          "name": "proposalId",
          "type": "bytes32"
        }
      ],
      "name": "ProposalCreated",
      "type": "event"
    },
    {
      "anonymous": false,
      "inputs": [
        {
          "indexed": false,
          "internalType": "address",
          "name": "daoAddr",
          "type": "address"
        },
        {
          "indexed": false,
          "internalType": "bytes32",
          "name": "proposalId",
          "type": "bytes32"
        },
        {
          "indexed": false,
          "internalType": "uint256",
          "name": "allVotingWeight",
          "type": "uint256"
        },
        {
          "indexed": false,
          "internalType": "uint256",
          "name": "nbYes",
          "type": "uint256"
        },
        {
          "indexed": false,
          "internalType": "uint256",
          "name": "nbNo",
          "type": "uint256"
        },
        {
          "indexed": false,
          "internalType": "address[]",
          "name": "investors",
          "type": "address[]"
        }
      ],
      "name": "ProposalExecuted",
      "type": "event"
    },
    {
      "anonymous": false,
      "inputs": [
        {
          "indexed": false,
          "internalType": "address",
          "name": "daoAddr",
          "type": "address"
        },
        {
          "indexed": false,
          "internalType": "bytes32",
          "name": "proposalId",
          "type": "bytes32"
        }
      ],
      "name": "StartVoting",
      "type": "event"
    },
    {
      "inputs": [
        {
          "internalType": "contract DaoRegistry",
          "name": "dao",
          "type": "address"
        }
      ],
      "name": "allDone",
      "outputs": [
        {
          "internalType": "bool",
          "name": "",
          "type": "bool"
        }
      ],
      "stateMutability": "view",
      "type": "function"
    },
    {
      "inputs": [
        {
          "internalType": "address",
          "name": "",
          "type": "address"
        },
        {
          "internalType": "bytes32",
          "name": "",
          "type": "bytes32"
        },
        {
          "internalType": "address",
          "name": "",
          "type": "address"
        }
      ],
      "name": "escrowPaybackTokens",
      "outputs": [
        {
          "internalType": "uint256",
          "name": "",
          "type": "uint256"
        }
      ],
      "stateMutability": "view",
      "type": "function"
    },
    {
      "inputs": [
        {
          "internalType": "address",
          "name": "",
          "type": "address"
        },
        {
          "internalType": "bytes32",
          "name": "",
          "type": "bytes32"
        },
        {
          "internalType": "address",
          "name": "",
          "type": "address"
        }
      ],
      "name": "escrowedPaybackToken",
      "outputs": [
        {
          "internalType": "uint256",
          "name": "",
          "type": "uint256"
        }
      ],
      "stateMutability": "view",
      "type": "function"
    },
    {
      "inputs": [
        {
          "internalType": "contract DaoRegistry",
          "name": "dao",
          "type": "address"
        }
      ],
      "name": "getQueueLength",
      "outputs": [
        {
          "internalType": "uint256",
          "name": "",
          "type": "uint256"
        }
      ],
      "stateMutability": "view",
      "type": "function"
    },
    {
      "inputs": [
        {
          "internalType": "contract DaoRegistry",
          "name": "dao",
          "type": "address"
        },
        {
          "internalType": "address",
          "name": "_addr",
          "type": "address"
        }
      ],
      "name": "isActiveMember",
      "outputs": [
        {
          "internalType": "bool",
          "name": "",
          "type": "bool"
        }
      ],
      "stateMutability": "view",
      "type": "function"
    },
    {
      "inputs": [
        {
          "internalType": "contract DaoRegistry",
          "name": "dao",
          "type": "address"
        }
      ],
      "name": "isPrposalInGracePeriod",
      "outputs": [
        {
          "internalType": "bool",
          "name": "",
          "type": "bool"
        }
      ],
      "stateMutability": "view",
      "type": "function"
    },
    {
      "inputs": [
        {
          "internalType": "address",
          "name": "",
          "type": "address"
        }
      ],
      "name": "ongoingProposal",
      "outputs": [
        {
          "internalType": "bytes32",
          "name": "",
          "type": "bytes32"
        }
      ],
      "stateMutability": "view",
      "type": "function"
    },
    {
      "inputs": [
        {
          "internalType": "contract DaoRegistry",
          "name": "dao",
          "type": "address"
        },
        {
          "internalType": "bytes32",
          "name": "proposalId",
          "type": "bytes32"
        }
      ],
      "name": "processProposal",
      "outputs": [
        {
          "internalType": "bool",
          "name": "",
          "type": "bool"
        }
      ],
      "stateMutability": "nonpayable",
      "type": "function"
    },
    {
      "inputs": [
        {
          "internalType": "address",
          "name": "",
          "type": "address"
        }
      ],
      "name": "proposalQueue",
      "outputs": [
        {
          "internalType": "int128",
          "name": "_begin",
          "type": "int128"
        },
        {
          "internalType": "int128",
          "name": "_end",
          "type": "int128"
        }
      ],
      "stateMutability": "view",
      "type": "function"
    },
    {
      "inputs": [
        {
          "internalType": "address",
          "name": "",
          "type": "address"
        },
        {
          "internalType": "bytes32",
          "name": "",
          "type": "bytes32"
        }
      ],
      "name": "proposals",
      "outputs": [
        {
          "components": [
            {
              "internalType": "address",
              "name": "token",
              "type": "address"
            },
            {
              "internalType": "uint256",
              "name": "fundingAmount",
              "type": "uint256"
            },
            {
              "internalType": "uint256",
              "name": "totalAmount",
              "type": "uint256"
            },
            {
              "internalType": "address",
              "name": "receiver",
              "type": "address"
            }
          ],
          "internalType": "struct ICollectiveFunding.FundingInfo",
          "name": "fundingInfo",
          "type": "tuple"
        },
        {
          "components": [
            {
              "internalType": "bool",
              "name": "escrow",
              "type": "bool"
            },
            {
              "internalType": "address",
              "name": "paybackToken",
              "type": "address"
            },
            {
              "internalType": "uint256",
              "name": "price",
              "type": "uint256"
            },
            {
              "internalType": "uint256",
              "name": "paybackAmount",
              "type": "uint256"
            },
            {
              "internalType": "address",
              "name": "approver",
              "type": "address"
            }
          ],
          "internalType": "struct ICollectiveFunding.EscrowInfo",
          "name": "escrowInfo",
          "type": "tuple"
        },
        {
          "components": [
            {
              "internalType": "uint256",
              "name": "startTime",
              "type": "uint256"
            },
            {
              "internalType": "uint256",
              "name": "endTime",
              "type": "uint256"
            },
            {
              "internalType": "uint256",
              "name": "cliffEndTime",
              "type": "uint256"
            },
            {
              "internalType": "uint256",
              "name": "cliffVestingAmount",
              "type": "uint256"
            },
            {
              "internalType": "uint256",
              "name": "vestingInterval",
              "type": "uint256"
            },
            {
              "internalType": "bool",
              "name": "nftEnable",
              "type": "bool"
            },
            {
              "internalType": "address",
              "name": "erc721",
              "type": "address"
            },
            {
              "internalType": "string",
              "name": "vestName",
              "type": "string"
            },
            {
              "internalType": "string",
              "name": "vestDescription",
              "type": "string"
            }
          ],
          "internalType": "struct ICollectiveFunding.VestingInfo",
          "name": "vestingInfo",
          "type": "tuple"
        },
        {
          "components": [
            {
              "internalType": "uint256",
              "name": "startVotingTime",
              "type": "uint256"
            },
            {
              "internalType": "uint256",
              "name": "stopVotingTime",
              "type": "uint256"
            }
          ],
          "internalType": "struct ICollectiveFunding.TimeInfo",
          "name": "timeInfo",
          "type": "tuple"
        },
        {
          "internalType": "address",
          "name": "proposer",
          "type": "address"
        },
        {
          "internalType": "uint256",
          "name": "executeBlockNum",
          "type": "uint256"
        },
        {
          "internalType": "enum ICollectiveFunding.ProposalState",
          "name": "state",
          "type": "uint8"
        }
      ],
      "stateMutability": "view",
      "type": "function"
    },
    {
      "inputs": [],
      "name": "protocolAddress",
      "outputs": [
        {
          "internalType": "address",
          "name": "",
          "type": "address"
        }
      ],
      "stateMutability": "view",
      "type": "function"
    },
    {
      "inputs": [
        {
          "internalType": "contract DaoRegistry",
          "name": "dao",
          "type": "address"
        },
        {
          "internalType": "address",
          "name": "_protocolAddress",
          "type": "address"
        }
      ],
      "name": "setProtocolAddress",
      "outputs": [],
      "stateMutability": "nonpayable",
      "type": "function"
    },
    {
      "inputs": [
        {
          "internalType": "contract DaoRegistry",
          "name": "dao",
          "type": "address"
        },
        {
          "internalType": "bytes32",
          "name": "proposalId",
          "type": "bytes32"
        }
      ],
      "name": "startVotingProcess",
      "outputs": [],
      "stateMutability": "nonpayable",
      "type": "function"
    },
    {
      "inputs": [
        {
          "components": [
            {
              "internalType": "contract DaoRegistry",
              "name": "dao",
              "type": "address"
            },
            {
              "components": [
                {
                  "internalType": "address",
                  "name": "token",
                  "type": "address"
                },
                {
                  "internalType": "uint256",
                  "name": "fundingAmount",
                  "type": "uint256"
                },
                {
                  "internalType": "uint256",
                  "name": "totalAmount",
                  "type": "uint256"
                },
                {
                  "internalType": "address",
                  "name": "receiver",
                  "type": "address"
                }
              ],
              "internalType": "struct ICollectiveFunding.FundingInfo",
              "name": "fundingInfo",
              "type": "tuple"
            },
            {
              "components": [
                {
                  "internalType": "bool",
                  "name": "escrow",
                  "type": "bool"
                },
                {
                  "internalType": "address",
                  "name": "paybackToken",
                  "type": "address"
                },
                {
                  "internalType": "uint256",
                  "name": "price",
                  "type": "uint256"
                },
                {
                  "internalType": "uint256",
                  "name": "paybackAmount",
                  "type": "uint256"
                },
                {
                  "internalType": "address",
                  "name": "approver",
                  "type": "address"
                }
              ],
              "internalType": "struct ICollectiveFunding.EscrowInfo",
              "name": "escrowInfo",
              "type": "tuple"
            },
            {
              "components": [
                {
                  "internalType": "uint256",
                  "name": "startTime",
                  "type": "uint256"
                },
                {
                  "internalType": "uint256",
                  "name": "endTime",
                  "type": "uint256"
                },
                {
                  "internalType": "uint256",
                  "name": "cliffEndTime",
                  "type": "uint256"
                },
                {
                  "internalType": "uint256",
                  "name": "cliffVestingAmount",
                  "type": "uint256"
                },
                {
                  "internalType": "uint256",
                  "name": "vestingInterval",
                  "type": "uint256"
                },
                {
                  "internalType": "bool",
                  "name": "nftEnable",
                  "type": "bool"
                },
                {
                  "internalType": "address",
                  "name": "erc721",
                  "type": "address"
                },
                {
                  "internalType": "string",
                  "name": "vestName",
                  "type": "string"
                },
                {
                  "internalType": "string",
                  "name": "vestDescription",
                  "type": "string"
                }
              ],
              "internalType": "struct ICollectiveFunding.VestingInfo",
              "name": "vestingInfo",
              "type": "tuple"
            }
          ],
          "internalType": "struct ICollectiveFunding.ProposalParams",
          "name": "params",
          "type": "tuple"
        }
      ],
      "name": "submitProposal",
      "outputs": [
        {
          "internalType": "bool",
          "name": "",
          "type": "bool"
        }
      ],
      "stateMutability": "nonpayable",
      "type": "function"
    },
    {
      "inputs": [
        {
          "internalType": "contract DaoRegistry",
          "name": "dao",
          "type": "address"
        },
        {
          "internalType": "bytes32",
          "name": "proposalId",
          "type": "bytes32"
        }
      ],
      "name": "withdrawPaybakcToken",
      "outputs": [],
      "stateMutability": "nonpayable",
      "type": "function"
    }
  ],
  "bytecode": "0x6080604052600580546001600160a01b031916739ac9c636404c8d46d9eb966d7179983ba5a3941a17905534801561003657600080fd5b506150a2806100466000396000f3fe608060405234801561001057600080fd5b50600436106100f55760003560e01c806362e86df511610097578063a5d6fb1311610066578063a5d6fb1314610246578063ca696d8314610259578063d07e7068146102a2578063e7cbc8a8146102b557600080fd5b806362e86df5146101ed578063642fc0c01461020d5780638ecf7720146102205780639573167d1461023357600080fd5b80633f8a6acb116100d35780633f8a6acb1461017e578063438d9312146101915780634fd194f6146101a45780635cb75276146101c757600080fd5b806305a4da6d146100fa5780630676c1b71461013e5780632b73de3514610169575b600080fd5b61012b6101083660046147b7565b600260209081526000938452604080852082529284528284209052825290205481565b6040519081526020015b60405180910390f35b600554610151906001600160a01b031681565b6040516001600160a01b039091168152602001610135565b61017c61017736600461495c565b6102e6565b005b61017c61018c36600461495c565b610ad1565b61017c61019f366004614924565b610c56565b6101b76101b2366004614754565b610cbe565b6040519015158152602001610135565b6101da6101d536600461478c565b610f64565b6040516101359796959493929190614d4d565b61012b6101fb366004614754565b60036020526000908152604090205481565b6101b761021b366004614754565b6111be565b6101b761022e366004614924565b611202565b6101b761024136600461495c565b6112a1565b61012b610254366004614754565b611fcb565b610288610267366004614754565b600160205260009081526040902054600f81810b91600160801b9004900b82565b60408051600f93840b81529190920b602082015201610135565b6101b76102b03660046149c6565b61203c565b61012b6102c33660046147b7565b600460209081526000938452604080852082529284528284209052825290205481565b8160006102f282612c81565b9050836102ff8133612f4c565b600061030a86611fcb565b1161035c5760405162461bcd60e51b815260206004820152600e60248201527f2150726f706f73616c517565756500000000000000000000000000000000000060448201526064015b60405180910390fd5b6001600160a01b038516600090815260016020526040902061037d90612fa6565b84146103cb5760405162461bcd60e51b815260206004820152601460248201527f2148656164517565756550726f706f73616c49640000000000000000000000006044820152606401610353565b6040805160c08101825260008082526020808301829052828401829052606083018290526080830182905260a083018290526001600160a01b0389168083526003825284832054845282528181528382208883529052919091208151156105155760036001600160a01b0388166000908152602081815260408083208651845290915290206014015460ff16600481111561047657634e487b7160e01b600052602160045260246000fd5b14806104c9575060046001600160a01b0388166000908152602081815260408083208651845290915290206014015460ff1660048111156104c757634e487b7160e01b600052602160045260246000fd5b145b6105155760405162461bcd60e51b815260206004820152601160248201527f50726550726f7073616c4e6f74446f6e650000000000000000000000000000006044820152606401610353565b6040516317ba7d8560e01b81527f8f5b4aabbdb8527d420a29cc90ae207773ad49b73c632c3cfd2f29eb8776f2ea60048201526001600160a01b038816906317ba7d859060240160206040518083038186803b15801561057457600080fd5b505afa158015610588573d6000803e3d6000fd5b505050506040513d601f19601f820116820180604052508101906105ac9190614770565b6001600160a01b039081166060840152604051634941d71d60e11b81527f9876c0f0505bfb2b1c38d3bbd25ba13159172cd0868972d76927723f5a9480fc600482015290881690639283ae3a9060240160206040518083038186803b15801561061457600080fd5b505afa158015610628573d6000803e3d6000fd5b505050506040513d601f19601f8201168201806040525081019061064c9190614a2f565b6106569042614ef2565b60208301526000601482015460ff16600481111561068457634e487b7160e01b600052602160045260246000fd5b146106d15760405162461bcd60e51b815260206004820152601260248201527f50726f706f73616c4e6f74496e517565756500000000000000000000000000006044820152606401610353565b6001600160a01b03871660009081526001602052604090206106f29061301d565b506040516317ba7d8560e01b81527f907642cbfe4e58ddd14eaa320923fbe4c29721dd0950ae4cb3b2626e292791ae60048201526001600160a01b038816906317ba7d859060240160206040518083038186803b15801561075257600080fd5b505afa158015610766573d6000803e3d6000fd5b505050506040513d601f19601f8201168201806040525081019061078a9190614770565b6001600160a01b039081166040848101919091526002830154606085015191517f68abb5e00000000000000000000000000000000000000000000000000000000081528a84166004820152909291909116906368abb5e09060240160206040518083038186803b1580156107fd57600080fd5b505afa158015610811573d6000803e3d6000fd5b505050506040513d601f19601f820116820180604052508101906108359190614a2f565b1015610857576014810180546004919060ff19166001835b0217905550610a7c565b600481015460ff16156109b457600781015460048201546006830154610895928a926001600160a01b0391821692610100909104909116908a6130da565b151560a083018190526108b8576014810180546004919060ff191660018361084d565b60068101546001600160a01b0380891660009081526004602081815260408084208c85528252808420600788015486168552825280842095909555868501518551918201865292815293517f2b0974d00000000000000000000000000000000000000000000000000000000081529190921692632b0974d092610941928c928c92909101614d1c565b600060405180830381600087803b15801561095b57600080fd5b505af115801561096f573d6000803e3d6000fd5b5050426010840155505060208083015160118301556001600160a01b03881660009081526003909152604090208690556014810180546001919060ff1916828061084d565b60408083015181516020810183526000815291517f2b0974d00000000000000000000000000000000000000000000000000000000081526001600160a01b0390911691632b0974d091610a0e918b918b9190600401614d1c565b600060405180830381600087803b158015610a2857600080fd5b505af1158015610a3c573d6000803e3d6000fd5b5050426010840155505060208281015160118301556001600160a01b038816600090815260039091526040902086905560148101805460ff191660011790555b604080516001600160a01b0389168152602081018890527f18ddb9cf36ff335a8de479588545839bd65d46922c1ca875c417a1f6056c08bc910160405180910390a1505050610acb8282613237565b50505050565b816000610add82612c81565b6001600160a01b03851660008181526020818152604080832088845290915280822090516317ba7d8560e01b81527f3b8222b84816150ff171ef9b3356ce3d250b8e7c01c09c0208949acc0880db346004820152939450929091906317ba7d859060240160206040518083038186803b158015610b5957600080fd5b505afa158015610b6d573d6000803e3d6000fd5b505050506040513d601f19601f82011682018060405250810190610b919190614770565b60048084015460148501546040517f94f1d45a0000000000000000000000000000000000000000000000000000000081529394506001600160a01b03808616946394f1d45a94610bf7948d948d9461010090920490911692339260ff9092169101614ce8565b602060405180830381600087803b158015610c1157600080fd5b505af1158015610c25573d6000803e3d6000fd5b505050506040513d601f19601f82011682018060405250810190610c4991906148db565b505050610acb8282613237565b816000610c6282612c81565b905083610c6e81613242565b6001600160a01b0316336001600160a01b031614610c8b57600080fd5b506005805473ffffffffffffffffffffffffffffffffffffffff19166001600160a01b038516179055610acb8282613237565b600080610cca83611fcb565b11158015610cee57506001600160a01b038216600090815260036020526040902054155b15610cfb57506001919050565b6001600160a01b038216600081815260208181526040808320600380845282852054808652918452828520868652935290517f40de703e0000000000000000000000000000000000000000000000000000000081529193916340de703e91610d699160040190815260200190565b60206040518083038186803b158015610d8157600080fd5b505afa158015610d95573d6000803e3d6000fd5b505050506040513d601f19601f82011682018060405250810190610db99190614770565b6001600160a01b03858116600081815260036020526040908190205490517f76225e73000000000000000000000000000000000000000000000000000000008152600481019290925260248201529116906376225e739060440160606040518083038186803b158015610e2b57600080fd5b505afa158015610e3f573d6000803e3d6000fd5b505050506040513d601f19601f82011682018060405250810190610e63919061498d565b5090915060029050816005811115610e8b57634e487b7160e01b600052602160045260246000fd5b148015610e9b5750601182015442115b8015610f4b5750604051634941d71d60e11b81527fb646599143db51c9136a4861a55f7140eab851836e3e1a42ba7804f5356a365560048201526001600160a01b03851690639283ae3a9060240160206040518083038186803b158015610f0157600080fd5b505afa158015610f15573d6000803e3d6000fd5b505050506040513d601f19601f82011682018060405250810190610f399190614a2f565b6011830154610f489190614ef2565b42105b15610f5a575060019392505050565b5060009392505050565b600060208181529281526040808220845291815281902081516080808201845282546001600160a01b03908116835260018401548387015260028401548386015260038401548116606080850191909152855160a08082018852600487015460ff80821615158452610100918290048616848c01526005890154848b01526006890154848601526007890154861684880152895161012081018b5260088a018054825260098b01549c82019c909c52600a8a01549a81019a909a52600b890154948a0194909452600c88015495890195909552600d8701549283161515908801529290041660c0850152600e83018054929591949260e08401919061106890614f80565b80601f016020809104026020016040519081016040528092919081815260200182805461109490614f80565b80156110e15780601f106110b6576101008083540402835291602001916110e1565b820191906000526020600020905b8154815290600101906020018083116110c457829003601f168201915b505050505081526020016007820180546110fa90614f80565b80601f016020809104026020016040519081016040528092919081815260200182805461112690614f80565b80156111735780601f1061114857610100808354040283529160200191611173565b820191906000526020600020905b81548152906001019060200180831161115657829003601f168201915b50505091909252505060408051808201909152601084015481526011840154602082015260128401546013850154601490950154939491936001600160a01b03909116925060ff1687565b6000806111ca83611fcb565b11806111ed57506001600160a01b03821660009081526003602052604090205415155b156111fa57506000919050565b506001919050565b6040517fa230c5240000000000000000000000000000000000000000000000000000000081526001600160a01b0382811660048301526000919084169063a230c5249060240160206040518083038186803b15801561126057600080fd5b505afa158015611274573d6000803e3d6000fd5b505050506040513d601f19601f8201168201806040525081019061129891906148db565b90505b92915050565b60008260006112af82612c81565b90506113156040805161018081018252600080825260208201819052918101829052606081018290529060808201908152602001600081526020016000815260200160008152602001600081526020016000815260200160008152602001606081525090565b6001600160a01b038616600090815260036020526040902054808252156113705780518514611370576040517f6a0f167000000000000000000000000000000000000000000000000000000000815260040160405180910390fd5b6001600160a01b038616600090815260208181526040808320888452909152902060118101544210156113cf576040517fb1610d7e00000000000000000000000000000000000000000000000000000000815260040160405180910390fd5b6002601482015460ff1660048111156113f857634e487b7160e01b600052602160045260246000fd5b1415611430576040517fa642abf000000000000000000000000000000000000000000000000000000000815260040160405180910390fd5b6040517f30490e91000000000000000000000000000000000000000000000000000000008152600481018790526001600160a01b038816906330490e9190602401600060405180830381600087803b15801561148b57600080fd5b505af115801561149f573d6000803e3d6000fd5b50506040517f593e96b60000000000000000000000000000000000000000000000000000000081527f3909e87234f428ccb8748126e2c93f66a62f92a70d315fa5803dec6362be07ab60048201526001600160a01b038a16925063593e96b6915060240160206040518083038186803b15801561151b57600080fd5b505afa15801561152f573d6000803e3d6000fd5b505050506040513d601f19601f820116820180604052508101906115539190614770565b6001600160a01b0390811660608401526040517f40de703e00000000000000000000000000000000000000000000000000000000815260048101889052908816906340de703e9060240160206040518083038186803b1580156115b557600080fd5b505afa1580156115c9573d6000803e3d6000fd5b505050506040513d601f19601f820116820180604052508101906115ed9190614770565b6001600160a01b031660208301819052611633576040517f2c87831e00000000000000000000000000000000000000000000000000000000815260040160405180910390fd5b61163d8787613325565b6fffffffffffffffffffffffffffffffff1660e083015260208201516040517f76225e730000000000000000000000000000000000000000000000000000000081526001600160a01b03898116600483015260248201899052909116906376225e739060440160606040518083038186803b1580156116bb57600080fd5b505afa1580156116cf573d6000803e3d6000fd5b505050506040513d601f19601f820116820180604052508101906116f3919061498d565b60c0850181905260a085018290526080850183600581111561172557634e487b7160e01b600052602160045260246000fd5b600581111561174457634e487b7160e01b600052602160045260246000fd5b905250600291506117529050565b8260800151600581111561177657634e487b7160e01b600052602160045260246000fd5b1415611e9b5760148101805460ff191660021790556011810154421180156118425750604051634941d71d60e11b81527fb646599143db51c9136a4861a55f7140eab851836e3e1a42ba7804f5356a365560048201526001600160a01b03881690639283ae3a9060240160206040518083038186803b1580156117f857600080fd5b505afa15801561180c573d6000803e3d6000fd5b505050506040513d601f19601f820116820180604052508101906118309190614a2f565b601182015461183f9190614ef2565b42105b15611879576040517fc1a287e200000000000000000000000000000000000000000000000000000000815260040160405180910390fd5b6001600160a01b03871660008181526003602052604090819020889055516317ba7d8560e01b81527f8f5b4aabbdb8527d420a29cc90ae207773ad49b73c632c3cfd2f29eb8776f2ea60048201526317ba7d859060240160206040518083038186803b1580156118e857600080fd5b505afa1580156118fc573d6000803e3d6000fd5b505050506040513d601f19601f820116820180604052508101906119209190614770565b6001600160a01b0390811660408481019190915251634941d71d60e11b81527f11618fa890234170104debf73b2563b667bd200bac1d7d8dd024e2f3fadaefd26004820152670de0b6b3a764000091891690639283ae3a9060240160206040518083038186803b15801561199357600080fd5b505afa1580156119a7573d6000803e3d6000fd5b505050506040513d601f19601f820116820180604052508101906119cb9190614a2f565b60028301546119da9190614f1e565b6119e49190614f0a565b82610120018181525050670de0b6b3a764000082604001516001600160a01b031663b0e21e8a6040518163ffffffff1660e01b815260040160206040518083038186803b158015611a3457600080fd5b505afa158015611a48573d6000803e3d6000fd5b505050506040513d601f19601f82011682018060405250810190611a6c9190614a2f565b6002830154611a7b9190614f1e565b611a859190614f0a565b610100830152604051634941d71d60e11b81527f93cedac00cdd81a5ba30fc10f5a5cde34b890441afbdd84297eb8623d720a89c6004820152670de0b6b3a7640000906001600160a01b03891690639283ae3a9060240160206040518083038186803b158015611af457600080fd5b505afa158015611b08573d6000803e3d6000fd5b505050506040513d601f19601f82011682018060405250810190611b2c9190614a2f565b6002830154611b3b9190614f1e565b611b459190614f0a565b82610140018181525050806000016002015482606001516001600160a01b03166318160ddd6040518163ffffffff1660e01b815260040160206040518083038186803b158015611b9457600080fd5b505afa158015611ba8573d6000803e3d6000fd5b505050506040513d601f19601f82011682018060405250810190611bcc9190614a2f565b1015611bee576014810180546004919060ff19166001835b0217905550611f3d565b6040516317ba7d8560e01b81527f183027a84d1b84d3cbf7b351110205fd057b5701a490be772ea6489292256ee360048201526000906001600160a01b038916906317ba7d859060240160206040518083038186803b158015611c5057600080fd5b505afa158015611c64573d6000803e3d6000fd5b505050506040513d601f19601f82011682018060405250810190611c889190614770565b604080516060808201835260038601546001600160a01b039081168352600554811660208085019190915260128801548216848601528451608081018652600189015481526101208a015191810191909152610100890151818601526101408901519281019290925292517f9f8c714900000000000000000000000000000000000000000000000000000000815293945091841692639f8c714992611d34928d92909190600401614c77565b600060405180830381600087803b158015611d4e57600080fd5b505af1158015611d62573d6000803e3d6000fd5b50505050600482015460ff1615611db357611d7d8888613651565b6001600160a01b0380891660009081526004602090815260408083208b8452825280832060078701549094168352929052908120555b60018201546101008401516101208501516101408601516040517fba8c778f0000000000000000000000000000000000000000000000000000000081526001600160a01b038d8116600483015260248201959095526044810193909352606483019190915260848201529082169063ba8c778f9060a401600060405180830381600087803b158015611e4457600080fd5b505af1158015611e58573d6000803e3d6000fd5b505050506040513d6000823e601f3d908101601f19168201604052611e8091908101906147f8565b6101608401525060148101805460ff19166003179055611f3d565b600382608001516005811115611ec157634e487b7160e01b600052602160045260246000fd5b1480611ef05750600182608001516005811115611eee57634e487b7160e01b600052602160045260246000fd5b145b15611f0b576014810180546004919060ff1916600183611be4565b6040517f70ea4a3100000000000000000000000000000000000000000000000000000000815260040160405180910390fd5b6001600160a01b0387166000908152600360205260408082209190915543601383015560e083015160a084015160c085015161016086015193517ff26f61ddac1f16915351435f29723aed51008f8e3e1046151c7edfa9ab8ff82994611fab948d948d949193909290614b9f565b60405180910390a1600194505050611fc38282613237565b505092915050565b6001600160a01b038116600090815260016020526040812054600f81810b810b600160801b909204810b900b131561202f576001600160a01b038216600090815260016020526040902054600f81810b810b600160801b909204810b900b0361129b565b506000919050565b919050565b600061204b6020830183614754565b600061205682612c81565b90506120656020850185614754565b61206f8133612f4c565b600061207e6020870187614754565b6040516317ba7d8560e01b81527f8f5b4aabbdb8527d420a29cc90ae207773ad49b73c632c3cfd2f29eb8776f2ea60048201526001600160a01b0391909116906317ba7d859060240160206040518083038186803b1580156120df57600080fd5b505afa1580156120f3573d6000803e3d6000fd5b505050506040513d601f19601f820116820180604052508101906121179190614770565b905061212e6121296020880188614754565b6137e8565b612164576040517f78a843c800000000000000000000000000000000000000000000000000000000815260040160405180910390fd5b60016001600160a01b038216630c916bae61218260208a018a614754565b6040517fffffffff0000000000000000000000000000000000000000000000000000000060e084901b1681526001600160a01b03909116600482015260240160206040518083038186803b1580156121d957600080fd5b505afa1580156121ed573d6000803e3d6000fd5b505050506040513d601f19601f82011682018060405250810190612211919061496e565b600381111561223057634e487b7160e01b600052602160045260246000fd5b1415612268576040517f55fe656400000000000000000000000000000000000000000000000000000000815260040160405180910390fd5b61227d6122786020880188614754565b613921565b61228a6020870187614754565b6001600160a01b031663776d13c56040518163ffffffff1660e01b8152600401600060405180830381600087803b1580156122c457600080fd5b505af11580156122d8573d6000803e3d6000fd5b505060408051602081019091526000815291506122f29050565b6123af6123026020890189614754565b60c01b61238a61231560208b018b614754565b6001600160a01b031663f1457aac6040518163ffffffff1660e01b815260040160206040518083038186803b15801561234d57600080fd5b505afa158015612361573d6000803e3d6000fd5b505050506040513d601f19601f820116820180604052508101906123859190614a2f565b613cac565b60405160200161239b929190614b31565b604051602081830303815290604052613e02565b81526123be6020880188614754565b81516040517fb73dc3890000000000000000000000000000000000000000000000000000000081526001600160a01b03929092169163b73dc389916124099160040190815260200190565b600060405180830381600087803b15801561242357600080fd5b505af1158015612437573d6000803e3d6000fd5b506000925061244c9150506020890189614754565b604051634941d71d60e11b81527fb035c58a9b643066fc5cd78a708da0456c36221a03ca174ff3b76d4306ff7c6c60048201526001600160a01b039190911690639283ae3a9060240160206040518083038186803b1580156124ad57600080fd5b505afa1580156124c1573d6000803e3d6000fd5b505050506040513d601f19601f820116820180604052508101906124e59190614a2f565b836001600160a01b031663b0e21e8a6040518163ffffffff1660e01b815260040160206040518083038186803b15801561251e57600080fd5b505afa158015612532573d6000803e3d6000fd5b505050506040513d601f19601f820116820180604052508101906125569190614a2f565b6125609190614ef2565b61257290670de0b6b3a7640000614f3d565b612588670de0b6b3a764000060408b0135614f1e565b6125929190614f0a565b6040805161016081018252919250819060e082019081906125b8908d0160208e01614754565b6001600160a01b031681526040808d0135602083015281018590526060016125e660a08d0160808e01614754565b6001600160a01b031681525081526020016040518060a001604052808b60a001600001602081019061261891906148bf565b1515815260200161262f60e08d0160c08e01614754565b6001600160a01b0316815260e08c013560208201526101008c013560408201526060016126646101408d016101208e01614754565b6001600160a01b031681525081526020016040518061012001604052808b8061014001906126929190614e81565b3581526020016126a66101408d018d614e81565b6020908101358252016126bd6101408d018d614e81565b6040013581526020016126d46101408d018d614e81565b6060013581526020016126eb6101408d018d614e81565b6080013581526020016127026101408d018d614e81565b6127139060c081019060a0016148bf565b151581526020016127286101408d018d614e81565b6127399060e081019060c001614754565b6001600160a01b031681526020016127556101408d018d614e81565b6127639060e0810190614e17565b8080601f0160208091040260200160405190810160405280939291908181526020018383808284376000920191909152505050908252506020016127ab6101408d018d614e81565b6127ba90610100810190614e17565b8080601f016020809104026020016040519081016040528093929190818152602001838380828437600092018290525093909452505091835250604080518082018252828152602081810184905284015233908301526060820181905260809091015260008061282d60208c018c614754565b6001600160a01b0390811682526020808301939093526040918201600090812087518252845282902084518051825473ffffffffffffffffffffffffffffffffffffffff199081169185169190911783558186015160018401558185015160028401556060918201516003840180548316918616919091179055868601518051600485018054838a01517fffffffffffffffffffffff0000000000000000000000000000000000000000009182169315157fffffffffffffffffffffff0000000000000000000000000000000000000000ff90811694909417610100918a168202179092558389015160058801558386015160068801556080938401516007880180549096169089161790945589880151805160088801908155818b0151600989015598810151600a88015594850151600b87015591840151600c86015560a0840151600d8601805460c087015195169115159092161792909516021790925560e0820151805191949293926129ab92600e870192909101906146b0565b5061010082015180516129c89160078401916020909101906146b0565b505050606082015180516010830155602001516011820155608082015160128201805473ffffffffffffffffffffffffffffffffffffffff19166001600160a01b0390921691909117905560a0820151601382015560c082015160148201805460ff19166001836004811115612a4e57634e487b7160e01b600052602160045260246000fd5b0217905550612a639150506020890189614754565b82516001600160a01b03919091169063815a2bf490612a8560208c018c614754565b6040516317ba7d8560e01b81527f907642cbfe4e58ddd14eaa320923fbe4c29721dd0950ae4cb3b2626e292791ae60048201526001600160a01b0391909116906317ba7d859060240160206040518083038186803b158015612ae657600080fd5b505afa158015612afa573d6000803e3d6000fd5b505050506040513d601f19601f82011682018060405250810190612b1e9190614770565b6040517fffffffff0000000000000000000000000000000000000000000000000000000060e085901b16815260048101929092526001600160a01b03166024820152604401600060405180830381600087803b158015612b7d57600080fd5b505af1158015612b91573d6000803e3d6000fd5b50508351612c169250905060016000612bad60208d018d614754565b6001600160a01b031681526020810191909152604001600020908154600160801b90819004600f90810b80820b820b6000908152600180870160205260409091209490945584549301900b6fffffffffffffffffffffffffffffffff9081169091029116179055565b7ffe22c13d0cc04eef2a813c30901da5f8cd64f5ba91866fccce71c606ce464874612c4460208a018a614754565b8351604080516001600160a01b03909316835260208301919091520160405180910390a16001965050505050612c7a8282613237565b5050919050565b6040805160808101825260008082526020820181905291810182905260608101919091525a81600001818152505043826001600160a01b031663b21634826040518163ffffffff1660e01b815260040160206040518083038186803b158015612ce957600080fd5b505afa158015612cfd573d6000803e3d6000fd5b505050506040513d601f19601f82011682018060405250810190612d219190614a2f565b1415612d6f5760405162461bcd60e51b815260206004820152601060248201527f7265656e7472616e6379206775617264000000000000000000000000000000006044820152606401610353565b816001600160a01b03166310fdb0a26040518163ffffffff1660e01b8152600401600060405180830381600087803b158015612daa57600080fd5b505af1158015612dbe573d6000803e3d6000fd5b50506040517f72c6838f0000000000000000000000000000000000000000000000000000000081527f1f2fd42ad6a6cacd573c4b212beb7a4e2499ad45d742a65337097f130e71daff6004820152600092506001600160a01b03851691506372c6838f9060240160206040518083038186803b158015612e3d57600080fd5b505afa158015612e51573d6000803e3d6000fd5b505050506040513d601f19601f82011682018060405250810190612e759190614770565b90506001600160a01b038116612e915760006020830152612f46565b6001600160a01b038181166060840181905283516040517f43a8a3f1000000000000000000000000000000000000000000000000000000008152928616600484015260248301526000918291906343a8a3f190604401604080518083038186803b158015612efe57600080fd5b505afa158015612f12573d6000803e3d6000fd5b505050506040513d601f19601f82011682018060405250810190612f3691906148f7565b9015156020860152604085015250505b50919050565b612f568282611202565b612fa25760405162461bcd60e51b815260206004820152600c60248201527f6f6e6c79476f7665726e6f7200000000000000000000000000000000000000006044820152606401610353565b5050565b6000612fc58254600f81810b810b600160801b909204810b900b131590565b15612ffc576040517f3db2a12a00000000000000000000000000000000000000000000000000000000815260040160405180910390fd5b508054600f90810b810b900b60009081526001909101602052604090205490565b600061303c8254600f81810b810b600160801b909204810b900b131590565b15613073576040517f3db2a12a00000000000000000000000000000000000000000000000000000000815260040160405180910390fd5b508054600f90810b80820b820b600090815260018085016020526040822080549290558454920190920b6fffffffffffffffffffffffffffffffff167fffffffffffffffffffffffffffffffff000000000000000000000000000000009091161790915590565b6040516317ba7d8560e01b81527f3b8222b84816150ff171ef9b3356ce3d250b8e7c01c09c0208949acc0880db34600482015260009081906001600160a01b038816906317ba7d859060240160206040518083038186803b15801561313e57600080fd5b505afa158015613152573d6000803e3d6000fd5b505050506040513d601f19601f820116820180604052508101906131769190614770565b6040517f54fcae87000000000000000000000000000000000000000000000000000000008152600481018690526001600160a01b0389811660248301528881166044830152878116606483015260848201869052919250908216906354fcae879060a401602060405180830381600087803b1580156131f457600080fd5b505af1158015613208573d6000803e3d6000fd5b505050506040513d601f19601f8201168201806040525081019061322c91906148db565b979650505050505050565b612fa2828233613e1e565b6000816001600160a01b03166348f7f2a36040518163ffffffff1660e01b815260040160206040518083038186803b15801561327d57600080fd5b505afa158015613291573d6000803e3d6000fd5b505050506040513d601f19601f820116820180604052508101906132b59190614770565b6001600160a01b0316638da5cb5b6040518163ffffffff1660e01b815260040160206040518083038186803b1580156132ed57600080fd5b505afa158015613301573d6000803e3d6000fd5b505050506040513d601f19601f8201168201806040525081019061129b9190614770565b600080836001600160a01b031663a6f636416040518163ffffffff1660e01b815260040160006040518083038186803b15801561336157600080fd5b505afa158015613375573d6000803e3d6000fd5b505050506040513d6000823e601f3d908101601f1916820160405261339d91908101906147f8565b6040516317ba7d8560e01b81527f907642cbfe4e58ddd14eaa320923fbe4c29721dd0950ae4cb3b2626e292791ae600482015290915060009081906001600160a01b038716906317ba7d859060240160206040518083038186803b15801561340457600080fd5b505afa158015613418573d6000803e3d6000fd5b505050506040513d601f19601f8201168201806040525081019061343c9190614770565b905060005b83518160ff16101561364657816001600160a01b03166324a2cceb8888878560ff168151811061348157634e487b7160e01b600052603260045260246000fd5b60200260200101516040518463ffffffff1660e01b81526004016134c5939291906001600160a01b0393841681526020810192909252909116604082015260600190565b60206040518083038186803b1580156134dd57600080fd5b505afa1580156134f1573d6000803e3d6000fd5b505050506040513d601f19601f8201168201806040525081019061351591906148db565b156135f357816001600160a01b03166391d2fd538888878560ff168151811061354e57634e487b7160e01b600052603260045260246000fd5b60200260200101516040518463ffffffff1660e01b8152600401613592939291906001600160a01b0393841681526020810192909252909116604082015260600190565b60206040518083038186803b1580156135aa57600080fd5b505afa1580156135be573d6000803e3d6000fd5b505050506040513d601f19601f820116820180604052508101906135e291906149ff565b6135ec9084614ebe565b9250613634565b61362787858360ff168151811061361a57634e487b7160e01b600052603260045260246000fd5b6020026020010151613f2c565b6136319084614ebe565b92505b8061363e81614fd0565b915050613441565b509095945050505050565b6040516317ba7d8560e01b81527fbba99fd05ef530e2ad5cae360774c7ec6b1f135b279ab165354152f7dc991c1060048201526000906001600160a01b038416906317ba7d859060240160206040518083038186803b1580156136b357600080fd5b505afa1580156136c7573d6000803e3d6000fd5b505050506040513d601f19601f820116820180604052508101906136eb9190614770565b6001600160a01b03808516600090815260208181526040808320878452825291829020825160c08101845260068201548152600882015492810192909252600981015482840152600a8101546060830152600b8101546080830152600c81015460a0830152600480820154601283015494517f24d1669d00000000000000000000000000000000000000000000000000000000815296975091959294808816946324d1669d946137af948c9461010090910484169392909216918b91899101614c15565b600060405180830381600087803b1580156137c957600080fd5b505af11580156137dd573d6000803e3d6000fd5b505050505050505050565b6040516317ba7d8560e01b81527fdac6d9ce728ebc92a61253866b4e5a4c73b76ba0aa11e7297a633f6232f54237600482015260009081906001600160a01b038416906317ba7d859060240160206040518083038186803b15801561384c57600080fd5b505afa158015613860573d6000803e3d6000fd5b505050506040513d601f19601f820116820180604052508101906138849190614770565b6040517f9a0242fc0000000000000000000000000000000000000000000000000000000081526001600160a01b03858116600483015291925090821690639a0242fc9060240160206040518083038186803b1580156138e257600080fd5b505afa1580156138f6573d6000803e3d6000fd5b505050506040513d601f19601f8201168201806040525081019061391a91906148db565b9392505050565b6040516317ba7d8560e01b81527fd0e09561b13ad01191fc8f65f6fc85651e4f495d3f9ab93d95010ea58382434b60048201526000906001600160a01b038316906317ba7d859060240160206040518083038186803b15801561398357600080fd5b505afa158015613997573d6000803e3d6000fd5b505050506040513d601f19601f820116820180604052508101906139bb9190614770565b6040516317ba7d8560e01b81527f1a4f1390baec30049008138e650571a3c4374eba88116bc89dc192f2f9295efe60048201529091506000906001600160a01b038416906317ba7d859060240160206040518083038186803b158015613a2057600080fd5b505afa158015613a34573d6000803e3d6000fd5b505050506040513d601f19601f82011682018060405250810190613a589190614770565b6040516317ba7d8560e01b81527f3b4de3360220463b2e1b681516ac7919070009f0544e8465d80dc511828dae5b60048201529091506000906001600160a01b038516906317ba7d859060240160206040518083038186803b158015613abd57600080fd5b505afa158015613ad1573d6000803e3d6000fd5b505050506040513d601f19601f82011682018060405250810190613af59190614770565b604051630190bf0360e61b81526001600160a01b0386811660048301529192509084169063642fc0c09060240160206040518083038186803b158015613b3a57600080fd5b505afa158015613b4e573d6000803e3d6000fd5b505050506040513d601f19601f82011682018060405250810190613b7291906148db565b1580613bf45750604051630190bf0360e61b81526001600160a01b03858116600483015283169063642fc0c09060240160206040518083038186803b158015613bba57600080fd5b505afa158015613bce573d6000803e3d6000fd5b505050506040513d601f19601f82011682018060405250810190613bf291906148db565b155b80613c755750604051630190bf0360e61b81526001600160a01b03858116600483015282169063642fc0c09060240160206040518083038186803b158015613c3b57600080fd5b505afa158015613c4f573d6000803e3d6000fd5b505050506040513d601f19601f82011682018060405250810190613c7391906148db565b155b15610acb576040517f08988c4f00000000000000000000000000000000000000000000000000000000815260040160405180910390fd5b606081613cec57505060408051808201909152600181527f3000000000000000000000000000000000000000000000000000000000000000602082015290565b8160005b8115613d165780613d0081614fb5565b9150613d0f9050600a83614f0a565b9150613cf0565b60008167ffffffffffffffff811115613d3f57634e487b7160e01b600052604160045260246000fd5b6040519080825280601f01601f191660200182016040528015613d69576020820181803683370190505b5090505b8415613dfa57613d7e600183614f3d565b9150613d8b600a86614ff0565b613d96906030614ef2565b60f81b818381518110613db957634e487b7160e01b600052603260045260246000fd5b60200101907effffffffffffffffffffffffffffffffffffffffffffffffffffffffffffff1916908160001a905350613df3600a86614f0a565b9450613d6d565b949350505050565b6000815160001415613e1657506000919050565b506020015190565b816020015115613ed45781606001516001600160a01b0316635e5eb01384835a8651613e4a9190614f3d565b60408088015190517fffffffff0000000000000000000000000000000000000000000000000000000060e087901b1681526001600160a01b03948516600482015293909216602484015260448301526064820152608401600060405180830381600087803b158015613ebb57600080fd5b505af1158015613ecf573d6000803e3d6000fd5b505050505b826001600160a01b031663d4f7af436040518163ffffffff1660e01b8152600401600060405180830381600087803b158015613f0f57600080fd5b505af1158015613f23573d6000803e3d6000fd5b50505050505050565b604051634941d71d60e11b81527feee23dc9ab95b6666db01c2b6cae6a5ef706099a25926e21e0a2e043fe885604600482015260009081906001600160a01b03851690639283ae3a9060240160206040518083038186803b158015613f9057600080fd5b505afa158015613fa4573d6000803e3d6000fd5b505050506040513d601f19601f82011682018060405250810190613fc89190614a2f565b604051634941d71d60e11b81527fd093d4a34a12a221b19c0a6689d5449f1346aa769d15cca4e9782c36fda9339a60048201529091506000906001600160a01b03861690639283ae3a9060240160206040518083038186803b15801561402d57600080fd5b505afa158015614041573d6000803e3d6000fd5b505050506040513d601f19601f820116820180604052508101906140659190614a2f565b6040516317ba7d8560e01b81527f8f5b4aabbdb8527d420a29cc90ae207773ad49b73c632c3cfd2f29eb8776f2ea60048201529091506000906001600160a01b038716906317ba7d859060240160206040518083038186803b1580156140ca57600080fd5b505afa1580156140de573d6000803e3d6000fd5b505050506040513d601f19601f820116820180604052508101906141029190614770565b6040517f593e96b60000000000000000000000000000000000000000000000000000000081527f3909e87234f428ccb8748126e2c93f66a62f92a70d315fa5803dec6362be07ab60048201529091506000906001600160a01b0388169063593e96b69060240160206040518083038186803b15801561418057600080fd5b505afa158015614194573d6000803e3d6000fd5b505050506040513d601f19601f820116820180604052508101906141b89190614770565b6040517f70a0823100000000000000000000000000000000000000000000000000000000815261decd60048201526001600160a01b0391909116906370a082319060240160206040518083038186803b15801561421457600080fd5b505afa158015614228573d6000803e3d6000fd5b505050506040513d601f19601f8201168201806040525081019061424c9190614a2f565b111580156142e757506040517fa230c5240000000000000000000000000000000000000000000000000000000081526001600160a01b03868116600483015287169063a230c5249060240160206040518083038186803b1580156142af57600080fd5b505afa1580156142c3573d6000803e3d6000fd5b505050506040513d601f19601f820116820180604052508101906142e791906148db565b156142f8576001935050505061129b565b8160011415614415576000836143a557604051633de222bb60e21b81526001600160a01b0388811660048301528781166024830152670de0b6b3a7640000919084169063f7888aec9060440160206040518083038186803b15801561435c57600080fd5b505afa158015614370573d6000803e3d6000fd5b505050506040513d601f19601f820116820180604052508101906143949190614a2f565b61439e9190614f0a565b90506143b2565b600094505050505061129b565b600081116143c757600094505050505061129b565b677fffffffffffffff81106143e357603294505050505061129b565b60006143fe6143f96143f48461457f565b61459d565b614694565b67ffffffffffffffff16955061129b945050505050565b81600214156144ca576000836143a557604051633de222bb60e21b81526001600160a01b03888116600483015287811660248301526000919084169063f7888aec9060440160206040518083038186803b15801561447257600080fd5b505afa158015614486573d6000803e3d6000fd5b505050506040513d601f19601f820116820180604052508101906144aa9190614a2f565b116144b65760006144b9565b60015b60ff1690505b935061129b92505050565b81614573576000836143a557604051633de222bb60e21b81526001600160a01b0388811660048301528781166024830152670de0b6b3a7640000919084169063f7888aec9060440160206040518083038186803b15801561452a57600080fd5b505afa15801561453e573d6000803e3d6000fd5b505050506040513d601f19601f820116820180604052508101906145629190614a2f565b61456c9190614f0a565b90506144bf565b6000935050505061129b565b6000677fffffffffffffff82111561459657600080fd5b5060401b90565b60008082600f0b136145ae57600080fd5b6000600f83900b6801000000000000000081126145cd576040918201911d5b64010000000081126145e1576020918201911d5b6201000081126145f3576010918201911d5b6101008112614604576008918201911d5b60108112614614576004918201911d5b60048112614624576002918201911d5b60028112614633576001820191505b7fffffffffffffffffffffffffffffffffffffffffffffffffffffffffffffffc0820160401b600f85900b607f8490031b6780000000000000005b60008113156136465790800260ff81901c8281029390930192607f011c9060011d61466e565b60008082600f0b12156146a657600080fd5b50600f0b60401d90565b8280546146bc90614f80565b90600052602060002090601f0160209004810192826146de5760008555614724565b82601f106146f757805160ff1916838001178555614724565b82800160010185558215614724579182015b82811115614724578251825591602001919060010190614709565b50614730929150614734565b5090565b5b808211156147305760008155600101614735565b805161203781615046565b600060208284031215614765578081fd5b813561391a81615046565b600060208284031215614781578081fd5b815161391a81615046565b6000806040838503121561479e578081fd5b82356147a981615046565b946020939093013593505050565b6000806000606084860312156147cb578081fd5b83356147d681615046565b92506020840135915060408401356147ed81615046565b809150509250925092565b6000602080838503121561480a578182fd5b825167ffffffffffffffff80821115614821578384fd5b818501915085601f830112614834578384fd5b81518181111561484657614846615030565b8060051b604051601f19603f8301168101818110858211171561486b5761486b615030565b604052828152858101935084860182860187018a1015614889578788fd5b8795505b838610156148b25761489e81614749565b85526001959095019493860193860161488d565b5098975050505050505050565b6000602082840312156148d0578081fd5b813561391a8161505e565b6000602082840312156148ec578081fd5b815161391a8161505e565b60008060408385031215614909578182fd5b82516149148161505e565b6020939093015192949293505050565b60008060408385031215614936578182fd5b823561494181615046565b9150602083013561495181615046565b809150509250929050565b6000806040838503121561479e578182fd5b60006020828403121561497f578081fd5b81516004811061391a578182fd5b6000806000606084860312156149a1578283fd5b8351600681106149af578384fd5b602085015160409095015190969495509392505050565b6000602082840312156149d7578081fd5b813567ffffffffffffffff8111156149ed578182fd5b8201610160818503121561391a578182fd5b600060208284031215614a10578081fd5b81516fffffffffffffffffffffffffffffffff8116811461391a578182fd5b600060208284031215614a40578081fd5b5051919050565b60008151808452614a5f816020860160208601614f54565b601f01601f19169290920160200192915050565b60058110614a9157634e487b7160e01b600052602160045260246000fd5b9052565b6000610120825184526020830151602085015260408301516040850152606083015160608501526080830151608085015260a0830151614ad960a086018215159052565b5060c0830151614af460c08601826001600160a01b03169052565b5060e08301518160e0860152614b0c82860182614a47565b9150506101008084015185830382870152614b278382614a47565b9695505050505050565b7fffffffffffffffff000000000000000000000000000000000000000000000000831681527f496e766573746d656e7423000000000000000000000000000000000000000000600882015260008251614b91816013850160208701614f54565b919091016013019392505050565b600060c082016001600160a01b03808a1684526020898186015288604086015287606086015286608086015260c060a086015282865180855260e0870191508288019450855b81811015614c03578551851683529483019491830191600101614be5565b50909c9b505050505050505050505050565b6000610140820190506001600160a01b03808816835260208188168185015281871660408501528560608501526080840191508460005b6006811015614c6957815184529282019290820190600101614c4c565b505050509695505050505050565b6001600160a01b03848116825261010082019060208084018660005b6003811015614cb2578151851683529183019190830190600101614c93565b5050506080840191508460005b6004811015614cdc57815184529282019290820190600101614cbf565b50505050949350505050565b6001600160a01b0386811682526020820186905284811660408301528316606082015260a08101614b276080830184614a73565b6001600160a01b0384168152826020820152606060408201526000614d446060830184614a47565b95945050505050565b60006101e06001600160a01b03808b5116845260208b0151602085015260408b015160408501528060608c01511660608501528951151560808501528060208b01511660a085015260408a015160c085015260608a015160e08501528060808b0151166101008501525080610120840152614dca81840189614a95565b875161014085015260208801516101608501529150614de69050565b6001600160a01b038516610180830152836101a0830152614e0b6101c0830184614a73565b98975050505050505050565b60008083357fffffffffffffffffffffffffffffffffffffffffffffffffffffffffffffffe1843603018112614e4b578283fd5b83018035915067ffffffffffffffff821115614e65578283fd5b602001915036819003821315614e7a57600080fd5b9250929050565b600082357ffffffffffffffffffffffffffffffffffffffffffffffffffffffffffffffee1833603018112614eb4578182fd5b9190910192915050565b60006fffffffffffffffffffffffffffffffff808316818516808303821115614ee957614ee9615004565b01949350505050565b60008219821115614f0557614f05615004565b500190565b600082614f1957614f1961501a565b500490565b6000816000190483118215151615614f3857614f38615004565b500290565b600082821015614f4f57614f4f615004565b500390565b60005b83811015614f6f578181015183820152602001614f57565b83811115610acb5750506000910152565b600181811c90821680614f9457607f821691505b60208210811415612f4657634e487b7160e01b600052602260045260246000fd5b6000600019821415614fc957614fc9615004565b5060010190565b600060ff821660ff811415614fe757614fe7615004565b60010192915050565b600082614fff57614fff61501a565b500690565b634e487b7160e01b600052601160045260246000fd5b634e487b7160e01b600052601260045260246000fd5b634e487b7160e01b600052604160045260246000fd5b6001600160a01b038116811461505b57600080fd5b50565b801515811461505b57600080fdfea26469706673582212207d8cbe8d635921dfacc745eeb1b1fb2f232c8fc1bc744fa20831db2bdd6d9f6464736f6c63430008040033",
  "linkReferences": {},
  "deployedLinkReferences": {}
}