{
  "_format": "hh-sol-artifact-1",
  "contractName": "ColletiveFundingPoolAdapterContract",
  "sourceName": "contracts/collective/adapters/CollectiveFundingPoolAdapter.sol",
  "abi": [
    {
      "inputs": [],
      "name": "ACCESS_DENIED",
      "type": "error"
    },
    {
      "inputs": [],
      "name": "EXECUTED_ALREADY",
      "type": "error"
    },
    {
      "inputs": [],
      "name": "FUNDRAISE_ENDTIME_NOT_UP",
      "type": "error"
    },
    {
      "inputs": [],
      "name": "GREATER_MAX_DEPOSIT_AMOUNT",
      "type": "error"
    },
    {
      "inputs": [],
      "name": "GREATER_MAX_FUND_RAISE_AMOUNT",
      "type": "error"
    },
    {
      "inputs": [],
      "name": "INSUFFICIENT_ALLOWANCE",
      "type": "error"
    },
    {
      "inputs": [],
      "name": "INSUFFICIENT_FUND",
      "type": "error"
    },
    {
      "inputs": [],
      "name": "INVALID_AMOUNT",
      "type": "error"
    },
    {
      "inputs": [],
      "name": "INVESTMENT_GRACE_PERIOD",
      "type": "error"
    },
    {
      "inputs": [],
      "name": "LESS_MIN_DEPOSIT_AMOUNT",
      "type": "error"
    },
    {
      "inputs": [],
      "name": "MAX_PATICIPANT_AMOUNT_REACH",
      "type": "error"
    },
    {
      "inputs": [],
      "name": "NOT_CLEAR_FUND_TIME",
      "type": "error"
    },
    {
      "inputs": [],
      "name": "NOT_IN_FUND_RAISE_WINDOW",
      "type": "error"
    },
    {
      "anonymous": false,
      "inputs": [
        {
          "indexed": false,
          "internalType": "address",
          "name": "daoAddress",
          "type": "address"
        },
        {
          "indexed": false,
          "internalType": "uint256",
          "name": "escrowAmount",
          "type": "uint256"
        },
        {
          "indexed": false,
          "internalType": "address",
          "name": "executer",
          "type": "address"
        }
      ],
      "name": "ClearFund",
      "type": "event"
    },
    {
      "anonymous": false,
      "inputs": [
        {
          "indexed": false,
          "internalType": "address",
          "name": "daoAddress",
          "type": "address"
        },
        {
          "indexed": false,
          "internalType": "uint256",
          "name": "amount",
          "type": "uint256"
        },
        {
          "indexed": false,
          "internalType": "address",
          "name": "account",
          "type": "address"
        }
      ],
      "name": "Deposit",
      "type": "event"
    },
    {
      "anonymous": false,
      "inputs": [
        {
          "indexed": false,
          "internalType": "address",
          "name": "daoAddress",
          "type": "address"
        },
        {
          "indexed": false,
          "internalType": "address",
          "name": "account",
          "type": "address"
        },
        {
          "indexed": false,
          "internalType": "uint256",
          "name": "receivedAmount",
          "type": "uint256"
        }
      ],
      "name": "DistributeRedemptionFee",
      "type": "event"
    },
    {
      "anonymous": false,
      "inputs": [
        {
          "indexed": false,
          "internalType": "address",
          "name": "daoAddress",
          "type": "address"
        },
        {
          "indexed": false,
          "internalType": "enum ColletiveFundingPoolAdapterContract.FundState",
          "name": "state",
          "type": "uint8"
        },
        {
          "indexed": false,
          "internalType": "uint256",
          "name": "totalRaised",
          "type": "uint256"
        }
      ],
      "name": "ProcessFundRaise",
      "type": "event"
    },
    {
      "anonymous": false,
      "inputs": [
        {
          "indexed": false,
          "internalType": "address",
          "name": "daoAddress",
          "type": "address"
        },
        {
          "indexed": false,
          "internalType": "uint256",
          "name": "amount",
          "type": "uint256"
        },
        {
          "indexed": false,
          "internalType": "address",
          "name": "account",
          "type": "address"
        }
      ],
      "name": "WithDraw",
      "type": "event"
    },
    {
      "inputs": [
        {
          "internalType": "address",
          "name": "",
          "type": "address"
        }
      ],
      "name": "accumulateRaiseAmount",
      "outputs": [
        {
          "internalType": "uint256",
          "name": "",
          "type": "uint256"
        }
      ],
      "stateMutability": "view",
      "type": "function"
    },
    {
      "inputs": [
        {
          "internalType": "contract DaoRegistry",
          "name": "dao",
          "type": "address"
        },
        {
          "internalType": "address",
          "name": "investorAddr",
          "type": "address"
        }
      ],
      "name": "balanceOf",
      "outputs": [
        {
          "internalType": "uint256",
          "name": "",
          "type": "uint256"
        }
      ],
      "stateMutability": "view",
      "type": "function"
    },
    {
      "inputs": [
        {
          "internalType": "contract DaoRegistry",
          "name": "dao",
          "type": "address"
        }
      ],
      "name": "clearFund",
      "outputs": [],
      "stateMutability": "nonpayable",
      "type": "function"
    },
    {
      "inputs": [
        {
          "internalType": "contract DaoRegistry",
          "name": "dao",
          "type": "address"
        },
        {
          "internalType": "uint256",
          "name": "amount",
          "type": "uint256"
        }
      ],
      "name": "deposit",
      "outputs": [],
      "stateMutability": "nonpayable",
      "type": "function"
    },
    {
      "inputs": [
        {
          "internalType": "address",
          "name": "",
          "type": "address"
        },
        {
          "internalType": "bytes32",
          "name": "",
          "type": "bytes32"
        }
      ],
      "name": "freeINPriorityDeposits",
      "outputs": [
        {
          "internalType": "uint256",
          "name": "",
          "type": "uint256"
        }
      ],
      "stateMutability": "view",
      "type": "function"
    },
    {
      "inputs": [
        {
          "internalType": "address",
          "name": "",
          "type": "address"
        },
        {
          "internalType": "bytes32",
          "name": "",
          "type": "bytes32"
        }
      ],
      "name": "fundRaisedByProposalId",
      "outputs": [
        {
          "internalType": "uint256",
          "name": "",
          "type": "uint256"
        }
      ],
      "stateMutability": "view",
      "type": "function"
    },
    {
      "inputs": [
        {
          "internalType": "address",
          "name": "",
          "type": "address"
        }
      ],
      "name": "fundState",
      "outputs": [
        {
          "internalType": "enum ColletiveFundingPoolAdapterContract.FundState",
          "name": "",
          "type": "uint8"
        }
      ],
      "stateMutability": "view",
      "type": "function"
    },
    {
      "inputs": [
        {
          "internalType": "contract DaoRegistry",
          "name": "dao",
          "type": "address"
        }
      ],
      "name": "getAllInvestors",
      "outputs": [
        {
          "internalType": "address[]",
          "name": "",
          "type": "address[]"
        }
      ],
      "stateMutability": "view",
      "type": "function"
    },
    {
      "inputs": [
        {
          "internalType": "address",
          "name": "",
          "type": "address"
        },
        {
          "internalType": "bytes32",
          "name": "",
          "type": "bytes32"
        },
        {
          "internalType": "address",
          "name": "",
          "type": "address"
        }
      ],
      "name": "investorsDepositAmountByFundRaise",
      "outputs": [
        {
          "internalType": "uint256",
          "name": "",
          "type": "uint256"
        }
      ],
      "stateMutability": "view",
      "type": "function"
    },
    {
      "inputs": [
        {
          "internalType": "address",
          "name": "",
          "type": "address"
        }
      ],
      "name": "liquidationId",
      "outputs": [
        {
          "internalType": "uint256",
          "name": "",
          "type": "uint256"
        }
      ],
      "stateMutability": "view",
      "type": "function"
    },
    {
      "inputs": [
        {
          "internalType": "contract DaoRegistry",
          "name": "dao",
          "type": "address"
        }
      ],
      "name": "poolBalance",
      "outputs": [
        {
          "internalType": "uint256",
          "name": "",
          "type": "uint256"
        }
      ],
      "stateMutability": "view",
      "type": "function"
    },
    {
      "inputs": [
        {
          "internalType": "contract DaoRegistry",
          "name": "dao",
          "type": "address"
        }
      ],
      "name": "processFundRaise",
      "outputs": [
        {
          "internalType": "bool",
          "name": "",
          "type": "bool"
        }
      ],
      "stateMutability": "nonpayable",
      "type": "function"
    },
    {
      "inputs": [],
      "name": "protocolFee",
      "outputs": [
        {
          "internalType": "uint256",
          "name": "",
          "type": "uint256"
        }
      ],
      "stateMutability": "view",
      "type": "function"
    },
    {
      "inputs": [
        {
          "internalType": "contract DaoRegistry",
          "name": "dao",
          "type": "address"
        }
      ],
      "name": "resetFundRaiseState",
      "outputs": [],
      "stateMutability": "nonpayable",
      "type": "function"
    },
    {
      "inputs": [
        {
          "internalType": "address",
          "name": "",
          "type": "address"
        }
      ],
      "name": "resetFundStateBlockNum",
      "outputs": [
        {
          "internalType": "uint256",
          "name": "",
          "type": "uint256"
        }
      ],
      "stateMutability": "view",
      "type": "function"
    },
    {
      "inputs": [
        {
          "internalType": "contract DaoRegistry",
          "name": "dao",
          "type": "address"
        },
        {
          "internalType": "address",
          "name": "account",
          "type": "address"
        }
      ],
      "name": "returnFundToQuitGovernor",
      "outputs": [
        {
          "internalType": "bool",
          "name": "",
          "type": "bool"
        }
      ],
      "stateMutability": "nonpayable",
      "type": "function"
    },
    {
      "inputs": [
        {
          "internalType": "contract DaoRegistry",
          "name": "dao",
          "type": "address"
        },
        {
          "internalType": "uint256",
          "name": "feeProtocol",
          "type": "uint256"
        }
      ],
      "name": "setProtocolFee",
      "outputs": [],
      "stateMutability": "nonpayable",
      "type": "function"
    },
    {
      "inputs": [
        {
          "internalType": "contract DaoRegistry",
          "name": "dao",
          "type": "address"
        },
        {
          "internalType": "uint256",
          "name": "amount",
          "type": "uint256"
        }
      ],
      "name": "withdraw",
      "outputs": [],
      "stateMutability": "nonpayable",
      "type": "function"
    }
  ],
  "bytecode": "0x6080604052660aa87bee53800060095534801561001b57600080fd5b50615734806200002c6000396000f3fe608060405234801561001057600080fd5b50600436106101365760003560e01c806396609c42116100b2578063b5b3ca2c11610081578063f3fef3a311610066578063f3fef3a3146102fe578063f5a9b5d914610311578063f7888aec1461033c57600080fd5b8063b5b3ca2c146102d8578063f10e6b6b146102eb57600080fd5b806396609c4214610279578063a2d165d21461029c578063b0936452146102af578063b0e21e8a146102cf57600080fd5b806350d9e6881161010957806381227bf1116100ee57806381227bf11461020a57806383cffffe1461023b578063861f67521461024e57600080fd5b806350d9e688146101d757806368abb5e0146101f757600080fd5b80630c916bae1461013b5780630cf6aae7146101745780631c0ecc7f146101a257806347e7ef24146101c2575b600080fd5b61015e610149366004615354565b60036020526000908152604090205460ff1681565b60405161016b9190615600565b60405180910390f35b610194610182366004615354565b60086020526000908152604090205481565b60405190815260200161016b565b6101946101b0366004615354565b60056020526000908152604090205481565b6101d56101d0366004615554565b61034f565b005b6101ea6101e5366004615354565b61115c565b60405161016b91906155b3565b610194610205366004615354565b611186565b6101946102183660046153b7565b600260209081526000938452604080852082529284528284209052825290205481565b6101d5610249366004615354565b6112a5565b61019461025c36600461538c565b600660209081526000928352604080842090915290825290205481565b61028c610287366004615354565b611a54565b604051901515815260200161016b565b61028c6102aa36600461551c565b611e4d565b6101946102bd366004615354565b60046020526000908152604090205481565b61019460095481565b6101d56102e6366004615554565b612237565b6101d56102f9366004615354565b61229c565b6101d561030c366004615554565b6123d9565b61019461031f36600461538c565b600760209081526000928352604080842090915290825290205481565b61019461034a36600461551c565b612d43565b81600061035b82612e64565b905060008311610397576040517ffae8279100000000000000000000000000000000000000000000000000000000815260040160405180910390fd5b6103db6040518060a0016040528060008152602001600081526020016000815260200160006001600160a01b0316815260200160006001600160a01b031681525090565b6040516317ba7d8560e01b81527f3a06648a49edffe95b8384794dfe9cf3ab34782fab0130b4c91bfd53f3407e6b60048201526001600160a01b038616906317ba7d859060240160206040518083038186803b15801561043a57600080fd5b505afa15801561044e573d6000803e3d6000fd5b505050506040513d601f19601f820116820180604052508101906104729190615370565b6001600160a01b039081166080830152604051634941d71d60e11b81527f5fa39c8100b49336846e52d39403e353bf782275f905a885f09224779ff1c924600482015290861690639283ae3a9060240160206040518083038186803b1580156104da57600080fd5b505afa1580156104ee573d6000803e3d6000fd5b505050506040513d601f19601f820116820180604052508101906105129190615504565b8152604051634941d71d60e11b81527fbdd40865e74210f0a46799ae63462c62010da92014a08cbc32f1d049d0a22c6b60048201526001600160a01b03861690639283ae3a9060240160206040518083038186803b15801561057357600080fd5b505afa158015610587573d6000803e3d6000fd5b505050506040513d601f19601f820116820180604052508101906105ab9190615504565b602082015260808101516040516301c22a3d60e01b81526001600160a01b03878116600483015260009216906301c22a3d9060240160206040518083038186803b1580156105f857600080fd5b505afa15801561060c573d6000803e3d6000fd5b505050506040513d601f19601f820116820180604052508101906106309190615504565b604051634941d71d60e11b81527f7e07fb4530796d057ca1d76d83f47aa8629dbb7e942ac28f30ad6f5e9e8d418960048201529091506001600160a01b03871690639283ae3a9060240160206040518083038186803b15801561069257600080fd5b505afa1580156106a6573d6000803e3d6000fd5b505050506040513d601f19601f820116820180604052508101906106ca9190615504565b6040830152602082015115610717578160200151851015610717576040517f0f3fbd1c00000000000000000000000000000000000000000000000000000000815260040160405180910390fd5b81511561078e5781516001600160a01b03871660009081526002602090815260408083208584528252808320338452909152902054610756908761560e565b111561078e576040517f75d3208400000000000000000000000000000000000000000000000000000000815260040160405180910390fd5b604051634941d71d60e11b81527fbd04d44792b7dbfe3b50b0f9f2006f7ef449e374a39021cb9bfa7cd0bdd850d7600482015242906001600160a01b03881690639283ae3a9060240160206040518083038186803b1580156107ef57600080fd5b505afa158015610803573d6000803e3d6000fd5b505050506040513d601f19601f820116820180604052508101906108279190615504565b11806108c95750604051634941d71d60e11b81527f533afc15b6312917b5e28e2272ea69d44e5ea8e00d3bd57cada1275c2f14c9e8600482015242906001600160a01b03881690639283ae3a9060240160206040518083038186803b15801561088f57600080fd5b505afa1580156108a3573d6000803e3d6000fd5b505050506040513d601f19601f820116820180604052508101906108c79190615504565b105b15610900576040517fa8ec9ad500000000000000000000000000000000000000000000000000000000815260040160405180910390fd5b604051634941d71d60e11b81527ff301d5aec67a9d816d38f9b645cac1e79a3308ff9803564bbe63a862db82f46b60048201526001600160a01b03871690639283ae3a9060240160206040518083038186803b15801561095f57600080fd5b505afa158015610973573d6000803e3d6000fd5b505050506040513d601f19601f820116820180604052508101906109979190615504565b1580156109a8575060008260400151115b15610a19576040808301516001600160a01b038816600090815260076020908152838220858352905291909120546109e190879061560e565b1115610a19576040517fd3b07c5200000000000000000000000000000000000000000000000000000000815260040160405180910390fd5b604051632c9f4b5b60e11b81527f3909e87234f428ccb8748126e2c93f66a62f92a70d315fa5803dec6362be07ab60048201526001600160a01b0387169063593e96b69060240160206040518083038186803b158015610a7857600080fd5b505afa158015610a8c573d6000803e3d6000fd5b505050506040513d601f19601f82011682018060405250810190610ab09190615370565b6001600160a01b03166060830152610ac986823361314d565b15610b00576040517ffa088e8a00000000000000000000000000000000000000000000000000000000815260040160405180910390fd5b600082606001516001600160a01b031663a87af66c6040518163ffffffff1660e01b815260040160206040518083038186803b158015610b3f57600080fd5b505afa158015610b53573d6000803e3d6000fd5b505050506040513d601f19601f82011682018060405250810190610b779190615370565b6040516370a0823160e01b815233600482015290915086906001600160a01b038316906370a082319060240160206040518083038186803b158015610bbb57600080fd5b505afa158015610bcf573d6000803e3d6000fd5b505050506040513d601f19601f82011682018060405250810190610bf39190615504565b1015610c2b576040517f5cabbf5000000000000000000000000000000000000000000000000000000000815260040160405180910390fd5b6040517fdd62ed3e00000000000000000000000000000000000000000000000000000000815233600482015230602482015286906001600160a01b0383169063dd62ed3e9060440160206040518083038186803b158015610c8b57600080fd5b505afa158015610c9f573d6000803e3d6000fd5b505050506040513d601f19601f82011682018060405250810190610cc39190615504565b1015610cfb576040517f0fd3919300000000000000000000000000000000000000000000000000000000815260040160405180910390fd5b6040517f23b872dd000000000000000000000000000000000000000000000000000000008152336004820152306024820152604481018790526001600160a01b038216906323b872dd90606401602060405180830381600087803b158015610d6257600080fd5b505af1158015610d76573d6000803e3d6000fd5b505050506040513d601f19601f82011682018060405250810190610d9a91906154bf565b50604051632c9f4b5b60e11b81527f3909e87234f428ccb8748126e2c93f66a62f92a70d315fa5803dec6362be07ab60048201526001600160a01b038083169163095ea7b3918a169063593e96b69060240160206040518083038186803b158015610e0457600080fd5b505afa158015610e18573d6000803e3d6000fd5b505050506040513d601f19601f82011682018060405250810190610e3c9190615370565b6040516001600160e01b031960e084901b1681526001600160a01b03909116600482015260248101899052604401602060405180830381600087803b158015610e8457600080fd5b505af1158015610e98573d6000803e3d6000fd5b505050506040513d601f19601f82011682018060405250810190610ebc91906154bf565b5060608301516040517fb08079a6000000000000000000000000000000000000000000000000000000008152336004820152602481018890526001600160a01b039091169063b08079a690604401600060405180830381600087803b158015610f2457600080fd5b505af1158015610f38573d6000803e3d6000fd5b50505050610f46873361354a565b6001600160a01b03871660009081526001602090815260408083208584529091529020610f739033613598565b610fa6576001600160a01b03871660009081526001602090815260408083208584529091529020610fa490336135ba565b505b60808301516040517f6d3cc0400000000000000000000000000000000000000000000000000000000081526001600160a01b0389811660048301526024820185905233604483015290911690636d3cc0409060640160206040518083038186803b15801561101357600080fd5b505afa158015611027573d6000803e3d6000fd5b505050506040513d601f19601f8201168201806040525081019061104b91906154bf565b15611089576001600160a01b03871660009081526006602090815260408083208584529091528120805488929061108390849061560e565b90915550505b6001600160a01b03871660009081526002602090815260408083208584528252808320338452909152812080548892906110c490849061560e565b90915550506001600160a01b0387166000908152600760209081526040808320858452909152812080548892906110fc90849061560e565b9091555050604080516001600160a01b038916815260208101889052338183015290517fe31c7b8d08ee7db0afa68782e1028ef92305caeea8626633ad44d413e30f6b2f9181900360600190a150505061115682826135cf565b50505050565b6001600160a01b0381166000908152602081905260409020606090611180906135da565b92915050565b604051632c9f4b5b60e11b81527f3909e87234f428ccb8748126e2c93f66a62f92a70d315fa5803dec6362be07ab600482015260009081906001600160a01b0384169063593e96b69060240160206040518083038186803b1580156111ea57600080fd5b505afa1580156111fe573d6000803e3d6000fd5b505050506040513d601f19601f820116820180604052508101906112229190615370565b6040516370a0823160e01b815261decd60048201529091506001600160a01b038216906370a082319060240160206040518083038186803b15801561126657600080fd5b505afa15801561127a573d6000803e3d6000fd5b505050506040513d601f19601f8201168201806040525081019061129e9190615504565b9392505050565b6040516317ba7d8560e01b81527f851d65965a45a40b902ee7de04ff05b19ff7fde56dd486fd3108dc5cd9249f0660048201526001600160a01b038216906317ba7d859060240160206040518083038186803b15801561130457600080fd5b505afa158015611318573d6000803e3d6000fd5b505050506040513d601f19601f8201168201806040525081019061133c9190615370565b6001600160a01b0316336001600160a01b03161461136d576040516395383ea160e01b815260040160405180910390fd5b604051634941d71d60e11b81527f533afc15b6312917b5e28e2272ea69d44e5ea8e00d3bd57cada1275c2f14c9e860048201526001600160a01b03821690639283ae3a9060240160206040518083038186803b1580156113cc57600080fd5b505afa1580156113e0573d6000803e3d6000fd5b505050506040513d601f19601f820116820180604052508101906114049190615504565b4210801561149157506001600160a01b038116600090815260036020819052604082205460ff169081111561144957634e487b7160e01b600052602160045260246000fd5b1480611491575060016001600160a01b03821660009081526003602081905260409091205460ff169081111561148f57634e487b7160e01b600052602160045260246000fd5b145b156114c8576040517f465e5dc900000000000000000000000000000000000000000000000000000000815260040160405180910390fd5b604051632c9f4b5b60e11b81527f3909e87234f428ccb8748126e2c93f66a62f92a70d315fa5803dec6362be07ab60048201526000906001600160a01b0383169063593e96b69060240160206040518083038186803b15801561152a57600080fd5b505afa15801561153e573d6000803e3d6000fd5b505050506040513d601f19601f820116820180604052508101906115629190615370565b90506000816001600160a01b031663a87af66c6040518163ffffffff1660e01b815260040160206040518083038186803b15801561159f57600080fd5b505afa1580156115b3573d6000803e3d6000fd5b505050506040513d601f19601f820116820180604052508101906115d79190615370565b6001600160a01b0384166000908152602081905260408120919250906115fc906135da565b805190915015611156576001600160a01b0384166000908152600860205260408120805460019190839061163190849061560e565b90915550600090505b82518160ff1610156119ee57600061167c87858460ff168151811061166f57634e487b7160e01b600052603260045260246000fd5b6020026020010151612d43565b905080156119a7576040516317ba7d8560e01b81527f372fda66f626a705d3a459960a1457403a7c3564acccedc00092ea70262b708360048201526000906001600160a01b038916906317ba7d859060240160206040518083038186803b1580156116e657600080fd5b505afa1580156116fa573d6000803e3d6000fd5b505050506040513d601f19601f8201168201806040525081019061171e9190615370565b9050806001600160a01b0316638f8f4d218988888760ff168151811061175457634e487b7160e01b600052603260045260246000fd5b6020908102919091018101516001600160a01b03808f16600090815260089093526040928390205492516001600160e01b031960e088901b1681529481166004860152928316602485015291909116604483015260648201869052608482015260a401600060405180830381600087803b1580156117d157600080fd5b505af11580156117e5573d6000803e3d6000fd5b50506040516317ba7d8560e01b81527f372fda66f626a705d3a459960a1457403a7c3564acccedc00092ea70262b708360048201526001600160a01b03808b16935063e176b35e92508b16906317ba7d859060240160206040518083038186803b15801561185257600080fd5b505afa158015611866573d6000803e3d6000fd5b505050506040513d601f19601f8201168201806040525081019061188a9190615370565b6040516001600160e01b031960e084901b1681526001600160a01b039182166004820152908916602482015260448101859052606401600060405180830381600087803b1580156118da57600080fd5b505af11580156118ee573d6000803e3d6000fd5b50505050866001600160a01b031663e3a05cc1868560ff168151811061192457634e487b7160e01b600052603260045260246000fd5b60209081029190910101516040516001600160e01b031960e084901b1681526001600160a01b039182166004820152908916602482015260448101859052606401600060405180830381600087803b15801561197f57600080fd5b505af1158015611993573d6000803e3d6000fd5b5050505081846119a3919061560e565b9350505b6119db87858460ff16815181106119ce57634e487b7160e01b600052603260045260246000fd5b60200260200101516135e7565b50806119e68161569a565b91505061163a565b506001600160a01b038516600081815260036020908152604091829020805460ff19169055815192835282018390523382820152517f12d0dcfe23709357491021067eb05d73fa0b1f1aeb69310c2071218e089f057f9181900360600190a15050505050565b604051634941d71d60e11b81527f533afc15b6312917b5e28e2272ea69d44e5ea8e00d3bd57cada1275c2f14c9e860048201526000906001600160a01b03831690639283ae3a9060240160206040518083038186803b158015611ab657600080fd5b505afa158015611aca573d6000803e3d6000fd5b505050506040513d601f19601f82011682018060405250810190611aee9190615504565b4211611b26576040517ff082211800000000000000000000000000000000000000000000000000000000815260040160405180910390fd5b6040516317ba7d8560e01b81527f3a06648a49edffe95b8384794dfe9cf3ab34782fab0130b4c91bfd53f3407e6b60048201526000906001600160a01b038416906317ba7d859060240160206040518083038186803b158015611b8857600080fd5b505afa158015611b9c573d6000803e3d6000fd5b505050506040513d601f19601f82011682018060405250810190611bc09190615370565b6040516301c22a3d60e01b81526001600160a01b03858116600483015291909116906301c22a3d9060240160206040518083038186803b158015611c0357600080fd5b505afa158015611c17573d6000803e3d6000fd5b505050506040513d601f19601f82011682018060405250810190611c3b9190615504565b905060016001600160a01b03841660009081526003602081905260409091205460ff1690811115611c7c57634e487b7160e01b600052602160045260246000fd5b1415611e12576001600160a01b038316600081815260076020908152604080832085845290915290819020549051634941d71d60e11b81527f31af571e53636dddd77f772cce9d30b42075760f2da731636acc6962da2fbef86004820152909190639283ae3a9060240160206040518083038186803b158015611cfe57600080fd5b505afa158015611d12573d6000803e3d6000fd5b505050506040513d601f19601f82011682018060405250810190611d369190615504565b8110611d7757611d45846137a7565b611d4f8483614394565b6001600160a01b0384166000908152600360205260409020805460ff19166002179055611db4565b6001600160a01b03841660009081526003602081905260408220805460ff19169091179055611da585611186565b1115611db457611db48461453c565b6001600160a01b038416600090815260036020526040908190205490517fe9975264b50cb635621ce71b45426b9994cf2bf91f3aa9d73b337a96cf2d728391611e0491879160ff16908590615588565b60405180910390a150611e44565b6040517ff918bf6c00000000000000000000000000000000000000000000000000000000815260040160405180910390fd5b50600192915050565b600080611e5a8484612d43565b11611e6757506000611180565b6040516317ba7d8560e01b81527f1a4f1390baec30049008138e650571a3c4374eba88116bc89dc192f2f9295efe60048201526001600160a01b038416906317ba7d859060240160206040518083038186803b158015611ec657600080fd5b505afa158015611eda573d6000803e3d6000fd5b505050506040513d601f19601f82011682018060405250810190611efe9190615370565b6001600160a01b0316336001600160a01b031614611f2f576040516395383ea160e01b815260040160405180910390fd5b6000611f3b8484612d43565b604051634941d71d60e11b81527f51cc27e85946200c558b984a0c15cad2122655d647f9c02ebe9529f2a0b25a2f6004820152909150600090670de0b6b3a7640000906001600160a01b03871690639283ae3a9060240160206040518083038186803b158015611faa57600080fd5b505afa158015611fbe573d6000803e3d6000fd5b505050506040513d601f19601f82011682018060405250810190611fe29190615504565b611fec9084615646565b611ff69190615626565b604051632c9f4b5b60e11b81527f3909e87234f428ccb8748126e2c93f66a62f92a70d315fa5803dec6362be07ab60048201529091506000906001600160a01b0387169063593e96b69060240160206040518083038186803b15801561205b57600080fd5b505afa15801561206f573d6000803e3d6000fd5b505050506040513d601f19601f820116820180604052508101906120939190615370565b90506000816001600160a01b031663a87af66c6040518163ffffffff1660e01b815260040160206040518083038186803b1580156120d057600080fd5b505afa1580156120e4573d6000803e3d6000fd5b505050506040513d601f19601f820116820180604052508101906121089190615370565b90506001600160a01b03821663d9caed1287836121258789615683565b6040516001600160e01b031960e086901b1681526001600160a01b0393841660048201529290911660248301526044820152606401600060405180830381600087803b15801561217457600080fd5b505af1158015612188573d6000803e3d6000fd5b50506040517fe3a05cc10000000000000000000000000000000000000000000000000000000081526001600160a01b0389811660048301528481166024830152604482018890528516925063e3a05cc19150606401600060405180830381600087803b1580156121f757600080fd5b505af115801561220b573d6000803e3d6000fd5b5050505061221987876135e7565b821561222a5761222a878285614d2d565b5060019695505050505050565b81600061224382612e64565b90508361224f81614f7e565b6001600160a01b0316336001600160a01b03161461226c57600080fd5b670de0b6b3a7640000841080156122835750600084115b61228c57600080fd5b50600983905561115682826135cf565b6040516317ba7d8560e01b81527f3a06648a49edffe95b8384794dfe9cf3ab34782fab0130b4c91bfd53f3407e6b60048201526001600160a01b038216906317ba7d859060240160206040518083038186803b1580156122fb57600080fd5b505afa15801561230f573d6000803e3d6000fd5b505050506040513d601f19601f820116820180604052508101906123339190615370565b6001600160a01b0316336001600160a01b031614612364576040516395383ea160e01b815260040160405180910390fd5b6001600160a01b0381166000908152600360205260409020805460ff1916600117905561239081611186565b6001600160a01b038216600090815260046020526040812080549091906123b890849061560e565b90915550506001600160a01b03166000908152600560205260409020439055565b8160006123e582612e64565b6040516317ba7d8560e01b81527f72894213a5c7f56b36b2947fa6ea18963d6bb1a68746b46d7f552cca76e1a7a860048201529091506001600160a01b038516906317ba7d859060240160206040518083038186803b15801561244757600080fd5b505afa15801561245b573d6000803e3d6000fd5b505050506040513d601f19601f8201168201806040525081019061247f9190615370565b6040517f4fd194f60000000000000000000000000000000000000000000000000000000081526001600160a01b0386811660048301529190911690634fd194f69060240160206040518083038186803b1580156124db57600080fd5b505afa1580156124ef573d6000803e3d6000fd5b505050506040513d601f19601f8201168201806040525081019061251391906154bf565b612549576040517f6132398d00000000000000000000000000000000000000000000000000000000815260040160405180910390fd5b604051632c9f4b5b60e11b81527f3909e87234f428ccb8748126e2c93f66a62f92a70d315fa5803dec6362be07ab60048201526000906001600160a01b0386169063593e96b69060240160206040518083038186803b1580156125ab57600080fd5b505afa1580156125bf573d6000803e3d6000fd5b505050506040513d601f19601f820116820180604052508101906125e39190615370565b6040516317ba7d8560e01b81527f3a06648a49edffe95b8384794dfe9cf3ab34782fab0130b4c91bfd53f3407e6b60048201529091506000906001600160a01b038716906317ba7d859060240160206040518083038186803b15801561264857600080fd5b505afa15801561265c573d6000803e3d6000fd5b505050506040513d601f19601f820116820180604052508101906126809190615370565b6040516301c22a3d60e01b81526001600160a01b0388811660048301529192506000918316906301c22a3d9060240160206040518083038186803b1580156126c757600080fd5b505afa1580156126db573d6000803e3d6000fd5b505050506040513d601f19601f820116820180604052508101906126ff9190615504565b90506000836001600160a01b031663a87af66c6040518163ffffffff1660e01b815260040160206040518083038186803b15801561273c57600080fd5b505afa158015612750573d6000803e3d6000fd5b505050506040513d601f19601f820116820180604052508101906127749190615370565b9050600087116127b0576040517ffae8279100000000000000000000000000000000000000000000000000000000815260040160405180910390fd5b6127ba8833612d43565b8711156127f3576040517f5cabbf5000000000000000000000000000000000000000000000000000000000815260040160405180910390fd5b604051634941d71d60e11b81527f533afc15b6312917b5e28e2272ea69d44e5ea8e00d3bd57cada1275c2f14c9e860048201526000906001600160a01b038a1690639283ae3a9060240160206040518083038186803b15801561285557600080fd5b505afa158015612869573d6000803e3d6000fd5b505050506040513d601f19601f8201168201806040525081019061288d9190615504565b42111561294c57604051634941d71d60e11b81527f51cc27e85946200c558b984a0c15cad2122655d647f9c02ebe9529f2a0b25a2f6004820152670de0b6b3a7640000906001600160a01b038b1690639283ae3a9060240160206040518083038186803b1580156128fd57600080fd5b505afa158015612911573d6000803e3d6000fd5b505050506040513d601f19601f820116820180604052508101906129359190615504565b61293f908a615646565b6129499190615626565b90505b6001600160a01b03851663d9caed123384612967858d615683565b6040516001600160e01b031960e086901b1681526001600160a01b0393841660048201529290911660248301526044820152606401600060405180830381600087803b1580156129b657600080fd5b505af11580156129ca573d6000803e3d6000fd5b50506040517fe3a05cc10000000000000000000000000000000000000000000000000000000081523360048201526001600160a01b038581166024830152604482018c90528816925063e3a05cc19150606401600060405180830381600087803b158015612a3757600080fd5b505af1158015612a4b573d6000803e3d6000fd5b505050506000612a5b8a33612d43565b11612a9957612a6a89336135e7565b6001600160a01b03891660009081526001602090815260408083208684529091529020612a979033615061565b505b8015612aaa57612aaa898383614d2d565b6040517f6d3cc0400000000000000000000000000000000000000000000000000000000081526001600160a01b038a8116600483015260248201859052336044830152851690636d3cc0409060640160206040518083038186803b158015612b1157600080fd5b505afa158015612b25573d6000803e3d6000fd5b505050506040513d601f19601f82011682018060405250810190612b4991906154bf565b8015612bea5750604051634941d71d60e11b81527f533afc15b6312917b5e28e2272ea69d44e5ea8e00d3bd57cada1275c2f14c9e860048201526001600160a01b038a1690639283ae3a9060240160206040518083038186803b158015612baf57600080fd5b505afa158015612bc3573d6000803e3d6000fd5b505050506040513d601f19601f82011682018060405250810190612be79190615504565b42105b15612c28576001600160a01b0389166000908152600660209081526040808320868452909152812080548a9290612c22908490615683565b90915550505b6001600160a01b038916600090815260026020908152604080832086845282528083203380855292529091205490612c61908b90612d43565b11612cdf576001600160a01b03891660009081526002602090815260408083208684528252808320338452909152812080548a9290612ca1908490615683565b90915550506001600160a01b0389166000908152600760209081526040808320868452909152812080548a9290612cd9908490615683565b90915550505b7fd432fbc5f79eaeefd01acbebd76cf4b0d5f43d8372c2fd3e23761c06a60a75f189612d0b838b615683565b604080516001600160a01b0390931683526020830191909152339082015260600160405180910390a1505050505061115682826135cf565b604051632c9f4b5b60e11b81527f3909e87234f428ccb8748126e2c93f66a62f92a70d315fa5803dec6362be07ab600482015260009081906001600160a01b0385169063593e96b69060240160206040518083038186803b158015612da757600080fd5b505afa158015612dbb573d6000803e3d6000fd5b505050506040513d601f19601f82011682018060405250810190612ddf9190615370565b6040516370a0823160e01b81526001600160a01b038581166004830152919250908216906370a082319060240160206040518083038186803b158015612e2457600080fd5b505afa158015612e38573d6000803e3d6000fd5b505050506040513d601f19601f82011682018060405250810190612e5c9190615504565b949350505050565b6040805160808101825260008082526020820181905291810182905260608101919091525a81600001818152505043826001600160a01b031663b21634826040518163ffffffff1660e01b815260040160206040518083038186803b158015612ecc57600080fd5b505afa158015612ee0573d6000803e3d6000fd5b505050506040513d601f19601f82011682018060405250810190612f049190615504565b1415612f70576040517f08c379a000000000000000000000000000000000000000000000000000000000815260206004820152601060248201527f7265656e7472616e637920677561726400000000000000000000000000000000604482015260640160405180910390fd5b816001600160a01b03166310fdb0a26040518163ffffffff1660e01b8152600401600060405180830381600087803b158015612fab57600080fd5b505af1158015612fbf573d6000803e3d6000fd5b50506040517f72c6838f0000000000000000000000000000000000000000000000000000000081527f1f2fd42ad6a6cacd573c4b212beb7a4e2499ad45d742a65337097f130e71daff6004820152600092506001600160a01b03851691506372c6838f9060240160206040518083038186803b15801561303e57600080fd5b505afa158015613052573d6000803e3d6000fd5b505050506040513d601f19601f820116820180604052508101906130769190615370565b90506001600160a01b0381166130925760006020830152613147565b6001600160a01b038181166060840181905283516040517f43a8a3f1000000000000000000000000000000000000000000000000000000008152928616600484015260248301526000918291906343a8a3f190604401604080518083038186803b1580156130ff57600080fd5b505afa158015613113573d6000803e3d6000fd5b505050506040513d601f19601f8201168201806040525081019061313791906154d9565b9015156020860152604085015250505b50919050565b6001600160a01b03831660009081526001602090815260408083208584529091528120819061317b906135da565b51856001600160a01b031663a6f636416040518163ffffffff1660e01b815260040160006040518083038186803b1580156131b557600080fd5b505afa1580156131c9573d6000803e3d6000fd5b505050506040513d6000823e601f3d908101601f191682016040526131f191908101906153f8565b516131fc919061560e565b6001600160a01b038616600090815260016020908152604080832088845290915281209192509061322c906135da565b8051909150156133215760005b81518160ff16101561331f57866001600160a01b031663a230c524838360ff168151811061327757634e487b7160e01b600052603260045260246000fd5b60200260200101516040518263ffffffff1660e01b81526004016132aa91906001600160a01b0391909116815260200190565b60206040518083038186803b1580156132c257600080fd5b505afa1580156132d6573d6000803e3d6000fd5b505050506040513d601f19601f820116820180604052508101906132fa91906154bf565b1561330d5761330a600184615683565b92505b806133178161569a565b915050613239565b505b604051634941d71d60e11b81527f69f4ffb3ebcb7809550bddd3e4d449a47e737bf6635bc7a730996643997b0e4860048201526001600160a01b03871690639283ae3a9060240160206040518083038186803b15801561338057600080fd5b505afa158015613394573d6000803e3d6000fd5b505050506040513d601f19601f820116820180604052508101906133b89190615504565b600114801561345d5750604051634941d71d60e11b81527fecbde689cc6337d29a750b8b8a8abbfa97427b4ac800ab55be2f2c87311510f260048201526001600160a01b03871690639283ae3a9060240160206040518083038186803b15801561342157600080fd5b505afa158015613435573d6000803e3d6000fd5b505050506040513d601f19601f820116820180604052508101906134599190615504565b8210155b80156134f857506040517fa230c5240000000000000000000000000000000000000000000000000000000081526001600160a01b03858116600483015287169063a230c5249060240160206040518083038186803b1580156134be57600080fd5b505afa1580156134d2573d6000803e3d6000fd5b505050506040513d601f19601f820116820180604052508101906134f691906154bf565b155b801561352e57506001600160a01b0386166000908152600160209081526040808320888452909152902061352c9085613598565b155b1561353e5760019250505061129e565b50600095945050505050565b6001600160a01b038216600090815260208190526040902061356c9082613598565b613594576001600160a01b038216600090815260208190526040902061359290826135ba565b505b5050565b6001600160a01b0381166000908152600183016020526040812054151561129e565b600061129e836001600160a01b038416615076565b6135948282336150c5565b6060600061129e836151bb565b6001600160a01b03821660009081526020819052604090206136099082615061565b506040517fa230c5240000000000000000000000000000000000000000000000000000000081526001600160a01b03828116600483015283169063a230c5249060240160206040518083038186803b15801561366457600080fd5b505afa158015613678573d6000803e3d6000fd5b505050506040513d601f19601f8201168201806040525081019061369c91906154bf565b801561372a5750806001600160a01b0316826001600160a01b031663149acf9a6040518163ffffffff1660e01b815260040160206040518083038186803b1580156136e657600080fd5b505afa1580156136fa573d6000803e3d6000fd5b505050506040513d601f19601f8201168201806040525081019061371e9190615370565b6001600160a01b031614155b15613594576040517f0b1ca49a0000000000000000000000000000000000000000000000000000000081526001600160a01b038281166004830152831690630b1ca49a90602401600060405180830381600087803b15801561378b57600080fd5b505af115801561379f573d6000803e3d6000fd5b505050505050565b6040805161014081018252600080825260208201819052818301819052606082018190526080820181905260a0820181905260c0820181905260e08201819052610100820181905261012082015290516317ba7d8560e01b81527f372fda66f626a705d3a459960a1457403a7c3564acccedc00092ea70262b708360048201526001600160a01b038316906317ba7d859060240160206040518083038186803b15801561385357600080fd5b505afa158015613867573d6000803e3d6000fd5b505050506040513d601f19601f8201168201806040525081019061388b9190615370565b6001600160a01b039081166101208301526040516317ba7d8560e01b81527f3a06648a49edffe95b8384794dfe9cf3ab34782fab0130b4c91bfd53f3407e6b6004820152908316906317ba7d859060240160206040518083038186803b1580156138f457600080fd5b505afa158015613908573d6000803e3d6000fd5b505050506040513d601f19601f8201168201806040525081019061392c9190615370565b6001600160a01b03908116606083018190526040516301c22a3d60e01b81529184166004830152906301c22a3d9060240160206040518083038186803b15801561397557600080fd5b505afa158015613989573d6000803e3d6000fd5b505050506040513d601f19601f820116820180604052508101906139ad9190615504565b60e0820152604051634941d71d60e11b81527ff301d5aec67a9d816d38f9b645cac1e79a3308ff9803564bbe63a862db82f46b60048201526001600160a01b03831690639283ae3a9060240160206040518083038186803b158015613a1157600080fd5b505afa158015613a25573d6000803e3d6000fd5b505050506040513d601f19601f82011682018060405250810190613a499190615504565b6001148015613b145750604051634941d71d60e11b81527f7e07fb4530796d057ca1d76d83f47aa8629dbb7e942ac28f30ad6f5e9e8d418960048201526001600160a01b03831690639283ae3a9060240160206040518083038186803b158015613ab257600080fd5b505afa158015613ac6573d6000803e3d6000fd5b505050506040513d601f19601f82011682018060405250810190613aea9190615504565b6001600160a01b038316600090815260076020908152604080832060e08601518452909152902054115b1561359457604051632c9f4b5b60e11b81527f3909e87234f428ccb8748126e2c93f66a62f92a70d315fa5803dec6362be07ab60048201526001600160a01b0383169063593e96b69060240160206040518083038186803b158015613b7857600080fd5b505afa158015613b8c573d6000803e3d6000fd5b505050506040513d601f19601f82011682018060405250810190613bb09190615370565b6001600160a01b0390811682528216600090815260016020908152604080832060e085015184529091528120613be5906135da565b9050600082602001818152505081600001516001600160a01b031663a87af66c6040518163ffffffff1660e01b815260040160206040518083038186803b158015613c2f57600080fd5b505afa158015613c43573d6000803e3d6000fd5b505050506040513d601f19601f82011682018060405250810190613c679190615370565b6001600160a01b0390811660408481019190915251634941d71d60e11b81527f7e07fb4530796d057ca1d76d83f47aa8629dbb7e942ac28f30ad6f5e9e8d4189600482015290841690639283ae3a9060240160206040518083038186803b158015613cd157600080fd5b505afa158015613ce5573d6000803e3d6000fd5b505050506040513d601f19601f82011682018060405250810190613d099190615504565b60808301526001600160a01b038316600081815260066020908152604080832060e08701805185529083528184205460a088015293835260078252808320935183529290529081205460c08401525b81518160ff161015611156576001600160a01b038416600090815260026020908152604080832060e0870151845290915281208351909190849060ff8516908110613db357634e487b7160e01b600052603260045260246000fd5b60200260200101516001600160a01b03166001600160a01b03168152602001908152602001600020548361010001818152505082608001518360a0015110613f185782606001516001600160a01b0316636d3cc040858560e00151858560ff1681518110613e3157634e487b7160e01b600052603260045260246000fd5b60200260200101516040518463ffffffff1660e01b8152600401613e75939291906001600160a01b0393841681526020810192909252909116604082015260600190565b60206040518083038186803b158015613e8d57600080fd5b505afa158015613ea1573d6000803e3d6000fd5b505050506040513d601f19601f82011682018060405250810190613ec591906154bf565b15613f08578260a001518360800151846101000151613ee49190615646565b613eee9190615626565b836101000151613efe9190615683565b6020840152614051565b6101008301516020840152614051565b82606001516001600160a01b0316636d3cc040858560e00151858560ff1681518110613f5457634e487b7160e01b600052603260045260246000fd5b60200260200101516040518463ffffffff1660e01b8152600401613f98939291906001600160a01b0393841681526020810192909252909116604082015260600190565b60206040518083038186803b158015613fb057600080fd5b505afa158015613fc4573d6000803e3d6000fd5b505050506040513d601f19601f82011682018060405250810190613fe891906154bf565b15613ff95760006020840152614051565b8260a001518360c0015161400d9190615683565b8360a0015184608001516140219190615683565b8461010001516140319190615646565b61403b9190615626565b83610100015161404b9190615683565b60208401525b602083015115614382578261012001516001600160a01b03166301144ffd858560400151858560ff168151811061409857634e487b7160e01b600052603260045260246000fd5b6020908102919091018101519088015160608901516040517fe956369e0000000000000000000000000000000000000000000000000000000081526001600160a01b038c811660048301529091169063e956369e9060240160206040518083038186803b15801561410857600080fd5b505afa15801561411c573d6000803e3d6000fd5b505050506040513d601f19601f820116820180604052508101906141409190615504565b6040516001600160e01b031960e088901b1681526001600160a01b03958616600482015293851660248501529390911660448301526064820152608481019190915260a401600060405180830381600087803b15801561419f57600080fd5b505af11580156141b3573d6000803e3d6000fd5b505084516040516317ba7d8560e01b81527f372fda66f626a705d3a459960a1457403a7c3564acccedc00092ea70262b708360048201526001600160a01b03918216935063e176b35e9250908716906317ba7d859060240160206040518083038186803b15801561422357600080fd5b505afa158015614237573d6000803e3d6000fd5b505050506040513d601f19601f8201168201806040525081019061425b9190615370565b604080870151602088015191516001600160e01b031960e086901b1681526001600160a01b039384166004820152921660248301526044820152606401600060405180830381600087803b1580156142b257600080fd5b505af11580156142c6573d6000803e3d6000fd5b5050505082600001516001600160a01b031663e3a05cc1838360ff168151811061430057634e487b7160e01b600052603260045260246000fd5b6020026020010151856040015186602001516040518463ffffffff1660e01b815260040161434f939291906001600160a01b039384168152919092166020820152604081019190915260600190565b600060405180830381600087803b15801561436957600080fd5b505af115801561437d573d6000803e3d6000fd5b505050505b8061438c8161569a565b915050613d58565b6001600160a01b038216600090815260016020908152604080832084845290915281206143c0906135da565b8051909150156135925760005b81518160ff16101561115657836001600160a01b031663a230c524838360ff168151811061440b57634e487b7160e01b600052603260045260246000fd5b60200260200101516040518263ffffffff1660e01b815260040161443e91906001600160a01b0391909116815260200190565b60206040518083038186803b15801561445657600080fd5b505afa15801561446a573d6000803e3d6000fd5b505050506040513d601f19601f8201168201806040525081019061448e91906154bf565b61452a57836001600160a01b031663dc929f4a838360ff16815181106144c457634e487b7160e01b600052603260045260246000fd5b60200260200101516040518263ffffffff1660e01b81526004016144f791906001600160a01b0391909116815260200190565b600060405180830381600087803b15801561451157600080fd5b505af1158015614525573d6000803e3d6000fd5b505050505b806145348161569a565b9150506143cd565b6040805160e08101825260008082526020820181905281830181905260608083018290526080830182905260a083015260c08201529051632c9f4b5b60e11b81527f3909e87234f428ccb8748126e2c93f66a62f92a70d315fa5803dec6362be07ab60048201526001600160a01b0383169063593e96b69060240160206040518083038186803b1580156145cf57600080fd5b505afa1580156145e3573d6000803e3d6000fd5b505050506040513d601f19601f820116820180604052508101906146079190615370565b6001600160a01b0390811682526040516317ba7d8560e01b81527f3a06648a49edffe95b8384794dfe9cf3ab34782fab0130b4c91bfd53f3407e6b6004820152908316906317ba7d859060240160206040518083038186803b15801561466c57600080fd5b505afa158015614680573d6000803e3d6000fd5b505050506040513d601f19601f820116820180604052508101906146a49190615370565b6001600160a01b03908116602083018190526040516301c22a3d60e01b81529184166004830152906301c22a3d9060240160206040518083038186803b1580156146ed57600080fd5b505afa158015614701573d6000803e3d6000fd5b505050506040513d601f19601f820116820180604052508101906147259190615504565b81606001818152505080600001516001600160a01b031663a87af66c6040518163ffffffff1660e01b815260040160206040518083038186803b15801561476b57600080fd5b505afa15801561477f573d6000803e3d6000fd5b505050506040513d601f19601f820116820180604052508101906147a39190615370565b6001600160a01b039081166080830152821660009081526001602090815260408083206060850151845290915290206147db906135da565b60a0820181905251156135945760005b8160a00151518160ff161015613592576001600160a01b038316600090815260026020908152604080832060608601518452909152812060a0840151805191929160ff851690811061484d57634e487b7160e01b600052603260045260246000fd5b6020908102919091018101516001600160a01b031682528101919091526040016000205460c0830181905215614c3a576040516317ba7d8560e01b81527f372fda66f626a705d3a459960a1457403a7c3564acccedc00092ea70262b708360048201526001600160a01b038416906317ba7d859060240160206040518083038186803b1580156148dc57600080fd5b505afa1580156148f0573d6000803e3d6000fd5b505050506040513d601f19601f820116820180604052508101906149149190615370565b6001600160a01b031660408301819052608083015160a08401518051636b99029e928792909160ff871690811061495b57634e487b7160e01b600052603260045260246000fd5b60200260200101518660c0015187602001516001600160a01b031663e956369e8a6040518263ffffffff1660e01b81526004016149a791906001600160a01b0391909116815260200190565b60206040518083038186803b1580156149bf57600080fd5b505afa1580156149d3573d6000803e3d6000fd5b505050506040513d601f19601f820116820180604052508101906149f79190615504565b6040516001600160e01b031960e088901b1681526001600160a01b03958616600482015293851660248501529390911660448301526064820152608481019190915260a401600060405180830381600087803b158015614a5657600080fd5b505af1158015614a6a573d6000803e3d6000fd5b505083516040516317ba7d8560e01b81527f372fda66f626a705d3a459960a1457403a7c3564acccedc00092ea70262b708360048201526001600160a01b03918216935063e176b35e9250908616906317ba7d859060240160206040518083038186803b158015614ada57600080fd5b505afa158015614aee573d6000803e3d6000fd5b505050506040513d601f19601f82011682018060405250810190614b129190615370565b608085015160c08601516040516001600160e01b031960e086901b1681526001600160a01b0393841660048201529290911660248301526044820152606401600060405180830381600087803b158015614b6b57600080fd5b505af1158015614b7f573d6000803e3d6000fd5b5050505081600001516001600160a01b031663e3a05cc18360a001518360ff1681518110614bbd57634e487b7160e01b600052603260045260246000fd5b6020908102919091010151608085015160c08601516040516001600160e01b031960e086901b1681526001600160a01b0393841660048201529290911660248301526044820152606401600060405180830381600087803b158015614c2157600080fd5b505af1158015614c35573d6000803e3d6000fd5b505050505b6001600160a01b038316600090815260026020908152604080832060608601518452909152812060a0840151805183919060ff8616908110614c8c57634e487b7160e01b600052603260045260246000fd5b60200260200101516001600160a01b03166001600160a01b0316815260200190815260200160002081905550614d1a8260a001518260ff1681518110614ce257634e487b7160e01b600052603260045260246000fd5b6020908102919091018101516001600160a01b0386166000908152600183526040808220606088015183529093529190912090615061565b5080614d258161569a565b9150506147eb565b6040516317ba7d8560e01b81527f1ec3ab9b73a5166bb51de3096776c3fb06df7dc0a5e2df3038eb0588fad3adbc60048201526000906001600160a01b038516906317ba7d859060240160206040518083038186803b158015614d8f57600080fd5b505afa158015614da3573d6000803e3d6000fd5b505050506040513d601f19601f82011682018060405250810190614dc79190615370565b604051632c9f4b5b60e11b81527f3909e87234f428ccb8748126e2c93f66a62f92a70d315fa5803dec6362be07ab600482015290915081906000906001600160a01b0387169063593e96b69060240160206040518083038186803b158015614e2e57600080fd5b505afa158015614e42573d6000803e3d6000fd5b505050506040513d601f19601f82011682018060405250810190614e669190615370565b6040517f871c22370000000000000000000000000000000000000000000000000000000081526001600160a01b0388811660048301524360248301528781166044830152606482018790529192509083169063871c223790608401600060405180830381600087803b158015614edb57600080fd5b505af1158015614eef573d6000803e3d6000fd5b50506040517fe176b35e0000000000000000000000000000000000000000000000000000000081526001600160a01b0386811660048301528881166024830152604482018890528416925063e176b35e9150606401600060405180830381600087803b158015614f5e57600080fd5b505af1158015614f72573d6000803e3d6000fd5b50505050505050505050565b6000816001600160a01b03166348f7f2a36040518163ffffffff1660e01b815260040160206040518083038186803b158015614fb957600080fd5b505afa158015614fcd573d6000803e3d6000fd5b505050506040513d601f19601f82011682018060405250810190614ff19190615370565b6001600160a01b0316638da5cb5b6040518163ffffffff1660e01b815260040160206040518083038186803b15801561502957600080fd5b505afa15801561503d573d6000803e3d6000fd5b505050506040513d601f19601f820116820180604052508101906111809190615370565b600061129e836001600160a01b038416615217565b60008181526001830160205260408120546150bd57508154600181810184556000848152602080822090930184905584548482528286019093526040902091909155611180565b506000611180565b8160200151156151635781606001516001600160a01b0316635e5eb01384835a86516150f19190615683565b60408088015190516001600160e01b031960e087901b1681526001600160a01b03948516600482015293909216602484015260448301526064820152608401600060405180830381600087803b15801561514a57600080fd5b505af115801561515e573d6000803e3d6000fd5b505050505b826001600160a01b031663d4f7af436040518163ffffffff1660e01b8152600401600060405180830381600087803b15801561519e57600080fd5b505af11580156151b2573d6000803e3d6000fd5b50505050505050565b60608160000180548060200260200160405190810160405280929190818152602001828054801561520b57602002820191906000526020600020905b8154815260200190600101908083116151f7575b50505050509050919050565b6000818152600183016020526040812054801561532a57600061523b600183615683565b855490915060009061524f90600190615683565b90508181146152d057600086600001828154811061527d57634e487b7160e01b600052603260045260246000fd5b90600052602060002001549050808760000184815481106152ae57634e487b7160e01b600052603260045260246000fd5b6000918252602080832090910192909255918252600188019052604090208390555b85548690806152ef57634e487b7160e01b600052603160045260246000fd5b600190038181906000526020600020016000905590558560010160008681526020019081526020016000206000905560019350505050611180565b6000915050611180565b805161533f816156e6565b919050565b8051801515811461533f57600080fd5b600060208284031215615365578081fd5b813561129e816156e6565b600060208284031215615381578081fd5b815161129e816156e6565b6000806040838503121561539e578081fd5b82356153a9816156e6565b946020939093013593505050565b6000806000606084860312156153cb578081fd5b83356153d6816156e6565b92506020840135915060408401356153ed816156e6565b809150509250925092565b6000602080838503121561540a578182fd5b825167ffffffffffffffff80821115615421578384fd5b818501915085601f830112615434578384fd5b815181811115615446576154466156d0565b8060051b604051601f19603f8301168101818110858211171561546b5761546b6156d0565b604052828152858101935084860182860187018a1015615489578788fd5b8795505b838610156154b25761549e81615334565b85526001959095019493860193860161548d565b5098975050505050505050565b6000602082840312156154d0578081fd5b61129e82615344565b600080604083850312156154eb578182fd5b6154f483615344565b9150602083015190509250929050565b600060208284031215615515578081fd5b5051919050565b6000806040838503121561552e578182fd5b8235615539816156e6565b91506020830135615549816156e6565b809150509250929050565b6000806040838503121561539e578182fd5b6004811061558457634e487b7160e01b600052602160045260246000fd5b9052565b6001600160a01b0384168152606081016155a56020830185615566565b826040830152949350505050565b6020808252825182820181905260009190848201906040850190845b818110156155f45783516001600160a01b0316835292840192918401916001016155cf565b50909695505050505050565b602081016111808284615566565b60008219821115615621576156216156ba565b500190565b60008261564157634e487b7160e01b81526012600452602481fd5b500490565b6000817fffffffffffffffffffffffffffffffffffffffffffffffffffffffffffffffff048311821515161561567e5761567e6156ba565b500290565b600082821015615695576156956156ba565b500390565b600060ff821660ff8114156156b1576156b16156ba565b60010192915050565b634e487b7160e01b600052601160045260246000fd5b634e487b7160e01b600052604160045260246000fd5b6001600160a01b03811681146156fb57600080fd5b5056fea2646970667358221220ddc867d10e7ea5c2c5ab05bb2d23750f75f787e0e3922457b03dbac3689bb88e64736f6c63430008040033",
  "linkReferences": {},
  "deployedLinkReferences": {}
}