{
  "_format": "hh-sol-artifact-1",
  "contractName": "ColletiveFundingPoolAdapterContract",
  "sourceName": "contracts/collective/adapters/CollectiveFundingPoolAdapter.sol",
  "abi": [
    {
      "inputs": [],
      "name": "INVESTMENT_GRACE_PERIOD",
      "type": "error"
    },
    {
      "inputs": [],
      "name": "MAX_PATICIPANT_AMOUNT_REACH",
      "type": "error"
    },
    {
      "anonymous": false,
      "inputs": [
        {
          "indexed": false,
          "internalType": "address",
          "name": "daoAddress",
          "type": "address"
        },
        {
          "indexed": false,
          "internalType": "uint256",
          "name": "escrowAmount",
          "type": "uint256"
        },
        {
          "indexed": false,
          "internalType": "address",
          "name": "executer",
          "type": "address"
        }
      ],
      "name": "ClearFund",
      "type": "event"
    },
    {
      "anonymous": false,
      "inputs": [
        {
          "indexed": false,
          "internalType": "address",
          "name": "daoAddress",
          "type": "address"
        },
        {
          "indexed": false,
          "internalType": "uint256",
          "name": "amount",
          "type": "uint256"
        },
        {
          "indexed": false,
          "internalType": "address",
          "name": "account",
          "type": "address"
        }
      ],
      "name": "Deposit",
      "type": "event"
    },
    {
      "anonymous": false,
      "inputs": [
        {
          "indexed": false,
          "internalType": "address",
          "name": "daoAddress",
          "type": "address"
        },
        {
          "indexed": false,
          "internalType": "address",
          "name": "account",
          "type": "address"
        },
        {
          "indexed": false,
          "internalType": "uint256",
          "name": "receivedAmount",
          "type": "uint256"
        }
      ],
      "name": "DistributeRedemptionFee",
      "type": "event"
    },
    {
      "anonymous": false,
      "inputs": [
        {
          "indexed": false,
          "internalType": "address",
          "name": "daoAddress",
          "type": "address"
        },
        {
          "indexed": false,
          "internalType": "enum ColletiveFundingPoolAdapterContract.FundState",
          "name": "state",
          "type": "uint8"
        },
        {
          "indexed": false,
          "internalType": "uint256",
          "name": "totalRaised",
          "type": "uint256"
        }
      ],
      "name": "ProcessFundRaise",
      "type": "event"
    },
    {
      "anonymous": false,
      "inputs": [
        {
          "indexed": false,
          "internalType": "address",
          "name": "daoAddress",
          "type": "address"
        },
        {
          "indexed": false,
          "internalType": "address",
          "name": "account",
          "type": "address"
        },
        {
          "indexed": false,
          "internalType": "uint256",
          "name": "amount",
          "type": "uint256"
        },
        {
          "indexed": false,
          "internalType": "uint256",
          "name": "redemptionFee",
          "type": "uint256"
        }
      ],
      "name": "RedeptionFeeCharged",
      "type": "event"
    },
    {
      "anonymous": false,
      "inputs": [
        {
          "indexed": false,
          "internalType": "address",
          "name": "daoAddress",
          "type": "address"
        },
        {
          "indexed": false,
          "internalType": "uint256",
          "name": "amount",
          "type": "uint256"
        },
        {
          "indexed": false,
          "internalType": "address",
          "name": "account",
          "type": "address"
        }
      ],
      "name": "WithDraw",
      "type": "event"
    },
    {
      "inputs": [
        {
          "internalType": "contract DaoRegistry",
          "name": "dao",
          "type": "address"
        },
        {
          "internalType": "address",
          "name": "investorAddr",
          "type": "address"
        }
      ],
      "name": "balanceOf",
      "outputs": [
        {
          "internalType": "uint256",
          "name": "",
          "type": "uint256"
        }
      ],
      "stateMutability": "view",
      "type": "function"
    },
    {
      "inputs": [
        {
          "internalType": "contract DaoRegistry",
          "name": "dao",
          "type": "address"
        },
        {
          "internalType": "address",
          "name": "token",
          "type": "address"
        },
        {
          "internalType": "address",
          "name": "investorAddr",
          "type": "address"
        }
      ],
      "name": "balanceOfToken",
      "outputs": [
        {
          "internalType": "uint256",
          "name": "",
          "type": "uint256"
        }
      ],
      "stateMutability": "view",
      "type": "function"
    },
    {
      "inputs": [
        {
          "internalType": "contract DaoRegistry",
          "name": "dao",
          "type": "address"
        }
      ],
      "name": "clearFund",
      "outputs": [],
      "stateMutability": "nonpayable",
      "type": "function"
    },
    {
      "inputs": [
        {
          "internalType": "contract DaoRegistry",
          "name": "dao",
          "type": "address"
        },
        {
          "internalType": "uint256",
          "name": "amount",
          "type": "uint256"
        }
      ],
      "name": "deposit",
      "outputs": [],
      "stateMutability": "nonpayable",
      "type": "function"
    },
    {
      "inputs": [
        {
          "internalType": "address",
          "name": "",
          "type": "address"
        }
      ],
      "name": "fundState",
      "outputs": [
        {
          "internalType": "enum ColletiveFundingPoolAdapterContract.FundState",
          "name": "",
          "type": "uint8"
        }
      ],
      "stateMutability": "view",
      "type": "function"
    },
    {
      "inputs": [
        {
          "internalType": "contract DaoRegistry",
          "name": "dao",
          "type": "address"
        }
      ],
      "name": "getAllInvestors",
      "outputs": [
        {
          "internalType": "address[]",
          "name": "",
          "type": "address[]"
        }
      ],
      "stateMutability": "view",
      "type": "function"
    },
    {
      "inputs": [
        {
          "internalType": "contract DaoRegistry",
          "name": "dao",
          "type": "address"
        },
        {
          "internalType": "uint256",
          "name": "timestamp",
          "type": "uint256"
        }
      ],
      "name": "ifInRedemptionPeriod",
      "outputs": [
        {
          "internalType": "bool",
          "name": "",
          "type": "bool"
        }
      ],
      "stateMutability": "view",
      "type": "function"
    },
    {
      "inputs": [
        {
          "internalType": "contract DaoRegistry",
          "name": "dao",
          "type": "address"
        }
      ],
      "name": "poolBalance",
      "outputs": [
        {
          "internalType": "uint256",
          "name": "",
          "type": "uint256"
        }
      ],
      "stateMutability": "view",
      "type": "function"
    },
    {
      "inputs": [
        {
          "internalType": "contract DaoRegistry",
          "name": "dao",
          "type": "address"
        }
      ],
      "name": "processFundRaise",
      "outputs": [
        {
          "internalType": "bool",
          "name": "",
          "type": "bool"
        }
      ],
      "stateMutability": "nonpayable",
      "type": "function"
    },
    {
      "inputs": [],
      "name": "protocolFee",
      "outputs": [
        {
          "internalType": "uint256",
          "name": "",
          "type": "uint256"
        }
      ],
      "stateMutability": "view",
      "type": "function"
    },
    {
      "inputs": [
        {
          "internalType": "contract DaoRegistry",
          "name": "dao",
          "type": "address"
        }
      ],
      "name": "resetFundRaiseState",
      "outputs": [],
      "stateMutability": "nonpayable",
      "type": "function"
    },
    {
      "inputs": [
        {
          "internalType": "contract DaoRegistry",
          "name": "dao",
          "type": "address"
        },
        {
          "internalType": "address",
          "name": "account",
          "type": "address"
        }
      ],
      "name": "returnFundToQuitGovernor",
      "outputs": [
        {
          "internalType": "bool",
          "name": "",
          "type": "bool"
        }
      ],
      "stateMutability": "nonpayable",
      "type": "function"
    },
    {
      "inputs": [
        {
          "internalType": "contract DaoRegistry",
          "name": "dao",
          "type": "address"
        },
        {
          "internalType": "uint256",
          "name": "feeProtocol",
          "type": "uint256"
        }
      ],
      "name": "setProtocolFee",
      "outputs": [],
      "stateMutability": "nonpayable",
      "type": "function"
    },
    {
      "inputs": [
        {
          "internalType": "contract DaoRegistry",
          "name": "dao",
          "type": "address"
        },
        {
          "internalType": "address",
          "name": "token",
          "type": "address"
        },
        {
          "internalType": "address",
          "name": "account",
          "type": "address"
        },
        {
          "internalType": "uint256",
          "name": "amount",
          "type": "uint256"
        }
      ],
      "name": "topupFunds",
      "outputs": [],
      "stateMutability": "nonpayable",
      "type": "function"
    },
    {
      "inputs": [
        {
          "internalType": "contract DaoRegistry",
          "name": "dao",
          "type": "address"
        },
        {
          "internalType": "address",
          "name": "token",
          "type": "address"
        },
        {
          "internalType": "address",
          "name": "account",
          "type": "address"
        },
        {
          "internalType": "uint256",
          "name": "amount",
          "type": "uint256"
        }
      ],
      "name": "transferFromNewGovernor",
      "outputs": [],
      "stateMutability": "nonpayable",
      "type": "function"
    },
    {
      "inputs": [
        {
          "internalType": "contract DaoRegistry",
          "name": "dao",
          "type": "address"
        },
        {
          "internalType": "uint256",
          "name": "amount",
          "type": "uint256"
        }
      ],
      "name": "withdraw",
      "outputs": [],
      "stateMutability": "nonpayable",
      "type": "function"
    }
  ],
  "bytecode": "0x6080604052660aa87bee53800060025534801561001b57600080fd5b506142c98061002b6000396000f3fe608060405234801561001057600080fd5b50600436106101005760003560e01c806396609c4211610097578063b9bf313611610066578063b9bf313614610235578063f10e6b6b14610248578063f3fef3a31461025b578063f7888aec1461026e57600080fd5b806396609c42146101f3578063a2d165d214610206578063b0e21e8a14610219578063b5b3ca2c1461022257600080fd5b806350d9e688116100d357806350d9e6881461018c57806368abb5e0146101ac57806383cffffe146101cd5780638fbc7eb0146101e057600080fd5b80630c916bae146101055780633a844ec01461013e57806342bb30791461016457806347e7ef2414610179575b600080fd5b610128610113366004613ea5565b60016020526000908152604090205460ff1681565b6040516101359190614198565b60405180910390f35b61015461014c3660046140bb565b600092915050565b6040519015158152602001610135565b61017761017236600461406b565b610281565b005b6101776101873660046140bb565b6107f4565b61019f61019a366004613ea5565b6114bb565b604051610135919061414b565b6101bf6101ba366004613ea5565b6114e5565b604051908152602001610135565b6101776101db366004613ea5565b611604565b6101bf6101ee366004614021565b611c9e565b610154610201366004613ea5565b611de1565b610154610214366004613fe9565b612030565b6101bf60025481565b6101776102303660046140bb565b612443565b61017761024336600461406b565b6124a8565b610177610256366004613ea5565b612a0c565b6101776102693660046140bb565b612b2a565b6101bf61027c366004613fe9565b6130a5565b6040516317ba7d8560e01b81527f1a4f1390baec30049008138e650571a3c4374eba88116bc89dc192f2f9295efe60048201526001600160a01b038516906317ba7d859060240160206040518083038186803b1580156102e057600080fd5b505afa1580156102f4573d6000803e3d6000fd5b505050506040513d601f19601f820116820180604052508101906103189190613ec1565b6001600160a01b0316336001600160a01b03161461037d5760405162461bcd60e51b815260206004820152600b60248201527f4163636573732044656e7900000000000000000000000000000000000000000060448201526064015b60405180910390fd5b6040516370a0823160e01b81526001600160a01b0383811660048301528291908516906370a082319060240160206040518083038186803b1580156103c157600080fd5b505afa1580156103d5573d6000803e3d6000fd5b505050506040513d601f19601f820116820180604052508101906103f991906140e6565b10156104475760405162461bcd60e51b815260206004820152601160248201527f696e73756666696369656e742066756e640000000000000000000000000000006044820152606401610374565b604051636eb1769f60e11b81526001600160a01b03838116600483015230602483015282919085169063dd62ed3e9060440160206040518083038186803b15801561049157600080fd5b505afa1580156104a5573d6000803e3d6000fd5b505050506040513d601f19601f820116820180604052508101906104c991906140e6565b10156105175760405162461bcd60e51b815260206004820152601660248201527f696e73756666696369656e7420616c6c6f77616e6365000000000000000000006044820152606401610374565b6040516323b872dd60e01b81526001600160a01b038381166004830152306024830152604482018390528416906323b872dd90606401602060405180830381600087803b15801561056757600080fd5b505af115801561057b573d6000803e3d6000fd5b505050506040513d601f19601f8201168201806040525081019061059f9190613fa4565b50604051632c9f4b5b60e11b81527f3909e87234f428ccb8748126e2c93f66a62f92a70d315fa5803dec6362be07ab60048201526001600160a01b038085169163095ea7b39187169063593e96b69060240160206040518083038186803b15801561060957600080fd5b505afa15801561061d573d6000803e3d6000fd5b505050506040513d601f19601f820116820180604052508101906106419190613ec1565b6040516001600160e01b031960e084901b1681526001600160a01b03909116600482015260248101849052604401602060405180830381600087803b15801561068957600080fd5b505af115801561069d573d6000803e3d6000fd5b505050506040513d601f19601f820116820180604052508101906106c19190613fa4565b50604051632c9f4b5b60e11b81527f3909e87234f428ccb8748126e2c93f66a62f92a70d315fa5803dec6362be07ab60048201526000906001600160a01b0386169063593e96b69060240160206040518083038186803b15801561072457600080fd5b505afa158015610738573d6000803e3d6000fd5b505050506040513d601f19601f8201168201806040525081019061075c9190613ec1565b6040517fc57d5fe90000000000000000000000000000000000000000000000000000000081526001600160a01b0385811660048301528681166024830152604482018590529192509082169063c57d5fe990606401600060405180830381600087803b1580156107cb57600080fd5b505af11580156107df573d6000803e3d6000fd5b505050506107ed85846131c6565b5050505050565b81600061080082613320565b9050600083116108525760405162461bcd60e51b815260206004820152600760248201527f21616d6f756e74000000000000000000000000000000000000000000000000006044820152606401610374565b61088d6040518060a001604052806000815260200160008152602001600081526020016000815260200160006001600160a01b031681525090565b604051634941d71d60e11b81527f5fa39c8100b49336846e52d39403e353bf782275f905a885f09224779ff1c92460048201526001600160a01b03861690639283ae3a9060240160206040518083038186803b1580156108ec57600080fd5b505afa158015610900573d6000803e3d6000fd5b505050506040513d601f19601f8201168201806040525081019061092491906140e6565b8152604051634941d71d60e11b81527fbdd40865e74210f0a46799ae63462c62010da92014a08cbc32f1d049d0a22c6b60048201526001600160a01b03861690639283ae3a9060240160206040518083038186803b15801561098557600080fd5b505afa158015610999573d6000803e3d6000fd5b505050506040513d601f19601f820116820180604052508101906109bd91906140e6565b6020820152604051634941d71d60e11b81527f7e07fb4530796d057ca1d76d83f47aa8629dbb7e942ac28f30ad6f5e9e8d418960048201526001600160a01b03861690639283ae3a9060240160206040518083038186803b158015610a2157600080fd5b505afa158015610a35573d6000803e3d6000fd5b505050506040513d601f19601f82011682018060405250810190610a5991906140e6565b6040820152602081015115610abc578060200151841015610abc5760405162461bcd60e51b815260206004820152601460248201527f3c206d696e206465706f73697420616d6f756e740000000000000000000000006044820152606401610374565b805115610b27578051610acf86336130a5565b610ad990866141a6565b1115610b275760405162461bcd60e51b815260206004820152601460248201527f3e206d6178206465706f73697420616d6f756e740000000000000000000000006044820152606401610374565b604051634941d71d60e11b81527fbd04d44792b7dbfe3b50b0f9f2006f7ef449e374a39021cb9bfa7cd0bdd850d7600482015242906001600160a01b03871690639283ae3a9060240160206040518083038186803b158015610b8857600080fd5b505afa158015610b9c573d6000803e3d6000fd5b505050506040513d601f19601f82011682018060405250810190610bc091906140e6565b108015610c635750604051634941d71d60e11b81527f533afc15b6312917b5e28e2272ea69d44e5ea8e00d3bd57cada1275c2f14c9e8600482015242906001600160a01b03871690639283ae3a9060240160206040518083038186803b158015610c2957600080fd5b505afa158015610c3d573d6000803e3d6000fd5b505050506040513d601f19601f82011682018060405250810190610c6191906140e6565b115b610caf5760405162461bcd60e51b815260206004820152601360248201527f2166756e6472616973696e672077696e646f77000000000000000000000000006044820152606401610374565b604051634941d71d60e11b81527ff301d5aec67a9d816d38f9b645cac1e79a3308ff9803564bbe63a862db82f46b60048201526001600160a01b03861690639283ae3a9060240160206040518083038186803b158015610d0e57600080fd5b505afa158015610d22573d6000803e3d6000fd5b505050506040513d601f19601f82011682018060405250810190610d4691906140e6565b158015610d57575060008160400151115b15610dc357806040015184610d6b876114e5565b610d7591906141a6565b1115610dc35760405162461bcd60e51b815260206004820152601660248201527f3e2046756e647261697365206d617820616d6f756e74000000000000000000006044820152606401610374565b604051632c9f4b5b60e11b81527f3909e87234f428ccb8748126e2c93f66a62f92a70d315fa5803dec6362be07ab60048201526001600160a01b0386169063593e96b69060240160206040518083038186803b158015610e2257600080fd5b505afa158015610e36573d6000803e3d6000fd5b505050506040513d601f19601f82011682018060405250810190610e5a9190613ec1565b6001600160a01b039081166080830152604051634941d71d60e11b81527f69f4ffb3ebcb7809550bddd3e4d449a47e737bf6635bc7a730996643997b0e48600482015290861690639283ae3a9060240160206040518083038186803b158015610ec257600080fd5b505afa158015610ed6573d6000803e3d6000fd5b505050506040513d601f19601f82011682018060405250810190610efa91906140e6565b6001148015610fbf5750604051634941d71d60e11b81527fecbde689cc6337d29a750b8b8a8abbfa97427b4ac800ab55be2f2c87311510f260048201526001600160a01b03861690639283ae3a9060240160206040518083038186803b158015610f6357600080fd5b505afa158015610f77573d6000803e3d6000fd5b505050506040513d601f19601f82011682018060405250810190610f9b91906140e6565b6001600160a01b0386166000908152602081905260409020610fbc906135eb565b10155b8015610fea57506001600160a01b0385166000908152602081905260409020610fe890336135f5565b155b15611021576040517ffa088e8a00000000000000000000000000000000000000000000000000000000815260040160405180910390fd5b600081608001516001600160a01b031663a87af66c6040518163ffffffff1660e01b815260040160206040518083038186803b15801561106057600080fd5b505afa158015611074573d6000803e3d6000fd5b505050506040513d601f19601f820116820180604052508101906110989190613ec1565b6040516370a0823160e01b815233600482015290915085906001600160a01b038316906370a082319060240160206040518083038186803b1580156110dc57600080fd5b505afa1580156110f0573d6000803e3d6000fd5b505050506040513d601f19601f8201168201806040525081019061111491906140e6565b10156111625760405162461bcd60e51b815260206004820152600560248201527f2166756e640000000000000000000000000000000000000000000000000000006044820152606401610374565b604051636eb1769f60e11b815233600482015230602482015285906001600160a01b0383169063dd62ed3e9060440160206040518083038186803b1580156111a957600080fd5b505afa1580156111bd573d6000803e3d6000fd5b505050506040513d601f19601f820116820180604052508101906111e191906140e6565b101561122f5760405162461bcd60e51b815260206004820152600a60248201527f21616c6c6f77616e6365000000000000000000000000000000000000000000006044820152606401610374565b6040516323b872dd60e01b8152336004820152306024820152604481018690526001600160a01b038216906323b872dd90606401602060405180830381600087803b15801561127d57600080fd5b505af1158015611291573d6000803e3d6000fd5b505050506040513d601f19601f820116820180604052508101906112b59190613fa4565b50604051632c9f4b5b60e11b81527f3909e87234f428ccb8748126e2c93f66a62f92a70d315fa5803dec6362be07ab60048201526001600160a01b038083169163095ea7b39189169063593e96b69060240160206040518083038186803b15801561131f57600080fd5b505afa158015611333573d6000803e3d6000fd5b505050506040513d601f19601f820116820180604052508101906113579190613ec1565b6040516001600160e01b031960e084901b1681526001600160a01b03909116600482015260248101889052604401602060405180830381600087803b15801561139f57600080fd5b505af11580156113b3573d6000803e3d6000fd5b505050506040513d601f19601f820116820180604052508101906113d79190613fa4565b5060808201516040517fb08079a6000000000000000000000000000000000000000000000000000000008152336004820152602481018790526001600160a01b039091169063b08079a690604401600060405180830381600087803b15801561143f57600080fd5b505af1158015611453573d6000803e3d6000fd5b5050505061146186336131c6565b604080516001600160a01b038816815260208101879052338183015290517fe31c7b8d08ee7db0afa68782e1028ef92305caeea8626633ad44d413e30f6b2f9181900360600190a150506114b58282613617565b50505050565b6001600160a01b03811660009081526020819052604090206060906114df90613622565b92915050565b604051632c9f4b5b60e11b81527f3909e87234f428ccb8748126e2c93f66a62f92a70d315fa5803dec6362be07ab600482015260009081906001600160a01b0384169063593e96b69060240160206040518083038186803b15801561154957600080fd5b505afa15801561155d573d6000803e3d6000fd5b505050506040513d601f19601f820116820180604052508101906115819190613ec1565b6040516370a0823160e01b815261decd60048201529091506001600160a01b038216906370a082319060240160206040518083038186803b1580156115c557600080fd5b505afa1580156115d9573d6000803e3d6000fd5b505050506040513d601f19601f820116820180604052508101906115fd91906140e6565b9392505050565b80600061161082613320565b905060036001600160a01b03841660009081526001602052604090205460ff16600381111561164f57634e487b7160e01b600052602160045260246000fd5b1480156116f15750604051634941d71d60e11b81527f533afc15b6312917b5e28e2272ea69d44e5ea8e00d3bd57cada1275c2f14c9e860048201526001600160a01b03841690639283ae3a9060240160206040518083038186803b1580156116b657600080fd5b505afa1580156116ca573d6000803e3d6000fd5b505050506040513d601f19601f820116820180604052508101906116ee91906140e6565b42115b80611736575060026001600160a01b03841660009081526001602052604090205460ff16600381111561173457634e487b7160e01b600052602160045260246000fd5b145b6117825760405162461bcd60e51b815260206004820152601b60248201527f43616e7420636c65617246756e6420617420746869732074696d6500000000006044820152606401610374565b604051632c9f4b5b60e11b81527f3909e87234f428ccb8748126e2c93f66a62f92a70d315fa5803dec6362be07ab60048201526000906001600160a01b0385169063593e96b69060240160206040518083038186803b1580156117e457600080fd5b505afa1580156117f8573d6000803e3d6000fd5b505050506040513d601f19601f8201168201806040525081019061181c9190613ec1565b90506000816001600160a01b031663a87af66c6040518163ffffffff1660e01b815260040160206040518083038186803b15801561185957600080fd5b505afa15801561186d573d6000803e3d6000fd5b505050506040513d601f19601f820116820180604052508101906118919190613ec1565b6001600160a01b0386166000908152602081905260408120919250906118b690613622565b805190915015611c8c576000805b82518160ff161015611c2b57600061190689858460ff16815181106118f957634e487b7160e01b600052603260045260246000fd5b60200260200101516130a5565b90508015611c18576040516317ba7d8560e01b81527f372fda66f626a705d3a459960a1457403a7c3564acccedc00092ea70262b708360048201526000906001600160a01b038b16906317ba7d859060240160206040518083038186803b15801561197057600080fd5b505afa158015611984573d6000803e3d6000fd5b505050506040513d601f19601f820116820180604052508101906119a89190613ec1565b9050806001600160a01b03166336896be78b88888760ff16815181106119de57634e487b7160e01b600052603260045260246000fd5b60209081029190910101516040516001600160e01b031960e086901b1681526001600160a01b039384166004820152918316602483015291909116604482015260648101859052608401600060405180830381600087803b158015611a4257600080fd5b505af1158015611a56573d6000803e3d6000fd5b50506040516317ba7d8560e01b81527f372fda66f626a705d3a459960a1457403a7c3564acccedc00092ea70262b708360048201526001600160a01b03808b16935063e176b35e92508d16906317ba7d859060240160206040518083038186803b158015611ac357600080fd5b505afa158015611ad7573d6000803e3d6000fd5b505050506040513d601f19601f82011682018060405250810190611afb9190613ec1565b6040516001600160e01b031960e084901b1681526001600160a01b039182166004820152908916602482015260448101859052606401600060405180830381600087803b158015611b4b57600080fd5b505af1158015611b5f573d6000803e3d6000fd5b50505050866001600160a01b031663e3a05cc1868560ff1681518110611b9557634e487b7160e01b600052603260045260246000fd5b60209081029190910101516040516001600160e01b031960e084901b1681526001600160a01b039182166004820152908916602482015260448101859052606401600060405180830381600087803b158015611bf057600080fd5b505af1158015611c04573d6000803e3d6000fd5b505050508184611c1491906141a6565b9350505b5080611c2381614232565b9150506118c4565b506001600160a01b038716600081815260016020908152604091829020805460ff19169055815192835282018390523382820152517f12d0dcfe23709357491021067eb05d73fa0b1f1aeb69310c2071218e089f057f9181900360600190a1505b505050611c998282613617565b505050565b604051632c9f4b5b60e11b81527f3909e87234f428ccb8748126e2c93f66a62f92a70d315fa5803dec6362be07ab600482015260009081906001600160a01b0386169063593e96b69060240160206040518083038186803b158015611d0257600080fd5b505afa158015611d16573d6000803e3d6000fd5b505050506040513d601f19601f82011682018060405250810190611d3a9190613ec1565b6040517ff59e38b70000000000000000000000000000000000000000000000000000000081526001600160a01b03858116600483015286811660248301529192509082169063f59e38b79060440160206040518083038186803b158015611da057600080fd5b505afa158015611db4573d6000803e3d6000fd5b505050506040513d601f19601f82011682018060405250810190611dd891906140e6565b95945050505050565b604051634941d71d60e11b81527f31af571e53636dddd77f772cce9d30b42075760f2da731636acc6962da2fbef8600482015260009081906001600160a01b03841690639283ae3a9060240160206040518083038186803b158015611e4557600080fd5b505afa158015611e59573d6000803e3d6000fd5b505050506040513d601f19601f82011682018060405250810190611e7d91906140e6565b604051634941d71d60e11b81527f533afc15b6312917b5e28e2272ea69d44e5ea8e00d3bd57cada1275c2f14c9e860048201529091506000906001600160a01b03851690639283ae3a9060240160206040518083038186803b158015611ee257600080fd5b505afa158015611ef6573d6000803e3d6000fd5b505050506040513d601f19601f82011682018060405250810190611f1a91906140e6565b90508042118015611f65575060016001600160a01b03851660009081526001602052604090205460ff166003811115611f6357634e487b7160e01b600052602160045260246000fd5b145b156120265781611f74856114e5565b10611fa1576001600160a01b0384166000908152600160205260409020805460ff19166002179055611fc5565b6001600160a01b0384166000908152600160205260409020805460ff191660031790555b6001600160a01b0384166000908152600160205260409020547fe9975264b50cb635621ce71b45426b9994cf2bf91f3aa9d73b337a96cf2d728390859060ff1661200e826114e5565b60405161201d93929190614120565b60405180910390a15b5060019392505050565b60008061203d84846130a5565b1161204a575060006114df565b6040516317ba7d8560e01b81527f1a4f1390baec30049008138e650571a3c4374eba88116bc89dc192f2f9295efe60048201526001600160a01b038416906317ba7d859060240160206040518083038186803b1580156120a957600080fd5b505afa1580156120bd573d6000803e3d6000fd5b505050506040513d601f19601f820116820180604052508101906120e19190613ec1565b6001600160a01b0316336001600160a01b0316146121415760405162461bcd60e51b815260206004820152600b60248201527f4163636573732044656e790000000000000000000000000000000000000000006044820152606401610374565b600061214d84846130a5565b604051634941d71d60e11b81527f51cc27e85946200c558b984a0c15cad2122655d647f9c02ebe9529f2a0b25a2f6004820152909150600090670de0b6b3a7640000906001600160a01b03871690639283ae3a9060240160206040518083038186803b1580156121bc57600080fd5b505afa1580156121d0573d6000803e3d6000fd5b505050506040513d601f19601f820116820180604052508101906121f491906140e6565b6121fe90846141de565b61220891906141be565b604051632c9f4b5b60e11b81527f3909e87234f428ccb8748126e2c93f66a62f92a70d315fa5803dec6362be07ab60048201529091506000906001600160a01b0387169063593e96b69060240160206040518083038186803b15801561226d57600080fd5b505afa158015612281573d6000803e3d6000fd5b505050506040513d601f19601f820116820180604052508101906122a59190613ec1565b90506000816001600160a01b031663a87af66c6040518163ffffffff1660e01b815260040160206040518083038186803b1580156122e257600080fd5b505afa1580156122f6573d6000803e3d6000fd5b505050506040513d601f19601f8201168201806040525081019061231a9190613ec1565b90506001600160a01b03821663d9caed128783612337878961421b565b6040516001600160e01b031960e086901b1681526001600160a01b0393841660048201529290911660248301526044820152606401600060405180830381600087803b15801561238657600080fd5b505af115801561239a573d6000803e3d6000fd5b50506040517fe3a05cc10000000000000000000000000000000000000000000000000000000081526001600160a01b0389811660048301528481166024830152604482018890528516925063e3a05cc19150606401600060405180830381600087803b15801561240957600080fd5b505af115801561241d573d6000803e3d6000fd5b5050505061242b878761362f565b612436878285613730565b5060019695505050505050565b81600061244f82613320565b90508361245b816139a8565b6001600160a01b0316336001600160a01b03161461247857600080fd5b670de0b6b3a76400008410801561248f5750600084115b61249857600080fd5b5060028390556114b58282613617565b6040516317ba7d8560e01b81527f3b4de3360220463b2e1b681516ac7919070009f0544e8465d80dc511828dae5b60048201526001600160a01b038516906317ba7d859060240160206040518083038186803b15801561250757600080fd5b505afa15801561251b573d6000803e3d6000fd5b505050506040513d601f19601f8201168201806040525081019061253f9190613ec1565b6001600160a01b0316336001600160a01b03161461259f5760405162461bcd60e51b815260206004820152600b60248201527f4163636573732044656e790000000000000000000000000000000000000000006044820152606401610374565b6040516370a0823160e01b81526001600160a01b0383811660048301528291908516906370a082319060240160206040518083038186803b1580156125e357600080fd5b505afa1580156125f7573d6000803e3d6000fd5b505050506040513d601f19601f8201168201806040525081019061261b91906140e6565b10156126695760405162461bcd60e51b815260206004820152601160248201527f696e73756666696369656e742066756e640000000000000000000000000000006044820152606401610374565b604051636eb1769f60e11b81526001600160a01b03838116600483015230602483015282919085169063dd62ed3e9060440160206040518083038186803b1580156126b357600080fd5b505afa1580156126c7573d6000803e3d6000fd5b505050506040513d601f19601f820116820180604052508101906126eb91906140e6565b10156127395760405162461bcd60e51b815260206004820152601660248201527f696e73756666696369656e7420616c6c6f77616e6365000000000000000000006044820152606401610374565b6040516323b872dd60e01b81526001600160a01b038381166004830152306024830152604482018390528416906323b872dd90606401602060405180830381600087803b15801561278957600080fd5b505af115801561279d573d6000803e3d6000fd5b505050506040513d601f19601f820116820180604052508101906127c19190613fa4565b50604051632c9f4b5b60e11b81527f3909e87234f428ccb8748126e2c93f66a62f92a70d315fa5803dec6362be07ab60048201526001600160a01b038085169163095ea7b39187169063593e96b69060240160206040518083038186803b15801561282b57600080fd5b505afa15801561283f573d6000803e3d6000fd5b505050506040513d601f19601f820116820180604052508101906128639190613ec1565b6040516001600160e01b031960e084901b1681526001600160a01b03909116600482015260248101849052604401602060405180830381600087803b1580156128ab57600080fd5b505af11580156128bf573d6000803e3d6000fd5b505050506040513d601f19601f820116820180604052508101906128e39190613fa4565b50604051632c9f4b5b60e11b81527f3909e87234f428ccb8748126e2c93f66a62f92a70d315fa5803dec6362be07ab60048201526000906001600160a01b0386169063593e96b69060240160206040518083038186803b15801561294657600080fd5b505afa15801561295a573d6000803e3d6000fd5b505050506040513d601f19601f8201168201806040525081019061297e9190613ec1565b6040517fc57d5fe90000000000000000000000000000000000000000000000000000000081526001600160a01b0385811660048301528681166024830152604482018590529192509082169063c57d5fe990606401600060405180830381600087803b1580156129ed57600080fd5b505af1158015612a01573d6000803e3d6000fd5b505050505050505050565b6040516317ba7d8560e01b81527f3a06648a49edffe95b8384794dfe9cf3ab34782fab0130b4c91bfd53f3407e6b60048201526001600160a01b038216906317ba7d859060240160206040518083038186803b158015612a6b57600080fd5b505afa158015612a7f573d6000803e3d6000fd5b505050506040513d601f19601f82011682018060405250810190612aa39190613ec1565b6001600160a01b0316336001600160a01b031614612b035760405162461bcd60e51b815260206004820152600b60248201527f4163636573732064656e790000000000000000000000000000000000000000006044820152606401610374565b6001600160a01b03166000908152600160208190526040909120805460ff19169091179055565b816000612b3682613320565b6040516317ba7d8560e01b81527f72894213a5c7f56b36b2947fa6ea18963d6bb1a68746b46d7f552cca76e1a7a860048201529091506000906001600160a01b038616906317ba7d859060240160206040518083038186803b158015612b9b57600080fd5b505afa158015612baf573d6000803e3d6000fd5b505050506040513d601f19601f82011682018060405250810190612bd39190613ec1565b6040517f4fd194f60000000000000000000000000000000000000000000000000000000081526001600160a01b03878116600483015291925090821690634fd194f69060240160206040518083038186803b158015612c3157600080fd5b505afa158015612c45573d6000803e3d6000fd5b505050506040513d601f19601f82011682018060405250810190612c699190613fa4565b612c9f576040517f6132398d00000000000000000000000000000000000000000000000000000000815260040160405180910390fd5b604051632c9f4b5b60e11b81527f3909e87234f428ccb8748126e2c93f66a62f92a70d315fa5803dec6362be07ab60048201526000906001600160a01b0387169063593e96b69060240160206040518083038186803b158015612d0157600080fd5b505afa158015612d15573d6000803e3d6000fd5b505050506040513d601f19601f82011682018060405250810190612d399190613ec1565b90506000816001600160a01b031663a87af66c6040518163ffffffff1660e01b815260040160206040518083038186803b158015612d7657600080fd5b505afa158015612d8a573d6000803e3d6000fd5b505050506040513d601f19601f82011682018060405250810190612dae9190613ec1565b90506000612dbc88336130a5565b905060008711612e0e5760405162461bcd60e51b815260206004820152600760248201527f21616d6f756e74000000000000000000000000000000000000000000000000006044820152606401610374565b80871115612e5e5760405162461bcd60e51b815260206004820152600860248201527f3e62616c616e63650000000000000000000000000000000000000000000000006044820152606401610374565b604051634941d71d60e11b81527f51cc27e85946200c558b984a0c15cad2122655d647f9c02ebe9529f2a0b25a2f6004820152600090670de0b6b3a7640000906001600160a01b038b1690639283ae3a9060240160206040518083038186803b158015612eca57600080fd5b505afa158015612ede573d6000803e3d6000fd5b505050506040513d601f19601f82011682018060405250810190612f0291906140e6565b612f0c908a6141de565b612f1691906141be565b90506001600160a01b03841663d9caed123385612f33858d61421b565b6040516001600160e01b031960e086901b1681526001600160a01b0393841660048201529290911660248301526044820152606401600060405180830381600087803b158015612f8257600080fd5b505af1158015612f96573d6000803e3d6000fd5b50506040517fe3a05cc10000000000000000000000000000000000000000000000000000000081523360048201526001600160a01b038681166024830152604482018c90528716925063e3a05cc19150606401600060405180830381600087803b15801561300357600080fd5b505af1158015613017573d6000803e3d6000fd5b5050505060006130278a336130a5565b1161303657613036893361362f565b613041898483613730565b7fd432fbc5f79eaeefd01acbebd76cf4b0d5f43d8372c2fd3e23761c06a60a75f18961306d838b61421b565b604080516001600160a01b0390931683526020830191909152339082015260600160405180910390a150505050506114b58282613617565b604051632c9f4b5b60e11b81527f3909e87234f428ccb8748126e2c93f66a62f92a70d315fa5803dec6362be07ab600482015260009081906001600160a01b0385169063593e96b69060240160206040518083038186803b15801561310957600080fd5b505afa15801561311d573d6000803e3d6000fd5b505050506040513d601f19601f820116820180604052508101906131419190613ec1565b6040516370a0823160e01b81526001600160a01b038581166004830152919250908216906370a082319060240160206040518083038186803b15801561318657600080fd5b505afa15801561319a573d6000803e3d6000fd5b505050506040513d601f19601f820116820180604052508101906131be91906140e6565b949350505050565b6001600160a01b03821660009081526020819052604090206131e890826135f5565b613210576001600160a01b038216600090815260208190526040902061320e9082613a8b565b505b6040517fa230c5240000000000000000000000000000000000000000000000000000000081526001600160a01b03828116600483015283169063a230c5249060240160206040518083038186803b15801561326a57600080fd5b505afa15801561327e573d6000803e3d6000fd5b505050506040513d601f19601f820116820180604052508101906132a29190613fa4565b61331c576040517fdc929f4a0000000000000000000000000000000000000000000000000000000081526001600160a01b03828116600483015283169063dc929f4a906024015b600060405180830381600087803b15801561330357600080fd5b505af1158015613317573d6000803e3d6000fd5b505050505b5050565b6040805160808101825260008082526020820181905291810182905260608101919091525a81600001818152505043826001600160a01b031663b21634826040518163ffffffff1660e01b815260040160206040518083038186803b15801561338857600080fd5b505afa15801561339c573d6000803e3d6000fd5b505050506040513d601f19601f820116820180604052508101906133c091906140e6565b141561340e5760405162461bcd60e51b815260206004820152601060248201527f7265656e7472616e6379206775617264000000000000000000000000000000006044820152606401610374565b816001600160a01b03166310fdb0a26040518163ffffffff1660e01b8152600401600060405180830381600087803b15801561344957600080fd5b505af115801561345d573d6000803e3d6000fd5b50506040517f72c6838f0000000000000000000000000000000000000000000000000000000081527f1f2fd42ad6a6cacd573c4b212beb7a4e2499ad45d742a65337097f130e71daff6004820152600092506001600160a01b03851691506372c6838f9060240160206040518083038186803b1580156134dc57600080fd5b505afa1580156134f0573d6000803e3d6000fd5b505050506040513d601f19601f820116820180604052508101906135149190613ec1565b90506001600160a01b03811661353057600060208301526135e5565b6001600160a01b038181166060840181905283516040517f43a8a3f1000000000000000000000000000000000000000000000000000000008152928616600484015260248301526000918291906343a8a3f190604401604080518083038186803b15801561359d57600080fd5b505afa1580156135b1573d6000803e3d6000fd5b505050506040513d601f19601f820116820180604052508101906135d59190613fbe565b9015156020860152604085015250505b50919050565b60006114df825490565b6001600160a01b038116600090815260018301602052604081205415156115fd565b61331c828233613aa0565b606060006115fd83613b96565b6001600160a01b03821660009081526020819052604090206136519082613bf2565b506040517fa230c5240000000000000000000000000000000000000000000000000000000081526001600160a01b03828116600483015283169063a230c5249060240160206040518083038186803b1580156136ac57600080fd5b505afa1580156136c0573d6000803e3d6000fd5b505050506040513d601f19601f820116820180604052508101906136e49190613fa4565b1561331c576040517f0b1ca49a0000000000000000000000000000000000000000000000000000000081526001600160a01b038281166004830152831690630b1ca49a906024016132e9565b600061373b84613c07565b905060005b81518160ff1610156107ed57600061377586848460ff16815181106118f957634e487b7160e01b600052603260045260246000fd5b1115613996576000613786866114e5565b846137ae88868660ff16815181106118f957634e487b7160e01b600052603260045260246000fd5b6137b891906141de565b6137c291906141be565b604051632c9f4b5b60e11b81527f3909e87234f428ccb8748126e2c93f66a62f92a70d315fa5803dec6362be07ab60048201529091506000906001600160a01b0388169063593e96b69060240160206040518083038186803b15801561382757600080fd5b505afa15801561383b573d6000803e3d6000fd5b505050506040513d601f19601f8201168201806040525081019061385f9190613ec1565b905061386a82613c7e565b806001600160a01b031663e176b35e858560ff168151811061389c57634e487b7160e01b600052603260045260246000fd5b60209081029190910101516040516001600160e01b031960e084901b1681526001600160a01b039182166004820152908916602482015260448101859052606401600060405180830381600087803b1580156138f757600080fd5b505af115801561390b573d6000803e3d6000fd5b505050507f8f18627dd3013a46ee91228b93403cafa1ac7501566ee460bd8b40e5c551c7d387858560ff168151811061395457634e487b7160e01b600052603260045260246000fd5b60200260200101518460405161398b939291906001600160a01b039384168152919092166020820152604081019190915260600190565b60405180910390a150505b806139a081614232565b915050613740565b6000816001600160a01b03166348f7f2a36040518163ffffffff1660e01b815260040160206040518083038186803b1580156139e357600080fd5b505afa1580156139f7573d6000803e3d6000fd5b505050506040513d601f19601f82011682018060405250810190613a1b9190613ec1565b6001600160a01b0316638da5cb5b6040518163ffffffff1660e01b815260040160206040518083038186803b158015613a5357600080fd5b505afa158015613a67573d6000803e3d6000fd5b505050506040513d601f19601f820116820180604052508101906114df9190613ec1565b60006115fd836001600160a01b038416613cf4565b816020015115613b3e5781606001516001600160a01b0316635e5eb01384835a8651613acc919061421b565b60408088015190516001600160e01b031960e087901b1681526001600160a01b03948516600482015293909216602484015260448301526064820152608401600060405180830381600087803b158015613b2557600080fd5b505af1158015613b39573d6000803e3d6000fd5b505050505b826001600160a01b031663d4f7af436040518163ffffffff1660e01b8152600401600060405180830381600087803b158015613b7957600080fd5b505af1158015613b8d573d6000803e3d6000fd5b50505050505050565b606081600001805480602002602001604051908101604052809291908181526020018280548015613be657602002820191906000526020600020905b815481526020019060010190808311613bd2575b50505050509050919050565b60006115fd836001600160a01b038416613d43565b6060816001600160a01b031663a6f636416040518163ffffffff1660e01b815260040160006040518083038186803b158015613c4257600080fd5b505afa158015613c56573d6000803e3d6000fd5b505050506040513d6000823e601f3d908101601f191682016040526114df9190810190613edd565b613cf181604051602401613c9491815260200190565b60408051601f198184030181529190526020810180517bffffffffffffffffffffffffffffffffffffffffffffffffffffffff167ff82c50f100000000000000000000000000000000000000000000000000000000179052613e60565b50565b6000818152600183016020526040812054613d3b575081546001818101845560008481526020808220909301849055845484825282860190935260409020919091556114df565b5060006114df565b60008181526001830160205260408120548015613e56576000613d6760018361421b565b8554909150600090613d7b9060019061421b565b9050818114613dfc576000866000018281548110613da957634e487b7160e01b600052603260045260246000fd5b9060005260206000200154905080876000018481548110613dda57634e487b7160e01b600052603260045260246000fd5b6000918252602080832090910192909255918252600188019052604090208390555b8554869080613e1b57634e487b7160e01b600052603160045260246000fd5b6001900381819060005260206000200160009055905585600101600086815260200190815260200160002060009055600193505050506114df565b60009150506114df565b613cf18160006a636f6e736f6c652e6c6f679050600080835160208501845afa505050565b8051613e908161427e565b919050565b80518015158114613e9057600080fd5b600060208284031215613eb6578081fd5b81356115fd8161427e565b600060208284031215613ed2578081fd5b81516115fd8161427e565b60006020808385031215613eef578182fd5b825167ffffffffffffffff80821115613f06578384fd5b818501915085601f830112613f19578384fd5b815181811115613f2b57613f2b614268565b8060051b604051601f19603f83011681018181108582111715613f5057613f50614268565b604052828152858101935084860182860187018a1015613f6e578788fd5b8795505b83861015613f9757613f8381613e85565b855260019590950194938601938601613f72565b5098975050505050505050565b600060208284031215613fb5578081fd5b6115fd82613e95565b60008060408385031215613fd0578081fd5b613fd983613e95565b9150602083015190509250929050565b60008060408385031215613ffb578182fd5b82356140068161427e565b915060208301356140168161427e565b809150509250929050565b600080600060608486031215614035578081fd5b83356140408161427e565b925060208401356140508161427e565b915060408401356140608161427e565b809150509250925092565b60008060008060808587031215614080578081fd5b843561408b8161427e565b9350602085013561409b8161427e565b925060408501356140ab8161427e565b9396929550929360600135925050565b600080604083850312156140cd578182fd5b82356140d88161427e565b946020939093013593505050565b6000602082840312156140f7578081fd5b5051919050565b6004811061411c57634e487b7160e01b600052602160045260246000fd5b9052565b6001600160a01b03841681526060810161413d60208301856140fe565b826040830152949350505050565b6020808252825182820181905260009190848201906040850190845b8181101561418c5783516001600160a01b031683529284019291840191600101614167565b50909695505050505050565b602081016114df82846140fe565b600082198211156141b9576141b9614252565b500190565b6000826141d957634e487b7160e01b81526012600452602481fd5b500490565b6000817fffffffffffffffffffffffffffffffffffffffffffffffffffffffffffffffff048311821515161561421657614216614252565b500290565b60008282101561422d5761422d614252565b500390565b600060ff821660ff81141561424957614249614252565b60010192915050565b634e487b7160e01b600052601160045260246000fd5b634e487b7160e01b600052604160045260246000fd5b6001600160a01b0381168114613cf157600080fdfea2646970667358221220fbe0c122d45c15354bf6b304327227ca94cde119cbf69ab0d5443fac0e35c3c164736f6c63430008040033",
  "linkReferences": {},
  "deployedLinkReferences": {}
}