{
  "_format": "hh-sol-artifact-1",
  "contractName": "ColletiveTopUpProposalAdapterContract",
  "sourceName": "contracts/collective/adapters/CollectiveTopUpProposalAdapter.sol",
  "abi": [
    {
      "inputs": [],
      "name": "UNDONE_FUNDING_PROPOSAL",
      "type": "error"
    },
    {
      "inputs": [],
      "name": "VOTE_NOT_START",
      "type": "error"
    },
    {
      "anonymous": false,
      "inputs": [
        {
          "indexed": false,
          "internalType": "address",
          "name": "daoAddr",
          "type": "address"
        },
        {
          "indexed": false,
          "internalType": "bytes32",
          "name": "proposalId",
          "type": "bytes32"
        }
      ],
      "name": "ProposalCreated",
      "type": "event"
    },
    {
      "anonymous": false,
      "inputs": [
        {
          "indexed": false,
          "internalType": "address",
          "name": "daoAddr",
          "type": "address"
        },
        {
          "indexed": false,
          "internalType": "bytes32",
          "name": "proposalId",
          "type": "bytes32"
        },
        {
          "indexed": false,
          "internalType": "enum ColletiveTopUpProposalAdapterContract.ProposalState",
          "name": "state",
          "type": "uint8"
        },
        {
          "indexed": false,
          "internalType": "uint256",
          "name": "voteResult",
          "type": "uint256"
        },
        {
          "indexed": false,
          "internalType": "uint256",
          "name": "allVotingWeight",
          "type": "uint256"
        },
        {
          "indexed": false,
          "internalType": "uint256",
          "name": "nbYes",
          "type": "uint256"
        },
        {
          "indexed": false,
          "internalType": "uint256",
          "name": "nbNo",
          "type": "uint256"
        }
      ],
      "name": "ProposalProcessed",
      "type": "event"
    },
    {
      "anonymous": false,
      "inputs": [
        {
          "indexed": false,
          "internalType": "address",
          "name": "daoAddr",
          "type": "address"
        },
        {
          "indexed": false,
          "internalType": "bytes32",
          "name": "proposalId",
          "type": "bytes32"
        },
        {
          "indexed": false,
          "internalType": "enum ColletiveTopUpProposalAdapterContract.ProposalState",
          "name": "state",
          "type": "uint8"
        }
      ],
      "name": "StartVoting",
      "type": "event"
    },
    {
      "inputs": [
        {
          "internalType": "contract DaoRegistry",
          "name": "dao",
          "type": "address"
        }
      ],
      "name": "allDone",
      "outputs": [
        {
          "internalType": "bool",
          "name": "",
          "type": "bool"
        }
      ],
      "stateMutability": "view",
      "type": "function"
    },
    {
      "inputs": [
        {
          "internalType": "contract DaoRegistry",
          "name": "dao",
          "type": "address"
        },
        {
          "internalType": "bytes32",
          "name": "proposalId",
          "type": "bytes32"
        }
      ],
      "name": "processProposal",
      "outputs": [
        {
          "internalType": "bool",
          "name": "",
          "type": "bool"
        }
      ],
      "stateMutability": "nonpayable",
      "type": "function"
    },
    {
      "inputs": [
        {
          "internalType": "address",
          "name": "",
          "type": "address"
        },
        {
          "internalType": "bytes32",
          "name": "",
          "type": "bytes32"
        }
      ],
      "name": "proposals",
      "outputs": [
        {
          "internalType": "address",
          "name": "account",
          "type": "address"
        },
        {
          "internalType": "address",
          "name": "token",
          "type": "address"
        },
        {
          "internalType": "uint256",
          "name": "amount",
          "type": "uint256"
        },
        {
          "internalType": "uint256",
          "name": "creationTime",
          "type": "uint256"
        },
        {
          "internalType": "uint256",
          "name": "stopVoteTime",
          "type": "uint256"
        },
        {
          "internalType": "enum ColletiveTopUpProposalAdapterContract.ProposalState",
          "name": "state",
          "type": "uint8"
        }
      ],
      "stateMutability": "view",
      "type": "function"
    },
    {
      "inputs": [
        {
          "internalType": "contract DaoRegistry",
          "name": "dao",
          "type": "address"
        },
        {
          "internalType": "bytes32",
          "name": "proposalId",
          "type": "bytes32"
        }
      ],
      "name": "startVoting",
      "outputs": [],
      "stateMutability": "nonpayable",
      "type": "function"
    },
    {
      "inputs": [
        {
          "internalType": "contract DaoRegistry",
          "name": "dao",
          "type": "address"
        },
        {
          "internalType": "address",
          "name": "token",
          "type": "address"
        },
        {
          "internalType": "uint256",
          "name": "amount",
          "type": "uint256"
        }
      ],
      "name": "summbitProposal",
      "outputs": [],
      "stateMutability": "nonpayable",
      "type": "function"
    }
  ],
  "bytecode": "0x608060405234801561001057600080fd5b50611ded806100206000396000f3fe608060405234801561001057600080fd5b50600436106100675760003560e01c8063642fc0c011610050578063642fc0c0146100f75780639573167d1461011a578063fbb65b701461012d57600080fd5b806337c6b2e71461006c5780635cb7527614610081575b600080fd5b61007f61007a366004611a41565b610140565b005b6100dc61008f36600461199d565b60006020818152928152604080822090935290815220805460018201546002830154600384015460048501546005909501546001600160a01b039485169593909416939192909160ff1686565b6040516100ee96959493929190611b4e565b60405180910390f35b61010a610105366004611a25565b6106e7565b60405190151581526020016100ee565b61010a610128366004611a81565b61071f565b61007f61013b366004611a81565b610d54565b8261014b8133611187565b83600061015782611269565b6040516317ba7d8560e01b81527f72894213a5c7f56b36b2947fa6ea18963d6bb1a68746b46d7f552cca76e1a7a860048201529091506000906001600160a01b038816906317ba7d859060240160206040518083038186803b1580156101bc57600080fd5b505afa1580156101d0573d6000803e3d6000fd5b505050506040513d601f19601f820116820180604052508101906101f49190611981565b6040517f62e86df50000000000000000000000000000000000000000000000000000000081526001600160a01b0389811660048301529192506000918316906362e86df59060240160206040518083038186803b15801561025457600080fd5b505afa158015610268573d6000803e3d6000fd5b505050506040513d601f19601f8201168201806040525081019061028c9190611a0d565b146102c3576040517f87f0b8e700000000000000000000000000000000000000000000000000000000815260040160405180910390fd5b866001600160a01b031663236197426040518163ffffffff1660e01b8152600401600060405180830381600087803b1580156102fe57600080fd5b505af1158015610312573d6000803e3d6000fd5b5050505060006103bd8860c01b6103988a6001600160a01b031663b21f370e6040518163ffffffff1660e01b815260040160206040518083038186803b15801561035b57600080fd5b505afa15801561036f573d6000803e3d6000fd5b505050506040513d601f19601f820116820180604052508101906103939190611a0d565b611534565b6040516020016103a9929190611ae0565b60405160208183030381529060405261168a565b90506040518060c00160405280336001600160a01b03168152602001886001600160a01b03168152602001878152602001428152602001600081526020016000600481111561041c57634e487b7160e01b600052602160045260246000fd5b90526001600160a01b03808a16600090815260208181526040808320868452825291829020845181549085167fffffffffffffffffffffffff0000000000000000000000000000000000000000918216178255918501516001808301805492909616919093161790935590830151600283015560608301516003830155608083015160048084019190915560a08401516005840180549193909260ff199092169184908111156104dc57634e487b7160e01b600052602160045260246000fd5b0217905550506040517fb73dc389000000000000000000000000000000000000000000000000000000008152600481018390526001600160a01b038a16915063b73dc38990602401600060405180830381600087803b15801561053e57600080fd5b505af1158015610552573d6000803e3d6000fd5b50506040516317ba7d8560e01b81527f907642cbfe4e58ddd14eaa320923fbe4c29721dd0950ae4cb3b2626e292791ae60048201526001600160a01b038b16925063815a2bf49150839083906317ba7d859060240160206040518083038186803b1580156105bf57600080fd5b505afa1580156105d3573d6000803e3d6000fd5b505050506040513d601f19601f820116820180604052508101906105f79190611981565b6040517fffffffff0000000000000000000000000000000000000000000000000000000060e085901b16815260048101929092526001600160a01b03166024820152604401600060405180830381600087803b15801561065657600080fd5b505af115801561066a573d6000803e3d6000fd5b5050506001600160a01b03891660009081526001602052604090206106909150826116a6565b50604080516001600160a01b038a168152602081018390527ffe22c13d0cc04eef2a813c30901da5f8cd64f5ba91866fccce71c606ce464874910160405180910390a150506106df82826116b9565b505050505050565b6001600160a01b0381166000908152600160205260408120819061070a906116c4565b11610716576001610719565b60005b92915050565b600082600061072d82611269565b6001600160a01b0386166000818152602081815260408083208984529091529081902090517ff941f6910000000000000000000000000000000000000000000000000000000081529293509163f941f69190610790908890600290600401611c11565b60206040518083038186803b1580156107a857600080fd5b505afa1580156107bc573d6000803e3d6000fd5b505050506040513d601f19601f820116820180604052508101906107e091906119c8565b156108325760405162461bcd60e51b815260206004820152601a60248201527f70726f706f73616c20616c72656164792070726f63657373656400000000000060448201526064015b60405180910390fd5b6040516317ba7d8560e01b81527f907642cbfe4e58ddd14eaa320923fbe4c29721dd0950ae4cb3b2626e292791ae60048201526000906001600160a01b038816906317ba7d859060240160206040518083038186803b15801561089457600080fd5b505afa1580156108a8573d6000803e3d6000fd5b505050506040513d601f19601f820116820180604052508101906108cc9190611981565b90506001600160a01b0381166109245760405162461bcd60e51b815260206004820152601160248201527f61646170746572206e6f7420666f756e640000000000000000000000000000006044820152606401610829565b6040517f76225e730000000000000000000000000000000000000000000000000000000081526001600160a01b0388811660048301526024820188905260009182918291908516906376225e7390604401606060405180830381600087803b15801561098f57600080fd5b505af11580156109a3573d6000803e3d6000fd5b505050506040513d601f19601f820116820180604052508101906109c79190611a93565b919450925090506000806040517f30490e91000000000000000000000000000000000000000000000000000000008152600481018c90529091506001600160a01b038c16906330490e9190602401600060405180830381600087803b158015610a2f57600080fd5b505af1158015610a43573d6000803e3d6000fd5b5060029250610a50915050565b846005811115610a7057634e487b7160e01b600052602160045260246000fd5b1415610be2576040516317ba7d8560e01b81527f8f5b4aabbdb8527d420a29cc90ae207773ad49b73c632c3cfd2f29eb8776f2ea60048201526000906001600160a01b038d16906317ba7d859060240160206040518083038186803b158015610ad857600080fd5b505afa158015610aec573d6000803e3d6000fd5b505050506040513d601f19601f82011682018060405250810190610b109190611981565b9050806001600160a01b031663b9bf31368d8960010160009054906101000a90046001600160a01b03168a60000160009054906101000a90046001600160a01b03168b600201546040518563ffffffff1660e01b8152600401610b9b94939291906001600160a01b039485168152928416602084015292166040820152606081019190915260800190565b600060405180830381600087803b158015610bb557600080fd5b505af1158015610bc9573d6000803e3d6000fd5b5050505060058701805460ff1916600317905550610c7a565b6003846005811115610c0457634e487b7160e01b600052602160045260246000fd5b1480610c2f57506001846005811115610c2d57634e487b7160e01b600052602160045260246000fd5b145b15610c485760058601805460ff19166004179055610c7a565b6040517f97cbb52b00000000000000000000000000000000000000000000000000000000815260040160405180910390fd5b6001600160a01b038b166000908152600160205260409020610c9c908b6116ce565b15610cc5576001600160a01b038b166000908152600160205260409020610cc3908b6116e6565b505b7ff3d22b9e73b9947a3edd70bd6279f80eda44c15f3cc8af46dc57bfb8191edd2b8b8b8860050160009054906101000a900460ff168487878a6005811115610d1d57634e487b7160e01b600052602160045260246000fd5b604051610d309796959493929190611bb7565b60405180910390a160019850505050505050610d4c82826116b9565b505092915050565b6001600160a01b038216600090815260208181526040808320848452909152812090600582015460ff166004811115610d9d57634e487b7160e01b600052602160045260246000fd5b14610dea5760405162461bcd60e51b815260206004820152600a60248201527f215375626d6974746564000000000000000000000000000000000000000000006044820152606401610829565b6002810154600182015482546040516317ba7d8560e01b81527f8f5b4aabbdb8527d420a29cc90ae207773ad49b73c632c3cfd2f29eb8776f2ea60048201526001600160a01b039283169263dd62ed3e92811691908816906317ba7d859060240160206040518083038186803b158015610e6357600080fd5b505afa158015610e77573d6000803e3d6000fd5b505050506040513d601f19601f82011682018060405250810190610e9b9190611981565b6040517fffffffff0000000000000000000000000000000000000000000000000000000060e085901b1681526001600160a01b0392831660048201529116602482015260440160206040518083038186803b158015610ef957600080fd5b505afa158015610f0d573d6000803e3d6000fd5b505050506040513d601f19601f82011682018060405250810190610f319190611a0d565b1061112d576040516317ba7d8560e01b81527f907642cbfe4e58ddd14eaa320923fbe4c29721dd0950ae4cb3b2626e292791ae60048201526000906001600160a01b038516906317ba7d859060240160206040518083038186803b158015610f9857600080fd5b505afa158015610fac573d6000803e3d6000fd5b505050506040513d601f19601f82011682018060405250810190610fd09190611981565b604080516020810182526000815290517f2b0974d00000000000000000000000000000000000000000000000000000000081529192506001600160a01b03831691632b0974d0916110279188918891600401611c35565b600060405180830381600087803b15801561104157600080fd5b505af1158015611055573d6000803e3d6000fd5b5050505060058201805460ff191660011790556040517f9283ae3a0000000000000000000000000000000000000000000000000000000081527f9876c0f0505bfb2b1c38d3bbd25ba13159172cd0868972d76927723f5a9480fc60048201526001600160a01b03851690639283ae3a9060240160206040518083038186803b1580156110e057600080fd5b505afa1580156110f4573d6000803e3d6000fd5b505050506040513d601f19601f820116820180604052508101906111189190611a0d565b6111229042611c9d565b60048301555061113d565b60058101805460ff191660041790555b60058101546040517f9ecc19ca84ca06f3a7c6274f324cff08c1fb13840039c4caaf14d27de923de879161117a918691869160ff90911690611b93565b60405180910390a1505050565b6040517fa230c5240000000000000000000000000000000000000000000000000000000081526001600160a01b03828116600483015283169063a230c5249060240160206040518083038186803b1580156111e157600080fd5b505afa1580156111f5573d6000803e3d6000fd5b505050506040513d601f19601f8201168201806040525081019061121991906119c8565b6112655760405162461bcd60e51b815260206004820152600c60248201527f6f6e6c79476f7665726e6f7200000000000000000000000000000000000000006044820152606401610829565b5050565b6040805160808101825260008082526020820181905291810182905260608101919091525a81600001818152505043826001600160a01b031663b21634826040518163ffffffff1660e01b815260040160206040518083038186803b1580156112d157600080fd5b505afa1580156112e5573d6000803e3d6000fd5b505050506040513d601f19601f820116820180604052508101906113099190611a0d565b14156113575760405162461bcd60e51b815260206004820152601060248201527f7265656e7472616e6379206775617264000000000000000000000000000000006044820152606401610829565b816001600160a01b03166310fdb0a26040518163ffffffff1660e01b8152600401600060405180830381600087803b15801561139257600080fd5b505af11580156113a6573d6000803e3d6000fd5b50506040517f72c6838f0000000000000000000000000000000000000000000000000000000081527f1f2fd42ad6a6cacd573c4b212beb7a4e2499ad45d742a65337097f130e71daff6004820152600092506001600160a01b03851691506372c6838f9060240160206040518083038186803b15801561142557600080fd5b505afa158015611439573d6000803e3d6000fd5b505050506040513d601f19601f8201168201806040525081019061145d9190611981565b90506001600160a01b038116611479576000602083015261152e565b6001600160a01b038181166060840181905283516040517f43a8a3f1000000000000000000000000000000000000000000000000000000008152928616600484015260248301526000918291906343a8a3f190604401604080518083038186803b1580156114e657600080fd5b505afa1580156114fa573d6000803e3d6000fd5b505050506040513d601f19601f8201168201806040525081019061151e91906119e2565b9015156020860152604085015250505b50919050565b60608161157457505060408051808201909152600181527f3000000000000000000000000000000000000000000000000000000000000000602082015290565b8160005b811561159e578061158881611d10565b91506115979050600a83611cb5565b9150611578565b60008167ffffffffffffffff8111156115c757634e487b7160e01b600052604160045260246000fd5b6040519080825280601f01601f1916602001820160405280156115f1576020820181803683370190505b5090505b841561168257611606600183611cc9565b9150611613600a86611d49565b61161e906030611c9d565b60f81b81838151811061164157634e487b7160e01b600052603260045260246000fd5b60200101907effffffffffffffffffffffffffffffffffffffffffffffffffffffffffffff1916908160001a90535061167b600a86611cb5565b94506115f5565b949350505050565b600081516000141561169e57506000919050565b506020015190565b60006116b283836116f2565b9392505050565b611265828233611741565b6000610719825490565b600081815260018301602052604081205415156116b2565b60006116b2838361184f565b600081815260018301602052604081205461173957508154600181810184556000848152602080822090930184905584548482528286019093526040902091909155610719565b506000610719565b8160200151156117f75781606001516001600160a01b0316635e5eb01384835a865161176d9190611cc9565b60408088015190517fffffffff0000000000000000000000000000000000000000000000000000000060e087901b1681526001600160a01b03948516600482015293909216602484015260448301526064820152608401600060405180830381600087803b1580156117de57600080fd5b505af11580156117f2573d6000803e3d6000fd5b505050505b826001600160a01b031663d4f7af436040518163ffffffff1660e01b8152600401600060405180830381600087803b15801561183257600080fd5b505af1158015611846573d6000803e3d6000fd5b50505050505050565b60008181526001830160205260408120548015611962576000611873600183611cc9565b855490915060009061188790600190611cc9565b90508181146119085760008660000182815481106118b557634e487b7160e01b600052603260045260246000fd5b90600052602060002001549050808760000184815481106118e657634e487b7160e01b600052603260045260246000fd5b6000918252602080832090910192909255918252600188019052604090208390555b855486908061192757634e487b7160e01b600052603160045260246000fd5b600190038181906000526020600020016000905590558560010160008681526020019081526020016000206000905560019350505050610719565b6000915050610719565b8051801515811461197c57600080fd5b919050565b600060208284031215611992578081fd5b81516116b281611d9f565b600080604083850312156119af578081fd5b82356119ba81611d9f565b946020939093013593505050565b6000602082840312156119d9578081fd5b6116b28261196c565b600080604083850312156119f4578182fd5b6119fd8361196c565b9150602083015190509250929050565b600060208284031215611a1e578081fd5b5051919050565b600060208284031215611a36578081fd5b81356116b281611d9f565b600080600060608486031215611a55578081fd5b8335611a6081611d9f565b92506020840135611a7081611d9f565b929592945050506040919091013590565b600080604083850312156119af578182fd5b600080600060608486031215611aa7578283fd5b835160068110611ab5578384fd5b602085015160409095015190969495509392505050565b60058110611adc57611adc611d89565b9052565b7fffffffffffffffff000000000000000000000000000000000000000000000000831681527f546f705570230000000000000000000000000000000000000000000000000000600882015260008251611b4081600e850160208701611ce0565b91909101600e019392505050565b6001600160a01b0387811682528616602082015260408101859052606081018490526080810183905260c08101611b8860a0830184611acc565b979650505050505050565b6001600160a01b038416815260208101839052606081016116826040830184611acc565b6001600160a01b03881681526020810187905260e08101611bdb6040830188611acc565b6fffffffffffffffffffffffffffffffff861660608301528460808301528360a08301528260c083015298975050505050505050565b8281526040810160038310611c2857611c28611d89565b8260208301529392505050565b6001600160a01b03841681528260208201526060604082015260008251806060840152611c69816080850160208701611ce0565b601f017fffffffffffffffffffffffffffffffffffffffffffffffffffffffffffffffe01691909101608001949350505050565b60008219821115611cb057611cb0611d5d565b500190565b600082611cc457611cc4611d73565b500490565b600082821015611cdb57611cdb611d5d565b500390565b60005b83811015611cfb578181015183820152602001611ce3565b83811115611d0a576000848401525b50505050565b60007fffffffffffffffffffffffffffffffffffffffffffffffffffffffffffffffff821415611d4257611d42611d5d565b5060010190565b600082611d5857611d58611d73565b500690565b634e487b7160e01b600052601160045260246000fd5b634e487b7160e01b600052601260045260246000fd5b634e487b7160e01b600052602160045260246000fd5b6001600160a01b0381168114611db457600080fd5b5056fea2646970667358221220a9cafb3d366ca3ce7a4b70beef72bcc05b03ea17f4b7bed6c3da204338a71d1064736f6c63430008040033",
  "linkReferences": {},
  "deployedLinkReferences": {}
}