{
  "_format": "hh-sol-artifact-1",
  "contractName": "ColletiveDaoSetProposalAdapterContract",
  "sourceName": "contracts/collective/adapters/CollectiveDaoSetProposalAdapter.sol",
  "abi": [
    {
      "inputs": [],
      "name": "UNDONE_PROPOSALS",
      "type": "error"
    },
    {
      "inputs": [],
      "name": "VOTING_NOT_FINISH",
      "type": "error"
    },
    {
      "anonymous": false,
      "inputs": [
        {
          "indexed": false,
          "internalType": "address",
          "name": "daoAddr",
          "type": "address"
        },
        {
          "indexed": false,
          "internalType": "bytes32",
          "name": "proposalId",
          "type": "bytes32"
        },
        {
          "indexed": false,
          "internalType": "enum ColletiveDaoSetProposalAdapterContract.ProposalType",
          "name": "pType",
          "type": "uint8"
        }
      ],
      "name": "ProposalCreated",
      "type": "event"
    },
    {
      "anonymous": false,
      "inputs": [
        {
          "indexed": false,
          "internalType": "address",
          "name": "daoAddr",
          "type": "address"
        },
        {
          "indexed": false,
          "internalType": "bytes32",
          "name": "proposalId",
          "type": "bytes32"
        },
        {
          "indexed": false,
          "internalType": "enum ColletiveDaoSetProposalAdapterContract.ProposalState",
          "name": "state",
          "type": "uint8"
        },
        {
          "indexed": false,
          "internalType": "uint256",
          "name": "voteResult",
          "type": "uint256"
        },
        {
          "indexed": false,
          "internalType": "uint128",
          "name": "allVotingWeight",
          "type": "uint128"
        },
        {
          "indexed": false,
          "internalType": "uint256",
          "name": "nbYes",
          "type": "uint256"
        },
        {
          "indexed": false,
          "internalType": "uint256",
          "name": "nbNo",
          "type": "uint256"
        }
      ],
      "name": "ProposalProcessed",
      "type": "event"
    },
    {
      "inputs": [
        {
          "internalType": "address",
          "name": "",
          "type": "address"
        },
        {
          "internalType": "bytes32",
          "name": "",
          "type": "bytes32"
        }
      ],
      "name": "feesProposals",
      "outputs": [
        {
          "internalType": "bytes32",
          "name": "proposalId",
          "type": "bytes32"
        },
        {
          "internalType": "uint256",
          "name": "redemptionFeeAmount",
          "type": "uint256"
        },
        {
          "internalType": "uint256",
          "name": "creationTime",
          "type": "uint256"
        },
        {
          "internalType": "uint256",
          "name": "stopVoteTime",
          "type": "uint256"
        },
        {
          "internalType": "enum ColletiveDaoSetProposalAdapterContract.ProposalState",
          "name": "state",
          "type": "uint8"
        }
      ],
      "stateMutability": "view",
      "type": "function"
    },
    {
      "inputs": [
        {
          "internalType": "address",
          "name": "",
          "type": "address"
        },
        {
          "internalType": "bytes32",
          "name": "",
          "type": "bytes32"
        }
      ],
      "name": "governorMembershipProposals",
      "outputs": [
        {
          "internalType": "bytes32",
          "name": "proposalId",
          "type": "bytes32"
        },
        {
          "internalType": "bool",
          "name": "enable",
          "type": "bool"
        },
        {
          "internalType": "string",
          "name": "name",
          "type": "string"
        },
        {
          "internalType": "uint8",
          "name": "varifyType",
          "type": "uint8"
        },
        {
          "internalType": "uint256",
          "name": "minAmount",
          "type": "uint256"
        },
        {
          "internalType": "address",
          "name": "tokenAddress",
          "type": "address"
        },
        {
          "internalType": "uint256",
          "name": "tokenId",
          "type": "uint256"
        },
        {
          "internalType": "uint256",
          "name": "creationTime",
          "type": "uint256"
        },
        {
          "internalType": "uint256",
          "name": "stopVoteTime",
          "type": "uint256"
        },
        {
          "internalType": "enum ColletiveDaoSetProposalAdapterContract.ProposalState",
          "name": "state",
          "type": "uint8"
        }
      ],
      "stateMutability": "view",
      "type": "function"
    },
    {
      "inputs": [
        {
          "internalType": "address",
          "name": "",
          "type": "address"
        },
        {
          "internalType": "bytes32",
          "name": "",
          "type": "bytes32"
        }
      ],
      "name": "investorCapProposals",
      "outputs": [
        {
          "internalType": "bytes32",
          "name": "proposalId",
          "type": "bytes32"
        },
        {
          "internalType": "bool",
          "name": "enable",
          "type": "bool"
        },
        {
          "internalType": "uint256",
          "name": "cap",
          "type": "uint256"
        },
        {
          "internalType": "uint256",
          "name": "creationTime",
          "type": "uint256"
        },
        {
          "internalType": "uint256",
          "name": "stopVoteTime",
          "type": "uint256"
        },
        {
          "internalType": "enum ColletiveDaoSetProposalAdapterContract.ProposalState",
          "name": "state",
          "type": "uint8"
        }
      ],
      "stateMutability": "view",
      "type": "function"
    },
    {
      "inputs": [
        {
          "internalType": "contract DaoRegistry",
          "name": "dao",
          "type": "address"
        }
      ],
      "name": "isProposalAllDone",
      "outputs": [
        {
          "internalType": "bool",
          "name": "",
          "type": "bool"
        }
      ],
      "stateMutability": "view",
      "type": "function"
    },
    {
      "inputs": [
        {
          "internalType": "address",
          "name": "",
          "type": "address"
        }
      ],
      "name": "ongoingFeesProposal",
      "outputs": [
        {
          "internalType": "bytes32",
          "name": "",
          "type": "bytes32"
        }
      ],
      "stateMutability": "view",
      "type": "function"
    },
    {
      "inputs": [
        {
          "internalType": "address",
          "name": "",
          "type": "address"
        }
      ],
      "name": "ongoingGovernorMembershipProposal",
      "outputs": [
        {
          "internalType": "bytes32",
          "name": "",
          "type": "bytes32"
        }
      ],
      "stateMutability": "view",
      "type": "function"
    },
    {
      "inputs": [
        {
          "internalType": "address",
          "name": "",
          "type": "address"
        }
      ],
      "name": "ongoingInvestorCapProposal",
      "outputs": [
        {
          "internalType": "bytes32",
          "name": "",
          "type": "bytes32"
        }
      ],
      "stateMutability": "view",
      "type": "function"
    },
    {
      "inputs": [
        {
          "internalType": "address",
          "name": "",
          "type": "address"
        }
      ],
      "name": "ongoingProposerRewardProposal",
      "outputs": [
        {
          "internalType": "bytes32",
          "name": "",
          "type": "bytes32"
        }
      ],
      "stateMutability": "view",
      "type": "function"
    },
    {
      "inputs": [
        {
          "internalType": "address",
          "name": "",
          "type": "address"
        }
      ],
      "name": "ongoingVotingProposal",
      "outputs": [
        {
          "internalType": "bytes32",
          "name": "",
          "type": "bytes32"
        }
      ],
      "stateMutability": "view",
      "type": "function"
    },
    {
      "inputs": [
        {
          "internalType": "contract DaoRegistry",
          "name": "dao",
          "type": "address"
        },
        {
          "internalType": "bytes32",
          "name": "proposalId",
          "type": "bytes32"
        }
      ],
      "name": "processFeesProposal",
      "outputs": [],
      "stateMutability": "nonpayable",
      "type": "function"
    },
    {
      "inputs": [
        {
          "internalType": "contract DaoRegistry",
          "name": "dao",
          "type": "address"
        },
        {
          "internalType": "bytes32",
          "name": "proposalId",
          "type": "bytes32"
        }
      ],
      "name": "processGovernorMembershipProposal",
      "outputs": [],
      "stateMutability": "nonpayable",
      "type": "function"
    },
    {
      "inputs": [
        {
          "internalType": "contract DaoRegistry",
          "name": "dao",
          "type": "address"
        },
        {
          "internalType": "bytes32",
          "name": "proposalId",
          "type": "bytes32"
        }
      ],
      "name": "processInvestorCapProposal",
      "outputs": [],
      "stateMutability": "nonpayable",
      "type": "function"
    },
    {
      "inputs": [
        {
          "internalType": "contract DaoRegistry",
          "name": "dao",
          "type": "address"
        },
        {
          "internalType": "bytes32",
          "name": "proposalId",
          "type": "bytes32"
        }
      ],
      "name": "processProposerRewardProposal",
      "outputs": [],
      "stateMutability": "nonpayable",
      "type": "function"
    },
    {
      "inputs": [
        {
          "internalType": "contract DaoRegistry",
          "name": "dao",
          "type": "address"
        },
        {
          "internalType": "bytes32",
          "name": "proposalId",
          "type": "bytes32"
        }
      ],
      "name": "processVotingProposal",
      "outputs": [],
      "stateMutability": "nonpayable",
      "type": "function"
    },
    {
      "inputs": [
        {
          "internalType": "address",
          "name": "",
          "type": "address"
        },
        {
          "internalType": "bytes32",
          "name": "",
          "type": "bytes32"
        }
      ],
      "name": "proposerRewardProposals",
      "outputs": [
        {
          "internalType": "bytes32",
          "name": "proposalId",
          "type": "bytes32"
        },
        {
          "internalType": "uint256",
          "name": "fundFromInvestorAmount",
          "type": "uint256"
        },
        {
          "internalType": "uint256",
          "name": "paybackTokenFromInvestorAmount",
          "type": "uint256"
        },
        {
          "internalType": "uint256",
          "name": "creationTime",
          "type": "uint256"
        },
        {
          "internalType": "uint256",
          "name": "stopVoteTime",
          "type": "uint256"
        },
        {
          "internalType": "enum ColletiveDaoSetProposalAdapterContract.ProposalState",
          "name": "state",
          "type": "uint8"
        }
      ],
      "stateMutability": "view",
      "type": "function"
    },
    {
      "inputs": [
        {
          "internalType": "contract DaoRegistry",
          "name": "dao",
          "type": "address"
        },
        {
          "internalType": "uint256",
          "name": "redemtionFee",
          "type": "uint256"
        }
      ],
      "name": "submitFeesProposal",
      "outputs": [],
      "stateMutability": "nonpayable",
      "type": "function"
    },
    {
      "inputs": [
        {
          "internalType": "contract DaoRegistry",
          "name": "dao",
          "type": "address"
        },
        {
          "internalType": "bool",
          "name": "enable",
          "type": "bool"
        },
        {
          "internalType": "string",
          "name": "name",
          "type": "string"
        },
        {
          "internalType": "uint8",
          "name": "varifyType",
          "type": "uint8"
        },
        {
          "internalType": "uint256",
          "name": "minAmount",
          "type": "uint256"
        },
        {
          "internalType": "address",
          "name": "tokenAddress",
          "type": "address"
        },
        {
          "internalType": "uint256",
          "name": "tokenId",
          "type": "uint256"
        },
        {
          "internalType": "address[]",
          "name": "whiteList",
          "type": "address[]"
        }
      ],
      "name": "submitGovernorMembershpProposal",
      "outputs": [],
      "stateMutability": "nonpayable",
      "type": "function"
    },
    {
      "inputs": [
        {
          "internalType": "contract DaoRegistry",
          "name": "dao",
          "type": "address"
        },
        {
          "internalType": "bool",
          "name": "enable",
          "type": "bool"
        },
        {
          "internalType": "uint256",
          "name": "cap",
          "type": "uint256"
        }
      ],
      "name": "submitInvestorCapProposal",
      "outputs": [],
      "stateMutability": "nonpayable",
      "type": "function"
    },
    {
      "inputs": [
        {
          "internalType": "contract DaoRegistry",
          "name": "dao",
          "type": "address"
        },
        {
          "internalType": "uint256",
          "name": "fundFromInvestorAmount",
          "type": "uint256"
        },
        {
          "internalType": "uint256",
          "name": "paybackTokenFromInvestorAmount",
          "type": "uint256"
        }
      ],
      "name": "submitProposerRewardProposal",
      "outputs": [],
      "stateMutability": "nonpayable",
      "type": "function"
    },
    {
      "inputs": [
        {
          "internalType": "contract DaoRegistry",
          "name": "dao",
          "type": "address"
        },
        {
          "components": [
            {
              "internalType": "uint256",
              "name": "votingAssetType",
              "type": "uint256"
            },
            {
              "internalType": "address",
              "name": "tokenAddress",
              "type": "address"
            },
            {
              "internalType": "uint256",
              "name": "tokenID",
              "type": "uint256"
            },
            {
              "internalType": "uint256",
              "name": "votingWeightedType",
              "type": "uint256"
            },
            {
              "internalType": "uint256",
              "name": "supportType",
              "type": "uint256"
            },
            {
              "internalType": "uint256",
              "name": "quorumType",
              "type": "uint256"
            },
            {
              "internalType": "uint256",
              "name": "support",
              "type": "uint256"
            },
            {
              "internalType": "uint256",
              "name": "quorum",
              "type": "uint256"
            },
            {
              "internalType": "uint256",
              "name": "votingPeriod",
              "type": "uint256"
            },
            {
              "internalType": "uint256",
              "name": "executingPeriod",
              "type": "uint256"
            },
            {
              "internalType": "uint256",
              "name": "gracePeriod",
              "type": "uint256"
            }
          ],
          "internalType": "struct ColletiveDaoSetProposalAdapterContract.VotingParams",
          "name": "params",
          "type": "tuple"
        }
      ],
      "name": "submitVotingProposal",
      "outputs": [],
      "stateMutability": "nonpayable",
      "type": "function"
    },
    {
      "inputs": [
        {
          "internalType": "address",
          "name": "",
          "type": "address"
        },
        {
          "internalType": "bytes32",
          "name": "",
          "type": "bytes32"
        }
      ],
      "name": "votingProposals",
      "outputs": [
        {
          "internalType": "bytes32",
          "name": "proposalId",
          "type": "bytes32"
        },
        {
          "components": [
            {
              "internalType": "uint256",
              "name": "supportType",
              "type": "uint256"
            },
            {
              "internalType": "uint256",
              "name": "quorumType",
              "type": "uint256"
            },
            {
              "internalType": "uint256",
              "name": "support",
              "type": "uint256"
            },
            {
              "internalType": "uint256",
              "name": "quorum",
              "type": "uint256"
            }
          ],
          "internalType": "struct ColletiveDaoSetProposalAdapterContract.VotingSupportInfo",
          "name": "supportInfo",
          "type": "tuple"
        },
        {
          "components": [
            {
              "internalType": "uint256",
              "name": "votingAssetType",
              "type": "uint256"
            },
            {
              "internalType": "address",
              "name": "tokenAddress",
              "type": "address"
            },
            {
              "internalType": "uint256",
              "name": "tokenID",
              "type": "uint256"
            },
            {
              "internalType": "uint256",
              "name": "votingWeightedType",
              "type": "uint256"
            }
          ],
          "internalType": "struct ColletiveDaoSetProposalAdapterContract.VotingAssetInfo",
          "name": "votingAssetInfo",
          "type": "tuple"
        },
        {
          "components": [
            {
              "internalType": "uint256",
              "name": "votingPeriod",
              "type": "uint256"
            },
            {
              "internalType": "uint256",
              "name": "executingPeriod",
              "type": "uint256"
            },
            {
              "internalType": "uint256",
              "name": "gracePeriod",
              "type": "uint256"
            },
            {
              "internalType": "uint256",
              "name": "creationTime",
              "type": "uint256"
            },
            {
              "internalType": "uint256",
              "name": "stopVoteTime",
              "type": "uint256"
            }
          ],
          "internalType": "struct ColletiveDaoSetProposalAdapterContract.VotingTimeInfo",
          "name": "timeInfo",
          "type": "tuple"
        },
        {
          "internalType": "enum ColletiveDaoSetProposalAdapterContract.ProposalState",
          "name": "state",
          "type": "uint8"
        }
      ],
      "stateMutability": "view",
      "type": "function"
    }
  ],
  "bytecode": "0x608060405234801561001057600080fd5b5061580780620000216000396000f3fe608060405234801561001057600080fd5b50600436106101775760003560e01c80638805212d116100d8578063b6939b7f1161008c578063db1c2e6f11610066578063db1c2e6f14610506578063eb11477214610519578063f8ffc75b1461052c57600080fd5b8063b6939b7f146104b3578063be217625146104d3578063d6bb647b146104f357600080fd5b80639a0242fc116100bd5780639a0242fc1461046a578063a860dfdd1461048d578063ae984545146104a057600080fd5b80638805212d146104375780638e3588dc1461045757600080fd5b80631d625e241161012f5780634ad743cc116101145780634ad743cc1461036557806355ba6cf4146103c15780635dd12f89146103d457600080fd5b80631d625e24146102525780631eb1cf391461033c57600080fd5b806307dc8eb81161016057806307dc8eb8146101fe578063115111861461021157806311c747cb1461023f57600080fd5b806301362c231461017c578063034f82fe14610191575b600080fd5b61018f61018a366004615017565b61054c565b005b6101e361019f366004614d9b565b60056020818152600093845260408085209091529183529120805460018201546002830154600384015460048501549490950154929460ff92831694919390921686565b6040516101f596959493929190615464565b60405180910390f35b61018f61020c366004615017565b610990565b61023161021f366004614d63565b60046020526000908152604090205481565b6040519081526020016101f5565b61018f61024d36600461506a565b610c1b565b61032b610260366004614d9b565b60086020818152600093845260408085208252928452928290208054835160808082018652600184015482526002840154828801526003840154828701526004840154606080840191909152865180830188526005860154815260068601546001600160a01b0316818a01526007860154818901529585015486820152865160a08101885260098601548152600a86015498810198909852600b85015496880196909652600c84015495870195909552600d83015494860194909452600e9091015490939060ff1685565b6040516101f59594939291906154a1565b61034f61034a366004614d9b565b610f6a565b6040516101f59a999897969594939291906153f1565b6103b0610373366004614d9b565b6007602090815260009283526040808420909152908252902080546001820154600283015460038401546004909401549293919290919060ff1685565b6040516101f5959493929190615552565b61018f6103cf366004615017565b611061565b6104256103e2366004614d9b565b6009602090815260009283526040808420909152908252902080546001820154600283015460038401546004850154600590950154939492939192909160ff1686565b6040516101f59695949392919061557c565b610231610445366004614d63565b60026020526000908152604090205481565b61018f610465366004615017565b611349565b61047d610478366004614d63565b611625565b60405190151581526020016101f5565b61018f61049b366004615017565b6116dd565b61018f6104ae366004614fd7565b6119b9565b6102316104c1366004614d63565b60036020526000908152604090205481565b6102316104e1366004614d63565b60016020526000908152604090205481565b61018f610501366004614ec3565b611ca3565b61018f610514366004615029565b6120c8565b61018f610527366004615017565b6124d5565b61023161053a366004614d63565b60006020819052908152604090205481565b8160006105588261282c565b6001600160a01b03851660008181526009602090815260408083208884529091529081902090516330490e9160e01b815260048101879052929350916330490e9190602401600060405180830381600087803b1580156105b757600080fd5b505af11580156105cb573d6000803e3d6000fd5b50506040516317ba7d8560e01b81527f907642cbfe4e58ddd14eaa320923fbe4c29721dd0950ae4cb3b2626e292791ae6004820152600092506001600160a01b03881691506317ba7d859060240160206040518083038186803b15801561063157600080fd5b505afa158015610645573d6000803e3d6000fd5b505050506040513d601f19601f820116820180604052508101906106699190614d7f565b6040516376225e7360e01b81526001600160a01b03888116600483015260248201889052919250600091829182918516906376225e7390604401606060405180830381600087803b1580156106bd57600080fd5b505af11580156106d1573d6000803e3d6000fd5b505050506040513d601f19601f820116820180604052508101906106f5919061509e565b91945092509050600283600581111561071e57634e487b7160e01b600052602160045260246000fd5b141561084b576001850154604051630da0f6c760e41b81527fb035c58a9b643066fc5cd78a708da0456c36221a03ca174ff3b76d4306ff7c6c600482015260248101919091526001600160a01b038a169063da0f6c7090604401600060405180830381600087803b15801561079257600080fd5b505af11580156107a6573d6000803e3d6000fd5b505050506002850154604051630da0f6c760e41b81527f558062fa5fcc8623e6c743ab5b51793317989a5a93f03b32a485f94843f77da3600482015260248101919091526001600160a01b038a169063da0f6c7090604401600060405180830381600087803b15801561081857600080fd5b505af115801561082c573d6000803e3d6000fd5b5050506005860180546002925060ff19166001835b02179055506108e5565b600383600581111561086d57634e487b7160e01b600052602160045260246000fd5b14806108985750600183600581111561089657634e487b7160e01b600052602160045260246000fd5b145b156108b3576005850180546003919060ff1916600183610841565b6040517f70fc772800000000000000000000000000000000000000000000000000000000815260040160405180910390fd5b6001600160a01b038916600090815260026020526040812081905561090a8a8a612af7565b6005808801549192507f9a4c9dc7fb16f7e4b4638e51757f59669af6a1ed1c31c3a44d9834d8976c05c5918c918c9160ff1690889081111561095c57634e487b7160e01b600052602160045260246000fd5b8588886040516109729796959493929190615362565b60405180910390a150505050505061098a8282612e25565b50505050565b81600061099c8261282c565b6001600160a01b03851660008181526005602090815260408083208884529091529081902090516330490e9160e01b815260048101879052929350916330490e9190602401600060405180830381600087803b1580156109fb57600080fd5b505af1158015610a0f573d6000803e3d6000fd5b50506040516317ba7d8560e01b81527f907642cbfe4e58ddd14eaa320923fbe4c29721dd0950ae4cb3b2626e292791ae6004820152600092506001600160a01b03881691506317ba7d859060240160206040518083038186803b158015610a7557600080fd5b505afa158015610a89573d6000803e3d6000fd5b505050506040513d601f19601f82011682018060405250810190610aad9190614d7f565b6040516376225e7360e01b81526001600160a01b03888116600483015260248201889052919250600091829182918516906376225e7390604401606060405180830381600087803b158015610b0157600080fd5b505af1158015610b15573d6000803e3d6000fd5b505050506040513d601f19601f82011682018060405250810190610b39919061509e565b919450925090506002836005811115610b6257634e487b7160e01b600052602160045260246000fd5b1415610b8e57610b728986612e34565b6005850180546002919060ff19166001835b0217905550610bf6565b6003836005811115610bb057634e487b7160e01b600052602160045260246000fd5b1480610bdb57506001836005811115610bd957634e487b7160e01b600052602160045260246000fd5b145b156108b3576005850180546003919060ff1916600183610b84565b6001600160a01b038916600090815260208190526040812081905561090a8a8a612af7565b82610c268133612f77565b836000610c328261282c565b9050610c3d86613055565b610c4686611625565b610c975760405162461bcd60e51b815260206004820152601760248201527f64616f7365742070726f706f73616c7320756e646f6e6500000000000000000060448201526064015b60405180910390fd5b856001600160a01b0316633477500f6040518163ffffffff1660e01b8152600401600060405180830381600087803b158015610cd257600080fd5b505af1158015610ce6573d6000803e3d6000fd5b505050506000610d918760c01b610d6c896001600160a01b031663d7543df96040518163ffffffff1660e01b815260040160206040518083038186803b158015610d2f57600080fd5b505afa158015610d43573d6000803e3d6000fd5b505050506040513d601f19601f82011682018060405250810190610d679190615107565b61361c565b604051602001610d7d92919061515f565b604051602081830303815290604052613772565b90506040518060c00160405280828152602001878152602001868152602001428152602001886001600160a01b0316639283ae3a7f9876c0f0505bfb2b1c38d3bbd25ba13159172cd0868972d76927723f5a9480fc6040518263ffffffff1660e01b8152600401610e0491815260200190565b60206040518083038186803b158015610e1c57600080fd5b505afa158015610e30573d6000803e3d6000fd5b505050506040513d601f19601f82011682018060405250810190610e549190615107565b610e5e9042615642565b8152600060209182018190526001600160a01b038a168152600982526040808220858352835290819020835181559183015160018084019190915590830151600283015560608301516003808401919091556080840151600484015560a08401516005840180549193909260ff19909216918490811115610eef57634e487b7160e01b600052602160045260246000fd5b021790555050506001600160a01b0387166000908152600260205260409020819055610f1b878261378e565b7fa65d0c07e3b0d876ee52e871c234a4b150b9bf17a08f356f5aeda8d6782cc31a87826002604051610f4f939291906153bc565b60405180910390a150610f628282612e25565b505050505050565b6006602090815260009283526040808420909152908252902080546001820154600283018054929360ff90921692610fa1906156b1565b80601f0160208091040260200160405190810160405280929190818152602001828054610fcd906156b1565b801561101a5780601f10610fef5761010080835404028352916020019161101a565b820191906000526020600020905b815481529060010190602001808311610ffd57829003601f168201915b505050600384015460048501546005860154600687015460078801546008890154600990990154979860ff958616989497506001600160a01b03909316955090939092168a565b8161106c8133612f77565b8260006110788261282c565b905061108385613055565b61108c85611625565b6110d85760405162461bcd60e51b815260206004820152601760248201527f64616f7365742070726f706f73616c7320756e646f6e650000000000000000006044820152606401610c8e565b846001600160a01b031663091a3e9c6040518163ffffffff1660e01b8152600401600060405180830381600087803b15801561111357600080fd5b505af1158015611127573d6000803e3d6000fd5b5050505060006111818660c01b611170886001600160a01b031663f8385b2d6040518163ffffffff1660e01b815260040160206040518083038186803b158015610d2f57600080fd5b604051602001610d7d9291906151c6565b90506040518060a00160405280828152602001868152602001428152602001876001600160a01b0316639283ae3a7f9876c0f0505bfb2b1c38d3bbd25ba13159172cd0868972d76927723f5a9480fc6040518263ffffffff1660e01b81526004016111ee91815260200190565b60206040518083038186803b15801561120657600080fd5b505afa15801561121a573d6000803e3d6000fd5b505050506040513d601f19601f8201168201806040525081019061123e9190615107565b6112489042615642565b8152600060209182018190526001600160a01b03891681526007825260408082208583528352908190208351815591830151600180840191909155908301516002830155606083015160038084019190915560808401516004840180549193909260ff199092169184908111156112cf57634e487b7160e01b600052602160045260246000fd5b021790555050506001600160a01b03861660009081526004602052604090208190556112fb868261378e565b7fa65d0c07e3b0d876ee52e871c234a4b150b9bf17a08f356f5aeda8d6782cc31a8682600460405161132f939291906153bc565b60405180910390a1506113428282612e25565b5050505050565b8160006113558261282c565b6001600160a01b03851660008181526006602090815260408083208884529091529081902090516330490e9160e01b815260048101879052929350916330490e9190602401600060405180830381600087803b1580156113b457600080fd5b505af11580156113c8573d6000803e3d6000fd5b50506040516317ba7d8560e01b81527f907642cbfe4e58ddd14eaa320923fbe4c29721dd0950ae4cb3b2626e292791ae6004820152600092506001600160a01b03881691506317ba7d859060240160206040518083038186803b15801561142e57600080fd5b505afa158015611442573d6000803e3d6000fd5b505050506040513d601f19601f820116820180604052508101906114669190614d7f565b6040516376225e7360e01b81526001600160a01b03888116600483015260248201889052919250600091829182918516906376225e7390604401606060405180830381600087803b1580156114ba57600080fd5b505af11580156114ce573d6000803e3d6000fd5b505050506040513d601f19601f820116820180604052508101906114f2919061509e565b91945092509050600283600581111561151b57634e487b7160e01b600052602160045260246000fd5b14156115475761152b89866139a4565b6009850180546002919060ff19166001835b02179055506115af565b600383600581111561156957634e487b7160e01b600052602160045260246000fd5b14806115945750600183600581111561159257634e487b7160e01b600052602160045260246000fd5b145b156108b3576009850180546003919060ff191660018361153d565b6001600160a01b03891660009081526001602052604081208190556115d48a8a612af7565b60098701549091507f9a4c9dc7fb16f7e4b4638e51757f59669af6a1ed1c31c3a44d9834d8976c05c5908b908b9060ff1687600581111561095c57634e487b7160e01b600052602160045260246000fd5b6001600160a01b03811660009081526020819052604081205415158061166257506001600160a01b03821660009081526001602052604090205415155b8061168457506001600160a01b03821660009081526004602052604090205415155b806116a657506001600160a01b03821660009081526003602052604090205415155b806116c857506001600160a01b03821660009081526002602052604090205415155b156116d557506000919050565b506001919050565b8160006116e98261282c565b6001600160a01b03851660008181526008602090815260408083208884529091529081902090516330490e9160e01b815260048101879052929350916330490e9190602401600060405180830381600087803b15801561174857600080fd5b505af115801561175c573d6000803e3d6000fd5b50506040516317ba7d8560e01b81527f907642cbfe4e58ddd14eaa320923fbe4c29721dd0950ae4cb3b2626e292791ae6004820152600092506001600160a01b03881691506317ba7d859060240160206040518083038186803b1580156117c257600080fd5b505afa1580156117d6573d6000803e3d6000fd5b505050506040513d601f19601f820116820180604052508101906117fa9190614d7f565b6040516376225e7360e01b81526001600160a01b03888116600483015260248201889052919250600091829182918516906376225e7390604401606060405180830381600087803b15801561184e57600080fd5b505af1158015611862573d6000803e3d6000fd5b505050506040513d601f19601f82011682018060405250810190611886919061509e565b9194509250905060028360058111156118af57634e487b7160e01b600052602160045260246000fd5b14156118db576118bf8986613ebe565b600e850180546002919060ff19166001835b0217905550611943565b60038360058111156118fd57634e487b7160e01b600052602160045260246000fd5b14806119285750600183600581111561192657634e487b7160e01b600052602160045260246000fd5b145b156108b357600e850180546003919060ff19166001836118d1565b6001600160a01b03891660009081526003602052604081208190556119688a8a612af7565b600e8701549091507f9a4c9dc7fb16f7e4b4638e51757f59669af6a1ed1c31c3a44d9834d8976c05c5908b908b9060ff1687600581111561095c57634e487b7160e01b600052602160045260246000fd5b826119c48133612f77565b8360006119d08261282c565b90506119db86613055565b6119e486611625565b611a305760405162461bcd60e51b815260206004820152601760248201527f64616f7365742070726f706f73616c7320756e646f6e650000000000000000006044820152606401610c8e565b856001600160a01b0316631785092b6040518163ffffffff1660e01b8152600401600060405180830381600087803b158015611a6b57600080fd5b505af1158015611a7f573d6000803e3d6000fd5b505050506000611ad98760c01b611ac8896001600160a01b0316633f8a3d496040518163ffffffff1660e01b815260040160206040518083038186803b158015610d2f57600080fd5b604051602001610d7d92919061522d565b90506040518060c001604052808281526020018715158152602001868152602001428152602001886001600160a01b0316639283ae3a7f9876c0f0505bfb2b1c38d3bbd25ba13159172cd0868972d76927723f5a9480fc6040518263ffffffff1660e01b8152600401611b4e91815260200190565b60206040518083038186803b158015611b6657600080fd5b505afa158015611b7a573d6000803e3d6000fd5b505050506040513d601f19601f82011682018060405250810190611b9e9190615107565b611ba89042615642565b8152602001600090526001600160a01b038816600090815260056020818152604080842086855282529283902084518155908401516001808301805492151560ff1993841617905593850151600283015560608501516003808401919091556080860151600484015560a086015193830180549395909390921691908490811115611c4357634e487b7160e01b600052602160045260246000fd5b021790555050506001600160a01b0387166000908152602081905260409020819055611c6f878261378e565b7fa65d0c07e3b0d876ee52e871c234a4b150b9bf17a08f356f5aeda8d6782cc31a87826000604051610f4f939291906153bc565b88611cae8133612f77565b896000611cba8261282c565b9050611cc58c611625565b611d115760405162461bcd60e51b815260206004820152601760248201527f64616f7365742070726f706f73616c7320756e646f6e650000000000000000006044820152606401610c8e565b611d1a8c613055565b8b6001600160a01b031663c7e820cc6040518163ffffffff1660e01b8152600401600060405180830381600087803b158015611d5557600080fd5b505af1158015611d69573d6000803e3d6000fd5b505050506000611dc38d60c01b611db28f6001600160a01b0316639e42c4036040518163ffffffff1660e01b815260040160206040518083038186803b158015610d2f57600080fd5b604051602001610d7d9291906152fb565b90506040518061014001604052808281526020018d151581526020018c81526020018b60ff1681526020018a8152602001896001600160a01b031681526020018881526020014281526020018e6001600160a01b0316639283ae3a7f9876c0f0505bfb2b1c38d3bbd25ba13159172cd0868972d76927723f5a9480fc6040518263ffffffff1660e01b8152600401611e5d91815260200190565b60206040518083038186803b158015611e7557600080fd5b505afa158015611e89573d6000803e3d6000fd5b505050506040513d601f19601f82011682018060405250810190611ead9190615107565b611eb79042615642565b8152602001600090526001600160a01b038e166000908152600660209081526040808320858452825291829020835181558382015160018201805460ff1916911515919091179055918301518051611f159260028501920190614c5f565b5060608201516003808301805460ff90931660ff199384161790556080840151600484015560a08401516005840180546001600160a01b039092167fffffffffffffffffffffffff000000000000000000000000000000000000000090921691909117905560c0840151600684015560e084015160078401556101008401516008840155610120840151600984018054919390929116906001908490811115611fce57634e487b7160e01b600052602160045260246000fd5b0217905550508515905061204e5760005b60ff811686111561204c5761203987878360ff1681811061201057634e487b7160e01b600052603260045260246000fd5b90506020020160208101906120259190614d63565b6000848152600a6020526040902090614347565b50806120448161571f565b915050611fdf565b505b6001600160a01b038d1660009081526001602052604090208190556120738d8261378e565b7fa65d0c07e3b0d876ee52e871c234a4b150b9bf17a08f356f5aeda8d6782cc31a8d8260016040516120a7939291906153bc565b60405180910390a1506120ba8282612e25565b505050505050505050505050565b816120d38133612f77565b8260006120df8261282c565b90506120ea85611625565b6121365760405162461bcd60e51b815260206004820152601760248201527f64616f7365742070726f706f73616c7320756e646f6e650000000000000000006044820152606401610c8e565b61213f85613055565b846001600160a01b0316631bc0f7876040518163ffffffff1660e01b8152600401600060405180830381600087803b15801561217a57600080fd5b505af115801561218e573d6000803e3d6000fd5b5050505060006121e88660c01b6121d7886001600160a01b031663656f9f996040518163ffffffff1660e01b815260040160206040518083038186803b158015610d2f57600080fd5b604051602001610d7d929190615294565b90506040518060a001604052808281526020016040518060800160405280886080013581526020018860a0013581526020018860c0013581526020018860e0013581525081526020016040518060800160405280886000013581526020018860200160208101906122599190614d63565b6001600160a01b0316815260200188604001358152602001886060013581525081526020016040518060a00160405280886101000135815260200188610120013581526020018861014001358152602001428152602001896001600160a01b0316639283ae3a7f9876c0f0505bfb2b1c38d3bbd25ba13159172cd0868972d76927723f5a9480fc6040518263ffffffff1660e01b81526004016122fe91815260200190565b60206040518083038186803b15801561231657600080fd5b505afa15801561232a573d6000803e3d6000fd5b505050506040513d601f19601f8201168201806040525081019061234e9190615107565b6123589042615642565b90528152602001600090526001600160a01b038781166000908152600860208181526040808420878552825292839020855181558582015180516001808401919091558184015160028401558186015160038085019190915560609283015160048501558887015180516005860155808601516006860180547fffffffffffffffffffffffff00000000000000000000000000000000000000001691909a16179098558787015160078501559682015194830194909455808701518051600984015592830151600a83015593820151600b82015592810151600c840155608090810151600d840155840151600e8301805493949193909260ff1990911691849081111561247557634e487b7160e01b600052602160045260246000fd5b021790555050506001600160a01b03861660009081526003602052604090208190556124a1868261378e565b7fa65d0c07e3b0d876ee52e871c234a4b150b9bf17a08f356f5aeda8d6782cc31a8682600360405161132f939291906153bc565b8160006124e18261282c565b6001600160a01b03851660008181526007602090815260408083208884529091529081902090516330490e9160e01b815260048101879052929350916330490e9190602401600060405180830381600087803b15801561254057600080fd5b505af1158015612554573d6000803e3d6000fd5b50506040516317ba7d8560e01b81527f907642cbfe4e58ddd14eaa320923fbe4c29721dd0950ae4cb3b2626e292791ae6004820152600092506001600160a01b03881691506317ba7d859060240160206040518083038186803b1580156125ba57600080fd5b505afa1580156125ce573d6000803e3d6000fd5b505050506040513d601f19601f820116820180604052508101906125f29190614d7f565b6040516376225e7360e01b81526001600160a01b03888116600483015260248201889052919250600091829182918516906376225e7390604401606060405180830381600087803b15801561264657600080fd5b505af115801561265a573d6000803e3d6000fd5b505050506040513d601f19601f8201168201806040525081019061267e919061509e565b9194509250905060028360058111156126a757634e487b7160e01b600052602160045260246000fd5b141561274e576001850154604051630da0f6c760e41b81527f51cc27e85946200c558b984a0c15cad2122655d647f9c02ebe9529f2a0b25a2f600482015260248101919091526001600160a01b038a169063da0f6c7090604401600060405180830381600087803b15801561271b57600080fd5b505af115801561272f573d6000803e3d6000fd5b5050506004860180546002925060ff19166001835b02179055506127b6565b600383600581111561277057634e487b7160e01b600052602160045260246000fd5b148061279b5750600183600581111561279957634e487b7160e01b600052602160045260246000fd5b145b156108b3576004850180546003919060ff1916600183612744565b6001600160a01b03891660009081526004602052604081208190556127db8a8a612af7565b60048701549091507f9a4c9dc7fb16f7e4b4638e51757f59669af6a1ed1c31c3a44d9834d8976c05c5908b908b9060ff1687600581111561095c57634e487b7160e01b600052602160045260246000fd5b6040805160808101825260008082526020820181905291810182905260608101919091525a81600001818152505043826001600160a01b031663b21634826040518163ffffffff1660e01b815260040160206040518083038186803b15801561289457600080fd5b505afa1580156128a8573d6000803e3d6000fd5b505050506040513d601f19601f820116820180604052508101906128cc9190615107565b141561291a5760405162461bcd60e51b815260206004820152601060248201527f7265656e7472616e6379206775617264000000000000000000000000000000006044820152606401610c8e565b816001600160a01b03166310fdb0a26040518163ffffffff1660e01b8152600401600060405180830381600087803b15801561295557600080fd5b505af1158015612969573d6000803e3d6000fd5b50506040517f72c6838f0000000000000000000000000000000000000000000000000000000081527f1f2fd42ad6a6cacd573c4b212beb7a4e2499ad45d742a65337097f130e71daff6004820152600092506001600160a01b03851691506372c6838f9060240160206040518083038186803b1580156129e857600080fd5b505afa1580156129fc573d6000803e3d6000fd5b505050506040513d601f19601f82011682018060405250810190612a209190614d7f565b90506001600160a01b038116612a3c5760006020830152612af1565b6001600160a01b038181166060840181905283516040517f43a8a3f1000000000000000000000000000000000000000000000000000000008152928616600484015260248301526000918291906343a8a3f190604401604080518083038186803b158015612aa957600080fd5b505afa158015612abd573d6000803e3d6000fd5b505050506040513d601f19601f82011682018060405250810190612ae19190614e96565b9015156020860152604085015250505b50919050565b600080836001600160a01b031663a6f636416040518163ffffffff1660e01b815260040160006040518083038186803b158015612b3357600080fd5b505afa158015612b47573d6000803e3d6000fd5b505050506040513d6000823e601f3d908101601f19168201604052612b6f9190810190614dc6565b6040516317ba7d8560e01b81527f907642cbfe4e58ddd14eaa320923fbe4c29721dd0950ae4cb3b2626e292791ae600482015290915060009081906001600160a01b038716906317ba7d859060240160206040518083038186803b158015612bd657600080fd5b505afa158015612bea573d6000803e3d6000fd5b505050506040513d601f19601f82011682018060405250810190612c0e9190614d7f565b905060005b83518160ff161015612e1857816001600160a01b03166324a2cceb8888878560ff1681518110612c5357634e487b7160e01b600052603260045260246000fd5b60200260200101516040518463ffffffff1660e01b8152600401612c97939291906001600160a01b0393841681526020810192909252909116604082015260600190565b60206040518083038186803b158015612caf57600080fd5b505afa158015612cc3573d6000803e3d6000fd5b505050506040513d601f19601f82011682018060405250810190612ce79190614e7a565b15612dc557816001600160a01b03166391d2fd538888878560ff1681518110612d2057634e487b7160e01b600052603260045260246000fd5b60200260200101516040518463ffffffff1660e01b8152600401612d64939291906001600160a01b0393841681526020810192909252909116604082015260600190565b60206040518083038186803b158015612d7c57600080fd5b505afa158015612d90573d6000803e3d6000fd5b505050506040513d601f19601f82011682018060405250810190612db491906150d7565b612dbe908461560e565b9250612e06565b612df987858360ff1681518110612dec57634e487b7160e01b600052603260045260246000fd5b6020026020010151614363565b612e03908461560e565b92505b80612e108161571f565b915050612c13565b5090925050505b92915050565b612e30828233614936565b5050565b6001808201546001600160a01b0384169163da0f6c70917f69f4ffb3ebcb7809550bddd3e4d449a47e737bf6635bc7a730996643997b0e489160ff909116151514612e80576000612e83565b60015b6040517fffffffff0000000000000000000000000000000000000000000000000000000060e085901b168152600481019290925260ff166024820152604401600060405180830381600087803b158015612edc57600080fd5b505af1158015612ef0573d6000803e3d6000fd5b505050506002810154604051630da0f6c760e41b81527fecbde689cc6337d29a750b8b8a8abbfa97427b4ac800ab55be2f2c87311510f2600482015260248101919091526001600160a01b0383169063da0f6c70906044015b600060405180830381600087803b158015612f6357600080fd5b505af1158015610f62573d6000803e3d6000fd5b6040517fa230c5240000000000000000000000000000000000000000000000000000000081526001600160a01b03828116600483015283169063a230c5249060240160206040518083038186803b158015612fd157600080fd5b505afa158015612fe5573d6000803e3d6000fd5b505050506040513d601f19601f820116820180604052508101906130099190614e7a565b612e305760405162461bcd60e51b815260206004820152600c60248201527f6f6e6c79476f7665726e6f7200000000000000000000000000000000000000006044820152606401610c8e565b6040516317ba7d8560e01b81527fd0e09561b13ad01191fc8f65f6fc85651e4f495d3f9ab93d95010ea58382434b60048201526000906001600160a01b038316906317ba7d859060240160206040518083038186803b1580156130b757600080fd5b505afa1580156130cb573d6000803e3d6000fd5b505050506040513d601f19601f820116820180604052508101906130ef9190614d7f565b6040516317ba7d8560e01b81527f72894213a5c7f56b36b2947fa6ea18963d6bb1a68746b46d7f552cca76e1a7a860048201529091506000906001600160a01b038416906317ba7d859060240160206040518083038186803b15801561315457600080fd5b505afa158015613168573d6000803e3d6000fd5b505050506040513d601f19601f8201168201806040525081019061318c9190614d7f565b6040516317ba7d8560e01b81527f3a06648a49edffe95b8384794dfe9cf3ab34782fab0130b4c91bfd53f3407e6b60048201529091506000906001600160a01b038516906317ba7d859060240160206040518083038186803b1580156131f157600080fd5b505afa158015613205573d6000803e3d6000fd5b505050506040513d601f19601f820116820180604052508101906132299190614d7f565b6040516317ba7d8560e01b81527f1a4f1390baec30049008138e650571a3c4374eba88116bc89dc192f2f9295efe60048201529091506000906001600160a01b038616906317ba7d859060240160206040518083038186803b15801561328e57600080fd5b505afa1580156132a2573d6000803e3d6000fd5b505050506040513d601f19601f820116820180604052508101906132c69190614d7f565b6040516317ba7d8560e01b81527f3b4de3360220463b2e1b681516ac7919070009f0544e8465d80dc511828dae5b60048201529091506000906001600160a01b038716906317ba7d859060240160206040518083038186803b15801561332b57600080fd5b505afa15801561333f573d6000803e3d6000fd5b505050506040513d601f19601f820116820180604052508101906133639190614d7f565b604051630190bf0360e61b81526001600160a01b0388811660048301529192509086169063642fc0c09060240160206040518083038186803b1580156133a857600080fd5b505afa1580156133bc573d6000803e3d6000fd5b505050506040513d601f19601f820116820180604052508101906133e09190614e7a565b15806134625750604051630190bf0360e61b81526001600160a01b03878116600483015285169063642fc0c09060240160206040518083038186803b15801561342857600080fd5b505afa15801561343c573d6000803e3d6000fd5b505050506040513d601f19601f820116820180604052508101906134609190614e7a565b155b806134e35750604051630190bf0360e61b81526001600160a01b03878116600483015284169063642fc0c09060240160206040518083038186803b1580156134a957600080fd5b505afa1580156134bd573d6000803e3d6000fd5b505050506040513d601f19601f820116820180604052508101906134e19190614e7a565b155b806135645750604051630190bf0360e61b81526001600160a01b03878116600483015283169063642fc0c09060240160206040518083038186803b15801561352a57600080fd5b505afa15801561353e573d6000803e3d6000fd5b505050506040513d601f19601f820116820180604052508101906135629190614e7a565b155b806135e55750604051630190bf0360e61b81526001600160a01b03878116600483015282169063642fc0c09060240160206040518083038186803b1580156135ab57600080fd5b505afa1580156135bf573d6000803e3d6000fd5b505050506040513d601f19601f820116820180604052508101906135e39190614e7a565b155b15610f62576040517fabeb532d00000000000000000000000000000000000000000000000000000000815260040160405180910390fd5b60608161365c57505060408051808201909152600181527f3000000000000000000000000000000000000000000000000000000000000000602082015290565b8160005b81156136865780613670816156e6565b915061367f9050600a8361565a565b9150613660565b60008167ffffffffffffffff8111156136af57634e487b7160e01b600052604160045260246000fd5b6040519080825280601f01601f1916602001820160405280156136d9576020820181803683370190505b5090505b841561376a576136ee60018361566e565b91506136fb600a8661573f565b613706906030615642565b60f81b81838151811061372957634e487b7160e01b600052603260045260246000fd5b60200101907effffffffffffffffffffffffffffffffffffffffffffffffffffffffffffff1916908160001a905350613763600a8661565a565b94506136dd565b949350505050565b600081516000141561378657506000919050565b506020015190565b6040517fb73dc389000000000000000000000000000000000000000000000000000000008152600481018290526001600160a01b0383169063b73dc38990602401600060405180830381600087803b1580156137e957600080fd5b505af11580156137fd573d6000803e3d6000fd5b50506040516317ba7d8560e01b81527f907642cbfe4e58ddd14eaa320923fbe4c29721dd0950ae4cb3b2626e292791ae6004820152600092506001600160a01b03851691506317ba7d859060240160206040518083038186803b15801561386357600080fd5b505afa158015613877573d6000803e3d6000fd5b505050506040513d601f19601f8201168201806040525081019061389b9190614d7f565b604080516020810182526000815290517f2b0974d00000000000000000000000000000000000000000000000000000000081529192506001600160a01b03831691632b0974d0916138f291879187916004016155ac565b600060405180830381600087803b15801561390c57600080fd5b505af1158015613920573d6000803e3d6000fd5b50506040517f815a2bf4000000000000000000000000000000000000000000000000000000008152600481018590526001600160a01b0384811660248301528616925063815a2bf49150604401600060405180830381600087803b15801561398757600080fd5b505af115801561399b573d6000803e3d6000fd5b50505050505050565b6001808201546001600160a01b0384169163da0f6c70917f02049446ffbff09ad55d6fdb03c8c6027cf548332d30663e8fdf960abdab86ea9160ff9091161515146139f05760006139f3565b60015b6040517fffffffff0000000000000000000000000000000000000000000000000000000060e085901b168152600481019290925260ff166024820152604401600060405180830381600087803b158015613a4c57600080fd5b505af1158015613a60573d6000803e3d6000fd5b50505050600181015460ff1615612e30576003810154604051630da0f6c760e41b81527f09f0ac4191623c4a1e481e66bb865f218d9f5bcef4e65b597583a054b10182bc600482015260ff90911660248201526001600160a01b0383169063da0f6c7090604401600060405180830381600087803b158015613ae157600080fd5b505af1158015613af5573d6000803e3d6000fd5b50505050600481810154604051630da0f6c760e41b81527f6bdd30ca7a0b5a78cdfd780fd2f234880048cafa893e9ccbc9f82df25cdc717f9281019290925260248201526001600160a01b0383169063da0f6c7090604401600060405180830381600087803b158015613b6757600080fd5b505af1158015613b7b573d6000803e3d6000fd5b5050505060058101546040517f3b4f921a0000000000000000000000000000000000000000000000000000000081527f0567bf43e78d815625031c35adddd5d701cb6b913fbad3b625b4f8c00fdc42aa60048201526001600160a01b03918216602482015290831690633b4f921a90604401600060405180830381600087803b158015613c0757600080fd5b505af1158015613c1b573d6000803e3d6000fd5b505050506006810154604051630da0f6c760e41b81527f032de4639c5a8edd1ea478b1345b2d031f42ecd2b29442d3080c9ac0545b5f8e600482015260248101919091526001600160a01b0383169063da0f6c7090604401600060405180830381600087803b158015613c8d57600080fd5b505af1158015613ca1573d6000803e3d6000fd5b505082546000908152600a60205260408120909250613cc09150614a27565b519050600081118015613cd9575060038083015460ff16145b15613eb9576040516317ba7d8560e01b81527f1a4f1390baec30049008138e650571a3c4374eba88116bc89dc192f2f9295efe60048201526000906001600160a01b038516906317ba7d859060240160206040518083038186803b158015613d4057600080fd5b505afa158015613d54573d6000803e3d6000fd5b505050506040513d601f19601f82011682018060405250810190613d789190614d7f565b6040517f22c5c2cc0000000000000000000000000000000000000000000000000000000081526001600160a01b038681166004830152919250908216906322c5c2cc90602401600060405180830381600087803b158015613dd857600080fd5b505af1158015613dec573d6000803e3d6000fd5b5050505060005b828160ff1610156113425783546000908152600a602052604090206001600160a01b038316906333f7bc0c908790613e2e9060ff8616614a34565b6040517fffffffff0000000000000000000000000000000000000000000000000000000060e085901b1681526001600160a01b03928316600482015291166024820152604401600060405180830381600087803b158015613e8e57600080fd5b505af1158015613ea2573d6000803e3d6000fd5b505050508080613eb19061571f565b915050613df3565b505050565b6005810154604051630da0f6c760e41b81527feee23dc9ab95b6666db01c2b6cae6a5ef706099a25926e21e0a2e043fe885604600482015260248101919091526001600160a01b0383169063da0f6c7090604401600060405180830381600087803b158015613f2c57600080fd5b505af1158015613f40573d6000803e3d6000fd5b505050506008810154604051630da0f6c760e41b81527fd093d4a34a12a221b19c0a6689d5449f1346aa769d15cca4e9782c36fda9339a600482015260248101919091526001600160a01b0383169063da0f6c7090604401600060405180830381600087803b158015613fb257600080fd5b505af1158015613fc6573d6000803e3d6000fd5b505050506001810154604051630da0f6c760e41b81527f1aeed2c0ea31fb81f41489b79a1d09374a270e0f9340ace7354cce77586a7d16600482015260248101919091526001600160a01b0383169063da0f6c7090604401600060405180830381600087803b15801561403857600080fd5b505af115801561404c573d6000803e3d6000fd5b505050506002810154604051630da0f6c760e41b81527f0e0434138ea29dceb1f2c0ca9b9f923f9d1c32d3d96bab2de9991f140daca712600482015260248101919091526001600160a01b0383169063da0f6c7090604401600060405180830381600087803b1580156140be57600080fd5b505af11580156140d2573d6000803e3d6000fd5b50505050600481810154604051630da0f6c760e41b81527f0324de13a5a6e302ddb95a9fdf81cc736fc8acee2abe558970daac27395904e79281019290925260248201526001600160a01b0383169063da0f6c7090604401600060405180830381600087803b15801561414457600080fd5b505af1158015614158573d6000803e3d6000fd5b505050506003810154604051630da0f6c760e41b81527fb4c601c38beae7eebb719eda3438f59fcbfd4c6dd7d38c00665b6fd5b432df32600482015260248101919091526001600160a01b0383169063da0f6c7090604401600060405180830381600087803b1580156141ca57600080fd5b505af11580156141de573d6000803e3d6000fd5b50505050600b810154604051630da0f6c760e41b81527fb646599143db51c9136a4861a55f7140eab851836e3e1a42ba7804f5356a3655600482015260248101919091526001600160a01b0383169063da0f6c7090604401600060405180830381600087803b15801561425057600080fd5b505af1158015614264573d6000803e3d6000fd5b505050506009810154604051630da0f6c760e41b81527f9876c0f0505bfb2b1c38d3bbd25ba13159172cd0868972d76927723f5a9480fc600482015260248101919091526001600160a01b0383169063da0f6c7090604401600060405180830381600087803b1580156142d657600080fd5b505af11580156142ea573d6000803e3d6000fd5b50505050600a810154604051630da0f6c760e41b81527f02a3530cbb6e7c084516c86f68bd62c3e3fcd783c6c5d7e138616207f7a32250600482015260248101919091526001600160a01b0383169063da0f6c7090604401612f49565b600061435c836001600160a01b038416614a40565b9392505050565b6040517f9283ae3a0000000000000000000000000000000000000000000000000000000081527feee23dc9ab95b6666db01c2b6cae6a5ef706099a25926e21e0a2e043fe885604600482015260009081906001600160a01b03851690639283ae3a9060240160206040518083038186803b1580156143e057600080fd5b505afa1580156143f4573d6000803e3d6000fd5b505050506040513d601f19601f820116820180604052508101906144189190615107565b6040517f9283ae3a0000000000000000000000000000000000000000000000000000000081527fd093d4a34a12a221b19c0a6689d5449f1346aa769d15cca4e9782c36fda9339a60048201529091506000906001600160a01b03861690639283ae3a9060240160206040518083038186803b15801561449657600080fd5b505afa1580156144aa573d6000803e3d6000fd5b505050506040513d601f19601f820116820180604052508101906144ce9190615107565b6040516317ba7d8560e01b81527f8f5b4aabbdb8527d420a29cc90ae207773ad49b73c632c3cfd2f29eb8776f2ea60048201529091506000906001600160a01b038716906317ba7d859060240160206040518083038186803b15801561453357600080fd5b505afa158015614547573d6000803e3d6000fd5b505050506040513d601f19601f8201168201806040525081019061456b9190614d7f565b6040517f68abb5e00000000000000000000000000000000000000000000000000000000081526001600160a01b0388811660048301529192506000918316906368abb5e09060240160206040518083038186803b1580156145cb57600080fd5b505afa1580156145df573d6000803e3d6000fd5b505050506040513d601f19601f820116820180604052508101906146039190615107565b1115801561469e57506040517fa230c5240000000000000000000000000000000000000000000000000000000081526001600160a01b03868116600483015287169063a230c5249060240160206040518083038186803b15801561466657600080fd5b505afa15801561467a573d6000803e3d6000fd5b505050506040513d601f19601f8201168201806040525081019061469e9190614e7a565b156146af5760019350505050612e1f565b81600114156147cc5760008361475c57604051633de222bb60e21b81526001600160a01b0388811660048301528781166024830152670de0b6b3a7640000919084169063f7888aec9060440160206040518083038186803b15801561471357600080fd5b505afa158015614727573d6000803e3d6000fd5b505050506040513d601f19601f8201168201806040525081019061474b9190615107565b614755919061565a565b9050614769565b6000945050505050612e1f565b6000811161477e576000945050505050612e1f565b677fffffffffffffff811061479a576032945050505050612e1f565b60006147b56147b06147ab84614a8f565b614aad565b614baf565b67ffffffffffffffff169550612e1f945050505050565b81600214156148815760008361475c57604051633de222bb60e21b81526001600160a01b03888116600483015287811660248301526000919084169063f7888aec9060440160206040518083038186803b15801561482957600080fd5b505afa15801561483d573d6000803e3d6000fd5b505050506040513d601f19601f820116820180604052508101906148619190615107565b1161486d576000614870565b60015b60ff1690505b9350612e1f92505050565b8161492a5760008361475c57604051633de222bb60e21b81526001600160a01b0388811660048301528781166024830152670de0b6b3a7640000919084169063f7888aec9060440160206040518083038186803b1580156148e157600080fd5b505afa1580156148f5573d6000803e3d6000fd5b505050506040513d601f19601f820116820180604052508101906149199190615107565b614923919061565a565b9050614876565b60009350505050612e1f565b8160200151156149ec5781606001516001600160a01b0316635e5eb01384835a8651614962919061566e565b60408088015190517fffffffff0000000000000000000000000000000000000000000000000000000060e087901b1681526001600160a01b03948516600482015293909216602484015260448301526064820152608401600060405180830381600087803b1580156149d357600080fd5b505af11580156149e7573d6000803e3d6000fd5b505050505b826001600160a01b031663d4f7af436040518163ffffffff1660e01b8152600401600060405180830381600087803b15801561398757600080fd5b6060600061435c83614bcb565b600061435c8383614c27565b6000818152600183016020526040812054614a8757508154600181810184556000848152602080822090930184905584548482528286019093526040902091909155612e1f565b506000612e1f565b6000677fffffffffffffff821115614aa657600080fd5b5060401b90565b60008082600f0b13614abe57600080fd5b6000600f83900b680100000000000000008112614add576040918201911d5b6401000000008112614af1576020918201911d5b620100008112614b03576010918201911d5b6101008112614b14576008918201911d5b60108112614b24576004918201911d5b60048112614b34576002918201911d5b60028112614b43576001820191505b7fffffffffffffffffffffffffffffffffffffffffffffffffffffffffffffffc0820160401b600f85900b607f8490031b6780000000000000005b6000811315614ba45790800260ff81901c8281029390930192607f011c9060011d614b7e565b509095945050505050565b60008082600f0b1215614bc157600080fd5b50600f0b60401d90565b606081600001805480602002602001604051908101604052809291908181526020018280548015614c1b57602002820191906000526020600020905b815481526020019060010190808311614c07575b50505050509050919050565b6000826000018281548110614c4c57634e487b7160e01b600052603260045260246000fd5b9060005260206000200154905092915050565b828054614c6b906156b1565b90600052602060002090601f016020900481019282614c8d5760008555614cd3565b82601f10614ca657805160ff1916838001178555614cd3565b82800160010185558215614cd3579182015b82811115614cd3578251825591602001919060010190614cb8565b50614cdf929150614ce3565b5090565b5b80821115614cdf5760008155600101614ce4565b8035614d03816157ab565b919050565b60008083601f840112614d19578182fd5b50813567ffffffffffffffff811115614d30578182fd5b6020830191508360208260051b8501011115614d4b57600080fd5b9250929050565b803560ff81168114614d0357600080fd5b600060208284031215614d74578081fd5b813561435c816157ab565b600060208284031215614d90578081fd5b815161435c816157ab565b60008060408385031215614dad578081fd5b8235614db8816157ab565b946020939093013593505050565b60006020808385031215614dd8578182fd5b825167ffffffffffffffff80821115614def578384fd5b818501915085601f830112614e02578384fd5b815181811115614e1457614e14615795565b8060051b9150614e258483016155dd565b8181528481019084860184860187018a1015614e3f578788fd5b8795505b83861015614e6d5780519450614e58856157ab565b84835260019590950194918601918601614e43565b5098975050505050505050565b600060208284031215614e8b578081fd5b815161435c816157c3565b60008060408385031215614ea8578182fd5b8251614eb3816157c3565b6020939093015192949293505050565b60008060008060008060008060006101008a8c031215614ee1578485fd5b8935614eec816157ab565b985060208a810135614efd816157c3565b985060408b013567ffffffffffffffff80821115614f19578788fd5b818d0191508d601f830112614f2c578788fd5b813581811115614f3e57614f3e615795565b614f5084601f19601f840116016155dd565b8181528f85838601011115614f6357898afd5b818585018683013790810184018990529950614f8160608e01614d52565b985060808d01359750614f9660a08e01614cf8565b965060c08d0135955060e08d0135925080831115614fb2578485fd5b5050614fc08c828d01614d08565b915080935050809150509295985092959850929598565b600080600060608486031215614feb578283fd5b8335614ff6816157ab565b92506020840135615006816157c3565b929592945050506040919091013590565b60008060408385031215614dad578182fd5b60008082840361018081121561503d578283fd5b8335615048816157ab565b9250610160601f198201121561505c578182fd5b506020830190509250929050565b60008060006060848603121561507e578081fd5b8335615089816157ab565b95602085013595506040909401359392505050565b6000806000606084860312156150b2578081fd5b8351600681106150c0578182fd5b602085015160409095015190969495509392505050565b6000602082840312156150e8578081fd5b81516fffffffffffffffffffffffffffffffff8116811461435c578182fd5b600060208284031215615118578081fd5b5051919050565b60008151808452615137816020860160208601615685565b601f01601f19169290920160200192915050565b6004811061515b5761515b61577f565b9052565b77ffffffffffffffffffffffffffffffffffffffffffffffff19831681527f50726f706f7365722d52657761726423000000000000000000000000000000006008820152600082516151b8816018850160208701615685565b919091016018019392505050565b77ffffffffffffffffffffffffffffffffffffffffffffffff19831681527f466565732300000000000000000000000000000000000000000000000000000060088201526000825161521f81600d850160208701615685565b91909101600d019392505050565b77ffffffffffffffffffffffffffffffffffffffffffffffff19831681527f496e766573746f722d4361702300000000000000000000000000000000000000600882015260008251615286816015850160208701615685565b919091016015019392505050565b77ffffffffffffffffffffffffffffffffffffffffffffffff19831681527f766f74696e6723000000000000000000000000000000000000000000000000006008820152600082516152ed81600f850160208701615685565b91909101600f019392505050565b77ffffffffffffffffffffffffffffffffffffffffffffffff19831681527f476f7665726e6f722d4d656d626572736869702300000000000000000000000060088201526000825161535481601c850160208701615685565b91909101601c019392505050565b6001600160a01b03881681526020810187905260e08101615386604083018861514b565b8560608301526fffffffffffffffffffffffffffffffff851660808301528360a08301528260c083015298975050505050505050565b6001600160a01b03841681526020810183905260608101600583106153e3576153e361577f565b826040830152949350505050565b60006101408c83528b151560208401528060408401526154138184018c61511f565b91505060ff891660608301528760808301526001600160a01b03871660a08301528560c08301528460e08301528361010083015261545561012083018461514b565b9b9a5050505050505050505050565b600060c082019050878252861515602083015285604083015284606083015283608083015261549660a083018461514b565b979650505050505050565b60006101e08201905086825285516020830152602086015160408301526040860151606083015260608601516080830152845160a08301526001600160a01b0360208601511660c0830152604085015160e0830152606085015161010083015261553a61012083018580518252602081015160208301526040810151604083015260608101516060830152608081015160808301525050565b6155486101c083018461514b565b9695505050505050565b600060a082019050868252856020830152846040830152836060830152615548608083018461514b565b600060c08201905087825286602083015285604083015284606083015283608083015261549660a083018461514b565b6001600160a01b03841681528260208201526060604082015260006155d4606083018461511f565b95945050505050565b604051601f8201601f1916810167ffffffffffffffff8111828210171561560657615606615795565b604052919050565b60006fffffffffffffffffffffffffffffffff80831681851680830382111561563957615639615753565b01949350505050565b6000821982111561565557615655615753565b500190565b60008261566957615669615769565b500490565b60008282101561568057615680615753565b500390565b60005b838110156156a0578181015183820152602001615688565b8381111561098a5750506000910152565b600181811c908216806156c557607f821691505b60208210811415612af157634e487b7160e01b600052602260045260246000fd5b60007fffffffffffffffffffffffffffffffffffffffffffffffffffffffffffffffff82141561571857615718615753565b5060010190565b600060ff821660ff81141561573657615736615753565b60010192915050565b60008261574e5761574e615769565b500690565b634e487b7160e01b600052601160045260246000fd5b634e487b7160e01b600052601260045260246000fd5b634e487b7160e01b600052602160045260246000fd5b634e487b7160e01b600052604160045260246000fd5b6001600160a01b03811681146157c057600080fd5b50565b80151581146157c057600080fdfea2646970667358221220ccd141a3ac82fde4d88c013cfa850ece85c10de70a367a64fa22462809645ee164736f6c63430008040033",
  "linkReferences": {},
  "deployedLinkReferences": {}
}