{
  "_format": "hh-sol-artifact-1",
  "contractName": "CollectiveVotingAdapterContract",
  "sourceName": "contracts/collective/adapters/CollectiveVotingAdapter.sol",
  "abi": [
    {
      "anonymous": false,
      "inputs": [
        {
          "indexed": false,
          "internalType": "address",
          "name": "daoAddr",
          "type": "address"
        },
        {
          "indexed": false,
          "internalType": "bytes32",
          "name": "proposalId",
          "type": "bytes32"
        },
        {
          "indexed": false,
          "internalType": "uint256",
          "name": "votingTime",
          "type": "uint256"
        },
        {
          "indexed": false,
          "internalType": "uint256",
          "name": "voteStartTime",
          "type": "uint256"
        },
        {
          "indexed": false,
          "internalType": "uint256",
          "name": "voteStopTime",
          "type": "uint256"
        },
        {
          "indexed": false,
          "internalType": "address",
          "name": "voter",
          "type": "address"
        },
        {
          "indexed": false,
          "internalType": "uint256",
          "name": "voteValue",
          "type": "uint256"
        },
        {
          "indexed": false,
          "internalType": "uint256",
          "name": "nbYes",
          "type": "uint256"
        },
        {
          "indexed": false,
          "internalType": "uint256",
          "name": "nbNo",
          "type": "uint256"
        },
        {
          "indexed": false,
          "internalType": "uint256",
          "name": "currentQuorum",
          "type": "uint256"
        },
        {
          "indexed": false,
          "internalType": "uint256",
          "name": "currentSupport",
          "type": "uint256"
        }
      ],
      "name": "SubmitVote",
      "type": "event"
    },
    {
      "inputs": [],
      "name": "ADAPTER_NAME",
      "outputs": [
        {
          "internalType": "string",
          "name": "",
          "type": "string"
        }
      ],
      "stateMutability": "view",
      "type": "function"
    },
    {
      "inputs": [
        {
          "internalType": "contract DaoRegistry",
          "name": "dao",
          "type": "address"
        },
        {
          "internalType": "bytes32",
          "name": "proposalId",
          "type": "bytes32"
        },
        {
          "internalType": "address",
          "name": "voterAddr",
          "type": "address"
        }
      ],
      "name": "checkIfVoted",
      "outputs": [
        {
          "internalType": "bool",
          "name": "",
          "type": "bool"
        }
      ],
      "stateMutability": "view",
      "type": "function"
    },
    {
      "inputs": [],
      "name": "getAdapterName",
      "outputs": [
        {
          "internalType": "string",
          "name": "",
          "type": "string"
        }
      ],
      "stateMutability": "pure",
      "type": "function"
    },
    {
      "inputs": [
        {
          "internalType": "contract DaoRegistry",
          "name": "dao",
          "type": "address"
        }
      ],
      "name": "getAllCollectiveGovernorVotingWeightByConfirmedDeposit",
      "outputs": [
        {
          "internalType": "uint128",
          "name": "",
          "type": "uint128"
        }
      ],
      "stateMutability": "view",
      "type": "function"
    },
    {
      "inputs": [
        {
          "internalType": "contract DaoRegistry",
          "name": "dao",
          "type": "address"
        }
      ],
      "name": "getAllGovernorWeight",
      "outputs": [
        {
          "internalType": "uint128",
          "name": "",
          "type": "uint128"
        }
      ],
      "stateMutability": "view",
      "type": "function"
    },
    {
      "inputs": [
        {
          "internalType": "contract DaoRegistry",
          "name": "dao",
          "type": "address"
        },
        {
          "internalType": "bytes32",
          "name": "proposalId",
          "type": "bytes32"
        }
      ],
      "name": "getAllGovernorWeightByProposalId",
      "outputs": [
        {
          "internalType": "uint128",
          "name": "",
          "type": "uint128"
        }
      ],
      "stateMutability": "view",
      "type": "function"
    },
    {
      "inputs": [
        {
          "internalType": "contract DaoRegistry",
          "name": "dao",
          "type": "address"
        },
        {
          "internalType": "address",
          "name": "account",
          "type": "address"
        }
      ],
      "name": "getCollectiveVotingWeightByConfirmedDeposit",
      "outputs": [
        {
          "internalType": "uint128",
          "name": "",
          "type": "uint128"
        }
      ],
      "stateMutability": "view",
      "type": "function"
    },
    {
      "inputs": [
        {
          "internalType": "contract DaoRegistry",
          "name": "",
          "type": "address"
        },
        {
          "internalType": "address",
          "name": "",
          "type": "address"
        },
        {
          "internalType": "bytes",
          "name": "",
          "type": "bytes"
        },
        {
          "internalType": "address",
          "name": "sender",
          "type": "address"
        }
      ],
      "name": "getSenderAddress",
      "outputs": [
        {
          "internalType": "address",
          "name": "",
          "type": "address"
        }
      ],
      "stateMutability": "pure",
      "type": "function"
    },
    {
      "inputs": [
        {
          "internalType": "contract DaoRegistry",
          "name": "dao",
          "type": "address"
        },
        {
          "internalType": "address",
          "name": "account",
          "type": "address"
        }
      ],
      "name": "getVotingWeight",
      "outputs": [
        {
          "internalType": "uint128",
          "name": "",
          "type": "uint128"
        }
      ],
      "stateMutability": "view",
      "type": "function"
    },
    {
      "inputs": [
        {
          "internalType": "contract DaoRegistry",
          "name": "dao",
          "type": "address"
        },
        {
          "internalType": "uint256",
          "name": "amount",
          "type": "uint256"
        }
      ],
      "name": "getVotingWeightByDepositAmount",
      "outputs": [
        {
          "internalType": "uint128",
          "name": "",
          "type": "uint128"
        }
      ],
      "stateMutability": "view",
      "type": "function"
    },
    {
      "inputs": [
        {
          "internalType": "contract DaoRegistry",
          "name": "dao",
          "type": "address"
        },
        {
          "internalType": "address",
          "name": "_addr",
          "type": "address"
        }
      ],
      "name": "isActiveMember",
      "outputs": [
        {
          "internalType": "bool",
          "name": "",
          "type": "bool"
        }
      ],
      "stateMutability": "view",
      "type": "function"
    },
    {
      "inputs": [
        {
          "internalType": "contract DaoRegistry",
          "name": "dao",
          "type": "address"
        },
        {
          "internalType": "bytes32",
          "name": "proposalId",
          "type": "bytes32"
        },
        {
          "internalType": "bytes",
          "name": "",
          "type": "bytes"
        }
      ],
      "name": "startNewVotingForProposal",
      "outputs": [],
      "stateMutability": "nonpayable",
      "type": "function"
    },
    {
      "inputs": [
        {
          "internalType": "contract DaoRegistry",
          "name": "dao",
          "type": "address"
        },
        {
          "internalType": "bytes32",
          "name": "proposalId",
          "type": "bytes32"
        },
        {
          "internalType": "uint256",
          "name": "voteValue",
          "type": "uint256"
        }
      ],
      "name": "submitVote",
      "outputs": [],
      "stateMutability": "nonpayable",
      "type": "function"
    },
    {
      "inputs": [
        {
          "internalType": "contract DaoRegistry",
          "name": "dao",
          "type": "address"
        },
        {
          "internalType": "bytes32",
          "name": "proposalId",
          "type": "bytes32"
        }
      ],
      "name": "voteResult",
      "outputs": [
        {
          "internalType": "enum ICollectiveVoting.VotingState",
          "name": "state",
          "type": "uint8"
        },
        {
          "internalType": "uint256",
          "name": "nbYes",
          "type": "uint256"
        },
        {
          "internalType": "uint256",
          "name": "nbNo",
          "type": "uint256"
        }
      ],
      "stateMutability": "view",
      "type": "function"
    },
    {
      "inputs": [
        {
          "internalType": "address",
          "name": "",
          "type": "address"
        },
        {
          "internalType": "bytes32",
          "name": "",
          "type": "bytes32"
        },
        {
          "internalType": "address",
          "name": "",
          "type": "address"
        }
      ],
      "name": "voteWeights",
      "outputs": [
        {
          "internalType": "uint128",
          "name": "",
          "type": "uint128"
        }
      ],
      "stateMutability": "view",
      "type": "function"
    },
    {
      "inputs": [
        {
          "internalType": "address",
          "name": "",
          "type": "address"
        },
        {
          "internalType": "bytes32",
          "name": "",
          "type": "bytes32"
        }
      ],
      "name": "votes",
      "outputs": [
        {
          "internalType": "uint256",
          "name": "nbYes",
          "type": "uint256"
        },
        {
          "internalType": "uint256",
          "name": "nbNo",
          "type": "uint256"
        },
        {
          "internalType": "uint256",
          "name": "startingTime",
          "type": "uint256"
        },
        {
          "internalType": "uint256",
          "name": "stopTime",
          "type": "uint256"
        }
      ],
      "stateMutability": "view",
      "type": "function"
    }
  ],
  "bytecode": "0x608060405234801561001057600080fd5b506136a8806100206000396000f3fe608060405234801561001057600080fd5b50600436106101005760003560e01c806376225e731161009757806391d2fd531161006657806391d2fd53146102d3578063966917d014610315578063ef0a996414610342578063f2b95da01461035557600080fd5b806376225e731461024f5780637fd3cd8b1461027157806387b9e959146102ad5780638ecf7720146102c057600080fd5b8063325b72f2116100d3578063325b72f2146101e257806344731226146101f557806362c088e714610229578063669fd0ca1461023c57600080fd5b80631db5ade8146101055780631f86f5b31461016857806324a2cceb146101aa5780632b0974d0146101cd575b600080fd5b61014361011336600461309c565b60016020818152600093845260408085209091529183529120805491810154600282015460039092015490919084565b6040805194855260208501939093529183015260608201526080015b60405180910390f35b60408051808201909152601881527f436f6c6c656374697665566f74696e67436f6e7472616374000000000000000060208201525b60405161015f91906134b4565b6101bd6101b83660046130c7565b610368565b604051901515815260200161015f565b6101e06101db366004613342565b6103b7565b005b6101e06101f03660046133c6565b610579565b610208610203366004613235565b610e0e565b6040516fffffffffffffffffffffffffffffffff909116815260200161015f565b610208610237366004613330565b610e23565b61020861024a366004613330565b610e2f565b61026261025d366004613330565b610e44565b60405161015f9392919061348c565b61019d6040518060400160405280601881526020017f436f6c6c656374697665566f74696e67436f6e7472616374000000000000000081525081565b6102086102bb366004613235565b6113f0565b6101bd6102ce366004613235565b6113fc565b6102086102e13660046130c7565b600060208181529381526040808220855292815282812090935282529020546fffffffffffffffffffffffffffffffff1681565b61032a61032336600461326d565b9392505050565b6040516001600160a01b03909116815260200161015f565b610208610350366004613219565b611479565b610208610363366004613219565b611484565b6001600160a01b03808416600090815260016020908152604080832086845282528083209385168352600484019091528120549091906103ac576000915050610323565b506001949350505050565b6040517f68c18beb00000000000000000000000000000000000000000000000000000000815233600482015284906001600160a01b038216906368c18beb9060240160206040518083038186803b15801561041157600080fd5b505afa158015610425573d6000803e3d6000fd5b505050506040513d601f19601f8201168201806040525081019061044991906131bc565b80610458575061045881611490565b6104a95760405162461bcd60e51b815260206004820152600b60248201527f6f6e6c794164617074657200000000000000000000000000000000000000000060448201526064015b60405180910390fd5b6001600160a01b0385166000818152600160209081526040808320888452909152908190204260028201559051634941d71d60e11b81527f9876c0f0505bfb2b1c38d3bbd25ba13159172cd0868972d76927723f5a9480fc6004820152909190639283ae3a9060240160206040518083038186803b15801561052a57600080fd5b505afa15801561053e573d6000803e3d6000fd5b505050506040513d601f19601f820116820180604052508101906105629190613201565b61056c904261356c565b6003909101555050505050565b8261058481336116b0565b8360006105908261170a565b6040517ff941f6910000000000000000000000000000000000000000000000000000000081529091506001600160a01b0387169063f941f691906105db908890600190600401613468565b60206040518083038186803b1580156105f357600080fd5b505afa158015610607573d6000803e3d6000fd5b505050506040513d601f19601f8201168201806040525081019061062b91906131bc565b61069d5760405162461bcd60e51b815260206004820152602760248201527f7468652070726f706f73616c20686173206e6f74206265656e2073706f6e736f60448201527f726564207965740000000000000000000000000000000000000000000000000060648201526084016104a0565b6040517ff941f6910000000000000000000000000000000000000000000000000000000081526001600160a01b0387169063f941f691906106e5908890600290600401613468565b60206040518083038186803b1580156106fd57600080fd5b505afa158015610711573d6000803e3d6000fd5b505050506040513d601f19601f8201168201806040525081019061073591906131bc565b156107a85760405162461bcd60e51b815260206004820152602760248201527f7468652070726f706f73616c2068617320616c7265616479206265656e20707260448201527f6f6365737365640000000000000000000000000000000000000000000000000060648201526084016104a0565b6003841080156107b85750600084115b61082a5760405162461bcd60e51b815260206004820152602b60248201527f6f6e6c79207965732028312920616e64206e6f202832292061726520706f737360448201527f69626c652076616c75657300000000000000000000000000000000000000000060648201526084016104a0565b6001600160a01b0386166000908152600160209081526040808320888452909152902060028101546108c45760405162461bcd60e51b815260206004820152603260248201527f746869732070726f706f73616c496420686173206e6f20766f746520676f696e60448201527f67206f6e20617420746865206d6f6d656e74000000000000000000000000000060648201526084016104a0565b806003015442106109175760405162461bcd60e51b815260206004820152601660248201527f766f74652068617320616c726561647920656e6465640000000000000000000060448201526064016104a0565b6040517fc89bb8ba0000000000000000000000000000000000000000000000000000000081523360048201526000906001600160a01b0389169063c89bb8ba9060240160206040518083038186803b15801561097257600080fd5b505afa158015610986573d6000803e3d6000fd5b505050506040513d601f19601f820116820180604052508101906109aa9190613080565b6001600160a01b038116600090815260048401602052604090205490915015610a155760405162461bcd60e51b815260206004820152601860248201527f6d656d6265722068617320616c726561647920766f746564000000000000000060448201526064016104a0565b6000610a2189336119d5565b6001600160a01b038a81166000908152602081815260408083208d84528252808320338452825280832080547fffffffffffffffffffffffffffffffff00000000000000000000000000000000166fffffffffffffffffffffffffffffffff871617905592861682526004870190522088905590506001871415610ad057806fffffffffffffffffffffffffffffffff16836000016000828254610ac5919061356c565b90915550610b059050565b8660021415610b0557806fffffffffffffffffffffffffffffffff16836001016000828254610aff919061356c565b90915550505b604051634941d71d60e11b81527f730faccfe82f70711a34ce5202c6e1b1f79f421c16fcef745a9d92d06a7c0d4c60048201526000906001600160a01b038b1690639283ae3a9060240160206040518083038186803b158015610b6757600080fd5b505afa158015610b7b573d6000803e3d6000fd5b505050506040513d601f19601f82011682018060405250810190610b9f9190613201565b600114610c1757610baf8a611484565b6fffffffffffffffffffffffffffffffff1615610bd457610bcf8a611484565b610bd7565b60015b6fffffffffffffffffffffffffffffffff1684600101548560000154610bfd919061356c565b610c089060646135a4565b610c129190613584565b610c28565b60018401548454610c28919061356c565b604051634941d71d60e11b81527fe815a3c082eed7f7f7baab546f11a8718682c0eb3017b099ddc301a92f6673e360048201529091506000906001600160a01b038c1690639283ae3a9060240160206040518083038186803b158015610c8d57600080fd5b505afa158015610ca1573d6000803e3d6000fd5b505050506040513d601f19601f82011682018060405250810190610cc59190613201565b600114610d175760018501548554610cdd919061356c565b15610cf85760018501548554610cf3919061356c565b610cfb565b60015b8554610d089060646135a4565b610d129190613584565b610d37565b6001850154855410610d345760018501548554610d1291906135e1565b60005b90507f702c2a29993fe1e5ce4c366928ffc1d53e245b20536bf8192399abb82b66c7108b8b4288600201548960030154338f8c600001548d600101548b8b604051610def9b9a999897969594939291906000610160820190506001600160a01b03808e1683528c60208401528b60408401528a606084015289608084015280891660a0840152508660c08301528560e08301528461010083015283610120830152826101408301529c9b505050505050505050505050565b60405180910390a15050505050610e068282611f5b565b505050505050565b6000610e1a8383611f66565b90505b92915050565b6000610e1a838361272b565b600080610e3c8484612942565b949350505050565b6001600160a01b03821660009081526001602090815260408083208484529091528120600281015482918291610e85576000806000935093509350506113e9565b8060030154421015610ea2576004600080935093509350506113e9565b604051634941d71d60e11b81527fe815a3c082eed7f7f7baab546f11a8718682c0eb3017b099ddc301a92f6673e360048201526000906001600160a01b03881690639283ae3a9060240160206040518083038186803b158015610f0457600080fd5b505afa158015610f18573d6000803e3d6000fd5b505050506040513d601f19601f82011682018060405250810190610f3c9190613201565b604051634941d71d60e11b81527f730faccfe82f70711a34ce5202c6e1b1f79f421c16fcef745a9d92d06a7c0d4c60048201529091506000906001600160a01b03891690639283ae3a9060240160206040518083038186803b158015610fa157600080fd5b505afa158015610fb5573d6000803e3d6000fd5b505050506040513d601f19601f82011682018060405250810190610fd99190613201565b90506000610fe689611484565b9050816110e257604051634941d71d60e11b81527f0324de13a5a6e302ddb95a9fdf81cc736fc8acee2abe558970daac27395904e760048201526000906064906001600160a01b038c1690639283ae3a9060240160206040518083038186803b15801561105257600080fd5b505afa158015611066573d6000803e3d6000fd5b505050506040513d601f19601f8201168201806040525081019061108a9190613201565b6110a6906fffffffffffffffffffffffffffffffff85166135a4565b6110b09190613584565b60018601548654919250018181116110df576003866000015487600101549850985098505050505050506113e9565b50505b81600114156111bc57600184015484546000916110fe9161356c565b604051634941d71d60e11b81527f0324de13a5a6e302ddb95a9fdf81cc736fc8acee2abe558970daac27395904e760048201529091506001600160a01b038b1690639283ae3a9060240160206040518083038186803b15801561116057600080fd5b505afa158015611174573d6000803e3d6000fd5b505050506040513d601f19601f820116820180604052508101906111989190613201565b81116111ba5760038560000154866001015497509750975050505050506113e9565b505b826112e157600184015484546000916111d49161356c565b604051634941d71d60e11b81527fb4c601c38beae7eebb719eda3438f59fcbfd4c6dd7d38c00665b6fd5b432df3260048201529091506000906064906001600160a01b038d1690639283ae3a9060240160206040518083038186803b15801561123c57600080fd5b505afa158015611250573d6000803e3d6000fd5b505050506040513d601f19601f820116820180604052508101906112749190613201565b61127e90846135a4565b6112889190613584565b90508015801561129757508554155b156112b9576001866000015487600101549850985098505050505050506113e9565b855481106112de576003866000015487600101549850985098505050505050506113e9565b50505b82600114156113d2576000846001015485600001541015611303576000611314565b6001850154855461131491906135e1565b604051634941d71d60e11b81527fb4c601c38beae7eebb719eda3438f59fcbfd4c6dd7d38c00665b6fd5b432df3260048201529091506001600160a01b038b1690639283ae3a9060240160206040518083038186803b15801561137657600080fd5b505afa15801561138a573d6000803e3d6000fd5b505050506040513d601f19601f820116820180604052508101906113ae9190613201565b81116113d05760038560000154866001015497509750975050505050506113e9565b505b600284600001548560010154965096509650505050505b9250925092565b6000610e1a83836119d5565b60405163288c314960e21b81526001600160a01b0382811660048301526000919084169063a230c5249060240160206040518083038186803b15801561144157600080fd5b505afa158015611455573d6000803e3d6000fd5b505050506040513d601f19601f82011682018060405250810190610e1a91906131bc565b6000610e1d82612c6e565b60008061032383612d52565b600080826001600160a01b031663c19d93fb6040518163ffffffff1660e01b815260040160206040518083038186803b1580156114cc57600080fd5b505afa1580156114e0573d6000803e3d6000fd5b505050506040513d601f19601f8201168201806040525081019061150491906133fa565b600181111561152357634e487b7160e01b600052602160045260246000fd5b148015610e1d5750816001600160a01b031663c67143666040518163ffffffff1660e01b815260040160206040518083038186803b15801561156457600080fd5b505afa158015611578573d6000803e3d6000fd5b505050506040513d601f19601f8201168201806040525081019061159c9190613201565b158061161a575060405163288c314960e21b81523360048201526001600160a01b0383169063a230c5249060240160206040518083038186803b1580156115e257600080fd5b505afa1580156115f6573d6000803e3d6000fd5b505050506040513d601f19601f8201168201806040525081019061161a91906131bc565b80610e1d57506040517f68c18beb0000000000000000000000000000000000000000000000000000000081523360048201526001600160a01b038316906368c18beb9060240160206040518083038186803b15801561167857600080fd5b505afa15801561168c573d6000803e3d6000fd5b505050506040513d601f19601f82011682018060405250810190610e1d91906131bc565b6116ba82826113fc565b6117065760405162461bcd60e51b815260206004820152600c60248201527f6f6e6c79476f7665726e6f72000000000000000000000000000000000000000060448201526064016104a0565b5050565b6040805160808101825260008082526020820181905291810182905260608101919091525a81600001818152505043826001600160a01b031663b21634826040518163ffffffff1660e01b815260040160206040518083038186803b15801561177257600080fd5b505afa158015611786573d6000803e3d6000fd5b505050506040513d601f19601f820116820180604052508101906117aa9190613201565b14156117f85760405162461bcd60e51b815260206004820152601060248201527f7265656e7472616e63792067756172640000000000000000000000000000000060448201526064016104a0565b816001600160a01b03166310fdb0a26040518163ffffffff1660e01b8152600401600060405180830381600087803b15801561183357600080fd5b505af1158015611847573d6000803e3d6000fd5b50506040517f72c6838f0000000000000000000000000000000000000000000000000000000081527f1f2fd42ad6a6cacd573c4b212beb7a4e2499ad45d742a65337097f130e71daff6004820152600092506001600160a01b03851691506372c6838f9060240160206040518083038186803b1580156118c657600080fd5b505afa1580156118da573d6000803e3d6000fd5b505050506040513d601f19601f820116820180604052508101906118fe9190613080565b90506001600160a01b03811661191a57600060208301526119cf565b6001600160a01b038181166060840181905283516040517f43a8a3f1000000000000000000000000000000000000000000000000000000008152928616600484015260248301526000918291906343a8a3f190604401604080518083038186803b15801561198757600080fd5b505afa15801561199b573d6000803e3d6000fd5b505050506040513d601f19601f820116820180604052508101906119bf91906131d6565b9015156020860152604085015250505b50919050565b604051634941d71d60e11b81527feee23dc9ab95b6666db01c2b6cae6a5ef706099a25926e21e0a2e043fe885604600482015260009081906001600160a01b03851690639283ae3a9060240160206040518083038186803b158015611a3957600080fd5b505afa158015611a4d573d6000803e3d6000fd5b505050506040513d601f19601f82011682018060405250810190611a719190613201565b604051634941d71d60e11b81527fd093d4a34a12a221b19c0a6689d5449f1346aa769d15cca4e9782c36fda9339a60048201529091506000906001600160a01b03861690639283ae3a9060240160206040518083038186803b158015611ad657600080fd5b505afa158015611aea573d6000803e3d6000fd5b505050506040513d601f19601f82011682018060405250810190611b0e9190613201565b6040516317ba7d8560e01b81527f8f5b4aabbdb8527d420a29cc90ae207773ad49b73c632c3cfd2f29eb8776f2ea60048201529091506000906001600160a01b038716906317ba7d859060240160206040518083038186803b158015611b7357600080fd5b505afa158015611b87573d6000803e3d6000fd5b505050506040513d601f19601f82011682018060405250810190611bab9190613080565b6040517f68abb5e00000000000000000000000000000000000000000000000000000000081526001600160a01b0388811660048301529192506000918316906368abb5e09060240160206040518083038186803b158015611c0b57600080fd5b505afa158015611c1f573d6000803e3d6000fd5b505050506040513d601f19601f82011682018060405250810190611c439190613201565b11611cde5760405163288c314960e21b81526001600160a01b03868116600483015287169063a230c5249060240160206040518083038186803b158015611c8957600080fd5b505afa158015611c9d573d6000803e3d6000fd5b505050506040513d601f19601f82011682018060405250810190611cc191906131bc565b15611cd25760019350505050610e1d565b60009350505050610e1d565b8160011415611dfb57600083611d8b57604051633de222bb60e21b81526001600160a01b0388811660048301528781166024830152670de0b6b3a7640000919084169063f7888aec9060440160206040518083038186803b158015611d4257600080fd5b505afa158015611d56573d6000803e3d6000fd5b505050506040513d601f19601f82011682018060405250810190611d7a9190613201565b611d849190613584565b9050611d98565b6000945050505050610e1d565b60008111611dad576000945050505050610e1d565b677fffffffffffffff8110611dc9576032945050505050610e1d565b6000611de4611ddf611dda84612e21565b612e3f565b612f36565b67ffffffffffffffff169550610e1d945050505050565b8160021415611ead5782611cd257604051633de222bb60e21b81526001600160a01b0387811660048301528681166024830152600091829184169063f7888aec9060440160206040518083038186803b158015611e5757600080fd5b505afa158015611e6b573d6000803e3d6000fd5b505050506040513d601f19601f82011682018060405250810190611e8f9190613201565b11611e9b576000611e9e565b60015b60ff169450610e1d9350505050565b81611cd257600083611d8b57604051633de222bb60e21b81526001600160a01b0388811660048301528781166024830152670de0b6b3a7640000919084169063f7888aec9060440160206040518083038186803b158015611f0d57600080fd5b505afa158015611f21573d6000803e3d6000fd5b505050506040513d601f19601f82011682018060405250810190611f459190613201565b611f4f9190613584565b9450610e1d9350505050565b611706828233612f52565b604051634941d71d60e11b81527feee23dc9ab95b6666db01c2b6cae6a5ef706099a25926e21e0a2e043fe885604600482015260009081906001600160a01b03851690639283ae3a9060240160206040518083038186803b158015611fca57600080fd5b505afa158015611fde573d6000803e3d6000fd5b505050506040513d601f19601f820116820180604052508101906120029190613201565b604051634941d71d60e11b81527fd093d4a34a12a221b19c0a6689d5449f1346aa769d15cca4e9782c36fda9339a60048201529091506000906001600160a01b03861690639283ae3a9060240160206040518083038186803b15801561206757600080fd5b505afa15801561207b573d6000803e3d6000fd5b505050506040513d601f19601f8201168201806040525081019061209f9190613201565b6040516317ba7d8560e01b81527f8f5b4aabbdb8527d420a29cc90ae207773ad49b73c632c3cfd2f29eb8776f2ea60048201529091506000906001600160a01b038716906317ba7d859060240160206040518083038186803b15801561210457600080fd5b505afa158015612118573d6000803e3d6000fd5b505050506040513d601f19601f8201168201806040525081019061213c9190613080565b6040516317ba7d8560e01b81527f3a06648a49edffe95b8384794dfe9cf3ab34782fab0130b4c91bfd53f3407e6b60048201529091506000906001600160a01b038816906317ba7d859060240160206040518083038186803b1580156121a157600080fd5b505afa1580156121b5573d6000803e3d6000fd5b505050506040513d601f19601f820116820180604052508101906121d99190613080565b6040517f01c22a3d0000000000000000000000000000000000000000000000000000000081526001600160a01b0389811660048301529192506000918316906301c22a3d9060240160206040518083038186803b15801561223957600080fd5b505afa15801561224d573d6000803e3d6000fd5b505050506040513d601f19601f820116820180604052508101906122719190613201565b6040517f68abb5e00000000000000000000000000000000000000000000000000000000081526001600160a01b038a811660048301529192506000918516906368abb5e09060240160206040518083038186803b1580156122d157600080fd5b505afa1580156122e5573d6000803e3d6000fd5b505050506040513d601f19601f820116820180604052508101906123099190613201565b116123a85760405163288c314960e21b81526001600160a01b03888116600483015289169063a230c5249060240160206040518083038186803b15801561234f57600080fd5b505afa158015612363573d6000803e3d6000fd5b505050506040513d601f19601f8201168201806040525081019061238791906131bc565b1561239a57600195505050505050610e1d565b600095505050505050610e1d565b600060026040517f57670a190000000000000000000000000000000000000000000000000000000081526001600160a01b038b81166004830152602482018590528516906357670a199060440160206040518083038186803b15801561240d57600080fd5b505afa158015612421573d6000803e3d6000fd5b505050506040513d601f19601f820116820180604052508101906124459190613419565b600481111561246457634e487b7160e01b600052602160045260246000fd5b141561259d576040517f81227bf10000000000000000000000000000000000000000000000000000000081526001600160a01b038a811660048301526024820184905289811660448301528516906381227bf19060640160206040518083038186803b1580156124d357600080fd5b505afa1580156124e7573d6000803e3d6000fd5b505050506040513d601f19601f8201168201806040525081019061250b9190613201565b604051633de222bb60e21b81526001600160a01b038b811660048301528a8116602483015286169063f7888aec9060440160206040518083038186803b15801561255457600080fd5b505afa158015612568573d6000803e3d6000fd5b505050506040513d601f19601f8201168201806040525081019061258c9190613201565b61259691906135e1565b9050612621565b604051633de222bb60e21b81526001600160a01b038a81166004830152898116602483015285169063f7888aec9060440160206040518083038186803b1580156125e657600080fd5b505afa1580156125fa573d6000803e3d6000fd5b505050506040513d601f19601f8201168201806040525081019061261e9190613201565b90505b84600114156126bc5760008661264a57612643670de0b6b3a764000083613584565b905061265a565b6000975050505050505050610e1d565b60008111612672576000975050505050505050610e1d565b677fffffffffffffff8110612691576032975050505050505050610e1d565b60006126a2611ddf611dda84612e21565b67ffffffffffffffff169850610e1d975050505050505050565b84600214156126fe57856126ef5760008082116126da5760006126dd565b60015b60ff169750610e1d9650505050505050565b60009650505050505050610e1d565b846126ef5760008661264a5761271c670de0b6b3a764000083613584565b9750610e1d9650505050505050565b604051634941d71d60e11b81527feee23dc9ab95b6666db01c2b6cae6a5ef706099a25926e21e0a2e043fe885604600482015260009081906001600160a01b03851690639283ae3a9060240160206040518083038186803b15801561278f57600080fd5b505afa1580156127a3573d6000803e3d6000fd5b505050506040513d601f19601f820116820180604052508101906127c79190613201565b604051634941d71d60e11b81527fd093d4a34a12a221b19c0a6689d5449f1346aa769d15cca4e9782c36fda9339a60048201529091506000906001600160a01b03861690639283ae3a9060240160206040518083038186803b15801561282c57600080fd5b505afa158015612840573d6000803e3d6000fd5b505050506040513d601f19601f820116820180604052508101906128649190613201565b905080600114156128e057600082611cd257612888670de0b6b3a764000086613584565b90506000811161289e5760009350505050610e1d565b677fffffffffffffff81106128b95760329350505050610e1d565b60006128ca611ddf611dda84612e21565b67ffffffffffffffff169450610e1d9350505050565b806002141561291257600082611cd257600085116128ff576000612902565b60015b60ff1690505b9250610e1d915050565b8061293757600082611cd257612930670de0b6b3a764000086613584565b9050612908565b600092505050610e1d565b600080836001600160a01b031663a6f636416040518163ffffffff1660e01b815260040160006040518083038186803b15801561297e57600080fd5b505afa158015612992573d6000803e3d6000fd5b505050506040513d6000823e601f3d908101601f191682016040526129ba9190810190613108565b6040516317ba7d8560e01b81527f907642cbfe4e58ddd14eaa320923fbe4c29721dd0950ae4cb3b2626e292791ae600482015290915060009081906001600160a01b038716906317ba7d859060240160206040518083038186803b158015612a2157600080fd5b505afa158015612a35573d6000803e3d6000fd5b505050506040513d601f19601f82011682018060405250810190612a599190613080565b905060005b83518160ff161015612c6357816001600160a01b03166324a2cceb8888878560ff1681518110612a9e57634e487b7160e01b600052603260045260246000fd5b60200260200101516040518463ffffffff1660e01b8152600401612ae2939291906001600160a01b0393841681526020810192909252909116604082015260600190565b60206040518083038186803b158015612afa57600080fd5b505afa158015612b0e573d6000803e3d6000fd5b505050506040513d601f19601f82011682018060405250810190612b3291906131bc565b15612c1057816001600160a01b03166391d2fd538888878560ff1681518110612b6b57634e487b7160e01b600052603260045260246000fd5b60200260200101516040518463ffffffff1660e01b8152600401612baf939291906001600160a01b0393841681526020810192909252909116604082015260600190565b60206040518083038186803b158015612bc757600080fd5b505afa158015612bdb573d6000803e3d6000fd5b505050506040513d601f19601f82011682018060405250810190612bff9190613438565b612c099084613538565b9250612c51565b612c4487858360ff1681518110612c3757634e487b7160e01b600052603260045260246000fd5b60200260200101516119d5565b612c4e9084613538565b92505b80612c5b816135f8565b915050612a5e565b509095945050505050565b600080826001600160a01b031663a6f636416040518163ffffffff1660e01b815260040160006040518083038186803b158015612caa57600080fd5b505afa158015612cbe573d6000803e3d6000fd5b505050506040513d6000823e601f3d908101601f19168201604052612ce69190810190613108565b90506000805b82518160ff161015612d4a57612d2c85848360ff1681518110612d1f57634e487b7160e01b600052603260045260246000fd5b6020026020010151611f66565b612d369083613538565b915080612d42816135f8565b915050612cec565b509392505050565b600080826001600160a01b031663a6f636416040518163ffffffff1660e01b815260040160006040518083038186803b158015612d8e57600080fd5b505afa158015612da2573d6000803e3d6000fd5b505050506040513d6000823e601f3d908101601f19168201604052612dca9190810190613108565b90506000805b82518160ff161015612d4a57612e0385848360ff1681518110612c3757634e487b7160e01b600052603260045260246000fd5b612e0d9083613538565b915080612e19816135f8565b915050612dd0565b6000677fffffffffffffff821115612e3857600080fd5b5060401b90565b60008082600f0b13612e5057600080fd5b6000600f83900b680100000000000000008112612e6f576040918201911d5b6401000000008112612e83576020918201911d5b620100008112612e95576010918201911d5b6101008112612ea6576008918201911d5b60108112612eb6576004918201911d5b60048112612ec6576002918201911d5b60028112612ed5576001820191505b7fffffffffffffffffffffffffffffffffffffffffffffffffffffffffffffffc0820160401b600f85900b607f8490031b6780000000000000005b6000811315612c635790800260ff81901c8281029390930192607f011c9060011d612f10565b60008082600f0b1215612f4857600080fd5b50600f0b60401d90565b8160200151156130085781606001516001600160a01b0316635e5eb01384835a8651612f7e91906135e1565b60408088015190517fffffffff0000000000000000000000000000000000000000000000000000000060e087901b1681526001600160a01b03948516600482015293909216602484015260448301526064820152608401600060405180830381600087803b158015612fef57600080fd5b505af1158015613003573d6000803e3d6000fd5b505050505b826001600160a01b031663d4f7af436040518163ffffffff1660e01b8152600401600060405180830381600087803b15801561304357600080fd5b505af1158015613057573d6000803e3d6000fd5b50505050505050565b803561306b8161365a565b919050565b8051801515811461306b57600080fd5b600060208284031215613091578081fd5b81516103238161365a565b600080604083850312156130ae578081fd5b82356130b98161365a565b946020939093013593505050565b6000806000606084860312156130db578081fd5b83356130e68161365a565b92506020840135915060408401356130fd8161365a565b809150509250925092565b6000602080838503121561311a578182fd5b825167ffffffffffffffff80821115613131578384fd5b818501915085601f830112613144578384fd5b81518181111561315657613156613644565b8060051b9150613167848301613507565b8181528481019084860184860187018a1015613181578788fd5b8795505b838610156131af578051945061319a8561365a565b84835260019590950194918601918601613185565b5098975050505050505050565b6000602082840312156131cd578081fd5b610e1a82613070565b600080604083850312156131e8578182fd5b6131f183613070565b9150602083015190509250929050565b600060208284031215613212578081fd5b5051919050565b60006020828403121561322a578081fd5b81356103238161365a565b60008060408385031215613247578182fd5b82356132528161365a565b915060208301356132628161365a565b809150509250929050565b60008060008060808587031215613282578081fd5b843561328d8161365a565b935060208581013561329e8161365a565b9350604086013567ffffffffffffffff808211156132ba578384fd5b818801915088601f8301126132cd578384fd5b8135818111156132df576132df613644565b6132f184601f19601f84011601613507565b91508082528984828501011115613306578485fd5b8084840185840137810190920183905250915061332560608601613060565b905092959194509250565b600080604083850312156130ae578182fd5b60008060008060608587031215613357578182fd5b84356133628161365a565b935060208501359250604085013567ffffffffffffffff80821115613385578384fd5b818701915087601f830112613398578384fd5b8135818111156133a6578485fd5b8860208285010111156133b7578485fd5b95989497505060200194505050565b6000806000606084860312156133da578081fd5b83356133e58161365a565b95602085013595506040909401359392505050565b60006020828403121561340b578081fd5b815160028110610323578182fd5b60006020828403121561342a578081fd5b815160058110610323578182fd5b600060208284031215613449578081fd5b81516fffffffffffffffffffffffffffffffff81168114610323578182fd5b828152604081016003831061347f5761347f61362e565b8260208301529392505050565b60608101600685106134a0576134a061362e565b938152602081019290925260409091015290565b6000602080835283518082850152825b818110156134e0578581018301518582016040015282016134c4565b818111156134f15783604083870101525b50601f01601f1916929092016040019392505050565b604051601f8201601f1916810167ffffffffffffffff8111828210171561353057613530613644565b604052919050565b60006fffffffffffffffffffffffffffffffff80831681851680830382111561356357613563613618565b01949350505050565b6000821982111561357f5761357f613618565b500190565b60008261359f57634e487b7160e01b81526012600452602481fd5b500490565b6000817fffffffffffffffffffffffffffffffffffffffffffffffffffffffffffffffff04831182151516156135dc576135dc613618565b500290565b6000828210156135f3576135f3613618565b500390565b600060ff821660ff81141561360f5761360f613618565b60010192915050565b634e487b7160e01b600052601160045260246000fd5b634e487b7160e01b600052602160045260246000fd5b634e487b7160e01b600052604160045260246000fd5b6001600160a01b038116811461366f57600080fd5b5056fea264697066735822122085814ebd9144dac887e60743cd2c391b0de268beedfe50c9143b38300a87578064736f6c63430008040033",
  "linkReferences": {},
  "deployedLinkReferences": {}
}