{
  "_format": "hh-sol-artifact-1",
  "contractName": "ColletiveGovernorManagementAdapterContract",
  "sourceName": "contracts/collective/adapters/CollectiveGovernorManagementAdapter.sol",
  "abi": [
    {
      "inputs": [],
      "name": "DAO_SET_PROPOSAL_UNDONE",
      "type": "error"
    },
    {
      "inputs": [],
      "name": "MAX_MEMBER_AMOUNT_REACH",
      "type": "error"
    },
    {
      "inputs": [],
      "name": "MEMBER_ALREDAY",
      "type": "error"
    },
    {
      "inputs": [],
      "name": "NOT_GRACE_PERIOD",
      "type": "error"
    },
    {
      "inputs": [],
      "name": "SUMMONOR_CANT_QUIT",
      "type": "error"
    },
    {
      "inputs": [],
      "name": "UNDONE_INVESTMET_PROPOSAL",
      "type": "error"
    },
    {
      "anonymous": false,
      "inputs": [
        {
          "indexed": false,
          "internalType": "address",
          "name": "daoAddr",
          "type": "address"
        },
        {
          "indexed": false,
          "internalType": "address",
          "name": "governor",
          "type": "address"
        }
      ],
      "name": "GovernorQuit",
      "type": "event"
    },
    {
      "anonymous": false,
      "inputs": [
        {
          "indexed": false,
          "internalType": "address",
          "name": "daoAddr",
          "type": "address"
        },
        {
          "indexed": false,
          "internalType": "bytes32",
          "name": "proposalId",
          "type": "bytes32"
        },
        {
          "indexed": false,
          "internalType": "address",
          "name": "account",
          "type": "address"
        },
        {
          "indexed": false,
          "internalType": "uint256",
          "name": "creationTime",
          "type": "uint256"
        },
        {
          "indexed": false,
          "internalType": "uint256",
          "name": "stopVoteTime",
          "type": "uint256"
        },
        {
          "indexed": false,
          "internalType": "enum ColletiveGovernorManagementAdapterContract.ProposalType",
          "name": "pType",
          "type": "uint8"
        }
      ],
      "name": "ProposalCreated",
      "type": "event"
    },
    {
      "anonymous": false,
      "inputs": [
        {
          "indexed": false,
          "internalType": "address",
          "name": "daoAddr",
          "type": "address"
        },
        {
          "indexed": false,
          "internalType": "bytes32",
          "name": "proposalId",
          "type": "bytes32"
        },
        {
          "indexed": false,
          "internalType": "enum ColletiveGovernorManagementAdapterContract.ProposalState",
          "name": "state",
          "type": "uint8"
        },
        {
          "indexed": false,
          "internalType": "uint128",
          "name": "allVotingWeight",
          "type": "uint128"
        },
        {
          "indexed": false,
          "internalType": "uint256",
          "name": "nbYes",
          "type": "uint256"
        },
        {
          "indexed": false,
          "internalType": "uint256",
          "name": "nbNo",
          "type": "uint256"
        },
        {
          "indexed": false,
          "internalType": "uint256",
          "name": "voteResult",
          "type": "uint256"
        }
      ],
      "name": "ProposalProcessed",
      "type": "event"
    },
    {
      "anonymous": false,
      "inputs": [
        {
          "indexed": false,
          "internalType": "address",
          "name": "daoAddr",
          "type": "address"
        },
        {
          "indexed": false,
          "internalType": "bytes32",
          "name": "proposalId",
          "type": "bytes32"
        },
        {
          "indexed": false,
          "internalType": "enum ColletiveGovernorManagementAdapterContract.ProposalState",
          "name": "state",
          "type": "uint8"
        },
        {
          "indexed": false,
          "internalType": "uint256",
          "name": "startVoteTime",
          "type": "uint256"
        },
        {
          "indexed": false,
          "internalType": "uint256",
          "name": "stopVoteTime",
          "type": "uint256"
        }
      ],
      "name": "StartVoting",
      "type": "event"
    },
    {
      "inputs": [
        {
          "internalType": "contract DaoRegistry",
          "name": "dao",
          "type": "address"
        }
      ],
      "name": "allDone",
      "outputs": [
        {
          "internalType": "bool",
          "name": "",
          "type": "bool"
        }
      ],
      "stateMutability": "view",
      "type": "function"
    },
    {
      "inputs": [
        {
          "internalType": "address",
          "name": "",
          "type": "address"
        },
        {
          "internalType": "bytes32",
          "name": "",
          "type": "bytes32"
        },
        {
          "internalType": "address",
          "name": "",
          "type": "address"
        },
        {
          "internalType": "address",
          "name": "",
          "type": "address"
        }
      ],
      "name": "approvedInfos",
      "outputs": [
        {
          "internalType": "uint256",
          "name": "",
          "type": "uint256"
        }
      ],
      "stateMutability": "view",
      "type": "function"
    },
    {
      "inputs": [
        {
          "internalType": "contract DaoRegistry",
          "name": "dao",
          "type": "address"
        }
      ],
      "name": "clearGovernorWhitelist",
      "outputs": [],
      "stateMutability": "nonpayable",
      "type": "function"
    },
    {
      "inputs": [
        {
          "internalType": "contract DaoRegistry",
          "name": "dao",
          "type": "address"
        }
      ],
      "name": "getAllGovernor",
      "outputs": [
        {
          "internalType": "address[]",
          "name": "",
          "type": "address[]"
        }
      ],
      "stateMutability": "view",
      "type": "function"
    },
    {
      "inputs": [
        {
          "internalType": "contract DaoRegistry",
          "name": "dao",
          "type": "address"
        }
      ],
      "name": "getGovernorAmount",
      "outputs": [
        {
          "internalType": "uint256",
          "name": "",
          "type": "uint256"
        }
      ],
      "stateMutability": "view",
      "type": "function"
    },
    {
      "inputs": [
        {
          "internalType": "address",
          "name": "daoAddr",
          "type": "address"
        }
      ],
      "name": "getGovernorWhitelist",
      "outputs": [
        {
          "internalType": "address[]",
          "name": "",
          "type": "address[]"
        }
      ],
      "stateMutability": "view",
      "type": "function"
    },
    {
      "inputs": [
        {
          "internalType": "contract DaoRegistry",
          "name": "dao",
          "type": "address"
        },
        {
          "internalType": "address",
          "name": "_addr",
          "type": "address"
        }
      ],
      "name": "isActiveMember",
      "outputs": [
        {
          "internalType": "bool",
          "name": "",
          "type": "bool"
        }
      ],
      "stateMutability": "view",
      "type": "function"
    },
    {
      "inputs": [
        {
          "internalType": "contract DaoRegistry",
          "name": "dao",
          "type": "address"
        },
        {
          "internalType": "address",
          "name": "account",
          "type": "address"
        }
      ],
      "name": "isGovernorWhiteList",
      "outputs": [
        {
          "internalType": "bool",
          "name": "",
          "type": "bool"
        }
      ],
      "stateMutability": "view",
      "type": "function"
    },
    {
      "inputs": [
        {
          "internalType": "contract DaoRegistry",
          "name": "dao",
          "type": "address"
        },
        {
          "internalType": "bytes32",
          "name": "proposalId",
          "type": "bytes32"
        }
      ],
      "name": "processProposal",
      "outputs": [],
      "stateMutability": "nonpayable",
      "type": "function"
    },
    {
      "inputs": [
        {
          "internalType": "contract DaoRegistry",
          "name": "",
          "type": "address"
        },
        {
          "internalType": "bytes32",
          "name": "",
          "type": "bytes32"
        }
      ],
      "name": "proposals",
      "outputs": [
        {
          "internalType": "bytes32",
          "name": "id",
          "type": "bytes32"
        },
        {
          "internalType": "address",
          "name": "account",
          "type": "address"
        },
        {
          "internalType": "address",
          "name": "tokenAddress",
          "type": "address"
        },
        {
          "internalType": "uint256",
          "name": "depositAmount",
          "type": "uint256"
        },
        {
          "internalType": "uint256",
          "name": "startVoteTime",
          "type": "uint256"
        },
        {
          "internalType": "uint256",
          "name": "stopVoteTime",
          "type": "uint256"
        },
        {
          "internalType": "enum ColletiveGovernorManagementAdapterContract.ProposalState",
          "name": "state",
          "type": "uint8"
        },
        {
          "internalType": "enum ColletiveGovernorManagementAdapterContract.ProposalType",
          "name": "pType",
          "type": "uint8"
        }
      ],
      "stateMutability": "view",
      "type": "function"
    },
    {
      "inputs": [
        {
          "internalType": "contract DaoRegistry",
          "name": "dao",
          "type": "address"
        }
      ],
      "name": "quit",
      "outputs": [],
      "stateMutability": "nonpayable",
      "type": "function"
    },
    {
      "inputs": [
        {
          "internalType": "contract DaoRegistry",
          "name": "dao",
          "type": "address"
        },
        {
          "internalType": "address",
          "name": "account",
          "type": "address"
        }
      ],
      "name": "registerGovernorWhiteList",
      "outputs": [],
      "stateMutability": "nonpayable",
      "type": "function"
    },
    {
      "inputs": [
        {
          "internalType": "address",
          "name": "dao",
          "type": "address"
        },
        {
          "internalType": "bytes32",
          "name": "proposalId",
          "type": "bytes32"
        },
        {
          "internalType": "address",
          "name": "erc20",
          "type": "address"
        },
        {
          "internalType": "uint256",
          "name": "amount",
          "type": "uint256"
        }
      ],
      "name": "setGovernorInApprove",
      "outputs": [
        {
          "internalType": "bool",
          "name": "",
          "type": "bool"
        }
      ],
      "stateMutability": "nonpayable",
      "type": "function"
    },
    {
      "inputs": [
        {
          "internalType": "contract DaoRegistry",
          "name": "dao",
          "type": "address"
        },
        {
          "internalType": "bytes32",
          "name": "proposalId",
          "type": "bytes32"
        }
      ],
      "name": "startVoting",
      "outputs": [
        {
          "internalType": "bool",
          "name": "",
          "type": "bool"
        }
      ],
      "stateMutability": "nonpayable",
      "type": "function"
    },
    {
      "inputs": [
        {
          "internalType": "contract DaoRegistry",
          "name": "dao",
          "type": "address"
        },
        {
          "internalType": "address",
          "name": "applicant",
          "type": "address"
        },
        {
          "internalType": "uint256",
          "name": "depositAmount",
          "type": "uint256"
        }
      ],
      "name": "submitGovernorInProposal",
      "outputs": [
        {
          "internalType": "bytes32",
          "name": "",
          "type": "bytes32"
        }
      ],
      "stateMutability": "nonpayable",
      "type": "function"
    },
    {
      "inputs": [
        {
          "internalType": "contract DaoRegistry",
          "name": "dao",
          "type": "address"
        },
        {
          "internalType": "address",
          "name": "applicant",
          "type": "address"
        }
      ],
      "name": "submitGovernorOutProposal",
      "outputs": [
        {
          "internalType": "bytes32",
          "name": "",
          "type": "bytes32"
        }
      ],
      "stateMutability": "nonpayable",
      "type": "function"
    }
  ],
  "bytecode": "0x608060405234801561001057600080fd5b5061579880620000216000396000f3fe608060405234801561001057600080fd5b50600436106101005760003560e01c80637bf8003c11610097578063bda4f97711610066578063bda4f977146102ae578063d32b91dd146102c1578063dab12fee146102d4578063fbb65b70146102e757600080fd5b80637bf8003c146102625780638ecf7720146102755780639573167d146102885780639cc3c2791461029b57600080fd5b80635cb75276116100d35780635cb752761461018d57806360c5c28f1461020c578063642fc0c01461021f578063792c41061461024257600080fd5b806322c5c2cc146101055780632d258e721461011a57806333f7bc0c14610140578063416c5ddd14610153575b600080fd5b610118610113366004615006565b6102fa565b005b61012d610128366004615006565b6104d0565b6040519081526020015b60405180910390f35b61011861014e3660046151e3565b6104e1565b61012d61016136600461503e565b600360209081526000948552604080862082529385528385208152918452828420909152825290205481565b6101f861019b36600461525b565b6000602081815292815260408082209093529081522080546001820154600283015460038401546004850154600586015460069096015494956001600160a01b039485169594909316939192909160ff8082169161010090041688565b604051610137989796959493929190615519565b61012d61021a3660046151e3565b610633565b61023261022d366004615006565b610c2e565b6040519015158152602001610137565b610255610250366004615006565b610c65565b60405161013791906154cc565b61012d61027036600461521b565b610c70565b6102326102833660046151e3565b611a77565b61011861029636600461525b565b611afb565b6102326102a9366004615090565b6123d1565b6102556102bc366004615006565b612414565b6101186102cf366004615006565b612438565b6102326102e23660046151e3565b6128f1565b6102326102f536600461525b565b612913565b6040516317ba7d8560e01b81527fdac6d9ce728ebc92a61253866b4e5a4c73b76ba0aa11e7297a633f6232f5423760048201526001600160a01b038216906317ba7d859060240160206040518083038186803b15801561035957600080fd5b505afa15801561036d573d6000803e3d6000fd5b505050506040513d601f19601f820116820180604052508101906103919190615022565b6001600160a01b0316336001600160a01b0316146103f65760405162461bcd60e51b815260206004820152600760248201527f216163636573730000000000000000000000000000000000000000000000000060448201526064015b60405180910390fd5b6001600160a01b038116600090815260016020526040812061041790612de7565b516001600160a01b038316600090815260016020526040902090915060609061043f90612de7565b905081156104cb5760005b828160ff1610156104c9576104b6828260ff168151811061047b57634e487b7160e01b600052603260045260246000fd5b602002602001015160016000876001600160a01b03166001600160a01b03168152602001908152602001600020612df490919063ffffffff16565b50806104c1816156be565b91505061044a565b505b505050565b60006104db82612e09565b92915050565b6040516317ba7d8560e01b81527fdac6d9ce728ebc92a61253866b4e5a4c73b76ba0aa11e7297a633f6232f5423760048201526001600160a01b038316906317ba7d859060240160206040518083038186803b15801561054057600080fd5b505afa158015610554573d6000803e3d6000fd5b505050506040513d601f19601f820116820180604052508101906105789190615022565b6001600160a01b0316336001600160a01b0316148061059b575061059b82612fe5565b6105e75760405162461bcd60e51b815260206004820152600760248201527f216163636573730000000000000000000000000000000000000000000000000060448201526064016103ed565b6001600160a01b03821660009081526001602052604090206106099082613205565b61062f576001600160a01b03821660009081526001602052604090206104cb9082613227565b5050565b600082610640813361323c565b83600061064c82613292565b60405163288c314960e21b81526001600160a01b0387811660048301529192509087169063a230c5249060240160206040518083038186803b15801561069157600080fd5b505afa1580156106a5573d6000803e3d6000fd5b505050506040513d601f19601f820116820180604052508101906106c9919061519e565b6107155760405162461bcd60e51b815260206004820152601760248201527f4170706c6963616e742049736e7420476f7665726e6f7200000000000000000060448201526064016103ed565b61071e8661355d565b61076a5760405162461bcd60e51b815260206004820152601660248201527f556e446f6e652044616f7365742050726f706f73616c0000000000000000000060448201526064016103ed565b6040516317ba7d8560e01b81527f72894213a5c7f56b36b2947fa6ea18963d6bb1a68746b46d7f552cca76e1a7a860048201526000906001600160a01b038816906317ba7d859060240160206040518083038186803b1580156107cc57600080fd5b505afa1580156107e0573d6000803e3d6000fd5b505050506040513d601f19601f820116820180604052508101906108049190615022565b6040517f642fc0c00000000000000000000000000000000000000000000000000000000081526001600160a01b0389811660048301529192509082169063642fc0c09060240160206040518083038186803b15801561086257600080fd5b505afa158015610876573d6000803e3d6000fd5b505050506040513d601f19601f8201168201806040525081019061089a919061519e565b6108d0576040517fda21951f00000000000000000000000000000000000000000000000000000000815260040160405180910390fd5b866001600160a01b031663250a70b76040518163ffffffff1660e01b8152600401600060405180830381600087803b15801561090b57600080fd5b505af115801561091f573d6000803e3d6000fd5b5050505060006109ca8860c01b6109a58a6001600160a01b0316633ea34b866040518163ffffffff1660e01b815260040160206040518083038186803b15801561096857600080fd5b505afa15801561097c573d6000803e3d6000fd5b505050506040513d601f19601f820116820180604052508101906109a091906152de565b613657565b6040516020016109b6929190615388565b6040516020818303038152906040526137a5565b604051634941d71d60e11b81527f9876c0f0505bfb2b1c38d3bbd25ba13159172cd0868972d76927723f5a9480fc600482015290915042906000906001600160a01b038b1690639283ae3a9060240160206040518083038186803b158015610a3157600080fd5b505afa158015610a45573d6000803e3d6000fd5b505050506040513d601f19601f82011682018060405250810190610a6991906152de565b610a739083615616565b9050610a828a848b85856137c1565b610a8c8a84613a74565b6040516317ba7d8560e01b81527f907642cbfe4e58ddd14eaa320923fbe4c29721dd0950ae4cb3b2626e292791ae60048201526000906001600160a01b038c16906317ba7d859060240160206040518083038186803b158015610aee57600080fd5b505afa158015610b02573d6000803e3d6000fd5b505050506040513d601f19601f82011682018060405250810190610b269190615022565b604080516020810182526000815290517f2b0974d00000000000000000000000000000000000000000000000000000000081529192506001600160a01b03831691632b0974d091610b7d918f918991600401615598565b600060405180830381600087803b158015610b9757600080fd5b505af1158015610bab573d6000803e3d6000fd5b5050506001600160a01b038c166000908152600260205260409020610bd1915085613b90565b507ffea2665062ba82dc413c7c18c28f836789917497e349b8c156ebaaae175ddabf8b858c86866001604051610c0c969594939291906153f6565b60405180910390a150919650505050610c258282613b9c565b50505092915050565b6001600160a01b03811660009081526002602052604081208190610c5190613ba7565b11610c5d5760016104db565b600092915050565b60606104db82613bb1565b6000836000610c7e82613292565b905085610c8b813361323c565b604051634941d71d60e11b81527f02049446ffbff09ad55d6fdb03c8c6027cf548332d30663e8fdf960abdab86ea6004820152879087906001600160a01b03831690639283ae3a9060240160206040518083038186803b158015610cee57600080fd5b505afa158015610d02573d6000803e3d6000fd5b505050506040513d601f19601f82011682018060405250810190610d2691906152de565b6001141561140d57604051634941d71d60e11b81527f09f0ac4191623c4a1e481e66bb865f218d9f5bcef4e65b597583a054b10182bc60048201526000906001600160a01b03841690639283ae3a9060240160206040518083038186803b158015610d9057600080fd5b505afa158015610da4573d6000803e3d6000fd5b505050506040513d601f19601f82011682018060405250810190610dc891906152de565b604051634941d71d60e11b81527f6bdd30ca7a0b5a78cdfd780fd2f234880048cafa893e9ccbc9f82df25cdc717f60048201529091506000906001600160a01b03851690639283ae3a9060240160206040518083038186803b158015610e2d57600080fd5b505afa158015610e41573d6000803e3d6000fd5b505050506040513d601f19601f82011682018060405250810190610e6591906152de565b604051634941d71d60e11b81527f032de4639c5a8edd1ea478b1345b2d031f42ecd2b29442d3080c9ac0545b5f8e60048201529091506000906001600160a01b03861690639283ae3a9060240160206040518083038186803b158015610eca57600080fd5b505afa158015610ede573d6000803e3d6000fd5b505050506040513d601f19601f82011682018060405250810190610f0291906152de565b6040517ffd310d290000000000000000000000000000000000000000000000000000000081527f0567bf43e78d815625031c35adddd5d701cb6b913fbad3b625b4f8c00fdc42aa60048201529091506000906001600160a01b0387169063fd310d299060240160206040518083038186803b158015610f8057600080fd5b505afa158015610f94573d6000803e3d6000fd5b505050506040513d601f19601f82011682018060405250810190610fb89190615022565b6040516317ba7d8560e01b81527f8f5b4aabbdb8527d420a29cc90ae207773ad49b73c632c3cfd2f29eb8776f2ea60048201529091506000906001600160a01b038816906317ba7d859060240160206040518083038186803b15801561101d57600080fd5b505afa158015611031573d6000803e3d6000fd5b505050506040513d601f19601f820116820180604052508101906110559190615022565b905084611150576040516370a0823160e01b81526001600160a01b0387811660048301528591908416906370a082319060240160206040518083038186803b1580156110a057600080fd5b505afa1580156110b4573d6000803e3d6000fd5b505050506040513d601f19601f820116820180604052508101906110d891906152de565b101561114b5760405162461bcd60e51b8152602060048201526024808201527f3c20657263323020746f6b656e206d696e20686f6c64696e672072657175697260448201527f6d656e740000000000000000000000000000000000000000000000000000000060648201526084016103ed565b611407565b8460011415611249576040516370a0823160e01b81526001600160a01b0387811660048301528591908416906370a082319060240160206040518083038186803b15801561119d57600080fd5b505afa1580156111b1573d6000803e3d6000fd5b505050506040513d601f19601f820116820180604052508101906111d591906152de565b101561114b5760405162461bcd60e51b815260206004820152602560248201527f3c2065726337323120746f6b656e206d696e20686f6c64696e6720726571756960448201527f726d656e7400000000000000000000000000000000000000000000000000000060648201526084016103ed565b8460021415611360576040517efdd58e0000000000000000000000000000000000000000000000000000000081526001600160a01b0387811660048301526024820185905285919084169062fdd58e9060440160206040518083038186803b1580156112b457600080fd5b505afa1580156112c8573d6000803e3d6000fd5b505050506040513d601f19601f820116820180604052508101906112ec91906152de565b101561114b5760405162461bcd60e51b815260206004820152602660248201527f3c206572633131353520746f6b656e206d696e20686f6c64696e67207265717560448201527f69726d656e74000000000000000000000000000000000000000000000000000060648201526084016103ed565b84600314156113bf5761137387876128f1565b61114b5760405162461bcd60e51b815260206004820152601960248201527f6e6f7420696e20676f7665726e6f722077686974656c6973740000000000000060448201526064016103ed565b60405162461bcd60e51b815260206004820152601760248201527f696e76616c6964206d656d62657273686970207479706500000000000000000060448201526064016103ed565b50505050505b6040805160608101825260008082526020820181905281830152905163288c314960e21b81526001600160a01b038a811660048301528b169063a230c5249060240160206040518083038186803b15801561146757600080fd5b505afa15801561147b573d6000803e3d6000fd5b505050506040513d601f19601f8201168201806040525081019061149f919061519e565b156114d6576040517ffc7450f800000000000000000000000000000000000000000000000000000000815260040160405180910390fd5b6114df8a61355d565b611515576040517fb7973f6e00000000000000000000000000000000000000000000000000000000815260040160405180910390fd5b6040516317ba7d8560e01b81527f72894213a5c7f56b36b2947fa6ea18963d6bb1a68746b46d7f552cca76e1a7a860048201526000906001600160a01b038c16906317ba7d859060240160206040518083038186803b15801561157757600080fd5b505afa15801561158b573d6000803e3d6000fd5b505050506040513d601f19601f820116820180604052508101906115af9190615022565b6040517f642fc0c00000000000000000000000000000000000000000000000000000000081526001600160a01b038d811660048301529192509082169063642fc0c09060240160206040518083038186803b15801561160d57600080fd5b505afa158015611621573d6000803e3d6000fd5b505050506040513d601f19601f82011682018060405250810190611645919061519e565b61167b576040517fda21951f00000000000000000000000000000000000000000000000000000000815260040160405180910390fd5b604051634941d71d60e11b81527f69f4ffb3ebcb7809550bddd3e4d449a47e737bf6635bc7a730996643997b0e4860048201526001600160a01b038c1690639283ae3a9060240160206040518083038186803b1580156116da57600080fd5b505afa1580156116ee573d6000803e3d6000fd5b505050506040513d601f19601f8201168201806040525081019061171291906152de565b600114801561182c5750604051634941d71d60e11b81527fecbde689cc6337d29a750b8b8a8abbfa97427b4ac800ab55be2f2c87311510f260048201526001600160a01b038c1690639283ae3a9060240160206040518083038186803b15801561177b57600080fd5b505afa15801561178f573d6000803e3d6000fd5b505050506040513d601f19601f820116820180604052508101906117b391906152de565b8b6001600160a01b031663a6f636416040518163ffffffff1660e01b815260040160006040518083038186803b1580156117ec57600080fd5b505afa158015611800573d6000803e3d6000fd5b505050506040513d6000823e601f3d908101601f1916820160405261182891908101906150d7565b5110155b15611863576040517f58c9aaf900000000000000000000000000000000000000000000000000000000815260040160405180910390fd5b8a6001600160a01b031663ec56a1f26040518163ffffffff1660e01b8152600401600060405180830381600087803b15801561189e57600080fd5b505af11580156118b2573d6000803e3d6000fd5b5050505061190a8b60c01b6118f98d6001600160a01b03166352c1d9016040518163ffffffff1660e01b815260040160206040518083038186803b15801561096857600080fd5b6040516020016109b692919061531a565b82526040517ffd310d290000000000000000000000000000000000000000000000000000000081527f7fa36390a0e9b8b8004035572fd8345b1128cea12d1763a1baf8fbd4fb7b202760048201526000906001600160a01b038d169063fd310d299060240160206040518083038186803b15801561198757600080fd5b505afa15801561199b573d6000803e3d6000fd5b505050506040513d601f19601f820116820180604052508101906119bf9190615022565b90506119dc8c84600001518d848e88602001518960400151613c28565b6119ea8c8460000151613a74565b82516001600160a01b038d166000908152600260205260409020611a0d91613b90565b507ffea2665062ba82dc413c7c18c28f836789917497e349b8c156ebaaae175ddabf8c84600001518d866020015187604001516000604051611a54969594939291906153f6565b60405180910390a15050519550505050611a6e8282613b9c565b50509392505050565b60405163288c314960e21b81526001600160a01b0382811660048301526000919084169063a230c5249060240160206040518083038186803b158015611abc57600080fd5b505afa158015611ad0573d6000803e3d6000fd5b505050506040513d601f19601f82011682018060405250810190611af4919061519e565b9392505050565b816000611b0782613292565b6001600160a01b03851660009081526020818152604080832087845290915290208054919250908414611b7c5760405162461bcd60e51b815260206004820152601760248201527f70726f706f73616c20646f6573206e6f7420657869737400000000000000000060448201526064016103ed565b6040517ff941f6910000000000000000000000000000000000000000000000000000000081526001600160a01b0386169063f941f69190611bc4908790600290600401615574565b60206040518083038186803b158015611bdc57600080fd5b505afa158015611bf0573d6000803e3d6000fd5b505050506040513d601f19601f82011682018060405250810190611c14919061519e565b15611c615760405162461bcd60e51b815260206004820152601a60248201527f70726f706f73616c20616c72656164792070726f63657373656400000000000060448201526064016103ed565b6001600682015460ff166004811115611c8a57634e487b7160e01b600052602160045260246000fd5b14611cd75760405162461bcd60e51b815260206004820152601160248201527f616c72656164792070726f63657373656400000000000000000000000000000060448201526064016103ed565b6040516317ba7d8560e01b81527f907642cbfe4e58ddd14eaa320923fbe4c29721dd0950ae4cb3b2626e292791ae60048201526000906001600160a01b038716906317ba7d859060240160206040518083038186803b158015611d3957600080fd5b505afa158015611d4d573d6000803e3d6000fd5b505050506040513d601f19601f82011682018060405250810190611d719190615022565b90506001600160a01b038116611dc95760405162461bcd60e51b815260206004820152601160248201527f61646170746572206e6f7420666f756e6400000000000000000000000000000060448201526064016103ed565b6040517f76225e730000000000000000000000000000000000000000000000000000000081526001600160a01b0387811660048301526024820187905260009182918291908516906376225e7390604401606060405180830381600087803b158015611e3457600080fd5b505af1158015611e48573d6000803e3d6000fd5b505050506040513d601f19601f82011682018060405250810190611e6c91906152a5565b919450925090506000611e7e8a613edc565b6040517f30490e91000000000000000000000000000000000000000000000000000000008152600481018b90529091506001600160a01b038b16906330490e9190602401600060405180830381600087803b158015611edc57600080fd5b505af1158015611ef0573d6000803e3d6000fd5b5060029250611efd915050565b846005811115611f1d57634e487b7160e01b600052602160045260246000fd5b141561223657600686018054600260ff1990911617908190556001808801546001600160a01b03169160009161010090910460ff1690811115611f7057634e487b7160e01b600052602160045260246000fd5b141561203c57600287015460018801546003890154611f9f928e926001600160a01b0391821692911690613fb8565b1561202c576040517fdc929f4a0000000000000000000000000000000000000000000000000000000081526001600160a01b0382811660048301528c169063dc929f4a90602401600060405180830381600087803b15801561200057600080fd5b505af1158015612014573d6000803e3d6000fd5b5050505060068701805460ff1916600317905561203c565b60068701805460ff191660041790555b60016006880154610100900460ff16600181111561206a57634e487b7160e01b600052602160045260246000fd5b1415612230576040517f0b1ca49a0000000000000000000000000000000000000000000000000000000081526001600160a01b0382811660048301528c1690630b1ca49a90602401600060405180830381600087803b1580156120cc57600080fd5b505af11580156120e0573d6000803e3d6000fd5b50506040516317ba7d8560e01b81527f8f5b4aabbdb8527d420a29cc90ae207773ad49b73c632c3cfd2f29eb8776f2ea6004820152600092506001600160a01b038e1691506317ba7d859060240160206040518083038186803b15801561214657600080fd5b505afa15801561215a573d6000803e3d6000fd5b505050506040513d601f19601f8201168201806040525081019061217e9190615022565b6040517fa2d165d20000000000000000000000000000000000000000000000000000000081526001600160a01b038e8116600483015284811660248301529192509082169063a2d165d290604401602060405180830381600087803b1580156121e657600080fd5b505af11580156121fa573d6000803e3d6000fd5b505050506040513d601f19601f8201168201806040525081019061221e919061519e565b505060068701805460ff191660031790555b5061230a565b600384600581111561225857634e487b7160e01b600052602160045260246000fd5b14806122835750600184600581111561228157634e487b7160e01b600052602160045260246000fd5b145b1561229c5760068601805460ff1916600417905561230a565b60405162461bcd60e51b815260206004820152602260248201527f70726f706f73616c20686173206e6f74206265656e20766f746564206f6e207960448201527f657400000000000000000000000000000000000000000000000000000000000060648201526084016103ed565b6001600160a01b038a16600090815260026020526040902061232c908a6145a8565b15612355576001600160a01b038a166000908152600260205260409020612353908a6145c0565b505b60068601547f7ab29e6deeb60f3b76461422909b7ae5bda1be890b270b70c56a32d54cd2a456908b908b9060ff168487878a60058111156123a657634e487b7160e01b600052602160045260246000fd5b6040516123b9979695949392919061543b565b60405180910390a15050505050506104c98282613b9c565b6001600160a01b0380851660009081526003602090815260408083208784528252808320338452825280832093861683529290522081905560015b949350505050565b6001600160a01b03811660009081526001602052604090206060906104db90612de7565b80612443813361323c565b6001826001600160a01b031663c19d93fb6040518163ffffffff1660e01b815260040160206040518083038186803b15801561247e57600080fd5b505afa158015612492573d6000803e3d6000fd5b505050506040513d601f19601f820116820180604052508101906124b69190615286565b60018111156124d557634e487b7160e01b600052602160045260246000fd5b1415612839576040516317ba7d8560e01b81527f72894213a5c7f56b36b2947fa6ea18963d6bb1a68746b46d7f552cca76e1a7a860048201526000906001600160a01b038416906317ba7d859060240160206040518083038186803b15801561253d57600080fd5b505afa158015612551573d6000803e3d6000fd5b505050506040513d601f19601f820116820180604052508101906125759190615022565b6040517f4fd194f60000000000000000000000000000000000000000000000000000000081526001600160a01b03858116600483015291925090821690634fd194f69060240160206040518083038186803b1580156125d357600080fd5b505afa1580156125e7573d6000803e3d6000fd5b505050506040513d601f19601f8201168201806040525081019061260b919061519e565b612641576040517f8505931b00000000000000000000000000000000000000000000000000000000815260040160405180910390fd5b336001600160a01b0316836001600160a01b031663149acf9a6040518163ffffffff1660e01b815260040160206040518083038186803b15801561268457600080fd5b505afa158015612698573d6000803e3d6000fd5b505050506040513d601f19601f820116820180604052508101906126bc9190615022565b6001600160a01b031614156126fd576040517f84287f8f00000000000000000000000000000000000000000000000000000000815260040160405180910390fd5b6040516317ba7d8560e01b81527f8f5b4aabbdb8527d420a29cc90ae207773ad49b73c632c3cfd2f29eb8776f2ea60048201526000906001600160a01b038516906317ba7d859060240160206040518083038186803b15801561275f57600080fd5b505afa158015612773573d6000803e3d6000fd5b505050506040513d601f19601f820116820180604052508101906127979190615022565b6040517fa2d165d20000000000000000000000000000000000000000000000000000000081526001600160a01b0386811660048301523360248301529192509082169063a2d165d290604401602060405180830381600087803b1580156127fd57600080fd5b505af1158015612811573d6000803e3d6000fd5b505050506040513d601f19601f82011682018060405250810190612835919061519e565b5050505b6040517f0b1ca49a0000000000000000000000000000000000000000000000000000000081523360048201526001600160a01b03831690630b1ca49a90602401600060405180830381600087803b15801561289357600080fd5b505af11580156128a7573d6000803e3d6000fd5b5050604080516001600160a01b03861681523360208201527f6d7e1cc2497d6dc5b776413f5494868312739c131140c4a3b9440610c098e90f935001905060405180910390a15050565b6001600160a01b0382166000908152600160205260408120611af49083613205565b600082612920813361323c565b6001600160a01b038416600090815260208181526040808320868452909152812090600682015460ff16600481111561296957634e487b7160e01b600052602160045260246000fd5b146129b65760405162461bcd60e51b815260206004820152600a60248201527f215375626d69747465640000000000000000000000000000000000000000000060448201526064016103ed565b6003810154600282015460018301546040516370a0823160e01b81526001600160a01b0391821660048201529116906370a082319060240160206040518083038186803b158015612a0657600080fd5b505afa158015612a1a573d6000803e3d6000fd5b505050506040513d601f19601f82011682018060405250810190612a3e91906152de565b1080612aee57506003810154600282015460018301546040517fdd62ed3e0000000000000000000000000000000000000000000000000000000081526001600160a01b03918216600482015230602482015291169063dd62ed3e9060440160206040518083038186803b158015612ab457600080fd5b505afa158015612ac8573d6000803e3d6000fd5b505050506040513d601f19601f82011682018060405250810190612aec91906152de565b105b80612b3e57506003808201546001600160a01b0380881660009081526020938452604080822089835285528082206001870154841683528552808220600287015490931682529190935290912054105b15612ba25760068101805460ff191660041790556001600160a01b0385166000908152600260205260409020612b7490856145a8565b15612b9d576001600160a01b0385166000908152600260205260409020612b9b90856145c0565b505b612d8d565b6040516317ba7d8560e01b81527f907642cbfe4e58ddd14eaa320923fbe4c29721dd0950ae4cb3b2626e292791ae60048201526000906001600160a01b038716906317ba7d859060240160206040518083038186803b158015612c0457600080fd5b505afa158015612c18573d6000803e3d6000fd5b505050506040513d601f19601f82011682018060405250810190612c3c9190615022565b604080516020810182526000815290517f2b0974d00000000000000000000000000000000000000000000000000000000081529192506001600160a01b03831691632b0974d091612c93918a918a91600401615598565b600060405180830381600087803b158015612cad57600080fd5b505af1158015612cc1573d6000803e3d6000fd5b5050505060068201805460ff1916600117905542600480840191909155604051634941d71d60e11b81527f9876c0f0505bfb2b1c38d3bbd25ba13159172cd0868972d76927723f5a9480fc918101919091526001600160a01b03871690639283ae3a9060240160206040518083038186803b158015612d3f57600080fd5b505afa158015612d53573d6000803e3d6000fd5b505050506040513d601f19601f82011682018060405250810190612d7791906152de565b8260040154612d869190615616565b6005830155505b6006810154600482015460058301546040517ff5ff14337f1c8865ea504525020833044e927a5ff7d30ef2b4eec61f8bf1db9b93612dd4938a938a9360ff90931692615495565b60405180910390a1506001949350505050565b60606000611af4836145cc565b6000611af4836001600160a01b038416614628565b600080826001600160a01b031663c67143666040518163ffffffff1660e01b815260040160206040518083038186803b158015612e4557600080fd5b505afa158015612e59573d6000803e3d6000fd5b505050506040513d601f19601f82011682018060405250810190612e7d91906152de565b90506000805b828160ff161015612fdd576040517f9029444a00000000000000000000000000000000000000000000000000000000815260ff821660048201526001600160a01b0386169063a230c524908290639029444a9060240160206040518083038186803b158015612ef157600080fd5b505afa158015612f05573d6000803e3d6000fd5b505050506040513d601f19601f82011682018060405250810190612f299190615022565b6040517fffffffff0000000000000000000000000000000000000000000000000000000060e084901b1681526001600160a01b03909116600482015260240160206040518083038186803b158015612f8057600080fd5b505afa158015612f94573d6000803e3d6000fd5b505050506040513d601f19601f82011682018060405250810190612fb8919061519e565b15612fcb57612fc8600183615616565b91505b80612fd5816156be565b915050612e83565b509392505050565b600080826001600160a01b031663c19d93fb6040518163ffffffff1660e01b815260040160206040518083038186803b15801561302157600080fd5b505afa158015613035573d6000803e3d6000fd5b505050506040513d601f19601f820116820180604052508101906130599190615286565b600181111561307857634e487b7160e01b600052602160045260246000fd5b1480156104db5750816001600160a01b031663c67143666040518163ffffffff1660e01b815260040160206040518083038186803b1580156130b957600080fd5b505afa1580156130cd573d6000803e3d6000fd5b505050506040513d601f19601f820116820180604052508101906130f191906152de565b158061316f575060405163288c314960e21b81523360048201526001600160a01b0383169063a230c5249060240160206040518083038186803b15801561313757600080fd5b505afa15801561314b573d6000803e3d6000fd5b505050506040513d601f19601f8201168201806040525081019061316f919061519e565b806104db57506040517f68c18beb0000000000000000000000000000000000000000000000000000000081523360048201526001600160a01b038316906368c18beb9060240160206040518083038186803b1580156131cd57600080fd5b505afa1580156131e1573d6000803e3d6000fd5b505050506040513d601f19601f820116820180604052508101906104db919061519e565b6001600160a01b03811660009081526001830160205260408120541515611af4565b6000611af4836001600160a01b038416614745565b6132468282611a77565b61062f5760405162461bcd60e51b815260206004820152600c60248201527f6f6e6c79476f7665726e6f72000000000000000000000000000000000000000060448201526064016103ed565b6040805160808101825260008082526020820181905291810182905260608101919091525a81600001818152505043826001600160a01b031663b21634826040518163ffffffff1660e01b815260040160206040518083038186803b1580156132fa57600080fd5b505afa15801561330e573d6000803e3d6000fd5b505050506040513d601f19601f8201168201806040525081019061333291906152de565b14156133805760405162461bcd60e51b815260206004820152601060248201527f7265656e7472616e63792067756172640000000000000000000000000000000060448201526064016103ed565b816001600160a01b03166310fdb0a26040518163ffffffff1660e01b8152600401600060405180830381600087803b1580156133bb57600080fd5b505af11580156133cf573d6000803e3d6000fd5b50506040517f72c6838f0000000000000000000000000000000000000000000000000000000081527f1f2fd42ad6a6cacd573c4b212beb7a4e2499ad45d742a65337097f130e71daff6004820152600092506001600160a01b03851691506372c6838f9060240160206040518083038186803b15801561344e57600080fd5b505afa158015613462573d6000803e3d6000fd5b505050506040513d601f19601f820116820180604052508101906134869190615022565b90506001600160a01b0381166134a25760006020830152613557565b6001600160a01b038181166060840181905283516040517f43a8a3f1000000000000000000000000000000000000000000000000000000008152928616600484015260248301526000918291906343a8a3f190604401604080518083038186803b15801561350f57600080fd5b505afa158015613523573d6000803e3d6000fd5b505050506040513d601f19601f8201168201806040525081019061354791906151b8565b9015156020860152604085015250505b50919050565b6040516317ba7d8560e01b81527fdac6d9ce728ebc92a61253866b4e5a4c73b76ba0aa11e7297a633f6232f54237600482015260009081906001600160a01b038416906317ba7d859060240160206040518083038186803b1580156135c157600080fd5b505afa1580156135d5573d6000803e3d6000fd5b505050506040513d601f19601f820116820180604052508101906135f99190615022565b6040517f9a0242fc0000000000000000000000000000000000000000000000000000000081526001600160a01b03858116600483015291925090821690639a0242fc9060240160206040518083038186803b158015611abc57600080fd5b60608161369757505060408051808201909152600181527f3000000000000000000000000000000000000000000000000000000000000000602082015290565b8160005b81156136c157806136ab81615685565b91506136ba9050600a8361562e565b915061369b565b60008167ffffffffffffffff8111156136ea57634e487b7160e01b600052604160045260246000fd5b6040519080825280601f01601f191660200182016040528015613714576020820181803683370190505b5090505b841561240c57613729600183615642565b9150613736600a866156de565b613741906030615616565b60f81b81838151811061376457634e487b7160e01b600052603260045260246000fd5b60200101907effffffffffffffffffffffffffffffffffffffffffffffffffffffffffffff1916908160001a90535061379e600a8661562e565b9450613718565b60008151600014156137b957506000919050565b506020015190565b60405163288c314960e21b81526001600160a01b03848116600483015286169063a230c5249060240160206040518083038186803b15801561380257600080fd5b505afa158015613816573d6000803e3d6000fd5b505050506040513d601f19601f8201168201806040525081019061383a919061519e565b6138865760405162461bcd60e51b815260206004820152600d60248201527f69736e7420676f7665726e6f720000000000000000000000000000000000000060448201526064016103ed565b604051806101000160405280858152602001846001600160a01b0316815260200160006001600160a01b0316815260200160008152602001838152602001828152602001600160048111156138eb57634e487b7160e01b600052602160045260246000fd5b8152602001600190526001600160a01b038087166000908152602081815260408083208984528252918290208451815590840151600180830180549286167fffffffffffffffffffffffff0000000000000000000000000000000000000000938416179055928501516002830180549190951691161790925560608301516003830155608083015160048084019190915560a0840151600584015560c08401516006840180549193909260ff199092169184908111156139bb57634e487b7160e01b600052602160045260246000fd5b021790555060e082015160068201805461ff0019166101008360018111156139f357634e487b7160e01b600052602160045260246000fd5b0217905550506040517fb73dc389000000000000000000000000000000000000000000000000000000008152600481018690526001600160a01b038716915063b73dc38990602401600060405180830381600087803b158015613a5557600080fd5b505af1158015613a69573d6000803e3d6000fd5b505050505050505050565b6040516317ba7d8560e01b81527f907642cbfe4e58ddd14eaa320923fbe4c29721dd0950ae4cb3b2626e292791ae60048201526001600160a01b0383169063815a2bf490839083906317ba7d859060240160206040518083038186803b158015613add57600080fd5b505afa158015613af1573d6000803e3d6000fd5b505050506040513d601f19601f82011682018060405250810190613b159190615022565b6040517fffffffff0000000000000000000000000000000000000000000000000000000060e085901b16815260048101929092526001600160a01b03166024820152604401600060405180830381600087803b158015613b7457600080fd5b505af1158015613b88573d6000803e3d6000fd5b505050505050565b6000611af48383614745565b61062f828233614794565b60006104db825490565b6060816001600160a01b031663a6f636416040518163ffffffff1660e01b815260040160006040518083038186803b158015613bec57600080fd5b505afa158015613c00573d6000803e3d6000fd5b505050506040513d6000823e601f3d908101601f191682016040526104db91908101906150d7565b60405163288c314960e21b81526001600160a01b03868116600483015288169063a230c5249060240160206040518083038186803b158015613c6957600080fd5b505afa158015613c7d573d6000803e3d6000fd5b505050506040513d601f19601f82011682018060405250810190613ca1919061519e565b15613cee5760405162461bcd60e51b815260206004820152601060248201527f676f7665726e6f7220657869737465640000000000000000000000000000000060448201526064016103ed565b604051806101000160405280878152602001866001600160a01b03168152602001856001600160a01b0316815260200184815260200183815260200182815260200160006004811115613d5157634e487b7160e01b600052602160045260246000fd5b8152602001600090526001600160a01b038089166000908152602081815260408083208b84528252918290208451815590840151600180830180549286167fffffffffffffffffffffffff0000000000000000000000000000000000000000938416179055928501516002830180549190951691161790925560608301516003830155608083015160048084019190915560a0840151600584015560c08401516006840180549193909260ff19909216918490811115613e2157634e487b7160e01b600052602160045260246000fd5b021790555060e082015160068201805461ff001916610100836001811115613e5957634e487b7160e01b600052602160045260246000fd5b0217905550506040517fb73dc389000000000000000000000000000000000000000000000000000000008152600481018890526001600160a01b038916915063b73dc38990602401600060405180830381600087803b158015613ebb57600080fd5b505af1158015613ecf573d6000803e3d6000fd5b5050505050505050505050565b600080826001600160a01b031663a6f636416040518163ffffffff1660e01b815260040160006040518083038186803b158015613f1857600080fd5b505afa158015613f2c573d6000803e3d6000fd5b505050506040513d6000823e601f3d908101601f19168201604052613f5491908101906150d7565b90506000805b82518160ff161015612fdd57613f9a85848360ff1681518110613f8d57634e487b7160e01b600052603260045260246000fd5b60200260200101516148a2565b613fa490836155e2565b915080613fb0816156be565b915050613f5a565b6040516370a0823160e01b81526001600160a01b03838116600483015260009183918616906370a082319060240160206040518083038186803b158015613ffe57600080fd5b505afa158015614012573d6000803e3d6000fd5b505050506040513d601f19601f8201168201806040525081019061403691906152de565b10806140da57506040517fdd62ed3e0000000000000000000000000000000000000000000000000000000081526001600160a01b03848116600483015230602483015283919086169063dd62ed3e9060440160206040518083038186803b1580156140a057600080fd5b505afa1580156140b4573d6000803e3d6000fd5b505050506040513d601f19601f820116820180604052508101906140d891906152de565b105b156140e75750600061240c565b604051634941d71d60e11b81527f69f4ffb3ebcb7809550bddd3e4d449a47e737bf6635bc7a730996643997b0e4860048201526001600160a01b03861690639283ae3a9060240160206040518083038186803b15801561414657600080fd5b505afa15801561415a573d6000803e3d6000fd5b505050506040513d601f19601f8201168201806040525081019061417e91906152de565b60011480156142985750604051634941d71d60e11b81527fecbde689cc6337d29a750b8b8a8abbfa97427b4ac800ab55be2f2c87311510f260048201526001600160a01b03861690639283ae3a9060240160206040518083038186803b1580156141e757600080fd5b505afa1580156141fb573d6000803e3d6000fd5b505050506040513d601f19601f8201168201806040525081019061421f91906152de565b856001600160a01b031663a6f636416040518163ffffffff1660e01b815260040160006040518083038186803b15801561425857600080fd5b505afa15801561426c573d6000803e3d6000fd5b505050506040513d6000823e601f3d908101601f1916820160405261429491908101906150d7565b5110155b156142a55750600061240c565b6040517f23b872dd0000000000000000000000000000000000000000000000000000000081526001600160a01b038481166004830152306024830152604482018490528516906323b872dd90606401602060405180830381600087803b15801561430e57600080fd5b505af1158015614322573d6000803e3d6000fd5b505050506040513d601f19601f82011682018060405250810190614346919061519e565b50604051632c9f4b5b60e11b81527f3909e87234f428ccb8748126e2c93f66a62f92a70d315fa5803dec6362be07ab60048201526001600160a01b038086169163095ea7b39188169063593e96b69060240160206040518083038186803b1580156143b057600080fd5b505afa1580156143c4573d6000803e3d6000fd5b505050506040513d601f19601f820116820180604052508101906143e89190615022565b6040517fffffffff0000000000000000000000000000000000000000000000000000000060e084901b1681526001600160a01b03909116600482015260248101859052604401602060405180830381600087803b15801561444857600080fd5b505af115801561445c573d6000803e3d6000fd5b505050506040513d601f19601f82011682018060405250810190614480919061519e565b50604051632c9f4b5b60e11b81527f3909e87234f428ccb8748126e2c93f66a62f92a70d315fa5803dec6362be07ab60048201526001600160a01b0386169063593e96b69060240160206040518083038186803b1580156144e057600080fd5b505afa1580156144f4573d6000803e3d6000fd5b505050506040513d601f19601f820116820180604052508101906145189190615022565b6040517fc57d5fe90000000000000000000000000000000000000000000000000000000081526001600160a01b038581166004830152868116602483015260448201859052919091169063c57d5fe990606401600060405180830381600087803b15801561458557600080fd5b505af1158015614599573d6000803e3d6000fd5b50600198975050505050505050565b60008181526001830160205260408120541515611af4565b6000611af48383614628565b60608160000180548060200260200160405190810160405280929190818152602001828054801561461c57602002820191906000526020600020905b815481526020019060010190808311614608575b50505050509050919050565b6000818152600183016020526040812054801561473b57600061464c600183615642565b855490915060009061466090600190615642565b90508181146146e157600086600001828154811061468e57634e487b7160e01b600052603260045260246000fd5b90600052602060002001549050808760000184815481106146bf57634e487b7160e01b600052603260045260246000fd5b6000918252602080832090910192909255918252600188019052604090208390555b855486908061470057634e487b7160e01b600052603160045260246000fd5b6001900381819060005260206000200160009055905585600101600086815260200190815260200160002060009055600193505050506104db565b60009150506104db565b600081815260018301602052604081205461478c575081546001818101845560008481526020808220909301849055845484825282860190935260409020919091556104db565b5060006104db565b81602001511561484a5781606001516001600160a01b0316635e5eb01384835a86516147c09190615642565b60408088015190517fffffffff0000000000000000000000000000000000000000000000000000000060e087901b1681526001600160a01b03948516600482015293909216602484015260448301526064820152608401600060405180830381600087803b15801561483157600080fd5b505af1158015614845573d6000803e3d6000fd5b505050505b826001600160a01b031663d4f7af436040518163ffffffff1660e01b8152600401600060405180830381600087803b15801561488557600080fd5b505af1158015614899573d6000803e3d6000fd5b50505050505050565b604051634941d71d60e11b81527feee23dc9ab95b6666db01c2b6cae6a5ef706099a25926e21e0a2e043fe885604600482015260009081906001600160a01b03851690639283ae3a9060240160206040518083038186803b15801561490657600080fd5b505afa15801561491a573d6000803e3d6000fd5b505050506040513d601f19601f8201168201806040525081019061493e91906152de565b604051634941d71d60e11b81527fd093d4a34a12a221b19c0a6689d5449f1346aa769d15cca4e9782c36fda9339a60048201529091506000906001600160a01b03861690639283ae3a9060240160206040518083038186803b1580156149a357600080fd5b505afa1580156149b7573d6000803e3d6000fd5b505050506040513d601f19601f820116820180604052508101906149db91906152de565b6040516317ba7d8560e01b81527f8f5b4aabbdb8527d420a29cc90ae207773ad49b73c632c3cfd2f29eb8776f2ea60048201529091506000906001600160a01b038716906317ba7d859060240160206040518083038186803b158015614a4057600080fd5b505afa158015614a54573d6000803e3d6000fd5b505050506040513d601f19601f82011682018060405250810190614a789190615022565b604051632c9f4b5b60e11b81527f3909e87234f428ccb8748126e2c93f66a62f92a70d315fa5803dec6362be07ab60048201529091506000906001600160a01b0388169063593e96b69060240160206040518083038186803b158015614add57600080fd5b505afa158015614af1573d6000803e3d6000fd5b505050506040513d601f19601f82011682018060405250810190614b159190615022565b6040516370a0823160e01b815261decd60048201526001600160a01b0391909116906370a082319060240160206040518083038186803b158015614b5857600080fd5b505afa158015614b6c573d6000803e3d6000fd5b505050506040513d601f19601f82011682018060405250810190614b9091906152de565b11158015614c12575060405163288c314960e21b81526001600160a01b03868116600483015287169063a230c5249060240160206040518083038186803b158015614bda57600080fd5b505afa158015614bee573d6000803e3d6000fd5b505050506040513d601f19601f82011682018060405250810190614c12919061519e565b15614c2357600193505050506104db565b8160011415614d4057600083614cd057604051633de222bb60e21b81526001600160a01b0388811660048301528781166024830152670de0b6b3a7640000919084169063f7888aec9060440160206040518083038186803b158015614c8757600080fd5b505afa158015614c9b573d6000803e3d6000fd5b505050506040513d601f19601f82011682018060405250810190614cbf91906152de565b614cc9919061562e565b9050614cdd565b60009450505050506104db565b60008111614cf25760009450505050506104db565b677fffffffffffffff8110614d0e5760329450505050506104db565b6000614d29614d24614d1f84614eaa565b614ec8565b614fca565b67ffffffffffffffff1695506104db945050505050565b8160021415614df557600083614cd057604051633de222bb60e21b81526001600160a01b03888116600483015287811660248301526000919084169063f7888aec9060440160206040518083038186803b158015614d9d57600080fd5b505afa158015614db1573d6000803e3d6000fd5b505050506040513d601f19601f82011682018060405250810190614dd591906152de565b11614de1576000614de4565b60015b60ff1690505b93506104db92505050565b81614e9e57600083614cd057604051633de222bb60e21b81526001600160a01b0388811660048301528781166024830152670de0b6b3a7640000919084169063f7888aec9060440160206040518083038186803b158015614e5557600080fd5b505afa158015614e69573d6000803e3d6000fd5b505050506040513d601f19601f82011682018060405250810190614e8d91906152de565b614e97919061562e565b9050614dea565b600093505050506104db565b6000677fffffffffffffff821115614ec157600080fd5b5060401b90565b60008082600f0b13614ed957600080fd5b6000600f83900b680100000000000000008112614ef8576040918201911d5b6401000000008112614f0c576020918201911d5b620100008112614f1e576010918201911d5b6101008112614f2f576008918201911d5b60108112614f3f576004918201911d5b60048112614f4f576002918201911d5b60028112614f5e576001820191505b7fffffffffffffffffffffffffffffffffffffffffffffffffffffffffffffffc0820160401b600f85900b607f8490031b6780000000000000005b6000811315614fbf5790800260ff81901c8281029390930192607f011c9060011d614f99565b509095945050505050565b60008082600f0b1215614fdc57600080fd5b50600f0b60401d90565b8051614ff18161574a565b919050565b80518015158114614ff157600080fd5b600060208284031215615017578081fd5b8135611af48161574a565b600060208284031215615033578081fd5b8151611af48161574a565b60008060008060808587031215615053578283fd5b843561505e8161574a565b93506020850135925060408501356150758161574a565b915060608501356150858161574a565b939692955090935050565b600080600080608085870312156150a5578384fd5b84356150b08161574a565b93506020850135925060408501356150c78161574a565b9396929550929360600135925050565b600060208083850312156150e9578182fd5b825167ffffffffffffffff80821115615100578384fd5b818501915085601f830112615113578384fd5b81518181111561512557615125615734565b8060051b604051601f19603f8301168101818110858211171561514a5761514a615734565b604052828152858101935084860182860187018a1015615168578788fd5b8795505b838610156151915761517d81614fe6565b85526001959095019493860193860161516c565b5098975050505050505050565b6000602082840312156151af578081fd5b611af482614ff6565b600080604083850312156151ca578182fd5b6151d383614ff6565b9150602083015190509250929050565b600080604083850312156151f5578182fd5b82356152008161574a565b915060208301356152108161574a565b809150509250929050565b60008060006060848603121561522f578283fd5b833561523a8161574a565b9250602084013561524a8161574a565b929592945050506040919091013590565b6000806040838503121561526d578182fd5b82356152788161574a565b946020939093013593505050565b600060208284031215615297578081fd5b815160028110611af4578182fd5b6000806000606084860312156152b9578283fd5b8351600681106152c7578384fd5b602085015160409095015190969495509392505050565b6000602082840312156152ef578081fd5b5051919050565b600581106153065761530661571e565b9052565b600281106153065761530661571e565b7fffffffffffffffff000000000000000000000000000000000000000000000000831681527f476f7665726e6f722d496e23000000000000000000000000000000000000000060088201526000825161537a816014850160208701615659565b919091016014019392505050565b7fffffffffffffffff000000000000000000000000000000000000000000000000831681527f476f7665726e6f722d4f757423000000000000000000000000000000000000006008820152600082516153e8816015850160208701615659565b919091016015019392505050565b6001600160a01b0387811682526020820187905285166040820152606081018490526080810183905260c0810161543060a083018461530a565b979650505050505050565b6001600160a01b03881681526020810187905260e0810161545f60408301886152f6565b6fffffffffffffffffffffffffffffffff861660608301528460808301528360a08301528260c083015298975050505050505050565b6001600160a01b03861681526020810185905260a081016154b960408301866152f6565b6060820193909352608001529392505050565b6020808252825182820181905260009190848201906040850190845b8181101561550d5783516001600160a01b0316835292840192918401916001016154e8565b50909695505050505050565b8881526001600160a01b03888116602083015287166040820152606081018690526080810185905260a08101849052610100810161555a60c08301856152f6565b61556760e083018461530a565b9998505050505050505050565b828152604081016003831061558b5761558b61571e565b8260208301529392505050565b6001600160a01b038416815282602082015260606040820152600082518060608401526155cc816080850160208701615659565b601f01601f191691909101608001949350505050565b60006fffffffffffffffffffffffffffffffff80831681851680830382111561560d5761560d6156f2565b01949350505050565b60008219821115615629576156296156f2565b500190565b60008261563d5761563d615708565b500490565b600082821015615654576156546156f2565b500390565b60005b8381101561567457818101518382015260200161565c565b838111156104c95750506000910152565b60007fffffffffffffffffffffffffffffffffffffffffffffffffffffffffffffffff8214156156b7576156b76156f2565b5060010190565b600060ff821660ff8114156156d5576156d56156f2565b60010192915050565b6000826156ed576156ed615708565b500690565b634e487b7160e01b600052601160045260246000fd5b634e487b7160e01b600052601260045260246000fd5b634e487b7160e01b600052602160045260246000fd5b634e487b7160e01b600052604160045260246000fd5b6001600160a01b038116811461575f57600080fd5b5056fea264697066735822122087572448a0c8bf6a5f971556c855b9075c996f3fb61b70a90fc7f6317a51ada364736f6c63430008040033",
  "linkReferences": {},
  "deployedLinkReferences": {}
}