{
  "_format": "hh-sol-artifact-1",
  "contractName": "CollectiveRedemptionFeeEscrowAdapterContract",
  "sourceName": "contracts/collective/adapters/CollectiveRedemptionFeeEscrowAdapter.sol",
  "abi": [
    {
      "inputs": [],
      "name": "ACCESS_DENIED",
      "type": "error"
    },
    {
      "inputs": [],
      "name": "NO_FUND_WITHDRAW",
      "type": "error"
    },
    {
      "inputs": [],
      "name": "WITHDRAW_ALREADY",
      "type": "error"
    },
    {
      "anonymous": false,
      "inputs": [
        {
          "indexed": false,
          "internalType": "address",
          "name": "dao",
          "type": "address"
        },
        {
          "indexed": false,
          "internalType": "address",
          "name": "tokenAddr",
          "type": "address"
        },
        {
          "indexed": false,
          "internalType": "uint256",
          "name": "amount",
          "type": "uint256"
        }
      ],
      "name": "EscrowFund",
      "type": "event"
    },
    {
      "anonymous": false,
      "inputs": [
        {
          "indexed": false,
          "internalType": "address",
          "name": "dao",
          "type": "address"
        },
        {
          "indexed": false,
          "internalType": "address",
          "name": "tokenAddr",
          "type": "address"
        },
        {
          "indexed": false,
          "internalType": "uint256",
          "name": "amount",
          "type": "uint256"
        }
      ],
      "name": "Withdraw",
      "type": "event"
    },
    {
      "inputs": [
        {
          "internalType": "contract DaoRegistry",
          "name": "dao",
          "type": "address"
        },
        {
          "internalType": "uint256",
          "name": "blockNum",
          "type": "uint256"
        },
        {
          "internalType": "address",
          "name": "tokenAddr",
          "type": "address"
        },
        {
          "internalType": "uint256",
          "name": "amount",
          "type": "uint256"
        }
      ],
      "name": "escrowRedemptionFee",
      "outputs": [],
      "stateMutability": "nonpayable",
      "type": "function"
    },
    {
      "inputs": [
        {
          "internalType": "address",
          "name": "",
          "type": "address"
        },
        {
          "internalType": "uint256",
          "name": "",
          "type": "uint256"
        }
      ],
      "name": "escrowedRedemptionFeeByBlockNum",
      "outputs": [
        {
          "internalType": "uint256",
          "name": "",
          "type": "uint256"
        }
      ],
      "stateMutability": "view",
      "type": "function"
    },
    {
      "inputs": [
        {
          "internalType": "address",
          "name": "",
          "type": "address"
        },
        {
          "internalType": "address",
          "name": "",
          "type": "address"
        }
      ],
      "name": "escrowedRedemptionFees",
      "outputs": [
        {
          "internalType": "uint256",
          "name": "",
          "type": "uint256"
        }
      ],
      "stateMutability": "view",
      "type": "function"
    },
    {
      "inputs": [
        {
          "internalType": "contract DaoRegistry",
          "name": "dao",
          "type": "address"
        },
        {
          "internalType": "address",
          "name": "tokenAddr",
          "type": "address"
        }
      ],
      "name": "getBlockNumByTokenAddr",
      "outputs": [
        {
          "internalType": "uint256[]",
          "name": "",
          "type": "uint256[]"
        }
      ],
      "stateMutability": "view",
      "type": "function"
    },
    {
      "inputs": [
        {
          "internalType": "contract DaoRegistry",
          "name": "dao",
          "type": "address"
        },
        {
          "internalType": "address",
          "name": "tokenAddr",
          "type": "address"
        },
        {
          "internalType": "address",
          "name": "account",
          "type": "address"
        }
      ],
      "name": "getRedemptionFeeAmount",
      "outputs": [
        {
          "internalType": "uint256",
          "name": "",
          "type": "uint256"
        }
      ],
      "stateMutability": "view",
      "type": "function"
    },
    {
      "inputs": [
        {
          "internalType": "contract DaoRegistry",
          "name": "dao",
          "type": "address"
        },
        {
          "internalType": "address",
          "name": "tokenAddr",
          "type": "address"
        }
      ],
      "name": "withDrawRedemptionFee",
      "outputs": [],
      "stateMutability": "nonpayable",
      "type": "function"
    },
    {
      "inputs": [
        {
          "internalType": "address",
          "name": "",
          "type": "address"
        },
        {
          "internalType": "address",
          "name": "",
          "type": "address"
        },
        {
          "internalType": "address",
          "name": "",
          "type": "address"
        }
      ],
      "name": "withdrawAmount",
      "outputs": [
        {
          "internalType": "uint256",
          "name": "",
          "type": "uint256"
        }
      ],
      "stateMutability": "view",
      "type": "function"
    }
  ],
  "bytecode": "0x608060405234801561001057600080fd5b506110c6806100206000396000f3fe608060405234801561001057600080fd5b506004361061007d5760003560e01c8063dfdd0ce81161005b578063dfdd0ce8146100f9578063e24fc67014610121578063e5509c0014610152578063ece0c17a1461016557600080fd5b806374ef9d2614610082578063871c2237146100ab578063a3ae0539146100c0575b600080fd5b610095610090366004610e38565b610178565b6040516100a29190610ef1565b60405180910390f35b6100be6100b9366004610e5e565b6101b2565b005b6100eb6100ce366004610ded565b600160209081526000928352604080842090915290825290205481565b6040519081526020016100a2565b6100eb610107366004610d6b565b600060208181529281526040808220909352908152205481565b6100eb61012f366004610da3565b600360209081526000938452604080852082529284528284209052825290205481565b6100eb610160366004610e4a565b61042c565b6100be610173366004610e38565b6107f9565b6001600160a01b0380831660009081526004602090815260408083209385168352929052206060906101a99061096c565b90505b92915050565b6040517f17ba7d850000000000000000000000000000000000000000000000000000000081527f8f5b4aabbdb8527d420a29cc90ae207773ad49b73c632c3cfd2f29eb8776f2ea60048201526001600160a01b038516906317ba7d859060240160206040518083038186803b15801561022a57600080fd5b505afa15801561023e573d6000803e3d6000fd5b505050506040513d601f19601f820116820180604052508101906102629190610d4f565b6001600160a01b0316336001600160a01b0316146102ac576040517f95383ea100000000000000000000000000000000000000000000000000000000815260040160405180910390fd5b6040805180820182526001600160a01b03848116825260208083018581528883166000818152600284528681208a82528452868120955186547fffffffffffffffffffffffff0000000000000000000000000000000000000000169516949094178555905160019485015582529182528281208682529091529081208054839290610338908490610f86565b90915550506001600160a01b0380851660009081526020818152604080832093861683529290529081208054839290610372908490610f86565b90915550506001600160a01b0380851660009081526004602090815260408083209386168352929052206103a69084610979565b6103db576001600160a01b0380851660009081526004602090815260408083209386168352929052206103d99084610991565b505b604080516001600160a01b038087168252841660208201529081018290527fa5b745e757d5751df8061a2511b998d3cf55ba56a65d9f8253bc5130bc82eb9c9060600160405180910390a150505050565b6040517f593e96b60000000000000000000000000000000000000000000000000000000081527f3909e87234f428ccb8748126e2c93f66a62f92a70d315fa5803dec6362be07ab600482015260009081906001600160a01b0386169063593e96b69060240160206040518083038186803b1580156104a957600080fd5b505afa1580156104bd573d6000803e3d6000fd5b505050506040513d601f19601f820116820180604052508101906104e19190610d4f565b6001600160a01b0380871660009081526004602090815260408083209389168352929052908120919250906105159061096c565b9050600080825111156107b25760005b82518160ff1610156107b0576000846001600160a01b031663faaf38b3888a878660ff168151811061056757634e487b7160e01b600052603260045260246000fd5b60209081029190910101516040517fffffffff0000000000000000000000000000000000000000000000000000000060e086901b1681526001600160a01b039384166004820152929091166024830152604482015260640160206040518083038186803b1580156105d757600080fd5b505afa1580156105eb573d6000803e3d6000fd5b505050506040513d601f19601f8201168201806040525081019061060f9190610ea5565b6fffffffffffffffffffffffffffffffff1690506000856001600160a01b031663faaf38b361decd8b888760ff168151811061065b57634e487b7160e01b600052603260045260246000fd5b60209081029190910101516040517fffffffff0000000000000000000000000000000000000000000000000000000060e086901b1681526001600160a01b039384166004820152929091166024830152604482015260640160206040518083038186803b1580156106cb57600080fd5b505afa1580156106df573d6000803e3d6000fd5b505050506040513d601f19601f820116820180604052508101906107039190610ea5565b6fffffffffffffffffffffffffffffffff1690506000811561078e576001600160a01b038b1660009081526001602052604081208751849290899060ff891690811061075f57634e487b7160e01b600052603260045260246000fd5b6020026020010151815260200190815260200160002054846107819190610fbe565b61078b9190610f9e565b90505b6107988186610f86565b945050505080806107a890611042565b915050610525565b505b6001600160a01b0380881660009081526003602090815260408083208a851684528252808320938916835292905220546107ec9082610ffb565b93505050505b9392505050565b6001600160a01b0380831660009081526003602090815260408083209385168352928152828220338352905220541561085e576040517f90e77a2200000000000000000000000000000000000000000000000000000000815260040160405180910390fd5b600061086b83833361042c565b9050600081116108a7576040517ffc059ee100000000000000000000000000000000000000000000000000000000815260040160405180910390fd5b6108bb6001600160a01b038316338361099d565b6001600160a01b03808416600090815260208181526040808320938616835292905290812080548392906108f0908490610ffb565b90915550506001600160a01b03838116600081815260036020908152604080832094871680845294825280832033845282529182902085905581519283528201929092529081018290527f9b1bfa7fa9ee420a16e124f794c35ac9f90472acc99140eb2f6447c714cad8eb9060600160405180910390a1505050565b606060006107f283610a22565b600081815260018301602052604081205415156101a9565b60006101a98383610a7e565b604080516001600160a01b038416602482015260448082018490528251808303909101815260649091019091526020810180517bffffffffffffffffffffffffffffffffffffffffffffffffffffffff167fa9059cbb00000000000000000000000000000000000000000000000000000000179052610a1d908490610acd565b505050565b606081600001805480602002602001604051908101604052809291908181526020018280548015610a7257602002820191906000526020600020905b815481526020019060010190808311610a5e575b50505050509050919050565b6000818152600183016020526040812054610ac5575081546001818101845560008481526020808220909301849055845484825282860190935260409020919091556101ac565b5060006101ac565b6000610b22826040518060400160405280602081526020017f5361666545524332303a206c6f772d6c6576656c2063616c6c206661696c6564815250856001600160a01b0316610bb79092919063ffffffff16565b805190915015610a1d5780806020019051810190610b409190610e18565b610a1d5760405162461bcd60e51b815260206004820152602a60248201527f5361666545524332303a204552433230206f7065726174696f6e20646964206e60448201527f6f7420737563636565640000000000000000000000000000000000000000000060648201526084015b60405180910390fd5b6060610bc68484600085610bce565b949350505050565b606082471015610c465760405162461bcd60e51b815260206004820152602660248201527f416464726573733a20696e73756666696369656e742062616c616e636520666f60448201527f722063616c6c00000000000000000000000000000000000000000000000000006064820152608401610bae565b6001600160a01b0385163b610c9d5760405162461bcd60e51b815260206004820152601d60248201527f416464726573733a2063616c6c20746f206e6f6e2d636f6e74726163740000006044820152606401610bae565b600080866001600160a01b03168587604051610cb99190610ed5565b60006040518083038185875af1925050503d8060008114610cf6576040519150601f19603f3d011682016040523d82523d6000602084013e610cfb565b606091505b5091509150610d0b828286610d16565b979650505050505050565b60608315610d255750816107f2565b825115610d355782518084602001fd5b8160405162461bcd60e51b8152600401610bae9190610f35565b600060208284031215610d60578081fd5b81516107f281611078565b60008060408385031215610d7d578081fd5b8235610d8881611078565b91506020830135610d9881611078565b809150509250929050565b600080600060608486031215610db7578081fd5b8335610dc281611078565b92506020840135610dd281611078565b91506040840135610de281611078565b809150509250925092565b60008060408385031215610dff578182fd5b8235610e0a81611078565b946020939093013593505050565b600060208284031215610e29578081fd5b815180151581146107f2578182fd5b60008060408385031215610d7d578182fd5b600080600060608486031215610db7578283fd5b60008060008060808587031215610e73578081fd5b8435610e7e81611078565b9350602085013592506040850135610e9581611078565b9396929550929360600135925050565b600060208284031215610eb6578081fd5b81516fffffffffffffffffffffffffffffffff811681146107f2578182fd5b60008251610ee7818460208701611012565b9190910192915050565b6020808252825182820181905260009190848201906040850190845b81811015610f2957835183529284019291840191600101610f0d565b50909695505050505050565b6020815260008251806020840152610f54816040850160208701611012565b601f017fffffffffffffffffffffffffffffffffffffffffffffffffffffffffffffffe0169190910160400192915050565b60008219821115610f9957610f99611062565b500190565b600082610fb957634e487b7160e01b81526012600452602481fd5b500490565b6000817fffffffffffffffffffffffffffffffffffffffffffffffffffffffffffffffff0483118215151615610ff657610ff6611062565b500290565b60008282101561100d5761100d611062565b500390565b60005b8381101561102d578181015183820152602001611015565b8381111561103c576000848401525b50505050565b600060ff821660ff81141561105957611059611062565b60010192915050565b634e487b7160e01b600052601160045260246000fd5b6001600160a01b038116811461108d57600080fd5b5056fea2646970667358221220a90ef43eb84e9a3824bcf816789b5b701b38b7fb104a1213625f3aee8a765caa64736f6c63430008040033",
  "linkReferences": {},
  "deployedLinkReferences": {}
}