{
  "_format": "hh-sol-artifact-1",
  "contractName": "ColletiveFundingPoolAdapterContract",
  "sourceName": "contracts/collective/adapters/CollectiveFundingPoolAdapter.sol",
  "abi": [
    {
      "inputs": [],
      "name": "EXECUTED_ALREADY",
      "type": "error"
    },
    {
      "inputs": [],
      "name": "FUNDRAISE_ENDTIME_NOT_UP",
      "type": "error"
    },
    {
      "inputs": [],
      "name": "INVESTMENT_GRACE_PERIOD",
      "type": "error"
    },
    {
      "inputs": [],
      "name": "MAX_PATICIPANT_AMOUNT_REACH",
      "type": "error"
    },
    {
      "anonymous": false,
      "inputs": [
        {
          "indexed": false,
          "internalType": "address",
          "name": "daoAddress",
          "type": "address"
        },
        {
          "indexed": false,
          "internalType": "uint256",
          "name": "escrowAmount",
          "type": "uint256"
        },
        {
          "indexed": false,
          "internalType": "address",
          "name": "executer",
          "type": "address"
        }
      ],
      "name": "ClearFund",
      "type": "event"
    },
    {
      "anonymous": false,
      "inputs": [
        {
          "indexed": false,
          "internalType": "address",
          "name": "daoAddress",
          "type": "address"
        },
        {
          "indexed": false,
          "internalType": "uint256",
          "name": "amount",
          "type": "uint256"
        },
        {
          "indexed": false,
          "internalType": "address",
          "name": "account",
          "type": "address"
        }
      ],
      "name": "Deposit",
      "type": "event"
    },
    {
      "anonymous": false,
      "inputs": [
        {
          "indexed": false,
          "internalType": "address",
          "name": "daoAddress",
          "type": "address"
        },
        {
          "indexed": false,
          "internalType": "address",
          "name": "account",
          "type": "address"
        },
        {
          "indexed": false,
          "internalType": "uint256",
          "name": "receivedAmount",
          "type": "uint256"
        }
      ],
      "name": "DistributeRedemptionFee",
      "type": "event"
    },
    {
      "anonymous": false,
      "inputs": [
        {
          "indexed": false,
          "internalType": "address",
          "name": "daoAddress",
          "type": "address"
        },
        {
          "indexed": false,
          "internalType": "enum ColletiveFundingPoolAdapterContract.FundState",
          "name": "state",
          "type": "uint8"
        },
        {
          "indexed": false,
          "internalType": "uint256",
          "name": "totalRaised",
          "type": "uint256"
        }
      ],
      "name": "ProcessFundRaise",
      "type": "event"
    },
    {
      "anonymous": false,
      "inputs": [
        {
          "indexed": false,
          "internalType": "address",
          "name": "daoAddress",
          "type": "address"
        },
        {
          "indexed": false,
          "internalType": "address",
          "name": "account",
          "type": "address"
        },
        {
          "indexed": false,
          "internalType": "uint256",
          "name": "amount",
          "type": "uint256"
        },
        {
          "indexed": false,
          "internalType": "uint256",
          "name": "redemptionFee",
          "type": "uint256"
        }
      ],
      "name": "RedeptionFeeCharged",
      "type": "event"
    },
    {
      "anonymous": false,
      "inputs": [
        {
          "indexed": false,
          "internalType": "address",
          "name": "daoAddress",
          "type": "address"
        },
        {
          "indexed": false,
          "internalType": "uint256",
          "name": "amount",
          "type": "uint256"
        },
        {
          "indexed": false,
          "internalType": "address",
          "name": "account",
          "type": "address"
        }
      ],
      "name": "WithDraw",
      "type": "event"
    },
    {
      "inputs": [
        {
          "internalType": "address",
          "name": "",
          "type": "address"
        }
      ],
      "name": "accumulateRaiseAmount",
      "outputs": [
        {
          "internalType": "uint256",
          "name": "",
          "type": "uint256"
        }
      ],
      "stateMutability": "view",
      "type": "function"
    },
    {
      "inputs": [
        {
          "internalType": "contract DaoRegistry",
          "name": "dao",
          "type": "address"
        },
        {
          "internalType": "address",
          "name": "investorAddr",
          "type": "address"
        }
      ],
      "name": "balanceOf",
      "outputs": [
        {
          "internalType": "uint256",
          "name": "",
          "type": "uint256"
        }
      ],
      "stateMutability": "view",
      "type": "function"
    },
    {
      "inputs": [
        {
          "internalType": "contract DaoRegistry",
          "name": "dao",
          "type": "address"
        },
        {
          "internalType": "address",
          "name": "token",
          "type": "address"
        },
        {
          "internalType": "address",
          "name": "investorAddr",
          "type": "address"
        }
      ],
      "name": "balanceOfToken",
      "outputs": [
        {
          "internalType": "uint256",
          "name": "",
          "type": "uint256"
        }
      ],
      "stateMutability": "view",
      "type": "function"
    },
    {
      "inputs": [
        {
          "internalType": "contract DaoRegistry",
          "name": "dao",
          "type": "address"
        }
      ],
      "name": "clearFund",
      "outputs": [],
      "stateMutability": "nonpayable",
      "type": "function"
    },
    {
      "inputs": [
        {
          "internalType": "contract DaoRegistry",
          "name": "dao",
          "type": "address"
        },
        {
          "internalType": "uint256",
          "name": "amount",
          "type": "uint256"
        }
      ],
      "name": "deposit",
      "outputs": [],
      "stateMutability": "nonpayable",
      "type": "function"
    },
    {
      "inputs": [
        {
          "internalType": "address",
          "name": "",
          "type": "address"
        },
        {
          "internalType": "bytes32",
          "name": "",
          "type": "bytes32"
        }
      ],
      "name": "freeINPriorityDeposits",
      "outputs": [
        {
          "internalType": "uint256",
          "name": "",
          "type": "uint256"
        }
      ],
      "stateMutability": "view",
      "type": "function"
    },
    {
      "inputs": [
        {
          "internalType": "address",
          "name": "",
          "type": "address"
        },
        {
          "internalType": "bytes32",
          "name": "",
          "type": "bytes32"
        }
      ],
      "name": "fundRaisedByProposalId",
      "outputs": [
        {
          "internalType": "uint256",
          "name": "",
          "type": "uint256"
        }
      ],
      "stateMutability": "view",
      "type": "function"
    },
    {
      "inputs": [
        {
          "internalType": "address",
          "name": "",
          "type": "address"
        }
      ],
      "name": "fundState",
      "outputs": [
        {
          "internalType": "enum ColletiveFundingPoolAdapterContract.FundState",
          "name": "",
          "type": "uint8"
        }
      ],
      "stateMutability": "view",
      "type": "function"
    },
    {
      "inputs": [
        {
          "internalType": "contract DaoRegistry",
          "name": "dao",
          "type": "address"
        }
      ],
      "name": "getAllInvestors",
      "outputs": [
        {
          "internalType": "address[]",
          "name": "",
          "type": "address[]"
        }
      ],
      "stateMutability": "view",
      "type": "function"
    },
    {
      "inputs": [
        {
          "internalType": "contract DaoRegistry",
          "name": "dao",
          "type": "address"
        },
        {
          "internalType": "uint256",
          "name": "timestamp",
          "type": "uint256"
        }
      ],
      "name": "ifInRedemptionPeriod",
      "outputs": [
        {
          "internalType": "bool",
          "name": "",
          "type": "bool"
        }
      ],
      "stateMutability": "view",
      "type": "function"
    },
    {
      "inputs": [
        {
          "internalType": "address",
          "name": "",
          "type": "address"
        },
        {
          "internalType": "bytes32",
          "name": "",
          "type": "bytes32"
        },
        {
          "internalType": "address",
          "name": "",
          "type": "address"
        }
      ],
      "name": "investorsDepositAmountByFundRaise",
      "outputs": [
        {
          "internalType": "uint256",
          "name": "",
          "type": "uint256"
        }
      ],
      "stateMutability": "view",
      "type": "function"
    },
    {
      "inputs": [
        {
          "internalType": "contract DaoRegistry",
          "name": "dao",
          "type": "address"
        }
      ],
      "name": "poolBalance",
      "outputs": [
        {
          "internalType": "uint256",
          "name": "",
          "type": "uint256"
        }
      ],
      "stateMutability": "view",
      "type": "function"
    },
    {
      "inputs": [
        {
          "internalType": "contract DaoRegistry",
          "name": "dao",
          "type": "address"
        }
      ],
      "name": "processFundRaise",
      "outputs": [
        {
          "internalType": "bool",
          "name": "",
          "type": "bool"
        }
      ],
      "stateMutability": "nonpayable",
      "type": "function"
    },
    {
      "inputs": [],
      "name": "protocolFee",
      "outputs": [
        {
          "internalType": "uint256",
          "name": "",
          "type": "uint256"
        }
      ],
      "stateMutability": "view",
      "type": "function"
    },
    {
      "inputs": [
        {
          "internalType": "contract DaoRegistry",
          "name": "dao",
          "type": "address"
        }
      ],
      "name": "resetFundRaiseState",
      "outputs": [],
      "stateMutability": "nonpayable",
      "type": "function"
    },
    {
      "inputs": [
        {
          "internalType": "address",
          "name": "",
          "type": "address"
        }
      ],
      "name": "resetFundStateBlockNum",
      "outputs": [
        {
          "internalType": "uint256",
          "name": "",
          "type": "uint256"
        }
      ],
      "stateMutability": "view",
      "type": "function"
    },
    {
      "inputs": [
        {
          "internalType": "contract DaoRegistry",
          "name": "dao",
          "type": "address"
        },
        {
          "internalType": "address",
          "name": "account",
          "type": "address"
        }
      ],
      "name": "returnFundToQuitGovernor",
      "outputs": [
        {
          "internalType": "bool",
          "name": "",
          "type": "bool"
        }
      ],
      "stateMutability": "nonpayable",
      "type": "function"
    },
    {
      "inputs": [
        {
          "internalType": "contract DaoRegistry",
          "name": "dao",
          "type": "address"
        },
        {
          "internalType": "uint256",
          "name": "feeProtocol",
          "type": "uint256"
        }
      ],
      "name": "setProtocolFee",
      "outputs": [],
      "stateMutability": "nonpayable",
      "type": "function"
    },
    {
      "inputs": [
        {
          "internalType": "contract DaoRegistry",
          "name": "dao",
          "type": "address"
        },
        {
          "internalType": "address",
          "name": "token",
          "type": "address"
        },
        {
          "internalType": "address",
          "name": "account",
          "type": "address"
        },
        {
          "internalType": "uint256",
          "name": "amount",
          "type": "uint256"
        }
      ],
      "name": "topupFunds",
      "outputs": [],
      "stateMutability": "nonpayable",
      "type": "function"
    },
    {
      "inputs": [
        {
          "internalType": "contract DaoRegistry",
          "name": "dao",
          "type": "address"
        },
        {
          "internalType": "address",
          "name": "token",
          "type": "address"
        },
        {
          "internalType": "address",
          "name": "account",
          "type": "address"
        },
        {
          "internalType": "uint256",
          "name": "amount",
          "type": "uint256"
        }
      ],
      "name": "transferFromNewGovernor",
      "outputs": [
        {
          "internalType": "bool",
          "name": "",
          "type": "bool"
        }
      ],
      "stateMutability": "nonpayable",
      "type": "function"
    },
    {
      "inputs": [
        {
          "internalType": "contract DaoRegistry",
          "name": "dao",
          "type": "address"
        },
        {
          "internalType": "uint256",
          "name": "amount",
          "type": "uint256"
        }
      ],
      "name": "withdraw",
      "outputs": [],
      "stateMutability": "nonpayable",
      "type": "function"
    }
  ],
  "bytecode": "0x6080604052660aa87bee53800060085534801561001b57600080fd5b50615b82806200002c6000396000f3fe608060405234801561001057600080fd5b50600436106101775760003560e01c80638fbc7eb0116100d8578063b5b3ca2c1161008c578063f3fef3a311610066578063f3fef3a31461036e578063f5a9b5d914610381578063f7888aec146103ac57600080fd5b8063b5b3ca2c14610335578063b9bf313614610348578063f10e6b6b1461035b57600080fd5b8063a2d165d2116100bd578063a2d165d2146102f9578063b09364521461030c578063b0e21e8a1461032c57600080fd5b80638fbc7eb0146102d357806396609c42146102e657600080fd5b806350d9e6881161012f57806381227bf11161011457806381227bf11461026457806383cffffe14610295578063861f6752146102a857600080fd5b806350d9e6881461023157806368abb5e01461025157600080fd5b80633a844ec0116101605780633a844ec0146101e357806342bb30791461020957806347e7ef241461021c57600080fd5b80630c916bae1461017c5780631c0ecc7f146101b5575b600080fd5b61019f61018a3660046156e3565b60036020526000908152604090205460ff1681565b6040516101ac9190615a4e565b60405180910390f35b6101d56101c33660046156e3565b60056020526000908152604090205481565b6040519081526020016101ac565b6101f96101f1366004615972565b600092915050565b60405190151581526020016101ac565b6101f9610217366004615922565b6103bf565b61022f61022a366004615972565b6108b6565b005b61024461023f3660046156e3565b611a86565b6040516101ac9190615a01565b6101d561025f3660046156e3565b611ab0565b6101d5610272366004615746565b600260209081526000938452604080852082529284528284209052825290205481565b61022f6102a33660046156e3565b611bcf565b6101d56102b636600461571b565b600660209081526000928352604080842090915290825290205481565b6101d56102e13660046158e3565b612385565b6101f96102f43660046156e3565b6124c8565b6101f96103073660046158ab565b612828565b6101d561031a3660046156e3565b60046020526000908152604090205481565b6101d560085481565b61022f610343366004615972565b612c41565b61022f610356366004615922565b612ca6565b61022f6103693660046156e3565b61320a565b61022f61037c366004615972565b613376565b6101d561038f36600461571b565b600760209081526000928352604080842090915290825290205481565b6101d56103ba3660046158ab565b613d79565b6040516317ba7d8560e01b81527f1a4f1390baec30049008138e650571a3c4374eba88116bc89dc192f2f9295efe60048201526000906001600160a01b038616906317ba7d859060240160206040518083038186803b15801561042157600080fd5b505afa158015610435573d6000803e3d6000fd5b505050506040513d601f19601f8201168201806040525081019061045991906156ff565b6001600160a01b0316336001600160a01b0316146104be5760405162461bcd60e51b815260206004820152600b60248201527f4163636573732044656e7900000000000000000000000000000000000000000060448201526064015b60405180910390fd5b6040516370a0823160e01b81526001600160a01b0384811660048301528391908616906370a082319060240160206040518083038186803b15801561050257600080fd5b505afa158015610516573d6000803e3d6000fd5b505050506040513d601f19601f8201168201806040525081019061053a9190615893565b10806105c55750604051636eb1769f60e11b81526001600160a01b03848116600483015230602483015283919086169063dd62ed3e9060440160206040518083038186803b15801561058b57600080fd5b505afa15801561059f573d6000803e3d6000fd5b505050506040513d601f19601f820116820180604052508101906105c39190615893565b105b156105d2575060006108ae565b6040516323b872dd60e01b81526001600160a01b038481166004830152306024830152604482018490528516906323b872dd90606401602060405180830381600087803b15801561062257600080fd5b505af1158015610636573d6000803e3d6000fd5b505050506040513d601f19601f8201168201806040525081019061065a919061584e565b50604051632c9f4b5b60e11b81527f3909e87234f428ccb8748126e2c93f66a62f92a70d315fa5803dec6362be07ab60048201526001600160a01b038086169163095ea7b39188169063593e96b69060240160206040518083038186803b1580156106c457600080fd5b505afa1580156106d8573d6000803e3d6000fd5b505050506040513d601f19601f820116820180604052508101906106fc91906156ff565b6040516001600160e01b031960e084901b1681526001600160a01b03909116600482015260248101859052604401602060405180830381600087803b15801561074457600080fd5b505af1158015610758573d6000803e3d6000fd5b505050506040513d601f19601f8201168201806040525081019061077c919061584e565b50604051632c9f4b5b60e11b81527f3909e87234f428ccb8748126e2c93f66a62f92a70d315fa5803dec6362be07ab60048201526000906001600160a01b0387169063593e96b69060240160206040518083038186803b1580156107df57600080fd5b505afa1580156107f3573d6000803e3d6000fd5b505050506040513d601f19601f8201168201806040525081019061081791906156ff565b6040517fc57d5fe90000000000000000000000000000000000000000000000000000000081526001600160a01b0386811660048301528781166024830152604482018690529192509082169063c57d5fe990606401600060405180830381600087803b15801561088657600080fd5b505af115801561089a573d6000803e3d6000fd5b505050506108a88685613e92565b60019150505b949350505050565b8160006108c282613fec565b9050600083116109145760405162461bcd60e51b815260206004820152600760248201527f21616d6f756e740000000000000000000000000000000000000000000000000060448201526064016104b5565b61095f6040518060c001604052806000815260200160008152602001600081526020016000815260200160006001600160a01b0316815260200160006001600160a01b031681525090565b6040516317ba7d8560e01b81527f3a06648a49edffe95b8384794dfe9cf3ab34782fab0130b4c91bfd53f3407e6b60048201526001600160a01b038616906317ba7d859060240160206040518083038186803b1580156109be57600080fd5b505afa1580156109d2573d6000803e3d6000fd5b505050506040513d601f19601f820116820180604052508101906109f691906156ff565b6001600160a01b0390811660a0830152604051634941d71d60e11b81527f5fa39c8100b49336846e52d39403e353bf782275f905a885f09224779ff1c924600482015290861690639283ae3a9060240160206040518083038186803b158015610a5e57600080fd5b505afa158015610a72573d6000803e3d6000fd5b505050506040513d601f19601f82011682018060405250810190610a969190615893565b8152604051634941d71d60e11b81527fbdd40865e74210f0a46799ae63462c62010da92014a08cbc32f1d049d0a22c6b60048201526001600160a01b03861690639283ae3a9060240160206040518083038186803b158015610af757600080fd5b505afa158015610b0b573d6000803e3d6000fd5b505050506040513d601f19601f82011682018060405250810190610b2f9190615893565b6020820152604051634941d71d60e11b81527f7e07fb4530796d057ca1d76d83f47aa8629dbb7e942ac28f30ad6f5e9e8d418960048201526001600160a01b03861690639283ae3a9060240160206040518083038186803b158015610b9357600080fd5b505afa158015610ba7573d6000803e3d6000fd5b505050506040513d601f19601f82011682018060405250810190610bcb9190615893565b6040820152602081015115610c2e578060200151841015610c2e5760405162461bcd60e51b815260206004820152601460248201527f3c206d696e206465706f73697420616d6f756e7400000000000000000000000060448201526064016104b5565b805115610e8f578051604051632c9f4b5b60e11b81527f3909e87234f428ccb8748126e2c93f66a62f92a70d315fa5803dec6362be07ab60048201526001600160a01b0387169063593e96b69060240160206040518083038186803b158015610c9657600080fd5b505afa158015610caa573d6000803e3d6000fd5b505050506040513d601f19601f82011682018060405250810190610cce91906156ff565b6001600160a01b031663faaf38b333886001600160a01b031663fd310d297f7fa36390a0e9b8b8004035572fd8345b1128cea12d1763a1baf8fbd4fb7b20276040518263ffffffff1660e01b8152600401610d2b91815260200190565b60206040518083038186803b158015610d4357600080fd5b505afa158015610d57573d6000803e3d6000fd5b505050506040513d601f19601f82011682018060405250810190610d7b91906156ff565b6001600160a01b038a81166000908152600560205260409081902054905160e086901b6001600160e01b0319168152938216600485015291166024830152604482015260640160206040518083038186803b158015610dd957600080fd5b505afa158015610ded573d6000803e3d6000fd5b505050506040513d601f19601f82011682018060405250810190610e119190615984565b6fffffffffffffffffffffffffffffffff16610e2d8733613d79565b610e379190615ad1565b610e419086615a5c565b1115610e8f5760405162461bcd60e51b815260206004820152601460248201527f3e206d6178206465706f73697420616d6f756e7400000000000000000000000060448201526064016104b5565b604051634941d71d60e11b81527fbd04d44792b7dbfe3b50b0f9f2006f7ef449e374a39021cb9bfa7cd0bdd850d7600482015242906001600160a01b03871690639283ae3a9060240160206040518083038186803b158015610ef057600080fd5b505afa158015610f04573d6000803e3d6000fd5b505050506040513d601f19601f82011682018060405250810190610f289190615893565b108015610fcb5750604051634941d71d60e11b81527f533afc15b6312917b5e28e2272ea69d44e5ea8e00d3bd57cada1275c2f14c9e8600482015242906001600160a01b03871690639283ae3a9060240160206040518083038186803b158015610f9157600080fd5b505afa158015610fa5573d6000803e3d6000fd5b505050506040513d601f19601f82011682018060405250810190610fc99190615893565b115b6110175760405162461bcd60e51b815260206004820152601360248201527f2166756e6472616973696e672077696e646f770000000000000000000000000060448201526064016104b5565b604051634941d71d60e11b81527ff301d5aec67a9d816d38f9b645cac1e79a3308ff9803564bbe63a862db82f46b60048201526001600160a01b03861690639283ae3a9060240160206040518083038186803b15801561107657600080fd5b505afa15801561108a573d6000803e3d6000fd5b505050506040513d601f19601f820116820180604052508101906110ae9190615893565b1580156110bf575060008160400151115b1561114f576040808201516001600160a01b038716600090815260046020529190912054856110ed88611ab0565b6110f79190615a5c565b6111019190615ad1565b111561114f5760405162461bcd60e51b815260206004820152601660248201527f3e2046756e647261697365206d617820616d6f756e740000000000000000000060448201526064016104b5565b604051632c9f4b5b60e11b81527f3909e87234f428ccb8748126e2c93f66a62f92a70d315fa5803dec6362be07ab60048201526001600160a01b0386169063593e96b69060240160206040518083038186803b1580156111ae57600080fd5b505afa1580156111c2573d6000803e3d6000fd5b505050506040513d601f19601f820116820180604052508101906111e691906156ff565b6001600160a01b039081166080830152604051634941d71d60e11b81527f69f4ffb3ebcb7809550bddd3e4d449a47e737bf6635bc7a730996643997b0e48600482015290861690639283ae3a9060240160206040518083038186803b15801561124e57600080fd5b505afa158015611262573d6000803e3d6000fd5b505050506040513d601f19601f820116820180604052508101906112869190615893565b600114801561134b5750604051634941d71d60e11b81527fecbde689cc6337d29a750b8b8a8abbfa97427b4ac800ab55be2f2c87311510f260048201526001600160a01b03861690639283ae3a9060240160206040518083038186803b1580156112ef57600080fd5b505afa158015611303573d6000803e3d6000fd5b505050506040513d601f19601f820116820180604052508101906113279190615893565b6001600160a01b0386166000908152602081905260409020611348906142b7565b10155b801561137657506001600160a01b038516600090815260208190526040902061137490336142c1565b155b156113ad576040517ffa088e8a00000000000000000000000000000000000000000000000000000000815260040160405180910390fd5b600081608001516001600160a01b031663a87af66c6040518163ffffffff1660e01b815260040160206040518083038186803b1580156113ec57600080fd5b505afa158015611400573d6000803e3d6000fd5b505050506040513d601f19601f8201168201806040525081019061142491906156ff565b6040516370a0823160e01b815233600482015290915085906001600160a01b038316906370a082319060240160206040518083038186803b15801561146857600080fd5b505afa15801561147c573d6000803e3d6000fd5b505050506040513d601f19601f820116820180604052508101906114a09190615893565b10156114ee5760405162461bcd60e51b815260206004820152600560248201527f2166756e6400000000000000000000000000000000000000000000000000000060448201526064016104b5565b604051636eb1769f60e11b815233600482015230602482015285906001600160a01b0383169063dd62ed3e9060440160206040518083038186803b15801561153557600080fd5b505afa158015611549573d6000803e3d6000fd5b505050506040513d601f19601f8201168201806040525081019061156d9190615893565b10156115bb5760405162461bcd60e51b815260206004820152600a60248201527f21616c6c6f77616e63650000000000000000000000000000000000000000000060448201526064016104b5565b6040516323b872dd60e01b8152336004820152306024820152604481018690526001600160a01b038216906323b872dd90606401602060405180830381600087803b15801561160957600080fd5b505af115801561161d573d6000803e3d6000fd5b505050506040513d601f19601f82011682018060405250810190611641919061584e565b50604051632c9f4b5b60e11b81527f3909e87234f428ccb8748126e2c93f66a62f92a70d315fa5803dec6362be07ab60048201526001600160a01b038083169163095ea7b39189169063593e96b69060240160206040518083038186803b1580156116ab57600080fd5b505afa1580156116bf573d6000803e3d6000fd5b505050506040513d601f19601f820116820180604052508101906116e391906156ff565b6040516001600160e01b031960e084901b1681526001600160a01b03909116600482015260248101889052604401602060405180830381600087803b15801561172b57600080fd5b505af115801561173f573d6000803e3d6000fd5b505050506040513d601f19601f82011682018060405250810190611763919061584e565b5060808201516040517fb08079a6000000000000000000000000000000000000000000000000000000008152336004820152602481018790526001600160a01b039091169063b08079a690604401600060405180830381600087803b1580156117cb57600080fd5b505af11580156117df573d6000803e3d6000fd5b505050506117ed8633613e92565b60a08201516040516301c22a3d60e01b81526001600160a01b03888116600483015260009216906301c22a3d9060240160206040518083038186803b15801561183557600080fd5b505afa158015611849573d6000803e3d6000fd5b505050506040513d601f19601f8201168201806040525081019061186d9190615893565b6001600160a01b0388166000908152600160209081526040808320848452909152902090915061189d90336142c1565b6118d0576001600160a01b038716600090815260016020908152604080832084845290915290206118ce90336142e3565b505b60a08301516040517f6d3cc0400000000000000000000000000000000000000000000000000000000081526001600160a01b0389811660048301526024820184905233604483015290911690636d3cc0409060640160206040518083038186803b15801561193d57600080fd5b505afa158015611951573d6000803e3d6000fd5b505050506040513d601f19601f82011682018060405250810190611975919061584e565b156119b3576001600160a01b0387166000908152600660209081526040808320848452909152812080548892906119ad908490615a5c565b90915550505b6001600160a01b03871660009081526002602090815260408083208484528252808320338452909152812080548892906119ee908490615a5c565b90915550506001600160a01b038716600090815260076020908152604080832084845290915281208054889290611a26908490615a5c565b9091555050604080516001600160a01b038916815260208101889052338183015290517fe31c7b8d08ee7db0afa68782e1028ef92305caeea8626633ad44d413e30f6b2f9181900360600190a1505050611a8082826142f8565b50505050565b6001600160a01b0381166000908152602081905260409020606090611aaa90614303565b92915050565b604051632c9f4b5b60e11b81527f3909e87234f428ccb8748126e2c93f66a62f92a70d315fa5803dec6362be07ab600482015260009081906001600160a01b0384169063593e96b69060240160206040518083038186803b158015611b1457600080fd5b505afa158015611b28573d6000803e3d6000fd5b505050506040513d601f19601f82011682018060405250810190611b4c91906156ff565b6040516370a0823160e01b815261decd60048201529091506001600160a01b038216906370a082319060240160206040518083038186803b158015611b9057600080fd5b505afa158015611ba4573d6000803e3d6000fd5b505050506040513d601f19601f82011682018060405250810190611bc89190615893565b9392505050565b6040516317ba7d8560e01b81527f851d65965a45a40b902ee7de04ff05b19ff7fde56dd486fd3108dc5cd9249f0660048201526001600160a01b038216906317ba7d859060240160206040518083038186803b158015611c2e57600080fd5b505afa158015611c42573d6000803e3d6000fd5b505050506040513d601f19601f82011682018060405250810190611c6691906156ff565b6001600160a01b0316336001600160a01b03161480611c8457503330145b611cd05760405162461bcd60e51b815260206004820152600d60248201527f4163636573732044656e6965640000000000000000000000000000000000000060448201526064016104b5565b6001600160a01b03811660009081526003602081905260409091205460ff1681811115611d0d57634e487b7160e01b600052602160045260246000fd5b148015611daf5750604051634941d71d60e11b81527f533afc15b6312917b5e28e2272ea69d44e5ea8e00d3bd57cada1275c2f14c9e860048201526001600160a01b03821690639283ae3a9060240160206040518083038186803b158015611d7457600080fd5b505afa158015611d88573d6000803e3d6000fd5b505050506040513d601f19601f82011682018060405250810190611dac9190615893565b42115b80611df6575060026001600160a01b03821660009081526003602081905260409091205460ff1690811115611df457634e487b7160e01b600052602160045260246000fd5b145b611e425760405162461bcd60e51b815260206004820152601b60248201527f43616e7420636c65617246756e6420617420746869732074696d65000000000060448201526064016104b5565b604051632c9f4b5b60e11b81527f3909e87234f428ccb8748126e2c93f66a62f92a70d315fa5803dec6362be07ab60048201526000906001600160a01b0383169063593e96b69060240160206040518083038186803b158015611ea457600080fd5b505afa158015611eb8573d6000803e3d6000fd5b505050506040513d601f19601f82011682018060405250810190611edc91906156ff565b90506000816001600160a01b031663a87af66c6040518163ffffffff1660e01b815260040160206040518083038186803b158015611f1957600080fd5b505afa158015611f2d573d6000803e3d6000fd5b505050506040513d601f19601f82011682018060405250810190611f5191906156ff565b6001600160a01b038416600090815260208190526040812091925090611f7690614303565b805190915015611a80576000805b82518160ff16101561231f576000611fc687858460ff1681518110611fb957634e487b7160e01b600052603260045260246000fd5b6020026020010151613d79565b905080156122d8576040516317ba7d8560e01b81527f372fda66f626a705d3a459960a1457403a7c3564acccedc00092ea70262b708360048201526000906001600160a01b038916906317ba7d859060240160206040518083038186803b15801561203057600080fd5b505afa158015612044573d6000803e3d6000fd5b505050506040513d601f19601f8201168201806040525081019061206891906156ff565b9050806001600160a01b03166336896be78988888760ff168151811061209e57634e487b7160e01b600052603260045260246000fd5b60209081029190910101516040516001600160e01b031960e086901b1681526001600160a01b039384166004820152918316602483015291909116604482015260648101859052608401600060405180830381600087803b15801561210257600080fd5b505af1158015612116573d6000803e3d6000fd5b50506040516317ba7d8560e01b81527f372fda66f626a705d3a459960a1457403a7c3564acccedc00092ea70262b708360048201526001600160a01b03808b16935063e176b35e92508b16906317ba7d859060240160206040518083038186803b15801561218357600080fd5b505afa158015612197573d6000803e3d6000fd5b505050506040513d601f19601f820116820180604052508101906121bb91906156ff565b6040516001600160e01b031960e084901b1681526001600160a01b039182166004820152908916602482015260448101859052606401600060405180830381600087803b15801561220b57600080fd5b505af115801561221f573d6000803e3d6000fd5b50505050866001600160a01b031663e3a05cc1868560ff168151811061225557634e487b7160e01b600052603260045260246000fd5b60209081029190910101516040516001600160e01b031960e084901b1681526001600160a01b039182166004820152908916602482015260448101859052606401600060405180830381600087803b1580156122b057600080fd5b505af11580156122c4573d6000803e3d6000fd5b5050505081846122d49190615a5c565b9350505b61230c87858460ff16815181106122ff57634e487b7160e01b600052603260045260246000fd5b6020026020010151614310565b508061231781615ae8565b915050611f84565b506001600160a01b038516600081815260036020908152604091829020805460ff19169055815192835282018390523382820152517f12d0dcfe23709357491021067eb05d73fa0b1f1aeb69310c2071218e089f057f9181900360600190a15050505050565b604051632c9f4b5b60e11b81527f3909e87234f428ccb8748126e2c93f66a62f92a70d315fa5803dec6362be07ab600482015260009081906001600160a01b0386169063593e96b69060240160206040518083038186803b1580156123e957600080fd5b505afa1580156123fd573d6000803e3d6000fd5b505050506040513d601f19601f8201168201806040525081019061242191906156ff565b6040517ff59e38b70000000000000000000000000000000000000000000000000000000081526001600160a01b03858116600483015286811660248301529192509082169063f59e38b79060440160206040518083038186803b15801561248757600080fd5b505afa15801561249b573d6000803e3d6000fd5b505050506040513d601f19601f820116820180604052508101906124bf9190615893565b95945050505050565b604051634941d71d60e11b81527f31af571e53636dddd77f772cce9d30b42075760f2da731636acc6962da2fbef8600482015260009081906001600160a01b03841690639283ae3a9060240160206040518083038186803b15801561252c57600080fd5b505afa158015612540573d6000803e3d6000fd5b505050506040513d601f19601f820116820180604052508101906125649190615893565b604051634941d71d60e11b81527f533afc15b6312917b5e28e2272ea69d44e5ea8e00d3bd57cada1275c2f14c9e860048201529091506000906001600160a01b03851690639283ae3a9060240160206040518083038186803b1580156125c957600080fd5b505afa1580156125dd573d6000803e3d6000fd5b505050506040513d601f19601f820116820180604052508101906126019190615893565b905080421161263c576040517ff082211800000000000000000000000000000000000000000000000000000000815260040160405180910390fd5b60016001600160a01b03851660009081526003602081905260409091205460ff169081111561267b57634e487b7160e01b600052602160045260246000fd5b14156127ec576001600160a01b0384166000908152600460205260408120546126a386611ab0565b6126ad9190615ad1565b90508281106126e7576126bf8561449f565b6001600160a01b0385166000908152600360205260409020805460ff1916600217905561278e565b6001600160a01b03851660009081526003602081905260408220805460ff1916909117905561271586611ab0565b111561278e576040517f83cffffe0000000000000000000000000000000000000000000000000000000081526001600160a01b038616600482015230906383cffffe90602401600060405180830381600087803b15801561277557600080fd5b505af1158015612789573d6000803e3d6000fd5b505050505b6001600160a01b038516600090815260036020526040908190205490517fe9975264b50cb635621ce71b45426b9994cf2bf91f3aa9d73b337a96cf2d7283916127de91889160ff169085906159d6565b60405180910390a15061281e565b6040517ff918bf6c00000000000000000000000000000000000000000000000000000000815260040160405180910390fd5b5060019392505050565b6000806128358484613d79565b1161284257506000611aaa565b6040516317ba7d8560e01b81527f1a4f1390baec30049008138e650571a3c4374eba88116bc89dc192f2f9295efe60048201526001600160a01b038416906317ba7d859060240160206040518083038186803b1580156128a157600080fd5b505afa1580156128b5573d6000803e3d6000fd5b505050506040513d601f19601f820116820180604052508101906128d991906156ff565b6001600160a01b0316336001600160a01b0316146129395760405162461bcd60e51b815260206004820152600b60248201527f4163636573732044656e7900000000000000000000000000000000000000000060448201526064016104b5565b60006129458484613d79565b604051634941d71d60e11b81527f51cc27e85946200c558b984a0c15cad2122655d647f9c02ebe9529f2a0b25a2f6004820152909150600090670de0b6b3a7640000906001600160a01b03871690639283ae3a9060240160206040518083038186803b1580156129b457600080fd5b505afa1580156129c8573d6000803e3d6000fd5b505050506040513d601f19601f820116820180604052508101906129ec9190615893565b6129f69084615a94565b612a009190615a74565b604051632c9f4b5b60e11b81527f3909e87234f428ccb8748126e2c93f66a62f92a70d315fa5803dec6362be07ab60048201529091506000906001600160a01b0387169063593e96b69060240160206040518083038186803b158015612a6557600080fd5b505afa158015612a79573d6000803e3d6000fd5b505050506040513d601f19601f82011682018060405250810190612a9d91906156ff565b90506000816001600160a01b031663a87af66c6040518163ffffffff1660e01b815260040160206040518083038186803b158015612ada57600080fd5b505afa158015612aee573d6000803e3d6000fd5b505050506040513d601f19601f82011682018060405250810190612b1291906156ff565b90506001600160a01b03821663d9caed128783612b2f8789615ad1565b6040516001600160e01b031960e086901b1681526001600160a01b0393841660048201529290911660248301526044820152606401600060405180830381600087803b158015612b7e57600080fd5b505af1158015612b92573d6000803e3d6000fd5b50506040517fe3a05cc10000000000000000000000000000000000000000000000000000000081526001600160a01b0389811660048301528481166024830152604482018890528516925063e3a05cc19150606401600060405180830381600087803b158015612c0157600080fd5b505af1158015612c15573d6000803e3d6000fd5b50505050612c238787614310565b8215612c3457612c34878285615019565b5060019695505050505050565b816000612c4d82613fec565b905083612c5981615296565b6001600160a01b0316336001600160a01b031614612c7657600080fd5b670de0b6b3a764000084108015612c8d5750600084115b612c9657600080fd5b506008839055611a8082826142f8565b6040516317ba7d8560e01b81527f3b4de3360220463b2e1b681516ac7919070009f0544e8465d80dc511828dae5b60048201526001600160a01b038516906317ba7d859060240160206040518083038186803b158015612d0557600080fd5b505afa158015612d19573d6000803e3d6000fd5b505050506040513d601f19601f82011682018060405250810190612d3d91906156ff565b6001600160a01b0316336001600160a01b031614612d9d5760405162461bcd60e51b815260206004820152600b60248201527f4163636573732044656e7900000000000000000000000000000000000000000060448201526064016104b5565b6040516370a0823160e01b81526001600160a01b0383811660048301528291908516906370a082319060240160206040518083038186803b158015612de157600080fd5b505afa158015612df5573d6000803e3d6000fd5b505050506040513d601f19601f82011682018060405250810190612e199190615893565b1015612e675760405162461bcd60e51b815260206004820152601160248201527f696e73756666696369656e742066756e6400000000000000000000000000000060448201526064016104b5565b604051636eb1769f60e11b81526001600160a01b03838116600483015230602483015282919085169063dd62ed3e9060440160206040518083038186803b158015612eb157600080fd5b505afa158015612ec5573d6000803e3d6000fd5b505050506040513d601f19601f82011682018060405250810190612ee99190615893565b1015612f375760405162461bcd60e51b815260206004820152601660248201527f696e73756666696369656e7420616c6c6f77616e63650000000000000000000060448201526064016104b5565b6040516323b872dd60e01b81526001600160a01b038381166004830152306024830152604482018390528416906323b872dd90606401602060405180830381600087803b158015612f8757600080fd5b505af1158015612f9b573d6000803e3d6000fd5b505050506040513d601f19601f82011682018060405250810190612fbf919061584e565b50604051632c9f4b5b60e11b81527f3909e87234f428ccb8748126e2c93f66a62f92a70d315fa5803dec6362be07ab60048201526001600160a01b038085169163095ea7b39187169063593e96b69060240160206040518083038186803b15801561302957600080fd5b505afa15801561303d573d6000803e3d6000fd5b505050506040513d601f19601f8201168201806040525081019061306191906156ff565b6040516001600160e01b031960e084901b1681526001600160a01b03909116600482015260248101849052604401602060405180830381600087803b1580156130a957600080fd5b505af11580156130bd573d6000803e3d6000fd5b505050506040513d601f19601f820116820180604052508101906130e1919061584e565b50604051632c9f4b5b60e11b81527f3909e87234f428ccb8748126e2c93f66a62f92a70d315fa5803dec6362be07ab60048201526000906001600160a01b0386169063593e96b69060240160206040518083038186803b15801561314457600080fd5b505afa158015613158573d6000803e3d6000fd5b505050506040513d601f19601f8201168201806040525081019061317c91906156ff565b6040517fc57d5fe90000000000000000000000000000000000000000000000000000000081526001600160a01b0385811660048301528681166024830152604482018590529192509082169063c57d5fe990606401600060405180830381600087803b1580156131eb57600080fd5b505af11580156131ff573d6000803e3d6000fd5b505050505050505050565b6040516317ba7d8560e01b81527f3a06648a49edffe95b8384794dfe9cf3ab34782fab0130b4c91bfd53f3407e6b60048201526001600160a01b038216906317ba7d859060240160206040518083038186803b15801561326957600080fd5b505afa15801561327d573d6000803e3d6000fd5b505050506040513d601f19601f820116820180604052508101906132a191906156ff565b6001600160a01b0316336001600160a01b0316146133015760405162461bcd60e51b815260206004820152600b60248201527f4163636573732064656e7900000000000000000000000000000000000000000060448201526064016104b5565b6001600160a01b0381166000908152600360205260409020805460ff1916600117905561332d81611ab0565b6001600160a01b03821660009081526004602052604081208054909190613355908490615a5c565b90915550506001600160a01b03166000908152600560205260409020439055565b81600061338282613fec565b6040516317ba7d8560e01b81527f72894213a5c7f56b36b2947fa6ea18963d6bb1a68746b46d7f552cca76e1a7a860048201529091506000906001600160a01b038616906317ba7d859060240160206040518083038186803b1580156133e757600080fd5b505afa1580156133fb573d6000803e3d6000fd5b505050506040513d601f19601f8201168201806040525081019061341f91906156ff565b6040517f4fd194f60000000000000000000000000000000000000000000000000000000081526001600160a01b03878116600483015291925090821690634fd194f69060240160206040518083038186803b15801561347d57600080fd5b505afa158015613491573d6000803e3d6000fd5b505050506040513d601f19601f820116820180604052508101906134b5919061584e565b6134eb576040517f6132398d00000000000000000000000000000000000000000000000000000000815260040160405180910390fd5b604051632c9f4b5b60e11b81527f3909e87234f428ccb8748126e2c93f66a62f92a70d315fa5803dec6362be07ab60048201526000906001600160a01b0387169063593e96b69060240160206040518083038186803b15801561354d57600080fd5b505afa158015613561573d6000803e3d6000fd5b505050506040513d601f19601f8201168201806040525081019061358591906156ff565b90506000816001600160a01b031663a87af66c6040518163ffffffff1660e01b815260040160206040518083038186803b1580156135c257600080fd5b505afa1580156135d6573d6000803e3d6000fd5b505050506040513d601f19601f820116820180604052508101906135fa91906156ff565b905060006136088833613d79565b90506000871161365a5760405162461bcd60e51b815260206004820152600760248201527f21616d6f756e740000000000000000000000000000000000000000000000000060448201526064016104b5565b808711156136aa5760405162461bcd60e51b815260206004820152600860248201527f3e62616c616e636500000000000000000000000000000000000000000000000060448201526064016104b5565b604051634941d71d60e11b81527f51cc27e85946200c558b984a0c15cad2122655d647f9c02ebe9529f2a0b25a2f6004820152600090670de0b6b3a7640000906001600160a01b038b1690639283ae3a9060240160206040518083038186803b15801561371657600080fd5b505afa15801561372a573d6000803e3d6000fd5b505050506040513d601f19601f8201168201806040525081019061374e9190615893565b613758908a615a94565b6137629190615a74565b90506001600160a01b03841663d9caed12338561377f858d615ad1565b6040516001600160e01b031960e086901b1681526001600160a01b0393841660048201529290911660248301526044820152606401600060405180830381600087803b1580156137ce57600080fd5b505af11580156137e2573d6000803e3d6000fd5b50506040517fe3a05cc10000000000000000000000000000000000000000000000000000000081523360048201526001600160a01b038681166024830152604482018c90528716925063e3a05cc19150606401600060405180830381600087803b15801561384f57600080fd5b505af1158015613863573d6000803e3d6000fd5b5050505060006138738a33613d79565b11613882576138828933614310565b801561389357613893898483615019565b6040516317ba7d8560e01b81527f3a06648a49edffe95b8384794dfe9cf3ab34782fab0130b4c91bfd53f3407e6b60048201526000906001600160a01b038b16906317ba7d859060240160206040518083038186803b1580156138f557600080fd5b505afa158015613909573d6000803e3d6000fd5b505050506040513d601f19601f8201168201806040525081019061392d91906156ff565b6040516301c22a3d60e01b81526001600160a01b038c8116600483015291925090821690636d3cc040908c9083906301c22a3d9060240160206040518083038186803b15801561397c57600080fd5b505afa158015613990573d6000803e3d6000fd5b505050506040513d601f19601f820116820180604052508101906139b49190615893565b6040516001600160e01b031960e085901b1681526001600160a01b039092166004830152602482015233604482015260640160206040518083038186803b1580156139fe57600080fd5b505afa158015613a12573d6000803e3d6000fd5b505050506040513d601f19601f82011682018060405250810190613a36919061584e565b8015613ad75750604051634941d71d60e11b81527f533afc15b6312917b5e28e2272ea69d44e5ea8e00d3bd57cada1275c2f14c9e860048201526001600160a01b038b1690639283ae3a9060240160206040518083038186803b158015613a9c57600080fd5b505afa158015613ab0573d6000803e3d6000fd5b505050506040513d601f19601f82011682018060405250810190613ad49190615893565b42105b15613b8e576001600160a01b03808b1660008181526006602052604080822090516301c22a3d60e01b815260048101939093528c939092908516906301c22a3d9060240160206040518083038186803b158015613b3357600080fd5b505afa158015613b47573d6000803e3d6000fd5b505050506040513d601f19601f82011682018060405250810190613b6b9190615893565b81526020019081526020016000206000828254613b889190615ad1565b90915550505b6001600160a01b03808b1660008181526002602052604080822090516301c22a3d60e01b815260048101939093528c939092908516906301c22a3d9060240160206040518083038186803b158015613be557600080fd5b505afa158015613bf9573d6000803e3d6000fd5b505050506040513d601f19601f82011682018060405250810190613c1d9190615893565b81526020019081526020016000206000336001600160a01b03166001600160a01b031681526020019081526020016000206000828254613c5d9190615ad1565b90915550506001600160a01b03808b1660008181526007602052604080822090516301c22a3d60e01b815260048101939093528c939092908516906301c22a3d9060240160206040518083038186803b158015613cb957600080fd5b505afa158015613ccd573d6000803e3d6000fd5b505050506040513d601f19601f82011682018060405250810190613cf19190615893565b81526020019081526020016000206000828254613d0e9190615ad1565b909155507fd432fbc5f79eaeefd01acbebd76cf4b0d5f43d8372c2fd3e23761c06a60a75f190508a613d40848c615ad1565b604080516001600160a01b0390931683526020830191909152339082015260600160405180910390a1505050505050611a8082826142f8565b604051632c9f4b5b60e11b81527f3909e87234f428ccb8748126e2c93f66a62f92a70d315fa5803dec6362be07ab600482015260009081906001600160a01b0385169063593e96b69060240160206040518083038186803b158015613ddd57600080fd5b505afa158015613df1573d6000803e3d6000fd5b505050506040513d601f19601f82011682018060405250810190613e1591906156ff565b6040516370a0823160e01b81526001600160a01b038581166004830152919250908216906370a082319060240160206040518083038186803b158015613e5a57600080fd5b505afa158015613e6e573d6000803e3d6000fd5b505050506040513d601f19601f820116820180604052508101906108ae9190615893565b6001600160a01b0382166000908152602081905260409020613eb490826142c1565b613edc576001600160a01b0382166000908152602081905260409020613eda90826142e3565b505b6040517fa230c5240000000000000000000000000000000000000000000000000000000081526001600160a01b03828116600483015283169063a230c5249060240160206040518083038186803b158015613f3657600080fd5b505afa158015613f4a573d6000803e3d6000fd5b505050506040513d601f19601f82011682018060405250810190613f6e919061584e565b613fe8576040517fdc929f4a0000000000000000000000000000000000000000000000000000000081526001600160a01b03828116600483015283169063dc929f4a906024015b600060405180830381600087803b158015613fcf57600080fd5b505af1158015613fe3573d6000803e3d6000fd5b505050505b5050565b6040805160808101825260008082526020820181905291810182905260608101919091525a81600001818152505043826001600160a01b031663b21634826040518163ffffffff1660e01b815260040160206040518083038186803b15801561405457600080fd5b505afa158015614068573d6000803e3d6000fd5b505050506040513d601f19601f8201168201806040525081019061408c9190615893565b14156140da5760405162461bcd60e51b815260206004820152601060248201527f7265656e7472616e63792067756172640000000000000000000000000000000060448201526064016104b5565b816001600160a01b03166310fdb0a26040518163ffffffff1660e01b8152600401600060405180830381600087803b15801561411557600080fd5b505af1158015614129573d6000803e3d6000fd5b50506040517f72c6838f0000000000000000000000000000000000000000000000000000000081527f1f2fd42ad6a6cacd573c4b212beb7a4e2499ad45d742a65337097f130e71daff6004820152600092506001600160a01b03851691506372c6838f9060240160206040518083038186803b1580156141a857600080fd5b505afa1580156141bc573d6000803e3d6000fd5b505050506040513d601f19601f820116820180604052508101906141e091906156ff565b90506001600160a01b0381166141fc57600060208301526142b1565b6001600160a01b038181166060840181905283516040517f43a8a3f1000000000000000000000000000000000000000000000000000000008152928616600484015260248301526000918291906343a8a3f190604401604080518083038186803b15801561426957600080fd5b505afa15801561427d573d6000803e3d6000fd5b505050506040513d601f19601f820116820180604052508101906142a19190615868565b9015156020860152604085015250505b50919050565b6000611aaa825490565b6001600160a01b03811660009081526001830160205260408120541515611bc8565b6000611bc8836001600160a01b038416615379565b613fe88282336153c8565b60606000611bc8836154be565b6001600160a01b0382166000908152602081905260409020614332908261551a565b506040517fa230c5240000000000000000000000000000000000000000000000000000000081526001600160a01b03828116600483015283169063a230c5249060240160206040518083038186803b15801561438d57600080fd5b505afa1580156143a1573d6000803e3d6000fd5b505050506040513d601f19601f820116820180604052508101906143c5919061584e565b80156144535750806001600160a01b0316826001600160a01b031663149acf9a6040518163ffffffff1660e01b815260040160206040518083038186803b15801561440f57600080fd5b505afa158015614423573d6000803e3d6000fd5b505050506040513d601f19601f8201168201806040525081019061444791906156ff565b6001600160a01b031614155b15613fe8576040517f0b1ca49a0000000000000000000000000000000000000000000000000000000081526001600160a01b038281166004830152831690630b1ca49a90602401613fb5565b6040805161016081018252600080825260208201819052818301819052606082018190526080820181905260a0820181905260c0820181905260e08201819052610100820181905261012082018190526101408201529051634941d71d60e11b81527ff301d5aec67a9d816d38f9b645cac1e79a3308ff9803564bbe63a862db82f46b60048201526001600160a01b03831690639283ae3a9060240160206040518083038186803b15801561455357600080fd5b505afa158015614567573d6000803e3d6000fd5b505050506040513d601f19601f8201168201806040525081019061458b9190615893565b600114801561465a5750604051634941d71d60e11b81527f7e07fb4530796d057ca1d76d83f47aa8629dbb7e942ac28f30ad6f5e9e8d418960048201526001600160a01b03831690639283ae3a9060240160206040518083038186803b1580156145f457600080fd5b505afa158015614608573d6000803e3d6000fd5b505050506040513d601f19601f8201168201806040525081019061462c9190615893565b6001600160a01b03831660009081526004602052604090205461464e84611ab0565b6146589190615ad1565b115b15613fe857604051632c9f4b5b60e11b81527f3909e87234f428ccb8748126e2c93f66a62f92a70d315fa5803dec6362be07ab60048201526001600160a01b0383169063593e96b69060240160206040518083038186803b1580156146be57600080fd5b505afa1580156146d2573d6000803e3d6000fd5b505050506040513d601f19601f820116820180604052508101906146f691906156ff565b6001600160a01b0390811682526040516317ba7d8560e01b81527f3a06648a49edffe95b8384794dfe9cf3ab34782fab0130b4c91bfd53f3407e6b6004820152908316906317ba7d859060240160206040518083038186803b15801561475b57600080fd5b505afa15801561476f573d6000803e3d6000fd5b505050506040513d601f19601f8201168201806040525081019061479391906156ff565b6001600160a01b03908116606083018190526040516301c22a3d60e01b81529184166004830152906301c22a3d9060240160206040518083038186803b1580156147dc57600080fd5b505afa1580156147f0573d6000803e3d6000fd5b505050506040513d601f19601f820116820180604052508101906148149190615893565b61012082019081526001600160a01b03831660009081526001602090815260408083209351835292905290812061484a90614303565b9050600082602001818152505081600001516001600160a01b031663a87af66c6040518163ffffffff1660e01b815260040160206040518083038186803b15801561489457600080fd5b505afa1580156148a8573d6000803e3d6000fd5b505050506040513d601f19601f820116820180604052508101906148cc91906156ff565b6001600160a01b03908116604084810191909152516317ba7d8560e01b81527f4bb6d123745fe9358fe205a70b7a4aae2a445c56d4bc19c9a123a9259ff615a16004820152908416906317ba7d859060240160206040518083038186803b15801561493657600080fd5b505afa15801561494a573d6000803e3d6000fd5b505050506040513d601f19601f8201168201806040525081019061496e91906156ff565b6001600160a01b0390811660a0840152604051634941d71d60e11b81527f7e07fb4530796d057ca1d76d83f47aa8629dbb7e942ac28f30ad6f5e9e8d4189600482015290841690639283ae3a9060240160206040518083038186803b1580156149d657600080fd5b505afa1580156149ea573d6000803e3d6000fd5b505050506040513d601f19601f82011682018060405250810190614a0e9190615893565b60c08301526001600160a01b0383166000818152600660209081526040808320610120870151845282528083205460e0870152928252600490522054614a5384611ab0565b614a5d9190615ad1565b61010083015260005b81518160ff161015611a80576001600160a01b0384166000908152600260209081526040808320610120870151845290915281208351909190849060ff8516908110614ac257634e487b7160e01b600052603260045260246000fd5b60200260200101516001600160a01b03166001600160a01b0316815260200190815260200160002054836101400181815250508260c001518360e0015110614c285782606001516001600160a01b0316636d3cc04085856101200151858560ff1681518110614b4157634e487b7160e01b600052603260045260246000fd5b60200260200101516040518463ffffffff1660e01b8152600401614b85939291906001600160a01b0393841681526020810192909252909116604082015260600190565b60206040518083038186803b158015614b9d57600080fd5b505afa158015614bb1573d6000803e3d6000fd5b505050506040513d601f19601f82011682018060405250810190614bd5919061584e565b15614c18578260e001518360c00151846101400151614bf49190615a94565b614bfe9190615a74565b836101400151614c0e9190615ad1565b6020840152614d63565b6101408301516020840152614d63565b82606001516001600160a01b0316636d3cc04085856101200151858560ff1681518110614c6557634e487b7160e01b600052603260045260246000fd5b60200260200101516040518463ffffffff1660e01b8152600401614ca9939291906001600160a01b0393841681526020810192909252909116604082015260600190565b60206040518083038186803b158015614cc157600080fd5b505afa158015614cd5573d6000803e3d6000fd5b505050506040513d601f19601f82011682018060405250810190614cf9919061584e565b15614d0a5760006020840152614d63565b8260e00151836101000151614d1f9190615ad1565b8360e001518460c00151614d339190615ad1565b846101400151614d439190615a94565b614d4d9190615a74565b836101400151614d5d9190615ad1565b60208401525b602083015115615007578260a001516001600160a01b031663078e209e858561012001518660400151868660ff1681518110614daf57634e487b7160e01b600052603260045260246000fd5b602002602001015188602001516040518663ffffffff1660e01b8152600401614e0a9594939291906001600160a01b039586168152602081019490945291841660408401529092166060820152608081019190915260a00190565b600060405180830381600087803b158015614e2457600080fd5b505af1158015614e38573d6000803e3d6000fd5b505084516040516317ba7d8560e01b81527f4bb6d123745fe9358fe205a70b7a4aae2a445c56d4bc19c9a123a9259ff615a160048201526001600160a01b03918216935063e176b35e9250908716906317ba7d859060240160206040518083038186803b158015614ea857600080fd5b505afa158015614ebc573d6000803e3d6000fd5b505050506040513d601f19601f82011682018060405250810190614ee091906156ff565b604080870151602088015191516001600160e01b031960e086901b1681526001600160a01b039384166004820152921660248301526044820152606401600060405180830381600087803b158015614f3757600080fd5b505af1158015614f4b573d6000803e3d6000fd5b5050505082600001516001600160a01b031663e3a05cc1838360ff1681518110614f8557634e487b7160e01b600052603260045260246000fd5b6020026020010151856040015186602001516040518463ffffffff1660e01b8152600401614fd4939291906001600160a01b039384168152919092166020820152604081019190915260600190565b600060405180830381600087803b158015614fee57600080fd5b505af1158015615002573d6000803e3d6000fd5b505050505b8061501181615ae8565b915050614a66565b60006150248461552f565b905060005b81518160ff16101561528f57600061505e86848460ff1681518110611fb957634e487b7160e01b600052603260045260246000fd5b111561527d57600061506f86611ab0565b8461509788868660ff1681518110611fb957634e487b7160e01b600052603260045260246000fd5b6150a19190615a94565b6150ab9190615a74565b604051632c9f4b5b60e11b81527f3909e87234f428ccb8748126e2c93f66a62f92a70d315fa5803dec6362be07ab60048201529091506000906001600160a01b0388169063593e96b69060240160206040518083038186803b15801561511057600080fd5b505afa158015615124573d6000803e3d6000fd5b505050506040513d601f19601f8201168201806040525081019061514891906156ff565b9050811561527a57806001600160a01b031663e176b35e858560ff168151811061518257634e487b7160e01b600052603260045260246000fd5b60209081029190910101516040516001600160e01b031960e084901b1681526001600160a01b039182166004820152908916602482015260448101859052606401600060405180830381600087803b1580156151dd57600080fd5b505af11580156151f1573d6000803e3d6000fd5b505050507f8f18627dd3013a46ee91228b93403cafa1ac7501566ee460bd8b40e5c551c7d387858560ff168151811061523a57634e487b7160e01b600052603260045260246000fd5b602002602001015184604051615271939291906001600160a01b039384168152919092166020820152604081019190915260600190565b60405180910390a15b50505b8061528781615ae8565b915050615029565b5050505050565b6000816001600160a01b03166348f7f2a36040518163ffffffff1660e01b815260040160206040518083038186803b1580156152d157600080fd5b505afa1580156152e5573d6000803e3d6000fd5b505050506040513d601f19601f8201168201806040525081019061530991906156ff565b6001600160a01b0316638da5cb5b6040518163ffffffff1660e01b815260040160206040518083038186803b15801561534157600080fd5b505afa158015615355573d6000803e3d6000fd5b505050506040513d601f19601f82011682018060405250810190611aaa91906156ff565b60008181526001830160205260408120546153c057508154600181810184556000848152602080822090930184905584548482528286019093526040902091909155611aaa565b506000611aaa565b8160200151156154665781606001516001600160a01b0316635e5eb01384835a86516153f49190615ad1565b60408088015190516001600160e01b031960e087901b1681526001600160a01b03948516600482015293909216602484015260448301526064820152608401600060405180830381600087803b15801561544d57600080fd5b505af1158015615461573d6000803e3d6000fd5b505050505b826001600160a01b031663d4f7af436040518163ffffffff1660e01b8152600401600060405180830381600087803b1580156154a157600080fd5b505af11580156154b5573d6000803e3d6000fd5b50505050505050565b60608160000180548060200260200160405190810160405280929190818152602001828054801561550e57602002820191906000526020600020905b8154815260200190600101908083116154fa575b50505050509050919050565b6000611bc8836001600160a01b0384166155a6565b6060816001600160a01b031663a6f636416040518163ffffffff1660e01b815260040160006040518083038186803b15801561556a57600080fd5b505afa15801561557e573d6000803e3d6000fd5b505050506040513d6000823e601f3d908101601f19168201604052611aaa9190810190615787565b600081815260018301602052604081205480156156b95760006155ca600183615ad1565b85549091506000906155de90600190615ad1565b905081811461565f57600086600001828154811061560c57634e487b7160e01b600052603260045260246000fd5b906000526020600020015490508087600001848154811061563d57634e487b7160e01b600052603260045260246000fd5b6000918252602080832090910192909255918252600188019052604090208390555b855486908061567e57634e487b7160e01b600052603160045260246000fd5b600190038181906000526020600020016000905590558560010160008681526020019081526020016000206000905560019350505050611aaa565b6000915050611aaa565b80516156ce81615b34565b919050565b805180151581146156ce57600080fd5b6000602082840312156156f4578081fd5b8135611bc881615b34565b600060208284031215615710578081fd5b8151611bc881615b34565b6000806040838503121561572d578081fd5b823561573881615b34565b946020939093013593505050565b60008060006060848603121561575a578081fd5b833561576581615b34565b925060208401359150604084013561577c81615b34565b809150509250925092565b60006020808385031215615799578182fd5b825167ffffffffffffffff808211156157b0578384fd5b818501915085601f8301126157c3578384fd5b8151818111156157d5576157d5615b1e565b8060051b604051601f19603f830116810181811085821117156157fa576157fa615b1e565b604052828152858101935084860182860187018a1015615818578788fd5b8795505b838610156158415761582d816156c3565b85526001959095019493860193860161581c565b5098975050505050505050565b60006020828403121561585f578081fd5b611bc8826156d3565b6000806040838503121561587a578182fd5b615883836156d3565b9150602083015190509250929050565b6000602082840312156158a4578081fd5b5051919050565b600080604083850312156158bd578182fd5b82356158c881615b34565b915060208301356158d881615b34565b809150509250929050565b6000806000606084860312156158f7578283fd5b833561590281615b34565b9250602084013561591281615b34565b9150604084013561577c81615b34565b60008060008060808587031215615937578081fd5b843561594281615b34565b9350602085013561595281615b34565b9250604085013561596281615b34565b9396929550929360600135925050565b6000806040838503121561572d578182fd5b600060208284031215615995578081fd5b81516fffffffffffffffffffffffffffffffff81168114611bc8578182fd5b600481106159d257634e487b7160e01b600052602160045260246000fd5b9052565b6001600160a01b0384168152606081016159f360208301856159b4565b826040830152949350505050565b6020808252825182820181905260009190848201906040850190845b81811015615a425783516001600160a01b031683529284019291840191600101615a1d565b50909695505050505050565b60208101611aaa82846159b4565b60008219821115615a6f57615a6f615b08565b500190565b600082615a8f57634e487b7160e01b81526012600452602481fd5b500490565b6000817fffffffffffffffffffffffffffffffffffffffffffffffffffffffffffffffff0483118215151615615acc57615acc615b08565b500290565b600082821015615ae357615ae3615b08565b500390565b600060ff821660ff811415615aff57615aff615b08565b60010192915050565b634e487b7160e01b600052601160045260246000fd5b634e487b7160e01b600052604160045260246000fd5b6001600160a01b0381168114615b4957600080fd5b5056fea2646970667358221220f6cf6ff486f18e931917a9b3f410c5ba0704ded7ef0a89a86e6ef707c134618064736f6c63430008040033",
  "linkReferences": {},
  "deployedLinkReferences": {}
}