{
  "_format": "hh-sol-artifact-1",
  "contractName": "CollectiveVestingAdapterContract",
  "sourceName": "contracts/collective/adapters/CollectiveVestingAdapter.sol",
  "abi": [
    {
      "inputs": [],
      "stateMutability": "nonpayable",
      "type": "constructor"
    },
    {
      "inputs": [],
      "name": "InValidVestingTimeParam",
      "type": "error"
    },
    {
      "inputs": [],
      "name": "NotOwner",
      "type": "error"
    },
    {
      "inputs": [],
      "name": "NotVestReceiver",
      "type": "error"
    },
    {
      "anonymous": false,
      "inputs": [
        {
          "indexed": true,
          "internalType": "uint256",
          "name": "vestId",
          "type": "uint256"
        },
        {
          "indexed": true,
          "internalType": "uint256",
          "name": "ownerAmount",
          "type": "uint256"
        },
        {
          "indexed": true,
          "internalType": "uint256",
          "name": "recipientAmount",
          "type": "uint256"
        },
        {
          "indexed": false,
          "internalType": "address",
          "name": "token",
          "type": "address"
        },
        {
          "indexed": false,
          "internalType": "bool",
          "name": "toBentoBox",
          "type": "bool"
        }
      ],
      "name": "CancelVesting",
      "type": "event"
    },
    {
      "anonymous": false,
      "inputs": [
        {
          "indexed": true,
          "internalType": "uint256",
          "name": "vestId",
          "type": "uint256"
        },
        {
          "indexed": false,
          "internalType": "address",
          "name": "token",
          "type": "address"
        },
        {
          "indexed": true,
          "internalType": "address",
          "name": "recipient",
          "type": "address"
        },
        {
          "indexed": false,
          "internalType": "uint32",
          "name": "start",
          "type": "uint32"
        },
        {
          "indexed": false,
          "internalType": "uint32",
          "name": "cliffDuration",
          "type": "uint32"
        },
        {
          "indexed": false,
          "internalType": "uint32",
          "name": "stepDuration",
          "type": "uint32"
        },
        {
          "indexed": false,
          "internalType": "uint32",
          "name": "steps",
          "type": "uint32"
        },
        {
          "indexed": false,
          "internalType": "uint128",
          "name": "cliffShares",
          "type": "uint128"
        },
        {
          "indexed": false,
          "internalType": "uint128",
          "name": "stepShares",
          "type": "uint128"
        },
        {
          "indexed": false,
          "internalType": "bytes32",
          "name": "proposalId",
          "type": "bytes32"
        }
      ],
      "name": "CreateVesting",
      "type": "event"
    },
    {
      "anonymous": false,
      "inputs": [
        {
          "indexed": true,
          "internalType": "uint256",
          "name": "vestId",
          "type": "uint256"
        },
        {
          "indexed": true,
          "internalType": "address",
          "name": "newOwner",
          "type": "address"
        }
      ],
      "name": "LogUpdateOwner",
      "type": "event"
    },
    {
      "anonymous": false,
      "inputs": [
        {
          "indexed": true,
          "internalType": "uint256",
          "name": "vestId",
          "type": "uint256"
        },
        {
          "indexed": true,
          "internalType": "address",
          "name": "token",
          "type": "address"
        },
        {
          "indexed": true,
          "internalType": "uint256",
          "name": "amount",
          "type": "uint256"
        },
        {
          "indexed": false,
          "internalType": "bool",
          "name": "toBentoBox",
          "type": "bool"
        }
      ],
      "name": "Withdraw",
      "type": "event"
    },
    {
      "inputs": [],
      "name": "PERCENTAGE_PRECISION",
      "outputs": [
        {
          "internalType": "uint256",
          "name": "",
          "type": "uint256"
        }
      ],
      "stateMutability": "view",
      "type": "function"
    },
    {
      "inputs": [
        {
          "internalType": "contract DaoRegistry",
          "name": "dao",
          "type": "address"
        },
        {
          "internalType": "address",
          "name": "recipientAddr",
          "type": "address"
        },
        {
          "internalType": "bytes32",
          "name": "proposalId",
          "type": "bytes32"
        }
      ],
      "name": "createVesting",
      "outputs": [],
      "stateMutability": "payable",
      "type": "function"
    },
    {
      "inputs": [
        {
          "internalType": "uint256",
          "name": "vestId",
          "type": "uint256"
        },
        {
          "internalType": "address",
          "name": "newOwner",
          "type": "address"
        }
      ],
      "name": "updateOwner",
      "outputs": [],
      "stateMutability": "nonpayable",
      "type": "function"
    },
    {
      "inputs": [
        {
          "internalType": "uint256",
          "name": "vestId",
          "type": "uint256"
        }
      ],
      "name": "vestBalance",
      "outputs": [
        {
          "internalType": "uint256",
          "name": "",
          "type": "uint256"
        }
      ],
      "stateMutability": "view",
      "type": "function"
    },
    {
      "inputs": [],
      "name": "vestIds",
      "outputs": [
        {
          "internalType": "uint256",
          "name": "",
          "type": "uint256"
        }
      ],
      "stateMutability": "view",
      "type": "function"
    },
    {
      "inputs": [
        {
          "internalType": "uint256",
          "name": "",
          "type": "uint256"
        }
      ],
      "name": "vests",
      "outputs": [
        {
          "internalType": "bytes32",
          "name": "proposalId",
          "type": "bytes32"
        },
        {
          "internalType": "uint128",
          "name": "claimed",
          "type": "uint128"
        },
        {
          "internalType": "uint256",
          "name": "total",
          "type": "uint256"
        },
        {
          "components": [
            {
              "internalType": "uint32",
              "name": "steps",
              "type": "uint32"
            },
            {
              "internalType": "uint128",
              "name": "cliffShares",
              "type": "uint128"
            },
            {
              "internalType": "uint128",
              "name": "stepShares",
              "type": "uint128"
            }
          ],
          "internalType": "struct ICollectiveVesting.StepInfo",
          "name": "stepInfo",
          "type": "tuple"
        },
        {
          "components": [
            {
              "internalType": "uint32",
              "name": "start",
              "type": "uint32"
            },
            {
              "internalType": "uint32",
              "name": "end",
              "type": "uint32"
            },
            {
              "internalType": "uint32",
              "name": "cliffDuration",
              "type": "uint32"
            },
            {
              "internalType": "uint32",
              "name": "stepDuration",
              "type": "uint32"
            }
          ],
          "internalType": "struct ICollectiveVesting.TimeInfo",
          "name": "timeInfo",
          "type": "tuple"
        },
        {
          "components": [
            {
              "internalType": "address",
              "name": "nftToken",
              "type": "address"
            },
            {
              "internalType": "uint256",
              "name": "tokenId",
              "type": "uint256"
            }
          ],
          "internalType": "struct ICollectiveVesting.VestNFTInfo",
          "name": "nftInfo",
          "type": "tuple"
        },
        {
          "components": [
            {
              "internalType": "string",
              "name": "name",
              "type": "string"
            },
            {
              "internalType": "string",
              "name": "description",
              "type": "string"
            },
            {
              "internalType": "address",
              "name": "owner",
              "type": "address"
            },
            {
              "internalType": "address",
              "name": "recipient",
              "type": "address"
            },
            {
              "internalType": "address",
              "name": "token",
              "type": "address"
            }
          ],
          "internalType": "struct ICollectiveVesting.VestInfo",
          "name": "vestInfo",
          "type": "tuple"
        }
      ],
      "stateMutability": "view",
      "type": "function"
    },
    {
      "inputs": [
        {
          "internalType": "contract DaoRegistry",
          "name": "dao",
          "type": "address"
        },
        {
          "internalType": "uint256",
          "name": "vestId",
          "type": "uint256"
        }
      ],
      "name": "withdraw",
      "outputs": [],
      "stateMutability": "nonpayable",
      "type": "function"
    }
  ],
  "bytecode": "0x608060405234801561001057600080fd5b506001805561274f806100246000396000f3fe6080604052600436106100705760003560e01c806351def5561161004e57806351def556146100d35780637192711f14610106578063e256888f14610126578063f3fef3a31461014257600080fd5b806319f77171146100755780632bcea736146100a85780633ae9bc03146100be575b600080fd5b34801561008157600080fd5b506100956100903660046122f4565b610162565b6040519081526020015b60405180910390f35b3480156100b457600080fd5b5061009560015481565b6100d16100cc3660046121be565b6103df565b005b3480156100df57600080fd5b506100f36100ee3660046122f4565b610db9565b60405161009f9796959493929190612474565b34801561011257600080fd5b506100d1610121366004612324565b610ff0565b34801561013257600080fd5b50610095670de0b6b3a764000081565b34801561014e57600080fd5b506100d161015d3660046121fe565b6110a1565b600081815260208181526040808320815160e0810183528154815260018201546001600160801b0390811682860152600283015482850152835160608181018652600385015463ffffffff8082168452640100000000918290048516848a015260048701549094168388015281850192909252855160808181018852600587015480861683529384048516828a01526801000000000000000084048516828901526c01000000000000000000000000909304909316908301528201528251808401845260068301546001600160a01b0316815260078301549481019490945260a0808201949094528251938401909252600881018054859460c085019290918290829061026e9061266b565b80601f016020809104026020016040519081016040528092919081815260200182805461029a9061266b565b80156102e75780601f106102bc576101008083540402835291602001916102e7565b820191906000526020600020905b8154815290600101906020018083116102ca57829003601f168201915b505050505081526020016001820180546103009061266b565b80601f016020809104026020016040519081016040528092919081815260200182805461032c9061266b565b80156103795780601f1061034e57610100808354040283529160200191610379565b820191906000526020600020905b81548152906001019060200180831161035c57829003601f168201915b505050918352505060028201546001600160a01b03908116602080840191909152600384015482166040840152600490930154166060909101529152820151919250506001600160801b03166103ce82611416565b6103d89190612654565b9392505050565b6103e7611ebe565b6040516317ba7d8560e01b81527fbba99fd05ef530e2ad5cae360774c7ec6b1f135b279ab165354152f7dc991c1060048201526001600160a01b038516906317ba7d859060240160206040518083038186803b15801561044657600080fd5b505afa15801561045a573d6000803e3d6000fd5b505050506040513d601f19601f8201168201806040525081019061047e9190612188565b6001600160a01b039081166101408301819052608083018190526040517f7d15e7b9000000000000000000000000000000000000000000000000000000008152868316600482015291851660248301526044820184905290637d15e7b99060640160206040518083038186803b1580156104f757600080fd5b505afa15801561050b573d6000803e3d6000fd5b505050506040513d601f19601f8201168201806040525081019061052f91906121a4565b61059a576040517f08c379a000000000000000000000000000000000000000000000000000000000815260206004820152601d60248201527f756e656c696769626c65206f6620746869732070726f706f73616c496400000060448201526064015b60405180910390fd5b60808101516040517f6cb4e9eb0000000000000000000000000000000000000000000000000000000081526001600160a01b03868116600483015260248201859052858116604483015290911690636cb4e9eb9060640160206040518083038186803b15801561060957600080fd5b505afa15801561061d573d6000803e3d6000fd5b505050506040513d601f19601f8201168201806040525081019061064191906121a4565b156106a8576040517f08c379a000000000000000000000000000000000000000000000000000000000815260206004820152600f60248201527f416c7265616479204372656174656400000000000000000000000000000000006044820152606401610591565b6040516317ba7d8560e01b81527f72894213a5c7f56b36b2947fa6ea18963d6bb1a68746b46d7f552cca76e1a7a860048201526001600160a01b038516906317ba7d859060240160206040518083038186803b15801561070757600080fd5b505afa15801561071b573d6000803e3d6000fd5b505050506040513d601f19601f8201168201806040525081019061073f9190612188565b6001600160a01b0390811660a083015260808201516040517f1190b0a60000000000000000000000000000000000000000000000000000000081528683166004820152602481018590528583166044820152911690631190b0a690606401604080518083038186803b1580156107b457600080fd5b505afa1580156107c8573d6000803e3d6000fd5b505050506040513d601f19601f820116820180604052508101906107ec9190612353565b5060e082015260808101516040517f40c508f80000000000000000000000000000000000000000000000000000000081526001600160a01b038681166004830152858116602483015260448201859052909116906340c508f89060640160206040518083038186803b15801561086157600080fd5b505afa158015610875573d6000803e3d6000fd5b505050506040513d601f19601f82011682018060405250810190610899919061230c565b8160e0018181516108aa91906125be565b90525060a08101516040517f5cb752760000000000000000000000000000000000000000000000000000000081526001600160a01b0386811660048301526024820185905290911690635cb75276906044016102606040518083038186803b15801561091557600080fd5b505afa158015610929573d6000803e3d6000fd5b505050506040513d601f19601f8201168201806040525081019061094d9190612229565b5050505061016084018190526101808401919091525115905080610978575061016081015160400151155b8061098a575061016081015160200151155b8061099c575061016081015160800151155b156109d3576040517f22fb5f7400000000000000000000000000000000000000000000000000000000815260040160405180910390fd5b6109f48482610180015160200151836101400151308560e001516000611546565b81526101608101516040810151602090910151610a119190612654565b60c0820181905261016082015160800151610a2b916125f5565b6101208201526101608101516080015160c082015111610a4e5760016101208201525b806101600151608001518160c001511115610af0578060c0015181610160015160800151610a7c91906126c1565b610aa057806101600151608001518160c00151610a9991906125f5565b6101208201525b8060c0015181610160015160800151826101200151610abf9190612609565b1015610af057806101600151608001518160c00151610ade91906125f5565b610ae99060016125be565b6101208201525b670de0b6b3a7640000816101600151606001518260e00151610b129190612609565b610b1c91906125f5565b6001600160801b03166060820181905261012082015182519091610b3f91612654565b610b4991906125f5565b6001600160801b0316604082015260018054906000610b67836126a6565b90915550602080830182905260408051608080820183523382526001600160a01b0388811683860152610180870151850151168284015260006060808401829052845161012080820187528901518152818901516001600160801b0390811682890152868a0151168187015260e0808a015192820192909252610160890180515182860152805188015160a0830152805187015160c08301525190930151908301526101a0870151610100830152835180860185528181528451958601909452808552610c3795948894906117fc565b60808101516040517f560dbdd70000000000000000000000000000000000000000000000000000000081526001600160a01b0386811660048301526024820185905285811660448301529091169063560dbdd790606401602060405180830381600087803b158015610ca857600080fd5b505af1158015610cbc573d6000803e3d6000fd5b505050506040513d601f19601f82011682018060405250810190610ce091906121a4565b506020808201516101808301519091015161016083015180516040909101516001600160a01b03871693927f4c51f0095be9553b8e5eadbc42f96ab0b0c6526566307069cfcbecc63ea41c52929091610d3a908290612654565b6101608701516080908101516101208901516060808b01516040808d015181516001600160a01b03909a168a5263ffffffff98891660208b0152968816908901529286169087015293909316908401526001600160801b0391821660a08401521660c082015260e081018690526101000160405180910390a350505050565b60006020818152918152604090819020805460018201546002830154845160608082018752600386015463ffffffff80821684526001600160801b03640100000000928390048116858c015260048901548116858b01528951608081018b5260058a015480841682529384048316818d01526801000000000000000084048316818c01526c01000000000000000000000000909304909116928201929092528751808901895260068801546001600160a01b03168152600788015499810199909952875160a08101909852600887018054969992909516979396929590949193919082908290610ea89061266b565b80601f0160208091040260200160405190810160405280929190818152602001828054610ed49061266b565b8015610f215780601f10610ef657610100808354040283529160200191610f21565b820191906000526020600020905b815481529060010190602001808311610f0457829003601f168201915b50505050508152602001600182018054610f3a9061266b565b80601f0160208091040260200160405190810160405280929190818152602001828054610f669061266b565b8015610fb35780601f10610f8857610100808354040283529160200191610fb3565b820191906000526020600020905b815481529060010190602001808311610f9657829003601f168201915b505050918352505060028201546001600160a01b039081166020830152600383015481166040830152600490920154909116606090910152905087565b6000828152602081905260409020600a8101546001600160a01b03163314611044576040517f30cd747100000000000000000000000000000000000000000000000000000000815260040160405180910390fd5b600a8101805473ffffffffffffffffffffffffffffffffffffffff19166001600160a01b03841690811790915560405184907fca0251ba80971adc7e92434b097ca40450b2a317013c51c5c5cb6ae74500bb0090600090a3505050565b6000818152602081905260409020600b8101546001600160a01b03163381146110f6576040517fe1c6117100000000000000000000000000000000000000000000000000000000815260040160405180910390fd5b60018201546040805160e081018252845481526001600160801b039283166020808301829052600287015483850152835160608181018652600389015463ffffffff80821684526401000000009182900489168486015260048b0154909816838801528186019290925285516080818101885260058b0154808a1683529384048916828601526801000000000000000084048916828901526c01000000000000000000000000909304909716908701528301949094528251808401845260068701546001600160a01b0316815260078701549481019490945260a080830194909452825193840190925260088501805460009461134f9392889260c08501929190829082906112049061266b565b80601f01602080910402602001604051908101604052809291908181526020018280546112309061266b565b801561127d5780601f106112525761010080835404028352916020019161127d565b820191906000526020600020905b81548152906001019060200180831161126057829003601f168201915b505050505081526020016001820180546112969061266b565b80601f01602080910402602001604051908101604052809291908181526020018280546112c29061266b565b801561130f5780601f106112e45761010080835404028352916020019161130f565b820191906000526020600020905b8154815290600101906020018083116112f257829003601f168201915b505050918352505060028201546001600160a01b039081166020830152600383015481166040830152600490920154909116606090910152905250611416565b6113599190612654565b905080611367575050505050565b6001830180548291906000906113879084906001600160801b0316612593565b82546001600160801b039182166101009390930a928302919092021990911617905550600c8301546113c89086906001600160a01b03163085856000611cb9565b600c8301546040516000815282916001600160a01b03169086907fff942d249898505febb2a9a00118e27567c084b9497d0aa3ba5e332c235b4f389060200160405180910390a45050505050565b608081015160408101519051600091829161143191906125d6565b63ffffffff169050804210156114475750919050565b60006114538242612654565b9050600061148885606001516000015163ffffffff1686608001516060015163ffffffff168461148391906125f5565b611ea8565b60808601516020810151606091820151918801515192935063ffffffff16916114b19190612628565b6080870151604081015190516114c791906125d6565b6114d191906125d6565b63ffffffff161180156114f1575084608001516020015163ffffffff1642115b15611504575060608401515163ffffffff165b808560600151604001516001600160801b03166115219190612609565b8560600151602001516001600160801b031661153d91906125be565b95945050505050565b6040516317ba7d8560e01b81527fdfea78be99560632cc4c199ca1b0d68ffe0bbbb07b685976cefc8820374ac73a600482015260009081906001600160a01b038916906317ba7d859060240160206040518083038186803b1580156115aa57600080fd5b505afa1580156115be573d6000803e3d6000fd5b505050506040513d601f19601f820116820180604052508101906115e29190612188565b9050821561171e576040517fda5139ca0000000000000000000000000000000000000000000000000000000081526001600160a01b038881166004830152602482018690526000604483015282169063da5139ca9060640160206040518083038186803b15801561165257600080fd5b505afa158015611666573d6000803e3d6000fd5b505050506040513d601f19601f8201168201806040525081019061168a919061230c565b6040517ff18d03cc0000000000000000000000000000000000000000000000000000000081526001600160a01b03898116600483015288811660248301528781166044830152606482018390529193509082169063f18d03cc90608401600060405180830381600087803b15801561170157600080fd5b505af1158015611715573d6000803e3d6000fd5b505050506117f1565b6001600160a01b03808216906302b9446c9089161561173e576000611740565b855b6040517fffffffff0000000000000000000000000000000000000000000000000000000060e084901b1681526001600160a01b03808c166004830152808b16602483015289166044820152606481018890526000608482015260a40160408051808303818588803b1580156117b457600080fd5b505af11580156117c8573d6000803e3d6000fd5b50505050506040513d601f19601f820116820180604052508101906117ed919061237e565b9250505b509695505050505050565b6040805160e081018252878152600060208201529081018560036020020151815260200160405180606001604052808760006009811061184c57634e487b7160e01b600052603260045260246000fd5b602002015163ffffffff1681526020018760016009811061187d57634e487b7160e01b600052603260045260246000fd5b60200201516001600160801b03168152602001876002600981106118b157634e487b7160e01b600052603260045260246000fd5b60200201516001600160801b031681525081526020016040518060800160405280876004600981106118f357634e487b7160e01b600052603260045260246000fd5b602002015163ffffffff1681526020018760056009811061192457634e487b7160e01b600052603260045260246000fd5b602002015163ffffffff1681526020018760046009811061195557634e487b7160e01b600052603260045260246000fd5b602002015160c08901516119699190612654565b63ffffffff168152602001876007602002015163ffffffff168152508152602001604051806040016040528086151560011515146119a85760006119ae565b60608901515b6001600160a01b03168152602001876008602002015181525081526020016040518060a0016040528085815260200184815260200188600060048110611a0457634e487b7160e01b600052603260045260246000fd5b60200201516001600160a01b0316815260200188600160048110611a3857634e487b7160e01b600052603260045260246000fd5b60200201516001600160a01b0316815260200188600260048110611a6c57634e487b7160e01b600052603260045260246000fd5b602090810291909101516001600160a01b039081169092529190925260008a815280825260409081902084518155848301516001820180546001600160801b039283167fffffffffffffffffffffffffffffffff00000000000000000000000000000000918216179091558684015160028401556060808801518051600386018054838a0151871664010000000090810273ffffffffffffffffffffffffffffffffffffffff1992831663ffffffff9586161717909255928801516004880180549190971695169490941790945560808901518051600587018054838b015199840151939095015187166c01000000000000000000000000027fffffffffffffffffffffffffffffffff00000000ffffffffffffffffffffffff9388166801000000000000000002939093167fffffffffffffffffffffffffffffffff0000000000000000ffffffffffffffff9988169096027fffffffffffffffffffffffffffffffffffffffffffffffff0000000000000000909516919096161792909217959095169190911717905560a0850151805160068301805491909616931692909217909355810151600783015560c08301518051805191926008850192611c369284920190611fb1565b506020828101518051611c4f9260018501920190611fb1565b50604082015160028201805473ffffffffffffffffffffffffffffffffffffffff199081166001600160a01b039384161790915560608401516003840180548316918416919091179055608090930151600490920180549093169116179055505050505050505050565b6040516317ba7d8560e01b81527fdfea78be99560632cc4c199ca1b0d68ffe0bbbb07b685976cefc8820374ac73a60048201526000906001600160a01b038816906317ba7d859060240160206040518083038186803b158015611d1b57600080fd5b505afa158015611d2f573d6000803e3d6000fd5b505050506040513d601f19601f82011682018060405250810190611d539190612188565b90508115611deb576040517ff18d03cc0000000000000000000000000000000000000000000000000000000081526001600160a01b038781166004830152868116602483015285811660448301526064820185905282169063f18d03cc90608401600060405180830381600087803b158015611dce57600080fd5b505af1158015611de2573d6000803e3d6000fd5b50505050611e9f565b6040517f97da6d300000000000000000000000000000000000000000000000000000000081526001600160a01b0387811660048301528681166024830152858116604483015260006064830152608482018590528216906397da6d309060a4016040805180830381600087803b158015611e6457600080fd5b505af1158015611e78573d6000803e3d6000fd5b505050506040513d601f19601f82011682018060405250810190611e9c919061237e565b50505b50505050505050565b6000818310611eb757816103d8565b5090919050565b604051806101c00160405280600081526020016000815260200160006001600160801b0316815260200160006001600160801b0316815260200160006001600160a01b0316815260200160006001600160a01b031681526020016000815260200160008152602001600081526020016000815260200160006001600160a01b03168152602001611f766040518060a0016040528060008152602001600081526020016000815260200160008152602001600081525090565b81526040805160a081018252600080825260208281018290529282018190526060820181905260808201529101908152602001600081525090565b828054611fbd9061266b565b90600052602060002090601f016020900481019282611fdf5760008555612025565b82601f10611ff857805160ff1916838001178555612025565b82800160010185558215612025579182015b8281111561202557825182559160200191906001019061200a565b50612031929150612035565b5090565b5b808211156120315760008155600101612036565b805161205581612701565b919050565b8051801515811461205557600080fd5b80516005811061205557600080fd5b600060a0828403121561208a578081fd5b61209261252b565b905061209d8261205a565b815260208201516120ad81612701565b80602083015250604082015160408201526060820151606082015260808201516120d681612701565b608082015292915050565b6000604082840312156120f2578081fd5b6040516040810181811067ffffffffffffffff8211171561212157634e487b7160e01b83526041600452602483fd5b604052825181526020928301519281019290925250919050565b600060a0828403121561214c578081fd5b61215461252b565b9050815181526020820151602082015260408201516040820152606082015160608201526080820151608082015292915050565b600060208284031215612199578081fd5b81516103d881612701565b6000602082840312156121b5578081fd5b6103d88261205a565b6000806000606084860312156121d2578182fd5b83356121dd81612701565b925060208401356121ed81612701565b929592945050506040919091013590565b60008060408385031215612210578182fd5b823561221b81612701565b946020939093013593505050565b6000806000806000806000878903610260811215612245578384fd5b6080811215612252578384fd5b5061225b612562565b885161226681612701565b808252506020890151602082015260408901516040820152606089015161228c81612701565b606082015296506122a08960808a01612079565b95506122b0896101208a0161213b565b94506122c0896101c08a016120e1565b93506122cf610200890161204a565b925061022088015191506122e6610240890161206a565b905092959891949750929550565b600060208284031215612305578081fd5b5035919050565b60006020828403121561231d578081fd5b5051919050565b60008060408385031215612336578182fd5b82359150602083013561234881612701565b809150509250929050565b60008060408385031215612365578182fd5b825191506123756020840161205a565b90509250929050565b60008060408385031215612390578182fd5b505080516020909101519092909150565b60008151808452815b818110156123c6576020818501810151868301820152016123aa565b818111156123d75782602083870101525b50601f017fffffffffffffffffffffffffffffffffffffffffffffffffffffffffffffffe0169290920160200192915050565b6000815160a0845261241f60a08501826123a1565b90506020830151848203602086015261243882826123a1565b91505060408301516001600160a01b03808216604087015280606086015116606087015280608086015116608087015250508091505092915050565b60006101a08983526001600160801b03808a16602085015288604085015263ffffffff8089511660608601528160208a01511660808601528160408a01511660a08601528088511660c08601528060208901511660e08601528060408901511661010086015280606089015116610120860152505061250a61014084018680516001600160a01b03168252602090810151910152565b8061018084015261251d8184018561240a565b9a9950505050505050505050565b60405160a0810167ffffffffffffffff8111828210171561255c57634e487b7160e01b600052604160045260246000fd5b60405290565b6040516080810167ffffffffffffffff8111828210171561255c57634e487b7160e01b600052604160045260246000fd5b60006001600160801b038083168185168083038211156125b5576125b56126d5565b01949350505050565b600082198211156125d1576125d16126d5565b500190565b600063ffffffff8083168185168083038211156125b5576125b56126d5565b600082612604576126046126eb565b500490565b6000816000190483118215151615612623576126236126d5565b500290565b600063ffffffff8083168185168183048111821515161561264b5761264b6126d5565b02949350505050565b600082821015612666576126666126d5565b500390565b600181811c9082168061267f57607f821691505b602082108114156126a057634e487b7160e01b600052602260045260246000fd5b50919050565b60006000198214156126ba576126ba6126d5565b5060010190565b6000826126d0576126d06126eb565b500690565b634e487b7160e01b600052601160045260246000fd5b634e487b7160e01b600052601260045260246000fd5b6001600160a01b038116811461271657600080fd5b5056fea2646970667358221220cb352973510cef80ef584e0a6f3c53d6f306a9a7f4113a085e6055952e6435b164736f6c63430008040033",
  "linkReferences": {},
  "deployedLinkReferences": {}
}