{
  "_format": "hh-sol-artifact-1",
  "contractName": "ColletiveDaoSetProposalAdapterContract",
  "sourceName": "contracts/collective/adapters/CollectiveDaoSetProposalAdapter.sol",
  "abi": [
    {
      "inputs": [],
      "name": "UNDONE_OPERATION_PROPOSALS",
      "type": "error"
    },
    {
      "inputs": [],
      "name": "VOTING_NOT_FINISH",
      "type": "error"
    },
    {
      "anonymous": false,
      "inputs": [
        {
          "indexed": false,
          "internalType": "address",
          "name": "daoAddr",
          "type": "address"
        },
        {
          "indexed": false,
          "internalType": "bytes32",
          "name": "proposalId",
          "type": "bytes32"
        },
        {
          "indexed": false,
          "internalType": "enum ColletiveDaoSetProposalAdapterContract.ProposalType",
          "name": "pType",
          "type": "uint8"
        }
      ],
      "name": "ProposalCreated",
      "type": "event"
    },
    {
      "anonymous": false,
      "inputs": [
        {
          "indexed": false,
          "internalType": "address",
          "name": "daoAddr",
          "type": "address"
        },
        {
          "indexed": false,
          "internalType": "bytes32",
          "name": "proposalId",
          "type": "bytes32"
        },
        {
          "indexed": false,
          "internalType": "enum ColletiveDaoSetProposalAdapterContract.ProposalState",
          "name": "state",
          "type": "uint8"
        },
        {
          "indexed": false,
          "internalType": "uint256",
          "name": "voteResult",
          "type": "uint256"
        },
        {
          "indexed": false,
          "internalType": "uint128",
          "name": "allVotingWeight",
          "type": "uint128"
        },
        {
          "indexed": false,
          "internalType": "uint256",
          "name": "nbYes",
          "type": "uint256"
        },
        {
          "indexed": false,
          "internalType": "uint256",
          "name": "nbNo",
          "type": "uint256"
        }
      ],
      "name": "ProposalProcessed",
      "type": "event"
    },
    {
      "inputs": [
        {
          "internalType": "address",
          "name": "",
          "type": "address"
        },
        {
          "internalType": "bytes32",
          "name": "",
          "type": "bytes32"
        }
      ],
      "name": "feesProposals",
      "outputs": [
        {
          "internalType": "bytes32",
          "name": "proposalId",
          "type": "bytes32"
        },
        {
          "internalType": "uint256",
          "name": "redemptionFeeAmount",
          "type": "uint256"
        },
        {
          "internalType": "uint256",
          "name": "creationTime",
          "type": "uint256"
        },
        {
          "internalType": "uint256",
          "name": "stopVoteTime",
          "type": "uint256"
        },
        {
          "internalType": "enum ColletiveDaoSetProposalAdapterContract.ProposalState",
          "name": "state",
          "type": "uint8"
        }
      ],
      "stateMutability": "view",
      "type": "function"
    },
    {
      "inputs": [
        {
          "internalType": "bytes32",
          "name": "proposalId",
          "type": "bytes32"
        }
      ],
      "name": "getGovernorMembershipWhitelist",
      "outputs": [
        {
          "internalType": "address[]",
          "name": "",
          "type": "address[]"
        }
      ],
      "stateMutability": "view",
      "type": "function"
    },
    {
      "inputs": [
        {
          "internalType": "address",
          "name": "",
          "type": "address"
        },
        {
          "internalType": "bytes32",
          "name": "",
          "type": "bytes32"
        }
      ],
      "name": "governorMembershipProposals",
      "outputs": [
        {
          "internalType": "bytes32",
          "name": "proposalId",
          "type": "bytes32"
        },
        {
          "internalType": "bool",
          "name": "enable",
          "type": "bool"
        },
        {
          "internalType": "string",
          "name": "name",
          "type": "string"
        },
        {
          "internalType": "uint8",
          "name": "varifyType",
          "type": "uint8"
        },
        {
          "internalType": "uint256",
          "name": "minAmount",
          "type": "uint256"
        },
        {
          "internalType": "address",
          "name": "tokenAddress",
          "type": "address"
        },
        {
          "internalType": "uint256",
          "name": "tokenId",
          "type": "uint256"
        },
        {
          "internalType": "uint256",
          "name": "creationTime",
          "type": "uint256"
        },
        {
          "internalType": "uint256",
          "name": "stopVoteTime",
          "type": "uint256"
        },
        {
          "internalType": "enum ColletiveDaoSetProposalAdapterContract.ProposalState",
          "name": "state",
          "type": "uint8"
        }
      ],
      "stateMutability": "view",
      "type": "function"
    },
    {
      "inputs": [
        {
          "internalType": "address",
          "name": "",
          "type": "address"
        },
        {
          "internalType": "bytes32",
          "name": "",
          "type": "bytes32"
        }
      ],
      "name": "investorCapProposals",
      "outputs": [
        {
          "internalType": "bytes32",
          "name": "proposalId",
          "type": "bytes32"
        },
        {
          "internalType": "bool",
          "name": "enable",
          "type": "bool"
        },
        {
          "internalType": "uint256",
          "name": "cap",
          "type": "uint256"
        },
        {
          "internalType": "uint256",
          "name": "creationTime",
          "type": "uint256"
        },
        {
          "internalType": "uint256",
          "name": "stopVoteTime",
          "type": "uint256"
        },
        {
          "internalType": "enum ColletiveDaoSetProposalAdapterContract.ProposalState",
          "name": "state",
          "type": "uint8"
        }
      ],
      "stateMutability": "view",
      "type": "function"
    },
    {
      "inputs": [
        {
          "internalType": "contract DaoRegistry",
          "name": "dao",
          "type": "address"
        }
      ],
      "name": "isProposalAllDone",
      "outputs": [
        {
          "internalType": "bool",
          "name": "",
          "type": "bool"
        }
      ],
      "stateMutability": "view",
      "type": "function"
    },
    {
      "inputs": [
        {
          "internalType": "address",
          "name": "",
          "type": "address"
        }
      ],
      "name": "ongoingFeesProposal",
      "outputs": [
        {
          "internalType": "bytes32",
          "name": "",
          "type": "bytes32"
        }
      ],
      "stateMutability": "view",
      "type": "function"
    },
    {
      "inputs": [
        {
          "internalType": "address",
          "name": "",
          "type": "address"
        }
      ],
      "name": "ongoingGovernorMembershipProposal",
      "outputs": [
        {
          "internalType": "bytes32",
          "name": "",
          "type": "bytes32"
        }
      ],
      "stateMutability": "view",
      "type": "function"
    },
    {
      "inputs": [
        {
          "internalType": "address",
          "name": "",
          "type": "address"
        }
      ],
      "name": "ongoingInvestorCapProposal",
      "outputs": [
        {
          "internalType": "bytes32",
          "name": "",
          "type": "bytes32"
        }
      ],
      "stateMutability": "view",
      "type": "function"
    },
    {
      "inputs": [
        {
          "internalType": "address",
          "name": "",
          "type": "address"
        }
      ],
      "name": "ongoingProposerRewardProposal",
      "outputs": [
        {
          "internalType": "bytes32",
          "name": "",
          "type": "bytes32"
        }
      ],
      "stateMutability": "view",
      "type": "function"
    },
    {
      "inputs": [
        {
          "internalType": "address",
          "name": "",
          "type": "address"
        }
      ],
      "name": "ongoingVotingProposal",
      "outputs": [
        {
          "internalType": "bytes32",
          "name": "",
          "type": "bytes32"
        }
      ],
      "stateMutability": "view",
      "type": "function"
    },
    {
      "inputs": [
        {
          "internalType": "contract DaoRegistry",
          "name": "dao",
          "type": "address"
        },
        {
          "internalType": "bytes32",
          "name": "proposalId",
          "type": "bytes32"
        }
      ],
      "name": "processFeesProposal",
      "outputs": [],
      "stateMutability": "nonpayable",
      "type": "function"
    },
    {
      "inputs": [
        {
          "internalType": "contract DaoRegistry",
          "name": "dao",
          "type": "address"
        },
        {
          "internalType": "bytes32",
          "name": "proposalId",
          "type": "bytes32"
        }
      ],
      "name": "processGovernorMembershipProposal",
      "outputs": [],
      "stateMutability": "nonpayable",
      "type": "function"
    },
    {
      "inputs": [
        {
          "internalType": "contract DaoRegistry",
          "name": "dao",
          "type": "address"
        },
        {
          "internalType": "bytes32",
          "name": "proposalId",
          "type": "bytes32"
        }
      ],
      "name": "processInvestorCapProposal",
      "outputs": [],
      "stateMutability": "nonpayable",
      "type": "function"
    },
    {
      "inputs": [
        {
          "internalType": "contract DaoRegistry",
          "name": "dao",
          "type": "address"
        },
        {
          "internalType": "bytes32",
          "name": "proposalId",
          "type": "bytes32"
        }
      ],
      "name": "processProposerRewardProposal",
      "outputs": [],
      "stateMutability": "nonpayable",
      "type": "function"
    },
    {
      "inputs": [
        {
          "internalType": "contract DaoRegistry",
          "name": "dao",
          "type": "address"
        },
        {
          "internalType": "bytes32",
          "name": "proposalId",
          "type": "bytes32"
        }
      ],
      "name": "processVotingProposal",
      "outputs": [],
      "stateMutability": "nonpayable",
      "type": "function"
    },
    {
      "inputs": [
        {
          "internalType": "address",
          "name": "",
          "type": "address"
        },
        {
          "internalType": "bytes32",
          "name": "",
          "type": "bytes32"
        }
      ],
      "name": "proposerRewardProposals",
      "outputs": [
        {
          "internalType": "bytes32",
          "name": "proposalId",
          "type": "bytes32"
        },
        {
          "internalType": "uint256",
          "name": "fundFromInvestorAmount",
          "type": "uint256"
        },
        {
          "internalType": "uint256",
          "name": "paybackTokenFromInvestorAmount",
          "type": "uint256"
        },
        {
          "internalType": "uint256",
          "name": "creationTime",
          "type": "uint256"
        },
        {
          "internalType": "uint256",
          "name": "stopVoteTime",
          "type": "uint256"
        },
        {
          "internalType": "enum ColletiveDaoSetProposalAdapterContract.ProposalState",
          "name": "state",
          "type": "uint8"
        }
      ],
      "stateMutability": "view",
      "type": "function"
    },
    {
      "inputs": [
        {
          "internalType": "contract DaoRegistry",
          "name": "dao",
          "type": "address"
        },
        {
          "internalType": "uint256",
          "name": "redemtionFee",
          "type": "uint256"
        }
      ],
      "name": "submitFeesProposal",
      "outputs": [],
      "stateMutability": "nonpayable",
      "type": "function"
    },
    {
      "inputs": [
        {
          "internalType": "contract DaoRegistry",
          "name": "dao",
          "type": "address"
        },
        {
          "internalType": "bool",
          "name": "enable",
          "type": "bool"
        },
        {
          "internalType": "string",
          "name": "name",
          "type": "string"
        },
        {
          "internalType": "uint8",
          "name": "varifyType",
          "type": "uint8"
        },
        {
          "internalType": "uint256",
          "name": "minAmount",
          "type": "uint256"
        },
        {
          "internalType": "address",
          "name": "tokenAddress",
          "type": "address"
        },
        {
          "internalType": "uint256",
          "name": "tokenId",
          "type": "uint256"
        },
        {
          "internalType": "address[]",
          "name": "whiteList",
          "type": "address[]"
        }
      ],
      "name": "submitGovernorMembershpProposal",
      "outputs": [],
      "stateMutability": "nonpayable",
      "type": "function"
    },
    {
      "inputs": [
        {
          "internalType": "contract DaoRegistry",
          "name": "dao",
          "type": "address"
        },
        {
          "internalType": "bool",
          "name": "enable",
          "type": "bool"
        },
        {
          "internalType": "uint256",
          "name": "cap",
          "type": "uint256"
        }
      ],
      "name": "submitInvestorCapProposal",
      "outputs": [],
      "stateMutability": "nonpayable",
      "type": "function"
    },
    {
      "inputs": [
        {
          "internalType": "contract DaoRegistry",
          "name": "dao",
          "type": "address"
        },
        {
          "internalType": "uint256",
          "name": "fundFromInvestorAmount",
          "type": "uint256"
        },
        {
          "internalType": "uint256",
          "name": "paybackTokenFromInvestorAmount",
          "type": "uint256"
        }
      ],
      "name": "submitProposerRewardProposal",
      "outputs": [],
      "stateMutability": "nonpayable",
      "type": "function"
    },
    {
      "inputs": [
        {
          "internalType": "contract DaoRegistry",
          "name": "dao",
          "type": "address"
        },
        {
          "components": [
            {
              "internalType": "uint256",
              "name": "votingAssetType",
              "type": "uint256"
            },
            {
              "internalType": "address",
              "name": "tokenAddress",
              "type": "address"
            },
            {
              "internalType": "uint256",
              "name": "tokenID",
              "type": "uint256"
            },
            {
              "internalType": "uint256",
              "name": "votingWeightedType",
              "type": "uint256"
            },
            {
              "internalType": "uint256",
              "name": "supportType",
              "type": "uint256"
            },
            {
              "internalType": "uint256",
              "name": "quorumType",
              "type": "uint256"
            },
            {
              "internalType": "uint256",
              "name": "support",
              "type": "uint256"
            },
            {
              "internalType": "uint256",
              "name": "quorum",
              "type": "uint256"
            },
            {
              "internalType": "uint256",
              "name": "votingPeriod",
              "type": "uint256"
            },
            {
              "internalType": "uint256",
              "name": "executingPeriod",
              "type": "uint256"
            },
            {
              "internalType": "uint256",
              "name": "gracePeriod",
              "type": "uint256"
            }
          ],
          "internalType": "struct ColletiveDaoSetProposalAdapterContract.VotingParams",
          "name": "params",
          "type": "tuple"
        }
      ],
      "name": "submitVotingProposal",
      "outputs": [],
      "stateMutability": "nonpayable",
      "type": "function"
    },
    {
      "inputs": [
        {
          "internalType": "address",
          "name": "",
          "type": "address"
        },
        {
          "internalType": "bytes32",
          "name": "",
          "type": "bytes32"
        }
      ],
      "name": "votingProposals",
      "outputs": [
        {
          "internalType": "bytes32",
          "name": "proposalId",
          "type": "bytes32"
        },
        {
          "components": [
            {
              "internalType": "uint256",
              "name": "supportType",
              "type": "uint256"
            },
            {
              "internalType": "uint256",
              "name": "quorumType",
              "type": "uint256"
            },
            {
              "internalType": "uint256",
              "name": "support",
              "type": "uint256"
            },
            {
              "internalType": "uint256",
              "name": "quorum",
              "type": "uint256"
            }
          ],
          "internalType": "struct ColletiveDaoSetProposalAdapterContract.VotingSupportInfo",
          "name": "supportInfo",
          "type": "tuple"
        },
        {
          "components": [
            {
              "internalType": "uint256",
              "name": "votingAssetType",
              "type": "uint256"
            },
            {
              "internalType": "address",
              "name": "tokenAddress",
              "type": "address"
            },
            {
              "internalType": "uint256",
              "name": "tokenID",
              "type": "uint256"
            },
            {
              "internalType": "uint256",
              "name": "votingWeightedType",
              "type": "uint256"
            }
          ],
          "internalType": "struct ColletiveDaoSetProposalAdapterContract.VotingAssetInfo",
          "name": "votingAssetInfo",
          "type": "tuple"
        },
        {
          "components": [
            {
              "internalType": "uint256",
              "name": "votingPeriod",
              "type": "uint256"
            },
            {
              "internalType": "uint256",
              "name": "executingPeriod",
              "type": "uint256"
            },
            {
              "internalType": "uint256",
              "name": "gracePeriod",
              "type": "uint256"
            },
            {
              "internalType": "uint256",
              "name": "creationTime",
              "type": "uint256"
            },
            {
              "internalType": "uint256",
              "name": "stopVoteTime",
              "type": "uint256"
            }
          ],
          "internalType": "struct ColletiveDaoSetProposalAdapterContract.VotingTimeInfo",
          "name": "timeInfo",
          "type": "tuple"
        },
        {
          "internalType": "enum ColletiveDaoSetProposalAdapterContract.ProposalState",
          "name": "state",
          "type": "uint8"
        }
      ],
      "stateMutability": "view",
      "type": "function"
    }
  ],
  "bytecode": "0x608060405234801561001057600080fd5b506158aa80620000216000396000f3fe608060405234801561001057600080fd5b50600436106101825760003560e01c80638e3588dc116100d8578063be2176251161008c578063e323f9ab11610066578063e323f9ab14610524578063eb11477214610544578063f8ffc75b1461055757600080fd5b8063be217625146104de578063d6bb647b146104fe578063db1c2e6f1461051157600080fd5b8063a860dfdd116100bd578063a860dfdd14610498578063ae984545146104ab578063b6939b7f146104be57600080fd5b80638e3588dc146104625780639a0242fc1461047557600080fd5b80631d625e241161013a57806355ba6cf41161011457806355ba6cf4146103cc5780635dd12f89146103df5780638805212d1461044257600080fd5b80631d625e241461025d5780631eb1cf39146103475780634ad743cc1461037057600080fd5b806307dc8eb81161016b57806307dc8eb814610209578063115111861461021c57806311c747cb1461024a57600080fd5b806301362c2314610187578063034f82fe1461019c575b600080fd5b61019a61019536600461506d565b610577565b005b6101ee6101aa366004614dd9565b60056020818152600093845260408085209091529183529120805460018201546002830154600384015460048501549490950154929460ff92831694919390921686565b60405161020096959493929190615507565b60405180910390f35b61019a61021736600461506d565b6109bb565b61023c61022a366004614da1565b60046020526000908152604090205481565b604051908152602001610200565b61019a6102583660046150c0565b610c46565b61033661026b366004614dd9565b60086020818152600093845260408085208252928452928290208054835160808082018652600184015482526002840154828801526003840154828701526004840154606080840191909152865180830188526005860154815260068601546001600160a01b0316818a01526007860154818901529585015486820152865160a08101885260098601548152600a86015498810198909852600b85015496880196909652600c84015495870195909552600d83015494860194909452600e9091015490939060ff1685565b604051610200959493929190615544565b61035a610355366004614dd9565b610f95565b6040516102009a99989796959493929190615494565b6103bb61037e366004614dd9565b6007602090815260009283526040808420909152908252902080546001820154600283015460038401546004909401549293919290919060ff1685565b6040516102009594939291906155f5565b61019a6103da36600461506d565b61108c565b6104306103ed366004614dd9565b6009602090815260009283526040808420909152908252902080546001820154600283015460038401546004850154600590950154939492939192909160ff1686565b6040516102009695949392919061561f565b61023c610450366004614da1565b60026020526000908152604090205481565b61019a61047036600461506d565b611374565b610488610483366004614da1565b611650565b6040519015158152602001610200565b61019a6104a636600461506d565b611708565b61019a6104b936600461502d565b6119e4565b61023c6104cc366004614da1565b60036020526000908152604090205481565b61023c6104ec366004614da1565b60016020526000908152604090205481565b61019a61050c366004614f19565b611cce565b61019a61051f36600461507f565b6120f3565b610537610532366004614f01565b612500565b6040516102009190615447565b61019a61055236600461506d565b612520565b61023c610565366004614da1565b60006020819052908152604090205481565b81600061058382612877565b6001600160a01b03851660008181526009602090815260408083208884529091529081902090516330490e9160e01b815260048101879052929350916330490e9190602401600060405180830381600087803b1580156105e257600080fd5b505af11580156105f6573d6000803e3d6000fd5b50506040516317ba7d8560e01b81527f907642cbfe4e58ddd14eaa320923fbe4c29721dd0950ae4cb3b2626e292791ae6004820152600092506001600160a01b03881691506317ba7d859060240160206040518083038186803b15801561065c57600080fd5b505afa158015610670573d6000803e3d6000fd5b505050506040513d601f19601f820116820180604052508101906106949190614dbd565b6040516376225e7360e01b81526001600160a01b03888116600483015260248201889052919250600091829182918516906376225e7390604401606060405180830381600087803b1580156106e857600080fd5b505af11580156106fc573d6000803e3d6000fd5b505050506040513d601f19601f8201168201806040525081019061072091906150f4565b91945092509050600283600581111561074957634e487b7160e01b600052602160045260246000fd5b1415610876576001850154604051630da0f6c760e41b81527fb035c58a9b643066fc5cd78a708da0456c36221a03ca174ff3b76d4306ff7c6c600482015260248101919091526001600160a01b038a169063da0f6c7090604401600060405180830381600087803b1580156107bd57600080fd5b505af11580156107d1573d6000803e3d6000fd5b505050506002850154604051630da0f6c760e41b81527f558062fa5fcc8623e6c743ab5b51793317989a5a93f03b32a485f94843f77da3600482015260248101919091526001600160a01b038a169063da0f6c7090604401600060405180830381600087803b15801561084357600080fd5b505af1158015610857573d6000803e3d6000fd5b5050506005860180546002925060ff19166001835b0217905550610910565b600383600581111561089857634e487b7160e01b600052602160045260246000fd5b14806108c3575060018360058111156108c157634e487b7160e01b600052602160045260246000fd5b145b156108de576005850180546003919060ff191660018361086c565b6040517f70fc772800000000000000000000000000000000000000000000000000000000815260040160405180910390fd5b6001600160a01b03891660009081526002602052604081208190556109358a8a612b42565b6005808801549192507f9a4c9dc7fb16f7e4b4638e51757f59669af6a1ed1c31c3a44d9834d8976c05c5918c918c9160ff1690889081111561098757634e487b7160e01b600052602160045260246000fd5b85888860405161099d97969594939291906153b8565b60405180910390a15050505050506109b58282612e6e565b50505050565b8160006109c782612877565b6001600160a01b03851660008181526005602090815260408083208884529091529081902090516330490e9160e01b815260048101879052929350916330490e9190602401600060405180830381600087803b158015610a2657600080fd5b505af1158015610a3a573d6000803e3d6000fd5b50506040516317ba7d8560e01b81527f907642cbfe4e58ddd14eaa320923fbe4c29721dd0950ae4cb3b2626e292791ae6004820152600092506001600160a01b03881691506317ba7d859060240160206040518083038186803b158015610aa057600080fd5b505afa158015610ab4573d6000803e3d6000fd5b505050506040513d601f19601f82011682018060405250810190610ad89190614dbd565b6040516376225e7360e01b81526001600160a01b03888116600483015260248201889052919250600091829182918516906376225e7390604401606060405180830381600087803b158015610b2c57600080fd5b505af1158015610b40573d6000803e3d6000fd5b505050506040513d601f19601f82011682018060405250810190610b6491906150f4565b919450925090506002836005811115610b8d57634e487b7160e01b600052602160045260246000fd5b1415610bb957610b9d8986612e7d565b6005850180546002919060ff19166001835b0217905550610c21565b6003836005811115610bdb57634e487b7160e01b600052602160045260246000fd5b1480610c0657506001836005811115610c0457634e487b7160e01b600052602160045260246000fd5b145b156108de576005850180546003919060ff1916600183610baf565b6001600160a01b03891660009081526020819052604081208190556109358a8a612b42565b82610c518133612fc0565b836000610c5d82612877565b9050610c688661309e565b610c7186611650565b610cc25760405162461bcd60e51b815260206004820152601760248201527f64616f7365742070726f706f73616c7320756e646f6e6500000000000000000060448201526064015b60405180910390fd5b856001600160a01b0316633477500f6040518163ffffffff1660e01b8152600401600060405180830381600087803b158015610cfd57600080fd5b505af1158015610d11573d6000803e3d6000fd5b505050506000610dbc8760c01b610d97896001600160a01b031663d7543df96040518163ffffffff1660e01b815260040160206040518083038186803b158015610d5a57600080fd5b505afa158015610d6e573d6000803e3d6000fd5b505050506040513d601f19601f82011682018060405250810190610d92919061515d565b613665565b604051602001610da89291906151b5565b6040516020818303038152906040526137bb565b90506040518060c00160405280828152602001878152602001868152602001428152602001886001600160a01b0316639283ae3a7f9876c0f0505bfb2b1c38d3bbd25ba13159172cd0868972d76927723f5a9480fc6040518263ffffffff1660e01b8152600401610e2f91815260200190565b60206040518083038186803b158015610e4757600080fd5b505afa158015610e5b573d6000803e3d6000fd5b505050506040513d601f19601f82011682018060405250810190610e7f919061515d565b610e8990426156e5565b8152600060209182018190526001600160a01b038a168152600982526040808220858352835290819020835181559183015160018084019190915590830151600283015560608301516003808401919091556080840151600484015560a08401516005840180549193909260ff19909216918490811115610f1a57634e487b7160e01b600052602160045260246000fd5b021790555050506001600160a01b0387166000908152600260205260409020819055610f4687826137d7565b7fa65d0c07e3b0d876ee52e871c234a4b150b9bf17a08f356f5aeda8d6782cc31a87826002604051610f7a93929190615412565b60405180910390a150610f8d8282612e6e565b505050505050565b6006602090815260009283526040808420909152908252902080546001820154600283018054929360ff90921692610fcc90615754565b80601f0160208091040260200160405190810160405280929190818152602001828054610ff890615754565b80156110455780601f1061101a57610100808354040283529160200191611045565b820191906000526020600020905b81548152906001019060200180831161102857829003601f168201915b505050600384015460048501546005860154600687015460078801546008890154600990990154979860ff958616989497506001600160a01b03909316955090939092168a565b816110978133612fc0565b8260006110a382612877565b90506110ae8561309e565b6110b785611650565b6111035760405162461bcd60e51b815260206004820152601760248201527f64616f7365742070726f706f73616c7320756e646f6e650000000000000000006044820152606401610cb9565b846001600160a01b031663091a3e9c6040518163ffffffff1660e01b8152600401600060405180830381600087803b15801561113e57600080fd5b505af1158015611152573d6000803e3d6000fd5b5050505060006111ac8660c01b61119b886001600160a01b031663f8385b2d6040518163ffffffff1660e01b815260040160206040518083038186803b158015610d5a57600080fd5b604051602001610da892919061521c565b90506040518060a00160405280828152602001868152602001428152602001876001600160a01b0316639283ae3a7f9876c0f0505bfb2b1c38d3bbd25ba13159172cd0868972d76927723f5a9480fc6040518263ffffffff1660e01b815260040161121991815260200190565b60206040518083038186803b15801561123157600080fd5b505afa158015611245573d6000803e3d6000fd5b505050506040513d601f19601f82011682018060405250810190611269919061515d565b61127390426156e5565b8152600060209182018190526001600160a01b03891681526007825260408082208583528352908190208351815591830151600180840191909155908301516002830155606083015160038084019190915560808401516004840180549193909260ff199092169184908111156112fa57634e487b7160e01b600052602160045260246000fd5b021790555050506001600160a01b038616600090815260046020526040902081905561132686826137d7565b7fa65d0c07e3b0d876ee52e871c234a4b150b9bf17a08f356f5aeda8d6782cc31a8682600460405161135a93929190615412565b60405180910390a15061136d8282612e6e565b5050505050565b81600061138082612877565b6001600160a01b03851660008181526006602090815260408083208884529091529081902090516330490e9160e01b815260048101879052929350916330490e9190602401600060405180830381600087803b1580156113df57600080fd5b505af11580156113f3573d6000803e3d6000fd5b50506040516317ba7d8560e01b81527f907642cbfe4e58ddd14eaa320923fbe4c29721dd0950ae4cb3b2626e292791ae6004820152600092506001600160a01b03881691506317ba7d859060240160206040518083038186803b15801561145957600080fd5b505afa15801561146d573d6000803e3d6000fd5b505050506040513d601f19601f820116820180604052508101906114919190614dbd565b6040516376225e7360e01b81526001600160a01b03888116600483015260248201889052919250600091829182918516906376225e7390604401606060405180830381600087803b1580156114e557600080fd5b505af11580156114f9573d6000803e3d6000fd5b505050506040513d601f19601f8201168201806040525081019061151d91906150f4565b91945092509050600283600581111561154657634e487b7160e01b600052602160045260246000fd5b14156115725761155689866139ed565b6009850180546002919060ff19166001835b02179055506115da565b600383600581111561159457634e487b7160e01b600052602160045260246000fd5b14806115bf575060018360058111156115bd57634e487b7160e01b600052602160045260246000fd5b145b156108de576009850180546003919060ff1916600183611568565b6001600160a01b03891660009081526001602052604081208190556115ff8a8a612b42565b60098701549091507f9a4c9dc7fb16f7e4b4638e51757f59669af6a1ed1c31c3a44d9834d8976c05c5908b908b9060ff1687600581111561098757634e487b7160e01b600052602160045260246000fd5b6001600160a01b03811660009081526020819052604081205415158061168d57506001600160a01b03821660009081526001602052604090205415155b806116af57506001600160a01b03821660009081526004602052604090205415155b806116d157506001600160a01b03821660009081526003602052604090205415155b806116f357506001600160a01b03821660009081526002602052604090205415155b1561170057506000919050565b506001919050565b81600061171482612877565b6001600160a01b03851660008181526008602090815260408083208884529091529081902090516330490e9160e01b815260048101879052929350916330490e9190602401600060405180830381600087803b15801561177357600080fd5b505af1158015611787573d6000803e3d6000fd5b50506040516317ba7d8560e01b81527f907642cbfe4e58ddd14eaa320923fbe4c29721dd0950ae4cb3b2626e292791ae6004820152600092506001600160a01b03881691506317ba7d859060240160206040518083038186803b1580156117ed57600080fd5b505afa158015611801573d6000803e3d6000fd5b505050506040513d601f19601f820116820180604052508101906118259190614dbd565b6040516376225e7360e01b81526001600160a01b03888116600483015260248201889052919250600091829182918516906376225e7390604401606060405180830381600087803b15801561187957600080fd5b505af115801561188d573d6000803e3d6000fd5b505050506040513d601f19601f820116820180604052508101906118b191906150f4565b9194509250905060028360058111156118da57634e487b7160e01b600052602160045260246000fd5b1415611906576118ea8986613f07565b600e850180546002919060ff19166001835b021790555061196e565b600383600581111561192857634e487b7160e01b600052602160045260246000fd5b14806119535750600183600581111561195157634e487b7160e01b600052602160045260246000fd5b145b156108de57600e850180546003919060ff19166001836118fc565b6001600160a01b03891660009081526003602052604081208190556119938a8a612b42565b600e8701549091507f9a4c9dc7fb16f7e4b4638e51757f59669af6a1ed1c31c3a44d9834d8976c05c5908b908b9060ff1687600581111561098757634e487b7160e01b600052602160045260246000fd5b826119ef8133612fc0565b8360006119fb82612877565b9050611a068661309e565b611a0f86611650565b611a5b5760405162461bcd60e51b815260206004820152601760248201527f64616f7365742070726f706f73616c7320756e646f6e650000000000000000006044820152606401610cb9565b856001600160a01b0316631785092b6040518163ffffffff1660e01b8152600401600060405180830381600087803b158015611a9657600080fd5b505af1158015611aaa573d6000803e3d6000fd5b505050506000611b048760c01b611af3896001600160a01b0316633f8a3d496040518163ffffffff1660e01b815260040160206040518083038186803b158015610d5a57600080fd5b604051602001610da8929190615283565b90506040518060c001604052808281526020018715158152602001868152602001428152602001886001600160a01b0316639283ae3a7f9876c0f0505bfb2b1c38d3bbd25ba13159172cd0868972d76927723f5a9480fc6040518263ffffffff1660e01b8152600401611b7991815260200190565b60206040518083038186803b158015611b9157600080fd5b505afa158015611ba5573d6000803e3d6000fd5b505050506040513d601f19601f82011682018060405250810190611bc9919061515d565b611bd390426156e5565b8152602001600090526001600160a01b038816600090815260056020818152604080842086855282529283902084518155908401516001808301805492151560ff1993841617905593850151600283015560608501516003808401919091556080860151600484015560a086015193830180549395909390921691908490811115611c6e57634e487b7160e01b600052602160045260246000fd5b021790555050506001600160a01b0387166000908152602081905260409020819055611c9a87826137d7565b7fa65d0c07e3b0d876ee52e871c234a4b150b9bf17a08f356f5aeda8d6782cc31a87826000604051610f7a93929190615412565b88611cd98133612fc0565b896000611ce582612877565b9050611cf08c611650565b611d3c5760405162461bcd60e51b815260206004820152601760248201527f64616f7365742070726f706f73616c7320756e646f6e650000000000000000006044820152606401610cb9565b611d458c61309e565b8b6001600160a01b031663c7e820cc6040518163ffffffff1660e01b8152600401600060405180830381600087803b158015611d8057600080fd5b505af1158015611d94573d6000803e3d6000fd5b505050506000611dee8d60c01b611ddd8f6001600160a01b0316639e42c4036040518163ffffffff1660e01b815260040160206040518083038186803b158015610d5a57600080fd5b604051602001610da8929190615351565b90506040518061014001604052808281526020018d151581526020018c81526020018b60ff1681526020018a8152602001896001600160a01b031681526020018881526020014281526020018e6001600160a01b0316639283ae3a7f9876c0f0505bfb2b1c38d3bbd25ba13159172cd0868972d76927723f5a9480fc6040518263ffffffff1660e01b8152600401611e8891815260200190565b60206040518083038186803b158015611ea057600080fd5b505afa158015611eb4573d6000803e3d6000fd5b505050506040513d601f19601f82011682018060405250810190611ed8919061515d565b611ee290426156e5565b8152602001600090526001600160a01b038e166000908152600660209081526040808320858452825291829020835181558382015160018201805460ff1916911515919091179055918301518051611f409260028501920190614c9d565b5060608201516003808301805460ff90931660ff199384161790556080840151600484015560a08401516005840180546001600160a01b039092167fffffffffffffffffffffffff000000000000000000000000000000000000000090921691909117905560c0840151600684015560e084015160078401556101008401516008840155610120840151600984018054919390929116906001908490811115611ff957634e487b7160e01b600052602160045260246000fd5b021790555050851590506120795760005b60ff81168611156120775761206487878360ff1681811061203b57634e487b7160e01b600052603260045260246000fd5b90506020020160208101906120509190614da1565b6000848152600a6020526040902090614390565b508061206f816157c2565b91505061200a565b505b6001600160a01b038d16600090815260016020526040902081905561209e8d826137d7565b7fa65d0c07e3b0d876ee52e871c234a4b150b9bf17a08f356f5aeda8d6782cc31a8d8260016040516120d293929190615412565b60405180910390a1506120e58282612e6e565b505050505050505050505050565b816120fe8133612fc0565b82600061210a82612877565b905061211585611650565b6121615760405162461bcd60e51b815260206004820152601760248201527f64616f7365742070726f706f73616c7320756e646f6e650000000000000000006044820152606401610cb9565b61216a8561309e565b846001600160a01b0316631bc0f7876040518163ffffffff1660e01b8152600401600060405180830381600087803b1580156121a557600080fd5b505af11580156121b9573d6000803e3d6000fd5b5050505060006122138660c01b612202886001600160a01b031663656f9f996040518163ffffffff1660e01b815260040160206040518083038186803b158015610d5a57600080fd5b604051602001610da89291906152ea565b90506040518060a001604052808281526020016040518060800160405280886080013581526020018860a0013581526020018860c0013581526020018860e0013581525081526020016040518060800160405280886000013581526020018860200160208101906122849190614da1565b6001600160a01b0316815260200188604001358152602001886060013581525081526020016040518060a00160405280886101000135815260200188610120013581526020018861014001358152602001428152602001896001600160a01b0316639283ae3a7f9876c0f0505bfb2b1c38d3bbd25ba13159172cd0868972d76927723f5a9480fc6040518263ffffffff1660e01b815260040161232991815260200190565b60206040518083038186803b15801561234157600080fd5b505afa158015612355573d6000803e3d6000fd5b505050506040513d601f19601f82011682018060405250810190612379919061515d565b61238390426156e5565b90528152602001600090526001600160a01b038781166000908152600860208181526040808420878552825292839020855181558582015180516001808401919091558184015160028401558186015160038085019190915560609283015160048501558887015180516005860155808601516006860180547fffffffffffffffffffffffff00000000000000000000000000000000000000001691909a16179098558787015160078501559682015194830194909455808701518051600984015592830151600a83015593820151600b82015592810151600c840155608090810151600d840155840151600e8301805493949193909260ff199091169184908111156124a057634e487b7160e01b600052602160045260246000fd5b021790555050506001600160a01b03861660009081526003602052604090208190556124cc86826137d7565b7fa65d0c07e3b0d876ee52e871c234a4b150b9bf17a08f356f5aeda8d6782cc31a8682600360405161135a93929190615412565b6000818152600a6020526040902060609061251a906143ac565b92915050565b81600061252c82612877565b6001600160a01b03851660008181526007602090815260408083208884529091529081902090516330490e9160e01b815260048101879052929350916330490e9190602401600060405180830381600087803b15801561258b57600080fd5b505af115801561259f573d6000803e3d6000fd5b50506040516317ba7d8560e01b81527f907642cbfe4e58ddd14eaa320923fbe4c29721dd0950ae4cb3b2626e292791ae6004820152600092506001600160a01b03881691506317ba7d859060240160206040518083038186803b15801561260557600080fd5b505afa158015612619573d6000803e3d6000fd5b505050506040513d601f19601f8201168201806040525081019061263d9190614dbd565b6040516376225e7360e01b81526001600160a01b03888116600483015260248201889052919250600091829182918516906376225e7390604401606060405180830381600087803b15801561269157600080fd5b505af11580156126a5573d6000803e3d6000fd5b505050506040513d601f19601f820116820180604052508101906126c991906150f4565b9194509250905060028360058111156126f257634e487b7160e01b600052602160045260246000fd5b1415612799576001850154604051630da0f6c760e41b81527f51cc27e85946200c558b984a0c15cad2122655d647f9c02ebe9529f2a0b25a2f600482015260248101919091526001600160a01b038a169063da0f6c7090604401600060405180830381600087803b15801561276657600080fd5b505af115801561277a573d6000803e3d6000fd5b5050506004860180546002925060ff19166001835b0217905550612801565b60038360058111156127bb57634e487b7160e01b600052602160045260246000fd5b14806127e6575060018360058111156127e457634e487b7160e01b600052602160045260246000fd5b145b156108de576004850180546003919060ff191660018361278f565b6001600160a01b03891660009081526004602052604081208190556128268a8a612b42565b60048701549091507f9a4c9dc7fb16f7e4b4638e51757f59669af6a1ed1c31c3a44d9834d8976c05c5908b908b9060ff1687600581111561098757634e487b7160e01b600052602160045260246000fd5b6040805160808101825260008082526020820181905291810182905260608101919091525a81600001818152505043826001600160a01b031663b21634826040518163ffffffff1660e01b815260040160206040518083038186803b1580156128df57600080fd5b505afa1580156128f3573d6000803e3d6000fd5b505050506040513d601f19601f82011682018060405250810190612917919061515d565b14156129655760405162461bcd60e51b815260206004820152601060248201527f7265656e7472616e6379206775617264000000000000000000000000000000006044820152606401610cb9565b816001600160a01b03166310fdb0a26040518163ffffffff1660e01b8152600401600060405180830381600087803b1580156129a057600080fd5b505af11580156129b4573d6000803e3d6000fd5b50506040517f72c6838f0000000000000000000000000000000000000000000000000000000081527f1f2fd42ad6a6cacd573c4b212beb7a4e2499ad45d742a65337097f130e71daff6004820152600092506001600160a01b03851691506372c6838f9060240160206040518083038186803b158015612a3357600080fd5b505afa158015612a47573d6000803e3d6000fd5b505050506040513d601f19601f82011682018060405250810190612a6b9190614dbd565b90506001600160a01b038116612a875760006020830152612b3c565b6001600160a01b038181166060840181905283516040517f43a8a3f1000000000000000000000000000000000000000000000000000000008152928616600484015260248301526000918291906343a8a3f190604401604080518083038186803b158015612af457600080fd5b505afa158015612b08573d6000803e3d6000fd5b505050506040513d601f19601f82011682018060405250810190612b2c9190614ed4565b9015156020860152604085015250505b50919050565b600080836001600160a01b031663a6f636416040518163ffffffff1660e01b815260040160006040518083038186803b158015612b7e57600080fd5b505afa158015612b92573d6000803e3d6000fd5b505050506040513d6000823e601f3d908101601f19168201604052612bba9190810190614e04565b6040516317ba7d8560e01b81527f907642cbfe4e58ddd14eaa320923fbe4c29721dd0950ae4cb3b2626e292791ae600482015290915060009081906001600160a01b038716906317ba7d859060240160206040518083038186803b158015612c2157600080fd5b505afa158015612c35573d6000803e3d6000fd5b505050506040513d601f19601f82011682018060405250810190612c599190614dbd565b905060005b83518160ff161015612e6357816001600160a01b03166324a2cceb8888878560ff1681518110612c9e57634e487b7160e01b600052603260045260246000fd5b60200260200101516040518463ffffffff1660e01b8152600401612ce2939291906001600160a01b0393841681526020810192909252909116604082015260600190565b60206040518083038186803b158015612cfa57600080fd5b505afa158015612d0e573d6000803e3d6000fd5b505050506040513d601f19601f82011682018060405250810190612d329190614eb8565b15612e1057816001600160a01b03166391d2fd538888878560ff1681518110612d6b57634e487b7160e01b600052603260045260246000fd5b60200260200101516040518463ffffffff1660e01b8152600401612daf939291906001600160a01b0393841681526020810192909252909116604082015260600190565b60206040518083038186803b158015612dc757600080fd5b505afa158015612ddb573d6000803e3d6000fd5b505050506040513d601f19601f82011682018060405250810190612dff919061512d565b612e0990846156b1565b9250612e51565b612e4487858360ff1681518110612e3757634e487b7160e01b600052603260045260246000fd5b60200260200101516143b9565b612e4e90846156b1565b92505b80612e5b816157c2565b915050612c5e565b509095945050505050565b612e7982823361498c565b5050565b6001808201546001600160a01b0384169163da0f6c70917f69f4ffb3ebcb7809550bddd3e4d449a47e737bf6635bc7a730996643997b0e489160ff909116151514612ec9576000612ecc565b60015b6040517fffffffff0000000000000000000000000000000000000000000000000000000060e085901b168152600481019290925260ff166024820152604401600060405180830381600087803b158015612f2557600080fd5b505af1158015612f39573d6000803e3d6000fd5b505050506002810154604051630da0f6c760e41b81527fecbde689cc6337d29a750b8b8a8abbfa97427b4ac800ab55be2f2c87311510f2600482015260248101919091526001600160a01b0383169063da0f6c70906044015b600060405180830381600087803b158015612fac57600080fd5b505af1158015610f8d573d6000803e3d6000fd5b6040517fa230c5240000000000000000000000000000000000000000000000000000000081526001600160a01b03828116600483015283169063a230c5249060240160206040518083038186803b15801561301a57600080fd5b505afa15801561302e573d6000803e3d6000fd5b505050506040513d601f19601f820116820180604052508101906130529190614eb8565b612e795760405162461bcd60e51b815260206004820152600c60248201527f6f6e6c79476f7665726e6f7200000000000000000000000000000000000000006044820152606401610cb9565b6040516317ba7d8560e01b81527fd0e09561b13ad01191fc8f65f6fc85651e4f495d3f9ab93d95010ea58382434b60048201526000906001600160a01b038316906317ba7d859060240160206040518083038186803b15801561310057600080fd5b505afa158015613114573d6000803e3d6000fd5b505050506040513d601f19601f820116820180604052508101906131389190614dbd565b6040516317ba7d8560e01b81527f72894213a5c7f56b36b2947fa6ea18963d6bb1a68746b46d7f552cca76e1a7a860048201529091506000906001600160a01b038416906317ba7d859060240160206040518083038186803b15801561319d57600080fd5b505afa1580156131b1573d6000803e3d6000fd5b505050506040513d601f19601f820116820180604052508101906131d59190614dbd565b6040516317ba7d8560e01b81527f3a06648a49edffe95b8384794dfe9cf3ab34782fab0130b4c91bfd53f3407e6b60048201529091506000906001600160a01b038516906317ba7d859060240160206040518083038186803b15801561323a57600080fd5b505afa15801561324e573d6000803e3d6000fd5b505050506040513d601f19601f820116820180604052508101906132729190614dbd565b6040516317ba7d8560e01b81527f1a4f1390baec30049008138e650571a3c4374eba88116bc89dc192f2f9295efe60048201529091506000906001600160a01b038616906317ba7d859060240160206040518083038186803b1580156132d757600080fd5b505afa1580156132eb573d6000803e3d6000fd5b505050506040513d601f19601f8201168201806040525081019061330f9190614dbd565b6040516317ba7d8560e01b81527f3b4de3360220463b2e1b681516ac7919070009f0544e8465d80dc511828dae5b60048201529091506000906001600160a01b038716906317ba7d859060240160206040518083038186803b15801561337457600080fd5b505afa158015613388573d6000803e3d6000fd5b505050506040513d601f19601f820116820180604052508101906133ac9190614dbd565b604051630190bf0360e61b81526001600160a01b0388811660048301529192509086169063642fc0c09060240160206040518083038186803b1580156133f157600080fd5b505afa158015613405573d6000803e3d6000fd5b505050506040513d601f19601f820116820180604052508101906134299190614eb8565b15806134ab5750604051630190bf0360e61b81526001600160a01b03878116600483015285169063642fc0c09060240160206040518083038186803b15801561347157600080fd5b505afa158015613485573d6000803e3d6000fd5b505050506040513d601f19601f820116820180604052508101906134a99190614eb8565b155b8061352c5750604051630190bf0360e61b81526001600160a01b03878116600483015284169063642fc0c09060240160206040518083038186803b1580156134f257600080fd5b505afa158015613506573d6000803e3d6000fd5b505050506040513d601f19601f8201168201806040525081019061352a9190614eb8565b155b806135ad5750604051630190bf0360e61b81526001600160a01b03878116600483015283169063642fc0c09060240160206040518083038186803b15801561357357600080fd5b505afa158015613587573d6000803e3d6000fd5b505050506040513d601f19601f820116820180604052508101906135ab9190614eb8565b155b8061362e5750604051630190bf0360e61b81526001600160a01b03878116600483015282169063642fc0c09060240160206040518083038186803b1580156135f457600080fd5b505afa158015613608573d6000803e3d6000fd5b505050506040513d601f19601f8201168201806040525081019061362c9190614eb8565b155b15610f8d576040517f08988c4f00000000000000000000000000000000000000000000000000000000815260040160405180910390fd5b6060816136a557505060408051808201909152600181527f3000000000000000000000000000000000000000000000000000000000000000602082015290565b8160005b81156136cf57806136b981615789565b91506136c89050600a836156fd565b91506136a9565b60008167ffffffffffffffff8111156136f857634e487b7160e01b600052604160045260246000fd5b6040519080825280601f01601f191660200182016040528015613722576020820181803683370190505b5090505b84156137b357613737600183615711565b9150613744600a866157e2565b61374f9060306156e5565b60f81b81838151811061377257634e487b7160e01b600052603260045260246000fd5b60200101907effffffffffffffffffffffffffffffffffffffffffffffffffffffffffffff1916908160001a9053506137ac600a866156fd565b9450613726565b949350505050565b60008151600014156137cf57506000919050565b506020015190565b6040517fb73dc389000000000000000000000000000000000000000000000000000000008152600481018290526001600160a01b0383169063b73dc38990602401600060405180830381600087803b15801561383257600080fd5b505af1158015613846573d6000803e3d6000fd5b50506040516317ba7d8560e01b81527f907642cbfe4e58ddd14eaa320923fbe4c29721dd0950ae4cb3b2626e292791ae6004820152600092506001600160a01b03851691506317ba7d859060240160206040518083038186803b1580156138ac57600080fd5b505afa1580156138c0573d6000803e3d6000fd5b505050506040513d601f19601f820116820180604052508101906138e49190614dbd565b604080516020810182526000815290517f2b0974d00000000000000000000000000000000000000000000000000000000081529192506001600160a01b03831691632b0974d09161393b918791879160040161564f565b600060405180830381600087803b15801561395557600080fd5b505af1158015613969573d6000803e3d6000fd5b50506040517f815a2bf4000000000000000000000000000000000000000000000000000000008152600481018590526001600160a01b0384811660248301528616925063815a2bf49150604401600060405180830381600087803b1580156139d057600080fd5b505af11580156139e4573d6000803e3d6000fd5b50505050505050565b6001808201546001600160a01b0384169163da0f6c70917f02049446ffbff09ad55d6fdb03c8c6027cf548332d30663e8fdf960abdab86ea9160ff909116151514613a39576000613a3c565b60015b6040517fffffffff0000000000000000000000000000000000000000000000000000000060e085901b168152600481019290925260ff166024820152604401600060405180830381600087803b158015613a9557600080fd5b505af1158015613aa9573d6000803e3d6000fd5b50505050600181015460ff1615612e79576003810154604051630da0f6c760e41b81527f09f0ac4191623c4a1e481e66bb865f218d9f5bcef4e65b597583a054b10182bc600482015260ff90911660248201526001600160a01b0383169063da0f6c7090604401600060405180830381600087803b158015613b2a57600080fd5b505af1158015613b3e573d6000803e3d6000fd5b50505050600481810154604051630da0f6c760e41b81527f6bdd30ca7a0b5a78cdfd780fd2f234880048cafa893e9ccbc9f82df25cdc717f9281019290925260248201526001600160a01b0383169063da0f6c7090604401600060405180830381600087803b158015613bb057600080fd5b505af1158015613bc4573d6000803e3d6000fd5b5050505060058101546040517f3b4f921a0000000000000000000000000000000000000000000000000000000081527f0567bf43e78d815625031c35adddd5d701cb6b913fbad3b625b4f8c00fdc42aa60048201526001600160a01b03918216602482015290831690633b4f921a90604401600060405180830381600087803b158015613c5057600080fd5b505af1158015613c64573d6000803e3d6000fd5b505050506006810154604051630da0f6c760e41b81527f032de4639c5a8edd1ea478b1345b2d031f42ecd2b29442d3080c9ac0545b5f8e600482015260248101919091526001600160a01b0383169063da0f6c7090604401600060405180830381600087803b158015613cd657600080fd5b505af1158015613cea573d6000803e3d6000fd5b505082546000908152600a60205260408120909250613d0991506143ac565b519050600081118015613d22575060038083015460ff16145b15613f02576040516317ba7d8560e01b81527f1a4f1390baec30049008138e650571a3c4374eba88116bc89dc192f2f9295efe60048201526000906001600160a01b038516906317ba7d859060240160206040518083038186803b158015613d8957600080fd5b505afa158015613d9d573d6000803e3d6000fd5b505050506040513d601f19601f82011682018060405250810190613dc19190614dbd565b6040517f22c5c2cc0000000000000000000000000000000000000000000000000000000081526001600160a01b038681166004830152919250908216906322c5c2cc90602401600060405180830381600087803b158015613e2157600080fd5b505af1158015613e35573d6000803e3d6000fd5b5050505060005b828160ff16101561136d5783546000908152600a602052604090206001600160a01b038316906333f7bc0c908790613e779060ff8616614a7d565b6040517fffffffff0000000000000000000000000000000000000000000000000000000060e085901b1681526001600160a01b03928316600482015291166024820152604401600060405180830381600087803b158015613ed757600080fd5b505af1158015613eeb573d6000803e3d6000fd5b505050508080613efa906157c2565b915050613e3c565b505050565b6005810154604051630da0f6c760e41b81527feee23dc9ab95b6666db01c2b6cae6a5ef706099a25926e21e0a2e043fe885604600482015260248101919091526001600160a01b0383169063da0f6c7090604401600060405180830381600087803b158015613f7557600080fd5b505af1158015613f89573d6000803e3d6000fd5b505050506008810154604051630da0f6c760e41b81527fd093d4a34a12a221b19c0a6689d5449f1346aa769d15cca4e9782c36fda9339a600482015260248101919091526001600160a01b0383169063da0f6c7090604401600060405180830381600087803b158015613ffb57600080fd5b505af115801561400f573d6000803e3d6000fd5b505050506001810154604051630da0f6c760e41b81527f1aeed2c0ea31fb81f41489b79a1d09374a270e0f9340ace7354cce77586a7d16600482015260248101919091526001600160a01b0383169063da0f6c7090604401600060405180830381600087803b15801561408157600080fd5b505af1158015614095573d6000803e3d6000fd5b505050506002810154604051630da0f6c760e41b81527f0e0434138ea29dceb1f2c0ca9b9f923f9d1c32d3d96bab2de9991f140daca712600482015260248101919091526001600160a01b0383169063da0f6c7090604401600060405180830381600087803b15801561410757600080fd5b505af115801561411b573d6000803e3d6000fd5b50505050600481810154604051630da0f6c760e41b81527f0324de13a5a6e302ddb95a9fdf81cc736fc8acee2abe558970daac27395904e79281019290925260248201526001600160a01b0383169063da0f6c7090604401600060405180830381600087803b15801561418d57600080fd5b505af11580156141a1573d6000803e3d6000fd5b505050506003810154604051630da0f6c760e41b81527fb4c601c38beae7eebb719eda3438f59fcbfd4c6dd7d38c00665b6fd5b432df32600482015260248101919091526001600160a01b0383169063da0f6c7090604401600060405180830381600087803b15801561421357600080fd5b505af1158015614227573d6000803e3d6000fd5b50505050600b810154604051630da0f6c760e41b81527fb646599143db51c9136a4861a55f7140eab851836e3e1a42ba7804f5356a3655600482015260248101919091526001600160a01b0383169063da0f6c7090604401600060405180830381600087803b15801561429957600080fd5b505af11580156142ad573d6000803e3d6000fd5b505050506009810154604051630da0f6c760e41b81527f9876c0f0505bfb2b1c38d3bbd25ba13159172cd0868972d76927723f5a9480fc600482015260248101919091526001600160a01b0383169063da0f6c7090604401600060405180830381600087803b15801561431f57600080fd5b505af1158015614333573d6000803e3d6000fd5b50505050600a810154604051630da0f6c760e41b81527f02a3530cbb6e7c084516c86f68bd62c3e3fcd783c6c5d7e138616207f7a32250600482015260248101919091526001600160a01b0383169063da0f6c7090604401612f92565b60006143a5836001600160a01b038416614a89565b9392505050565b606060006143a583614ad8565b6040517f9283ae3a0000000000000000000000000000000000000000000000000000000081527feee23dc9ab95b6666db01c2b6cae6a5ef706099a25926e21e0a2e043fe885604600482015260009081906001600160a01b03851690639283ae3a9060240160206040518083038186803b15801561443657600080fd5b505afa15801561444a573d6000803e3d6000fd5b505050506040513d601f19601f8201168201806040525081019061446e919061515d565b6040517f9283ae3a0000000000000000000000000000000000000000000000000000000081527fd093d4a34a12a221b19c0a6689d5449f1346aa769d15cca4e9782c36fda9339a60048201529091506000906001600160a01b03861690639283ae3a9060240160206040518083038186803b1580156144ec57600080fd5b505afa158015614500573d6000803e3d6000fd5b505050506040513d601f19601f82011682018060405250810190614524919061515d565b6040516317ba7d8560e01b81527f8f5b4aabbdb8527d420a29cc90ae207773ad49b73c632c3cfd2f29eb8776f2ea60048201529091506000906001600160a01b038716906317ba7d859060240160206040518083038186803b15801561458957600080fd5b505afa15801561459d573d6000803e3d6000fd5b505050506040513d601f19601f820116820180604052508101906145c19190614dbd565b6040517f68abb5e00000000000000000000000000000000000000000000000000000000081526001600160a01b0388811660048301529192506000918316906368abb5e09060240160206040518083038186803b15801561462157600080fd5b505afa158015614635573d6000803e3d6000fd5b505050506040513d601f19601f82011682018060405250810190614659919061515d565b111580156146f457506040517fa230c5240000000000000000000000000000000000000000000000000000000081526001600160a01b03868116600483015287169063a230c5249060240160206040518083038186803b1580156146bc57600080fd5b505afa1580156146d0573d6000803e3d6000fd5b505050506040513d601f19601f820116820180604052508101906146f49190614eb8565b15614705576001935050505061251a565b8160011415614822576000836147b257604051633de222bb60e21b81526001600160a01b0388811660048301528781166024830152670de0b6b3a7640000919084169063f7888aec9060440160206040518083038186803b15801561476957600080fd5b505afa15801561477d573d6000803e3d6000fd5b505050506040513d601f19601f820116820180604052508101906147a1919061515d565b6147ab91906156fd565b90506147bf565b600094505050505061251a565b600081116147d457600094505050505061251a565b677fffffffffffffff81106147f057603294505050505061251a565b600061480b61480661480184614b34565b614b52565b614c49565b67ffffffffffffffff16955061251a945050505050565b81600214156148d7576000836147b257604051633de222bb60e21b81526001600160a01b03888116600483015287811660248301526000919084169063f7888aec9060440160206040518083038186803b15801561487f57600080fd5b505afa158015614893573d6000803e3d6000fd5b505050506040513d601f19601f820116820180604052508101906148b7919061515d565b116148c35760006148c6565b60015b60ff1690505b935061251a92505050565b81614980576000836147b257604051633de222bb60e21b81526001600160a01b0388811660048301528781166024830152670de0b6b3a7640000919084169063f7888aec9060440160206040518083038186803b15801561493757600080fd5b505afa15801561494b573d6000803e3d6000fd5b505050506040513d601f19601f8201168201806040525081019061496f919061515d565b61497991906156fd565b90506148cc565b6000935050505061251a565b816020015115614a425781606001516001600160a01b0316635e5eb01384835a86516149b89190615711565b60408088015190517fffffffff0000000000000000000000000000000000000000000000000000000060e087901b1681526001600160a01b03948516600482015293909216602484015260448301526064820152608401600060405180830381600087803b158015614a2957600080fd5b505af1158015614a3d573d6000803e3d6000fd5b505050505b826001600160a01b031663d4f7af436040518163ffffffff1660e01b8152600401600060405180830381600087803b1580156139d057600080fd5b60006143a58383614c65565b6000818152600183016020526040812054614ad05750815460018181018455600084815260208082209093018490558454848252828601909352604090209190915561251a565b50600061251a565b606081600001805480602002602001604051908101604052809291908181526020018280548015614b2857602002820191906000526020600020905b815481526020019060010190808311614b14575b50505050509050919050565b6000677fffffffffffffff821115614b4b57600080fd5b5060401b90565b60008082600f0b13614b6357600080fd5b6000600f83900b680100000000000000008112614b82576040918201911d5b6401000000008112614b96576020918201911d5b620100008112614ba8576010918201911d5b6101008112614bb9576008918201911d5b60108112614bc9576004918201911d5b60048112614bd9576002918201911d5b60028112614be8576001820191505b7fffffffffffffffffffffffffffffffffffffffffffffffffffffffffffffffc0820160401b600f85900b607f8490031b6780000000000000005b6000811315612e635790800260ff81901c8281029390930192607f011c9060011d614c23565b60008082600f0b1215614c5b57600080fd5b50600f0b60401d90565b6000826000018281548110614c8a57634e487b7160e01b600052603260045260246000fd5b9060005260206000200154905092915050565b828054614ca990615754565b90600052602060002090601f016020900481019282614ccb5760008555614d11565b82601f10614ce457805160ff1916838001178555614d11565b82800160010185558215614d11579182015b82811115614d11578251825591602001919060010190614cf6565b50614d1d929150614d21565b5090565b5b80821115614d1d5760008155600101614d22565b8035614d418161584e565b919050565b60008083601f840112614d57578182fd5b50813567ffffffffffffffff811115614d6e578182fd5b6020830191508360208260051b8501011115614d8957600080fd5b9250929050565b803560ff81168114614d4157600080fd5b600060208284031215614db2578081fd5b81356143a58161584e565b600060208284031215614dce578081fd5b81516143a58161584e565b60008060408385031215614deb578081fd5b8235614df68161584e565b946020939093013593505050565b60006020808385031215614e16578182fd5b825167ffffffffffffffff80821115614e2d578384fd5b818501915085601f830112614e40578384fd5b815181811115614e5257614e52615838565b8060051b9150614e63848301615680565b8181528481019084860184860187018a1015614e7d578788fd5b8795505b83861015614eab5780519450614e968561584e565b84835260019590950194918601918601614e81565b5098975050505050505050565b600060208284031215614ec9578081fd5b81516143a581615866565b60008060408385031215614ee6578182fd5b8251614ef181615866565b6020939093015192949293505050565b600060208284031215614f12578081fd5b5035919050565b60008060008060008060008060006101008a8c031215614f37578485fd5b8935614f428161584e565b985060208a810135614f5381615866565b985060408b013567ffffffffffffffff80821115614f6f578788fd5b818d0191508d601f830112614f82578788fd5b813581811115614f9457614f94615838565b614fa684601f19601f84011601615680565b8181528f85838601011115614fb957898afd5b818585018683013790810184018990529950614fd760608e01614d90565b985060808d01359750614fec60a08e01614d36565b965060c08d0135955060e08d0135925080831115615008578485fd5b50506150168c828d01614d46565b915080935050809150509295985092959850929598565b600080600060608486031215615041578081fd5b833561504c8161584e565b9250602084013561505c81615866565b929592945050506040919091013590565b60008060408385031215614deb578182fd5b600080828403610180811215615093578283fd5b833561509e8161584e565b9250610160601f19820112156150b2578182fd5b506020830190509250929050565b6000806000606084860312156150d4578081fd5b83356150df8161584e565b95602085013595506040909401359392505050565b600080600060608486031215615108578081fd5b835160068110615116578182fd5b602085015160409095015190969495509392505050565b60006020828403121561513e578081fd5b81516fffffffffffffffffffffffffffffffff811681146143a5578182fd5b60006020828403121561516e578081fd5b5051919050565b6000815180845261518d816020860160208601615728565b601f01601f19169290920160200192915050565b600481106151b1576151b1615822565b9052565b77ffffffffffffffffffffffffffffffffffffffffffffffff19831681527f50726f706f7365722d526577617264230000000000000000000000000000000060088201526000825161520e816018850160208701615728565b919091016018019392505050565b77ffffffffffffffffffffffffffffffffffffffffffffffff19831681527f466565732300000000000000000000000000000000000000000000000000000060088201526000825161527581600d850160208701615728565b91909101600d019392505050565b77ffffffffffffffffffffffffffffffffffffffffffffffff19831681527f496e766573746f722d43617023000000000000000000000000000000000000006008820152600082516152dc816015850160208701615728565b919091016015019392505050565b77ffffffffffffffffffffffffffffffffffffffffffffffff19831681527f766f74696e67230000000000000000000000000000000000000000000000000060088201526000825161534381600f850160208701615728565b91909101600f019392505050565b77ffffffffffffffffffffffffffffffffffffffffffffffff19831681527f476f7665726e6f722d4d656d62657273686970230000000000000000000000006008820152600082516153aa81601c850160208701615728565b91909101601c019392505050565b6001600160a01b03881681526020810187905260e081016153dc60408301886151a1565b8560608301526fffffffffffffffffffffffffffffffff851660808301528360a08301528260c083015298975050505050505050565b6001600160a01b038416815260208101839052606081016005831061543957615439615822565b826040830152949350505050565b6020808252825182820181905260009190848201906040850190845b818110156154885783516001600160a01b031683529284019291840191600101615463565b50909695505050505050565b60006101408c83528b151560208401528060408401526154b68184018c615175565b91505060ff891660608301528760808301526001600160a01b03871660a08301528560c08301528460e0830152836101008301526154f86101208301846151a1565b9b9a5050505050505050505050565b600060c082019050878252861515602083015285604083015284606083015283608083015261553960a08301846151a1565b979650505050505050565b60006101e08201905086825285516020830152602086015160408301526040860151606083015260608601516080830152845160a08301526001600160a01b0360208601511660c0830152604085015160e083015260608501516101008301526155dd61012083018580518252602081015160208301526040810151604083015260608101516060830152608081015160808301525050565b6155eb6101c08301846151a1565b9695505050505050565b600060a0820190508682528560208301528460408301528360608301526155eb60808301846151a1565b600060c08201905087825286602083015285604083015284606083015283608083015261553960a08301846151a1565b6001600160a01b03841681528260208201526060604082015260006156776060830184615175565b95945050505050565b604051601f8201601f1916810167ffffffffffffffff811182821017156156a9576156a9615838565b604052919050565b60006fffffffffffffffffffffffffffffffff8083168185168083038211156156dc576156dc6157f6565b01949350505050565b600082198211156156f8576156f86157f6565b500190565b60008261570c5761570c61580c565b500490565b600082821015615723576157236157f6565b500390565b60005b8381101561574357818101518382015260200161572b565b838111156109b55750506000910152565b600181811c9082168061576857607f821691505b60208210811415612b3c57634e487b7160e01b600052602260045260246000fd5b60007fffffffffffffffffffffffffffffffffffffffffffffffffffffffffffffffff8214156157bb576157bb6157f6565b5060010190565b600060ff821660ff8114156157d9576157d96157f6565b60010192915050565b6000826157f1576157f161580c565b500690565b634e487b7160e01b600052601160045260246000fd5b634e487b7160e01b600052601260045260246000fd5b634e487b7160e01b600052602160045260246000fd5b634e487b7160e01b600052604160045260246000fd5b6001600160a01b038116811461586357600080fd5b50565b801515811461586357600080fdfea2646970667358221220b499b0a0862da67b40fac26aca841de24d09449c40196b8e91ccc08fa1e22e5264736f6c63430008040033",
  "linkReferences": {},
  "deployedLinkReferences": {}
}