{
  "_format": "hh-sol-artifact-1",
  "contractName": "ColletiveFundingPoolAdapterContract",
  "sourceName": "contracts/collective/adapters/CollectiveFundingPoolAdapter.sol",
  "abi": [
    {
      "inputs": [],
      "name": "EXECUTED_ALREADY",
      "type": "error"
    },
    {
      "inputs": [],
      "name": "FUNDRAISE_ENDTIME_NOT_UP",
      "type": "error"
    },
    {
      "inputs": [],
      "name": "INVESTMENT_GRACE_PERIOD",
      "type": "error"
    },
    {
      "inputs": [],
      "name": "MAX_PATICIPANT_AMOUNT_REACH",
      "type": "error"
    },
    {
      "anonymous": false,
      "inputs": [
        {
          "indexed": false,
          "internalType": "address",
          "name": "daoAddress",
          "type": "address"
        },
        {
          "indexed": false,
          "internalType": "uint256",
          "name": "escrowAmount",
          "type": "uint256"
        },
        {
          "indexed": false,
          "internalType": "address",
          "name": "executer",
          "type": "address"
        }
      ],
      "name": "ClearFund",
      "type": "event"
    },
    {
      "anonymous": false,
      "inputs": [
        {
          "indexed": false,
          "internalType": "address",
          "name": "daoAddress",
          "type": "address"
        },
        {
          "indexed": false,
          "internalType": "uint256",
          "name": "amount",
          "type": "uint256"
        },
        {
          "indexed": false,
          "internalType": "address",
          "name": "account",
          "type": "address"
        }
      ],
      "name": "Deposit",
      "type": "event"
    },
    {
      "anonymous": false,
      "inputs": [
        {
          "indexed": false,
          "internalType": "address",
          "name": "daoAddress",
          "type": "address"
        },
        {
          "indexed": false,
          "internalType": "address",
          "name": "account",
          "type": "address"
        },
        {
          "indexed": false,
          "internalType": "uint256",
          "name": "receivedAmount",
          "type": "uint256"
        }
      ],
      "name": "DistributeRedemptionFee",
      "type": "event"
    },
    {
      "anonymous": false,
      "inputs": [
        {
          "indexed": false,
          "internalType": "address",
          "name": "daoAddress",
          "type": "address"
        },
        {
          "indexed": false,
          "internalType": "enum ColletiveFundingPoolAdapterContract.FundState",
          "name": "state",
          "type": "uint8"
        },
        {
          "indexed": false,
          "internalType": "uint256",
          "name": "totalRaised",
          "type": "uint256"
        }
      ],
      "name": "ProcessFundRaise",
      "type": "event"
    },
    {
      "anonymous": false,
      "inputs": [
        {
          "indexed": false,
          "internalType": "address",
          "name": "daoAddress",
          "type": "address"
        },
        {
          "indexed": false,
          "internalType": "address",
          "name": "account",
          "type": "address"
        },
        {
          "indexed": false,
          "internalType": "uint256",
          "name": "amount",
          "type": "uint256"
        },
        {
          "indexed": false,
          "internalType": "uint256",
          "name": "redemptionFee",
          "type": "uint256"
        }
      ],
      "name": "RedeptionFeeCharged",
      "type": "event"
    },
    {
      "anonymous": false,
      "inputs": [
        {
          "indexed": false,
          "internalType": "address",
          "name": "daoAddress",
          "type": "address"
        },
        {
          "indexed": false,
          "internalType": "uint256",
          "name": "amount",
          "type": "uint256"
        },
        {
          "indexed": false,
          "internalType": "address",
          "name": "account",
          "type": "address"
        }
      ],
      "name": "WithDraw",
      "type": "event"
    },
    {
      "inputs": [
        {
          "internalType": "address",
          "name": "",
          "type": "address"
        }
      ],
      "name": "accumulateRaiseAmount",
      "outputs": [
        {
          "internalType": "uint256",
          "name": "",
          "type": "uint256"
        }
      ],
      "stateMutability": "view",
      "type": "function"
    },
    {
      "inputs": [
        {
          "internalType": "contract DaoRegistry",
          "name": "dao",
          "type": "address"
        },
        {
          "internalType": "address",
          "name": "investorAddr",
          "type": "address"
        }
      ],
      "name": "balanceOf",
      "outputs": [
        {
          "internalType": "uint256",
          "name": "",
          "type": "uint256"
        }
      ],
      "stateMutability": "view",
      "type": "function"
    },
    {
      "inputs": [
        {
          "internalType": "contract DaoRegistry",
          "name": "dao",
          "type": "address"
        },
        {
          "internalType": "address",
          "name": "token",
          "type": "address"
        },
        {
          "internalType": "address",
          "name": "investorAddr",
          "type": "address"
        }
      ],
      "name": "balanceOfToken",
      "outputs": [
        {
          "internalType": "uint256",
          "name": "",
          "type": "uint256"
        }
      ],
      "stateMutability": "view",
      "type": "function"
    },
    {
      "inputs": [
        {
          "internalType": "contract DaoRegistry",
          "name": "dao",
          "type": "address"
        }
      ],
      "name": "clearFund",
      "outputs": [],
      "stateMutability": "nonpayable",
      "type": "function"
    },
    {
      "inputs": [
        {
          "internalType": "contract DaoRegistry",
          "name": "dao",
          "type": "address"
        },
        {
          "internalType": "uint256",
          "name": "amount",
          "type": "uint256"
        }
      ],
      "name": "deposit",
      "outputs": [],
      "stateMutability": "nonpayable",
      "type": "function"
    },
    {
      "inputs": [
        {
          "internalType": "address",
          "name": "",
          "type": "address"
        }
      ],
      "name": "fundState",
      "outputs": [
        {
          "internalType": "enum ColletiveFundingPoolAdapterContract.FundState",
          "name": "",
          "type": "uint8"
        }
      ],
      "stateMutability": "view",
      "type": "function"
    },
    {
      "inputs": [
        {
          "internalType": "contract DaoRegistry",
          "name": "dao",
          "type": "address"
        }
      ],
      "name": "getAllInvestors",
      "outputs": [
        {
          "internalType": "address[]",
          "name": "",
          "type": "address[]"
        }
      ],
      "stateMutability": "view",
      "type": "function"
    },
    {
      "inputs": [
        {
          "internalType": "contract DaoRegistry",
          "name": "dao",
          "type": "address"
        },
        {
          "internalType": "uint256",
          "name": "timestamp",
          "type": "uint256"
        }
      ],
      "name": "ifInRedemptionPeriod",
      "outputs": [
        {
          "internalType": "bool",
          "name": "",
          "type": "bool"
        }
      ],
      "stateMutability": "view",
      "type": "function"
    },
    {
      "inputs": [
        {
          "internalType": "contract DaoRegistry",
          "name": "dao",
          "type": "address"
        }
      ],
      "name": "poolBalance",
      "outputs": [
        {
          "internalType": "uint256",
          "name": "",
          "type": "uint256"
        }
      ],
      "stateMutability": "view",
      "type": "function"
    },
    {
      "inputs": [
        {
          "internalType": "contract DaoRegistry",
          "name": "dao",
          "type": "address"
        }
      ],
      "name": "processFundRaise",
      "outputs": [
        {
          "internalType": "bool",
          "name": "",
          "type": "bool"
        }
      ],
      "stateMutability": "nonpayable",
      "type": "function"
    },
    {
      "inputs": [],
      "name": "protocolFee",
      "outputs": [
        {
          "internalType": "uint256",
          "name": "",
          "type": "uint256"
        }
      ],
      "stateMutability": "view",
      "type": "function"
    },
    {
      "inputs": [
        {
          "internalType": "contract DaoRegistry",
          "name": "dao",
          "type": "address"
        }
      ],
      "name": "resetFundRaiseState",
      "outputs": [],
      "stateMutability": "nonpayable",
      "type": "function"
    },
    {
      "inputs": [
        {
          "internalType": "address",
          "name": "",
          "type": "address"
        }
      ],
      "name": "resetFundStateBlockNum",
      "outputs": [
        {
          "internalType": "uint256",
          "name": "",
          "type": "uint256"
        }
      ],
      "stateMutability": "view",
      "type": "function"
    },
    {
      "inputs": [
        {
          "internalType": "contract DaoRegistry",
          "name": "dao",
          "type": "address"
        },
        {
          "internalType": "address",
          "name": "account",
          "type": "address"
        }
      ],
      "name": "returnFundToQuitGovernor",
      "outputs": [
        {
          "internalType": "bool",
          "name": "",
          "type": "bool"
        }
      ],
      "stateMutability": "nonpayable",
      "type": "function"
    },
    {
      "inputs": [
        {
          "internalType": "contract DaoRegistry",
          "name": "dao",
          "type": "address"
        },
        {
          "internalType": "uint256",
          "name": "feeProtocol",
          "type": "uint256"
        }
      ],
      "name": "setProtocolFee",
      "outputs": [],
      "stateMutability": "nonpayable",
      "type": "function"
    },
    {
      "inputs": [
        {
          "internalType": "contract DaoRegistry",
          "name": "dao",
          "type": "address"
        },
        {
          "internalType": "address",
          "name": "token",
          "type": "address"
        },
        {
          "internalType": "address",
          "name": "account",
          "type": "address"
        },
        {
          "internalType": "uint256",
          "name": "amount",
          "type": "uint256"
        }
      ],
      "name": "topupFunds",
      "outputs": [],
      "stateMutability": "nonpayable",
      "type": "function"
    },
    {
      "inputs": [
        {
          "internalType": "contract DaoRegistry",
          "name": "dao",
          "type": "address"
        },
        {
          "internalType": "address",
          "name": "token",
          "type": "address"
        },
        {
          "internalType": "address",
          "name": "account",
          "type": "address"
        },
        {
          "internalType": "uint256",
          "name": "amount",
          "type": "uint256"
        }
      ],
      "name": "transferFromNewGovernor",
      "outputs": [
        {
          "internalType": "bool",
          "name": "",
          "type": "bool"
        }
      ],
      "stateMutability": "nonpayable",
      "type": "function"
    },
    {
      "inputs": [
        {
          "internalType": "contract DaoRegistry",
          "name": "dao",
          "type": "address"
        },
        {
          "internalType": "uint256",
          "name": "amount",
          "type": "uint256"
        }
      ],
      "name": "withdraw",
      "outputs": [],
      "stateMutability": "nonpayable",
      "type": "function"
    }
  ],
  "bytecode": "0x6080604052660aa87bee53800060045534801561001b57600080fd5b5061459c8061002b6000396000f3fe608060405234801561001057600080fd5b50600436106101365760003560e01c806396609c42116100b2578063b5b3ca2c11610081578063f10e6b6b11610066578063f10e6b6b146102be578063f3fef3a3146102d1578063f7888aec146102e457600080fd5b8063b5b3ca2c14610298578063b9bf3136146102ab57600080fd5b806396609c4214610249578063a2d165d21461025c578063b09364521461026f578063b0e21e8a1461028f57600080fd5b806347e7ef241161010957806368abb5e0116100ee57806368abb5e01461021057806383cffffe146102235780638fbc7eb01461023657600080fd5b806347e7ef24146101db57806350d9e688146101f057600080fd5b80630c916bae1461013b5780631c0ecc7f146101745780633a844ec0146101a257806342bb3079146101c8575b600080fd5b61015e610149366004614145565b60016020526000908152604090205460ff1681565b60405161016b9190614468565b60405180910390f35b610194610182366004614145565b60036020526000908152604090205481565b60405190815260200161016b565b6101b86101b036600461435b565b600092915050565b604051901515815260200161016b565b6101b86101d636600461430b565b6102f7565b6101ee6101e936600461435b565b6107ee565b005b6102036101fe366004614145565b6116cf565b60405161016b919061441b565b61019461021e366004614145565b6116f9565b6101ee610231366004614145565b611818565b6101946102443660046142c1565b611eb2565b6101b8610257366004614145565b611ff5565b6101b861026a366004614289565b612311565b61019461027d366004614145565b60026020526000908152604090205481565b61019460045481565b6101ee6102a636600461435b565b61272a565b6101ee6102b936600461430b565b61278f565b6101ee6102cc366004614145565b612cf3565b6101ee6102df36600461435b565b612e62565b6101946102f2366004614289565b6133e3565b6040516317ba7d8560e01b81527f1a4f1390baec30049008138e650571a3c4374eba88116bc89dc192f2f9295efe60048201526000906001600160a01b038616906317ba7d859060240160206040518083038186803b15801561035957600080fd5b505afa15801561036d573d6000803e3d6000fd5b505050506040513d601f19601f820116820180604052508101906103919190614161565b6001600160a01b0316336001600160a01b0316146103f65760405162461bcd60e51b815260206004820152600b60248201527f4163636573732044656e7900000000000000000000000000000000000000000060448201526064015b60405180910390fd5b6040516370a0823160e01b81526001600160a01b0384811660048301528391908616906370a082319060240160206040518083038186803b15801561043a57600080fd5b505afa15801561044e573d6000803e3d6000fd5b505050506040513d601f19601f8201168201806040525081019061047291906143b6565b10806104fd5750604051636eb1769f60e11b81526001600160a01b03848116600483015230602483015283919086169063dd62ed3e9060440160206040518083038186803b1580156104c357600080fd5b505afa1580156104d7573d6000803e3d6000fd5b505050506040513d601f19601f820116820180604052508101906104fb91906143b6565b105b1561050a575060006107e6565b6040516323b872dd60e01b81526001600160a01b038481166004830152306024830152604482018490528516906323b872dd90606401602060405180830381600087803b15801561055a57600080fd5b505af115801561056e573d6000803e3d6000fd5b505050506040513d601f19601f820116820180604052508101906105929190614244565b50604051632c9f4b5b60e11b81527f3909e87234f428ccb8748126e2c93f66a62f92a70d315fa5803dec6362be07ab60048201526001600160a01b038086169163095ea7b39188169063593e96b69060240160206040518083038186803b1580156105fc57600080fd5b505afa158015610610573d6000803e3d6000fd5b505050506040513d601f19601f820116820180604052508101906106349190614161565b6040516001600160e01b031960e084901b1681526001600160a01b03909116600482015260248101859052604401602060405180830381600087803b15801561067c57600080fd5b505af1158015610690573d6000803e3d6000fd5b505050506040513d601f19601f820116820180604052508101906106b49190614244565b50604051632c9f4b5b60e11b81527f3909e87234f428ccb8748126e2c93f66a62f92a70d315fa5803dec6362be07ab60048201526000906001600160a01b0387169063593e96b69060240160206040518083038186803b15801561071757600080fd5b505afa15801561072b573d6000803e3d6000fd5b505050506040513d601f19601f8201168201806040525081019061074f9190614161565b6040517fc57d5fe90000000000000000000000000000000000000000000000000000000081526001600160a01b0386811660048301528781166024830152604482018690529192509082169063c57d5fe990606401600060405180830381600087803b1580156107be57600080fd5b505af11580156107d2573d6000803e3d6000fd5b505050506107e086856134fc565b60019150505b949350505050565b8160006107fa82613656565b90506000831161084c5760405162461bcd60e51b815260206004820152600760248201527f21616d6f756e740000000000000000000000000000000000000000000000000060448201526064016103ed565b6108876040518060a001604052806000815260200160008152602001600081526020016000815260200160006001600160a01b031681525090565b604051634941d71d60e11b81527f5fa39c8100b49336846e52d39403e353bf782275f905a885f09224779ff1c92460048201526001600160a01b03861690639283ae3a9060240160206040518083038186803b1580156108e657600080fd5b505afa1580156108fa573d6000803e3d6000fd5b505050506040513d601f19601f8201168201806040525081019061091e91906143b6565b8152604051634941d71d60e11b81527fbdd40865e74210f0a46799ae63462c62010da92014a08cbc32f1d049d0a22c6b60048201526001600160a01b03861690639283ae3a9060240160206040518083038186803b15801561097f57600080fd5b505afa158015610993573d6000803e3d6000fd5b505050506040513d601f19601f820116820180604052508101906109b791906143b6565b6020820152604051634941d71d60e11b81527f7e07fb4530796d057ca1d76d83f47aa8629dbb7e942ac28f30ad6f5e9e8d418960048201526001600160a01b03861690639283ae3a9060240160206040518083038186803b158015610a1b57600080fd5b505afa158015610a2f573d6000803e3d6000fd5b505050506040513d601f19601f82011682018060405250810190610a5391906143b6565b6040820152602081015115610ab6578060200151841015610ab65760405162461bcd60e51b815260206004820152601460248201527f3c206d696e206465706f73697420616d6f756e7400000000000000000000000060448201526064016103ed565b805115610d17578051604051632c9f4b5b60e11b81527f3909e87234f428ccb8748126e2c93f66a62f92a70d315fa5803dec6362be07ab60048201526001600160a01b0387169063593e96b69060240160206040518083038186803b158015610b1e57600080fd5b505afa158015610b32573d6000803e3d6000fd5b505050506040513d601f19601f82011682018060405250810190610b569190614161565b6001600160a01b031663faaf38b333886001600160a01b031663fd310d297f7fa36390a0e9b8b8004035572fd8345b1128cea12d1763a1baf8fbd4fb7b20276040518263ffffffff1660e01b8152600401610bb391815260200190565b60206040518083038186803b158015610bcb57600080fd5b505afa158015610bdf573d6000803e3d6000fd5b505050506040513d601f19601f82011682018060405250810190610c039190614161565b6001600160a01b038a81166000908152600360205260409081902054905160e086901b6001600160e01b0319168152938216600485015291166024830152604482015260640160206040518083038186803b158015610c6157600080fd5b505afa158015610c75573d6000803e3d6000fd5b505050506040513d601f19601f82011682018060405250810190610c999190614386565b6fffffffffffffffffffffffffffffffff16610cb587336133e3565b610cbf91906144eb565b610cc99086614476565b1115610d175760405162461bcd60e51b815260206004820152601460248201527f3e206d6178206465706f73697420616d6f756e7400000000000000000000000060448201526064016103ed565b604051634941d71d60e11b81527fbd04d44792b7dbfe3b50b0f9f2006f7ef449e374a39021cb9bfa7cd0bdd850d7600482015242906001600160a01b03871690639283ae3a9060240160206040518083038186803b158015610d7857600080fd5b505afa158015610d8c573d6000803e3d6000fd5b505050506040513d601f19601f82011682018060405250810190610db091906143b6565b108015610e535750604051634941d71d60e11b81527f533afc15b6312917b5e28e2272ea69d44e5ea8e00d3bd57cada1275c2f14c9e8600482015242906001600160a01b03871690639283ae3a9060240160206040518083038186803b158015610e1957600080fd5b505afa158015610e2d573d6000803e3d6000fd5b505050506040513d601f19601f82011682018060405250810190610e5191906143b6565b115b610e9f5760405162461bcd60e51b815260206004820152601360248201527f2166756e6472616973696e672077696e646f770000000000000000000000000060448201526064016103ed565b604051634941d71d60e11b81527ff301d5aec67a9d816d38f9b645cac1e79a3308ff9803564bbe63a862db82f46b60048201526001600160a01b03861690639283ae3a9060240160206040518083038186803b158015610efe57600080fd5b505afa158015610f12573d6000803e3d6000fd5b505050506040513d601f19601f82011682018060405250810190610f3691906143b6565b158015610f47575060008160400151115b15610fd7576040808201516001600160a01b03871660009081526002602052919091205485610f75886116f9565b610f7f9190614476565b610f8991906144eb565b1115610fd75760405162461bcd60e51b815260206004820152601660248201527f3e2046756e647261697365206d617820616d6f756e740000000000000000000060448201526064016103ed565b604051632c9f4b5b60e11b81527f3909e87234f428ccb8748126e2c93f66a62f92a70d315fa5803dec6362be07ab60048201526001600160a01b0386169063593e96b69060240160206040518083038186803b15801561103657600080fd5b505afa15801561104a573d6000803e3d6000fd5b505050506040513d601f19601f8201168201806040525081019061106e9190614161565b6001600160a01b039081166080830152604051634941d71d60e11b81527f69f4ffb3ebcb7809550bddd3e4d449a47e737bf6635bc7a730996643997b0e48600482015290861690639283ae3a9060240160206040518083038186803b1580156110d657600080fd5b505afa1580156110ea573d6000803e3d6000fd5b505050506040513d601f19601f8201168201806040525081019061110e91906143b6565b60011480156111d35750604051634941d71d60e11b81527fecbde689cc6337d29a750b8b8a8abbfa97427b4ac800ab55be2f2c87311510f260048201526001600160a01b03861690639283ae3a9060240160206040518083038186803b15801561117757600080fd5b505afa15801561118b573d6000803e3d6000fd5b505050506040513d601f19601f820116820180604052508101906111af91906143b6565b6001600160a01b03861660009081526020819052604090206111d090613921565b10155b80156111fe57506001600160a01b03851660009081526020819052604090206111fc903361392b565b155b15611235576040517ffa088e8a00000000000000000000000000000000000000000000000000000000815260040160405180910390fd5b600081608001516001600160a01b031663a87af66c6040518163ffffffff1660e01b815260040160206040518083038186803b15801561127457600080fd5b505afa158015611288573d6000803e3d6000fd5b505050506040513d601f19601f820116820180604052508101906112ac9190614161565b6040516370a0823160e01b815233600482015290915085906001600160a01b038316906370a082319060240160206040518083038186803b1580156112f057600080fd5b505afa158015611304573d6000803e3d6000fd5b505050506040513d601f19601f8201168201806040525081019061132891906143b6565b10156113765760405162461bcd60e51b815260206004820152600560248201527f2166756e6400000000000000000000000000000000000000000000000000000060448201526064016103ed565b604051636eb1769f60e11b815233600482015230602482015285906001600160a01b0383169063dd62ed3e9060440160206040518083038186803b1580156113bd57600080fd5b505afa1580156113d1573d6000803e3d6000fd5b505050506040513d601f19601f820116820180604052508101906113f591906143b6565b10156114435760405162461bcd60e51b815260206004820152600a60248201527f21616c6c6f77616e63650000000000000000000000000000000000000000000060448201526064016103ed565b6040516323b872dd60e01b8152336004820152306024820152604481018690526001600160a01b038216906323b872dd90606401602060405180830381600087803b15801561149157600080fd5b505af11580156114a5573d6000803e3d6000fd5b505050506040513d601f19601f820116820180604052508101906114c99190614244565b50604051632c9f4b5b60e11b81527f3909e87234f428ccb8748126e2c93f66a62f92a70d315fa5803dec6362be07ab60048201526001600160a01b038083169163095ea7b39189169063593e96b69060240160206040518083038186803b15801561153357600080fd5b505afa158015611547573d6000803e3d6000fd5b505050506040513d601f19601f8201168201806040525081019061156b9190614161565b6040516001600160e01b031960e084901b1681526001600160a01b03909116600482015260248101889052604401602060405180830381600087803b1580156115b357600080fd5b505af11580156115c7573d6000803e3d6000fd5b505050506040513d601f19601f820116820180604052508101906115eb9190614244565b5060808201516040517fb08079a6000000000000000000000000000000000000000000000000000000008152336004820152602481018790526001600160a01b039091169063b08079a690604401600060405180830381600087803b15801561165357600080fd5b505af1158015611667573d6000803e3d6000fd5b5050505061167586336134fc565b604080516001600160a01b038816815260208101879052338183015290517fe31c7b8d08ee7db0afa68782e1028ef92305caeea8626633ad44d413e30f6b2f9181900360600190a150506116c9828261394d565b50505050565b6001600160a01b03811660009081526020819052604090206060906116f390613958565b92915050565b604051632c9f4b5b60e11b81527f3909e87234f428ccb8748126e2c93f66a62f92a70d315fa5803dec6362be07ab600482015260009081906001600160a01b0384169063593e96b69060240160206040518083038186803b15801561175d57600080fd5b505afa158015611771573d6000803e3d6000fd5b505050506040513d601f19601f820116820180604052508101906117959190614161565b6040516370a0823160e01b815261decd60048201529091506001600160a01b038216906370a082319060240160206040518083038186803b1580156117d957600080fd5b505afa1580156117ed573d6000803e3d6000fd5b505050506040513d601f19601f8201168201806040525081019061181191906143b6565b9392505050565b80600061182482613656565b905060036001600160a01b03841660009081526001602052604090205460ff16600381111561186357634e487b7160e01b600052602160045260246000fd5b1480156119055750604051634941d71d60e11b81527f533afc15b6312917b5e28e2272ea69d44e5ea8e00d3bd57cada1275c2f14c9e860048201526001600160a01b03841690639283ae3a9060240160206040518083038186803b1580156118ca57600080fd5b505afa1580156118de573d6000803e3d6000fd5b505050506040513d601f19601f8201168201806040525081019061190291906143b6565b42115b8061194a575060026001600160a01b03841660009081526001602052604090205460ff16600381111561194857634e487b7160e01b600052602160045260246000fd5b145b6119965760405162461bcd60e51b815260206004820152601b60248201527f43616e7420636c65617246756e6420617420746869732074696d65000000000060448201526064016103ed565b604051632c9f4b5b60e11b81527f3909e87234f428ccb8748126e2c93f66a62f92a70d315fa5803dec6362be07ab60048201526000906001600160a01b0385169063593e96b69060240160206040518083038186803b1580156119f857600080fd5b505afa158015611a0c573d6000803e3d6000fd5b505050506040513d601f19601f82011682018060405250810190611a309190614161565b90506000816001600160a01b031663a87af66c6040518163ffffffff1660e01b815260040160206040518083038186803b158015611a6d57600080fd5b505afa158015611a81573d6000803e3d6000fd5b505050506040513d601f19601f82011682018060405250810190611aa59190614161565b6001600160a01b038616600090815260208190526040812091925090611aca90613958565b805190915015611ea0576000805b82518160ff161015611e3f576000611b1a89858460ff1681518110611b0d57634e487b7160e01b600052603260045260246000fd5b60200260200101516133e3565b90508015611e2c576040516317ba7d8560e01b81527f372fda66f626a705d3a459960a1457403a7c3564acccedc00092ea70262b708360048201526000906001600160a01b038b16906317ba7d859060240160206040518083038186803b158015611b8457600080fd5b505afa158015611b98573d6000803e3d6000fd5b505050506040513d601f19601f82011682018060405250810190611bbc9190614161565b9050806001600160a01b03166336896be78b88888760ff1681518110611bf257634e487b7160e01b600052603260045260246000fd5b60209081029190910101516040516001600160e01b031960e086901b1681526001600160a01b039384166004820152918316602483015291909116604482015260648101859052608401600060405180830381600087803b158015611c5657600080fd5b505af1158015611c6a573d6000803e3d6000fd5b50506040516317ba7d8560e01b81527f372fda66f626a705d3a459960a1457403a7c3564acccedc00092ea70262b708360048201526001600160a01b03808b16935063e176b35e92508d16906317ba7d859060240160206040518083038186803b158015611cd757600080fd5b505afa158015611ceb573d6000803e3d6000fd5b505050506040513d601f19601f82011682018060405250810190611d0f9190614161565b6040516001600160e01b031960e084901b1681526001600160a01b039182166004820152908916602482015260448101859052606401600060405180830381600087803b158015611d5f57600080fd5b505af1158015611d73573d6000803e3d6000fd5b50505050866001600160a01b031663e3a05cc1868560ff1681518110611da957634e487b7160e01b600052603260045260246000fd5b60209081029190910101516040516001600160e01b031960e084901b1681526001600160a01b039182166004820152908916602482015260448101859052606401600060405180830381600087803b158015611e0457600080fd5b505af1158015611e18573d6000803e3d6000fd5b505050508184611e289190614476565b9350505b5080611e3781614502565b915050611ad8565b506001600160a01b038716600081815260016020908152604091829020805460ff19169055815192835282018390523382820152517f12d0dcfe23709357491021067eb05d73fa0b1f1aeb69310c2071218e089f057f9181900360600190a1505b505050611ead828261394d565b505050565b604051632c9f4b5b60e11b81527f3909e87234f428ccb8748126e2c93f66a62f92a70d315fa5803dec6362be07ab600482015260009081906001600160a01b0386169063593e96b69060240160206040518083038186803b158015611f1657600080fd5b505afa158015611f2a573d6000803e3d6000fd5b505050506040513d601f19601f82011682018060405250810190611f4e9190614161565b6040517ff59e38b70000000000000000000000000000000000000000000000000000000081526001600160a01b03858116600483015286811660248301529192509082169063f59e38b79060440160206040518083038186803b158015611fb457600080fd5b505afa158015611fc8573d6000803e3d6000fd5b505050506040513d601f19601f82011682018060405250810190611fec91906143b6565b95945050505050565b604051634941d71d60e11b81527f31af571e53636dddd77f772cce9d30b42075760f2da731636acc6962da2fbef8600482015260009081906001600160a01b03841690639283ae3a9060240160206040518083038186803b15801561205957600080fd5b505afa15801561206d573d6000803e3d6000fd5b505050506040513d601f19601f8201168201806040525081019061209191906143b6565b604051634941d71d60e11b81527f533afc15b6312917b5e28e2272ea69d44e5ea8e00d3bd57cada1275c2f14c9e860048201529091506000906001600160a01b03851690639283ae3a9060240160206040518083038186803b1580156120f657600080fd5b505afa15801561210a573d6000803e3d6000fd5b505050506040513d601f19601f8201168201806040525081019061212e91906143b6565b9050804211612169576040517ff082211800000000000000000000000000000000000000000000000000000000815260040160405180910390fd5b60016001600160a01b03851660009081526001602052604090205460ff1660038111156121a657634e487b7160e01b600052602160045260246000fd5b14156122d5576001600160a01b03841660009081526002602052604090205482906121d0866116f9565b6121da91906144eb565b10612207576001600160a01b0384166000908152600160205260409020805460ff19166002179055612257565b6001600160a01b0384166000908152600160209081526040808320805460ff19166003179055600290915281205461223e866116f9565b61224891906144eb565b11156122575761225784611818565b6001600160a01b0384166000908152600160209081526040808320546002909252909120547fe9975264b50cb635621ce71b45426b9994cf2bf91f3aa9d73b337a96cf2d728391869160ff909116906122af836116f9565b6122b991906144eb565b6040516122c8939291906143f0565b60405180910390a1612307565b6040517ff918bf6c00000000000000000000000000000000000000000000000000000000815260040160405180910390fd5b5060019392505050565b60008061231e84846133e3565b1161232b575060006116f3565b6040516317ba7d8560e01b81527f1a4f1390baec30049008138e650571a3c4374eba88116bc89dc192f2f9295efe60048201526001600160a01b038416906317ba7d859060240160206040518083038186803b15801561238a57600080fd5b505afa15801561239e573d6000803e3d6000fd5b505050506040513d601f19601f820116820180604052508101906123c29190614161565b6001600160a01b0316336001600160a01b0316146124225760405162461bcd60e51b815260206004820152600b60248201527f4163636573732044656e7900000000000000000000000000000000000000000060448201526064016103ed565b600061242e84846133e3565b604051634941d71d60e11b81527f51cc27e85946200c558b984a0c15cad2122655d647f9c02ebe9529f2a0b25a2f6004820152909150600090670de0b6b3a7640000906001600160a01b03871690639283ae3a9060240160206040518083038186803b15801561249d57600080fd5b505afa1580156124b1573d6000803e3d6000fd5b505050506040513d601f19601f820116820180604052508101906124d591906143b6565b6124df90846144ae565b6124e9919061448e565b604051632c9f4b5b60e11b81527f3909e87234f428ccb8748126e2c93f66a62f92a70d315fa5803dec6362be07ab60048201529091506000906001600160a01b0387169063593e96b69060240160206040518083038186803b15801561254e57600080fd5b505afa158015612562573d6000803e3d6000fd5b505050506040513d601f19601f820116820180604052508101906125869190614161565b90506000816001600160a01b031663a87af66c6040518163ffffffff1660e01b815260040160206040518083038186803b1580156125c357600080fd5b505afa1580156125d7573d6000803e3d6000fd5b505050506040513d601f19601f820116820180604052508101906125fb9190614161565b90506001600160a01b03821663d9caed12878361261887896144eb565b6040516001600160e01b031960e086901b1681526001600160a01b0393841660048201529290911660248301526044820152606401600060405180830381600087803b15801561266757600080fd5b505af115801561267b573d6000803e3d6000fd5b50506040517fe3a05cc10000000000000000000000000000000000000000000000000000000081526001600160a01b0389811660048301528481166024830152604482018890528516925063e3a05cc19150606401600060405180830381600087803b1580156126ea57600080fd5b505af11580156126fe573d6000803e3d6000fd5b5050505061270c8787613965565b821561271d5761271d878285613a66565b5060019695505050505050565b81600061273682613656565b90508361274281613ce3565b6001600160a01b0316336001600160a01b03161461275f57600080fd5b670de0b6b3a7640000841080156127765750600084115b61277f57600080fd5b5060048390556116c9828261394d565b6040516317ba7d8560e01b81527f3b4de3360220463b2e1b681516ac7919070009f0544e8465d80dc511828dae5b60048201526001600160a01b038516906317ba7d859060240160206040518083038186803b1580156127ee57600080fd5b505afa158015612802573d6000803e3d6000fd5b505050506040513d601f19601f820116820180604052508101906128269190614161565b6001600160a01b0316336001600160a01b0316146128865760405162461bcd60e51b815260206004820152600b60248201527f4163636573732044656e7900000000000000000000000000000000000000000060448201526064016103ed565b6040516370a0823160e01b81526001600160a01b0383811660048301528291908516906370a082319060240160206040518083038186803b1580156128ca57600080fd5b505afa1580156128de573d6000803e3d6000fd5b505050506040513d601f19601f8201168201806040525081019061290291906143b6565b10156129505760405162461bcd60e51b815260206004820152601160248201527f696e73756666696369656e742066756e6400000000000000000000000000000060448201526064016103ed565b604051636eb1769f60e11b81526001600160a01b03838116600483015230602483015282919085169063dd62ed3e9060440160206040518083038186803b15801561299a57600080fd5b505afa1580156129ae573d6000803e3d6000fd5b505050506040513d601f19601f820116820180604052508101906129d291906143b6565b1015612a205760405162461bcd60e51b815260206004820152601660248201527f696e73756666696369656e7420616c6c6f77616e63650000000000000000000060448201526064016103ed565b6040516323b872dd60e01b81526001600160a01b038381166004830152306024830152604482018390528416906323b872dd90606401602060405180830381600087803b158015612a7057600080fd5b505af1158015612a84573d6000803e3d6000fd5b505050506040513d601f19601f82011682018060405250810190612aa89190614244565b50604051632c9f4b5b60e11b81527f3909e87234f428ccb8748126e2c93f66a62f92a70d315fa5803dec6362be07ab60048201526001600160a01b038085169163095ea7b39187169063593e96b69060240160206040518083038186803b158015612b1257600080fd5b505afa158015612b26573d6000803e3d6000fd5b505050506040513d601f19601f82011682018060405250810190612b4a9190614161565b6040516001600160e01b031960e084901b1681526001600160a01b03909116600482015260248101849052604401602060405180830381600087803b158015612b9257600080fd5b505af1158015612ba6573d6000803e3d6000fd5b505050506040513d601f19601f82011682018060405250810190612bca9190614244565b50604051632c9f4b5b60e11b81527f3909e87234f428ccb8748126e2c93f66a62f92a70d315fa5803dec6362be07ab60048201526000906001600160a01b0386169063593e96b69060240160206040518083038186803b158015612c2d57600080fd5b505afa158015612c41573d6000803e3d6000fd5b505050506040513d601f19601f82011682018060405250810190612c659190614161565b6040517fc57d5fe90000000000000000000000000000000000000000000000000000000081526001600160a01b0385811660048301528681166024830152604482018590529192509082169063c57d5fe990606401600060405180830381600087803b158015612cd457600080fd5b505af1158015612ce8573d6000803e3d6000fd5b505050505050505050565b6040516317ba7d8560e01b81527f3a06648a49edffe95b8384794dfe9cf3ab34782fab0130b4c91bfd53f3407e6b60048201526001600160a01b038216906317ba7d859060240160206040518083038186803b158015612d5257600080fd5b505afa158015612d66573d6000803e3d6000fd5b505050506040513d601f19601f82011682018060405250810190612d8a9190614161565b6001600160a01b0316336001600160a01b031614612dea5760405162461bcd60e51b815260206004820152600b60248201527f4163636573732064656e7900000000000000000000000000000000000000000060448201526064016103ed565b6001600160a01b0381166000908152600160208190526040909120805460ff19169091179055612e19816116f9565b6001600160a01b03821660009081526002602052604081208054909190612e41908490614476565b90915550506001600160a01b03166000908152600360205260409020439055565b816000612e6e82613656565b6040516317ba7d8560e01b81527f72894213a5c7f56b36b2947fa6ea18963d6bb1a68746b46d7f552cca76e1a7a860048201529091506000906001600160a01b038616906317ba7d859060240160206040518083038186803b158015612ed357600080fd5b505afa158015612ee7573d6000803e3d6000fd5b505050506040513d601f19601f82011682018060405250810190612f0b9190614161565b6040517f4fd194f60000000000000000000000000000000000000000000000000000000081526001600160a01b03878116600483015291925090821690634fd194f69060240160206040518083038186803b158015612f6957600080fd5b505afa158015612f7d573d6000803e3d6000fd5b505050506040513d601f19601f82011682018060405250810190612fa19190614244565b612fd7576040517f6132398d00000000000000000000000000000000000000000000000000000000815260040160405180910390fd5b604051632c9f4b5b60e11b81527f3909e87234f428ccb8748126e2c93f66a62f92a70d315fa5803dec6362be07ab60048201526000906001600160a01b0387169063593e96b69060240160206040518083038186803b15801561303957600080fd5b505afa15801561304d573d6000803e3d6000fd5b505050506040513d601f19601f820116820180604052508101906130719190614161565b90506000816001600160a01b031663a87af66c6040518163ffffffff1660e01b815260040160206040518083038186803b1580156130ae57600080fd5b505afa1580156130c2573d6000803e3d6000fd5b505050506040513d601f19601f820116820180604052508101906130e69190614161565b905060006130f488336133e3565b9050600087116131465760405162461bcd60e51b815260206004820152600760248201527f21616d6f756e740000000000000000000000000000000000000000000000000060448201526064016103ed565b808711156131965760405162461bcd60e51b815260206004820152600860248201527f3e62616c616e636500000000000000000000000000000000000000000000000060448201526064016103ed565b604051634941d71d60e11b81527f51cc27e85946200c558b984a0c15cad2122655d647f9c02ebe9529f2a0b25a2f6004820152600090670de0b6b3a7640000906001600160a01b038b1690639283ae3a9060240160206040518083038186803b15801561320257600080fd5b505afa158015613216573d6000803e3d6000fd5b505050506040513d601f19601f8201168201806040525081019061323a91906143b6565b613244908a6144ae565b61324e919061448e565b90506001600160a01b03841663d9caed12338561326b858d6144eb565b6040516001600160e01b031960e086901b1681526001600160a01b0393841660048201529290911660248301526044820152606401600060405180830381600087803b1580156132ba57600080fd5b505af11580156132ce573d6000803e3d6000fd5b50506040517fe3a05cc10000000000000000000000000000000000000000000000000000000081523360048201526001600160a01b038681166024830152604482018c90528716925063e3a05cc19150606401600060405180830381600087803b15801561333b57600080fd5b505af115801561334f573d6000803e3d6000fd5b50505050600061335f8a336133e3565b1161336e5761336e8933613965565b801561337f5761337f898483613a66565b7fd432fbc5f79eaeefd01acbebd76cf4b0d5f43d8372c2fd3e23761c06a60a75f1896133ab838b6144eb565b604080516001600160a01b0390931683526020830191909152339082015260600160405180910390a150505050506116c9828261394d565b604051632c9f4b5b60e11b81527f3909e87234f428ccb8748126e2c93f66a62f92a70d315fa5803dec6362be07ab600482015260009081906001600160a01b0385169063593e96b69060240160206040518083038186803b15801561344757600080fd5b505afa15801561345b573d6000803e3d6000fd5b505050506040513d601f19601f8201168201806040525081019061347f9190614161565b6040516370a0823160e01b81526001600160a01b038581166004830152919250908216906370a082319060240160206040518083038186803b1580156134c457600080fd5b505afa1580156134d8573d6000803e3d6000fd5b505050506040513d601f19601f820116820180604052508101906107e691906143b6565b6001600160a01b038216600090815260208190526040902061351e908261392b565b613546576001600160a01b03821660009081526020819052604090206135449082613dc6565b505b6040517fa230c5240000000000000000000000000000000000000000000000000000000081526001600160a01b03828116600483015283169063a230c5249060240160206040518083038186803b1580156135a057600080fd5b505afa1580156135b4573d6000803e3d6000fd5b505050506040513d601f19601f820116820180604052508101906135d89190614244565b613652576040517fdc929f4a0000000000000000000000000000000000000000000000000000000081526001600160a01b03828116600483015283169063dc929f4a906024015b600060405180830381600087803b15801561363957600080fd5b505af115801561364d573d6000803e3d6000fd5b505050505b5050565b6040805160808101825260008082526020820181905291810182905260608101919091525a81600001818152505043826001600160a01b031663b21634826040518163ffffffff1660e01b815260040160206040518083038186803b1580156136be57600080fd5b505afa1580156136d2573d6000803e3d6000fd5b505050506040513d601f19601f820116820180604052508101906136f691906143b6565b14156137445760405162461bcd60e51b815260206004820152601060248201527f7265656e7472616e63792067756172640000000000000000000000000000000060448201526064016103ed565b816001600160a01b03166310fdb0a26040518163ffffffff1660e01b8152600401600060405180830381600087803b15801561377f57600080fd5b505af1158015613793573d6000803e3d6000fd5b50506040517f72c6838f0000000000000000000000000000000000000000000000000000000081527f1f2fd42ad6a6cacd573c4b212beb7a4e2499ad45d742a65337097f130e71daff6004820152600092506001600160a01b03851691506372c6838f9060240160206040518083038186803b15801561381257600080fd5b505afa158015613826573d6000803e3d6000fd5b505050506040513d601f19601f8201168201806040525081019061384a9190614161565b90506001600160a01b038116613866576000602083015261391b565b6001600160a01b038181166060840181905283516040517f43a8a3f1000000000000000000000000000000000000000000000000000000008152928616600484015260248301526000918291906343a8a3f190604401604080518083038186803b1580156138d357600080fd5b505afa1580156138e7573d6000803e3d6000fd5b505050506040513d601f19601f8201168201806040525081019061390b919061425e565b9015156020860152604085015250505b50919050565b60006116f3825490565b6001600160a01b03811660009081526001830160205260408120541515611811565b613652828233613ddb565b6060600061181183613ed1565b6001600160a01b03821660009081526020819052604090206139879082613f2d565b506040517fa230c5240000000000000000000000000000000000000000000000000000000081526001600160a01b03828116600483015283169063a230c5249060240160206040518083038186803b1580156139e257600080fd5b505afa1580156139f6573d6000803e3d6000fd5b505050506040513d601f19601f82011682018060405250810190613a1a9190614244565b15613652576040517f0b1ca49a0000000000000000000000000000000000000000000000000000000081526001600160a01b038281166004830152831690630b1ca49a9060240161361f565b6000613a7184613f42565b905060005b81518160ff161015613cdc576000613aab86848460ff1681518110611b0d57634e487b7160e01b600052603260045260246000fd5b1115613cca576000613abc866116f9565b84613ae488868660ff1681518110611b0d57634e487b7160e01b600052603260045260246000fd5b613aee91906144ae565b613af8919061448e565b604051632c9f4b5b60e11b81527f3909e87234f428ccb8748126e2c93f66a62f92a70d315fa5803dec6362be07ab60048201529091506000906001600160a01b0388169063593e96b69060240160206040518083038186803b158015613b5d57600080fd5b505afa158015613b71573d6000803e3d6000fd5b505050506040513d601f19601f82011682018060405250810190613b959190614161565b90508115613cc757806001600160a01b031663e176b35e858560ff1681518110613bcf57634e487b7160e01b600052603260045260246000fd5b60209081029190910101516040516001600160e01b031960e084901b1681526001600160a01b039182166004820152908916602482015260448101859052606401600060405180830381600087803b158015613c2a57600080fd5b505af1158015613c3e573d6000803e3d6000fd5b505050507f8f18627dd3013a46ee91228b93403cafa1ac7501566ee460bd8b40e5c551c7d387858560ff1681518110613c8757634e487b7160e01b600052603260045260246000fd5b602002602001015184604051613cbe939291906001600160a01b039384168152919092166020820152604081019190915260600190565b60405180910390a15b50505b80613cd481614502565b915050613a76565b5050505050565b6000816001600160a01b03166348f7f2a36040518163ffffffff1660e01b815260040160206040518083038186803b158015613d1e57600080fd5b505afa158015613d32573d6000803e3d6000fd5b505050506040513d601f19601f82011682018060405250810190613d569190614161565b6001600160a01b0316638da5cb5b6040518163ffffffff1660e01b815260040160206040518083038186803b158015613d8e57600080fd5b505afa158015613da2573d6000803e3d6000fd5b505050506040513d601f19601f820116820180604052508101906116f39190614161565b6000611811836001600160a01b038416613fb9565b816020015115613e795781606001516001600160a01b0316635e5eb01384835a8651613e0791906144eb565b60408088015190516001600160e01b031960e087901b1681526001600160a01b03948516600482015293909216602484015260448301526064820152608401600060405180830381600087803b158015613e6057600080fd5b505af1158015613e74573d6000803e3d6000fd5b505050505b826001600160a01b031663d4f7af436040518163ffffffff1660e01b8152600401600060405180830381600087803b158015613eb457600080fd5b505af1158015613ec8573d6000803e3d6000fd5b50505050505050565b606081600001805480602002602001604051908101604052809291908181526020018280548015613f2157602002820191906000526020600020905b815481526020019060010190808311613f0d575b50505050509050919050565b6000611811836001600160a01b038416614008565b6060816001600160a01b031663a6f636416040518163ffffffff1660e01b815260040160006040518083038186803b158015613f7d57600080fd5b505afa158015613f91573d6000803e3d6000fd5b505050506040513d6000823e601f3d908101601f191682016040526116f3919081019061417d565b6000818152600183016020526040812054614000575081546001818101845560008481526020808220909301849055845484825282860190935260409020919091556116f3565b5060006116f3565b6000818152600183016020526040812054801561411b57600061402c6001836144eb565b8554909150600090614040906001906144eb565b90508181146140c157600086600001828154811061406e57634e487b7160e01b600052603260045260246000fd5b906000526020600020015490508087600001848154811061409f57634e487b7160e01b600052603260045260246000fd5b6000918252602080832090910192909255918252600188019052604090208390555b85548690806140e057634e487b7160e01b600052603160045260246000fd5b6001900381819060005260206000200160009055905585600101600086815260200190815260200160002060009055600193505050506116f3565b60009150506116f3565b80516141308161454e565b919050565b8051801515811461413057600080fd5b600060208284031215614156578081fd5b81356118118161454e565b600060208284031215614172578081fd5b81516118118161454e565b6000602080838503121561418f578182fd5b825167ffffffffffffffff808211156141a6578384fd5b818501915085601f8301126141b9578384fd5b8151818111156141cb576141cb614538565b8060051b604051601f19603f830116810181811085821117156141f0576141f0614538565b604052828152858101935084860182860187018a101561420e578788fd5b8795505b838610156142375761422381614125565b855260019590950194938601938601614212565b5098975050505050505050565b600060208284031215614255578081fd5b61181182614135565b60008060408385031215614270578081fd5b61427983614135565b9150602083015190509250929050565b6000806040838503121561429b578182fd5b82356142a68161454e565b915060208301356142b68161454e565b809150509250929050565b6000806000606084860312156142d5578081fd5b83356142e08161454e565b925060208401356142f08161454e565b915060408401356143008161454e565b809150509250925092565b60008060008060808587031215614320578081fd5b843561432b8161454e565b9350602085013561433b8161454e565b9250604085013561434b8161454e565b9396929550929360600135925050565b6000806040838503121561436d578182fd5b82356143788161454e565b946020939093013593505050565b600060208284031215614397578081fd5b81516fffffffffffffffffffffffffffffffff81168114611811578182fd5b6000602082840312156143c7578081fd5b5051919050565b600481106143ec57634e487b7160e01b600052602160045260246000fd5b9052565b6001600160a01b03841681526060810161440d60208301856143ce565b826040830152949350505050565b6020808252825182820181905260009190848201906040850190845b8181101561445c5783516001600160a01b031683529284019291840191600101614437565b50909695505050505050565b602081016116f382846143ce565b6000821982111561448957614489614522565b500190565b6000826144a957634e487b7160e01b81526012600452602481fd5b500490565b6000817fffffffffffffffffffffffffffffffffffffffffffffffffffffffffffffffff04831182151516156144e6576144e6614522565b500290565b6000828210156144fd576144fd614522565b500390565b600060ff821660ff81141561451957614519614522565b60010192915050565b634e487b7160e01b600052601160045260246000fd5b634e487b7160e01b600052604160045260246000fd5b6001600160a01b038116811461456357600080fd5b5056fea26469706673582212208131e6429efefbad70fd21cb17043b1bf1d0b3016d536bacf006856b4b82fe2464736f6c63430008040033",
  "linkReferences": {},
  "deployedLinkReferences": {}
}