{
  "_format": "hh-sol-artifact-1",
  "contractName": "ColletiveFundingPoolAdapterContract",
  "sourceName": "contracts/collective/adapters/CollectiveFundingPoolAdapter.sol",
  "abi": [
    {
      "inputs": [],
      "name": "ACCESS_DENIED",
      "type": "error"
    },
    {
      "inputs": [],
      "name": "EXECUTED_ALREADY",
      "type": "error"
    },
    {
      "inputs": [],
      "name": "FUNDRAISE_ENDTIME_NOT_UP",
      "type": "error"
    },
    {
      "inputs": [],
      "name": "GREATER_MAX_DEPOSIT_AMOUNT",
      "type": "error"
    },
    {
      "inputs": [],
      "name": "GREATER_MAX_FUND_RAISE_AMOUNT",
      "type": "error"
    },
    {
      "inputs": [],
      "name": "INSUFFICIENT_ALLOWANCE",
      "type": "error"
    },
    {
      "inputs": [],
      "name": "INSUFFICIENT_FUND",
      "type": "error"
    },
    {
      "inputs": [],
      "name": "INVESTMENT_GRACE_PERIOD",
      "type": "error"
    },
    {
      "inputs": [],
      "name": "LESS_MIN_DEPOSIT_AMOUNT",
      "type": "error"
    },
    {
      "inputs": [],
      "name": "MAX_PATICIPANT_AMOUNT_REACH",
      "type": "error"
    },
    {
      "inputs": [],
      "name": "NOT_CLEAR_FUND_TIME",
      "type": "error"
    },
    {
      "inputs": [],
      "name": "NOT_IN_FUND_RAISE_WINDOW",
      "type": "error"
    },
    {
      "anonymous": false,
      "inputs": [
        {
          "indexed": false,
          "internalType": "address",
          "name": "daoAddress",
          "type": "address"
        },
        {
          "indexed": false,
          "internalType": "uint256",
          "name": "escrowAmount",
          "type": "uint256"
        },
        {
          "indexed": false,
          "internalType": "address",
          "name": "executer",
          "type": "address"
        }
      ],
      "name": "ClearFund",
      "type": "event"
    },
    {
      "anonymous": false,
      "inputs": [
        {
          "indexed": false,
          "internalType": "address",
          "name": "daoAddress",
          "type": "address"
        },
        {
          "indexed": false,
          "internalType": "uint256",
          "name": "amount",
          "type": "uint256"
        },
        {
          "indexed": false,
          "internalType": "address",
          "name": "account",
          "type": "address"
        }
      ],
      "name": "Deposit",
      "type": "event"
    },
    {
      "anonymous": false,
      "inputs": [
        {
          "indexed": false,
          "internalType": "address",
          "name": "daoAddress",
          "type": "address"
        },
        {
          "indexed": false,
          "internalType": "address",
          "name": "account",
          "type": "address"
        },
        {
          "indexed": false,
          "internalType": "uint256",
          "name": "receivedAmount",
          "type": "uint256"
        }
      ],
      "name": "DistributeRedemptionFee",
      "type": "event"
    },
    {
      "anonymous": false,
      "inputs": [
        {
          "indexed": false,
          "internalType": "address",
          "name": "daoAddress",
          "type": "address"
        },
        {
          "indexed": false,
          "internalType": "enum ColletiveFundingPoolAdapterContract.FundState",
          "name": "state",
          "type": "uint8"
        },
        {
          "indexed": false,
          "internalType": "uint256",
          "name": "totalRaised",
          "type": "uint256"
        }
      ],
      "name": "ProcessFundRaise",
      "type": "event"
    },
    {
      "anonymous": false,
      "inputs": [
        {
          "indexed": false,
          "internalType": "address",
          "name": "daoAddress",
          "type": "address"
        },
        {
          "indexed": false,
          "internalType": "uint256",
          "name": "amount",
          "type": "uint256"
        },
        {
          "indexed": false,
          "internalType": "address",
          "name": "account",
          "type": "address"
        }
      ],
      "name": "WithDraw",
      "type": "event"
    },
    {
      "inputs": [
        {
          "internalType": "address",
          "name": "",
          "type": "address"
        }
      ],
      "name": "accumulateRaiseAmount",
      "outputs": [
        {
          "internalType": "uint256",
          "name": "",
          "type": "uint256"
        }
      ],
      "stateMutability": "view",
      "type": "function"
    },
    {
      "inputs": [
        {
          "internalType": "contract DaoRegistry",
          "name": "dao",
          "type": "address"
        },
        {
          "internalType": "address",
          "name": "investorAddr",
          "type": "address"
        }
      ],
      "name": "balanceOf",
      "outputs": [
        {
          "internalType": "uint256",
          "name": "",
          "type": "uint256"
        }
      ],
      "stateMutability": "view",
      "type": "function"
    },
    {
      "inputs": [
        {
          "internalType": "contract DaoRegistry",
          "name": "dao",
          "type": "address"
        }
      ],
      "name": "clearFund",
      "outputs": [],
      "stateMutability": "nonpayable",
      "type": "function"
    },
    {
      "inputs": [
        {
          "internalType": "contract DaoRegistry",
          "name": "dao",
          "type": "address"
        },
        {
          "internalType": "uint256",
          "name": "amount",
          "type": "uint256"
        }
      ],
      "name": "deposit",
      "outputs": [],
      "stateMutability": "nonpayable",
      "type": "function"
    },
    {
      "inputs": [
        {
          "internalType": "address",
          "name": "",
          "type": "address"
        },
        {
          "internalType": "bytes32",
          "name": "",
          "type": "bytes32"
        }
      ],
      "name": "freeINPriorityDeposits",
      "outputs": [
        {
          "internalType": "uint256",
          "name": "",
          "type": "uint256"
        }
      ],
      "stateMutability": "view",
      "type": "function"
    },
    {
      "inputs": [
        {
          "internalType": "address",
          "name": "",
          "type": "address"
        },
        {
          "internalType": "bytes32",
          "name": "",
          "type": "bytes32"
        }
      ],
      "name": "fundRaisedByProposalId",
      "outputs": [
        {
          "internalType": "uint256",
          "name": "",
          "type": "uint256"
        }
      ],
      "stateMutability": "view",
      "type": "function"
    },
    {
      "inputs": [
        {
          "internalType": "address",
          "name": "",
          "type": "address"
        }
      ],
      "name": "fundState",
      "outputs": [
        {
          "internalType": "enum ColletiveFundingPoolAdapterContract.FundState",
          "name": "",
          "type": "uint8"
        }
      ],
      "stateMutability": "view",
      "type": "function"
    },
    {
      "inputs": [
        {
          "internalType": "contract DaoRegistry",
          "name": "dao",
          "type": "address"
        }
      ],
      "name": "getAllInvestors",
      "outputs": [
        {
          "internalType": "address[]",
          "name": "",
          "type": "address[]"
        }
      ],
      "stateMutability": "view",
      "type": "function"
    },
    {
      "inputs": [
        {
          "internalType": "contract DaoRegistry",
          "name": "dao",
          "type": "address"
        },
        {
          "internalType": "uint256",
          "name": "timestamp",
          "type": "uint256"
        }
      ],
      "name": "ifInRedemptionPeriod",
      "outputs": [
        {
          "internalType": "bool",
          "name": "",
          "type": "bool"
        }
      ],
      "stateMutability": "view",
      "type": "function"
    },
    {
      "inputs": [
        {
          "internalType": "address",
          "name": "",
          "type": "address"
        },
        {
          "internalType": "bytes32",
          "name": "",
          "type": "bytes32"
        },
        {
          "internalType": "address",
          "name": "",
          "type": "address"
        }
      ],
      "name": "investorsDepositAmountByFundRaise",
      "outputs": [
        {
          "internalType": "uint256",
          "name": "",
          "type": "uint256"
        }
      ],
      "stateMutability": "view",
      "type": "function"
    },
    {
      "inputs": [
        {
          "internalType": "address",
          "name": "",
          "type": "address"
        }
      ],
      "name": "liquidationId",
      "outputs": [
        {
          "internalType": "uint256",
          "name": "",
          "type": "uint256"
        }
      ],
      "stateMutability": "view",
      "type": "function"
    },
    {
      "inputs": [
        {
          "internalType": "contract DaoRegistry",
          "name": "dao",
          "type": "address"
        }
      ],
      "name": "poolBalance",
      "outputs": [
        {
          "internalType": "uint256",
          "name": "",
          "type": "uint256"
        }
      ],
      "stateMutability": "view",
      "type": "function"
    },
    {
      "inputs": [
        {
          "internalType": "contract DaoRegistry",
          "name": "dao",
          "type": "address"
        }
      ],
      "name": "processFundRaise",
      "outputs": [
        {
          "internalType": "bool",
          "name": "",
          "type": "bool"
        }
      ],
      "stateMutability": "nonpayable",
      "type": "function"
    },
    {
      "inputs": [],
      "name": "protocolFee",
      "outputs": [
        {
          "internalType": "uint256",
          "name": "",
          "type": "uint256"
        }
      ],
      "stateMutability": "view",
      "type": "function"
    },
    {
      "inputs": [
        {
          "internalType": "contract DaoRegistry",
          "name": "dao",
          "type": "address"
        }
      ],
      "name": "resetFundRaiseState",
      "outputs": [],
      "stateMutability": "nonpayable",
      "type": "function"
    },
    {
      "inputs": [
        {
          "internalType": "address",
          "name": "",
          "type": "address"
        }
      ],
      "name": "resetFundStateBlockNum",
      "outputs": [
        {
          "internalType": "uint256",
          "name": "",
          "type": "uint256"
        }
      ],
      "stateMutability": "view",
      "type": "function"
    },
    {
      "inputs": [
        {
          "internalType": "contract DaoRegistry",
          "name": "dao",
          "type": "address"
        },
        {
          "internalType": "address",
          "name": "account",
          "type": "address"
        }
      ],
      "name": "returnFundToQuitGovernor",
      "outputs": [
        {
          "internalType": "bool",
          "name": "",
          "type": "bool"
        }
      ],
      "stateMutability": "nonpayable",
      "type": "function"
    },
    {
      "inputs": [
        {
          "internalType": "contract DaoRegistry",
          "name": "dao",
          "type": "address"
        },
        {
          "internalType": "uint256",
          "name": "feeProtocol",
          "type": "uint256"
        }
      ],
      "name": "setProtocolFee",
      "outputs": [],
      "stateMutability": "nonpayable",
      "type": "function"
    },
    {
      "inputs": [
        {
          "internalType": "contract DaoRegistry",
          "name": "dao",
          "type": "address"
        },
        {
          "internalType": "address",
          "name": "token",
          "type": "address"
        },
        {
          "internalType": "address",
          "name": "account",
          "type": "address"
        },
        {
          "internalType": "uint256",
          "name": "amount",
          "type": "uint256"
        }
      ],
      "name": "topupFunds",
      "outputs": [],
      "stateMutability": "nonpayable",
      "type": "function"
    },
    {
      "inputs": [
        {
          "internalType": "contract DaoRegistry",
          "name": "dao",
          "type": "address"
        },
        {
          "internalType": "address",
          "name": "token",
          "type": "address"
        },
        {
          "internalType": "address",
          "name": "account",
          "type": "address"
        },
        {
          "internalType": "uint256",
          "name": "amount",
          "type": "uint256"
        }
      ],
      "name": "transferFromNewGovernor",
      "outputs": [
        {
          "internalType": "bool",
          "name": "",
          "type": "bool"
        }
      ],
      "stateMutability": "nonpayable",
      "type": "function"
    },
    {
      "inputs": [
        {
          "internalType": "contract DaoRegistry",
          "name": "dao",
          "type": "address"
        },
        {
          "internalType": "uint256",
          "name": "amount",
          "type": "uint256"
        }
      ],
      "name": "withdraw",
      "outputs": [],
      "stateMutability": "nonpayable",
      "type": "function"
    }
  ],
  "bytecode": "0x6080604052660aa87bee53800060095534801561001b57600080fd5b50615ffd806200002c6000396000f3fe608060405234801561001057600080fd5b50600436106101775760003560e01c8063861f6752116100d8578063b5b3ca2c1161008c578063f3fef3a311610066578063f3fef3a31461037b578063f5a9b5d91461038e578063f7888aec146103b957600080fd5b8063b5b3ca2c14610342578063b9bf313614610355578063f10e6b6b1461036857600080fd5b8063a2d165d2116100bd578063a2d165d214610306578063b093645214610319578063b0e21e8a1461033957600080fd5b8063861f6752146102c857806396609c42146102f357600080fd5b806347e7ef241161012f57806368abb5e01161011457806368abb5e01461027157806381227bf11461028457806383cffffe146102b557600080fd5b806347e7ef241461023c57806350d9e6881461025157600080fd5b80631c0ecc7f116101605780631c0ecc7f146101e35780633a844ec01461020357806342bb30791461022957600080fd5b80630c916bae1461017c5780630cf6aae7146101b5575b600080fd5b61019f61018a366004615bcd565b60036020526000908152604090205460ff1681565b6040516101ac9190615ec9565b60405180910390f35b6101d56101c3366004615bcd565b60086020526000908152604090205481565b6040519081526020016101ac565b6101d56101f1366004615bcd565b60056020526000908152604090205481565b610219610211366004615e1d565b600092915050565b60405190151581526020016101ac565b610219610237366004615dcd565b6103cc565b61024f61024a366004615e1d565b610a46565b005b61026461025f366004615bcd565b611a44565b6040516101ac9190615e7c565b6101d561027f366004615bcd565b611a6e565b6101d5610292366004615c30565b600260209081526000938452604080852082529284528284209052825290205481565b61024f6102c3366004615bcd565b611b8d565b6101d56102d6366004615c05565b600660209081526000928352604080842090915290825290205481565b610219610301366004615bcd565b61233c565b610219610314366004615d95565b61272b565b6101d5610327366004615bcd565b60046020526000908152604090205481565b6101d560095481565b61024f610350366004615e1d565b612b15565b61024f610363366004615dcd565b612b7a565b61024f610376366004615bcd565b613068565b61024f610389366004615e1d565b6131a5565b6101d561039c366004615c05565b600760209081526000928352604080842090915290825290205481565b6101d56103c7366004615d95565b613ade565b6040516317ba7d8560e01b81527f1a4f1390baec30049008138e650571a3c4374eba88116bc89dc192f2f9295efe60048201526000906001600160a01b038616906317ba7d859060240160206040518083038186803b15801561042e57600080fd5b505afa158015610442573d6000803e3d6000fd5b505050506040513d601f19601f820116820180604052508101906104669190615be9565b6001600160a01b0316336001600160a01b031614610497576040516395383ea160e01b815260040160405180910390fd5b6040516370a0823160e01b81526001600160a01b0384811660048301528391908616906370a082319060240160206040518083038186803b1580156104db57600080fd5b505afa1580156104ef573d6000803e3d6000fd5b505050506040513d601f19601f820116820180604052508101906105139190615d7d565b108061059e5750604051636eb1769f60e11b81526001600160a01b03848116600483015230602483015283919086169063dd62ed3e9060440160206040518083038186803b15801561056457600080fd5b505afa158015610578573d6000803e3d6000fd5b505050506040513d601f19601f8201168201806040525081019061059c9190615d7d565b105b156105ab57506000610a3e565b604051634941d71d60e11b81527f69f4ffb3ebcb7809550bddd3e4d449a47e737bf6635bc7a730996643997b0e4860048201526001600160a01b03861690639283ae3a9060240160206040518083038186803b15801561060a57600080fd5b505afa15801561061e573d6000803e3d6000fd5b505050506040513d601f19601f820116820180604052508101906106429190615d7d565b600114801561075c5750604051634941d71d60e11b81527fecbde689cc6337d29a750b8b8a8abbfa97427b4ac800ab55be2f2c87311510f260048201526001600160a01b03861690639283ae3a9060240160206040518083038186803b1580156106ab57600080fd5b505afa1580156106bf573d6000803e3d6000fd5b505050506040513d601f19601f820116820180604052508101906106e39190615d7d565b856001600160a01b031663a6f636416040518163ffffffff1660e01b815260040160006040518083038186803b15801561071c57600080fd5b505afa158015610730573d6000803e3d6000fd5b505050506040513d6000823e601f3d908101601f191682016040526107589190810190615c71565b5110155b1561076957506000610a3e565b6040516323b872dd60e01b81526001600160a01b038481166004830152306024830152604482018490528516906323b872dd90606401602060405180830381600087803b1580156107b957600080fd5b505af11580156107cd573d6000803e3d6000fd5b505050506040513d601f19601f820116820180604052508101906107f19190615d38565b50604051632c9f4b5b60e11b81527f3909e87234f428ccb8748126e2c93f66a62f92a70d315fa5803dec6362be07ab60048201526001600160a01b038086169163095ea7b39188169063593e96b69060240160206040518083038186803b15801561085b57600080fd5b505afa15801561086f573d6000803e3d6000fd5b505050506040513d601f19601f820116820180604052508101906108939190615be9565b6040516001600160e01b031960e084901b1681526001600160a01b03909116600482015260248101859052604401602060405180830381600087803b1580156108db57600080fd5b505af11580156108ef573d6000803e3d6000fd5b505050506040513d601f19601f820116820180604052508101906109139190615d38565b50604051632c9f4b5b60e11b81527f3909e87234f428ccb8748126e2c93f66a62f92a70d315fa5803dec6362be07ab60048201526001600160a01b0386169063593e96b69060240160206040518083038186803b15801561097357600080fd5b505afa158015610987573d6000803e3d6000fd5b505050506040513d601f19601f820116820180604052508101906109ab9190615be9565b6040517fc57d5fe90000000000000000000000000000000000000000000000000000000081526001600160a01b038581166004830152868116602483015260448201859052919091169063c57d5fe990606401600060405180830381600087803b158015610a1857600080fd5b505af1158015610a2c573d6000803e3d6000fd5b50505050610a3a8584613bf7565b5060015b949350505050565b816000610a5282613d38565b905060008311610aa95760405162461bcd60e51b815260206004820152600760248201527f21616d6f756e740000000000000000000000000000000000000000000000000060448201526064015b60405180910390fd5b610aed6040518060a0016040528060008152602001600081526020016000815260200160006001600160a01b0316815260200160006001600160a01b031681525090565b6040516317ba7d8560e01b81527f3a06648a49edffe95b8384794dfe9cf3ab34782fab0130b4c91bfd53f3407e6b60048201526001600160a01b038616906317ba7d859060240160206040518083038186803b158015610b4c57600080fd5b505afa158015610b60573d6000803e3d6000fd5b505050506040513d601f19601f82011682018060405250810190610b849190615be9565b6001600160a01b039081166080830152604051634941d71d60e11b81527f5fa39c8100b49336846e52d39403e353bf782275f905a885f09224779ff1c924600482015290861690639283ae3a9060240160206040518083038186803b158015610bec57600080fd5b505afa158015610c00573d6000803e3d6000fd5b505050506040513d601f19601f82011682018060405250810190610c249190615d7d565b8152604051634941d71d60e11b81527fbdd40865e74210f0a46799ae63462c62010da92014a08cbc32f1d049d0a22c6b60048201526001600160a01b03861690639283ae3a9060240160206040518083038186803b158015610c8557600080fd5b505afa158015610c99573d6000803e3d6000fd5b505050506040513d601f19601f82011682018060405250810190610cbd9190615d7d565b602082015260808101516040516301c22a3d60e01b81526001600160a01b03878116600483015260009216906301c22a3d9060240160206040518083038186803b158015610d0a57600080fd5b505afa158015610d1e573d6000803e3d6000fd5b505050506040513d601f19601f82011682018060405250810190610d429190615d7d565b604051634941d71d60e11b81527f7e07fb4530796d057ca1d76d83f47aa8629dbb7e942ac28f30ad6f5e9e8d418960048201529091506001600160a01b03871690639283ae3a9060240160206040518083038186803b158015610da457600080fd5b505afa158015610db8573d6000803e3d6000fd5b505050506040513d601f19601f82011682018060405250810190610ddc9190615d7d565b6040830152602082015115610e29578160200151851015610e29576040517f0f3fbd1c00000000000000000000000000000000000000000000000000000000815260040160405180910390fd5b815115610ea05781516001600160a01b03871660009081526002602090815260408083208584528252808320338452909152902054610e689087615ed7565b1115610ea0576040517f75d3208400000000000000000000000000000000000000000000000000000000815260040160405180910390fd5b604051634941d71d60e11b81527fbd04d44792b7dbfe3b50b0f9f2006f7ef449e374a39021cb9bfa7cd0bdd850d7600482015242906001600160a01b03881690639283ae3a9060240160206040518083038186803b158015610f0157600080fd5b505afa158015610f15573d6000803e3d6000fd5b505050506040513d601f19601f82011682018060405250810190610f399190615d7d565b1180610fdb5750604051634941d71d60e11b81527f533afc15b6312917b5e28e2272ea69d44e5ea8e00d3bd57cada1275c2f14c9e8600482015242906001600160a01b03881690639283ae3a9060240160206040518083038186803b158015610fa157600080fd5b505afa158015610fb5573d6000803e3d6000fd5b505050506040513d601f19601f82011682018060405250810190610fd99190615d7d565b105b15611012576040517fa8ec9ad500000000000000000000000000000000000000000000000000000000815260040160405180910390fd5b604051634941d71d60e11b81527ff301d5aec67a9d816d38f9b645cac1e79a3308ff9803564bbe63a862db82f46b60048201526001600160a01b03871690639283ae3a9060240160206040518083038186803b15801561107157600080fd5b505afa158015611085573d6000803e3d6000fd5b505050506040513d601f19601f820116820180604052508101906110a99190615d7d565b1580156110ba575060008260400151115b1561112b576040808301516001600160a01b038816600090815260076020908152838220858352905291909120546110f3908790615ed7565b111561112b576040517fd3b07c5200000000000000000000000000000000000000000000000000000000815260040160405180910390fd5b604051632c9f4b5b60e11b81527f3909e87234f428ccb8748126e2c93f66a62f92a70d315fa5803dec6362be07ab60048201526001600160a01b0387169063593e96b69060240160206040518083038186803b15801561118a57600080fd5b505afa15801561119e573d6000803e3d6000fd5b505050506040513d601f19601f820116820180604052508101906111c29190615be9565b6001600160a01b039081166060840152604051634941d71d60e11b81527f69f4ffb3ebcb7809550bddd3e4d449a47e737bf6635bc7a730996643997b0e48600482015290871690639283ae3a9060240160206040518083038186803b15801561122a57600080fd5b505afa15801561123e573d6000803e3d6000fd5b505050506040513d601f19601f820116820180604052508101906112629190615d7d565b600114801561137c5750604051634941d71d60e11b81527fecbde689cc6337d29a750b8b8a8abbfa97427b4ac800ab55be2f2c87311510f260048201526001600160a01b03871690639283ae3a9060240160206040518083038186803b1580156112cb57600080fd5b505afa1580156112df573d6000803e3d6000fd5b505050506040513d601f19601f820116820180604052508101906113039190615d7d565b866001600160a01b031663a6f636416040518163ffffffff1660e01b815260040160006040518083038186803b15801561133c57600080fd5b505afa158015611350573d6000803e3d6000fd5b505050506040513d6000823e601f3d908101601f191682016040526113789190810190615c71565b5110155b80156113fc575060405163288c314960e21b81523360048201526001600160a01b0387169063a230c5249060240160206040518083038186803b1580156113c257600080fd5b505afa1580156113d6573d6000803e3d6000fd5b505050506040513d601f19601f820116820180604052508101906113fa9190615d38565b155b15611433576040517ffa088e8a00000000000000000000000000000000000000000000000000000000815260040160405180910390fd5b600082606001516001600160a01b031663a87af66c6040518163ffffffff1660e01b815260040160206040518083038186803b15801561147257600080fd5b505afa158015611486573d6000803e3d6000fd5b505050506040513d601f19601f820116820180604052508101906114aa9190615be9565b6040516370a0823160e01b815233600482015290915086906001600160a01b038316906370a082319060240160206040518083038186803b1580156114ee57600080fd5b505afa158015611502573d6000803e3d6000fd5b505050506040513d601f19601f820116820180604052508101906115269190615d7d565b1015611545576040516305cabbf560e41b815260040160405180910390fd5b604051636eb1769f60e11b815233600482015230602482015286906001600160a01b0383169063dd62ed3e9060440160206040518083038186803b15801561158c57600080fd5b505afa1580156115a0573d6000803e3d6000fd5b505050506040513d601f19601f820116820180604052508101906115c49190615d7d565b10156115fc576040517f0fd3919300000000000000000000000000000000000000000000000000000000815260040160405180910390fd5b6040516323b872dd60e01b8152336004820152306024820152604481018790526001600160a01b038216906323b872dd90606401602060405180830381600087803b15801561164a57600080fd5b505af115801561165e573d6000803e3d6000fd5b505050506040513d601f19601f820116820180604052508101906116829190615d38565b50604051632c9f4b5b60e11b81527f3909e87234f428ccb8748126e2c93f66a62f92a70d315fa5803dec6362be07ab60048201526001600160a01b038083169163095ea7b3918a169063593e96b69060240160206040518083038186803b1580156116ec57600080fd5b505afa158015611700573d6000803e3d6000fd5b505050506040513d601f19601f820116820180604052508101906117249190615be9565b6040516001600160e01b031960e084901b1681526001600160a01b03909116600482015260248101899052604401602060405180830381600087803b15801561176c57600080fd5b505af1158015611780573d6000803e3d6000fd5b505050506040513d601f19601f820116820180604052508101906117a49190615d38565b5060608301516040517fb08079a6000000000000000000000000000000000000000000000000000000008152336004820152602481018890526001600160a01b039091169063b08079a690604401600060405180830381600087803b15801561180c57600080fd5b505af1158015611820573d6000803e3d6000fd5b5050505061182e8733613bf7565b6001600160a01b0387166000908152600160209081526040808320858452909152902061185b9033614003565b61188e576001600160a01b0387166000908152600160209081526040808320858452909152902061188c9033614025565b505b60808301516040517f6d3cc0400000000000000000000000000000000000000000000000000000000081526001600160a01b0389811660048301526024820185905233604483015290911690636d3cc0409060640160206040518083038186803b1580156118fb57600080fd5b505afa15801561190f573d6000803e3d6000fd5b505050506040513d601f19601f820116820180604052508101906119339190615d38565b15611971576001600160a01b03871660009081526006602090815260408083208584529091528120805488929061196b908490615ed7565b90915550505b6001600160a01b03871660009081526002602090815260408083208584528252808320338452909152812080548892906119ac908490615ed7565b90915550506001600160a01b0387166000908152600760209081526040808320858452909152812080548892906119e4908490615ed7565b9091555050604080516001600160a01b038916815260208101889052338183015290517fe31c7b8d08ee7db0afa68782e1028ef92305caeea8626633ad44d413e30f6b2f9181900360600190a1505050611a3e828261403a565b50505050565b6001600160a01b0381166000908152602081905260409020606090611a6890614045565b92915050565b604051632c9f4b5b60e11b81527f3909e87234f428ccb8748126e2c93f66a62f92a70d315fa5803dec6362be07ab600482015260009081906001600160a01b0384169063593e96b69060240160206040518083038186803b158015611ad257600080fd5b505afa158015611ae6573d6000803e3d6000fd5b505050506040513d601f19601f82011682018060405250810190611b0a9190615be9565b6040516370a0823160e01b815261decd60048201529091506001600160a01b038216906370a082319060240160206040518083038186803b158015611b4e57600080fd5b505afa158015611b62573d6000803e3d6000fd5b505050506040513d601f19601f82011682018060405250810190611b869190615d7d565b9392505050565b6040516317ba7d8560e01b81527f851d65965a45a40b902ee7de04ff05b19ff7fde56dd486fd3108dc5cd9249f0660048201526001600160a01b038216906317ba7d859060240160206040518083038186803b158015611bec57600080fd5b505afa158015611c00573d6000803e3d6000fd5b505050506040513d601f19601f82011682018060405250810190611c249190615be9565b6001600160a01b0316336001600160a01b031614611c55576040516395383ea160e01b815260040160405180910390fd5b604051634941d71d60e11b81527f533afc15b6312917b5e28e2272ea69d44e5ea8e00d3bd57cada1275c2f14c9e860048201526001600160a01b03821690639283ae3a9060240160206040518083038186803b158015611cb457600080fd5b505afa158015611cc8573d6000803e3d6000fd5b505050506040513d601f19601f82011682018060405250810190611cec9190615d7d565b42108015611d7957506001600160a01b038116600090815260036020819052604082205460ff1690811115611d3157634e487b7160e01b600052602160045260246000fd5b1480611d79575060016001600160a01b03821660009081526003602081905260409091205460ff1690811115611d7757634e487b7160e01b600052602160045260246000fd5b145b15611db0576040517f465e5dc900000000000000000000000000000000000000000000000000000000815260040160405180910390fd5b604051632c9f4b5b60e11b81527f3909e87234f428ccb8748126e2c93f66a62f92a70d315fa5803dec6362be07ab60048201526000906001600160a01b0383169063593e96b69060240160206040518083038186803b158015611e1257600080fd5b505afa158015611e26573d6000803e3d6000fd5b505050506040513d601f19601f82011682018060405250810190611e4a9190615be9565b90506000816001600160a01b031663a87af66c6040518163ffffffff1660e01b815260040160206040518083038186803b158015611e8757600080fd5b505afa158015611e9b573d6000803e3d6000fd5b505050506040513d601f19601f82011682018060405250810190611ebf9190615be9565b6001600160a01b038416600090815260208190526040812091925090611ee490614045565b805190915015611a3e576001600160a01b03841660009081526008602052604081208054600191908390611f19908490615ed7565b90915550600090505b82518160ff1610156122d6576000611f6487858460ff1681518110611f5757634e487b7160e01b600052603260045260246000fd5b6020026020010151613ade565b9050801561228f576040516317ba7d8560e01b81527f372fda66f626a705d3a459960a1457403a7c3564acccedc00092ea70262b708360048201526000906001600160a01b038916906317ba7d859060240160206040518083038186803b158015611fce57600080fd5b505afa158015611fe2573d6000803e3d6000fd5b505050506040513d601f19601f820116820180604052508101906120069190615be9565b9050806001600160a01b0316638f8f4d218988888760ff168151811061203c57634e487b7160e01b600052603260045260246000fd5b6020908102919091018101516001600160a01b03808f16600090815260089093526040928390205492516001600160e01b031960e088901b1681529481166004860152928316602485015291909116604483015260648201869052608482015260a401600060405180830381600087803b1580156120b957600080fd5b505af11580156120cd573d6000803e3d6000fd5b50506040516317ba7d8560e01b81527f372fda66f626a705d3a459960a1457403a7c3564acccedc00092ea70262b708360048201526001600160a01b03808b16935063e176b35e92508b16906317ba7d859060240160206040518083038186803b15801561213a57600080fd5b505afa15801561214e573d6000803e3d6000fd5b505050506040513d601f19601f820116820180604052508101906121729190615be9565b6040516001600160e01b031960e084901b1681526001600160a01b039182166004820152908916602482015260448101859052606401600060405180830381600087803b1580156121c257600080fd5b505af11580156121d6573d6000803e3d6000fd5b50505050866001600160a01b031663e3a05cc1868560ff168151811061220c57634e487b7160e01b600052603260045260246000fd5b60209081029190910101516040516001600160e01b031960e084901b1681526001600160a01b039182166004820152908916602482015260448101859052606401600060405180830381600087803b15801561226757600080fd5b505af115801561227b573d6000803e3d6000fd5b50505050818461228b9190615ed7565b9350505b6122c387858460ff16815181106122b657634e487b7160e01b600052603260045260246000fd5b6020026020010151614052565b50806122ce81615f63565b915050611f22565b506001600160a01b038516600081815260036020908152604091829020805460ff19169055815192835282018390523382820152517f12d0dcfe23709357491021067eb05d73fa0b1f1aeb69310c2071218e089f057f9181900360600190a15050505050565b604051634941d71d60e11b81527f533afc15b6312917b5e28e2272ea69d44e5ea8e00d3bd57cada1275c2f14c9e860048201526000906001600160a01b03831690639283ae3a9060240160206040518083038186803b15801561239e57600080fd5b505afa1580156123b2573d6000803e3d6000fd5b505050506040513d601f19601f820116820180604052508101906123d69190615d7d565b421161240e576040517ff082211800000000000000000000000000000000000000000000000000000000815260040160405180910390fd5b6040516317ba7d8560e01b81527f3a06648a49edffe95b8384794dfe9cf3ab34782fab0130b4c91bfd53f3407e6b60048201526000906001600160a01b038416906317ba7d859060240160206040518083038186803b15801561247057600080fd5b505afa158015612484573d6000803e3d6000fd5b505050506040513d601f19601f820116820180604052508101906124a89190615be9565b6040516301c22a3d60e01b81526001600160a01b03858116600483015291909116906301c22a3d9060240160206040518083038186803b1580156124eb57600080fd5b505afa1580156124ff573d6000803e3d6000fd5b505050506040513d601f19601f820116820180604052508101906125239190615d7d565b905060016001600160a01b03841660009081526003602081905260409091205460ff169081111561256457634e487b7160e01b600052602160045260246000fd5b14156126f0576001600160a01b038316600081815260076020908152604080832085845290915290819020549051634941d71d60e11b81527f31af571e53636dddd77f772cce9d30b42075760f2da731636acc6962da2fbef86004820152909190639283ae3a9060240160206040518083038186803b1580156125e657600080fd5b505afa1580156125fa573d6000803e3d6000fd5b505050506040513d601f19601f8201168201806040525081019061261e9190615d7d565b81106126555761262d846141c8565b6001600160a01b0384166000908152600360205260409020805460ff19166002179055612692565b6001600160a01b03841660009081526003602081905260408220805460ff1916909117905561268385611a6e565b11156126925761269284614db5565b6001600160a01b038416600090815260036020526040908190205490517fe9975264b50cb635621ce71b45426b9994cf2bf91f3aa9d73b337a96cf2d7283916126e291879160ff16908590615e51565b60405180910390a150612722565b6040517ff918bf6c00000000000000000000000000000000000000000000000000000000815260040160405180910390fd5b50600192915050565b6000806127388484613ade565b1161274557506000611a68565b6040516317ba7d8560e01b81527f1a4f1390baec30049008138e650571a3c4374eba88116bc89dc192f2f9295efe60048201526001600160a01b038416906317ba7d859060240160206040518083038186803b1580156127a457600080fd5b505afa1580156127b8573d6000803e3d6000fd5b505050506040513d601f19601f820116820180604052508101906127dc9190615be9565b6001600160a01b0316336001600160a01b03161461280d576040516395383ea160e01b815260040160405180910390fd5b60006128198484613ade565b604051634941d71d60e11b81527f51cc27e85946200c558b984a0c15cad2122655d647f9c02ebe9529f2a0b25a2f6004820152909150600090670de0b6b3a7640000906001600160a01b03871690639283ae3a9060240160206040518083038186803b15801561288857600080fd5b505afa15801561289c573d6000803e3d6000fd5b505050506040513d601f19601f820116820180604052508101906128c09190615d7d565b6128ca9084615f0f565b6128d49190615eef565b604051632c9f4b5b60e11b81527f3909e87234f428ccb8748126e2c93f66a62f92a70d315fa5803dec6362be07ab60048201529091506000906001600160a01b0387169063593e96b69060240160206040518083038186803b15801561293957600080fd5b505afa15801561294d573d6000803e3d6000fd5b505050506040513d601f19601f820116820180604052508101906129719190615be9565b90506000816001600160a01b031663a87af66c6040518163ffffffff1660e01b815260040160206040518083038186803b1580156129ae57600080fd5b505afa1580156129c2573d6000803e3d6000fd5b505050506040513d601f19601f820116820180604052508101906129e69190615be9565b90506001600160a01b03821663d9caed128783612a038789615f4c565b6040516001600160e01b031960e086901b1681526001600160a01b0393841660048201529290911660248301526044820152606401600060405180830381600087803b158015612a5257600080fd5b505af1158015612a66573d6000803e3d6000fd5b50506040517fe3a05cc10000000000000000000000000000000000000000000000000000000081526001600160a01b0389811660048301528481166024830152604482018890528516925063e3a05cc19150606401600060405180830381600087803b158015612ad557600080fd5b505af1158015612ae9573d6000803e3d6000fd5b50505050612af78787614052565b8215612b0857612b088782856155ab565b5060019695505050505050565b816000612b2182613d38565b905083612b2d816157fc565b6001600160a01b0316336001600160a01b031614612b4a57600080fd5b670de0b6b3a764000084108015612b615750600084115b612b6a57600080fd5b506009839055611a3e828261403a565b6040516317ba7d8560e01b81527f3b4de3360220463b2e1b681516ac7919070009f0544e8465d80dc511828dae5b60048201526001600160a01b038516906317ba7d859060240160206040518083038186803b158015612bd957600080fd5b505afa158015612bed573d6000803e3d6000fd5b505050506040513d601f19601f82011682018060405250810190612c119190615be9565b6001600160a01b0316336001600160a01b031614612c42576040516395383ea160e01b815260040160405180910390fd5b6040516370a0823160e01b81526001600160a01b0383811660048301528291908516906370a082319060240160206040518083038186803b158015612c8657600080fd5b505afa158015612c9a573d6000803e3d6000fd5b505050506040513d601f19601f82011682018060405250810190612cbe9190615d7d565b1015612cdd576040516305cabbf560e41b815260040160405180910390fd5b604051636eb1769f60e11b81526001600160a01b03838116600483015230602483015282919085169063dd62ed3e9060440160206040518083038186803b158015612d2757600080fd5b505afa158015612d3b573d6000803e3d6000fd5b505050506040513d601f19601f82011682018060405250810190612d5f9190615d7d565b1015612d97576040517f0fd3919300000000000000000000000000000000000000000000000000000000815260040160405180910390fd5b6040516323b872dd60e01b81526001600160a01b038381166004830152306024830152604482018390528416906323b872dd90606401602060405180830381600087803b158015612de757600080fd5b505af1158015612dfb573d6000803e3d6000fd5b505050506040513d601f19601f82011682018060405250810190612e1f9190615d38565b50604051632c9f4b5b60e11b81527f3909e87234f428ccb8748126e2c93f66a62f92a70d315fa5803dec6362be07ab60048201526001600160a01b038085169163095ea7b39187169063593e96b69060240160206040518083038186803b158015612e8957600080fd5b505afa158015612e9d573d6000803e3d6000fd5b505050506040513d601f19601f82011682018060405250810190612ec19190615be9565b6040516001600160e01b031960e084901b1681526001600160a01b03909116600482015260248101849052604401602060405180830381600087803b158015612f0957600080fd5b505af1158015612f1d573d6000803e3d6000fd5b505050506040513d601f19601f82011682018060405250810190612f419190615d38565b50604051632c9f4b5b60e11b81527f3909e87234f428ccb8748126e2c93f66a62f92a70d315fa5803dec6362be07ab60048201526001600160a01b0385169063593e96b69060240160206040518083038186803b158015612fa157600080fd5b505afa158015612fb5573d6000803e3d6000fd5b505050506040513d601f19601f82011682018060405250810190612fd99190615be9565b6040517fc57d5fe90000000000000000000000000000000000000000000000000000000081526001600160a01b038481166004830152858116602483015260448201849052919091169063c57d5fe990606401600060405180830381600087803b15801561304657600080fd5b505af115801561305a573d6000803e3d6000fd5b50505050611a3e8483613bf7565b6040516317ba7d8560e01b81527f3a06648a49edffe95b8384794dfe9cf3ab34782fab0130b4c91bfd53f3407e6b60048201526001600160a01b038216906317ba7d859060240160206040518083038186803b1580156130c757600080fd5b505afa1580156130db573d6000803e3d6000fd5b505050506040513d601f19601f820116820180604052508101906130ff9190615be9565b6001600160a01b0316336001600160a01b031614613130576040516395383ea160e01b815260040160405180910390fd5b6001600160a01b0381166000908152600360205260409020805460ff1916600117905561315c81611a6e565b6001600160a01b03821660009081526004602052604081208054909190613184908490615ed7565b90915550506001600160a01b03166000908152600560205260409020439055565b8160006131b182613d38565b6040516317ba7d8560e01b81527f72894213a5c7f56b36b2947fa6ea18963d6bb1a68746b46d7f552cca76e1a7a860048201529091506001600160a01b038516906317ba7d859060240160206040518083038186803b15801561321357600080fd5b505afa158015613227573d6000803e3d6000fd5b505050506040513d601f19601f8201168201806040525081019061324b9190615be9565b6040517f4fd194f60000000000000000000000000000000000000000000000000000000081526001600160a01b0386811660048301529190911690634fd194f69060240160206040518083038186803b1580156132a757600080fd5b505afa1580156132bb573d6000803e3d6000fd5b505050506040513d601f19601f820116820180604052508101906132df9190615d38565b613315576040517f6132398d00000000000000000000000000000000000000000000000000000000815260040160405180910390fd5b604051632c9f4b5b60e11b81527f3909e87234f428ccb8748126e2c93f66a62f92a70d315fa5803dec6362be07ab60048201526000906001600160a01b0386169063593e96b69060240160206040518083038186803b15801561337757600080fd5b505afa15801561338b573d6000803e3d6000fd5b505050506040513d601f19601f820116820180604052508101906133af9190615be9565b90506000816001600160a01b031663a87af66c6040518163ffffffff1660e01b815260040160206040518083038186803b1580156133ec57600080fd5b505afa158015613400573d6000803e3d6000fd5b505050506040513d601f19601f820116820180604052508101906134249190615be9565b9050600085116134765760405162461bcd60e51b815260206004820152600760248201527f21616d6f756e74000000000000000000000000000000000000000000000000006044820152606401610aa0565b6134808633613ade565b8511156134a0576040516305cabbf560e41b815260040160405180910390fd5b604051634941d71d60e11b81527f533afc15b6312917b5e28e2272ea69d44e5ea8e00d3bd57cada1275c2f14c9e860048201526000906001600160a01b03881690639283ae3a9060240160206040518083038186803b15801561350257600080fd5b505afa158015613516573d6000803e3d6000fd5b505050506040513d601f19601f8201168201806040525081019061353a9190615d7d565b4211156135f957604051634941d71d60e11b81527f51cc27e85946200c558b984a0c15cad2122655d647f9c02ebe9529f2a0b25a2f6004820152670de0b6b3a7640000906001600160a01b03891690639283ae3a9060240160206040518083038186803b1580156135aa57600080fd5b505afa1580156135be573d6000803e3d6000fd5b505050506040513d601f19601f820116820180604052508101906135e29190615d7d565b6135ec9088615f0f565b6135f69190615eef565b90505b6001600160a01b03831663d9caed123384613614858b615f4c565b6040516001600160e01b031960e086901b1681526001600160a01b0393841660048201529290911660248301526044820152606401600060405180830381600087803b15801561366357600080fd5b505af1158015613677573d6000803e3d6000fd5b50506040517fe3a05cc10000000000000000000000000000000000000000000000000000000081523360048201526001600160a01b038581166024830152604482018a90528616925063e3a05cc19150606401600060405180830381600087803b1580156136e457600080fd5b505af11580156136f8573d6000803e3d6000fd5b5050505060006137088833613ade565b11613717576137178733614052565b8015613728576137288783836155ab565b6040516317ba7d8560e01b81527f3a06648a49edffe95b8384794dfe9cf3ab34782fab0130b4c91bfd53f3407e6b60048201526000906001600160a01b038916906317ba7d859060240160206040518083038186803b15801561378a57600080fd5b505afa15801561379e573d6000803e3d6000fd5b505050506040513d601f19601f820116820180604052508101906137c29190615be9565b6040516301c22a3d60e01b81526001600160a01b038a811660048301529192506000918316906301c22a3d9060240160206040518083038186803b15801561380957600080fd5b505afa15801561381d573d6000803e3d6000fd5b505050506040513d601f19601f820116820180604052508101906138419190615d7d565b6040517f6d3cc0400000000000000000000000000000000000000000000000000000000081526001600160a01b038b811660048301526024820183905233604483015291925090831690636d3cc0409060640160206040518083038186803b1580156138ac57600080fd5b505afa1580156138c0573d6000803e3d6000fd5b505050506040513d601f19601f820116820180604052508101906138e49190615d38565b80156139855750604051634941d71d60e11b81527f533afc15b6312917b5e28e2272ea69d44e5ea8e00d3bd57cada1275c2f14c9e860048201526001600160a01b038a1690639283ae3a9060240160206040518083038186803b15801561394a57600080fd5b505afa15801561395e573d6000803e3d6000fd5b505050506040513d601f19601f820116820180604052508101906139829190615d7d565b42105b156139c3576001600160a01b0389166000908152600660209081526040808320848452909152812080548a92906139bd908490615f4c565b90915550505b6001600160a01b0389166000908152600260209081526040808320848452825280832033808552925290912054906139fc908b90613ade565b11613a7a576001600160a01b03891660009081526002602090815260408083208484528252808320338452909152812080548a9290613a3c908490615f4c565b90915550506001600160a01b0389166000908152600760209081526040808320848452909152812080548a9290613a74908490615f4c565b90915550505b7fd432fbc5f79eaeefd01acbebd76cf4b0d5f43d8372c2fd3e23761c06a60a75f189613aa6858b615f4c565b604080516001600160a01b0390931683526020830191909152339082015260600160405180910390a15050505050611a3e828261403a565b604051632c9f4b5b60e11b81527f3909e87234f428ccb8748126e2c93f66a62f92a70d315fa5803dec6362be07ab600482015260009081906001600160a01b0385169063593e96b69060240160206040518083038186803b158015613b4257600080fd5b505afa158015613b56573d6000803e3d6000fd5b505050506040513d601f19601f82011682018060405250810190613b7a9190615be9565b6040516370a0823160e01b81526001600160a01b038581166004830152919250908216906370a082319060240160206040518083038186803b158015613bbf57600080fd5b505afa158015613bd3573d6000803e3d6000fd5b505050506040513d601f19601f82011682018060405250810190610a3e9190615d7d565b6001600160a01b0382166000908152602081905260409020613c199082614003565b613c41576001600160a01b0382166000908152602081905260409020613c3f9082614025565b505b60405163288c314960e21b81526001600160a01b03828116600483015283169063a230c5249060240160206040518083038186803b158015613c8257600080fd5b505afa158015613c96573d6000803e3d6000fd5b505050506040513d601f19601f82011682018060405250810190613cba9190615d38565b613d34576040517fdc929f4a0000000000000000000000000000000000000000000000000000000081526001600160a01b03828116600483015283169063dc929f4a906024015b600060405180830381600087803b158015613d1b57600080fd5b505af1158015613d2f573d6000803e3d6000fd5b505050505b5050565b6040805160808101825260008082526020820181905291810182905260608101919091525a81600001818152505043826001600160a01b031663b21634826040518163ffffffff1660e01b815260040160206040518083038186803b158015613da057600080fd5b505afa158015613db4573d6000803e3d6000fd5b505050506040513d601f19601f82011682018060405250810190613dd89190615d7d565b1415613e265760405162461bcd60e51b815260206004820152601060248201527f7265656e7472616e6379206775617264000000000000000000000000000000006044820152606401610aa0565b816001600160a01b03166310fdb0a26040518163ffffffff1660e01b8152600401600060405180830381600087803b158015613e6157600080fd5b505af1158015613e75573d6000803e3d6000fd5b50506040517f72c6838f0000000000000000000000000000000000000000000000000000000081527f1f2fd42ad6a6cacd573c4b212beb7a4e2499ad45d742a65337097f130e71daff6004820152600092506001600160a01b03851691506372c6838f9060240160206040518083038186803b158015613ef457600080fd5b505afa158015613f08573d6000803e3d6000fd5b505050506040513d601f19601f82011682018060405250810190613f2c9190615be9565b90506001600160a01b038116613f485760006020830152613ffd565b6001600160a01b038181166060840181905283516040517f43a8a3f1000000000000000000000000000000000000000000000000000000008152928616600484015260248301526000918291906343a8a3f190604401604080518083038186803b158015613fb557600080fd5b505afa158015613fc9573d6000803e3d6000fd5b505050506040513d601f19601f82011682018060405250810190613fed9190615d52565b9015156020860152604085015250505b50919050565b6001600160a01b03811660009081526001830160205260408120541515611b86565b6000611b86836001600160a01b0384166158df565b613d3482823361592e565b60606000611b8683615a24565b6001600160a01b03821660009081526020819052604090206140749082615a80565b5060405163288c314960e21b81526001600160a01b03828116600483015283169063a230c5249060240160206040518083038186803b1580156140b657600080fd5b505afa1580156140ca573d6000803e3d6000fd5b505050506040513d601f19601f820116820180604052508101906140ee9190615d38565b801561417c5750806001600160a01b0316826001600160a01b031663149acf9a6040518163ffffffff1660e01b815260040160206040518083038186803b15801561413857600080fd5b505afa15801561414c573d6000803e3d6000fd5b505050506040513d601f19601f820116820180604052508101906141709190615be9565b6001600160a01b031614155b15613d34576040517f0b1ca49a0000000000000000000000000000000000000000000000000000000081526001600160a01b038281166004830152831690630b1ca49a90602401613d01565b6040805161014081018252600080825260208201819052818301819052606082018190526080820181905260a0820181905260c0820181905260e08201819052610100820181905261012082015290516317ba7d8560e01b81527f372fda66f626a705d3a459960a1457403a7c3564acccedc00092ea70262b708360048201526001600160a01b038316906317ba7d859060240160206040518083038186803b15801561427457600080fd5b505afa158015614288573d6000803e3d6000fd5b505050506040513d601f19601f820116820180604052508101906142ac9190615be9565b6001600160a01b039081166101208301526040516317ba7d8560e01b81527f3a06648a49edffe95b8384794dfe9cf3ab34782fab0130b4c91bfd53f3407e6b6004820152908316906317ba7d859060240160206040518083038186803b15801561431557600080fd5b505afa158015614329573d6000803e3d6000fd5b505050506040513d601f19601f8201168201806040525081019061434d9190615be9565b6001600160a01b03908116606083018190526040516301c22a3d60e01b81529184166004830152906301c22a3d9060240160206040518083038186803b15801561439657600080fd5b505afa1580156143aa573d6000803e3d6000fd5b505050506040513d601f19601f820116820180604052508101906143ce9190615d7d565b60e0820152604051634941d71d60e11b81527ff301d5aec67a9d816d38f9b645cac1e79a3308ff9803564bbe63a862db82f46b60048201526001600160a01b03831690639283ae3a9060240160206040518083038186803b15801561443257600080fd5b505afa158015614446573d6000803e3d6000fd5b505050506040513d601f19601f8201168201806040525081019061446a9190615d7d565b60011480156145355750604051634941d71d60e11b81527f7e07fb4530796d057ca1d76d83f47aa8629dbb7e942ac28f30ad6f5e9e8d418960048201526001600160a01b03831690639283ae3a9060240160206040518083038186803b1580156144d357600080fd5b505afa1580156144e7573d6000803e3d6000fd5b505050506040513d601f19601f8201168201806040525081019061450b9190615d7d565b6001600160a01b038316600090815260076020908152604080832060e08601518452909152902054115b15613d3457604051632c9f4b5b60e11b81527f3909e87234f428ccb8748126e2c93f66a62f92a70d315fa5803dec6362be07ab60048201526001600160a01b0383169063593e96b69060240160206040518083038186803b15801561459957600080fd5b505afa1580156145ad573d6000803e3d6000fd5b505050506040513d601f19601f820116820180604052508101906145d19190615be9565b6001600160a01b0390811682528216600090815260016020908152604080832060e08501518452909152812061460690614045565b9050600082602001818152505081600001516001600160a01b031663a87af66c6040518163ffffffff1660e01b815260040160206040518083038186803b15801561465057600080fd5b505afa158015614664573d6000803e3d6000fd5b505050506040513d601f19601f820116820180604052508101906146889190615be9565b6001600160a01b0390811660408481019190915251634941d71d60e11b81527f7e07fb4530796d057ca1d76d83f47aa8629dbb7e942ac28f30ad6f5e9e8d4189600482015290841690639283ae3a9060240160206040518083038186803b1580156146f257600080fd5b505afa158015614706573d6000803e3d6000fd5b505050506040513d601f19601f8201168201806040525081019061472a9190615d7d565b60808301526001600160a01b038316600081815260066020908152604080832060e08701805185529083528184205460a088015293835260078252808320935183529290529081205460c08401525b81518160ff161015611a3e576001600160a01b038416600090815260026020908152604080832060e0870151845290915281208351909190849060ff85169081106147d457634e487b7160e01b600052603260045260246000fd5b60200260200101516001600160a01b03166001600160a01b03168152602001908152602001600020548361010001818152505082608001518360a00151106149395782606001516001600160a01b0316636d3cc040858560e00151858560ff168151811061485257634e487b7160e01b600052603260045260246000fd5b60200260200101516040518463ffffffff1660e01b8152600401614896939291906001600160a01b0393841681526020810192909252909116604082015260600190565b60206040518083038186803b1580156148ae57600080fd5b505afa1580156148c2573d6000803e3d6000fd5b505050506040513d601f19601f820116820180604052508101906148e69190615d38565b15614929578260a0015183608001518461010001516149059190615f0f565b61490f9190615eef565b83610100015161491f9190615f4c565b6020840152614a72565b6101008301516020840152614a72565b82606001516001600160a01b0316636d3cc040858560e00151858560ff168151811061497557634e487b7160e01b600052603260045260246000fd5b60200260200101516040518463ffffffff1660e01b81526004016149b9939291906001600160a01b0393841681526020810192909252909116604082015260600190565b60206040518083038186803b1580156149d157600080fd5b505afa1580156149e5573d6000803e3d6000fd5b505050506040513d601f19601f82011682018060405250810190614a099190615d38565b15614a1a5760006020840152614a72565b8260a001518360c00151614a2e9190615f4c565b8360a001518460800151614a429190615f4c565b846101000151614a529190615f0f565b614a5c9190615eef565b836101000151614a6c9190615f4c565b60208401525b602083015115614da3578261012001516001600160a01b03166301144ffd858560400151858560ff1681518110614ab957634e487b7160e01b600052603260045260246000fd5b6020908102919091018101519088015160608901516040517fe956369e0000000000000000000000000000000000000000000000000000000081526001600160a01b038c811660048301529091169063e956369e9060240160206040518083038186803b158015614b2957600080fd5b505afa158015614b3d573d6000803e3d6000fd5b505050506040513d601f19601f82011682018060405250810190614b619190615d7d565b6040516001600160e01b031960e088901b1681526001600160a01b03958616600482015293851660248501529390911660448301526064820152608481019190915260a401600060405180830381600087803b158015614bc057600080fd5b505af1158015614bd4573d6000803e3d6000fd5b505084516040516317ba7d8560e01b81527f372fda66f626a705d3a459960a1457403a7c3564acccedc00092ea70262b708360048201526001600160a01b03918216935063e176b35e9250908716906317ba7d859060240160206040518083038186803b158015614c4457600080fd5b505afa158015614c58573d6000803e3d6000fd5b505050506040513d601f19601f82011682018060405250810190614c7c9190615be9565b604080870151602088015191516001600160e01b031960e086901b1681526001600160a01b039384166004820152921660248301526044820152606401600060405180830381600087803b158015614cd357600080fd5b505af1158015614ce7573d6000803e3d6000fd5b5050505082600001516001600160a01b031663e3a05cc1838360ff1681518110614d2157634e487b7160e01b600052603260045260246000fd5b6020026020010151856040015186602001516040518463ffffffff1660e01b8152600401614d70939291906001600160a01b039384168152919092166020820152604081019190915260600190565b600060405180830381600087803b158015614d8a57600080fd5b505af1158015614d9e573d6000803e3d6000fd5b505050505b80614dad81615f63565b915050614779565b6040805160e08101825260008082526020820181905281830181905260608083018290526080830182905260a083015260c08201529051632c9f4b5b60e11b81527f3909e87234f428ccb8748126e2c93f66a62f92a70d315fa5803dec6362be07ab60048201526001600160a01b0383169063593e96b69060240160206040518083038186803b158015614e4857600080fd5b505afa158015614e5c573d6000803e3d6000fd5b505050506040513d601f19601f82011682018060405250810190614e809190615be9565b6001600160a01b0390811682526040516317ba7d8560e01b81527f3a06648a49edffe95b8384794dfe9cf3ab34782fab0130b4c91bfd53f3407e6b6004820152908316906317ba7d859060240160206040518083038186803b158015614ee557600080fd5b505afa158015614ef9573d6000803e3d6000fd5b505050506040513d601f19601f82011682018060405250810190614f1d9190615be9565b6001600160a01b03908116602083018190526040516301c22a3d60e01b81529184166004830152906301c22a3d9060240160206040518083038186803b158015614f6657600080fd5b505afa158015614f7a573d6000803e3d6000fd5b505050506040513d601f19601f82011682018060405250810190614f9e9190615d7d565b81606001818152505080600001516001600160a01b031663a87af66c6040518163ffffffff1660e01b815260040160206040518083038186803b158015614fe457600080fd5b505afa158015614ff8573d6000803e3d6000fd5b505050506040513d601f19601f8201168201806040525081019061501c9190615be9565b6001600160a01b0390811660808301528216600090815260016020908152604080832060608501518452909152902061505490614045565b60a082018190525115613d345760005b8160a00151518160ff1610156155a6576001600160a01b038316600090815260026020908152604080832060608601518452909152812060a0840151805191929160ff85169081106150c657634e487b7160e01b600052603260045260246000fd5b6020908102919091018101516001600160a01b031682528101919091526040016000205460c08301819052156154b3576040516317ba7d8560e01b81527f372fda66f626a705d3a459960a1457403a7c3564acccedc00092ea70262b708360048201526001600160a01b038416906317ba7d859060240160206040518083038186803b15801561515557600080fd5b505afa158015615169573d6000803e3d6000fd5b505050506040513d601f19601f8201168201806040525081019061518d9190615be9565b6001600160a01b031660408301819052608083015160a08401518051636b99029e928792909160ff87169081106151d457634e487b7160e01b600052603260045260246000fd5b60200260200101518660c0015187602001516001600160a01b031663e956369e8a6040518263ffffffff1660e01b815260040161522091906001600160a01b0391909116815260200190565b60206040518083038186803b15801561523857600080fd5b505afa15801561524c573d6000803e3d6000fd5b505050506040513d601f19601f820116820180604052508101906152709190615d7d565b6040516001600160e01b031960e088901b1681526001600160a01b03958616600482015293851660248501529390911660448301526064820152608481019190915260a401600060405180830381600087803b1580156152cf57600080fd5b505af11580156152e3573d6000803e3d6000fd5b505083516040516317ba7d8560e01b81527f372fda66f626a705d3a459960a1457403a7c3564acccedc00092ea70262b708360048201526001600160a01b03918216935063e176b35e9250908616906317ba7d859060240160206040518083038186803b15801561535357600080fd5b505afa158015615367573d6000803e3d6000fd5b505050506040513d601f19601f8201168201806040525081019061538b9190615be9565b608085015160c08601516040516001600160e01b031960e086901b1681526001600160a01b0393841660048201529290911660248301526044820152606401600060405180830381600087803b1580156153e457600080fd5b505af11580156153f8573d6000803e3d6000fd5b5050505081600001516001600160a01b031663e3a05cc18360a001518360ff168151811061543657634e487b7160e01b600052603260045260246000fd5b6020908102919091010151608085015160c08601516040516001600160e01b031960e086901b1681526001600160a01b0393841660048201529290911660248301526044820152606401600060405180830381600087803b15801561549a57600080fd5b505af11580156154ae573d6000803e3d6000fd5b505050505b6001600160a01b038316600090815260026020908152604080832060608601518452909152812060a0840151805183919060ff861690811061550557634e487b7160e01b600052603260045260246000fd5b60200260200101516001600160a01b03166001600160a01b03168152602001908152602001600020819055506155938260a001518260ff168151811061555b57634e487b7160e01b600052603260045260246000fd5b6020908102919091018101516001600160a01b0386166000908152600183526040808220606088015183529093529190912090615a80565b508061559e81615f63565b915050615064565b505050565b6040516317ba7d8560e01b81527f1ec3ab9b73a5166bb51de3096776c3fb06df7dc0a5e2df3038eb0588fad3adbc60048201526000906001600160a01b038516906317ba7d859060240160206040518083038186803b15801561560d57600080fd5b505afa158015615621573d6000803e3d6000fd5b505050506040513d601f19601f820116820180604052508101906156459190615be9565b604051632c9f4b5b60e11b81527f3909e87234f428ccb8748126e2c93f66a62f92a70d315fa5803dec6362be07ab600482015290915081906000906001600160a01b0387169063593e96b69060240160206040518083038186803b1580156156ac57600080fd5b505afa1580156156c0573d6000803e3d6000fd5b505050506040513d601f19601f820116820180604052508101906156e49190615be9565b6040517f871c22370000000000000000000000000000000000000000000000000000000081526001600160a01b0388811660048301524360248301528781166044830152606482018790529192509083169063871c223790608401600060405180830381600087803b15801561575957600080fd5b505af115801561576d573d6000803e3d6000fd5b50506040517fe176b35e0000000000000000000000000000000000000000000000000000000081526001600160a01b0386811660048301528881166024830152604482018890528416925063e176b35e9150606401600060405180830381600087803b1580156157dc57600080fd5b505af11580156157f0573d6000803e3d6000fd5b50505050505050505050565b6000816001600160a01b03166348f7f2a36040518163ffffffff1660e01b815260040160206040518083038186803b15801561583757600080fd5b505afa15801561584b573d6000803e3d6000fd5b505050506040513d601f19601f8201168201806040525081019061586f9190615be9565b6001600160a01b0316638da5cb5b6040518163ffffffff1660e01b815260040160206040518083038186803b1580156158a757600080fd5b505afa1580156158bb573d6000803e3d6000fd5b505050506040513d601f19601f82011682018060405250810190611a689190615be9565b600081815260018301602052604081205461592657508154600181810184556000848152602080822090930184905584548482528286019093526040902091909155611a68565b506000611a68565b8160200151156159cc5781606001516001600160a01b0316635e5eb01384835a865161595a9190615f4c565b60408088015190516001600160e01b031960e087901b1681526001600160a01b03948516600482015293909216602484015260448301526064820152608401600060405180830381600087803b1580156159b357600080fd5b505af11580156159c7573d6000803e3d6000fd5b505050505b826001600160a01b031663d4f7af436040518163ffffffff1660e01b8152600401600060405180830381600087803b158015615a0757600080fd5b505af1158015615a1b573d6000803e3d6000fd5b50505050505050565b606081600001805480602002602001604051908101604052809291908181526020018280548015615a7457602002820191906000526020600020905b815481526020019060010190808311615a60575b50505050509050919050565b6000611b86836001600160a01b03841660008181526001830160205260408120548015615ba3576000615ab4600183615f4c565b8554909150600090615ac890600190615f4c565b9050818114615b49576000866000018281548110615af657634e487b7160e01b600052603260045260246000fd5b9060005260206000200154905080876000018481548110615b2757634e487b7160e01b600052603260045260246000fd5b6000918252602080832090910192909255918252600188019052604090208390555b8554869080615b6857634e487b7160e01b600052603160045260246000fd5b600190038181906000526020600020016000905590558560010160008681526020019081526020016000206000905560019350505050611a68565b6000915050611a68565b8051615bb881615faf565b919050565b80518015158114615bb857600080fd5b600060208284031215615bde578081fd5b8135611b8681615faf565b600060208284031215615bfa578081fd5b8151611b8681615faf565b60008060408385031215615c17578081fd5b8235615c2281615faf565b946020939093013593505050565b600080600060608486031215615c44578081fd5b8335615c4f81615faf565b9250602084013591506040840135615c6681615faf565b809150509250925092565b60006020808385031215615c83578182fd5b825167ffffffffffffffff80821115615c9a578384fd5b818501915085601f830112615cad578384fd5b815181811115615cbf57615cbf615f99565b8060051b604051601f19603f83011681018181108582111715615ce457615ce4615f99565b604052828152858101935084860182860187018a1015615d02578788fd5b8795505b83861015615d2b57615d1781615bad565b855260019590950194938601938601615d06565b5098975050505050505050565b600060208284031215615d49578081fd5b611b8682615bbd565b60008060408385031215615d64578182fd5b615d6d83615bbd565b9150602083015190509250929050565b600060208284031215615d8e578081fd5b5051919050565b60008060408385031215615da7578182fd5b8235615db281615faf565b91506020830135615dc281615faf565b809150509250929050565b60008060008060808587031215615de2578081fd5b8435615ded81615faf565b93506020850135615dfd81615faf565b92506040850135615e0d81615faf565b9396929550929360600135925050565b60008060408385031215615c17578182fd5b60048110615e4d57634e487b7160e01b600052602160045260246000fd5b9052565b6001600160a01b038416815260608101615e6e6020830185615e2f565b826040830152949350505050565b6020808252825182820181905260009190848201906040850190845b81811015615ebd5783516001600160a01b031683529284019291840191600101615e98565b50909695505050505050565b60208101611a688284615e2f565b60008219821115615eea57615eea615f83565b500190565b600082615f0a57634e487b7160e01b81526012600452602481fd5b500490565b6000817fffffffffffffffffffffffffffffffffffffffffffffffffffffffffffffffff0483118215151615615f4757615f47615f83565b500290565b600082821015615f5e57615f5e615f83565b500390565b600060ff821660ff811415615f7a57615f7a615f83565b60010192915050565b634e487b7160e01b600052601160045260246000fd5b634e487b7160e01b600052604160045260246000fd5b6001600160a01b0381168114615fc457600080fd5b5056fea2646970667358221220f0506689a37c3c3afe0577837e68acfe0503b12db78eb0e62915001bedf720ec64736f6c63430008040033",
  "linkReferences": {},
  "deployedLinkReferences": {}
}