{
  "_format": "hh-sol-artifact-1",
  "contractName": "ColletiveDaoSetProposalAdapterContract",
  "sourceName": "contracts/collective/adapters/CollectiveDaoSetProposalAdapter.sol",
  "abi": [
    {
      "inputs": [],
      "name": "UNDONE_OPERATION_PROPOSALS",
      "type": "error"
    },
    {
      "inputs": [],
      "name": "VOTING_NOT_FINISH",
      "type": "error"
    },
    {
      "anonymous": false,
      "inputs": [
        {
          "indexed": false,
          "internalType": "address",
          "name": "daoAddr",
          "type": "address"
        },
        {
          "indexed": false,
          "internalType": "bytes32",
          "name": "proposalId",
          "type": "bytes32"
        },
        {
          "indexed": false,
          "internalType": "enum ColletiveDaoSetProposalAdapterContract.ProposalType",
          "name": "pType",
          "type": "uint8"
        }
      ],
      "name": "ProposalCreated",
      "type": "event"
    },
    {
      "anonymous": false,
      "inputs": [
        {
          "indexed": false,
          "internalType": "address",
          "name": "daoAddr",
          "type": "address"
        },
        {
          "indexed": false,
          "internalType": "bytes32",
          "name": "proposalId",
          "type": "bytes32"
        },
        {
          "indexed": false,
          "internalType": "enum ColletiveDaoSetProposalAdapterContract.ProposalState",
          "name": "state",
          "type": "uint8"
        },
        {
          "indexed": false,
          "internalType": "uint256",
          "name": "voteResult",
          "type": "uint256"
        },
        {
          "indexed": false,
          "internalType": "uint128",
          "name": "allVotingWeight",
          "type": "uint128"
        },
        {
          "indexed": false,
          "internalType": "uint256",
          "name": "nbYes",
          "type": "uint256"
        },
        {
          "indexed": false,
          "internalType": "uint256",
          "name": "nbNo",
          "type": "uint256"
        }
      ],
      "name": "ProposalProcessed",
      "type": "event"
    },
    {
      "inputs": [
        {
          "internalType": "address",
          "name": "",
          "type": "address"
        },
        {
          "internalType": "bytes32",
          "name": "",
          "type": "bytes32"
        }
      ],
      "name": "feesProposals",
      "outputs": [
        {
          "internalType": "bytes32",
          "name": "proposalId",
          "type": "bytes32"
        },
        {
          "internalType": "uint256",
          "name": "redemptionFeeAmount",
          "type": "uint256"
        },
        {
          "internalType": "uint256",
          "name": "creationTime",
          "type": "uint256"
        },
        {
          "internalType": "uint256",
          "name": "stopVoteTime",
          "type": "uint256"
        },
        {
          "internalType": "enum ColletiveDaoSetProposalAdapterContract.ProposalState",
          "name": "state",
          "type": "uint8"
        }
      ],
      "stateMutability": "view",
      "type": "function"
    },
    {
      "inputs": [
        {
          "internalType": "bytes32",
          "name": "proposalId",
          "type": "bytes32"
        }
      ],
      "name": "getGovernorMembershipWhitelist",
      "outputs": [
        {
          "internalType": "address[]",
          "name": "",
          "type": "address[]"
        }
      ],
      "stateMutability": "view",
      "type": "function"
    },
    {
      "inputs": [
        {
          "internalType": "address",
          "name": "",
          "type": "address"
        },
        {
          "internalType": "bytes32",
          "name": "",
          "type": "bytes32"
        }
      ],
      "name": "governorMembershipProposals",
      "outputs": [
        {
          "internalType": "bytes32",
          "name": "proposalId",
          "type": "bytes32"
        },
        {
          "internalType": "bool",
          "name": "enable",
          "type": "bool"
        },
        {
          "internalType": "string",
          "name": "name",
          "type": "string"
        },
        {
          "internalType": "uint8",
          "name": "varifyType",
          "type": "uint8"
        },
        {
          "internalType": "uint256",
          "name": "minAmount",
          "type": "uint256"
        },
        {
          "internalType": "address",
          "name": "tokenAddress",
          "type": "address"
        },
        {
          "internalType": "uint256",
          "name": "tokenId",
          "type": "uint256"
        },
        {
          "internalType": "uint256",
          "name": "creationTime",
          "type": "uint256"
        },
        {
          "internalType": "uint256",
          "name": "stopVoteTime",
          "type": "uint256"
        },
        {
          "internalType": "enum ColletiveDaoSetProposalAdapterContract.ProposalState",
          "name": "state",
          "type": "uint8"
        }
      ],
      "stateMutability": "view",
      "type": "function"
    },
    {
      "inputs": [
        {
          "internalType": "address",
          "name": "",
          "type": "address"
        },
        {
          "internalType": "bytes32",
          "name": "",
          "type": "bytes32"
        }
      ],
      "name": "investorCapProposals",
      "outputs": [
        {
          "internalType": "bytes32",
          "name": "proposalId",
          "type": "bytes32"
        },
        {
          "internalType": "bool",
          "name": "enable",
          "type": "bool"
        },
        {
          "internalType": "uint256",
          "name": "cap",
          "type": "uint256"
        },
        {
          "internalType": "uint256",
          "name": "creationTime",
          "type": "uint256"
        },
        {
          "internalType": "uint256",
          "name": "stopVoteTime",
          "type": "uint256"
        },
        {
          "internalType": "enum ColletiveDaoSetProposalAdapterContract.ProposalState",
          "name": "state",
          "type": "uint8"
        }
      ],
      "stateMutability": "view",
      "type": "function"
    },
    {
      "inputs": [
        {
          "internalType": "contract DaoRegistry",
          "name": "dao",
          "type": "address"
        }
      ],
      "name": "isProposalAllDone",
      "outputs": [
        {
          "internalType": "bool",
          "name": "",
          "type": "bool"
        }
      ],
      "stateMutability": "view",
      "type": "function"
    },
    {
      "inputs": [
        {
          "internalType": "address",
          "name": "",
          "type": "address"
        }
      ],
      "name": "ongoingFeesProposal",
      "outputs": [
        {
          "internalType": "bytes32",
          "name": "",
          "type": "bytes32"
        }
      ],
      "stateMutability": "view",
      "type": "function"
    },
    {
      "inputs": [
        {
          "internalType": "address",
          "name": "",
          "type": "address"
        }
      ],
      "name": "ongoingGovernorMembershipProposal",
      "outputs": [
        {
          "internalType": "bytes32",
          "name": "",
          "type": "bytes32"
        }
      ],
      "stateMutability": "view",
      "type": "function"
    },
    {
      "inputs": [
        {
          "internalType": "address",
          "name": "",
          "type": "address"
        }
      ],
      "name": "ongoingInvestorCapProposal",
      "outputs": [
        {
          "internalType": "bytes32",
          "name": "",
          "type": "bytes32"
        }
      ],
      "stateMutability": "view",
      "type": "function"
    },
    {
      "inputs": [
        {
          "internalType": "address",
          "name": "",
          "type": "address"
        }
      ],
      "name": "ongoingProposerRewardProposal",
      "outputs": [
        {
          "internalType": "bytes32",
          "name": "",
          "type": "bytes32"
        }
      ],
      "stateMutability": "view",
      "type": "function"
    },
    {
      "inputs": [
        {
          "internalType": "address",
          "name": "",
          "type": "address"
        }
      ],
      "name": "ongoingVotingProposal",
      "outputs": [
        {
          "internalType": "bytes32",
          "name": "",
          "type": "bytes32"
        }
      ],
      "stateMutability": "view",
      "type": "function"
    },
    {
      "inputs": [
        {
          "internalType": "contract DaoRegistry",
          "name": "dao",
          "type": "address"
        },
        {
          "internalType": "bytes32",
          "name": "proposalId",
          "type": "bytes32"
        }
      ],
      "name": "processFeesProposal",
      "outputs": [],
      "stateMutability": "nonpayable",
      "type": "function"
    },
    {
      "inputs": [
        {
          "internalType": "contract DaoRegistry",
          "name": "dao",
          "type": "address"
        },
        {
          "internalType": "bytes32",
          "name": "proposalId",
          "type": "bytes32"
        }
      ],
      "name": "processGovernorMembershipProposal",
      "outputs": [],
      "stateMutability": "nonpayable",
      "type": "function"
    },
    {
      "inputs": [
        {
          "internalType": "contract DaoRegistry",
          "name": "dao",
          "type": "address"
        },
        {
          "internalType": "bytes32",
          "name": "proposalId",
          "type": "bytes32"
        }
      ],
      "name": "processInvestorCapProposal",
      "outputs": [],
      "stateMutability": "nonpayable",
      "type": "function"
    },
    {
      "inputs": [
        {
          "internalType": "contract DaoRegistry",
          "name": "dao",
          "type": "address"
        },
        {
          "internalType": "bytes32",
          "name": "proposalId",
          "type": "bytes32"
        }
      ],
      "name": "processProposerRewardProposal",
      "outputs": [],
      "stateMutability": "nonpayable",
      "type": "function"
    },
    {
      "inputs": [
        {
          "internalType": "contract DaoRegistry",
          "name": "dao",
          "type": "address"
        },
        {
          "internalType": "bytes32",
          "name": "proposalId",
          "type": "bytes32"
        }
      ],
      "name": "processVotingProposal",
      "outputs": [],
      "stateMutability": "nonpayable",
      "type": "function"
    },
    {
      "inputs": [
        {
          "internalType": "address",
          "name": "",
          "type": "address"
        },
        {
          "internalType": "bytes32",
          "name": "",
          "type": "bytes32"
        }
      ],
      "name": "proposerRewardProposals",
      "outputs": [
        {
          "internalType": "bytes32",
          "name": "proposalId",
          "type": "bytes32"
        },
        {
          "internalType": "uint256",
          "name": "fundFromInvestorAmount",
          "type": "uint256"
        },
        {
          "internalType": "uint256",
          "name": "paybackTokenFromInvestorAmount",
          "type": "uint256"
        },
        {
          "internalType": "uint256",
          "name": "creationTime",
          "type": "uint256"
        },
        {
          "internalType": "uint256",
          "name": "stopVoteTime",
          "type": "uint256"
        },
        {
          "internalType": "enum ColletiveDaoSetProposalAdapterContract.ProposalState",
          "name": "state",
          "type": "uint8"
        }
      ],
      "stateMutability": "view",
      "type": "function"
    },
    {
      "inputs": [
        {
          "internalType": "contract DaoRegistry",
          "name": "dao",
          "type": "address"
        },
        {
          "internalType": "uint256",
          "name": "redemtionFee",
          "type": "uint256"
        }
      ],
      "name": "submitFeesProposal",
      "outputs": [],
      "stateMutability": "nonpayable",
      "type": "function"
    },
    {
      "inputs": [
        {
          "internalType": "contract DaoRegistry",
          "name": "dao",
          "type": "address"
        },
        {
          "internalType": "bool",
          "name": "enable",
          "type": "bool"
        },
        {
          "internalType": "string",
          "name": "name",
          "type": "string"
        },
        {
          "internalType": "uint8",
          "name": "varifyType",
          "type": "uint8"
        },
        {
          "internalType": "uint256",
          "name": "minAmount",
          "type": "uint256"
        },
        {
          "internalType": "address",
          "name": "tokenAddress",
          "type": "address"
        },
        {
          "internalType": "uint256",
          "name": "tokenId",
          "type": "uint256"
        },
        {
          "internalType": "address[]",
          "name": "whiteList",
          "type": "address[]"
        }
      ],
      "name": "submitGovernorMembershpProposal",
      "outputs": [],
      "stateMutability": "nonpayable",
      "type": "function"
    },
    {
      "inputs": [
        {
          "internalType": "contract DaoRegistry",
          "name": "dao",
          "type": "address"
        },
        {
          "internalType": "bool",
          "name": "enable",
          "type": "bool"
        },
        {
          "internalType": "uint256",
          "name": "cap",
          "type": "uint256"
        }
      ],
      "name": "submitInvestorCapProposal",
      "outputs": [],
      "stateMutability": "nonpayable",
      "type": "function"
    },
    {
      "inputs": [
        {
          "internalType": "contract DaoRegistry",
          "name": "dao",
          "type": "address"
        },
        {
          "internalType": "uint256",
          "name": "fundFromInvestorAmount",
          "type": "uint256"
        },
        {
          "internalType": "uint256",
          "name": "paybackTokenFromInvestorAmount",
          "type": "uint256"
        }
      ],
      "name": "submitProposerRewardProposal",
      "outputs": [],
      "stateMutability": "nonpayable",
      "type": "function"
    },
    {
      "inputs": [
        {
          "internalType": "contract DaoRegistry",
          "name": "dao",
          "type": "address"
        },
        {
          "components": [
            {
              "internalType": "uint256",
              "name": "votingAssetType",
              "type": "uint256"
            },
            {
              "internalType": "address",
              "name": "tokenAddress",
              "type": "address"
            },
            {
              "internalType": "uint256",
              "name": "tokenID",
              "type": "uint256"
            },
            {
              "internalType": "uint256",
              "name": "votingWeightedType",
              "type": "uint256"
            },
            {
              "internalType": "uint256",
              "name": "supportType",
              "type": "uint256"
            },
            {
              "internalType": "uint256",
              "name": "quorumType",
              "type": "uint256"
            },
            {
              "internalType": "uint256",
              "name": "support",
              "type": "uint256"
            },
            {
              "internalType": "uint256",
              "name": "quorum",
              "type": "uint256"
            },
            {
              "internalType": "uint256",
              "name": "votingPeriod",
              "type": "uint256"
            },
            {
              "internalType": "uint256",
              "name": "gracePeriod",
              "type": "uint256"
            }
          ],
          "internalType": "struct ColletiveDaoSetProposalAdapterContract.VotingParams",
          "name": "params",
          "type": "tuple"
        }
      ],
      "name": "submitVotingProposal",
      "outputs": [],
      "stateMutability": "nonpayable",
      "type": "function"
    },
    {
      "inputs": [
        {
          "internalType": "address",
          "name": "",
          "type": "address"
        },
        {
          "internalType": "bytes32",
          "name": "",
          "type": "bytes32"
        }
      ],
      "name": "votingProposals",
      "outputs": [
        {
          "internalType": "bytes32",
          "name": "proposalId",
          "type": "bytes32"
        },
        {
          "components": [
            {
              "internalType": "uint256",
              "name": "supportType",
              "type": "uint256"
            },
            {
              "internalType": "uint256",
              "name": "quorumType",
              "type": "uint256"
            },
            {
              "internalType": "uint256",
              "name": "support",
              "type": "uint256"
            },
            {
              "internalType": "uint256",
              "name": "quorum",
              "type": "uint256"
            }
          ],
          "internalType": "struct ColletiveDaoSetProposalAdapterContract.VotingSupportInfo",
          "name": "supportInfo",
          "type": "tuple"
        },
        {
          "components": [
            {
              "internalType": "uint256",
              "name": "votingAssetType",
              "type": "uint256"
            },
            {
              "internalType": "address",
              "name": "tokenAddress",
              "type": "address"
            },
            {
              "internalType": "uint256",
              "name": "tokenID",
              "type": "uint256"
            },
            {
              "internalType": "uint256",
              "name": "votingWeightedType",
              "type": "uint256"
            }
          ],
          "internalType": "struct ColletiveDaoSetProposalAdapterContract.VotingAssetInfo",
          "name": "votingAssetInfo",
          "type": "tuple"
        },
        {
          "components": [
            {
              "internalType": "uint256",
              "name": "votingPeriod",
              "type": "uint256"
            },
            {
              "internalType": "uint256",
              "name": "gracePeriod",
              "type": "uint256"
            },
            {
              "internalType": "uint256",
              "name": "creationTime",
              "type": "uint256"
            },
            {
              "internalType": "uint256",
              "name": "stopVoteTime",
              "type": "uint256"
            }
          ],
          "internalType": "struct ColletiveDaoSetProposalAdapterContract.VotingTimeInfo",
          "name": "timeInfo",
          "type": "tuple"
        },
        {
          "internalType": "enum ColletiveDaoSetProposalAdapterContract.ProposalState",
          "name": "state",
          "type": "uint8"
        }
      ],
      "stateMutability": "view",
      "type": "function"
    }
  ],
  "bytecode": "0x608060405234801561001057600080fd5b506158a880620000216000396000f3fe608060405234801561001057600080fd5b50600436106101825760003560e01c80638e3588dc116100d8578063be2176251161008c578063e323f9ab11610066578063e323f9ab14610518578063eb11477214610538578063f8ffc75b1461054b57600080fd5b8063be217625146104d2578063d2ae72e5146104f2578063d6bb647b1461050557600080fd5b8063a860dfdd116100bd578063a860dfdd1461048c578063ae9845451461049f578063b6939b7f146104b257600080fd5b80638e3588dc146104565780639a0242fc1461046957600080fd5b80631d625e241161013a57806355ba6cf41161011457806355ba6cf4146103c05780635dd12f89146103d35780638805212d1461043657600080fd5b80631d625e241461025d5780631eb1cf391461033b5780634ad743cc1461036457600080fd5b806307dc8eb81161016b57806307dc8eb814610209578063115111861461021c57806311c747cb1461024a57600080fd5b806301362c2314610187578063034f82fe1461019c575b600080fd5b61019a610195366004615078565b61056b565b005b6101ee6101aa366004614de4565b60056020818152600093845260408085209091529183529120805460018201546002830154600384015460048501549490950154929460ff92831694919390921686565b60405161020096959493929190615512565b60405180910390f35b61019a610217366004615078565b6109af565b61023c61022a366004614dac565b60046020526000908152604090205481565b604051908152602001610200565b61019a6102583660046150cb565b610c3a565b61032a61026b366004614de4565b60086020818152600093845260408085208252928452928290208054835160808082018652600184015482526002840154828801526003840154828701526004840154606080840191909152865180830188526005860154815260068601546001600160a01b0316818a015260078601548189015295850154868201528651918201875260098501548252600a85015497820197909752600b84015495810195909552600c83015495850195909552600d909101549093929060ff1685565b60405161020095949392919061554f565b61034e610349366004614de4565b610f89565b6040516102009a9998979695949392919061549f565b6103af610372366004614de4565b6007602090815260009283526040808420909152908252902080546001820154600283015460038401546004909401549293919290919060ff1685565b6040516102009594939291906155f3565b61019a6103ce366004615078565b611080565b6104246103e1366004614de4565b6009602090815260009283526040808420909152908252902080546001820154600283015460038401546004850154600590950154939492939192909160ff1686565b6040516102009695949392919061561d565b61023c610444366004614dac565b60026020526000908152604090205481565b61019a610464366004615078565b611368565b61047c610477366004614dac565b611644565b6040519015158152602001610200565b61019a61049a366004615078565b6116fc565b61019a6104ad366004615038565b6119d8565b61023c6104c0366004614dac565b60036020526000908152604090205481565b61023c6104e0366004614dac565b60016020526000908152604090205481565b61019a61050036600461508a565b611cc2565b61019a610513366004614f24565b6120ba565b61052b610526366004614f0c565b6124df565b6040516102009190615452565b61019a610546366004615078565b6124ff565b61023c610559366004614dac565b60006020819052908152604090205481565b81600061057782612856565b6001600160a01b03851660008181526009602090815260408083208884529091529081902090516330490e9160e01b815260048101879052929350916330490e9190602401600060405180830381600087803b1580156105d657600080fd5b505af11580156105ea573d6000803e3d6000fd5b50506040516317ba7d8560e01b81527f907642cbfe4e58ddd14eaa320923fbe4c29721dd0950ae4cb3b2626e292791ae6004820152600092506001600160a01b03881691506317ba7d859060240160206040518083038186803b15801561065057600080fd5b505afa158015610664573d6000803e3d6000fd5b505050506040513d601f19601f820116820180604052508101906106889190614dc8565b6040516376225e7360e01b81526001600160a01b03888116600483015260248201889052919250600091829182918516906376225e7390604401606060405180830381600087803b1580156106dc57600080fd5b505af11580156106f0573d6000803e3d6000fd5b505050506040513d601f19601f8201168201806040525081019061071491906150ff565b91945092509050600283600581111561073d57634e487b7160e01b600052602160045260246000fd5b141561086a576001850154604051630da0f6c760e41b81527fb035c58a9b643066fc5cd78a708da0456c36221a03ca174ff3b76d4306ff7c6c600482015260248101919091526001600160a01b038a169063da0f6c7090604401600060405180830381600087803b1580156107b157600080fd5b505af11580156107c5573d6000803e3d6000fd5b505050506002850154604051630da0f6c760e41b81527f558062fa5fcc8623e6c743ab5b51793317989a5a93f03b32a485f94843f77da3600482015260248101919091526001600160a01b038a169063da0f6c7090604401600060405180830381600087803b15801561083757600080fd5b505af115801561084b573d6000803e3d6000fd5b5050506005860180546002925060ff19166001835b0217905550610904565b600383600581111561088c57634e487b7160e01b600052602160045260246000fd5b14806108b7575060018360058111156108b557634e487b7160e01b600052602160045260246000fd5b145b156108d2576005850180546003919060ff1916600183610860565b6040517f70fc772800000000000000000000000000000000000000000000000000000000815260040160405180910390fd5b6001600160a01b03891660009081526002602052604081208190556109298a8a612b21565b6005808801549192507f9a4c9dc7fb16f7e4b4638e51757f59669af6a1ed1c31c3a44d9834d8976c05c5918c918c9160ff1690889081111561097b57634e487b7160e01b600052602160045260246000fd5b85888860405161099197969594939291906153c3565b60405180910390a15050505050506109a98282612e4d565b50505050565b8160006109bb82612856565b6001600160a01b03851660008181526005602090815260408083208884529091529081902090516330490e9160e01b815260048101879052929350916330490e9190602401600060405180830381600087803b158015610a1a57600080fd5b505af1158015610a2e573d6000803e3d6000fd5b50506040516317ba7d8560e01b81527f907642cbfe4e58ddd14eaa320923fbe4c29721dd0950ae4cb3b2626e292791ae6004820152600092506001600160a01b03881691506317ba7d859060240160206040518083038186803b158015610a9457600080fd5b505afa158015610aa8573d6000803e3d6000fd5b505050506040513d601f19601f82011682018060405250810190610acc9190614dc8565b6040516376225e7360e01b81526001600160a01b03888116600483015260248201889052919250600091829182918516906376225e7390604401606060405180830381600087803b158015610b2057600080fd5b505af1158015610b34573d6000803e3d6000fd5b505050506040513d601f19601f82011682018060405250810190610b5891906150ff565b919450925090506002836005811115610b8157634e487b7160e01b600052602160045260246000fd5b1415610bad57610b918986612e5c565b6005850180546002919060ff19166001835b0217905550610c15565b6003836005811115610bcf57634e487b7160e01b600052602160045260246000fd5b1480610bfa57506001836005811115610bf857634e487b7160e01b600052602160045260246000fd5b145b156108d2576005850180546003919060ff1916600183610ba3565b6001600160a01b03891660009081526020819052604081208190556109298a8a612b21565b82610c458133612f9f565b836000610c5182612856565b9050610c5c8661307d565b610c6586611644565b610cb65760405162461bcd60e51b815260206004820152601760248201527f64616f7365742070726f706f73616c7320756e646f6e6500000000000000000060448201526064015b60405180910390fd5b856001600160a01b0316633477500f6040518163ffffffff1660e01b8152600401600060405180830381600087803b158015610cf157600080fd5b505af1158015610d05573d6000803e3d6000fd5b505050506000610db08760c01b610d8b896001600160a01b031663d7543df96040518163ffffffff1660e01b815260040160206040518083038186803b158015610d4e57600080fd5b505afa158015610d62573d6000803e3d6000fd5b505050506040513d601f19601f82011682018060405250810190610d869190615168565b613644565b604051602001610d9c9291906151c0565b60405160208183030381529060405261379a565b90506040518060c00160405280828152602001878152602001868152602001428152602001886001600160a01b0316639283ae3a7f9876c0f0505bfb2b1c38d3bbd25ba13159172cd0868972d76927723f5a9480fc6040518263ffffffff1660e01b8152600401610e2391815260200190565b60206040518083038186803b158015610e3b57600080fd5b505afa158015610e4f573d6000803e3d6000fd5b505050506040513d601f19601f82011682018060405250810190610e739190615168565b610e7d90426156e3565b8152600060209182018190526001600160a01b038a168152600982526040808220858352835290819020835181559183015160018084019190915590830151600283015560608301516003808401919091556080840151600484015560a08401516005840180549193909260ff19909216918490811115610f0e57634e487b7160e01b600052602160045260246000fd5b021790555050506001600160a01b0387166000908152600260205260409020819055610f3a87826137b6565b7fa65d0c07e3b0d876ee52e871c234a4b150b9bf17a08f356f5aeda8d6782cc31a87826002604051610f6e9392919061541d565b60405180910390a150610f818282612e4d565b505050505050565b6006602090815260009283526040808420909152908252902080546001820154600283018054929360ff90921692610fc090615752565b80601f0160208091040260200160405190810160405280929190818152602001828054610fec90615752565b80156110395780601f1061100e57610100808354040283529160200191611039565b820191906000526020600020905b81548152906001019060200180831161101c57829003601f168201915b505050600384015460048501546005860154600687015460078801546008890154600990990154979860ff958616989497506001600160a01b03909316955090939092168a565b8161108b8133612f9f565b82600061109782612856565b90506110a28561307d565b6110ab85611644565b6110f75760405162461bcd60e51b815260206004820152601760248201527f64616f7365742070726f706f73616c7320756e646f6e650000000000000000006044820152606401610cad565b846001600160a01b031663091a3e9c6040518163ffffffff1660e01b8152600401600060405180830381600087803b15801561113257600080fd5b505af1158015611146573d6000803e3d6000fd5b5050505060006111a08660c01b61118f886001600160a01b031663f8385b2d6040518163ffffffff1660e01b815260040160206040518083038186803b158015610d4e57600080fd5b604051602001610d9c929190615227565b90506040518060a00160405280828152602001868152602001428152602001876001600160a01b0316639283ae3a7f9876c0f0505bfb2b1c38d3bbd25ba13159172cd0868972d76927723f5a9480fc6040518263ffffffff1660e01b815260040161120d91815260200190565b60206040518083038186803b15801561122557600080fd5b505afa158015611239573d6000803e3d6000fd5b505050506040513d601f19601f8201168201806040525081019061125d9190615168565b61126790426156e3565b8152600060209182018190526001600160a01b03891681526007825260408082208583528352908190208351815591830151600180840191909155908301516002830155606083015160038084019190915560808401516004840180549193909260ff199092169184908111156112ee57634e487b7160e01b600052602160045260246000fd5b021790555050506001600160a01b038616600090815260046020526040902081905561131a86826137b6565b7fa65d0c07e3b0d876ee52e871c234a4b150b9bf17a08f356f5aeda8d6782cc31a8682600460405161134e9392919061541d565b60405180910390a1506113618282612e4d565b5050505050565b81600061137482612856565b6001600160a01b03851660008181526006602090815260408083208884529091529081902090516330490e9160e01b815260048101879052929350916330490e9190602401600060405180830381600087803b1580156113d357600080fd5b505af11580156113e7573d6000803e3d6000fd5b50506040516317ba7d8560e01b81527f907642cbfe4e58ddd14eaa320923fbe4c29721dd0950ae4cb3b2626e292791ae6004820152600092506001600160a01b03881691506317ba7d859060240160206040518083038186803b15801561144d57600080fd5b505afa158015611461573d6000803e3d6000fd5b505050506040513d601f19601f820116820180604052508101906114859190614dc8565b6040516376225e7360e01b81526001600160a01b03888116600483015260248201889052919250600091829182918516906376225e7390604401606060405180830381600087803b1580156114d957600080fd5b505af11580156114ed573d6000803e3d6000fd5b505050506040513d601f19601f8201168201806040525081019061151191906150ff565b91945092509050600283600581111561153a57634e487b7160e01b600052602160045260246000fd5b14156115665761154a89866139cc565b6009850180546002919060ff19166001835b02179055506115ce565b600383600581111561158857634e487b7160e01b600052602160045260246000fd5b14806115b3575060018360058111156115b157634e487b7160e01b600052602160045260246000fd5b145b156108d2576009850180546003919060ff191660018361155c565b6001600160a01b03891660009081526001602052604081208190556115f38a8a612b21565b60098701549091507f9a4c9dc7fb16f7e4b4638e51757f59669af6a1ed1c31c3a44d9834d8976c05c5908b908b9060ff1687600581111561097b57634e487b7160e01b600052602160045260246000fd5b6001600160a01b03811660009081526020819052604081205415158061168157506001600160a01b03821660009081526001602052604090205415155b806116a357506001600160a01b03821660009081526004602052604090205415155b806116c557506001600160a01b03821660009081526003602052604090205415155b806116e757506001600160a01b03821660009081526002602052604090205415155b156116f457506000919050565b506001919050565b81600061170882612856565b6001600160a01b03851660008181526008602090815260408083208884529091529081902090516330490e9160e01b815260048101879052929350916330490e9190602401600060405180830381600087803b15801561176757600080fd5b505af115801561177b573d6000803e3d6000fd5b50506040516317ba7d8560e01b81527f907642cbfe4e58ddd14eaa320923fbe4c29721dd0950ae4cb3b2626e292791ae6004820152600092506001600160a01b03881691506317ba7d859060240160206040518083038186803b1580156117e157600080fd5b505afa1580156117f5573d6000803e3d6000fd5b505050506040513d601f19601f820116820180604052508101906118199190614dc8565b6040516376225e7360e01b81526001600160a01b03888116600483015260248201889052919250600091829182918516906376225e7390604401606060405180830381600087803b15801561186d57600080fd5b505af1158015611881573d6000803e3d6000fd5b505050506040513d601f19601f820116820180604052508101906118a591906150ff565b9194509250905060028360058111156118ce57634e487b7160e01b600052602160045260246000fd5b14156118fa576118de8986613ee6565b600d850180546002919060ff19166001835b0217905550611962565b600383600581111561191c57634e487b7160e01b600052602160045260246000fd5b14806119475750600183600581111561194557634e487b7160e01b600052602160045260246000fd5b145b156108d257600d850180546003919060ff19166001836118f0565b6001600160a01b03891660009081526003602052604081208190556119878a8a612b21565b600d8701549091507f9a4c9dc7fb16f7e4b4638e51757f59669af6a1ed1c31c3a44d9834d8976c05c5908b908b9060ff1687600581111561097b57634e487b7160e01b600052602160045260246000fd5b826119e38133612f9f565b8360006119ef82612856565b90506119fa8661307d565b611a0386611644565b611a4f5760405162461bcd60e51b815260206004820152601760248201527f64616f7365742070726f706f73616c7320756e646f6e650000000000000000006044820152606401610cad565b856001600160a01b0316631785092b6040518163ffffffff1660e01b8152600401600060405180830381600087803b158015611a8a57600080fd5b505af1158015611a9e573d6000803e3d6000fd5b505050506000611af88760c01b611ae7896001600160a01b0316633f8a3d496040518163ffffffff1660e01b815260040160206040518083038186803b158015610d4e57600080fd5b604051602001610d9c92919061528e565b90506040518060c001604052808281526020018715158152602001868152602001428152602001886001600160a01b0316639283ae3a7f9876c0f0505bfb2b1c38d3bbd25ba13159172cd0868972d76927723f5a9480fc6040518263ffffffff1660e01b8152600401611b6d91815260200190565b60206040518083038186803b158015611b8557600080fd5b505afa158015611b99573d6000803e3d6000fd5b505050506040513d601f19601f82011682018060405250810190611bbd9190615168565b611bc790426156e3565b8152602001600090526001600160a01b038816600090815260056020818152604080842086855282529283902084518155908401516001808301805492151560ff1993841617905593850151600283015560608501516003808401919091556080860151600484015560a086015193830180549395909390921691908490811115611c6257634e487b7160e01b600052602160045260246000fd5b021790555050506001600160a01b0387166000908152602081905260409020819055611c8e87826137b6565b7fa65d0c07e3b0d876ee52e871c234a4b150b9bf17a08f356f5aeda8d6782cc31a87826000604051610f6e9392919061541d565b81611ccd8133612f9f565b826000611cd982612856565b9050611ce485611644565b611d305760405162461bcd60e51b815260206004820152601760248201527f64616f7365742070726f706f73616c7320756e646f6e650000000000000000006044820152606401610cad565b611d398561307d565b846001600160a01b0316631bc0f7876040518163ffffffff1660e01b8152600401600060405180830381600087803b158015611d7457600080fd5b505af1158015611d88573d6000803e3d6000fd5b505050506000611de28660c01b611dd1886001600160a01b031663656f9f996040518163ffffffff1660e01b815260040160206040518083038186803b158015610d4e57600080fd5b604051602001610d9c9291906152f5565b90506040518060a001604052808281526020016040518060800160405280886080013581526020018860a0013581526020018860c0013581526020018860e001358152508152602001604051806080016040528088600001358152602001886020016020810190611e539190614dac565b6001600160a01b031681526020018860400135815260200188606001358152508152602001604051806080016040528088610100013581526020018861012001358152602001428152602001896001600160a01b0316639283ae3a7f9876c0f0505bfb2b1c38d3bbd25ba13159172cd0868972d76927723f5a9480fc6040518263ffffffff1660e01b8152600401611eed91815260200190565b60206040518083038186803b158015611f0557600080fd5b505afa158015611f19573d6000803e3d6000fd5b505050506040513d601f19601f82011682018060405250810190611f3d9190615168565b611f4790426156e3565b90528152602001600090526001600160a01b038781166000908152600860208181526040808420878552825292839020855181558582015180516001808401919091558184015160028401558186015160038085019190915560609283015160048501558887015180516005860155808601516006860180547fffffffffffffffffffffffff00000000000000000000000000000000000000001691909a16179098558787015160078501559682015194830194909455808701518051600984015592830151600a83015593820151600b820155920151600c8301556080840151600d8301805493949193909260ff1990911691849081111561205a57634e487b7160e01b600052602160045260246000fd5b021790555050506001600160a01b038616600090815260036020526040902081905561208686826137b6565b7fa65d0c07e3b0d876ee52e871c234a4b150b9bf17a08f356f5aeda8d6782cc31a8682600360405161134e9392919061541d565b886120c58133612f9f565b8960006120d182612856565b90506120dc8c611644565b6121285760405162461bcd60e51b815260206004820152601760248201527f64616f7365742070726f706f73616c7320756e646f6e650000000000000000006044820152606401610cad565b6121318c61307d565b8b6001600160a01b031663c7e820cc6040518163ffffffff1660e01b8152600401600060405180830381600087803b15801561216c57600080fd5b505af1158015612180573d6000803e3d6000fd5b5050505060006121da8d60c01b6121c98f6001600160a01b0316639e42c4036040518163ffffffff1660e01b815260040160206040518083038186803b158015610d4e57600080fd5b604051602001610d9c92919061535c565b90506040518061014001604052808281526020018d151581526020018c81526020018b60ff1681526020018a8152602001896001600160a01b031681526020018881526020014281526020018e6001600160a01b0316639283ae3a7f9876c0f0505bfb2b1c38d3bbd25ba13159172cd0868972d76927723f5a9480fc6040518263ffffffff1660e01b815260040161227491815260200190565b60206040518083038186803b15801561228c57600080fd5b505afa1580156122a0573d6000803e3d6000fd5b505050506040513d601f19601f820116820180604052508101906122c49190615168565b6122ce90426156e3565b8152602001600090526001600160a01b038e166000908152600660209081526040808320858452825291829020835181558382015160018201805460ff191691151591909117905591830151805161232c9260028501920190614ca8565b5060608201516003808301805460ff90931660ff199384161790556080840151600484015560a08401516005840180546001600160a01b039092167fffffffffffffffffffffffff000000000000000000000000000000000000000090921691909117905560c0840151600684015560e0840151600784015561010084015160088401556101208401516009840180549193909291169060019084908111156123e557634e487b7160e01b600052602160045260246000fd5b021790555050851590506124655760005b60ff81168611156124635761245087878360ff1681811061242757634e487b7160e01b600052603260045260246000fd5b905060200201602081019061243c9190614dac565b6000848152600a60205260409020906142e9565b508061245b816157c0565b9150506123f6565b505b6001600160a01b038d16600090815260016020526040902081905561248a8d826137b6565b7fa65d0c07e3b0d876ee52e871c234a4b150b9bf17a08f356f5aeda8d6782cc31a8d8260016040516124be9392919061541d565b60405180910390a1506124d18282612e4d565b505050505050505050505050565b6000818152600a602052604090206060906124f990614305565b92915050565b81600061250b82612856565b6001600160a01b03851660008181526007602090815260408083208884529091529081902090516330490e9160e01b815260048101879052929350916330490e9190602401600060405180830381600087803b15801561256a57600080fd5b505af115801561257e573d6000803e3d6000fd5b50506040516317ba7d8560e01b81527f907642cbfe4e58ddd14eaa320923fbe4c29721dd0950ae4cb3b2626e292791ae6004820152600092506001600160a01b03881691506317ba7d859060240160206040518083038186803b1580156125e457600080fd5b505afa1580156125f8573d6000803e3d6000fd5b505050506040513d601f19601f8201168201806040525081019061261c9190614dc8565b6040516376225e7360e01b81526001600160a01b03888116600483015260248201889052919250600091829182918516906376225e7390604401606060405180830381600087803b15801561267057600080fd5b505af1158015612684573d6000803e3d6000fd5b505050506040513d601f19601f820116820180604052508101906126a891906150ff565b9194509250905060028360058111156126d157634e487b7160e01b600052602160045260246000fd5b1415612778576001850154604051630da0f6c760e41b81527f51cc27e85946200c558b984a0c15cad2122655d647f9c02ebe9529f2a0b25a2f600482015260248101919091526001600160a01b038a169063da0f6c7090604401600060405180830381600087803b15801561274557600080fd5b505af1158015612759573d6000803e3d6000fd5b5050506004860180546002925060ff19166001835b02179055506127e0565b600383600581111561279a57634e487b7160e01b600052602160045260246000fd5b14806127c5575060018360058111156127c357634e487b7160e01b600052602160045260246000fd5b145b156108d2576004850180546003919060ff191660018361276e565b6001600160a01b03891660009081526004602052604081208190556128058a8a612b21565b60048701549091507f9a4c9dc7fb16f7e4b4638e51757f59669af6a1ed1c31c3a44d9834d8976c05c5908b908b9060ff1687600581111561097b57634e487b7160e01b600052602160045260246000fd5b6040805160808101825260008082526020820181905291810182905260608101919091525a81600001818152505043826001600160a01b031663b21634826040518163ffffffff1660e01b815260040160206040518083038186803b1580156128be57600080fd5b505afa1580156128d2573d6000803e3d6000fd5b505050506040513d601f19601f820116820180604052508101906128f69190615168565b14156129445760405162461bcd60e51b815260206004820152601060248201527f7265656e7472616e6379206775617264000000000000000000000000000000006044820152606401610cad565b816001600160a01b03166310fdb0a26040518163ffffffff1660e01b8152600401600060405180830381600087803b15801561297f57600080fd5b505af1158015612993573d6000803e3d6000fd5b50506040517f72c6838f0000000000000000000000000000000000000000000000000000000081527f1f2fd42ad6a6cacd573c4b212beb7a4e2499ad45d742a65337097f130e71daff6004820152600092506001600160a01b03851691506372c6838f9060240160206040518083038186803b158015612a1257600080fd5b505afa158015612a26573d6000803e3d6000fd5b505050506040513d601f19601f82011682018060405250810190612a4a9190614dc8565b90506001600160a01b038116612a665760006020830152612b1b565b6001600160a01b038181166060840181905283516040517f43a8a3f1000000000000000000000000000000000000000000000000000000008152928616600484015260248301526000918291906343a8a3f190604401604080518083038186803b158015612ad357600080fd5b505afa158015612ae7573d6000803e3d6000fd5b505050506040513d601f19601f82011682018060405250810190612b0b9190614edf565b9015156020860152604085015250505b50919050565b600080836001600160a01b031663a6f636416040518163ffffffff1660e01b815260040160006040518083038186803b158015612b5d57600080fd5b505afa158015612b71573d6000803e3d6000fd5b505050506040513d6000823e601f3d908101601f19168201604052612b999190810190614e0f565b6040516317ba7d8560e01b81527f907642cbfe4e58ddd14eaa320923fbe4c29721dd0950ae4cb3b2626e292791ae600482015290915060009081906001600160a01b038716906317ba7d859060240160206040518083038186803b158015612c0057600080fd5b505afa158015612c14573d6000803e3d6000fd5b505050506040513d601f19601f82011682018060405250810190612c389190614dc8565b905060005b83518160ff161015612e4257816001600160a01b03166324a2cceb8888878560ff1681518110612c7d57634e487b7160e01b600052603260045260246000fd5b60200260200101516040518463ffffffff1660e01b8152600401612cc1939291906001600160a01b0393841681526020810192909252909116604082015260600190565b60206040518083038186803b158015612cd957600080fd5b505afa158015612ced573d6000803e3d6000fd5b505050506040513d601f19601f82011682018060405250810190612d119190614ec3565b15612def57816001600160a01b03166391d2fd538888878560ff1681518110612d4a57634e487b7160e01b600052603260045260246000fd5b60200260200101516040518463ffffffff1660e01b8152600401612d8e939291906001600160a01b0393841681526020810192909252909116604082015260600190565b60206040518083038186803b158015612da657600080fd5b505afa158015612dba573d6000803e3d6000fd5b505050506040513d601f19601f82011682018060405250810190612dde9190615138565b612de890846156af565b9250612e30565b612e2387858360ff1681518110612e1657634e487b7160e01b600052603260045260246000fd5b6020026020010151614312565b612e2d90846156af565b92505b80612e3a816157c0565b915050612c3d565b509095945050505050565b612e58828233614997565b5050565b6001808201546001600160a01b0384169163da0f6c70917f69f4ffb3ebcb7809550bddd3e4d449a47e737bf6635bc7a730996643997b0e489160ff909116151514612ea8576000612eab565b60015b6040517fffffffff0000000000000000000000000000000000000000000000000000000060e085901b168152600481019290925260ff166024820152604401600060405180830381600087803b158015612f0457600080fd5b505af1158015612f18573d6000803e3d6000fd5b505050506002810154604051630da0f6c760e41b81527fecbde689cc6337d29a750b8b8a8abbfa97427b4ac800ab55be2f2c87311510f2600482015260248101919091526001600160a01b0383169063da0f6c70906044015b600060405180830381600087803b158015612f8b57600080fd5b505af1158015610f81573d6000803e3d6000fd5b6040517fa230c5240000000000000000000000000000000000000000000000000000000081526001600160a01b03828116600483015283169063a230c5249060240160206040518083038186803b158015612ff957600080fd5b505afa15801561300d573d6000803e3d6000fd5b505050506040513d601f19601f820116820180604052508101906130319190614ec3565b612e585760405162461bcd60e51b815260206004820152600c60248201527f6f6e6c79476f7665726e6f7200000000000000000000000000000000000000006044820152606401610cad565b6040516317ba7d8560e01b81527fd0e09561b13ad01191fc8f65f6fc85651e4f495d3f9ab93d95010ea58382434b60048201526000906001600160a01b038316906317ba7d859060240160206040518083038186803b1580156130df57600080fd5b505afa1580156130f3573d6000803e3d6000fd5b505050506040513d601f19601f820116820180604052508101906131179190614dc8565b6040516317ba7d8560e01b81527f72894213a5c7f56b36b2947fa6ea18963d6bb1a68746b46d7f552cca76e1a7a860048201529091506000906001600160a01b038416906317ba7d859060240160206040518083038186803b15801561317c57600080fd5b505afa158015613190573d6000803e3d6000fd5b505050506040513d601f19601f820116820180604052508101906131b49190614dc8565b6040516317ba7d8560e01b81527f3a06648a49edffe95b8384794dfe9cf3ab34782fab0130b4c91bfd53f3407e6b60048201529091506000906001600160a01b038516906317ba7d859060240160206040518083038186803b15801561321957600080fd5b505afa15801561322d573d6000803e3d6000fd5b505050506040513d601f19601f820116820180604052508101906132519190614dc8565b6040516317ba7d8560e01b81527f1a4f1390baec30049008138e650571a3c4374eba88116bc89dc192f2f9295efe60048201529091506000906001600160a01b038616906317ba7d859060240160206040518083038186803b1580156132b657600080fd5b505afa1580156132ca573d6000803e3d6000fd5b505050506040513d601f19601f820116820180604052508101906132ee9190614dc8565b6040516317ba7d8560e01b81527f3b4de3360220463b2e1b681516ac7919070009f0544e8465d80dc511828dae5b60048201529091506000906001600160a01b038716906317ba7d859060240160206040518083038186803b15801561335357600080fd5b505afa158015613367573d6000803e3d6000fd5b505050506040513d601f19601f8201168201806040525081019061338b9190614dc8565b604051630190bf0360e61b81526001600160a01b0388811660048301529192509086169063642fc0c09060240160206040518083038186803b1580156133d057600080fd5b505afa1580156133e4573d6000803e3d6000fd5b505050506040513d601f19601f820116820180604052508101906134089190614ec3565b158061348a5750604051630190bf0360e61b81526001600160a01b03878116600483015285169063642fc0c09060240160206040518083038186803b15801561345057600080fd5b505afa158015613464573d6000803e3d6000fd5b505050506040513d601f19601f820116820180604052508101906134889190614ec3565b155b8061350b5750604051630190bf0360e61b81526001600160a01b03878116600483015284169063642fc0c09060240160206040518083038186803b1580156134d157600080fd5b505afa1580156134e5573d6000803e3d6000fd5b505050506040513d601f19601f820116820180604052508101906135099190614ec3565b155b8061358c5750604051630190bf0360e61b81526001600160a01b03878116600483015283169063642fc0c09060240160206040518083038186803b15801561355257600080fd5b505afa158015613566573d6000803e3d6000fd5b505050506040513d601f19601f8201168201806040525081019061358a9190614ec3565b155b8061360d5750604051630190bf0360e61b81526001600160a01b03878116600483015282169063642fc0c09060240160206040518083038186803b1580156135d357600080fd5b505afa1580156135e7573d6000803e3d6000fd5b505050506040513d601f19601f8201168201806040525081019061360b9190614ec3565b155b15610f81576040517f08988c4f00000000000000000000000000000000000000000000000000000000815260040160405180910390fd5b60608161368457505060408051808201909152600181527f3000000000000000000000000000000000000000000000000000000000000000602082015290565b8160005b81156136ae578061369881615787565b91506136a79050600a836156fb565b9150613688565b60008167ffffffffffffffff8111156136d757634e487b7160e01b600052604160045260246000fd5b6040519080825280601f01601f191660200182016040528015613701576020820181803683370190505b5090505b84156137925761371660018361570f565b9150613723600a866157e0565b61372e9060306156e3565b60f81b81838151811061375157634e487b7160e01b600052603260045260246000fd5b60200101907effffffffffffffffffffffffffffffffffffffffffffffffffffffffffffff1916908160001a90535061378b600a866156fb565b9450613705565b949350505050565b60008151600014156137ae57506000919050565b506020015190565b6040517fb73dc389000000000000000000000000000000000000000000000000000000008152600481018290526001600160a01b0383169063b73dc38990602401600060405180830381600087803b15801561381157600080fd5b505af1158015613825573d6000803e3d6000fd5b50506040516317ba7d8560e01b81527f907642cbfe4e58ddd14eaa320923fbe4c29721dd0950ae4cb3b2626e292791ae6004820152600092506001600160a01b03851691506317ba7d859060240160206040518083038186803b15801561388b57600080fd5b505afa15801561389f573d6000803e3d6000fd5b505050506040513d601f19601f820116820180604052508101906138c39190614dc8565b604080516020810182526000815290517f2b0974d00000000000000000000000000000000000000000000000000000000081529192506001600160a01b03831691632b0974d09161391a918791879160040161564d565b600060405180830381600087803b15801561393457600080fd5b505af1158015613948573d6000803e3d6000fd5b50506040517f815a2bf4000000000000000000000000000000000000000000000000000000008152600481018590526001600160a01b0384811660248301528616925063815a2bf49150604401600060405180830381600087803b1580156139af57600080fd5b505af11580156139c3573d6000803e3d6000fd5b50505050505050565b6001808201546001600160a01b0384169163da0f6c70917f02049446ffbff09ad55d6fdb03c8c6027cf548332d30663e8fdf960abdab86ea9160ff909116151514613a18576000613a1b565b60015b6040517fffffffff0000000000000000000000000000000000000000000000000000000060e085901b168152600481019290925260ff166024820152604401600060405180830381600087803b158015613a7457600080fd5b505af1158015613a88573d6000803e3d6000fd5b50505050600181015460ff1615612e58576003810154604051630da0f6c760e41b81527f09f0ac4191623c4a1e481e66bb865f218d9f5bcef4e65b597583a054b10182bc600482015260ff90911660248201526001600160a01b0383169063da0f6c7090604401600060405180830381600087803b158015613b0957600080fd5b505af1158015613b1d573d6000803e3d6000fd5b50505050600481810154604051630da0f6c760e41b81527f6bdd30ca7a0b5a78cdfd780fd2f234880048cafa893e9ccbc9f82df25cdc717f9281019290925260248201526001600160a01b0383169063da0f6c7090604401600060405180830381600087803b158015613b8f57600080fd5b505af1158015613ba3573d6000803e3d6000fd5b5050505060058101546040517f3b4f921a0000000000000000000000000000000000000000000000000000000081527f0567bf43e78d815625031c35adddd5d701cb6b913fbad3b625b4f8c00fdc42aa60048201526001600160a01b03918216602482015290831690633b4f921a90604401600060405180830381600087803b158015613c2f57600080fd5b505af1158015613c43573d6000803e3d6000fd5b505050506006810154604051630da0f6c760e41b81527f032de4639c5a8edd1ea478b1345b2d031f42ecd2b29442d3080c9ac0545b5f8e600482015260248101919091526001600160a01b0383169063da0f6c7090604401600060405180830381600087803b158015613cb557600080fd5b505af1158015613cc9573d6000803e3d6000fd5b505082546000908152600a60205260408120909250613ce89150614305565b519050600081118015613d01575060038083015460ff16145b15613ee1576040516317ba7d8560e01b81527f1a4f1390baec30049008138e650571a3c4374eba88116bc89dc192f2f9295efe60048201526000906001600160a01b038516906317ba7d859060240160206040518083038186803b158015613d6857600080fd5b505afa158015613d7c573d6000803e3d6000fd5b505050506040513d601f19601f82011682018060405250810190613da09190614dc8565b6040517f22c5c2cc0000000000000000000000000000000000000000000000000000000081526001600160a01b038681166004830152919250908216906322c5c2cc90602401600060405180830381600087803b158015613e0057600080fd5b505af1158015613e14573d6000803e3d6000fd5b5050505060005b828160ff1610156113615783546000908152600a602052604090206001600160a01b038316906333f7bc0c908790613e569060ff8616614a88565b6040517fffffffff0000000000000000000000000000000000000000000000000000000060e085901b1681526001600160a01b03928316600482015291166024820152604401600060405180830381600087803b158015613eb657600080fd5b505af1158015613eca573d6000803e3d6000fd5b505050508080613ed9906157c0565b915050613e1b565b505050565b6005810154604051630da0f6c760e41b81527feee23dc9ab95b6666db01c2b6cae6a5ef706099a25926e21e0a2e043fe885604600482015260248101919091526001600160a01b0383169063da0f6c7090604401600060405180830381600087803b158015613f5457600080fd5b505af1158015613f68573d6000803e3d6000fd5b505050506008810154604051630da0f6c760e41b81527fd093d4a34a12a221b19c0a6689d5449f1346aa769d15cca4e9782c36fda9339a600482015260248101919091526001600160a01b0383169063da0f6c7090604401600060405180830381600087803b158015613fda57600080fd5b505af1158015613fee573d6000803e3d6000fd5b505050506001810154604051630da0f6c760e41b81527f1aeed2c0ea31fb81f41489b79a1d09374a270e0f9340ace7354cce77586a7d16600482015260248101919091526001600160a01b0383169063da0f6c7090604401600060405180830381600087803b15801561406057600080fd5b505af1158015614074573d6000803e3d6000fd5b505050506002810154604051630da0f6c760e41b81527f0e0434138ea29dceb1f2c0ca9b9f923f9d1c32d3d96bab2de9991f140daca712600482015260248101919091526001600160a01b0383169063da0f6c7090604401600060405180830381600087803b1580156140e657600080fd5b505af11580156140fa573d6000803e3d6000fd5b50505050600481810154604051630da0f6c760e41b81527f0324de13a5a6e302ddb95a9fdf81cc736fc8acee2abe558970daac27395904e79281019290925260248201526001600160a01b0383169063da0f6c7090604401600060405180830381600087803b15801561416c57600080fd5b505af1158015614180573d6000803e3d6000fd5b505050506003810154604051630da0f6c760e41b81527fb4c601c38beae7eebb719eda3438f59fcbfd4c6dd7d38c00665b6fd5b432df32600482015260248101919091526001600160a01b0383169063da0f6c7090604401600060405180830381600087803b1580156141f257600080fd5b505af1158015614206573d6000803e3d6000fd5b50505050600a810154604051630da0f6c760e41b81527fb646599143db51c9136a4861a55f7140eab851836e3e1a42ba7804f5356a3655600482015260248101919091526001600160a01b0383169063da0f6c7090604401600060405180830381600087803b15801561427857600080fd5b505af115801561428c573d6000803e3d6000fd5b505050506009810154604051630da0f6c760e41b81527f9876c0f0505bfb2b1c38d3bbd25ba13159172cd0868972d76927723f5a9480fc600482015260248101919091526001600160a01b0383169063da0f6c7090604401612f71565b60006142fe836001600160a01b038416614a94565b9392505050565b606060006142fe83614ae3565b6040517f9283ae3a0000000000000000000000000000000000000000000000000000000081527feee23dc9ab95b6666db01c2b6cae6a5ef706099a25926e21e0a2e043fe885604600482015260009081906001600160a01b03851690639283ae3a9060240160206040518083038186803b15801561438f57600080fd5b505afa1580156143a3573d6000803e3d6000fd5b505050506040513d601f19601f820116820180604052508101906143c79190615168565b6040517f9283ae3a0000000000000000000000000000000000000000000000000000000081527fd093d4a34a12a221b19c0a6689d5449f1346aa769d15cca4e9782c36fda9339a60048201529091506000906001600160a01b03861690639283ae3a9060240160206040518083038186803b15801561444557600080fd5b505afa158015614459573d6000803e3d6000fd5b505050506040513d601f19601f8201168201806040525081019061447d9190615168565b6040516317ba7d8560e01b81527f8f5b4aabbdb8527d420a29cc90ae207773ad49b73c632c3cfd2f29eb8776f2ea60048201529091506000906001600160a01b038716906317ba7d859060240160206040518083038186803b1580156144e257600080fd5b505afa1580156144f6573d6000803e3d6000fd5b505050506040513d601f19601f8201168201806040525081019061451a9190614dc8565b6040517f593e96b60000000000000000000000000000000000000000000000000000000081527f3909e87234f428ccb8748126e2c93f66a62f92a70d315fa5803dec6362be07ab60048201529091506000906001600160a01b0388169063593e96b69060240160206040518083038186803b15801561459857600080fd5b505afa1580156145ac573d6000803e3d6000fd5b505050506040513d601f19601f820116820180604052508101906145d09190614dc8565b6040517f70a0823100000000000000000000000000000000000000000000000000000000815261decd60048201526001600160a01b0391909116906370a082319060240160206040518083038186803b15801561462c57600080fd5b505afa158015614640573d6000803e3d6000fd5b505050506040513d601f19601f820116820180604052508101906146649190615168565b111580156146ff57506040517fa230c5240000000000000000000000000000000000000000000000000000000081526001600160a01b03868116600483015287169063a230c5249060240160206040518083038186803b1580156146c757600080fd5b505afa1580156146db573d6000803e3d6000fd5b505050506040513d601f19601f820116820180604052508101906146ff9190614ec3565b1561471057600193505050506124f9565b816001141561482d576000836147bd57604051633de222bb60e21b81526001600160a01b0388811660048301528781166024830152670de0b6b3a7640000919084169063f7888aec9060440160206040518083038186803b15801561477457600080fd5b505afa158015614788573d6000803e3d6000fd5b505050506040513d601f19601f820116820180604052508101906147ac9190615168565b6147b691906156fb565b90506147ca565b60009450505050506124f9565b600081116147df5760009450505050506124f9565b677fffffffffffffff81106147fb5760329450505050506124f9565b600061481661481161480c84614b3f565b614b5d565b614c54565b67ffffffffffffffff1695506124f9945050505050565b81600214156148e2576000836147bd57604051633de222bb60e21b81526001600160a01b03888116600483015287811660248301526000919084169063f7888aec9060440160206040518083038186803b15801561488a57600080fd5b505afa15801561489e573d6000803e3d6000fd5b505050506040513d601f19601f820116820180604052508101906148c29190615168565b116148ce5760006148d1565b60015b60ff1690505b93506124f992505050565b8161498b576000836147bd57604051633de222bb60e21b81526001600160a01b0388811660048301528781166024830152670de0b6b3a7640000919084169063f7888aec9060440160206040518083038186803b15801561494257600080fd5b505afa158015614956573d6000803e3d6000fd5b505050506040513d601f19601f8201168201806040525081019061497a9190615168565b61498491906156fb565b90506148d7565b600093505050506124f9565b816020015115614a4d5781606001516001600160a01b0316635e5eb01384835a86516149c3919061570f565b60408088015190517fffffffff0000000000000000000000000000000000000000000000000000000060e087901b1681526001600160a01b03948516600482015293909216602484015260448301526064820152608401600060405180830381600087803b158015614a3457600080fd5b505af1158015614a48573d6000803e3d6000fd5b505050505b826001600160a01b031663d4f7af436040518163ffffffff1660e01b8152600401600060405180830381600087803b1580156139af57600080fd5b60006142fe8383614c70565b6000818152600183016020526040812054614adb575081546001818101845560008481526020808220909301849055845484825282860190935260409020919091556124f9565b5060006124f9565b606081600001805480602002602001604051908101604052809291908181526020018280548015614b3357602002820191906000526020600020905b815481526020019060010190808311614b1f575b50505050509050919050565b6000677fffffffffffffff821115614b5657600080fd5b5060401b90565b60008082600f0b13614b6e57600080fd5b6000600f83900b680100000000000000008112614b8d576040918201911d5b6401000000008112614ba1576020918201911d5b620100008112614bb3576010918201911d5b6101008112614bc4576008918201911d5b60108112614bd4576004918201911d5b60048112614be4576002918201911d5b60028112614bf3576001820191505b7fffffffffffffffffffffffffffffffffffffffffffffffffffffffffffffffc0820160401b600f85900b607f8490031b6780000000000000005b6000811315612e425790800260ff81901c8281029390930192607f011c9060011d614c2e565b60008082600f0b1215614c6657600080fd5b50600f0b60401d90565b6000826000018281548110614c9557634e487b7160e01b600052603260045260246000fd5b9060005260206000200154905092915050565b828054614cb490615752565b90600052602060002090601f016020900481019282614cd65760008555614d1c565b82601f10614cef57805160ff1916838001178555614d1c565b82800160010185558215614d1c579182015b82811115614d1c578251825591602001919060010190614d01565b50614d28929150614d2c565b5090565b5b80821115614d285760008155600101614d2d565b8035614d4c8161584c565b919050565b60008083601f840112614d62578182fd5b50813567ffffffffffffffff811115614d79578182fd5b6020830191508360208260051b8501011115614d9457600080fd5b9250929050565b803560ff81168114614d4c57600080fd5b600060208284031215614dbd578081fd5b81356142fe8161584c565b600060208284031215614dd9578081fd5b81516142fe8161584c565b60008060408385031215614df6578081fd5b8235614e018161584c565b946020939093013593505050565b60006020808385031215614e21578182fd5b825167ffffffffffffffff80821115614e38578384fd5b818501915085601f830112614e4b578384fd5b815181811115614e5d57614e5d615836565b8060051b9150614e6e84830161567e565b8181528481019084860184860187018a1015614e88578788fd5b8795505b83861015614eb65780519450614ea18561584c565b84835260019590950194918601918601614e8c565b5098975050505050505050565b600060208284031215614ed4578081fd5b81516142fe81615864565b60008060408385031215614ef1578182fd5b8251614efc81615864565b6020939093015192949293505050565b600060208284031215614f1d578081fd5b5035919050565b60008060008060008060008060006101008a8c031215614f42578485fd5b8935614f4d8161584c565b985060208a810135614f5e81615864565b985060408b013567ffffffffffffffff80821115614f7a578788fd5b818d0191508d601f830112614f8d578788fd5b813581811115614f9f57614f9f615836565b614fb184601f19601f8401160161567e565b8181528f85838601011115614fc457898afd5b818585018683013790810184018990529950614fe260608e01614d9b565b985060808d01359750614ff760a08e01614d41565b965060c08d0135955060e08d0135925080831115615013578485fd5b50506150218c828d01614d51565b915080935050809150509295985092959850929598565b60008060006060848603121561504c578081fd5b83356150578161584c565b9250602084013561506781615864565b929592945050506040919091013590565b60008060408385031215614df6578182fd5b60008082840361016081121561509e578283fd5b83356150a98161584c565b9250610140601f19820112156150bd578182fd5b506020830190509250929050565b6000806000606084860312156150df578081fd5b83356150ea8161584c565b95602085013595506040909401359392505050565b600080600060608486031215615113578081fd5b835160068110615121578182fd5b602085015160409095015190969495509392505050565b600060208284031215615149578081fd5b81516fffffffffffffffffffffffffffffffff811681146142fe578182fd5b600060208284031215615179578081fd5b5051919050565b60008151808452615198816020860160208601615726565b601f01601f19169290920160200192915050565b600481106151bc576151bc615820565b9052565b77ffffffffffffffffffffffffffffffffffffffffffffffff19831681527f50726f706f7365722d5265776172642300000000000000000000000000000000600882015260008251615219816018850160208701615726565b919091016018019392505050565b77ffffffffffffffffffffffffffffffffffffffffffffffff19831681527f466565732300000000000000000000000000000000000000000000000000000060088201526000825161528081600d850160208701615726565b91909101600d019392505050565b77ffffffffffffffffffffffffffffffffffffffffffffffff19831681527f496e766573746f722d43617023000000000000000000000000000000000000006008820152600082516152e7816015850160208701615726565b919091016015019392505050565b77ffffffffffffffffffffffffffffffffffffffffffffffff19831681527f766f74696e67230000000000000000000000000000000000000000000000000060088201526000825161534e81600f850160208701615726565b91909101600f019392505050565b77ffffffffffffffffffffffffffffffffffffffffffffffff19831681527f476f7665726e6f722d4d656d62657273686970230000000000000000000000006008820152600082516153b581601c850160208701615726565b91909101601c019392505050565b6001600160a01b03881681526020810187905260e081016153e760408301886151ac565b8560608301526fffffffffffffffffffffffffffffffff851660808301528360a08301528260c083015298975050505050505050565b6001600160a01b038416815260208101839052606081016005831061544457615444615820565b826040830152949350505050565b6020808252825182820181905260009190848201906040850190845b818110156154935783516001600160a01b03168352928401929184019160010161546e565b50909695505050505050565b60006101408c83528b151560208401528060408401526154c18184018c615180565b91505060ff891660608301528760808301526001600160a01b03871660a08301528560c08301528460e0830152836101008301526155036101208301846151ac565b9b9a5050505050505050505050565b600060c082019050878252861515602083015285604083015284606083015283608083015261554460a08301846151ac565b979650505050505050565b8581526101c081016155856020830187805182526020810151602083015260408101516040830152606081015160608301525050565b845160a08301526020808601516001600160a01b031660c084015260408087015160e08501526060808801516101008601528651610120860152918601516101408501528501516101608401528401516101808301526155e96101a08301846151ac565b9695505050505050565b600060a0820190508682528560208301528460408301528360608301526155e960808301846151ac565b600060c08201905087825286602083015285604083015284606083015283608083015261554460a08301846151ac565b6001600160a01b03841681528260208201526060604082015260006156756060830184615180565b95945050505050565b604051601f8201601f1916810167ffffffffffffffff811182821017156156a7576156a7615836565b604052919050565b60006fffffffffffffffffffffffffffffffff8083168185168083038211156156da576156da6157f4565b01949350505050565b600082198211156156f6576156f66157f4565b500190565b60008261570a5761570a61580a565b500490565b600082821015615721576157216157f4565b500390565b60005b83811015615741578181015183820152602001615729565b838111156109a95750506000910152565b600181811c9082168061576657607f821691505b60208210811415612b1b57634e487b7160e01b600052602260045260246000fd5b60007fffffffffffffffffffffffffffffffffffffffffffffffffffffffffffffffff8214156157b9576157b96157f4565b5060010190565b600060ff821660ff8114156157d7576157d76157f4565b60010192915050565b6000826157ef576157ef61580a565b500690565b634e487b7160e01b600052601160045260246000fd5b634e487b7160e01b600052601260045260246000fd5b634e487b7160e01b600052602160045260246000fd5b634e487b7160e01b600052604160045260246000fd5b6001600160a01b038116811461586157600080fd5b50565b801515811461586157600080fdfea2646970667358221220a078ddce9fd25fdad89e398919a0398990db5b24ce330853d875a52c4d80a7d164736f6c63430008040033",
  "linkReferences": {},
  "deployedLinkReferences": {}
}