{
  "_format": "hh-sol-artifact-1",
  "contractName": "ColletiveExpenseProposalAdapterContract",
  "sourceName": "contracts/collective/adapters/CollectiveExpenseProposalAdapter.sol",
  "abi": [
    {
      "inputs": [],
      "name": "INSUFFICIENT_FUND",
      "type": "error"
    },
    {
      "inputs": [],
      "name": "UNDONE_PROPOSALS",
      "type": "error"
    },
    {
      "anonymous": false,
      "inputs": [
        {
          "indexed": false,
          "internalType": "address",
          "name": "daoAddr",
          "type": "address"
        },
        {
          "indexed": false,
          "internalType": "bytes32",
          "name": "proposalId",
          "type": "bytes32"
        }
      ],
      "name": "ProposalCreated",
      "type": "event"
    },
    {
      "anonymous": false,
      "inputs": [
        {
          "indexed": false,
          "internalType": "address",
          "name": "daoAddr",
          "type": "address"
        },
        {
          "indexed": false,
          "internalType": "bytes32",
          "name": "proposalId",
          "type": "bytes32"
        },
        {
          "indexed": false,
          "internalType": "enum ColletiveExpenseProposalAdapterContract.ProposalState",
          "name": "state",
          "type": "uint8"
        },
        {
          "indexed": false,
          "internalType": "uint256",
          "name": "voteResult",
          "type": "uint256"
        },
        {
          "indexed": false,
          "internalType": "uint256",
          "name": "allVotingWeight",
          "type": "uint256"
        },
        {
          "indexed": false,
          "internalType": "uint256",
          "name": "nbYes",
          "type": "uint256"
        },
        {
          "indexed": false,
          "internalType": "uint256",
          "name": "nbNo",
          "type": "uint256"
        }
      ],
      "name": "ProposalProcessed",
      "type": "event"
    },
    {
      "inputs": [
        {
          "internalType": "contract DaoRegistry",
          "name": "dao",
          "type": "address"
        }
      ],
      "name": "allDone",
      "outputs": [
        {
          "internalType": "bool",
          "name": "",
          "type": "bool"
        }
      ],
      "stateMutability": "view",
      "type": "function"
    },
    {
      "inputs": [
        {
          "internalType": "contract DaoRegistry",
          "name": "dao",
          "type": "address"
        },
        {
          "internalType": "bytes32",
          "name": "proposalId",
          "type": "bytes32"
        }
      ],
      "name": "processProposal",
      "outputs": [
        {
          "internalType": "bool",
          "name": "",
          "type": "bool"
        }
      ],
      "stateMutability": "nonpayable",
      "type": "function"
    },
    {
      "inputs": [
        {
          "internalType": "address",
          "name": "",
          "type": "address"
        },
        {
          "internalType": "bytes32",
          "name": "",
          "type": "bytes32"
        }
      ],
      "name": "proposals",
      "outputs": [
        {
          "internalType": "address",
          "name": "tokenAddress",
          "type": "address"
        },
        {
          "internalType": "uint256",
          "name": "amount",
          "type": "uint256"
        },
        {
          "internalType": "address",
          "name": "receiver",
          "type": "address"
        },
        {
          "internalType": "uint256",
          "name": "creationTime",
          "type": "uint256"
        },
        {
          "internalType": "uint256",
          "name": "stopVoteTime",
          "type": "uint256"
        },
        {
          "internalType": "enum ColletiveExpenseProposalAdapterContract.ProposalState",
          "name": "state",
          "type": "uint8"
        }
      ],
      "stateMutability": "view",
      "type": "function"
    },
    {
      "inputs": [
        {
          "internalType": "contract DaoRegistry",
          "name": "dao",
          "type": "address"
        },
        {
          "internalType": "address",
          "name": "token",
          "type": "address"
        },
        {
          "internalType": "address",
          "name": "receiver",
          "type": "address"
        },
        {
          "internalType": "uint256",
          "name": "amount",
          "type": "uint256"
        }
      ],
      "name": "summbitProposal",
      "outputs": [],
      "stateMutability": "nonpayable",
      "type": "function"
    }
  ],
  "bytecode": "0x608060405234801561001057600080fd5b506120c2806100206000396000f3fe608060405234801561001057600080fd5b506004361061004c5760003560e01c80635cb7527614610051578063642fc0c0146100c65780639573167d146100e9578063b990219d146100fc575b600080fd5b6100ab61005f366004611c86565b60006020818152928152604080822090935290815220805460018201546002830154600384015460048501546005909501546001600160a01b0394851695939490921692909160ff1686565b6040516100bd96959493929190611ea1565b60405180910390f35b6100d96100d4366004611cf6565b610111565b60405190151581526020016100bd565b6100d96100f7366004611d62565b610149565b61010f61010a366004611d12565b6108ea565b005b6001600160a01b0381166000908152600160205260408120819061013490610fcd565b11610140576001610143565b60005b92915050565b600082600061015782610fd7565b6001600160a01b0386166000818152602081815260408083208984529091529081902090517ff941f6910000000000000000000000000000000000000000000000000000000081529293509163f941f691906101ba908890600290600401611ee6565b60206040518083038186803b1580156101d257600080fd5b505afa1580156101e6573d6000803e3d6000fd5b505050506040513d601f19601f8201168201806040525081019061020a9190611cb1565b1561025c5760405162461bcd60e51b815260206004820152601a60248201527f70726f706f73616c20616c72656164792070726f63657373656400000000000060448201526064015b60405180910390fd5b6040516317ba7d8560e01b81527f907642cbfe4e58ddd14eaa320923fbe4c29721dd0950ae4cb3b2626e292791ae60048201526000906001600160a01b038816906317ba7d859060240160206040518083038186803b1580156102be57600080fd5b505afa1580156102d2573d6000803e3d6000fd5b505050506040513d601f19601f820116820180604052508101906102f69190611c6a565b90506001600160a01b03811661034e5760405162461bcd60e51b815260206004820152601160248201527f61646170746572206e6f7420666f756e640000000000000000000000000000006044820152606401610253565b6040517f76225e730000000000000000000000000000000000000000000000000000000081526001600160a01b0388811660048301526024820188905260009182918291908516906376225e7390604401606060405180830381600087803b1580156103b957600080fd5b505af11580156103cd573d6000803e3d6000fd5b505050506040513d601f19601f820116820180604052508101906103f19190611d74565b919450925090506000806040517f30490e91000000000000000000000000000000000000000000000000000000008152600481018c90529091506001600160a01b038c16906330490e9190602401600060405180830381600087803b15801561045957600080fd5b505af115801561046d573d6000803e3d6000fd5b506002925061047a915050565b84600581111561049a57634e487b7160e01b600052602160045260246000fd5b141561073c576040517f593e96b60000000000000000000000000000000000000000000000000000000081527f3909e87234f428ccb8748126e2c93f66a62f92a70d315fa5803dec6362be07ab60048201526000906001600160a01b038d169063593e96b69060240160206040518083038186803b15801561051b57600080fd5b505afa15801561052f573d6000803e3d6000fd5b505050506040513d601f19601f820116820180604052508101906105539190611c6a565b600188015488546040517ff59e38b700000000000000000000000000000000000000000000000000000000815261decd60048201526001600160a01b03918216602482015292935090919083169063f59e38b79060440160206040518083038186803b1580156105c257600080fd5b505afa1580156105d6573d6000803e3d6000fd5b505050506040513d601f19601f820116820180604052508101906105fa9190611dad565b10156106145760058701805460ff19166003179055610736565b6002870154875460018901546040517fe176b35e0000000000000000000000000000000000000000000000000000000081526001600160a01b039384166004820152918316602483015260448201529082169063e176b35e90606401600060405180830381600087803b15801561068a57600080fd5b505af115801561069e573d6000803e3d6000fd5b5050885460018a01546040517fc3c7645c0000000000000000000000000000000000000000000000000000000081526001600160a01b0392831660048201526024810191909152908416925063c3c7645c9150604401600060405180830381600087803b15801561070e57600080fd5b505af1158015610722573d6000803e3d6000fd5b5050505060058701805460ff191660021790555b50610810565b600384600581111561075e57634e487b7160e01b600052602160045260246000fd5b14806107895750600184600581111561078757634e487b7160e01b600052602160045260246000fd5b145b156107a25760058601805460ff19166003179055610810565b60405162461bcd60e51b815260206004820152602260248201527f70726f706f73616c20686173206e6f74206265656e20766f746564206f6e207960448201527f65740000000000000000000000000000000000000000000000000000000000006064820152608401610253565b6001600160a01b038b166000908152600160205260409020610832908b6112a2565b1561085b576001600160a01b038b166000908152600160205260409020610859908b6112bd565b505b7ff3d22b9e73b9947a3edd70bd6279f80eda44c15f3cc8af46dc57bfb8191edd2b8b8b8860050160009054906101000a900460ff168487878a60058111156108b357634e487b7160e01b600052602160045260246000fd5b6040516108c69796959493929190611e47565b60405180910390a1600198505050505050506108e282826112c9565b505092915050565b836108f581336112d8565b84600061090182610fd7565b905061090c876113b6565b6040517f593e96b60000000000000000000000000000000000000000000000000000000081527f3909e87234f428ccb8748126e2c93f66a62f92a70d315fa5803dec6362be07ab60048201526000906001600160a01b0389169063593e96b69060240160206040518083038186803b15801561098757600080fd5b505afa15801561099b573d6000803e3d6000fd5b505050506040513d601f19601f820116820180604052508101906109bf9190611c6a565b6040517ff59e38b700000000000000000000000000000000000000000000000000000000815261decd60048201526001600160a01b038981166024830152919250869183169063f59e38b79060440160206040518083038186803b158015610a2657600080fd5b505afa158015610a3a573d6000803e3d6000fd5b505050506040513d601f19601f82011682018060405250810190610a5e9190611dad565b1015610a96576040517f5cabbf5000000000000000000000000000000000000000000000000000000000815260040160405180910390fd5b876001600160a01b031663e0966bd56040518163ffffffff1660e01b8152600401600060405180830381600087803b158015610ad157600080fd5b505af1158015610ae5573d6000803e3d6000fd5b505050506000610b908960c01b610b6b8b6001600160a01b0316632116046f6040518163ffffffff1660e01b815260040160206040518083038186803b158015610b2e57600080fd5b505afa158015610b42573d6000803e3d6000fd5b505050506040513d601f19601f82011682018060405250810190610b669190611dad565b611866565b604051602001610b7c929190611dd9565b6040516020818303038152906040526119bc565b90506040518060c00160405280896001600160a01b03168152602001878152602001886001600160a01b031681526020014281526020018a6001600160a01b0316639283ae3a7f9876c0f0505bfb2b1c38d3bbd25ba13159172cd0868972d76927723f5a9480fc6040518263ffffffff1660e01b8152600401610c1591815260200190565b60206040518083038186803b158015610c2d57600080fd5b505afa158015610c41573d6000803e3d6000fd5b505050506040513d601f19601f82011682018060405250810190610c659190611dad565b610c6f9042611f72565b8152602001600090526001600160a01b03808b16600090815260208181526040808320868452825291829020845181549085167fffffffffffffffffffffffff000000000000000000000000000000000000000091821617825591850151600180830191909155928501516002820180549190951692169190911790925560608301516003808401919091556080840151600484015560a08401516005840180549193909260ff19909216918490811115610d3a57634e487b7160e01b600052602160045260246000fd5b0217905550506040517fb73dc389000000000000000000000000000000000000000000000000000000008152600481018390526001600160a01b038b16915063b73dc38990602401600060405180830381600087803b158015610d9c57600080fd5b505af1158015610db0573d6000803e3d6000fd5b50506040516317ba7d8560e01b81527f907642cbfe4e58ddd14eaa320923fbe4c29721dd0950ae4cb3b2626e292791ae6004820152600092506001600160a01b038c1691506317ba7d859060240160206040518083038186803b158015610e1657600080fd5b505afa158015610e2a573d6000803e3d6000fd5b505050506040513d601f19601f82011682018060405250810190610e4e9190611c6a565b604080516020810182526000815290517f2b0974d00000000000000000000000000000000000000000000000000000000081529192506001600160a01b03831691632b0974d091610ea5918e918791600401611f0a565b600060405180830381600087803b158015610ebf57600080fd5b505af1158015610ed3573d6000803e3d6000fd5b50506040517f815a2bf4000000000000000000000000000000000000000000000000000000008152600481018590526001600160a01b0384811660248301528d16925063815a2bf49150604401600060405180830381600087803b158015610f3a57600080fd5b505af1158015610f4e573d6000803e3d6000fd5b5050506001600160a01b038b166000908152600160205260409020610f749150836119d8565b50604080516001600160a01b038c168152602081018490527ffe22c13d0cc04eef2a813c30901da5f8cd64f5ba91866fccce71c606ce464874910160405180910390a1505050610fc482826112c9565b50505050505050565b6000610143825490565b6040805160808101825260008082526020820181905291810182905260608101919091525a81600001818152505043826001600160a01b031663b21634826040518163ffffffff1660e01b815260040160206040518083038186803b15801561103f57600080fd5b505afa158015611053573d6000803e3d6000fd5b505050506040513d601f19601f820116820180604052508101906110779190611dad565b14156110c55760405162461bcd60e51b815260206004820152601060248201527f7265656e7472616e6379206775617264000000000000000000000000000000006044820152606401610253565b816001600160a01b03166310fdb0a26040518163ffffffff1660e01b8152600401600060405180830381600087803b15801561110057600080fd5b505af1158015611114573d6000803e3d6000fd5b50506040517f72c6838f0000000000000000000000000000000000000000000000000000000081527f1f2fd42ad6a6cacd573c4b212beb7a4e2499ad45d742a65337097f130e71daff6004820152600092506001600160a01b03851691506372c6838f9060240160206040518083038186803b15801561119357600080fd5b505afa1580156111a7573d6000803e3d6000fd5b505050506040513d601f19601f820116820180604052508101906111cb9190611c6a565b90506001600160a01b0381166111e7576000602083015261129c565b6001600160a01b038181166060840181905283516040517f43a8a3f1000000000000000000000000000000000000000000000000000000008152928616600484015260248301526000918291906343a8a3f190604401604080518083038186803b15801561125457600080fd5b505afa158015611268573d6000803e3d6000fd5b505050506040513d601f19601f8201168201806040525081019061128c9190611ccb565b9015156020860152604085015250505b50919050565b600081815260018301602052604081205415155b9392505050565b60006112b683836119e4565b6112d4828233611b01565b5050565b6040517fa230c5240000000000000000000000000000000000000000000000000000000081526001600160a01b03828116600483015283169063a230c5249060240160206040518083038186803b15801561133257600080fd5b505afa158015611346573d6000803e3d6000fd5b505050506040513d601f19601f8201168201806040525081019061136a9190611cb1565b6112d45760405162461bcd60e51b815260206004820152600c60248201527f6f6e6c79476f7665726e6f7200000000000000000000000000000000000000006044820152606401610253565b6040516317ba7d8560e01b81527f72894213a5c7f56b36b2947fa6ea18963d6bb1a68746b46d7f552cca76e1a7a860048201526000906001600160a01b038316906317ba7d859060240160206040518083038186803b15801561141857600080fd5b505afa15801561142c573d6000803e3d6000fd5b505050506040513d601f19601f820116820180604052508101906114509190611c6a565b6040516317ba7d8560e01b81527f3a06648a49edffe95b8384794dfe9cf3ab34782fab0130b4c91bfd53f3407e6b60048201529091506000906001600160a01b038416906317ba7d859060240160206040518083038186803b1580156114b557600080fd5b505afa1580156114c9573d6000803e3d6000fd5b505050506040513d601f19601f820116820180604052508101906114ed9190611c6a565b6040516317ba7d8560e01b81527f1a4f1390baec30049008138e650571a3c4374eba88116bc89dc192f2f9295efe60048201529091506000906001600160a01b038516906317ba7d859060240160206040518083038186803b15801561155257600080fd5b505afa158015611566573d6000803e3d6000fd5b505050506040513d601f19601f8201168201806040525081019061158a9190611c6a565b6040516317ba7d8560e01b81527f3b4de3360220463b2e1b681516ac7919070009f0544e8465d80dc511828dae5b60048201529091506000906001600160a01b038616906317ba7d859060240160206040518083038186803b1580156115ef57600080fd5b505afa158015611603573d6000803e3d6000fd5b505050506040513d601f19601f820116820180604052508101906116279190611c6a565b604051630190bf0360e61b81526001600160a01b0387811660048301529192509085169063642fc0c09060240160206040518083038186803b15801561166c57600080fd5b505afa158015611680573d6000803e3d6000fd5b505050506040513d601f19601f820116820180604052508101906116a49190611cb1565b15806117265750604051630190bf0360e61b81526001600160a01b03868116600483015284169063642fc0c09060240160206040518083038186803b1580156116ec57600080fd5b505afa158015611700573d6000803e3d6000fd5b505050506040513d601f19601f820116820180604052508101906117249190611cb1565b155b806117a75750604051630190bf0360e61b81526001600160a01b03868116600483015283169063642fc0c09060240160206040518083038186803b15801561176d57600080fd5b505afa158015611781573d6000803e3d6000fd5b505050506040513d601f19601f820116820180604052508101906117a59190611cb1565b155b806118285750604051630190bf0360e61b81526001600160a01b03868116600483015282169063642fc0c09060240160206040518083038186803b1580156117ee57600080fd5b505afa158015611802573d6000803e3d6000fd5b505050506040513d601f19601f820116820180604052508101906118269190611cb1565b155b1561185f576040517fabeb532d00000000000000000000000000000000000000000000000000000000815260040160405180910390fd5b5050505050565b6060816118a657505060408051808201909152600181527f3000000000000000000000000000000000000000000000000000000000000000602082015290565b8160005b81156118d057806118ba81611fe5565b91506118c99050600a83611f8a565b91506118aa565b60008167ffffffffffffffff8111156118f957634e487b7160e01b600052604160045260246000fd5b6040519080825280601f01601f191660200182016040528015611923576020820181803683370190505b5090505b84156119b457611938600183611f9e565b9150611945600a8661201e565b611950906030611f72565b60f81b81838151811061197357634e487b7160e01b600052603260045260246000fd5b60200101907effffffffffffffffffffffffffffffffffffffffffffffffffffffffffffff1916908160001a9053506119ad600a86611f8a565b9450611927565b949350505050565b60008151600014156119d057506000919050565b506020015190565b60006112b68383611c06565b60008181526001830160205260408120548015611af7576000611a08600183611f9e565b8554909150600090611a1c90600190611f9e565b9050818114611a9d576000866000018281548110611a4a57634e487b7160e01b600052603260045260246000fd5b9060005260206000200154905080876000018481548110611a7b57634e487b7160e01b600052603260045260246000fd5b6000918252602080832090910192909255918252600188019052604090208390555b8554869080611abc57634e487b7160e01b600052603160045260246000fd5b600190038181906000526020600020016000905590558560010160008681526020019081526020016000206000905560019350505050610143565b6000915050610143565b816020015115611bb75781606001516001600160a01b0316635e5eb01384835a8651611b2d9190611f9e565b60408088015190517fffffffff0000000000000000000000000000000000000000000000000000000060e087901b1681526001600160a01b03948516600482015293909216602484015260448301526064820152608401600060405180830381600087803b158015611b9e57600080fd5b505af1158015611bb2573d6000803e3d6000fd5b505050505b826001600160a01b031663d4f7af436040518163ffffffff1660e01b8152600401600060405180830381600087803b158015611bf257600080fd5b505af1158015610fc4573d6000803e3d6000fd5b6000818152600183016020526040812054611c4d57508154600181810184556000848152602080822090930184905584548482528286019093526040902091909155610143565b506000610143565b80518015158114611c6557600080fd5b919050565b600060208284031215611c7b578081fd5b81516112b681612074565b60008060408385031215611c98578081fd5b8235611ca381612074565b946020939093013593505050565b600060208284031215611cc2578081fd5b6112b682611c55565b60008060408385031215611cdd578182fd5b611ce683611c55565b9150602083015190509250929050565b600060208284031215611d07578081fd5b81356112b681612074565b60008060008060808587031215611d27578182fd5b8435611d3281612074565b93506020850135611d4281612074565b92506040850135611d5281612074565b9396929550929360600135925050565b60008060408385031215611c98578182fd5b600080600060608486031215611d88578283fd5b835160068110611d96578384fd5b602085015160409095015190969495509392505050565b600060208284031215611dbe578081fd5b5051919050565b60048110611dd557611dd561205e565b9052565b7fffffffffffffffff000000000000000000000000000000000000000000000000831681527f457870656e736523000000000000000000000000000000000000000000000000600882015260008251611e39816010850160208701611fb5565b919091016010019392505050565b6001600160a01b03881681526020810187905260e08101611e6b6040830188611dc5565b6fffffffffffffffffffffffffffffffff861660608301528460808301528360a08301528260c083015298975050505050505050565b6001600160a01b0387811682526020820187905285166040820152606081018490526080810183905260c08101611edb60a0830184611dc5565b979650505050505050565b8281526040810160038310611efd57611efd61205e565b8260208301529392505050565b6001600160a01b03841681528260208201526060604082015260008251806060840152611f3e816080850160208701611fb5565b601f017fffffffffffffffffffffffffffffffffffffffffffffffffffffffffffffffe01691909101608001949350505050565b60008219821115611f8557611f85612032565b500190565b600082611f9957611f99612048565b500490565b600082821015611fb057611fb0612032565b500390565b60005b83811015611fd0578181015183820152602001611fb8565b83811115611fdf576000848401525b50505050565b60007fffffffffffffffffffffffffffffffffffffffffffffffffffffffffffffffff82141561201757612017612032565b5060010190565b60008261202d5761202d612048565b500690565b634e487b7160e01b600052601160045260246000fd5b634e487b7160e01b600052601260045260246000fd5b634e487b7160e01b600052602160045260246000fd5b6001600160a01b038116811461208957600080fd5b5056fea26469706673582212203d560c2be636d766948e86a76b5d40960553e2301c3e9bce59715d5d43246c1364736f6c63430008040033",
  "linkReferences": {},
  "deployedLinkReferences": {}
}