{
  "_format": "hh-sol-artifact-1",
  "contractName": "FlexVotingContract",
  "sourceName": "contracts/flex/adatpers/FlexVoting.sol",
  "abi": [
    {
      "anonymous": false,
      "inputs": [
        {
          "indexed": false,
          "internalType": "address",
          "name": "daoAddr",
          "type": "address"
        },
        {
          "indexed": false,
          "internalType": "bytes32",
          "name": "proposalId",
          "type": "bytes32"
        },
        {
          "indexed": false,
          "internalType": "uint256",
          "name": "votingTime",
          "type": "uint256"
        },
        {
          "indexed": false,
          "internalType": "uint256",
          "name": "voteStartTime",
          "type": "uint256"
        },
        {
          "indexed": false,
          "internalType": "uint256",
          "name": "voteStopTime",
          "type": "uint256"
        },
        {
          "indexed": false,
          "internalType": "address",
          "name": "voter",
          "type": "address"
        },
        {
          "indexed": false,
          "internalType": "uint256",
          "name": "voteValue",
          "type": "uint256"
        },
        {
          "indexed": false,
          "internalType": "uint256",
          "name": "nbYes",
          "type": "uint256"
        },
        {
          "indexed": false,
          "internalType": "uint256",
          "name": "nbNo",
          "type": "uint256"
        },
        {
          "indexed": false,
          "internalType": "uint256",
          "name": "currentQuorum",
          "type": "uint256"
        },
        {
          "indexed": false,
          "internalType": "uint256",
          "name": "currentSupport",
          "type": "uint256"
        }
      ],
      "name": "SubmitVote",
      "type": "event"
    },
    {
      "inputs": [],
      "name": "ADAPTER_NAME",
      "outputs": [
        {
          "internalType": "string",
          "name": "",
          "type": "string"
        }
      ],
      "stateMutability": "view",
      "type": "function"
    },
    {
      "inputs": [
        {
          "internalType": "contract DaoRegistry",
          "name": "dao",
          "type": "address"
        },
        {
          "internalType": "bytes32",
          "name": "proposalId",
          "type": "bytes32"
        },
        {
          "internalType": "address",
          "name": "voterAddr",
          "type": "address"
        }
      ],
      "name": "checkIfVoted",
      "outputs": [
        {
          "internalType": "bool",
          "name": "",
          "type": "bool"
        }
      ],
      "stateMutability": "view",
      "type": "function"
    },
    {
      "inputs": [],
      "name": "getAdapterName",
      "outputs": [
        {
          "internalType": "string",
          "name": "",
          "type": "string"
        }
      ],
      "stateMutability": "pure",
      "type": "function"
    },
    {
      "inputs": [
        {
          "internalType": "contract DaoRegistry",
          "name": "dao",
          "type": "address"
        }
      ],
      "name": "getAllGovernorWeight",
      "outputs": [
        {
          "internalType": "uint128",
          "name": "",
          "type": "uint128"
        }
      ],
      "stateMutability": "view",
      "type": "function"
    },
    {
      "inputs": [
        {
          "internalType": "contract DaoRegistry",
          "name": "dao",
          "type": "address"
        },
        {
          "internalType": "bytes32",
          "name": "proposalId",
          "type": "bytes32"
        }
      ],
      "name": "getAllGovernorWeightByProposalId",
      "outputs": [
        {
          "internalType": "uint128",
          "name": "",
          "type": "uint128"
        }
      ],
      "stateMutability": "view",
      "type": "function"
    },
    {
      "inputs": [
        {
          "internalType": "contract DaoRegistry",
          "name": "dao",
          "type": "address"
        },
        {
          "internalType": "uint256",
          "name": "alloc",
          "type": "uint256"
        }
      ],
      "name": "getFlexVotingWeightToBeAllocated",
      "outputs": [
        {
          "internalType": "uint128",
          "name": "",
          "type": "uint128"
        }
      ],
      "stateMutability": "view",
      "type": "function"
    },
    {
      "inputs": [
        {
          "internalType": "contract DaoRegistry",
          "name": "",
          "type": "address"
        },
        {
          "internalType": "address",
          "name": "",
          "type": "address"
        },
        {
          "internalType": "bytes",
          "name": "",
          "type": "bytes"
        },
        {
          "internalType": "address",
          "name": "sender",
          "type": "address"
        }
      ],
      "name": "getSenderAddress",
      "outputs": [
        {
          "internalType": "address",
          "name": "",
          "type": "address"
        }
      ],
      "stateMutability": "pure",
      "type": "function"
    },
    {
      "inputs": [
        {
          "internalType": "contract DaoRegistry",
          "name": "dao",
          "type": "address"
        },
        {
          "internalType": "address",
          "name": "account",
          "type": "address"
        }
      ],
      "name": "getVotingWeight",
      "outputs": [
        {
          "internalType": "uint128",
          "name": "",
          "type": "uint128"
        }
      ],
      "stateMutability": "view",
      "type": "function"
    },
    {
      "inputs": [
        {
          "internalType": "contract DaoRegistry",
          "name": "dao",
          "type": "address"
        },
        {
          "internalType": "address",
          "name": "_addr",
          "type": "address"
        }
      ],
      "name": "isActiveMember",
      "outputs": [
        {
          "internalType": "bool",
          "name": "",
          "type": "bool"
        }
      ],
      "stateMutability": "view",
      "type": "function"
    },
    {
      "inputs": [
        {
          "internalType": "contract DaoRegistry",
          "name": "dao",
          "type": "address"
        },
        {
          "internalType": "bytes32",
          "name": "proposalId",
          "type": "bytes32"
        },
        {
          "internalType": "bytes",
          "name": "",
          "type": "bytes"
        }
      ],
      "name": "startNewVotingForProposal",
      "outputs": [],
      "stateMutability": "nonpayable",
      "type": "function"
    },
    {
      "inputs": [
        {
          "internalType": "contract DaoRegistry",
          "name": "dao",
          "type": "address"
        },
        {
          "internalType": "bytes32",
          "name": "proposalId",
          "type": "bytes32"
        },
        {
          "internalType": "uint256",
          "name": "voteValue",
          "type": "uint256"
        }
      ],
      "name": "submitVote",
      "outputs": [],
      "stateMutability": "nonpayable",
      "type": "function"
    },
    {
      "inputs": [
        {
          "internalType": "contract DaoRegistry",
          "name": "dao",
          "type": "address"
        },
        {
          "internalType": "bytes32",
          "name": "proposalId",
          "type": "bytes32"
        }
      ],
      "name": "voteResult",
      "outputs": [
        {
          "internalType": "enum IFlexVoting.VotingState",
          "name": "state",
          "type": "uint8"
        },
        {
          "internalType": "uint256",
          "name": "nbYes",
          "type": "uint256"
        },
        {
          "internalType": "uint256",
          "name": "nbNo",
          "type": "uint256"
        }
      ],
      "stateMutability": "view",
      "type": "function"
    },
    {
      "inputs": [
        {
          "internalType": "address",
          "name": "",
          "type": "address"
        },
        {
          "internalType": "bytes32",
          "name": "",
          "type": "bytes32"
        },
        {
          "internalType": "address",
          "name": "",
          "type": "address"
        }
      ],
      "name": "voteWeights",
      "outputs": [
        {
          "internalType": "uint128",
          "name": "",
          "type": "uint128"
        }
      ],
      "stateMutability": "view",
      "type": "function"
    },
    {
      "inputs": [
        {
          "internalType": "address",
          "name": "",
          "type": "address"
        },
        {
          "internalType": "bytes32",
          "name": "",
          "type": "bytes32"
        }
      ],
      "name": "votes",
      "outputs": [
        {
          "internalType": "uint256",
          "name": "nbYes",
          "type": "uint256"
        },
        {
          "internalType": "uint256",
          "name": "nbNo",
          "type": "uint256"
        },
        {
          "internalType": "uint256",
          "name": "startingTime",
          "type": "uint256"
        },
        {
          "internalType": "uint256",
          "name": "stopTime",
          "type": "uint256"
        }
      ],
      "stateMutability": "view",
      "type": "function"
    }
  ],
  "bytecode": "0x608060405234801561001057600080fd5b50612fa9806100206000396000f3fe608060405234801561001057600080fd5b50600436106100ea5760003560e01c806376225e731161008c5780638ecf7720116100665780638ecf77201461029757806391d2fd53146102aa578063966917d0146102ec578063f2b95da01461031957600080fd5b806376225e73146102265780637fd3cd8b1461024857806387b9e9591461028457600080fd5b806324a2cceb116100c857806324a2cceb146101c85780632b0974d0146101eb578063325b72f214610200578063669fd0ca1461021357600080fd5b80631a8f51e3146100ef5780631db5ade8146101285780631f86f5b314610186575b600080fd5b6101026100fd366004612c24565b61032c565b6040516fffffffffffffffffffffffffffffffff90911681526020015b60405180910390f35b6101666101363660046129a8565b60016020818152600093845260408085209091529183529120805491810154600282015460039092015490919084565b60408051948552602085019390935291830152606082015260800161011f565b60408051808201909152601281527f466c6578566f74696e67436f6e7472616374000000000000000000000000000060208201525b60405161011f9190612db5565b6101db6101d6366004612c36565b610341565b604051901515815260200161011f565b6101fe6101f9366004612c4a565b610390565b005b6101fe61020e366004612cce565b610552565b610102610221366004612c24565b610de7565b610239610234366004612c24565b610dfc565b60405161011f93929190612d8d565b6101bb6040518060400160405280601281526020017f466c6578566f74696e67436f6e7472616374000000000000000000000000000081525081565b610102610292366004612b29565b6113a8565b6101db6102a5366004612b29565b6113b4565b6101026102b83660046129d3565b600060208181529381526040808220855292815282812090935282529020546fffffffffffffffffffffffffffffffff1681565b6103016102fa366004612b61565b9392505050565b6040516001600160a01b03909116815260200161011f565b610102610327366004612b0d565b61144a565b60006103388383611456565b90505b92915050565b6001600160a01b03808416600090815260016020908152604080832086845282528083209385168352600484019091528120549091906103855760009150506102fa565b506001949350505050565b6040517f68c18beb00000000000000000000000000000000000000000000000000000000815233600482015284906001600160a01b038216906368c18beb9060240160206040518083038186803b1580156103ea57600080fd5b505afa1580156103fe573d6000803e3d6000fd5b505050506040513d601f19601f820116820180604052508101906104229190612ac8565b80610431575061043181611595565b6104825760405162461bcd60e51b815260206004820152600b60248201527f6f6e6c794164617074657200000000000000000000000000000000000000000060448201526064015b60405180910390fd5b6001600160a01b0385166000818152600160209081526040808320888452909152908190204260028201559051634941d71d60e11b81527f9876c0f0505bfb2b1c38d3bbd25ba13159172cd0868972d76927723f5a9480fc6004820152909190639283ae3a9060240160206040518083038186803b15801561050357600080fd5b505afa158015610517573d6000803e3d6000fd5b505050506040513d601f19601f8201168201806040525081019061053b9190612d51565b6105459042612e6d565b6003909101555050505050565b8261055d81336117ce565b83600061056982611828565b6040517ff941f6910000000000000000000000000000000000000000000000000000000081529091506001600160a01b0387169063f941f691906105b4908890600190600401612d69565b60206040518083038186803b1580156105cc57600080fd5b505afa1580156105e0573d6000803e3d6000fd5b505050506040513d601f19601f820116820180604052508101906106049190612ac8565b6106765760405162461bcd60e51b815260206004820152602760248201527f7468652070726f706f73616c20686173206e6f74206265656e2073706f6e736f60448201527f72656420796574000000000000000000000000000000000000000000000000006064820152608401610479565b6040517ff941f6910000000000000000000000000000000000000000000000000000000081526001600160a01b0387169063f941f691906106be908890600290600401612d69565b60206040518083038186803b1580156106d657600080fd5b505afa1580156106ea573d6000803e3d6000fd5b505050506040513d601f19601f8201168201806040525081019061070e9190612ac8565b156107815760405162461bcd60e51b815260206004820152602760248201527f7468652070726f706f73616c2068617320616c7265616479206265656e20707260448201527f6f636573736564000000000000000000000000000000000000000000000000006064820152608401610479565b6003841080156107915750600084115b6108035760405162461bcd60e51b815260206004820152602b60248201527f6f6e6c79207965732028312920616e64206e6f202832292061726520706f737360448201527f69626c652076616c7565730000000000000000000000000000000000000000006064820152608401610479565b6001600160a01b03861660009081526001602090815260408083208884529091529020600281015461089d5760405162461bcd60e51b815260206004820152603260248201527f746869732070726f706f73616c496420686173206e6f20766f746520676f696e60448201527f67206f6e20617420746865206d6f6d656e7400000000000000000000000000006064820152608401610479565b806003015442106108f05760405162461bcd60e51b815260206004820152601660248201527f766f74652068617320616c726561647920656e646564000000000000000000006044820152606401610479565b6040517fc89bb8ba0000000000000000000000000000000000000000000000000000000081523360048201526000906001600160a01b0389169063c89bb8ba9060240160206040518083038186803b15801561094b57600080fd5b505afa15801561095f573d6000803e3d6000fd5b505050506040513d601f19601f82011682018060405250810190610983919061298c565b6001600160a01b0381166000908152600484016020526040902054909150156109ee5760405162461bcd60e51b815260206004820152601860248201527f6d656d6265722068617320616c726561647920766f74656400000000000000006044820152606401610479565b60006109fa8933611af3565b6001600160a01b038a81166000908152602081815260408083208d84528252808320338452825280832080547fffffffffffffffffffffffffffffffff00000000000000000000000000000000166fffffffffffffffffffffffffffffffff871617905592861682526004870190522088905590506001871415610aa957806fffffffffffffffffffffffffffffffff16836000016000828254610a9e9190612e6d565b90915550610ade9050565b8660021415610ade57806fffffffffffffffffffffffffffffffff16836001016000828254610ad89190612e6d565b90915550505b604051634941d71d60e11b81527f730faccfe82f70711a34ce5202c6e1b1f79f421c16fcef745a9d92d06a7c0d4c60048201526000906001600160a01b038b1690639283ae3a9060240160206040518083038186803b158015610b4057600080fd5b505afa158015610b54573d6000803e3d6000fd5b505050506040513d601f19601f82011682018060405250810190610b789190612d51565b600114610bf057610b888a61144a565b6fffffffffffffffffffffffffffffffff1615610bad57610ba88a61144a565b610bb0565b60015b6fffffffffffffffffffffffffffffffff1684600101548560000154610bd69190612e6d565b610be1906064612ea5565b610beb9190612e85565b610c01565b60018401548454610c019190612e6d565b604051634941d71d60e11b81527fe815a3c082eed7f7f7baab546f11a8718682c0eb3017b099ddc301a92f6673e360048201529091506000906001600160a01b038c1690639283ae3a9060240160206040518083038186803b158015610c6657600080fd5b505afa158015610c7a573d6000803e3d6000fd5b505050506040513d601f19601f82011682018060405250810190610c9e9190612d51565b600114610cf05760018501548554610cb69190612e6d565b15610cd15760018501548554610ccc9190612e6d565b610cd4565b60015b8554610ce1906064612ea5565b610ceb9190612e85565b610d10565b6001850154855410610d0d5760018501548554610ceb9190612ee2565b60005b90507f702c2a29993fe1e5ce4c366928ffc1d53e245b20536bf8192399abb82b66c7108b8b4288600201548960030154338f8c600001548d600101548b8b604051610dc89b9a999897969594939291906000610160820190506001600160a01b03808e1683528c60208401528b60408401528a606084015289608084015280891660a0840152508660c08301528560e08301528461010083015283610120830152826101408301529c9b505050505050505050505050565b60405180910390a15050505050610ddf8282612367565b505050505050565b600080610df48484612372565b949350505050565b6001600160a01b03821660009081526001602090815260408083208484529091528120600281015482918291610e3d576000806000935093509350506113a1565b8060030154421015610e5a576004600080935093509350506113a1565b604051634941d71d60e11b81527fe815a3c082eed7f7f7baab546f11a8718682c0eb3017b099ddc301a92f6673e360048201526000906001600160a01b03881690639283ae3a9060240160206040518083038186803b158015610ebc57600080fd5b505afa158015610ed0573d6000803e3d6000fd5b505050506040513d601f19601f82011682018060405250810190610ef49190612d51565b604051634941d71d60e11b81527f730faccfe82f70711a34ce5202c6e1b1f79f421c16fcef745a9d92d06a7c0d4c60048201529091506000906001600160a01b03891690639283ae3a9060240160206040518083038186803b158015610f5957600080fd5b505afa158015610f6d573d6000803e3d6000fd5b505050506040513d601f19601f82011682018060405250810190610f919190612d51565b90506000610f9e8961144a565b90508161109a57604051634941d71d60e11b81527f0324de13a5a6e302ddb95a9fdf81cc736fc8acee2abe558970daac27395904e760048201526000906064906001600160a01b038c1690639283ae3a9060240160206040518083038186803b15801561100a57600080fd5b505afa15801561101e573d6000803e3d6000fd5b505050506040513d601f19601f820116820180604052508101906110429190612d51565b61105e906fffffffffffffffffffffffffffffffff8516612ea5565b6110689190612e85565b6001860154865491925001818111611097576003866000015487600101549850985098505050505050506113a1565b50505b816001141561117457600184015484546000916110b691612e6d565b604051634941d71d60e11b81527f0324de13a5a6e302ddb95a9fdf81cc736fc8acee2abe558970daac27395904e760048201529091506001600160a01b038b1690639283ae3a9060240160206040518083038186803b15801561111857600080fd5b505afa15801561112c573d6000803e3d6000fd5b505050506040513d601f19601f820116820180604052508101906111509190612d51565b81116111725760038560000154866001015497509750975050505050506113a1565b505b82611299576001840154845460009161118c91612e6d565b604051634941d71d60e11b81527fb4c601c38beae7eebb719eda3438f59fcbfd4c6dd7d38c00665b6fd5b432df3260048201529091506000906064906001600160a01b038d1690639283ae3a9060240160206040518083038186803b1580156111f457600080fd5b505afa158015611208573d6000803e3d6000fd5b505050506040513d601f19601f8201168201806040525081019061122c9190612d51565b6112369084612ea5565b6112409190612e85565b90508015801561124f57508554155b15611271576001866000015487600101549850985098505050505050506113a1565b85548110611296576003866000015487600101549850985098505050505050506113a1565b50505b826001141561138a5760008460010154856000015410156112bb5760006112cc565b600185015485546112cc9190612ee2565b604051634941d71d60e11b81527fb4c601c38beae7eebb719eda3438f59fcbfd4c6dd7d38c00665b6fd5b432df3260048201529091506001600160a01b038b1690639283ae3a9060240160206040518083038186803b15801561132e57600080fd5b505afa158015611342573d6000803e3d6000fd5b505050506040513d601f19601f820116820180604052508101906113669190612d51565b81116113885760038560000154866001015497509750975050505050506113a1565b505b600284600001548560010154965096509650505050505b9250925092565b60006103388383611af3565b6040517fa230c5240000000000000000000000000000000000000000000000000000000081526001600160a01b0382811660048301526000919084169063a230c5249060240160206040518083038186803b15801561141257600080fd5b505afa158015611426573d6000803e3d6000fd5b505050506040513d601f19601f820116820180604052508101906103389190612ac8565b6000806102fa8361264b565b604051634941d71d60e11b81527f18ef0b57fe939edb640a200fdf533493bd8f26a274151543a109b64c857e20f3600482015260009081906001600160a01b03851690639283ae3a9060240160206040518083038186803b1580156114ba57600080fd5b505afa1580156114ce573d6000803e3d6000fd5b505050506040513d601f19601f820116820180604052508101906114f29190612d51565b905080611502578291505061033b565b8060011415611565576000831161151d57600091505061033b565b677fffffffffffffff831061153657603291505061033b565b600061155161154c611547866126b6565b6126d4565b6127cb565b67ffffffffffffffff16925061033b915050565b806002141561158b576000831161157d576000611580565b60015b60ff1691505061033b565b600091505061033b565b600080826001600160a01b031663c19d93fb6040518163ffffffff1660e01b815260040160206040518083038186803b1580156115d157600080fd5b505afa1580156115e5573d6000803e3d6000fd5b505050506040513d601f19601f820116820180604052508101906116099190612d02565b600181111561162857634e487b7160e01b600052602160045260246000fd5b14801561033b5750816001600160a01b031663c67143666040518163ffffffff1660e01b815260040160206040518083038186803b15801561166957600080fd5b505afa15801561167d573d6000803e3d6000fd5b505050506040513d601f19601f820116820180604052508101906116a19190612d51565b158061173857506040517fa230c5240000000000000000000000000000000000000000000000000000000081523360048201526001600160a01b0383169063a230c5249060240160206040518083038186803b15801561170057600080fd5b505afa158015611714573d6000803e3d6000fd5b505050506040513d601f19601f820116820180604052508101906117389190612ac8565b8061033b57506040517f68c18beb0000000000000000000000000000000000000000000000000000000081523360048201526001600160a01b038316906368c18beb9060240160206040518083038186803b15801561179657600080fd5b505afa1580156117aa573d6000803e3d6000fd5b505050506040513d601f19601f8201168201806040525081019061033b9190612ac8565b6117d882826113b4565b6118245760405162461bcd60e51b815260206004820152600c60248201527f6f6e6c79476f7665726e6f7200000000000000000000000000000000000000006044820152606401610479565b5050565b6040805160808101825260008082526020820181905291810182905260608101919091525a81600001818152505043826001600160a01b031663b21634826040518163ffffffff1660e01b815260040160206040518083038186803b15801561189057600080fd5b505afa1580156118a4573d6000803e3d6000fd5b505050506040513d601f19601f820116820180604052508101906118c89190612d51565b14156119165760405162461bcd60e51b815260206004820152601060248201527f7265656e7472616e6379206775617264000000000000000000000000000000006044820152606401610479565b816001600160a01b03166310fdb0a26040518163ffffffff1660e01b8152600401600060405180830381600087803b15801561195157600080fd5b505af1158015611965573d6000803e3d6000fd5b50506040517f72c6838f0000000000000000000000000000000000000000000000000000000081527f1f2fd42ad6a6cacd573c4b212beb7a4e2499ad45d742a65337097f130e71daff6004820152600092506001600160a01b03851691506372c6838f9060240160206040518083038186803b1580156119e457600080fd5b505afa1580156119f8573d6000803e3d6000fd5b505050506040513d601f19601f82011682018060405250810190611a1c919061298c565b90506001600160a01b038116611a385760006020830152611aed565b6001600160a01b038181166060840181905283516040517f43a8a3f1000000000000000000000000000000000000000000000000000000008152928616600484015260248301526000918291906343a8a3f190604401604080518083038186803b158015611aa557600080fd5b505afa158015611ab9573d6000803e3d6000fd5b505050506040513d601f19601f82011682018060405250810190611add9190612ae2565b9015156020860152604085015250505b50919050565b604051634941d71d60e11b81527f75b7d343967750d1f6c15979b7559cea8be22ff1a06a51681b9cbef0d2fff4fe600482015260009081906001600160a01b03851690639283ae3a9060240160206040518083038186803b158015611b5757600080fd5b505afa158015611b6b573d6000803e3d6000fd5b505050506040513d601f19601f82011682018060405250810190611b8f9190612d51565b604051634941d71d60e11b81527f18ef0b57fe939edb640a200fdf533493bd8f26a274151543a109b64c857e20f360048201529091506000906001600160a01b03861690639283ae3a9060240160206040518083038186803b158015611bf457600080fd5b505afa158015611c08573d6000803e3d6000fd5b505050506040513d601f19601f82011682018060405250810190611c2c9190612d51565b6040517f17ba7d850000000000000000000000000000000000000000000000000000000081527f37cbe06c1044f98864ea25736326bc1d488e24e5e23781ea2ad64c4069cb9e6e60048201529091506000906001600160a01b038716906317ba7d859060240160206040518083038186803b158015611caa57600080fd5b505afa158015611cbe573d6000803e3d6000fd5b505050506040513d601f19601f82011682018060405250810190611ce2919061298c565b604051634941d71d60e11b81527f77b1580d1632c74a32483c26a7156260a89ae4138b020ea7d09b0dcf24f1ea2460048201529091506000906001600160a01b03881690639283ae3a9060240160206040518083038186803b158015611d4757600080fd5b505afa158015611d5b573d6000803e3d6000fd5b505050506040513d601f19601f82011682018060405250810190611d7f9190612d51565b6040517ffd310d290000000000000000000000000000000000000000000000000000000081527fb5a1ad3f04728d7c38547e3d43006a1ec090a02fce04bbb1d0ee4519a1921e5760048201529091506000906001600160a01b0389169063fd310d299060240160206040518083038186803b158015611dfd57600080fd5b505afa158015611e11573d6000803e3d6000fd5b505050506040513d601f19601f82011682018060405250810190611e35919061298c565b9050836001141561204857600085611edc576040516370a0823160e01b81526001600160a01b038981166004830152670de0b6b3a764000091908416906370a082319060240160206040518083038186803b158015611e9357600080fd5b505afa158015611ea7573d6000803e3d6000fd5b505050506040513d601f19601f82011682018060405250810190611ecb9190612d51565b611ed59190612e85565b9050611fe9565b8560011415611f5f576040516370a0823160e01b81526001600160a01b0389811660048301528316906370a08231906024015b60206040518083038186803b158015611f2757600080fd5b505afa158015611f3b573d6000803e3d6000fd5b505050506040513d601f19601f82011682018060405250810190611ed59190612d51565b8560021415611f9b57604051627eeac760e11b81526001600160a01b0389811660048301526024820185905283169062fdd58e90604401611f0f565b8560031415611fda576040516329b6517360e21b81526001600160a01b038a81166004830152898116602483015285169063a6d945cc90604401611f0f565b6000965050505050505061033b565b60008111612000576000965050505050505061033b565b677fffffffffffffff811061201e576032965050505050505061033b565b600061202f61154c611547846126b6565b67ffffffffffffffff16975061033b9650505050505050565b83600214156121ba576000856120ef576040516370a0823160e01b81526001600160a01b038981166004830152600091908416906370a08231906024015b60206040518083038186803b15801561209e57600080fd5b505afa1580156120b2573d6000803e3d6000fd5b505050506040513d601f19601f820116820180604052508101906120d69190612d51565b116120e25760006120e5565b60015b60ff1690506121ad565b856001141561212a576040516370a0823160e01b81526001600160a01b038981166004830152600091908416906370a0823190602401612086565b856002141561216a57604051627eeac760e11b81526001600160a01b038981166004830152602482018590526000919084169062fdd58e90604401612086565b8560031415611fda576040516329b6517360e21b81526001600160a01b038a8116600483015289811660248301526000919086169063a6d945cc90604401612086565b955061033b945050505050565b836123595760008561225b576040516370a0823160e01b81526001600160a01b038981166004830152670de0b6b3a764000091908416906370a082319060240160206040518083038186803b15801561221257600080fd5b505afa158015612226573d6000803e3d6000fd5b505050506040513d601f19601f8201168201806040525081019061224a9190612d51565b6122549190612e85565b90506121ad565b85600114156122de576040516370a0823160e01b81526001600160a01b0389811660048301528316906370a08231906024015b60206040518083038186803b1580156122a657600080fd5b505afa1580156122ba573d6000803e3d6000fd5b505050506040513d601f19601f820116820180604052508101906122549190612d51565b856002141561231a57604051627eeac760e11b81526001600160a01b0389811660048301526024820185905283169062fdd58e9060440161228e565b8560031415611fda576040516329b6517360e21b81526001600160a01b038a81166004830152898116602483015285169063a6d945cc9060440161228e565b60009550505050505061033b565b6118248282336127e7565b60008061237e846128f5565b6040517f17ba7d850000000000000000000000000000000000000000000000000000000081527f0d479c38716a0298633b1dbf1ce145a3fbd1d79ca4527de172afc3bad04a2ba7600482015290915060009081906001600160a01b038716906317ba7d859060240160206040518083038186803b1580156123fe57600080fd5b505afa158015612412573d6000803e3d6000fd5b505050506040513d601f19601f82011682018060405250810190612436919061298c565b905060005b83518160ff16101561264057816001600160a01b03166324a2cceb8888878560ff168151811061247b57634e487b7160e01b600052603260045260246000fd5b60200260200101516040518463ffffffff1660e01b81526004016124bf939291906001600160a01b0393841681526020810192909252909116604082015260600190565b60206040518083038186803b1580156124d757600080fd5b505afa1580156124eb573d6000803e3d6000fd5b505050506040513d601f19601f8201168201806040525081019061250f9190612ac8565b156125ed57816001600160a01b03166391d2fd538888878560ff168151811061254857634e487b7160e01b600052603260045260246000fd5b60200260200101516040518463ffffffff1660e01b815260040161258c939291906001600160a01b0393841681526020810192909252909116604082015260600190565b60206040518083038186803b1580156125a457600080fd5b505afa1580156125b8573d6000803e3d6000fd5b505050506040513d601f19601f820116820180604052508101906125dc9190612d21565b6125e69084612e39565b925061262e565b61262187858360ff168151811061261457634e487b7160e01b600052603260045260246000fd5b6020026020010151611af3565b61262b9084612e39565b92505b8061263881612ef9565b91505061243b565b509095945050505050565b600080612657836128f5565b90506000805b82518160ff1610156126ae5761269085848360ff168151811061261457634e487b7160e01b600052603260045260246000fd5b61269a9083612e39565b9150806126a681612ef9565b91505061265d565b509392505050565b6000677fffffffffffffff8211156126cd57600080fd5b5060401b90565b60008082600f0b136126e557600080fd5b6000600f83900b680100000000000000008112612704576040918201911d5b6401000000008112612718576020918201911d5b62010000811261272a576010918201911d5b610100811261273b576008918201911d5b6010811261274b576004918201911d5b6004811261275b576002918201911d5b6002811261276a576001820191505b7fffffffffffffffffffffffffffffffffffffffffffffffffffffffffffffffc0820160401b600f85900b607f8490031b6780000000000000005b60008113156126405790800260ff81901c8281029390930192607f011c9060011d6127a5565b60008082600f0b12156127dd57600080fd5b50600f0b60401d90565b81602001511561289d5781606001516001600160a01b0316635e5eb01384835a86516128139190612ee2565b60408088015190517fffffffff0000000000000000000000000000000000000000000000000000000060e087901b1681526001600160a01b03948516600482015293909216602484015260448301526064820152608401600060405180830381600087803b15801561288457600080fd5b505af1158015612898573d6000803e3d6000fd5b505050505b826001600160a01b031663d4f7af436040518163ffffffff1660e01b8152600401600060405180830381600087803b1580156128d857600080fd5b505af11580156128ec573d6000803e3d6000fd5b50505050505050565b6060816001600160a01b031663a6f636416040518163ffffffff1660e01b815260040160006040518083038186803b15801561293057600080fd5b505afa158015612944573d6000803e3d6000fd5b505050506040513d6000823e601f3d908101601f1916820160405261033b9190810190612a14565b803561297781612f5b565b919050565b8051801515811461297757600080fd5b60006020828403121561299d578081fd5b81516102fa81612f5b565b600080604083850312156129ba578081fd5b82356129c581612f5b565b946020939093013593505050565b6000806000606084860312156129e7578081fd5b83356129f281612f5b565b9250602084013591506040840135612a0981612f5b565b809150509250925092565b60006020808385031215612a26578182fd5b825167ffffffffffffffff80821115612a3d578384fd5b818501915085601f830112612a50578384fd5b815181811115612a6257612a62612f45565b8060051b9150612a73848301612e08565b8181528481019084860184860187018a1015612a8d578788fd5b8795505b83861015612abb5780519450612aa685612f5b565b84835260019590950194918601918601612a91565b5098975050505050505050565b600060208284031215612ad9578081fd5b6103388261297c565b60008060408385031215612af4578182fd5b612afd8361297c565b9150602083015190509250929050565b600060208284031215612b1e578081fd5b81356102fa81612f5b565b60008060408385031215612b3b578182fd5b8235612b4681612f5b565b91506020830135612b5681612f5b565b809150509250929050565b60008060008060808587031215612b76578081fd5b8435612b8181612f5b565b9350602085810135612b9281612f5b565b9350604086013567ffffffffffffffff80821115612bae578384fd5b818801915088601f830112612bc1578384fd5b813581811115612bd357612bd3612f45565b612be584601f19601f84011601612e08565b91508082528984828501011115612bfa578485fd5b80848401858401378101909201839052509150612c196060860161296c565b905092959194509250565b600080604083850312156129ba578182fd5b6000806000606084860312156129e7578283fd5b60008060008060608587031215612c5f578182fd5b8435612c6a81612f5b565b935060208501359250604085013567ffffffffffffffff80821115612c8d578384fd5b818701915087601f830112612ca0578384fd5b813581811115612cae578485fd5b886020828501011115612cbf578485fd5b95989497505060200194505050565b600080600060608486031215612ce2578081fd5b8335612ced81612f5b565b95602085013595506040909401359392505050565b600060208284031215612d13578081fd5b8151600281106102fa578182fd5b600060208284031215612d32578081fd5b81516fffffffffffffffffffffffffffffffff811681146102fa578182fd5b600060208284031215612d62578081fd5b5051919050565b8281526040810160038310612d8057612d80612f2f565b8260208301529392505050565b6060810160068510612da157612da1612f2f565b938152602081019290925260409091015290565b6000602080835283518082850152825b81811015612de157858101830151858201604001528201612dc5565b81811115612df25783604083870101525b50601f01601f1916929092016040019392505050565b604051601f8201601f1916810167ffffffffffffffff81118282101715612e3157612e31612f45565b604052919050565b60006fffffffffffffffffffffffffffffffff808316818516808303821115612e6457612e64612f19565b01949350505050565b60008219821115612e8057612e80612f19565b500190565b600082612ea057634e487b7160e01b81526012600452602481fd5b500490565b6000817fffffffffffffffffffffffffffffffffffffffffffffffffffffffffffffffff0483118215151615612edd57612edd612f19565b500290565b600082821015612ef457612ef4612f19565b500390565b600060ff821660ff811415612f1057612f10612f19565b60010192915050565b634e487b7160e01b600052601160045260246000fd5b634e487b7160e01b600052602160045260246000fd5b634e487b7160e01b600052604160045260246000fd5b6001600160a01b0381168114612f7057600080fd5b5056fea2646970667358221220d776dc0f9c04c4225dad7a3c615d841ddd4f121093873e3745e5cc7287a4365264736f6c63430008040033",
  "linkReferences": {},
  "deployedLinkReferences": {}
}