{
  "_format": "hh-sol-artifact-1",
  "contractName": "FlexVesting",
  "sourceName": "contracts/flex/adatpers/FlexVesting.sol",
  "abi": [
    {
      "inputs": [],
      "stateMutability": "nonpayable",
      "type": "constructor"
    },
    {
      "inputs": [],
      "name": "InvalidVestingAmountSetting",
      "type": "error"
    },
    {
      "inputs": [],
      "name": "InvalidVestingTimeSetting",
      "type": "error"
    },
    {
      "inputs": [],
      "name": "NotClaimable",
      "type": "error"
    },
    {
      "inputs": [],
      "name": "NotOwner",
      "type": "error"
    },
    {
      "inputs": [],
      "name": "NotVestReceiver",
      "type": "error"
    },
    {
      "anonymous": false,
      "inputs": [
        {
          "indexed": true,
          "internalType": "uint256",
          "name": "vestId",
          "type": "uint256"
        },
        {
          "indexed": true,
          "internalType": "uint256",
          "name": "ownerAmount",
          "type": "uint256"
        },
        {
          "indexed": true,
          "internalType": "uint256",
          "name": "recipientAmount",
          "type": "uint256"
        },
        {
          "indexed": false,
          "internalType": "address",
          "name": "token",
          "type": "address"
        },
        {
          "indexed": false,
          "internalType": "bool",
          "name": "toBentoBox",
          "type": "bool"
        }
      ],
      "name": "CancelVesting",
      "type": "event"
    },
    {
      "anonymous": false,
      "inputs": [
        {
          "indexed": true,
          "internalType": "uint256",
          "name": "vestId",
          "type": "uint256"
        },
        {
          "indexed": false,
          "internalType": "address",
          "name": "token",
          "type": "address"
        },
        {
          "indexed": true,
          "internalType": "address",
          "name": "recipient",
          "type": "address"
        },
        {
          "indexed": false,
          "internalType": "uint32",
          "name": "start",
          "type": "uint32"
        },
        {
          "indexed": false,
          "internalType": "uint32",
          "name": "cliffDuration",
          "type": "uint32"
        },
        {
          "indexed": false,
          "internalType": "uint32",
          "name": "stepDuration",
          "type": "uint32"
        },
        {
          "indexed": false,
          "internalType": "uint32",
          "name": "steps",
          "type": "uint32"
        },
        {
          "indexed": false,
          "internalType": "uint128",
          "name": "cliffShares",
          "type": "uint128"
        },
        {
          "indexed": false,
          "internalType": "uint128",
          "name": "stepShares",
          "type": "uint128"
        },
        {
          "indexed": false,
          "internalType": "bytes32",
          "name": "proposalId",
          "type": "bytes32"
        }
      ],
      "name": "CreateVesting",
      "type": "event"
    },
    {
      "anonymous": false,
      "inputs": [
        {
          "indexed": true,
          "internalType": "uint256",
          "name": "vestId",
          "type": "uint256"
        },
        {
          "indexed": true,
          "internalType": "address",
          "name": "newOwner",
          "type": "address"
        }
      ],
      "name": "LogUpdateOwner",
      "type": "event"
    },
    {
      "anonymous": false,
      "inputs": [
        {
          "indexed": true,
          "internalType": "uint256",
          "name": "vestId",
          "type": "uint256"
        },
        {
          "indexed": true,
          "internalType": "address",
          "name": "token",
          "type": "address"
        },
        {
          "indexed": true,
          "internalType": "uint256",
          "name": "amount",
          "type": "uint256"
        },
        {
          "indexed": false,
          "internalType": "bool",
          "name": "toBentoBox",
          "type": "bool"
        }
      ],
      "name": "Withdraw",
      "type": "event"
    },
    {
      "inputs": [],
      "name": "PERCENTAGE_PRECISION",
      "outputs": [
        {
          "internalType": "uint256",
          "name": "",
          "type": "uint256"
        }
      ],
      "stateMutability": "view",
      "type": "function"
    },
    {
      "inputs": [
        {
          "internalType": "contract DaoRegistry",
          "name": "dao",
          "type": "address"
        },
        {
          "internalType": "address",
          "name": "recipientAddr",
          "type": "address"
        },
        {
          "internalType": "bytes32",
          "name": "proposalId",
          "type": "bytes32"
        }
      ],
      "name": "createVesting",
      "outputs": [],
      "stateMutability": "payable",
      "type": "function"
    },
    {
      "inputs": [
        {
          "internalType": "address",
          "name": "token",
          "type": "address"
        },
        {
          "internalType": "uint256",
          "name": "tokenId",
          "type": "uint256"
        }
      ],
      "name": "getRemainingPercentage",
      "outputs": [
        {
          "internalType": "uint256",
          "name": "",
          "type": "uint256"
        },
        {
          "internalType": "uint256",
          "name": "",
          "type": "uint256"
        },
        {
          "internalType": "uint256",
          "name": "",
          "type": "uint256"
        }
      ],
      "stateMutability": "view",
      "type": "function"
    },
    {
      "inputs": [
        {
          "internalType": "address",
          "name": "token",
          "type": "address"
        },
        {
          "internalType": "uint256",
          "name": "tokenId",
          "type": "uint256"
        }
      ],
      "name": "getVestIdByTokenId",
      "outputs": [
        {
          "internalType": "uint256",
          "name": "",
          "type": "uint256"
        }
      ],
      "stateMutability": "view",
      "type": "function"
    },
    {
      "inputs": [
        {
          "internalType": "address",
          "name": "",
          "type": "address"
        },
        {
          "internalType": "uint256",
          "name": "",
          "type": "uint256"
        }
      ],
      "name": "tokenIdToVestId",
      "outputs": [
        {
          "internalType": "uint256",
          "name": "",
          "type": "uint256"
        }
      ],
      "stateMutability": "view",
      "type": "function"
    },
    {
      "inputs": [
        {
          "internalType": "uint256",
          "name": "vestId",
          "type": "uint256"
        },
        {
          "internalType": "address",
          "name": "newOwner",
          "type": "address"
        }
      ],
      "name": "updateOwner",
      "outputs": [],
      "stateMutability": "nonpayable",
      "type": "function"
    },
    {
      "inputs": [
        {
          "internalType": "uint256",
          "name": "vestId",
          "type": "uint256"
        }
      ],
      "name": "vestBalance",
      "outputs": [
        {
          "internalType": "uint256",
          "name": "",
          "type": "uint256"
        }
      ],
      "stateMutability": "view",
      "type": "function"
    },
    {
      "inputs": [],
      "name": "vestIds",
      "outputs": [
        {
          "internalType": "uint256",
          "name": "",
          "type": "uint256"
        }
      ],
      "stateMutability": "view",
      "type": "function"
    },
    {
      "inputs": [
        {
          "internalType": "uint256",
          "name": "",
          "type": "uint256"
        }
      ],
      "name": "vests",
      "outputs": [
        {
          "internalType": "address",
          "name": "daoAddr",
          "type": "address"
        },
        {
          "internalType": "bytes32",
          "name": "proposalId",
          "type": "bytes32"
        },
        {
          "internalType": "uint128",
          "name": "claimed",
          "type": "uint128"
        },
        {
          "internalType": "uint256",
          "name": "total",
          "type": "uint256"
        },
        {
          "components": [
            {
              "internalType": "uint32",
              "name": "steps",
              "type": "uint32"
            },
            {
              "internalType": "uint128",
              "name": "cliffShares",
              "type": "uint128"
            },
            {
              "internalType": "uint128",
              "name": "stepShares",
              "type": "uint128"
            }
          ],
          "internalType": "struct IFlexVesting.StepInfo",
          "name": "stepInfo",
          "type": "tuple"
        },
        {
          "components": [
            {
              "internalType": "uint32",
              "name": "start",
              "type": "uint32"
            },
            {
              "internalType": "uint32",
              "name": "end",
              "type": "uint32"
            },
            {
              "internalType": "uint32",
              "name": "cliffDuration",
              "type": "uint32"
            },
            {
              "internalType": "uint32",
              "name": "stepDuration",
              "type": "uint32"
            }
          ],
          "internalType": "struct IFlexVesting.TimeInfo",
          "name": "timeInfo",
          "type": "tuple"
        },
        {
          "components": [
            {
              "internalType": "address",
              "name": "nftToken",
              "type": "address"
            },
            {
              "internalType": "uint256",
              "name": "tokenId",
              "type": "uint256"
            }
          ],
          "internalType": "struct IFlexVesting.VestNFTInfo",
          "name": "nftInfo",
          "type": "tuple"
        },
        {
          "components": [
            {
              "internalType": "string",
              "name": "name",
              "type": "string"
            },
            {
              "internalType": "string",
              "name": "description",
              "type": "string"
            },
            {
              "internalType": "address",
              "name": "owner",
              "type": "address"
            },
            {
              "internalType": "address",
              "name": "recipient",
              "type": "address"
            },
            {
              "internalType": "address",
              "name": "token",
              "type": "address"
            }
          ],
          "internalType": "struct IFlexVesting.VestInfo",
          "name": "vestInfo",
          "type": "tuple"
        }
      ],
      "stateMutability": "view",
      "type": "function"
    },
    {
      "inputs": [
        {
          "internalType": "contract DaoRegistry",
          "name": "dao",
          "type": "address"
        },
        {
          "internalType": "uint256",
          "name": "vestId",
          "type": "uint256"
        }
      ],
      "name": "withdraw",
      "outputs": [],
      "stateMutability": "nonpayable",
      "type": "function"
    }
  ],
  "bytecode": "0x608060405234801561001057600080fd5b506001600255612dc5806100256000396000f3fe6080604052600436106100b15760003560e01c806351def556116100695780637a4334e21161004e5780637a4334e2146101e3578063e256888f1461021e578063f3fef3a31461023a57600080fd5b806351def5561461018f5780637192711f146101c357600080fd5b80632c29e1961161009a5780632c29e196146100ff5780633427dd67146101425780633ae9bc031461017a57600080fd5b806319f77171146100b65780632bcea736146100e9575b600080fd5b3480156100c257600080fd5b506100d66100d136600461293a565b61025a565b6040519081526020015b60405180910390f35b3480156100f557600080fd5b506100d660025481565b34801561010b57600080fd5b506100d661011a3660046128b5565b6001600160a01b03919091166000908152600160209081526040808320938352929052205490565b34801561014e57600080fd5b506100d661015d3660046128b5565b600160209081526000928352604080842090915290825290205481565b61018d6101883660046128fa565b6104ea565b005b34801561019b57600080fd5b506101af6101aa36600461293a565b611327565b6040516100e0989796959493929190612a7d565b3480156101cf57600080fd5b5061018d6101de36600461296a565b611569565b3480156101ef57600080fd5b506102036101fe3660046128b5565b61161a565b604080519384526020840192909252908201526060016100e0565b34801561022a57600080fd5b506100d6670de0b6b3a764000081565b34801561024657600080fd5b5061018d6102553660046128b5565b611718565b60008181526020818152604080832081516101008101835281546001600160a01b03908116825260018301548286015260028301546001600160801b0390811683860152600384015460608085019190915285518082018752600486015463ffffffff8082168352640100000000918290048516838b015260058801549094168289015260808087019290925287519182018852600687015480851683529081048416828a01526801000000000000000081048416828901526c0100000000000000000000000090049092169082015260a080840191909152845180860186526007850154909216825260088401549582019590955260c08201528251938401909252600981018054859460e085019290918290829061037990612cbe565b80601f01602080910402602001604051908101604052809291908181526020018280546103a590612cbe565b80156103f25780601f106103c7576101008083540402835291602001916103f2565b820191906000526020600020905b8154815290600101906020018083116103d557829003601f168201915b5050505050815260200160018201805461040b90612cbe565b80601f016020809104026020016040519081016040528092919081815260200182805461043790612cbe565b80156104845780601f1061045957610100808354040283529160200191610484565b820191906000526020600020905b81548152906001019060200180831161046757829003601f168201915b505050918352505060028201546001600160a01b03908116602083015260038301548116604080840191909152600490930154166060909101529152820151919250506001600160801b03166104d982611bca565b6104e39190612c77565b9392505050565b6104f26121b5565b6040516317ba7d8560e01b81527fb0326f8dfc913f537596953a938551c86ac8fe0da74c9a8cd0ee660e627dccc860048201526001600160a01b038516906317ba7d859060240160206040518083038186803b15801561055157600080fd5b505afa158015610565573d6000803e3d6000fd5b505050506040513d601f19601f820116820180604052508101906105899190612730565b6001600160a01b03908116610200830181905260c083018190526040517f309f011800000000000000000000000000000000000000000000000000000000815286831660048201526024810185905291851660448301529063309f01189060640160206040518083038186803b15801561060257600080fd5b505afa158015610616573d6000803e3d6000fd5b505050506040513d601f19601f8201168201806040525081019061063a91906128e0565b6106a5576040517f08c379a000000000000000000000000000000000000000000000000000000000815260206004820152600960248201527f21656c696769626c65000000000000000000000000000000000000000000000060448201526064015b60405180910390fd5b60c08101516040517f6cb4e9eb0000000000000000000000000000000000000000000000000000000081526001600160a01b03868116600483015260248201859052858116604483015290911690636cb4e9eb9060640160206040518083038186803b15801561071457600080fd5b505afa158015610728573d6000803e3d6000fd5b505050506040513d601f19601f8201168201806040525081019061074c91906128e0565b156107b3576040517f08c379a000000000000000000000000000000000000000000000000000000000815260206004820152600f60248201527f416c726561647920437265617465640000000000000000000000000000000000604482015260640161069c565b6040516317ba7d8560e01b81527f7a8526bca00f0726b2fab8c3bfd5b00bfa84d07f111e48263b13de605eefcdda60048201526001600160a01b038516906317ba7d859060240160206040518083038186803b15801561081257600080fd5b505afa158015610826573d6000803e3d6000fd5b505050506040513d601f19601f8201168201806040525081019061084a9190612730565b6001600160a01b0390811660e083015260c08201516040517f1190b0a60000000000000000000000000000000000000000000000000000000081528683166004820152602481018590528583166044820152911690631190b0a690606401604080518083038186803b1580156108bf57600080fd5b505afa1580156108d3573d6000803e3d6000fd5b505050506040513d601f19601f820116820180604052508101906108f79190612999565b5061014082015260c08101516040517f595857980000000000000000000000000000000000000000000000000000000081526001600160a01b0386811660048301526024820185905285811660448301529091169063595857989060640160206040518083038186803b15801561096d57600080fd5b505afa158015610981573d6000803e3d6000fd5b505050506040513d601f19601f820116820180604052508101906109a59190612952565b81610140018181516109b79190612be1565b90525060e08101516040517fbf4999940000000000000000000000000000000000000000000000000000000081526001600160a01b038681166004830152602482018590529091169063bf4999949060440160006040518083038186803b158015610a2157600080fd5b505afa158015610a35573d6000803e3d6000fd5b505050506040513d6000823e601f3d908101601f19168201604052610a5d919081019061274c565b5050505061022086018390525050610240840182905260c09091015160809091015111159050610ab9576040517fcc16de1a00000000000000000000000000000000000000000000000000000000815260040160405180910390fd5b610220810151511580610ad3575061022081015160200151155b80610ae5575061022081015160400151155b80610af7575061022081015160600151155b15610b2e576040517fb443a90d00000000000000000000000000000000000000000000000000000000815260040160405180910390fd5b610b508482610240015160a00151836102000151308561014001516000611cfa565b60208083019190915261022082015190810151604090910151610b739190612c77565b610100820181905261022082015160600151610b8e91612c18565b6101e08201526102208101516060015161010082015111610bb25760016101e08201525b806102200151606001518161010001511115610c595780610100015181610220015160600151610be29190612d14565b610c075780610220015160600151816101000151610c009190612c18565b6101e08201525b80610100015181610220015160600151826101e00151610c279190612c2c565b1015610c595780610220015160600151816101000151610c479190612c18565b610c52906001612be1565b6101e08201525b670de0b6b3a764000081610220015160800151826101400151610c7c9190612c2c565b610c869190612c18565b6001600160801b0316608082018190526101e082015160208301519091610cac91612c77565b610cb69190612c18565b6001600160801b0316606082015260028054906000610cd483612cf9565b90915550604082015261022081015160a0015115610dc75761022081015160c001516040517f40d097c30000000000000000000000000000000000000000000000000000000081526001600160a01b038581166004830152909116906340d097c390602401602060405180830381600087803b158015610d5357600080fd5b505af1158015610d67573d6000803e3d6000fd5b505050506040513d601f19601f82011682018060405250810190610d8b9190612952565b610260820190815260408083015161022084015160c001516001600160a01b031660009081526001602090815283822094518252939093529120555b604051806101000160405280856001600160a01b0316815260200183815260200160006001600160801b0316815260200182610140015181526020016040518060600160405280846101e0015163ffffffff16815260200184608001516001600160801b0316815260200184606001516001600160801b0316815250815260200160405180608001604052808461022001516000015163ffffffff1681526020018461022001516040015163ffffffff1681526020018461022001516000015185610220015160200151610e9b9190612c77565b63ffffffff1681526020018461022001516060015163ffffffff168152508152602001604051806040016040528084610220015160a0015115156001151514610ee5576000610ef0565b84610220015160c001515b6001600160a01b0390811682526102608601516020928301529183526040805160a080820183526102208801805160e0908101518452905161010001518386015233838501528a86166060808501919091526102408a01518301518716608080860191909152978601939093528389015160009081528086528490208851815490881673ffffffffffffffffffffffffffffffffffffffff19918216178255898701516001830155898601516002830180546001600160801b039283167fffffffffffffffffffffffffffffffff00000000000000000000000000000000918216179091558b8701516003850155998b01518051600485018054838c0151851664010000000090810291871663ffffffff948516179190911790915591890151600586018054919094169c169b909b17909155938a01518051600684018054838b01519984015193909801518c166c01000000000000000000000000027fffffffffffffffffffffffffffffffff00000000ffffffffffffffffffffffff938d166801000000000000000002939093167fffffffffffffffffffffffffffffffff0000000000000000ffffffffffffffff998d169097027fffffffffffffffffffffffffffffffffffffffffffffffff000000000000000090981691909b16179590951795909516929092179290921790955560c08601518051600787018054919096169316929092179093558101516008840155908301518051805191926009850192611121928492019061236d565b50602082810151805161113a926001850192019061236d565b5060408281015160028301805473ffffffffffffffffffffffffffffffffffffffff199081166001600160a01b039384161790915560608501516003850180548316918416919091179055608090940151600493840180549095169082161790935560c086015190517f560dbdd700000000000000000000000000000000000000000000000000000000815289841692810192909252602482018790528783166044830152909116925063560dbdd79150606401602060405180830381600087803b15801561120857600080fd5b505af115801561121c573d6000803e3d6000fd5b505050506040513d601f19601f8201168201806040525081019061124091906128e0565b50604081015161024082015160a0015161022083015180516020909101516001600160a01b03871693927f4c51f0095be9553b8e5eadbc42f96ab0b0c6526566307069cfcbecc63ea41c52929091611299908290612c77565b86610220015160600151876101e00151886080015189606001518b6040516113199897969594939291906001600160a01b0398909816885263ffffffff968716602089015294861660408801529285166060870152931660808501526001600160801b0392831660a085015290911660c083015260e08201526101000190565b60405180910390a350505050565b600060208181529181526040908190208054600182015460028301546003840154855160608082018852600487015463ffffffff80821684526001600160801b03640100000000928390048116858d015260058a01548116858c01528a51608081018c5260068b015480841682529384048316818e01526801000000000000000084048316818d01526c01000000000000000000000000909304909116928201929092528851808a018a5260078901546001600160a01b03908116825260088a01549b82019b909b52895160a08101909a526009890180549b9098169a969992909516979396929590949392908290829061142190612cbe565b80601f016020809104026020016040519081016040528092919081815260200182805461144d90612cbe565b801561149a5780601f1061146f5761010080835404028352916020019161149a565b820191906000526020600020905b81548152906001019060200180831161147d57829003601f168201915b505050505081526020016001820180546114b390612cbe565b80601f01602080910402602001604051908101604052809291908181526020018280546114df90612cbe565b801561152c5780601f106115015761010080835404028352916020019161152c565b820191906000526020600020905b81548152906001019060200180831161150f57829003601f168201915b505050918352505060028201546001600160a01b039081166020830152600383015481166040830152600490920154909116606090910152905088565b6000828152602081905260409020600b8101546001600160a01b031633146115bd576040517f30cd747100000000000000000000000000000000000000000000000000000000815260040160405180910390fd5b600b8101805473ffffffffffffffffffffffffffffffffffffffff19166001600160a01b03841690811790915560405184907fca0251ba80971adc7e92434b097ca40450b2a317013c51c5c5cb6ae74500bb0090600090a3505050565b600080808080808061164f89896001600160a01b03919091166000908152600160209081526040808320938352929052205490565b905080156117095760008181526020819052604090206002810154600390910154670de0b6b3a76400009161168f916001600160801b0390911690612c77565b6116999190612c18565b6000828152602081905260409020600301549093506116c190670de0b6b3a764000090612c18565b60008281526020819052604090206003810154600290910154919350906116f1906001600160801b031682612c77565b6116fc906064612c2c565b6117069190612c18565b93505b50919450925090509250925092565b6000818152602081905260409020600c81015460078201546001600160a01b0391821691161561182457600782015460088301546040517f6352211e000000000000000000000000000000000000000000000000000000008152600481019190915233916001600160a01b031690636352211e9060240160206040518083038186803b1580156117a757600080fd5b505afa1580156117bb573d6000803e3d6000fd5b505050506040513d601f19601f820116820180604052508101906117df9190612730565b6001600160a01b03161461181f576040517fe1c6117100000000000000000000000000000000000000000000000000000000815260040160405180910390fd5b611866565b6001600160a01b0381163314611866576040517fe1c6117100000000000000000000000000000000000000000000000000000000815260040160405180910390fd5b6002820154604080516101008101825284546001600160a01b03908116825260018601546020808401919091526001600160801b0394851683850181905260038801546060808601919091528551808201875260048a015463ffffffff8082168352640100000000918290048a168387015260058c0154909916828901526080808801929092528751918201885260068b0154808a1683529081048916828601526801000000000000000081048916828901526c0100000000000000000000000090049097169087015260a080850196909652845180860186526007890154909316835260088801549183019190915260c08301919091528251938401909252600985018054600094611ad59392889260e085019291908290829061198a90612cbe565b80601f01602080910402602001604051908101604052809291908181526020018280546119b690612cbe565b8015611a035780601f106119d857610100808354040283529160200191611a03565b820191906000526020600020905b8154815290600101906020018083116119e657829003601f168201915b50505050508152602001600182018054611a1c90612cbe565b80601f0160208091040260200160405190810160405280929190818152602001828054611a4890612cbe565b8015611a955780601f10611a6a57610100808354040283529160200191611a95565b820191906000526020600020905b815481529060010190602001808311611a7857829003601f168201915b505050918352505060028201546001600160a01b039081166020830152600383015481166040830152600490920154909116606090910152905250611bca565b611adf9190612c77565b905060008111611b1b576040517f6247a84e00000000000000000000000000000000000000000000000000000000815260040160405180910390fd5b600283018054829190600090611b3b9084906001600160801b0316612bb6565b82546001600160801b039182166101009390930a928302919092021990911617905550600d830154611b7c9086906001600160a01b03163085856000611fb0565b600d8301546040516000815282916001600160a01b03169086907fff942d249898505febb2a9a00118e27567c084b9497d0aa3ba5e332c235b4f389060200160405180910390a45050505050565b60a0810151604081015190516000918291611be59190612bf9565b63ffffffff16905080421015611bfb5750919050565b6000611c078242612c77565b90506000611c3c85608001516000015163ffffffff168660a001516060015163ffffffff1684611c379190612c18565b61219f565b90508460a001516020015163ffffffff168560a0015160600151866080015160000151611c699190612c4b565b60a087015160408101519051611c7f9190612bf9565b611c899190612bf9565b63ffffffff161180611ca857508460a001516020015163ffffffff1642115b15611cb857505050506060015190565b808560800151604001516001600160801b0316611cd59190612c2c565b8560800151602001516001600160801b0316611cf19190612be1565b95945050505050565b6040516317ba7d8560e01b81527fdfea78be99560632cc4c199ca1b0d68ffe0bbbb07b685976cefc8820374ac73a600482015260009081906001600160a01b038916906317ba7d859060240160206040518083038186803b158015611d5e57600080fd5b505afa158015611d72573d6000803e3d6000fd5b505050506040513d601f19601f82011682018060405250810190611d969190612730565b90508215611ed2576040517fda5139ca0000000000000000000000000000000000000000000000000000000081526001600160a01b038881166004830152602482018690526000604483015282169063da5139ca9060640160206040518083038186803b158015611e0657600080fd5b505afa158015611e1a573d6000803e3d6000fd5b505050506040513d601f19601f82011682018060405250810190611e3e9190612952565b6040517ff18d03cc0000000000000000000000000000000000000000000000000000000081526001600160a01b03898116600483015288811660248301528781166044830152606482018390529193509082169063f18d03cc90608401600060405180830381600087803b158015611eb557600080fd5b505af1158015611ec9573d6000803e3d6000fd5b50505050611fa5565b6001600160a01b03808216906302b9446c90891615611ef2576000611ef4565b855b6040517fffffffff0000000000000000000000000000000000000000000000000000000060e084901b1681526001600160a01b03808c166004830152808b16602483015289166044820152606481018890526000608482015260a40160408051808303818588803b158015611f6857600080fd5b505af1158015611f7c573d6000803e3d6000fd5b50505050506040513d601f19601f82011682018060405250810190611fa191906129c4565b9250505b509695505050505050565b6040516317ba7d8560e01b81527fdfea78be99560632cc4c199ca1b0d68ffe0bbbb07b685976cefc8820374ac73a60048201526000906001600160a01b038816906317ba7d859060240160206040518083038186803b15801561201257600080fd5b505afa158015612026573d6000803e3d6000fd5b505050506040513d601f19601f8201168201806040525081019061204a9190612730565b905081156120e2576040517ff18d03cc0000000000000000000000000000000000000000000000000000000081526001600160a01b038781166004830152868116602483015285811660448301526064820185905282169063f18d03cc90608401600060405180830381600087803b1580156120c557600080fd5b505af11580156120d9573d6000803e3d6000fd5b50505050612196565b6040517f97da6d300000000000000000000000000000000000000000000000000000000081526001600160a01b0387811660048301528681166024830152858116604483015260006064830152608482018590528216906397da6d309060a4016040805180830381600087803b15801561215b57600080fd5b505af115801561216f573d6000803e3d6000fd5b505050506040513d601f19601f8201168201806040525081019061219391906129c4565b50505b50505050505050565b60008183106121ae57816104e3565b5090919050565b60405180610280016040528060008152602001600081526020016000815260200160006001600160801b0316815260200160006001600160801b0316815260200160006001600160801b0316815260200160006001600160a01b0316815260200160006001600160a01b0316815260200160008152602001600081526020016000815260200160006001600160a01b031681526020016000815260200160008152602001600081526020016000815260200160006001600160a01b031681526020016122d1604051806101200160405280600081526020016000815260200160008152602001600081526020016000815260200160001515815260200160006001600160a01b0316815260200160608152602001606081525090565b815260200161236060405180610180016040528060006001600160a01b0316815260200160008152602001600081526020016000815260200160001515815260200160006001600160a01b031681526020016000815260200160008152602001600081526020016000815260200160006001600160a01b0316815260200160006001600160a01b031681525090565b8152602001600081525090565b82805461237990612cbe565b90600052602060002090601f01602090048101928261239b57600085556123e1565b82601f106123b457805160ff19168380011785556123e1565b828001600101855582156123e1579182015b828111156123e15782518255916020019190600101906123c6565b506123ed9291506123f1565b5090565b5b808211156123ed57600081556001016123f2565b805161241181612d6a565b919050565b8051801515811461241157600080fd5b80516002811061241157600080fd5b80516005811061241157600080fd5b600082601f830112612454578081fd5b815167ffffffffffffffff8082111561246f5761246f612d54565b604051601f8301601f19908116603f0116810190828211818310171561249757612497612d54565b816040528381528660208588010111156124af578485fd5b6124c0846020830160208901612c8e565b9695505050505050565b600061020082840312156124dc578081fd5b604051610100810181811067ffffffffffffffff8211171561250057612500612d54565b60405290508061250f83612426565b81526020830151602082015260408301516040820152606083015160608201526080830151608082015261254560a08401612416565b60a08201526125578460c08501612576565b60c082015261256a8461016085016125e9565b60e08201525092915050565b600060a08284031215612587578081fd5b61258f612b45565b9050815161259c81612d82565b8152602082015163ffffffff811681146125b557600080fd5b602082015260408201516125c881612d6a565b80604083015250606082015160608201526080820151608082015292915050565b600060a082840312156125fa578081fd5b612602612b45565b905061260d82612416565b815260208201516125b581612d82565b60006040828403121561262e578081fd5b6040516040810181811067ffffffffffffffff8211171561265157612651612d54565b604052825181526020928301519281019290925250919050565b6000610120828403121561267d578081fd5b612685612b6e565b905081518152602082015160208201526040820151604082015260608201516060820152608082015160808201526126bf60a08301612416565b60a08201526126d060c08301612406565b60c082015260e082015167ffffffffffffffff808211156126f057600080fd5b6126fc85838601612444565b60e08401526101009150818401518181111561271757600080fd5b61272386828701612444565b8385015250505092915050565b600060208284031215612741578081fd5b81516104e381612d6a565b6000806000806000806000806000898b0361048081121561276b578586fd5b8a5161277681612d6a565b9950610180601f19820181131561278b578687fd5b612793612b92565b91506127a160208d01612406565b825260408c0151602083015260608c0151604083015260808c015160608301526127cd60a08d01612416565b60808301526127de60c08d01612406565b60a083015260e08c015160c0830152610100808d015160e0840152610120808e0151828501526101409150818e01518185015250610160612820818f01612406565b8285015261282f838f01612406565b9084015250506101a08b015190985067ffffffffffffffff811115612852578586fd5b61285e8c828d0161266b565b97505061286f8b6101c08c016124ca565b955061287f8b6103c08c0161261d565b94506104008a015193506104208a0151925061289e6104408b01612435565b91506104608a015190509295985092959850929598565b600080604083850312156128c7578182fd5b82356128d281612d6a565b946020939093013593505050565b6000602082840312156128f1578081fd5b6104e382612416565b60008060006060848603121561290e578081fd5b833561291981612d6a565b9250602084013561292981612d6a565b929592945050506040919091013590565b60006020828403121561294b578081fd5b5035919050565b600060208284031215612963578081fd5b5051919050565b6000806040838503121561297c578182fd5b82359150602083013561298e81612d6a565b809150509250929050565b600080604083850312156129ab578182fd5b825191506129bb60208401612416565b90509250929050565b600080604083850312156129d6578182fd5b505080516020909101519092909150565b600081518084526129ff816020860160208601612c8e565b601f01601f19169290920160200192915050565b6000815160a08452612a2860a08501826129e7565b905060208301518482036020860152612a4182826129e7565b91505060408301516001600160a01b03808216604087015280606086015116606087015280608086015116608087015250508091505092915050565b60006101c06001600160a01b038b1683528960208401526001600160801b03808a16604085015288606085015263ffffffff8089511660808601528160208a01511660a08601528160408a01511660c08601528088511660e08601528060208901511661010086015280604089015116610120860152806060890151166101408601525050612b2361016084018680516001600160a01b03168252602090810151910152565b806101a0840152612b3681840185612a13565b9b9a5050505050505050505050565b60405160a0810167ffffffffffffffff81118282101715612b6857612b68612d54565b60405290565b604051610120810167ffffffffffffffff81118282101715612b6857612b68612d54565b604051610180810167ffffffffffffffff81118282101715612b6857612b68612d54565b60006001600160801b03808316818516808303821115612bd857612bd8612d28565b01949350505050565b60008219821115612bf457612bf4612d28565b500190565b600063ffffffff808316818516808303821115612bd857612bd8612d28565b600082612c2757612c27612d3e565b500490565b6000816000190483118215151615612c4657612c46612d28565b500290565b600063ffffffff80831681851681830481118215151615612c6e57612c6e612d28565b02949350505050565b600082821015612c8957612c89612d28565b500390565b60005b83811015612ca9578181015183820152602001612c91565b83811115612cb8576000848401525b50505050565b600181811c90821680612cd257607f821691505b60208210811415612cf357634e487b7160e01b600052602260045260246000fd5b50919050565b6000600019821415612d0d57612d0d612d28565b5060010190565b600082612d2357612d23612d3e565b500690565b634e487b7160e01b600052601160045260246000fd5b634e487b7160e01b600052601260045260246000fd5b634e487b7160e01b600052604160045260246000fd5b6001600160a01b0381168114612d7f57600080fd5b50565b60048110612d7f57600080fdfea2646970667358221220c468307dab2e00f1f92aa0fc66a4678a62f7c326b773c421b7895e7a855fef0764736f6c63430008040033",
  "linkReferences": {},
  "deployedLinkReferences": {}
}