{
  "_format": "hh-sol-artifact-1",
  "contractName": "FlexAllocationAdapterContract",
  "sourceName": "contracts/flex/adatpers/FlexAllocation.sol",
  "abi": [
    {
      "anonymous": false,
      "inputs": [
        {
          "indexed": false,
          "internalType": "bytes32",
          "name": "proposalId",
          "type": "bytes32"
        },
        {
          "indexed": false,
          "internalType": "address",
          "name": "daoAddr",
          "type": "address"
        },
        {
          "indexed": false,
          "internalType": "address",
          "name": "proposer",
          "type": "address"
        },
        {
          "indexed": false,
          "internalType": "address[]",
          "name": "lps",
          "type": "address[]"
        }
      ],
      "name": "AllocateToken",
      "type": "event"
    },
    {
      "anonymous": false,
      "inputs": [
        {
          "indexed": false,
          "internalType": "uint256",
          "name": "gpAllocationBonusRadio",
          "type": "uint256"
        },
        {
          "indexed": false,
          "internalType": "uint256",
          "name": "riceStakeAllocationRadio",
          "type": "uint256"
        }
      ],
      "name": "ConfigureDao",
      "type": "event"
    },
    {
      "inputs": [
        {
          "internalType": "contract DaoRegistry",
          "name": "dao",
          "type": "address"
        },
        {
          "internalType": "address",
          "name": "tokenAddress",
          "type": "address"
        },
        {
          "internalType": "address",
          "name": "proposerAddr",
          "type": "address"
        },
        {
          "internalType": "bytes32",
          "name": "proposalId",
          "type": "bytes32"
        },
        {
          "internalType": "uint256[5]",
          "name": "uint256Args",
          "type": "uint256[5]"
        }
      ],
      "name": "allocateProjectToken",
      "outputs": [],
      "stateMutability": "nonpayable",
      "type": "function"
    },
    {
      "inputs": [
        {
          "internalType": "contract DaoRegistry",
          "name": "dao",
          "type": "address"
        },
        {
          "internalType": "uint256",
          "name": "gpAllocationBonusRadio",
          "type": "uint256"
        },
        {
          "internalType": "uint256",
          "name": "riceStakeAllocationRadio",
          "type": "uint256"
        }
      ],
      "name": "configureDao",
      "outputs": [],
      "stateMutability": "nonpayable",
      "type": "function"
    },
    {
      "inputs": [
        {
          "internalType": "contract DaoRegistry",
          "name": "dao",
          "type": "address"
        },
        {
          "internalType": "bytes32",
          "name": "proposalId",
          "type": "bytes32"
        },
        {
          "internalType": "address",
          "name": "investor",
          "type": "address"
        }
      ],
      "name": "getInvestmentRewards",
      "outputs": [
        {
          "internalType": "uint256",
          "name": "",
          "type": "uint256"
        }
      ],
      "stateMutability": "view",
      "type": "function"
    },
    {
      "inputs": [
        {
          "internalType": "contract DaoRegistry",
          "name": "dao",
          "type": "address"
        },
        {
          "internalType": "bytes32",
          "name": "proposalId",
          "type": "bytes32"
        },
        {
          "internalType": "address",
          "name": "account",
          "type": "address"
        }
      ],
      "name": "getNoEscrowInvestmentShare",
      "outputs": [
        {
          "internalType": "uint256",
          "name": "",
          "type": "uint256"
        }
      ],
      "stateMutability": "view",
      "type": "function"
    },
    {
      "inputs": [
        {
          "internalType": "contract DaoRegistry",
          "name": "dao",
          "type": "address"
        },
        {
          "internalType": "bytes32",
          "name": "proposalId",
          "type": "bytes32"
        },
        {
          "internalType": "uint256",
          "name": "tokenAmount",
          "type": "uint256"
        }
      ],
      "name": "getProposerBonus",
      "outputs": [
        {
          "internalType": "uint256",
          "name": "",
          "type": "uint256"
        }
      ],
      "stateMutability": "view",
      "type": "function"
    },
    {
      "inputs": [
        {
          "internalType": "contract DaoRegistry",
          "name": "dao",
          "type": "address"
        },
        {
          "internalType": "bytes32",
          "name": "proposalId",
          "type": "bytes32"
        },
        {
          "internalType": "address",
          "name": "recipient",
          "type": "address"
        }
      ],
      "name": "ifEligible",
      "outputs": [
        {
          "internalType": "bool",
          "name": "",
          "type": "bool"
        }
      ],
      "stateMutability": "view",
      "type": "function"
    },
    {
      "inputs": [
        {
          "internalType": "contract DaoRegistry",
          "name": "dao",
          "type": "address"
        },
        {
          "internalType": "bytes32",
          "name": "proposalId",
          "type": "bytes32"
        },
        {
          "internalType": "address",
          "name": "recepient",
          "type": "address"
        }
      ],
      "name": "isNFTMinted",
      "outputs": [
        {
          "internalType": "bool",
          "name": "",
          "type": "bool"
        }
      ],
      "stateMutability": "view",
      "type": "function"
    },
    {
      "inputs": [
        {
          "internalType": "contract DaoRegistry",
          "name": "dao",
          "type": "address"
        },
        {
          "internalType": "bytes32",
          "name": "proposalId",
          "type": "bytes32"
        },
        {
          "internalType": "address",
          "name": "recepient",
          "type": "address"
        }
      ],
      "name": "isVestCreated",
      "outputs": [
        {
          "internalType": "bool",
          "name": "",
          "type": "bool"
        }
      ],
      "stateMutability": "view",
      "type": "function"
    },
    {
      "inputs": [
        {
          "internalType": "contract DaoRegistry",
          "name": "dao",
          "type": "address"
        },
        {
          "internalType": "bytes32",
          "name": "proposalId",
          "type": "bytes32"
        },
        {
          "internalType": "address",
          "name": "recipient",
          "type": "address"
        }
      ],
      "name": "nftMinted",
      "outputs": [
        {
          "internalType": "bool",
          "name": "",
          "type": "bool"
        }
      ],
      "stateMutability": "nonpayable",
      "type": "function"
    },
    {
      "inputs": [
        {
          "internalType": "contract DaoRegistry",
          "name": "dao",
          "type": "address"
        },
        {
          "internalType": "bytes32",
          "name": "proposalId",
          "type": "bytes32"
        },
        {
          "internalType": "address",
          "name": "recipient",
          "type": "address"
        }
      ],
      "name": "vestCreated",
      "outputs": [
        {
          "internalType": "bool",
          "name": "",
          "type": "bool"
        }
      ],
      "stateMutability": "nonpayable",
      "type": "function"
    },
    {
      "inputs": [
        {
          "internalType": "address",
          "name": "",
          "type": "address"
        },
        {
          "internalType": "bytes32",
          "name": "",
          "type": "bytes32"
        },
        {
          "internalType": "address",
          "name": "",
          "type": "address"
        }
      ],
      "name": "vestingInfos",
      "outputs": [
        {
          "internalType": "uint256",
          "name": "tokenAmount",
          "type": "uint256"
        },
        {
          "internalType": "bool",
          "name": "created",
          "type": "bool"
        }
      ],
      "stateMutability": "view",
      "type": "function"
    }
  ],
  "bytecode": "0x608060405234801561001057600080fd5b50612f17806100206000396000f3fe608060405234801561001057600080fd5b50600436106100c95760003560e01c80635d5cdb32116100815780636da0ce361161005b5780636da0ce36146101b5578063a60e68fe146101c8578063cb22a226146101db57600080fd5b80635d5cdb321461018d578063620ee042146101a25780636cb4e9eb146100ce57600080fd5b8063309f0118116100b2578063309f011814610146578063560dbdd714610159578063595857981461016c57600080fd5b806301e6aa02146100ce5780631190b0a6146100f6575b600080fd5b6100e16100dc366004612c6f565b6101ee565b60405190151581526020015b60405180910390f35b61013161010436600461291e565b60026020908152600093845260408085208252928452828420905282529020805460019091015460ff1682565b604080519283529015156020830152016100ed565b6100e1610154366004612c6f565b61022a565b6100e1610167366004612c6f565b610669565b61017f61017a366004612c6f565b6107d0565b6040519081526020016100ed565b6101a061019b366004612bc3565b610f00565b005b6100e16101b0366004612c6f565b611bab565b61017f6101c3366004612c83565b611ccb565b6101a06101d6366004612c83565b611e47565b61017f6101e9366004612c6f565b611f3a565b6001600160a01b03808416600090815260026020908152604080832086845282528083209385168352929052206001015460ff165b9392505050565b604051632c9f4b5b60e11b81527fb12a3847d47fefceb164b75823af125f9aa82b76938df0ddf08c04cd314ba37c600482015260009081906001600160a01b0386169063593e96b69060240160206040518083038186803b15801561028e57600080fd5b505afa1580156102a2573d6000803e3d6000fd5b505050506040513d601f19601f820116820180604052508101906102c69190612902565b6040516317ba7d8560e01b81527f7a8526bca00f0726b2fab8c3bfd5b00bfa84d07f111e48263b13de605eefcdda60048201529091506000906001600160a01b038716906317ba7d859060240160206040518083038186803b15801561032b57600080fd5b505afa15801561033f573d6000803e3d6000fd5b505050506040513d601f19601f820116820180604052508101906103639190612902565b6040516317ba7d8560e01b81527feae11da953333a83b6467e2193334fb302549e1a42ad5797082aea1ab6be912060048201529091506000906001600160a01b038816906317ba7d859060240160206040518083038186803b1580156103c857600080fd5b505afa1580156103dc573d6000803e3d6000fd5b505050506040513d601f19601f820116820180604052508101906104009190612902565b604051632fd2666560e21b81526001600160a01b0389811660048301526024820189905291925060009184169063bf4999949060440160006040518083038186803b15801561044e57600080fd5b505afa158015610462573d6000803e3d6000fd5b505050506040513d6000823e601f3d908101601f1916820160405261048a919081019061295f565b9091929394959697509091929394959650909192939495509091929394509091929350909192509091509050809150506000826001600160a01b03166275e7eb8a8a8a6040518463ffffffff1660e01b8152600401610509939291906001600160a01b0393841681526020810192909252909116604082015260600190565b604080518083038186803b15801561052057600080fd5b505afa158015610534573d6000803e3d6000fd5b505050506040513d601f19601f820116820180604052508101906105589190612ac8565b915060009050816001600160a01b038716639e3f2d908b8b61057b600189612e6c565b6040516001600160e01b031960e086901b16815260048101939093526001600160a01b039091166024830152604482015260640160206040518083038186803b1580156105c757600080fd5b505afa1580156105db573d6000803e3d6000fd5b505050506040513d601f19601f820116820180604052508101906105ff9190612cd3565b6106099190612e6c565b9050600081118061064657506001600160a01b03808b1660009081526002602090815260408083208d84528252808320938c168352929052205415155b1561065a5760019650505050505050610223565b60009650505050505050610223565b6040516317ba7d8560e01b81527f3c11b775c25636cc8a8e9190d176c127f201e732c93f4d80e9e1d8e36c9d7ecd60048201526000906001600160a01b038516906317ba7d859060240160206040518083038186803b1580156106cb57600080fd5b505afa1580156106df573d6000803e3d6000fd5b505050506040513d601f19601f820116820180604052508101906107039190612902565b6001600160a01b0316336001600160a01b03161461078e5760405162461bcd60e51b815260206004820152602b60248201527f416c6c6f636174696f6e416461707465723a73747265616d437265617465643a60448201527f4163636573732064656e7900000000000000000000000000000000000000000060648201526084015b60405180910390fd5b506001600160a01b039283166000908152600260209081526040808320948352938152838220929094168152925290206001908101805460ff19168217905590565b60006107da6124d4565b604051632c9f4b5b60e11b81527fb12a3847d47fefceb164b75823af125f9aa82b76938df0ddf08c04cd314ba37c60048201526001600160a01b0386169063593e96b69060240160206040518083038186803b15801561083957600080fd5b505afa15801561084d573d6000803e3d6000fd5b505050506040513d601f19601f820116820180604052508101906108719190612902565b6001600160a01b0390811682526040516317ba7d8560e01b81527f7a8526bca00f0726b2fab8c3bfd5b00bfa84d07f111e48263b13de605eefcdda6004820152908616906317ba7d859060240160206040518083038186803b1580156108d657600080fd5b505afa1580156108ea573d6000803e3d6000fd5b505050506040513d601f19601f8201168201806040525081019061090e9190612902565b6001600160a01b0390811660208301526040516317ba7d8560e01b81527feae11da953333a83b6467e2193334fb302549e1a42ad5797082aea1ab6be91206004820152908616906317ba7d859060240160206040518083038186803b15801561097657600080fd5b505afa15801561098a573d6000803e3d6000fd5b505050506040513d601f19601f820116820180604052508101906109ae9190612902565b6001600160a01b03908116604083810191909152516317ba7d8560e01b81527f2207fd6117465cefcba0abc867150698c0464aa41a293ec29ca01b67a6350c3c6004820152908616906317ba7d859060240160206040518083038186803b158015610a1857600080fd5b505afa158015610a2c573d6000803e3d6000fd5b505050506040513d601f19601f82011682018060405250810190610a509190612902565b6001600160a01b0390811660608301526020820151604051632fd2666560e21b8152878316600482015260248101879052600092919091169063bf4999949060440160006040518083038186803b158015610aaa57600080fd5b505afa158015610abe573d6000803e3d6000fd5b505050506040513d6000823e601f3d908101601f19168201604052610ae6919081019061295f565b60808b019790975250505060608701516040517f1005e5b80000000000000000000000000000000000000000000000000000000081526001600160a01b038d81166004830152602482018d905295975060009650941693631005e5b893506044019150610b509050565b60206040518083038186803b158015610b6857600080fd5b505afa158015610b7c573d6000803e3d6000fd5b505050506040513d601f19601f82011682018060405250810190610ba09190612cd3565b83516001600160a01b0316639e3f2d908861babe610bbf600188612e6c565b6040516001600160e01b031960e086901b16815260048101939093526001600160a01b039091166024830152604482015260640160206040518083038186803b158015610c0b57600080fd5b505afa158015610c1f573d6000803e3d6000fd5b505050506040513d601f19601f82011682018060405250810190610c439190612cd3565b610c4d9190612e6c565b60408085015190517e75e7eb0000000000000000000000000000000000000000000000000000000081526001600160a01b038a81166004830152602482018a90528881166044830152929350600092909116906275e7eb90606401604080518083038186803b158015610cbf57600080fd5b505afa158015610cd3573d6000803e3d6000fd5b505050506040513d601f19601f82011682018060405250810190610cf79190612ac8565b85519092506000915082906001600160a01b0316639e3f2d908a8a610d1d60018a612e6c565b6040516001600160e01b031960e086901b16815260048101939093526001600160a01b039091166024830152604482015260640160206040518083038186803b158015610d6957600080fd5b505afa158015610d7d573d6000803e3d6000fd5b505050506040513d601f19601f82011682018060405250810190610da19190612cd3565b610dab9190612e6c565b608086015160c001516040517f9283ae3a0000000000000000000000000000000000000000000000000000000081527fea659d8e1a730b10af1cecb4f8ee391adf80e75302d6aaeb9642dc8a4a5e5dbb600482015291925090600090670de0b6b3a7640000906001600160a01b038d1690639283ae3a9060240160206040518083038186803b158015610e3d57600080fd5b505afa158015610e51573d6000803e3d6000fd5b505050506040513d601f19601f82011682018060405250810190610e759190612cd3565b610e7f9084612e2f565b610e899190612e0f565b90506000610e988c8c85611ccb565b905080610ea58385612e6c565b610eaf9190612e6c565b9250851580610ebc575083155b80610ec5575082155b15610edb57600098505050505050505050610223565b85610ee68486612e2f565b610ef09190612e0f565b9c9b505050505050505050505050565b6040516317ba7d8560e01b81527f7a8526bca00f0726b2fab8c3bfd5b00bfa84d07f111e48263b13de605eefcdda60048201526001600160a01b038616906317ba7d859060240160206040518083038186803b158015610f5f57600080fd5b505afa158015610f73573d6000803e3d6000fd5b505050506040513d601f19601f82011682018060405250810190610f979190612902565b6001600160a01b0316336001600160a01b03161461101d5760405162461bcd60e51b815260206004820152602160248201527f616c6c6f6361746550726f6a656374546f6b656e3a3a6163636573732064656e60448201527f79000000000000000000000000000000000000000000000000000000000000006064820152608401610785565b6110d960405180610260016040528060006001600160a01b0316815260200160006001600160a01b03168152602001600081526020016000815260200160008152602001600060ff1681526020016000815260200160008152602001600081526020016000815260200160008152602001600081526020016000815260200160006001600160a01b0316815260200160006001600160a01b03168152602001600081526020016000815260200160008152602001600081525090565b815161010082015260208201516101208201526040808301516101408301526060830151610160830152608083015161018083015251632c9f4b5b60e11b81527fb12a3847d47fefceb164b75823af125f9aa82b76938df0ddf08c04cd314ba37c60048201526001600160a01b0387169063593e96b69060240160206040518083038186803b15801561116b57600080fd5b505afa15801561117f573d6000803e3d6000fd5b505050506040513d601f19601f820116820180604052508101906111a39190612902565b6001600160a01b0390811682526101008201516040516317ba7d8560e01b81527f43f8439a5cef099d0d9a92b15a64e34ff49963bb29d65f63204eda6591b810a1600482015290918781169163dd62ed3e918a16906317ba7d859060240160206040518083038186803b15801561121957600080fd5b505afa15801561122d573d6000803e3d6000fd5b505050506040513d601f19601f820116820180604052508101906112519190612902565b6040516001600160e01b031960e084901b1681526001600160a01b03909116600482015230602482015260440160206040518083038186803b15801561129657600080fd5b505afa1580156112aa573d6000803e3d6000fd5b505050506040513d601f19601f820116820180604052508101906112ce9190612cd3565b10156113425760405162461bcd60e51b815260206004820152603f60248201527f416c6c6f636174696f6e416461707465723a3a616c6c6f6361746550726f6a6560448201527f6374546f6b656e3a3a696e73756666696369656e7420616c6c6f77616e6365006064820152608401610785565b6040516317ba7d8560e01b81527f43f8439a5cef099d0d9a92b15a64e34ff49963bb29d65f63204eda6591b810a160048201526001600160a01b03808716916323b872dd918916906317ba7d859060240160206040518083038186803b1580156113ab57600080fd5b505afa1580156113bf573d6000803e3d6000fd5b505050506040513d601f19601f820116820180604052508101906113e39190612902565b6101008401516040516001600160e01b031960e085901b1681526001600160a01b0390921660048301523060248301526044820152606401602060405180830381600087803b15801561143557600080fd5b505af1158015611449573d6000803e3d6000fd5b505050506040513d601f19601f8201168201806040525081019061146d9190612ba9565b506040517f9283ae3a0000000000000000000000000000000000000000000000000000000081527fea659d8e1a730b10af1cecb4f8ee391adf80e75302d6aaeb9642dc8a4a5e5dbb6004820152670de0b6b3a7640000906001600160a01b03881690639283ae3a9060240160206040518083038186803b1580156114f057600080fd5b505afa158015611504573d6000803e3d6000fd5b505050506040513d601f19601f820116820180604052508101906115289190612cd3565b8261010001516115389190612e2f565b6115429190612e0f565b61024082015261010081015161155b9087908590611ccb565b60e0820152610240810151156116e7576040517ffd310d290000000000000000000000000000000000000000000000000000000081527f8987d08c67963e4cacd5e5936c122a968c66853d58299dd822c194222710983960048201526001600160a01b0387169063fd310d299060240160206040518083038186803b1580156115e357600080fd5b505afa1580156115f7573d6000803e3d6000fd5b505050506040513d601f19601f8201168201806040525081019061161b9190612902565b6001600160a01b039081166101c083019081526040805180820182526102408501518a85166000908152600260209081528482208a835281528482209551909616815293909452912054909182916116739190612df7565b8152600060209182018190526001600160a01b03898116825260028352604080832088845284528083206101c08701519092168352908352908190208351815592909101516001909201805460ff19169215159290921790915561024082015190820180516116e3908390612df7565b9052505b80516040517fe38a5a64000000000000000000000000000000000000000000000000000000008152600481018590526000916001600160a01b03169063e38a5a649060240160006040518083038186803b15801561174457600080fd5b505afa158015611758573d6000803e3d6000fd5b505050506040513d6000823e601f3d908101601f191682016040526117809190810190612af5565b90506001600160a01b038516156118545760e0820151156118545760408051808201825260e08401516001600160a01b03808b166000908152600260209081528582208a83528152858220928b168252919091529290922054909182916117e79190612df7565b8152600060209182018190526001600160a01b038a811682526002835260408083208984528452808320918a168352908352908190208351815592909101516001909201805460ff19169215159290921790915560e08301519083018051611850908390612df7565b9052505b816101000151826040015111156118f95760405162461bcd60e51b815260206004820152605c60248201527f416c6c6f636174696f6e416461707465723a3a616c6c6f6361746550726f6a6560448201527f6374546f6b656e3a3a6469737472696275746520746f6b656e20616d6f756e7460648201527f2065786365656473207472616e64696e67206f666620616d6f756e7400000000608482015260a401610785565b856001600160a01b031663dd62ed3e30896001600160a01b03166317ba7d857fdfea78be99560632cc4c199ca1b0d68ffe0bbbb07b685976cefc8820374ac73a6040518263ffffffff1660e01b815260040161195791815260200190565b60206040518083038186803b15801561196f57600080fd5b505afa158015611983573d6000803e3d6000fd5b505050506040513d601f19601f820116820180604052508101906119a79190612902565b6040516001600160e01b031960e085901b1681526001600160a01b0392831660048201529116602482015260440160206040518083038186803b1580156119ed57600080fd5b505afa158015611a01573d6000803e3d6000fd5b505050506040513d601f19601f82011682018060405250810190611a259190612cd3565b60608301819052610100830151611a3b91612df7565b60808301526040516317ba7d8560e01b81527fdfea78be99560632cc4c199ca1b0d68ffe0bbbb07b685976cefc8820374ac73a60048201526001600160a01b038781169163095ea7b3918a16906317ba7d859060240160206040518083038186803b158015611aa957600080fd5b505afa158015611abd573d6000803e3d6000fd5b505050506040513d601f19601f82011682018060405250810190611ae19190612902565b60808501516040516001600160e01b031960e085901b1681526001600160a01b0390921660048301526024820152604401602060405180830381600087803b158015611b2c57600080fd5b505af1158015611b40573d6000803e3d6000fd5b505050506040513d601f19601f82011682018060405250810190611b649190612ba9565b507f7e0d2bb4312363eed7035f178b6a354ed747e50a3c12bd89e44a676e0d81ab0f84888784604051611b9a9493929190612ceb565b60405180910390a150505050505050565b6040516317ba7d8560e01b81527ffacef1ff9551e6c96f09b108d715442c90dfae3b4f77a7691c0ddff9cef28d3560048201526000906001600160a01b038516906317ba7d859060240160206040518083038186803b158015611c0d57600080fd5b505afa158015611c21573d6000803e3d6000fd5b505050506040513d601f19601f82011682018060405250810190611c459190612902565b6001600160a01b0316336001600160a01b03161461078e5760405162461bcd60e51b815260206004820152602760248201527f416c6c6f636174696f6e416461707465723a6e66744d696e7465643a4163636560448201527f73732064656e79000000000000000000000000000000000000000000000000006064820152608401610785565b6040516317ba7d8560e01b81527f7a8526bca00f0726b2fab8c3bfd5b00bfa84d07f111e48263b13de605eefcdda600482015260009081906001600160a01b038616906317ba7d859060240160206040518083038186803b158015611d2f57600080fd5b505afa158015611d43573d6000803e3d6000fd5b505050506040513d601f19601f82011682018060405250810190611d679190612902565b9050611d86604051806040016040528060008152602001600081525090565b604051632fd2666560e21b81526001600160a01b0387811660048301526024820187905283169063bf4999949060440160006040518083038186803b158015611dce57600080fd5b505afa158015611de2573d6000803e3d6000fd5b505050506040513d6000823e601f3d908101601f19168201604052611e0a919081019061295f565b5050825192975060009650670de0b6b3a76400009550611e329450919250899150612e2f9050565b611e3c9190612e0f565b979650505050505050565b6040517f68c18beb00000000000000000000000000000000000000000000000000000000815233600482015283906001600160a01b038216906368c18beb9060240160206040518083038186803b158015611ea157600080fd5b505afa158015611eb5573d6000803e3d6000fd5b505050506040513d601f19601f82011682018060405250810190611ed99190612ba9565b80611ee85750611ee881612295565b611f345760405162461bcd60e51b815260206004820152600b60248201527f6f6e6c79416461707465720000000000000000000000000000000000000000006044820152606401610785565b50505050565b6040516317ba7d8560e01b81527f7a8526bca00f0726b2fab8c3bfd5b00bfa84d07f111e48263b13de605eefcdda600482015260009081906001600160a01b038616906317ba7d859060240160206040518083038186803b158015611f9e57600080fd5b505afa158015611fb2573d6000803e3d6000fd5b505050506040513d601f19601f82011682018060405250810190611fd69190612902565b604051632c9f4b5b60e11b81527fb12a3847d47fefceb164b75823af125f9aa82b76938df0ddf08c04cd314ba37c60048201529091506000906001600160a01b0387169063593e96b69060240160206040518083038186803b15801561203b57600080fd5b505afa15801561204f573d6000803e3d6000fd5b505050506040513d601f19601f820116820180604052508101906120739190612902565b604051632fd2666560e21b81526001600160a01b0388811660048301526024820188905291925060009184169063bf4999949060440160006040518083038186803b1580156120c157600080fd5b505afa1580156120d5573d6000803e3d6000fd5b505050506040513d6000823e601f3d908101601f191682016040526120fd919081019061295f565b98506000975050506001600160a01b0388169450639e3f2d9093508b92508a915061212b9050600187612e6c565b6040516001600160e01b031960e086901b16815260048101939093526001600160a01b039091166024830152604482015260640160206040518083038186803b15801561217757600080fd5b505afa15801561218b573d6000803e3d6000fd5b505050506040513d601f19601f820116820180604052508101906121af9190612cd3565b905060006001600160a01b038416639e3f2d908961babe6121d1600188612e6c565b6040516001600160e01b031960e086901b16815260048101939093526001600160a01b039091166024830152604482015260640160206040518083038186803b15801561221d57600080fd5b505afa158015612231573d6000803e3d6000fd5b505050506040513d601f19601f820116820180604052508101906122559190612cd3565b90508015612286578061227083670de0b6b3a7640000612e2f565b61227a9190612e0f565b95505050505050610223565b50600098975050505050505050565b600080826001600160a01b031663c19d93fb6040518163ffffffff1660e01b815260040160206040518083038186803b1580156122d157600080fd5b505afa1580156122e5573d6000803e3d6000fd5b505050506040513d601f19601f820116820180604052508101906123099190612cb7565b600181111561232857634e487b7160e01b600052602160045260246000fd5b1480156124ce5750816001600160a01b031663c67143666040518163ffffffff1660e01b815260040160206040518083038186803b15801561236957600080fd5b505afa15801561237d573d6000803e3d6000fd5b505050506040513d601f19601f820116820180604052508101906123a19190612cd3565b158061243857506040517fa230c5240000000000000000000000000000000000000000000000000000000081523360048201526001600160a01b0383169063a230c5249060240160206040518083038186803b15801561240057600080fd5b505afa158015612414573d6000803e3d6000fd5b505050506040513d601f19601f820116820180604052508101906124389190612ba9565b806124ce57506040517f68c18beb0000000000000000000000000000000000000000000000000000000081523360048201526001600160a01b038316906368c18beb9060240160206040518083038186803b15801561249657600080fd5b505afa1580156124aa573d6000803e3d6000fd5b505050506040513d601f19601f820116820180604052508101906124ce9190612ba9565b92915050565b60405180610160016040528060006001600160a01b0316815260200160006001600160a01b0316815260200160006001600160a01b0316815260200160006001600160a01b031681526020016125aa60405180610180016040528060006001600160a01b0316815260200160008152602001600081526020016000815260200160001515815260200160006001600160a01b031681526020016000815260200160008152602001600081526020016000815260200160006001600160a01b0316815260200160006001600160a01b031681525090565b81526020016000815260200160008152602001600081526020016000815260200160008152602001600081525090565b80516125e581612eaf565b919050565b805180151581146125e557600080fd5b80516125e581612ec7565b8051600581106125e557600080fd5b600082601f830112612624578081fd5b815167ffffffffffffffff81111561263e5761263e612e99565b602061265281601f19601f85011601612dc6565b8281528582848701011115612665578384fd5b835b83811015612682578581018301518282018401528201612667565b8381111561269257848385840101525b5095945050505050565b600061020082840312156126ae578081fd5b604051610100810181811067ffffffffffffffff821117156126d2576126d2612e99565b6040529050806126e1836125fa565b81526020830151602082015260408301516040820152606083015160608201526080830151608082015261271760a084016125ea565b60a08201526127298460c08501612748565b60c082015261273c8461016085016127bb565b60e08201525092915050565b600060a08284031215612759578081fd5b612761612d55565b9050815161276e81612ed4565b8152602082015163ffffffff8116811461278757600080fd5b6020820152604082015161279a81612eaf565b80604083015250606082015160608201526080820151608082015292915050565b600060a082840312156127cc578081fd5b6127d4612d55565b90506127df826125ea565b8152602082015161278781612ed4565b600060408284031215612800578081fd5b6040516040810181811067ffffffffffffffff8211171561282357612823612e99565b604052825181526020928301519281019290925250919050565b6000610120828403121561284f578081fd5b612857612d7e565b9050815181526020820151602082015260408201516040820152606082015160608201526080820151608082015261289160a083016125ea565b60a08201526128a260c083016125da565b60c082015260e082015167ffffffffffffffff808211156128c257600080fd5b6128ce85838601612614565b60e0840152610100915081840151818111156128e957600080fd5b6128f586828701612614565b8385015250505092915050565b600060208284031215612913578081fd5b815161022381612eaf565b600080600060608486031215612932578182fd5b833561293d81612eaf565b925060208401359150604084013561295481612eaf565b809150509250925092565b6000806000806000806000806000898b0361048081121561297e578788fd5b8a5161298981612eaf565b9950610180601f19820181131561299e578889fd5b6129a6612da2565b91506129b460208d016125da565b825260408c0151602083015260608c0151604083015260808c015160608301526129e060a08d016125ea565b60808301526129f160c08d016125da565b60a083015260e08c015160c0830152610100808d015160e0840152610120808e0151828501526101409150818e01518185015250610160612a33818f016125da565b82850152612a42838f016125da565b9084015250506101a08b015190985067ffffffffffffffff811115612a65578788fd5b612a718c828d0161283d565b975050612a828b6101c08c0161269c565b9550612a928b6103c08c016127ef565b94506104008a015193506104208a01519250612ab16104408b01612605565b91506104608a015190509295985092959850929598565b60008060408385031215612ada578182fd5b8251612ae581612eaf565b6020939093015192949293505050565b60006020808385031215612b07578182fd5b825167ffffffffffffffff80821115612b1e578384fd5b818501915085601f830112612b31578384fd5b815181811115612b4357612b43612e99565b8060051b9150612b54848301612dc6565b8181528481019084860184860187018a1015612b6e578788fd5b8795505b83861015612b9c5780519450612b8785612eaf565b84835260019590950194918601918601612b72565b5098975050505050505050565b600060208284031215612bba578081fd5b610223826125ea565b6000806000806000610120808789031215612bdc578384fd5b8635612be781612eaf565b9550602087810135612bf881612eaf565b95506040880135612c0881612eaf565b945060608801359350609f88018913612c1f578283fd5b612c27612d55565b8060808a018b858c011115612c3a578586fd5b8594505b6005851015612c5d578035835260019490940193918301918301612c3e565b50809450505050509295509295909350565b600080600060608486031215612932578081fd5b600080600060608486031215612c97578081fd5b8335612ca281612eaf565b95602085013595506040909401359392505050565b600060208284031215612cc8578081fd5b815161022381612ec7565b600060208284031215612ce4578081fd5b5051919050565b60006080820186835260206001600160a01b038088168286015280871660408601526080606086015282865180855260a0870191508388019450855b81811015612d45578551841683529484019491840191600101612d27565b50909a9950505050505050505050565b60405160a0810167ffffffffffffffff81118282101715612d7857612d78612e99565b60405290565b604051610120810167ffffffffffffffff81118282101715612d7857612d78612e99565b604051610180810167ffffffffffffffff81118282101715612d7857612d78612e99565b604051601f8201601f1916810167ffffffffffffffff81118282101715612def57612def612e99565b604052919050565b60008219821115612e0a57612e0a612e83565b500190565b600082612e2a57634e487b7160e01b81526012600452602481fd5b500490565b6000817fffffffffffffffffffffffffffffffffffffffffffffffffffffffffffffffff0483118215151615612e6757612e67612e83565b500290565b600082821015612e7e57612e7e612e83565b500390565b634e487b7160e01b600052601160045260246000fd5b634e487b7160e01b600052604160045260246000fd5b6001600160a01b0381168114612ec457600080fd5b50565b60028110612ec457600080fd5b60048110612ec457600080fdfea26469706673582212207401a6296ec693b799fde5722c50ded26f1096211ebac1f8308bc0d3e2d3396e64736f6c63430008040033",
  "linkReferences": {},
  "deployedLinkReferences": {}
}