{
  "_format": "hh-sol-artifact-1",
  "contractName": "FlexGovernorVotingAssetAllocationProposalAdapterContract",
  "sourceName": "contracts/flex/adatpers/FlexGovernorVotingAssetAllocationProposalAdapter.sol",
  "abi": [
    {
      "inputs": [],
      "name": "ADAPTER_NOT_FUND",
      "type": "error"
    },
    {
      "inputs": [],
      "name": "INVALID_GOVERNOR",
      "type": "error"
    },
    {
      "inputs": [],
      "name": "INVALID_PARAMS",
      "type": "error"
    },
    {
      "inputs": [],
      "name": "PROPOSAL_ALREADY_PROCESSED",
      "type": "error"
    },
    {
      "inputs": [],
      "name": "PROPOSAL_HAS_NOT_BEEN_VOTED_ON_YET",
      "type": "error"
    },
    {
      "anonymous": false,
      "inputs": [
        {
          "indexed": false,
          "internalType": "address",
          "name": "daoAddr",
          "type": "address"
        },
        {
          "indexed": false,
          "internalType": "bytes32",
          "name": "proposalId",
          "type": "bytes32"
        },
        {
          "indexed": false,
          "internalType": "address[]",
          "name": "governors",
          "type": "address[]"
        },
        {
          "indexed": false,
          "internalType": "uint256[]",
          "name": "allocations",
          "type": "uint256[]"
        },
        {
          "indexed": false,
          "internalType": "uint256",
          "name": "stopVoteTime",
          "type": "uint256"
        }
      ],
      "name": "ProposalCreated",
      "type": "event"
    },
    {
      "anonymous": false,
      "inputs": [
        {
          "indexed": false,
          "internalType": "address",
          "name": "daoAddr",
          "type": "address"
        },
        {
          "indexed": false,
          "internalType": "bytes32",
          "name": "proposalId",
          "type": "bytes32"
        },
        {
          "indexed": false,
          "internalType": "enum FlexGovernorVotingAssetAllocationProposalAdapterContract.ProposalState",
          "name": "state",
          "type": "uint8"
        },
        {
          "indexed": false,
          "internalType": "uint128",
          "name": "allVotingWeight",
          "type": "uint128"
        },
        {
          "indexed": false,
          "internalType": "uint256",
          "name": "nbYes",
          "type": "uint256"
        },
        {
          "indexed": false,
          "internalType": "uint256",
          "name": "nbNo",
          "type": "uint256"
        },
        {
          "indexed": false,
          "internalType": "uint256",
          "name": "voteResult",
          "type": "uint256"
        }
      ],
      "name": "ProposalProcessed",
      "type": "event"
    },
    {
      "inputs": [
        {
          "internalType": "contract DaoRegistry",
          "name": "dao",
          "type": "address"
        },
        {
          "internalType": "address",
          "name": "_addr",
          "type": "address"
        }
      ],
      "name": "isActiveMember",
      "outputs": [
        {
          "internalType": "bool",
          "name": "",
          "type": "bool"
        }
      ],
      "stateMutability": "view",
      "type": "function"
    },
    {
      "inputs": [
        {
          "internalType": "contract DaoRegistry",
          "name": "",
          "type": "address"
        }
      ],
      "name": "ongoingProposal",
      "outputs": [
        {
          "internalType": "bytes32",
          "name": "",
          "type": "bytes32"
        }
      ],
      "stateMutability": "view",
      "type": "function"
    },
    {
      "inputs": [
        {
          "internalType": "contract DaoRegistry",
          "name": "dao",
          "type": "address"
        },
        {
          "internalType": "bytes32",
          "name": "proposalId",
          "type": "bytes32"
        }
      ],
      "name": "processProposal",
      "outputs": [],
      "stateMutability": "nonpayable",
      "type": "function"
    },
    {
      "inputs": [
        {
          "internalType": "contract DaoRegistry",
          "name": "",
          "type": "address"
        },
        {
          "internalType": "bytes32",
          "name": "",
          "type": "bytes32"
        }
      ],
      "name": "proposals",
      "outputs": [
        {
          "internalType": "address",
          "name": "proposer",
          "type": "address"
        },
        {
          "components": [
            {
              "internalType": "uint256[]",
              "name": "allocs",
              "type": "uint256[]"
            }
          ],
          "internalType": "struct FlexGovernorVotingAssetAllocationProposalAdapterContract.VotingAllocation",
          "name": "allocs",
          "type": "tuple"
        },
        {
          "components": [
            {
              "internalType": "address[]",
              "name": "governors",
              "type": "address[]"
            }
          ],
          "internalType": "struct FlexGovernorVotingAssetAllocationProposalAdapterContract.VotingGovernor",
          "name": "govs",
          "type": "tuple"
        },
        {
          "internalType": "uint256",
          "name": "creationTime",
          "type": "uint256"
        },
        {
          "internalType": "uint256",
          "name": "stopVoteTime",
          "type": "uint256"
        },
        {
          "internalType": "enum FlexGovernorVotingAssetAllocationProposalAdapterContract.ProposalState",
          "name": "state",
          "type": "uint8"
        }
      ],
      "stateMutability": "view",
      "type": "function"
    },
    {
      "inputs": [
        {
          "internalType": "contract DaoRegistry",
          "name": "dao",
          "type": "address"
        },
        {
          "internalType": "address[]",
          "name": "govs",
          "type": "address[]"
        },
        {
          "internalType": "uint256[]",
          "name": "allocs",
          "type": "uint256[]"
        }
      ],
      "name": "submitProposal",
      "outputs": [],
      "stateMutability": "nonpayable",
      "type": "function"
    }
  ],
  "bytecode": "0x608060405234801561001057600080fd5b50612d9b806100206000396000f3fe608060405234801561001057600080fd5b50600436106100675760003560e01c80638ecf7720116100505780638ecf7720146100c85780639573167d146100eb578063fde92fcf1461010057600080fd5b80635cb752761461006c57806362e86df51461009a575b600080fd5b61007f61007a366004612854565b610113565b60405161009196959493929190612ae4565b60405180910390f35b6100ba6100a8366004612651565b60016020526000908152604090205481565b604051908152602001610091565b6100db6100d636600461279c565b610217565b6040519015158152602001610091565b6100fe6100f9366004612854565b6102b6565b005b6100fe61010e3660046127d4565b610709565b6000602081815292815260408082208452918152819020805482516001830180548087028301860186529582018681526001600160a01b039093169593949193909284929091849184018282801561018a57602002820191906000526020600020905b815481526020019060010190808311610176575b5050509190925250506040805160028501805460208181028401850185528301818152959695929450909284929184918401828280156101f357602002820191906000526020600020905b81546001600160a01b031681526001909101906020018083116101d5575b50505091909252505050600382015460048301546005909301549192909160ff1686565b6040517fa230c5240000000000000000000000000000000000000000000000000000000081526001600160a01b0382811660048301526000919084169063a230c5249060240160206040518083038186803b15801561027557600080fd5b505afa158015610289573d6000803e3d6000fd5b505050506040513d601f19601f820116820180604052508101906102ad9190612757565b90505b92915050565b6001600160a01b0382166000818152602081815260408083208584529091529081902090517ff941f69100000000000000000000000000000000000000000000000000000000815290919063f941f69190610318908590600290600401612b77565b60206040518083038186803b15801561033057600080fd5b505afa158015610344573d6000803e3d6000fd5b505050506040513d601f19601f820116820180604052508101906103689190612757565b1561039f576040517f35153ac400000000000000000000000000000000000000000000000000000000815260040160405180910390fd5b6040516317ba7d8560e01b81527f0d479c38716a0298633b1dbf1ce145a3fbd1d79ca4527de172afc3bad04a2ba760048201526000906001600160a01b038516906317ba7d859060240160206040518083038186803b15801561040157600080fd5b505afa158015610415573d6000803e3d6000fd5b505050506040513d601f19601f820116820180604052508101906104399190612674565b90506001600160a01b03811661047b576040517f5d78cd3c00000000000000000000000000000000000000000000000000000000815260040160405180910390fd5b6040517f76225e730000000000000000000000000000000000000000000000000000000081526001600160a01b0385811660048301526024820185905260009182918291908516906376225e7390604401606060405180830381600087803b1580156104e657600080fd5b505af11580156104fa573d6000803e3d6000fd5b505050506040513d601f19601f8201168201806040525081019061051e919061287f565b9194509250905060006105318888610f49565b6040517f30490e91000000000000000000000000000000000000000000000000000000008152600481018990529091506001600160a01b038916906330490e9190602401600060405180830381600087803b15801561058f57600080fd5b505af11580156105a3573d6000803e3d6000fd5b50600292506105b0915050565b8460058111156105d057634e487b7160e01b600052602160045260246000fd5b14156105f45760058601805460ff191660011790556105ef8888611209565b61068c565b600384600581111561061657634e487b7160e01b600052602160045260246000fd5b14806106415750600184600581111561063f57634e487b7160e01b600052602160045260246000fd5b145b1561065a5760058601805460ff1916600317905561068c565b6040517fe2489e3300000000000000000000000000000000000000000000000000000000815260040160405180910390fd5b7f7ab29e6deeb60f3b76461422909b7ae5bda1be890b270b70c56a32d54cd2a45688888860050160009054906101000a900460ff168487878a60058111156106e457634e487b7160e01b600052602160045260246000fd5b6040516106f79796959493929190612a8a565b60405180910390a15050505050505050565b84600061071582611400565b90508661072281336116ea565b85841461075b576040517f6a9c3ed500000000000000000000000000000000000000000000000000000000815260040160405180910390fd5b61076688888861175e565b876001600160a01b03166383b8e61e6040518163ffffffff1660e01b8152600401600060405180830381600087803b1580156107a157600080fd5b505af11580156107b5573d6000803e3d6000fd5b5050505060006108608960c01b61083b8b6001600160a01b031663be29984e6040518163ffffffff1660e01b815260040160206040518083038186803b1580156107fe57600080fd5b505afa158015610812573d6000803e3d6000fd5b505050506040513d601f19601f8201168201806040525081019061083691906128e8565b611896565b60405160200161084c929190612965565b6040516020818303038152906040526119ec565b604051634941d71d60e11b81527f9876c0f0505bfb2b1c38d3bbd25ba13159172cd0868972d76927723f5a9480fc60048201529091506000906001600160a01b038b1690639283ae3a9060240160206040518083038186803b1580156108c557600080fd5b505afa1580156108d9573d6000803e3d6000fd5b505050506040513d601f19601f820116820180604052508101906108fd91906128e8565b6109079042612c19565b90506040518060c00160405280336001600160a01b0316815260200160405180602001604052808c8c905067ffffffffffffffff81111561095857634e487b7160e01b600052604160045260246000fd5b604051908082528060200260200182016040528015610981578160200160208202803683370190505b50815250815260200160405180602001604052808c8c905067ffffffffffffffff8111156109bf57634e487b7160e01b600052604160045260246000fd5b6040519080825280602002602001820160405280156109e8578160200160208202803683370190505b509052815242602082015260408101839052606001600090526001600160a01b038b811660009081526020818152604080832087845282529091208351815473ffffffffffffffffffffffffffffffffffffffff19169316929092178255828101518051805191926001850192610a629284920190612525565b5050506040820151805180516002840191610a8291839160200190612570565b505050606082015181600301556080820151816004015560a08201518160050160006101000a81548160ff02191690836003811115610ad157634e487b7160e01b600052602160045260246000fd5b021790555090505060005b60ff8116891115610c305787878260ff16818110610b0a57634e487b7160e01b600052603260045260246000fd5b6001600160a01b038e166000908152602081815260408083208984528252909120600101805492909102939093013592915060ff8416908110610b5d57634e487b7160e01b600052603260045260246000fd5b600091825260209091200155898960ff8316818110610b8c57634e487b7160e01b600052603260045260246000fd5b9050602002016020810190610ba19190612651565b6001600160a01b038c166000908152602081815260408083208784529091529020600201805460ff8416908110610be857634e487b7160e01b600052603260045260246000fd5b6000918252602090912001805473ffffffffffffffffffffffffffffffffffffffff19166001600160a01b039290921691909117905580610c2881612cc1565b915050610adc565b506001600160a01b038a16600081815260016020526040808220859055516317ba7d8560e01b81527f0d479c38716a0298633b1dbf1ce145a3fbd1d79ca4527de172afc3bad04a2ba760048201529091906317ba7d859060240160206040518083038186803b158015610ca257600080fd5b505afa158015610cb6573d6000803e3d6000fd5b505050506040513d601f19601f82011682018060405250810190610cda9190612674565b6040517fb73dc389000000000000000000000000000000000000000000000000000000008152600481018590529091506001600160a01b038c169063b73dc38990602401600060405180830381600087803b158015610d3857600080fd5b505af1158015610d4c573d6000803e3d6000fd5b50506040516317ba7d8560e01b81527f0d479c38716a0298633b1dbf1ce145a3fbd1d79ca4527de172afc3bad04a2ba760048201526001600160a01b038e16925063815a2bf49150859083906317ba7d859060240160206040518083038186803b158015610db957600080fd5b505afa158015610dcd573d6000803e3d6000fd5b505050506040513d601f19601f82011682018060405250810190610df19190612674565b6040517fffffffff0000000000000000000000000000000000000000000000000000000060e085901b16815260048101929092526001600160a01b03166024820152604401600060405180830381600087803b158015610e5057600080fd5b505af1158015610e64573d6000803e3d6000fd5b5050604080516020810182526000815290517f2b0974d00000000000000000000000000000000000000000000000000000000081526001600160a01b0385169350632b0974d09250610ebd918f91889190600401612b9b565b600060405180830381600087803b158015610ed757600080fd5b505af1158015610eeb573d6000803e3d6000fd5b505050507f1a430b52b7d2c175591f9e71d42ec16859629de97bdb96f0513d7dc639159f4a8b848c8c8c8c88604051610f2a97969594939291906129d3565b60405180910390a150505050610f408282611a08565b50505050505050565b600080610f5584611a13565b6040516317ba7d8560e01b81527f0d479c38716a0298633b1dbf1ce145a3fbd1d79ca4527de172afc3bad04a2ba7600482015290915060009081906001600160a01b038716906317ba7d859060240160206040518083038186803b158015610fbc57600080fd5b505afa158015610fd0573d6000803e3d6000fd5b505050506040513d601f19601f82011682018060405250810190610ff49190612674565b905060005b83518160ff1610156111fe57816001600160a01b03166324a2cceb8888878560ff168151811061103957634e487b7160e01b600052603260045260246000fd5b60200260200101516040518463ffffffff1660e01b815260040161107d939291906001600160a01b0393841681526020810192909252909116604082015260600190565b60206040518083038186803b15801561109557600080fd5b505afa1580156110a9573d6000803e3d6000fd5b505050506040513d601f19601f820116820180604052508101906110cd9190612757565b156111ab57816001600160a01b03166391d2fd538888878560ff168151811061110657634e487b7160e01b600052603260045260246000fd5b60200260200101516040518463ffffffff1660e01b815260040161114a939291906001600160a01b0393841681526020810192909252909116604082015260600190565b60206040518083038186803b15801561116257600080fd5b505afa158015611176573d6000803e3d6000fd5b505050506040513d601f19601f8201168201806040525081019061119a91906128b8565b6111a49084612be5565b92506111ec565b6111df87858360ff16815181106111d257634e487b7160e01b600052603260045260246000fd5b6020026020010151611a8a565b6111e99084612be5565b92505b806111f681612cc1565b915050610ff9565b509095945050505050565b6001600160a01b03821660009081526020818152604080832084845290915290206002810154156113fb576040516317ba7d8560e01b81527f37cbe06c1044f98864ea25736326bc1d488e24e5e23781ea2ad64c4069cb9e6e60048201526000906001600160a01b038516906317ba7d859060240160206040518083038186803b15801561129657600080fd5b505afa1580156112aa573d6000803e3d6000fd5b505050506040513d601f19601f820116820180604052508101906112ce9190612674565b905060005b600283015460ff821610156113f857816001600160a01b0316635f15b1d986856002016000018460ff168154811061131b57634e487b7160e01b600052603260045260246000fd5b6000918252602090912001546001870180546001600160a01b039092169160ff871690811061135a57634e487b7160e01b600052603260045260246000fd5b6000918252602090912001546040517fffffffff0000000000000000000000000000000000000000000000000000000060e086901b1681526001600160a01b0393841660048201529290911660248301526044820152606401600060405180830381600087803b1580156113cd57600080fd5b505af11580156113e1573d6000803e3d6000fd5b5050505080806113f090612cc1565b9150506112d3565b50505b505050565b6040805160808101825260008082526020820181905291810182905260608101919091525a81600001818152505043826001600160a01b031663b21634826040518163ffffffff1660e01b815260040160206040518083038186803b15801561146857600080fd5b505afa15801561147c573d6000803e3d6000fd5b505050506040513d601f19601f820116820180604052508101906114a091906128e8565b141561150d576040517f08c379a000000000000000000000000000000000000000000000000000000000815260206004820152601060248201527f7265656e7472616e63792067756172640000000000000000000000000000000060448201526064015b60405180910390fd5b816001600160a01b03166310fdb0a26040518163ffffffff1660e01b8152600401600060405180830381600087803b15801561154857600080fd5b505af115801561155c573d6000803e3d6000fd5b50506040517f72c6838f0000000000000000000000000000000000000000000000000000000081527f1f2fd42ad6a6cacd573c4b212beb7a4e2499ad45d742a65337097f130e71daff6004820152600092506001600160a01b03851691506372c6838f9060240160206040518083038186803b1580156115db57600080fd5b505afa1580156115ef573d6000803e3d6000fd5b505050506040513d601f19601f820116820180604052508101906116139190612674565b90506001600160a01b03811661162f57600060208301526116e4565b6001600160a01b038181166060840181905283516040517f43a8a3f1000000000000000000000000000000000000000000000000000000008152928616600484015260248301526000918291906343a8a3f190604401604080518083038186803b15801561169c57600080fd5b505afa1580156116b0573d6000803e3d6000fd5b505050506040513d601f19601f820116820180604052508101906116d49190612771565b9015156020860152604085015250505b50919050565b6116f48282610217565b61175a576040517f08c379a000000000000000000000000000000000000000000000000000000000815260206004820152600c60248201527f6f6e6c79476f7665726e6f7200000000000000000000000000000000000000006044820152606401611504565b5050565b80156113fb5760005b60ff811682111561189057836001600160a01b031663a230c52484848460ff168181106117a457634e487b7160e01b600052603260045260246000fd5b90506020020160208101906117b99190612651565b6040517fffffffff0000000000000000000000000000000000000000000000000000000060e084901b1681526001600160a01b03909116600482015260240160206040518083038186803b15801561181057600080fd5b505afa158015611824573d6000803e3d6000fd5b505050506040513d601f19601f820116820180604052508101906118489190612757565b61187e576040517f24acff8400000000000000000000000000000000000000000000000000000000815260040160405180910390fd5b8061188881612cc1565b915050611767565b50505050565b6060816118d657505060408051808201909152600181527f3000000000000000000000000000000000000000000000000000000000000000602082015290565b8160005b811561190057806118ea81612c88565b91506118f99050600a83612c31565b91506118da565b60008167ffffffffffffffff81111561192957634e487b7160e01b600052604160045260246000fd5b6040519080825280601f01601f191660200182016040528015611953576020820181803683370190505b5090505b84156119e457611968600183612c45565b9150611975600a86612ce1565b611980906030612c19565b60f81b8183815181106119a357634e487b7160e01b600052603260045260246000fd5b60200101907effffffffffffffffffffffffffffffffffffffffffffffffffffffffffffff1916908160001a9053506119dd600a86612c31565b9450611957565b949350505050565b6000815160001415611a0057506000919050565b506020015190565b61175a8282336122ef565b6060816001600160a01b031663a6f636416040518163ffffffff1660e01b815260040160006040518083038186803b158015611a4e57600080fd5b505afa158015611a62573d6000803e3d6000fd5b505050506040513d6000823e601f3d908101601f191682016040526102b09190810190612690565b604051634941d71d60e11b81527f75b7d343967750d1f6c15979b7559cea8be22ff1a06a51681b9cbef0d2fff4fe600482015260009081906001600160a01b03851690639283ae3a9060240160206040518083038186803b158015611aee57600080fd5b505afa158015611b02573d6000803e3d6000fd5b505050506040513d601f19601f82011682018060405250810190611b2691906128e8565b604051634941d71d60e11b81527f18ef0b57fe939edb640a200fdf533493bd8f26a274151543a109b64c857e20f360048201529091506000906001600160a01b03861690639283ae3a9060240160206040518083038186803b158015611b8b57600080fd5b505afa158015611b9f573d6000803e3d6000fd5b505050506040513d601f19601f82011682018060405250810190611bc391906128e8565b6040516317ba7d8560e01b81527f37cbe06c1044f98864ea25736326bc1d488e24e5e23781ea2ad64c4069cb9e6e60048201529091506000906001600160a01b038716906317ba7d859060240160206040518083038186803b158015611c2857600080fd5b505afa158015611c3c573d6000803e3d6000fd5b505050506040513d601f19601f82011682018060405250810190611c609190612674565b604051634941d71d60e11b81527f77b1580d1632c74a32483c26a7156260a89ae4138b020ea7d09b0dcf24f1ea2460048201529091506000906001600160a01b03881690639283ae3a9060240160206040518083038186803b158015611cc557600080fd5b505afa158015611cd9573d6000803e3d6000fd5b505050506040513d601f19601f82011682018060405250810190611cfd91906128e8565b6040517ffd310d290000000000000000000000000000000000000000000000000000000081527fb5a1ad3f04728d7c38547e3d43006a1ec090a02fce04bbb1d0ee4519a1921e5760048201529091506000906001600160a01b0389169063fd310d299060240160206040518083038186803b158015611d7b57600080fd5b505afa158015611d8f573d6000803e3d6000fd5b505050506040513d601f19601f82011682018060405250810190611db39190612674565b90508360011415611fd057600085611e5a576040516370a0823160e01b81526001600160a01b038981166004830152670de0b6b3a764000091908416906370a082319060240160206040518083038186803b158015611e1157600080fd5b505afa158015611e25573d6000803e3d6000fd5b505050506040513d601f19601f82011682018060405250810190611e4991906128e8565b611e539190612c31565b9050611f67565b8560011415611edd576040516370a0823160e01b81526001600160a01b0389811660048301528316906370a08231906024015b60206040518083038186803b158015611ea557600080fd5b505afa158015611eb9573d6000803e3d6000fd5b505050506040513d601f19601f82011682018060405250810190611e5391906128e8565b8560021415611f1957604051627eeac760e11b81526001600160a01b0389811660048301526024820185905283169062fdd58e90604401611e8d565b8560031415611f58576040516329b6517360e21b81526001600160a01b038a81166004830152898116602483015285169063a6d945cc90604401611e8d565b600096505050505050506102b0565b60008111611f7e57600096505050505050506102b0565b677fffffffffffffff8110611f9c57603296505050505050506102b0565b6000611fb7611fb2611fad846123f4565b612412565b612509565b67ffffffffffffffff1697506102b09650505050505050565b836002141561214257600085612077576040516370a0823160e01b81526001600160a01b038981166004830152600091908416906370a08231906024015b60206040518083038186803b15801561202657600080fd5b505afa15801561203a573d6000803e3d6000fd5b505050506040513d601f19601f8201168201806040525081019061205e91906128e8565b1161206a57600061206d565b60015b60ff169050612135565b85600114156120b2576040516370a0823160e01b81526001600160a01b038981166004830152600091908416906370a082319060240161200e565b85600214156120f257604051627eeac760e11b81526001600160a01b038981166004830152602482018590526000919084169062fdd58e9060440161200e565b8560031415611f58576040516329b6517360e21b81526001600160a01b038a8116600483015289811660248301526000919086169063a6d945cc9060440161200e565b95506102b0945050505050565b836122e1576000856121e3576040516370a0823160e01b81526001600160a01b038981166004830152670de0b6b3a764000091908416906370a082319060240160206040518083038186803b15801561219a57600080fd5b505afa1580156121ae573d6000803e3d6000fd5b505050506040513d601f19601f820116820180604052508101906121d291906128e8565b6121dc9190612c31565b9050612135565b8560011415612266576040516370a0823160e01b81526001600160a01b0389811660048301528316906370a08231906024015b60206040518083038186803b15801561222e57600080fd5b505afa158015612242573d6000803e3d6000fd5b505050506040513d601f19601f820116820180604052508101906121dc91906128e8565b85600214156122a257604051627eeac760e11b81526001600160a01b0389811660048301526024820185905283169062fdd58e90604401612216565b8560031415611f58576040516329b6517360e21b81526001600160a01b038a81166004830152898116602483015285169063a6d945cc90604401612216565b6000955050505050506102b0565b8160200151156123a55781606001516001600160a01b0316635e5eb01384835a865161231b9190612c45565b60408088015190517fffffffff0000000000000000000000000000000000000000000000000000000060e087901b1681526001600160a01b03948516600482015293909216602484015260448301526064820152608401600060405180830381600087803b15801561238c57600080fd5b505af11580156123a0573d6000803e3d6000fd5b505050505b826001600160a01b031663d4f7af436040518163ffffffff1660e01b8152600401600060405180830381600087803b1580156123e057600080fd5b505af1158015610f40573d6000803e3d6000fd5b6000677fffffffffffffff82111561240b57600080fd5b5060401b90565b60008082600f0b1361242357600080fd5b6000600f83900b680100000000000000008112612442576040918201911d5b6401000000008112612456576020918201911d5b620100008112612468576010918201911d5b6101008112612479576008918201911d5b60108112612489576004918201911d5b60048112612499576002918201911d5b600281126124a8576001820191505b7fffffffffffffffffffffffffffffffffffffffffffffffffffffffffffffffc0820160401b600f85900b607f8490031b6780000000000000005b60008113156111fe5790800260ff81901c8281029390930192607f011c9060011d6124e3565b60008082600f0b121561251b57600080fd5b50600f0b60401d90565b828054828255906000526020600020908101928215612560579160200282015b82811115612560578251825591602001919060010190612545565b5061256c9291506125d2565b5090565b828054828255906000526020600020908101928215612560579160200282015b82811115612560578251825473ffffffffffffffffffffffffffffffffffffffff19166001600160a01b03909116178255602090920191600190910190612590565b5b8082111561256c57600081556001016125d3565b80516125f281612d4d565b919050565b60008083601f840112612608578081fd5b50813567ffffffffffffffff81111561261f578182fd5b6020830191508360208260051b850101111561263a57600080fd5b9250929050565b805180151581146125f257600080fd5b600060208284031215612662578081fd5b813561266d81612d4d565b9392505050565b600060208284031215612685578081fd5b815161266d81612d4d565b600060208083850312156126a2578182fd5b825167ffffffffffffffff808211156126b9578384fd5b818501915085601f8301126126cc578384fd5b8151818111156126de576126de612d37565b8060051b604051601f19603f8301168101818110858211171561270357612703612d37565b604052828152858101935084860182860187018a1015612721578788fd5b8795505b8386101561274a57612736816125e7565b855260019590950194938601938601612725565b5098975050505050505050565b600060208284031215612768578081fd5b6102ad82612641565b60008060408385031215612783578081fd5b61278c83612641565b9150602083015190509250929050565b600080604083850312156127ae578182fd5b82356127b981612d4d565b915060208301356127c981612d4d565b809150509250929050565b6000806000806000606086880312156127eb578081fd5b85356127f681612d4d565b9450602086013567ffffffffffffffff80821115612812578283fd5b61281e89838a016125f7565b90965094506040880135915080821115612836578283fd5b50612843888289016125f7565b969995985093965092949392505050565b60008060408385031215612866578182fd5b823561287181612d4d565b946020939093013593505050565b600080600060608486031215612893578283fd5b8351600681106128a1578384fd5b602085015160409095015190969495509392505050565b6000602082840312156128c9578081fd5b81516fffffffffffffffffffffffffffffffff8116811461266d578182fd5b6000602082840312156128f9578081fd5b5051919050565b6004811061291057612910612d21565b9052565b805160208084528151848201819052600092820190839060408701905b8083101561295a5783516001600160a01b03168252928401926001929092019190840190612931565b509695505050505050565b7fffffffffffffffff000000000000000000000000000000000000000000000000831681527f476f7665726e6f7220416c6c6f636174696f6e202300000000000000000000006008820152600082516129c581601d850160208701612c5c565b91909101601d019392505050565b6001600160a01b038881168252602080830189905260a0604084018190528301879052600091889160c08501845b8a811015612a28578435612a1481612d4d565b841682529382019390820190600101612a01565b5085810360608701528781527f07ffffffffffffffffffffffffffffffffffffffffffffffffffffffffffffff881115612a60578485fd5b8760051b935083898383013790920190910191825250608091909101919091529695505050505050565b6001600160a01b03881681526020810187905260e08101612aae6040830188612900565b6fffffffffffffffffffffffffffffffff861660608301528460808301528360a08301528260c083015298975050505050505050565b6001600160a01b038716815260c060208083018290528751918301819052815160e0840181905260009282019083906101008601905b80831015612b3a5783518252928401926001929092019190840190612b1a565b508581036040870152612b4d818b612914565b945050505050846060830152836080830152612b6c60a0830184612900565b979650505050505050565b8281526040810160038310612b8e57612b8e612d21565b8260208301529392505050565b6001600160a01b03841681528260208201526060604082015260008251806060840152612bcf816080850160208701612c5c565b601f01601f191691909101608001949350505050565b60006fffffffffffffffffffffffffffffffff808316818516808303821115612c1057612c10612cf5565b01949350505050565b60008219821115612c2c57612c2c612cf5565b500190565b600082612c4057612c40612d0b565b500490565b600082821015612c5757612c57612cf5565b500390565b60005b83811015612c77578181015183820152602001612c5f565b838111156118905750506000910152565b60007fffffffffffffffffffffffffffffffffffffffffffffffffffffffffffffffff821415612cba57612cba612cf5565b5060010190565b600060ff821660ff811415612cd857612cd8612cf5565b60010192915050565b600082612cf057612cf0612d0b565b500690565b634e487b7160e01b600052601160045260246000fd5b634e487b7160e01b600052601260045260246000fd5b634e487b7160e01b600052602160045260246000fd5b634e487b7160e01b600052604160045260246000fd5b6001600160a01b0381168114612d6257600080fd5b5056fea2646970667358221220811e14f7fbaa9fe51d78c471541127e37f7ff1242951e65f3541b8e8c355eb2564736f6c63430008040033",
  "linkReferences": {},
  "deployedLinkReferences": {}
}