{
  "_format": "hh-sol-artifact-1",
  "contractName": "FlexFundingAdapterContract",
  "sourceName": "contracts/flex/adatpers/FlexFunding.sol",
  "abi": [
    {
      "inputs": [],
      "name": "ACCESS_DENIED",
      "type": "error"
    },
    {
      "inputs": [],
      "name": "ADAPTER_NOT_FOUND",
      "type": "error"
    },
    {
      "inputs": [],
      "name": "FundRaiseEndTimeNotUP",
      "type": "error"
    },
    {
      "inputs": [],
      "name": "InvalidInvestmentInfoParams",
      "type": "error"
    },
    {
      "inputs": [],
      "name": "InvalidInvestorIdentificationParams",
      "type": "error"
    },
    {
      "inputs": [],
      "name": "InvalidInvestorPriorityDepositParams",
      "type": "error"
    },
    {
      "inputs": [],
      "name": "InvalidReturnFundParams",
      "type": "error"
    },
    {
      "inputs": [],
      "name": "InvalidTokenRewardAmount",
      "type": "error"
    },
    {
      "inputs": [],
      "name": "InvalidVestingParams",
      "type": "error"
    },
    {
      "inputs": [],
      "name": "NOT_IN_WHITELIST",
      "type": "error"
    },
    {
      "inputs": [],
      "name": "NOT_MEET_ERC1155_REQUIRMENT",
      "type": "error"
    },
    {
      "inputs": [],
      "name": "NOT_MEET_ERC20_REQUIREMENT",
      "type": "error"
    },
    {
      "inputs": [],
      "name": "NOT_MEET_ERC721_REQUIREMENT",
      "type": "error"
    },
    {
      "inputs": [],
      "name": "NotInExecuteState",
      "type": "error"
    },
    {
      "inputs": [],
      "name": "PROPOSAL_IN_VOTING_PERIOD",
      "type": "error"
    },
    {
      "inputs": [],
      "name": "UNDONE_DAO_SET_PROPOSAL",
      "type": "error"
    },
    {
      "anonymous": false,
      "inputs": [
        {
          "indexed": false,
          "internalType": "address",
          "name": "daoAddress",
          "type": "address"
        },
        {
          "indexed": false,
          "internalType": "bytes32",
          "name": "proposalId",
          "type": "bytes32"
        },
        {
          "indexed": false,
          "internalType": "address",
          "name": "proposer",
          "type": "address"
        }
      ],
      "name": "ProposalCreated",
      "type": "event"
    },
    {
      "anonymous": false,
      "inputs": [
        {
          "indexed": false,
          "internalType": "address",
          "name": "daoAddress",
          "type": "address"
        },
        {
          "indexed": false,
          "internalType": "bytes32",
          "name": "proposalId",
          "type": "bytes32"
        },
        {
          "indexed": false,
          "internalType": "enum IFlexFunding.ProposalStatus",
          "name": "state",
          "type": "uint8"
        },
        {
          "indexed": false,
          "internalType": "address[]",
          "name": "investors",
          "type": "address[]"
        }
      ],
      "name": "ProposalExecuted",
      "type": "event"
    },
    {
      "inputs": [
        {
          "internalType": "address",
          "name": "",
          "type": "address"
        },
        {
          "internalType": "bytes32",
          "name": "",
          "type": "bytes32"
        }
      ],
      "name": "Proposals",
      "outputs": [
        {
          "internalType": "address",
          "name": "proposer",
          "type": "address"
        },
        {
          "components": [
            {
              "internalType": "address",
              "name": "tokenAddress",
              "type": "address"
            },
            {
              "internalType": "uint256",
              "name": "minInvestmentAmount",
              "type": "uint256"
            },
            {
              "internalType": "uint256",
              "name": "maxInvestmentAmount",
              "type": "uint256"
            },
            {
              "internalType": "uint256",
              "name": "investedAmount",
              "type": "uint256"
            },
            {
              "internalType": "uint256",
              "name": "finalRaisedAmount",
              "type": "uint256"
            },
            {
              "internalType": "bool",
              "name": "escrow",
              "type": "bool"
            },
            {
              "internalType": "address",
              "name": "paybackTokenAddr",
              "type": "address"
            },
            {
              "internalType": "uint256",
              "name": "paybackTokenAmount",
              "type": "uint256"
            },
            {
              "internalType": "uint256",
              "name": "price",
              "type": "uint256"
            },
            {
              "internalType": "uint256",
              "name": "minReturnAmount",
              "type": "uint256"
            },
            {
              "internalType": "uint256",
              "name": "maxReturnAmount",
              "type": "uint256"
            },
            {
              "internalType": "address",
              "name": "approverAddr",
              "type": "address"
            },
            {
              "internalType": "address",
              "name": "recipientAddr",
              "type": "address"
            }
          ],
          "internalType": "struct IFlexFunding.ProposalInvestmentInfo",
          "name": "investmentInfo",
          "type": "tuple"
        },
        {
          "components": [
            {
              "internalType": "uint256",
              "name": "vestingStartTime",
              "type": "uint256"
            },
            {
              "internalType": "uint256",
              "name": "vestingCliffEndTime",
              "type": "uint256"
            },
            {
              "internalType": "uint256",
              "name": "vestingEndTime",
              "type": "uint256"
            },
            {
              "internalType": "uint256",
              "name": "vestingInterval",
              "type": "uint256"
            },
            {
              "internalType": "uint256",
              "name": "vestingCliffLockAmount",
              "type": "uint256"
            },
            {
              "internalType": "bool",
              "name": "nftEnable",
              "type": "bool"
            },
            {
              "internalType": "address",
              "name": "erc721",
              "type": "address"
            },
            {
              "internalType": "string",
              "name": "vestName",
              "type": "string"
            },
            {
              "internalType": "string",
              "name": "vestDescription",
              "type": "string"
            }
          ],
          "internalType": "struct IFlexFunding.VestInfo",
          "name": "vestInfo",
          "type": "tuple"
        },
        {
          "components": [
            {
              "internalType": "enum IFlexFunding.FundRaiseType",
              "name": "fundRaiseType",
              "type": "uint8"
            },
            {
              "internalType": "uint256",
              "name": "fundRaiseStartTime",
              "type": "uint256"
            },
            {
              "internalType": "uint256",
              "name": "fundRaiseEndTime",
              "type": "uint256"
            },
            {
              "internalType": "uint256",
              "name": "minDepositAmount",
              "type": "uint256"
            },
            {
              "internalType": "uint256",
              "name": "maxDepositAmount",
              "type": "uint256"
            },
            {
              "internalType": "bool",
              "name": "investorIdentification",
              "type": "bool"
            },
            {
              "components": [
                {
                  "internalType": "enum IFlexFunding.InvestorIdentificationType",
                  "name": "bType",
                  "type": "uint8"
                },
                {
                  "internalType": "uint32",
                  "name": "bChainId",
                  "type": "uint32"
                },
                {
                  "internalType": "address",
                  "name": "bTokanAddr",
                  "type": "address"
                },
                {
                  "internalType": "uint256",
                  "name": "bTokenId",
                  "type": "uint256"
                },
                {
                  "internalType": "uint256",
                  "name": "bMinHoldingAmount",
                  "type": "uint256"
                }
              ],
              "internalType": "struct IFlexFunding.InvestorIdentificationInfo",
              "name": "investorIdentificationInfo",
              "type": "tuple"
            },
            {
              "components": [
                {
                  "internalType": "bool",
                  "name": "enable",
                  "type": "bool"
                },
                {
                  "internalType": "enum IFlexFunding.PriorityDepositType",
                  "name": "pType",
                  "type": "uint8"
                },
                {
                  "internalType": "address",
                  "name": "token",
                  "type": "address"
                },
                {
                  "internalType": "uint256",
                  "name": "tokenId",
                  "type": "uint256"
                },
                {
                  "internalType": "uint256",
                  "name": "amount",
                  "type": "uint256"
                }
              ],
              "internalType": "struct IFlexFunding.PriorityDepositInfo",
              "name": "priorityDepositInfo",
              "type": "tuple"
            }
          ],
          "internalType": "struct IFlexFunding.FundRaiseInfo",
          "name": "fundRaiseInfo",
          "type": "tuple"
        },
        {
          "components": [
            {
              "internalType": "uint256",
              "name": "tokenRewardAmount",
              "type": "uint256"
            },
            {
              "internalType": "uint256",
              "name": "cashRewardAmount",
              "type": "uint256"
            }
          ],
          "internalType": "struct IFlexFunding.ProposerRewardInfo",
          "name": "proposerRewardInfo",
          "type": "tuple"
        },
        {
          "internalType": "uint256",
          "name": "startVoteTime",
          "type": "uint256"
        },
        {
          "internalType": "uint256",
          "name": "stopVoteTime",
          "type": "uint256"
        },
        {
          "internalType": "enum IFlexFunding.ProposalStatus",
          "name": "state",
          "type": "uint8"
        },
        {
          "internalType": "uint256",
          "name": "executeBlockNum",
          "type": "uint256"
        }
      ],
      "stateMutability": "view",
      "type": "function"
    },
    {
      "inputs": [],
      "name": "RETRUN_TOKEN_AMOUNT_PRECISION",
      "outputs": [
        {
          "internalType": "uint256",
          "name": "",
          "type": "uint256"
        }
      ],
      "stateMutability": "view",
      "type": "function"
    },
    {
      "inputs": [
        {
          "internalType": "contract DaoRegistry",
          "name": "dao",
          "type": "address"
        }
      ],
      "name": "allDone",
      "outputs": [
        {
          "internalType": "bool",
          "name": "",
          "type": "bool"
        }
      ],
      "stateMutability": "view",
      "type": "function"
    },
    {
      "inputs": [
        {
          "internalType": "contract DaoRegistry",
          "name": "dao",
          "type": "address"
        }
      ],
      "name": "clearProposerWhitelist",
      "outputs": [],
      "stateMutability": "nonpayable",
      "type": "function"
    },
    {
      "inputs": [
        {
          "internalType": "contract DaoRegistry",
          "name": "dao",
          "type": "address"
        },
        {
          "internalType": "bytes32",
          "name": "proposalId",
          "type": "bytes32"
        }
      ],
      "name": "getPriorityDepositedWhitelist",
      "outputs": [
        {
          "internalType": "address[]",
          "name": "",
          "type": "address[]"
        }
      ],
      "stateMutability": "view",
      "type": "function"
    },
    {
      "inputs": [
        {
          "internalType": "contract DaoRegistry",
          "name": "dao",
          "type": "address"
        }
      ],
      "name": "getProposerWhitelist",
      "outputs": [
        {
          "internalType": "address[]",
          "name": "",
          "type": "address[]"
        }
      ],
      "stateMutability": "view",
      "type": "function"
    },
    {
      "inputs": [
        {
          "internalType": "contract DaoRegistry",
          "name": "dao",
          "type": "address"
        },
        {
          "internalType": "address",
          "name": "_addr",
          "type": "address"
        }
      ],
      "name": "isActiveMember",
      "outputs": [
        {
          "internalType": "bool",
          "name": "",
          "type": "bool"
        }
      ],
      "stateMutability": "view",
      "type": "function"
    },
    {
      "inputs": [
        {
          "internalType": "contract DaoRegistry",
          "name": "dao",
          "type": "address"
        },
        {
          "internalType": "bytes32",
          "name": "proposalId",
          "type": "bytes32"
        },
        {
          "internalType": "address",
          "name": "account",
          "type": "address"
        }
      ],
      "name": "isPriorityDepositedWhitelist",
      "outputs": [
        {
          "internalType": "bool",
          "name": "",
          "type": "bool"
        }
      ],
      "stateMutability": "view",
      "type": "function"
    },
    {
      "inputs": [
        {
          "internalType": "contract DaoRegistry",
          "name": "dao",
          "type": "address"
        },
        {
          "internalType": "address",
          "name": "account",
          "type": "address"
        }
      ],
      "name": "isProposerWhiteList",
      "outputs": [
        {
          "internalType": "bool",
          "name": "",
          "type": "bool"
        }
      ],
      "stateMutability": "view",
      "type": "function"
    },
    {
      "inputs": [
        {
          "internalType": "contract DaoRegistry",
          "name": "dao",
          "type": "address"
        },
        {
          "internalType": "bytes32",
          "name": "proposalId",
          "type": "bytes32"
        }
      ],
      "name": "processProposal",
      "outputs": [
        {
          "internalType": "bool",
          "name": "",
          "type": "bool"
        }
      ],
      "stateMutability": "nonpayable",
      "type": "function"
    },
    {
      "inputs": [],
      "name": "protocolAddress",
      "outputs": [
        {
          "internalType": "address",
          "name": "",
          "type": "address"
        }
      ],
      "stateMutability": "view",
      "type": "function"
    },
    {
      "inputs": [],
      "name": "protocolFee",
      "outputs": [
        {
          "internalType": "uint256",
          "name": "",
          "type": "uint256"
        }
      ],
      "stateMutability": "view",
      "type": "function"
    },
    {
      "inputs": [
        {
          "internalType": "contract DaoRegistry",
          "name": "dao",
          "type": "address"
        },
        {
          "internalType": "address",
          "name": "account",
          "type": "address"
        }
      ],
      "name": "registerProposerWhiteList",
      "outputs": [],
      "stateMutability": "nonpayable",
      "type": "function"
    },
    {
      "inputs": [
        {
          "internalType": "contract DaoRegistry",
          "name": "dao",
          "type": "address"
        },
        {
          "internalType": "bytes32",
          "name": "proposalId",
          "type": "bytes32"
        }
      ],
      "name": "retrunTokenToApprover",
      "outputs": [],
      "stateMutability": "nonpayable",
      "type": "function"
    },
    {
      "inputs": [
        {
          "internalType": "contract DaoRegistry",
          "name": "dao",
          "type": "address"
        },
        {
          "internalType": "address",
          "name": "_protocolAddress",
          "type": "address"
        }
      ],
      "name": "setProtocolAddress",
      "outputs": [],
      "stateMutability": "nonpayable",
      "type": "function"
    },
    {
      "inputs": [
        {
          "internalType": "contract DaoRegistry",
          "name": "dao",
          "type": "address"
        },
        {
          "internalType": "uint256",
          "name": "_protocolFee",
          "type": "uint256"
        }
      ],
      "name": "setProtocolFee",
      "outputs": [],
      "stateMutability": "nonpayable",
      "type": "function"
    },
    {
      "inputs": [
        {
          "internalType": "contract DaoRegistry",
          "name": "dao",
          "type": "address"
        },
        {
          "components": [
            {
              "components": [
                {
                  "internalType": "address",
                  "name": "tokenAddress",
                  "type": "address"
                },
                {
                  "internalType": "uint256",
                  "name": "minInvestmentAmount",
                  "type": "uint256"
                },
                {
                  "internalType": "uint256",
                  "name": "maxInvestmentAmount",
                  "type": "uint256"
                },
                {
                  "internalType": "bool",
                  "name": "escrow",
                  "type": "bool"
                },
                {
                  "internalType": "address",
                  "name": "paybackTokenAddr",
                  "type": "address"
                },
                {
                  "internalType": "uint256",
                  "name": "paybackTokenAmount",
                  "type": "uint256"
                },
                {
                  "internalType": "uint256",
                  "name": "price",
                  "type": "uint256"
                },
                {
                  "internalType": "uint256",
                  "name": "minReturnAmount",
                  "type": "uint256"
                },
                {
                  "internalType": "uint256",
                  "name": "maxReturnAmount",
                  "type": "uint256"
                },
                {
                  "internalType": "address",
                  "name": "approverAddr",
                  "type": "address"
                },
                {
                  "internalType": "address",
                  "name": "recipientAddr",
                  "type": "address"
                }
              ],
              "internalType": "struct IFlexFunding.InvestmentInfo",
              "name": "investmentInfo",
              "type": "tuple"
            },
            {
              "components": [
                {
                  "internalType": "uint256",
                  "name": "vestingStartTime",
                  "type": "uint256"
                },
                {
                  "internalType": "uint256",
                  "name": "vestingCliffEndTime",
                  "type": "uint256"
                },
                {
                  "internalType": "uint256",
                  "name": "vestingEndTime",
                  "type": "uint256"
                },
                {
                  "internalType": "uint256",
                  "name": "vestingInterval",
                  "type": "uint256"
                },
                {
                  "internalType": "uint256",
                  "name": "vestingCliffLockAmount",
                  "type": "uint256"
                },
                {
                  "internalType": "bool",
                  "name": "nftEnable",
                  "type": "bool"
                },
                {
                  "internalType": "address",
                  "name": "erc721",
                  "type": "address"
                },
                {
                  "internalType": "string",
                  "name": "vestName",
                  "type": "string"
                },
                {
                  "internalType": "string",
                  "name": "vestDescription",
                  "type": "string"
                }
              ],
              "internalType": "struct IFlexFunding.VestInfo",
              "name": "vestInfo",
              "type": "tuple"
            },
            {
              "components": [
                {
                  "internalType": "enum IFlexFunding.FundRaiseType",
                  "name": "fundRaiseType",
                  "type": "uint8"
                },
                {
                  "internalType": "uint256",
                  "name": "fundRaiseStartTime",
                  "type": "uint256"
                },
                {
                  "internalType": "uint256",
                  "name": "fundRaiseEndTime",
                  "type": "uint256"
                },
                {
                  "internalType": "uint256",
                  "name": "minDepositAmount",
                  "type": "uint256"
                },
                {
                  "internalType": "uint256",
                  "name": "maxDepositAmount",
                  "type": "uint256"
                },
                {
                  "internalType": "bool",
                  "name": "investorIdentification",
                  "type": "bool"
                },
                {
                  "components": [
                    {
                      "internalType": "enum IFlexFunding.InvestorIdentificationType",
                      "name": "bType",
                      "type": "uint8"
                    },
                    {
                      "internalType": "uint32",
                      "name": "bChainId",
                      "type": "uint32"
                    },
                    {
                      "internalType": "address",
                      "name": "bTokanAddr",
                      "type": "address"
                    },
                    {
                      "internalType": "uint256",
                      "name": "bTokenId",
                      "type": "uint256"
                    },
                    {
                      "internalType": "uint256",
                      "name": "bMinHoldingAmount",
                      "type": "uint256"
                    }
                  ],
                  "internalType": "struct IFlexFunding.InvestorIdentificationInfo",
                  "name": "investorIdentificationInfo",
                  "type": "tuple"
                },
                {
                  "components": [
                    {
                      "internalType": "bool",
                      "name": "enable",
                      "type": "bool"
                    },
                    {
                      "internalType": "enum IFlexFunding.PriorityDepositType",
                      "name": "pType",
                      "type": "uint8"
                    },
                    {
                      "internalType": "address",
                      "name": "token",
                      "type": "address"
                    },
                    {
                      "internalType": "uint256",
                      "name": "tokenId",
                      "type": "uint256"
                    },
                    {
                      "internalType": "uint256",
                      "name": "amount",
                      "type": "uint256"
                    }
                  ],
                  "internalType": "struct IFlexFunding.PriorityDepositInfo",
                  "name": "priorityDepositInfo",
                  "type": "tuple"
                }
              ],
              "internalType": "struct IFlexFunding.FundRaiseInfo",
              "name": "fundRaiseInfo",
              "type": "tuple"
            },
            {
              "components": [
                {
                  "internalType": "uint256",
                  "name": "tokenRewardAmount",
                  "type": "uint256"
                },
                {
                  "internalType": "uint256",
                  "name": "cashRewardAmount",
                  "type": "uint256"
                }
              ],
              "internalType": "struct IFlexFunding.ProposerRewardInfo",
              "name": "proposerRewardInfo",
              "type": "tuple"
            },
            {
              "internalType": "address[]",
              "name": "priorityDepositWhitelist",
              "type": "address[]"
            }
          ],
          "internalType": "struct IFlexFunding.ProposalParams",
          "name": "params",
          "type": "tuple"
        }
      ],
      "name": "submitProposal",
      "outputs": [],
      "stateMutability": "nonpayable",
      "type": "function"
    }
  ],
  "bytecode": "0x60806040526103e86200001c670de0b6b3a7640000600362000086565b62000028919062000065565b600455600580546001600160a01b031916739ac9c636404c8d46d9eb966d7179983ba5a3941a1790553480156200005e57600080fd5b50620000b2565b6000826200008157634e487b7160e01b81526012600452602481fd5b500490565b6000816000190483118215151615620000ad57634e487b7160e01b81526011600452602481fd5b500290565b615e7480620000c26000396000f3fe608060405234801561001057600080fd5b506004361061011b5760003560e01c80638ecf7720116100b2578063b0e21e8a11610081578063bf49999411610066578063bf4999941461026a578063c56e1c3c14610292578063c7aa00dd146102a557600080fd5b8063b0e21e8a1461024e578063b5b3ca2c1461025757600080fd5b80638ecf7720146102025780639573167d14610215578063ac7634dc14610228578063acc232081461023b57600080fd5b80635dbf37db116100ee5780635dbf37db1461019c578063642fc0c0146101bf5780636d535f11146101d25780636e0717e5146101ef57600080fd5b806305c6cc33146101205780630676c1b71461014957806339493c7d14610174578063438d931214610187575b600080fd5b61013361012e3660046152f5565b6102b8565b6040516101409190615a7f565b60405180910390f35b60055461015c906001600160a01b031681565b6040516001600160a01b039091168152602001610140565b6101336101823660046154a9565b6102e2565b61019a610195366004615471565b610318565b005b6101af6101aa366004615471565b6104ec565b6040519015158152602001610140565b6101af6101cd3660046152f5565b61050e565b6101e1670de0b6b3a764000081565b604051908152602001610140565b61019a6101fd3660046152f5565b610545565b6101af610210366004615471565b6106dc565b6101af6102233660046154a9565b610772565b61019a6102363660046154fc565b61198c565b61019a6102493660046154a9565b61396b565b6101e160045481565b61019a6102653660046154a9565b613aed565b61027d61027836600461532d565b613c9f565b60405161014099989796959493929190615948565b6101af6102a03660046154bb565b614129565b61019a6102b3366004615471565b61415e565b6001600160a01b03811660009081526002602052604090206060906102dc90614289565b92915050565b6001600160a01b0382166000908152600160209081526040808320848452909152902060609061031190614289565b9392505050565b8143816001600160a01b031663b21634826040518163ffffffff1660e01b815260040160206040518083038186803b15801561035357600080fd5b505afa158015610367573d6000803e3d6000fd5b505050506040513d601f19601f8201168201806040525081019061038b9190615678565b14156103de5760405162461bcd60e51b815260206004820152601060248201527f7265656e7472616e63792067756172640000000000000000000000000000000060448201526064015b60405180910390fd5b806001600160a01b03166310fdb0a26040518163ffffffff1660e01b8152600401600060405180830381600087803b15801561041957600080fd5b505af115801561042d573d6000803e3d6000fd5b505050508261043b81614296565b6001600160a01b0316336001600160a01b03161461046c576040516395383ea160e01b815260040160405180910390fd5b82600560006101000a8154816001600160a01b0302191690836001600160a01b0316021790555050806001600160a01b031663d4f7af436040518163ffffffff1660e01b8152600401600060405180830381600087803b1580156104cf57600080fd5b505af11580156104e3573d6000803e3d6000fd5b50505050505050565b6001600160a01b03821660009081526002602052604081206103119083614379565b6001600160a01b038116600090815260036020526040812081906105319061439b565b1161053d5760016102dc565b600092915050565b6040516317ba7d8560e01b81527fff9379b98b93eb3bd1fac62fd2258a7955d70d2d5279c40064145b6c9646df37600482015281906001600160a01b038216906317ba7d859060240160206040518083038186803b1580156105a657600080fd5b505afa1580156105ba573d6000803e3d6000fd5b505050506040513d601f19601f820116820180604052508101906105de9190615311565b6001600160a01b0316336001600160a01b0316141580156106055750610603816143a5565b155b15610623576040516395383ea160e01b815260040160405180910390fd5b6001600160a01b038216600090815260026020526040902060609061064790614289565b805190915080156106d65760005b818160ff1610156106d4576106c1838260ff168151811061068657634e487b7160e01b600052603260045260246000fd5b602002602001015160026000886001600160a01b03166001600160a01b031681526020019081526020016000206145de90919063ffffffff16565b50806106cc81615d62565b915050610655565b505b50505050565b6040517fa230c5240000000000000000000000000000000000000000000000000000000081526001600160a01b0382811660048301526000919084169063a230c5249060240160206040518083038186803b15801561073a57600080fd5b505afa15801561074e573d6000803e3d6000fd5b505050506040513d601f19601f820116820180604052508101906103119190615428565b6000826000610780826145f3565b905061078a614f6d565b6001600160a01b0386166000818152602081815260408083208984529091529081902090516317ba7d8560e01b81527f2207fd6117465cefcba0abc867150698c0464aa41a293ec29ca01b67a6350c3c60048201529091906317ba7d859060240160206040518083038186803b15801561080357600080fd5b505afa158015610817573d6000803e3d6000fd5b505050506040513d601f19601f8201168201806040525081019061083b9190615311565b6001600160a01b0390811660608401526040517f593e96b60000000000000000000000000000000000000000000000000000000081527fb12a3847d47fefceb164b75823af125f9aa82b76938df0ddf08c04cd314ba37c60048201529088169063593e96b69060240160206040518083038186803b1580156108bc57600080fd5b505afa1580156108d0573d6000803e3d6000fd5b505050506040513d601f19601f820116820180604052508101906108f49190615311565b6001600160a01b031660808301526000602582015460ff16600481111561092b57634e487b7160e01b600052602160045260246000fd5b1415610c03578060240154421161096e576040517f233c5ca700000000000000000000000000000000000000000000000000000000815260040160405180910390fd5b6040517f40de703e000000000000000000000000000000000000000000000000000000008152600481018790526001600160a01b038816906340de703e9060240160206040518083038186803b1580156109c757600080fd5b505afa1580156109db573d6000803e3d6000fd5b505050506040513d601f19601f820116820180604052508101906109ff9190615311565b6001600160a01b031660c08301819052610a45576040517f2c87831e00000000000000000000000000000000000000000000000000000000815260040160405180910390fd5b60c08201516040517f76225e730000000000000000000000000000000000000000000000000000000081526001600160a01b03898116600483015260248201899052909116906376225e7390604401606060405180830381600087803b158015610aae57600080fd5b505af1158015610ac2573d6000803e3d6000fd5b505050506040513d601f19601f82011682018060405250810190610ae6919061559a565b505060e08301816005811115610b0c57634e487b7160e01b600052602160045260246000fd5b6005811115610b2b57634e487b7160e01b600052602160045260246000fd5b90525060028260e001516005811115610b5457634e487b7160e01b600052602160045260246000fd5b1415610be75760258101805460ff1916600117905560808201516040517fb6d26e38000000000000000000000000000000000000000000000000000000008152600481018890526001600160a01b039091169063b6d26e3890602401600060405180830381600087803b158015610bca57600080fd5b505af1158015610bde573d6000803e3d6000fd5b505050506118d8565b6025810180546004919060ff19166001835b02179055506118d8565b6001602582015460ff166004811115610c2c57634e487b7160e01b600052602160045260246000fd5b14156118a65760608201516040517ff614aea30000000000000000000000000000000000000000000000000000000081526001600160a01b038981166004830152602482018990529091169063f614aea390604401600060405180830381600087803b158015610c9b57600080fd5b505af1158015610caf573d6000803e3d6000fd5b50505060608301516040517f0617b0ce0000000000000000000000000000000000000000000000000000000081526001600160a01b038a81166004830152602482018a90529091169150630617b0ce9060440160206040518083038186803b158015610d1a57600080fd5b505afa158015610d2e573d6000803e3d6000fd5b505050506040513d601f19601f82011682018060405250810190610d529190615311565b6001600160a01b039081166101408401526001820154166101e08301526017810154421015610dad576040517f5d68b4f100000000000000000000000000000000000000000000000000000000815260040160405180910390fd5b6040517f30490e91000000000000000000000000000000000000000000000000000000008152600481018790526001600160a01b038816906330490e9190602401600060405180830381600087803b158015610e0857600080fd5b505af1158015610e1c573d6000803e3d6000fd5b50505050670de0b6b3a76400006004548361014001516001600160a01b0316610e459190615cb0565b610e4f9190615c9c565b610160830152604051634941d71d60e11b81527fda34ff95e06cbf2c9c32a559cd8aadd1a10104596417d62c03db2c1258df83d360048201526001600160a01b03881690639283ae3a9060240160206040518083038186803b158015610eb457600080fd5b505afa158015610ec8573d6000803e3d6000fd5b505050506040513d601f19601f82011682018060405250810190610eec9190615678565b15610f8d57604051634941d71d60e11b81527f64c49ee5084f4940c312104c41603e43791b03dad28152afd6eadb5b960a8a8760048201526001600160a01b03881690639283ae3a9060240160206040518083038186803b158015610f5057600080fd5b505afa158015610f64573d6000803e3d6000fd5b505050506040513d601f19601f82011682018060405250810190610f889190615678565b611051565b604051634941d71d60e11b81527f64c49ee5084f4940c312104c41603e43791b03dad28152afd6eadb5b960a8a876004820152670de0b6b3a7640000906001600160a01b03891690639283ae3a9060240160206040518083038186803b158015610ff657600080fd5b505afa15801561100a573d6000803e3d6000fd5b505050506040513d601f19601f8201168201806040525081019061102e9190615678565b8361014001516001600160a01b03166110479190615cb0565b6110519190615c9c565b6101808301526022810154610140830151670de0b6b3a76400009161107e916001600160a01b0316615cb0565b6110889190615c9c565b6101c0830181905261018083015161016084015160028401546110ab9190615c84565b6110b59190615c84565b6110bf9190615c84565b8261014001516001600160a01b031610611890576101408201516001600160a01b0316600582018190556101c08301516101808401516101608501519192909161110891615ccf565b6111129190615ccf565b61111c9190615ccf565b6004820155600681015460ff1615611424578060010160070154670de0b6b3a7640000836101c001518461018001518561016001518661014001516001600160a01b031661116a9190615ccf565b6111749190615ccf565b61117e9190615ccf565b6111889190615cb0565b6111929190615c9c565b610260830152600881015460038201546111b590670de0b6b3a764000090615cb0565b6111bf9190615c9c565b82610260015111156111f957600881015460038201546111e890670de0b6b3a764000090615cb0565b6111f29190615c9c565b6102608301525b61026082015160078201819055600b820154600683015461122f928a926001600160a01b0390811692610100900416908a6148be565b6112a5576025810180546004919060ff19166001835b021790555043602682015560258101546102808301516040517f5d1e2c5b718c93ed21e7dc346318b1baa61bba1b54306751f317384b47d60cdc92611292928b928b9260ff169190615913565b60405180910390a160009450505061197a565b6040516317ba7d8560e01b81527fb0326f8dfc913f537596953a938551c86ac8fe0da74c9a8cd0ee660e627dccc860048201526001600160a01b038816906317ba7d859060240160206040518083038186803b15801561130457600080fd5b505afa158015611318573d6000803e3d6000fd5b505050506040513d601f19601f8201168201806040525081019061133c9190615311565b6001600160a01b0390811660a0808501829052600684015484546040805193840181526102608801518452600d87015460208501819052600e8801549596635d5cdb32968f9661010090960482169594909116938e939092908301916113a29190615ccf565b8152601089015460208201819052604091820152517fffffffff0000000000000000000000000000000000000000000000000000000060e088901b1681526113f1959493929190600401615a92565b600060405180830381600087803b15801561140b57600080fd5b505af115801561141f573d6000803e3d6000fd5b505050505b60258101805460ff19166002179055610160820151156114db5760808201516005546101e08401516101608501516040517fceb1bfa6000000000000000000000000000000000000000000000000000000008152600481018b90526001600160a01b0393841660248201529183166044830152606482015291169063ceb1bfa690608401600060405180830381600087803b1580156114c257600080fd5b505af11580156114d6573d6000803e3d6000fd5b505050505b6101808201511561162a5781608001516001600160a01b031663ceb1bfa687896001600160a01b031663fd310d297f8987d08c67963e4cacd5e5936c122a968c66853d58299dd822c19422271098396040518263ffffffff1660e01b815260040161154891815260200190565b60206040518083038186803b15801561156057600080fd5b505afa158015611574573d6000803e3d6000fd5b505050506040513d601f19601f820116820180604052508101906115989190615311565b6101e08601516101808701516040517fffffffff0000000000000000000000000000000000000000000000000000000060e087901b16815260048101949094526001600160a01b039283166024850152911660448301526064820152608401600060405180830381600087803b15801561161157600080fd5b505af1158015611625573d6000803e3d6000fd5b505050505b6101c0820151156116d157608082015181546101e08401516101c08501516040517fceb1bfa6000000000000000000000000000000000000000000000000000000008152600481018b90526001600160a01b0393841660248201529183166044830152606482015291169063ceb1bfa690608401600060405180830381600087803b1580156116b857600080fd5b505af11580156116cc573d6000803e3d6000fd5b505050505b81608001516001600160a01b031663ceb1bfa68783600101600b0160009054906101000a90046001600160a01b0316856101e00151866101c001518761018001518861016001518961014001516001600160a01b03166117319190615ccf565b61173b9190615ccf565b6117459190615ccf565b6040517fffffffff0000000000000000000000000000000000000000000000000000000060e087901b16815260048101949094526001600160a01b039283166024850152911660448301526064820152608401600060405180830381600087803b1580156117b257600080fd5b505af11580156117c6573d6000803e3d6000fd5b5050505060808201516101408301516040517f1127b158000000000000000000000000000000000000000000000000000000008152600481018990526001600160a01b039182166024820152911690631127b15890604401600060405180830381600087803b15801561183857600080fd5b505af115801561184c573d6000803e3d6000fd5b505050506040513d6000823e601f3d908101601f191682016040526118749190810190615358565b6102808301526025810180546003919060ff1916600183610bf9565b6025810180546004919060ff1916600183611245565b6040517fb7ea643300000000000000000000000000000000000000000000000000000000815260040160405180910390fd5b6001600160a01b03871660009081526003602052604090206118fa9087614a1b565b15611923576001600160a01b03871660009081526003602052604090206119219087614a33565b505b43602682015560258101546102808301516040517f5d1e2c5b718c93ed21e7dc346318b1baa61bba1b54306751f317384b47d60cdc9261196b928b928b9260ff169190615913565b60405180910390a16001945050505b6119848282614a3f565b505092915050565b816000611998826145f3565b604051634941d71d60e11b81527f2073e6ba5c75026b006fdd165596d94b89cada2e00d8e44a99d422de8ea467e0600482015290915084906001600160a01b03821690639283ae3a9060240160206040518083038186803b1580156119fc57600080fd5b505afa158015611a10573d6000803e3d6000fd5b505050506040513d601f19601f82011682018060405250810190611a349190615678565b6001141561238a57604051634941d71d60e11b81527f57901982635f8a470a3648422f8f769cf08dc2057489be5bf0099fcb44f7d43c60048201526001600160a01b03821690639283ae3a9060240160206040518083038186803b158015611a9b57600080fd5b505afa158015611aaf573d6000803e3d6000fd5b505050506040513d601f19601f82011682018060405250810190611ad39190615678565b611ccf57604051634941d71d60e11b81527ff6d5f030b79ca78dad001b87a49239ec96be97e62d13501da94c9a392700509e60048201526001600160a01b03821690639283ae3a9060240160206040518083038186803b158015611b3657600080fd5b505afa158015611b4a573d6000803e3d6000fd5b505050506040513d601f19601f82011682018060405250810190611b6e9190615678565b60405163fd310d2960e01b81527f30091caaedd0994beeeeb3b7b5734296263687ae0126aaf79e5e0f8e5c1706b260048201526001600160a01b0383169063fd310d299060240160206040518083038186803b158015611bcd57600080fd5b505afa158015611be1573d6000803e3d6000fd5b505050506040513d601f19601f82011682018060405250810190611c059190615311565b6040517f70a082310000000000000000000000000000000000000000000000000000000081523360048201526001600160a01b0391909116906370a082319060240160206040518083038186803b158015611c5f57600080fd5b505afa158015611c73573d6000803e3d6000fd5b505050506040513d601f19601f82011682018060405250810190611c979190615678565b1015611ccf576040517fb2b7615000000000000000000000000000000000000000000000000000000000815260040160405180910390fd5b604051634941d71d60e11b81527f57901982635f8a470a3648422f8f769cf08dc2057489be5bf0099fcb44f7d43c60048201526001600160a01b03821690639283ae3a9060240160206040518083038186803b158015611d2e57600080fd5b505afa158015611d42573d6000803e3d6000fd5b505050506040513d601f19601f82011682018060405250810190611d669190615678565b60011415611f6657604051634941d71d60e11b81527ff6d5f030b79ca78dad001b87a49239ec96be97e62d13501da94c9a392700509e60048201526001600160a01b03821690639283ae3a9060240160206040518083038186803b158015611dcd57600080fd5b505afa158015611de1573d6000803e3d6000fd5b505050506040513d601f19601f82011682018060405250810190611e059190615678565b60405163fd310d2960e01b81527f30091caaedd0994beeeeb3b7b5734296263687ae0126aaf79e5e0f8e5c1706b260048201526001600160a01b0383169063fd310d299060240160206040518083038186803b158015611e6457600080fd5b505afa158015611e78573d6000803e3d6000fd5b505050506040513d601f19601f82011682018060405250810190611e9c9190615311565b6040517f70a082310000000000000000000000000000000000000000000000000000000081523360048201526001600160a01b0391909116906370a082319060240160206040518083038186803b158015611ef657600080fd5b505afa158015611f0a573d6000803e3d6000fd5b505050506040513d601f19601f82011682018060405250810190611f2e9190615678565b1015611f66576040517f667670b500000000000000000000000000000000000000000000000000000000815260040160405180910390fd5b604051634941d71d60e11b81527f57901982635f8a470a3648422f8f769cf08dc2057489be5bf0099fcb44f7d43c60048201526001600160a01b03821690639283ae3a9060240160206040518083038186803b158015611fc557600080fd5b505afa158015611fd9573d6000803e3d6000fd5b505050506040513d601f19601f82011682018060405250810190611ffd9190615678565b600214156122ab57604051634941d71d60e11b81527ff6d5f030b79ca78dad001b87a49239ec96be97e62d13501da94c9a392700509e60048201526001600160a01b03821690639283ae3a9060240160206040518083038186803b15801561206457600080fd5b505afa158015612078573d6000803e3d6000fd5b505050506040513d601f19601f8201168201806040525081019061209c9190615678565b60405163fd310d2960e01b81527f30091caaedd0994beeeeb3b7b5734296263687ae0126aaf79e5e0f8e5c1706b260048201526001600160a01b0383169063fd310d299060240160206040518083038186803b1580156120fb57600080fd5b505afa15801561210f573d6000803e3d6000fd5b505050506040513d601f19601f820116820180604052508101906121339190615311565b6001600160a01b031662fdd58e33846001600160a01b0316639283ae3a7fb34f156369747125f679c86d97f51861a5a2a9f927a1addd4354acbaaa88ae576040518263ffffffff1660e01b815260040161218f91815260200190565b60206040518083038186803b1580156121a757600080fd5b505afa1580156121bb573d6000803e3d6000fd5b505050506040513d601f19601f820116820180604052508101906121df9190615678565b6040517fffffffff0000000000000000000000000000000000000000000000000000000060e085901b1681526001600160a01b039092166004830152602482015260440160206040518083038186803b15801561223b57600080fd5b505afa15801561224f573d6000803e3d6000fd5b505050506040513d601f19601f820116820180604052508101906122739190615678565b10156122ab576040517f6c1f873e00000000000000000000000000000000000000000000000000000000815260040160405180910390fd5b604051634941d71d60e11b81527f57901982635f8a470a3648422f8f769cf08dc2057489be5bf0099fcb44f7d43c60048201526001600160a01b03821690639283ae3a9060240160206040518083038186803b15801561230a57600080fd5b505afa15801561231e573d6000803e3d6000fd5b505050506040513d601f19601f820116820180604052508101906123429190615678565b6003141561238a5761235481336104ec565b61238a576040517f8ec002ca00000000000000000000000000000000000000000000000000000000815260040160405180910390fd5b6040516317ba7d8560e01b81527fff9379b98b93eb3bd1fac62fd2258a7955d70d2d5279c40064145b6c9646df3760048201526000906001600160a01b038716906317ba7d859060240160206040518083038186803b1580156123ec57600080fd5b505afa158015612400573d6000803e3d6000fd5b505050506040513d601f19601f820116820180604052508101906124249190615311565b6040517f9a0242fc0000000000000000000000000000000000000000000000000000000081526001600160a01b03888116600483015291925090821690639a0242fc9060240160206040518083038186803b15801561248257600080fd5b505afa158015612496573d6000803e3d6000fd5b505050506040513d601f19601f820116820180604052508101906124ba9190615428565b6124f0576040517f4afa550a00000000000000000000000000000000000000000000000000000000815260040160405180910390fd5b60408501351580159061250a575060208501356040860135105b806125215750670de0b6b3a76400006103a0860135115b15612558576040517f24ffd71700000000000000000000000000000000000000000000000000000000815260040160405180910390fd5b61256a6102408601610220870161540c565b151560011480156125ac5750600361258a6102608701610240880161557e565b60038111156125a957634e487b7160e01b600052602160045260246000fd5b14155b80156125df575060006125c76102a0870161028088016152f5565b6001600160a01b031614806125df57506102c0850135155b15612616576040517f1899208600000000000000000000000000000000000000000000000000000000815260040160405180910390fd5b61262861030086016102e0870161540c565b1515600114801561266a575060036126486103208701610300880161557e565b600381111561266757634e487b7160e01b600052602160045260246000fd5b14155b801561269d57506000612685610340870161032088016152f5565b6001600160a01b0316148061269d5750610360850135155b156126d4576040517f7cf07e5e00000000000000000000000000000000000000000000000000000000815260040160405180910390fd5b6127a7604051806102a001604052806000815260200160006001600160a01b0316815260200160006001600160a01b0316815260200160006001600160a01b0316815260200160006001600160a01b0316815260200160006001600160a01b031681526020016000801916815260200160008152602001600081526020016000815260200160008152602001600081526020016000815260200160008152602001600081526020016000815260200160008152602001600081526020016000815260200160008152602001600081525090565b6040516317ba7d8560e01b81527f6f48e16963713446db50a1503860d8e1fc3c888da56a85afcaa6dc29503cc61060048201526001600160a01b038816906317ba7d859060240160206040518083038186803b15801561280657600080fd5b505afa15801561281a573d6000803e3d6000fd5b505050506040513d601f19601f8201168201806040525081019061283e9190615311565b81602001906001600160a01b031690816001600160a01b031681525050866001600160a01b031663776d13c56040518163ffffffff1660e01b8152600401600060405180830381600087803b15801561289657600080fd5b505af11580156128aa573d6000803e3d6000fd5b505050506129538760c01b61292e896001600160a01b031663f1457aac6040518163ffffffff1660e01b815260040160206040518083038186803b1580156128f157600080fd5b505afa158015612905573d6000803e3d6000fd5b505050506040513d601f19601f820116820180604052508101906129299190615678565b614a4e565b60405160200161293f9291906158a5565b604051602081830303815290604052614b9c565b60c0820152612968608087016060880161540c565b15612ae157600061297f60a08801608089016152f5565b6001600160a01b031614806129ae575060006129a3610140880161012089016152f5565b6001600160a01b0316145b806129bb575060e0860135155b156129f2576040517f1d0bec7000000000000000000000000000000000000000000000000000000000815260040160405180910390fd5b670de0b6b3a7640000612a09610160880188615bed565b608001351180612a375750612a22610160870187615bed565b35612a31610160880188615bed565b60200135105b80612a635750612a4b610160870187615bed565b60200135612a5d610160880188615bed565b60400135105b15612a9a576040517ff224d7d300000000000000000000000000000000000000000000000000000000815260040160405180910390fd5b670de0b6b3a76400006103808701351115612ae1576040517f5190664000000000000000000000000000000000000000000000000000000000815260040160405180910390fd5b60c08101516040517fb73dc38900000000000000000000000000000000000000000000000000000000815260048101919091526001600160a01b0388169063b73dc38990602401600060405180830381600087803b158015612b4257600080fd5b505af1158015612b56573d6000803e3d6000fd5b5050604051634941d71d60e11b81527f6e9fd67c3f2ca4e2b4e4b45b33b985dc3a1bffcadea24d12440a5901f72217b56004820152600092506001600160a01b038a169150639283ae3a9060240160206040518083038186803b158015612bbc57600080fd5b505afa158015612bd0573d6000803e3d6000fd5b505050506040513d601f19601f82011682018060405250810190612bf49190615678565b15612c00576001612c03565b60005b604080516101208101825233815281516101a08101909252919250602080830191908190612c33908c018c6152f5565b6001600160a01b031681526020018a6000016020013581526020018a60000160400135815260200160008152602001600081526020018a6000016060016020810190612c7f919061540c565b15158152602001612c9660a08c0160808d016152f5565b6001600160a01b0316815260a0808c0135602083015260c08c0135604083015260e08c013560608301526101008c0135608083015201612cde6101408c016101208d016152f5565b6001600160a01b03168152602001612cfe6101608c016101408d016152f5565b6001600160a01b031681525081526020016040518061012001604052808a806101600190612d2c9190615bed565b358152602001612d406101608c018c615bed565b602090810135825201612d576101608c018c615bed565b604001358152602001612d6e6101608c018c615bed565b606001358152602001612d856101608c018c615bed565b608001358152602001612d9c6101608c018c615bed565b612dad9060c081019060a00161540c565b15158152602001612dc26101608c018c615bed565b612dd39060e081019060c0016152f5565b6001600160a01b03168152602001612def6101608c018c615bed565b612dfd9060e0810190615ba8565b8080601f016020809104026020016040519081016040528093929190818152602001838380828437600092019190915250505090825250602001612e456101608c018c615bed565b612e5490610100810190615ba8565b8080601f0160208091040260200160405190810160405280939291908181526020018383808284376000920191909152505050915250815260408051610100810190915260209091019080612eb16101a08c016101808d01615562565b6001811115612ed057634e487b7160e01b600052602160045260246000fd5b81526101a08b013560208201526101c08b013560408201526101e08b013560608201526102008b0135608082015260a001612f136102408c016102208d0161540c565b15158152602001612f2d368c90038c016102408d016155d3565b8152602001612f45368c90038c016102e08d01615644565b905281526040805180820182526103808b013581526103a08b0135602082810191909152830152016001836001811115612f8f57634e487b7160e01b600052602160045260246000fd5b14612f9b576000612f9d565b425b81526020016001836001811115612fc457634e487b7160e01b600052602160045260246000fd5b14612fd0576000613071565b604051634941d71d60e11b81527fee63cc82ca6990a4cc5fa3ca10d8a5281ae1758a8d8f22892c4badb7cacd111e60048201526001600160a01b038b1690639283ae3a9060240160206040518083038186803b15801561302f57600080fd5b505afa158015613043573d6000803e3d6000fd5b505050506040513d601f19601f820116820180604052508101906130679190615678565b6130719042615c84565b8152602001600183600181111561309857634e487b7160e01b600052602160045260246000fd5b146130a45760016130a7565b60005b60048111156130c657634e487b7160e01b600052602160045260246000fd5b8152600060209182018190526001600160a01b03808c168252818352604080832060c080890151855290855292819020855181549084167fffffffffffffffffffffffff00000000000000000000000000000000000000009182161782558686015180516001840180549187169184169190911790558087015160028401558084015160038401556060808201516004850155608080830151600586015560a080840151600687018054868c01518b166101009081027fffffffffffffffffffffff0000000000000000000000000000000000000000ff94151585167fffffffffffffffffffffff000000000000000000000000000000000000000000938416171790925560e08088015160078b01558783015160088b015561012088015160098b0155610140880151600a8b0155610160880151600b8b018054918e16918b1691909117905561018090970151600c8a018054918d1691909916179097558c8901518051600d8a01908155818e0151600e8b015599810151600f8a0155948501516010890155928401516011880155908301516012870180549a85015190991690920291151516979093169690961791909117909355918301518051929491926132979260138701920190615043565b5061010082015180516132b4916007840191602090910190615043565b50505060608201518051601583018054909190829060ff1916600183818111156132ee57634e487b7160e01b600052602160045260246000fd5b021790555060208201516001808301919091556040830151600283015560608301516003808401919091556080840151600484015560a084015160058401805491151560ff1992831617905560c0850151805160068601805492959094919385931691849081111561337057634e487b7160e01b600052602160045260246000fd5b0217905550602082810151825460408501517fffffffffffffff000000000000000000000000000000000000000000000000ff90911661010063ffffffff90931683027fffffffffffffff0000000000000000000000000000000000000000ffffffffff1617650100000000006001600160a01b03909216919091021783556060840151600184015560809093015160029092019190915560e0840151805160098501805460ff1981169215159283178255938301519294909384927fffffffffffffffffffffffffffffffffffffffffffffffffffffffffffff00009091167fffffffffffffffffffffffffffffffffffffffffffffffffffffffffffff00ff909116179083600381111561349657634e487b7160e01b600052602160045260246000fd5b0217905550604082015181546001600160a01b0390911662010000027fffffffffffffffffffff0000000000000000000000000000000000000000ffff9091161781556060820151600180830191909155608092830151600290920191909155908501518051602186015560200151602285015560a0850151602385015560c0850151602485015560e0850151602585018054919450925060ff19169083600481111561355357634e487b7160e01b600052602160045260246000fd5b02179055506101009190910151602690910155600361357a61032089016103008a0161557e565b600381111561359957634e487b7160e01b600052602160045260246000fd5b14156135ef5760c08201516135ef9089906135b86103c08b018b615b59565b80806020026020016040519081016040528093929190818152602001838360200280828437600092019190915250614bb892505050565b60208083015160c084015160408051938401815260008452517f2b0974d00000000000000000000000000000000000000000000000000000000081526001600160a01b0390921692632b0974d09261364d928d929091600401615b28565b600060405180830381600087803b15801561366757600080fd5b505af115801561367b573d6000803e3d6000fd5b5050505060c08201516040516317ba7d8560e01b81527f6f48e16963713446db50a1503860d8e1fc3c888da56a85afcaa6dc29503cc61060048201526001600160a01b038a169163815a2bf49183906317ba7d859060240160206040518083038186803b1580156136eb57600080fd5b505afa1580156136ff573d6000803e3d6000fd5b505050506040513d601f19601f820116820180604052508101906137239190615311565b6040517fffffffff0000000000000000000000000000000000000000000000000000000060e085901b16815260048101929092526001600160a01b03166024820152604401600060405180830381600087803b15801561378257600080fd5b505af1158015613796573d6000803e3d6000fd5b50506040517f593e96b60000000000000000000000000000000000000000000000000000000081527fb12a3847d47fefceb164b75823af125f9aa82b76938df0ddf08c04cd314ba37c60048201526001600160a01b038b16925063593e96b6915060240160206040518083038186803b15801561381257600080fd5b505afa158015613826573d6000803e3d6000fd5b505050506040513d601f19601f8201168201806040525081019061384a9190615311565b6001600160a01b03166040830152600081600181111561387a57634e487b7160e01b600052602160045260246000fd5b14156138e95781604001516001600160a01b031663b6d26e388360c001516040518263ffffffff1660e01b81526004016138b691815260200190565b600060405180830381600087803b1580156138d057600080fd5b505af11580156138e4573d6000803e3d6000fd5b505050505b60c08201516001600160a01b038916600090815260036020526040902061390f91614c93565b5060c0820151604080516001600160a01b038b16815260208101929092523382820152517f1dfc244cab0c3cc88645f305adf7c51524a495c4eca07e193a69f39152da8fb79181900360600190a1505050506106d68282614a3f565b816000613977826145f3565b6001600160a01b03851660008181526020818152604080832088845290915280822090516317ba7d8560e01b81527f43f8439a5cef099d0d9a92b15a64e34ff49963bb29d65f63204eda6591b810a16004820152939450929091906317ba7d859060240160206040518083038186803b1580156139f357600080fd5b505afa158015613a07573d6000803e3d6000fd5b505050506040513d601f19601f82011682018060405250810190613a2b9190615311565b600683015460258401546040517f7132e8a10000000000000000000000000000000000000000000000000000000081529293506001600160a01b0380851693637132e8a193613a8e938c938c936101009093041691339160ff1690600401615af4565b602060405180830381600087803b158015613aa857600080fd5b505af1158015613abc573d6000803e3d6000fd5b505050506040513d601f19601f82011682018060405250810190613ae09190615428565b5050506106d68282614a3f565b8143816001600160a01b031663b21634826040518163ffffffff1660e01b815260040160206040518083038186803b158015613b2857600080fd5b505afa158015613b3c573d6000803e3d6000fd5b505050506040513d601f19601f82011682018060405250810190613b609190615678565b1415613bae5760405162461bcd60e51b815260206004820152601060248201527f7265656e7472616e63792067756172640000000000000000000000000000000060448201526064016103d5565b806001600160a01b03166310fdb0a26040518163ffffffff1660e01b8152600401600060405180830381600087803b158015613be957600080fd5b505af1158015613bfd573d6000803e3d6000fd5b5050505082613c0b81614296565b6001600160a01b0316336001600160a01b031614613c3c576040516395383ea160e01b815260040160405180910390fd5b670de0b6b3a764000083108015613c535750600083115b613c5c57600080fd5b8260048190555050806001600160a01b031663d4f7af436040518163ffffffff1660e01b8152600401600060405180830381600087803b1580156104cf57600080fd5b6000602081815292815260408082208452918152819020805482516101a08101845260018301546001600160a01b03908116825260028401548287015260038401548286015260048401546060808401919091526005850154608080850191909152600686015460ff808216151560a08088019190915261010092839004861660c08089019190915260078a015460e0808a019190915260088b01548986015260098b0154610120808b0191909152600a8c01546101408b0152600b8c015489166101608b0152600c8c015489166101808b01528c519081018d52600d8c0180548252600e8d01549e82019e909e52600f8c01549c81019c909c5260108b0154968c019690965260118a0154948b019490945260128901549182161515908a015204831690870152601385018054929094169692959390840191613de290615d12565b80601f0160208091040260200160405190810160405280929190818152602001828054613e0e90615d12565b8015613e5b5780601f10613e3057610100808354040283529160200191613e5b565b820191906000526020600020905b815481529060010190602001808311613e3e57829003601f168201915b50505050508152602001600782018054613e7490615d12565b80601f0160208091040260200160405190810160405280929190818152602001828054613ea090615d12565b8015613eed5780601f10613ec257610100808354040283529160200191613eed565b820191906000526020600020905b815481529060010190602001808311613ed057829003601f168201915b50505091909252505060408051610100810190915260158401805493949391925090829060ff166001811115613f3357634e487b7160e01b600052602160045260246000fd5b6001811115613f5257634e487b7160e01b600052602160045260246000fd5b8152602001600182015481526020016002820154815260200160038201548152602001600482015481526020016005820160009054906101000a900460ff16151515158152602001600682016040518060a00160405290816000820160009054906101000a900460ff166003811115613fdb57634e487b7160e01b600052602160045260246000fd5b6003811115613ffa57634e487b7160e01b600052602160045260246000fd5b8152815461010080820463ffffffff16602080850191909152650100000000009092046001600160a01b031660408085019190915260018501546060850152600290940154608090930192909252928452815160a0810190925260098501805460ff80821615158552958501959394919391850192900416600381111561409157634e487b7160e01b600052602160045260246000fd5b60038111156140b057634e487b7160e01b600052602160045260246000fd5b815281546201000090046001600160a01b0316602080830191909152600183015460408084019190915260029093015460609092019190915291909252815180830190925260218501548252602285015490820152602384015460248501546025860154602690960154949592949193509160ff169089565b6001600160a01b038316600090815260016020908152604080832085845290915281206141569083614379565b949350505050565b6040516317ba7d8560e01b81527fff9379b98b93eb3bd1fac62fd2258a7955d70d2d5279c40064145b6c9646df37600482015282906001600160a01b038216906317ba7d859060240160206040518083038186803b1580156141bf57600080fd5b505afa1580156141d3573d6000803e3d6000fd5b505050506040513d601f19601f820116820180604052508101906141f79190615311565b6001600160a01b0316336001600160a01b03161415801561421e575061421c816143a5565b155b1561423c576040516395383ea160e01b815260040160405180910390fd5b6001600160a01b038316600090815260026020526040902061425e9083614379565b614284576001600160a01b03831660009081526002602052604090206106d69083614c9f565b505050565b6060600061031183614cb4565b6000816001600160a01b03166348f7f2a36040518163ffffffff1660e01b815260040160206040518083038186803b1580156142d157600080fd5b505afa1580156142e5573d6000803e3d6000fd5b505050506040513d601f19601f820116820180604052508101906143099190615311565b6001600160a01b0316638da5cb5b6040518163ffffffff1660e01b815260040160206040518083038186803b15801561434157600080fd5b505afa158015614355573d6000803e3d6000fd5b505050506040513d601f19601f820116820180604052508101906102dc9190615311565b6001600160a01b03811660009081526001830160205260408120541515610311565b60006102dc825490565b600080826001600160a01b031663c19d93fb6040518163ffffffff1660e01b815260040160206040518083038186803b1580156143e157600080fd5b505afa1580156143f5573d6000803e3d6000fd5b505050506040513d601f19601f820116820180604052508101906144199190615546565b600181111561443857634e487b7160e01b600052602160045260246000fd5b1480156102dc5750816001600160a01b031663c67143666040518163ffffffff1660e01b815260040160206040518083038186803b15801561447957600080fd5b505afa15801561448d573d6000803e3d6000fd5b505050506040513d601f19601f820116820180604052508101906144b19190615678565b158061454857506040517fa230c5240000000000000000000000000000000000000000000000000000000081523360048201526001600160a01b0383169063a230c5249060240160206040518083038186803b15801561451057600080fd5b505afa158015614524573d6000803e3d6000fd5b505050506040513d601f19601f820116820180604052508101906145489190615428565b806102dc57506040517f68c18beb0000000000000000000000000000000000000000000000000000000081523360048201526001600160a01b038316906368c18beb9060240160206040518083038186803b1580156145a657600080fd5b505afa1580156145ba573d6000803e3d6000fd5b505050506040513d601f19601f820116820180604052508101906102dc9190615428565b6000610311836001600160a01b038416614d10565b6040805160808101825260008082526020820181905291810182905260608101919091525a81600001818152505043826001600160a01b031663b21634826040518163ffffffff1660e01b815260040160206040518083038186803b15801561465b57600080fd5b505afa15801561466f573d6000803e3d6000fd5b505050506040513d601f19601f820116820180604052508101906146939190615678565b14156146e15760405162461bcd60e51b815260206004820152601060248201527f7265656e7472616e63792067756172640000000000000000000000000000000060448201526064016103d5565b816001600160a01b03166310fdb0a26040518163ffffffff1660e01b8152600401600060405180830381600087803b15801561471c57600080fd5b505af1158015614730573d6000803e3d6000fd5b50506040517f72c6838f0000000000000000000000000000000000000000000000000000000081527f1f2fd42ad6a6cacd573c4b212beb7a4e2499ad45d742a65337097f130e71daff6004820152600092506001600160a01b03851691506372c6838f9060240160206040518083038186803b1580156147af57600080fd5b505afa1580156147c3573d6000803e3d6000fd5b505050506040513d601f19601f820116820180604052508101906147e79190615311565b90506001600160a01b03811661480357600060208301526148b8565b6001600160a01b038181166060840181905283516040517f43a8a3f1000000000000000000000000000000000000000000000000000000008152928616600484015260248301526000918291906343a8a3f190604401604080518083038186803b15801561487057600080fd5b505afa158015614884573d6000803e3d6000fd5b505050506040513d601f19601f820116820180604052508101906148a89190615444565b9015156020860152604085015250505b50919050565b6040516317ba7d8560e01b81527f43f8439a5cef099d0d9a92b15a64e34ff49963bb29d65f63204eda6591b810a1600482015260009081906001600160a01b038816906317ba7d859060240160206040518083038186803b15801561492257600080fd5b505afa158015614936573d6000803e3d6000fd5b505050506040513d601f19601f8201168201806040525081019061495a9190615311565b6040517fd705e0cd000000000000000000000000000000000000000000000000000000008152600481018690526001600160a01b03898116602483015288811660448301528781166064830152608482018690529192509082169063d705e0cd9060a401602060405180830381600087803b1580156149d857600080fd5b505af11580156149ec573d6000803e3d6000fd5b505050506040513d601f19601f82011682018060405250810190614a109190615428565b979650505050505050565b60008181526001830160205260408120541515610311565b60006103118383614d10565b614a4a828233614e2d565b5050565b606081614a8e57505060408051808201909152600181527f3000000000000000000000000000000000000000000000000000000000000000602082015290565b8160005b8115614ab85780614aa281615d47565b9150614ab19050600a83615c9c565b9150614a92565b60008167ffffffffffffffff811115614ae157634e487b7160e01b600052604160045260246000fd5b6040519080825280601f01601f191660200182016040528015614b0b576020820181803683370190505b5090505b841561415657614b20600183615ccf565b9150614b2d600a86615d82565b614b38906030615c84565b60f81b818381518110614b5b57634e487b7160e01b600052603260045260246000fd5b60200101907effffffffffffffffffffffffffffffffffffffffffffffffffffffffffffff1916908160001a905350614b95600a86615c9c565b9450614b0f565b6000815160001415614bb057506000919050565b506020015190565b60005b81518160ff1610156106d657614c21828260ff1681518110614bed57634e487b7160e01b600052603260045260246000fd5b6020908102919091018101516001600160a01b03871660009081526001835260408082208883529093529190912090614379565b614c8157614c7f828260ff1681518110614c4b57634e487b7160e01b600052603260045260246000fd5b6020908102919091018101516001600160a01b03871660009081526001835260408082208883529093529190912090614c9f565b505b80614c8b81615d62565b915050614bbb565b60006103118383614f1e565b6000610311836001600160a01b038416614f1e565b606081600001805480602002602001604051908101604052809291908181526020018280548015614d0457602002820191906000526020600020905b815481526020019060010190808311614cf0575b50505050509050919050565b60008181526001830160205260408120548015614e23576000614d34600183615ccf565b8554909150600090614d4890600190615ccf565b9050818114614dc9576000866000018281548110614d7657634e487b7160e01b600052603260045260246000fd5b9060005260206000200154905080876000018481548110614da757634e487b7160e01b600052603260045260246000fd5b6000918252602080832090910192909255918252600188019052604090208390555b8554869080614de857634e487b7160e01b600052603160045260246000fd5b6001900381819060005260206000200160009055905585600101600086815260200190815260200160002060009055600193505050506102dc565b60009150506102dc565b816020015115614ee35781606001516001600160a01b0316635e5eb01384835a8651614e599190615ccf565b60408088015190517fffffffff0000000000000000000000000000000000000000000000000000000060e087901b1681526001600160a01b03948516600482015293909216602484015260448301526064820152608401600060405180830381600087803b158015614eca57600080fd5b505af1158015614ede573d6000803e3d6000fd5b505050505b826001600160a01b031663d4f7af436040518163ffffffff1660e01b8152600401600060405180830381600087803b1580156104cf57600080fd5b6000818152600183016020526040812054614f65575081546001818101845560008481526020808220909301849055845484825282860190935260409020919091556102dc565b5060006102dc565b604051806102a00160405280614f816150c7565b815260006020820181905260408201819052606082018190526080820181905260a0820181905260c0820181905260e090910190815260200160006001600160a01b031681526020016000815260200160006001600160a01b031681526020016000815260200160008152602001600081526020016000815260200160006001600160a01b0316815260200160006001600160a01b0316815260200160006001600160a01b031681526020016000815260200160008152602001606081525090565b82805461504f90615d12565b90600052602060002090601f01602090048101928261507157600085556150b7565b82601f1061508a57805160ff19168380011785556150b7565b828001600101855582156150b7579182015b828111156150b757825182559160200191906001019061509c565b506150c3929150615243565b5090565b60405180610120016040528060006001600160a01b03168152602001615174604051806101a0016040528060006001600160a01b031681526020016000815260200160008152602001600081526020016000815260200160001515815260200160006001600160a01b031681526020016000815260200160008152602001600081526020016000815260200160006001600160a01b0316815260200160006001600160a01b031681525090565b81526020016151d3604051806101200160405280600081526020016000815260200160008152602001600081526020016000815260200160001515815260200160006001600160a01b0316815260200160608152602001606081525090565b81526020016151e0615258565b8152602001615202604051806040016040528060008152602001600081525090565b815260200160008152602001600081526020016000600481111561523657634e487b7160e01b600052602160045260246000fd5b8152602001600081525090565b5b808211156150c35760008155600101615244565b6040805161010081019091528060008152602001600081526020016000815260200160008152602001600081526020016000151581526020016152c46040805160a081019091528060008152600060208201819052604082018190526060820181905260809091015290565b81526040805160a0810182526000808252602082810182905292820181905260608201819052608082015291015290565b600060208284031215615306578081fd5b813561031181615e01565b600060208284031215615322578081fd5b815161031181615e01565b6000806040838503121561533f578081fd5b823561534a81615e01565b946020939093013593505050565b6000602080838503121561536a578182fd5b825167ffffffffffffffff80821115615381578384fd5b818501915085601f830112615394578384fd5b8151818111156153a6576153a6615dd8565b8060051b91506153b7848301615c53565b8181528481019084860184860187018a10156153d1578788fd5b8795505b838610156153ff57805194506153ea85615e01565b848352600195909501949186019186016153d5565b5098975050505050505050565b60006020828403121561541d578081fd5b813561031181615e16565b600060208284031215615439578081fd5b815161031181615e16565b60008060408385031215615456578182fd5b825161546181615e16565b6020939093015192949293505050565b60008060408385031215615483578182fd5b823561548e81615e01565b9150602083013561549e81615e01565b809150509250929050565b6000806040838503121561533f578182fd5b6000806000606084860312156154cf578081fd5b83356154da81615e01565b92506020840135915060408401356154f181615e01565b809150509250925092565b6000806040838503121561550e578182fd5b823561551981615e01565b9150602083013567ffffffffffffffff811115615534578182fd5b83016103e0818603121561549e578182fd5b600060208284031215615557578081fd5b815161031181615e24565b600060208284031215615573578081fd5b813561031181615e24565b60006020828403121561558f578081fd5b813561031181615e31565b6000806000606084860312156155ae578081fd5b8351600681106155bc578182fd5b602085015160409095015190969495509392505050565b600060a082840312156155e4578081fd5b6155ec615c2a565b82356155f781615e31565b8152602083013563ffffffff8116811461560f578283fd5b6020820152604083013561562281615e01565b6040820152606083810135908201526080928301359281019290925250919050565b600060a08284031215615655578081fd5b61565d615c2a565b823561566881615e16565b8152602083013561560f81615e31565b600060208284031215615689578081fd5b5051919050565b6000815180845260208085019450808401835b838110156156c85781516001600160a01b0316875295820195908201906001016156a3565b509495945050505050565b600081518084526156eb816020860160208601615ce6565b601f01601f19169290920160200192915050565b6005811061570f5761570f615dc2565b9052565b80516002811061572557615725615dc2565b808352506020810151602083015260408101516040830152606081015160608301526080810151608083015260a0810151151560a083015260c081015161576f60c0840182615783565b5060e08101516142846101608401826157c8565b805161578e81615dee565b825260208181015163ffffffff16908301526040808201516001600160a01b03169083015260608082015190830152608090810151910152565b80511515825260208101516157dc81615dee565b60208301526040818101516001600160a01b03169083015260608082015190830152608090810151910152565b6000610120825184526020830151602085015260408301516040850152606083015160608501526080830151608085015260a083015161584d60a086018215159052565b5060c083015161586860c08601826001600160a01b03169052565b5060e08301518160e0860152615880828601826156d3565b915050610100808401518583038287015261589b83826156d3565b9695505050505050565b7fffffffffffffffff000000000000000000000000000000000000000000000000831681527f496e766573746d656e7423000000000000000000000000000000000000000000600882015260008251615905816013850160208701615ce6565b919091016013019392505050565b6001600160a01b038516815283602082015261593260408201846156ff565b60806060820152600061589b6080830184615690565b6001600160a01b038a81168252895116602082015260006104a060208b0151604084015260408b0151606084015260608b0151608084015260808b015160a084015260a08b015161599d60c085018215159052565b5060c08b01516001600160a01b03811660e08501525060e08b0151610100848101919091528b0151610120808501919091528b0151610140808501919091528b0151610160808501919091528b0151610180615a03818601836001600160a01b03169052565b8c01516001600160a01b03166101a0850152506101c08301819052615a2a8184018b615809565b915050615a3b6101e0830189615713565b86516103e083015260208701516104008301528561042083015284610440830152615a6a6104608301856156ff565b826104808301529a9950505050505050505050565b6020815260006103116020830184615690565b6000610120820190506001600160a01b03808816835260208188168185015281871660408501528560608501526080840191508460005b6005811015615ae657815184529282019290820190600101615ac9565b505050509695505050505050565b6001600160a01b0386811682526020820186905284811660408301528316606082015260a0810161589b60808301846156ff565b6001600160a01b0384168152826020820152606060408201526000615b5060608301846156d3565b95945050505050565b6000808335601e19843603018112615b6f578283fd5b83018035915067ffffffffffffffff821115615b89578283fd5b6020019150600581901b3603821315615ba157600080fd5b9250929050565b6000808335601e19843603018112615bbe578283fd5b83018035915067ffffffffffffffff821115615bd8578283fd5b602001915036819003821315615ba157600080fd5b600082357ffffffffffffffffffffffffffffffffffffffffffffffffffffffffffffffee1833603018112615c20578182fd5b9190910192915050565b60405160a0810167ffffffffffffffff81118282101715615c4d57615c4d615dd8565b60405290565b604051601f8201601f1916810167ffffffffffffffff81118282101715615c7c57615c7c615dd8565b604052919050565b60008219821115615c9757615c97615d96565b500190565b600082615cab57615cab615dac565b500490565b6000816000190483118215151615615cca57615cca615d96565b500290565b600082821015615ce157615ce1615d96565b500390565b60005b83811015615d01578181015183820152602001615ce9565b838111156106d65750506000910152565b600181811c90821680615d2657607f821691505b602082108114156148b857634e487b7160e01b600052602260045260246000fd5b6000600019821415615d5b57615d5b615d96565b5060010190565b600060ff821660ff811415615d7957615d79615d96565b60010192915050565b600082615d9157615d91615dac565b500690565b634e487b7160e01b600052601160045260246000fd5b634e487b7160e01b600052601260045260246000fd5b634e487b7160e01b600052602160045260246000fd5b634e487b7160e01b600052604160045260246000fd5b60048110615dfe57615dfe615dc2565b50565b6001600160a01b0381168114615dfe57600080fd5b8015158114615dfe57600080fd5b60028110615dfe57600080fd5b60048110615dfe57600080fdfea264697066735822122033a941b21e30686798e7d02d36424191e4c9188476797fdc57f61873f85134df64736f6c63430008040033",
  "linkReferences": {},
  "deployedLinkReferences": {}
}