{
  "_format": "hh-sol-artifact-1",
  "contractName": "InvestmentReceiptERC721",
  "sourceName": "contracts/InvestmentReceiptERC721.sol",
  "abi": [
    {
      "inputs": [
        {
          "internalType": "string",
          "name": "name",
          "type": "string"
        },
        {
          "internalType": "string",
          "name": "symbol",
          "type": "string"
        },
        {
          "internalType": "address",
          "name": "_ercHelperContrAddress",
          "type": "address"
        }
      ],
      "stateMutability": "nonpayable",
      "type": "constructor"
    },
    {
      "inputs": [],
      "name": "ALREADY_MINTED",
      "type": "error"
    },
    {
      "inputs": [],
      "name": "UN_MINTABLE",
      "type": "error"
    },
    {
      "anonymous": false,
      "inputs": [
        {
          "indexed": true,
          "internalType": "address",
          "name": "owner",
          "type": "address"
        },
        {
          "indexed": true,
          "internalType": "address",
          "name": "spender",
          "type": "address"
        },
        {
          "indexed": true,
          "internalType": "uint256",
          "name": "id",
          "type": "uint256"
        }
      ],
      "name": "Approval",
      "type": "event"
    },
    {
      "anonymous": false,
      "inputs": [
        {
          "indexed": true,
          "internalType": "address",
          "name": "owner",
          "type": "address"
        },
        {
          "indexed": true,
          "internalType": "address",
          "name": "operator",
          "type": "address"
        },
        {
          "indexed": false,
          "internalType": "bool",
          "name": "approved",
          "type": "bool"
        }
      ],
      "name": "ApprovalForAll",
      "type": "event"
    },
    {
      "anonymous": false,
      "inputs": [
        {
          "indexed": false,
          "internalType": "bytes32",
          "name": "proposalId",
          "type": "bytes32"
        },
        {
          "indexed": false,
          "internalType": "address",
          "name": "minter",
          "type": "address"
        },
        {
          "indexed": false,
          "internalType": "uint256",
          "name": "tokenId",
          "type": "uint256"
        }
      ],
      "name": "Minted",
      "type": "event"
    },
    {
      "anonymous": false,
      "inputs": [
        {
          "indexed": true,
          "internalType": "address",
          "name": "from",
          "type": "address"
        },
        {
          "indexed": true,
          "internalType": "address",
          "name": "to",
          "type": "address"
        },
        {
          "indexed": true,
          "internalType": "uint256",
          "name": "id",
          "type": "uint256"
        }
      ],
      "name": "Transfer",
      "type": "event"
    },
    {
      "inputs": [],
      "name": "_owner",
      "outputs": [
        {
          "internalType": "address",
          "name": "",
          "type": "address"
        }
      ],
      "stateMutability": "view",
      "type": "function"
    },
    {
      "inputs": [
        {
          "internalType": "address",
          "name": "spender",
          "type": "address"
        },
        {
          "internalType": "uint256",
          "name": "id",
          "type": "uint256"
        }
      ],
      "name": "approve",
      "outputs": [],
      "stateMutability": "nonpayable",
      "type": "function"
    },
    {
      "inputs": [
        {
          "internalType": "address",
          "name": "owner",
          "type": "address"
        }
      ],
      "name": "balanceOf",
      "outputs": [
        {
          "internalType": "uint256",
          "name": "",
          "type": "uint256"
        }
      ],
      "stateMutability": "view",
      "type": "function"
    },
    {
      "inputs": [],
      "name": "contractURI",
      "outputs": [
        {
          "internalType": "string",
          "name": "",
          "type": "string"
        }
      ],
      "stateMutability": "pure",
      "type": "function"
    },
    {
      "inputs": [
        {
          "internalType": "uint256",
          "name": "",
          "type": "uint256"
        }
      ],
      "name": "getApproved",
      "outputs": [
        {
          "internalType": "address",
          "name": "",
          "type": "address"
        }
      ],
      "stateMutability": "view",
      "type": "function"
    },
    {
      "inputs": [
        {
          "internalType": "bytes32",
          "name": "investmentProposalId",
          "type": "bytes32"
        },
        {
          "internalType": "address",
          "name": "account",
          "type": "address"
        }
      ],
      "name": "getTokenIds",
      "outputs": [
        {
          "internalType": "uint256[]",
          "name": "",
          "type": "uint256[]"
        }
      ],
      "stateMutability": "view",
      "type": "function"
    },
    {
      "inputs": [
        {
          "internalType": "address",
          "name": "",
          "type": "address"
        },
        {
          "internalType": "address",
          "name": "",
          "type": "address"
        }
      ],
      "name": "isApprovedForAll",
      "outputs": [
        {
          "internalType": "bool",
          "name": "",
          "type": "bool"
        }
      ],
      "stateMutability": "view",
      "type": "function"
    },
    {
      "inputs": [],
      "name": "maxTotalSupply",
      "outputs": [
        {
          "internalType": "uint256",
          "name": "",
          "type": "uint256"
        }
      ],
      "stateMutability": "view",
      "type": "function"
    },
    {
      "inputs": [
        {
          "internalType": "bytes32",
          "name": "",
          "type": "bytes32"
        },
        {
          "internalType": "address",
          "name": "",
          "type": "address"
        }
      ],
      "name": "mintedAccounts",
      "outputs": [
        {
          "internalType": "bool",
          "name": "",
          "type": "bool"
        }
      ],
      "stateMutability": "view",
      "type": "function"
    },
    {
      "inputs": [],
      "name": "name",
      "outputs": [
        {
          "internalType": "string",
          "name": "",
          "type": "string"
        }
      ],
      "stateMutability": "view",
      "type": "function"
    },
    {
      "inputs": [
        {
          "internalType": "uint256",
          "name": "id",
          "type": "uint256"
        }
      ],
      "name": "ownerOf",
      "outputs": [
        {
          "internalType": "address",
          "name": "owner",
          "type": "address"
        }
      ],
      "stateMutability": "view",
      "type": "function"
    },
    {
      "inputs": [],
      "name": "receiptERC721HelperContrAddress",
      "outputs": [
        {
          "internalType": "address",
          "name": "",
          "type": "address"
        }
      ],
      "stateMutability": "view",
      "type": "function"
    },
    {
      "inputs": [
        {
          "internalType": "address",
          "name": "daoAddr",
          "type": "address"
        },
        {
          "internalType": "bytes32",
          "name": "investmentProposalId",
          "type": "bytes32"
        },
        {
          "internalType": "uint8",
          "name": "mode",
          "type": "uint8"
        },
        {
          "internalType": "string",
          "name": "executedTxHash",
          "type": "string"
        },
        {
          "internalType": "string",
          "name": "projectName",
          "type": "string"
        },
        {
          "internalType": "string",
          "name": "description",
          "type": "string"
        }
      ],
      "name": "safeMint",
      "outputs": [
        {
          "internalType": "uint256",
          "name": "id",
          "type": "uint256"
        }
      ],
      "stateMutability": "nonpayable",
      "type": "function"
    },
    {
      "inputs": [
        {
          "internalType": "address",
          "name": "from",
          "type": "address"
        },
        {
          "internalType": "address",
          "name": "to",
          "type": "address"
        },
        {
          "internalType": "uint256",
          "name": "id",
          "type": "uint256"
        }
      ],
      "name": "safeTransferFrom",
      "outputs": [],
      "stateMutability": "nonpayable",
      "type": "function"
    },
    {
      "inputs": [
        {
          "internalType": "address",
          "name": "from",
          "type": "address"
        },
        {
          "internalType": "address",
          "name": "to",
          "type": "address"
        },
        {
          "internalType": "uint256",
          "name": "id",
          "type": "uint256"
        },
        {
          "internalType": "bytes",
          "name": "data",
          "type": "bytes"
        }
      ],
      "name": "safeTransferFrom",
      "outputs": [],
      "stateMutability": "nonpayable",
      "type": "function"
    },
    {
      "inputs": [
        {
          "internalType": "address",
          "name": "operator",
          "type": "address"
        },
        {
          "internalType": "bool",
          "name": "approved",
          "type": "bool"
        }
      ],
      "name": "setApprovalForAll",
      "outputs": [],
      "stateMutability": "nonpayable",
      "type": "function"
    },
    {
      "inputs": [
        {
          "internalType": "bytes4",
          "name": "interfaceId",
          "type": "bytes4"
        }
      ],
      "name": "supportsInterface",
      "outputs": [
        {
          "internalType": "bool",
          "name": "",
          "type": "bool"
        }
      ],
      "stateMutability": "view",
      "type": "function"
    },
    {
      "inputs": [],
      "name": "symbol",
      "outputs": [
        {
          "internalType": "string",
          "name": "",
          "type": "string"
        }
      ],
      "stateMutability": "view",
      "type": "function"
    },
    {
      "inputs": [
        {
          "internalType": "uint256",
          "name": "",
          "type": "uint256"
        }
      ],
      "name": "tokenIdToInvestmentProposalId",
      "outputs": [
        {
          "internalType": "bytes32",
          "name": "",
          "type": "bytes32"
        }
      ],
      "stateMutability": "view",
      "type": "function"
    },
    {
      "inputs": [
        {
          "internalType": "uint256",
          "name": "",
          "type": "uint256"
        }
      ],
      "name": "tokenIdToInvestmentProposalInfo",
      "outputs": [
        {
          "internalType": "address",
          "name": "daoAddress",
          "type": "address"
        },
        {
          "internalType": "bytes32",
          "name": "investmentProposalId",
          "type": "bytes32"
        },
        {
          "internalType": "uint256",
          "name": "proposalExecutedBlockNum",
          "type": "uint256"
        },
        {
          "internalType": "string",
          "name": "executedTxHash",
          "type": "string"
        },
        {
          "internalType": "uint256",
          "name": "totalInvestedAmount",
          "type": "uint256"
        },
        {
          "internalType": "uint256",
          "name": "myInvestedAmount",
          "type": "uint256"
        },
        {
          "components": [
            {
              "internalType": "address",
              "name": "tokenAddress",
              "type": "address"
            },
            {
              "internalType": "string",
              "name": "tokenSymbol",
              "type": "string"
            },
            {
              "internalType": "string",
              "name": "tokenName",
              "type": "string"
            }
          ],
          "internalType": "struct InvestmentReceiptERC721.ERC20Info",
          "name": "erc20",
          "type": "tuple"
        },
        {
          "internalType": "string",
          "name": "projectName",
          "type": "string"
        },
        {
          "internalType": "string",
          "name": "description",
          "type": "string"
        },
        {
          "internalType": "string",
          "name": "investmentProposalLink",
          "type": "string"
        }
      ],
      "stateMutability": "view",
      "type": "function"
    },
    {
      "inputs": [
        {
          "internalType": "uint256",
          "name": "tokenId",
          "type": "uint256"
        }
      ],
      "name": "tokenURI",
      "outputs": [
        {
          "internalType": "string",
          "name": "",
          "type": "string"
        }
      ],
      "stateMutability": "view",
      "type": "function"
    },
    {
      "inputs": [],
      "name": "totalSupply",
      "outputs": [
        {
          "internalType": "uint256",
          "name": "",
          "type": "uint256"
        }
      ],
      "stateMutability": "view",
      "type": "function"
    },
    {
      "inputs": [
        {
          "internalType": "address",
          "name": "from",
          "type": "address"
        },
        {
          "internalType": "address",
          "name": "to",
          "type": "address"
        },
        {
          "internalType": "uint256",
          "name": "id",
          "type": "uint256"
        }
      ],
      "name": "transferFrom",
      "outputs": [],
      "stateMutability": "nonpayable",
      "type": "function"
    }
  ],
  "bytecode": "0x60806040523480156200001157600080fd5b5060405162004c8a38038062004c8a8339810160408190526200003491620001f7565b8251839083906200004d9060009060208501906200009e565b508051620000639060019060208401906200009e565b505060078054336001600160a01b031991821617909155600880549091166001600160a01b03939093169290921790915550620002d3915050565b828054620000ac9062000280565b90600052602060002090601f016020900481019282620000d057600085556200011b565b82601f10620000eb57805160ff19168380011785556200011b565b828001600101855582156200011b579182015b828111156200011b578251825591602001919060010190620000fe565b50620001299291506200012d565b5090565b5b808211156200012957600081556001016200012e565b600082601f83011262000155578081fd5b81516001600160401b0380821115620001725762000172620002bd565b604051601f8301601f19908116603f011681019082821181831017156200019d576200019d620002bd565b81604052838152602092508683858801011115620001b9578485fd5b8491505b83821015620001dc5785820183015181830184015290820190620001bd565b83821115620001ed57848385830101525b9695505050505050565b6000806000606084860312156200020c578283fd5b83516001600160401b038082111562000223578485fd5b620002318783880162000144565b9450602086015191508082111562000247578384fd5b50620002568682870162000144565b604086015190935090506001600160a01b038116811462000275578182fd5b809150509250925092565b600181811c908216806200029557607f821691505b60208210811415620002b757634e487b7160e01b600052602260045260246000fd5b50919050565b634e487b7160e01b600052604160045260246000fd5b6149a780620002e36000396000f3fe608060405234801561001057600080fd5b506004361061018c5760003560e01c806370a08231116100e3578063b88d4fde1161008c578063e32616e611610066578063e32616e614610377578063e8a3d485146103a0578063e985e9c5146103a857600080fd5b8063b88d4fde14610331578063c87b56dd14610344578063d060a7e61461035757600080fd5b806395d89b41116100bd57806395d89b4114610303578063a22cb4651461030b578063b2bdfa7b1461031e57600080fd5b806370a08231146102a257806376e5b828146102b55780638cfa2865146102d557600080fd5b80630e1edcfa116101455780632ab4d0521161011f5780632ab4d0521461027357806342842e0e1461027c5780636352211e1461028f57600080fd5b80630e1edcfa1461023757806318160ddd1461025857806323b872dd1461026057600080fd5b806306fdde031161017657806306fdde03146101e4578063081812fc146101f9578063095ea7b31461022257600080fd5b8062979e5f1461019157806301ffc9a7146101c1575b600080fd5b6008546101a4906001600160a01b031681565b6040516001600160a01b0390911681526020015b60405180910390f35b6101d46101cf366004613dbb565b6103d6565b60405190151581526020016101b8565b6101ec610473565b6040516101b8919061432e565b6101a4610207366004613f3a565b6004602052600090815260409020546001600160a01b031681565b610235610230366004613c6e565b610501565b005b61024a610245366004613a42565b610604565b6040519081526020016101b8565b60095461024a565b61023561026e36600461393b565b6116db565b61024a60095481565b61023561028a36600461393b565b6117b5565b6101a461029d366004613f3a565b6118c9565b61024a6102b03660046138cb565b611933565b61024a6102c3366004613f3a565b600a6020526000908152604090205481565b6101d46102e3366004613d97565b600c60209081526000928352604080842090915290825290205460ff1681565b6101ec6119a7565b610235610319366004613a15565b6119b4565b6007546101a4906001600160a01b031681565b61023561033f36600461397b565b611a20565b6101ec610352366004613f3a565b611b24565b61036a610365366004613d97565b611fff565b6040516101b891906142ea565b61038a610385366004613f3a565b61202d565b6040516101b89a9998979695949392919061421a565b6101ec6123ec565b6101d46103b6366004613903565b600560209081526000928352604080842090915290825290205460ff1681565b60007f01ffc9a7000000000000000000000000000000000000000000000000000000006001600160e01b03198316148061043957507f80ac58cd000000000000000000000000000000000000000000000000000000006001600160e01b03198316145b8061046d57507f5b5e139f000000000000000000000000000000000000000000000000000000006001600160e01b03198316145b92915050565b600080546104809061457d565b80601f01602080910402602001604051908101604052809291908181526020018280546104ac9061457d565b80156104f95780601f106104ce576101008083540402835291602001916104f9565b820191906000526020600020905b8154815290600101906020018083116104dc57829003601f168201915b505050505081565b6000818152600260205260409020546001600160a01b03163381148061054a57506001600160a01b038116600090815260056020908152604080832033845290915290205460ff165b61059b5760405162461bcd60e51b815260206004820152600e60248201527f4e4f545f415554484f52495a454400000000000000000000000000000000000060448201526064015b60405180910390fd5b600082815260046020526040808220805473ffffffffffffffffffffffffffffffffffffffff19166001600160a01b0387811691821790925591518593918516917f8c5be1e5ebec7d5bd14f71427d1e84f3dd0314c0f7b2291e5b200ac8c7c3b92591a4505050565b6000858152600c6020908152604080832033845290915281205460ff1615156001141561065d576040517fdfa4c0d500000000000000000000000000000000000000000000000000000000815260040160405180910390fd5b6106656130a8565b60ff8616610aa8576040516317ba7d8560e01b81527f7a8526bca00f0726b2fab8c3bfd5b00bfa84d07f111e48263b13de605eefcdda60048201526001600160a01b038916906317ba7d859060240160206040518083038186803b1580156106cc57600080fd5b505afa1580156106e0573d6000803e3d6000fd5b505050506040513d601f19601f8201168201806040525081019061070491906138e7565b6040517fbf4999940000000000000000000000000000000000000000000000000000000081526001600160a01b038a81166004830152602482018a9052919091169063bf4999949060440160006040518083038186803b15801561076757600080fd5b505afa15801561077b573d6000803e3d6000fd5b505050506040513d6000823e601f3d908101601f191682016040526107a39190810190613af9565b60608a01525050505060a0808601839052608086018490528381015115156101e0870152919091015115156101c085015250516001600160a01b0390811660e08401526040516317ba7d8560e01b81527feae11da953333a83b6467e2193334fb302549e1a42ad5797082aea1ab6be9120600482015260009250908a16906317ba7d859060240160206040518083038186803b15801561084257600080fd5b505afa158015610856573d6000803e3d6000fd5b505050506040513d601f19601f8201168201806040525081019061087a91906138e7565b6040517e75e7eb0000000000000000000000000000000000000000000000000000000081526001600160a01b038b81166004830152602482018b905233604483015291909116906275e7eb90606401604080518083038186803b1580156108e057600080fd5b505afa1580156108f4573d6000803e3d6000fd5b505050506040513d601f19601f820116820180604052508101906109189190613c99565b604051632c9f4b5b60e11b81527fb12a3847d47fefceb164b75823af125f9aa82b76938df0ddf08c04cd314ba37c60048201529092508291506001600160a01b038b169063593e96b69060240160206040518083038186803b15801561097d57600080fd5b505afa158015610991573d6000803e3d6000fd5b505050506040513d601f19601f820116820180604052508101906109b591906138e7565b6001600160a01b0316639e3f2d908a33600187606001516109d69190614523565b6040516001600160e01b031960e086901b16815260048101939093526001600160a01b039091166024830152604482015260640160206040518083038186803b158015610a2257600080fd5b505afa158015610a36573d6000803e3d6000fd5b505050506040513d601f19601f82011682018060405250810190610a5a9190613f52565b610a649190614523565b808352608080840151606081018051604087015291015190519091610a899190614504565b610a9391906144e4565b825250608080820151015160208201526111a3565b8560ff1660011415610e6c576040516317ba7d8560e01b81527f0fd8cce4ef00a7a8c0c5f91194bc80f122deefe664dd2a2384687da62ab117d160048201526001600160a01b038916906317ba7d859060240160206040518083038186803b158015610b1357600080fd5b505afa158015610b27573d6000803e3d6000fd5b505050506040513d601f19601f82011682018060405250810190610b4b91906138e7565b6040517f5cb752760000000000000000000000000000000000000000000000000000000081526001600160a01b038a81166004830152602482018a90529190911690635cb752769060440160006040518083038186803b158015610bae57600080fd5b505afa158015610bc2573d6000803e3d6000fd5b505050506040513d6000823e601f3d908101601f19168201604052610bea9190810190613cc6565b60608c01525060c08a018190526040808b01989098526001600160a01b0398891660e08b0152608081015115156101c08b01525115156101e08a015250509351632c9f4b5b60e11b81527f161fca6912f107b0f13c9c7275de7391b32d2ea1c52ffba65a3c961880a0c60f6004820152948d169463593e96b694506024019250610c72915050565b60206040518083038186803b158015610c8a57600080fd5b505afa158015610c9e573d6000803e3d6000fd5b505050506040513d601f19601f82011682018060405250810190610cc291906138e7565b6001600160a01b0316610120820181905260e0820151606083015163faaf38b39161decd91610cf390600190614523565b6040516001600160e01b031960e086901b1681526001600160a01b039384166004820152929091166024830152604482015260640160206040518083038186803b158015610d4057600080fd5b505afa158015610d54573d6000803e3d6000fd5b505050506040513d601f19601f82011682018060405250810190610d789190613f0a565b6fffffffffffffffffffffffffffffffff1681604001518261012001516001600160a01b031663faaf38b3338560e0015160018760600151610dba9190614523565b6040516001600160e01b031960e086901b1681526001600160a01b039384166004820152929091166024830152604482015260640160206040518083038186803b158015610e0757600080fd5b505afa158015610e1b573d6000803e3d6000fd5b505050506040513d601f19601f82011682018060405250810190610e3f9190613f0a565b6fffffffffffffffffffffffffffffffff16610e5b9190614504565b610e6591906144e4565b81526111a3565b8560ff16600214156111a3576040516317ba7d8560e01b81527f72894213a5c7f56b36b2947fa6ea18963d6bb1a68746b46d7f552cca76e1a7a860048201526001600160a01b038916906317ba7d859060240160206040518083038186803b158015610ed757600080fd5b505afa158015610eeb573d6000803e3d6000fd5b505050506040513d601f19601f82011682018060405250810190610f0f91906138e7565b6040517f5cb752760000000000000000000000000000000000000000000000000000000081526001600160a01b038a81166004830152602482018a90529190911690635cb752769060440160006040518083038186803b158015610f7257600080fd5b505afa158015610f86573d6000803e3d6000fd5b505050506040513d6000823e601f3d908101601f19168201604052610fae9190810190613e26565b50606087015250506101608401526101808301526101408201819052602080820151604080850191909152918201519083015251632c9f4b5b60e11b81527f3909e87234f428ccb8748126e2c93f66a62f92a70d315fa5803dec6362be07ab60048201526001600160a01b0389169063593e96b69060240160206040518083038186803b15801561103e57600080fd5b505afa158015611052573d6000803e3d6000fd5b505050506040513d601f19601f8201168201806040525081019061107691906138e7565b6001600160a01b039081166101a0830181905261016083015160a0015115156101c08401526101808301515115156101e0840152610140830151805190921660e08401529051606083015163faaf38b39161decd916110d790600190614523565b6040516001600160e01b031960e086901b1681526001600160a01b039384166004820152929091166024830152604482015260640160206040518083038186803b15801561112457600080fd5b505afa158015611138573d6000803e3d6000fd5b505050506040513d601f19601f8201168201806040525081019061115c9190613f0a565b6fffffffffffffffffffffffffffffffff168160400151826101a001516001600160a01b031663faaf38b3338561014001516000015160018760600151610dba9190614523565b805115806111c35750806101c0015180156111c157506101e0810151155b155b156111fa576040517f3ffd124200000000000000000000000000000000000000000000000000000000815260040160405180910390fd5b611208600680546001019055565b600061121360065490565b905061121f3382612455565b6000888152600c6020908152604080832033808552908352818420805460ff191660011790558b8452600d835281842090845290915290206112619082612564565b506000818152600a6020526040812089905560098054600192906112869084906144cc565b909155506000905060ff881615611318578760ff166001146112dd576040518060400160405280600a81526020017f636f6c6c6563746976650000000000000000000000000000000000000000000081525061134f565b6040518060400160405280600781526020017f76696e746167650000000000000000000000000000000000000000000000000081525061134f565b6040518060400160405280600481526020017f666c6578000000000000000000000000000000000000000000000000000000008152505b6113638b6001600160a01b03166014612570565b61136c8b6127df565b61137960808d901b6127df565b6040517f307800000000000000000000000000000000000000000000000000000000000060208201526022810192909252604282015260620160408051601f19818403018152908290526113d1939291602001613f96565b60405160208183030381529060405290506040518061014001604052808b6001600160a01b031681526020018a815260200184606001518152602001888152602001846040015181526020018460000151815260200160405180606001604052808660e001516001600160a01b031681526020018660e001516001600160a01b03166395d89b416040518163ffffffff1660e01b815260040160006040518083038186803b15801561148257600080fd5b505afa158015611496573d6000803e3d6000fd5b505050506040513d6000823e601f3d908101601f191682016040526114be9190810190613df3565b81526020018660e001516001600160a01b03166306fdde036040518163ffffffff1660e01b815260040160006040518083038186803b15801561150057600080fd5b505afa158015611514573d6000803e3d6000fd5b505050506040513d6000823e601f3d908101601f1916820160405261153c9190810190613df3565b905281526020808201899052604080830189905260609283018590526000868152600b83528190208451815473ffffffffffffffffffffffffffffffffffffffff19166001600160a01b039091161781558483015160018201559084015160028201559183015180516115b59260038501920190613306565b506080820151600482015560a0820151600582015560c0820151805160068301805473ffffffffffffffffffffffffffffffffffffffff19166001600160a01b0390921691909117815560208083015180516116179260078701920190613306565b5060408201518051611633916002840191602090910190613306565b50505060e08201518051611651916009840191602090910190613306565b50610100820151805161166e91600a840191602090910190613306565b50610120820151805161168b91600b840191602090910190613306565b5050604080518b81523360208201529081018490527f1a49076e0e8c733171c5360d78c9ae8e19fef5a0720b926e72f78b7cc37618cd915060600160405180910390a15098975050505050505050565b6000818152600a6020908152604080832054808452600d83528184206001600160a01b038716855290925290912061171390836129af565b611745576000818152600d602090815260408083206001600160a01b038716845290915290206117439083612564565b505b6000818152600d602090815260408083206001600160a01b0388168452909152902061177190836129af565b156117a4576000818152600d602090815260408083206001600160a01b038816845290915290206117a290836129c7565b505b6117af8484846129d3565b50505050565b6117c08383836116db565b6001600160a01b0382163b15806118785750604051630a85bd0160e11b8082523360048301526001600160a01b03858116602484015260448301849052608060648401526000608484015290919084169063150b7a029060a401602060405180830381600087803b15801561183457600080fd5b505af1158015611848573d6000803e3d6000fd5b505050506040513d601f19601f8201168201806040525081019061186c9190613dd7565b6001600160e01b031916145b6118c45760405162461bcd60e51b815260206004820152601060248201527f554e534146455f524543495049454e54000000000000000000000000000000006044820152606401610592565b505050565b6000818152600260205260409020546001600160a01b03168061192e5760405162461bcd60e51b815260206004820152600a60248201527f4e4f545f4d494e544544000000000000000000000000000000000000000000006044820152606401610592565b919050565b60006001600160a01b03821661198b5760405162461bcd60e51b815260206004820152600c60248201527f5a45524f5f4144445245535300000000000000000000000000000000000000006044820152606401610592565b506001600160a01b031660009081526003602052604090205490565b600180546104809061457d565b3360008181526005602090815260408083206001600160a01b03871680855290835292819020805460ff191686151590811790915590519081529192917f17307eab39ab6107e8899845ad3d59bd9653f200f220920489ca2b5937696c31910160405180910390a35050565b611a2b8585856116db565b6001600160a01b0384163b1580611ad15750604051630a85bd0160e11b808252906001600160a01b0386169063150b7a0290611a739033908a908990899089906004016141c9565b602060405180830381600087803b158015611a8d57600080fd5b505af1158015611aa1573d6000803e3d6000fd5b505050506040513d601f19601f82011682018060405250810190611ac59190613dd7565b6001600160e01b031916145b611b1d5760405162461bcd60e51b815260206004820152601060248201527f554e534146455f524543495049454e54000000000000000000000000000000006044820152606401610592565b5050505050565b6000818152600b6020908152604080832081516101408101835281546001600160a01b0316815260018201549381019390935260028101549183019190915260038101805460609493929183860191611b7c9061457d565b80601f0160208091040260200160405190810160405280929190818152602001828054611ba89061457d565b8015611bf55780601f10611bca57610100808354040283529160200191611bf5565b820191906000526020600020905b815481529060010190602001808311611bd857829003601f168201915b505050505081526020016004820154815260200160058201548152602001600682016040518060600160405290816000820160009054906101000a90046001600160a01b03166001600160a01b03166001600160a01b03168152602001600182018054611c619061457d565b80601f0160208091040260200160405190810160405280929190818152602001828054611c8d9061457d565b8015611cda5780601f10611caf57610100808354040283529160200191611cda565b820191906000526020600020905b815481529060010190602001808311611cbd57829003601f168201915b50505050508152602001600282018054611cf39061457d565b80601f0160208091040260200160405190810160405280929190818152602001828054611d1f9061457d565b8015611d6c5780601f10611d4157610100808354040283529160200191611d6c565b820191906000526020600020905b815481529060010190602001808311611d4f57829003601f168201915b5050505050815250508152602001600982018054611d899061457d565b80601f0160208091040260200160405190810160405280929190818152602001828054611db59061457d565b8015611e025780601f10611dd757610100808354040283529160200191611e02565b820191906000526020600020905b815481529060010190602001808311611de557829003601f168201915b50505050508152602001600a82018054611e1b9061457d565b80601f0160208091040260200160405190810160405280929190818152602001828054611e479061457d565b8015611e945780601f10611e6957610100808354040283529160200191611e94565b820191906000526020600020905b815481529060010190602001808311611e7757829003601f168201915b50505050508152602001600b82018054611ead9061457d565b80601f0160208091040260200160405190810160405280929190818152602001828054611ed99061457d565b8015611f265780601f10611efb57610100808354040283529160200191611f26565b820191906000526020600020905b815481529060010190602001808311611f0957829003601f168201915b505050919092525050600854606083015160e084015160c085015160200151610120860151608087015160a08801516101008901516040517f2a26c3ef000000000000000000000000000000000000000000000000000000008152999a506001600160a01b0390971698632a26c3ef9850611fa49790600401614341565b60006040518083038186803b158015611fbc57600080fd5b505afa158015611fd0573d6000803e3d6000fd5b505050506040513d6000823e601f3d908101601f19168201604052611ff89190810190613df3565b9392505050565b6000828152600d602090815260408083206001600160a01b03851684529091529020606090611ff890612bd5565b600b6020526000908152604090208054600182015460028301546003840180546001600160a01b039094169492939192916120679061457d565b80601f01602080910402602001604051908101604052809291908181526020018280546120939061457d565b80156120e05780601f106120b5576101008083540402835291602001916120e0565b820191906000526020600020905b8154815290600101906020018083116120c357829003601f168201915b505050506004830154600584015460408051606081019091526006860180546001600160a01b03168252600787018054969794969395509192909160208401916121299061457d565b80601f01602080910402602001604051908101604052809291908181526020018280546121559061457d565b80156121a25780601f10612177576101008083540402835291602001916121a2565b820191906000526020600020905b81548152906001019060200180831161218557829003601f168201915b505050505081526020016002820180546121bb9061457d565b80601f01602080910402602001604051908101604052809291908181526020018280546121e79061457d565b80156122345780601f1061220957610100808354040283529160200191612234565b820191906000526020600020905b81548152906001019060200180831161221757829003601f168201915b5050505050815250509080600901805461224d9061457d565b80601f01602080910402602001604051908101604052809291908181526020018280546122799061457d565b80156122c65780601f1061229b576101008083540402835291602001916122c6565b820191906000526020600020905b8154815290600101906020018083116122a957829003601f168201915b50505050509080600a0180546122db9061457d565b80601f01602080910402602001604051908101604052809291908181526020018280546123079061457d565b80156123545780601f1061232957610100808354040283529160200191612354565b820191906000526020600020905b81548152906001019060200180831161233757829003601f168201915b50505050509080600b0180546123699061457d565b80601f01602080910402602001604051908101604052809291908181526020018280546123959061457d565b80156123e25780601f106123b7576101008083540402835291602001916123e2565b820191906000526020600020905b8154815290600101906020018083116123c557829003601f168201915b505050505090508a565b6060612431604051806103400160405280610304815260200161466e610304913960405160200161241d91906140a6565b604051602081830303815290604052612be2565b6040516020016124419190614184565b604051602081830303815290604052905090565b61245f8282612dad565b6001600160a01b0382163b15806125145750604051630a85bd0160e11b80825233600483015260006024830181905260448301849052608060648401526084830152906001600160a01b0384169063150b7a029060a401602060405180830381600087803b1580156124d057600080fd5b505af11580156124e4573d6000803e3d6000fd5b505050506040513d601f19601f820116820180604052508101906125089190613dd7565b6001600160e01b031916145b6125605760405162461bcd60e51b815260206004820152601060248201527f554e534146455f524543495049454e54000000000000000000000000000000006044820152606401610592565b5050565b6000611ff88383612ee0565b6060600061257f836002614504565b61258a9060026144cc565b67ffffffffffffffff8111156125b057634e487b7160e01b600052604160045260246000fd5b6040519080825280601f01601f1916602001820160405280156125da576020820181803683370190505b5090507f30000000000000000000000000000000000000000000000000000000000000008160008151811061261f57634e487b7160e01b600052603260045260246000fd5b60200101907effffffffffffffffffffffffffffffffffffffffffffffffffffffffffffff1916908160001a9053507f78000000000000000000000000000000000000000000000000000000000000008160018151811061269057634e487b7160e01b600052603260045260246000fd5b60200101907effffffffffffffffffffffffffffffffffffffffffffffffffffffffffffff1916908160001a90535060006126cc846002614504565b6126d79060016144cc565b90505b6001811115612790577f303132333435363738396162636465660000000000000000000000000000000085600f166010811061272657634e487b7160e01b600052603260045260246000fd5b1a60f81b82828151811061274a57634e487b7160e01b600052603260045260246000fd5b60200101907effffffffffffffffffffffffffffffffffffffffffffffffffffffffffffff1916908160001a90535060049490941c9361278981614566565b90506126da565b508315611ff85760405162461bcd60e51b815260206004820181905260248201527f537472696e67733a20686578206c656e67746820696e73756666696369656e746044820152606401610592565b7aff00000000000000ff00000000000000ff00000000000000ff00006bffffffff0000000000000000604083901c9081167bffffffff00000000000000000000000000000000000000000000000084161760201c6fffffffff000000000000000000000000919091166001600160e01b031984161717601081901c9182167eff00000000000000ff00000000000000ff00000000000000ff000000000000821617600890811c7bff00000000000000ff00000000000000ff00000000000000ff000000939093167fff00000000000000ff00000000000000ff00000000000000ff000000000000009290921691909117919091179081901c7e0f000f000f000f000f000f000f000f000f000f000f000f000f000f000f000f167f0f000f000f000f000f000f000f000f000f000f000f000f000f000f000f000f00600492831c16179061294b827f06060606060606060606060606060606060606060606060606060606060606066144cc565b901c7f0f0f0f0f0f0f0f0f0f0f0f0f0f0f0f0f0f0f0f0f0f0f0f0f0f0f0f0f0f0f0f0f16600761297b9190614504565b6129a5827f30303030303030303030303030303030303030303030303030303030303030306144cc565b61046d91906144cc565b60008181526001830160205260408120541515611ff8565b6000611ff88383612f2f565b6000818152600260205260409020546001600160a01b03848116911614612a3c5760405162461bcd60e51b815260206004820152600a60248201527f57524f4e475f46524f4d000000000000000000000000000000000000000000006044820152606401610592565b6001600160a01b038216612a925760405162461bcd60e51b815260206004820152601160248201527f494e56414c49445f524543495049454e540000000000000000000000000000006044820152606401610592565b336001600160a01b0384161480612acc57506001600160a01b038316600090815260056020908152604080832033845290915290205460ff165b80612aed57506000818152600460205260409020546001600160a01b031633145b612b395760405162461bcd60e51b815260206004820152600e60248201527f4e4f545f415554484f52495a45440000000000000000000000000000000000006044820152606401610592565b6001600160a01b03808416600081815260036020908152604080832080546000190190559386168083528483208054600101905585835260028252848320805473ffffffffffffffffffffffffffffffffffffffff199081168317909155600490925284832080549092169091559251849392917fddf252ad1be2c89b69c2b068fc378daa952ba7f163c4a11628f55a4df523b3ef91a4505050565b60606000611ff88361304c565b6060815160001415612c0257505060408051602081019091526000815290565b600060405180606001604052806040815260200161462e6040913990506000600384516002612c3191906144cc565b612c3b91906144e4565b612c46906004614504565b90506000612c558260206144cc565b67ffffffffffffffff811115612c7b57634e487b7160e01b600052604160045260246000fd5b6040519080825280601f01601f191660200182016040528015612ca5576020820181803683370190505b509050818152600183018586518101602084015b81831015612d135760039283018051603f601282901c811687015160f890811b8552600c83901c8216880151811b6001860152600683901c8216880151811b60028601529116860151901b93820193909352600401612cb9565b600389510660018114612d2d5760028114612d7757612d9f565b7f3d3d0000000000000000000000000000000000000000000000000000000000007ffffffffffffffffffffffffffffffffffffffffffffffffffffffffffffffffe830152612d9f565b7f3d000000000000000000000000000000000000000000000000000000000000006000198301525b509398975050505050505050565b6001600160a01b038216612e035760405162461bcd60e51b815260206004820152601160248201527f494e56414c49445f524543495049454e540000000000000000000000000000006044820152606401610592565b6000818152600260205260409020546001600160a01b031615612e685760405162461bcd60e51b815260206004820152600e60248201527f414c52454144595f4d494e5445440000000000000000000000000000000000006044820152606401610592565b6001600160a01b0382166000818152600360209081526040808320805460010190558483526002909152808220805473ffffffffffffffffffffffffffffffffffffffff19168417905551839291907fddf252ad1be2c89b69c2b068fc378daa952ba7f163c4a11628f55a4df523b3ef908290a45050565b6000818152600183016020526040812054612f275750815460018181018455600084815260208082209093018490558454848252828601909352604090209190915561046d565b50600061046d565b60008181526001830160205260408120548015613042576000612f53600183614523565b8554909150600090612f6790600190614523565b9050818114612fe8576000866000018281548110612f9557634e487b7160e01b600052603260045260246000fd5b9060005260206000200154905080876000018481548110612fc657634e487b7160e01b600052603260045260246000fd5b6000918252602080832090910192909255918252600188019052604090208390555b855486908061300757634e487b7160e01b600052603160045260246000fd5b60019003818190600052602060002001600090559055856001016000868152602001908152602001600020600090556001935050505061046d565b600091505061046d565b60608160000180548060200260200160405190810160405280929190818152602001828054801561309c57602002820191906000526020600020905b815481526020019060010190808311613088575b50505050509050919050565b60405180610200016040528060008152602001600081526020016000815260200160008152602001613161604051806101a0016040528060006001600160a01b031681526020016000815260200160008152602001600081526020016000815260200160001515815260200160006001600160a01b031681526020016000815260200160008152602001600081526020016000815260200160006001600160a01b0316815260200160006001600160a01b031681525090565b81526020016131c0604051806101200160405280600081526020016000815260200160008152602001600081526020016000815260200160001515815260200160006001600160a01b0316815260200160608152602001606081525090565b81526040805160c08101825260008082526020828101829052928201819052606082018190526080820181905260a0820152910190815260200160006001600160a01b031681526020016000815260200160006001600160a01b0316815260200161325e604051806080016040528060006001600160a01b03168152602001600081526020016000815260200160006001600160a01b031681525090565b81526020016132bd604051806101200160405280600081526020016000815260200160008152602001600081526020016000815260200160001515815260200160006001600160a01b0316815260200160608152602001606081525090565b81526040805160a0810182526000808252602082810182905292820181905260608201819052608082015291019081526000602082018190526040820181905260609091015290565b8280546133129061457d565b90600052602060002090601f016020900481019282613334576000855561337a565b82601f1061334d57805160ff191683800117855561337a565b8280016001018555821561337a579182015b8281111561337a57825182559160200191906001019061335f565b5061338692915061338a565b5090565b5b80821115613386576000815560010161338b565b805161192e816145e4565b805161192e816145fc565b80516002811061192e57600080fd5b80516005811061192e57600080fd5b600082601f8301126133e3578081fd5b81356133f66133f1826144a4565b614473565b81815284602083860101111561340a578283fd5b816020850160208301379081016020019190915292915050565b600082601f830112613434578081fd5b81516134426133f1826144a4565b818152846020838601011115613456578283fd5b61346782602083016020870161453a565b949350505050565b600060a08284031215613480578081fd5b6134886143bc565b90508151613495816145fc565b815260208201516134a5816145e4565b80602083015250604082015160408201526060820151606082015260808201516134ce816145e4565b608082015292915050565b600061020082840312156134eb578081fd5b604051610100810181811067ffffffffffffffff8211171561350f5761350f6145ce565b60405290508061351e836133b5565b81526020830151602082015260408301516040820152606083015160608201526080830151608082015261355460a084016133aa565b60a08201526135668460c08501613585565b60c08201526135798461016085016135f8565b60e08201525092915050565b600060a08284031215613596578081fd5b61359e6143bc565b905081516135ab81614620565b8152602082015163ffffffff811681146135c457600080fd5b602082015260408201516135d7816145e4565b80604083015250606082015160608201526080820151608082015292915050565b600060a08284031215613609578081fd5b6136116143bc565b9050815161361e816145fc565b815260208201516135c481614620565b600060c0828403121561363f578081fd5b60405160c0810181811067ffffffffffffffff82111715613662576136626145ce565b80604052508091508251613675816145fc565b81526020830151613685816145e4565b60208201526040838101519082015260608301516136a2816145e4565b606082015260808301516136b5816145fc565b608082015260a08301516136c8816145e4565b60a0919091015292915050565b6000608082840312156136e6578081fd5b6136ee6143e5565b90508151815260208201516020820152604082015160408201526060820151606082015292915050565b600060408284031215613729578081fd5b6040516040810181811067ffffffffffffffff8211171561374c5761374c6145ce565b604052825181526020928301519281019290925250919050565b60006101208284031215613778578081fd5b613780614408565b905081518152602082015160208201526040820151604082015260608201516060820152608082015160808201526137ba60a083016133aa565b60a08201526137cb60c0830161339f565b60c082015260e082015167ffffffffffffffff808211156137eb57600080fd5b6137f785838601613424565b60e08401526101009150818401518181111561381257600080fd5b61381e86828701613424565b8385015250505092915050565b600060e0828403121561383c578081fd5b61384461442c565b9050815167ffffffffffffffff8082111561385e57600080fd5b61386a85838601613424565b8352602084015191508082111561388057600080fd5b5061388d84828501613424565b60208301525060408201516040820152606082015160608201526080820151608082015260a082015160a082015260c082015160c082015292915050565b6000602082840312156138dc578081fd5b8135611ff8816145e4565b6000602082840312156138f8578081fd5b8151611ff8816145e4565b60008060408385031215613915578081fd5b8235613920816145e4565b91506020830135613930816145e4565b809150509250929050565b60008060006060848603121561394f578081fd5b833561395a816145e4565b9250602084013561396a816145e4565b929592945050506040919091013590565b600080600080600060808688031215613992578283fd5b853561399d816145e4565b945060208601356139ad816145e4565b935060408601359250606086013567ffffffffffffffff808211156139d0578283fd5b818801915088601f8301126139e3578283fd5b8135818111156139f1578384fd5b896020828501011115613a02578384fd5b9699959850939650602001949392505050565b60008060408385031215613a27578182fd5b8235613a32816145e4565b91506020830135613930816145fc565b60008060008060008060c08789031215613a5a578384fd5b8635613a65816145e4565b955060208701359450604087013560ff81168114613a81578485fd5b9350606087013567ffffffffffffffff80821115613a9d578283fd5b613aa98a838b016133d3565b94506080890135915080821115613abe578283fd5b613aca8a838b016133d3565b935060a0890135915080821115613adf578283fd5b50613aec89828a016133d3565b9150509295509295509295565b6000806000806000806000806000898b036104a0811215613b18578788fd5b8a51613b23816145e4565b99506101a0601f198201811315613b38578889fd5b613b4061444f565b9150613b4e60208d0161339f565b825260408c0151602083015260608c0151604083015260808c0151606083015260a08c01516080830152613b8460c08d016133aa565b60a0830152613b9560e08d0161339f565b60c0830152610100808d015160e0840152610120808e0151828501526101409150818e01518185015250610160808e0151828501526101809150613bda828f0161339f565b90840152613be98d830161339f565b90830152506101c08b015190985067ffffffffffffffff811115613c0b578788fd5b613c178c828d01613766565b975050613c288b6101e08c016134d9565b9550613c388b6103e08c01613718565b94506104208a015193506104408a01519250613c576104608b016133c4565b91506104808a015190509295985092959850929598565b60008060408385031215613c80578182fd5b8235613c8b816145e4565b946020939093013593505050565b60008060408385031215613cab578182fd5b8251613cb6816145e4565b6020939093015192949293505050565b60008060008060008060008060008060006102608c8e031215613ce7578485fd5b8b51613cf2816145e4565b809b505060208c0151995060408c0151985060608c0151975060808c0151613d19816145e4565b9650613d2760a08d0161339f565b9550613d3560c08d016133c4565b945060e08c015167ffffffffffffffff811115613d50578283fd5b613d5c8e828f0161382b565b945050613d6d8d6101008e0161362e565b9250613d7d8d6101c08e016136d5565b91506102408c015190509295989b509295989b9093969950565b60008060408385031215613da9578182fd5b823591506020830135613930816145e4565b600060208284031215613dcc578081fd5b8135611ff88161460a565b600060208284031215613de8578081fd5b8151611ff88161460a565b600060208284031215613e04578081fd5b815167ffffffffffffffff811115613e1a578182fd5b61346784828501613424565b60008060008060008060008789036101e0811215613e42578182fd5b6080811215613e4f578182fd5b50613e586143e5565b8851613e63816145e4565b8082525060208901516020820152604089015160408201526060890151613e89816145e4565b60608201529650613e9d8960808a0161346f565b955061012088015167ffffffffffffffff811115613eb9578182fd5b613ec58a828b01613766565b955050613ed6896101408a01613718565b9350613ee5610180890161339f565b92506101a08801519150613efc6101c089016133c4565b905092959891949750929550565b600060208284031215613f1b578081fd5b81516fffffffffffffffffffffffffffffffff81168114611ff8578182fd5b600060208284031215613f4b578081fd5b5035919050565b600060208284031215613f63578081fd5b5051919050565b60008151808452613f8281602086016020860161453a565b601f01601f19169290920160200192915050565b7f68747470733a2f2f67726170682e70686f656e69782e66692f76656e7475726581527f64616f732f000000000000000000000000000000000000000000000000000000602082015260008451613ff481602585016020890161453a565b7f2f00000000000000000000000000000000000000000000000000000000000000602591840191820152845161403181602684016020890161453a565b7f2f70726f706f73616c732f00000000000000000000000000000000000000000060269290910191820152835161406f81603184016020880161453a565b7f2f696e766573746d656e7400000000000000000000000000000000000000000060319290910191820152603c0195945050505050565b7f7b226e616d65223a202244414f53717561726520496e766573746d656e74205281527f656365697074222c226465736372697074696f6e223a2200000000000000000060208201526000825161410481603785016020870161453a565b7f222c22696d616765223a2268747470733a2f2f692e6962622e636f2f4a784e6360379390910192830152507f6d66342f436f6c6c656374696f6e2d4c6f676f2e706e67222c2265787465726e60578201527f616c5f6c696e6b223a2268747470733a2f2f64616f7371756172652e6669227d6077820152609701919050565b7f646174613a6170706c69636174696f6e2f6a736f6e3b6261736536342c0000008152600082516141bc81601d85016020870161453a565b91909101601d0192915050565b60006001600160a01b03808816835280871660208401525084604083015260806060830152826080830152828460a084013781830160a090810191909152601f909201601f19160101949350505050565b60006101406001600160a01b03808e1684528c60208501528b604085015281606085015261424a8285018c613f6a565b91508960808501528860a085015283820360c0850152808851168252506020870151606060208301526142806060830182613f6a565b9050604088015182820360408401526142998282613f6a565b9250505082810360e08401526142af8187613f6a565b90508281036101008401526142c48186613f6a565b90508281036101208401526142d98185613f6a565b9d9c50505050505050505050505050565b6020808252825182820181905260009190848201906040850190845b8181101561432257835183529284019291840191600101614306565b50909695505050505050565b602081526000611ff86020830184613f6a565b60e08152600061435460e083018a613f6a565b8281036020840152614366818a613f6a565b9050828103604084015261437a8189613f6a565b9050828103606084015261438e8188613f6a565b90508560808401528460a084015282810360c08401526143ae8185613f6a565b9a9950505050505050505050565b60405160a0810167ffffffffffffffff811182821017156143df576143df6145ce565b60405290565b6040516080810167ffffffffffffffff811182821017156143df576143df6145ce565b604051610120810167ffffffffffffffff811182821017156143df576143df6145ce565b60405160e0810167ffffffffffffffff811182821017156143df576143df6145ce565b6040516101a0810167ffffffffffffffff811182821017156143df576143df6145ce565b604051601f8201601f1916810167ffffffffffffffff8111828210171561449c5761449c6145ce565b604052919050565b600067ffffffffffffffff8211156144be576144be6145ce565b50601f01601f191660200190565b600082198211156144df576144df6145b8565b500190565b6000826144ff57634e487b7160e01b81526012600452602481fd5b500490565b600081600019048311821515161561451e5761451e6145b8565b500290565b600082821015614535576145356145b8565b500390565b60005b8381101561455557818101518382015260200161453d565b838111156117af5750506000910152565b600081614575576145756145b8565b506000190190565b600181811c9082168061459157607f821691505b602082108114156145b257634e487b7160e01b600052602260045260246000fd5b50919050565b634e487b7160e01b600052601160045260246000fd5b634e487b7160e01b600052604160045260246000fd5b6001600160a01b03811681146145f957600080fd5b50565b80151581146145f957600080fd5b6001600160e01b0319811681146145f957600080fd5b600481106145f957600080fdfe4142434445464748494a4b4c4d4e4f505152535455565758595a6162636465666768696a6b6c6d6e6f707172737475767778797a303132333435363738392b2f546865204e46547320696e207468652044414f53717561726520496e766573746d656e74205265636569707420436f6c6c656374696f6e206172652067656e6572617465642066726f6d20696e766573746d656e7473206d6164652062792056656e747572652044414f7320696e207468652044414f53717561726520496e63756261746f722c2077686963682061637469766174656420746865204e46542066756e6374696f6e20574954484f5554207573696e672074686520457363726f772046756e6374696f6e2e2045616368204e465420726570726573656e747320616e20696e766573746f72e280997320696e766573746d656e74207265636f7264206f6620696e76657374696e6720696e20612050726f6a656374207468726f75676820612044414f20696e2044414f53717561726520496e63756261746f722c206c696b65206120726563656970742e20596f752063616e2076696577207468652064796e616d696320646174612028696d6167652920616e642070726f7065727469657320696e666f726d6174696f6e206f662065616368204e465420746f20636865636b207768657468657220746865204e46542069732063757272656e746c792076616c696420616e642074686520696e766573746d656e74207265636f7264732e205468652050726f6a656374206f722044414f206d61792070726f6d69736520746f20676976652062656e656669747320746f204e465420686f6c646572732c207265676172646c657373206f6620746865206f726967696e616c20696e766573746f722e20204e46547320696e207468697320636f6c6c656374696f6e20617265207472616e7366657261626c652e20205468652066756c66696c6c6d656e74206f6620616e792070726f6d697365206261736564206f6e20746865204e465420646570656e6473206f6e207468652070726f6d69736572202850726f6a656374206f722044414f292c20776869636820746865204e465420697473656c662063616e6e6f742067756172616e74656520746563686e6963616c6c792ea2646970667358221220a6bd16772441146ac2b641cce8400d7075819194141d0e6fdc2add955125d4d664736f6c63430008040033",
  "linkReferences": {},
  "deployedLinkReferences": {}
}