{
  "_format": "hh-sol-artifact-1",
  "contractName": "InvestmentReceiptERC721",
  "sourceName": "contracts/InvestmentReceiptERC721.sol",
  "abi": [
    {
      "inputs": [
        {
          "internalType": "string",
          "name": "name",
          "type": "string"
        },
        {
          "internalType": "string",
          "name": "symbol",
          "type": "string"
        },
        {
          "internalType": "address",
          "name": "_ercHelperContrAddress",
          "type": "address"
        }
      ],
      "stateMutability": "nonpayable",
      "type": "constructor"
    },
    {
      "inputs": [],
      "name": "ALREADY_MINTED",
      "type": "error"
    },
    {
      "inputs": [],
      "name": "UN_MINTABLE",
      "type": "error"
    },
    {
      "anonymous": false,
      "inputs": [
        {
          "indexed": true,
          "internalType": "address",
          "name": "owner",
          "type": "address"
        },
        {
          "indexed": true,
          "internalType": "address",
          "name": "spender",
          "type": "address"
        },
        {
          "indexed": true,
          "internalType": "uint256",
          "name": "id",
          "type": "uint256"
        }
      ],
      "name": "Approval",
      "type": "event"
    },
    {
      "anonymous": false,
      "inputs": [
        {
          "indexed": true,
          "internalType": "address",
          "name": "owner",
          "type": "address"
        },
        {
          "indexed": true,
          "internalType": "address",
          "name": "operator",
          "type": "address"
        },
        {
          "indexed": false,
          "internalType": "bool",
          "name": "approved",
          "type": "bool"
        }
      ],
      "name": "ApprovalForAll",
      "type": "event"
    },
    {
      "anonymous": false,
      "inputs": [
        {
          "indexed": false,
          "internalType": "bytes32",
          "name": "proposalId",
          "type": "bytes32"
        },
        {
          "indexed": false,
          "internalType": "address",
          "name": "minter",
          "type": "address"
        },
        {
          "indexed": false,
          "internalType": "uint256",
          "name": "tokenId",
          "type": "uint256"
        }
      ],
      "name": "Minted",
      "type": "event"
    },
    {
      "anonymous": false,
      "inputs": [
        {
          "indexed": true,
          "internalType": "address",
          "name": "from",
          "type": "address"
        },
        {
          "indexed": true,
          "internalType": "address",
          "name": "to",
          "type": "address"
        },
        {
          "indexed": true,
          "internalType": "uint256",
          "name": "id",
          "type": "uint256"
        }
      ],
      "name": "Transfer",
      "type": "event"
    },
    {
      "inputs": [],
      "name": "_owner",
      "outputs": [
        {
          "internalType": "address",
          "name": "",
          "type": "address"
        }
      ],
      "stateMutability": "view",
      "type": "function"
    },
    {
      "inputs": [
        {
          "internalType": "address",
          "name": "spender",
          "type": "address"
        },
        {
          "internalType": "uint256",
          "name": "id",
          "type": "uint256"
        }
      ],
      "name": "approve",
      "outputs": [],
      "stateMutability": "nonpayable",
      "type": "function"
    },
    {
      "inputs": [
        {
          "internalType": "address",
          "name": "owner",
          "type": "address"
        }
      ],
      "name": "balanceOf",
      "outputs": [
        {
          "internalType": "uint256",
          "name": "",
          "type": "uint256"
        }
      ],
      "stateMutability": "view",
      "type": "function"
    },
    {
      "inputs": [],
      "name": "contractURI",
      "outputs": [
        {
          "internalType": "string",
          "name": "",
          "type": "string"
        }
      ],
      "stateMutability": "pure",
      "type": "function"
    },
    {
      "inputs": [
        {
          "internalType": "uint256",
          "name": "",
          "type": "uint256"
        }
      ],
      "name": "getApproved",
      "outputs": [
        {
          "internalType": "address",
          "name": "",
          "type": "address"
        }
      ],
      "stateMutability": "view",
      "type": "function"
    },
    {
      "inputs": [
        {
          "internalType": "address",
          "name": "",
          "type": "address"
        }
      ],
      "name": "holderToTokenId",
      "outputs": [
        {
          "internalType": "uint256",
          "name": "",
          "type": "uint256"
        }
      ],
      "stateMutability": "view",
      "type": "function"
    },
    {
      "inputs": [
        {
          "internalType": "bytes32",
          "name": "",
          "type": "bytes32"
        },
        {
          "internalType": "address",
          "name": "",
          "type": "address"
        }
      ],
      "name": "investmentIdToTokenId",
      "outputs": [
        {
          "internalType": "uint256",
          "name": "",
          "type": "uint256"
        }
      ],
      "stateMutability": "view",
      "type": "function"
    },
    {
      "inputs": [
        {
          "internalType": "address",
          "name": "",
          "type": "address"
        },
        {
          "internalType": "address",
          "name": "",
          "type": "address"
        }
      ],
      "name": "isApprovedForAll",
      "outputs": [
        {
          "internalType": "bool",
          "name": "",
          "type": "bool"
        }
      ],
      "stateMutability": "view",
      "type": "function"
    },
    {
      "inputs": [],
      "name": "maxTotalSupply",
      "outputs": [
        {
          "internalType": "uint256",
          "name": "",
          "type": "uint256"
        }
      ],
      "stateMutability": "view",
      "type": "function"
    },
    {
      "inputs": [],
      "name": "name",
      "outputs": [
        {
          "internalType": "string",
          "name": "",
          "type": "string"
        }
      ],
      "stateMutability": "view",
      "type": "function"
    },
    {
      "inputs": [
        {
          "internalType": "uint256",
          "name": "id",
          "type": "uint256"
        }
      ],
      "name": "ownerOf",
      "outputs": [
        {
          "internalType": "address",
          "name": "owner",
          "type": "address"
        }
      ],
      "stateMutability": "view",
      "type": "function"
    },
    {
      "inputs": [],
      "name": "receiptERC721HelperContrAddress",
      "outputs": [
        {
          "internalType": "address",
          "name": "",
          "type": "address"
        }
      ],
      "stateMutability": "view",
      "type": "function"
    },
    {
      "inputs": [
        {
          "internalType": "address",
          "name": "daoAddr",
          "type": "address"
        },
        {
          "internalType": "bytes32",
          "name": "investmentProposalId",
          "type": "bytes32"
        },
        {
          "internalType": "uint8",
          "name": "mode",
          "type": "uint8"
        },
        {
          "internalType": "string",
          "name": "executedTxHash",
          "type": "string"
        },
        {
          "internalType": "string",
          "name": "projectName",
          "type": "string"
        },
        {
          "internalType": "string",
          "name": "description",
          "type": "string"
        }
      ],
      "name": "safeMint",
      "outputs": [
        {
          "internalType": "uint256",
          "name": "id",
          "type": "uint256"
        }
      ],
      "stateMutability": "nonpayable",
      "type": "function"
    },
    {
      "inputs": [
        {
          "internalType": "address",
          "name": "from",
          "type": "address"
        },
        {
          "internalType": "address",
          "name": "to",
          "type": "address"
        },
        {
          "internalType": "uint256",
          "name": "id",
          "type": "uint256"
        }
      ],
      "name": "safeTransferFrom",
      "outputs": [],
      "stateMutability": "nonpayable",
      "type": "function"
    },
    {
      "inputs": [
        {
          "internalType": "address",
          "name": "from",
          "type": "address"
        },
        {
          "internalType": "address",
          "name": "to",
          "type": "address"
        },
        {
          "internalType": "uint256",
          "name": "id",
          "type": "uint256"
        },
        {
          "internalType": "bytes",
          "name": "data",
          "type": "bytes"
        }
      ],
      "name": "safeTransferFrom",
      "outputs": [],
      "stateMutability": "nonpayable",
      "type": "function"
    },
    {
      "inputs": [
        {
          "internalType": "address",
          "name": "operator",
          "type": "address"
        },
        {
          "internalType": "bool",
          "name": "approved",
          "type": "bool"
        }
      ],
      "name": "setApprovalForAll",
      "outputs": [],
      "stateMutability": "nonpayable",
      "type": "function"
    },
    {
      "inputs": [
        {
          "internalType": "bytes4",
          "name": "interfaceId",
          "type": "bytes4"
        }
      ],
      "name": "supportsInterface",
      "outputs": [
        {
          "internalType": "bool",
          "name": "",
          "type": "bool"
        }
      ],
      "stateMutability": "view",
      "type": "function"
    },
    {
      "inputs": [],
      "name": "symbol",
      "outputs": [
        {
          "internalType": "string",
          "name": "",
          "type": "string"
        }
      ],
      "stateMutability": "view",
      "type": "function"
    },
    {
      "inputs": [
        {
          "internalType": "uint256",
          "name": "",
          "type": "uint256"
        }
      ],
      "name": "tokenIdToInvestmentProposalId",
      "outputs": [
        {
          "internalType": "bytes32",
          "name": "",
          "type": "bytes32"
        }
      ],
      "stateMutability": "view",
      "type": "function"
    },
    {
      "inputs": [
        {
          "internalType": "uint256",
          "name": "",
          "type": "uint256"
        }
      ],
      "name": "tokenIdToInvestmentProposalInfo",
      "outputs": [
        {
          "internalType": "address",
          "name": "daoAddress",
          "type": "address"
        },
        {
          "internalType": "bytes32",
          "name": "investmentProposalId",
          "type": "bytes32"
        },
        {
          "internalType": "uint256",
          "name": "proposalExecutedBlockNum",
          "type": "uint256"
        },
        {
          "internalType": "string",
          "name": "executedTxHash",
          "type": "string"
        },
        {
          "internalType": "uint256",
          "name": "totalInvestedAmount",
          "type": "uint256"
        },
        {
          "internalType": "uint256",
          "name": "myInvestedAmount",
          "type": "uint256"
        },
        {
          "components": [
            {
              "internalType": "address",
              "name": "tokenAddress",
              "type": "address"
            },
            {
              "internalType": "string",
              "name": "tokenSymbol",
              "type": "string"
            },
            {
              "internalType": "string",
              "name": "tokenName",
              "type": "string"
            }
          ],
          "internalType": "struct InvestmentReceiptERC721.ERC20Info",
          "name": "erc20",
          "type": "tuple"
        },
        {
          "internalType": "string",
          "name": "projectName",
          "type": "string"
        },
        {
          "internalType": "string",
          "name": "description",
          "type": "string"
        },
        {
          "internalType": "string",
          "name": "investmentProposalLink",
          "type": "string"
        }
      ],
      "stateMutability": "view",
      "type": "function"
    },
    {
      "inputs": [
        {
          "internalType": "uint256",
          "name": "tokenId",
          "type": "uint256"
        }
      ],
      "name": "tokenURI",
      "outputs": [
        {
          "internalType": "string",
          "name": "",
          "type": "string"
        }
      ],
      "stateMutability": "view",
      "type": "function"
    },
    {
      "inputs": [],
      "name": "totalSupply",
      "outputs": [
        {
          "internalType": "uint256",
          "name": "",
          "type": "uint256"
        }
      ],
      "stateMutability": "view",
      "type": "function"
    },
    {
      "inputs": [
        {
          "internalType": "address",
          "name": "from",
          "type": "address"
        },
        {
          "internalType": "address",
          "name": "to",
          "type": "address"
        },
        {
          "internalType": "uint256",
          "name": "id",
          "type": "uint256"
        }
      ],
      "name": "transferFrom",
      "outputs": [],
      "stateMutability": "nonpayable",
      "type": "function"
    }
  ],
  "bytecode": "0x60806040523480156200001157600080fd5b5060405162004964380380620049648339810160408190526200003491620001f7565b8251839083906200004d9060009060208501906200009e565b508051620000639060019060208401906200009e565b505060078054336001600160a01b031991821617909155600880549091166001600160a01b03939093169290921790915550620002d3915050565b828054620000ac9062000280565b90600052602060002090601f016020900481019282620000d057600085556200011b565b82601f10620000eb57805160ff19168380011785556200011b565b828001600101855582156200011b579182015b828111156200011b578251825591602001919060010190620000fe565b50620001299291506200012d565b5090565b5b808211156200012957600081556001016200012e565b600082601f83011262000155578081fd5b81516001600160401b0380821115620001725762000172620002bd565b604051601f8301601f19908116603f011681019082821181831017156200019d576200019d620002bd565b81604052838152602092508683858801011115620001b9578485fd5b8491505b83821015620001dc5785820183015181830184015290820190620001bd565b83821115620001ed57848385830101525b9695505050505050565b6000806000606084860312156200020c578283fd5b83516001600160401b038082111562000223578485fd5b620002318783880162000144565b9450602086015191508082111562000247578384fd5b50620002568682870162000144565b604086015190935090506001600160a01b038116811462000275578182fd5b809150509250925092565b600181811c908216806200029557607f821691505b60208210811415620002b757634e487b7160e01b600052602260045260246000fd5b50919050565b634e487b7160e01b600052604160045260246000fd5b61468180620002e36000396000f3fe608060405234801561001057600080fd5b506004361061018c5760003560e01c806370a08231116100e3578063b2bdfa7b1161008c578063e32616e611610066578063e32616e614610374578063e8a3d4851461039d578063e985e9c5146103a557600080fd5b8063b2bdfa7b1461033b578063b88d4fde1461034e578063c87b56dd1461036157600080fd5b80638865a249116100bd5780638865a249146102f557806395d89b4114610320578063a22cb4651461032857600080fd5b806370a08231146102a257806376e5b828146102b557806383c6d199146102d557600080fd5b80630e1edcfa116101455780632ab4d0521161011f5780632ab4d0521461027357806342842e0e1461027c5780636352211e1461028f57600080fd5b80630e1edcfa1461023757806318160ddd1461025857806323b872dd1461026057600080fd5b806306fdde031161017657806306fdde03146101e4578063081812fc146101f9578063095ea7b31461022257600080fd5b8062979e5f1461019157806301ffc9a7146101c1575b600080fd5b6008546101a4906001600160a01b031681565b6040516001600160a01b0390911681526020015b60405180910390f35b6101d46101cf366004613ad5565b6103d3565b60405190151581526020016101b8565b6101ec610470565b6040516101b89190614004565b6101a4610207366004613c54565b6004602052600090815260409020546001600160a01b031681565b610235610230366004613988565b6104fe565b005b61024a61024536600461375c565b610601565b6040519081526020016101b8565b60095461024a565b61023561026e366004613655565b6116b3565b61024a60095481565b61023561028a366004613655565b6116e9565b6101a461029d366004613c54565b6117f8565b61024a6102b03660046135e5565b611862565b61024a6102c3366004613c54565b600b6020526000908152604090205481565b61024a6102e33660046135e5565b600c6020526000908152604090205481565b61024a610303366004613ab1565b600a60209081526000928352604080842090915290825290205481565b6101ec6118d6565b61023561033636600461372f565b6118e3565b6007546101a4906001600160a01b031681565b61023561035c366004613695565b61196d565b6101ec61036f366004613c54565b611a71565b610387610382366004613c54565b611f4c565b6040516101b89a99989796959493929190613f34565b6101ec61230b565b6101d46103b336600461361d565b600560209081526000928352604080842090915290825290205460ff1681565b60007f01ffc9a7000000000000000000000000000000000000000000000000000000006001600160e01b03198316148061043657507f80ac58cd000000000000000000000000000000000000000000000000000000006001600160e01b03198316145b8061046a57507f5b5e139f000000000000000000000000000000000000000000000000000000006001600160e01b03198316145b92915050565b6000805461047d90614257565b80601f01602080910402602001604051908101604052809291908181526020018280546104a990614257565b80156104f65780601f106104cb576101008083540402835291602001916104f6565b820191906000526020600020905b8154815290600101906020018083116104d957829003601f168201915b505050505081565b6000818152600260205260409020546001600160a01b03163381148061054757506001600160a01b038116600090815260056020908152604080832033845290915290205460ff165b6105985760405162461bcd60e51b815260206004820152600e60248201527f4e4f545f415554484f52495a454400000000000000000000000000000000000060448201526064015b60405180910390fd5b600082815260046020526040808220805473ffffffffffffffffffffffffffffffffffffffff19166001600160a01b0387811691821790925591518593918516917f8c5be1e5ebec7d5bd14f71427d1e84f3dd0314c0f7b2291e5b200ac8c7c3b92591a4505050565b6000858152600a6020908152604080832033845290915281205415610652576040517fdfa4c0d500000000000000000000000000000000000000000000000000000000815260040160405180910390fd5b61065a612dc2565b60ff8616610a9d576040516317ba7d8560e01b81527f7a8526bca00f0726b2fab8c3bfd5b00bfa84d07f111e48263b13de605eefcdda60048201526001600160a01b038916906317ba7d859060240160206040518083038186803b1580156106c157600080fd5b505afa1580156106d5573d6000803e3d6000fd5b505050506040513d601f19601f820116820180604052508101906106f99190613601565b6040517fbf4999940000000000000000000000000000000000000000000000000000000081526001600160a01b038a81166004830152602482018a9052919091169063bf4999949060440160006040518083038186803b15801561075c57600080fd5b505afa158015610770573d6000803e3d6000fd5b505050506040513d6000823e601f3d908101601f191682016040526107989190810190613813565b60608a01525050505060a0808601839052608086018490528381015115156101e0870152919091015115156101c085015250516001600160a01b0390811660e08401526040516317ba7d8560e01b81527feae11da953333a83b6467e2193334fb302549e1a42ad5797082aea1ab6be9120600482015260009250908a16906317ba7d859060240160206040518083038186803b15801561083757600080fd5b505afa15801561084b573d6000803e3d6000fd5b505050506040513d601f19601f8201168201806040525081019061086f9190613601565b6040517e75e7eb0000000000000000000000000000000000000000000000000000000081526001600160a01b038b81166004830152602482018b905233604483015291909116906275e7eb90606401604080518083038186803b1580156108d557600080fd5b505afa1580156108e9573d6000803e3d6000fd5b505050506040513d601f19601f8201168201806040525081019061090d91906139b3565b604051632c9f4b5b60e11b81527fb12a3847d47fefceb164b75823af125f9aa82b76938df0ddf08c04cd314ba37c60048201529092508291506001600160a01b038b169063593e96b69060240160206040518083038186803b15801561097257600080fd5b505afa158015610986573d6000803e3d6000fd5b505050506040513d601f19601f820116820180604052508101906109aa9190613601565b6001600160a01b0316639e3f2d908a33600187606001516109cb91906141f9565b6040516001600160e01b031960e086901b16815260048101939093526001600160a01b039091166024830152604482015260640160206040518083038186803b158015610a1757600080fd5b505afa158015610a2b573d6000803e3d6000fd5b505050506040513d601f19601f82011682018060405250810190610a4f9190613c6c565b610a5991906141f9565b808352608080840151606081018051604087015291015190519091610a7e91906141da565b610a8891906141ba565b82525060808082015101516020820152611198565b8560ff1660011415610e61576040516317ba7d8560e01b81527f0fd8cce4ef00a7a8c0c5f91194bc80f122deefe664dd2a2384687da62ab117d160048201526001600160a01b038916906317ba7d859060240160206040518083038186803b158015610b0857600080fd5b505afa158015610b1c573d6000803e3d6000fd5b505050506040513d601f19601f82011682018060405250810190610b409190613601565b6040517f5cb752760000000000000000000000000000000000000000000000000000000081526001600160a01b038a81166004830152602482018a90529190911690635cb752769060440160006040518083038186803b158015610ba357600080fd5b505afa158015610bb7573d6000803e3d6000fd5b505050506040513d6000823e601f3d908101601f19168201604052610bdf91908101906139e0565b60608c01525060c08a018190526040808b01989098526001600160a01b0398891660e08b0152608081015115156101c08b01525115156101e08a015250509351632c9f4b5b60e11b81527f161fca6912f107b0f13c9c7275de7391b32d2ea1c52ffba65a3c961880a0c60f6004820152948d169463593e96b694506024019250610c67915050565b60206040518083038186803b158015610c7f57600080fd5b505afa158015610c93573d6000803e3d6000fd5b505050506040513d601f19601f82011682018060405250810190610cb79190613601565b6001600160a01b0316610120820181905260e0820151606083015163faaf38b39161decd91610ce8906001906141f9565b6040516001600160e01b031960e086901b1681526001600160a01b039384166004820152929091166024830152604482015260640160206040518083038186803b158015610d3557600080fd5b505afa158015610d49573d6000803e3d6000fd5b505050506040513d601f19601f82011682018060405250810190610d6d9190613c24565b6fffffffffffffffffffffffffffffffff1681604001518261012001516001600160a01b031663faaf38b3338560e0015160018760600151610daf91906141f9565b6040516001600160e01b031960e086901b1681526001600160a01b039384166004820152929091166024830152604482015260640160206040518083038186803b158015610dfc57600080fd5b505afa158015610e10573d6000803e3d6000fd5b505050506040513d601f19601f82011682018060405250810190610e349190613c24565b6fffffffffffffffffffffffffffffffff16610e5091906141da565b610e5a91906141ba565b8152611198565b8560ff1660021415611198576040516317ba7d8560e01b81527f72894213a5c7f56b36b2947fa6ea18963d6bb1a68746b46d7f552cca76e1a7a860048201526001600160a01b038916906317ba7d859060240160206040518083038186803b158015610ecc57600080fd5b505afa158015610ee0573d6000803e3d6000fd5b505050506040513d601f19601f82011682018060405250810190610f049190613601565b6040517f5cb752760000000000000000000000000000000000000000000000000000000081526001600160a01b038a81166004830152602482018a90529190911690635cb752769060440160006040518083038186803b158015610f6757600080fd5b505afa158015610f7b573d6000803e3d6000fd5b505050506040513d6000823e601f3d908101601f19168201604052610fa39190810190613b40565b50606087015250506101608401526101808301526101408201819052602080820151604080850191909152918201519083015251632c9f4b5b60e11b81527f3909e87234f428ccb8748126e2c93f66a62f92a70d315fa5803dec6362be07ab60048201526001600160a01b0389169063593e96b69060240160206040518083038186803b15801561103357600080fd5b505afa158015611047573d6000803e3d6000fd5b505050506040513d601f19601f8201168201806040525081019061106b9190613601565b6001600160a01b039081166101a0830181905261016083015160a0015115156101c08401526101808301515115156101e0840152610140830151805190921660e08401529051606083015163faaf38b39161decd916110cc906001906141f9565b6040516001600160e01b031960e086901b1681526001600160a01b039384166004820152929091166024830152604482015260640160206040518083038186803b15801561111957600080fd5b505afa15801561112d573d6000803e3d6000fd5b505050506040513d601f19601f820116820180604052508101906111519190613c24565b6fffffffffffffffffffffffffffffffff168160400151826101a001516001600160a01b031663faaf38b3338561014001516000015160018760600151610daf91906141f9565b805115806111b85750806101c0015180156111b657506101e0810151155b155b156111ef576040517f3ffd124200000000000000000000000000000000000000000000000000000000815260040160405180910390fd5b6111fd600680546001019055565b600061120860065490565b90506112143382612374565b6000888152600a6020908152604080832033808552908352818420859055848452600b83528184208c90558352600c9091528120829055600980546001929061125e9084906141a2565b909155506000905060ff8816156112f0578760ff166001146112b5576040518060400160405280600a81526020017f636f6c6c65637469766500000000000000000000000000000000000000000000815250611327565b6040518060400160405280600781526020017f76696e7461676500000000000000000000000000000000000000000000000000815250611327565b6040518060400160405280600481526020017f666c6578000000000000000000000000000000000000000000000000000000008152505b61133b8b6001600160a01b03166014612483565b6113448b6126f2565b61135160808d901b6126f2565b6040517f307800000000000000000000000000000000000000000000000000000000000060208201526022810192909252604282015260620160408051601f19818403018152908290526113a9939291602001613cb0565b60405160208183030381529060405290506040518061014001604052808b6001600160a01b031681526020018a815260200184606001518152602001888152602001846040015181526020018460000151815260200160405180606001604052808660e001516001600160a01b031681526020018660e001516001600160a01b03166395d89b416040518163ffffffff1660e01b815260040160006040518083038186803b15801561145a57600080fd5b505afa15801561146e573d6000803e3d6000fd5b505050506040513d6000823e601f3d908101601f191682016040526114969190810190613b0d565b81526020018660e001516001600160a01b03166306fdde036040518163ffffffff1660e01b815260040160006040518083038186803b1580156114d857600080fd5b505afa1580156114ec573d6000803e3d6000fd5b505050506040513d6000823e601f3d908101601f191682016040526115149190810190613b0d565b905281526020808201899052604080830189905260609283018590526000868152600d83528190208451815473ffffffffffffffffffffffffffffffffffffffff19166001600160a01b0390911617815584830151600182015590840151600282015591830151805161158d9260038501920190613020565b506080820151600482015560a0820151600582015560c0820151805160068301805473ffffffffffffffffffffffffffffffffffffffff19166001600160a01b0390921691909117815560208083015180516115ef9260078701920190613020565b506040820151805161160b916002840191602090910190613020565b50505060e08201518051611629916009840191602090910190613020565b50610100820151805161164691600a840191602090910190613020565b50610120820151805161166391600b840191602090910190613020565b5050604080518b81523360208201529081018490527f1a49076e0e8c733171c5360d78c9ae8e19fef5a0720b926e72f78b7cc37618cd915060600160405180910390a15098975050505050505050565b6001600160a01b038084166000908152600c60205260408082208290559184168152208190556116e48383836128c2565b505050565b6116f48383836116b3565b6001600160a01b0382163b15806117ac5750604051630a85bd0160e11b8082523360048301526001600160a01b03858116602484015260448301849052608060648401526000608484015290919084169063150b7a029060a401602060405180830381600087803b15801561176857600080fd5b505af115801561177c573d6000803e3d6000fd5b505050506040513d601f19601f820116820180604052508101906117a09190613af1565b6001600160e01b031916145b6116e45760405162461bcd60e51b815260206004820152601060248201527f554e534146455f524543495049454e5400000000000000000000000000000000604482015260640161058f565b6000818152600260205260409020546001600160a01b03168061185d5760405162461bcd60e51b815260206004820152600a60248201527f4e4f545f4d494e54454400000000000000000000000000000000000000000000604482015260640161058f565b919050565b60006001600160a01b0382166118ba5760405162461bcd60e51b815260206004820152600c60248201527f5a45524f5f414444524553530000000000000000000000000000000000000000604482015260640161058f565b506001600160a01b031660009081526003602052604090205490565b6001805461047d90614257565b3360008181526005602090815260408083206001600160a01b0387168085529083529281902080547fffffffffffffffffffffffffffffffffffffffffffffffffffffffffffffff001686151590811790915590519081529192917f17307eab39ab6107e8899845ad3d59bd9653f200f220920489ca2b5937696c31910160405180910390a35050565b6119788585856116b3565b6001600160a01b0384163b1580611a1e5750604051630a85bd0160e11b808252906001600160a01b0386169063150b7a02906119c09033908a90899089908990600401613ee3565b602060405180830381600087803b1580156119da57600080fd5b505af11580156119ee573d6000803e3d6000fd5b505050506040513d601f19601f82011682018060405250810190611a129190613af1565b6001600160e01b031916145b611a6a5760405162461bcd60e51b815260206004820152601060248201527f554e534146455f524543495049454e5400000000000000000000000000000000604482015260640161058f565b5050505050565b6000818152600d6020908152604080832081516101408101835281546001600160a01b0316815260018201549381019390935260028101549183019190915260038101805460609493929183860191611ac990614257565b80601f0160208091040260200160405190810160405280929190818152602001828054611af590614257565b8015611b425780601f10611b1757610100808354040283529160200191611b42565b820191906000526020600020905b815481529060010190602001808311611b2557829003601f168201915b505050505081526020016004820154815260200160058201548152602001600682016040518060600160405290816000820160009054906101000a90046001600160a01b03166001600160a01b03166001600160a01b03168152602001600182018054611bae90614257565b80601f0160208091040260200160405190810160405280929190818152602001828054611bda90614257565b8015611c275780601f10611bfc57610100808354040283529160200191611c27565b820191906000526020600020905b815481529060010190602001808311611c0a57829003601f168201915b50505050508152602001600282018054611c4090614257565b80601f0160208091040260200160405190810160405280929190818152602001828054611c6c90614257565b8015611cb95780601f10611c8e57610100808354040283529160200191611cb9565b820191906000526020600020905b815481529060010190602001808311611c9c57829003601f168201915b5050505050815250508152602001600982018054611cd690614257565b80601f0160208091040260200160405190810160405280929190818152602001828054611d0290614257565b8015611d4f5780601f10611d2457610100808354040283529160200191611d4f565b820191906000526020600020905b815481529060010190602001808311611d3257829003601f168201915b50505050508152602001600a82018054611d6890614257565b80601f0160208091040260200160405190810160405280929190818152602001828054611d9490614257565b8015611de15780601f10611db657610100808354040283529160200191611de1565b820191906000526020600020905b815481529060010190602001808311611dc457829003601f168201915b50505050508152602001600b82018054611dfa90614257565b80601f0160208091040260200160405190810160405280929190818152602001828054611e2690614257565b8015611e735780601f10611e4857610100808354040283529160200191611e73565b820191906000526020600020905b815481529060010190602001808311611e5657829003601f168201915b505050919092525050600854606083015160e084015160c085015160200151610120860151608087015160a08801516101008901516040517f2a26c3ef000000000000000000000000000000000000000000000000000000008152999a506001600160a01b0390971698632a26c3ef9850611ef19790600401614017565b60006040518083038186803b158015611f0957600080fd5b505afa158015611f1d573d6000803e3d6000fd5b505050506040513d6000823e601f3d908101601f19168201604052611f459190810190613b0d565b9392505050565b600d6020526000908152604090208054600182015460028301546003840180546001600160a01b03909416949293919291611f8690614257565b80601f0160208091040260200160405190810160405280929190818152602001828054611fb290614257565b8015611fff5780601f10611fd457610100808354040283529160200191611fff565b820191906000526020600020905b815481529060010190602001808311611fe257829003601f168201915b505050506004830154600584015460408051606081019091526006860180546001600160a01b031682526007870180549697949693955091929091602084019161204890614257565b80601f016020809104026020016040519081016040528092919081815260200182805461207490614257565b80156120c15780601f10612096576101008083540402835291602001916120c1565b820191906000526020600020905b8154815290600101906020018083116120a457829003601f168201915b505050505081526020016002820180546120da90614257565b80601f016020809104026020016040519081016040528092919081815260200182805461210690614257565b80156121535780601f1061212857610100808354040283529160200191612153565b820191906000526020600020905b81548152906001019060200180831161213657829003601f168201915b5050505050815250509080600901805461216c90614257565b80601f016020809104026020016040519081016040528092919081815260200182805461219890614257565b80156121e55780601f106121ba576101008083540402835291602001916121e5565b820191906000526020600020905b8154815290600101906020018083116121c857829003601f168201915b50505050509080600a0180546121fa90614257565b80601f016020809104026020016040519081016040528092919081815260200182805461222690614257565b80156122735780601f1061224857610100808354040283529160200191612273565b820191906000526020600020905b81548152906001019060200180831161225657829003601f168201915b50505050509080600b01805461228890614257565b80601f01602080910402602001604051908101604052809291908181526020018280546122b490614257565b80156123015780601f106122d657610100808354040283529160200191612301565b820191906000526020600020905b8154815290600101906020018083116122e457829003601f168201915b505050505090508a565b60606123506040518061034001604052806103048152602001614348610304913960405160200161233c9190613dc0565b604051602081830303815290604052612ac4565b6040516020016123609190613e9e565b604051602081830303815290604052905090565b61237e8282612c8f565b6001600160a01b0382163b15806124335750604051630a85bd0160e11b80825233600483015260006024830181905260448301849052608060648401526084830152906001600160a01b0384169063150b7a029060a401602060405180830381600087803b1580156123ef57600080fd5b505af1158015612403573d6000803e3d6000fd5b505050506040513d601f19601f820116820180604052508101906124279190613af1565b6001600160e01b031916145b61247f5760405162461bcd60e51b815260206004820152601060248201527f554e534146455f524543495049454e5400000000000000000000000000000000604482015260640161058f565b5050565b606060006124928360026141da565b61249d9060026141a2565b67ffffffffffffffff8111156124c357634e487b7160e01b600052604160045260246000fd5b6040519080825280601f01601f1916602001820160405280156124ed576020820181803683370190505b5090507f30000000000000000000000000000000000000000000000000000000000000008160008151811061253257634e487b7160e01b600052603260045260246000fd5b60200101907effffffffffffffffffffffffffffffffffffffffffffffffffffffffffffff1916908160001a9053507f7800000000000000000000000000000000000000000000000000000000000000816001815181106125a357634e487b7160e01b600052603260045260246000fd5b60200101907effffffffffffffffffffffffffffffffffffffffffffffffffffffffffffff1916908160001a90535060006125df8460026141da565b6125ea9060016141a2565b90505b60018111156126a3577f303132333435363738396162636465660000000000000000000000000000000085600f166010811061263957634e487b7160e01b600052603260045260246000fd5b1a60f81b82828151811061265d57634e487b7160e01b600052603260045260246000fd5b60200101907effffffffffffffffffffffffffffffffffffffffffffffffffffffffffffff1916908160001a90535060049490941c9361269c81614240565b90506125ed565b508315611f455760405162461bcd60e51b815260206004820181905260248201527f537472696e67733a20686578206c656e67746820696e73756666696369656e74604482015260640161058f565b7aff00000000000000ff00000000000000ff00000000000000ff00006bffffffff0000000000000000604083901c9081167bffffffff00000000000000000000000000000000000000000000000084161760201c6fffffffff000000000000000000000000919091166001600160e01b031984161717601081901c9182167eff00000000000000ff00000000000000ff00000000000000ff000000000000821617600890811c7bff00000000000000ff00000000000000ff00000000000000ff000000939093167fff00000000000000ff00000000000000ff00000000000000ff000000000000009290921691909117919091179081901c7e0f000f000f000f000f000f000f000f000f000f000f000f000f000f000f000f167f0f000f000f000f000f000f000f000f000f000f000f000f000f000f000f000f00600492831c16179061285e827f06060606060606060606060606060606060606060606060606060606060606066141a2565b901c7f0f0f0f0f0f0f0f0f0f0f0f0f0f0f0f0f0f0f0f0f0f0f0f0f0f0f0f0f0f0f0f0f16600761288e91906141da565b6128b8827f30303030303030303030303030303030303030303030303030303030303030306141a2565b61046a91906141a2565b6000818152600260205260409020546001600160a01b0384811691161461292b5760405162461bcd60e51b815260206004820152600a60248201527f57524f4e475f46524f4d00000000000000000000000000000000000000000000604482015260640161058f565b6001600160a01b0382166129815760405162461bcd60e51b815260206004820152601160248201527f494e56414c49445f524543495049454e54000000000000000000000000000000604482015260640161058f565b336001600160a01b03841614806129bb57506001600160a01b038316600090815260056020908152604080832033845290915290205460ff165b806129dc57506000818152600460205260409020546001600160a01b031633145b612a285760405162461bcd60e51b815260206004820152600e60248201527f4e4f545f415554484f52495a4544000000000000000000000000000000000000604482015260640161058f565b6001600160a01b03808416600081815260036020908152604080832080546000190190559386168083528483208054600101905585835260028252848320805473ffffffffffffffffffffffffffffffffffffffff199081168317909155600490925284832080549092169091559251849392917fddf252ad1be2c89b69c2b068fc378daa952ba7f163c4a11628f55a4df523b3ef91a4505050565b6060815160001415612ae457505060408051602081019091526000815290565b60006040518060600160405280604081526020016143086040913990506000600384516002612b1391906141a2565b612b1d91906141ba565b612b289060046141da565b90506000612b378260206141a2565b67ffffffffffffffff811115612b5d57634e487b7160e01b600052604160045260246000fd5b6040519080825280601f01601f191660200182016040528015612b87576020820181803683370190505b509050818152600183018586518101602084015b81831015612bf55760039283018051603f601282901c811687015160f890811b8552600c83901c8216880151811b6001860152600683901c8216880151811b60028601529116860151901b93820193909352600401612b9b565b600389510660018114612c0f5760028114612c5957612c81565b7f3d3d0000000000000000000000000000000000000000000000000000000000007ffffffffffffffffffffffffffffffffffffffffffffffffffffffffffffffffe830152612c81565b7f3d000000000000000000000000000000000000000000000000000000000000006000198301525b509398975050505050505050565b6001600160a01b038216612ce55760405162461bcd60e51b815260206004820152601160248201527f494e56414c49445f524543495049454e54000000000000000000000000000000604482015260640161058f565b6000818152600260205260409020546001600160a01b031615612d4a5760405162461bcd60e51b815260206004820152600e60248201527f414c52454144595f4d494e544544000000000000000000000000000000000000604482015260640161058f565b6001600160a01b0382166000818152600360209081526040808320805460010190558483526002909152808220805473ffffffffffffffffffffffffffffffffffffffff19168417905551839291907fddf252ad1be2c89b69c2b068fc378daa952ba7f163c4a11628f55a4df523b3ef908290a45050565b60405180610200016040528060008152602001600081526020016000815260200160008152602001612e7b604051806101a0016040528060006001600160a01b031681526020016000815260200160008152602001600081526020016000815260200160001515815260200160006001600160a01b031681526020016000815260200160008152602001600081526020016000815260200160006001600160a01b0316815260200160006001600160a01b031681525090565b8152602001612eda604051806101200160405280600081526020016000815260200160008152602001600081526020016000815260200160001515815260200160006001600160a01b0316815260200160608152602001606081525090565b81526040805160c08101825260008082526020828101829052928201819052606082018190526080820181905260a0820152910190815260200160006001600160a01b031681526020016000815260200160006001600160a01b03168152602001612f78604051806080016040528060006001600160a01b03168152602001600081526020016000815260200160006001600160a01b031681525090565b8152602001612fd7604051806101200160405280600081526020016000815260200160008152602001600081526020016000815260200160001515815260200160006001600160a01b0316815260200160608152602001606081525090565b81526040805160a0810182526000808252602082810182905292820181905260608201819052608082015291019081526000602082018190526040820181905260609091015290565b82805461302c90614257565b90600052602060002090601f01602090048101928261304e5760008555613094565b82601f1061306757805160ff1916838001178555613094565b82800160010185558215613094579182015b82811115613094578251825591602001919060010190613079565b506130a09291506130a4565b5090565b5b808211156130a057600081556001016130a5565b805161185d816142be565b805161185d816142d6565b80516002811061185d57600080fd5b80516005811061185d57600080fd5b600082601f8301126130fd578081fd5b813561311061310b8261417a565b614149565b818152846020838601011115613124578283fd5b816020850160208301379081016020019190915292915050565b600082601f83011261314e578081fd5b815161315c61310b8261417a565b818152846020838601011115613170578283fd5b613181826020830160208701614210565b949350505050565b600060a0828403121561319a578081fd5b6131a2614092565b905081516131af816142d6565b815260208201516131bf816142be565b80602083015250604082015160408201526060820151606082015260808201516131e8816142be565b608082015292915050565b60006102008284031215613205578081fd5b604051610100810181811067ffffffffffffffff82111715613229576132296142a8565b604052905080613238836130cf565b81526020830151602082015260408301516040820152606083015160608201526080830151608082015261326e60a084016130c4565b60a08201526132808460c0850161329f565b60c0820152613293846101608501613312565b60e08201525092915050565b600060a082840312156132b0578081fd5b6132b8614092565b905081516132c5816142fa565b8152602082015163ffffffff811681146132de57600080fd5b602082015260408201516132f1816142be565b80604083015250606082015160608201526080820151608082015292915050565b600060a08284031215613323578081fd5b61332b614092565b90508151613338816142d6565b815260208201516132de816142fa565b600060c08284031215613359578081fd5b60405160c0810181811067ffffffffffffffff8211171561337c5761337c6142a8565b8060405250809150825161338f816142d6565b8152602083015161339f816142be565b60208201526040838101519082015260608301516133bc816142be565b606082015260808301516133cf816142d6565b608082015260a08301516133e2816142be565b60a0919091015292915050565b600060808284031215613400578081fd5b6134086140bb565b90508151815260208201516020820152604082015160408201526060820151606082015292915050565b600060408284031215613443578081fd5b6040516040810181811067ffffffffffffffff82111715613466576134666142a8565b604052825181526020928301519281019290925250919050565b60006101208284031215613492578081fd5b61349a6140de565b905081518152602082015160208201526040820151604082015260608201516060820152608082015160808201526134d460a083016130c4565b60a08201526134e560c083016130b9565b60c082015260e082015167ffffffffffffffff8082111561350557600080fd5b6135118583860161313e565b60e08401526101009150818401518181111561352c57600080fd5b6135388682870161313e565b8385015250505092915050565b600060e08284031215613556578081fd5b61355e614102565b9050815167ffffffffffffffff8082111561357857600080fd5b6135848583860161313e565b8352602084015191508082111561359a57600080fd5b506135a78482850161313e565b60208301525060408201516040820152606082015160608201526080820151608082015260a082015160a082015260c082015160c082015292915050565b6000602082840312156135f6578081fd5b8135611f45816142be565b600060208284031215613612578081fd5b8151611f45816142be565b6000806040838503121561362f578081fd5b823561363a816142be565b9150602083013561364a816142be565b809150509250929050565b600080600060608486031215613669578081fd5b8335613674816142be565b92506020840135613684816142be565b929592945050506040919091013590565b6000806000806000608086880312156136ac578283fd5b85356136b7816142be565b945060208601356136c7816142be565b935060408601359250606086013567ffffffffffffffff808211156136ea578283fd5b818801915088601f8301126136fd578283fd5b81358181111561370b578384fd5b89602082850101111561371c578384fd5b9699959850939650602001949392505050565b60008060408385031215613741578182fd5b823561374c816142be565b9150602083013561364a816142d6565b60008060008060008060c08789031215613774578384fd5b863561377f816142be565b955060208701359450604087013560ff8116811461379b578485fd5b9350606087013567ffffffffffffffff808211156137b7578283fd5b6137c38a838b016130ed565b945060808901359150808211156137d8578283fd5b6137e48a838b016130ed565b935060a08901359150808211156137f9578283fd5b5061380689828a016130ed565b9150509295509295509295565b6000806000806000806000806000898b036104a0811215613832578788fd5b8a5161383d816142be565b99506101a0601f198201811315613852578889fd5b61385a614125565b915061386860208d016130b9565b825260408c0151602083015260608c0151604083015260808c0151606083015260a08c0151608083015261389e60c08d016130c4565b60a08301526138af60e08d016130b9565b60c0830152610100808d015160e0840152610120808e0151828501526101409150818e01518185015250610160808e01518285015261018091506138f4828f016130b9565b908401526139038d83016130b9565b90830152506101c08b015190985067ffffffffffffffff811115613925578788fd5b6139318c828d01613480565b9750506139428b6101e08c016131f3565b95506139528b6103e08c01613432565b94506104208a015193506104408a015192506139716104608b016130de565b91506104808a015190509295985092959850929598565b6000806040838503121561399a578182fd5b82356139a5816142be565b946020939093013593505050565b600080604083850312156139c5578182fd5b82516139d0816142be565b6020939093015192949293505050565b60008060008060008060008060008060006102608c8e031215613a01578485fd5b8b51613a0c816142be565b809b505060208c0151995060408c0151985060608c0151975060808c0151613a33816142be565b9650613a4160a08d016130b9565b9550613a4f60c08d016130de565b945060e08c015167ffffffffffffffff811115613a6a578283fd5b613a768e828f01613545565b945050613a878d6101008e01613348565b9250613a978d6101c08e016133ef565b91506102408c015190509295989b509295989b9093969950565b60008060408385031215613ac3578182fd5b82359150602083013561364a816142be565b600060208284031215613ae6578081fd5b8135611f45816142e4565b600060208284031215613b02578081fd5b8151611f45816142e4565b600060208284031215613b1e578081fd5b815167ffffffffffffffff811115613b34578182fd5b6131818482850161313e565b60008060008060008060008789036101e0811215613b5c578182fd5b6080811215613b69578182fd5b50613b726140bb565b8851613b7d816142be565b8082525060208901516020820152604089015160408201526060890151613ba3816142be565b60608201529650613bb78960808a01613189565b955061012088015167ffffffffffffffff811115613bd3578182fd5b613bdf8a828b01613480565b955050613bf0896101408a01613432565b9350613bff61018089016130b9565b92506101a08801519150613c166101c089016130de565b905092959891949750929550565b600060208284031215613c35578081fd5b81516fffffffffffffffffffffffffffffffff81168114611f45578182fd5b600060208284031215613c65578081fd5b5035919050565b600060208284031215613c7d578081fd5b5051919050565b60008151808452613c9c816020860160208601614210565b601f01601f19169290920160200192915050565b7f68747470733a2f2f67726170682e70686f656e69782e66692f76656e7475726581527f64616f732f000000000000000000000000000000000000000000000000000000602082015260008451613d0e816025850160208901614210565b7f2f000000000000000000000000000000000000000000000000000000000000006025918401918201528451613d4b816026840160208901614210565b7f2f70726f706f73616c732f000000000000000000000000000000000000000000602692909101918201528351613d89816031840160208801614210565b7f2f696e766573746d656e7400000000000000000000000000000000000000000060319290910191820152603c0195945050505050565b7f7b226e616d65223a202244414f53717561726520496e766573746d656e74205281527f656365697074222c226465736372697074696f6e223a22000000000000000000602082015260008251613e1e816037850160208701614210565b7f222c22696d616765223a2268747470733a2f2f692e6962622e636f2f4a784e6360379390910192830152507f6d66342f436f6c6c656374696f6e2d4c6f676f2e706e67222c2265787465726e60578201527f616c5f6c696e6b223a2268747470733a2f2f64616f7371756172652e6669227d6077820152609701919050565b7f646174613a6170706c69636174696f6e2f6a736f6e3b6261736536342c000000815260008251613ed681601d850160208701614210565b91909101601d0192915050565b60006001600160a01b03808816835280871660208401525084604083015260806060830152826080830152828460a084013781830160a090810191909152601f909201601f19160101949350505050565b60006101406001600160a01b03808e1684528c60208501528b6040850152816060850152613f648285018c613c84565b91508960808501528860a085015283820360c085015280885116825250602087015160606020830152613f9a6060830182613c84565b905060408801518282036040840152613fb38282613c84565b9250505082810360e0840152613fc98187613c84565b9050828103610100840152613fde8186613c84565b9050828103610120840152613ff38185613c84565b9d9c50505050505050505050505050565b602081526000611f456020830184613c84565b60e08152600061402a60e083018a613c84565b828103602084015261403c818a613c84565b905082810360408401526140508189613c84565b905082810360608401526140648188613c84565b90508560808401528460a084015282810360c08401526140848185613c84565b9a9950505050505050505050565b60405160a0810167ffffffffffffffff811182821017156140b5576140b56142a8565b60405290565b6040516080810167ffffffffffffffff811182821017156140b5576140b56142a8565b604051610120810167ffffffffffffffff811182821017156140b5576140b56142a8565b60405160e0810167ffffffffffffffff811182821017156140b5576140b56142a8565b6040516101a0810167ffffffffffffffff811182821017156140b5576140b56142a8565b604051601f8201601f1916810167ffffffffffffffff81118282101715614172576141726142a8565b604052919050565b600067ffffffffffffffff821115614194576141946142a8565b50601f01601f191660200190565b600082198211156141b5576141b5614292565b500190565b6000826141d557634e487b7160e01b81526012600452602481fd5b500490565b60008160001904831182151516156141f4576141f4614292565b500290565b60008282101561420b5761420b614292565b500390565b60005b8381101561422b578181015183820152602001614213565b8381111561423a576000848401525b50505050565b60008161424f5761424f614292565b506000190190565b600181811c9082168061426b57607f821691505b6020821081141561428c57634e487b7160e01b600052602260045260246000fd5b50919050565b634e487b7160e01b600052601160045260246000fd5b634e487b7160e01b600052604160045260246000fd5b6001600160a01b03811681146142d357600080fd5b50565b80151581146142d357600080fd5b6001600160e01b0319811681146142d357600080fd5b600481106142d357600080fdfe4142434445464748494a4b4c4d4e4f505152535455565758595a6162636465666768696a6b6c6d6e6f707172737475767778797a303132333435363738392b2f546865204e46547320696e207468652044414f53717561726520496e766573746d656e74205265636569707420436f6c6c656374696f6e206172652067656e6572617465642066726f6d20696e766573746d656e7473206d6164652062792056656e747572652044414f7320696e207468652044414f53717561726520496e63756261746f722c2077686963682061637469766174656420746865204e46542066756e6374696f6e20574954484f5554207573696e672074686520457363726f772046756e6374696f6e2e2045616368204e465420726570726573656e747320616e20696e766573746f72e280997320696e766573746d656e74207265636f7264206f6620696e76657374696e6720696e20612050726f6a656374207468726f75676820612044414f20696e2044414f53717561726520496e63756261746f722c206c696b65206120726563656970742e20596f752063616e2076696577207468652064796e616d696320646174612028696d6167652920616e642070726f7065727469657320696e666f726d6174696f6e206f662065616368204e465420746f20636865636b207768657468657220746865204e46542069732063757272656e746c792076616c696420616e642074686520696e766573746d656e74207265636f7264732e205468652050726f6a656374206f722044414f206d61792070726f6d69736520746f20676976652062656e656669747320746f204e465420686f6c646572732c207265676172646c657373206f6620746865206f726967696e616c20696e766573746f722e20204e46547320696e207468697320636f6c6c656374696f6e20617265207472616e7366657261626c652e20205468652066756c66696c6c6d656e74206f6620616e792070726f6d697365206261736564206f6e20746865204e465420646570656e6473206f6e207468652070726f6d69736572202850726f6a656374206f722044414f292c20776869636820746865204e465420697473656c662063616e6e6f742067756172616e74656520746563686e6963616c6c792ea2646970667358221220a5216be5cd0304c250b496711f8fb4cc9a8822095b2ec89f7a4f6199179340ad64736f6c63430008040033",
  "linkReferences": {},
  "deployedLinkReferences": {}
}