{
  "_format": "hh-sol-artifact-1",
  "contractName": "ManualVesting",
  "sourceName": "contracts/ManualVesting.sol",
  "abi": [
    {
      "inputs": [
        {
          "internalType": "address",
          "name": "_bentoBoxAddr",
          "type": "address"
        },
        {
          "internalType": "address",
          "name": "_receiptNFTAddr",
          "type": "address"
        }
      ],
      "stateMutability": "nonpayable",
      "type": "constructor"
    },
    {
      "inputs": [],
      "name": "CREATED",
      "type": "error"
    },
    {
      "inputs": [],
      "name": "InValidBatchVesting2Param",
      "type": "error"
    },
    {
      "inputs": [],
      "name": "InValidVestingTimeParam",
      "type": "error"
    },
    {
      "inputs": [],
      "name": "NotOwner",
      "type": "error"
    },
    {
      "inputs": [],
      "name": "NotVestReceiver",
      "type": "error"
    },
    {
      "inputs": [],
      "name": "UN_ELIGIBLE",
      "type": "error"
    },
    {
      "anonymous": false,
      "inputs": [
        {
          "indexed": false,
          "internalType": "address[]",
          "name": "investors",
          "type": "address[]"
        },
        {
          "indexed": false,
          "internalType": "address[]",
          "name": "holders",
          "type": "address[]"
        },
        {
          "indexed": false,
          "internalType": "uint256",
          "name": "totalAmount",
          "type": "uint256"
        },
        {
          "indexed": false,
          "internalType": "uint256",
          "name": "batchId",
          "type": "uint256"
        }
      ],
      "name": "BatchVesting1",
      "type": "event"
    },
    {
      "anonymous": false,
      "inputs": [
        {
          "indexed": false,
          "internalType": "address[]",
          "name": "receivers",
          "type": "address[]"
        },
        {
          "indexed": false,
          "internalType": "uint256",
          "name": "totalAmount",
          "type": "uint256"
        },
        {
          "indexed": false,
          "internalType": "uint256",
          "name": "batchId",
          "type": "uint256"
        }
      ],
      "name": "BatchVesting2",
      "type": "event"
    },
    {
      "anonymous": false,
      "inputs": [
        {
          "indexed": true,
          "internalType": "uint256",
          "name": "vestId",
          "type": "uint256"
        },
        {
          "indexed": true,
          "internalType": "uint256",
          "name": "ownerAmount",
          "type": "uint256"
        },
        {
          "indexed": true,
          "internalType": "uint256",
          "name": "recipientAmount",
          "type": "uint256"
        },
        {
          "indexed": false,
          "internalType": "address",
          "name": "token",
          "type": "address"
        },
        {
          "indexed": false,
          "internalType": "bool",
          "name": "toBentoBox",
          "type": "bool"
        }
      ],
      "name": "CancelVesting",
      "type": "event"
    },
    {
      "anonymous": false,
      "inputs": [
        {
          "indexed": true,
          "internalType": "uint256",
          "name": "vestId",
          "type": "uint256"
        },
        {
          "indexed": false,
          "internalType": "address",
          "name": "token",
          "type": "address"
        },
        {
          "indexed": true,
          "internalType": "address",
          "name": "recipient",
          "type": "address"
        },
        {
          "indexed": false,
          "internalType": "uint32",
          "name": "start",
          "type": "uint32"
        },
        {
          "indexed": false,
          "internalType": "uint32",
          "name": "cliffDuration",
          "type": "uint32"
        },
        {
          "indexed": false,
          "internalType": "uint32",
          "name": "stepDuration",
          "type": "uint32"
        },
        {
          "indexed": false,
          "internalType": "uint32",
          "name": "steps",
          "type": "uint32"
        },
        {
          "indexed": false,
          "internalType": "uint128",
          "name": "cliffShares",
          "type": "uint128"
        },
        {
          "indexed": false,
          "internalType": "uint128",
          "name": "stepShares",
          "type": "uint128"
        }
      ],
      "name": "CreateVesting",
      "type": "event"
    },
    {
      "anonymous": false,
      "inputs": [
        {
          "indexed": true,
          "internalType": "uint256",
          "name": "vestId",
          "type": "uint256"
        },
        {
          "indexed": false,
          "internalType": "address",
          "name": "token",
          "type": "address"
        },
        {
          "indexed": true,
          "internalType": "address",
          "name": "recipient",
          "type": "address"
        },
        {
          "indexed": false,
          "internalType": "uint32",
          "name": "start",
          "type": "uint32"
        },
        {
          "indexed": false,
          "internalType": "uint32",
          "name": "cliffDuration",
          "type": "uint32"
        },
        {
          "indexed": false,
          "internalType": "uint32",
          "name": "stepDuration",
          "type": "uint32"
        },
        {
          "indexed": false,
          "internalType": "uint32",
          "name": "steps",
          "type": "uint32"
        },
        {
          "indexed": false,
          "internalType": "uint128",
          "name": "cliffShares",
          "type": "uint128"
        },
        {
          "indexed": false,
          "internalType": "uint128",
          "name": "stepShares",
          "type": "uint128"
        },
        {
          "indexed": false,
          "internalType": "uint256",
          "name": "batchId",
          "type": "uint256"
        }
      ],
      "name": "CreateVesting2",
      "type": "event"
    },
    {
      "anonymous": false,
      "inputs": [
        {
          "indexed": true,
          "internalType": "uint256",
          "name": "vestId",
          "type": "uint256"
        },
        {
          "indexed": true,
          "internalType": "address",
          "name": "newOwner",
          "type": "address"
        }
      ],
      "name": "LogUpdateOwner",
      "type": "event"
    },
    {
      "anonymous": false,
      "inputs": [
        {
          "indexed": true,
          "internalType": "uint256",
          "name": "vestId",
          "type": "uint256"
        },
        {
          "indexed": true,
          "internalType": "address",
          "name": "token",
          "type": "address"
        },
        {
          "indexed": true,
          "internalType": "uint256",
          "name": "amount",
          "type": "uint256"
        },
        {
          "indexed": false,
          "internalType": "bool",
          "name": "toBentoBox",
          "type": "bool"
        }
      ],
      "name": "Withdraw",
      "type": "event"
    },
    {
      "inputs": [],
      "name": "PERCENTAGE_PRECISION",
      "outputs": [
        {
          "internalType": "uint256",
          "name": "",
          "type": "uint256"
        }
      ],
      "stateMutability": "view",
      "type": "function"
    },
    {
      "inputs": [
        {
          "internalType": "address[]",
          "name": "investors",
          "type": "address[]"
        },
        {
          "internalType": "address[]",
          "name": "holders",
          "type": "address[]"
        },
        {
          "components": [
            {
              "internalType": "uint256",
              "name": "startTime",
              "type": "uint256"
            },
            {
              "internalType": "uint256",
              "name": "cliffEndTime",
              "type": "uint256"
            },
            {
              "internalType": "uint256",
              "name": "endTime",
              "type": "uint256"
            },
            {
              "internalType": "uint256",
              "name": "vestingInterval",
              "type": "uint256"
            },
            {
              "internalType": "address",
              "name": "paybackToken",
              "type": "address"
            },
            {
              "internalType": "address",
              "name": "recipientAddr",
              "type": "address"
            },
            {
              "internalType": "uint256",
              "name": "depositAmount",
              "type": "uint256"
            },
            {
              "internalType": "uint256",
              "name": "cliffVestingAmount",
              "type": "uint256"
            },
            {
              "internalType": "bool",
              "name": "nftEnable",
              "type": "bool"
            },
            {
              "internalType": "address",
              "name": "erc721",
              "type": "address"
            },
            {
              "internalType": "string",
              "name": "name",
              "type": "string"
            },
            {
              "internalType": "string",
              "name": "description",
              "type": "string"
            }
          ],
          "internalType": "struct ManualVesting.CreateVestingParams",
          "name": "params",
          "type": "tuple"
        },
        {
          "internalType": "uint256",
          "name": "total",
          "type": "uint256"
        },
        {
          "internalType": "uint8",
          "name": "mode",
          "type": "uint8"
        },
        {
          "internalType": "address",
          "name": "daoAddr",
          "type": "address"
        },
        {
          "internalType": "bytes32",
          "name": "proposalId",
          "type": "bytes32"
        }
      ],
      "name": "batchCreate",
      "outputs": [],
      "stateMutability": "nonpayable",
      "type": "function"
    },
    {
      "inputs": [
        {
          "internalType": "address[]",
          "name": "receivers",
          "type": "address[]"
        },
        {
          "internalType": "uint256[]",
          "name": "amounts",
          "type": "uint256[]"
        },
        {
          "components": [
            {
              "internalType": "uint256",
              "name": "startTime",
              "type": "uint256"
            },
            {
              "internalType": "uint256",
              "name": "cliffEndTime",
              "type": "uint256"
            },
            {
              "internalType": "uint256",
              "name": "endTime",
              "type": "uint256"
            },
            {
              "internalType": "uint256",
              "name": "vestingInterval",
              "type": "uint256"
            },
            {
              "internalType": "address",
              "name": "paybackToken",
              "type": "address"
            },
            {
              "internalType": "address",
              "name": "recipientAddr",
              "type": "address"
            },
            {
              "internalType": "uint256",
              "name": "depositAmount",
              "type": "uint256"
            },
            {
              "internalType": "uint256",
              "name": "cliffVestingAmount",
              "type": "uint256"
            },
            {
              "internalType": "bool",
              "name": "nftEnable",
              "type": "bool"
            },
            {
              "internalType": "address",
              "name": "erc721",
              "type": "address"
            },
            {
              "internalType": "string",
              "name": "name",
              "type": "string"
            },
            {
              "internalType": "string",
              "name": "description",
              "type": "string"
            }
          ],
          "internalType": "struct ManualVesting.CreateVestingParams",
          "name": "params",
          "type": "tuple"
        }
      ],
      "name": "batchCreate2",
      "outputs": [],
      "stateMutability": "nonpayable",
      "type": "function"
    },
    {
      "inputs": [],
      "name": "batchIds",
      "outputs": [
        {
          "internalType": "uint256",
          "name": "",
          "type": "uint256"
        }
      ],
      "stateMutability": "view",
      "type": "function"
    },
    {
      "inputs": [
        {
          "internalType": "uint256",
          "name": "",
          "type": "uint256"
        }
      ],
      "name": "batchVestInfo",
      "outputs": [
        {
          "internalType": "uint128",
          "name": "claimed",
          "type": "uint128"
        },
        {
          "internalType": "uint256",
          "name": "total",
          "type": "uint256"
        },
        {
          "components": [
            {
              "internalType": "uint32",
              "name": "steps",
              "type": "uint32"
            },
            {
              "internalType": "uint128",
              "name": "cliffShares",
              "type": "uint128"
            },
            {
              "internalType": "uint128",
              "name": "stepShares",
              "type": "uint128"
            }
          ],
          "internalType": "struct ManualVesting.StepInfo",
          "name": "stepInfo",
          "type": "tuple"
        },
        {
          "components": [
            {
              "internalType": "uint32",
              "name": "start",
              "type": "uint32"
            },
            {
              "internalType": "uint32",
              "name": "end",
              "type": "uint32"
            },
            {
              "internalType": "uint32",
              "name": "cliffDuration",
              "type": "uint32"
            },
            {
              "internalType": "uint32",
              "name": "stepDuration",
              "type": "uint32"
            }
          ],
          "internalType": "struct ManualVesting.TimeInfo",
          "name": "timeInfo",
          "type": "tuple"
        },
        {
          "components": [
            {
              "internalType": "address",
              "name": "nftToken",
              "type": "address"
            },
            {
              "internalType": "uint256",
              "name": "tokenId",
              "type": "uint256"
            }
          ],
          "internalType": "struct ManualVesting.VestNFTInfo",
          "name": "nftInfo",
          "type": "tuple"
        },
        {
          "components": [
            {
              "internalType": "string",
              "name": "name",
              "type": "string"
            },
            {
              "internalType": "string",
              "name": "description",
              "type": "string"
            },
            {
              "internalType": "address",
              "name": "owner",
              "type": "address"
            },
            {
              "internalType": "address",
              "name": "recipient",
              "type": "address"
            },
            {
              "internalType": "address",
              "name": "token",
              "type": "address"
            }
          ],
          "internalType": "struct ManualVesting.VestInfo",
          "name": "vestInfo",
          "type": "tuple"
        }
      ],
      "stateMutability": "view",
      "type": "function"
    },
    {
      "inputs": [
        {
          "components": [
            {
              "internalType": "uint256",
              "name": "startTime",
              "type": "uint256"
            },
            {
              "internalType": "uint256",
              "name": "cliffEndTime",
              "type": "uint256"
            },
            {
              "internalType": "uint256",
              "name": "endTime",
              "type": "uint256"
            },
            {
              "internalType": "uint256",
              "name": "vestingInterval",
              "type": "uint256"
            },
            {
              "internalType": "address",
              "name": "paybackToken",
              "type": "address"
            },
            {
              "internalType": "address",
              "name": "recipientAddr",
              "type": "address"
            },
            {
              "internalType": "uint256",
              "name": "depositAmount",
              "type": "uint256"
            },
            {
              "internalType": "uint256",
              "name": "cliffVestingAmount",
              "type": "uint256"
            },
            {
              "internalType": "bool",
              "name": "nftEnable",
              "type": "bool"
            },
            {
              "internalType": "address",
              "name": "erc721",
              "type": "address"
            },
            {
              "internalType": "string",
              "name": "name",
              "type": "string"
            },
            {
              "internalType": "string",
              "name": "description",
              "type": "string"
            }
          ],
          "internalType": "struct ManualVesting.CreateVestingParams",
          "name": "params",
          "type": "tuple"
        }
      ],
      "name": "createVesting",
      "outputs": [],
      "stateMutability": "payable",
      "type": "function"
    },
    {
      "inputs": [
        {
          "internalType": "uint256",
          "name": "batchId",
          "type": "uint256"
        }
      ],
      "name": "createVesting2",
      "outputs": [],
      "stateMutability": "payable",
      "type": "function"
    },
    {
      "inputs": [
        {
          "internalType": "uint256",
          "name": "",
          "type": "uint256"
        },
        {
          "internalType": "address",
          "name": "",
          "type": "address"
        }
      ],
      "name": "eligibleVestUsers",
      "outputs": [
        {
          "internalType": "address",
          "name": "account",
          "type": "address"
        },
        {
          "internalType": "uint256",
          "name": "amount",
          "type": "uint256"
        },
        {
          "internalType": "bool",
          "name": "created",
          "type": "bool"
        },
        {
          "internalType": "uint256",
          "name": "batchId",
          "type": "uint256"
        }
      ],
      "stateMutability": "view",
      "type": "function"
    },
    {
      "inputs": [
        {
          "internalType": "address",
          "name": "token",
          "type": "address"
        },
        {
          "internalType": "uint256",
          "name": "tokenId",
          "type": "uint256"
        }
      ],
      "name": "getRemainingPercentage",
      "outputs": [
        {
          "internalType": "uint256",
          "name": "",
          "type": "uint256"
        },
        {
          "internalType": "uint256",
          "name": "",
          "type": "uint256"
        },
        {
          "internalType": "uint256",
          "name": "",
          "type": "uint256"
        }
      ],
      "stateMutability": "view",
      "type": "function"
    },
    {
      "inputs": [
        {
          "internalType": "address",
          "name": "token",
          "type": "address"
        },
        {
          "internalType": "uint256",
          "name": "tokenId",
          "type": "uint256"
        }
      ],
      "name": "getVestIdByTokenId",
      "outputs": [
        {
          "internalType": "uint256",
          "name": "",
          "type": "uint256"
        }
      ],
      "stateMutability": "view",
      "type": "function"
    },
    {
      "inputs": [
        {
          "internalType": "address",
          "name": "",
          "type": "address"
        },
        {
          "internalType": "uint256",
          "name": "",
          "type": "uint256"
        }
      ],
      "name": "tokenIdToVestId",
      "outputs": [
        {
          "internalType": "uint256",
          "name": "",
          "type": "uint256"
        }
      ],
      "stateMutability": "view",
      "type": "function"
    },
    {
      "inputs": [
        {
          "internalType": "uint256",
          "name": "vestId",
          "type": "uint256"
        }
      ],
      "name": "vestBalance",
      "outputs": [
        {
          "internalType": "uint256",
          "name": "",
          "type": "uint256"
        }
      ],
      "stateMutability": "view",
      "type": "function"
    },
    {
      "inputs": [],
      "name": "vestIds",
      "outputs": [
        {
          "internalType": "uint256",
          "name": "",
          "type": "uint256"
        }
      ],
      "stateMutability": "view",
      "type": "function"
    },
    {
      "inputs": [
        {
          "internalType": "uint256",
          "name": "",
          "type": "uint256"
        }
      ],
      "name": "vests",
      "outputs": [
        {
          "internalType": "uint128",
          "name": "claimed",
          "type": "uint128"
        },
        {
          "internalType": "uint256",
          "name": "total",
          "type": "uint256"
        },
        {
          "components": [
            {
              "internalType": "uint32",
              "name": "steps",
              "type": "uint32"
            },
            {
              "internalType": "uint128",
              "name": "cliffShares",
              "type": "uint128"
            },
            {
              "internalType": "uint128",
              "name": "stepShares",
              "type": "uint128"
            }
          ],
          "internalType": "struct ManualVesting.StepInfo",
          "name": "stepInfo",
          "type": "tuple"
        },
        {
          "components": [
            {
              "internalType": "uint32",
              "name": "start",
              "type": "uint32"
            },
            {
              "internalType": "uint32",
              "name": "end",
              "type": "uint32"
            },
            {
              "internalType": "uint32",
              "name": "cliffDuration",
              "type": "uint32"
            },
            {
              "internalType": "uint32",
              "name": "stepDuration",
              "type": "uint32"
            }
          ],
          "internalType": "struct ManualVesting.TimeInfo",
          "name": "timeInfo",
          "type": "tuple"
        },
        {
          "components": [
            {
              "internalType": "address",
              "name": "nftToken",
              "type": "address"
            },
            {
              "internalType": "uint256",
              "name": "tokenId",
              "type": "uint256"
            }
          ],
          "internalType": "struct ManualVesting.VestNFTInfo",
          "name": "nftInfo",
          "type": "tuple"
        },
        {
          "components": [
            {
              "internalType": "string",
              "name": "name",
              "type": "string"
            },
            {
              "internalType": "string",
              "name": "description",
              "type": "string"
            },
            {
              "internalType": "address",
              "name": "owner",
              "type": "address"
            },
            {
              "internalType": "address",
              "name": "recipient",
              "type": "address"
            },
            {
              "internalType": "address",
              "name": "token",
              "type": "address"
            }
          ],
          "internalType": "struct ManualVesting.VestInfo",
          "name": "vestInfo",
          "type": "tuple"
        }
      ],
      "stateMutability": "view",
      "type": "function"
    },
    {
      "inputs": [
        {
          "internalType": "uint256",
          "name": "vestId",
          "type": "uint256"
        }
      ],
      "name": "withdraw",
      "outputs": [],
      "stateMutability": "nonpayable",
      "type": "function"
    }
  ],
  "bytecode": "0x60806040523480156200001157600080fd5b50604051620057b0380380620057b083398101604081905262000034916200008d565b60016004819055600555600680546001600160a01b039384166001600160a01b03199182161790915560078054929093169116179055620000c4565b80516001600160a01b03811681146200008857600080fd5b919050565b60008060408385031215620000a0578182fd5b620000ab8362000070565b9150620000bb6020840162000070565b90509250929050565b6156dc80620000d46000396000f3fe6080604052600436106100e85760003560e01c806336d4ab6b1161008a578063cbcf030511610059578063cbcf03051461031c578063ceba7c6d1461032f578063e256888f1461034f578063eb2fe3ac1461036b57600080fd5b806336d4ab6b1461026f5780633b39356a146102a157806351def556146102c15780637a4334e2146102e157600080fd5b80632c29e196116100c65780632c29e196146101bf5780632deac4f6146102025780632e1a7d4d146102175780633427dd671461023757600080fd5b806319f77171146100ed5780632a0074ed146101205780632bcea736146101a9575b600080fd5b3480156100f957600080fd5b5061010d610108366004615076565b610381565b6040519081526020015b60405180910390f35b34801561012c57600080fd5b5061017961013b3660046150a6565b6002602081815260009384526040808520909152918352912080546001820154928201546003909201546001600160a01b03909116929160ff169084565b604080516001600160a01b0390951685526020850193909352901515918301919091526060820152608001610117565b3480156101b557600080fd5b5061010d60045481565b3480156101cb57600080fd5b5061010d6101da366004614bb7565b6001600160a01b03919091166000908152600160209081526040808320938352929052205490565b610215610210366004615076565b6105ea565b005b34801561022357600080fd5b50610215610232366004615076565b610f11565b34801561024357600080fd5b5061010d610252366004614bb7565b600160209081526000928352604080842090915290825290205481565b34801561027b57600080fd5b5061028f61028a366004615076565b611369565b6040516101179695949392919061523a565b3480156102ad57600080fd5b506102156102bc366004614daa565b611590565b3480156102cd57600080fd5b5061028f6102dc366004615076565b611c10565b3480156102ed57600080fd5b506103016102fc366004614bb7565b611cee565b60408051938452602084019290925290820152606001610117565b61021561032a366004614e56565b611daa565b34801561033b57600080fd5b5061021561034a366004614ce0565b612281565b34801561035b57600080fd5b5061010d670de0b6b3a764000081565b34801561037757600080fd5b5061010d60055481565b600081815260208181526040808320815160c08101835281546001600160801b039081168252600183015482860152835160608082018652600285015463ffffffff8082168452640100000000918290048516848a015260038701549094168388015284870192909252855160808082018852600487015480861683529384048516828a0152680100000000000000008404851682890152600160601b909304909316838201528301919091528351808501855260058401546001600160a01b03168152600684015495810195909552810193909352815160a081810190935260078201805486959485019291908290829061047c906155ad565b80601f01602080910402602001604051908101604052809291908181526020018280546104a8906155ad565b80156104f55780601f106104ca576101008083540402835291602001916104f5565b820191906000526020600020905b8154815290600101906020018083116104d857829003601f168201915b5050505050815260200160018201805461050e906155ad565b80601f016020809104026020016040519081016040528092919081815260200182805461053a906155ad565b80156105875780601f1061055c57610100808354040283529160200191610587565b820191906000526020600020905b81548152906001019060200180831161056a57829003601f168201915b505050918352505060028201546001600160a01b03908116602083015260038301548116604083015260049092015490911660609091015290525080519091506001600160801b03166105d982612b4f565b6105e39190615541565b9392505050565b61065b604051806101400160405280600081526020016000815260200160006001600160801b0316815260200160006001600160801b031681526020016000815260200160008152602001600081526020016000815260200160006001600160a01b03168152602001600081525090565b60008281526002602090815260408083203384529091529020600101546106ae576040517f218749b600000000000000000000000000000000000000000000000000000000815260040160405180910390fd5b6000828152600260208181526040808420338552909152909120015460ff1615610704576040517f697e0ef200000000000000000000000000000000000000000000000000000000815260040160405180910390fd5b60008281526003602052604090206004015463ffffffff16158061075b57506000828152600360205260409020600401546107539063ffffffff680100000000000000008204811691166154c3565b63ffffffff16155b806107835750600082815260036020526040902060040154640100000000900463ffffffff16155b806107aa5750600082815260036020526040902060040154600160601b900463ffffffff16155b156107e1576040517f22fb5f7400000000000000000000000000000000000000000000000000000000815260040160405180910390fd5b6000828152600360209081526040808320600b810154600990910154600284528285203386529093529083206001015461082d936001600160a01b039283169390921691309190612c83565b815260008281526003602052604090206004015461085f9063ffffffff680100000000000000008204811691166154c3565b6000838152600360205260409020600401546108899190640100000000900463ffffffff16615558565b63ffffffff9081166080830190815260008481526003602052604090206004015490516108c192600160601b909204909116906154e2565b60e08201526000828152600360205260409020600401546080820151600160601b90910463ffffffff16106108f857600160e08201525b6000828152600360205260409020600401546080820151600160601b90910463ffffffff161015610a015760808101516000838152600360205260409020600401546109519190600160601b900463ffffffff1661561d565b61098957600082815260036020526040902060040154608082015161098391600160601b900463ffffffff16906154e2565b60e08201525b608081015160008381526003602052604090206004015460e08301516109bc91600160601b900463ffffffff16906154f6565b1015610a015760008281526003602052604090206004015460808201516109f091600160601b900463ffffffff16906154e2565b6109fb9060016154ab565b60e08201525b600082815260036020908152604080832060029081015490835281842033855290925290912060010154670de0b6b3a764000091610a51916401000000009091046001600160801b0316906154f6565b610a5b91906154e2565b6001600160801b03166060820181905260e082015182519091610a7d91615541565b610a8791906154e2565b6001600160801b0316604082015260048054906000610aa5836155e2565b909155506020808301919091526000838152600390915260409020600501546001600160a01b031615610bb757600082815260036020526040908190206005015490517f40d097c30000000000000000000000000000000000000000000000000000000081523360048201526001600160a01b03909116906340d097c390602401602060405180830381600087803b158015610b4057600080fd5b505af1158015610b54573d6000803e3d6000fd5b505050506040513d601f19601f82011682018060405250810190610b78919061508e565b61012082019081526020808301516000858152600383526040808220600501546001600160a01b03168252600184528082209451825293909252919020555b6020808201516040805160808082018352338083528286015260008781526003808752848220600b8101546001600160a01b03908116868801528a845282895260058201541660608087019190915286516101208101885260e08b01518152818b01516001600160801b03908116828c0152888c015116978101979097528951908701526004015463ffffffff8082169487018590526401000000008204811660a0880152928a90529652610e209592939260c0840192610c889268010000000000000000909204909116906154c3565b63ffffffff908116825260008881526003602081815260408084206004810154600160601b9004909516828701526101208b015195019490945290899052909152600501546001600160a01b031615610ce2576001610ce5565b60005b60008781526003602052604090206007018054610d01906155ad565b80601f0160208091040260200160405190810160405280929190818152602001828054610d2d906155ad565b8015610d7a5780601f10610d4f57610100808354040283529160200191610d7a565b820191906000526020600020905b815481529060010190602001808311610d5d57829003601f168201915b50505060008a81526003602052604090206008018054909250610d9d91506155ad565b80601f0160208091040260200160405190810160405280929190818152602001828054610dc9906155ad565b8015610e165780601f10610deb57610100808354040283529160200191610e16565b820191906000526020600020905b815481529060010190602001808311610df957829003601f168201915b5050505050612e91565b600082815260026020818152604080842033808652908352818520909301805460ff19166001179055848201518685526003835293819020600b81015460049091015460e0808801516060808a01518a87015187516001600160a01b03909716875263ffffffff80871699880199909952680100000000000000008604891697870197909752600160601b9094048716908501529490941660808301526001600160801b0390811660a083015290911660c08201529081018590529091907f601c3e176f13dbbb8a0df6fa1968e573183ed382e3dc436888a1e6897bc7da4990610100015b60405180910390a35050565b6000818152602081905260409020600a81015460058201546001600160a01b0391821691161561101d57600582015460068301546040517f6352211e000000000000000000000000000000000000000000000000000000008152600481019190915233916001600160a01b031690636352211e9060240160206040518083038186803b158015610fa057600080fd5b505afa158015610fb4573d6000803e3d6000fd5b505050506040513d601f19601f82011682018060405250810190610fd89190614921565b6001600160a01b031614611018576040517fe1c6117100000000000000000000000000000000000000000000000000000000815260040160405180910390fd5b61105f565b6001600160a01b038116331461105f576040517fe1c6117100000000000000000000000000000000000000000000000000000000815260040160405180910390fd5b81546040805160c0810182526001600160801b039283168082526001860154602080840191909152835160608082018652600289015463ffffffff80821684526401000000009182900489168486015260038b0154909816838801528587019290925285516080808201885260048b0154808a168352938404891682860152680100000000000000008404891682890152600160601b909304909716878201528401959095528351808501855260058801546001600160a01b0316815260068801549181019190915293820193909352815160a0818101909352600786018054600095946112a994938993918501929091908290829061115e906155ad565b80601f016020809104026020016040519081016040528092919081815260200182805461118a906155ad565b80156111d75780601f106111ac576101008083540402835291602001916111d7565b820191906000526020600020905b8154815290600101906020018083116111ba57829003601f168201915b505050505081526020016001820180546111f0906155ad565b80601f016020809104026020016040519081016040528092919081815260200182805461121c906155ad565b80156112695780601f1061123e57610100808354040283529160200191611269565b820191906000526020600020905b81548152906001019060200180831161124c57829003601f168201915b505050918352505060028201546001600160a01b039081166020830152600383015481166040830152600490920154909116606090910152905250612b4f565b6112b39190615541565b9050806112c05750505050565b8254819084906000906112dd9084906001600160801b0316615480565b82546001600160801b039182166101009390930a928302919092021990911617905550600b83015461131c906001600160a01b031630848460006132f3565b600b8301546040516000815282916001600160a01b03169086907fff942d249898505febb2a9a00118e27567c084b9497d0aa3ba5e332c235b4f389060200160405180910390a450505050565b60036020818152600092835260409283902080546001820154855160608082018852600285015463ffffffff80821684526001600160801b03640100000000928390048116858a0152988701548916848b01528951608081018b52600488015480831682529283048216818a01526801000000000000000083048216818c0152600160601b90920416918101919091528751808901895260058601546001600160a01b03168152600686015496810196909652875160a081019098526007850180549790941697929691959094909390929182908290611448906155ad565b80601f0160208091040260200160405190810160405280929190818152602001828054611474906155ad565b80156114c15780601f10611496576101008083540402835291602001916114c1565b820191906000526020600020905b8154815290600101906020018083116114a457829003601f168201915b505050505081526020016001820180546114da906155ad565b80601f0160208091040260200160405190810160405280929190818152602001828054611506906155ad565b80156115535780601f1061152857610100808354040283529160200191611553565b820191906000526020600020905b81548152906001019060200180831161153657829003601f168201915b505050918352505060028201546001600160a01b039081166020830152600383015481166040830152600490920154909116606090910152905086565b6115d26040518060c0016040528060008152602001600081526020016000815260200160006001600160a01b0316815260200160008152602001600081525090565b6004546080820152600580549060006115ea836155e2565b9091555060a082015284831461162c576040517fba1df96900000000000000000000000000000000000000000000000000000000815260040160405180910390fd5b8135158061163c57506020820135155b8061164957506040820135155b8061165657506060820135155b1561168d576040517fba1df96900000000000000000000000000000000000000000000000000000000815260040160405180910390fd5b841561182b5760005b60ff81168611156118295784848260ff168181106116c457634e487b7160e01b600052603260045260246000fd5b905060200201358260400181815250508160400151826020018181516116ea91906154ab565b905250604080516080810190915280888860ff851681811061171c57634e487b7160e01b600052603260045260246000fd5b90506020020160208101906117319190614905565b6001600160a01b03168152602001836040015181526020016000151581526020018360a00151815250600260008460a001518152602001908152602001600020600089898560ff1681811061179657634e487b7160e01b600052603260045260246000fd5b90506020020160208101906117ab9190614905565b6001600160a01b03908116825260208083019390935260409182016000208451815473ffffffffffffffffffffffffffffffffffffffff1916921691909117815591830151600183015582015160028201805460ff191691151591909117905560609091015160039091015580611821816155fd565b915050611696565b505b6040805160c08101825260008082526020848101518184015283516060808201865283825260e08801356001600160801b03168284015281860193909352838501528351608081018552863563ffffffff818116835288870135168284015293949285019390928301916118a29190880135615541565b63ffffffff168152602001856060013563ffffffff1681525081526020016040518060400160405280856101000160208101906118df9190614e3a565b15156001146118ef576000611901565b61190161014087016101208801614905565b6001600160a01b03168152602001600081525081526020016040518060a001604052808580610140019061193591906152e9565b8080601f01602080910402602001604051908101604052809392919081815260200183838082843760009201919091525050509082525060200161197d6101608701876152e9565b8080601f016020809104026020016040519081016040528093929190818152602001838380828437600092018290525093855250503360208401525060408201526060016119d160a0870160808801614905565b6001600160a01b03908116909152915260a080840151600090815260036020818152604092839020865181546001600160801b039182166fffffffffffffffffffffffffffffffff1991821617835588840151600184015588860151805160028501805483880151861664010000000090810273ffffffffffffffffffffffffffffffffffffffff1992831663ffffffff95861617179092559289015197860180549890951697909316969096179092556060808a01518051600486018054838901519a84015193909401518916600160601b026fffffffff00000000000000000000000019938a166801000000000000000002939093166fffffffffffffffff0000000000000000199a8a1690950267ffffffffffffffff1990941691909816179190911796909616179490941790925560808601518051600584018054919097169416939093179094559083015160068201559083015180518051929391926007850192611b45928492910190613fc7565b506020828101518051611b5e9260018501920190613fc7565b5060408281015160028301805473ffffffffffffffffffffffffffffffffffffffff199081166001600160a01b03938416179091556060850151600385018054831691841691909117905560809094015160049093018054909416921691909117909155602084015160a085015191517f5858a1d5e5b81297eb61c7c5c1c87dcb28e11d6f2ed9f820544058dfcc6d13359450611c0093508a928a9291615213565b60405180910390a1505050505050565b6000602081815291815260409081902080546001820154835160608082018652600285015463ffffffff80821684526001600160801b03640100000000928390048116858b015260038801548116858a01528851608081018a52600489015480841682529384048316818c01526801000000000000000084048316818b0152600160601b909304909116928201929092528651808801885260058701546001600160a01b03168152600687015498810198909852865160a08101909752600786018054929095169793969295909490929182908290611448906155ad565b6000808080808080611d2389896001600160a01b03919091166000908152600160209081526040808320938352929052205490565b90508015611d9b5760008181526020819052604090208054600190910154611d54916001600160801b031690615541565b60008281526020819052604090206001810154905491945092508290611d83906001600160801b031682615541565b611d8e9060646154f6565b611d9891906154e2565b93505b50919450925090509250925092565b611e1b604051806101400160405280600081526020016000815260200160006001600160801b0316815260200160006001600160801b031681526020016000815260200160008152602001600081526020016000815260200160006001600160a01b03168152602001600081525090565b81511580611e2b57506020820151155b80611e3857506040820151155b80611e4557506060820151155b15611e7c576040517f22fb5f7400000000000000000000000000000000000000000000000000000000815260040160405180910390fd5b611e92826080015133308560c001516000612c83565b815260208201516040830151611ea89190615541565b608082018190526060830151611ebd916154e2565b60e08201526060820151608082015111611ed957600160e08201525b816060015181608001511115611f5f5780608001518260600151611efd919061561d565b611f1b5781606001518160800151611f1591906154e2565b60e08201525b806080015182606001518260e00151611f3491906154f6565b1015611f5f5781606001518160800151611f4e91906154e2565b611f599060016154ab565b60e08201525b670de0b6b3a76400008260e001518360c00151611f7c91906154f6565b611f8691906154e2565b6001600160801b03166060820181905260e082015182519091611fa891615541565b611fb291906154e2565b6001600160801b0316604082015260048054906000611fd0836155e2565b909155506020820152610100820151156120bb5761012082015160a08301516040517f40d097c30000000000000000000000000000000000000000000000000000000081526001600160a01b0391821660048201529116906340d097c390602401602060405180830381600087803b15801561204b57600080fd5b505af115801561205f573d6000803e3d6000fd5b505050506040513d601f19601f82011682018060405250810190612083919061508e565b610120808301918252602080840151918501516001600160a01b03166000908152600182526040808220945182529390915291909120555b6121c781602001516040518060800160405280336001600160a01b03166001600160a01b031681526020018560a001516001600160a01b03166001600160a01b0316815260200185608001516001600160a01b03166001600160a01b031681526020018561012001516001600160a01b03166001600160a01b03168152506040518061012001604052808560e00151815260200185606001516001600160801b0316815260200185604001516001600160801b031681526020018660c00151815260200186600001518152602001866040015181526020018660200151815260200186606001518152602001856101200151815250856101000151866101400151876101600151612e91565b8160a001516001600160a01b031681602001517f438c3b12459c65275f9d92689e45742e4217ed48c982a87ea69b4fffe5945e8984608001518560000151866000015187602001516122199190615541565b60608089015160e0808a01518a8401516040808d015181516001600160a01b03909a168a5263ffffffff98891660208b015296881690890152928616938701939093529390911660808501526001600160801b0390811660a08501521660c083015201610f05565b6122c36040518060c0016040528060008152602001600081526020016000815260200160006001600160a01b0316815260200160008152602001600081525090565b6004546080820152600580549060006122db836155e2565b9091555060a08201526040805160c0810182526000808252602080830189905283516060818101865283825260e08c01356001600160801b031682840152818601939093528385015283516080810185528a3563ffffffff81811683528c8701351682840152939492850193909283019161235991908c0135615541565b63ffffffff168152602001896060013563ffffffff1681525081526020016040518060400160405280896101000160208101906123969190614e3a565b15156001146123a65760006123b8565b6123b86101408b016101208c01614905565b6001600160a01b03168152602001600081525081526020016040518060a00160405280898061014001906123ec91906152e9565b8080601f0160208091040260200160405190810160405280939291908181526020018383808284376000920191909152505050908252506020016124346101608b018b6152e9565b8080601f0160208091040260200160405190810160405280939291908181526020018383808284376000920182905250938552505033602084015250604082015260600161248860a08b0160808c01614905565b6001600160a01b03908116909152915260a080840151600090815260036020818152604092839020865181546001600160801b039182166fffffffffffffffffffffffffffffffff1991821617835588840151600184015588860151805160028501805483880151861664010000000090810273ffffffffffffffffffffffffffffffffffffffff1992831663ffffffff95861617179092559289015197860180549890951697909316969096179092556060808a01518051600486018054838901519a84015193909401518916600160601b026fffffffff00000000000000000000000019938a166801000000000000000002939093166fffffffffffffffff0000000000000000199a8a1690950267ffffffffffffffff19909416919098161791909117969096161794909417909255608086015180516005840180549190971694169390931790945590830151600682015590830151805180519293919260078501926125fc928492910190613fc7565b5060208281015180516126159260018501920190613fc7565b50604082015160028201805473ffffffffffffffffffffffffffffffffffffffff199081166001600160a01b0393841617909155606080850151600385018054841691851691909117905560809094015160049093018054909116928216929092179091556007541690840152505088156128405760005b60ff81168a111561283e576126db84848d8d8560ff168181106126c057634e487b7160e01b600052603260045260246000fd5b90506020020160208101906126d59190614905565b88613451565b60208401819052818452906126f090886154f6565b6126fa91906154e2565b82604001818152505060405180608001604052808c8c8460ff1681811061273157634e487b7160e01b600052603260045260246000fd5b90506020020160208101906127469190614905565b6001600160a01b03168152602001836040015181526020016000151581526020018360a00151815250600260008460a00151815260200190815260200160002060008d8d8560ff168181106127ab57634e487b7160e01b600052603260045260246000fd5b90506020020160208101906127c09190614905565b6001600160a01b03908116825260208083019390935260409182016000208451815473ffffffffffffffffffffffffffffffffffffffff1916921691909117815591830151600183015582015160028201805460ff191691151591909117905560609091015160039091015580612836816155fd565b91505061268d565b505b8615612afe5760005b60ff8116881115612afc5760608201516001600160a01b031663e32616e6816383c6d1998c8c60ff871681811061289057634e487b7160e01b600052603260045260246000fd5b90506020020160208101906128a59190614905565b6040516001600160e01b031960e084901b1681526001600160a01b03909116600482015260240160206040518083038186803b1580156128e457600080fd5b505afa1580156128f8573d6000803e3d6000fd5b505050506040513d601f19601f8201168201806040525081019061291c919061508e565b6040518263ffffffff1660e01b815260040161293a91815260200190565b60006040518083038186803b15801561295257600080fd5b505afa158015612966573d6000803e3d6000fd5b505050506040513d6000823e601f3d908101601f1916820160405261298e919081019061493d565b50505081895250602088018290529094506129ae935091508990506154f6565b6129b891906154e2565b82604001818152505060405180608001604052808a8a8460ff168181106129ef57634e487b7160e01b600052603260045260246000fd5b9050602002016020810190612a049190614905565b6001600160a01b03168152602001836040015181526020016000151581526020018360a00151815250600260008460a00151815260200190815260200160002060008d8d8560ff16818110612a6957634e487b7160e01b600052603260045260246000fd5b9050602002016020810190612a7e9190614905565b6001600160a01b03908116825260208083019390935260409182016000208451815473ffffffffffffffffffffffffffffffffffffffff1916921691909117815591830151600183015582015160028201805460ff191691151591909117905560609091015160039091015580612af4816155fd565b915050612849565b505b7f03c5468d62e6de3eb3a7a28e190d6dcc0fd70b24066cf8e8c5bd5e47dd8a6fc08a8a8a8a898660a00151604051612b3b969594939291906151d6565b60405180910390a150505050505050505050565b6060810151604081015190516000918291612b6a91906154c3565b63ffffffff16905080421015612b805750919050565b6000612b8c8242615541565b90506000612bc185604001516000015163ffffffff1686606001516060015163ffffffff1684612bbc91906154e2565b613fb1565b905084606001516020015163ffffffff16856060015160600151866040015160000151612bee9190615515565b606087015160408101519051612c0491906154c3565b612c0e91906154c3565b63ffffffff16118015612c2e575084606001516020015163ffffffff1642115b15612c41575060408401515163ffffffff165b808560400151604001516001600160801b0316612c5e91906154f6565b8560400151602001516001600160801b0316612c7a91906154ab565b95945050505050565b6006546000906001600160a01b03168215612dcc576040517fda5139ca0000000000000000000000000000000000000000000000000000000081526001600160a01b038881166004830152602482018690526000604483015282169063da5139ca9060640160206040518083038186803b158015612d0057600080fd5b505afa158015612d14573d6000803e3d6000fd5b505050506040513d601f19601f82011682018060405250810190612d38919061508e565b6040517ff18d03cc0000000000000000000000000000000000000000000000000000000081526001600160a01b03898116600483015288811660248301528781166044830152606482018390529193509082169063f18d03cc90608401600060405180830381600087803b158015612daf57600080fd5b505af1158015612dc3573d6000803e3d6000fd5b50505050612e87565b6001600160a01b03808216906302b9446c90891615612dec576000612dee565b855b6040516001600160e01b031960e084901b1681526001600160a01b03808c166004830152808b16602483015289166044820152606481018890526000608482015260a40160408051808303818588803b158015612e4a57600080fd5b505af1158015612e5e573d6000803e3d6000fd5b50505050506040513d601f19601f82011682018060405250810190612e8391906150d5565b9250505b5095945050505050565b6040805160c08101909152600081526020810185600360200201518152602001604051806060016040528087600060098110612edd57634e487b7160e01b600052603260045260246000fd5b602002015163ffffffff16815260200187600160098110612f0e57634e487b7160e01b600052603260045260246000fd5b60200201516001600160801b0316815260200187600260098110612f4257634e487b7160e01b600052603260045260246000fd5b60200201516001600160801b03168152508152602001604051806080016040528087600460098110612f8457634e487b7160e01b600052603260045260246000fd5b602002015163ffffffff16815260200187600560098110612fb557634e487b7160e01b600052603260045260246000fd5b602002015163ffffffff16815260200187600460098110612fe657634e487b7160e01b600052603260045260246000fd5b602002015160c0890151612ffa9190615541565b63ffffffff168152602001876007602002015163ffffffff1681525081526020016040518060400160405280861515600115151461303957600061303f565b60608901515b6001600160a01b03168152602001876008602002015181525081526020016040518060a001604052808581526020018481526020018860006004811061309557634e487b7160e01b600052603260045260246000fd5b60200201516001600160a01b03168152602001886001600481106130c957634e487b7160e01b600052603260045260246000fd5b60200201516001600160a01b03168152602001886002600481106130fd57634e487b7160e01b600052603260045260246000fd5b602090810291909101516001600160a01b03908116909252919092526000898152808252604090819020845181546001600160801b039182166fffffffffffffffffffffffffffffffff1991821617835586850151600184015586840151805160028501805483890151861664010000000090810273ffffffffffffffffffffffffffffffffffffffff1992831663ffffffff958616171790925592870151600387018054919096169416939093179093556060808901518051600487018054838b01519984015193909401518716600160601b026fffffffff000000000000000000000000199388166801000000000000000002939093166fffffffffffffffff00000000000000001999881690960267ffffffffffffffff1990941691909616179190911795909516919091179390931790556080850151805160058301805491909616931692909217909355810151600683015560a083015180518051919260078501926132719284920190613fc7565b50602082810151805161328a9260018501920190613fc7565b50604082015160028201805473ffffffffffffffffffffffffffffffffffffffff199081166001600160a01b0393841617909155606084015160038401805483169184169190911790556080909301516004909201805490931691161790555050505050505050565b6006546001600160a01b03168115613395576040517ff18d03cc0000000000000000000000000000000000000000000000000000000081526001600160a01b038781166004830152868116602483015285811660448301526064820185905282169063f18d03cc90608401600060405180830381600087803b15801561337857600080fd5b505af115801561338c573d6000803e3d6000fd5b50505050613449565b6040517f97da6d300000000000000000000000000000000000000000000000000000000081526001600160a01b0387811660048301528681166024830152858116604483015260006064830152608482018590528216906397da6d309060a4016040805180830381600087803b15801561340e57600080fd5b505af1158015613422573d6000803e3d6000fd5b505050506040513d601f19601f8201168201806040525081019061344691906150d5565b50505b505050505050565b60008061345c61404b565b60ff841661386f576040516317ba7d8560e01b81527f7a8526bca00f0726b2fab8c3bfd5b00bfa84d07f111e48263b13de605eefcdda60048201526001600160a01b038816906317ba7d859060240160206040518083038186803b1580156134c357600080fd5b505afa1580156134d7573d6000803e3d6000fd5b505050506040513d601f19601f820116820180604052508101906134fb9190614921565b6040517fbf4999940000000000000000000000000000000000000000000000000000000081526001600160a01b03898116600483015260248201899052919091169063bf4999949060440160006040518083038186803b15801561355e57600080fd5b505afa158015613572573d6000803e3d6000fd5b505050506040513d6000823e601f3d908101601f1916820160405261359a9190810190614a42565b60608a01525050505060a0850191909152506080830152506040516317ba7d8560e01b81527feae11da953333a83b6467e2193334fb302549e1a42ad5797082aea1ab6be912060048201526000906001600160a01b038916906317ba7d859060240160206040518083038186803b15801561361457600080fd5b505afa158015613628573d6000803e3d6000fd5b505050506040513d601f19601f8201168201806040525081019061364c9190614921565b6040517e75e7eb0000000000000000000000000000000000000000000000000000000081526001600160a01b038a81166004830152602482018a9052888116604483015291909116906275e7eb90606401604080518083038186803b1580156136b457600080fd5b505afa1580156136c8573d6000803e3d6000fd5b505050506040513d601f19601f820116820180604052508101906136ec9190614be2565b604051632c9f4b5b60e11b81527fb12a3847d47fefceb164b75823af125f9aa82b76938df0ddf08c04cd314ba37c60048201529092508291506001600160a01b038a169063593e96b69060240160206040518083038186803b15801561375157600080fd5b505afa158015613765573d6000803e3d6000fd5b505050506040513d601f19601f820116820180604052508101906137899190614921565b6001600160a01b0316639e3f2d908989600187606001516137aa9190615541565b6040516001600160e01b031960e086901b16815260048101939093526001600160a01b039091166024830152604482015260640160206040518083038186803b1580156137f657600080fd5b505afa15801561380a573d6000803e3d6000fd5b505050506040513d601f19601f8201168201806040525081019061382e919061508e565b6138389190615541565b80835260808084015160608101805160408701529101519051909161385d91906154f6565b61386791906154e2565b825250613f9c565b8360ff1660011415613c01576040516317ba7d8560e01b81527f0fd8cce4ef00a7a8c0c5f91194bc80f122deefe664dd2a2384687da62ab117d160048201526001600160a01b038816906317ba7d859060240160206040518083038186803b1580156138da57600080fd5b505afa1580156138ee573d6000803e3d6000fd5b505050506040513d601f19601f820116820180604052508101906139129190614921565b6040517f5cb752760000000000000000000000000000000000000000000000000000000081526001600160a01b038981166004830152602482018990529190911690635cb752769060440160006040518083038186803b15801561397557600080fd5b505afa158015613989573d6000803e3d6000fd5b505050506040513d6000823e601f3d908101601f191682016040526139b19190810190614c0f565b60608c01525060c08a01525050505060408086019390935250506001600160a01b0391821660e084015251632c9f4b5b60e11b81527f161fca6912f107b0f13c9c7275de7391b32d2ea1c52ffba65a3c961880a0c60f60048201529088169063593e96b69060240160206040518083038186803b158015613a3157600080fd5b505afa158015613a45573d6000803e3d6000fd5b505050506040513d601f19601f82011682018060405250810190613a699190614921565b6001600160a01b0316610120820181905260e0820151606083015163faaf38b39161decd91613a9a90600190615541565b6040516001600160e01b031960e086901b1681526001600160a01b039384166004820152929091166024830152604482015260640160206040518083038186803b158015613ae757600080fd5b505afa158015613afb573d6000803e3d6000fd5b505050506040513d601f19601f82011682018060405250810190613b1f919061504f565b6001600160801b031681604001518261012001516001600160a01b031663faaf38b3888560e0015160018760600151613b589190615541565b6040516001600160e01b031960e086901b1681526001600160a01b039384166004820152929091166024830152604482015260640160206040518083038186803b158015613ba557600080fd5b505afa158015613bb9573d6000803e3d6000fd5b505050506040513d601f19601f82011682018060405250810190613bdd919061504f565b6001600160801b0316613bf091906154f6565b613bfa91906154e2565b8152613f9c565b8360ff1660021415613f9c576040516317ba7d8560e01b81527f72894213a5c7f56b36b2947fa6ea18963d6bb1a68746b46d7f552cca76e1a7a860048201526001600160a01b038816906317ba7d859060240160206040518083038186803b158015613c6c57600080fd5b505afa158015613c80573d6000803e3d6000fd5b505050506040513d601f19601f82011682018060405250810190613ca49190614921565b6040517f5cb752760000000000000000000000000000000000000000000000000000000081526001600160a01b038981166004830152602482018990529190911690635cb752769060440160006040518083038186803b158015613d0757600080fd5b505afa158015613d1b573d6000803e3d6000fd5b505050506040513d6000823e601f3d908101601f19168201604052613d439190810190614f6b565b506060870152505061016084015261018083015261014082018190526020015160408083019190915251632c9f4b5b60e11b81527f3909e87234f428ccb8748126e2c93f66a62f92a70d315fa5803dec6362be07ab60048201526001600160a01b0388169063593e96b69060240160206040518083038186803b158015613dc957600080fd5b505afa158015613ddd573d6000803e3d6000fd5b505050506040513d601f19601f82011682018060405250810190613e019190614921565b6001600160a01b03166101a0820181905261014082015151606083015163faaf38b39161decd91613e3490600190615541565b6040516001600160e01b031960e086901b1681526001600160a01b039384166004820152929091166024830152604482015260640160206040518083038186803b158015613e8157600080fd5b505afa158015613e95573d6000803e3d6000fd5b505050506040513d601f19601f82011682018060405250810190613eb9919061504f565b6001600160801b03168160400151826101a001516001600160a01b031663faaf38b3888561014001516000015160018760600151613ef79190615541565b6040516001600160e01b031960e086901b1681526001600160a01b039384166004820152929091166024830152604482015260640160206040518083038186803b158015613f4457600080fd5b505afa158015613f58573d6000803e3d6000fd5b505050506040513d601f19601f82011682018060405250810190613f7c919061504f565b6001600160801b0316613f8f91906154f6565b613f9991906154e2565b81525b80516040909101519097909650945050505050565b6000818310613fc057816105e3565b5090919050565b828054613fd3906155ad565b90600052602060002090601f016020900481019282613ff5576000855561403b565b82601f1061400e57805160ff191683800117855561403b565b8280016001018555821561403b579182015b8281111561403b578251825591602001919060010190614020565b506140479291506142a9565b5090565b60405180610200016040528060008152602001600081526020016000815260200160008152602001614104604051806101a0016040528060006001600160a01b031681526020016000815260200160008152602001600081526020016000815260200160001515815260200160006001600160a01b031681526020016000815260200160008152602001600081526020016000815260200160006001600160a01b0316815260200160006001600160a01b031681525090565b8152602001614163604051806101200160405280600081526020016000815260200160008152602001600081526020016000815260200160001515815260200160006001600160a01b0316815260200160608152602001606081525090565b81526040805160c08101825260008082526020828101829052928201819052606082018190526080820181905260a0820152910190815260200160006001600160a01b031681526020016000815260200160006001600160a01b03168152602001614201604051806080016040528060006001600160a01b03168152602001600081526020016000815260200160006001600160a01b031681525090565b8152602001614260604051806101200160405280600081526020016000815260200160008152602001600081526020016000815260200160001515815260200160006001600160a01b0316815260200160608152602001606081525090565b81526040805160a0810182526000808252602082810182905292820181905260608201819052608082015291019081526000602082018190526040820181905260609091015290565b5b8082111561404757600081556001016142aa565b80356142c981615673565b919050565b80516142c981615673565b60008083601f8401126142ea578182fd5b50813567ffffffffffffffff811115614301578182fd5b6020830191508360208260051b850101111561431c57600080fd5b9250929050565b80356142c98161568b565b80516142c98161568b565b8051600281106142c957600080fd5b8051600581106142c957600080fd5b600082601f830112614367578081fd5b813561437a61437582615458565b615427565b81815284602083860101111561438e578283fd5b816020850160208301379081016020019190915292915050565b600082601f8301126143b8578081fd5b81516143c661437582615458565b8181528460208386010111156143da578283fd5b6143eb82602083016020870161557d565b949350505050565b60006101808284031215614405578081fd5b50919050565b60006060828403121561441c578081fd5b6040516060810167ffffffffffffffff82821081831117156144405761444061565d565b816040528293508451915061445482615673565b9082526020840151908082111561446a57600080fd5b614476868387016143a8565b6020840152604085015191508082111561448f57600080fd5b5061449c858286016143a8565b6040830152505092915050565b600060a082840312156144ba578081fd5b6144c261534c565b905081516144cf8161568b565b815260208201516144df81615673565b806020830152506040820151604082015260608201516060820152608082015161450881615673565b608082015292915050565b60006102008284031215614525578081fd5b604051610100810181811067ffffffffffffffff821117156145495761454961565d565b60405290508061455883614339565b81526020830151602082015260408301516040820152606083015160608201526080830151608082015261458e60a0840161432e565b60a08201526145a08460c085016145bf565b60c08201526145b3846101608501614632565b60e08201525092915050565b600060a082840312156145d0578081fd5b6145d861534c565b905081516145e581615699565b8152602082015163ffffffff811681146145fe57600080fd5b6020820152604082015161461181615673565b80604083015250606082015160608201526080820151608082015292915050565b600060a08284031215614643578081fd5b61464b61534c565b905081516146588161568b565b815260208201516145fe81615699565b600060c08284031215614679578081fd5b60405160c0810181811067ffffffffffffffff8211171561469c5761469c61565d565b806040525080915082516146af8161568b565b815260208301516146bf81615673565b60208201526040838101519082015260608301516146dc81615673565b606082015260808301516146ef8161568b565b608082015260a083015161470281615673565b60a0919091015292915050565b600060808284031215614720578081fd5b614728615375565b90508151815260208201516020820152604082015160408201526060820151606082015292915050565b600060408284031215614763578081fd5b6040516040810181811067ffffffffffffffff821117156147865761478661565d565b604052825181526020928301519281019290925250919050565b600061012082840312156147b2578081fd5b6147ba615398565b905081518152602082015160208201526040820151604082015260608201516060820152608082015160808201526147f460a0830161432e565b60a082015261480560c083016142ce565b60c082015260e082015167ffffffffffffffff8082111561482557600080fd5b614831858386016143a8565b60e08401526101009150818401518181111561484c57600080fd5b614858868287016143a8565b8385015250505092915050565b600060e08284031215614876578081fd5b61487e6153bc565b9050815167ffffffffffffffff8082111561489857600080fd5b6148a4858386016143a8565b835260208401519150808211156148ba57600080fd5b506148c7848285016143a8565b60208301525060408201516040820152606082015160608201526080820151608082015260a082015160a082015260c082015160c082015292915050565b600060208284031215614916578081fd5b81356105e381615673565b600060208284031215614932578081fd5b81516105e381615673565b6000806000806000806000806000806101408b8d03121561495c578586fd5b6149658b6142ce565b995060208b0151985060408b0151975060608b015167ffffffffffffffff8082111561498f578788fd5b61499b8e838f016143a8565b985060808d0151975060a08d0151965060c08d01519150808211156149be578586fd5b6149ca8e838f0161440b565b955060e08d01519150808211156149df578485fd5b6149eb8e838f016143a8565b94506101008d0151915080821115614a01578384fd5b614a0d8e838f016143a8565b93506101208d0151915080821115614a23578283fd5b50614a308d828e016143a8565b9150509295989b9194979a5092959850565b6000806000806000806000806000898b036104a0811215614a61578384fd5b8a51614a6c81615673565b99506101a0601f198201811315614a81578485fd5b614a896153df565b9150614a9760208d016142ce565b825260408c0151602083015260608c0151604083015260808c0151606083015260a08c01516080830152614acd60c08d0161432e565b60a0830152614ade60e08d016142ce565b60c0830152610100808d015160e0840152610120808e0151828501526101409150818e01518185015250610160808e0151828501526101809150614b23828f016142ce565b90840152614b328d83016142ce565b90830152506101c08b015190985067ffffffffffffffff811115614b54578384fd5b614b608c828d016147a0565b975050614b718b6101e08c01614513565b9550614b818b6103e08c01614752565b94506104208a015193506104408a01519250614ba06104608b01614348565b91506104808a015190509295985092959850929598565b60008060408385031215614bc9578182fd5b8235614bd481615673565b946020939093013593505050565b60008060408385031215614bf4578182fd5b8251614bff81615673565b6020939093015192949293505050565b60008060008060008060008060008060006102608c8e031215614c30578485fd5b8b51614c3b81615673565b809b505060208c0151995060408c0151985060608c0151975060808c0151614c6281615673565b9650614c7060a08d016142ce565b9550614c7e60c08d01614348565b945060e08c015167ffffffffffffffff811115614c99578182fd5b614ca58e828f01614865565b945050614cb68d6101008e01614668565b9250614cc68d6101c08e0161470f565b91506102408c015190509295989b509295989b9093969950565b600080600080600080600080600060e08a8c031215614cfd578283fd5b893567ffffffffffffffff80821115614d14578485fd5b614d208d838e016142d9565b909b50995060208c0135915080821115614d38578485fd5b614d448d838e016142d9565b909950975060408c0135915080821115614d5c578485fd5b50614d698c828d016143f3565b95505060608a0135935060808a013560ff81168114614d86578384fd5b9250614d9460a08b016142be565b915060c08a013590509295985092959850929598565b600080600080600060608688031215614dc1578283fd5b853567ffffffffffffffff80821115614dd8578485fd5b614de489838a016142d9565b90975095506020880135915080821115614dfc578485fd5b614e0889838a016142d9565b90955093506040880135915080821115614e20578283fd5b50614e2d888289016143f3565b9150509295509295909350565b600060208284031215614e4b578081fd5b81356105e38161568b565b600060208284031215614e67578081fd5b813567ffffffffffffffff80821115614e7e578283fd5b908301906101808286031215614e92578283fd5b614e9a615403565b82358152602083013560208201526040830135604082015260608301356060820152614ec8608084016142be565b6080820152614ed960a084016142be565b60a082015260c083013560c082015260e083013560e0820152610100614f00818501614323565b90820152610120614f128482016142be565b908201526101408381013583811115614f29578586fd5b614f3588828701614357565b8284015250506101608084013583811115614f4e578586fd5b614f5a88828701614357565b918301919091525095945050505050565b60008060008060008060008789036101e0811215614f87578182fd5b6080811215614f94578182fd5b50614f9d615375565b8851614fa881615673565b8082525060208901516020820152604089015160408201526060890151614fce81615673565b60608201529650614fe28960808a016144a9565b955061012088015167ffffffffffffffff811115614ffe578182fd5b61500a8a828b016147a0565b95505061501b896101408a01614752565b935061502a61018089016142ce565b92506101a088015191506150416101c08901614348565b905092959891949750929550565b600060208284031215615060578081fd5b81516001600160801b03811681146105e3578182fd5b600060208284031215615087578081fd5b5035919050565b60006020828403121561509f578081fd5b5051919050565b600080604083850312156150b8578182fd5b8235915060208301356150ca81615673565b809150509250929050565b600080604083850312156150e7578182fd5b505080516020909101519092909150565b81835260006020808501945082825b8581101561513557813561511a81615673565b6001600160a01b031687529582019590820190600101615107565b509495945050505050565b6000815180845261515881602086016020860161557d565b601f01601f19169290920160200192915050565b6000815160a0845261518160a0850182615140565b90506020830151848203602086015261519a8282615140565b91505060408301516001600160a01b03808216604087015280606086015116606087015280608086015116608087015250508091505092915050565b6080815260006151ea60808301888a6150f8565b82810360208401526151fd8187896150f8565b6040840195909552505060600152949350505050565b6060815260006152276060830186886150f8565b6020830194909452506040015292915050565b60006101806001600160801b03808a16845288602085015263ffffffff8089511660408601528160208a01511660608601528160408a01511660808601528088511660a08601528060208901511660c08601528060408901511660e08601528060608901511661010086015250506152c961012084018680516001600160a01b03168252602090810151910152565b806101608401526152dc8184018561516c565b9998505050505050505050565b60008083357fffffffffffffffffffffffffffffffffffffffffffffffffffffffffffffffe184360301811261531d578283fd5b83018035915067ffffffffffffffff821115615337578283fd5b60200191503681900382131561431c57600080fd5b60405160a0810167ffffffffffffffff8111828210171561536f5761536f61565d565b60405290565b6040516080810167ffffffffffffffff8111828210171561536f5761536f61565d565b604051610120810167ffffffffffffffff8111828210171561536f5761536f61565d565b60405160e0810167ffffffffffffffff8111828210171561536f5761536f61565d565b6040516101a0810167ffffffffffffffff8111828210171561536f5761536f61565d565b604051610180810167ffffffffffffffff8111828210171561536f5761536f61565d565b604051601f8201601f1916810167ffffffffffffffff811182821017156154505761545061565d565b604052919050565b600067ffffffffffffffff8211156154725761547261565d565b50601f01601f191660200190565b60006001600160801b038083168185168083038211156154a2576154a2615631565b01949350505050565b600082198211156154be576154be615631565b500190565b600063ffffffff8083168185168083038211156154a2576154a2615631565b6000826154f1576154f1615647565b500490565b600081600019048311821515161561551057615510615631565b500290565b600063ffffffff8083168185168183048111821515161561553857615538615631565b02949350505050565b60008282101561555357615553615631565b500390565b600063ffffffff8381169083168181101561557557615575615631565b039392505050565b60005b83811015615598578181015183820152602001615580565b838111156155a7576000848401525b50505050565b600181811c908216806155c157607f821691505b6020821081141561440557634e487b7160e01b600052602260045260246000fd5b60006000198214156155f6576155f6615631565b5060010190565b600060ff821660ff81141561561457615614615631565b60010192915050565b60008261562c5761562c615647565b500690565b634e487b7160e01b600052601160045260246000fd5b634e487b7160e01b600052601260045260246000fd5b634e487b7160e01b600052604160045260246000fd5b6001600160a01b038116811461568857600080fd5b50565b801515811461568857600080fd5b6004811061568857600080fdfea26469706673582212200acdce10051e6776ab2ebd955afa3d4e65f8253a0f08868260fa18b51fd6f07664736f6c63430008040033",
  "linkReferences": {},
  "deployedLinkReferences": {}
}