{
  "_format": "hh-sol-artifact-1",
  "contractName": "ManualVesting",
  "sourceName": "contracts/ManualVesting.sol",
  "abi": [
    {
      "inputs": [
        {
          "internalType": "address",
          "name": "_bentoBoxAddr",
          "type": "address"
        },
        {
          "internalType": "address",
          "name": "_receiptNFTAddr",
          "type": "address"
        }
      ],
      "stateMutability": "nonpayable",
      "type": "constructor"
    },
    {
      "inputs": [],
      "name": "InValidBatchVesting2Param",
      "type": "error"
    },
    {
      "inputs": [],
      "name": "InValidVestingTimeParam",
      "type": "error"
    },
    {
      "inputs": [],
      "name": "NotOwner",
      "type": "error"
    },
    {
      "inputs": [],
      "name": "NotVestReceiver",
      "type": "error"
    },
    {
      "anonymous": false,
      "inputs": [
        {
          "indexed": false,
          "internalType": "address[]",
          "name": "investors",
          "type": "address[]"
        },
        {
          "indexed": false,
          "internalType": "address[]",
          "name": "holders",
          "type": "address[]"
        },
        {
          "indexed": false,
          "internalType": "uint256",
          "name": "totalAmount",
          "type": "uint256"
        },
        {
          "indexed": false,
          "internalType": "uint256",
          "name": "startVestId",
          "type": "uint256"
        },
        {
          "indexed": false,
          "internalType": "uint256",
          "name": "endVestId",
          "type": "uint256"
        }
      ],
      "name": "BatchVesting1",
      "type": "event"
    },
    {
      "anonymous": false,
      "inputs": [
        {
          "indexed": false,
          "internalType": "address[]",
          "name": "receivers",
          "type": "address[]"
        },
        {
          "indexed": false,
          "internalType": "uint256",
          "name": "totalAmount",
          "type": "uint256"
        },
        {
          "indexed": false,
          "internalType": "uint256",
          "name": "startVestId",
          "type": "uint256"
        },
        {
          "indexed": false,
          "internalType": "uint256",
          "name": "endVestId",
          "type": "uint256"
        }
      ],
      "name": "BatchVesting2",
      "type": "event"
    },
    {
      "anonymous": false,
      "inputs": [
        {
          "indexed": true,
          "internalType": "uint256",
          "name": "vestId",
          "type": "uint256"
        },
        {
          "indexed": true,
          "internalType": "uint256",
          "name": "ownerAmount",
          "type": "uint256"
        },
        {
          "indexed": true,
          "internalType": "uint256",
          "name": "recipientAmount",
          "type": "uint256"
        },
        {
          "indexed": false,
          "internalType": "address",
          "name": "token",
          "type": "address"
        },
        {
          "indexed": false,
          "internalType": "bool",
          "name": "toBentoBox",
          "type": "bool"
        }
      ],
      "name": "CancelVesting",
      "type": "event"
    },
    {
      "anonymous": false,
      "inputs": [
        {
          "indexed": true,
          "internalType": "uint256",
          "name": "vestId",
          "type": "uint256"
        },
        {
          "indexed": false,
          "internalType": "address",
          "name": "token",
          "type": "address"
        },
        {
          "indexed": true,
          "internalType": "address",
          "name": "recipient",
          "type": "address"
        },
        {
          "indexed": false,
          "internalType": "uint32",
          "name": "start",
          "type": "uint32"
        },
        {
          "indexed": false,
          "internalType": "uint32",
          "name": "cliffDuration",
          "type": "uint32"
        },
        {
          "indexed": false,
          "internalType": "uint32",
          "name": "stepDuration",
          "type": "uint32"
        },
        {
          "indexed": false,
          "internalType": "uint32",
          "name": "steps",
          "type": "uint32"
        },
        {
          "indexed": false,
          "internalType": "uint128",
          "name": "cliffShares",
          "type": "uint128"
        },
        {
          "indexed": false,
          "internalType": "uint128",
          "name": "stepShares",
          "type": "uint128"
        }
      ],
      "name": "CreateVesting",
      "type": "event"
    },
    {
      "anonymous": false,
      "inputs": [
        {
          "indexed": true,
          "internalType": "uint256",
          "name": "vestId",
          "type": "uint256"
        },
        {
          "indexed": true,
          "internalType": "address",
          "name": "newOwner",
          "type": "address"
        }
      ],
      "name": "LogUpdateOwner",
      "type": "event"
    },
    {
      "anonymous": false,
      "inputs": [
        {
          "indexed": true,
          "internalType": "uint256",
          "name": "vestId",
          "type": "uint256"
        },
        {
          "indexed": true,
          "internalType": "address",
          "name": "token",
          "type": "address"
        },
        {
          "indexed": true,
          "internalType": "uint256",
          "name": "amount",
          "type": "uint256"
        },
        {
          "indexed": false,
          "internalType": "bool",
          "name": "toBentoBox",
          "type": "bool"
        }
      ],
      "name": "Withdraw",
      "type": "event"
    },
    {
      "inputs": [],
      "name": "PERCENTAGE_PRECISION",
      "outputs": [
        {
          "internalType": "uint256",
          "name": "",
          "type": "uint256"
        }
      ],
      "stateMutability": "view",
      "type": "function"
    },
    {
      "inputs": [
        {
          "internalType": "address[]",
          "name": "investors",
          "type": "address[]"
        },
        {
          "internalType": "address[]",
          "name": "holders",
          "type": "address[]"
        },
        {
          "components": [
            {
              "internalType": "uint256",
              "name": "startTime",
              "type": "uint256"
            },
            {
              "internalType": "uint256",
              "name": "cliffEndTime",
              "type": "uint256"
            },
            {
              "internalType": "uint256",
              "name": "endTime",
              "type": "uint256"
            },
            {
              "internalType": "uint256",
              "name": "vestingInterval",
              "type": "uint256"
            },
            {
              "internalType": "address",
              "name": "paybackToken",
              "type": "address"
            },
            {
              "internalType": "address",
              "name": "recipientAddr",
              "type": "address"
            },
            {
              "internalType": "uint256",
              "name": "depositAmount",
              "type": "uint256"
            },
            {
              "internalType": "uint256",
              "name": "cliffVestingAmount",
              "type": "uint256"
            },
            {
              "internalType": "bool",
              "name": "nftEnable",
              "type": "bool"
            },
            {
              "internalType": "address",
              "name": "erc721",
              "type": "address"
            },
            {
              "internalType": "string",
              "name": "name",
              "type": "string"
            },
            {
              "internalType": "string",
              "name": "description",
              "type": "string"
            }
          ],
          "internalType": "struct ManualVesting.CreateVestingParams",
          "name": "params",
          "type": "tuple"
        },
        {
          "internalType": "uint256",
          "name": "total",
          "type": "uint256"
        },
        {
          "internalType": "uint8",
          "name": "mode",
          "type": "uint8"
        },
        {
          "internalType": "address",
          "name": "daoAddr",
          "type": "address"
        },
        {
          "internalType": "bytes32",
          "name": "proposalId",
          "type": "bytes32"
        }
      ],
      "name": "batchCreate",
      "outputs": [],
      "stateMutability": "nonpayable",
      "type": "function"
    },
    {
      "inputs": [
        {
          "internalType": "address[]",
          "name": "receivers",
          "type": "address[]"
        },
        {
          "internalType": "uint256[]",
          "name": "amounts",
          "type": "uint256[]"
        },
        {
          "components": [
            {
              "internalType": "uint256",
              "name": "startTime",
              "type": "uint256"
            },
            {
              "internalType": "uint256",
              "name": "cliffEndTime",
              "type": "uint256"
            },
            {
              "internalType": "uint256",
              "name": "endTime",
              "type": "uint256"
            },
            {
              "internalType": "uint256",
              "name": "vestingInterval",
              "type": "uint256"
            },
            {
              "internalType": "address",
              "name": "paybackToken",
              "type": "address"
            },
            {
              "internalType": "address",
              "name": "recipientAddr",
              "type": "address"
            },
            {
              "internalType": "uint256",
              "name": "depositAmount",
              "type": "uint256"
            },
            {
              "internalType": "uint256",
              "name": "cliffVestingAmount",
              "type": "uint256"
            },
            {
              "internalType": "bool",
              "name": "nftEnable",
              "type": "bool"
            },
            {
              "internalType": "address",
              "name": "erc721",
              "type": "address"
            },
            {
              "internalType": "string",
              "name": "name",
              "type": "string"
            },
            {
              "internalType": "string",
              "name": "description",
              "type": "string"
            }
          ],
          "internalType": "struct ManualVesting.CreateVestingParams",
          "name": "params",
          "type": "tuple"
        }
      ],
      "name": "batchCreate2",
      "outputs": [],
      "stateMutability": "nonpayable",
      "type": "function"
    },
    {
      "inputs": [
        {
          "components": [
            {
              "internalType": "uint256",
              "name": "startTime",
              "type": "uint256"
            },
            {
              "internalType": "uint256",
              "name": "cliffEndTime",
              "type": "uint256"
            },
            {
              "internalType": "uint256",
              "name": "endTime",
              "type": "uint256"
            },
            {
              "internalType": "uint256",
              "name": "vestingInterval",
              "type": "uint256"
            },
            {
              "internalType": "address",
              "name": "paybackToken",
              "type": "address"
            },
            {
              "internalType": "address",
              "name": "recipientAddr",
              "type": "address"
            },
            {
              "internalType": "uint256",
              "name": "depositAmount",
              "type": "uint256"
            },
            {
              "internalType": "uint256",
              "name": "cliffVestingAmount",
              "type": "uint256"
            },
            {
              "internalType": "bool",
              "name": "nftEnable",
              "type": "bool"
            },
            {
              "internalType": "address",
              "name": "erc721",
              "type": "address"
            },
            {
              "internalType": "string",
              "name": "name",
              "type": "string"
            },
            {
              "internalType": "string",
              "name": "description",
              "type": "string"
            }
          ],
          "internalType": "struct ManualVesting.CreateVestingParams",
          "name": "params",
          "type": "tuple"
        }
      ],
      "name": "createVesting",
      "outputs": [],
      "stateMutability": "payable",
      "type": "function"
    },
    {
      "inputs": [
        {
          "internalType": "address",
          "name": "token",
          "type": "address"
        },
        {
          "internalType": "uint256",
          "name": "tokenId",
          "type": "uint256"
        }
      ],
      "name": "getRemainingPercentage",
      "outputs": [
        {
          "internalType": "uint256",
          "name": "",
          "type": "uint256"
        },
        {
          "internalType": "uint256",
          "name": "",
          "type": "uint256"
        },
        {
          "internalType": "uint256",
          "name": "",
          "type": "uint256"
        }
      ],
      "stateMutability": "view",
      "type": "function"
    },
    {
      "inputs": [
        {
          "internalType": "address",
          "name": "token",
          "type": "address"
        },
        {
          "internalType": "uint256",
          "name": "tokenId",
          "type": "uint256"
        }
      ],
      "name": "getVestIdByTokenId",
      "outputs": [
        {
          "internalType": "uint256",
          "name": "",
          "type": "uint256"
        }
      ],
      "stateMutability": "view",
      "type": "function"
    },
    {
      "inputs": [
        {
          "internalType": "address",
          "name": "",
          "type": "address"
        },
        {
          "internalType": "uint256",
          "name": "",
          "type": "uint256"
        }
      ],
      "name": "tokenIdToVestId",
      "outputs": [
        {
          "internalType": "uint256",
          "name": "",
          "type": "uint256"
        }
      ],
      "stateMutability": "view",
      "type": "function"
    },
    {
      "inputs": [
        {
          "internalType": "uint256",
          "name": "vestId",
          "type": "uint256"
        }
      ],
      "name": "vestBalance",
      "outputs": [
        {
          "internalType": "uint256",
          "name": "",
          "type": "uint256"
        }
      ],
      "stateMutability": "view",
      "type": "function"
    },
    {
      "inputs": [],
      "name": "vestIds",
      "outputs": [
        {
          "internalType": "uint256",
          "name": "",
          "type": "uint256"
        }
      ],
      "stateMutability": "view",
      "type": "function"
    },
    {
      "inputs": [
        {
          "internalType": "uint256",
          "name": "",
          "type": "uint256"
        }
      ],
      "name": "vests",
      "outputs": [
        {
          "internalType": "uint128",
          "name": "claimed",
          "type": "uint128"
        },
        {
          "internalType": "uint256",
          "name": "total",
          "type": "uint256"
        },
        {
          "components": [
            {
              "internalType": "uint32",
              "name": "steps",
              "type": "uint32"
            },
            {
              "internalType": "uint128",
              "name": "cliffShares",
              "type": "uint128"
            },
            {
              "internalType": "uint128",
              "name": "stepShares",
              "type": "uint128"
            }
          ],
          "internalType": "struct ManualVesting.StepInfo",
          "name": "stepInfo",
          "type": "tuple"
        },
        {
          "components": [
            {
              "internalType": "uint32",
              "name": "start",
              "type": "uint32"
            },
            {
              "internalType": "uint32",
              "name": "end",
              "type": "uint32"
            },
            {
              "internalType": "uint32",
              "name": "cliffDuration",
              "type": "uint32"
            },
            {
              "internalType": "uint32",
              "name": "stepDuration",
              "type": "uint32"
            }
          ],
          "internalType": "struct ManualVesting.TimeInfo",
          "name": "timeInfo",
          "type": "tuple"
        },
        {
          "components": [
            {
              "internalType": "address",
              "name": "nftToken",
              "type": "address"
            },
            {
              "internalType": "uint256",
              "name": "tokenId",
              "type": "uint256"
            }
          ],
          "internalType": "struct ManualVesting.VestNFTInfo",
          "name": "nftInfo",
          "type": "tuple"
        },
        {
          "components": [
            {
              "internalType": "string",
              "name": "name",
              "type": "string"
            },
            {
              "internalType": "string",
              "name": "description",
              "type": "string"
            },
            {
              "internalType": "address",
              "name": "owner",
              "type": "address"
            },
            {
              "internalType": "address",
              "name": "recipient",
              "type": "address"
            },
            {
              "internalType": "address",
              "name": "token",
              "type": "address"
            }
          ],
          "internalType": "struct ManualVesting.VestInfo",
          "name": "vestInfo",
          "type": "tuple"
        }
      ],
      "stateMutability": "view",
      "type": "function"
    },
    {
      "inputs": [
        {
          "internalType": "uint256",
          "name": "vestId",
          "type": "uint256"
        }
      ],
      "name": "withdraw",
      "outputs": [],
      "stateMutability": "nonpayable",
      "type": "function"
    }
  ],
  "bytecode": "0x60806040523480156200001157600080fd5b506040516200456538038062004565833981016040819052620000349162000088565b6001600255600380546001600160a01b039384166001600160a01b03199182161790915560048054929093169116179055620000bf565b80516001600160a01b03811681146200008357600080fd5b919050565b600080604083850312156200009b578182fd5b620000a6836200006b565b9150620000b6602084016200006b565b90509250929050565b61449680620000cf6000396000f3fe6080604052600436106100bc5760003560e01c80633b39356a11610074578063cbcf03051161004e578063cbcf030514610234578063ceba7c6d14610247578063e256888f1461026757600080fd5b80633b39356a146101a757806351def556146101c75780637a4334e2146101f957600080fd5b80632c29e196116100a55780632c29e1961461010a5780632e1a7d4d1461014d5780633427dd671461016f57600080fd5b806319f77171146100c15780632bcea736146100f4575b600080fd5b3480156100cd57600080fd5b506100e16100dc366004613e70565b610283565b6040519081526020015b60405180910390f35b34801561010057600080fd5b506100e160025481565b34801561011657600080fd5b506100e16101253660046139b1565b6001600160a01b03919091166000908152600160209081526040808320938352929052205490565b34801561015957600080fd5b5061016d610168366004613e70565b6104f5565b005b34801561017b57600080fd5b506100e161018a3660046139b1565b600160209081526000928352604080842090915290825290205481565b3480156101b357600080fd5b5061016d6101c2366004613ba4565b610956565b3480156101d357600080fd5b506101e76101e2366004613e70565b610c84565b6040516100eb96959493929190614019565b34801561020557600080fd5b506102196102143660046139b1565b610eb3565b604080519384526020840192909252908201526060016100eb565b61016d610242366004613c50565b610f6f565b34801561025357600080fd5b5061016d610262366004613ada565b61144d565b34801561027357600080fd5b506100e1670de0b6b3a764000081565b600081815260208181526040808320815160c08101835281546001600160801b039081168252600183015482860152835160608082018652600285015463ffffffff8082168452640100000000918290048516848a015260038701549094168388015284870192909252855160808082018852600487015480861683529384048516828a01526801000000000000000084048516828901526c01000000000000000000000000909304909316838201528301919091528351808501855260058401546001600160a01b03168152600684015495810195909552810193909352815160a081810190935260078201805486959485019291908290829061038790614367565b80601f01602080910402602001604051908101604052809291908181526020018280546103b390614367565b80156104005780601f106103d557610100808354040283529160200191610400565b820191906000526020600020905b8154815290600101906020018083116103e357829003601f168201915b5050505050815260200160018201805461041990614367565b80601f016020809104026020016040519081016040528092919081815260200182805461044590614367565b80156104925780601f1061046757610100808354040283529160200191610492565b820191906000526020600020905b81548152906001019060200180831161047557829003601f168201915b505050918352505060028201546001600160a01b03908116602083015260038301548116604083015260049092015490911660609091015290525080519091506001600160801b03166104e4826118e6565b6104ee9190614320565b9392505050565b6000818152602081905260409020600a81015460058201546001600160a01b0391821691161561060157600582015460068301546040517f6352211e000000000000000000000000000000000000000000000000000000008152600481019190915233916001600160a01b031690636352211e9060240160206040518083038186803b15801561058457600080fd5b505afa158015610598573d6000803e3d6000fd5b505050506040513d601f19601f820116820180604052508101906105bc919061371b565b6001600160a01b0316146105fc576040517fe1c6117100000000000000000000000000000000000000000000000000000000815260040160405180910390fd5b610643565b6001600160a01b0381163314610643576040517fe1c6117100000000000000000000000000000000000000000000000000000000815260040160405180910390fd5b81546040805160c0810182526001600160801b039283168082526001860154602080840191909152835160608082018652600289015463ffffffff80821684526401000000009182900489168486015260038b0154909816838801528587019290925285516080808201885260048b0154808a1683529384048916828601526801000000000000000084048916828901526c01000000000000000000000000909304909716878201528401959095528351808501855260058801546001600160a01b0316815260068801549181019190915293820193909352815160a08181019093526007860180546000959461089694938993918501929091908290829061074b90614367565b80601f016020809104026020016040519081016040528092919081815260200182805461077790614367565b80156107c45780601f10610799576101008083540402835291602001916107c4565b820191906000526020600020905b8154815290600101906020018083116107a757829003601f168201915b505050505081526020016001820180546107dd90614367565b80601f016020809104026020016040519081016040528092919081815260200182805461080990614367565b80156108565780601f1061082b57610100808354040283529160200191610856565b820191906000526020600020905b81548152906001019060200180831161083957829003601f168201915b505050918352505060028201546001600160a01b0390811660208301526003830154811660408301526004909201549091166060909101529052506118e6565b6108a09190614320565b9050806108ad5750505050565b8254819084906000906108ca9084906001600160801b031661425f565b82546001600160801b039182166101009390930a928302919092021990911617905550600b830154610909906001600160a01b03163084846000611a1a565b600b8301546040516000815282916001600160a01b03169086907fff942d249898505febb2a9a00118e27567c084b9497d0aa3ba5e332c235b4f389060200160405180910390a450505050565b6109916040518060a0016040528060008152602001600081526020016000815260200160006001600160a01b03168152602001600081525090565b60025460808201528483146109d2576040517fba1df96900000000000000000000000000000000000000000000000000000000815260040160405180910390fd5b813515806109e257506020820135155b806109ef57506040820135155b806109fc57506060820135155b15610a33576040517fba1df96900000000000000000000000000000000000000000000000000000000815260040160405180910390fd5b8415610c275760005b60ff8116861115610c255784848260ff16818110610a6a57634e487b7160e01b600052603260045260246000fd5b90506020020135826040018181525050816040015182602001818151610a90919061428a565b91508181525050610c1360405180610180016040528085600001358152602001856020013581526020018560400135815260200185606001358152602001856080016020810190610ae191906136ff565b6001600160a01b0316815260200189898560ff16818110610b1257634e487b7160e01b600052603260045260246000fd5b9050602002016020810190610b2791906136ff565b6001600160a01b03168152604080860151602083015260e087013590820152606001610b5b61012087016101008801613c34565b15158152602001610b74610140870161012088016136ff565b6001600160a01b03168152602001610b906101408701876140c8565b8080601f016020809104026020016040519081016040528093929190818152602001838380828437600092019190915250505090825250602001610bd86101608701876140c8565b8080601f0160208091040260200160405190810160405280939291908181526020018383808284376000920191909152505050915250610f6f565b80610c1d816143b7565b915050610a3c565b505b7f50b61845d4815851b5267ef0d803e4981abe42d947ebea347020bd926e7b9edb8686836020015184608001516001600254610c639190614320565b604051610c74959493929190613fe8565b60405180910390a1505050505050565b6000602081815291815260409081902080546001820154835160608082018652600285015463ffffffff80821684526001600160801b03640100000000928390048116858b015260038801548116858a01528851608081018a52600489015480841682529384048316818c01526801000000000000000084048316818b01526c01000000000000000000000000909304909116928201929092528651808801885260058701546001600160a01b03168152600687015498810198909852865160a08101909752600786018054929095169793969295909490929182908290610d6b90614367565b80601f0160208091040260200160405190810160405280929190818152602001828054610d9790614367565b8015610de45780601f10610db957610100808354040283529160200191610de4565b820191906000526020600020905b815481529060010190602001808311610dc757829003601f168201915b50505050508152602001600182018054610dfd90614367565b80601f0160208091040260200160405190810160405280929190818152602001828054610e2990614367565b8015610e765780601f10610e4b57610100808354040283529160200191610e76565b820191906000526020600020905b815481529060010190602001808311610e5957829003601f168201915b505050918352505060028201546001600160a01b039081166020830152600383015481166040830152600490920154909116606090910152905086565b6000808080808080610ee889896001600160a01b03919091166000908152600160209081526040808320938352929052205490565b90508015610f605760008181526020819052604090208054600190910154610f19916001600160801b031690614320565b60008281526020819052604090206001810154905491945092508290610f48906001600160801b031682614320565b610f539060646142d5565b610f5d91906142c1565b93505b50919450925090509250925092565b610fe0604051806101400160405280600081526020016000815260200160006001600160801b0316815260200160006001600160801b031681526020016000815260200160008152602001600081526020016000815260200160006001600160a01b03168152602001600081525090565b81511580610ff057506020820151155b80610ffd57506040820151155b8061100a57506060820151155b15611041576040517f22fb5f7400000000000000000000000000000000000000000000000000000000815260040160405180910390fd5b611057826080015133308560c001516000611b78565b81526020820151604083015161106d9190614320565b608082018190526060830151611082916142c1565b60e0820152606082015160808201511161109e57600160e08201525b81606001518160800151111561112457806080015182606001516110c291906143d7565b6110e057816060015181608001516110da91906142c1565b60e08201525b806080015182606001518260e001516110f991906142d5565b1015611124578160600151816080015161111391906142c1565b61111e90600161428a565b60e08201525b670de0b6b3a76400008260e001518360c0015161114191906142d5565b61114b91906142c1565b6001600160801b03166060820181905260e08201518251909161116d91614320565b61117791906142c1565b6001600160801b03166040820152600280549060006111958361439c565b909155506020820152610100820151156112805761012082015160a08301516040517f40d097c30000000000000000000000000000000000000000000000000000000081526001600160a01b0391821660048201529116906340d097c390602401602060405180830381600087803b15801561121057600080fd5b505af1158015611224573d6000803e3d6000fd5b505050506040513d601f19601f820116820180604052508101906112489190613e88565b610120808301918252602080840151918501516001600160a01b03166000908152600182526040808220945182529390915291909120555b61138c81602001516040518060800160405280336001600160a01b03166001600160a01b031681526020018560a001516001600160a01b03166001600160a01b0316815260200185608001516001600160a01b03166001600160a01b031681526020018561012001516001600160a01b03166001600160a01b03168152506040518061012001604052808560e00151815260200185606001516001600160801b0316815260200185604001516001600160801b031681526020018660c00151815260200186600001518152602001866040015181526020018660200151815260200186606001518152602001856101200151815250856101000151866101400151876101600151611d86565b8160a001516001600160a01b031681602001517f438c3b12459c65275f9d92689e45742e4217ed48c982a87ea69b4fffe5945e8984608001518560000151866000015187602001516113de9190614320565b60608089015160e0808a01518a8401516040808d015181516001600160a01b03909a168a5263ffffffff98891660208b015296881690890152928616938701939093529390911660808501526001600160801b0390811660a08501521660c08301520160405180910390a35050565b6114886040518060a0016040528060008152602001600081526020016000815260200160006001600160a01b03168152602001600081525090565b60025460808201526004546001600160a01b0316606082015288156116755760005b60ff81168a1115611673576114f884848d8d8560ff168181106114dd57634e487b7160e01b600052603260045260246000fd5b90506020020160208101906114f291906136ff565b8861224b565b602084018190528184529061150d90886142d5565b61151791906142c1565b8260400181815250506116616040518061018001604052808960000135815260200189602001358152602001896040013581526020018960600135815260200189608001602081019061156a91906136ff565b6001600160a01b031681526020018d8d8560ff1681811061159b57634e487b7160e01b600052603260045260246000fd5b90506020020160208101906115b091906136ff565b6001600160a01b03168152604080860151602083015260e08b0135908201526060016115e46101208b016101008c01613c34565b151581526020016115fd6101408b016101208c016136ff565b6001600160a01b031681526020016116196101408b018b6140c8565b8080601f016020809104026020016040519081016040528093929190818152602001838380828437600092019190915250505090825250602001610bd86101608b018b6140c8565b8061166b816143b7565b9150506114aa565b505b86156118855760005b60ff81168811156118835760608201516001600160a01b031663e32616e6816383c6d1998c8c60ff87168181106116c557634e487b7160e01b600052603260045260246000fd5b90506020020160208101906116da91906136ff565b6040516001600160e01b031960e084901b1681526001600160a01b03909116600482015260240160206040518083038186803b15801561171957600080fd5b505afa15801561172d573d6000803e3d6000fd5b505050506040513d601f19601f820116820180604052508101906117519190613e88565b6040518263ffffffff1660e01b815260040161176f91815260200190565b60006040518083038186803b15801561178757600080fd5b505afa15801561179b573d6000803e3d6000fd5b505050506040513d6000823e601f3d908101601f191682016040526117c39190810190613737565b50505081895250602088018290529094506117e3935091508990506142d5565b6117ed91906142c1565b8260400181815250506118716040518061018001604052808960000135815260200189602001358152602001896040013581526020018960600135815260200189608001602081019061184091906136ff565b6001600160a01b031681526020018b8b8560ff1681811061159b57634e487b7160e01b600052603260045260246000fd5b8061187b816143b7565b91505061167e565b505b7f92315f7b1ee463bf4782c79e7a2fd8586ade6c409a7f6d5e9f01b3b4ceeb708c8a8a8a8a89866080015160016002546118bf9190614320565b6040516118d29796959493929190613fa1565b60405180910390a150505050505050505050565b606081015160408101519051600091829161190191906142a2565b63ffffffff169050804210156119175750919050565b60006119238242614320565b9050600061195885604001516000015163ffffffff1686606001516060015163ffffffff168461195391906142c1565b612dab565b905084606001516020015163ffffffff1685606001516060015186604001516000015161198591906142f4565b60608701516040810151905161199b91906142a2565b6119a591906142a2565b63ffffffff161180156119c5575084606001516020015163ffffffff1642115b156119d8575060408401515163ffffffff165b808560400151604001516001600160801b03166119f591906142d5565b8560400151602001516001600160801b0316611a11919061428a565b95945050505050565b6003546001600160a01b03168115611abc576040517ff18d03cc0000000000000000000000000000000000000000000000000000000081526001600160a01b038781166004830152868116602483015285811660448301526064820185905282169063f18d03cc90608401600060405180830381600087803b158015611a9f57600080fd5b505af1158015611ab3573d6000803e3d6000fd5b50505050611b70565b6040517f97da6d300000000000000000000000000000000000000000000000000000000081526001600160a01b0387811660048301528681166024830152858116604483015260006064830152608482018590528216906397da6d309060a4016040805180830381600087803b158015611b3557600080fd5b505af1158015611b49573d6000803e3d6000fd5b505050506040513d601f19601f82011682018060405250810190611b6d9190613ea0565b50505b505050505050565b6003546000906001600160a01b03168215611cc1576040517fda5139ca0000000000000000000000000000000000000000000000000000000081526001600160a01b038881166004830152602482018690526000604483015282169063da5139ca9060640160206040518083038186803b158015611bf557600080fd5b505afa158015611c09573d6000803e3d6000fd5b505050506040513d601f19601f82011682018060405250810190611c2d9190613e88565b6040517ff18d03cc0000000000000000000000000000000000000000000000000000000081526001600160a01b03898116600483015288811660248301528781166044830152606482018390529193509082169063f18d03cc90608401600060405180830381600087803b158015611ca457600080fd5b505af1158015611cb8573d6000803e3d6000fd5b50505050611d7c565b6001600160a01b03808216906302b9446c90891615611ce1576000611ce3565b855b6040516001600160e01b031960e084901b1681526001600160a01b03808c166004830152808b16602483015289166044820152606481018890526000608482015260a40160408051808303818588803b158015611d3f57600080fd5b505af1158015611d53573d6000803e3d6000fd5b50505050506040513d601f19601f82011682018060405250810190611d789190613ea0565b9250505b5095945050505050565b6040805160c08101909152600081526020810185600360200201518152602001604051806060016040528087600060098110611dd257634e487b7160e01b600052603260045260246000fd5b602002015163ffffffff16815260200187600160098110611e0357634e487b7160e01b600052603260045260246000fd5b60200201516001600160801b0316815260200187600260098110611e3757634e487b7160e01b600052603260045260246000fd5b60200201516001600160801b03168152508152602001604051806080016040528087600460098110611e7957634e487b7160e01b600052603260045260246000fd5b602002015163ffffffff16815260200187600560098110611eaa57634e487b7160e01b600052603260045260246000fd5b602002015163ffffffff16815260200187600460098110611edb57634e487b7160e01b600052603260045260246000fd5b602002015160c0890151611eef9190614320565b63ffffffff168152602001876007602002015163ffffffff16815250815260200160405180604001604052808615156001151514611f2e576000611f34565b60608901515b6001600160a01b03168152602001876008602002015181525081526020016040518060a0016040528085815260200184815260200188600060048110611f8a57634e487b7160e01b600052603260045260246000fd5b60200201516001600160a01b0316815260200188600160048110611fbe57634e487b7160e01b600052603260045260246000fd5b60200201516001600160a01b0316815260200188600260048110611ff257634e487b7160e01b600052603260045260246000fd5b602090810291909101516001600160a01b03908116909252919092526000898152808252604090819020845181546001600160801b039182167fffffffffffffffffffffffffffffffff000000000000000000000000000000009182161783558685015160018401558684015180516002850180548389015186166401000000009081027fffffffffffffffffffffffff000000000000000000000000000000000000000092831663ffffffff958616171790925592870151600387018054919096169416939093179093556060808901518051600487018054838b015199840151939094015187166c01000000000000000000000000027fffffffffffffffffffffffffffffffff00000000ffffffffffffffffffffffff9388166801000000000000000002939093167fffffffffffffffffffffffffffffffff0000000000000000ffffffffffffffff9988169096027fffffffffffffffffffffffffffffffffffffffffffffffff000000000000000090941691909616179190911795909516919091179390931790556080850151805160058301805491909616931692909217909355810151600683015560a083015180518051919260078501926121be9284920190612dc1565b5060208281015180516121d79260018501920190612dc1565b5060408201516002820180547fffffffffffffffffffffffff00000000000000000000000000000000000000009081166001600160a01b0393841617909155606084015160038401805483169184169190911790556080909301516004909201805490931691161790555050505050505050565b600080612256612e45565b60ff8416612669576040516317ba7d8560e01b81527f7a8526bca00f0726b2fab8c3bfd5b00bfa84d07f111e48263b13de605eefcdda60048201526001600160a01b038816906317ba7d859060240160206040518083038186803b1580156122bd57600080fd5b505afa1580156122d1573d6000803e3d6000fd5b505050506040513d601f19601f820116820180604052508101906122f5919061371b565b6040517fbf4999940000000000000000000000000000000000000000000000000000000081526001600160a01b03898116600483015260248201899052919091169063bf4999949060440160006040518083038186803b15801561235857600080fd5b505afa15801561236c573d6000803e3d6000fd5b505050506040513d6000823e601f3d908101601f19168201604052612394919081019061383c565b60608a01525050505060a0850191909152506080830152506040516317ba7d8560e01b81527feae11da953333a83b6467e2193334fb302549e1a42ad5797082aea1ab6be912060048201526000906001600160a01b038916906317ba7d859060240160206040518083038186803b15801561240e57600080fd5b505afa158015612422573d6000803e3d6000fd5b505050506040513d601f19601f82011682018060405250810190612446919061371b565b6040517e75e7eb0000000000000000000000000000000000000000000000000000000081526001600160a01b038a81166004830152602482018a9052888116604483015291909116906275e7eb90606401604080518083038186803b1580156124ae57600080fd5b505afa1580156124c2573d6000803e3d6000fd5b505050506040513d601f19601f820116820180604052508101906124e691906139dc565b604051632c9f4b5b60e11b81527fb12a3847d47fefceb164b75823af125f9aa82b76938df0ddf08c04cd314ba37c60048201529092508291506001600160a01b038a169063593e96b69060240160206040518083038186803b15801561254b57600080fd5b505afa15801561255f573d6000803e3d6000fd5b505050506040513d601f19601f82011682018060405250810190612583919061371b565b6001600160a01b0316639e3f2d908989600187606001516125a49190614320565b6040516001600160e01b031960e086901b16815260048101939093526001600160a01b039091166024830152604482015260640160206040518083038186803b1580156125f057600080fd5b505afa158015612604573d6000803e3d6000fd5b505050506040513d601f19601f820116820180604052508101906126289190613e88565b6126329190614320565b80835260808084015160608101805160408701529101519051909161265791906142d5565b61266191906142c1565b825250612d96565b8360ff16600114156129fb576040516317ba7d8560e01b81527f0fd8cce4ef00a7a8c0c5f91194bc80f122deefe664dd2a2384687da62ab117d160048201526001600160a01b038816906317ba7d859060240160206040518083038186803b1580156126d457600080fd5b505afa1580156126e8573d6000803e3d6000fd5b505050506040513d601f19601f8201168201806040525081019061270c919061371b565b6040517f5cb752760000000000000000000000000000000000000000000000000000000081526001600160a01b038981166004830152602482018990529190911690635cb752769060440160006040518083038186803b15801561276f57600080fd5b505afa158015612783573d6000803e3d6000fd5b505050506040513d6000823e601f3d908101601f191682016040526127ab9190810190613a09565b60608c01525060c08a01525050505060408086019390935250506001600160a01b0391821660e084015251632c9f4b5b60e11b81527f161fca6912f107b0f13c9c7275de7391b32d2ea1c52ffba65a3c961880a0c60f60048201529088169063593e96b69060240160206040518083038186803b15801561282b57600080fd5b505afa15801561283f573d6000803e3d6000fd5b505050506040513d601f19601f82011682018060405250810190612863919061371b565b6001600160a01b0316610120820181905260e0820151606083015163faaf38b39161decd9161289490600190614320565b6040516001600160e01b031960e086901b1681526001600160a01b039384166004820152929091166024830152604482015260640160206040518083038186803b1580156128e157600080fd5b505afa1580156128f5573d6000803e3d6000fd5b505050506040513d601f19601f820116820180604052508101906129199190613e49565b6001600160801b031681604001518261012001516001600160a01b031663faaf38b3888560e00151600187606001516129529190614320565b6040516001600160e01b031960e086901b1681526001600160a01b039384166004820152929091166024830152604482015260640160206040518083038186803b15801561299f57600080fd5b505afa1580156129b3573d6000803e3d6000fd5b505050506040513d601f19601f820116820180604052508101906129d79190613e49565b6001600160801b03166129ea91906142d5565b6129f491906142c1565b8152612d96565b8360ff1660021415612d96576040516317ba7d8560e01b81527f72894213a5c7f56b36b2947fa6ea18963d6bb1a68746b46d7f552cca76e1a7a860048201526001600160a01b038816906317ba7d859060240160206040518083038186803b158015612a6657600080fd5b505afa158015612a7a573d6000803e3d6000fd5b505050506040513d601f19601f82011682018060405250810190612a9e919061371b565b6040517f5cb752760000000000000000000000000000000000000000000000000000000081526001600160a01b038981166004830152602482018990529190911690635cb752769060440160006040518083038186803b158015612b0157600080fd5b505afa158015612b15573d6000803e3d6000fd5b505050506040513d6000823e601f3d908101601f19168201604052612b3d9190810190613d65565b506060870152505061016084015261018083015261014082018190526020015160408083019190915251632c9f4b5b60e11b81527f3909e87234f428ccb8748126e2c93f66a62f92a70d315fa5803dec6362be07ab60048201526001600160a01b0388169063593e96b69060240160206040518083038186803b158015612bc357600080fd5b505afa158015612bd7573d6000803e3d6000fd5b505050506040513d601f19601f82011682018060405250810190612bfb919061371b565b6001600160a01b03166101a0820181905261014082015151606083015163faaf38b39161decd91612c2e90600190614320565b6040516001600160e01b031960e086901b1681526001600160a01b039384166004820152929091166024830152604482015260640160206040518083038186803b158015612c7b57600080fd5b505afa158015612c8f573d6000803e3d6000fd5b505050506040513d601f19601f82011682018060405250810190612cb39190613e49565b6001600160801b03168160400151826101a001516001600160a01b031663faaf38b3888561014001516000015160018760600151612cf19190614320565b6040516001600160e01b031960e086901b1681526001600160a01b039384166004820152929091166024830152604482015260640160206040518083038186803b158015612d3e57600080fd5b505afa158015612d52573d6000803e3d6000fd5b505050506040513d601f19601f82011682018060405250810190612d769190613e49565b6001600160801b0316612d8991906142d5565b612d9391906142c1565b81525b80516040909101519097909650945050505050565b6000818310612dba57816104ee565b5090919050565b828054612dcd90614367565b90600052602060002090601f016020900481019282612def5760008555612e35565b82601f10612e0857805160ff1916838001178555612e35565b82800160010185558215612e35579182015b82811115612e35578251825591602001919060010190612e1a565b50612e419291506130a3565b5090565b60405180610200016040528060008152602001600081526020016000815260200160008152602001612efe604051806101a0016040528060006001600160a01b031681526020016000815260200160008152602001600081526020016000815260200160001515815260200160006001600160a01b031681526020016000815260200160008152602001600081526020016000815260200160006001600160a01b0316815260200160006001600160a01b031681525090565b8152602001612f5d604051806101200160405280600081526020016000815260200160008152602001600081526020016000815260200160001515815260200160006001600160a01b0316815260200160608152602001606081525090565b81526040805160c08101825260008082526020828101829052928201819052606082018190526080820181905260a0820152910190815260200160006001600160a01b031681526020016000815260200160006001600160a01b03168152602001612ffb604051806080016040528060006001600160a01b03168152602001600081526020016000815260200160006001600160a01b031681525090565b815260200161305a604051806101200160405280600081526020016000815260200160008152602001600081526020016000815260200160001515815260200160006001600160a01b0316815260200160608152602001606081525090565b81526040805160a0810182526000808252602082810182905292820181905260608201819052608082015291019081526000602082018190526040820181905260609091015290565b5b80821115612e4157600081556001016130a4565b80356130c38161442d565b919050565b80516130c38161442d565b60008083601f8401126130e4578182fd5b50813567ffffffffffffffff8111156130fb578182fd5b6020830191508360208260051b850101111561311657600080fd5b9250929050565b80356130c381614445565b80516130c381614445565b8051600281106130c357600080fd5b8051600581106130c357600080fd5b600082601f830112613161578081fd5b813561317461316f82614237565b614206565b818152846020838601011115613188578283fd5b816020850160208301379081016020019190915292915050565b600082601f8301126131b2578081fd5b81516131c061316f82614237565b8181528460208386010111156131d4578283fd5b6131e5826020830160208701614337565b949350505050565b600061018082840312156131ff578081fd5b50919050565b600060608284031215613216578081fd5b6040516060810167ffffffffffffffff828210818311171561323a5761323a614417565b816040528293508451915061324e8261442d565b9082526020840151908082111561326457600080fd5b613270868387016131a2565b6020840152604085015191508082111561328957600080fd5b50613296858286016131a2565b6040830152505092915050565b600060a082840312156132b4578081fd5b6132bc61412b565b905081516132c981614445565b815260208201516132d98161442d565b80602083015250604082015160408201526060820151606082015260808201516133028161442d565b608082015292915050565b6000610200828403121561331f578081fd5b604051610100810181811067ffffffffffffffff8211171561334357613343614417565b60405290508061335283613133565b81526020830151602082015260408301516040820152606083015160608201526080830151608082015261338860a08401613128565b60a082015261339a8460c085016133b9565b60c08201526133ad84610160850161342c565b60e08201525092915050565b600060a082840312156133ca578081fd5b6133d261412b565b905081516133df81614453565b8152602082015163ffffffff811681146133f857600080fd5b6020820152604082015161340b8161442d565b80604083015250606082015160608201526080820151608082015292915050565b600060a0828403121561343d578081fd5b61344561412b565b9050815161345281614445565b815260208201516133f881614453565b600060c08284031215613473578081fd5b60405160c0810181811067ffffffffffffffff8211171561349657613496614417565b806040525080915082516134a981614445565b815260208301516134b98161442d565b60208201526040838101519082015260608301516134d68161442d565b606082015260808301516134e981614445565b608082015260a08301516134fc8161442d565b60a0919091015292915050565b60006080828403121561351a578081fd5b613522614154565b90508151815260208201516020820152604082015160408201526060820151606082015292915050565b60006040828403121561355d578081fd5b6040516040810181811067ffffffffffffffff8211171561358057613580614417565b604052825181526020928301519281019290925250919050565b600061012082840312156135ac578081fd5b6135b4614177565b905081518152602082015160208201526040820151604082015260608201516060820152608082015160808201526135ee60a08301613128565b60a08201526135ff60c083016130c8565b60c082015260e082015167ffffffffffffffff8082111561361f57600080fd5b61362b858386016131a2565b60e08401526101009150818401518181111561364657600080fd5b613652868287016131a2565b8385015250505092915050565b600060e08284031215613670578081fd5b61367861419b565b9050815167ffffffffffffffff8082111561369257600080fd5b61369e858386016131a2565b835260208401519150808211156136b457600080fd5b506136c1848285016131a2565b60208301525060408201516040820152606082015160608201526080820151608082015260a082015160a082015260c082015160c082015292915050565b600060208284031215613710578081fd5b81356104ee8161442d565b60006020828403121561372c578081fd5b81516104ee8161442d565b6000806000806000806000806000806101408b8d031215613756578586fd5b61375f8b6130c8565b995060208b0151985060408b0151975060608b015167ffffffffffffffff80821115613789578788fd5b6137958e838f016131a2565b985060808d0151975060a08d0151965060c08d01519150808211156137b8578586fd5b6137c48e838f01613205565b955060e08d01519150808211156137d9578485fd5b6137e58e838f016131a2565b94506101008d01519150808211156137fb578384fd5b6138078e838f016131a2565b93506101208d015191508082111561381d578283fd5b5061382a8d828e016131a2565b9150509295989b9194979a5092959850565b6000806000806000806000806000898b036104a081121561385b578384fd5b8a516138668161442d565b99506101a0601f19820181131561387b578485fd5b6138836141be565b915061389160208d016130c8565b825260408c0151602083015260608c0151604083015260808c0151606083015260a08c015160808301526138c760c08d01613128565b60a08301526138d860e08d016130c8565b60c0830152610100808d015160e0840152610120808e0151828501526101409150818e01518185015250610160808e015182850152610180915061391d828f016130c8565b9084015261392c8d83016130c8565b90830152506101c08b015190985067ffffffffffffffff81111561394e578384fd5b61395a8c828d0161359a565b97505061396b8b6101e08c0161330d565b955061397b8b6103e08c0161354c565b94506104208a015193506104408a0151925061399a6104608b01613142565b91506104808a015190509295985092959850929598565b600080604083850312156139c3578182fd5b82356139ce8161442d565b946020939093013593505050565b600080604083850312156139ee578182fd5b82516139f98161442d565b6020939093015192949293505050565b60008060008060008060008060008060006102608c8e031215613a2a578485fd5b8b51613a358161442d565b809b505060208c0151995060408c0151985060608c0151975060808c0151613a5c8161442d565b9650613a6a60a08d016130c8565b9550613a7860c08d01613142565b945060e08c015167ffffffffffffffff811115613a93578182fd5b613a9f8e828f0161365f565b945050613ab08d6101008e01613462565b9250613ac08d6101c08e01613509565b91506102408c015190509295989b509295989b9093969950565b600080600080600080600080600060e08a8c031215613af7578283fd5b893567ffffffffffffffff80821115613b0e578485fd5b613b1a8d838e016130d3565b909b50995060208c0135915080821115613b32578485fd5b613b3e8d838e016130d3565b909950975060408c0135915080821115613b56578485fd5b50613b638c828d016131ed565b95505060608a0135935060808a013560ff81168114613b80578384fd5b9250613b8e60a08b016130b8565b915060c08a013590509295985092959850929598565b600080600080600060608688031215613bbb578283fd5b853567ffffffffffffffff80821115613bd2578485fd5b613bde89838a016130d3565b90975095506020880135915080821115613bf6578485fd5b613c0289838a016130d3565b90955093506040880135915080821115613c1a578283fd5b50613c27888289016131ed565b9150509295509295909350565b600060208284031215613c45578081fd5b81356104ee81614445565b600060208284031215613c61578081fd5b813567ffffffffffffffff80821115613c78578283fd5b908301906101808286031215613c8c578283fd5b613c946141e2565b82358152602083013560208201526040830135604082015260608301356060820152613cc2608084016130b8565b6080820152613cd360a084016130b8565b60a082015260c083013560c082015260e083013560e0820152610100613cfa81850161311d565b90820152610120613d0c8482016130b8565b908201526101408381013583811115613d23578586fd5b613d2f88828701613151565b8284015250506101608084013583811115613d48578586fd5b613d5488828701613151565b918301919091525095945050505050565b60008060008060008060008789036101e0811215613d81578182fd5b6080811215613d8e578182fd5b50613d97614154565b8851613da28161442d565b8082525060208901516020820152604089015160408201526060890151613dc88161442d565b60608201529650613ddc8960808a016132a3565b955061012088015167ffffffffffffffff811115613df8578182fd5b613e048a828b0161359a565b955050613e15896101408a0161354c565b9350613e2461018089016130c8565b92506101a08801519150613e3b6101c08901613142565b905092959891949750929550565b600060208284031215613e5a578081fd5b81516001600160801b03811681146104ee578182fd5b600060208284031215613e81578081fd5b5035919050565b600060208284031215613e99578081fd5b5051919050565b60008060408385031215613eb2578182fd5b505080516020909101519092909150565b81835260006020808501945082825b85811015613f00578135613ee58161442d565b6001600160a01b031687529582019590820190600101613ed2565b509495945050505050565b60008151808452613f23816020860160208601614337565b601f01601f19169290920160200192915050565b6000815160a08452613f4c60a0850182613f0b565b905060208301518482036020860152613f658282613f0b565b91505060408301516001600160a01b03808216604087015280606086015116606087015280608086015116608087015250508091505092915050565b60a081526000613fb560a08301898b613ec3565b8281036020840152613fc881888a613ec3565b604084019690965250506060810192909252608090910152949350505050565b608081526000613ffc608083018789613ec3565b602083019590955250604081019290925260609091015292915050565b60006101806001600160801b03808a16845288602085015263ffffffff8089511660408601528160208a01511660608601528160408a01511660808601528088511660a08601528060208901511660c08601528060408901511660e08601528060608901511661010086015250506140a861012084018680516001600160a01b03168252602090810151910152565b806101608401526140bb81840185613f37565b9998505050505050505050565b60008083357fffffffffffffffffffffffffffffffffffffffffffffffffffffffffffffffe18436030181126140fc578283fd5b83018035915067ffffffffffffffff821115614116578283fd5b60200191503681900382131561311657600080fd5b60405160a0810167ffffffffffffffff8111828210171561414e5761414e614417565b60405290565b6040516080810167ffffffffffffffff8111828210171561414e5761414e614417565b604051610120810167ffffffffffffffff8111828210171561414e5761414e614417565b60405160e0810167ffffffffffffffff8111828210171561414e5761414e614417565b6040516101a0810167ffffffffffffffff8111828210171561414e5761414e614417565b604051610180810167ffffffffffffffff8111828210171561414e5761414e614417565b604051601f8201601f1916810167ffffffffffffffff8111828210171561422f5761422f614417565b604052919050565b600067ffffffffffffffff82111561425157614251614417565b50601f01601f191660200190565b60006001600160801b03808316818516808303821115614281576142816143eb565b01949350505050565b6000821982111561429d5761429d6143eb565b500190565b600063ffffffff808316818516808303821115614281576142816143eb565b6000826142d0576142d0614401565b500490565b60008160001904831182151516156142ef576142ef6143eb565b500290565b600063ffffffff80831681851681830481118215151615614317576143176143eb565b02949350505050565b600082821015614332576143326143eb565b500390565b60005b8381101561435257818101518382015260200161433a565b83811115614361576000848401525b50505050565b600181811c9082168061437b57607f821691505b602082108114156131ff57634e487b7160e01b600052602260045260246000fd5b60006000198214156143b0576143b06143eb565b5060010190565b600060ff821660ff8114156143ce576143ce6143eb565b60010192915050565b6000826143e6576143e6614401565b500690565b634e487b7160e01b600052601160045260246000fd5b634e487b7160e01b600052601260045260246000fd5b634e487b7160e01b600052604160045260246000fd5b6001600160a01b038116811461444257600080fd5b50565b801515811461444257600080fd5b6004811061444257600080fdfea26469706673582212203e0a76a5045063ca7f2a8a7c77971e9488c3181b10ebfae443553a67c21140fd64736f6c63430008040033",
  "linkReferences": {},
  "deployedLinkReferences": {}
}