{
  "_format": "hh-sol-artifact-1",
  "contractName": "ManualVesting",
  "sourceName": "contracts/ManualVesting.sol",
  "abi": [
    {
      "inputs": [
        {
          "internalType": "address",
          "name": "_bentoBoxAddr",
          "type": "address"
        },
        {
          "internalType": "address",
          "name": "_receiptNFTAddr",
          "type": "address"
        }
      ],
      "stateMutability": "nonpayable",
      "type": "constructor"
    },
    {
      "inputs": [],
      "name": "InValidBatchVesting2Param",
      "type": "error"
    },
    {
      "inputs": [],
      "name": "InValidVestingTimeParam",
      "type": "error"
    },
    {
      "inputs": [],
      "name": "NotOwner",
      "type": "error"
    },
    {
      "inputs": [],
      "name": "NotVestReceiver",
      "type": "error"
    },
    {
      "anonymous": false,
      "inputs": [
        {
          "indexed": false,
          "internalType": "uint256",
          "name": "startVestId",
          "type": "uint256"
        },
        {
          "indexed": false,
          "internalType": "uint256",
          "name": "endVestId",
          "type": "uint256"
        }
      ],
      "name": "BatchVesting",
      "type": "event"
    },
    {
      "anonymous": false,
      "inputs": [
        {
          "indexed": true,
          "internalType": "uint256",
          "name": "vestId",
          "type": "uint256"
        },
        {
          "indexed": true,
          "internalType": "uint256",
          "name": "ownerAmount",
          "type": "uint256"
        },
        {
          "indexed": true,
          "internalType": "uint256",
          "name": "recipientAmount",
          "type": "uint256"
        },
        {
          "indexed": false,
          "internalType": "address",
          "name": "token",
          "type": "address"
        },
        {
          "indexed": false,
          "internalType": "bool",
          "name": "toBentoBox",
          "type": "bool"
        }
      ],
      "name": "CancelVesting",
      "type": "event"
    },
    {
      "anonymous": false,
      "inputs": [
        {
          "indexed": true,
          "internalType": "uint256",
          "name": "vestId",
          "type": "uint256"
        },
        {
          "indexed": false,
          "internalType": "address",
          "name": "token",
          "type": "address"
        },
        {
          "indexed": true,
          "internalType": "address",
          "name": "recipient",
          "type": "address"
        },
        {
          "indexed": false,
          "internalType": "uint32",
          "name": "start",
          "type": "uint32"
        },
        {
          "indexed": false,
          "internalType": "uint32",
          "name": "cliffDuration",
          "type": "uint32"
        },
        {
          "indexed": false,
          "internalType": "uint32",
          "name": "stepDuration",
          "type": "uint32"
        },
        {
          "indexed": false,
          "internalType": "uint32",
          "name": "steps",
          "type": "uint32"
        },
        {
          "indexed": false,
          "internalType": "uint128",
          "name": "cliffShares",
          "type": "uint128"
        },
        {
          "indexed": false,
          "internalType": "uint128",
          "name": "stepShares",
          "type": "uint128"
        }
      ],
      "name": "CreateVesting",
      "type": "event"
    },
    {
      "anonymous": false,
      "inputs": [
        {
          "indexed": true,
          "internalType": "uint256",
          "name": "vestId",
          "type": "uint256"
        },
        {
          "indexed": true,
          "internalType": "address",
          "name": "newOwner",
          "type": "address"
        }
      ],
      "name": "LogUpdateOwner",
      "type": "event"
    },
    {
      "anonymous": false,
      "inputs": [
        {
          "indexed": true,
          "internalType": "uint256",
          "name": "vestId",
          "type": "uint256"
        },
        {
          "indexed": true,
          "internalType": "address",
          "name": "token",
          "type": "address"
        },
        {
          "indexed": true,
          "internalType": "uint256",
          "name": "amount",
          "type": "uint256"
        },
        {
          "indexed": false,
          "internalType": "bool",
          "name": "toBentoBox",
          "type": "bool"
        }
      ],
      "name": "Withdraw",
      "type": "event"
    },
    {
      "inputs": [],
      "name": "PERCENTAGE_PRECISION",
      "outputs": [
        {
          "internalType": "uint256",
          "name": "",
          "type": "uint256"
        }
      ],
      "stateMutability": "view",
      "type": "function"
    },
    {
      "inputs": [
        {
          "internalType": "address[]",
          "name": "investors",
          "type": "address[]"
        },
        {
          "internalType": "address[]",
          "name": "holders",
          "type": "address[]"
        },
        {
          "components": [
            {
              "internalType": "uint256",
              "name": "startTime",
              "type": "uint256"
            },
            {
              "internalType": "uint256",
              "name": "cliffEndTime",
              "type": "uint256"
            },
            {
              "internalType": "uint256",
              "name": "endTime",
              "type": "uint256"
            },
            {
              "internalType": "uint256",
              "name": "vestingInterval",
              "type": "uint256"
            },
            {
              "internalType": "address",
              "name": "paybackToken",
              "type": "address"
            },
            {
              "internalType": "address",
              "name": "recipientAddr",
              "type": "address"
            },
            {
              "internalType": "uint256",
              "name": "depositAmount",
              "type": "uint256"
            },
            {
              "internalType": "uint256",
              "name": "cliffVestingAmount",
              "type": "uint256"
            },
            {
              "internalType": "bool",
              "name": "nftEnable",
              "type": "bool"
            },
            {
              "internalType": "address",
              "name": "erc721",
              "type": "address"
            },
            {
              "internalType": "string",
              "name": "name",
              "type": "string"
            },
            {
              "internalType": "string",
              "name": "description",
              "type": "string"
            }
          ],
          "internalType": "struct ManualVesting.CreateVestingParams",
          "name": "params",
          "type": "tuple"
        },
        {
          "internalType": "uint256",
          "name": "total",
          "type": "uint256"
        },
        {
          "internalType": "uint8",
          "name": "mode",
          "type": "uint8"
        },
        {
          "internalType": "address",
          "name": "daoAddr",
          "type": "address"
        },
        {
          "internalType": "bytes32",
          "name": "proposalId",
          "type": "bytes32"
        }
      ],
      "name": "batchCreate",
      "outputs": [],
      "stateMutability": "nonpayable",
      "type": "function"
    },
    {
      "inputs": [
        {
          "internalType": "address[]",
          "name": "receivers",
          "type": "address[]"
        },
        {
          "internalType": "uint256[]",
          "name": "amounts",
          "type": "uint256[]"
        },
        {
          "components": [
            {
              "internalType": "uint256",
              "name": "startTime",
              "type": "uint256"
            },
            {
              "internalType": "uint256",
              "name": "cliffEndTime",
              "type": "uint256"
            },
            {
              "internalType": "uint256",
              "name": "endTime",
              "type": "uint256"
            },
            {
              "internalType": "uint256",
              "name": "vestingInterval",
              "type": "uint256"
            },
            {
              "internalType": "address",
              "name": "paybackToken",
              "type": "address"
            },
            {
              "internalType": "address",
              "name": "recipientAddr",
              "type": "address"
            },
            {
              "internalType": "uint256",
              "name": "depositAmount",
              "type": "uint256"
            },
            {
              "internalType": "uint256",
              "name": "cliffVestingAmount",
              "type": "uint256"
            },
            {
              "internalType": "bool",
              "name": "nftEnable",
              "type": "bool"
            },
            {
              "internalType": "address",
              "name": "erc721",
              "type": "address"
            },
            {
              "internalType": "string",
              "name": "name",
              "type": "string"
            },
            {
              "internalType": "string",
              "name": "description",
              "type": "string"
            }
          ],
          "internalType": "struct ManualVesting.CreateVestingParams",
          "name": "params",
          "type": "tuple"
        }
      ],
      "name": "batchCreate2",
      "outputs": [],
      "stateMutability": "nonpayable",
      "type": "function"
    },
    {
      "inputs": [
        {
          "components": [
            {
              "internalType": "uint256",
              "name": "startTime",
              "type": "uint256"
            },
            {
              "internalType": "uint256",
              "name": "cliffEndTime",
              "type": "uint256"
            },
            {
              "internalType": "uint256",
              "name": "endTime",
              "type": "uint256"
            },
            {
              "internalType": "uint256",
              "name": "vestingInterval",
              "type": "uint256"
            },
            {
              "internalType": "address",
              "name": "paybackToken",
              "type": "address"
            },
            {
              "internalType": "address",
              "name": "recipientAddr",
              "type": "address"
            },
            {
              "internalType": "uint256",
              "name": "depositAmount",
              "type": "uint256"
            },
            {
              "internalType": "uint256",
              "name": "cliffVestingAmount",
              "type": "uint256"
            },
            {
              "internalType": "bool",
              "name": "nftEnable",
              "type": "bool"
            },
            {
              "internalType": "address",
              "name": "erc721",
              "type": "address"
            },
            {
              "internalType": "string",
              "name": "name",
              "type": "string"
            },
            {
              "internalType": "string",
              "name": "description",
              "type": "string"
            }
          ],
          "internalType": "struct ManualVesting.CreateVestingParams",
          "name": "params",
          "type": "tuple"
        }
      ],
      "name": "createVesting",
      "outputs": [],
      "stateMutability": "payable",
      "type": "function"
    },
    {
      "inputs": [
        {
          "internalType": "address",
          "name": "token",
          "type": "address"
        },
        {
          "internalType": "uint256",
          "name": "tokenId",
          "type": "uint256"
        }
      ],
      "name": "getRemainingPercentage",
      "outputs": [
        {
          "internalType": "uint256",
          "name": "",
          "type": "uint256"
        },
        {
          "internalType": "uint256",
          "name": "",
          "type": "uint256"
        },
        {
          "internalType": "uint256",
          "name": "",
          "type": "uint256"
        }
      ],
      "stateMutability": "view",
      "type": "function"
    },
    {
      "inputs": [
        {
          "internalType": "address",
          "name": "token",
          "type": "address"
        },
        {
          "internalType": "uint256",
          "name": "tokenId",
          "type": "uint256"
        }
      ],
      "name": "getVestIdByTokenId",
      "outputs": [
        {
          "internalType": "uint256",
          "name": "",
          "type": "uint256"
        }
      ],
      "stateMutability": "view",
      "type": "function"
    },
    {
      "inputs": [
        {
          "internalType": "address",
          "name": "",
          "type": "address"
        },
        {
          "internalType": "uint256",
          "name": "",
          "type": "uint256"
        }
      ],
      "name": "tokenIdToVestId",
      "outputs": [
        {
          "internalType": "uint256",
          "name": "",
          "type": "uint256"
        }
      ],
      "stateMutability": "view",
      "type": "function"
    },
    {
      "inputs": [
        {
          "internalType": "uint256",
          "name": "vestId",
          "type": "uint256"
        }
      ],
      "name": "vestBalance",
      "outputs": [
        {
          "internalType": "uint256",
          "name": "",
          "type": "uint256"
        }
      ],
      "stateMutability": "view",
      "type": "function"
    },
    {
      "inputs": [],
      "name": "vestIds",
      "outputs": [
        {
          "internalType": "uint256",
          "name": "",
          "type": "uint256"
        }
      ],
      "stateMutability": "view",
      "type": "function"
    },
    {
      "inputs": [
        {
          "internalType": "uint256",
          "name": "",
          "type": "uint256"
        }
      ],
      "name": "vests",
      "outputs": [
        {
          "internalType": "uint128",
          "name": "claimed",
          "type": "uint128"
        },
        {
          "internalType": "uint256",
          "name": "total",
          "type": "uint256"
        },
        {
          "components": [
            {
              "internalType": "uint32",
              "name": "steps",
              "type": "uint32"
            },
            {
              "internalType": "uint128",
              "name": "cliffShares",
              "type": "uint128"
            },
            {
              "internalType": "uint128",
              "name": "stepShares",
              "type": "uint128"
            }
          ],
          "internalType": "struct ManualVesting.StepInfo",
          "name": "stepInfo",
          "type": "tuple"
        },
        {
          "components": [
            {
              "internalType": "uint32",
              "name": "start",
              "type": "uint32"
            },
            {
              "internalType": "uint32",
              "name": "end",
              "type": "uint32"
            },
            {
              "internalType": "uint32",
              "name": "cliffDuration",
              "type": "uint32"
            },
            {
              "internalType": "uint32",
              "name": "stepDuration",
              "type": "uint32"
            }
          ],
          "internalType": "struct ManualVesting.TimeInfo",
          "name": "timeInfo",
          "type": "tuple"
        },
        {
          "components": [
            {
              "internalType": "address",
              "name": "nftToken",
              "type": "address"
            },
            {
              "internalType": "uint256",
              "name": "tokenId",
              "type": "uint256"
            }
          ],
          "internalType": "struct ManualVesting.VestNFTInfo",
          "name": "nftInfo",
          "type": "tuple"
        },
        {
          "components": [
            {
              "internalType": "string",
              "name": "name",
              "type": "string"
            },
            {
              "internalType": "string",
              "name": "description",
              "type": "string"
            },
            {
              "internalType": "address",
              "name": "owner",
              "type": "address"
            },
            {
              "internalType": "address",
              "name": "recipient",
              "type": "address"
            },
            {
              "internalType": "address",
              "name": "token",
              "type": "address"
            }
          ],
          "internalType": "struct ManualVesting.VestInfo",
          "name": "vestInfo",
          "type": "tuple"
        }
      ],
      "stateMutability": "view",
      "type": "function"
    },
    {
      "inputs": [
        {
          "internalType": "uint256",
          "name": "vestId",
          "type": "uint256"
        }
      ],
      "name": "withdraw",
      "outputs": [],
      "stateMutability": "nonpayable",
      "type": "function"
    }
  ],
  "bytecode": "0x60806040523480156200001157600080fd5b506040516200447838038062004478833981016040819052620000349162000088565b6001600255600380546001600160a01b039384166001600160a01b03199182161790915560048054929093169116179055620000bf565b80516001600160a01b03811681146200008357600080fd5b919050565b600080604083850312156200009b578182fd5b620000a6836200006b565b9150620000b6602084016200006b565b90509250929050565b6143a980620000cf6000396000f3fe6080604052600436106100bc5760003560e01c80633b39356a11610074578063cbcf03051161004e578063cbcf030514610234578063ceba7c6d14610247578063e256888f1461026757600080fd5b80633b39356a146101a757806351def556146101c75780637a4334e2146101f957600080fd5b80632c29e196116100a55780632c29e1961461010a5780632e1a7d4d1461014d5780633427dd671461016f57600080fd5b806319f77171146100c15780632bcea736146100f4575b600080fd5b3480156100cd57600080fd5b506100e16100dc366004613e43565b610283565b6040519081526020015b60405180910390f35b34801561010057600080fd5b506100e160025481565b34801561011657600080fd5b506100e1610125366004613984565b6001600160a01b03919091166000908152600160209081526040808320938352929052205490565b34801561015957600080fd5b5061016d610168366004613e43565b6104f5565b005b34801561017b57600080fd5b506100e161018a366004613984565b600160209081526000928352604080842090915290825290205481565b3480156101b357600080fd5b5061016d6101c2366004613b77565b610956565b3480156101d357600080fd5b506101e76101e2366004613e43565b610c5f565b6040516100eb96959493929190613f2c565b34801561020557600080fd5b50610219610214366004613984565b610e8e565b604080519384526020840192909252908201526060016100eb565b61016d610242366004613c23565b610f4a565b34801561025357600080fd5b5061016d610262366004613aad565b611428565b34801561027357600080fd5b506100e1670de0b6b3a764000081565b600081815260208181526040808320815160c08101835281546001600160801b039081168252600183015482860152835160608082018652600285015463ffffffff8082168452640100000000918290048516848a015260038701549094168388015284870192909252855160808082018852600487015480861683529384048516828a01526801000000000000000084048516828901526c01000000000000000000000000909304909316838201528301919091528351808501855260058401546001600160a01b03168152600684015495810195909552810193909352815160a08181019093526007820180548695948501929190829082906103879061427a565b80601f01602080910402602001604051908101604052809291908181526020018280546103b39061427a565b80156104005780601f106103d557610100808354040283529160200191610400565b820191906000526020600020905b8154815290600101906020018083116103e357829003601f168201915b505050505081526020016001820180546104199061427a565b80601f01602080910402602001604051908101604052809291908181526020018280546104459061427a565b80156104925780601f1061046757610100808354040283529160200191610492565b820191906000526020600020905b81548152906001019060200180831161047557829003601f168201915b505050918352505060028201546001600160a01b03908116602083015260038301548116604083015260049092015490911660609091015290525080519091506001600160801b03166104e4826118b9565b6104ee9190614233565b9392505050565b6000818152602081905260409020600a81015460058201546001600160a01b0391821691161561060157600582015460068301546040517f6352211e000000000000000000000000000000000000000000000000000000008152600481019190915233916001600160a01b031690636352211e9060240160206040518083038186803b15801561058457600080fd5b505afa158015610598573d6000803e3d6000fd5b505050506040513d601f19601f820116820180604052508101906105bc91906136ee565b6001600160a01b0316146105fc576040517fe1c6117100000000000000000000000000000000000000000000000000000000815260040160405180910390fd5b610643565b6001600160a01b0381163314610643576040517fe1c6117100000000000000000000000000000000000000000000000000000000815260040160405180910390fd5b81546040805160c0810182526001600160801b039283168082526001860154602080840191909152835160608082018652600289015463ffffffff80821684526401000000009182900489168486015260038b0154909816838801528587019290925285516080808201885260048b0154808a1683529384048916828601526801000000000000000084048916828901526c01000000000000000000000000909304909716878201528401959095528351808501855260058801546001600160a01b0316815260068801549181019190915293820193909352815160a08181019093526007860180546000959461089694938993918501929091908290829061074b9061427a565b80601f01602080910402602001604051908101604052809291908181526020018280546107779061427a565b80156107c45780601f10610799576101008083540402835291602001916107c4565b820191906000526020600020905b8154815290600101906020018083116107a757829003601f168201915b505050505081526020016001820180546107dd9061427a565b80601f01602080910402602001604051908101604052809291908181526020018280546108099061427a565b80156108565780601f1061082b57610100808354040283529160200191610856565b820191906000526020600020905b81548152906001019060200180831161083957829003601f168201915b505050918352505060028201546001600160a01b0390811660208301526003830154811660408301526004909201549091166060909101529052506118b9565b6108a09190614233565b9050806108ad5750505050565b8254819084906000906108ca9084906001600160801b0316614172565b82546001600160801b039182166101009390930a928302919092021990911617905550600b830154610909906001600160a01b031630848460006119ed565b600b8301546040516000815282916001600160a01b03169086907fff942d249898505febb2a9a00118e27567c084b9497d0aa3ba5e332c235b4f389060200160405180910390a450505050565b6109916040518060a0016040528060008152602001600081526020016000815260200160006001600160a01b03168152602001600081525090565b60025460808201528483146109d2576040517fba1df96900000000000000000000000000000000000000000000000000000000815260040160405180910390fd5b813515806109e257506020820135155b806109ef57506040820135155b806109fc57506060820135155b15610a33576040517fba1df96900000000000000000000000000000000000000000000000000000000815260040160405180910390fd5b8415610c0a5760005b60ff8116861115610c085784848260ff16818110610a6a57634e487b7160e01b600052603260045260246000fd5b90506020020135826040018181525050610bf660405180610180016040528085600001358152602001856020013581526020018560400135815260200185606001358152602001856080016020810190610ac491906136d2565b6001600160a01b0316815260200189898560ff16818110610af557634e487b7160e01b600052603260045260246000fd5b9050602002016020810190610b0a91906136d2565b6001600160a01b03168152604080860151602083015260e087013590820152606001610b3e61012087016101008801613c07565b15158152602001610b57610140870161012088016136d2565b6001600160a01b03168152602001610b73610140870187613fdb565b8080601f016020809104026020016040519081016040528093929190818152602001838380828437600092019190915250505090825250602001610bbb610160870187613fdb565b8080601f0160208091040260200160405190810160405280939291908181526020018383808284376000920191909152505050915250610f4a565b80610c00816142ca565b915050610a3c565b505b7f4582ab15ec80862410d6f395ef6393e4f2c846b49d1c461c9fb96149068b5e3681608001516001600254610c3f9190614233565b6040805192835260208301919091520160405180910390a1505050505050565b6000602081815291815260409081902080546001820154835160608082018652600285015463ffffffff80821684526001600160801b03640100000000928390048116858b015260038801548116858a01528851608081018a52600489015480841682529384048316818c01526801000000000000000084048316818b01526c01000000000000000000000000909304909116928201929092528651808801885260058701546001600160a01b03168152600687015498810198909852865160a08101909752600786018054929095169793969295909490929182908290610d469061427a565b80601f0160208091040260200160405190810160405280929190818152602001828054610d729061427a565b8015610dbf5780601f10610d9457610100808354040283529160200191610dbf565b820191906000526020600020905b815481529060010190602001808311610da257829003601f168201915b50505050508152602001600182018054610dd89061427a565b80601f0160208091040260200160405190810160405280929190818152602001828054610e049061427a565b8015610e515780601f10610e2657610100808354040283529160200191610e51565b820191906000526020600020905b815481529060010190602001808311610e3457829003601f168201915b505050918352505060028201546001600160a01b039081166020830152600383015481166040830152600490920154909116606090910152905086565b6000808080808080610ec389896001600160a01b03919091166000908152600160209081526040808320938352929052205490565b90508015610f3b5760008181526020819052604090208054600190910154610ef4916001600160801b031690614233565b60008281526020819052604090206001810154905491945092508290610f23906001600160801b031682614233565b610f2e9060646141e8565b610f3891906141d4565b93505b50919450925090509250925092565b610fbb604051806101400160405280600081526020016000815260200160006001600160801b0316815260200160006001600160801b031681526020016000815260200160008152602001600081526020016000815260200160006001600160a01b03168152602001600081525090565b81511580610fcb57506020820151155b80610fd857506040820151155b80610fe557506060820151155b1561101c576040517f22fb5f7400000000000000000000000000000000000000000000000000000000815260040160405180910390fd5b611032826080015133308560c001516000611b4b565b8152602082015160408301516110489190614233565b60808201819052606083015161105d916141d4565b60e0820152606082015160808201511161107957600160e08201525b8160600151816080015111156110ff578060800151826060015161109d91906142ea565b6110bb57816060015181608001516110b591906141d4565b60e08201525b806080015182606001518260e001516110d491906141e8565b10156110ff57816060015181608001516110ee91906141d4565b6110f990600161419d565b60e08201525b670de0b6b3a76400008260e001518360c0015161111c91906141e8565b61112691906141d4565b6001600160801b03166060820181905260e08201518251909161114891614233565b61115291906141d4565b6001600160801b0316604082015260028054906000611170836142af565b9091555060208201526101008201511561125b5761012082015160a08301516040517f40d097c30000000000000000000000000000000000000000000000000000000081526001600160a01b0391821660048201529116906340d097c390602401602060405180830381600087803b1580156111eb57600080fd5b505af11580156111ff573d6000803e3d6000fd5b505050506040513d601f19601f820116820180604052508101906112239190613e5b565b610120808301918252602080840151918501516001600160a01b03166000908152600182526040808220945182529390915291909120555b61136781602001516040518060800160405280336001600160a01b03166001600160a01b031681526020018560a001516001600160a01b03166001600160a01b0316815260200185608001516001600160a01b03166001600160a01b031681526020018561012001516001600160a01b03166001600160a01b03168152506040518061012001604052808560e00151815260200185606001516001600160801b0316815260200185604001516001600160801b031681526020018660c00151815260200186600001518152602001866040015181526020018660200151815260200186606001518152602001856101200151815250856101000151866101400151876101600151611d59565b8160a001516001600160a01b031681602001517f438c3b12459c65275f9d92689e45742e4217ed48c982a87ea69b4fffe5945e8984608001518560000151866000015187602001516113b99190614233565b60608089015160e0808a01518a8401516040808d015181516001600160a01b03909a168a5263ffffffff98891660208b015296881690890152928616938701939093529390911660808501526001600160801b0390811660a08501521660c08301520160405180910390a35050565b6114636040518060a0016040528060008152602001600081526020016000815260200160006001600160a01b03168152602001600081525090565b60025460808201526004546001600160a01b0316606082015288156116505760005b60ff81168a111561164e576114d384848d8d8560ff168181106114b857634e487b7160e01b600052603260045260246000fd5b90506020020160208101906114cd91906136d2565b8861221e565b60208401819052818452906114e890886141e8565b6114f291906141d4565b82604001818152505061163c6040518061018001604052808960000135815260200189602001358152602001896040013581526020018960600135815260200189608001602081019061154591906136d2565b6001600160a01b031681526020018d8d8560ff1681811061157657634e487b7160e01b600052603260045260246000fd5b905060200201602081019061158b91906136d2565b6001600160a01b03168152604080860151602083015260e08b0135908201526060016115bf6101208b016101008c01613c07565b151581526020016115d86101408b016101208c016136d2565b6001600160a01b031681526020016115f46101408b018b613fdb565b8080601f016020809104026020016040519081016040528093929190818152602001838380828437600092019190915250505090825250602001610bbb6101608b018b613fdb565b80611646816142ca565b915050611485565b505b86156118605760005b60ff811688111561185e5760608201516001600160a01b031663e32616e6816383c6d1998c8c60ff87168181106116a057634e487b7160e01b600052603260045260246000fd5b90506020020160208101906116b591906136d2565b6040516001600160e01b031960e084901b1681526001600160a01b03909116600482015260240160206040518083038186803b1580156116f457600080fd5b505afa158015611708573d6000803e3d6000fd5b505050506040513d601f19601f8201168201806040525081019061172c9190613e5b565b6040518263ffffffff1660e01b815260040161174a91815260200190565b60006040518083038186803b15801561176257600080fd5b505afa158015611776573d6000803e3d6000fd5b505050506040513d6000823e601f3d908101601f1916820160405261179e919081019061370a565b50505081895250602088018290529094506117be935091508990506141e8565b6117c891906141d4565b82604001818152505061184c6040518061018001604052808960000135815260200189602001358152602001896040013581526020018960600135815260200189608001602081019061181b91906136d2565b6001600160a01b031681526020018b8b8560ff1681811061157657634e487b7160e01b600052603260045260246000fd5b80611856816142ca565b915050611659565b505b7f4582ab15ec80862410d6f395ef6393e4f2c846b49d1c461c9fb96149068b5e36816080015160016002546118959190614233565b6040805192835260208301919091520160405180910390a150505050505050505050565b60608101516040810151905160009182916118d491906141b5565b63ffffffff169050804210156118ea5750919050565b60006118f68242614233565b9050600061192b85604001516000015163ffffffff1686606001516060015163ffffffff168461192691906141d4565b612d7e565b905084606001516020015163ffffffff168560600151606001518660400151600001516119589190614207565b60608701516040810151905161196e91906141b5565b61197891906141b5565b63ffffffff16118015611998575084606001516020015163ffffffff1642115b156119ab575060408401515163ffffffff165b808560400151604001516001600160801b03166119c891906141e8565b8560400151602001516001600160801b03166119e4919061419d565b95945050505050565b6003546001600160a01b03168115611a8f576040517ff18d03cc0000000000000000000000000000000000000000000000000000000081526001600160a01b038781166004830152868116602483015285811660448301526064820185905282169063f18d03cc90608401600060405180830381600087803b158015611a7257600080fd5b505af1158015611a86573d6000803e3d6000fd5b50505050611b43565b6040517f97da6d300000000000000000000000000000000000000000000000000000000081526001600160a01b0387811660048301528681166024830152858116604483015260006064830152608482018590528216906397da6d309060a4016040805180830381600087803b158015611b0857600080fd5b505af1158015611b1c573d6000803e3d6000fd5b505050506040513d601f19601f82011682018060405250810190611b409190613e73565b50505b505050505050565b6003546000906001600160a01b03168215611c94576040517fda5139ca0000000000000000000000000000000000000000000000000000000081526001600160a01b038881166004830152602482018690526000604483015282169063da5139ca9060640160206040518083038186803b158015611bc857600080fd5b505afa158015611bdc573d6000803e3d6000fd5b505050506040513d601f19601f82011682018060405250810190611c009190613e5b565b6040517ff18d03cc0000000000000000000000000000000000000000000000000000000081526001600160a01b03898116600483015288811660248301528781166044830152606482018390529193509082169063f18d03cc90608401600060405180830381600087803b158015611c7757600080fd5b505af1158015611c8b573d6000803e3d6000fd5b50505050611d4f565b6001600160a01b03808216906302b9446c90891615611cb4576000611cb6565b855b6040516001600160e01b031960e084901b1681526001600160a01b03808c166004830152808b16602483015289166044820152606481018890526000608482015260a40160408051808303818588803b158015611d1257600080fd5b505af1158015611d26573d6000803e3d6000fd5b50505050506040513d601f19601f82011682018060405250810190611d4b9190613e73565b9250505b5095945050505050565b6040805160c08101909152600081526020810185600360200201518152602001604051806060016040528087600060098110611da557634e487b7160e01b600052603260045260246000fd5b602002015163ffffffff16815260200187600160098110611dd657634e487b7160e01b600052603260045260246000fd5b60200201516001600160801b0316815260200187600260098110611e0a57634e487b7160e01b600052603260045260246000fd5b60200201516001600160801b03168152508152602001604051806080016040528087600460098110611e4c57634e487b7160e01b600052603260045260246000fd5b602002015163ffffffff16815260200187600560098110611e7d57634e487b7160e01b600052603260045260246000fd5b602002015163ffffffff16815260200187600460098110611eae57634e487b7160e01b600052603260045260246000fd5b602002015160c0890151611ec29190614233565b63ffffffff168152602001876007602002015163ffffffff16815250815260200160405180604001604052808615156001151514611f01576000611f07565b60608901515b6001600160a01b03168152602001876008602002015181525081526020016040518060a0016040528085815260200184815260200188600060048110611f5d57634e487b7160e01b600052603260045260246000fd5b60200201516001600160a01b0316815260200188600160048110611f9157634e487b7160e01b600052603260045260246000fd5b60200201516001600160a01b0316815260200188600260048110611fc557634e487b7160e01b600052603260045260246000fd5b602090810291909101516001600160a01b03908116909252919092526000898152808252604090819020845181546001600160801b039182167fffffffffffffffffffffffffffffffff000000000000000000000000000000009182161783558685015160018401558684015180516002850180548389015186166401000000009081027fffffffffffffffffffffffff000000000000000000000000000000000000000092831663ffffffff958616171790925592870151600387018054919096169416939093179093556060808901518051600487018054838b015199840151939094015187166c01000000000000000000000000027fffffffffffffffffffffffffffffffff00000000ffffffffffffffffffffffff9388166801000000000000000002939093167fffffffffffffffffffffffffffffffff0000000000000000ffffffffffffffff9988169096027fffffffffffffffffffffffffffffffffffffffffffffffff000000000000000090941691909616179190911795909516919091179390931790556080850151805160058301805491909616931692909217909355810151600683015560a083015180518051919260078501926121919284920190612d94565b5060208281015180516121aa9260018501920190612d94565b5060408201516002820180547fffffffffffffffffffffffff00000000000000000000000000000000000000009081166001600160a01b0393841617909155606084015160038401805483169184169190911790556080909301516004909201805490931691161790555050505050505050565b600080612229612e18565b60ff841661263c576040516317ba7d8560e01b81527f7a8526bca00f0726b2fab8c3bfd5b00bfa84d07f111e48263b13de605eefcdda60048201526001600160a01b038816906317ba7d859060240160206040518083038186803b15801561229057600080fd5b505afa1580156122a4573d6000803e3d6000fd5b505050506040513d601f19601f820116820180604052508101906122c891906136ee565b6040517fbf4999940000000000000000000000000000000000000000000000000000000081526001600160a01b03898116600483015260248201899052919091169063bf4999949060440160006040518083038186803b15801561232b57600080fd5b505afa15801561233f573d6000803e3d6000fd5b505050506040513d6000823e601f3d908101601f19168201604052612367919081019061380f565b60608a01525050505060a0850191909152506080830152506040516317ba7d8560e01b81527feae11da953333a83b6467e2193334fb302549e1a42ad5797082aea1ab6be912060048201526000906001600160a01b038916906317ba7d859060240160206040518083038186803b1580156123e157600080fd5b505afa1580156123f5573d6000803e3d6000fd5b505050506040513d601f19601f8201168201806040525081019061241991906136ee565b6040517e75e7eb0000000000000000000000000000000000000000000000000000000081526001600160a01b038a81166004830152602482018a9052888116604483015291909116906275e7eb90606401604080518083038186803b15801561248157600080fd5b505afa158015612495573d6000803e3d6000fd5b505050506040513d601f19601f820116820180604052508101906124b991906139af565b604051632c9f4b5b60e11b81527fb12a3847d47fefceb164b75823af125f9aa82b76938df0ddf08c04cd314ba37c60048201529092508291506001600160a01b038a169063593e96b69060240160206040518083038186803b15801561251e57600080fd5b505afa158015612532573d6000803e3d6000fd5b505050506040513d601f19601f8201168201806040525081019061255691906136ee565b6001600160a01b0316639e3f2d908989600187606001516125779190614233565b6040516001600160e01b031960e086901b16815260048101939093526001600160a01b039091166024830152604482015260640160206040518083038186803b1580156125c357600080fd5b505afa1580156125d7573d6000803e3d6000fd5b505050506040513d601f19601f820116820180604052508101906125fb9190613e5b565b6126059190614233565b80835260808084015160608101805160408701529101519051909161262a91906141e8565b61263491906141d4565b825250612d69565b8360ff16600114156129ce576040516317ba7d8560e01b81527f0fd8cce4ef00a7a8c0c5f91194bc80f122deefe664dd2a2384687da62ab117d160048201526001600160a01b038816906317ba7d859060240160206040518083038186803b1580156126a757600080fd5b505afa1580156126bb573d6000803e3d6000fd5b505050506040513d601f19601f820116820180604052508101906126df91906136ee565b6040517f5cb752760000000000000000000000000000000000000000000000000000000081526001600160a01b038981166004830152602482018990529190911690635cb752769060440160006040518083038186803b15801561274257600080fd5b505afa158015612756573d6000803e3d6000fd5b505050506040513d6000823e601f3d908101601f1916820160405261277e91908101906139dc565b60608c01525060c08a01525050505060408086019390935250506001600160a01b0391821660e084015251632c9f4b5b60e11b81527f161fca6912f107b0f13c9c7275de7391b32d2ea1c52ffba65a3c961880a0c60f60048201529088169063593e96b69060240160206040518083038186803b1580156127fe57600080fd5b505afa158015612812573d6000803e3d6000fd5b505050506040513d601f19601f8201168201806040525081019061283691906136ee565b6001600160a01b0316610120820181905260e0820151606083015163faaf38b39161decd9161286790600190614233565b6040516001600160e01b031960e086901b1681526001600160a01b039384166004820152929091166024830152604482015260640160206040518083038186803b1580156128b457600080fd5b505afa1580156128c8573d6000803e3d6000fd5b505050506040513d601f19601f820116820180604052508101906128ec9190613e1c565b6001600160801b031681604001518261012001516001600160a01b031663faaf38b3888560e00151600187606001516129259190614233565b6040516001600160e01b031960e086901b1681526001600160a01b039384166004820152929091166024830152604482015260640160206040518083038186803b15801561297257600080fd5b505afa158015612986573d6000803e3d6000fd5b505050506040513d601f19601f820116820180604052508101906129aa9190613e1c565b6001600160801b03166129bd91906141e8565b6129c791906141d4565b8152612d69565b8360ff1660021415612d69576040516317ba7d8560e01b81527f72894213a5c7f56b36b2947fa6ea18963d6bb1a68746b46d7f552cca76e1a7a860048201526001600160a01b038816906317ba7d859060240160206040518083038186803b158015612a3957600080fd5b505afa158015612a4d573d6000803e3d6000fd5b505050506040513d601f19601f82011682018060405250810190612a7191906136ee565b6040517f5cb752760000000000000000000000000000000000000000000000000000000081526001600160a01b038981166004830152602482018990529190911690635cb752769060440160006040518083038186803b158015612ad457600080fd5b505afa158015612ae8573d6000803e3d6000fd5b505050506040513d6000823e601f3d908101601f19168201604052612b109190810190613d38565b506060870152505061016084015261018083015261014082018190526020015160408083019190915251632c9f4b5b60e11b81527f3909e87234f428ccb8748126e2c93f66a62f92a70d315fa5803dec6362be07ab60048201526001600160a01b0388169063593e96b69060240160206040518083038186803b158015612b9657600080fd5b505afa158015612baa573d6000803e3d6000fd5b505050506040513d601f19601f82011682018060405250810190612bce91906136ee565b6001600160a01b03166101a0820181905261014082015151606083015163faaf38b39161decd91612c0190600190614233565b6040516001600160e01b031960e086901b1681526001600160a01b039384166004820152929091166024830152604482015260640160206040518083038186803b158015612c4e57600080fd5b505afa158015612c62573d6000803e3d6000fd5b505050506040513d601f19601f82011682018060405250810190612c869190613e1c565b6001600160801b03168160400151826101a001516001600160a01b031663faaf38b3888561014001516000015160018760600151612cc49190614233565b6040516001600160e01b031960e086901b1681526001600160a01b039384166004820152929091166024830152604482015260640160206040518083038186803b158015612d1157600080fd5b505afa158015612d25573d6000803e3d6000fd5b505050506040513d601f19601f82011682018060405250810190612d499190613e1c565b6001600160801b0316612d5c91906141e8565b612d6691906141d4565b81525b80516040909101519097909650945050505050565b6000818310612d8d57816104ee565b5090919050565b828054612da09061427a565b90600052602060002090601f016020900481019282612dc25760008555612e08565b82601f10612ddb57805160ff1916838001178555612e08565b82800160010185558215612e08579182015b82811115612e08578251825591602001919060010190612ded565b50612e14929150613076565b5090565b60405180610200016040528060008152602001600081526020016000815260200160008152602001612ed1604051806101a0016040528060006001600160a01b031681526020016000815260200160008152602001600081526020016000815260200160001515815260200160006001600160a01b031681526020016000815260200160008152602001600081526020016000815260200160006001600160a01b0316815260200160006001600160a01b031681525090565b8152602001612f30604051806101200160405280600081526020016000815260200160008152602001600081526020016000815260200160001515815260200160006001600160a01b0316815260200160608152602001606081525090565b81526040805160c08101825260008082526020828101829052928201819052606082018190526080820181905260a0820152910190815260200160006001600160a01b031681526020016000815260200160006001600160a01b03168152602001612fce604051806080016040528060006001600160a01b03168152602001600081526020016000815260200160006001600160a01b031681525090565b815260200161302d604051806101200160405280600081526020016000815260200160008152602001600081526020016000815260200160001515815260200160006001600160a01b0316815260200160608152602001606081525090565b81526040805160a0810182526000808252602082810182905292820181905260608201819052608082015291019081526000602082018190526040820181905260609091015290565b5b80821115612e145760008155600101613077565b803561309681614340565b919050565b805161309681614340565b60008083601f8401126130b7578182fd5b50813567ffffffffffffffff8111156130ce578182fd5b6020830191508360208260051b85010111156130e957600080fd5b9250929050565b803561309681614358565b805161309681614358565b80516002811061309657600080fd5b80516005811061309657600080fd5b600082601f830112613134578081fd5b81356131476131428261414a565b614119565b81815284602083860101111561315b578283fd5b816020850160208301379081016020019190915292915050565b600082601f830112613185578081fd5b81516131936131428261414a565b8181528460208386010111156131a7578283fd5b6131b882602083016020870161424a565b949350505050565b600061018082840312156131d2578081fd5b50919050565b6000606082840312156131e9578081fd5b6040516060810167ffffffffffffffff828210818311171561320d5761320d61432a565b816040528293508451915061322182614340565b9082526020840151908082111561323757600080fd5b61324386838701613175565b6020840152604085015191508082111561325c57600080fd5b5061326985828601613175565b6040830152505092915050565b600060a08284031215613287578081fd5b61328f61403e565b9050815161329c81614358565b815260208201516132ac81614340565b80602083015250604082015160408201526060820151606082015260808201516132d581614340565b608082015292915050565b600061020082840312156132f2578081fd5b604051610100810181811067ffffffffffffffff821117156133165761331661432a565b60405290508061332583613106565b81526020830151602082015260408301516040820152606083015160608201526080830151608082015261335b60a084016130fb565b60a082015261336d8460c0850161338c565b60c08201526133808461016085016133ff565b60e08201525092915050565b600060a0828403121561339d578081fd5b6133a561403e565b905081516133b281614366565b8152602082015163ffffffff811681146133cb57600080fd5b602082015260408201516133de81614340565b80604083015250606082015160608201526080820151608082015292915050565b600060a08284031215613410578081fd5b61341861403e565b9050815161342581614358565b815260208201516133cb81614366565b600060c08284031215613446578081fd5b60405160c0810181811067ffffffffffffffff821117156134695761346961432a565b8060405250809150825161347c81614358565b8152602083015161348c81614340565b60208201526040838101519082015260608301516134a981614340565b606082015260808301516134bc81614358565b608082015260a08301516134cf81614340565b60a0919091015292915050565b6000608082840312156134ed578081fd5b6134f5614067565b90508151815260208201516020820152604082015160408201526060820151606082015292915050565b600060408284031215613530578081fd5b6040516040810181811067ffffffffffffffff821117156135535761355361432a565b604052825181526020928301519281019290925250919050565b6000610120828403121561357f578081fd5b61358761408a565b905081518152602082015160208201526040820151604082015260608201516060820152608082015160808201526135c160a083016130fb565b60a08201526135d260c0830161309b565b60c082015260e082015167ffffffffffffffff808211156135f257600080fd5b6135fe85838601613175565b60e08401526101009150818401518181111561361957600080fd5b61362586828701613175565b8385015250505092915050565b600060e08284031215613643578081fd5b61364b6140ae565b9050815167ffffffffffffffff8082111561366557600080fd5b61367185838601613175565b8352602084015191508082111561368757600080fd5b5061369484828501613175565b60208301525060408201516040820152606082015160608201526080820151608082015260a082015160a082015260c082015160c082015292915050565b6000602082840312156136e3578081fd5b81356104ee81614340565b6000602082840312156136ff578081fd5b81516104ee81614340565b6000806000806000806000806000806101408b8d031215613729578586fd5b6137328b61309b565b995060208b0151985060408b0151975060608b015167ffffffffffffffff8082111561375c578788fd5b6137688e838f01613175565b985060808d0151975060a08d0151965060c08d015191508082111561378b578586fd5b6137978e838f016131d8565b955060e08d01519150808211156137ac578485fd5b6137b88e838f01613175565b94506101008d01519150808211156137ce578384fd5b6137da8e838f01613175565b93506101208d01519150808211156137f0578283fd5b506137fd8d828e01613175565b9150509295989b9194979a5092959850565b6000806000806000806000806000898b036104a081121561382e578384fd5b8a5161383981614340565b99506101a0601f19820181131561384e578485fd5b6138566140d1565b915061386460208d0161309b565b825260408c0151602083015260608c0151604083015260808c0151606083015260a08c0151608083015261389a60c08d016130fb565b60a08301526138ab60e08d0161309b565b60c0830152610100808d015160e0840152610120808e0151828501526101409150818e01518185015250610160808e01518285015261018091506138f0828f0161309b565b908401526138ff8d830161309b565b90830152506101c08b015190985067ffffffffffffffff811115613921578384fd5b61392d8c828d0161356d565b97505061393e8b6101e08c016132e0565b955061394e8b6103e08c0161351f565b94506104208a015193506104408a0151925061396d6104608b01613115565b91506104808a015190509295985092959850929598565b60008060408385031215613996578182fd5b82356139a181614340565b946020939093013593505050565b600080604083850312156139c1578182fd5b82516139cc81614340565b6020939093015192949293505050565b60008060008060008060008060008060006102608c8e0312156139fd578485fd5b8b51613a0881614340565b809b505060208c0151995060408c0151985060608c0151975060808c0151613a2f81614340565b9650613a3d60a08d0161309b565b9550613a4b60c08d01613115565b945060e08c015167ffffffffffffffff811115613a66578182fd5b613a728e828f01613632565b945050613a838d6101008e01613435565b9250613a938d6101c08e016134dc565b91506102408c015190509295989b509295989b9093969950565b600080600080600080600080600060e08a8c031215613aca578283fd5b893567ffffffffffffffff80821115613ae1578485fd5b613aed8d838e016130a6565b909b50995060208c0135915080821115613b05578485fd5b613b118d838e016130a6565b909950975060408c0135915080821115613b29578485fd5b50613b368c828d016131c0565b95505060608a0135935060808a013560ff81168114613b53578384fd5b9250613b6160a08b0161308b565b915060c08a013590509295985092959850929598565b600080600080600060608688031215613b8e578283fd5b853567ffffffffffffffff80821115613ba5578485fd5b613bb189838a016130a6565b90975095506020880135915080821115613bc9578485fd5b613bd589838a016130a6565b90955093506040880135915080821115613bed578283fd5b50613bfa888289016131c0565b9150509295509295909350565b600060208284031215613c18578081fd5b81356104ee81614358565b600060208284031215613c34578081fd5b813567ffffffffffffffff80821115613c4b578283fd5b908301906101808286031215613c5f578283fd5b613c676140f5565b82358152602083013560208201526040830135604082015260608301356060820152613c956080840161308b565b6080820152613ca660a0840161308b565b60a082015260c083013560c082015260e083013560e0820152610100613ccd8185016130f0565b90820152610120613cdf84820161308b565b908201526101408381013583811115613cf6578586fd5b613d0288828701613124565b8284015250506101608084013583811115613d1b578586fd5b613d2788828701613124565b918301919091525095945050505050565b60008060008060008060008789036101e0811215613d54578182fd5b6080811215613d61578182fd5b50613d6a614067565b8851613d7581614340565b8082525060208901516020820152604089015160408201526060890151613d9b81614340565b60608201529650613daf8960808a01613276565b955061012088015167ffffffffffffffff811115613dcb578182fd5b613dd78a828b0161356d565b955050613de8896101408a0161351f565b9350613df7610180890161309b565b92506101a08801519150613e0e6101c08901613115565b905092959891949750929550565b600060208284031215613e2d578081fd5b81516001600160801b03811681146104ee578182fd5b600060208284031215613e54578081fd5b5035919050565b600060208284031215613e6c578081fd5b5051919050565b60008060408385031215613e85578182fd5b505080516020909101519092909150565b60008151808452613eae81602086016020860161424a565b601f01601f19169290920160200192915050565b6000815160a08452613ed760a0850182613e96565b905060208301518482036020860152613ef08282613e96565b91505060408301516001600160a01b03808216604087015280606086015116606087015280608086015116608087015250508091505092915050565b60006101806001600160801b03808a16845288602085015263ffffffff8089511660408601528160208a01511660608601528160408a01511660808601528088511660a08601528060208901511660c08601528060408901511660e0860152806060890151166101008601525050613fbb61012084018680516001600160a01b03168252602090810151910152565b80610160840152613fce81840185613ec2565b9998505050505050505050565b60008083357fffffffffffffffffffffffffffffffffffffffffffffffffffffffffffffffe184360301811261400f578283fd5b83018035915067ffffffffffffffff821115614029578283fd5b6020019150368190038213156130e957600080fd5b60405160a0810167ffffffffffffffff811182821017156140615761406161432a565b60405290565b6040516080810167ffffffffffffffff811182821017156140615761406161432a565b604051610120810167ffffffffffffffff811182821017156140615761406161432a565b60405160e0810167ffffffffffffffff811182821017156140615761406161432a565b6040516101a0810167ffffffffffffffff811182821017156140615761406161432a565b604051610180810167ffffffffffffffff811182821017156140615761406161432a565b604051601f8201601f1916810167ffffffffffffffff811182821017156141425761414261432a565b604052919050565b600067ffffffffffffffff8211156141645761416461432a565b50601f01601f191660200190565b60006001600160801b03808316818516808303821115614194576141946142fe565b01949350505050565b600082198211156141b0576141b06142fe565b500190565b600063ffffffff808316818516808303821115614194576141946142fe565b6000826141e3576141e3614314565b500490565b6000816000190483118215151615614202576142026142fe565b500290565b600063ffffffff8083168185168183048111821515161561422a5761422a6142fe565b02949350505050565b600082821015614245576142456142fe565b500390565b60005b8381101561426557818101518382015260200161424d565b83811115614274576000848401525b50505050565b600181811c9082168061428e57607f821691505b602082108114156131d257634e487b7160e01b600052602260045260246000fd5b60006000198214156142c3576142c36142fe565b5060010190565b600060ff821660ff8114156142e1576142e16142fe565b60010192915050565b6000826142f9576142f9614314565b500690565b634e487b7160e01b600052601160045260246000fd5b634e487b7160e01b600052601260045260246000fd5b634e487b7160e01b600052604160045260246000fd5b6001600160a01b038116811461435557600080fd5b50565b801515811461435557600080fd5b6004811061435557600080fdfea264697066735822122069427f8b525a9d92b03c548845a2c227e96b6ea31e9ed0a457ded08509f59e8764736f6c63430008040033",
  "linkReferences": {},
  "deployedLinkReferences": {}
}