{
  "_format": "hh-sol-artifact-1",
  "contractName": "ManualVestingERC721",
  "sourceName": "contracts/ManualVestingERC721.sol",
  "abi": [
    {
      "inputs": [
        {
          "internalType": "string",
          "name": "name",
          "type": "string"
        },
        {
          "internalType": "string",
          "name": "symbol",
          "type": "string"
        },
        {
          "internalType": "address",
          "name": "_vestAddr",
          "type": "address"
        },
        {
          "internalType": "address",
          "name": "_vestingERC721TokenURIHelper",
          "type": "address"
        },
        {
          "internalType": "address",
          "name": "_vestingERC721SVGHelper",
          "type": "address"
        }
      ],
      "stateMutability": "nonpayable",
      "type": "constructor"
    },
    {
      "inputs": [],
      "name": "INVALID_TOKEN_ID",
      "type": "error"
    },
    {
      "anonymous": false,
      "inputs": [
        {
          "indexed": true,
          "internalType": "address",
          "name": "owner",
          "type": "address"
        },
        {
          "indexed": true,
          "internalType": "address",
          "name": "spender",
          "type": "address"
        },
        {
          "indexed": true,
          "internalType": "uint256",
          "name": "id",
          "type": "uint256"
        }
      ],
      "name": "Approval",
      "type": "event"
    },
    {
      "anonymous": false,
      "inputs": [
        {
          "indexed": true,
          "internalType": "address",
          "name": "owner",
          "type": "address"
        },
        {
          "indexed": true,
          "internalType": "address",
          "name": "operator",
          "type": "address"
        },
        {
          "indexed": false,
          "internalType": "bool",
          "name": "approved",
          "type": "bool"
        }
      ],
      "name": "ApprovalForAll",
      "type": "event"
    },
    {
      "anonymous": false,
      "inputs": [
        {
          "indexed": true,
          "internalType": "address",
          "name": "from",
          "type": "address"
        },
        {
          "indexed": true,
          "internalType": "address",
          "name": "to",
          "type": "address"
        },
        {
          "indexed": true,
          "internalType": "uint256",
          "name": "id",
          "type": "uint256"
        }
      ],
      "name": "Transfer",
      "type": "event"
    },
    {
      "inputs": [],
      "name": "_owner",
      "outputs": [
        {
          "internalType": "address",
          "name": "",
          "type": "address"
        }
      ],
      "stateMutability": "view",
      "type": "function"
    },
    {
      "inputs": [
        {
          "internalType": "address",
          "name": "spender",
          "type": "address"
        },
        {
          "internalType": "uint256",
          "name": "id",
          "type": "uint256"
        }
      ],
      "name": "approve",
      "outputs": [],
      "stateMutability": "nonpayable",
      "type": "function"
    },
    {
      "inputs": [
        {
          "internalType": "address",
          "name": "owner",
          "type": "address"
        }
      ],
      "name": "balanceOf",
      "outputs": [
        {
          "internalType": "uint256",
          "name": "",
          "type": "uint256"
        }
      ],
      "stateMutability": "view",
      "type": "function"
    },
    {
      "inputs": [],
      "name": "contractURI",
      "outputs": [
        {
          "internalType": "string",
          "name": "",
          "type": "string"
        }
      ],
      "stateMutability": "pure",
      "type": "function"
    },
    {
      "inputs": [
        {
          "internalType": "uint256",
          "name": "",
          "type": "uint256"
        }
      ],
      "name": "getApproved",
      "outputs": [
        {
          "internalType": "address",
          "name": "",
          "type": "address"
        }
      ],
      "stateMutability": "view",
      "type": "function"
    },
    {
      "inputs": [
        {
          "internalType": "uint256",
          "name": "tokenId",
          "type": "uint256"
        }
      ],
      "name": "getSvg",
      "outputs": [
        {
          "internalType": "string",
          "name": "svg",
          "type": "string"
        }
      ],
      "stateMutability": "view",
      "type": "function"
    },
    {
      "inputs": [
        {
          "internalType": "address",
          "name": "",
          "type": "address"
        },
        {
          "internalType": "address",
          "name": "",
          "type": "address"
        }
      ],
      "name": "isApprovedForAll",
      "outputs": [
        {
          "internalType": "bool",
          "name": "",
          "type": "bool"
        }
      ],
      "stateMutability": "view",
      "type": "function"
    },
    {
      "inputs": [],
      "name": "maxTotalSupply",
      "outputs": [
        {
          "internalType": "uint256",
          "name": "",
          "type": "uint256"
        }
      ],
      "stateMutability": "view",
      "type": "function"
    },
    {
      "inputs": [],
      "name": "name",
      "outputs": [
        {
          "internalType": "string",
          "name": "",
          "type": "string"
        }
      ],
      "stateMutability": "view",
      "type": "function"
    },
    {
      "inputs": [
        {
          "internalType": "uint256",
          "name": "id",
          "type": "uint256"
        }
      ],
      "name": "ownerOf",
      "outputs": [
        {
          "internalType": "address",
          "name": "owner",
          "type": "address"
        }
      ],
      "stateMutability": "view",
      "type": "function"
    },
    {
      "inputs": [
        {
          "internalType": "address",
          "name": "to",
          "type": "address"
        }
      ],
      "name": "safeMint",
      "outputs": [
        {
          "internalType": "uint256",
          "name": "id",
          "type": "uint256"
        }
      ],
      "stateMutability": "nonpayable",
      "type": "function"
    },
    {
      "inputs": [
        {
          "internalType": "address",
          "name": "from",
          "type": "address"
        },
        {
          "internalType": "address",
          "name": "to",
          "type": "address"
        },
        {
          "internalType": "uint256",
          "name": "id",
          "type": "uint256"
        }
      ],
      "name": "safeTransferFrom",
      "outputs": [],
      "stateMutability": "nonpayable",
      "type": "function"
    },
    {
      "inputs": [
        {
          "internalType": "address",
          "name": "from",
          "type": "address"
        },
        {
          "internalType": "address",
          "name": "to",
          "type": "address"
        },
        {
          "internalType": "uint256",
          "name": "id",
          "type": "uint256"
        },
        {
          "internalType": "bytes",
          "name": "data",
          "type": "bytes"
        }
      ],
      "name": "safeTransferFrom",
      "outputs": [],
      "stateMutability": "nonpayable",
      "type": "function"
    },
    {
      "inputs": [
        {
          "internalType": "address",
          "name": "operator",
          "type": "address"
        },
        {
          "internalType": "bool",
          "name": "approved",
          "type": "bool"
        }
      ],
      "name": "setApprovalForAll",
      "outputs": [],
      "stateMutability": "nonpayable",
      "type": "function"
    },
    {
      "inputs": [
        {
          "internalType": "bytes4",
          "name": "interfaceId",
          "type": "bytes4"
        }
      ],
      "name": "supportsInterface",
      "outputs": [
        {
          "internalType": "bool",
          "name": "",
          "type": "bool"
        }
      ],
      "stateMutability": "view",
      "type": "function"
    },
    {
      "inputs": [],
      "name": "symbol",
      "outputs": [
        {
          "internalType": "string",
          "name": "",
          "type": "string"
        }
      ],
      "stateMutability": "view",
      "type": "function"
    },
    {
      "inputs": [
        {
          "internalType": "uint256",
          "name": "_tokenId",
          "type": "uint256"
        }
      ],
      "name": "tokenURI",
      "outputs": [
        {
          "internalType": "string",
          "name": "",
          "type": "string"
        }
      ],
      "stateMutability": "view",
      "type": "function"
    },
    {
      "inputs": [],
      "name": "totalSupply",
      "outputs": [
        {
          "internalType": "uint256",
          "name": "",
          "type": "uint256"
        }
      ],
      "stateMutability": "view",
      "type": "function"
    },
    {
      "inputs": [
        {
          "internalType": "address",
          "name": "from",
          "type": "address"
        },
        {
          "internalType": "address",
          "name": "to",
          "type": "address"
        },
        {
          "internalType": "uint256",
          "name": "id",
          "type": "uint256"
        }
      ],
      "name": "transferFrom",
      "outputs": [],
      "stateMutability": "nonpayable",
      "type": "function"
    },
    {
      "inputs": [],
      "name": "vestContrAddress",
      "outputs": [
        {
          "internalType": "address",
          "name": "",
          "type": "address"
        }
      ],
      "stateMutability": "view",
      "type": "function"
    },
    {
      "inputs": [],
      "name": "vestingERC721SVGHelper",
      "outputs": [
        {
          "internalType": "address",
          "name": "",
          "type": "address"
        }
      ],
      "stateMutability": "view",
      "type": "function"
    },
    {
      "inputs": [],
      "name": "vestingERC721TokenURIHelper",
      "outputs": [
        {
          "internalType": "address",
          "name": "",
          "type": "address"
        }
      ],
      "stateMutability": "view",
      "type": "function"
    }
  ],
  "bytecode": "0x60806040523480156200001157600080fd5b5060405162001c2038038062001c2083398101604081905262000034916200022d565b8451859085906200004d906000906020850190620000b7565b50805162000063906001906020840190620000b7565b5050600780546001600160a01b03199081163317909155600880546001600160a01b03968716908316179055600980549486169482169490941790935550600a8054919093169116179055506200031f9050565b828054620000c590620002cc565b90600052602060002090601f016020900481019282620000e9576000855562000134565b82601f106200010457805160ff191683800117855562000134565b8280016001018555821562000134579182015b828111156200013457825182559160200191906001019062000117565b506200014292915062000146565b5090565b5b8082111562000142576000815560010162000147565b80516001600160a01b03811681146200017557600080fd5b919050565b600082601f8301126200018b578081fd5b81516001600160401b0380821115620001a857620001a862000309565b604051601f8301601f19908116603f01168101908282118183101715620001d357620001d362000309565b81604052838152602092508683858801011115620001ef578485fd5b8491505b83821015620002125785820183015181830184015290820190620001f3565b838211156200022357848385830101525b9695505050505050565b600080600080600060a0868803121562000245578081fd5b85516001600160401b03808211156200025c578283fd5b6200026a89838a016200017a565b9650602088015191508082111562000280578283fd5b506200028f888289016200017a565b945050620002a0604087016200015d565b9250620002b0606087016200015d565b9150620002c0608087016200015d565b90509295509295909350565b600181811c90821680620002e157607f821691505b602082108114156200030357634e487b7160e01b600052602260045260246000fd5b50919050565b634e487b7160e01b600052604160045260246000fd5b6118f1806200032f6000396000f3fe608060405234801561001057600080fd5b50600436106101825760003560e01c806395d89b41116100d8578063b2bdfa7b1161008c578063c87b56dd11610066578063c87b56dd14610321578063e8a3d48514610334578063e985e9c51461033c57600080fd5b8063b2bdfa7b146102e8578063b88d4fde146102fb578063badb284f1461030e57600080fd5b80639f0f6c7b116100bd5780639f0f6c7b146102af578063a22cb465146102c2578063b0dc78fa146102d557600080fd5b806395d89b4114610294578063993782a51461029c57600080fd5b806323b872dd1161013a57806342842e0e1161011457806342842e0e1461025b5780636352211e1461026e57806370a082311461028157600080fd5b806323b872dd1461022c5780632ab4d0521461023f57806340d097c31461024857600080fd5b8063081812fc1161016b578063081812fc146101c4578063095ea7b31461020557806318160ddd1461021a57600080fd5b806301ffc9a71461018757806306fdde03146101af575b600080fd5b61019a6101953660046113eb565b61036a565b60405190151581526020015b60405180910390f35b6101b7610407565b6040516101a69190611592565b6101ed6101d23660046114cc565b6004602052600090815260409020546001600160a01b031681565b6040516001600160a01b0390911681526020016101a6565b6102186102133660046113c2565b610495565b005b600b545b6040519081526020016101a6565b61021861023a3660046112b7565b610598565b61021e600b5481565b61021e610256366004611264565b61079a565b6102186102693660046112b7565b6107e0565b6101ed61027c3660046114cc565b6108f4565b61021e61028f366004611264565b61095e565b6101b76109d2565b6008546101ed906001600160a01b031681565b600a546101ed906001600160a01b031681565b6102186102d0366004611388565b6109df565b6101b76102e33660046114cc565b610a69565b6007546101ed906001600160a01b031681565b6102186103093660046112f2565b610bba565b6009546101ed906001600160a01b031681565b6101b761032f3660046114cc565b610cbe565b6101b7610df0565b61019a61034a366004611285565b600560209081526000928352604080842090915290825290205460ff1681565b60007f01ffc9a7000000000000000000000000000000000000000000000000000000006001600160e01b0319831614806103cd57507f80ac58cd000000000000000000000000000000000000000000000000000000006001600160e01b03198316145b8061040157507f5b5e139f000000000000000000000000000000000000000000000000000000006001600160e01b03198316145b92915050565b600080546104149061164c565b80601f01602080910402602001604051908101604052809291908181526020018280546104409061164c565b801561048d5780601f106104625761010080835404028352916020019161048d565b820191906000526020600020905b81548152906001019060200180831161047057829003601f168201915b505050505081565b6000818152600260205260409020546001600160a01b0316338114806104de57506001600160a01b038116600090815260056020908152604080832033845290915290205460ff165b61052f5760405162461bcd60e51b815260206004820152600e60248201527f4e4f545f415554484f52495a454400000000000000000000000000000000000060448201526064015b60405180910390fd5b600082815260046020526040808220805473ffffffffffffffffffffffffffffffffffffffff19166001600160a01b0387811691821790925591518593918516917f8c5be1e5ebec7d5bd14f71427d1e84f3dd0314c0f7b2291e5b200ac8c7c3b92591a4505050565b6000818152600260205260409020546001600160a01b038481169116146106015760405162461bcd60e51b815260206004820152600a60248201527f57524f4e475f46524f4d000000000000000000000000000000000000000000006044820152606401610526565b6001600160a01b0382166106575760405162461bcd60e51b815260206004820152601160248201527f494e56414c49445f524543495049454e540000000000000000000000000000006044820152606401610526565b336001600160a01b038416148061069157506001600160a01b038316600090815260056020908152604080832033845290915290205460ff165b806106b257506000818152600460205260409020546001600160a01b031633145b6106fe5760405162461bcd60e51b815260206004820152600e60248201527f4e4f545f415554484f52495a45440000000000000000000000000000000000006044820152606401610526565b6001600160a01b03808416600081815260036020908152604080832080546000190190559386168083528483208054600101905585835260028252848320805473ffffffffffffffffffffffffffffffffffffffff199081168317909155600490925284832080549092169091559251849392917fddf252ad1be2c89b69c2b068fc378daa952ba7f163c4a11628f55a4df523b3ef91a4505050565b60006107aa600680546001019055565b60006107b560065490565b90506107c18382610e40565b6001600b60008282546107d491906115c5565b90915550909392505050565b6107eb838383610598565b6001600160a01b0382163b15806108a35750604051630a85bd0160e11b8082523360048301526001600160a01b03858116602484015260448301849052608060648401526000608484015290919084169063150b7a029060a401602060405180830381600087803b15801561085f57600080fd5b505af1158015610873573d6000803e3d6000fd5b505050506040513d601f19601f820116820180604052508101906108979190611407565b6001600160e01b031916145b6108ef5760405162461bcd60e51b815260206004820152601060248201527f554e534146455f524543495049454e54000000000000000000000000000000006044820152606401610526565b505050565b6000818152600260205260409020546001600160a01b0316806109595760405162461bcd60e51b815260206004820152600a60248201527f4e4f545f4d494e544544000000000000000000000000000000000000000000006044820152606401610526565b919050565b60006001600160a01b0382166109b65760405162461bcd60e51b815260206004820152600c60248201527f5a45524f5f4144445245535300000000000000000000000000000000000000006044820152606401610526565b506001600160a01b031660009081526003602052604090205490565b600180546104149061164c565b3360008181526005602090815260408083206001600160a01b0387168085529083529281902080547fffffffffffffffffffffffffffffffffffffffffffffffffffffffffffffff001686151590811790915590519081529192917f17307eab39ab6107e8899845ad3d59bd9653f200f220920489ca2b5937696c31910160405180910390a35050565b6008546040517f3427dd67000000000000000000000000000000000000000000000000000000008152306004820152602481018390526060916000916001600160a01b0390911690633427dd679060440160206040518083038186803b158015610ad257600080fd5b505afa158015610ae6573d6000803e3d6000fd5b505050506040513d601f19601f82011682018060405250810190610b0a91906114e4565b111561095957600a546008546040517f278b2425000000000000000000000000000000000000000000000000000000008152600481018590523060248201526001600160a01b03918216604482015291169063278b2425906064015b60006040518083038186803b158015610b7e57600080fd5b505afa158015610b92573d6000803e3d6000fd5b505050506040513d6000823e601f3d908101601f191682016040526104019190810190611423565b610bc5858585610598565b6001600160a01b0384163b1580610c6b5750604051630a85bd0160e11b808252906001600160a01b0386169063150b7a0290610c0d9033908a90899089908990600401611541565b602060405180830381600087803b158015610c2757600080fd5b505af1158015610c3b573d6000803e3d6000fd5b505050506040513d601f19601f82011682018060405250810190610c5f9190611407565b6001600160e01b031916145b610cb75760405162461bcd60e51b815260206004820152601060248201527f554e534146455f524543495049454e54000000000000000000000000000000006044820152606401610526565b5050505050565b6008546040517f3427dd67000000000000000000000000000000000000000000000000000000008152306004820152602481018390526060916000916001600160a01b0390911690633427dd679060440160206040518083038186803b158015610d2757600080fd5b505afa158015610d3b573d6000803e3d6000fd5b505050506040513d601f19601f82011682018060405250810190610d5f91906114e4565b11610d96576040517fb49aa3b500000000000000000000000000000000000000000000000000000000815260040160405180910390fd5b6009546008546040517f989b81f8000000000000000000000000000000000000000000000000000000008152600481018590526001600160a01b03918216602482015230604482015291169063989b81f890606401610b66565b60606000604051806101e001604052806101af81526020016116cd6101af91399050610e1b81610f4f565b604051602001610e2b91906114fc565b60405160208183030381529060405291505090565b610e4a828261111a565b6001600160a01b0382163b1580610eff5750604051630a85bd0160e11b80825233600483015260006024830181905260448301849052608060648401526084830152906001600160a01b0384169063150b7a029060a401602060405180830381600087803b158015610ebb57600080fd5b505af1158015610ecf573d6000803e3d6000fd5b505050506040513d601f19601f82011682018060405250810190610ef39190611407565b6001600160e01b031916145b610f4b5760405162461bcd60e51b815260206004820152601060248201527f554e534146455f524543495049454e54000000000000000000000000000000006044820152606401610526565b5050565b6060815160001415610f6f57505060408051602081019091526000815290565b600060405180606001604052806040815260200161187c6040913990506000600384516002610f9e91906115c5565b610fa891906115dd565b610fb39060046115fd565b90506000610fc28260206115c5565b67ffffffffffffffff811115610fe857634e487b7160e01b600052604160045260246000fd5b6040519080825280601f01601f191660200182016040528015611012576020820181803683370190505b509050818152600183018586518101602084015b818310156110805760039283018051603f601282901c811687015160f890811b8552600c83901c8216880151811b6001860152600683901c8216880151811b60028601529116860151901b93820193909352600401611026565b60038951066001811461109a57600281146110e45761110c565b7f3d3d0000000000000000000000000000000000000000000000000000000000007ffffffffffffffffffffffffffffffffffffffffffffffffffffffffffffffffe83015261110c565b7f3d000000000000000000000000000000000000000000000000000000000000006000198301525b509398975050505050505050565b6001600160a01b0382166111705760405162461bcd60e51b815260206004820152601160248201527f494e56414c49445f524543495049454e540000000000000000000000000000006044820152606401610526565b6000818152600260205260409020546001600160a01b0316156111d55760405162461bcd60e51b815260206004820152600e60248201527f414c52454144595f4d494e5445440000000000000000000000000000000000006044820152606401610526565b6001600160a01b0382166000818152600360209081526040808320805460010190558483526002909152808220805473ffffffffffffffffffffffffffffffffffffffff19168417905551839291907fddf252ad1be2c89b69c2b068fc378daa952ba7f163c4a11628f55a4df523b3ef908290a45050565b80356001600160a01b038116811461095957600080fd5b600060208284031215611275578081fd5b61127e8261124d565b9392505050565b60008060408385031215611297578081fd5b6112a08361124d565b91506112ae6020840161124d565b90509250929050565b6000806000606084860312156112cb578081fd5b6112d48461124d565b92506112e26020850161124d565b9150604084013590509250925092565b600080600080600060808688031215611309578081fd5b6113128661124d565b94506113206020870161124d565b935060408601359250606086013567ffffffffffffffff80821115611343578283fd5b818801915088601f830112611356578283fd5b813581811115611364578384fd5b896020828501011115611375578384fd5b9699959850939650602001949392505050565b6000806040838503121561139a578182fd5b6113a38361124d565b9150602083013580151581146113b7578182fd5b809150509250929050565b600080604083850312156113d4578182fd5b6113dd8361124d565b946020939093013593505050565b6000602082840312156113fc578081fd5b813561127e816116b3565b600060208284031215611418578081fd5b815161127e816116b3565b600060208284031215611434578081fd5b815167ffffffffffffffff8082111561144b578283fd5b818401915084601f83011261145e578283fd5b8151818111156114705761147061169d565b604051601f8201601f19908116603f011681019083821181831017156114985761149861169d565b816040528281528760208487010111156114b0578586fd5b6114c183602083016020880161161c565b979650505050505050565b6000602082840312156114dd578081fd5b5035919050565b6000602082840312156114f5578081fd5b5051919050565b7f646174613a6170706c69636174696f6e2f6a736f6e3b6261736536342c00000081526000825161153481601d85016020870161161c565b91909101601d0192915050565b60006001600160a01b03808816835280871660208401525084604083015260806060830152826080830152828460a084013781830160a090810191909152601f909201601f19160101949350505050565b60208152600082518060208401526115b181604085016020870161161c565b601f01601f19169190910160400192915050565b600082198211156115d8576115d8611687565b500190565b6000826115f857634e487b7160e01b81526012600452602481fd5b500490565b600081600019048311821515161561161757611617611687565b500290565b60005b8381101561163757818101518382015260200161161f565b83811115611646576000848401525b50505050565b600181811c9082168061166057607f821691505b6020821081141561168157634e487b7160e01b600052602260045260246000fd5b50919050565b634e487b7160e01b600052601160045260246000fd5b634e487b7160e01b600052604160045260246000fd5b6001600160e01b0319811681146116c957600080fd5b5056fe7b226e616d65223a202244414f5371756172652056657374696e67204d616e75616c222c226465736372697074696f6e223a22546865204e46547320696e207468652044414f5371756172652056657374696e67204d616e75616c20436f6c6c656374696f6e206172652067656e657261746564207468726f756768207468652056657374696e67204150502070726f76696465642062792044414f53717561726520496e63756261746f7220746f20726570726573656e742074686520726967687473206f662065616368206d616e75616c6c7920637265617465642056657374696e672e205468652062656e6566696369617279206f66207468652076657374696e672069732074686520686f6c646572206f6620746865204e46542c207768696368206d65616e7320696620746865204e4654206973207472616e736665727265642c207468652072656c617465642076657374696e67207269676874732077696c6c20616c736f206265207472616e736665727265642e222c22696d616765223a22222c2265787465726e616c5f6c696e6b223a2268747470733a2f2f64616f7371756172652e6669227d4142434445464748494a4b4c4d4e4f505152535455565758595a6162636465666768696a6b6c6d6e6f707172737475767778797a303132333435363738392b2fa264697066735822122004a330678b9939920dfa1ab8350ec57716e14f2c38208f63be10d29fd326f1ec64736f6c63430008040033",
  "linkReferences": {},
  "deployedLinkReferences": {}
}