{
  "_format": "hh-sol-artifact-1",
  "contractName": "ManualVesting",
  "sourceName": "contracts/ManualVesting.sol",
  "abi": [
    {
      "inputs": [
        {
          "internalType": "address",
          "name": "_bentoBoxAddr",
          "type": "address"
        },
        {
          "internalType": "address",
          "name": "_receiptNFTAddr",
          "type": "address"
        }
      ],
      "stateMutability": "nonpayable",
      "type": "constructor"
    },
    {
      "inputs": [],
      "name": "InValidVestingTimeParam",
      "type": "error"
    },
    {
      "inputs": [],
      "name": "NotOwner",
      "type": "error"
    },
    {
      "inputs": [],
      "name": "NotVestReceiver",
      "type": "error"
    },
    {
      "anonymous": false,
      "inputs": [
        {
          "indexed": true,
          "internalType": "uint256",
          "name": "vestId",
          "type": "uint256"
        },
        {
          "indexed": true,
          "internalType": "uint256",
          "name": "ownerAmount",
          "type": "uint256"
        },
        {
          "indexed": true,
          "internalType": "uint256",
          "name": "recipientAmount",
          "type": "uint256"
        },
        {
          "indexed": false,
          "internalType": "address",
          "name": "token",
          "type": "address"
        },
        {
          "indexed": false,
          "internalType": "bool",
          "name": "toBentoBox",
          "type": "bool"
        }
      ],
      "name": "CancelVesting",
      "type": "event"
    },
    {
      "anonymous": false,
      "inputs": [
        {
          "indexed": true,
          "internalType": "uint256",
          "name": "vestId",
          "type": "uint256"
        },
        {
          "indexed": false,
          "internalType": "address",
          "name": "token",
          "type": "address"
        },
        {
          "indexed": true,
          "internalType": "address",
          "name": "recipient",
          "type": "address"
        },
        {
          "indexed": false,
          "internalType": "uint32",
          "name": "start",
          "type": "uint32"
        },
        {
          "indexed": false,
          "internalType": "uint32",
          "name": "cliffDuration",
          "type": "uint32"
        },
        {
          "indexed": false,
          "internalType": "uint32",
          "name": "stepDuration",
          "type": "uint32"
        },
        {
          "indexed": false,
          "internalType": "uint32",
          "name": "steps",
          "type": "uint32"
        },
        {
          "indexed": false,
          "internalType": "uint128",
          "name": "cliffShares",
          "type": "uint128"
        },
        {
          "indexed": false,
          "internalType": "uint128",
          "name": "stepShares",
          "type": "uint128"
        }
      ],
      "name": "CreateVesting",
      "type": "event"
    },
    {
      "anonymous": false,
      "inputs": [
        {
          "indexed": true,
          "internalType": "uint256",
          "name": "vestId",
          "type": "uint256"
        },
        {
          "indexed": true,
          "internalType": "address",
          "name": "newOwner",
          "type": "address"
        }
      ],
      "name": "LogUpdateOwner",
      "type": "event"
    },
    {
      "anonymous": false,
      "inputs": [
        {
          "indexed": true,
          "internalType": "uint256",
          "name": "vestId",
          "type": "uint256"
        },
        {
          "indexed": true,
          "internalType": "address",
          "name": "token",
          "type": "address"
        },
        {
          "indexed": true,
          "internalType": "uint256",
          "name": "amount",
          "type": "uint256"
        },
        {
          "indexed": false,
          "internalType": "bool",
          "name": "toBentoBox",
          "type": "bool"
        }
      ],
      "name": "Withdraw",
      "type": "event"
    },
    {
      "inputs": [],
      "name": "PERCENTAGE_PRECISION",
      "outputs": [
        {
          "internalType": "uint256",
          "name": "",
          "type": "uint256"
        }
      ],
      "stateMutability": "view",
      "type": "function"
    },
    {
      "inputs": [
        {
          "internalType": "address[]",
          "name": "investors",
          "type": "address[]"
        },
        {
          "internalType": "address[]",
          "name": "holders",
          "type": "address[]"
        },
        {
          "components": [
            {
              "internalType": "uint256",
              "name": "startTime",
              "type": "uint256"
            },
            {
              "internalType": "uint256",
              "name": "cliffEndTime",
              "type": "uint256"
            },
            {
              "internalType": "uint256",
              "name": "endTime",
              "type": "uint256"
            },
            {
              "internalType": "uint256",
              "name": "vestingInterval",
              "type": "uint256"
            },
            {
              "internalType": "address",
              "name": "paybackToken",
              "type": "address"
            },
            {
              "internalType": "address",
              "name": "recipientAddr",
              "type": "address"
            },
            {
              "internalType": "uint256",
              "name": "depositAmount",
              "type": "uint256"
            },
            {
              "internalType": "uint256",
              "name": "cliffVestingAmount",
              "type": "uint256"
            },
            {
              "internalType": "bool",
              "name": "nftEnable",
              "type": "bool"
            },
            {
              "internalType": "address",
              "name": "erc721",
              "type": "address"
            },
            {
              "internalType": "string",
              "name": "name",
              "type": "string"
            },
            {
              "internalType": "string",
              "name": "description",
              "type": "string"
            }
          ],
          "internalType": "struct ManualVesting.CreateVestingParams",
          "name": "params",
          "type": "tuple"
        },
        {
          "internalType": "uint256",
          "name": "total",
          "type": "uint256"
        },
        {
          "internalType": "uint8",
          "name": "mode",
          "type": "uint8"
        },
        {
          "internalType": "address",
          "name": "daoAddr",
          "type": "address"
        },
        {
          "internalType": "bytes32",
          "name": "proposalId",
          "type": "bytes32"
        }
      ],
      "name": "batchCreate",
      "outputs": [],
      "stateMutability": "nonpayable",
      "type": "function"
    },
    {
      "inputs": [
        {
          "components": [
            {
              "internalType": "uint256",
              "name": "startTime",
              "type": "uint256"
            },
            {
              "internalType": "uint256",
              "name": "cliffEndTime",
              "type": "uint256"
            },
            {
              "internalType": "uint256",
              "name": "endTime",
              "type": "uint256"
            },
            {
              "internalType": "uint256",
              "name": "vestingInterval",
              "type": "uint256"
            },
            {
              "internalType": "address",
              "name": "paybackToken",
              "type": "address"
            },
            {
              "internalType": "address",
              "name": "recipientAddr",
              "type": "address"
            },
            {
              "internalType": "uint256",
              "name": "depositAmount",
              "type": "uint256"
            },
            {
              "internalType": "uint256",
              "name": "cliffVestingAmount",
              "type": "uint256"
            },
            {
              "internalType": "bool",
              "name": "nftEnable",
              "type": "bool"
            },
            {
              "internalType": "address",
              "name": "erc721",
              "type": "address"
            },
            {
              "internalType": "string",
              "name": "name",
              "type": "string"
            },
            {
              "internalType": "string",
              "name": "description",
              "type": "string"
            }
          ],
          "internalType": "struct ManualVesting.CreateVestingParams",
          "name": "params",
          "type": "tuple"
        }
      ],
      "name": "createVesting",
      "outputs": [],
      "stateMutability": "payable",
      "type": "function"
    },
    {
      "inputs": [
        {
          "internalType": "address",
          "name": "token",
          "type": "address"
        },
        {
          "internalType": "uint256",
          "name": "tokenId",
          "type": "uint256"
        }
      ],
      "name": "getRemainingPercentage",
      "outputs": [
        {
          "internalType": "uint256",
          "name": "",
          "type": "uint256"
        },
        {
          "internalType": "uint256",
          "name": "",
          "type": "uint256"
        },
        {
          "internalType": "uint256",
          "name": "",
          "type": "uint256"
        }
      ],
      "stateMutability": "view",
      "type": "function"
    },
    {
      "inputs": [
        {
          "internalType": "address",
          "name": "token",
          "type": "address"
        },
        {
          "internalType": "uint256",
          "name": "tokenId",
          "type": "uint256"
        }
      ],
      "name": "getVestIdByTokenId",
      "outputs": [
        {
          "internalType": "uint256",
          "name": "",
          "type": "uint256"
        }
      ],
      "stateMutability": "view",
      "type": "function"
    },
    {
      "inputs": [
        {
          "internalType": "address",
          "name": "",
          "type": "address"
        },
        {
          "internalType": "uint256",
          "name": "",
          "type": "uint256"
        }
      ],
      "name": "tokenIdToVestId",
      "outputs": [
        {
          "internalType": "uint256",
          "name": "",
          "type": "uint256"
        }
      ],
      "stateMutability": "view",
      "type": "function"
    },
    {
      "inputs": [
        {
          "internalType": "uint256",
          "name": "vestId",
          "type": "uint256"
        }
      ],
      "name": "vestBalance",
      "outputs": [
        {
          "internalType": "uint256",
          "name": "",
          "type": "uint256"
        }
      ],
      "stateMutability": "view",
      "type": "function"
    },
    {
      "inputs": [],
      "name": "vestIds",
      "outputs": [
        {
          "internalType": "uint256",
          "name": "",
          "type": "uint256"
        }
      ],
      "stateMutability": "view",
      "type": "function"
    },
    {
      "inputs": [
        {
          "internalType": "uint256",
          "name": "",
          "type": "uint256"
        }
      ],
      "name": "vests",
      "outputs": [
        {
          "internalType": "uint128",
          "name": "claimed",
          "type": "uint128"
        },
        {
          "internalType": "uint256",
          "name": "total",
          "type": "uint256"
        },
        {
          "components": [
            {
              "internalType": "uint32",
              "name": "steps",
              "type": "uint32"
            },
            {
              "internalType": "uint128",
              "name": "cliffShares",
              "type": "uint128"
            },
            {
              "internalType": "uint128",
              "name": "stepShares",
              "type": "uint128"
            }
          ],
          "internalType": "struct ManualVesting.StepInfo",
          "name": "stepInfo",
          "type": "tuple"
        },
        {
          "components": [
            {
              "internalType": "uint32",
              "name": "start",
              "type": "uint32"
            },
            {
              "internalType": "uint32",
              "name": "end",
              "type": "uint32"
            },
            {
              "internalType": "uint32",
              "name": "cliffDuration",
              "type": "uint32"
            },
            {
              "internalType": "uint32",
              "name": "stepDuration",
              "type": "uint32"
            }
          ],
          "internalType": "struct ManualVesting.TimeInfo",
          "name": "timeInfo",
          "type": "tuple"
        },
        {
          "components": [
            {
              "internalType": "address",
              "name": "nftToken",
              "type": "address"
            },
            {
              "internalType": "uint256",
              "name": "tokenId",
              "type": "uint256"
            }
          ],
          "internalType": "struct ManualVesting.VestNFTInfo",
          "name": "nftInfo",
          "type": "tuple"
        },
        {
          "components": [
            {
              "internalType": "string",
              "name": "name",
              "type": "string"
            },
            {
              "internalType": "string",
              "name": "description",
              "type": "string"
            },
            {
              "internalType": "address",
              "name": "owner",
              "type": "address"
            },
            {
              "internalType": "address",
              "name": "recipient",
              "type": "address"
            },
            {
              "internalType": "address",
              "name": "token",
              "type": "address"
            }
          ],
          "internalType": "struct ManualVesting.VestInfo",
          "name": "vestInfo",
          "type": "tuple"
        }
      ],
      "stateMutability": "view",
      "type": "function"
    },
    {
      "inputs": [
        {
          "internalType": "uint256",
          "name": "vestId",
          "type": "uint256"
        }
      ],
      "name": "withdraw",
      "outputs": [],
      "stateMutability": "nonpayable",
      "type": "function"
    }
  ],
  "bytecode": "0x60806040523480156200001157600080fd5b506040516200409038038062004090833981016040819052620000349162000088565b6001600255600380546001600160a01b039384166001600160a01b03199182161790915560048054929093169116179055620000bf565b80516001600160a01b03811681146200008357600080fd5b919050565b600080604083850312156200009b578182fd5b620000a6836200006b565b9150620000b6602084016200006b565b90509250929050565b613fc180620000cf6000396000f3fe6080604052600436106100b15760003560e01c806351def55611610069578063cbcf03051161004e578063cbcf030514610209578063ceba7c6d1461021c578063e256888f1461023c57600080fd5b806351def5561461019c5780637a4334e2146101ce57600080fd5b80632c29e1961161009a5780632c29e196146100ff5780632e1a7d4d146101425780633427dd671461016457600080fd5b806319f77171146100b65780632bcea736146100e9575b600080fd5b3480156100c257600080fd5b506100d66100d1366004613a55565b610258565b6040519081526020015b60405180910390f35b3480156100f557600080fd5b506100d660025481565b34801561010b57600080fd5b506100d661011a366004613628565b6001600160a01b03919091166000908152600160209081526040808320938352929052205490565b34801561014e57600080fd5b5061016261015d366004613a55565b6104ca565b005b34801561017057600080fd5b506100d661017f366004613628565b600160209081526000928352604080842090915290825290205481565b3480156101a857600080fd5b506101bc6101b7366004613a55565b61092b565b6040516100e096959493929190613b3e565b3480156101da57600080fd5b506101ee6101e9366004613628565b610b5a565b604080519384526020840192909252908201526060016100e0565b610162610217366004613835565b610c16565b34801561022857600080fd5b50610162610237366004613751565b6110f4565b34801561024857600080fd5b506100d6670de0b6b3a764000081565b600081815260208181526040808320815160c08101835281546001600160801b039081168252600183015482860152835160608082018652600285015463ffffffff8082168452640100000000918290048516848a015260038701549094168388015284870192909252855160808082018852600487015480861683529384048516828a01526801000000000000000084048516828901526c01000000000000000000000000909304909316838201528301919091528351808501855260058401546001600160a01b03168152600684015495810195909552810193909352815160a081810190935260078201805486959485019291908290829061035c90613e8c565b80601f016020809104026020016040519081016040528092919081815260200182805461038890613e8c565b80156103d55780601f106103aa576101008083540402835291602001916103d5565b820191906000526020600020905b8154815290600101906020018083116103b857829003601f168201915b505050505081526020016001820180546103ee90613e8c565b80601f016020809104026020016040519081016040528092919081815260200182805461041a90613e8c565b80156104675780601f1061043c57610100808354040283529160200191610467565b820191906000526020600020905b81548152906001019060200180831161044a57829003601f168201915b505050918352505060028201546001600160a01b03908116602083015260038301548116604083015260049092015490911660609091015290525080519091506001600160801b03166104b982611564565b6104c39190613e45565b9392505050565b6000818152602081905260409020600a81015460058201546001600160a01b039182169116156105d657600582015460068301546040517f6352211e000000000000000000000000000000000000000000000000000000008152600481019190915233916001600160a01b031690636352211e9060240160206040518083038186803b15801561055957600080fd5b505afa15801561056d573d6000803e3d6000fd5b505050506040513d601f19601f820116820180604052508101906105919190613392565b6001600160a01b0316146105d1576040517fe1c6117100000000000000000000000000000000000000000000000000000000815260040160405180910390fd5b610618565b6001600160a01b0381163314610618576040517fe1c6117100000000000000000000000000000000000000000000000000000000815260040160405180910390fd5b81546040805160c0810182526001600160801b039283168082526001860154602080840191909152835160608082018652600289015463ffffffff80821684526401000000009182900489168486015260038b0154909816838801528587019290925285516080808201885260048b0154808a1683529384048916828601526801000000000000000084048916828901526c01000000000000000000000000909304909716878201528401959095528351808501855260058801546001600160a01b0316815260068801549181019190915293820193909352815160a08181019093526007860180546000959461086b94938993918501929091908290829061072090613e8c565b80601f016020809104026020016040519081016040528092919081815260200182805461074c90613e8c565b80156107995780601f1061076e57610100808354040283529160200191610799565b820191906000526020600020905b81548152906001019060200180831161077c57829003601f168201915b505050505081526020016001820180546107b290613e8c565b80601f01602080910402602001604051908101604052809291908181526020018280546107de90613e8c565b801561082b5780601f106108005761010080835404028352916020019161082b565b820191906000526020600020905b81548152906001019060200180831161080e57829003601f168201915b505050918352505060028201546001600160a01b039081166020830152600383015481166040830152600490920154909116606090910152905250611564565b6108759190613e45565b9050806108825750505050565b82548190849060009061089f9084906001600160801b0316613d84565b82546001600160801b039182166101009390930a928302919092021990911617905550600b8301546108de906001600160a01b03163084846000611698565b600b8301546040516000815282916001600160a01b03169086907fff942d249898505febb2a9a00118e27567c084b9497d0aa3ba5e332c235b4f389060200160405180910390a450505050565b6000602081815291815260409081902080546001820154835160608082018652600285015463ffffffff80821684526001600160801b03640100000000928390048116858b015260038801548116858a01528851608081018a52600489015480841682529384048316818c01526801000000000000000084048316818b01526c01000000000000000000000000909304909116928201929092528651808801885260058701546001600160a01b03168152600687015498810198909852865160a08101909752600786018054929095169793969295909490929182908290610a1290613e8c565b80601f0160208091040260200160405190810160405280929190818152602001828054610a3e90613e8c565b8015610a8b5780601f10610a6057610100808354040283529160200191610a8b565b820191906000526020600020905b815481529060010190602001808311610a6e57829003601f168201915b50505050508152602001600182018054610aa490613e8c565b80601f0160208091040260200160405190810160405280929190818152602001828054610ad090613e8c565b8015610b1d5780601f10610af257610100808354040283529160200191610b1d565b820191906000526020600020905b815481529060010190602001808311610b0057829003601f168201915b505050918352505060028201546001600160a01b039081166020830152600383015481166040830152600490920154909116606090910152905086565b6000808080808080610b8f89896001600160a01b03919091166000908152600160209081526040808320938352929052205490565b90508015610c075760008181526020819052604090208054600190910154610bc0916001600160801b031690613e45565b60008281526020819052604090206001810154905491945092508290610bef906001600160801b031682613e45565b610bfa906064613dfa565b610c049190613de6565b93505b50919450925090509250925092565b610c87604051806101400160405280600081526020016000815260200160006001600160801b0316815260200160006001600160801b031681526020016000815260200160008152602001600081526020016000815260200160006001600160a01b03168152602001600081525090565b81511580610c9757506020820151155b80610ca457506040820151155b80610cb157506060820151155b15610ce8576040517f22fb5f7400000000000000000000000000000000000000000000000000000000815260040160405180910390fd5b610cfe826080015133308560c0015160006117f6565b815260208201516040830151610d149190613e45565b608082018190526060830151610d2991613de6565b60e08201526060820151608082015111610d4557600160e08201525b816060015181608001511115610dcb5780608001518260600151610d699190613f02565b610d875781606001518160800151610d819190613de6565b60e08201525b806080015182606001518260e00151610da09190613dfa565b1015610dcb5781606001518160800151610dba9190613de6565b610dc5906001613daf565b60e08201525b670de0b6b3a76400008260e001518360c00151610de89190613dfa565b610df29190613de6565b6001600160801b03166060820181905260e082015182519091610e1491613e45565b610e1e9190613de6565b6001600160801b0316604082015260028054906000610e3c83613ec7565b90915550602082015261010082015115610f275761012082015160a08301516040517f40d097c30000000000000000000000000000000000000000000000000000000081526001600160a01b0391821660048201529116906340d097c390602401602060405180830381600087803b158015610eb757600080fd5b505af1158015610ecb573d6000803e3d6000fd5b505050506040513d601f19601f82011682018060405250810190610eef9190613a6d565b610120808301918252602080840151918501516001600160a01b03166000908152600182526040808220945182529390915291909120555b61103381602001516040518060800160405280336001600160a01b03166001600160a01b031681526020018560a001516001600160a01b03166001600160a01b0316815260200185608001516001600160a01b03166001600160a01b031681526020018561012001516001600160a01b03166001600160a01b03168152506040518061012001604052808560e00151815260200185606001516001600160801b0316815260200185604001516001600160801b031681526020018660c00151815260200186600001518152602001866040015181526020018660200151815260200186606001518152602001856101200151815250856101000151866101400151876101600151611a04565b8160a001516001600160a01b031681602001517f438c3b12459c65275f9d92689e45742e4217ed48c982a87ea69b4fffe5945e8984608001518560000151866000015187602001516110859190613e45565b60608089015160e0808a01518a8401516040808d015181516001600160a01b03909a168a5263ffffffff98891660208b015296881690890152928616938701939093529390911660808501526001600160801b0390811660a08501521660c08301520160405180910390a35050565b611128604051806080016040528060008152602001600081526020016000815260200160006001600160a01b031681525090565b6004546001600160a01b0316606082015288156113485760005b60ff81168a11156113465761119084848d8d8560ff1681811061117557634e487b7160e01b600052603260045260246000fd5b905060200201602081019061118a9190613376565b88611ec9565b60208401819052818452906111a59088613dfa565b6111af9190613de6565b826040018181525050611334604051806101800160405280896000013581526020018960200135815260200189604001358152602001896060013581526020018960800160208101906112029190613376565b6001600160a01b031681526020018d8d8560ff1681811061123357634e487b7160e01b600052603260045260246000fd5b90506020020160208101906112489190613376565b6001600160a01b03168152604080860151602083015260e08b01359082015260600161127c6101208b016101008c01613819565b151581526020016112956101408b016101208c01613376565b6001600160a01b031681526020016112b16101408b018b613bed565b8080601f0160208091040260200160405190810160405280939291908181526020018383808284376000920191909152505050908252506020016112f96101608b018b613bed565b8080601f0160208091040260200160405190810160405280939291908181526020018383808284376000920191909152505050915250610c16565b8061133e81613ee2565b915050611142565b505b86156115585760005b60ff81168811156115565760608201516001600160a01b031663e32616e6816383c6d1998c8c60ff871681811061139857634e487b7160e01b600052603260045260246000fd5b90506020020160208101906113ad9190613376565b6040516001600160e01b031960e084901b1681526001600160a01b03909116600482015260240160206040518083038186803b1580156113ec57600080fd5b505afa158015611400573d6000803e3d6000fd5b505050506040513d601f19601f820116820180604052508101906114249190613a6d565b6040518263ffffffff1660e01b815260040161144291815260200190565b60006040518083038186803b15801561145a57600080fd5b505afa15801561146e573d6000803e3d6000fd5b505050506040513d6000823e601f3d908101601f1916820160405261149691908101906133ae565b50505081895250602088018290529094506114b693509150899050613dfa565b6114c09190613de6565b826040018181525050611544604051806101800160405280896000013581526020018960200135815260200189604001358152602001896060013581526020018960800160208101906115139190613376565b6001600160a01b031681526020018b8b8560ff1681811061123357634e487b7160e01b600052603260045260246000fd5b8061154e81613ee2565b915050611351565b505b50505050505050505050565b606081015160408101519051600091829161157f9190613dc7565b63ffffffff169050804210156115955750919050565b60006115a18242613e45565b905060006115d685604001516000015163ffffffff1686606001516060015163ffffffff16846115d19190613de6565b612a29565b905084606001516020015163ffffffff168560600151606001518660400151600001516116039190613e19565b6060870151604081015190516116199190613dc7565b6116239190613dc7565b63ffffffff16118015611643575084606001516020015163ffffffff1642115b15611656575060408401515163ffffffff165b808560400151604001516001600160801b03166116739190613dfa565b8560400151602001516001600160801b031661168f9190613daf565b95945050505050565b6003546001600160a01b0316811561173a576040517ff18d03cc0000000000000000000000000000000000000000000000000000000081526001600160a01b038781166004830152868116602483015285811660448301526064820185905282169063f18d03cc90608401600060405180830381600087803b15801561171d57600080fd5b505af1158015611731573d6000803e3d6000fd5b505050506117ee565b6040517f97da6d300000000000000000000000000000000000000000000000000000000081526001600160a01b0387811660048301528681166024830152858116604483015260006064830152608482018590528216906397da6d309060a4016040805180830381600087803b1580156117b357600080fd5b505af11580156117c7573d6000803e3d6000fd5b505050506040513d601f19601f820116820180604052508101906117eb9190613a85565b50505b505050505050565b6003546000906001600160a01b0316821561193f576040517fda5139ca0000000000000000000000000000000000000000000000000000000081526001600160a01b038881166004830152602482018690526000604483015282169063da5139ca9060640160206040518083038186803b15801561187357600080fd5b505afa158015611887573d6000803e3d6000fd5b505050506040513d601f19601f820116820180604052508101906118ab9190613a6d565b6040517ff18d03cc0000000000000000000000000000000000000000000000000000000081526001600160a01b03898116600483015288811660248301528781166044830152606482018390529193509082169063f18d03cc90608401600060405180830381600087803b15801561192257600080fd5b505af1158015611936573d6000803e3d6000fd5b505050506119fa565b6001600160a01b03808216906302b9446c9089161561195f576000611961565b855b6040516001600160e01b031960e084901b1681526001600160a01b03808c166004830152808b16602483015289166044820152606481018890526000608482015260a40160408051808303818588803b1580156119bd57600080fd5b505af11580156119d1573d6000803e3d6000fd5b50505050506040513d601f19601f820116820180604052508101906119f69190613a85565b9250505b5095945050505050565b6040805160c08101909152600081526020810185600360200201518152602001604051806060016040528087600060098110611a5057634e487b7160e01b600052603260045260246000fd5b602002015163ffffffff16815260200187600160098110611a8157634e487b7160e01b600052603260045260246000fd5b60200201516001600160801b0316815260200187600260098110611ab557634e487b7160e01b600052603260045260246000fd5b60200201516001600160801b03168152508152602001604051806080016040528087600460098110611af757634e487b7160e01b600052603260045260246000fd5b602002015163ffffffff16815260200187600560098110611b2857634e487b7160e01b600052603260045260246000fd5b602002015163ffffffff16815260200187600460098110611b5957634e487b7160e01b600052603260045260246000fd5b602002015160c0890151611b6d9190613e45565b63ffffffff168152602001876007602002015163ffffffff16815250815260200160405180604001604052808615156001151514611bac576000611bb2565b60608901515b6001600160a01b03168152602001876008602002015181525081526020016040518060a0016040528085815260200184815260200188600060048110611c0857634e487b7160e01b600052603260045260246000fd5b60200201516001600160a01b0316815260200188600160048110611c3c57634e487b7160e01b600052603260045260246000fd5b60200201516001600160a01b0316815260200188600260048110611c7057634e487b7160e01b600052603260045260246000fd5b602090810291909101516001600160a01b03908116909252919092526000898152808252604090819020845181546001600160801b039182167fffffffffffffffffffffffffffffffff000000000000000000000000000000009182161783558685015160018401558684015180516002850180548389015186166401000000009081027fffffffffffffffffffffffff000000000000000000000000000000000000000092831663ffffffff958616171790925592870151600387018054919096169416939093179093556060808901518051600487018054838b015199840151939094015187166c01000000000000000000000000027fffffffffffffffffffffffffffffffff00000000ffffffffffffffffffffffff9388166801000000000000000002939093167fffffffffffffffffffffffffffffffff0000000000000000ffffffffffffffff9988169096027fffffffffffffffffffffffffffffffffffffffffffffffff000000000000000090941691909616179190911795909516919091179390931790556080850151805160058301805491909616931692909217909355810151600683015560a08301518051805191926007850192611e3c9284920190612a3f565b506020828101518051611e559260018501920190612a3f565b5060408201516002820180547fffffffffffffffffffffffff00000000000000000000000000000000000000009081166001600160a01b0393841617909155606084015160038401805483169184169190911790556080909301516004909201805490931691161790555050505050505050565b600080611ed4612ac3565b60ff84166122e7576040516317ba7d8560e01b81527f7a8526bca00f0726b2fab8c3bfd5b00bfa84d07f111e48263b13de605eefcdda60048201526001600160a01b038816906317ba7d859060240160206040518083038186803b158015611f3b57600080fd5b505afa158015611f4f573d6000803e3d6000fd5b505050506040513d601f19601f82011682018060405250810190611f739190613392565b6040517fbf4999940000000000000000000000000000000000000000000000000000000081526001600160a01b03898116600483015260248201899052919091169063bf4999949060440160006040518083038186803b158015611fd657600080fd5b505afa158015611fea573d6000803e3d6000fd5b505050506040513d6000823e601f3d908101601f1916820160405261201291908101906134b3565b60608a01525050505060a0850191909152506080830152506040516317ba7d8560e01b81527feae11da953333a83b6467e2193334fb302549e1a42ad5797082aea1ab6be912060048201526000906001600160a01b038916906317ba7d859060240160206040518083038186803b15801561208c57600080fd5b505afa1580156120a0573d6000803e3d6000fd5b505050506040513d601f19601f820116820180604052508101906120c49190613392565b6040517e75e7eb0000000000000000000000000000000000000000000000000000000081526001600160a01b038a81166004830152602482018a9052888116604483015291909116906275e7eb90606401604080518083038186803b15801561212c57600080fd5b505afa158015612140573d6000803e3d6000fd5b505050506040513d601f19601f820116820180604052508101906121649190613653565b604051632c9f4b5b60e11b81527fb12a3847d47fefceb164b75823af125f9aa82b76938df0ddf08c04cd314ba37c60048201529092508291506001600160a01b038a169063593e96b69060240160206040518083038186803b1580156121c957600080fd5b505afa1580156121dd573d6000803e3d6000fd5b505050506040513d601f19601f820116820180604052508101906122019190613392565b6001600160a01b0316639e3f2d908989600187606001516122229190613e45565b6040516001600160e01b031960e086901b16815260048101939093526001600160a01b039091166024830152604482015260640160206040518083038186803b15801561226e57600080fd5b505afa158015612282573d6000803e3d6000fd5b505050506040513d601f19601f820116820180604052508101906122a69190613a6d565b6122b09190613e45565b8083526080808401516060810180516040870152910151905190916122d59190613dfa565b6122df9190613de6565b825250612a14565b8360ff1660011415612679576040516317ba7d8560e01b81527f0fd8cce4ef00a7a8c0c5f91194bc80f122deefe664dd2a2384687da62ab117d160048201526001600160a01b038816906317ba7d859060240160206040518083038186803b15801561235257600080fd5b505afa158015612366573d6000803e3d6000fd5b505050506040513d601f19601f8201168201806040525081019061238a9190613392565b6040517f5cb752760000000000000000000000000000000000000000000000000000000081526001600160a01b038981166004830152602482018990529190911690635cb752769060440160006040518083038186803b1580156123ed57600080fd5b505afa158015612401573d6000803e3d6000fd5b505050506040513d6000823e601f3d908101601f191682016040526124299190810190613680565b60608c01525060c08a01525050505060408086019390935250506001600160a01b0391821660e084015251632c9f4b5b60e11b81527f161fca6912f107b0f13c9c7275de7391b32d2ea1c52ffba65a3c961880a0c60f60048201529088169063593e96b69060240160206040518083038186803b1580156124a957600080fd5b505afa1580156124bd573d6000803e3d6000fd5b505050506040513d601f19601f820116820180604052508101906124e19190613392565b6001600160a01b0316610120820181905260e0820151606083015163faaf38b39161decd9161251290600190613e45565b6040516001600160e01b031960e086901b1681526001600160a01b039384166004820152929091166024830152604482015260640160206040518083038186803b15801561255f57600080fd5b505afa158015612573573d6000803e3d6000fd5b505050506040513d601f19601f820116820180604052508101906125979190613a2e565b6001600160801b031681604001518261012001516001600160a01b031663faaf38b3888560e00151600187606001516125d09190613e45565b6040516001600160e01b031960e086901b1681526001600160a01b039384166004820152929091166024830152604482015260640160206040518083038186803b15801561261d57600080fd5b505afa158015612631573d6000803e3d6000fd5b505050506040513d601f19601f820116820180604052508101906126559190613a2e565b6001600160801b03166126689190613dfa565b6126729190613de6565b8152612a14565b8360ff1660021415612a14576040516317ba7d8560e01b81527f72894213a5c7f56b36b2947fa6ea18963d6bb1a68746b46d7f552cca76e1a7a860048201526001600160a01b038816906317ba7d859060240160206040518083038186803b1580156126e457600080fd5b505afa1580156126f8573d6000803e3d6000fd5b505050506040513d601f19601f8201168201806040525081019061271c9190613392565b6040517f5cb752760000000000000000000000000000000000000000000000000000000081526001600160a01b038981166004830152602482018990529190911690635cb752769060440160006040518083038186803b15801561277f57600080fd5b505afa158015612793573d6000803e3d6000fd5b505050506040513d6000823e601f3d908101601f191682016040526127bb919081019061394a565b506060870152505061016084015261018083015261014082018190526020015160408083019190915251632c9f4b5b60e11b81527f3909e87234f428ccb8748126e2c93f66a62f92a70d315fa5803dec6362be07ab60048201526001600160a01b0388169063593e96b69060240160206040518083038186803b15801561284157600080fd5b505afa158015612855573d6000803e3d6000fd5b505050506040513d601f19601f820116820180604052508101906128799190613392565b6001600160a01b03166101a0820181905261014082015151606083015163faaf38b39161decd916128ac90600190613e45565b6040516001600160e01b031960e086901b1681526001600160a01b039384166004820152929091166024830152604482015260640160206040518083038186803b1580156128f957600080fd5b505afa15801561290d573d6000803e3d6000fd5b505050506040513d601f19601f820116820180604052508101906129319190613a2e565b6001600160801b03168160400151826101a001516001600160a01b031663faaf38b388856101400151600001516001876060015161296f9190613e45565b6040516001600160e01b031960e086901b1681526001600160a01b039384166004820152929091166024830152604482015260640160206040518083038186803b1580156129bc57600080fd5b505afa1580156129d0573d6000803e3d6000fd5b505050506040513d601f19601f820116820180604052508101906129f49190613a2e565b6001600160801b0316612a079190613dfa565b612a119190613de6565b81525b80516040909101519097909650945050505050565b6000818310612a3857816104c3565b5090919050565b828054612a4b90613e8c565b90600052602060002090601f016020900481019282612a6d5760008555612ab3565b82601f10612a8657805160ff1916838001178555612ab3565b82800160010185558215612ab3579182015b82811115612ab3578251825591602001919060010190612a98565b50612abf929150612d21565b5090565b60405180610200016040528060008152602001600081526020016000815260200160008152602001612b7c604051806101a0016040528060006001600160a01b031681526020016000815260200160008152602001600081526020016000815260200160001515815260200160006001600160a01b031681526020016000815260200160008152602001600081526020016000815260200160006001600160a01b0316815260200160006001600160a01b031681525090565b8152602001612bdb604051806101200160405280600081526020016000815260200160008152602001600081526020016000815260200160001515815260200160006001600160a01b0316815260200160608152602001606081525090565b81526040805160c08101825260008082526020828101829052928201819052606082018190526080820181905260a0820152910190815260200160006001600160a01b031681526020016000815260200160006001600160a01b03168152602001612c79604051806080016040528060006001600160a01b03168152602001600081526020016000815260200160006001600160a01b031681525090565b8152602001612cd8604051806101200160405280600081526020016000815260200160008152602001600081526020016000815260200160001515815260200160006001600160a01b0316815260200160608152602001606081525090565b81526040805160a0810182526000808252602082810182905292820181905260608201819052608082015291019081526000602082018190526040820181905260609091015290565b5b80821115612abf5760008155600101612d22565b8035612d4181613f58565b919050565b8051612d4181613f58565b60008083601f840112612d62578182fd5b50813567ffffffffffffffff811115612d79578182fd5b6020830191508360208260051b8501011115612d9457600080fd5b9250929050565b8035612d4181613f70565b8051612d4181613f70565b805160028110612d4157600080fd5b805160058110612d4157600080fd5b600082601f830112612ddf578081fd5b8135612df2612ded82613d5c565b613d2b565b818152846020838601011115612e06578283fd5b816020850160208301379081016020019190915292915050565b600082601f830112612e30578081fd5b8151612e3e612ded82613d5c565b818152846020838601011115612e52578283fd5b612e63826020830160208701613e5c565b949350505050565b600060608284031215612e7c578081fd5b6040516060810167ffffffffffffffff8282108183111715612ea057612ea0613f42565b8160405282935084519150612eb482613f58565b90825260208401519080821115612eca57600080fd5b612ed686838701612e20565b60208401526040850151915080821115612eef57600080fd5b50612efc85828601612e20565b6040830152505092915050565b600060a08284031215612f1a578081fd5b612f22613c50565b90508151612f2f81613f70565b81526020820151612f3f81613f58565b8060208301525060408201516040820152606082015160608201526080820151612f6881613f58565b608082015292915050565b60006102008284031215612f85578081fd5b604051610100810181811067ffffffffffffffff82111715612fa957612fa9613f42565b604052905080612fb883612db1565b815260208301516020820152604083015160408201526060830151606082015260808301516080820152612fee60a08401612da6565b60a08201526130008460c0850161301f565b60c0820152613013846101608501613092565b60e08201525092915050565b600060a08284031215613030578081fd5b613038613c50565b9050815161304581613f7e565b8152602082015163ffffffff8116811461305e57600080fd5b6020820152604082015161307181613f58565b80604083015250606082015160608201526080820151608082015292915050565b600060a082840312156130a3578081fd5b6130ab613c50565b905081516130b881613f70565b8152602082015161305e81613f7e565b600060c082840312156130d9578081fd5b60405160c0810181811067ffffffffffffffff821117156130fc576130fc613f42565b8060405250809150825161310f81613f70565b8152602083015161311f81613f58565b602082015260408381015190820152606083015161313c81613f58565b6060820152608083015161314f81613f70565b608082015260a083015161316281613f58565b60a0919091015292915050565b600060808284031215613180578081fd5b613188613c79565b90508151815260208201516020820152604082015160408201526060820151606082015292915050565b6000604082840312156131c3578081fd5b6040516040810181811067ffffffffffffffff821117156131e6576131e6613f42565b604052825181526020928301519281019290925250919050565b60006101208284031215613212578081fd5b61321a613c9c565b9050815181526020820151602082015260408201516040820152606082015160608201526080820151608082015261325460a08301612da6565b60a082015261326560c08301612d46565b60c082015260e082015167ffffffffffffffff8082111561328557600080fd5b61329185838601612e20565b60e0840152610100915081840151818111156132ac57600080fd5b6132b886828701612e20565b8385015250505092915050565b600060e082840312156132d6578081fd5b6132de613cc0565b9050815167ffffffffffffffff808211156132f857600080fd5b61330485838601612e20565b8352602084015191508082111561331a57600080fd5b5061332784828501612e20565b60208301525060408201516040820152606082015160608201526080820151608082015260a082015160a082015260c082015160c082015292915050565b803560ff81168114612d4157600080fd5b600060208284031215613387578081fd5b81356104c381613f58565b6000602082840312156133a3578081fd5b81516104c381613f58565b6000806000806000806000806000806101408b8d0312156133cd578586fd5b6133d68b612d46565b995060208b0151985060408b0151975060608b015167ffffffffffffffff80821115613400578788fd5b61340c8e838f01612e20565b985060808d0151975060a08d0151965060c08d015191508082111561342f578586fd5b61343b8e838f01612e6b565b955060e08d0151915080821115613450578485fd5b61345c8e838f01612e20565b94506101008d0151915080821115613472578384fd5b61347e8e838f01612e20565b93506101208d0151915080821115613494578283fd5b506134a18d828e01612e20565b9150509295989b9194979a5092959850565b6000806000806000806000806000898b036104a08112156134d2578384fd5b8a516134dd81613f58565b99506101a0601f1982018113156134f2578485fd5b6134fa613ce3565b915061350860208d01612d46565b825260408c0151602083015260608c0151604083015260808c0151606083015260a08c0151608083015261353e60c08d01612da6565b60a083015261354f60e08d01612d46565b60c0830152610100808d015160e0840152610120808e0151828501526101409150818e01518185015250610160808e0151828501526101809150613594828f01612d46565b908401526135a38d8301612d46565b90830152506101c08b015190985067ffffffffffffffff8111156135c5578384fd5b6135d18c828d01613200565b9750506135e28b6101e08c01612f73565b95506135f28b6103e08c016131b2565b94506104208a015193506104408a015192506136116104608b01612dc0565b91506104808a015190509295985092959850929598565b6000806040838503121561363a578182fd5b823561364581613f58565b946020939093013593505050565b60008060408385031215613665578182fd5b825161367081613f58565b6020939093015192949293505050565b60008060008060008060008060008060006102608c8e0312156136a1578485fd5b8b516136ac81613f58565b809b505060208c0151995060408c0151985060608c0151975060808c01516136d381613f58565b96506136e160a08d01612d46565b95506136ef60c08d01612dc0565b945060e08c015167ffffffffffffffff81111561370a578182fd5b6137168e828f016132c5565b9450506137278d6101008e016130c8565b92506137378d6101c08e0161316f565b91506102408c015190509295989b509295989b9093969950565b600080600080600080600080600060e08a8c03121561376e578283fd5b893567ffffffffffffffff80821115613785578485fd5b6137918d838e01612d51565b909b50995060208c01359150808211156137a9578485fd5b6137b58d838e01612d51565b909950975060408c01359150808211156137cd578485fd5b508a01610180818d0312156137e0578384fd5b945060608a013593506137f560808b01613365565b925061380360a08b01612d36565b915060c08a013590509295985092959850929598565b60006020828403121561382a578081fd5b81356104c381613f70565b600060208284031215613846578081fd5b813567ffffffffffffffff8082111561385d578283fd5b908301906101808286031215613871578283fd5b613879613d07565b823581526020830135602082015260408301356040820152606083013560608201526138a760808401612d36565b60808201526138b860a08401612d36565b60a082015260c083013560c082015260e083013560e08201526101006138df818501612d9b565b908201526101206138f1848201612d36565b908201526101408381013583811115613908578586fd5b61391488828701612dcf565b828401525050610160808401358381111561392d578586fd5b61393988828701612dcf565b918301919091525095945050505050565b60008060008060008060008789036101e0811215613966578182fd5b6080811215613973578182fd5b5061397c613c79565b885161398781613f58565b80825250602089015160208201526040890151604082015260608901516139ad81613f58565b606082015296506139c18960808a01612f09565b955061012088015167ffffffffffffffff8111156139dd578182fd5b6139e98a828b01613200565b9550506139fa896101408a016131b2565b9350613a096101808901612d46565b92506101a08801519150613a206101c08901612dc0565b905092959891949750929550565b600060208284031215613a3f578081fd5b81516001600160801b03811681146104c3578182fd5b600060208284031215613a66578081fd5b5035919050565b600060208284031215613a7e578081fd5b5051919050565b60008060408385031215613a97578182fd5b505080516020909101519092909150565b60008151808452613ac0816020860160208601613e5c565b601f01601f19169290920160200192915050565b6000815160a08452613ae960a0850182613aa8565b905060208301518482036020860152613b028282613aa8565b91505060408301516001600160a01b03808216604087015280606086015116606087015280608086015116608087015250508091505092915050565b60006101806001600160801b03808a16845288602085015263ffffffff8089511660408601528160208a01511660608601528160408a01511660808601528088511660a08601528060208901511660c08601528060408901511660e0860152806060890151166101008601525050613bcd61012084018680516001600160a01b03168252602090810151910152565b80610160840152613be081840185613ad4565b9998505050505050505050565b60008083357fffffffffffffffffffffffffffffffffffffffffffffffffffffffffffffffe1843603018112613c21578283fd5b83018035915067ffffffffffffffff821115613c3b578283fd5b602001915036819003821315612d9457600080fd5b60405160a0810167ffffffffffffffff81118282101715613c7357613c73613f42565b60405290565b6040516080810167ffffffffffffffff81118282101715613c7357613c73613f42565b604051610120810167ffffffffffffffff81118282101715613c7357613c73613f42565b60405160e0810167ffffffffffffffff81118282101715613c7357613c73613f42565b6040516101a0810167ffffffffffffffff81118282101715613c7357613c73613f42565b604051610180810167ffffffffffffffff81118282101715613c7357613c73613f42565b604051601f8201601f1916810167ffffffffffffffff81118282101715613d5457613d54613f42565b604052919050565b600067ffffffffffffffff821115613d7657613d76613f42565b50601f01601f191660200190565b60006001600160801b03808316818516808303821115613da657613da6613f16565b01949350505050565b60008219821115613dc257613dc2613f16565b500190565b600063ffffffff808316818516808303821115613da657613da6613f16565b600082613df557613df5613f2c565b500490565b6000816000190483118215151615613e1457613e14613f16565b500290565b600063ffffffff80831681851681830481118215151615613e3c57613e3c613f16565b02949350505050565b600082821015613e5757613e57613f16565b500390565b60005b83811015613e77578181015183820152602001613e5f565b83811115613e86576000848401525b50505050565b600181811c90821680613ea057607f821691505b60208210811415613ec157634e487b7160e01b600052602260045260246000fd5b50919050565b6000600019821415613edb57613edb613f16565b5060010190565b600060ff821660ff811415613ef957613ef9613f16565b60010192915050565b600082613f1157613f11613f2c565b500690565b634e487b7160e01b600052601160045260246000fd5b634e487b7160e01b600052601260045260246000fd5b634e487b7160e01b600052604160045260246000fd5b6001600160a01b0381168114613f6d57600080fd5b50565b8015158114613f6d57600080fd5b60048110613f6d57600080fdfea264697066735822122084930c40bcef7105e0d6f2a95812577d6b987302fccc5deaed984c226673952c64736f6c63430008040033",
  "linkReferences": {},
  "deployedLinkReferences": {}
}