{
  "_format": "hh-sol-artifact-1",
  "contractName": "SummonCollectiveDao",
  "sourceName": "contracts/SummonCollectiveDao.sol",
  "abi": [
    {
      "inputs": [],
      "stateMutability": "nonpayable",
      "type": "constructor"
    },
    {
      "anonymous": false,
      "inputs": [
        {
          "indexed": false,
          "internalType": "address",
          "name": "daoFactoryAddress",
          "type": "address"
        },
        {
          "indexed": false,
          "internalType": "address",
          "name": "daoAddr",
          "type": "address"
        },
        {
          "indexed": false,
          "internalType": "string",
          "name": "name",
          "type": "string"
        },
        {
          "indexed": false,
          "internalType": "address",
          "name": "creator",
          "type": "address"
        }
      ],
      "name": "CollectiveDaoCreated",
      "type": "event"
    },
    {
      "inputs": [
        {
          "components": [
            {
              "internalType": "address",
              "name": "target",
              "type": "address"
            },
            {
              "internalType": "bytes",
              "name": "callData",
              "type": "bytes"
            }
          ],
          "internalType": "struct SummonCollectiveDao.Call[8]",
          "name": "calls",
          "type": "tuple[8]"
        }
      ],
      "name": "multiCall",
      "outputs": [],
      "stateMutability": "nonpayable",
      "type": "function"
    },
    {
      "inputs": [
        {
          "components": [
            {
              "internalType": "address[]",
              "name": "daoFactoriesAddress",
              "type": "address[]"
            },
            {
              "components": [
                {
                  "internalType": "bytes32",
                  "name": "id",
                  "type": "bytes32"
                },
                {
                  "internalType": "address",
                  "name": "addr",
                  "type": "address"
                },
                {
                  "internalType": "uint128",
                  "name": "flags",
                  "type": "uint128"
                }
              ],
              "internalType": "struct DaoFactory.Adapter[]",
              "name": "enalbeAdapters",
              "type": "tuple[]"
            },
            {
              "components": [
                {
                  "internalType": "bytes32",
                  "name": "id",
                  "type": "bytes32"
                },
                {
                  "internalType": "address",
                  "name": "addr",
                  "type": "address"
                },
                {
                  "internalType": "uint128",
                  "name": "flags",
                  "type": "uint128"
                }
              ],
              "internalType": "struct DaoFactory.Adapter[]",
              "name": "adapters1",
              "type": "tuple[]"
            },
            {
              "components": [
                {
                  "internalType": "bool",
                  "name": "enable",
                  "type": "bool"
                },
                {
                  "internalType": "uint256",
                  "name": "capacity",
                  "type": "uint256"
                }
              ],
              "internalType": "struct SummonCollectiveDao.InvestorCapacity",
              "name": "investorCapacity",
              "type": "tuple"
            },
            {
              "components": [
                {
                  "internalType": "bool",
                  "name": "enable",
                  "type": "bool"
                },
                {
                  "internalType": "uint256",
                  "name": "varifyType",
                  "type": "uint256"
                },
                {
                  "internalType": "uint256",
                  "name": "minHolding",
                  "type": "uint256"
                },
                {
                  "internalType": "address",
                  "name": "tokenAddress",
                  "type": "address"
                },
                {
                  "internalType": "uint256",
                  "name": "tokenId",
                  "type": "uint256"
                },
                {
                  "internalType": "string",
                  "name": "name",
                  "type": "string"
                },
                {
                  "internalType": "address[]",
                  "name": "whiteList",
                  "type": "address[]"
                }
              ],
              "internalType": "struct SummonCollectiveDao.CollectiveGovernorMembershipInfo",
              "name": "governorMembership",
              "type": "tuple"
            },
            {
              "components": [
                {
                  "internalType": "uint256",
                  "name": "votingAssetType",
                  "type": "uint256"
                },
                {
                  "internalType": "uint8",
                  "name": "votingPower",
                  "type": "uint8"
                },
                {
                  "internalType": "uint256",
                  "name": "support",
                  "type": "uint256"
                },
                {
                  "internalType": "uint256",
                  "name": "quorum",
                  "type": "uint256"
                },
                {
                  "internalType": "uint256",
                  "name": "supportType",
                  "type": "uint256"
                },
                {
                  "internalType": "uint256",
                  "name": "quorumType",
                  "type": "uint256"
                },
                {
                  "internalType": "uint256",
                  "name": "votingPeriod",
                  "type": "uint256"
                },
                {
                  "internalType": "uint256",
                  "name": "gracePeriod",
                  "type": "uint256"
                },
                {
                  "internalType": "uint256",
                  "name": "executePeriod",
                  "type": "uint256"
                }
              ],
              "internalType": "struct SummonCollectiveDao.CollectiveDaoVotingInfo",
              "name": "collectiveDaoVotingInfo",
              "type": "tuple"
            },
            {
              "components": [
                {
                  "internalType": "string",
                  "name": "name",
                  "type": "string"
                },
                {
                  "internalType": "address",
                  "name": "creator",
                  "type": "address"
                },
                {
                  "internalType": "address",
                  "name": "currency",
                  "type": "address"
                },
                {
                  "internalType": "uint256",
                  "name": "redemptionFee",
                  "type": "uint256"
                },
                {
                  "internalType": "uint256",
                  "name": "proposerInvestTokenReward",
                  "type": "uint256"
                },
                {
                  "internalType": "uint256",
                  "name": "proposerPaybackTokenReward",
                  "type": "uint256"
                },
                {
                  "internalType": "address",
                  "name": "riceRewardReceiver",
                  "type": "address"
                }
              ],
              "internalType": "struct SummonCollectiveDao.CollectiveDaoInfo",
              "name": "collectiveDaoInfo",
              "type": "tuple"
            }
          ],
          "internalType": "struct SummonCollectiveDao.CollectiveDaoParams",
          "name": "params",
          "type": "tuple"
        }
      ],
      "name": "summonCollectiveDao",
      "outputs": [
        {
          "internalType": "bool",
          "name": "",
          "type": "bool"
        }
      ],
      "stateMutability": "nonpayable",
      "type": "function"
    },
    {
      "inputs": [
        {
          "internalType": "address",
          "name": "daoFacAddr",
          "type": "address"
        },
        {
          "internalType": "string",
          "name": "daoName",
          "type": "string"
        },
        {
          "internalType": "address",
          "name": "creator",
          "type": "address"
        }
      ],
      "name": "summonCollectiveDao1",
      "outputs": [
        {
          "internalType": "bool",
          "name": "",
          "type": "bool"
        }
      ],
      "stateMutability": "nonpayable",
      "type": "function"
    },
    {
      "inputs": [
        {
          "internalType": "address",
          "name": "newDaoAddr",
          "type": "address"
        }
      ],
      "name": "summonCollectiveDao10",
      "outputs": [
        {
          "internalType": "bool",
          "name": "",
          "type": "bool"
        }
      ],
      "stateMutability": "nonpayable",
      "type": "function"
    },
    {
      "inputs": [
        {
          "internalType": "address",
          "name": "collectiveFundingPoolFacAddr",
          "type": "address"
        },
        {
          "internalType": "address",
          "name": "newDaoAddr",
          "type": "address"
        },
        {
          "internalType": "address",
          "name": "creator",
          "type": "address"
        }
      ],
      "name": "summonCollectiveDao2",
      "outputs": [
        {
          "internalType": "bool",
          "name": "",
          "type": "bool"
        }
      ],
      "stateMutability": "nonpayable",
      "type": "function"
    },
    {
      "inputs": [
        {
          "internalType": "address",
          "name": "daoFacAddr",
          "type": "address"
        },
        {
          "components": [
            {
              "internalType": "bytes32",
              "name": "id",
              "type": "bytes32"
            },
            {
              "internalType": "address",
              "name": "addr",
              "type": "address"
            },
            {
              "internalType": "uint128",
              "name": "flags",
              "type": "uint128"
            }
          ],
          "internalType": "struct DaoFactory.Adapter[]",
          "name": "enalbeAdapters",
          "type": "tuple[]"
        },
        {
          "internalType": "address",
          "name": "newDaoAddr",
          "type": "address"
        }
      ],
      "name": "summonCollectiveDao3",
      "outputs": [
        {
          "internalType": "bool",
          "name": "",
          "type": "bool"
        }
      ],
      "stateMutability": "nonpayable",
      "type": "function"
    },
    {
      "inputs": [
        {
          "internalType": "address",
          "name": "daoFacAddr",
          "type": "address"
        },
        {
          "internalType": "address",
          "name": "collectiveFundingPoolFacAddr",
          "type": "address"
        },
        {
          "components": [
            {
              "internalType": "bytes32",
              "name": "id",
              "type": "bytes32"
            },
            {
              "internalType": "address",
              "name": "addr",
              "type": "address"
            },
            {
              "internalType": "uint128",
              "name": "flags",
              "type": "uint128"
            }
          ],
          "internalType": "struct DaoFactory.Adapter[]",
          "name": "adapters1",
          "type": "tuple[]"
        },
        {
          "internalType": "address",
          "name": "newDaoAddr",
          "type": "address"
        }
      ],
      "name": "summonCollectiveDao4",
      "outputs": [
        {
          "internalType": "bool",
          "name": "",
          "type": "bool"
        }
      ],
      "stateMutability": "nonpayable",
      "type": "function"
    },
    {
      "inputs": [
        {
          "internalType": "address",
          "name": "newDaoAddr",
          "type": "address"
        },
        {
          "internalType": "uint8",
          "name": "votingPower",
          "type": "uint8"
        },
        {
          "internalType": "uint256[8]",
          "name": "_uint256VoteArgs",
          "type": "uint256[8]"
        }
      ],
      "name": "summonCollectiveDao5",
      "outputs": [
        {
          "internalType": "bool",
          "name": "",
          "type": "bool"
        }
      ],
      "stateMutability": "nonpayable",
      "type": "function"
    },
    {
      "inputs": [
        {
          "internalType": "address",
          "name": "newDaoAddr",
          "type": "address"
        },
        {
          "internalType": "uint256",
          "name": "redemptFee",
          "type": "uint256"
        },
        {
          "internalType": "address",
          "name": "currencyAddress",
          "type": "address"
        },
        {
          "internalType": "uint256",
          "name": "proposerInvestTokenReward",
          "type": "uint256"
        },
        {
          "internalType": "uint256",
          "name": "proposerPaybackTokenReward",
          "type": "uint256"
        },
        {
          "internalType": "address",
          "name": "riceRewardReceiver",
          "type": "address"
        }
      ],
      "name": "summonCollectiveDao6",
      "outputs": [
        {
          "internalType": "bool",
          "name": "",
          "type": "bool"
        }
      ],
      "stateMutability": "nonpayable",
      "type": "function"
    },
    {
      "inputs": [
        {
          "internalType": "address",
          "name": "newDaoAddr",
          "type": "address"
        },
        {
          "internalType": "bool",
          "name": "enable",
          "type": "bool"
        },
        {
          "internalType": "uint256",
          "name": "investorCap",
          "type": "uint256"
        }
      ],
      "name": "summonCollectiveDao7",
      "outputs": [
        {
          "internalType": "bool",
          "name": "",
          "type": "bool"
        }
      ],
      "stateMutability": "nonpayable",
      "type": "function"
    },
    {
      "inputs": [
        {
          "internalType": "address",
          "name": "newDaoAddr",
          "type": "address"
        },
        {
          "internalType": "string",
          "name": "name",
          "type": "string"
        },
        {
          "internalType": "uint256",
          "name": "vType",
          "type": "uint256"
        },
        {
          "internalType": "uint256",
          "name": "miniHolding",
          "type": "uint256"
        },
        {
          "internalType": "uint256",
          "name": "tokenId",
          "type": "uint256"
        },
        {
          "internalType": "bool",
          "name": "enable",
          "type": "bool"
        },
        {
          "internalType": "address",
          "name": "collectiveDaoGovernorMembershipTokenAddress",
          "type": "address"
        },
        {
          "internalType": "address[]",
          "name": "collectiveDaoGovernorMembershipWhitelist",
          "type": "address[]"
        }
      ],
      "name": "summonCollectiveDao8",
      "outputs": [
        {
          "internalType": "bool",
          "name": "",
          "type": "bool"
        }
      ],
      "stateMutability": "nonpayable",
      "type": "function"
    }
  ],
  "bytecode": "0x608060405234801561001057600080fd5b50613244806100206000396000f3fe608060405234801561001057600080fd5b50600436106100c95760003560e01c8063b05e4fed11610081578063e16b56d11161005b578063e16b56d11461017a578063e5f3ddc21461018d578063fddc0de4146101a257600080fd5b8063b05e4fed14610141578063b1d68be514610154578063c99369ae1461016757600080fd5b80636410d630116100b25780636410d6301461010857806373d446171461011b578063a1ab6a001461012e57600080fd5b8063093eccfd146100ce57806323af561d146100f5575b600080fd5b6100e16100dc3660046127d7565b6101b5565b604051901515815260200160405180910390f35b6100e1610103366004612b02565b6103a9565b6100e161011636600461266f565b610eca565b6100e16101293660046126b9565b611098565b6100e161013c366004612630565b6111d7565b6100e161014f366004612910565b611456565b6100e1610162366004612976565b6116f5565b6100e161017536600461281e565b611ba7565b6100e1610188366004612734565b6120c0565b6101a061019b3660046129c3565b61215f565b005b6100e16101b036600461279a565b612284565b60003033146101c357600080fd5b6040517f3baeff3f00000000000000000000000000000000000000000000000000000000815285906001600160a01b03821690633baeff3f9061020e90889088908890600401612eef565b600060405180830381600087803b15801561022857600080fd5b505af115801561023c573d6000803e3d6000fd5b50506040517f1d1f0a27000000000000000000000000000000000000000000000000000000008152600092506001600160a01b0384169150631d1f0a279061028a9089908990600401612edb565b60206040518083038186803b1580156102a257600080fd5b505afa1580156102b6573d6000803e3d6000fd5b505050506040513d601f19601f820116820180604052508101906102da9190612653565b90506001600160a01b03811661035d5760405162461bcd60e51b815260206004820152603260248201527f53756d6d6d6f6e44616f3a3a73756d6d6f6e436f6c6c65637469766544616f3a60448201527f3a6372656174652064616f206661696c6564000000000000000000000000000060648201526084015b60405180910390fd5b7f6332f1f75eccdb513e45b8bfa0da1aa82a9f67cb34eb5f744ad6adc527cd42be8782888888604051610394959493929190612ced565b60405180910390a15060019695505050505050565b600081816103bb6101e0830183613023565b6103cc906060810190604001612630565b6001600160a01b0316141580156103fb5750670de0b6b3a76400006103f56101e0830183613023565b60600135105b801561041f5750670de0b6b3a76400006104196101e0830183613023565b60800135105b80156104435750670de0b6b3a764000061043d6101e0830183613023565b60a00135105b6104b55760405162461bcd60e51b815260206004820152602e60248201527f53756d6d6f6e20466c65782044414f3a3a496e76616c6964204d616e6167656d60448201527f656e742046656520416d6f756e740000000000000000000000000000000000006064820152608401610354565b6104bd6124cd565b6104c78480612f4f565b60008181106104e657634e487b7160e01b600052603260045260246000fd5b90506020020160208101906104fb9190612630565b6105096101e0860186613023565b6105139080612fde565b6105216101e0880188613023565b610532906040810190602001612630565b6040516024016105459493929190612d51565b60408051601f198184030181529181526020820180516001600160e01b03167f093eccfd0000000000000000000000000000000000000000000000000000000017905281835251309161059791612bfe565b6000604051808303816000865af19150503d80600081146105d4576040519150601f19603f3d011682016040523d82523d6000602084013e6105d9565b606091505b506101408301521515610120820181905261065c5760405162461bcd60e51b815260206004820152603660248201527f6c6f772d6c6576656c2063616c6c206f662066756e6374696f6e2073756d6d6f60448201527f6e436f6c6c65637469766544616f31206661696c6564000000000000000000006064820152608401610354565b600061066c6101e0860186613023565b6106769080612fde565b604051602401610687929190612edb565b60408051601f198184030181529190526020810180516001600160e01b03167f1d1f0a270000000000000000000000000000000000000000000000000000000017905290506106d68580612f4f565b60008181106106f557634e487b7160e01b600052603260045260246000fd5b905060200201602081019061070a9190612630565b6001600160a01b0316816040516107219190612bfe565b6000604051808303816000865af19150503d806000811461075e576040519150601f19603f3d011682016040523d82523d6000602084013e610763565b606091505b5061014084018190529015801561012085018190526020909201516001600160a01b03166101608501526107a457506101608201516001600160a01b031615155b6107ad57600080fd5b6107b78580612f4f565b60018181106107d657634e487b7160e01b600052603260045260246000fd5b90506020020160208101906107eb9190612630565b6101608301516107ff6101e0880188613023565b610810906040810190602001612630565b6040516001600160a01b0393841660248201529183166044830152909116606482015260840160408051601f19818403018152919052602080820180516001600160e01b03167f6410d630000000000000000000000000000000000000000000000000000000001790528301526108878580612f4f565b60008181106108a657634e487b7160e01b600052603260045260246000fd5b90506020020160208101906108bb9190612630565b6108c86020870187612f97565b8461016001516040516024016108e19493929190612d19565b60408051601f198184030181529181526020820180516001600160e01b03167fe16b56d1000000000000000000000000000000000000000000000000000000001790528301526109318580612f4f565b600081811061095057634e487b7160e01b600052603260045260246000fd5b90506020020160208101906109659190612630565b61096f8680612f4f565b600181811061098e57634e487b7160e01b600052603260045260246000fd5b90506020020160208101906109a39190612630565b6109b06040880188612f97565b8561016001516040516024016109ca959493929190612cac565b60408051601f19818403018152918152602080830180516001600160e01b03167f73d4461700000000000000000000000000000000000000000000000000000000179052606080860193909352815161010080820184526101808a01358252890180359282019290925260c0808a0135938201939093526101208901359381019390935261014088013560808401526101608089013560a08501526101a0890135928401929092526101c088013560e0808501919091529185015191610a9291908901612b3b565b82604051602401610aa593929190612e0e565b60408051601f198184030181529190526020810180516001600160e01b03167fb1d68be5000000000000000000000000000000000000000000000000000000001790526080840152610160830151610b016101e0880188613023565b60600135610b136101e0890189613023565b610b24906060810190604001612630565b610b326101e08a018a613023565b60800135610b446101e08b018b613023565b60a00135610b566101e08c018c613023565b610b679060e081019060c001612630565b6040516001600160a01b03968716602482015260448101959095529285166064850152608484019190915260a483015290911660c482015260e40160408051601f198184030181529190526020810180516001600160e01b03167fb05e4fed0000000000000000000000000000000000000000000000000000000017905260a0840152610160830151610c006080880160608901612ae8565b6040516001600160a01b039092166024830152151560448201526080870135606482015260840160408051601f198184030181529190526020810180516001600160e01b03167ffddc0de40000000000000000000000000000000000000000000000000000000017905260c0840152610160830151610c8260a0880188613023565b610c909060a0810190612fde565b610c9d60a08a018a613023565b60200135610cae60a08b018b613023565b60400135610cbf60a08c018c613023565b60800135610cd060a08d018d613023565b610cde906020810190612ae8565b610ceb60a08e018e613023565b610cfc906080810190606001612630565b610d0960a08f018f613023565b610d179060c0810190612f4f565b604051602401610d309a99989796959493929190612d75565b60408051808303601f19018152918152602080830180517fc99369ae000000000000000000000000000000000000000000000000000000006001600160e01b039182161790915260e0870193845261016087015183516001600160a01b03909116602480830191909152845180830390910181526044909101845280830180519092167fa1ab6a00000000000000000000000000000000000000000000000000000000001790915261010087019081528251808401845230808252888401518285015261018089018051929092528451808601865281815289860151818601528251850152845180860186528181526060808b0151828701528351870191909152855180870187528281526080808c0151828801528451909201528551808701875282815260a0808c0151828801528451909201528551808701875282815260c0808c015182880152845190920152855180870187528281529651878601528251019590955283518085019094529383525190820152905160076020020152610180830151610ebe9061215f565b50600195945050505050565b6000303314610ed857600080fd5b6040517f9ed933180000000000000000000000000000000000000000000000000000000081526001600160a01b038481166004830152859190821690639ed9331890602401600060405180830381600087803b158015610f3757600080fd5b505af1158015610f4b573d6000803e3d6000fd5b50506040517f3146637e0000000000000000000000000000000000000000000000000000000081526001600160a01b0387811660048301526000935084169150633146637e9060240160206040518083038186803b158015610fac57600080fd5b505afa158015610fc0573d6000803e3d6000fd5b505050506040513d601f19601f82011682018060405250810190610fe49190612653565b6040517fc130c6390000000000000000000000000000000000000000000000000000000081527f3909e87234f428ccb8748126e2c93f66a62f92a70d315fa5803dec6362be07ab60048201526001600160a01b0380831660248301528681166044830152919250869182169063c130c63990606401600060405180830381600087803b15801561107357600080fd5b505af1158015611087573d6000803e3d6000fd5b5060019a9950505050505050505050565b6000813033146110a757600080fd5b6040517f3146637e0000000000000000000000000000000000000000000000000000000081526001600160a01b0384811660048301528891889160009190831690633146637e9060240160206040518083038186803b15801561110957600080fd5b505afa15801561111d573d6000803e3d6000fd5b505050506040513d601f19601f820116820180604052508101906111419190612653565b905086156111c7576040517f29ca12ed0000000000000000000000000000000000000000000000000000000081526001600160a01b038416906329ca12ed9061119490879085908d908d90600401612e81565b600060405180830381600087803b1580156111ae57600080fd5b505af11580156111c2573d6000803e3d6000fd5b505050505b5060019998505050505050505050565b600080829050806001600160a01b0316630b1ca49a826001600160a01b03166348f7f2a36040518163ffffffff1660e01b815260040160206040518083038186803b15801561122557600080fd5b505afa158015611239573d6000803e3d6000fd5b505050506040513d601f19601f8201168201806040525081019061125d9190612653565b6040517fffffffff0000000000000000000000000000000000000000000000000000000060e084901b1681526001600160a01b039091166004820152602401600060405180830381600087803b1580156112b657600080fd5b505af11580156112ca573d6000803e3d6000fd5b50506040517f17ba7d850000000000000000000000000000000000000000000000000000000081527f1a4f1390baec30049008138e650571a3c4374eba88116bc89dc192f2f9295efe6004820152600092506001600160a01b03841691506317ba7d859060240160206040518083038186803b15801561134957600080fd5b505afa15801561135d573d6000803e3d6000fd5b505050506040513d601f19601f820116820180604052508101906113819190612653565b6040517fd32b91dd0000000000000000000000000000000000000000000000000000000081526001600160a01b0384811660048301529192509082169063d32b91dd90602401600060405180830381600087803b1580156113e157600080fd5b505af11580156113f5573d6000803e3d6000fd5b50505050816001600160a01b0316636503287f6040518163ffffffff1660e01b8152600401600060405180830381600087803b15801561143457600080fd5b505af1158015611448573d6000803e3d6000fd5b506001979650505050505050565b60008630331461146557600080fd5b604051630da0f6c760e41b81527f51cc27e85946200c558b984a0c15cad2122655d647f9c02ebe9529f2a0b25a2f6004820152602481018890526001600160a01b0382169063da0f6c7090604401600060405180830381600087803b1580156114cd57600080fd5b505af11580156114e1573d6000803e3d6000fd5b5050604051630da0f6c760e41b81527fb035c58a9b643066fc5cd78a708da0456c36221a03ca174ff3b76d4306ff7c6c6004820152602481018890526001600160a01b038416925063da0f6c709150604401600060405180830381600087803b15801561154d57600080fd5b505af1158015611561573d6000803e3d6000fd5b5050604051630da0f6c760e41b81527f558062fa5fcc8623e6c743ab5b51793317989a5a93f03b32a485f94843f77da36004820152602481018790526001600160a01b038416925063da0f6c709150604401600060405180830381600087803b1580156115cd57600080fd5b505af11580156115e1573d6000803e3d6000fd5b5050604051631da7c90d60e11b81527f7fa36390a0e9b8b8004035572fd8345b1128cea12d1763a1baf8fbd4fb7b202760048201526001600160a01b03898116602483015284169250633b4f921a9150604401600060405180830381600087803b15801561164e57600080fd5b505af1158015611662573d6000803e3d6000fd5b5050604051631da7c90d60e11b81527fc77068975ba2254bd67080aa196783f213ee682a15d902d03f33782130cf737d60048201526001600160a01b03868116602483015284169250633b4f921a9150604401600060405180830381600087803b1580156116cf57600080fd5b505af11580156116e3573d6000803e3d6000fd5b5060019b9a5050505050505050505050565b60008330331461170457600080fd5b604051630da0f6c760e41b81527f9876c0f0505bfb2b1c38d3bbd25ba13159172cd0868972d76927723f5a9480fc6004820152833560248201526001600160a01b0382169063da0f6c7090604401600060405180830381600087803b15801561176c57600080fd5b505af1158015611780573d6000803e3d6000fd5b5050604051630da0f6c760e41b81527fb4c601c38beae7eebb719eda3438f59fcbfd4c6dd7d38c00665b6fd5b432df326004820152602086013560248201526001600160a01b038416925063da0f6c709150604401600060405180830381600087803b1580156117ef57600080fd5b505af1158015611803573d6000803e3d6000fd5b505060408051630da0f6c760e41b81527feee23dc9ab95b6666db01c2b6cae6a5ef706099a25926e21e0a2e043fe88560460048201529086013560248201526001600160a01b038416925063da0f6c709150604401600060405180830381600087803b15801561187257600080fd5b505af1158015611886573d6000803e3d6000fd5b5050604051630da0f6c760e41b81527fd093d4a34a12a221b19c0a6689d5449f1346aa769d15cca4e9782c36fda9339a600482015260ff871660248201526001600160a01b038416925063da0f6c709150604401600060405180830381600087803b1580156118f457600080fd5b505af1158015611908573d6000803e3d6000fd5b5050604051630da0f6c760e41b81527f0324de13a5a6e302ddb95a9fdf81cc736fc8acee2abe558970daac27395904e76004820152606086013560248201526001600160a01b038416925063da0f6c709150604401600060405180830381600087803b15801561197757600080fd5b505af115801561198b573d6000803e3d6000fd5b5050604051630da0f6c760e41b81527f1aeed2c0ea31fb81f41489b79a1d09374a270e0f9340ace7354cce77586a7d166004820152608086013560248201526001600160a01b038416925063da0f6c709150604401600060405180830381600087803b1580156119fa57600080fd5b505af1158015611a0e573d6000803e3d6000fd5b5050604051630da0f6c760e41b81527f0e0434138ea29dceb1f2c0ca9b9f923f9d1c32d3d96bab2de9991f140daca712600482015260a086013560248201526001600160a01b038416925063da0f6c709150604401600060405180830381600087803b158015611a7d57600080fd5b505af1158015611a91573d6000803e3d6000fd5b5050604051630da0f6c760e41b81527fb646599143db51c9136a4861a55f7140eab851836e3e1a42ba7804f5356a3655600482015260c086013560248201526001600160a01b038416925063da0f6c709150604401600060405180830381600087803b158015611b0057600080fd5b505af1158015611b14573d6000803e3d6000fd5b5050604051630da0f6c760e41b81527fada09015efb4d45310950167ce9728fe9635e3ef65b062ab8afb0ff348d76cad600482015260e086013560248201526001600160a01b038416925063da0f6c7091506044015b600060405180830381600087803b158015611b8457600080fd5b505af1158015611b98573d6000803e3d6000fd5b50600198975050505050505050565b60008a303314611bb657600080fd5b85156116e357604051630da0f6c760e41b81527f02049446ffbff09ad55d6fdb03c8c6027cf548332d30663e8fdf960abdab86ea6004820152600160248201526001600160a01b0382169063da0f6c7090604401600060405180830381600087803b158015611c2457600080fd5b505af1158015611c38573d6000803e3d6000fd5b50506040517ff958b7100000000000000000000000000000000000000000000000000000000081526001600160a01b038416925063f958b7109150611ca5907fe8c0cc8a9993875960b545b0c8b4b345a98d03a2c0ddf4b918a5ef119f5ab528908f908f90600401612e5e565b600060405180830381600087803b158015611cbf57600080fd5b505af1158015611cd3573d6000803e3d6000fd5b5050604051630da0f6c760e41b81527f09f0ac4191623c4a1e481e66bb865f218d9f5bcef4e65b597583a054b10182bc6004820152602481018c90526001600160a01b038416925063da0f6c709150604401600060405180830381600087803b158015611d3f57600080fd5b505af1158015611d53573d6000803e3d6000fd5b505050508860001480611d665750886001145b80611d715750886002145b15611e7857604051630da0f6c760e41b81527f6bdd30ca7a0b5a78cdfd780fd2f234880048cafa893e9ccbc9f82df25cdc717f6004820152602481018990526001600160a01b0382169063da0f6c7090604401600060405180830381600087803b158015611dde57600080fd5b505af1158015611df2573d6000803e3d6000fd5b5050604051631da7c90d60e11b81527f0567bf43e78d815625031c35adddd5d701cb6b913fbad3b625b4f8c00fdc42aa60048201526001600160a01b03888116602483015284169250633b4f921a9150604401600060405180830381600087803b158015611e5f57600080fd5b505af1158015611e73573d6000803e3d6000fd5b505050505b8860021415611f0257604051630da0f6c760e41b81527f032de4639c5a8edd1ea478b1345b2d031f42ecd2b29442d3080c9ac0545b5f8e6004820152602481018890526001600160a01b0382169063da0f6c7090604401600060405180830381600087803b158015611ee957600080fd5b505af1158015611efd573d6000803e3d6000fd5b505050505b886003148015611f1157508215155b156116e3576040517f17ba7d850000000000000000000000000000000000000000000000000000000081527f1a4f1390baec30049008138e650571a3c4374eba88116bc89dc192f2f9295efe60048201526000906001600160a01b038316906317ba7d859060240160206040518083038186803b158015611f9157600080fd5b505afa158015611fa5573d6000803e3d6000fd5b505050506040513d601f19601f82011682018060405250810190611fc99190612653565b905060005b60ff81168511156120ac57816001600160a01b03166333f7bc0c8488888560ff1681811061200c57634e487b7160e01b600052603260045260246000fd5b90506020020160208101906120219190612630565b6040517fffffffff0000000000000000000000000000000000000000000000000000000060e085901b1681526001600160a01b03928316600482015291166024820152604401600060405180830381600087803b15801561208157600080fd5b505af1158015612095573d6000803e3d6000fd5b5050505080806120a490613180565b915050611fce565b50505060019b9a5050505050505050505050565b6000813033146120cf57600080fd5b858415612152576040517f9bb200840000000000000000000000000000000000000000000000000000000081526001600160a01b03821690639bb200849061211f9085908a908a90600401612eb8565b600060405180830381600087803b15801561213957600080fd5b505af115801561214d573d6000803e3d6000fd5b505050505b5060019695505050505050565b60005b600881101561228057600082826008811061218d57634e487b7160e01b600052603260045260246000fd5b6020020151516001600160a01b03168383600881106121bc57634e487b7160e01b600052603260045260246000fd5b6020020151602001516040516121d29190612bfe565b6000604051808303816000865af19150503d806000811461220f576040519150601f19603f3d011682016040523d82523d6000602084013e612214565b606091505b505090508061222e83600261222991906130d4565b612377565b60405160200161223e9190612c1a565b6040516020818303038152906040529061226b5760405162461bcd60e51b81526004016103549190612f1c565b5050808061227890613147565b915050612162565b5050565b60008330331461229357600080fd5b831561236c57604051630da0f6c760e41b81527f69f4ffb3ebcb7809550bddd3e4d449a47e737bf6635bc7a730996643997b0e486004820152600160248201526001600160a01b0382169063da0f6c7090604401600060405180830381600087803b15801561230157600080fd5b505af1158015612315573d6000803e3d6000fd5b5050604051630da0f6c760e41b81527fecbde689cc6337d29a750b8b8a8abbfa97427b4ac800ab55be2f2c87311510f26004820152602481018690526001600160a01b038416925063da0f6c709150604401611b6a565b506001949350505050565b6060816123b757505060408051808201909152600181527f3000000000000000000000000000000000000000000000000000000000000000602082015290565b8160005b81156123e157806123cb81613147565b91506123da9050600a836130ec565b91506123bb565b60008167ffffffffffffffff81111561240a57634e487b7160e01b600052604160045260246000fd5b6040519080825280601f01601f191660200182016040528015612434576020820181803683370190505b5090505b84156124c557612449600183613100565b9150612456600a866131a0565b6124619060306130d4565b60f81b81838151811061248457634e487b7160e01b600052603260045260246000fd5b60200101907effffffffffffffffffffffffffffffffffffffffffffffffffffffffffffff1916908160001a9053506124be600a866130ec565b9450612438565b949350505050565b604051806101a001604052806060815260200160608152602001606081526020016060815260200160608152602001606081526020016060815260200160608152602001606081526020016000151581526020016060815260200160006001600160a01b03168152602001612540612545565b905290565b6040518061010001604052806008905b6040805180820190915260008152606060208201528152602001906001900390816125555790505090565b60008083601f840112612591578182fd5b50813567ffffffffffffffff8111156125a8578182fd5b6020830191508360206060830285010111156125c357600080fd5b9250929050565b803580151581146125da57600080fd5b919050565b60008083601f8401126125f0578182fd5b50813567ffffffffffffffff811115612607578182fd5b6020830191508360208285010111156125c357600080fd5b803560ff811681146125da57600080fd5b600060208284031215612641578081fd5b813561264c816131f6565b9392505050565b600060208284031215612664578081fd5b815161264c816131f6565b600080600060608486031215612683578182fd5b833561268e816131f6565b9250602084013561269e816131f6565b915060408401356126ae816131f6565b809150509250925092565b6000806000806000608086880312156126d0578081fd5b85356126db816131f6565b945060208601356126eb816131f6565b9350604086013567ffffffffffffffff811115612706578182fd5b61271288828901612580565b9094509250506060860135612726816131f6565b809150509295509295909350565b60008060008060608587031215612749578384fd5b8435612754816131f6565b9350602085013567ffffffffffffffff81111561276f578384fd5b61277b87828801612580565b909450925050604085013561278f816131f6565b939692955090935050565b6000806000606084860312156127ae578283fd5b83356127b9816131f6565b92506127c7602085016125ca565b9150604084013590509250925092565b600080600080606085870312156127ec578384fd5b84356127f7816131f6565b9350602085013567ffffffffffffffff811115612812578384fd5b61277b878288016125df565b6000806000806000806000806000806101008b8d03121561283d578788fd5b8a35612848816131f6565b995060208b013567ffffffffffffffff8082111561286457898afd5b6128708e838f016125df565b909b50995060408d0135985060608d0135975060808d0135965089915061289960a08e016125ca565b955060c08d013591506128ab826131f6565b90935060e08c013590808211156128c0578384fd5b818d0191508d601f8301126128d3578384fd5b8135818111156128e1578485fd5b8e60208260051b85010111156128f5578485fd5b6020830194508093505050509295989b9194979a5092959850565b60008060008060008060c08789031215612928578384fd5b8635612933816131f6565b955060208701359450604087013561294a816131f6565b9350606087013592506080870135915060a0870135612968816131f6565b809150509295509295509295565b600080600061014080858703121561298c578182fd5b8435612997816131f6565b93506129a56020860161261f565b92508581860111156129b5578182fd5b506040840190509250925092565b600060208083850312156129d5578182fd5b823567ffffffffffffffff808211156129ec578384fd5b8185019150601f8681840112612a00578485fd5b612a08613056565b80848961010087011115612a1a578788fd5b875b6008811015612ad957813586811115612a3357898afd5b87016040818d031215612a4457898afd5b612a4c613080565b8135612a57816131f6565b8152818a013588811115612a69578b8cfd5b8083019250508c87830112612a7c578a8bfd5b813588811115612a8e57612a8e6131e0565b612a9f8b601f198a840116016130a3565b8181528e8c838601011115612ab2578c8dfd5b818c85018d8301379081018b018c9052818b01528552509287019290870190600101612a1c565b50909998505050505050505050565b600060208284031215612af9578081fd5b61264c826125ca565b600060208284031215612b13578081fd5b813567ffffffffffffffff811115612b29578182fd5b8201610200818503121561264c578182fd5b600060208284031215612b4c578081fd5b61264c8261261f565b81835260006020808501945082825b85811015612bc9578135875282820135612b7d816131f6565b6001600160a01b0316878401526040828101356fffffffffffffffffffffffffffffffff8116808214612bae578687fd5b91890191909152506060968701969190910190600101612b64565b509495945050505050565b8183528181602085013750600080602083850101526020601f19601f840116840101905092915050565b60008251612c10818460208701613117565b9190910192915050565b7f6c6f772d6c6576656c2063616c6c206f662073756d6d6f6e436f6c6c6563746981527f766544616f000000000000000000000000000000000000000000000000000000602082015260008251612c78816025850160208701613117565b7f206661696c6564000000000000000000000000000000000000000000000000006025939091019283015250602c01919050565b60006001600160a01b038088168352808716602084015260806040840152612cd8608084018688612b55565b91508084166060840152509695505050505050565b60006001600160a01b038088168352808716602084015260806040840152612cd8608084018688612bd4565b60006001600160a01b03808716835260606020840152612d3d606084018688612b55565b915080841660408401525095945050505050565b60006001600160a01b03808716835260606020840152612d3d606084018688612bd4565b60006101006001600160a01b03808e168452816020850152612d9a8285018d8f612bd4565b604085018c9052606085018b9052608085018a905288151560a086015287821660c086015284810360e0860152858152869250602001835b86811015612dfb578335612de5816131f6565b8316825260209384019390910190600101612dd2565b509e9d5050505050505050505050505050565b6000610140820190506001600160a01b0385168252602060ff851681840152604083018460005b6008811015612e5257815183529183019190830190600101612e35565b50505050949350505050565b838152604060208201526000612e78604083018486612bd4565b95945050505050565b60006001600160a01b03808716835280861660208401525060606040830152612eae606083018486612b55565b9695505050505050565b6001600160a01b0384168152604060208201526000612e78604083018486612b55565b6020815260006124c5602083018486612bd4565b604081526000612f03604083018587612bd4565b90506001600160a01b0383166020830152949350505050565b6020815260008251806020840152612f3b816040850160208701613117565b601f01601f19169190910160400192915050565b6000808335601e19843603018112612f65578283fd5b83018035915067ffffffffffffffff821115612f7f578283fd5b6020019150600581901b36038213156125c357600080fd5b6000808335601e19843603018112612fad578283fd5b83018035915067ffffffffffffffff821115612fc7578283fd5b60200191506060810236038213156125c357600080fd5b6000808335601e19843603018112612ff4578283fd5b83018035915067ffffffffffffffff82111561300e578283fd5b6020019150368190038213156125c357600080fd5b600082357fffffffffffffffffffffffffffffffffffffffffffffffffffffffffffffff21833603018112612c10578182fd5b604051610100810167ffffffffffffffff8111828210171561307a5761307a6131e0565b60405290565b6040805190810167ffffffffffffffff8111828210171561307a5761307a6131e0565b604051601f8201601f1916810167ffffffffffffffff811182821017156130cc576130cc6131e0565b604052919050565b600082198211156130e7576130e76131b4565b500190565b6000826130fb576130fb6131ca565b500490565b600082821015613112576131126131b4565b500390565b60005b8381101561313257818101518382015260200161311a565b83811115613141576000848401525b50505050565b60007fffffffffffffffffffffffffffffffffffffffffffffffffffffffffffffffff821415613179576131796131b4565b5060010190565b600060ff821660ff811415613197576131976131b4565b60010192915050565b6000826131af576131af6131ca565b500690565b634e487b7160e01b600052601160045260246000fd5b634e487b7160e01b600052601260045260246000fd5b634e487b7160e01b600052604160045260246000fd5b6001600160a01b038116811461320b57600080fd5b5056fea26469706673582212200bdb593b5088336d77b33d078269a3202ad93ae1b13bfca898040920e83ad19e64736f6c63430008040033",
  "linkReferences": {},
  "deployedLinkReferences": {}
}