{
  "_format": "hh-sol-artifact-1",
  "contractName": "SummonCollectiveDao",
  "sourceName": "contracts/SummonCollectiveDao.sol",
  "abi": [
    {
      "inputs": [],
      "stateMutability": "nonpayable",
      "type": "constructor"
    },
    {
      "anonymous": false,
      "inputs": [
        {
          "indexed": false,
          "internalType": "address",
          "name": "daoFactoryAddress",
          "type": "address"
        },
        {
          "indexed": false,
          "internalType": "address",
          "name": "daoAddr",
          "type": "address"
        },
        {
          "indexed": false,
          "internalType": "string",
          "name": "name",
          "type": "string"
        },
        {
          "indexed": false,
          "internalType": "address",
          "name": "creator",
          "type": "address"
        }
      ],
      "name": "CollectiveDaoCreated",
      "type": "event"
    },
    {
      "inputs": [
        {
          "components": [
            {
              "internalType": "address",
              "name": "target",
              "type": "address"
            },
            {
              "internalType": "bytes",
              "name": "callData",
              "type": "bytes"
            }
          ],
          "internalType": "struct SummonCollectiveDao.Call[9]",
          "name": "calls",
          "type": "tuple[9]"
        }
      ],
      "name": "multiCall",
      "outputs": [],
      "stateMutability": "nonpayable",
      "type": "function"
    },
    {
      "inputs": [
        {
          "components": [
            {
              "internalType": "address[]",
              "name": "daoFactoriesAddress",
              "type": "address[]"
            },
            {
              "components": [
                {
                  "internalType": "bytes32",
                  "name": "id",
                  "type": "bytes32"
                },
                {
                  "internalType": "address",
                  "name": "addr",
                  "type": "address"
                },
                {
                  "internalType": "uint128",
                  "name": "flags",
                  "type": "uint128"
                }
              ],
              "internalType": "struct DaoFactory.Adapter[]",
              "name": "enalbeAdapters",
              "type": "tuple[]"
            },
            {
              "components": [
                {
                  "internalType": "bytes32",
                  "name": "id",
                  "type": "bytes32"
                },
                {
                  "internalType": "address",
                  "name": "addr",
                  "type": "address"
                },
                {
                  "internalType": "uint128",
                  "name": "flags",
                  "type": "uint128"
                }
              ],
              "internalType": "struct DaoFactory.Adapter[]",
              "name": "adapters1",
              "type": "tuple[]"
            },
            {
              "components": [
                {
                  "internalType": "bool",
                  "name": "enable",
                  "type": "bool"
                },
                {
                  "internalType": "uint256",
                  "name": "capacity",
                  "type": "uint256"
                }
              ],
              "internalType": "struct SummonCollectiveDao.InvestorCapacity",
              "name": "investorCapacity",
              "type": "tuple"
            },
            {
              "components": [
                {
                  "internalType": "bool",
                  "name": "enable",
                  "type": "bool"
                },
                {
                  "internalType": "uint256",
                  "name": "varifyType",
                  "type": "uint256"
                },
                {
                  "internalType": "uint256",
                  "name": "minHolding",
                  "type": "uint256"
                },
                {
                  "internalType": "address",
                  "name": "tokenAddress",
                  "type": "address"
                },
                {
                  "internalType": "uint256",
                  "name": "tokenId",
                  "type": "uint256"
                },
                {
                  "internalType": "address[]",
                  "name": "whiteList",
                  "type": "address[]"
                }
              ],
              "internalType": "struct SummonCollectiveDao.CollectiveGovernorMembershipInfo",
              "name": "governorMembership",
              "type": "tuple"
            },
            {
              "components": [
                {
                  "internalType": "uint256",
                  "name": "votingAssetType",
                  "type": "uint256"
                },
                {
                  "internalType": "uint8",
                  "name": "votingPower",
                  "type": "uint8"
                },
                {
                  "internalType": "uint256",
                  "name": "support",
                  "type": "uint256"
                },
                {
                  "internalType": "uint256",
                  "name": "quorum",
                  "type": "uint256"
                },
                {
                  "internalType": "uint256",
                  "name": "supportType",
                  "type": "uint256"
                },
                {
                  "internalType": "uint256",
                  "name": "quorumType",
                  "type": "uint256"
                },
                {
                  "internalType": "uint256",
                  "name": "votingPeriod",
                  "type": "uint256"
                },
                {
                  "internalType": "uint256",
                  "name": "gracePeriod",
                  "type": "uint256"
                },
                {
                  "internalType": "uint256",
                  "name": "executePeriod",
                  "type": "uint256"
                }
              ],
              "internalType": "struct SummonCollectiveDao.CollectiveDaoVotingInfo",
              "name": "collectiveDaoVotingInfo",
              "type": "tuple"
            },
            {
              "components": [
                {
                  "internalType": "string",
                  "name": "name",
                  "type": "string"
                },
                {
                  "internalType": "address",
                  "name": "creator",
                  "type": "address"
                },
                {
                  "internalType": "address",
                  "name": "currency",
                  "type": "address"
                },
                {
                  "internalType": "uint256",
                  "name": "redemptionFee",
                  "type": "uint256"
                },
                {
                  "internalType": "uint256",
                  "name": "proposerInvestTokenReward",
                  "type": "uint256"
                },
                {
                  "internalType": "uint256",
                  "name": "proposerPaybackTokenReward",
                  "type": "uint256"
                },
                {
                  "internalType": "address[]",
                  "name": "collectiveDaoGenesisGovernor",
                  "type": "address[]"
                }
              ],
              "internalType": "struct SummonCollectiveDao.CollectiveDaoInfo",
              "name": "collectiveDaoInfo",
              "type": "tuple"
            }
          ],
          "internalType": "struct SummonCollectiveDao.CollectiveDaoParams",
          "name": "params",
          "type": "tuple"
        }
      ],
      "name": "summonCollectiveDao",
      "outputs": [
        {
          "internalType": "bool",
          "name": "",
          "type": "bool"
        }
      ],
      "stateMutability": "nonpayable",
      "type": "function"
    },
    {
      "inputs": [
        {
          "internalType": "address",
          "name": "daoFacAddr",
          "type": "address"
        },
        {
          "internalType": "string",
          "name": "daoName",
          "type": "string"
        },
        {
          "internalType": "address",
          "name": "creator",
          "type": "address"
        }
      ],
      "name": "summonCollectiveDao1",
      "outputs": [
        {
          "internalType": "bool",
          "name": "",
          "type": "bool"
        }
      ],
      "stateMutability": "nonpayable",
      "type": "function"
    },
    {
      "inputs": [
        {
          "internalType": "address",
          "name": "newDaoAddr",
          "type": "address"
        }
      ],
      "name": "summonCollectiveDao10",
      "outputs": [
        {
          "internalType": "bool",
          "name": "",
          "type": "bool"
        }
      ],
      "stateMutability": "nonpayable",
      "type": "function"
    },
    {
      "inputs": [
        {
          "internalType": "address",
          "name": "collectiveFundingPoolFacAddr",
          "type": "address"
        },
        {
          "internalType": "address",
          "name": "newDaoAddr",
          "type": "address"
        },
        {
          "internalType": "address",
          "name": "creator",
          "type": "address"
        }
      ],
      "name": "summonCollectiveDao2",
      "outputs": [
        {
          "internalType": "bool",
          "name": "",
          "type": "bool"
        }
      ],
      "stateMutability": "nonpayable",
      "type": "function"
    },
    {
      "inputs": [
        {
          "internalType": "address",
          "name": "daoFacAddr",
          "type": "address"
        },
        {
          "components": [
            {
              "internalType": "bytes32",
              "name": "id",
              "type": "bytes32"
            },
            {
              "internalType": "address",
              "name": "addr",
              "type": "address"
            },
            {
              "internalType": "uint128",
              "name": "flags",
              "type": "uint128"
            }
          ],
          "internalType": "struct DaoFactory.Adapter[]",
          "name": "enalbeAdapters",
          "type": "tuple[]"
        },
        {
          "internalType": "address",
          "name": "newDaoAddr",
          "type": "address"
        }
      ],
      "name": "summonCollectiveDao3",
      "outputs": [
        {
          "internalType": "bool",
          "name": "",
          "type": "bool"
        }
      ],
      "stateMutability": "nonpayable",
      "type": "function"
    },
    {
      "inputs": [
        {
          "internalType": "address",
          "name": "daoFacAddr",
          "type": "address"
        },
        {
          "internalType": "address",
          "name": "collectiveFundingPoolFacAddr",
          "type": "address"
        },
        {
          "components": [
            {
              "internalType": "bytes32",
              "name": "id",
              "type": "bytes32"
            },
            {
              "internalType": "address",
              "name": "addr",
              "type": "address"
            },
            {
              "internalType": "uint128",
              "name": "flags",
              "type": "uint128"
            }
          ],
          "internalType": "struct DaoFactory.Adapter[]",
          "name": "adapters1",
          "type": "tuple[]"
        },
        {
          "internalType": "address",
          "name": "newDaoAddr",
          "type": "address"
        }
      ],
      "name": "summonCollectiveDao4",
      "outputs": [
        {
          "internalType": "bool",
          "name": "",
          "type": "bool"
        }
      ],
      "stateMutability": "nonpayable",
      "type": "function"
    },
    {
      "inputs": [
        {
          "internalType": "address",
          "name": "newDaoAddr",
          "type": "address"
        },
        {
          "internalType": "uint8",
          "name": "votingPower",
          "type": "uint8"
        },
        {
          "internalType": "uint256[8]",
          "name": "_uint256VoteArgs",
          "type": "uint256[8]"
        }
      ],
      "name": "summonCollectiveDao5",
      "outputs": [
        {
          "internalType": "bool",
          "name": "",
          "type": "bool"
        }
      ],
      "stateMutability": "nonpayable",
      "type": "function"
    },
    {
      "inputs": [
        {
          "internalType": "address",
          "name": "newDaoAddr",
          "type": "address"
        },
        {
          "internalType": "uint256",
          "name": "redemptFee",
          "type": "uint256"
        },
        {
          "internalType": "address",
          "name": "currencyAddress",
          "type": "address"
        },
        {
          "internalType": "uint256",
          "name": "proposerInvestTokenReward",
          "type": "uint256"
        },
        {
          "internalType": "uint256",
          "name": "proposerPaybackTokenReward",
          "type": "uint256"
        }
      ],
      "name": "summonCollectiveDao6",
      "outputs": [
        {
          "internalType": "bool",
          "name": "",
          "type": "bool"
        }
      ],
      "stateMutability": "nonpayable",
      "type": "function"
    },
    {
      "inputs": [
        {
          "internalType": "address",
          "name": "newDaoAddr",
          "type": "address"
        },
        {
          "internalType": "bool",
          "name": "enable",
          "type": "bool"
        },
        {
          "internalType": "uint256",
          "name": "investorCap",
          "type": "uint256"
        }
      ],
      "name": "summonCollectiveDao7",
      "outputs": [
        {
          "internalType": "bool",
          "name": "",
          "type": "bool"
        }
      ],
      "stateMutability": "nonpayable",
      "type": "function"
    },
    {
      "inputs": [
        {
          "internalType": "address",
          "name": "newDaoAddr",
          "type": "address"
        },
        {
          "internalType": "uint256",
          "name": "vType",
          "type": "uint256"
        },
        {
          "internalType": "uint256",
          "name": "miniHolding",
          "type": "uint256"
        },
        {
          "internalType": "uint256",
          "name": "tokenId",
          "type": "uint256"
        },
        {
          "internalType": "bool",
          "name": "enable",
          "type": "bool"
        },
        {
          "internalType": "address",
          "name": "collectiveDaoGovernorMembershipTokenAddress",
          "type": "address"
        },
        {
          "internalType": "address[]",
          "name": "collectiveDaoGovernorMembershipWhitelist",
          "type": "address[]"
        }
      ],
      "name": "summonCollectiveDao8",
      "outputs": [
        {
          "internalType": "bool",
          "name": "",
          "type": "bool"
        }
      ],
      "stateMutability": "nonpayable",
      "type": "function"
    },
    {
      "inputs": [
        {
          "internalType": "address",
          "name": "newDaoAddr",
          "type": "address"
        },
        {
          "internalType": "address[]",
          "name": "genesisGovernors",
          "type": "address[]"
        }
      ],
      "name": "summonCollectiveDao9",
      "outputs": [
        {
          "internalType": "bool",
          "name": "",
          "type": "bool"
        }
      ],
      "stateMutability": "nonpayable",
      "type": "function"
    }
  ],
  "bytecode": "0x608060405234801561001057600080fd5b50613302806100206000396000f3fe608060405234801561001057600080fd5b50600436106100d45760003560e01c8063724c801111610081578063b1d68be51161005b578063b1d68be51461019a578063e16b56d1146101ad578063fddc0de4146101c057600080fd5b8063724c80111461015f57806373d4461714610174578063a1ab6a001461018757600080fd5b806356230b9a116100b257806356230b9a146101265780635c7493c2146101395780636410d6301461014c57600080fd5b8063093eccfd146100d95780631cf1971b14610100578063433ba7cc14610113575b600080fd5b6100ec6100e7366004612896565b6101d3565b604051901515815260200160405180910390f35b6100ec61010e36600461291e565b6103c7565b6100ec6101213660046127a0565b6105fd565b6100ec610134366004612b8f565b610622565b6100ec61014736600461296f565b611199565b6100ec61015a3660046126db565b61162f565b61017261016d366004612a50565b6117d8565b005b6100ec610182366004612725565b6118fd565b6100ec61019536600461269c565b611a3b565b6100ec6101a8366004612a03565b611cba565b6100ec6101bb3660046127f3565b61216c565b6100ec6101ce366004612859565b61220b565b60003033146101e157600080fd5b6040517f3baeff3f00000000000000000000000000000000000000000000000000000000815285906001600160a01b03821690633baeff3f9061022c90889088908890600401612f7e565b600060405180830381600087803b15801561024657600080fd5b505af115801561025a573d6000803e3d6000fd5b50506040517f1d1f0a27000000000000000000000000000000000000000000000000000000008152600092506001600160a01b0384169150631d1f0a27906102a89089908990600401612f6a565b60206040518083038186803b1580156102c057600080fd5b505afa1580156102d4573d6000803e3d6000fd5b505050506040513d601f19601f820116820180604052508101906102f891906126bf565b90506001600160a01b03811661037b5760405162461bcd60e51b815260206004820152603260248201527f53756d6d6d6f6e44616f3a3a73756d6d6f6e436f6c6c65637469766544616f3a60448201527f3a6372656174652064616f206661696c6564000000000000000000000000000060648201526084015b60405180910390fd5b7f6332f1f75eccdb513e45b8bfa0da1aa82a9f67cb34eb5f744ad6adc527cd42be87828888886040516103b2959493929190612db7565b60405180910390a15060019695505050505050565b6000853033146103d657600080fd5b604051630da0f6c760e41b81527f51cc27e85946200c558b984a0c15cad2122655d647f9c02ebe9529f2a0b25a2f6004820152602481018790526001600160a01b0382169063da0f6c7090604401600060405180830381600087803b15801561043e57600080fd5b505af1158015610452573d6000803e3d6000fd5b5050604051630da0f6c760e41b81527fb035c58a9b643066fc5cd78a708da0456c36221a03ca174ff3b76d4306ff7c6c6004820152602481018790526001600160a01b038416925063da0f6c709150604401600060405180830381600087803b1580156104be57600080fd5b505af11580156104d2573d6000803e3d6000fd5b5050604051630da0f6c760e41b81527f558062fa5fcc8623e6c743ab5b51793317989a5a93f03b32a485f94843f77da36004820152602481018690526001600160a01b038416925063da0f6c709150604401600060405180830381600087803b15801561053e57600080fd5b505af1158015610552573d6000803e3d6000fd5b50506040517f3b4f921a0000000000000000000000000000000000000000000000000000000081527f7fa36390a0e9b8b8004035572fd8345b1128cea12d1763a1baf8fbd4fb7b202760048201526001600160a01b03888116602483015284169250633b4f921a9150604401600060405180830381600087803b1580156105d857600080fd5b505af11580156105ec573d6000803e3d6000fd5b5060019a9950505050505050505050565b60008330331461060c57600080fd5b6106178185856122f3565b506001949350505050565b600081816106346101e08301836130b2565b61064590606081019060400161269c565b6001600160a01b0316141580156106745750670de0b6b3a764000061066e6101e08301836130b2565b60600135105b80156106985750670de0b6b3a76400006106926101e08301836130b2565b60800135105b80156106bc5750670de0b6b3a76400006106b66101e08301836130b2565b60a00135105b61072e5760405162461bcd60e51b815260206004820152602e60248201527f53756d6d6f6e20466c65782044414f3a3a496e76616c6964204d616e6167656d60448201527f656e742046656520416d6f756e740000000000000000000000000000000000006064820152608401610372565b61073661252f565b6107408480612fde565b600081811061075f57634e487b7160e01b600052603260045260246000fd5b9050602002016020810190610774919061269c565b6107826101e08601866130b2565b61078c908061306d565b61079a6101e08801886130b2565b6107ab90604081019060200161269c565b6040516024016107be9493929190612e47565b60408051601f198184030181529181526020820180516001600160e01b03167f093eccfd0000000000000000000000000000000000000000000000000000000017905281835251309161081091612cc8565b6000604051808303816000865af19150503d806000811461084d576040519150601f19603f3d011682016040523d82523d6000602084013e610852565b606091505b50610160830152151561014082018190526108d55760405162461bcd60e51b815260206004820152603660248201527f6c6f772d6c6576656c2063616c6c206f662066756e6374696f6e2073756d6d6f60448201527f6e436f6c6c65637469766544616f31206661696c6564000000000000000000006064820152608401610372565b60006108e56101e08601866130b2565b6108ef908061306d565b604051602401610900929190612f6a565b60408051601f198184030181529190526020810180516001600160e01b03167f1d1f0a2700000000000000000000000000000000000000000000000000000000179052905061094f8580612fde565b600081811061096e57634e487b7160e01b600052603260045260246000fd5b9050602002016020810190610983919061269c565b6001600160a01b03168160405161099a9190612cc8565b6000604051808303816000865af19150503d80600081146109d7576040519150601f19603f3d011682016040523d82523d6000602084013e6109dc565b606091505b5061016084018190529015801561014085018190526020909201516001600160a01b0316610180850152610a1d57506101808201516001600160a01b031615155b610a2657600080fd5b610a308580612fde565b6001818110610a4f57634e487b7160e01b600052603260045260246000fd5b9050602002016020810190610a64919061269c565b610180830151610a786101e08801886130b2565b610a8990604081019060200161269c565b6040516001600160a01b0393841660248201529183166044830152909116606482015260840160408051601f19818403018152919052602080820180516001600160e01b03167f6410d63000000000000000000000000000000000000000000000000000000000179052830152610b008580612fde565b6000818110610b1f57634e487b7160e01b600052603260045260246000fd5b9050602002016020810190610b34919061269c565b610b416020870187613026565b846101800151604051602401610b5a9493929190612e0f565b60408051601f198184030181529181526020820180516001600160e01b03167fe16b56d100000000000000000000000000000000000000000000000000000000179052830152610baa8580612fde565b6000818110610bc957634e487b7160e01b600052603260045260246000fd5b9050602002016020810190610bde919061269c565b610be88680612fde565b6001818110610c0757634e487b7160e01b600052603260045260246000fd5b9050602002016020810190610c1c919061269c565b610c296040880188613026565b856101800151604051602401610c43959493929190612d76565b60408051601f19818403018152918152602080830180516001600160e01b03167f73d446170000000000000000000000000000000000000000000000000000000017905260608086019390935281516101008082018452610180808b01358352908a0180359383019390935260c0808b0135948301949094526101208a013594820194909452610140890135608082015261016089013560a08201526101a0890135928101929092526101c088013560e080840191909152928501519192610d0d91908901612bc8565b82604051602401610d2093929190612ec0565b60408051601f198184030181529190526020810180516001600160e01b03167fb1d68be5000000000000000000000000000000000000000000000000000000001790526080840152610180830151610d7c6101e08801886130b2565b60600135610d8e6101e08901896130b2565b610d9f90606081019060400161269c565b610dad6101e08a018a6130b2565b60800135610dbf6101e08b018b6130b2565b6040516001600160a01b0395861660248201526044810194909452939091166064830152608482015260a0919091013560a482015260c40160408051601f198184030181529190526020810180516001600160e01b03167f1cf1971b0000000000000000000000000000000000000000000000000000000017905260a0840152610180830151610e556080880160608901612b75565b6040516001600160a01b039092166024830152151560448201526080870135606482015260840160408051601f198184030181529190526020810180516001600160e01b03167ffddc0de40000000000000000000000000000000000000000000000000000000017905260c0840152610180830151610ed760a08801886130e5565b60200135610ee860a08901896130e5565b60400135610ef960a08a018a6130e5565b60800135610f0a60a08b018b6130e5565b610f18906020810190612b75565b610f2560a08c018c6130e5565b610f3690608081019060600161269c565b610f4360a08d018d6130e5565b610f519060a0810190612fde565b604051602401610f68989796959493929190612e6b565b60408051601f198184030181529190526020810180516001600160e01b03167f5c7493c20000000000000000000000000000000000000000000000000000000017905260e0840152610180830151610fc46101e08801886130b2565b610fd29060c0810190612fde565b604051602401610fe493929190612de3565b60408051808303601f19018152918152602080830180517f433ba7cc000000000000000000000000000000000000000000000000000000006001600160e01b0391821617909152610100870193845261018087015183516001600160a01b03909116602480830191909152845180830390910181526044909101845280830180519092167fa1ab6a0000000000000000000000000000000000000000000000000000000000179091526101208701908152825180840184523080825288840151828501526101a089018051929092528451808601865281815289860151818601528251850152845180860186528181526060808b0151828701528351870191909152855180870187528281526080808c0151828801528451909201528551808701875282815260a0808c0151828801528451909201528551808701875282815260c0808c0151828801528451909201528551808701875282815260e0808c0151828801528451909201528551808701875282815296518786015282510195909552835180850190945293835251908201529051600860200201526101a083015161118d906117d8565b50600195945050505050565b6000883033146111a857600080fd5b851561161f57604051630da0f6c760e41b81527f02049446ffbff09ad55d6fdb03c8c6027cf548332d30663e8fdf960abdab86ea6004820152600160248201526001600160a01b0382169063da0f6c7090604401600060405180830381600087803b15801561121657600080fd5b505af115801561122a573d6000803e3d6000fd5b5050604051630da0f6c760e41b81527f09f0ac4191623c4a1e481e66bb865f218d9f5bcef4e65b597583a054b10182bc6004820152602481018c90526001600160a01b038416925063da0f6c709150604401600060405180830381600087803b15801561129657600080fd5b505af11580156112aa573d6000803e3d6000fd5b5050505088600014806112bd5750886001145b806112c85750886002145b156113e857604051630da0f6c760e41b81527f6bdd30ca7a0b5a78cdfd780fd2f234880048cafa893e9ccbc9f82df25cdc717f6004820152602481018990526001600160a01b0382169063da0f6c7090604401600060405180830381600087803b15801561133557600080fd5b505af1158015611349573d6000803e3d6000fd5b50506040517f3b4f921a0000000000000000000000000000000000000000000000000000000081527f0567bf43e78d815625031c35adddd5d701cb6b913fbad3b625b4f8c00fdc42aa60048201526001600160a01b03888116602483015284169250633b4f921a9150604401600060405180830381600087803b1580156113cf57600080fd5b505af11580156113e3573d6000803e3d6000fd5b505050505b886002141561147257604051630da0f6c760e41b81527f032de4639c5a8edd1ea478b1345b2d031f42ecd2b29442d3080c9ac0545b5f8e6004820152602481018890526001600160a01b0382169063da0f6c7090604401600060405180830381600087803b15801561145957600080fd5b505af115801561146d573d6000803e3d6000fd5b505050505b88600314801561148157508215155b1561161f576040517f17ba7d850000000000000000000000000000000000000000000000000000000081527f1a4f1390baec30049008138e650571a3c4374eba88116bc89dc192f2f9295efe60048201526000906001600160a01b038316906317ba7d859060240160206040518083038186803b15801561150157600080fd5b505afa158015611515573d6000803e3d6000fd5b505050506040513d601f19601f8201168201806040525081019061153991906126bf565b905060005b60ff811685111561161c57816001600160a01b03166333f7bc0c8488888560ff1681811061157c57634e487b7160e01b600052603260045260246000fd5b9050602002016020810190611591919061269c565b6040517fffffffff0000000000000000000000000000000000000000000000000000000060e085901b1681526001600160a01b03928316600482015291166024820152604401600060405180830381600087803b1580156115f157600080fd5b505af1158015611605573d6000803e3d6000fd5b5050505080806116149061323e565b91505061153e565b50505b5060019998505050505050505050565b600030331461163d57600080fd5b6040517f9ed933180000000000000000000000000000000000000000000000000000000081526001600160a01b038481166004830152859190821690639ed9331890602401600060405180830381600087803b15801561169c57600080fd5b505af11580156116b0573d6000803e3d6000fd5b50506040517f3146637e0000000000000000000000000000000000000000000000000000000081526001600160a01b0387811660048301526000935084169150633146637e9060240160206040518083038186803b15801561171157600080fd5b505afa158015611725573d6000803e3d6000fd5b505050506040513d601f19601f8201168201806040525081019061174991906126bf565b6040517fc130c6390000000000000000000000000000000000000000000000000000000081527f3909e87234f428ccb8748126e2c93f66a62f92a70d315fa5803dec6362be07ab60048201526001600160a01b0380831660248301528681166044830152919250869182169063c130c63990606401600060405180830381600087803b1580156105d857600080fd5b60005b60098110156118f957600082826009811061180657634e487b7160e01b600052603260045260246000fd5b6020020151516001600160a01b031683836009811061183557634e487b7160e01b600052603260045260246000fd5b60200201516020015160405161184b9190612cc8565b6000604051808303816000865af19150503d8060008114611888576040519150601f19603f3d011682016040523d82523d6000602084013e61188d565b606091505b50509050806118a78360026118a29190613196565b6123d9565b6040516020016118b79190612ce4565b604051602081830303815290604052906118e45760405162461bcd60e51b81526004016103729190612fab565b505080806118f190613205565b9150506117db565b5050565b60008130331461190c57600080fd5b6040517f3146637e0000000000000000000000000000000000000000000000000000000081526001600160a01b0384811660048301528891889160009190831690633146637e9060240160206040518083038186803b15801561196e57600080fd5b505afa158015611982573d6000803e3d6000fd5b505050506040513d601f19601f820116820180604052508101906119a691906126bf565b9050861561161f576040517f29ca12ed0000000000000000000000000000000000000000000000000000000081526001600160a01b038416906329ca12ed906119f990879085908d908d90600401612f10565b600060405180830381600087803b158015611a1357600080fd5b505af1158015611a27573d6000803e3d6000fd5b505050505060019998505050505050505050565b600080829050806001600160a01b0316630b1ca49a826001600160a01b03166348f7f2a36040518163ffffffff1660e01b815260040160206040518083038186803b158015611a8957600080fd5b505afa158015611a9d573d6000803e3d6000fd5b505050506040513d601f19601f82011682018060405250810190611ac191906126bf565b6040517fffffffff0000000000000000000000000000000000000000000000000000000060e084901b1681526001600160a01b039091166004820152602401600060405180830381600087803b158015611b1a57600080fd5b505af1158015611b2e573d6000803e3d6000fd5b50506040517f17ba7d850000000000000000000000000000000000000000000000000000000081527f1a4f1390baec30049008138e650571a3c4374eba88116bc89dc192f2f9295efe6004820152600092506001600160a01b03841691506317ba7d859060240160206040518083038186803b158015611bad57600080fd5b505afa158015611bc1573d6000803e3d6000fd5b505050506040513d601f19601f82011682018060405250810190611be591906126bf565b6040517fd32b91dd0000000000000000000000000000000000000000000000000000000081526001600160a01b0384811660048301529192509082169063d32b91dd90602401600060405180830381600087803b158015611c4557600080fd5b505af1158015611c59573d6000803e3d6000fd5b50505050816001600160a01b0316636503287f6040518163ffffffff1660e01b8152600401600060405180830381600087803b158015611c9857600080fd5b505af1158015611cac573d6000803e3d6000fd5b506001979650505050505050565b600083303314611cc957600080fd5b604051630da0f6c760e41b81527f9876c0f0505bfb2b1c38d3bbd25ba13159172cd0868972d76927723f5a9480fc6004820152833560248201526001600160a01b0382169063da0f6c7090604401600060405180830381600087803b158015611d3157600080fd5b505af1158015611d45573d6000803e3d6000fd5b5050604051630da0f6c760e41b81527fb4c601c38beae7eebb719eda3438f59fcbfd4c6dd7d38c00665b6fd5b432df326004820152602086013560248201526001600160a01b038416925063da0f6c709150604401600060405180830381600087803b158015611db457600080fd5b505af1158015611dc8573d6000803e3d6000fd5b505060408051630da0f6c760e41b81527feee23dc9ab95b6666db01c2b6cae6a5ef706099a25926e21e0a2e043fe88560460048201529086013560248201526001600160a01b038416925063da0f6c709150604401600060405180830381600087803b158015611e3757600080fd5b505af1158015611e4b573d6000803e3d6000fd5b5050604051630da0f6c760e41b81527fd093d4a34a12a221b19c0a6689d5449f1346aa769d15cca4e9782c36fda9339a600482015260ff871660248201526001600160a01b038416925063da0f6c709150604401600060405180830381600087803b158015611eb957600080fd5b505af1158015611ecd573d6000803e3d6000fd5b5050604051630da0f6c760e41b81527f0324de13a5a6e302ddb95a9fdf81cc736fc8acee2abe558970daac27395904e76004820152606086013560248201526001600160a01b038416925063da0f6c709150604401600060405180830381600087803b158015611f3c57600080fd5b505af1158015611f50573d6000803e3d6000fd5b5050604051630da0f6c760e41b81527f1aeed2c0ea31fb81f41489b79a1d09374a270e0f9340ace7354cce77586a7d166004820152608086013560248201526001600160a01b038416925063da0f6c709150604401600060405180830381600087803b158015611fbf57600080fd5b505af1158015611fd3573d6000803e3d6000fd5b5050604051630da0f6c760e41b81527f0e0434138ea29dceb1f2c0ca9b9f923f9d1c32d3d96bab2de9991f140daca712600482015260a086013560248201526001600160a01b038416925063da0f6c709150604401600060405180830381600087803b15801561204257600080fd5b505af1158015612056573d6000803e3d6000fd5b5050604051630da0f6c760e41b81527fb646599143db51c9136a4861a55f7140eab851836e3e1a42ba7804f5356a3655600482015260c086013560248201526001600160a01b038416925063da0f6c709150604401600060405180830381600087803b1580156120c557600080fd5b505af11580156120d9573d6000803e3d6000fd5b5050604051630da0f6c760e41b81527fada09015efb4d45310950167ce9728fe9635e3ef65b062ab8afb0ff348d76cad600482015260e086013560248201526001600160a01b038416925063da0f6c7091506044015b600060405180830381600087803b15801561214957600080fd5b505af115801561215d573d6000803e3d6000fd5b50600198975050505050505050565b60008130331461217b57600080fd5b8584156121fe576040517f9bb200840000000000000000000000000000000000000000000000000000000081526001600160a01b03821690639bb20084906121cb9085908a908a90600401612f47565b600060405180830381600087803b1580156121e557600080fd5b505af11580156121f9573d6000803e3d6000fd5b505050505b5060019695505050505050565b60008330331461221a57600080fd5b831561061757604051630da0f6c760e41b81527f69f4ffb3ebcb7809550bddd3e4d449a47e737bf6635bc7a730996643997b0e486004820152600160248201526001600160a01b0382169063da0f6c7090604401600060405180830381600087803b15801561228857600080fd5b505af115801561229c573d6000803e3d6000fd5b5050604051630da0f6c760e41b81527fecbde689cc6337d29a750b8b8a8abbfa97427b4ac800ab55be2f2c87311510f26004820152602481018690526001600160a01b038416925063da0f6c70915060440161212f565b80156123d45760005b60ff81168211156123d257836001600160a01b031663dc929f4a84848460ff1681811061233957634e487b7160e01b600052603260045260246000fd5b905060200201602081019061234e919061269c565b6040517fffffffff0000000000000000000000000000000000000000000000000000000060e084901b1681526001600160a01b039091166004820152602401600060405180830381600087803b1580156123a757600080fd5b505af11580156123bb573d6000803e3d6000fd5b5050505080806123ca9061323e565b9150506122fc565b505b505050565b60608161241957505060408051808201909152600181527f3000000000000000000000000000000000000000000000000000000000000000602082015290565b8160005b8115612443578061242d81613205565b915061243c9050600a836131ae565b915061241d565b60008167ffffffffffffffff81111561246c57634e487b7160e01b600052604160045260246000fd5b6040519080825280601f01601f191660200182016040528015612496576020820181803683370190505b5090505b8415612527576124ab6001836131c2565b91506124b8600a8661325e565b6124c3906030613196565b60f81b8183815181106124e657634e487b7160e01b600052603260045260246000fd5b60200101907effffffffffffffffffffffffffffffffffffffffffffffffffffffffffffff1916908160001a905350612520600a866131ae565b945061249a565b949350505050565b604051806101c00160405280606081526020016060815260200160608152602001606081526020016060815260200160608152602001606081526020016060815260200160608152602001606081526020016000151581526020016060815260200160006001600160a01b031681526020016125a96125ae565b905290565b6040518061012001604052806009905b6040805180820190915260008152606060208201528152602001906001900390816125be5790505090565b60008083601f8401126125fa578182fd5b50813567ffffffffffffffff811115612611578182fd5b6020830191508360208260051b850101111561262c57600080fd5b9250929050565b60008083601f840112612644578182fd5b50813567ffffffffffffffff81111561265b578182fd5b60208301915083602060608302850101111561262c57600080fd5b8035801515811461268657600080fd5b919050565b803560ff8116811461268657600080fd5b6000602082840312156126ad578081fd5b81356126b8816132b4565b9392505050565b6000602082840312156126d0578081fd5b81516126b8816132b4565b6000806000606084860312156126ef578182fd5b83356126fa816132b4565b9250602084013561270a816132b4565b9150604084013561271a816132b4565b809150509250925092565b60008060008060006080868803121561273c578081fd5b8535612747816132b4565b94506020860135612757816132b4565b9350604086013567ffffffffffffffff811115612772578182fd5b61277e88828901612633565b9094509250506060860135612792816132b4565b809150509295509295909350565b6000806000604084860312156127b4578283fd5b83356127bf816132b4565b9250602084013567ffffffffffffffff8111156127da578283fd5b6127e6868287016125e9565b9497909650939450505050565b60008060008060608587031215612808578384fd5b8435612813816132b4565b9350602085013567ffffffffffffffff81111561282e578384fd5b61283a87828801612633565b909450925050604085013561284e816132b4565b939692955090935050565b60008060006060848603121561286d578283fd5b8335612878816132b4565b925061288660208501612676565b9150604084013590509250925092565b600080600080606085870312156128ab578182fd5b84356128b6816132b4565b9350602085013567ffffffffffffffff808211156128d2578384fd5b818701915087601f8301126128e5578384fd5b8135818111156128f3578485fd5b886020828501011115612904578485fd5b602083019550809450505050604085013561284e816132b4565b600080600080600060a08688031215612935578283fd5b8535612940816132b4565b9450602086013593506040860135612957816132b4565b94979396509394606081013594506080013592915050565b60008060008060008060008060e0898b03121561298a578586fd5b8835612995816132b4565b97506020890135965060408901359550606089013594506129b860808a01612676565b935060a08901356129c8816132b4565b925060c089013567ffffffffffffffff8111156129e3578283fd5b6129ef8b828c016125e9565b999c989b5096995094979396929594505050565b6000806000610140808587031215612a19578182fd5b8435612a24816132b4565b9350612a326020860161268b565b9250858186011115612a42578182fd5b506040840190509250925092565b60006020808385031215612a62578182fd5b823567ffffffffffffffff80821115612a79578384fd5b8185019150601f8681840112612a8d578485fd5b612a95613118565b80848961012087011115612aa7578788fd5b875b6009811015612b6657813586811115612ac057898afd5b87016040818d031215612ad157898afd5b612ad9613142565b8135612ae4816132b4565b8152818a013588811115612af6578b8cfd5b8083019250508c87830112612b09578a8bfd5b813588811115612b1b57612b1b61329e565b612b2c8b601f198a84011601613165565b8181528e8c838601011115612b3f578c8dfd5b818c85018d8301379081018b018c9052818b01528552509287019290870190600101612aa9565b50909998505050505050505050565b600060208284031215612b86578081fd5b6126b882612676565b600060208284031215612ba0578081fd5b813567ffffffffffffffff811115612bb6578182fd5b820161020081850312156126b8578182fd5b600060208284031215612bd9578081fd5b6126b88261268b565b81835260006020808501945082825b85811015612c1f578135612c04816132b4565b6001600160a01b031687529582019590820190600101612bf1565b509495945050505050565b81835260006020808501945082825b85811015612c1f578135875282820135612c52816132b4565b6001600160a01b0316878401526040828101356fffffffffffffffffffffffffffffffff8116808214612c83578687fd5b91890191909152506060968701969190910190600101612c39565b8183528181602085013750600080602083850101526020601f19601f840116840101905092915050565b60008251612cda8184602087016131d9565b9190910192915050565b7f6c6f772d6c6576656c2063616c6c206f662073756d6d6f6e436f6c6c6563746981527f766544616f000000000000000000000000000000000000000000000000000000602082015260008251612d428160258501602087016131d9565b7f206661696c6564000000000000000000000000000000000000000000000000006025939091019283015250602c01919050565b60006001600160a01b038088168352808716602084015260806040840152612da2608084018688612c2a565b91508084166060840152509695505050505050565b60006001600160a01b038088168352808716602084015260806040840152612da2608084018688612c9e565b6001600160a01b0384168152604060208201526000612e06604083018486612be2565b95945050505050565b60006001600160a01b03808716835260606020840152612e33606084018688612c2a565b915080841660408401525095945050505050565b60006001600160a01b03808716835260606020840152612e33606084018688612c9e565b60006001600160a01b03808b168352896020840152886040840152876060840152861515608084015280861660a08401525060e060c0830152612eb260e083018486612be2565b9a9950505050505050505050565b6000610140820190506001600160a01b0385168252602060ff851681840152604083018460005b6008811015612f0457815183529183019190830190600101612ee7565b50505050949350505050565b60006001600160a01b03808716835280861660208401525060606040830152612f3d606083018486612c2a565b9695505050505050565b6001600160a01b0384168152604060208201526000612e06604083018486612c2a565b602081526000612527602083018486612c9e565b604081526000612f92604083018587612c9e565b90506001600160a01b0383166020830152949350505050565b6020815260008251806020840152612fca8160408501602087016131d9565b601f01601f19169190910160400192915050565b6000808335601e19843603018112612ff4578283fd5b83018035915067ffffffffffffffff82111561300e578283fd5b6020019150600581901b360382131561262c57600080fd5b6000808335601e1984360301811261303c578283fd5b83018035915067ffffffffffffffff821115613056578283fd5b602001915060608102360382131561262c57600080fd5b6000808335601e19843603018112613083578283fd5b83018035915067ffffffffffffffff82111561309d578283fd5b60200191503681900382131561262c57600080fd5b600082357fffffffffffffffffffffffffffffffffffffffffffffffffffffffffffffff21833603018112612cda578182fd5b600082357fffffffffffffffffffffffffffffffffffffffffffffffffffffffffffffff41833603018112612cda578182fd5b604051610120810167ffffffffffffffff8111828210171561313c5761313c61329e565b60405290565b6040805190810167ffffffffffffffff8111828210171561313c5761313c61329e565b604051601f8201601f1916810167ffffffffffffffff8111828210171561318e5761318e61329e565b604052919050565b600082198211156131a9576131a9613272565b500190565b6000826131bd576131bd613288565b500490565b6000828210156131d4576131d4613272565b500390565b60005b838110156131f45781810151838201526020016131dc565b838111156123d25750506000910152565b60007fffffffffffffffffffffffffffffffffffffffffffffffffffffffffffffffff82141561323757613237613272565b5060010190565b600060ff821660ff81141561325557613255613272565b60010192915050565b60008261326d5761326d613288565b500690565b634e487b7160e01b600052601160045260246000fd5b634e487b7160e01b600052601260045260246000fd5b634e487b7160e01b600052604160045260246000fd5b6001600160a01b03811681146132c957600080fd5b5056fea26469706673582212207dc67004656ce76a609fcc85eeb776b95a092cc648ac4f5c006df51947e5aebf64736f6c63430008040033",
  "linkReferences": {},
  "deployedLinkReferences": {}
}