{
  "_format": "hh-sol-artifact-1",
  "contractName": "SummonVintageDao",
  "sourceName": "contracts/SummonVintageDao.sol",
  "abi": [
    {
      "anonymous": false,
      "inputs": [
        {
          "indexed": false,
          "internalType": "address",
          "name": "daoFactoryAddress",
          "type": "address"
        },
        {
          "indexed": false,
          "internalType": "address",
          "name": "daoAddr",
          "type": "address"
        },
        {
          "indexed": false,
          "internalType": "string",
          "name": "name",
          "type": "string"
        },
        {
          "indexed": false,
          "internalType": "address",
          "name": "creator",
          "type": "address"
        }
      ],
      "name": "VintageDaoCreated",
      "type": "event"
    },
    {
      "inputs": [
        {
          "components": [
            {
              "internalType": "address",
              "name": "target",
              "type": "address"
            },
            {
              "internalType": "bytes",
              "name": "callData",
              "type": "bytes"
            }
          ],
          "internalType": "struct SummonVintageDao.VintageCall[6]",
          "name": "calls",
          "type": "tuple[6]"
        }
      ],
      "name": "multiVintageCall",
      "outputs": [],
      "stateMutability": "nonpayable",
      "type": "function"
    },
    {
      "inputs": [
        {
          "components": [
            {
              "internalType": "string",
              "name": "daoName",
              "type": "string"
            },
            {
              "internalType": "address",
              "name": "creator",
              "type": "address"
            },
            {
              "internalType": "address[]",
              "name": "daoFactoriesAddress",
              "type": "address[]"
            },
            {
              "components": [
                {
                  "internalType": "bytes32",
                  "name": "id",
                  "type": "bytes32"
                },
                {
                  "internalType": "address",
                  "name": "addr",
                  "type": "address"
                },
                {
                  "internalType": "uint128",
                  "name": "flags",
                  "type": "uint128"
                }
              ],
              "internalType": "struct DaoFactory.Adapter[]",
              "name": "enalbeAdapters",
              "type": "tuple[]"
            },
            {
              "components": [
                {
                  "internalType": "bytes32",
                  "name": "id",
                  "type": "bytes32"
                },
                {
                  "internalType": "address",
                  "name": "addr",
                  "type": "address"
                },
                {
                  "internalType": "uint128",
                  "name": "flags",
                  "type": "uint128"
                }
              ],
              "internalType": "struct DaoFactory.Adapter[]",
              "name": "adapters1",
              "type": "tuple[]"
            },
            {
              "components": [
                {
                  "internalType": "bool",
                  "name": "enable",
                  "type": "bool"
                },
                {
                  "internalType": "string",
                  "name": "name",
                  "type": "string"
                },
                {
                  "internalType": "uint8",
                  "name": "varifyType",
                  "type": "uint8"
                },
                {
                  "internalType": "uint256",
                  "name": "minAmount",
                  "type": "uint256"
                },
                {
                  "internalType": "address",
                  "name": "tokenAddress",
                  "type": "address"
                },
                {
                  "internalType": "uint256",
                  "name": "tokenId",
                  "type": "uint256"
                },
                {
                  "internalType": "address[]",
                  "name": "whiteList",
                  "type": "address[]"
                }
              ],
              "internalType": "struct SummonVintageDao.VintageGovernorMembership",
              "name": "governorMembership",
              "type": "tuple"
            },
            {
              "components": [
                {
                  "internalType": "uint256",
                  "name": "votingAssetType",
                  "type": "uint256"
                },
                {
                  "internalType": "address",
                  "name": "tokenAddress",
                  "type": "address"
                },
                {
                  "internalType": "uint256",
                  "name": "tokenID",
                  "type": "uint256"
                },
                {
                  "internalType": "uint256",
                  "name": "votingWeightedType",
                  "type": "uint256"
                },
                {
                  "internalType": "uint256",
                  "name": "supportType",
                  "type": "uint256"
                },
                {
                  "internalType": "uint256",
                  "name": "quorumType",
                  "type": "uint256"
                },
                {
                  "internalType": "uint256",
                  "name": "support",
                  "type": "uint256"
                },
                {
                  "internalType": "uint256",
                  "name": "quorum",
                  "type": "uint256"
                },
                {
                  "internalType": "uint256",
                  "name": "votingPeriod",
                  "type": "uint256"
                },
                {
                  "internalType": "uint256",
                  "name": "executingPeriod",
                  "type": "uint256"
                }
              ],
              "internalType": "struct SummonVintageDao.VintageVotingInfo",
              "name": "votingInfo",
              "type": "tuple"
            },
            {
              "internalType": "address[]",
              "name": "genesisGovernors",
              "type": "address[]"
            },
            {
              "internalType": "uint256[]",
              "name": "allocations",
              "type": "uint256[]"
            },
            {
              "internalType": "address",
              "name": "riceRewardReceiver",
              "type": "address"
            }
          ],
          "internalType": "struct SummonVintageDao.VintageDaoParams",
          "name": "params",
          "type": "tuple"
        }
      ],
      "name": "summonVintageDao",
      "outputs": [],
      "stateMutability": "nonpayable",
      "type": "function"
    },
    {
      "inputs": [
        {
          "internalType": "address",
          "name": "daoFacAddr",
          "type": "address"
        },
        {
          "internalType": "string",
          "name": "daoName",
          "type": "string"
        },
        {
          "internalType": "address",
          "name": "creator",
          "type": "address"
        }
      ],
      "name": "summonVintageDao1",
      "outputs": [
        {
          "internalType": "bool",
          "name": "",
          "type": "bool"
        }
      ],
      "stateMutability": "nonpayable",
      "type": "function"
    },
    {
      "inputs": [
        {
          "internalType": "address",
          "name": "vintageFundingPoolFacAddr",
          "type": "address"
        },
        {
          "internalType": "address",
          "name": "newDaoAddr",
          "type": "address"
        },
        {
          "internalType": "address",
          "name": "creator",
          "type": "address"
        }
      ],
      "name": "summonVintageDao2",
      "outputs": [
        {
          "internalType": "bool",
          "name": "",
          "type": "bool"
        }
      ],
      "stateMutability": "nonpayable",
      "type": "function"
    },
    {
      "inputs": [
        {
          "internalType": "address",
          "name": "daoFacAddr",
          "type": "address"
        },
        {
          "components": [
            {
              "internalType": "bytes32",
              "name": "id",
              "type": "bytes32"
            },
            {
              "internalType": "address",
              "name": "addr",
              "type": "address"
            },
            {
              "internalType": "uint128",
              "name": "flags",
              "type": "uint128"
            }
          ],
          "internalType": "struct DaoFactory.Adapter[]",
          "name": "enalbeAdapters",
          "type": "tuple[]"
        },
        {
          "internalType": "address",
          "name": "newDaoAddr",
          "type": "address"
        }
      ],
      "name": "summonVintageDao3",
      "outputs": [
        {
          "internalType": "bool",
          "name": "",
          "type": "bool"
        }
      ],
      "stateMutability": "nonpayable",
      "type": "function"
    },
    {
      "inputs": [
        {
          "internalType": "address",
          "name": "daoFacAddr",
          "type": "address"
        },
        {
          "internalType": "address",
          "name": "vintageFundingPoolFacAddr",
          "type": "address"
        },
        {
          "components": [
            {
              "internalType": "bytes32",
              "name": "id",
              "type": "bytes32"
            },
            {
              "internalType": "address",
              "name": "addr",
              "type": "address"
            },
            {
              "internalType": "uint128",
              "name": "flags",
              "type": "uint128"
            }
          ],
          "internalType": "struct DaoFactory.Adapter[]",
          "name": "adapters1",
          "type": "tuple[]"
        },
        {
          "internalType": "address",
          "name": "newDaoAddr",
          "type": "address"
        }
      ],
      "name": "summonVintageDao4",
      "outputs": [
        {
          "internalType": "bool",
          "name": "",
          "type": "bool"
        }
      ],
      "stateMutability": "nonpayable",
      "type": "function"
    },
    {
      "inputs": [
        {
          "internalType": "bool",
          "name": "vintageDaoStewardMembershipEnable",
          "type": "bool"
        },
        {
          "internalType": "string",
          "name": "name",
          "type": "string"
        },
        {
          "internalType": "uint256[3]",
          "name": "uint256Params",
          "type": "uint256[3]"
        },
        {
          "internalType": "address",
          "name": "vintageDaoStewardMembershipTokenAddress",
          "type": "address"
        },
        {
          "internalType": "address[]",
          "name": "vintageDaoGovernorMembershipWhitelist",
          "type": "address[]"
        },
        {
          "internalType": "address",
          "name": "newDaoAddr",
          "type": "address"
        }
      ],
      "name": "summonVintageDao5",
      "outputs": [
        {
          "internalType": "bool",
          "name": "",
          "type": "bool"
        }
      ],
      "stateMutability": "nonpayable",
      "type": "function"
    },
    {
      "inputs": [
        {
          "internalType": "address",
          "name": "newDaoAddr",
          "type": "address"
        },
        {
          "internalType": "address",
          "name": "tokenAddress",
          "type": "address"
        },
        {
          "internalType": "address",
          "name": "riceReceiver",
          "type": "address"
        },
        {
          "internalType": "uint256[9]",
          "name": "votingInfo",
          "type": "uint256[9]"
        }
      ],
      "name": "summonVintageDao6",
      "outputs": [
        {
          "internalType": "bool",
          "name": "",
          "type": "bool"
        }
      ],
      "stateMutability": "nonpayable",
      "type": "function"
    },
    {
      "inputs": [
        {
          "internalType": "address",
          "name": "newDaoAddr",
          "type": "address"
        },
        {
          "internalType": "uint256",
          "name": "votingAssetType",
          "type": "uint256"
        },
        {
          "internalType": "address[]",
          "name": "genesisGovernors",
          "type": "address[]"
        },
        {
          "internalType": "uint256[]",
          "name": "allcationValues",
          "type": "uint256[]"
        }
      ],
      "name": "summonVintageDao7",
      "outputs": [
        {
          "internalType": "bool",
          "name": "",
          "type": "bool"
        }
      ],
      "stateMutability": "nonpayable",
      "type": "function"
    }
  ],
  "bytecode": "0x608060405234801561001057600080fd5b50613263806100206000396000f3fe608060405234801561001057600080fd5b50600436106100a35760003560e01c80635247f78e11610076578063ab1025d31161005b578063ab1025d314610130578063f1ea495514610143578063fd00f1231461015657600080fd5b80635247f78e1461010a5780637e24e3441461011d57600080fd5b806311c24abf146100a857806317d0c640146100bd5780632c87c58f146100e45780634a1ec992146100f7575b600080fd5b6100bb6100b6366004612a26565b610169565b005b6100d06100cb36600461263f565b610cb5565b604051901515815260200160405180910390f35b6100d06100f23660046126ba565b610dee565b6100d0610105366004612595565b610e87565b6100d0610118366004612767565b611030565b6100d061012b3660046125df565b6112de565b6100d061013e36600461292e565b611889565b6100bb6101513660046127f0565b611e4e565b6100d0610164366004612720565b611f73565b6101a76040518060400160405280601081526020017f73756d6d6f6e56696e7461676544616f00000000000000000000000000000000815250612162565b6101af6123c5565b6101bc6040830183612f2a565b60008181106101db57634e487b7160e01b600052603260045260246000fd5b90506020020160208101906101f09190612556565b6101fa8380612fb9565b61020a6040860160208701612556565b60405160240161021d9493929190612d14565b60408051601f198184030181529181526020820180516001600160e01b03167ffd00f1230000000000000000000000000000000000000000000000000000000017905281835251309161026f91612b66565b6000604051808303816000865af19150503d80600081146102ac576040519150601f19603f3d011682016040523d82523d6000602084013e6102b1565b606091505b50610100830152151560e082018190526103385760405162461bcd60e51b815260206004820152603360248201527f6c6f772d6c6576656c2063616c6c206f662066756e6374696f6e2073756d6d6f60448201527f6e56696e7461676544616f31206661696c65640000000000000000000000000060648201526084015b60405180910390fd5b60006103448380612fb9565b604051602401610355929190612eb6565b60408051601f198184030181529181526020820180516001600160e01b03167f1d1f0a27000000000000000000000000000000000000000000000000000000001790529091506103a790840184612f2a565b60008181106103c657634e487b7160e01b600052603260045260246000fd5b90506020020160208101906103db9190612556565b6001600160a01b0316816040516103f29190612b66565b6000604051808303816000865af19150503d806000811461042f576040519150601f19603f3d011682016040523d82523d6000602084013e610434565b606091505b5061010084018190529015801560e085018190526020909201516001600160a01b031661012085015261047457506101208201516001600160a01b031615155b61047d57600080fd5b61048a6040840184612f2a565b60018181106104a957634e487b7160e01b600052603260045260246000fd5b90506020020160208101906104be9190612556565b6101208301516104d46040860160208701612556565b6040516001600160a01b0393841660248201529183166044830152909116606482015260840160408051601f19818403018152918152602080830180516001600160e01b03167f4a1ec9920000000000000000000000000000000000000000000000000000000017905284019190915261055090840184612f2a565b600081811061056f57634e487b7160e01b600052603260045260246000fd5b90506020020160208101906105849190612556565b6105916060850185612f72565b8461012001516040516024016105aa9493929190612cdc565b60408051601f198184030181529181526020820180516001600160e01b03167f2c87c58f000000000000000000000000000000000000000000000000000000001790528381019190915261060090840184612f2a565b600081811061061f57634e487b7160e01b600052603260045260246000fd5b90506020020160208101906106349190612556565b6106416040850185612f2a565b600181811061066057634e487b7160e01b600052603260045260246000fd5b90506020020160208101906106759190612556565b6106826080860186612f72565b85610120015160405160240161069c959493929190612c6f565b60408051601f198184030181529181526020820180516001600160e01b03167f17d0c64000000000000000000000000000000000000000000000000000000000179052606080850192909252805191820190526000908061070060a0870187612ffe565b610711906060810190604001612a5f565b60ff16815260200161072660a0870187612ffe565b60600135815260200161073c60a0870187612ffe565b60a001358152509050838060a001906107559190612ffe565b610763906020810190612914565b61077060a0860186612ffe565b61077e906020810190612fb9565b8361078c60a0890189612ffe565b61079d9060a0810190608001612556565b6107aa60a08a018a612ffe565b6107b89060c0810190612f2a565b8961012001516040516024016107d5989796959493929190612db5565b60408051601f19818403018152918152602080830180516001600160e01b03167fab1025d3000000000000000000000000000000000000000000000000000000001790526080808701939093528151610120808201845260c0808a01358352610100808b018035958501959095528a830135958401959095526101408a013560608401526101608a0135958301959095526101a089013560a0830152610180890135948201949094526101c088013560e0808301919091526101e08901359382019390935292860151916108ab91908801612556565b6108bd61026088016102408901612556565b836040516024016108d19493929190612c14565b60408051601f198184030181529190526020810180516001600160e01b03167f7e24e3440000000000000000000000000000000000000000000000000000000017905260a085015261012084015160c0860135610932610200880188612f2a565b6109406102208a018a612f2a565b60405160240161095596959493929190612d38565b60408051601f19818403018152918152602080830180516001600160e01b03167f5247f78e0000000000000000000000000000000000000000000000000000000017905260c087019283528151808301835230808252888301518284015261014089018051929092528351808501855281815289850151818501528251840152835180850185528181526060808b0151828601528351860191909152845180860186528281526080808c0151828701528451909201528451808601865282815260a08b01518186015283519091015283518085019094528352925190820152905160056020020152610140840151610a4c90611e4e565b60008461012001519050806001600160a01b0316630b1ca49a826001600160a01b03166348f7f2a36040518163ffffffff1660e01b815260040160206040518083038186803b158015610a9e57600080fd5b505afa158015610ab2573d6000803e3d6000fd5b505050506040513d601f19601f82011682018060405250810190610ad69190612579565b6040517fffffffff0000000000000000000000000000000000000000000000000000000060e084901b1681526001600160a01b039091166004820152602401600060405180830381600087803b158015610b2f57600080fd5b505af1158015610b43573d6000803e3d6000fd5b50505050806001600160a01b0316636503287f6040518163ffffffff1660e01b8152600401600060405180830381600087803b158015610b8257600080fd5b505af1158015610b96573d6000803e3d6000fd5b50506040516317ba7d8560e01b81527fd90e10040720d66c9412cb511e3dbb6ba51669248a7495e763d44ab426893efa6004820152600092506001600160a01b03841691506317ba7d859060240160206040518083038186803b158015610bfc57600080fd5b505afa158015610c10573d6000803e3d6000fd5b505050506040513d601f19601f82011682018060405250810190610c349190612579565b6040517fd32b91dd0000000000000000000000000000000000000000000000000000000081526001600160a01b0384811660048301529192509082169063d32b91dd90602401600060405180830381600087803b158015610c9457600080fd5b505af1158015610ca8573d6000803e3d6000fd5b5050505050505050505050565b600081303314610cc457600080fd5b6040517f3146637e0000000000000000000000000000000000000000000000000000000081526001600160a01b0384811660048301528891889160009190831690633146637e9060240160206040518083038186803b158015610d2657600080fd5b505afa158015610d3a573d6000803e3d6000fd5b505050506040513d601f19601f82011682018060405250810190610d5e9190612579565b6040517f29ca12ed0000000000000000000000000000000000000000000000000000000081529091506001600160a01b038416906329ca12ed90610dac90879085908d908d90600401612e5c565b600060405180830381600087803b158015610dc657600080fd5b505af1158015610dda573d6000803e3d6000fd5b5060019d9c50505050505050505050505050565b600081303314610dfd57600080fd5b6040517f9bb2008400000000000000000000000000000000000000000000000000000000815286906001600160a01b03821690639bb2008490610e489085908a908a90600401612e93565b600060405180830381600087803b158015610e6257600080fd5b505af1158015610e76573d6000803e3d6000fd5b5060019a9950505050505050505050565b6000303314610e9557600080fd5b6040517f9ed933180000000000000000000000000000000000000000000000000000000081526001600160a01b038481166004830152859190821690639ed9331890602401600060405180830381600087803b158015610ef457600080fd5b505af1158015610f08573d6000803e3d6000fd5b50506040517f3146637e0000000000000000000000000000000000000000000000000000000081526001600160a01b0387811660048301526000935084169150633146637e9060240160206040518083038186803b158015610f6957600080fd5b505afa158015610f7d573d6000803e3d6000fd5b505050506040513d601f19601f82011682018060405250810190610fa19190612579565b6040517fc130c6390000000000000000000000000000000000000000000000000000000081527f161fca6912f107b0f13c9c7275de7391b32d2ea1c52ffba65a3c961880a0c60f60048201526001600160a01b0380831660248301528681166044830152919250869182169063c130c63990606401600060405180830381600087803b158015610e6257600080fd5b6040516317ba7d8560e01b81527f1fa6846b165d822fff79e37c67625706652fa9380c2aa49fd513ce534cc72ed46004820152600090879082906001600160a01b038316906317ba7d859060240160206040518083038186803b15801561109657600080fd5b505afa1580156110aa573d6000803e3d6000fd5b505050506040513d601f19601f820116820180604052508101906110ce9190612579565b9050876003141561117c5761117c8183846001600160a01b031663149acf9a6040518163ffffffff1660e01b815260040160206040518083038186803b15801561111757600080fd5b505afa15801561112b573d6000803e3d6000fd5b505050506040513d601f19601f8201168201806040525081019061114f9190612579565b8888600081811061117057634e487b7160e01b600052603260045260246000fd5b905060200201356121c1565b85156112cf5760005b60ff81168711156112cd57826001600160a01b031663dc929f4a89898460ff168181106111c257634e487b7160e01b600052603260045260246000fd5b90506020020160208101906111d79190612556565b6040517fffffffff0000000000000000000000000000000000000000000000000000000060e084901b1681526001600160a01b039091166004820152602401600060405180830381600087803b15801561123057600080fd5b505af1158015611244573d6000803e3d6000fd5b5050505088600314156112bb576112bb82848a8a8560ff1681811061127957634e487b7160e01b600052603260045260246000fd5b905060200201602081019061128e9190612556565b898961129b8760016130e9565b60ff1681811061117057634e487b7160e01b600052603260045260246000fd5b806112c5816131a2565b915050611185565b505b50600198975050505050505050565b604051630da0f6c760e41b81527f686efe7bd1699b408d306db6bbee658ed667971c52d48d6912d7ee496e36e62760048201528135602482015260009085906001600160a01b0382169063da0f6c7090604401600060405180830381600087803b15801561134b57600080fd5b505af115801561135f573d6000803e3d6000fd5b5050604051631da7c90d60e11b81527fcd9b30ab6388c165d825b60b7d393528191ba59d975b4b1b52b7184b63b8a97c60048201526001600160a01b03888116602483015284169250633b4f921a9150604401600060405180830381600087803b1580156113cc57600080fd5b505af11580156113e0573d6000803e3d6000fd5b5050604051630da0f6c760e41b81527e634460a4b60c2e1bf8c87bfc42b6b68fd2a71f4bb2d760816eabc5038b50366004820152602086013560248201526001600160a01b038416925063da0f6c709150604401600060405180830381600087803b15801561144e57600080fd5b505af1158015611462573d6000803e3d6000fd5b505060408051630da0f6c760e41b81527fb75eae231d9582c6afc6491273df4a0ffbccd48ab2c48dbce59e5d68f2d19dc460048201529086013560248201526001600160a01b038416925063da0f6c709150604401600060405180830381600087803b1580156114d157600080fd5b505af11580156114e5573d6000803e3d6000fd5b5050604051630da0f6c760e41b81527f561bc86bc227a0f760218574791a84f180f6f9f02be9519a1f99c14fce07a3106004820152606086013560248201526001600160a01b038416925063da0f6c709150604401600060405180830381600087803b15801561155457600080fd5b505af1158015611568573d6000803e3d6000fd5b5050604051630da0f6c760e41b81527f8097540b5ab8a4c18e0b10cfbfd2c69e65e8da78f4f0485467006bafa39359646004820152608086013560248201526001600160a01b038416925063da0f6c709150604401600060405180830381600087803b1580156115d757600080fd5b505af11580156115eb573d6000803e3d6000fd5b5050604051630da0f6c760e41b81527f0324de13a5a6e302ddb95a9fdf81cc736fc8acee2abe558970daac27395904e7600482015260a086013560248201526001600160a01b038416925063da0f6c709150604401600060405180830381600087803b15801561165a57600080fd5b505af115801561166e573d6000803e3d6000fd5b5050604051630da0f6c760e41b81527fb4c601c38beae7eebb719eda3438f59fcbfd4c6dd7d38c00665b6fd5b432df32600482015260c086013560248201526001600160a01b038416925063da0f6c709150604401600060405180830381600087803b1580156116dd57600080fd5b505af11580156116f1573d6000803e3d6000fd5b5050604051630da0f6c760e41b81527f9876c0f0505bfb2b1c38d3bbd25ba13159172cd0868972d76927723f5a9480fc600482015260e086013560248201526001600160a01b038416925063da0f6c709150604401600060405180830381600087803b15801561176057600080fd5b505af1158015611774573d6000803e3d6000fd5b5050604051630da0f6c760e41b81527f02a3530cbb6e7c084516c86f68bd62c3e3fcd783c6c5d7e138616207f7a32250600482015261010086013560248201526001600160a01b038416925063da0f6c709150604401600060405180830381600087803b1580156117e457600080fd5b505af11580156117f8573d6000803e3d6000fd5b5050604051631da7c90d60e11b81527fc77068975ba2254bd67080aa196783f213ee682a15d902d03f33782130cf737d60048201526001600160a01b03878116602483015284169250633b4f921a9150604401600060405180830381600087803b15801561186557600080fd5b505af1158015611879573d6000803e3d6000fd5b5060019998505050505050505050565b60008130331461189857600080fd5b891561187957604051630da0f6c760e41b81527f5b7b19076468102b84afbef323d128866c396a716ce4ce29f84beef8d266f3af6004820152600160248201526001600160a01b0382169063da0f6c7090604401600060405180830381600087803b15801561190657600080fd5b505af115801561191a573d6000803e3d6000fd5b50506040517ff958b7100000000000000000000000000000000000000000000000000000000081526001600160a01b038416925063f958b7109150611987907fa4b6f581a2d1e8b24bacedf9a91a13c8df6147ffb9d2bd4a770d867d91018da6908d908d90600401612e39565b600060405180830381600087803b1580156119a157600080fd5b505af11580156119b5573d6000803e3d6000fd5b50508851604051630da0f6c760e41b81527f23f0530138a805a7a3c83e0d6298d353102473dc25666f75173de90ac5414c82600482015260248101919091526001600160a01b038416925063da0f6c709150604401600060405180830381600087803b158015611a2457600080fd5b505af1158015611a38573d6000803e3d6000fd5b5050505086600060038110611a5d57634e487b7160e01b600052603260045260246000fd5b60200201511580611a6f575086516001145b80611a7b575086516002145b15611b88576020870151604051630da0f6c760e41b81527f4481bb4c8bc94e65f81ab5591f704165aab99eb4197df7acf672022476933f58600482015260248101919091526001600160a01b0382169063da0f6c7090604401600060405180830381600087803b158015611aee57600080fd5b505af1158015611b02573d6000803e3d6000fd5b5050604051631da7c90d60e11b81527faa2cc36fff47c5c104b89a4abef628c92272c0af9c4db27739bc445b2f51e9a260048201526001600160a01b03898116602483015284169250633b4f921a9150604401600060405180830381600087803b158015611b6f57600080fd5b505af1158015611b83573d6000803e3d6000fd5b505050505b865160021415611c19576040808801519051630da0f6c760e41b81527fe33a9c3c87c85b9efd09c180b8fd30ca34326eb72e20fdd832b510971ccf71ae600482015260248101919091526001600160a01b0382169063da0f6c7090604401600060405180830381600087803b158015611c0057600080fd5b505af1158015611c14573d6000803e3d6000fd5b505050505b865160041415611caa576020870151604051630da0f6c760e41b81527f38cbcea6ba035c1d1890c83ce99918342ef746d839f9c2e2d4966d30a7e70b34600482015260248101919091526001600160a01b0382169063da0f6c7090604401600060405180830381600087803b158015611c9157600080fd5b505af1158015611ca5573d6000803e3d6000fd5b505050505b86516003148015611cba57508315155b15611879576040516317ba7d8560e01b81527fd90e10040720d66c9412cb511e3dbb6ba51669248a7495e763d44ab426893efa60048201526000906001600160a01b038316906317ba7d859060240160206040518083038186803b158015611d2157600080fd5b505afa158015611d35573d6000803e3d6000fd5b505050506040513d601f19601f82011682018060405250810190611d599190612579565b905060005b60ff8116861115611e3c57816001600160a01b03166333f7bc0c8489898560ff16818110611d9c57634e487b7160e01b600052603260045260246000fd5b9050602002016020810190611db19190612556565b6040517fffffffff0000000000000000000000000000000000000000000000000000000060e085901b1681526001600160a01b03928316600482015291166024820152604401600060405180830381600087803b158015611e1157600080fd5b505af1158015611e25573d6000803e3d6000fd5b505050508080611e34906131a2565b915050611d5e565b50505060019998505050505050505050565b60005b6006811015611f6f576000828260068110611e7c57634e487b7160e01b600052603260045260246000fd5b6020020151516001600160a01b0316838360068110611eab57634e487b7160e01b600052603260045260246000fd5b602002015160200151604051611ec19190612b66565b6000604051808303816000865af19150503d8060008114611efe576040519150601f19603f3d011682016040523d82523d6000602084013e611f03565b606091505b5050905080611f1d836002611f1891906130d1565b61224a565b604051602001611f2d9190612b82565b60405160208183030381529060405290611f5a5760405162461bcd60e51b815260040161032f9190612ef7565b50508080611f6790613169565b915050611e51565b5050565b6000303314611f8157600080fd5b6040517f3baeff3f00000000000000000000000000000000000000000000000000000000815285906001600160a01b03821690633baeff3f90611fcc90889088908890600401612eca565b600060405180830381600087803b158015611fe657600080fd5b505af1158015611ffa573d6000803e3d6000fd5b50506040517f1d1f0a27000000000000000000000000000000000000000000000000000000008152600092506001600160a01b0384169150631d1f0a27906120489089908990600401612eb6565b60206040518083038186803b15801561206057600080fd5b505afa158015612074573d6000803e3d6000fd5b505050506040513d601f19601f820116820180604052508101906120989190612579565b90506001600160a01b0381166121165760405162461bcd60e51b815260206004820152602f60248201527f53756d6d6d6f6e44616f3a3a73756d6d6f6e56696e7461676544616f3a3a637260448201527f656174652064616f206661696c65640000000000000000000000000000000000606482015260840161032f565b7fc97f13857137bdfa897b81b7697bbd055e5d99fc946c3a047235235c3bd87db0878288888860405161214d959493929190612cb0565b60405180910390a15060019695505050505050565b6121be816040516024016121769190612ef7565b60408051601f198184030181529190526020810180516001600160e01b03167f41304fac000000000000000000000000000000000000000000000000000000001790526123a0565b50565b6040517f5f15b1d90000000000000000000000000000000000000000000000000000000081526001600160a01b038481166004830152838116602483015260448201839052851690635f15b1d990606401600060405180830381600087803b15801561222c57600080fd5b505af1158015612240573d6000803e3d6000fd5b5050505050505050565b60608161228a57505060408051808201909152600181527f3000000000000000000000000000000000000000000000000000000000000000602082015290565b8160005b81156122b4578061229e81613169565b91506122ad9050600a8361310e565b915061228e565b60008167ffffffffffffffff8111156122dd57634e487b7160e01b600052604160045260246000fd5b6040519080825280601f01601f191660200182016040528015612307576020820181803683370190505b5090505b84156123985761231c600183613122565b9150612329600a866131c2565b6123349060306130d1565b60f81b81838151811061235757634e487b7160e01b600052603260045260246000fd5b60200101907effffffffffffffffffffffffffffffffffffffffffffffffffffffffffffff1916908160001a905350612391600a8661310e565b945061230b565b949350505050565b6121be8160006a636f6e736f6c652e6c6f679050600080835160208501845afa505050565b604051806101600160405280606081526020016060815260200160608152602001606081526020016060815260200160608152602001606081526020016000151581526020016060815260200160006001600160a01b0316815260200161242a61242f565b905290565b6040518060c001604052806006905b60408051808201909152600081526060602082015281526020019060019003908161243e5790505090565b803561247481613218565b919050565b60008083601f84011261248a578182fd5b50813567ffffffffffffffff8111156124a1578182fd5b6020830191508360208260051b85010111156124bc57600080fd5b9250929050565b60008083601f8401126124d4578182fd5b50813567ffffffffffffffff8111156124eb578182fd5b6020830191508360206060830285010111156124bc57600080fd5b8035801515811461247457600080fd5b60008083601f840112612527578182fd5b50813567ffffffffffffffff81111561253e578182fd5b6020830191508360208285010111156124bc57600080fd5b600060208284031215612567578081fd5b813561257281613218565b9392505050565b60006020828403121561258a578081fd5b815161257281613218565b6000806000606084860312156125a9578182fd5b83356125b481613218565b925060208401356125c481613218565b915060408401356125d481613218565b809150509250925092565b6000806000806101808086880312156125f6578182fd5b853561260181613218565b9450602086013561261181613218565b9350604086013561262181613218565b9250858101871015612631578182fd5b509295919450926060019150565b600080600080600060808688031215612656578081fd5b853561266181613218565b9450602086013561267181613218565b9350604086013567ffffffffffffffff81111561268c578182fd5b612698888289016124c3565b90945092505060608601356126ac81613218565b809150509295509295909350565b600080600080606085870312156126cf578182fd5b84356126da81613218565b9350602085013567ffffffffffffffff8111156126f5578283fd5b612701878288016124c3565b909450925050604085013561271581613218565b939692955090935050565b60008060008060608587031215612735578182fd5b843561274081613218565b9350602085013567ffffffffffffffff81111561275b578283fd5b61270187828801612516565b6000806000806000806080878903121561277f578384fd5b863561278a81613218565b955060208701359450604087013567ffffffffffffffff808211156127ad578586fd5b6127b98a838b01612479565b909650945060608901359150808211156127d1578283fd5b506127de89828a01612479565b979a9699509497509295939492505050565b60006020808385031215612802578182fd5b823567ffffffffffffffff80821115612819578384fd5b8185019150601f868184011261282d578485fd5b61283561305a565b80848960c087011115612846578788fd5b875b60068110156129055781358681111561285f57898afd5b87016040818d03121561287057898afd5b612878613031565b813561288381613218565b8152818a013588811115612895578b8cfd5b8083019250508c878301126128a8578a8bfd5b8135888111156128ba576128ba613202565b6128cb8b601f198a840116016130a0565b8181528e8c8386010111156128de578c8dfd5b818c85018d8301379081018b018c9052818b01528552509287019290870190600101612848565b50909998505050505050505050565b600060208284031215612925578081fd5b61257282612506565b600080600080600080600080610100898b03121561294a578586fd5b61295389612506565b97506020808a013567ffffffffffffffff80821115612970578889fd5b61297c8d838e01612516565b9250809a50508198508c605f8d0112612993578485fd5b61299b61307d565b91508160408d0160a08e018f8111156129b2578788fd5b875b60038110156129d1578235865294860194918601916001016129b4565b50829a506129de81612469565b995050505060c08c01359250808311156129f6578485fd5b5050612a048b828c01612479565b9094509250612a17905060e08a01612469565b90509295985092959890939650565b600060208284031215612a37578081fd5b813567ffffffffffffffff811115612a4d578182fd5b82016102608185031215612572578182fd5b600060208284031215612a70578081fd5b813560ff81168114612572578182fd5b81835260006020808501945082825b85811015612abd578135612aa281613218565b6001600160a01b031687529582019590820190600101612a8f565b509495945050505050565b81835260006020808501945082825b85811015612abd578135875282820135612af081613218565b6001600160a01b0316878401526040828101356fffffffffffffffffffffffffffffffff8116808214612b21578687fd5b91890191909152506060968701969190910190600101612ad7565b8183528181602085013750600080602083850101526020601f19601f840116840101905092915050565b60008251612b78818460208701613139565b9190910192915050565b7f6c6f772d6c6576656c2063616c6c206f662073756d6d6f6e56696e746167654481527f616f000000000000000000000000000000000000000000000000000000000000602082015260008251612be0816022850160208701613139565b7f206661696c6564000000000000000000000000000000000000000000000000006022939091019283015250602901919050565b6000610180820190506001600160a01b03808716835260208187168185015281861660408501526060840191508460005b6009811015612c6257815184529282019290820190600101612c45565b5050505095945050505050565b60006001600160a01b038088168352808716602084015260806040840152612c9b608084018688612ac8565b91508084166060840152509695505050505050565b60006001600160a01b038088168352808716602084015260806040840152612c9b608084018688612b3c565b60006001600160a01b03808716835260606020840152612d00606084018688612ac8565b915080841660408401525095945050505050565b60006001600160a01b03808716835260606020840152612d00606084018688612b3c565b6001600160a01b0387168152856020820152608060408201526000612d61608083018688612a80565b82810360608401528381527f07ffffffffffffffffffffffffffffffffffffffffffffffffffffffffffffff841115612d98578182fd5b8360051b8086602084013701602001908152979650505050505050565b60006101008a1515835260208181850152612dd38285018b8d612b3c565b91506040840189845b6003811015612df957815183529183019190830190600101612ddc565b505050506001600160a01b0380881660a085015283820360c0850152612e20828789612a80565b925080851660e085015250509998505050505050505050565b838152604060208201526000612e53604083018486612b3c565b95945050505050565b60006001600160a01b03808716835280861660208401525060606040830152612e89606083018486612ac8565b9695505050505050565b6001600160a01b0384168152604060208201526000612e53604083018486612ac8565b602081526000612398602083018486612b3c565b604081526000612ede604083018587612b3c565b90506001600160a01b0383166020830152949350505050565b6020815260008251806020840152612f16816040850160208701613139565b601f01601f19169190910160400192915050565b6000808335601e19843603018112612f40578283fd5b83018035915067ffffffffffffffff821115612f5a578283fd5b6020019150600581901b36038213156124bc57600080fd5b6000808335601e19843603018112612f88578283fd5b83018035915067ffffffffffffffff821115612fa2578283fd5b60200191506060810236038213156124bc57600080fd5b6000808335601e19843603018112612fcf578283fd5b83018035915067ffffffffffffffff821115612fe9578283fd5b6020019150368190038213156124bc57600080fd5b600082357fffffffffffffffffffffffffffffffffffffffffffffffffffffffffffffff21833603018112612b78578182fd5b6040805190810167ffffffffffffffff8111828210171561305457613054613202565b60405290565b60405160c0810167ffffffffffffffff8111828210171561305457613054613202565b6040516060810167ffffffffffffffff8111828210171561305457613054613202565b604051601f8201601f1916810167ffffffffffffffff811182821017156130c9576130c9613202565b604052919050565b600082198211156130e4576130e46131d6565b500190565b600060ff821660ff84168060ff03821115613106576131066131d6565b019392505050565b60008261311d5761311d6131ec565b500490565b600082821015613134576131346131d6565b500390565b60005b8381101561315457818101518382015260200161313c565b83811115613163576000848401525b50505050565b60007fffffffffffffffffffffffffffffffffffffffffffffffffffffffffffffffff82141561319b5761319b6131d6565b5060010190565b600060ff821660ff8114156131b9576131b96131d6565b60010192915050565b6000826131d1576131d16131ec565b500690565b634e487b7160e01b600052601160045260246000fd5b634e487b7160e01b600052601260045260246000fd5b634e487b7160e01b600052604160045260246000fd5b6001600160a01b03811681146121be57600080fdfea26469706673582212200ffdb459e183e36b2a3169329bcb07ec665bf7c19f2b7ff0c42c5d4db650917e64736f6c63430008040033",
  "linkReferences": {},
  "deployedLinkReferences": {}
}