{
  "_format": "hh-sol-artifact-1",
  "contractName": "VintageFundRaiseAdapterContract",
  "sourceName": "contracts/vintage/adapters/VintageFundRaise.sol",
  "abi": [
    {
      "inputs": [],
      "name": "ACCESS_DENIED",
      "type": "error"
    },
    {
      "inputs": [],
      "name": "DAOSET_PROPOSAL_UNDONE",
      "type": "error"
    },
    {
      "inputs": [],
      "name": "INVALID_PARAM",
      "type": "error"
    },
    {
      "inputs": [],
      "name": "LAST_NEW_FUND_PROPOSAL_NOT_FINISH",
      "type": "error"
    },
    {
      "inputs": [],
      "name": "NOT_CLEAR_FUND",
      "type": "error"
    },
    {
      "inputs": [],
      "name": "UNDONE_INVESTMENT_PROPOSAL",
      "type": "error"
    },
    {
      "inputs": [],
      "name": "VOTING_ADAPTER_NOT_FOUND",
      "type": "error"
    },
    {
      "inputs": [],
      "name": "VOTING_NOT_FINISH",
      "type": "error"
    },
    {
      "anonymous": false,
      "inputs": [
        {
          "indexed": false,
          "internalType": "address",
          "name": "daoAddr",
          "type": "address"
        },
        {
          "indexed": false,
          "internalType": "bytes32",
          "name": "proposalId",
          "type": "bytes32"
        }
      ],
      "name": "ProposalCreated",
      "type": "event"
    },
    {
      "anonymous": false,
      "inputs": [
        {
          "indexed": false,
          "internalType": "address",
          "name": "daoAddr",
          "type": "address"
        },
        {
          "indexed": false,
          "internalType": "bytes32",
          "name": "proposalId",
          "type": "bytes32"
        },
        {
          "indexed": false,
          "internalType": "enum IVintageFundRaise.ProposalState",
          "name": "state",
          "type": "uint8"
        },
        {
          "indexed": false,
          "internalType": "uint128",
          "name": "allVotingWeight",
          "type": "uint128"
        },
        {
          "indexed": false,
          "internalType": "uint128",
          "name": "nbYes",
          "type": "uint128"
        },
        {
          "indexed": false,
          "internalType": "uint128",
          "name": "nbNo",
          "type": "uint128"
        },
        {
          "indexed": false,
          "internalType": "uint256",
          "name": "voteResult",
          "type": "uint256"
        }
      ],
      "name": "proposalExecuted",
      "type": "event"
    },
    {
      "inputs": [
        {
          "internalType": "address",
          "name": "",
          "type": "address"
        },
        {
          "internalType": "bytes32",
          "name": "",
          "type": "bytes32"
        }
      ],
      "name": "Proposals",
      "outputs": [
        {
          "internalType": "address",
          "name": "acceptTokenAddr",
          "type": "address"
        },
        {
          "components": [
            {
              "internalType": "uint256",
              "name": "fundRaiseTarget",
              "type": "uint256"
            },
            {
              "internalType": "uint256",
              "name": "fundRaiseMaxAmount",
              "type": "uint256"
            },
            {
              "internalType": "uint256",
              "name": "lpMinDepositAmount",
              "type": "uint256"
            },
            {
              "internalType": "uint256",
              "name": "lpMaxDepositAmount",
              "type": "uint256"
            }
          ],
          "internalType": "struct IVintageFundRaise.FundRaiseAmountInfo",
          "name": "amountInfo",
          "type": "tuple"
        },
        {
          "components": [
            {
              "internalType": "uint256",
              "name": "fundRaiseStartTime",
              "type": "uint256"
            },
            {
              "internalType": "uint256",
              "name": "fundRaiseEndTime",
              "type": "uint256"
            },
            {
              "internalType": "uint256",
              "name": "fundTerm",
              "type": "uint256"
            },
            {
              "internalType": "uint256",
              "name": "redemptPeriod",
              "type": "uint256"
            },
            {
              "internalType": "uint256",
              "name": "redemptDuration",
              "type": "uint256"
            },
            {
              "internalType": "uint256",
              "name": "refundDuration",
              "type": "uint256"
            }
          ],
          "internalType": "struct IVintageFundRaise.FundRiaseTimeInfo",
          "name": "timesInfo",
          "type": "tuple"
        },
        {
          "components": [
            {
              "internalType": "uint256",
              "name": "managementFeeRatio",
              "type": "uint256"
            },
            {
              "internalType": "uint256",
              "name": "paybackTokenManagementFeeRatio",
              "type": "uint256"
            },
            {
              "internalType": "uint256",
              "name": "redepmtFeeRatio",
              "type": "uint256"
            },
            {
              "internalType": "uint256",
              "name": "protocolFeeRatio",
              "type": "uint256"
            },
            {
              "internalType": "address",
              "name": "managementFeeAddress",
              "type": "address"
            },
            {
              "internalType": "address",
              "name": "redemptionFeeReceiver",
              "type": "address"
            }
          ],
          "internalType": "struct IVintageFundRaise.FundRaiseRewardAndFeeInfo",
          "name": "feeInfo",
          "type": "tuple"
        },
        {
          "components": [
            {
              "internalType": "uint256",
              "name": "fundFromInverstor",
              "type": "uint256"
            },
            {
              "internalType": "uint256",
              "name": "projectTokenFromInvestor",
              "type": "uint256"
            }
          ],
          "internalType": "struct IVintageFundRaise.ProoserReward",
          "name": "proposerReward",
          "type": "tuple"
        },
        {
          "components": [
            {
              "internalType": "bool",
              "name": "enable",
              "type": "bool"
            },
            {
              "internalType": "uint8",
              "name": "vtype",
              "type": "uint8"
            },
            {
              "internalType": "address",
              "name": "token",
              "type": "address"
            },
            {
              "internalType": "uint256",
              "name": "tokenId",
              "type": "uint256"
            },
            {
              "internalType": "uint256",
              "name": "amount",
              "type": "uint256"
            }
          ],
          "internalType": "struct IVintageFundRaise.PriorityDeposite",
          "name": "priorityDeposite",
          "type": "tuple"
        },
        {
          "internalType": "uint8",
          "name": "fundRaiseType",
          "type": "uint8"
        },
        {
          "internalType": "enum IVintageFundRaise.ProposalState",
          "name": "state",
          "type": "uint8"
        },
        {
          "internalType": "uint256",
          "name": "creationTime",
          "type": "uint256"
        },
        {
          "internalType": "uint256",
          "name": "stopVoteTime",
          "type": "uint256"
        },
        {
          "components": [
            {
              "internalType": "bool",
              "name": "enable",
              "type": "bool"
            },
            {
              "internalType": "uint256",
              "name": "cap",
              "type": "uint256"
            }
          ],
          "internalType": "struct IVintageFundRaise.VintageInvestorCapInfo",
          "name": "investorCap",
          "type": "tuple"
        },
        {
          "components": [
            {
              "internalType": "bool",
              "name": "enable",
              "type": "bool"
            },
            {
              "internalType": "string",
              "name": "name",
              "type": "string"
            },
            {
              "internalType": "uint8",
              "name": "varifyType",
              "type": "uint8"
            },
            {
              "internalType": "uint256",
              "name": "minAmount",
              "type": "uint256"
            },
            {
              "internalType": "address",
              "name": "tokenAddress",
              "type": "address"
            },
            {
              "internalType": "uint256",
              "name": "tokenId",
              "type": "uint256"
            },
            {
              "internalType": "address[]",
              "name": "whiteList",
              "type": "address[]"
            }
          ],
          "internalType": "struct IVintageFundRaise.VintageInvestorEligibility",
          "name": "investorEligibility",
          "type": "tuple"
        }
      ],
      "stateMutability": "view",
      "type": "function"
    },
    {
      "inputs": [
        {
          "internalType": "contract DaoRegistry",
          "name": "dao",
          "type": "address"
        }
      ],
      "name": "allDone",
      "outputs": [
        {
          "internalType": "bool",
          "name": "",
          "type": "bool"
        }
      ],
      "stateMutability": "view",
      "type": "function"
    },
    {
      "inputs": [
        {
          "internalType": "address",
          "name": "",
          "type": "address"
        }
      ],
      "name": "createdFundCounter",
      "outputs": [
        {
          "internalType": "uint256",
          "name": "",
          "type": "uint256"
        }
      ],
      "stateMutability": "view",
      "type": "function"
    },
    {
      "inputs": [
        {
          "internalType": "address",
          "name": "dao",
          "type": "address"
        },
        {
          "internalType": "bytes32",
          "name": "proposalId",
          "type": "bytes32"
        }
      ],
      "name": "getWhiteList",
      "outputs": [
        {
          "internalType": "address[]",
          "name": "",
          "type": "address[]"
        }
      ],
      "stateMutability": "view",
      "type": "function"
    },
    {
      "inputs": [
        {
          "internalType": "contract DaoRegistry",
          "name": "dao",
          "type": "address"
        },
        {
          "internalType": "bytes32",
          "name": "proposalId",
          "type": "bytes32"
        },
        {
          "internalType": "address",
          "name": "account",
          "type": "address"
        }
      ],
      "name": "isPriorityDepositer",
      "outputs": [
        {
          "internalType": "bool",
          "name": "",
          "type": "bool"
        }
      ],
      "stateMutability": "view",
      "type": "function"
    },
    {
      "inputs": [
        {
          "internalType": "address",
          "name": "",
          "type": "address"
        }
      ],
      "name": "lastProposalIds",
      "outputs": [
        {
          "internalType": "bytes32",
          "name": "",
          "type": "bytes32"
        }
      ],
      "stateMutability": "view",
      "type": "function"
    },
    {
      "inputs": [
        {
          "internalType": "contract DaoRegistry",
          "name": "dao",
          "type": "address"
        },
        {
          "internalType": "bytes32",
          "name": "proposalId",
          "type": "bytes32"
        }
      ],
      "name": "processProposal",
      "outputs": [],
      "stateMutability": "nonpayable",
      "type": "function"
    },
    {
      "inputs": [
        {
          "internalType": "contract DaoRegistry",
          "name": "dao",
          "type": "address"
        },
        {
          "internalType": "bytes32",
          "name": "proposalId",
          "type": "bytes32"
        },
        {
          "internalType": "bool",
          "name": "state",
          "type": "bool"
        }
      ],
      "name": "setProposalState",
      "outputs": [],
      "stateMutability": "nonpayable",
      "type": "function"
    },
    {
      "inputs": [
        {
          "components": [
            {
              "internalType": "contract DaoRegistry",
              "name": "dao",
              "type": "address"
            },
            {
              "components": [
                {
                  "internalType": "uint256",
                  "name": "fundRaiseMinTarget",
                  "type": "uint256"
                },
                {
                  "internalType": "uint256",
                  "name": "fundRaiseMaxCap",
                  "type": "uint256"
                },
                {
                  "internalType": "uint256",
                  "name": "lpMinDepositAmount",
                  "type": "uint256"
                },
                {
                  "internalType": "uint256",
                  "name": "lpMaxDepositAmount",
                  "type": "uint256"
                },
                {
                  "internalType": "uint8",
                  "name": "fundRaiseType",
                  "type": "uint8"
                }
              ],
              "internalType": "struct IVintageFundRaise.ProposalFundRaiseInfo",
              "name": "proposalFundRaiseInfo",
              "type": "tuple"
            },
            {
              "components": [
                {
                  "internalType": "uint256",
                  "name": "startTime",
                  "type": "uint256"
                },
                {
                  "internalType": "uint256",
                  "name": "endTime",
                  "type": "uint256"
                },
                {
                  "internalType": "uint256",
                  "name": "fundTerm",
                  "type": "uint256"
                },
                {
                  "internalType": "uint256",
                  "name": "redemptPeriod",
                  "type": "uint256"
                },
                {
                  "internalType": "uint256",
                  "name": "redemptInterval",
                  "type": "uint256"
                },
                {
                  "internalType": "uint256",
                  "name": "refundPeriod",
                  "type": "uint256"
                }
              ],
              "internalType": "struct IVintageFundRaise.ProposalTimeInfo",
              "name": "proposalTimeInfo",
              "type": "tuple"
            },
            {
              "components": [
                {
                  "internalType": "uint256",
                  "name": "managementFeeRatio",
                  "type": "uint256"
                },
                {
                  "internalType": "uint256",
                  "name": "paybackTokenManagementFeeRatio",
                  "type": "uint256"
                },
                {
                  "internalType": "uint256",
                  "name": "redepmtFeeRatio",
                  "type": "uint256"
                }
              ],
              "internalType": "struct IVintageFundRaise.ProposalFeeInfo",
              "name": "proposalFeeInfo",
              "type": "tuple"
            },
            {
              "components": [
                {
                  "internalType": "address",
                  "name": "managementFeeAddress",
                  "type": "address"
                },
                {
                  "internalType": "address",
                  "name": "redemptionFeeReceiver",
                  "type": "address"
                },
                {
                  "internalType": "address",
                  "name": "fundRaiseTokenAddress",
                  "type": "address"
                }
              ],
              "internalType": "struct IVintageFundRaise.ProposalAddressInfo",
              "name": "proposalAddressInfo",
              "type": "tuple"
            },
            {
              "components": [
                {
                  "internalType": "uint256",
                  "name": "fundFromInverstor",
                  "type": "uint256"
                },
                {
                  "internalType": "uint256",
                  "name": "projectTokenFromInvestor",
                  "type": "uint256"
                }
              ],
              "internalType": "struct IVintageFundRaise.ProoserReward",
              "name": "proposerReward",
              "type": "tuple"
            },
            {
              "components": [
                {
                  "internalType": "bool",
                  "name": "enable",
                  "type": "bool"
                },
                {
                  "internalType": "uint8",
                  "name": "vtype",
                  "type": "uint8"
                },
                {
                  "internalType": "address",
                  "name": "token",
                  "type": "address"
                },
                {
                  "internalType": "uint256",
                  "name": "tokenId",
                  "type": "uint256"
                },
                {
                  "internalType": "uint256",
                  "name": "amount",
                  "type": "uint256"
                },
                {
                  "internalType": "address[]",
                  "name": "whitelist",
                  "type": "address[]"
                }
              ],
              "internalType": "struct IVintageFundRaise.ProposalPriorityDepositInfo",
              "name": "priorityDeposite",
              "type": "tuple"
            },
            {
              "components": [
                {
                  "internalType": "bool",
                  "name": "enable",
                  "type": "bool"
                },
                {
                  "internalType": "uint256",
                  "name": "cap",
                  "type": "uint256"
                }
              ],
              "internalType": "struct IVintageFundRaise.VintageInvestorCapInfo",
              "name": "investorCap",
              "type": "tuple"
            },
            {
              "components": [
                {
                  "internalType": "bool",
                  "name": "enable",
                  "type": "bool"
                },
                {
                  "internalType": "string",
                  "name": "name",
                  "type": "string"
                },
                {
                  "internalType": "uint8",
                  "name": "varifyType",
                  "type": "uint8"
                },
                {
                  "internalType": "uint256",
                  "name": "minAmount",
                  "type": "uint256"
                },
                {
                  "internalType": "address",
                  "name": "tokenAddress",
                  "type": "address"
                },
                {
                  "internalType": "uint256",
                  "name": "tokenId",
                  "type": "uint256"
                },
                {
                  "internalType": "address[]",
                  "name": "whiteList",
                  "type": "address[]"
                }
              ],
              "internalType": "struct IVintageFundRaise.VintageInvestorEligibility",
              "name": "investorEligibility",
              "type": "tuple"
            }
          ],
          "internalType": "struct IVintageFundRaise.ProposalParams",
          "name": "params",
          "type": "tuple"
        }
      ],
      "name": "submitProposal",
      "outputs": [],
      "stateMutability": "nonpayable",
      "type": "function"
    }
  ],
  "bytecode": "0x608060405234801561001057600080fd5b5061590a80620000216000396000f3fe608060405234801561001057600080fd5b50600436106100a35760003560e01c8063642fc0c0116100765780639573167d1161005b5780639573167d14610166578063bf49999414610179578063cb7adcb5146101a457600080fd5b8063642fc0c0146101305780636d3cc0401461015357600080fd5b806301c22a3d146100a85780630c1c6f44146100db5780634122a485146100f05780634fc0a76d14610110575b600080fd5b6100c86100b6366004614c7c565b60026020526000908152604090205481565b6040519081526020015b60405180910390f35b6100ee6100e9366004614e76565b6101b7565b005b6101036100fe366004614cb4565b610308565b6040516100d29190615418565b6100c861011e366004614c7c565b60016020526000908152604090205481565b61014361013e366004614c7c565b610340565b60405190151581526020016100d2565b610143610161366004614e35565b610377565b6100ee610174366004614e23565b6108de565b61018c610187366004614cb4565b610f89565b6040516100d29c9b9a9998979695949392919061529a565b6100ee6101b2366004614f12565b611351565b6040516317ba7d8560e01b81527faaff643bdbd909f604d46ce015336f7e20fee3ac4a55cef3610188dee176c89260048201526001600160a01b038416906317ba7d859060240160206040518083038186803b15801561021657600080fd5b505afa15801561022a573d6000803e3d6000fd5b505050506040513d601f19601f8201168201806040525081019061024e9190614c98565b6001600160a01b0316336001600160a01b031614610298576040517f95383ea100000000000000000000000000000000000000000000000000000000815260040160405180910390fd5b80156102d357506001600160a01b039190911660009081526020818152604080832093835292905220601601805461ff001916610300179055565b506001600160a01b039190911660009081526020818152604080832093835292905220601601805461ff001916610400179055565b6001600160a01b0382166000908152600360209081526040808320848452909152902060609061033790612d65565b90505b92915050565b6001600160a01b0381166000908152600460205260408120819061036390612d72565b1161036f57600161033a565b600092915050565b604051634941d71d60e11b81527f6c2aeb5335c37bc984e34d16b5daacfd3a43d3358ad5314ed1a17f8b68bc10a560048201526000906001600160a01b03851690639283ae3a9060240160206040518083038186803b1580156103d957600080fd5b505afa1580156103ed573d6000803e3d6000fd5b505050506040513d601f19601f820116820180604052508101906104119190614e0b565b600114156108d357604051634941d71d60e11b81527f1710acff43ba8f339e18305d5d5116602e0cf6b226983bae821884b877626aa660048201526000906001600160a01b03861690639283ae3a9060240160206040518083038186803b15801561047b57600080fd5b505afa15801561048f573d6000803e3d6000fd5b505050506040513d601f19601f820116820180604052508101906104b39190614e0b565b6040517ffd310d290000000000000000000000000000000000000000000000000000000081527f3b45967f728449b4fbffd6027f6b8d86035e572016480c7bc2a55edeec4f3ca560048201529091506000906001600160a01b0387169063fd310d299060240160206040518083038186803b15801561053157600080fd5b505afa158015610545573d6000803e3d6000fd5b505050506040513d601f19601f820116820180604052508101906105699190614c98565b604051634941d71d60e11b81527f20d88b77300b4133cc1f146fdec45d5266086bc18b256e8e607ef37ec1d047b260048201529091506000906001600160a01b03881690639283ae3a9060240160206040518083038186803b1580156105ce57600080fd5b505afa1580156105e2573d6000803e3d6000fd5b505050506040513d601f19601f820116820180604052508101906106069190614e0b565b604051634941d71d60e11b81527f04d4d5cbde9f5c38336ca61af88f78d20a912993a64a3951a1cc2ccd8bb0e89960048201529091506000906001600160a01b03891690639283ae3a9060240160206040518083038186803b15801561066b57600080fd5b505afa15801561067f573d6000803e3d6000fd5b505050506040513d601f19601f820116820180604052508101906106a39190614e0b565b90508315801561072d57506040516370a0823160e01b81526001600160a01b0387811660048301528391908516906370a082319060240160206040518083038186803b1580156106f257600080fd5b505afa158015610706573d6000803e3d6000fd5b505050506040513d601f19601f8201168201806040525081019061072a9190614e0b565b10155b1561073f5760019450505050506108d7565b8360011480156107c957506040516370a0823160e01b81526001600160a01b0387811660048301528391908516906370a082319060240160206040518083038186803b15801561078e57600080fd5b505afa1580156107a2573d6000803e3d6000fd5b505050506040513d601f19601f820116820180604052508101906107c69190614e0b565b10155b156107db5760019450505050506108d7565b83600214801561086a5750604051627eeac760e11b81526001600160a01b0387811660048301526024820183905283919085169062fdd58e9060440160206040518083038186803b15801561082f57600080fd5b505afa158015610843573d6000803e3d6000fd5b505050506040513d601f19601f820116820180604052508101906108679190614e0b565b10155b1561087c5760019450505050506108d7565b8360031480156108b457506001600160a01b03881660009081526003602090815260408083208a845290915290206108b49087612d7c565b156108c65760019450505050506108d7565b60009450505050506108d7565b5060005b9392505050565b8160006108ea82612d9e565b90506108f4614945565b6001600160a01b0385166000818152602081815260408083208884529091529081902090517f30490e91000000000000000000000000000000000000000000000000000000008152600481018790529091906330490e9190602401600060405180830381600087803b15801561096957600080fd5b505af115801561097d573d6000803e3d6000fd5b50506040516317ba7d8560e01b81527faaff643bdbd909f604d46ce015336f7e20fee3ac4a55cef3610188dee176c89260048201526001600160a01b03891692506317ba7d85915060240160206040518083038186803b1580156109e057600080fd5b505afa1580156109f4573d6000803e3d6000fd5b505050506040513d601f19601f82011682018060405250810190610a189190614c98565b6001600160a01b0390811660608401526040517f40de703e00000000000000000000000000000000000000000000000000000000815260048101879052908716906340de703e9060240160206040518083038186803b158015610a7a57600080fd5b505afa158015610a8e573d6000803e3d6000fd5b505050506040513d601f19601f82011682018060405250810190610ab29190614c98565b6001600160a01b031660208301819052610af8576040517f72bacacc00000000000000000000000000000000000000000000000000000000815260040160405180910390fd5b60208201516040517f76225e730000000000000000000000000000000000000000000000000000000081526001600160a01b03888116600483015260248201889052909116906376225e739060440160606040518083038186803b158015610b5f57600080fd5b505afa158015610b73573d6000803e3d6000fd5b505050506040513d601f19601f82011682018060405250810190610b979190614ecb565b6fffffffffffffffffffffffffffffffff80821660c0870152821660a086015260808501836005811115610bdb57634e487b7160e01b600052602160045260246000fd5b6005811115610bfa57634e487b7160e01b600052602160045260246000fd5b90525060029150610c089050565b82608001516005811115610c2c57634e487b7160e01b600052602160045260246000fd5b1415610dfc5760168101805461010061ff00199091161790556040516317ba7d8560e01b81527f5443327e16211d6f6930defab8b33523e6990ea67a94b67a6f23dee03dbeb88d60048201526001600160a01b038716906317ba7d859060240160206040518083038186803b158015610ca457600080fd5b505afa158015610cb8573d6000803e3d6000fd5b505050506040513d601f19601f82011682018060405250810190610cdc9190614c98565b6001600160a01b0316638696df5387836040518363ffffffff1660e01b8152600401610d09929190615463565b600060405180830381600087803b158015610d2357600080fd5b505af1158015610d37573d6000803e3d6000fd5b50505060608301516040517ff10e6b6b0000000000000000000000000000000000000000000000000000000081526001600160a01b038981166004830152909116915063f10e6b6b90602401600060405180830381600087803b158015610d9d57600080fd5b505af1158015610db1573d6000803e3d6000fd5b5050505060168101805461ff0019166102001790556001600160a01b03861660009081526001602081905260408220805491929091610df190849061575b565b90915550610e9e9050565b600382608001516005811115610e2257634e487b7160e01b600052602160045260246000fd5b1480610e515750600182608001516005811115610e4f57634e487b7160e01b600052602160045260246000fd5b145b15610e6c5760168101805461ff001916610400179055610e9e565b6040517f70fc772800000000000000000000000000000000000000000000000000000000815260040160405180910390fd5b6001600160a01b0386166000908152600460205260409020610ec09086613069565b15610ee9576001600160a01b0386166000908152600460205260409020610ee79086613081565b505b6000610ef5878761308d565b90507f2bdcd9364cd03f3b390f2f088b6dcef6ef67097a47a0a392d981c4ee723771be87878460160160019054906101000a900460ff16848760a001518860c0015189608001516005811115610f5b57634e487b7160e01b600052602160045260246000fd5b604051610f6e979695949392919061523e565b60405180910390a1505050610f8382826133b9565b50505050565b6000602052816000526040600020602052806000526040600020600091509150508060000160009054906101000a90046001600160a01b0316908060010160405180608001604052908160008201548152602001600182015481526020016002820154815260200160038201548152505090806005016040518060c001604052908160008201548152602001600182015481526020016002820154815260200160038201548152602001600482015481526020016005820154815250509080600b016040518060c0016040529081600082015481526020016001820154815260200160028201548152602001600382015481526020016004820160009054906101000a90046001600160a01b03166001600160a01b03166001600160a01b031681526020016005820160009054906101000a90046001600160a01b03166001600160a01b03166001600160a01b03168152505090806011016040518060400160405290816000820154815260200160018201548152505090806013016040518060a00160405290816000820160009054906101000a900460ff161515151581526020016000820160019054906101000a900460ff1660ff1660ff1681526020016000820160029054906101000a90046001600160a01b03166001600160a01b03166001600160a01b0316815260200160018201548152602001600282015481525050908060160160009054906101000a900460ff16908060160160019054906101000a900460ff1690806017015490806018015490806019016040518060400160405290816000820160009054906101000a900460ff161515151581526020016001820154815250509080601b016040518060e00160405290816000820160009054906101000a900460ff1615151515815260200160018201805461122d906157ca565b80601f0160208091040260200160405190810160405280929190818152602001828054611259906157ca565b80156112a65780601f1061127b576101008083540402835291602001916112a6565b820191906000526020600020905b81548152906001019060200180831161128957829003601f168201915b5050509183525050600282015460ff16602080830191909152600383015460408084019190915260048401546001600160a01b031660608401526005840154608084015260068401805482518185028101850190935280835260a090940193919290919083018282801561134357602002820191906000526020600020905b81546001600160a01b03168152600190910190602001808311611325575b50505050508152505090508c565b61135e6020820182614c7c565b61136881336133c8565b6113756020830183614c7c565b600061138082612d9e565b905060006002816113946020880188614c7c565b6001600160a01b03166001600160a01b03168152602001908152602001600020541415801561151a5750600080806113cf6020880188614c7c565b6001600160a01b03166001600160a01b031681526020019081526020016000206000600260008860000160208101906114089190614c7c565b6001600160a01b03166001600160a01b0316815260200190815260200160002054815260200190815260200160002060160160019054906101000a900460ff16600481111561146757634e487b7160e01b600052602160045260246000fd5b148061151a575060016000806114806020880188614c7c565b6001600160a01b03166001600160a01b031681526020019081526020016000206000600260008860000160208101906114b99190614c7c565b6001600160a01b03166001600160a01b0316815260200190815260200160002054815260200190815260200160002060160160019054906101000a900460ff16600481111561151857634e487b7160e01b600052602160045260246000fd5b145b15611551576040517fc49f1f0a00000000000000000000000000000000000000000000000000000000815260040160405180910390fd5b611644604051806102e001604052806000815260200160006001600160a01b0316815260200160006001600160a01b0316815260200160006001600160a01b0316815260200160006001600160a01b0316815260200160008019168152602001600081526020016000815260200160008152602001600081526020016000815260200160008152602001600081526020016000815260200160008152602001600081526020016000815260200160008152602001600081526020016000815260200160006001600160a01b0316815260200160006001600160a01b0316815260200160006001600160a01b031681525090565b6116516020860186614c7c565b6040516317ba7d8560e01b81527f77cdf6056467142a33aa6f753fc1e3907f6850ebf08c7b63b107b0611a69b04e60048201526001600160a01b0391909116906317ba7d859060240160206040518083038186803b1580156116b257600080fd5b505afa1580156116c6573d6000803e3d6000fd5b505050506040513d601f19601f820116820180604052508101906116ea9190614c98565b6001600160a01b03166102a08201819052639a0242fc61170d6020880188614c7c565b6040516001600160e01b031960e084901b1681526001600160a01b03909116600482015260240160206040518083038186803b15801561174c57600080fd5b505afa158015611760573d6000803e3d6000fd5b505050506040513d601f19601f820116820180604052508101906117849190614dc2565b6117ba576040517fd9c6abc500000000000000000000000000000000000000000000000000000000815260040160405180910390fd5b6117c76020860186614c7c565b6040516317ba7d8560e01b81527f0fd8cce4ef00a7a8c0c5f91194bc80f122deefe664dd2a2384687da62ab117d160048201526001600160a01b0391909116906317ba7d859060240160206040518083038186803b15801561182857600080fd5b505afa15801561183c573d6000803e3d6000fd5b505050506040513d601f19601f820116820180604052508101906118609190614c98565b6001600160a01b03166102c0820181905260009063a5d6fb136118866020890189614c7c565b6040516001600160e01b031960e084901b1681526001600160a01b03909116600482015260240160206040518083038186803b1580156118c557600080fd5b505afa1580156118d9573d6000803e3d6000fd5b505050506040513d601f19601f820116820180604052508101906118fd9190614e0b565b11806119a257506102c08101516000906001600160a01b03166362e86df56119286020890189614c7c565b6040516001600160e01b031960e084901b1681526001600160a01b03909116600482015260240160206040518083038186803b15801561196757600080fd5b505afa15801561197b573d6000803e3d6000fd5b505050506040513d601f19601f8201168201806040525081019061199f9190614e0b565b14155b156119d9576040517f1721fd7900000000000000000000000000000000000000000000000000000000815260040160405180910390fd5b6119e66020860186614c7c565b604051634941d71d60e11b81527f9ce69cf04065e3c7823cc5540c0598d8a694bd7a9a5a2a786d8bccf14ed6e2ea60048201526001600160a01b039190911690639283ae3a9060240160206040518083038186803b158015611a4757600080fd5b505afa158015611a5b573d6000803e3d6000fd5b505050506040513d601f19601f82011682018060405250810190611a7f9190614e0b565b8152611a8e6020860186614c7c565b604051634941d71d60e11b81527fb0d4178853a5320a41f8c55fa6d58af06637e392beff71e66dba4e8f32c39bb860048201526001600160a01b039190911690639283ae3a9060240160206040518083038186803b158015611aef57600080fd5b505afa158015611b03573d6000803e3d6000fd5b505050506040513d601f19601f82011682018060405250810190611b279190614e0b565b6101e0820152611b3a6020860186614c7c565b6040516317ba7d8560e01b81527faaff643bdbd909f604d46ce015336f7e20fee3ac4a55cef3610188dee176c89260048201526001600160a01b0391909116906317ba7d859060240160206040518083038186803b158015611b9b57600080fd5b505afa158015611baf573d6000803e3d6000fd5b505050506040513d601f19601f82011682018060405250810190611bd39190614c98565b6001600160a01b031661028082018190526000906368abb5e0611bf96020890189614c7c565b6040516001600160e01b031960e084901b1681526001600160a01b03909116600482015260240160206040518083038186803b158015611c3857600080fd5b505afa158015611c4c573d6000803e3d6000fd5b505050506040513d601f19601f82011682018060405250810190611c709190614e0b565b1115611ca8576040517fb4b87a0f00000000000000000000000000000000000000000000000000000000815260040160405180910390fd5b60006102808201516001600160a01b0316631ee1a2b0611ccb6020890189614c7c565b6040516001600160e01b031960e084901b1681526001600160a01b03909116600482015260240160206040518083038186803b158015611d0a57600080fd5b505afa158015611d1e573d6000803e3d6000fd5b505050506040513d601f19601f82011682018060405250810190611d429190614eac565b6003811115611d6157634e487b7160e01b600052602160045260246000fd5b1480611e23575060036102808201516001600160a01b0316631ee1a2b0611d8b6020890189614c7c565b6040516001600160e01b031960e084901b1681526001600160a01b03909116600482015260240160206040518083038186803b158015611dca57600080fd5b505afa158015611dde573d6000803e3d6000fd5b505050506040513d601f19601f82011682018060405250810190611e029190614eac565b6003811115611e2157634e487b7160e01b600052602160045260246000fd5b145b80611eff575060026102808201516001600160a01b0316631ee1a2b0611e4c6020890189614c7c565b6040516001600160e01b031960e084901b1681526001600160a01b03909116600482015260240160206040518083038186803b158015611e8b57600080fd5b505afa158015611e9f573d6000803e3d6000fd5b505050506040513d601f19601f82011682018060405250810190611ec39190614eac565b6003811115611ee257634e487b7160e01b600052602160045260246000fd5b148015611eff57506101e08101518151611efc919061575b565b42115b611f505760405162461bcd60e51b815260206004820152600760248201527f6e6f74206e6f770000000000000000000000000000000000000000000000000060448201526064015b60405180910390fd5b8061028001516001600160a01b031663b0e21e8a6040518163ffffffff1660e01b815260040160206040518083038186803b158015611f8e57600080fd5b505afa158015611fa2573d6000803e3d6000fd5b505050506040513d601f19601f82011682018060405250810190611fc69190614e0b565b61026082015260208501351580611ff25750604085013515801590611ff2575060208501356040860135105b80611ffb575060005b8061201c575060808501351580159061201c57506060850135608086013511155b8061202a57504260c0860135105b8061203c575060c085013560e0860135105b8061204a5750610100850135155b8061205e5750610140850135610120860135115b806120725750610100850135610140860135115b8061208a5750670de0b6b3a764000061018086013510155b80612093575060005b806120ab5750670de0b6b3a76400006101c086013510155b806120b4575060005b806120bd575060005b806120d55750670de0b6b3a764000061024086013510155b806120de575060005b806120f65750670de0b6b3a764000061026086013510155b1561212d576040517f22ee6ae700000000000000000000000000000000000000000000000000000000815260040160405180910390fd5b61213a6020860186614c7c565b6040516317ba7d8560e01b81527fd3999c37f8f35da86f802a74f9bf032c4aeb46e49abd9c861f489ef4cb40d0a860048201526001600160a01b0391909116906317ba7d859060240160206040518083038186803b15801561219b57600080fd5b505afa1580156121af573d6000803e3d6000fd5b505050506040513d601f19601f820116820180604052508101906121d39190614c98565b6001600160a01b03166020808301919091526121f190860186614c7c565b6001600160a01b0316630b9411ba6040518163ffffffff1660e01b8152600401600060405180830381600087803b15801561222b57600080fd5b505af115801561223f573d6000803e3d6000fd5b5061230292506122559150506020870187614c7c565b60c01b6122dd6122686020890189614c7c565b6001600160a01b031663a25950c56040518163ffffffff1660e01b815260040160206040518083038186803b1580156122a057600080fd5b505afa1580156122b4573d6000803e3d6000fd5b505050506040513d601f19601f820116820180604052508101906122d89190614e0b565b6134a6565b6040516020016122ee9291906151d0565b6040516020818303038152906040526135fc565b60a08201526123146020860186614c7c565b6001600160a01b031663b73dc3898260a001516040518263ffffffff1660e01b815260040161234591815260200190565b600060405180830381600087803b15801561235f57600080fd5b505af1158015612373573d6000803e3d6000fd5b5050604080516101808101909152915081905061239861024088016102208901614c7c565b6001600160a01b03168152604080516080808201835260208a81013583528a840135838201526060808c0135848601528b8301358185015281860193909352835160c08082018652808d0135825260e08d0135828401526101008d0135828701526101208d0135828601526101408d0135828501526101608d013560a083015285870191909152845190810185526101808c013581526101a08c0135918101919091526101c08b0135938101939093526102608601518383015292019181016124696102008a016101e08b01614c7c565b6001600160a01b031681526020016124896102208a016102008b01614c7c565b6001600160a01b0316905281526040805180820182526102408901358152610260890135602082810191909152830152805160a081018252910190806124d36102808a018a6156b7565b6124e1906020810190614da6565b151581526020016124f66102808a018a6156b7565b612507906040810190602001614f65565b60ff16815260200161251d6102808a018a6156b7565b61252e906060810190604001614c7c565b6001600160a01b0316815260200161254a6102808a018a6156b7565b6060013581526020016125616102808a018a6156b7565b608001359052815260200161257c60c0880160a08901614f65565b60ff168152602001600081526020014281526020018660000160208101906125a49190614c7c565b604051634941d71d60e11b81527f9876c0f0505bfb2b1c38d3bbd25ba13159172cd0868972d76927723f5a9480fc60048201526001600160a01b039190911690639283ae3a9060240160206040518083038186803b15801561260557600080fd5b505afa158015612619573d6000803e3d6000fd5b505050506040513d601f19601f8201168201806040525081019061263d9190614e0b565b612647904261575b565b81526020016040518060400160405280886102a001600001602081019061266e9190614da6565b151581526102c08901356020918201529082526040805160e081019091529101908061269e6102e08a018a6156f4565b6126ac906020810190614da6565b151581526020016126c16102e08a018a6156f4565b6126cf906020810190615672565b8080601f0160208091040260200160405190810160405280939291908181526020018383808284376000920191909152505050908252506020016127176102e08a018a6156f4565b612728906060810190604001614f65565b60ff16815260200161273e6102e08a018a6156f4565b6060013581526020016127556102e08a018a6156f4565b6127669060a0810190608001614c7c565b6001600160a01b031681526020016127826102e08a018a6156f4565b60a0013581526020016127996102e08a018a6156f4565b6127a79060c0810190615623565b808060200260200160405190810160405280939291908181526020018383602002808284376000920182905250939094525050919092529050806127ee6020890189614c7c565b6001600160a01b0390811682526020808301939093526040918201600090812060a0808801518352908552908390208551815490841673ffffffffffffffffffffffffffffffffffffffff1991821617825586860151805160018401558087015160028401558086015160038401556060908101516004808501919091558887015180516005860155808901516006860155808801516007860155808301516008860155608080820151600987015590860151600a860155828a01518051600b870155808a0151600c87015580890151600d87015580840151600e87015580820151600f87018054918a16918716919091179055860151601086018054918916919095161790935582890151805160118601558801516012850155938801518051601385018054998301519883015190971662010000027fffffffffffffffffffff0000000000000000000000000000000000000000ffff60ff998a1661010090810261ff0019941515949094167fffffffffffffffffffffffffffffffffffffffffffffffffffffffffffff00009c8d16179390931716179096559081015160148401550151601582015560c08601516016820180549190951660ff1982168117865560e08801519296929594919092169091179184908111156129e357634e487b7160e01b600052602160045260246000fd5b021790555061010082015160178201556101208201516018820155610140820151805160198301805491151560ff19928316179055602091820151601a8401556101608401518051601b85018054911515919093161782558083015180519193612a5592601c87019290910190614996565b50604082015160028201805460ff191660ff90921691909117905560608201516003820155608082015160048201805473ffffffffffffffffffffffffffffffffffffffff19166001600160a01b0390921691909117905560a0820151600582015560c08201518051612ad2916006840191602090910190614a1a565b50612ae79350505061028087019050866156b7565b612af5906020810190614da6565b8015612b225750612b0a6102808601866156b7565b612b1b906040810190602001614f65565b60ff166003145b8015612b4b57506000612b396102808701876156b7565b612b479060a0810190615623565b9050115b15612b8657612b86612b606020870187614c7c565b60a0830151612b736102808901896156b7565b612b819060a0810190615623565b613618565b6020808201516001600160a01b0316906326078cd090612ba890880188614c7c565b60a0840151604080516020810182526000815290516001600160e01b031960e086901b168152612bde939291429160040161542b565b600060405180830381600087803b158015612bf857600080fd5b505af1158015612c0c573d6000803e3d6000fd5b50612c1e925050506020860186614c7c565b6001600160a01b031663815a2bf48260a0015183602001516040518363ffffffff1660e01b8152600401612c659291909182526001600160a01b0316602082015260400190565b600060405180830381600087803b158015612c7f57600080fd5b505af1158015612c93573d6000803e3d6000fd5b50505060a0820151612cd0915060046000612cb160208a018a614c7c565b6001600160a01b031681526020810191909152604001600020906136a4565b5060a081015160026000612ce76020890189614c7c565b6001600160a01b03168152602080820192909252604001600020919091557ffe22c13d0cc04eef2a813c30901da5f8cd64f5ba91866fccce71c606ce46487490612d3390870187614c7c565b60a0830151604080516001600160a01b03909316835260208301919091520160405180910390a150610f8382826133b9565b606060006108d7836136b0565b600061033a825490565b6001600160a01b03811660009081526001830160205260408120541515610337565b6040805160808101825260008082526020820181905291810182905260608101919091525a81600001818152505043826001600160a01b031663b21634826040518163ffffffff1660e01b815260040160206040518083038186803b158015612e0657600080fd5b505afa158015612e1a573d6000803e3d6000fd5b505050506040513d601f19601f82011682018060405250810190612e3e9190614e0b565b1415612e8c5760405162461bcd60e51b815260206004820152601060248201527f7265656e7472616e6379206775617264000000000000000000000000000000006044820152606401611f47565b816001600160a01b03166310fdb0a26040518163ffffffff1660e01b8152600401600060405180830381600087803b158015612ec757600080fd5b505af1158015612edb573d6000803e3d6000fd5b50506040517f72c6838f0000000000000000000000000000000000000000000000000000000081527f1f2fd42ad6a6cacd573c4b212beb7a4e2499ad45d742a65337097f130e71daff6004820152600092506001600160a01b03851691506372c6838f9060240160206040518083038186803b158015612f5a57600080fd5b505afa158015612f6e573d6000803e3d6000fd5b505050506040513d601f19601f82011682018060405250810190612f929190614c98565b90506001600160a01b038116612fae5760006020830152613063565b6001600160a01b038181166060840181905283516040517f43a8a3f1000000000000000000000000000000000000000000000000000000008152928616600484015260248301526000918291906343a8a3f190604401604080518083038186803b15801561301b57600080fd5b505afa15801561302f573d6000803e3d6000fd5b505050506040513d601f19601f820116820180604052508101906130539190614dde565b9015156020860152604085015250505b50919050565b60008181526001830160205260408120541515610337565b6000610337838361370c565b600080836001600160a01b031663a6f636416040518163ffffffff1660e01b815260040160006040518083038186803b1580156130c957600080fd5b505afa1580156130dd573d6000803e3d6000fd5b505050506040513d6000823e601f3d908101601f191682016040526131059190810190614cdf565b6040516317ba7d8560e01b81527fd3999c37f8f35da86f802a74f9bf032c4aeb46e49abd9c861f489ef4cb40d0a8600482015290915060009081906001600160a01b038716906317ba7d859060240160206040518083038186803b15801561316c57600080fd5b505afa158015613180573d6000803e3d6000fd5b505050506040513d601f19601f820116820180604052508101906131a49190614c98565b905060005b83518160ff1610156133ae57816001600160a01b03166324a2cceb8888878560ff16815181106131e957634e487b7160e01b600052603260045260246000fd5b60200260200101516040518463ffffffff1660e01b815260040161322d939291906001600160a01b0393841681526020810192909252909116604082015260600190565b60206040518083038186803b15801561324557600080fd5b505afa158015613259573d6000803e3d6000fd5b505050506040513d601f19601f8201168201806040525081019061327d9190614dc2565b1561335b57816001600160a01b03166391d2fd538888878560ff16815181106132b657634e487b7160e01b600052603260045260246000fd5b60200260200101516040518463ffffffff1660e01b81526004016132fa939291906001600160a01b0393841681526020810192909252909116604082015260600190565b60206040518083038186803b15801561331257600080fd5b505afa158015613326573d6000803e3d6000fd5b505050506040513d601f19601f8201168201806040525081019061334a9190614f4b565b6133549084615727565b925061339c565b61338f87858360ff168151811061338257634e487b7160e01b600052603260045260246000fd5b6020026020010151613829565b6133999084615727565b92505b806133a681615838565b9150506131a9565b509095945050505050565b6133c48282336146be565b5050565b6040517fa230c5240000000000000000000000000000000000000000000000000000000081526001600160a01b03828116600483015283169063a230c5249060240160206040518083038186803b15801561342257600080fd5b505afa158015613436573d6000803e3d6000fd5b505050506040513d601f19601f8201168201806040525081019061345a9190614dc2565b6133c45760405162461bcd60e51b815260206004820152600c60248201527f6f6e6c79476f7665726e6f7200000000000000000000000000000000000000006044820152606401611f47565b6060816134e657505060408051808201909152600181527f3000000000000000000000000000000000000000000000000000000000000000602082015290565b8160005b811561351057806134fa816157ff565b91506135099050600a83615773565b91506134ea565b60008167ffffffffffffffff81111561353957634e487b7160e01b600052604160045260246000fd5b6040519080825280601f01601f191660200182016040528015613563576020820181803683370190505b5090505b84156135f457613578600183615787565b9150613585600a86615858565b61359090603061575b565b60f81b8183815181106135b357634e487b7160e01b600052603260045260246000fd5b60200101907effffffffffffffffffffffffffffffffffffffffffffffffffffffffffffff1916908160001a9053506135ed600a86615773565b9450613567565b949350505050565b600081516000141561361057506000919050565b506020015190565b60005b60ff811682111561369d5761368a83838360ff1681811061364c57634e487b7160e01b600052603260045260246000fd5b90506020020160208101906136619190614c7c565b6001600160a01b03871660009081526003602090815260408083208984529091529020906147b4565b508061369581615838565b91505061361b565b5050505050565b600061033783836147c5565b60608160000180548060200260200160405190810160405280929190818152602001828054801561370057602002820191906000526020600020905b8154815260200190600101908083116136ec575b50505050509050919050565b6000818152600183016020526040812054801561381f576000613730600183615787565b855490915060009061374490600190615787565b90508181146137c557600086600001828154811061377257634e487b7160e01b600052603260045260246000fd5b90600052602060002001549050808760000184815481106137a357634e487b7160e01b600052603260045260246000fd5b6000918252602080832090910192909255918252600188019052604090208390555b85548690806137e457634e487b7160e01b600052603160045260246000fd5b60019003818190600052602060002001600090559055856001016000868152602001908152602001600020600090556001935050505061033a565b600091505061033a565b6040516317ba7d8560e01b81527faaff643bdbd909f604d46ce015336f7e20fee3ac4a55cef3610188dee176c892600482015260009081906001600160a01b038516906317ba7d859060240160206040518083038186803b15801561388d57600080fd5b505afa1580156138a1573d6000803e3d6000fd5b505050506040513d601f19601f820116820180604052508101906138c59190614c98565b6040516317ba7d8560e01b81527fa837e34a29b67bf52f684a1c93def79b84b9c012732becee4e5df62809df64ed60048201529091506000906001600160a01b038616906317ba7d859060240160206040518083038186803b15801561392a57600080fd5b505afa15801561393e573d6000803e3d6000fd5b505050506040513d601f19601f820116820180604052508101906139629190614c98565b6040516317ba7d8560e01b81527f1fa6846b165d822fff79e37c67625706652fa9380c2aa49fd513ce534cc72ed460048201529091506000906001600160a01b038716906317ba7d859060240160206040518083038186803b1580156139c757600080fd5b505afa1580156139db573d6000803e3d6000fd5b505050506040513d601f19601f820116820180604052508101906139ff9190614c98565b604051634941d71d60e11b81527f686efe7bd1699b408d306db6bbee658ed667971c52d48d6912d7ee496e36e62760048201529091506000906001600160a01b03881690639283ae3a9060240160206040518083038186803b158015613a6457600080fd5b505afa158015613a78573d6000803e3d6000fd5b505050506040513d601f19601f82011682018060405250810190613a9c9190614e0b565b604051634941d71d60e11b81527fb75eae231d9582c6afc6491273df4a0ffbccd48ab2c48dbce59e5d68f2d19dc460048201529091506000906001600160a01b03891690639283ae3a9060240160206040518083038186803b158015613b0157600080fd5b505afa158015613b15573d6000803e3d6000fd5b505050506040513d601f19601f82011682018060405250810190613b399190614e0b565b604051634941d71d60e11b81527e634460a4b60c2e1bf8c87bfc42b6b68fd2a71f4bb2d760816eabc5038b503660048201529091506000906001600160a01b038a1690639283ae3a9060240160206040518083038186803b158015613b9d57600080fd5b505afa158015613bb1573d6000803e3d6000fd5b505050506040513d601f19601f82011682018060405250810190613bd59190614e0b565b6040517ffd310d290000000000000000000000000000000000000000000000000000000081527fcd9b30ab6388c165d825b60b7d393528191ba59d975b4b1b52b7184b63b8a97c60048201529091506000906001600160a01b038b169063fd310d299060240160206040518083038186803b158015613c5357600080fd5b505afa158015613c67573d6000803e3d6000fd5b505050506040513d601f19601f82011682018060405250810190613c8b9190614c98565b9050826001141561410657600084613d33576040516370a0823160e01b81526001600160a01b038b81166004830152670de0b6b3a764000091908416906370a08231906024015b60206040518083038186803b158015613cea57600080fd5b505afa158015613cfe573d6000803e3d6000fd5b505050506040513d601f19601f82011682018060405250810190613d229190614e0b565b613d2c9190615773565b9050614097565b8460011415613db6576040516370a0823160e01b81526001600160a01b038b811660048301528316906370a08231906024015b60206040518083038186803b158015613d7e57600080fd5b505afa158015613d92573d6000803e3d6000fd5b505050506040513d601f19601f82011682018060405250810190613d2c9190614e0b565b8460021415613df257604051627eeac760e11b81526001600160a01b038b811660048301526024820185905283169062fdd58e90604401613d66565b8460031415613e31576040516329b6517360e21b81526001600160a01b038c811660048301528b8116602483015287169063a6d945cc90604401613d66565b84600414156140865760026040517f1ee1a2b00000000000000000000000000000000000000000000000000000000081526001600160a01b038d811660048301528a1690631ee1a2b09060240160206040518083038186803b158015613e9657600080fd5b505afa158015613eaa573d6000803e3d6000fd5b505050506040513d601f19601f82011682018060405250810190613ece9190614eac565b6003811115613eed57634e487b7160e01b600052602160045260246000fd5b148015613f8f5750604051634941d71d60e11b81527f9ce69cf04065e3c7823cc5540c0598d8a694bd7a9a5a2a786d8bccf14ed6e2ea60048201526001600160a01b038c1690639283ae3a9060240160206040518083038186803b158015613f5457600080fd5b505afa158015613f68573d6000803e3d6000fd5b505050506040513d601f19601f82011682018060405250810190613f8c9190614e0b565b42105b801561402f57506040517f4fc0a76d0000000000000000000000000000000000000000000000000000000081526001600160a01b038c8116600483015260019190891690634fc0a76d9060240160206040518083038186803b158015613ff457600080fd5b505afa158015614008573d6000803e3d6000fd5b505050506040513d601f19601f8201168201806040525081019061402c9190614e0b565b10155b1561407557604051633de222bb60e21b81526001600160a01b038c811660048301528b81166024830152670de0b6b3a764000091908a169063f7888aec90604401613cd2565b60019850505050505050505061033a565b60009850505050505050505061033a565b600081116140b05760009850505050505050505061033a565b677fffffffffffffff81106140d05760329850505050505050505061033a565b60006140eb6140e66140e184614814565b614832565b614929565b67ffffffffffffffff16995061033a98505050505050505050565b82600214156142bd576000846141ad576040516370a0823160e01b81526001600160a01b038b81166004830152600091908416906370a08231906024015b60206040518083038186803b15801561415c57600080fd5b505afa158015614170573d6000803e3d6000fd5b505050506040513d601f19601f820116820180604052508101906141949190614e0b565b116141a05760006141a3565b60015b60ff1690506142ae565b84600114156141e8576040516370a0823160e01b81526001600160a01b038b81166004830152600091908416906370a0823190602401614144565b846002141561422857604051627eeac760e11b81526001600160a01b038b81166004830152602482018590526000919084169062fdd58e90604401614144565b846003141561426b576040516329b6517360e21b81526001600160a01b038c811660048301528b811660248301526000919088169063a6d945cc90604401614144565b846004141561408657604051633de222bb60e21b81526001600160a01b038c811660048301528b81166024830152600091908a169063f7888aec90604401614144565b975061033a9650505050505050565b826146a15760008461435f576040516370a0823160e01b81526001600160a01b038b81166004830152670de0b6b3a764000091908416906370a08231906024015b60206040518083038186803b15801561431657600080fd5b505afa15801561432a573d6000803e3d6000fd5b505050506040513d601f19601f8201168201806040525081019061434e9190614e0b565b6143589190615773565b90506142ae565b84600114156143e2576040516370a0823160e01b81526001600160a01b038b811660048301528316906370a08231906024015b60206040518083038186803b1580156143aa57600080fd5b505afa1580156143be573d6000803e3d6000fd5b505050506040513d601f19601f820116820180604052508101906143589190614e0b565b846002141561441e57604051627eeac760e11b81526001600160a01b038b811660048301526024820185905283169062fdd58e90604401614392565b846003141561445d576040516329b6517360e21b81526001600160a01b038c811660048301528b8116602483015287169063a6d945cc90604401614392565b84600414156140865760026040517f1ee1a2b00000000000000000000000000000000000000000000000000000000081526001600160a01b038d811660048301528a1690631ee1a2b09060240160206040518083038186803b1580156144c257600080fd5b505afa1580156144d6573d6000803e3d6000fd5b505050506040513d601f19601f820116820180604052508101906144fa9190614eac565b600381111561451957634e487b7160e01b600052602160045260246000fd5b1480156145bb5750604051634941d71d60e11b81527f9ce69cf04065e3c7823cc5540c0598d8a694bd7a9a5a2a786d8bccf14ed6e2ea60048201526001600160a01b038c1690639283ae3a9060240160206040518083038186803b15801561458057600080fd5b505afa158015614594573d6000803e3d6000fd5b505050506040513d601f19601f820116820180604052508101906145b89190614e0b565b42105b801561465b57506040517f4fc0a76d0000000000000000000000000000000000000000000000000000000081526001600160a01b038c8116600483015260019190891690634fc0a76d9060240160206040518083038186803b15801561462057600080fd5b505afa158015614634573d6000803e3d6000fd5b505050506040513d601f19601f820116820180604052508101906146589190614e0b565b10155b1561407557604051633de222bb60e21b81526001600160a01b038c811660048301528b81166024830152670de0b6b3a764000091908a169063f7888aec906044016142fe565b600097505050505050505061033a565b5050505050505092915050565b81602001511561475c5781606001516001600160a01b0316635e5eb01384835a86516146ea9190615787565b60408088015190516001600160e01b031960e087901b1681526001600160a01b03948516600482015293909216602484015260448301526064820152608401600060405180830381600087803b15801561474357600080fd5b505af1158015614757573d6000803e3d6000fd5b505050505b826001600160a01b031663d4f7af436040518163ffffffff1660e01b8152600401600060405180830381600087803b15801561479757600080fd5b505af11580156147ab573d6000803e3d6000fd5b50505050505050565b6000610337836001600160a01b0384165b600081815260018301602052604081205461480c5750815460018181018455600084815260208082209093018490558454848252828601909352604090209190915561033a565b50600061033a565b6000677fffffffffffffff82111561482b57600080fd5b5060401b90565b60008082600f0b1361484357600080fd5b6000600f83900b680100000000000000008112614862576040918201911d5b6401000000008112614876576020918201911d5b620100008112614888576010918201911d5b6101008112614899576008918201911d5b601081126148a9576004918201911d5b600481126148b9576002918201911d5b600281126148c8576001820191505b7fffffffffffffffffffffffffffffffffffffffffffffffffffffffffffffffc0820160401b600f85900b607f8490031b6780000000000000005b60008113156133ae5790800260ff81901c8281029390930192607f011c9060011d614903565b60008082600f0b121561493b57600080fd5b50600f0b60401d90565b6040805161012081018252600080825260208201819052918101829052606081018290529060808201908152600060208201819052604082018190526060820152608001614991614a7c565b905290565b8280546149a2906157ca565b90600052602060002090601f0160209004810192826149c45760008555614a0a565b82601f106149dd57805160ff1916838001178555614a0a565b82800160010185558215614a0a579182015b82811115614a0a5782518255916020019190600101906149ef565b50614a16929150614c37565b5090565b828054828255906000526020600020908101928215614a0a579160200282015b82811115614a0a578251825473ffffffffffffffffffffffffffffffffffffffff19166001600160a01b03909116178255602090920191600190910190614a3a565b60405180610180016040528060006001600160a01b03168152602001614ac36040518060800160405280600081526020016000815260200160008152602001600081525090565b8152602001614b016040518060c001604052806000815260200160008152602001600081526020016000815260200160008152602001600081525090565b8152602001614b516040518060c001604052806000815260200160008152602001600081526020016000815260200160006001600160a01b0316815260200160006001600160a01b031681525090565b8152602001614b73604051806040016040528060008152602001600081525090565b81526040805160a08101825260008082526020828101829052928201819052606082018190526080820152910190815260006020820181905260409091019081526020016000815260200160008152602001614be46040518060400160405280600015158152602001600081525090565b81526020016149916040518060e0016040528060001515815260200160608152602001600060ff1681526020016000815260200160006001600160a01b0316815260200160008152602001606081525090565b5b80821115614a165760008155600101614c38565b8051614c57816158ae565b919050565b80516fffffffffffffffffffffffffffffffff81168114614c5757600080fd5b600060208284031215614c8d578081fd5b81356108d7816158ae565b600060208284031215614ca9578081fd5b81516108d7816158ae565b60008060408385031215614cc6578081fd5b8235614cd1816158ae565b946020939093013593505050565b60006020808385031215614cf1578182fd5b825167ffffffffffffffff80821115614d08578384fd5b818501915085601f830112614d1b578384fd5b815181811115614d2d57614d2d615898565b8060051b604051601f19603f83011681018181108582111715614d5257614d52615898565b604052828152858101935084860182860187018a1015614d70578788fd5b8795505b83861015614d9957614d8581614c4c565b855260019590950194938601938601614d74565b5098975050505050505050565b600060208284031215614db7578081fd5b81356108d7816158c6565b600060208284031215614dd3578081fd5b81516108d7816158c6565b60008060408385031215614df0578182fd5b8251614dfb816158c6565b6020939093015192949293505050565b600060208284031215614e1c578081fd5b5051919050565b60008060408385031215614cc6578182fd5b600080600060608486031215614e49578081fd5b8335614e54816158ae565b9250602084013591506040840135614e6b816158ae565b809150509250925092565b600080600060608486031215614e8a578283fd5b8335614e95816158ae565b9250602084013591506040840135614e6b816158c6565b600060208284031215614ebd578081fd5b8151600481106108d7578182fd5b600080600060608486031215614edf578081fd5b835160068110614eed578182fd5b9250614efb60208501614c5c565b9150614f0960408501614c5c565b90509250925092565b600060208284031215614f23578081fd5b813567ffffffffffffffff811115614f39578182fd5b820161030081850312156108d7578182fd5b600060208284031215614f5c578081fd5b61033782614c5c565b600060208284031215614f76578081fd5b813560ff811681146108d7578182fd5b6000815180845260208085019450808401835b83811015614fbe5781516001600160a01b031687529582019590820190600101614f99565b509495945050505050565b6000815480845260208085019450838352808320835b83811015614fbe5781546001600160a01b031687529582019560019182019101614fdf565b6000815180845261501c81602086016020860161579e565b601f01601f19169290920160200192915050565b6005811061504e57634e487b7160e01b600052602160045260246000fd5b9052565b8054600090600181811c908083168061506c57607f831692505b602080841082141561508c57634e487b7160e01b86526022600452602486fd5b838852602088018280156150a757600181146150b8576146b1565b60ff198716825282820197506146b1565b60008981526020902060005b878110156150dd578154848201529086019084016150c4565b9092019a9950505050505050505050565b8051151582526000602082015160e0602085015261510f60e0850182615004565b905060ff6040840151166040850152606083015160608501526001600160a01b03608084015116608085015260a083015160a085015260c083015184820360c086015261515c8282614f86565b95945050505050565b60ff8154161515825260e06020830152600061518760e0840160018401615052565b600283015460ff1660408501526003830154606085015260048301546001600160a01b03166080850152600583015460a085015283810360c08501526135f48160068501614fc9565b7fffffffffffffffff000000000000000000000000000000000000000000000000831681527f46756e6445737461626c6973686d656e7423000000000000000000000000000060088201526000825161523081601a85016020870161579e565b91909101601a019392505050565b6001600160a01b03881681526020810187905260e081016152626040830188615030565b6fffffffffffffffffffffffffffffffff958616606083015293851660808201529190931660a082015260c001919091529392505050565b60006103e06001600160a01b038f1683528d51602084015260208e0151604084015260408e0151606084015260608e0151608084015261531260a084018e805182526020810151602083015260408101516040830152606081015160608301526080810151608083015260a081015160a08301525050565b8b5161016084015260208c015161018084015260408c01516101a084015260608c01516101c084015260808c01516001600160a01b039081166101e085015260a08d0151166102008401528a5161022084015260208b01516102408401528951151561026084015260208a015160ff1661028084015260408a01516001600160a01b03166102a084015260608a01516102c084015260808a01516102e084015260ff89166103008401526153ca610320840189615030565b86610340840152856103608401526153f2610380840186805115158252602090810151910152565b806103c0840152615405818401856150ee565b9f9e505050505050505050505050505050565b6020815260006103376020830184614f86565b6001600160a01b03851681528360208201528260408201526080606082015260006154596080830184615004565b9695505050505050565b6001600160a01b03831681526040602082015261549b6040820161548e84546001600160a01b031690565b6001600160a01b03169052565b6001820154606082015260028201546080820152600382015460a0820152600482015460c0820152600582015460e08201526006820154610100820152600782015461012082015260088201546101408201526009820154610160820152600a820154610180820152600b8201546101a0820152600c8201546101c0820152600d8201546101e0820152600e820154610200820152600f8201546001600160a01b03908116610220830152601083015416610240820152601182015461026082015260128201546102808201526155b16102a0820160138401805460ff80821615158452600882901c16602084015260101c6001600160a01b031660408301526001810154606083015260020154608090910152565b601682015460ff81166103408301526000906155d7610360840160ff8360081c16615030565b50601783015461038083015260188301546103a0830152601983015460ff1615156103c0830152601a8301546103e08301526103e06104008301526135f46104208301601b8501615165565b6000808335601e19843603018112615639578283fd5b83018035915067ffffffffffffffff821115615653578283fd5b6020019150600581901b360382131561566b57600080fd5b9250929050565b6000808335601e19843603018112615688578283fd5b83018035915067ffffffffffffffff8211156156a2578283fd5b60200191503681900382131561566b57600080fd5b600082357fffffffffffffffffffffffffffffffffffffffffffffffffffffffffffffff418336030181126156ea578182fd5b9190910192915050565b600082357fffffffffffffffffffffffffffffffffffffffffffffffffffffffffffffff218336030181126156ea578182fd5b60006fffffffffffffffffffffffffffffffff8083168185168083038211156157525761575261586c565b01949350505050565b6000821982111561576e5761576e61586c565b500190565b60008261578257615782615882565b500490565b6000828210156157995761579961586c565b500390565b60005b838110156157b95781810151838201526020016157a1565b83811115610f835750506000910152565b600181811c908216806157de57607f821691505b6020821081141561306357634e487b7160e01b600052602260045260246000fd5b60007fffffffffffffffffffffffffffffffffffffffffffffffffffffffffffffffff8214156158315761583161586c565b5060010190565b600060ff821660ff81141561584f5761584f61586c565b60010192915050565b60008261586757615867615882565b500690565b634e487b7160e01b600052601160045260246000fd5b634e487b7160e01b600052601260045260246000fd5b634e487b7160e01b600052604160045260246000fd5b6001600160a01b03811681146158c357600080fd5b50565b80151581146158c357600080fdfea2646970667358221220df21247423d6becbbc284a56474c7e4c3d4b565339cb48ef08ea989f158352fb64736f6c63430008040033",
  "linkReferences": {},
  "deployedLinkReferences": {}
}