{
  "_format": "hh-sol-artifact-1",
  "contractName": "VintageEscrowFundAdapterContract",
  "sourceName": "contracts/vintage/adapters/VintageEscrowFund.sol",
  "abi": [
    {
      "inputs": [],
      "name": "ACCESS_DENIED",
      "type": "error"
    },
    {
      "inputs": [],
      "name": "NO_FUND_TO_WITHDRAW",
      "type": "error"
    },
    {
      "anonymous": false,
      "inputs": [
        {
          "indexed": false,
          "internalType": "address",
          "name": "dao",
          "type": "address"
        },
        {
          "indexed": false,
          "internalType": "uint256",
          "name": "fundRaiseId",
          "type": "uint256"
        },
        {
          "indexed": false,
          "internalType": "address",
          "name": "token",
          "type": "address"
        },
        {
          "indexed": false,
          "internalType": "address",
          "name": "account",
          "type": "address"
        },
        {
          "indexed": false,
          "internalType": "uint256",
          "name": "amount",
          "type": "uint256"
        }
      ],
      "name": "EscrowFund",
      "type": "event"
    },
    {
      "anonymous": false,
      "inputs": [
        {
          "indexed": false,
          "internalType": "address",
          "name": "dao",
          "type": "address"
        },
        {
          "indexed": false,
          "internalType": "address",
          "name": "token",
          "type": "address"
        },
        {
          "indexed": false,
          "internalType": "address",
          "name": "account",
          "type": "address"
        },
        {
          "indexed": false,
          "internalType": "uint256",
          "name": "amount",
          "type": "uint256"
        },
        {
          "indexed": false,
          "internalType": "uint256",
          "name": "fundRaiseId",
          "type": "uint256"
        }
      ],
      "name": "EscrowFundFromFailedFundRaising",
      "type": "event"
    },
    {
      "anonymous": false,
      "inputs": [
        {
          "indexed": false,
          "internalType": "address",
          "name": "dao",
          "type": "address"
        },
        {
          "indexed": false,
          "internalType": "address",
          "name": "token",
          "type": "address"
        },
        {
          "indexed": false,
          "internalType": "address",
          "name": "account",
          "type": "address"
        },
        {
          "indexed": false,
          "internalType": "uint256",
          "name": "amount",
          "type": "uint256"
        },
        {
          "indexed": false,
          "internalType": "uint256",
          "name": "fundRaiseId",
          "type": "uint256"
        }
      ],
      "name": "EscrowFundFromLiquidation",
      "type": "event"
    },
    {
      "anonymous": false,
      "inputs": [
        {
          "indexed": false,
          "internalType": "address",
          "name": "dao",
          "type": "address"
        },
        {
          "indexed": false,
          "internalType": "address",
          "name": "token",
          "type": "address"
        },
        {
          "indexed": false,
          "internalType": "address",
          "name": "account",
          "type": "address"
        },
        {
          "indexed": false,
          "internalType": "uint256",
          "name": "amount",
          "type": "uint256"
        },
        {
          "indexed": false,
          "internalType": "uint256",
          "name": "fundRaiseId",
          "type": "uint256"
        }
      ],
      "name": "EscrowFundFromOverRaised",
      "type": "event"
    },
    {
      "anonymous": false,
      "inputs": [
        {
          "indexed": false,
          "internalType": "address",
          "name": "dao",
          "type": "address"
        },
        {
          "indexed": false,
          "internalType": "uint256",
          "name": "fundRaiseId",
          "type": "uint256"
        },
        {
          "indexed": false,
          "internalType": "address",
          "name": "token",
          "type": "address"
        },
        {
          "indexed": false,
          "internalType": "address",
          "name": "account",
          "type": "address"
        },
        {
          "indexed": false,
          "internalType": "uint256",
          "name": "amount",
          "type": "uint256"
        }
      ],
      "name": "WithDraw",
      "type": "event"
    },
    {
      "anonymous": false,
      "inputs": [
        {
          "indexed": false,
          "internalType": "address",
          "name": "dao",
          "type": "address"
        },
        {
          "indexed": false,
          "internalType": "address",
          "name": "token",
          "type": "address"
        },
        {
          "indexed": false,
          "internalType": "address",
          "name": "account",
          "type": "address"
        },
        {
          "indexed": false,
          "internalType": "uint256",
          "name": "amount",
          "type": "uint256"
        },
        {
          "indexed": false,
          "internalType": "uint256",
          "name": "fundRaiseId",
          "type": "uint256"
        }
      ],
      "name": "WithdrawFromFailedFundRaising",
      "type": "event"
    },
    {
      "anonymous": false,
      "inputs": [
        {
          "indexed": false,
          "internalType": "address",
          "name": "dao",
          "type": "address"
        },
        {
          "indexed": false,
          "internalType": "address",
          "name": "token",
          "type": "address"
        },
        {
          "indexed": false,
          "internalType": "address",
          "name": "account",
          "type": "address"
        },
        {
          "indexed": false,
          "internalType": "uint256",
          "name": "amount",
          "type": "uint256"
        },
        {
          "indexed": false,
          "internalType": "uint256",
          "name": "fundRaiseId",
          "type": "uint256"
        }
      ],
      "name": "WithdrawFromLiquidation",
      "type": "event"
    },
    {
      "anonymous": false,
      "inputs": [
        {
          "indexed": false,
          "internalType": "address",
          "name": "dao",
          "type": "address"
        },
        {
          "indexed": false,
          "internalType": "address",
          "name": "token",
          "type": "address"
        },
        {
          "indexed": false,
          "internalType": "address",
          "name": "account",
          "type": "address"
        },
        {
          "indexed": false,
          "internalType": "uint256",
          "name": "amount",
          "type": "uint256"
        },
        {
          "indexed": false,
          "internalType": "uint256",
          "name": "fundRaiseId",
          "type": "uint256"
        }
      ],
      "name": "WithdrawFromOverRaised",
      "type": "event"
    },
    {
      "inputs": [
        {
          "internalType": "contract DaoRegistry",
          "name": "dao",
          "type": "address"
        },
        {
          "internalType": "uint256",
          "name": "fundRaiseId",
          "type": "uint256"
        },
        {
          "internalType": "address",
          "name": "token",
          "type": "address"
        },
        {
          "internalType": "address",
          "name": "account",
          "type": "address"
        },
        {
          "internalType": "uint256",
          "name": "amount",
          "type": "uint256"
        }
      ],
      "name": "escrowFundFromFailedFundRaising",
      "outputs": [],
      "stateMutability": "nonpayable",
      "type": "function"
    },
    {
      "inputs": [
        {
          "internalType": "contract DaoRegistry",
          "name": "dao",
          "type": "address"
        },
        {
          "internalType": "uint256",
          "name": "fundRaiseId",
          "type": "uint256"
        },
        {
          "internalType": "address",
          "name": "token",
          "type": "address"
        },
        {
          "internalType": "address",
          "name": "account",
          "type": "address"
        },
        {
          "internalType": "uint256",
          "name": "amount",
          "type": "uint256"
        }
      ],
      "name": "escrowFundFromFundingPool",
      "outputs": [],
      "stateMutability": "nonpayable",
      "type": "function"
    },
    {
      "inputs": [
        {
          "internalType": "contract DaoRegistry",
          "name": "dao",
          "type": "address"
        },
        {
          "internalType": "uint256",
          "name": "fundRaiseId",
          "type": "uint256"
        },
        {
          "internalType": "address",
          "name": "token",
          "type": "address"
        },
        {
          "internalType": "address",
          "name": "account",
          "type": "address"
        },
        {
          "internalType": "uint256",
          "name": "amount",
          "type": "uint256"
        }
      ],
      "name": "escrowFundFromLiquidation",
      "outputs": [],
      "stateMutability": "nonpayable",
      "type": "function"
    },
    {
      "inputs": [
        {
          "internalType": "contract DaoRegistry",
          "name": "dao",
          "type": "address"
        },
        {
          "internalType": "uint256",
          "name": "fundRaiseId",
          "type": "uint256"
        },
        {
          "internalType": "address",
          "name": "token",
          "type": "address"
        },
        {
          "internalType": "address",
          "name": "account",
          "type": "address"
        },
        {
          "internalType": "uint256",
          "name": "amount",
          "type": "uint256"
        }
      ],
      "name": "escrowFundFromOverRaised",
      "outputs": [],
      "stateMutability": "nonpayable",
      "type": "function"
    },
    {
      "inputs": [
        {
          "internalType": "address",
          "name": "",
          "type": "address"
        },
        {
          "internalType": "uint256",
          "name": "",
          "type": "uint256"
        },
        {
          "internalType": "address",
          "name": "",
          "type": "address"
        }
      ],
      "name": "escrowFunds",
      "outputs": [
        {
          "internalType": "address",
          "name": "token",
          "type": "address"
        },
        {
          "internalType": "uint128",
          "name": "amount",
          "type": "uint128"
        }
      ],
      "stateMutability": "view",
      "type": "function"
    },
    {
      "inputs": [
        {
          "internalType": "address",
          "name": "",
          "type": "address"
        },
        {
          "internalType": "address",
          "name": "",
          "type": "address"
        },
        {
          "internalType": "address",
          "name": "",
          "type": "address"
        },
        {
          "internalType": "uint256",
          "name": "",
          "type": "uint256"
        }
      ],
      "name": "escrowFundsFromFailedFundRaise",
      "outputs": [
        {
          "internalType": "uint256",
          "name": "",
          "type": "uint256"
        }
      ],
      "stateMutability": "view",
      "type": "function"
    },
    {
      "inputs": [
        {
          "internalType": "address",
          "name": "",
          "type": "address"
        },
        {
          "internalType": "address",
          "name": "",
          "type": "address"
        },
        {
          "internalType": "address",
          "name": "",
          "type": "address"
        },
        {
          "internalType": "uint256",
          "name": "",
          "type": "uint256"
        }
      ],
      "name": "escrowFundsFromLiquidation",
      "outputs": [
        {
          "internalType": "uint256",
          "name": "",
          "type": "uint256"
        }
      ],
      "stateMutability": "view",
      "type": "function"
    },
    {
      "inputs": [
        {
          "internalType": "address",
          "name": "",
          "type": "address"
        },
        {
          "internalType": "address",
          "name": "",
          "type": "address"
        },
        {
          "internalType": "address",
          "name": "",
          "type": "address"
        },
        {
          "internalType": "uint256",
          "name": "",
          "type": "uint256"
        }
      ],
      "name": "escrowFundsFromOverRaised",
      "outputs": [
        {
          "internalType": "uint256",
          "name": "",
          "type": "uint256"
        }
      ],
      "stateMutability": "view",
      "type": "function"
    },
    {
      "inputs": [
        {
          "internalType": "contract DaoRegistry",
          "name": "dao",
          "type": "address"
        },
        {
          "internalType": "uint256",
          "name": "fundRaiseId",
          "type": "uint256"
        },
        {
          "internalType": "address",
          "name": "account",
          "type": "address"
        }
      ],
      "name": "getEscrowAmount",
      "outputs": [
        {
          "internalType": "address",
          "name": "",
          "type": "address"
        },
        {
          "internalType": "uint256",
          "name": "",
          "type": "uint256"
        }
      ],
      "stateMutability": "view",
      "type": "function"
    },
    {
      "inputs": [
        {
          "internalType": "contract DaoRegistry",
          "name": "dao",
          "type": "address"
        },
        {
          "internalType": "uint256",
          "name": "fundRaiseId",
          "type": "uint256"
        }
      ],
      "name": "withdraw",
      "outputs": [],
      "stateMutability": "nonpayable",
      "type": "function"
    },
    {
      "inputs": [
        {
          "internalType": "contract DaoRegistry",
          "name": "dao",
          "type": "address"
        },
        {
          "internalType": "address",
          "name": "token",
          "type": "address"
        },
        {
          "internalType": "uint256",
          "name": "fundRaiseId",
          "type": "uint256"
        }
      ],
      "name": "withdrawFromFailedFundRaising",
      "outputs": [],
      "stateMutability": "nonpayable",
      "type": "function"
    },
    {
      "inputs": [
        {
          "internalType": "contract DaoRegistry",
          "name": "dao",
          "type": "address"
        },
        {
          "internalType": "address",
          "name": "token",
          "type": "address"
        },
        {
          "internalType": "uint256",
          "name": "fundRaiseId",
          "type": "uint256"
        }
      ],
      "name": "withdrawFromLiquidation",
      "outputs": [],
      "stateMutability": "nonpayable",
      "type": "function"
    },
    {
      "inputs": [
        {
          "internalType": "contract DaoRegistry",
          "name": "dao",
          "type": "address"
        },
        {
          "internalType": "address",
          "name": "token",
          "type": "address"
        },
        {
          "internalType": "uint256",
          "name": "fundRaiseId",
          "type": "uint256"
        }
      ],
      "name": "withdrawFromOverRaised",
      "outputs": [],
      "stateMutability": "nonpayable",
      "type": "function"
    }
  ],
  "bytecode": "0x608060405234801561001057600080fd5b50611c0c806100206000396000f3fe608060405234801561001057600080fd5b50600436106100df5760003560e01c806369b5e0c91161008c578063d447484f11610066578063d447484f146102a6578063ea5f7bbc146102e0578063f3fef3a31461031a578063f9e4c5221461032d57600080fd5b806369b5e0c9146101cf5780636be2a761146101e257806387890aa61461025e57600080fd5b806328f24549116100bd57806328f245491461011f57806335d8f1dd146101a957806365017e83146101bc57600080fd5b806314514817146100e4578063181b2efa146100f95780631dc5b10f1461010c575b600080fd5b6100f76100f2366004611a21565b610340565b005b6100f76101073660046119b6565b6104bb565b6100f761011a366004611a21565b6106cd565b61017461012d366004611930565b60006020818152938152604080822085529281528281209093528252902080546001909101546001600160a01b03909116906fffffffffffffffffffffffffffffffff1682565b604080516001600160a01b0390931683526fffffffffffffffffffffffffffffffff9091166020830152015b60405180910390f35b6100f76101b73660046119b6565b61083d565b6100f76101ca366004611a21565b610a38565b6100f76101dd3660046119b6565b610c24565b61023f6101f0366004611930565b6001600160a01b039283166000908152602081815260408083209483529381528382209285168252919091522080546001909101549116916fffffffffffffffffffffffffffffffff90911690565b604080516001600160a01b0390931683526020830191909152016101a0565b61029861026c3660046118e0565b600160209081526000948552604080862082529385528385208152918452828420909152825290205481565b6040519081526020016101a0565b6102986102b43660046118e0565b600360209081526000948552604080862082529385528385208152918452828420909152825290205481565b6102986102ee3660046118e0565b600260209081526000948552604080862082529385528385208152918452828420909152825290205481565b6100f76103283660046119f6565b610e1f565b6100f761033b366004611a21565b61104e565b6040516317ba7d8560e01b81527faaff643bdbd909f604d46ce015336f7e20fee3ac4a55cef3610188dee176c89260048201526001600160a01b038616906317ba7d859060240160206040518083038186803b15801561039f57600080fd5b505afa1580156103b3573d6000803e3d6000fd5b505050506040513d601f19601f820116820180604052508101906103d791906118c4565b6001600160a01b0316336001600160a01b031614610408576040516395383ea160e01b815260040160405180910390fd5b6001600160a01b03808616600090815260026020908152604080832087851684528252808320938616835292815282822087835290529081208054839290610451908490611b34565b9091555050604080516001600160a01b038088168252808616602083015284169181019190915260608101829052608081018590527f81e601e1c715541c390318c9304b5d2fd41f0358ddf476b3fa70c423d941d8569060a0015b60405180910390a15050505050565b8260006104c7826111be565b6001600160a01b03808716600090815260016020908152604080832093891683529281528282203383528152828220878352905220549091508061051e576040516368d838ed60e01b815260040160405180910390fd5b6040516370a0823160e01b8152306004820152819081906001600160a01b038816906370a082319060240160206040518083038186803b15801561056157600080fd5b505afa158015610575573d6000803e3d6000fd5b505050506040513d601f19601f820116820180604052508101906105999190611a7b565b1015610619576040516370a0823160e01b81523060048201526001600160a01b038716906370a082319060240160206040518083038186803b1580156105de57600080fd5b505afa1580156105f2573d6000803e3d6000fd5b505050506040513d601f19601f820116820180604052508101906106169190611a7b565b90505b61062d6001600160a01b038716338361148e565b6001600160a01b038781166000818152600160209081526040808320948b16808452948252808320338085529083528184208b85528352818420939093558051938452908301939093529181019190915260608101829052608081018690527fd8303661789172fdca9a9d990e2e0441e78f94f36ce6e9c7860d9c205fd736e39060a0015b60405180910390a150506106c68282611513565b5050505050565b6040516317ba7d8560e01b81527faaff643bdbd909f604d46ce015336f7e20fee3ac4a55cef3610188dee176c89260048201526001600160a01b038616906317ba7d859060240160206040518083038186803b15801561072c57600080fd5b505afa158015610740573d6000803e3d6000fd5b505050506040513d601f19601f8201168201806040525081019061076491906118c4565b6001600160a01b0316336001600160a01b031614610795576040516395383ea160e01b815260040160405180910390fd5b6001600160a01b038086166000908152600160209081526040808320878516845282528083209386168352928152828220878352905290812080548392906107de908490611b34565b9091555050604080516001600160a01b038088168252808616602083015284169181019190915260608101829052608081018590527f4d3bc3717e7dc84087428bdec06852a6ac110d7761ce39dfe610da9aca024c0c9060a0016104ac565b826000610849826111be565b6001600160a01b0380871660009081526002602090815260408083209389168352928152828220338352815282822087835290522054909150806108a0576040516368d838ed60e01b815260040160405180910390fd5b6040516370a0823160e01b8152306004820152819081906001600160a01b038816906370a082319060240160206040518083038186803b1580156108e357600080fd5b505afa1580156108f7573d6000803e3d6000fd5b505050506040513d601f19601f8201168201806040525081019061091b9190611a7b565b101561099b576040516370a0823160e01b81523060048201526001600160a01b038716906370a082319060240160206040518083038186803b15801561096057600080fd5b505afa158015610974573d6000803e3d6000fd5b505050506040513d601f19601f820116820180604052508101906109989190611a7b565b90505b6109af6001600160a01b038716338361148e565b6001600160a01b038781166000818152600260209081526040808320948b16808452948252808320338085529083528184208b85528352818420939093558051938452908301939093529181019190915260608101829052608081018690527f0aeada6f52eba076f0ab252960d79fbe38cb4473c6f7cc0604236790b575eca29060a0016106b2565b6040516317ba7d8560e01b81527faaff643bdbd909f604d46ce015336f7e20fee3ac4a55cef3610188dee176c89260048201526001600160a01b038616906317ba7d859060240160206040518083038186803b158015610a9757600080fd5b505afa158015610aab573d6000803e3d6000fd5b505050506040513d601f19601f82011682018060405250810190610acf91906118c4565b6001600160a01b0316336001600160a01b031614610b00576040516395383ea160e01b815260040160405180910390fd5b6001600160a01b03808616600090815260208181526040808320888452825280832093861683529290529081206001018054839290610b529084906fffffffffffffffffffffffffffffffff16611b00565b82546101009290920a6fffffffffffffffffffffffffffffffff818102199093169190921691909102179055506001600160a01b0385811660008181526020818152604080832089845282528083208786168085529083529281902080547fffffffffffffffffffffffff000000000000000000000000000000000000000016958916958617905580519384529083018890528201929092526060810191909152608081018290527f03479aae3efa2ad621b48c9392b03b017efc7fa166b49fafa8efd8e4f51f6a309060a0016104ac565b826000610c30826111be565b6001600160a01b038087166000908152600360209081526040808320938916835292815282822033835281528282208783529052205490915080610c87576040516368d838ed60e01b815260040160405180910390fd5b6040516370a0823160e01b8152306004820152819081906001600160a01b038816906370a082319060240160206040518083038186803b158015610cca57600080fd5b505afa158015610cde573d6000803e3d6000fd5b505050506040513d601f19601f82011682018060405250810190610d029190611a7b565b1015610d82576040516370a0823160e01b81523060048201526001600160a01b038716906370a082319060240160206040518083038186803b158015610d4757600080fd5b505afa158015610d5b573d6000803e3d6000fd5b505050506040513d601f19601f82011682018060405250810190610d7f9190611a7b565b90505b610d966001600160a01b038716338361148e565b6001600160a01b038781166000818152600360209081526040808320948b16808452948252808320338085529083528184208b85528352818420939093558051938452908301939093529181019190915260608101829052608081018690527fc274a4e16673fbe9a493194c96f45030a8940f0f40837b07b5b2b4c7c63130ee9060a0016106b2565b816000610e2b826111be565b6001600160a01b038516600090815260208181526040808320878452825280832033845290915290206001810154919250906fffffffffffffffffffffffffffffffff16610e8c576040516368d838ed60e01b815260040160405180910390fd5b600181015481546040516370a0823160e01b81523060048201526fffffffffffffffffffffffffffffffff9092169182916001600160a01b0316906370a082319060240160206040518083038186803b158015610ee857600080fd5b505afa158015610efc573d6000803e3d6000fd5b505050506040513d601f19601f82011682018060405250810190610f209190611a7b565b1015610fa35781546040516370a0823160e01b81523060048201526001600160a01b03909116906370a082319060240160206040518083038186803b158015610f6857600080fd5b505afa158015610f7c573d6000803e3d6000fd5b505050506040513d601f19601f82011682018060405250810190610fa09190611a7b565b90505b8154610fb9906001600160a01b0316338361148e565b6001820180547fffffffffffffffffffffffffffffffff000000000000000000000000000000001690558154604080516001600160a01b038981168252602082018990529092168282015233606083015260808201839052517f8fb0c6b578329940a29cb7d87372bf8a2a14778824eb55ab8eed2d9bbb40a8579181900360a00190a150506110488282611513565b50505050565b6040516317ba7d8560e01b81527faaff643bdbd909f604d46ce015336f7e20fee3ac4a55cef3610188dee176c89260048201526001600160a01b038616906317ba7d859060240160206040518083038186803b1580156110ad57600080fd5b505afa1580156110c1573d6000803e3d6000fd5b505050506040513d601f19601f820116820180604052508101906110e591906118c4565b6001600160a01b0316336001600160a01b031614611116576040516395383ea160e01b815260040160405180910390fd5b6001600160a01b0380861660009081526003602090815260408083208785168452825280832093861683529281528282208783529052908120805483929061115f908490611b34565b9091555050604080516001600160a01b038088168252808616602083015284169181019190915260608101829052608081018590527f2f38d07682c516918065ea0ba9d214790a163810e313ef87a34b7c7f5dd9440d9060a0016104ac565b6040805160808101825260008082526020820181905291810182905260608101919091525a81600001818152505043826001600160a01b031663b21634826040518163ffffffff1660e01b815260040160206040518083038186803b15801561122657600080fd5b505afa15801561123a573d6000803e3d6000fd5b505050506040513d601f19601f8201168201806040525081019061125e9190611a7b565b14156112b15760405162461bcd60e51b815260206004820152601060248201527f7265656e7472616e63792067756172640000000000000000000000000000000060448201526064015b60405180910390fd5b816001600160a01b03166310fdb0a26040518163ffffffff1660e01b8152600401600060405180830381600087803b1580156112ec57600080fd5b505af1158015611300573d6000803e3d6000fd5b50506040517f72c6838f0000000000000000000000000000000000000000000000000000000081527f1f2fd42ad6a6cacd573c4b212beb7a4e2499ad45d742a65337097f130e71daff6004820152600092506001600160a01b03851691506372c6838f9060240160206040518083038186803b15801561137f57600080fd5b505afa158015611393573d6000803e3d6000fd5b505050506040513d601f19601f820116820180604052508101906113b791906118c4565b90506001600160a01b0381166113d35760006020830152611488565b6001600160a01b038181166060840181905283516040517f43a8a3f1000000000000000000000000000000000000000000000000000000008152928616600484015260248301526000918291906343a8a3f190604401604080518083038186803b15801561144057600080fd5b505afa158015611454573d6000803e3d6000fd5b505050506040513d601f19601f82011682018060405250810190611478919061198b565b9015156020860152604085015250505b50919050565b604080516001600160a01b038416602482015260448082018490528251808303909101815260649091019091526020810180517bffffffffffffffffffffffffffffffffffffffffffffffffffffffff167fa9059cbb0000000000000000000000000000000000000000000000000000000017905261150e908490611522565b505050565b61151e828233611607565b5050565b6000611577826040518060400160405280602081526020017f5361666545524332303a206c6f772d6c6576656c2063616c6c206661696c6564815250856001600160a01b03166117159092919063ffffffff16565b80519091501561150e57808060200190518101906115959190611971565b61150e5760405162461bcd60e51b815260206004820152602a60248201527f5361666545524332303a204552433230206f7065726174696f6e20646964206e60448201527f6f7420737563636565640000000000000000000000000000000000000000000060648201526084016112a8565b8160200151156116bd5781606001516001600160a01b0316635e5eb01384835a86516116339190611b4c565b60408088015190517fffffffff0000000000000000000000000000000000000000000000000000000060e087901b1681526001600160a01b03948516600482015293909216602484015260448301526064820152608401600060405180830381600087803b1580156116a457600080fd5b505af11580156116b8573d6000803e3d6000fd5b505050505b826001600160a01b031663d4f7af436040518163ffffffff1660e01b8152600401600060405180830381600087803b1580156116f857600080fd5b505af115801561170c573d6000803e3d6000fd5b50505050505050565b6060611724848460008561172e565b90505b9392505050565b6060824710156117a65760405162461bcd60e51b815260206004820152602660248201527f416464726573733a20696e73756666696369656e742062616c616e636520666f60448201527f722063616c6c000000000000000000000000000000000000000000000000000060648201526084016112a8565b6001600160a01b0385163b6117fd5760405162461bcd60e51b815260206004820152601d60248201527f416464726573733a2063616c6c20746f206e6f6e2d636f6e747261637400000060448201526064016112a8565b600080866001600160a01b031685876040516118199190611a93565b60006040518083038185875af1925050503d8060008114611856576040519150601f19603f3d011682016040523d82523d6000602084013e61185b565b606091505b509150915061186b828286611876565b979650505050505050565b60608315611885575081611727565b8251156118955782518084602001fd5b8160405162461bcd60e51b81526004016112a89190611aaf565b805180151581146118bf57600080fd5b919050565b6000602082840312156118d5578081fd5b815161172781611bbe565b600080600080608085870312156118f5578283fd5b843561190081611bbe565b9350602085013561191081611bbe565b9250604085013561192081611bbe565b9396929550929360600135925050565b600080600060608486031215611944578283fd5b833561194f81611bbe565b925060208401359150604084013561196681611bbe565b809150509250925092565b600060208284031215611982578081fd5b611727826118af565b6000806040838503121561199d578182fd5b6119a6836118af565b9150602083015190509250929050565b6000806000606084860312156119ca578283fd5b83356119d581611bbe565b925060208401356119e581611bbe565b929592945050506040919091013590565b60008060408385031215611a08578182fd5b8235611a1381611bbe565b946020939093013593505050565b600080600080600060a08688031215611a38578081fd5b8535611a4381611bbe565b9450602086013593506040860135611a5a81611bbe565b92506060860135611a6a81611bbe565b949793965091946080013592915050565b600060208284031215611a8c578081fd5b5051919050565b60008251611aa5818460208701611b63565b9190910192915050565b6020815260008251806020840152611ace816040850160208701611b63565b601f017fffffffffffffffffffffffffffffffffffffffffffffffffffffffffffffffe0169190910160400192915050565b60006fffffffffffffffffffffffffffffffff808316818516808303821115611b2b57611b2b611b8f565b01949350505050565b60008219821115611b4757611b47611b8f565b500190565b600082821015611b5e57611b5e611b8f565b500390565b60005b83811015611b7e578181015183820152602001611b66565b838111156110485750506000910152565b7f4e487b7100000000000000000000000000000000000000000000000000000000600052601160045260246000fd5b6001600160a01b0381168114611bd357600080fd5b5056fea264697066735822122039d6e486a80dbf6f10e339dedd9ca75d9f9670e2f2dbbcb05f320c4d592562ab64736f6c63430008040033",
  "linkReferences": {},
  "deployedLinkReferences": {}
}