{
  "_format": "hh-sol-artifact-1",
  "contractName": "VintageVesting",
  "sourceName": "contracts/vintage/adapters/VintageVesting.sol",
  "abi": [
    {
      "inputs": [],
      "stateMutability": "nonpayable",
      "type": "constructor"
    },
    {
      "inputs": [],
      "name": "Invalid_Vesting_Time_Setting",
      "type": "error"
    },
    {
      "inputs": [],
      "name": "NotClaimable",
      "type": "error"
    },
    {
      "inputs": [],
      "name": "NotOwner",
      "type": "error"
    },
    {
      "inputs": [],
      "name": "NotVestReceiver",
      "type": "error"
    },
    {
      "anonymous": false,
      "inputs": [
        {
          "indexed": true,
          "internalType": "uint256",
          "name": "vestId",
          "type": "uint256"
        },
        {
          "indexed": true,
          "internalType": "uint256",
          "name": "ownerAmount",
          "type": "uint256"
        },
        {
          "indexed": true,
          "internalType": "uint256",
          "name": "recipientAmount",
          "type": "uint256"
        },
        {
          "indexed": false,
          "internalType": "address",
          "name": "token",
          "type": "address"
        },
        {
          "indexed": false,
          "internalType": "bool",
          "name": "toBentoBox",
          "type": "bool"
        }
      ],
      "name": "CancelVesting",
      "type": "event"
    },
    {
      "anonymous": false,
      "inputs": [
        {
          "indexed": true,
          "internalType": "uint256",
          "name": "vestId",
          "type": "uint256"
        },
        {
          "indexed": false,
          "internalType": "address",
          "name": "token",
          "type": "address"
        },
        {
          "indexed": true,
          "internalType": "address",
          "name": "recipient",
          "type": "address"
        },
        {
          "indexed": false,
          "internalType": "uint32",
          "name": "start",
          "type": "uint32"
        },
        {
          "indexed": false,
          "internalType": "uint32",
          "name": "cliffDuration",
          "type": "uint32"
        },
        {
          "indexed": false,
          "internalType": "uint32",
          "name": "stepDuration",
          "type": "uint32"
        },
        {
          "indexed": false,
          "internalType": "uint32",
          "name": "steps",
          "type": "uint32"
        },
        {
          "indexed": false,
          "internalType": "uint128",
          "name": "cliffShares",
          "type": "uint128"
        },
        {
          "indexed": false,
          "internalType": "uint128",
          "name": "stepShares",
          "type": "uint128"
        },
        {
          "indexed": false,
          "internalType": "bytes32",
          "name": "proposalId",
          "type": "bytes32"
        }
      ],
      "name": "CreateVesting",
      "type": "event"
    },
    {
      "anonymous": false,
      "inputs": [
        {
          "indexed": true,
          "internalType": "uint256",
          "name": "vestId",
          "type": "uint256"
        },
        {
          "indexed": true,
          "internalType": "address",
          "name": "newOwner",
          "type": "address"
        }
      ],
      "name": "LogUpdateOwner",
      "type": "event"
    },
    {
      "anonymous": false,
      "inputs": [
        {
          "indexed": true,
          "internalType": "uint256",
          "name": "vestId",
          "type": "uint256"
        },
        {
          "indexed": true,
          "internalType": "address",
          "name": "token",
          "type": "address"
        },
        {
          "indexed": true,
          "internalType": "uint256",
          "name": "amount",
          "type": "uint256"
        },
        {
          "indexed": false,
          "internalType": "bool",
          "name": "toBentoBox",
          "type": "bool"
        }
      ],
      "name": "Withdraw",
      "type": "event"
    },
    {
      "inputs": [],
      "name": "PERCENTAGE_PRECISION",
      "outputs": [
        {
          "internalType": "uint256",
          "name": "",
          "type": "uint256"
        }
      ],
      "stateMutability": "view",
      "type": "function"
    },
    {
      "inputs": [
        {
          "internalType": "contract DaoRegistry",
          "name": "dao",
          "type": "address"
        },
        {
          "internalType": "address",
          "name": "recipientAddr",
          "type": "address"
        },
        {
          "internalType": "bytes32",
          "name": "proposalId",
          "type": "bytes32"
        }
      ],
      "name": "createVesting",
      "outputs": [],
      "stateMutability": "payable",
      "type": "function"
    },
    {
      "inputs": [
        {
          "internalType": "address",
          "name": "token",
          "type": "address"
        },
        {
          "internalType": "uint256",
          "name": "tokenId",
          "type": "uint256"
        }
      ],
      "name": "getRemainingPercentage",
      "outputs": [
        {
          "internalType": "uint256",
          "name": "",
          "type": "uint256"
        },
        {
          "internalType": "uint256",
          "name": "",
          "type": "uint256"
        },
        {
          "internalType": "uint256",
          "name": "",
          "type": "uint256"
        }
      ],
      "stateMutability": "view",
      "type": "function"
    },
    {
      "inputs": [
        {
          "internalType": "address",
          "name": "token",
          "type": "address"
        },
        {
          "internalType": "uint256",
          "name": "tokenId",
          "type": "uint256"
        }
      ],
      "name": "getVestIdByTokenId",
      "outputs": [
        {
          "internalType": "uint256",
          "name": "",
          "type": "uint256"
        }
      ],
      "stateMutability": "view",
      "type": "function"
    },
    {
      "inputs": [
        {
          "internalType": "address",
          "name": "",
          "type": "address"
        },
        {
          "internalType": "uint256",
          "name": "",
          "type": "uint256"
        }
      ],
      "name": "tokenIdToVestId",
      "outputs": [
        {
          "internalType": "uint256",
          "name": "",
          "type": "uint256"
        }
      ],
      "stateMutability": "view",
      "type": "function"
    },
    {
      "inputs": [
        {
          "internalType": "uint256",
          "name": "vestId",
          "type": "uint256"
        },
        {
          "internalType": "address",
          "name": "newOwner",
          "type": "address"
        }
      ],
      "name": "updateOwner",
      "outputs": [],
      "stateMutability": "nonpayable",
      "type": "function"
    },
    {
      "inputs": [
        {
          "internalType": "uint256",
          "name": "vestId",
          "type": "uint256"
        }
      ],
      "name": "vestBalance",
      "outputs": [
        {
          "internalType": "uint256",
          "name": "",
          "type": "uint256"
        }
      ],
      "stateMutability": "view",
      "type": "function"
    },
    {
      "inputs": [],
      "name": "vestIds",
      "outputs": [
        {
          "internalType": "uint256",
          "name": "",
          "type": "uint256"
        }
      ],
      "stateMutability": "view",
      "type": "function"
    },
    {
      "inputs": [
        {
          "internalType": "uint256",
          "name": "",
          "type": "uint256"
        }
      ],
      "name": "vests",
      "outputs": [
        {
          "internalType": "address",
          "name": "daoAddr",
          "type": "address"
        },
        {
          "internalType": "bytes32",
          "name": "proposalId",
          "type": "bytes32"
        },
        {
          "internalType": "uint128",
          "name": "claimed",
          "type": "uint128"
        },
        {
          "internalType": "uint256",
          "name": "total",
          "type": "uint256"
        },
        {
          "components": [
            {
              "internalType": "uint32",
              "name": "steps",
              "type": "uint32"
            },
            {
              "internalType": "uint128",
              "name": "cliffShares",
              "type": "uint128"
            },
            {
              "internalType": "uint128",
              "name": "stepShares",
              "type": "uint128"
            }
          ],
          "internalType": "struct IVesting.StepInfo",
          "name": "stepInfo",
          "type": "tuple"
        },
        {
          "components": [
            {
              "internalType": "uint32",
              "name": "start",
              "type": "uint32"
            },
            {
              "internalType": "uint32",
              "name": "end",
              "type": "uint32"
            },
            {
              "internalType": "uint32",
              "name": "cliffDuration",
              "type": "uint32"
            },
            {
              "internalType": "uint32",
              "name": "stepDuration",
              "type": "uint32"
            }
          ],
          "internalType": "struct IVesting.TimeInfo",
          "name": "timeInfo",
          "type": "tuple"
        },
        {
          "components": [
            {
              "internalType": "address",
              "name": "nftToken",
              "type": "address"
            },
            {
              "internalType": "uint256",
              "name": "tokenId",
              "type": "uint256"
            }
          ],
          "internalType": "struct IVesting.VestNFTInfo",
          "name": "nftInfo",
          "type": "tuple"
        },
        {
          "components": [
            {
              "internalType": "string",
              "name": "name",
              "type": "string"
            },
            {
              "internalType": "string",
              "name": "description",
              "type": "string"
            },
            {
              "internalType": "address",
              "name": "owner",
              "type": "address"
            },
            {
              "internalType": "address",
              "name": "recipient",
              "type": "address"
            },
            {
              "internalType": "address",
              "name": "token",
              "type": "address"
            }
          ],
          "internalType": "struct IVesting.VestInfo",
          "name": "vestInfo",
          "type": "tuple"
        }
      ],
      "stateMutability": "view",
      "type": "function"
    },
    {
      "inputs": [
        {
          "internalType": "contract DaoRegistry",
          "name": "dao",
          "type": "address"
        },
        {
          "internalType": "uint256",
          "name": "vestId",
          "type": "uint256"
        }
      ],
      "name": "withdraw",
      "outputs": [],
      "stateMutability": "nonpayable",
      "type": "function"
    }
  ],
  "bytecode": "0x608060405234801561001057600080fd5b506001600255612d9f806100256000396000f3fe6080604052600436106100b15760003560e01c806351def556116100695780637a4334e21161004e5780637a4334e2146101e3578063e256888f1461021e578063f3fef3a31461023a57600080fd5b806351def5561461018f5780637192711f146101c357600080fd5b80632c29e1961161009a5780632c29e196146100ff5780633427dd67146101425780633ae9bc031461017a57600080fd5b806319f77171146100b65780632bcea736146100e9575b600080fd5b3480156100c257600080fd5b506100d66100d1366004612969565b61025a565b6040519081526020015b60405180910390f35b3480156100f557600080fd5b506100d660025481565b34801561010b57600080fd5b506100d661011a366004612801565b6001600160a01b03919091166000908152600160209081526040808320938352929052205490565b34801561014e57600080fd5b506100d661015d366004612801565b600160209081526000928352604080842090915290825290205481565b61018d610188366004612917565b6104ea565b005b34801561019b57600080fd5b506101af6101aa366004612969565b61104b565b6040516100e0989796959493929190612aac565b3480156101cf57600080fd5b5061018d6101de366004612999565b61128d565b3480156101ef57600080fd5b506102036101fe366004612801565b61133e565b604080519384526020840192909252908201526060016100e0565b34801561022a57600080fd5b506100d6670de0b6b3a764000081565b34801561024657600080fd5b5061018d610255366004612957565b61143c565b60008181526020818152604080832081516101008101835281546001600160a01b03908116825260018301548286015260028301546001600160801b0390811683860152600384015460608085019190915285518082018752600486015463ffffffff8082168352640100000000918290048516838b015260058801549094168289015260808087019290925287519182018852600687015480851683529081048416828a01526801000000000000000081048416828901526c0100000000000000000000000090049092169082015260a080840191909152845180860186526007850154909216825260088401549582019590955260c08201528251938401909252600981018054859460e085019290918290829061037990612ca5565b80601f01602080910402602001604051908101604052809291908181526020018280546103a590612ca5565b80156103f25780601f106103c7576101008083540402835291602001916103f2565b820191906000526020600020905b8154815290600101906020018083116103d557829003601f168201915b5050505050815260200160018201805461040b90612ca5565b80601f016020809104026020016040519081016040528092919081815260200182805461043790612ca5565b80156104845780601f1061045957610100808354040283529160200191610484565b820191906000526020600020905b81548152906001019060200180831161046757829003601f168201915b505050918352505060028201546001600160a01b03908116602083015260038301548116604080840191909152600490930154166060909101529152820151919250506001600160801b03166104d9826118ee565b6104e39190612c5e565b9392505050565b6104f26123e9565b6040516317ba7d8560e01b81527f99d271900d627893bad1d8649a7d7eb3501c339595ec52be94d222433d75560360048201526001600160a01b038516906317ba7d859060240160206040518083038186803b15801561055157600080fd5b505afa158015610565573d6000803e3d6000fd5b505050506040513d601f19601f8201168201806040525081019061058991906127e5565b6001600160a01b039081166101408301819052608083018190526040517f7d15e7b9000000000000000000000000000000000000000000000000000000008152868316600482015291851660248301526044820184905290637d15e7b99060640160206040518083038186803b15801561060257600080fd5b505afa158015610616573d6000803e3d6000fd5b505050506040513d601f19601f8201168201806040525081019061063a91906128fd565b6106a5576040517f08c379a000000000000000000000000000000000000000000000000000000000815260206004820152600960248201527f21656c696769626c65000000000000000000000000000000000000000000000060448201526064015b60405180910390fd5b60808101516040517f6cb4e9eb0000000000000000000000000000000000000000000000000000000081526001600160a01b03868116600483015260248201859052858116604483015290911690636cb4e9eb9060640160206040518083038186803b15801561071457600080fd5b505afa158015610728573d6000803e3d6000fd5b505050506040513d601f19601f8201168201806040525081019061074c91906128fd565b156107b3576040517f08c379a000000000000000000000000000000000000000000000000000000000815260206004820152600f60248201527f416c726561647920437265617465640000000000000000000000000000000000604482015260640161069c565b6040516317ba7d8560e01b81527f0fd8cce4ef00a7a8c0c5f91194bc80f122deefe664dd2a2384687da62ab117d160048201526001600160a01b038516906317ba7d859060240160206040518083038186803b15801561081257600080fd5b505afa158015610826573d6000803e3d6000fd5b505050506040513d601f19601f8201168201806040525081019061084a91906127e5565b6001600160a01b0390811660a083015260808201516040517f1190b0a60000000000000000000000000000000000000000000000000000000081528683166004820152602481018590528583166044820152911690631190b0a690606401604080518083038186803b1580156108bf57600080fd5b505afa1580156108d3573d6000803e3d6000fd5b505050506040513d601f19601f820116820180604052508101906108f791906129c8565b5060e082015260808101516040517f40c508f80000000000000000000000000000000000000000000000000000000081526001600160a01b038681166004830152858116602483015260448201859052909116906340c508f89060640160206040518083038186803b15801561096c57600080fd5b505afa158015610980573d6000803e3d6000fd5b505050506040513d601f19601f820116820180604052508101906109a49190612981565b8160e0018181516109b59190612bc8565b90525060a08101516040517f5cb752760000000000000000000000000000000000000000000000000000000081526001600160a01b0386811660048301526024820185905290911690635cb752769060440160006040518083038186803b158015610a1f57600080fd5b505afa158015610a33573d6000803e3d6000fd5b505050506040513d6000823e601f3d908101601f19168201604052610a5b919081019061282c565b50506101808a0152610160890181905260400151159650869550610a8c945050505050575061016081015160800151155b80610a9e575061016081015160600151155b80610ab0575061016081015160c00151155b15610ae7576040517f4268c29100000000000000000000000000000000000000000000000000000000815260040160405180910390fd5b610b088482610180015160200151836101400151308560e001516000611a1e565b81526101608101516080810151606090910151610b259190612c5e565b60c08083018290526101608301510151610b3e91612bff565b61012082015261016081015160c0908101519082015111610b625760016101208201525b80610160015160c001518160c001511115610c04578060c0015181610160015160c00151610b909190612cfb565b610bb45780610160015160c001518160c00151610bad9190612bff565b6101208201525b8060c0015181610160015160c00151826101200151610bd39190612c13565b1015610c045780610160015160c001518160c00151610bf29190612bff565b610bfd906001612bc8565b6101208201525b670de0b6b3a764000081610160015160a001518260e00151610c269190612c13565b610c309190612bff565b6001600160801b03166060820181905261012082015182519091610c5391612c5e565b610c5d9190612bff565b6001600160801b0316604082015260028054906000610c7b83612ce0565b9091555060208201526101808101516080015115610d6e5761018081015160a001516040517f40d097c30000000000000000000000000000000000000000000000000000000081526001600160a01b038581166004830152909116906340d097c390602401602060405180830381600087803b158015610cfa57600080fd5b505af1158015610d0e573d6000803e3d6000fd5b505050506040513d601f19601f82011682018060405250810190610d329190612981565b6101a0820190815260208083015161018084015160a001516001600160a01b031660009081526001835260408082209451825293909252919020555b610ebf848260200151846040518060800160405280336001600160a01b03166001600160a01b03168152602001886001600160a01b03166001600160a01b03168152602001866101800151602001516001600160a01b03166001600160a01b031681526020018661018001516080015115156001151514610df0576000610dfb565b86610180015160a001515b6001600160a01b03166001600160a01b0316815250604051806101200160405280876101200151815260200187606001516001600160801b0316815260200187604001516001600160801b031681526020018760e00151815260200187610160015160400151815260200187610160015160600151815260200187610160015160800151815260200187610160015160c001518152602001876101a00151815250866101800151608001518761016001516000015188610160015160200151611cd4565b60808101516040517f560dbdd70000000000000000000000000000000000000000000000000000000081526001600160a01b0386811660048301526024820185905285811660448301529091169063560dbdd790606401602060405180830381600087803b158015610f3057600080fd5b505af1158015610f44573d6000803e3d6000fd5b505050506040513d601f19601f82011682018060405250810190610f6891906128fd565b50826001600160a01b031681602001517f4c51f0095be9553b8e5eadbc42f96ab0b0c6526566307069cfcbecc63ea41c5283610180015160200151846101600151604001518561016001516040015186610160015160800151610fcb9190612c5e565b61016087015160c0908101516101208901516060808b01516040808d015181516001600160a01b03909a168a5263ffffffff98891660208b015296881690890152928616908701529390931660808501526001600160801b0392831660a085015291169082015260e081018690526101000160405180910390a350505050565b600060208181529181526040908190208054600182015460028301546003840154855160608082018852600487015463ffffffff80821684526001600160801b03640100000000928390048116858d015260058a01548116858c01528a51608081018c5260068b015480841682529384048316818e01526801000000000000000084048316818d01526c01000000000000000000000000909304909116928201929092528851808a018a5260078901546001600160a01b03908116825260088a01549b82019b909b52895160a08101909a526009890180549b9098169a969992909516979396929590949392908290829061114590612ca5565b80601f016020809104026020016040519081016040528092919081815260200182805461117190612ca5565b80156111be5780601f10611193576101008083540402835291602001916111be565b820191906000526020600020905b8154815290600101906020018083116111a157829003601f168201915b505050505081526020016001820180546111d790612ca5565b80601f016020809104026020016040519081016040528092919081815260200182805461120390612ca5565b80156112505780601f1061122557610100808354040283529160200191611250565b820191906000526020600020905b81548152906001019060200180831161123357829003601f168201915b505050918352505060028201546001600160a01b039081166020830152600383015481166040830152600490920154909116606090910152905088565b6000828152602081905260409020600b8101546001600160a01b031633146112e1576040517f30cd747100000000000000000000000000000000000000000000000000000000815260040160405180910390fd5b600b8101805473ffffffffffffffffffffffffffffffffffffffff19166001600160a01b03841690811790915560405184907fca0251ba80971adc7e92434b097ca40450b2a317013c51c5c5cb6ae74500bb0090600090a3505050565b600080808080808061137389896001600160a01b03919091166000908152600160209081526040808320938352929052205490565b9050801561142d5760008181526020819052604090206002810154600390910154670de0b6b3a7640000916113b3916001600160801b0390911690612c5e565b6113bd9190612bff565b6000828152602081905260409020600301549093506113e590670de0b6b3a764000090612bff565b6000828152602081905260409020600381015460029091015491935090611415906001600160801b031682612c5e565b611420906064612c13565b61142a9190612bff565b93505b50919450925090509250925092565b6000818152602081905260409020600c81015460078201546001600160a01b0391821691161561154857600782015460088301546040517f6352211e000000000000000000000000000000000000000000000000000000008152600481019190915233916001600160a01b031690636352211e9060240160206040518083038186803b1580156114cb57600080fd5b505afa1580156114df573d6000803e3d6000fd5b505050506040513d601f19601f8201168201806040525081019061150391906127e5565b6001600160a01b031614611543576040517fe1c6117100000000000000000000000000000000000000000000000000000000815260040160405180910390fd5b61158a565b6001600160a01b038116331461158a576040517fe1c6117100000000000000000000000000000000000000000000000000000000815260040160405180910390fd5b6002820154604080516101008101825284546001600160a01b03908116825260018601546020808401919091526001600160801b0394851683850181905260038801546060808601919091528551808201875260048a015463ffffffff8082168352640100000000918290048a168387015260058c0154909916828901526080808801929092528751918201885260068b0154808a1683529081048916828601526801000000000000000081048916828901526c0100000000000000000000000090049097169087015260a080850196909652845180860186526007890154909316835260088801549183019190915260c083019190915282519384019092526009850180546000946117f99392889260e08501929190829082906116ae90612ca5565b80601f01602080910402602001604051908101604052809291908181526020018280546116da90612ca5565b80156117275780601f106116fc57610100808354040283529160200191611727565b820191906000526020600020905b81548152906001019060200180831161170a57829003601f168201915b5050505050815260200160018201805461174090612ca5565b80601f016020809104026020016040519081016040528092919081815260200182805461176c90612ca5565b80156117b95780601f1061178e576101008083540402835291602001916117b9565b820191906000526020600020905b81548152906001019060200180831161179c57829003601f168201915b505050918352505060028201546001600160a01b0390811660208301526003830154811660408301526004909201549091166060909101529052506118ee565b6118039190612c5e565b90506000811161183f576040517f6247a84e00000000000000000000000000000000000000000000000000000000815260040160405180910390fd5b60028301805482919060009061185f9084906001600160801b0316612b9d565b82546001600160801b039182166101009390930a928302919092021990911617905550600d8301546118a09086906001600160a01b031630858560006121e4565b600d8301546040516000815282916001600160a01b03169086907fff942d249898505febb2a9a00118e27567c084b9497d0aa3ba5e332c235b4f389060200160405180910390a45050505050565b60a08101516040810151905160009182916119099190612be0565b63ffffffff1690508042101561191f5750919050565b600061192b8242612c5e565b9050600061196085608001516000015163ffffffff168660a001516060015163ffffffff168461195b9190612bff565b6123d3565b90508460a001516020015163ffffffff168560a001516060015186608001516000015161198d9190612c32565b60a0870151604081015190516119a39190612be0565b6119ad9190612be0565b63ffffffff1611806119cc57508460a001516020015163ffffffff1642115b156119dc57505050506060015190565b808560800151604001516001600160801b03166119f99190612c13565b8560800151602001516001600160801b0316611a159190612bc8565b95945050505050565b6040516317ba7d8560e01b81527fdfea78be99560632cc4c199ca1b0d68ffe0bbbb07b685976cefc8820374ac73a600482015260009081906001600160a01b038916906317ba7d859060240160206040518083038186803b158015611a8257600080fd5b505afa158015611a96573d6000803e3d6000fd5b505050506040513d601f19601f82011682018060405250810190611aba91906127e5565b90508215611bf6576040517fda5139ca0000000000000000000000000000000000000000000000000000000081526001600160a01b038881166004830152602482018690526000604483015282169063da5139ca9060640160206040518083038186803b158015611b2a57600080fd5b505afa158015611b3e573d6000803e3d6000fd5b505050506040513d601f19601f82011682018060405250810190611b629190612981565b6040517ff18d03cc0000000000000000000000000000000000000000000000000000000081526001600160a01b03898116600483015288811660248301528781166044830152606482018390529193509082169063f18d03cc90608401600060405180830381600087803b158015611bd957600080fd5b505af1158015611bed573d6000803e3d6000fd5b50505050611cc9565b6001600160a01b03808216906302b9446c90891615611c16576000611c18565b855b6040517fffffffff0000000000000000000000000000000000000000000000000000000060e084901b1681526001600160a01b03808c166004830152808b16602483015289166044820152606481018890526000608482015260a40160408051808303818588803b158015611c8c57600080fd5b505af1158015611ca0573d6000803e3d6000fd5b50505050506040513d601f19601f82011682018060405250810190611cc591906129f3565b9250505b509695505050505050565b604051806101000160405280896001600160a01b0316815260200187815260200160006001600160801b0316815260200185600360098110611d2657634e487b7160e01b600052603260045260246000fd5b60200201518152602001604051806060016040528087600060098110611d5c57634e487b7160e01b600052603260045260246000fd5b602002015163ffffffff16815260200187600160098110611d8d57634e487b7160e01b600052603260045260246000fd5b60200201516001600160801b0316815260200187600260098110611dc157634e487b7160e01b600052603260045260246000fd5b60200201516001600160801b03168152508152602001604051806080016040528087600460098110611e0357634e487b7160e01b600052603260045260246000fd5b602002015163ffffffff16815260200187600560098110611e3457634e487b7160e01b600052603260045260246000fd5b602002015163ffffffff16815260200187600460098110611e6557634e487b7160e01b600052603260045260246000fd5b602002015160c0890151611e799190612c5e565b63ffffffff168152602001876007602002015163ffffffff16815250815260200160405180604001604052808615156001151514611eb8576000611ebe565b60608901515b6001600160a01b03168152602001876008602002015181525081526020016040518060a0016040528085815260200184815260200188600060048110611f1457634e487b7160e01b600052603260045260246000fd5b60200201516001600160a01b0316815260200188600160048110611f4857634e487b7160e01b600052603260045260246000fd5b60200201516001600160a01b0316815260200188600260048110611f7c57634e487b7160e01b600052603260045260246000fd5b602090810291909101516001600160a01b039081169092529190925260008a81528082526040908190208451815490851673ffffffffffffffffffffffffffffffffffffffff19918216178255858401516001830155858301516002830180546001600160801b039283167fffffffffffffffffffffffffffffffff0000000000000000000000000000000091821617909155606080890151600386015560808901518051600487018054838b0151871664010000000090810291891663ffffffff9485161791909117909155918801516005880180549190961694169390931790935560a08901518051600687018054838b015199840151939094015185166c01000000000000000000000000027fffffffffffffffffffffffffffffffff00000000ffffffffffffffffffffffff9386166801000000000000000002939093167fffffffffffffffffffffffffffffffff0000000000000000ffffffffffffffff9986169096027fffffffffffffffffffffffffffffffffffffffffffffffff000000000000000090941691909416179190911795909516919091179390931790925560c0850151805160078301805491909616931692909217909355810151600883015560e0830151805180519192600985019261216092849201906124f1565b50602082810151805161217992600185019201906124f1565b50604082015160028201805473ffffffffffffffffffffffffffffffffffffffff199081166001600160a01b03938416179091556060840151600384018054831691841691909117905560809093015160049092018054909316911617905550505050505050505050565b6040516317ba7d8560e01b81527fdfea78be99560632cc4c199ca1b0d68ffe0bbbb07b685976cefc8820374ac73a60048201526000906001600160a01b038816906317ba7d859060240160206040518083038186803b15801561224657600080fd5b505afa15801561225a573d6000803e3d6000fd5b505050506040513d601f19601f8201168201806040525081019061227e91906127e5565b90508115612316576040517ff18d03cc0000000000000000000000000000000000000000000000000000000081526001600160a01b038781166004830152868116602483015285811660448301526064820185905282169063f18d03cc90608401600060405180830381600087803b1580156122f957600080fd5b505af115801561230d573d6000803e3d6000fd5b505050506123ca565b6040517f97da6d300000000000000000000000000000000000000000000000000000000081526001600160a01b0387811660048301528681166024830152858116604483015260006064830152608482018590528216906397da6d309060a4016040805180830381600087803b15801561238f57600080fd5b505af11580156123a3573d6000803e3d6000fd5b505050506040513d601f19601f820116820180604052508101906123c791906129f3565b50505b50505050505050565b60008183106123e257816104e3565b5090919050565b604051806101c00160405280600081526020016000815260200160006001600160801b0316815260200160006001600160801b0316815260200160006001600160a01b0316815260200160006001600160a01b031681526020016000815260200160008152602001600081526020016000815260200160006001600160a01b031681526020016124af6040518060e00160405280606081526020016060815260200160008152602001600081526020016000815260200160008152602001600081525090565b81526040805160c08101825260008082526020828101829052928201819052606082018190526080820181905260a08201529101908152602001600081525090565b8280546124fd90612ca5565b90600052602060002090601f01602090048101928261251f5760008555612565565b82601f1061253857805160ff1916838001178555612565565b82800160010185558215612565579182015b8281111561256557825182559160200191906001019061254a565b50612571929150612575565b5090565b5b808211156125715760008155600101612576565b805161259581612d51565b919050565b8051801515811461259557600080fd5b80516005811061259557600080fd5b600082601f8301126125c9578081fd5b815167ffffffffffffffff808211156125e4576125e4612d3b565b604051601f8301601f19908116603f0116810190828211818310171561260c5761260c612d3b565b81604052838152866020858801011115612624578485fd5b612635846020830160208901612c75565b9695505050505050565b600060c08284031215612650578081fd5b60405160c0810181811067ffffffffffffffff8211171561267357612673612d3b565b6040529050806126828361259a565b8152602083015161269281612d51565b60208201526040838101519082015260608301516126af81612d51565b60608201526126c06080840161259a565b608082015260a08301516126d381612d51565b60a0919091015292915050565b6000608082840312156126f1578081fd5b6040516080810181811067ffffffffffffffff8211171561271457612714612d3b565b8060405250809150825181526020830151602082015260408301516040820152606083015160608201525092915050565b600060e08284031215612756578081fd5b61275e612b74565b9050815167ffffffffffffffff8082111561277857600080fd5b612784858386016125b9565b8352602084015191508082111561279a57600080fd5b506127a7848285016125b9565b60208301525060408201516040820152606082015160608201526080820151608082015260a082015160a082015260c082015160c082015292915050565b6000602082840312156127f6578081fd5b81516104e381612d51565b60008060408385031215612813578081fd5b823561281e81612d51565b946020939093013593505050565b60008060008060008060008060008060006102608c8e03121561284d578687fd5b8b5161285881612d51565b809b505060208c0151995060408c0151985060608c0151975060808c015161287f81612d51565b965061288d60a08d0161258a565b955061289b60c08d016125aa565b945060e08c015167ffffffffffffffff8111156128b6578485fd5b6128c28e828f01612745565b9450506128d38d6101008e0161263f565b92506128e38d6101c08e016126e0565b91506102408c015190509295989b509295989b9093969950565b60006020828403121561290e578081fd5b6104e38261259a565b60008060006060848603121561292b578283fd5b833561293681612d51565b9250602084013561294681612d51565b929592945050506040919091013590565b60008060408385031215612813578182fd5b60006020828403121561297a578081fd5b5035919050565b600060208284031215612992578081fd5b5051919050565b600080604083850312156129ab578182fd5b8235915060208301356129bd81612d51565b809150509250929050565b600080604083850312156129da578182fd5b825191506129ea6020840161259a565b90509250929050565b60008060408385031215612a05578182fd5b505080516020909101519092909150565b60008151808452612a2e816020860160208601612c75565b601f01601f19169290920160200192915050565b6000815160a08452612a5760a0850182612a16565b905060208301518482036020860152612a708282612a16565b91505060408301516001600160a01b03808216604087015280606086015116606087015280608086015116608087015250508091505092915050565b60006101c06001600160a01b038b1683528960208401526001600160801b03808a16604085015288606085015263ffffffff8089511660808601528160208a01511660a08601528160408a01511660c08601528088511660e08601528060208901511661010086015280604089015116610120860152806060890151166101408601525050612b5261016084018680516001600160a01b03168252602090810151910152565b806101a0840152612b6581840185612a42565b9b9a5050505050505050505050565b60405160e0810167ffffffffffffffff81118282101715612b9757612b97612d3b565b60405290565b60006001600160801b03808316818516808303821115612bbf57612bbf612d0f565b01949350505050565b60008219821115612bdb57612bdb612d0f565b500190565b600063ffffffff808316818516808303821115612bbf57612bbf612d0f565b600082612c0e57612c0e612d25565b500490565b6000816000190483118215151615612c2d57612c2d612d0f565b500290565b600063ffffffff80831681851681830481118215151615612c5557612c55612d0f565b02949350505050565b600082821015612c7057612c70612d0f565b500390565b60005b83811015612c90578181015183820152602001612c78565b83811115612c9f576000848401525b50505050565b600181811c90821680612cb957607f821691505b60208210811415612cda57634e487b7160e01b600052602260045260246000fd5b50919050565b6000600019821415612cf457612cf4612d0f565b5060010190565b600082612d0a57612d0a612d25565b500690565b634e487b7160e01b600052601160045260246000fd5b634e487b7160e01b600052601260045260246000fd5b634e487b7160e01b600052604160045260246000fd5b6001600160a01b0381168114612d6657600080fd5b5056fea2646970667358221220f299b36a070cd5a27a2ac5da0e61a6b74a41e886b1ed00fb7b501f5ea134ef9c64736f6c63430008040033",
  "linkReferences": {},
  "deployedLinkReferences": {}
}