{
  "_format": "hh-sol-artifact-1",
  "contractName": "VintageGovernorVotingAssetAllocationProposalAdapterContract",
  "sourceName": "contracts/vintage/adapters/VintageGovernorVotingAssetAllocationAdapter.sol",
  "abi": [
    {
      "inputs": [],
      "name": "ADAPTER_NOT_FUND",
      "type": "error"
    },
    {
      "inputs": [],
      "name": "INVALID_GOVERNOR",
      "type": "error"
    },
    {
      "inputs": [],
      "name": "INVALID_PARAMS",
      "type": "error"
    },
    {
      "inputs": [],
      "name": "PROPOSAL_ALREADY_PROCESSED",
      "type": "error"
    },
    {
      "inputs": [],
      "name": "PROPOSAL_HAS_NOT_BEEN_VOTED_ON_YET",
      "type": "error"
    },
    {
      "anonymous": false,
      "inputs": [
        {
          "indexed": false,
          "internalType": "address",
          "name": "daoAddr",
          "type": "address"
        },
        {
          "indexed": false,
          "internalType": "bytes32",
          "name": "proposalId",
          "type": "bytes32"
        },
        {
          "indexed": false,
          "internalType": "address[]",
          "name": "governors",
          "type": "address[]"
        },
        {
          "indexed": false,
          "internalType": "uint256[]",
          "name": "allocations",
          "type": "uint256[]"
        },
        {
          "indexed": false,
          "internalType": "uint256",
          "name": "stopVoteTime",
          "type": "uint256"
        }
      ],
      "name": "ProposalCreated",
      "type": "event"
    },
    {
      "anonymous": false,
      "inputs": [
        {
          "indexed": false,
          "internalType": "address",
          "name": "daoAddr",
          "type": "address"
        },
        {
          "indexed": false,
          "internalType": "bytes32",
          "name": "proposalId",
          "type": "bytes32"
        },
        {
          "indexed": false,
          "internalType": "enum VintageGovernorVotingAssetAllocationProposalAdapterContract.ProposalState",
          "name": "state",
          "type": "uint8"
        },
        {
          "indexed": false,
          "internalType": "uint128",
          "name": "allVotingWeight",
          "type": "uint128"
        },
        {
          "indexed": false,
          "internalType": "uint256",
          "name": "nbYes",
          "type": "uint256"
        },
        {
          "indexed": false,
          "internalType": "uint256",
          "name": "nbNo",
          "type": "uint256"
        },
        {
          "indexed": false,
          "internalType": "uint256",
          "name": "voteResult",
          "type": "uint256"
        }
      ],
      "name": "ProposalProcessed",
      "type": "event"
    },
    {
      "inputs": [
        {
          "internalType": "contract DaoRegistry",
          "name": "",
          "type": "address"
        }
      ],
      "name": "ongoingProposal",
      "outputs": [
        {
          "internalType": "bytes32",
          "name": "",
          "type": "bytes32"
        }
      ],
      "stateMutability": "view",
      "type": "function"
    },
    {
      "inputs": [
        {
          "internalType": "contract DaoRegistry",
          "name": "dao",
          "type": "address"
        },
        {
          "internalType": "bytes32",
          "name": "proposalId",
          "type": "bytes32"
        }
      ],
      "name": "processProposal",
      "outputs": [],
      "stateMutability": "nonpayable",
      "type": "function"
    },
    {
      "inputs": [
        {
          "internalType": "contract DaoRegistry",
          "name": "",
          "type": "address"
        },
        {
          "internalType": "bytes32",
          "name": "",
          "type": "bytes32"
        }
      ],
      "name": "proposals",
      "outputs": [
        {
          "internalType": "address",
          "name": "proposer",
          "type": "address"
        },
        {
          "components": [
            {
              "internalType": "uint256[]",
              "name": "allocs",
              "type": "uint256[]"
            }
          ],
          "internalType": "struct VintageGovernorVotingAssetAllocationProposalAdapterContract.VotingAllocation",
          "name": "allocs",
          "type": "tuple"
        },
        {
          "components": [
            {
              "internalType": "address[]",
              "name": "governors",
              "type": "address[]"
            }
          ],
          "internalType": "struct VintageGovernorVotingAssetAllocationProposalAdapterContract.VotingGovernor",
          "name": "govs",
          "type": "tuple"
        },
        {
          "internalType": "uint256",
          "name": "creationTime",
          "type": "uint256"
        },
        {
          "internalType": "uint256",
          "name": "stopVoteTime",
          "type": "uint256"
        },
        {
          "internalType": "enum VintageGovernorVotingAssetAllocationProposalAdapterContract.ProposalState",
          "name": "state",
          "type": "uint8"
        }
      ],
      "stateMutability": "view",
      "type": "function"
    },
    {
      "inputs": [
        {
          "internalType": "contract DaoRegistry",
          "name": "dao",
          "type": "address"
        },
        {
          "internalType": "address[]",
          "name": "govs",
          "type": "address[]"
        },
        {
          "internalType": "uint256[]",
          "name": "allocs",
          "type": "uint256[]"
        }
      ],
      "name": "submitProposal",
      "outputs": [],
      "stateMutability": "nonpayable",
      "type": "function"
    }
  ],
  "bytecode": "0x608060405234801561001057600080fd5b50613387806100206000396000f3fe608060405234801561001057600080fd5b506004361061004c5760003560e01c80635cb752761461005157806362e86df51461007f5780639573167d146100ad578063fde92fcf146100c2575b600080fd5b61006461005f366004612e22565b6100d5565b604051610076969594939291906130c9565b60405180910390f35b61009f61008d366004612c57565b60016020526000908152604090205481565b604051908152602001610076565b6100c06100bb366004612e22565b6101d9565b005b6100c06100d0366004612da2565b610641565b6000602081815292815260408082208452918152819020805482516001830180548087028301860186529582018681526001600160a01b039093169593949193909284929091849184018282801561014c57602002820191906000526020600020905b815481526020019060010190808311610138575b5050509190925250506040805160028501805460208181028401850185528301818152959695929450909284929184918401828280156101b557602002820191906000526020600020905b81546001600160a01b03168152600190910190602001808311610197575b50505091909252505050600382015460048301546005909301549192909160ff1686565b6001600160a01b0382166000818152602081815260408083208584529091529081902090517ff941f69100000000000000000000000000000000000000000000000000000000815290919063f941f6919061023b90859060029060040161315c565b60206040518083038186803b15801561025357600080fd5b505afa158015610267573d6000803e3d6000fd5b505050506040513d601f19601f8201168201806040525081019061028b9190612d5d565b156102c2576040517f35153ac400000000000000000000000000000000000000000000000000000000815260040160405180910390fd5b6040516317ba7d8560e01b81527fd3999c37f8f35da86f802a74f9bf032c4aeb46e49abd9c861f489ef4cb40d0a860048201526000906001600160a01b038516906317ba7d859060240160206040518083038186803b15801561032457600080fd5b505afa158015610338573d6000803e3d6000fd5b505050506040513d601f19601f8201168201806040525081019061035c9190612c7a565b90506001600160a01b03811661039e576040517f5d78cd3c00000000000000000000000000000000000000000000000000000000815260040160405180910390fd5b6040517f76225e730000000000000000000000000000000000000000000000000000000081526001600160a01b0385811660048301526024820185905260009182918291908516906376225e7390604401606060405180830381600087803b15801561040957600080fd5b505af115801561041d573d6000803e3d6000fd5b505050506040513d601f19601f820116820180604052508101906104419190612e6c565b9194506fffffffffffffffffffffffffffffffff908116935016905060006104698888610e82565b6040517f30490e91000000000000000000000000000000000000000000000000000000008152600481018990529091506001600160a01b038916906330490e9190602401600060405180830381600087803b1580156104c757600080fd5b505af11580156104db573d6000803e3d6000fd5b50600292506104e8915050565b84600581111561050857634e487b7160e01b600052602160045260246000fd5b141561052c5760058601805460ff1916600117905561052788886111b0565b6105c4565b600384600581111561054e57634e487b7160e01b600052602160045260246000fd5b14806105795750600184600581111561057757634e487b7160e01b600052602160045260246000fd5b145b156105925760058601805460ff191660031790556105c4565b6040517fe2489e3300000000000000000000000000000000000000000000000000000000815260040160405180910390fd5b7f7ab29e6deeb60f3b76461422909b7ae5bda1be890b270b70c56a32d54cd2a45688888860050160009054906101000a900460ff168487878a600581111561061c57634e487b7160e01b600052602160045260246000fd5b60405161062f979695949392919061306f565b60405180910390a15050505050505050565b84600061064d826113a7565b90508661065a8133611691565b858414610693576040517f6a9c3ed500000000000000000000000000000000000000000000000000000000815260040160405180910390fd5b61069e88888861178d565b876001600160a01b031663ccb299d06040518163ffffffff1660e01b8152600401600060405180830381600087803b1580156106d957600080fd5b505af11580156106ed573d6000803e3d6000fd5b5050505060006107988960c01b6107738b6001600160a01b031663e5b0be456040518163ffffffff1660e01b815260040160206040518083038186803b15801561073657600080fd5b505afa15801561074a573d6000803e3d6000fd5b505050506040513d601f19601f8201168201806040525081019061076e9190612ecd565b6118c5565b604051602001610784929190612f4a565b604051602081830303815290604052611a1b565b604051634941d71d60e11b81527f9876c0f0505bfb2b1c38d3bbd25ba13159172cd0868972d76927723f5a9480fc60048201529091506000906001600160a01b038b1690639283ae3a9060240160206040518083038186803b1580156107fd57600080fd5b505afa158015610811573d6000803e3d6000fd5b505050506040513d601f19601f820116820180604052508101906108359190612ecd565b61083f9042613205565b90506040518060c00160405280336001600160a01b0316815260200160405180602001604052808c8c905067ffffffffffffffff81111561089057634e487b7160e01b600052604160045260246000fd5b6040519080825280602002602001820160405280156108b9578160200160208202803683370190505b50815250815260200160405180602001604052808c8c905067ffffffffffffffff8111156108f757634e487b7160e01b600052604160045260246000fd5b604051908082528060200260200182016040528015610920578160200160208202803683370190505b509052815242602082015260408101839052606001600090526001600160a01b038b811660009081526020818152604080832087845282529091208351815473ffffffffffffffffffffffffffffffffffffffff1916931692909217825582810151805180519192600185019261099a9284920190612b0b565b50505060408201518051805160028401916109ba91839160200190612b56565b505050606082015181600301556080820151816004015560a08201518160050160006101000a81548160ff02191690836003811115610a0957634e487b7160e01b600052602160045260246000fd5b021790555090505060005b60ff8116891115610b685787878260ff16818110610a4257634e487b7160e01b600052603260045260246000fd5b6001600160a01b038e166000908152602081815260408083208984528252909120600101805492909102939093013592915060ff8416908110610a9557634e487b7160e01b600052603260045260246000fd5b600091825260209091200155898960ff8316818110610ac457634e487b7160e01b600052603260045260246000fd5b9050602002016020810190610ad99190612c57565b6001600160a01b038c166000908152602081815260408083208784529091529020600201805460ff8416908110610b2057634e487b7160e01b600052603260045260246000fd5b6000918252602090912001805473ffffffffffffffffffffffffffffffffffffffff19166001600160a01b039290921691909117905580610b60816132ad565b915050610a14565b506001600160a01b038a16600081815260016020526040808220859055516317ba7d8560e01b81527fd3999c37f8f35da86f802a74f9bf032c4aeb46e49abd9c861f489ef4cb40d0a860048201529091906317ba7d859060240160206040518083038186803b158015610bda57600080fd5b505afa158015610bee573d6000803e3d6000fd5b505050506040513d601f19601f82011682018060405250810190610c129190612c7a565b6040517fb73dc389000000000000000000000000000000000000000000000000000000008152600481018590529091506001600160a01b038c169063b73dc38990602401600060405180830381600087803b158015610c7057600080fd5b505af1158015610c84573d6000803e3d6000fd5b50506040516317ba7d8560e01b81527fd3999c37f8f35da86f802a74f9bf032c4aeb46e49abd9c861f489ef4cb40d0a860048201526001600160a01b038e16925063815a2bf49150859083906317ba7d859060240160206040518083038186803b158015610cf157600080fd5b505afa158015610d05573d6000803e3d6000fd5b505050506040513d601f19601f82011682018060405250810190610d299190612c7a565b6040517fffffffff0000000000000000000000000000000000000000000000000000000060e085901b16815260048101929092526001600160a01b03166024820152604401600060405180830381600087803b158015610d8857600080fd5b505af1158015610d9c573d6000803e3d6000fd5b5050604080516020810182526000815290517f26078cd00000000000000000000000000000000000000000000000000000000081526001600160a01b03851693506326078cd09250610df6918f9188914291600401613180565b600060405180830381600087803b158015610e1057600080fd5b505af1158015610e24573d6000803e3d6000fd5b505050507f1a430b52b7d2c175591f9e71d42ec16859629de97bdb96f0513d7dc639159f4a8b848c8c8c8c88604051610e639796959493929190612fb8565b60405180910390a150505050610e798282611a37565b50505050505050565b600080836001600160a01b031663a6f636416040518163ffffffff1660e01b815260040160006040518083038186803b158015610ebe57600080fd5b505afa158015610ed2573d6000803e3d6000fd5b505050506040513d6000823e601f3d908101601f19168201604052610efa9190810190612c96565b6040516317ba7d8560e01b81527fd3999c37f8f35da86f802a74f9bf032c4aeb46e49abd9c861f489ef4cb40d0a8600482015290915060009081906001600160a01b038716906317ba7d859060240160206040518083038186803b158015610f6157600080fd5b505afa158015610f75573d6000803e3d6000fd5b505050506040513d601f19601f82011682018060405250810190610f999190612c7a565b905060005b83518160ff1610156111a357816001600160a01b03166324a2cceb8888878560ff1681518110610fde57634e487b7160e01b600052603260045260246000fd5b60200260200101516040518463ffffffff1660e01b8152600401611022939291906001600160a01b0393841681526020810192909252909116604082015260600190565b60206040518083038186803b15801561103a57600080fd5b505afa15801561104e573d6000803e3d6000fd5b505050506040513d601f19601f820116820180604052508101906110729190612d5d565b1561115057816001600160a01b03166391d2fd538888878560ff16815181106110ab57634e487b7160e01b600052603260045260246000fd5b60200260200101516040518463ffffffff1660e01b81526004016110ef939291906001600160a01b0393841681526020810192909252909116604082015260600190565b60206040518083038186803b15801561110757600080fd5b505afa15801561111b573d6000803e3d6000fd5b505050506040513d601f19601f8201168201806040525081019061113f9190612eb3565b61114990846131d1565b9250611191565b61118487858360ff168151811061117757634e487b7160e01b600052603260045260246000fd5b6020026020010151611a42565b61118e90846131d1565b92505b8061119b816132ad565b915050610f9e565b5090925050505b92915050565b6001600160a01b03821660009081526020818152604080832084845290915290206002810154156113a2576040516317ba7d8560e01b81527f1fa6846b165d822fff79e37c67625706652fa9380c2aa49fd513ce534cc72ed460048201526000906001600160a01b038516906317ba7d859060240160206040518083038186803b15801561123d57600080fd5b505afa158015611251573d6000803e3d6000fd5b505050506040513d601f19601f820116820180604052508101906112759190612c7a565b905060005b600283015460ff8216101561139f57816001600160a01b0316635f15b1d986856002016000018460ff16815481106112c257634e487b7160e01b600052603260045260246000fd5b6000918252602090912001546001870180546001600160a01b039092169160ff871690811061130157634e487b7160e01b600052603260045260246000fd5b6000918252602090912001546040517fffffffff0000000000000000000000000000000000000000000000000000000060e086901b1681526001600160a01b0393841660048201529290911660248301526044820152606401600060405180830381600087803b15801561137457600080fd5b505af1158015611388573d6000803e3d6000fd5b505050508080611397906132ad565b91505061127a565b50505b505050565b6040805160808101825260008082526020820181905291810182905260608101919091525a81600001818152505043826001600160a01b031663b21634826040518163ffffffff1660e01b815260040160206040518083038186803b15801561140f57600080fd5b505afa158015611423573d6000803e3d6000fd5b505050506040513d601f19601f820116820180604052508101906114479190612ecd565b14156114b4576040517f08c379a000000000000000000000000000000000000000000000000000000000815260206004820152601060248201527f7265656e7472616e63792067756172640000000000000000000000000000000060448201526064015b60405180910390fd5b816001600160a01b03166310fdb0a26040518163ffffffff1660e01b8152600401600060405180830381600087803b1580156114ef57600080fd5b505af1158015611503573d6000803e3d6000fd5b50506040517f72c6838f0000000000000000000000000000000000000000000000000000000081527f1f2fd42ad6a6cacd573c4b212beb7a4e2499ad45d742a65337097f130e71daff6004820152600092506001600160a01b03851691506372c6838f9060240160206040518083038186803b15801561158257600080fd5b505afa158015611596573d6000803e3d6000fd5b505050506040513d601f19601f820116820180604052508101906115ba9190612c7a565b90506001600160a01b0381166115d6576000602083015261168b565b6001600160a01b038181166060840181905283516040517f43a8a3f1000000000000000000000000000000000000000000000000000000008152928616600484015260248301526000918291906343a8a3f190604401604080518083038186803b15801561164357600080fd5b505afa158015611657573d6000803e3d6000fd5b505050506040513d601f19601f8201168201806040525081019061167b9190612d77565b9015156020860152604085015250505b50919050565b6040517fa230c5240000000000000000000000000000000000000000000000000000000081526001600160a01b03828116600483015283169063a230c5249060240160206040518083038186803b1580156116eb57600080fd5b505afa1580156116ff573d6000803e3d6000fd5b505050506040513d601f19601f820116820180604052508101906117239190612d5d565b611789576040517f08c379a000000000000000000000000000000000000000000000000000000000815260206004820152600c60248201527f6f6e6c79476f7665726e6f72000000000000000000000000000000000000000060448201526064016114ab565b5050565b80156113a25760005b60ff81168211156118bf57836001600160a01b031663a230c52484848460ff168181106117d357634e487b7160e01b600052603260045260246000fd5b90506020020160208101906117e89190612c57565b6040517fffffffff0000000000000000000000000000000000000000000000000000000060e084901b1681526001600160a01b03909116600482015260240160206040518083038186803b15801561183f57600080fd5b505afa158015611853573d6000803e3d6000fd5b505050506040513d601f19601f820116820180604052508101906118779190612d5d565b6118ad576040517f24acff8400000000000000000000000000000000000000000000000000000000815260040160405180910390fd5b806118b7816132ad565b915050611796565b50505050565b60608161190557505060408051808201909152600181527f3000000000000000000000000000000000000000000000000000000000000000602082015290565b8160005b811561192f578061191981613274565b91506119289050600a8361321d565b9150611909565b60008167ffffffffffffffff81111561195857634e487b7160e01b600052604160045260246000fd5b6040519080825280601f01601f191660200182016040528015611982576020820181803683370190505b5090505b8415611a1357611997600183613231565b91506119a4600a866132cd565b6119af906030613205565b60f81b8183815181106119d257634e487b7160e01b600052603260045260246000fd5b60200101907effffffffffffffffffffffffffffffffffffffffffffffffffffffffffffff1916908160001a905350611a0c600a8661321d565b9450611986565b949350505050565b6000815160001415611a2f57506000919050565b506020015190565b6117898282336128ca565b6040516317ba7d8560e01b81527faaff643bdbd909f604d46ce015336f7e20fee3ac4a55cef3610188dee176c892600482015260009081906001600160a01b038516906317ba7d859060240160206040518083038186803b158015611aa657600080fd5b505afa158015611aba573d6000803e3d6000fd5b505050506040513d601f19601f82011682018060405250810190611ade9190612c7a565b6040516317ba7d8560e01b81527fa837e34a29b67bf52f684a1c93def79b84b9c012732becee4e5df62809df64ed60048201529091506000906001600160a01b038616906317ba7d859060240160206040518083038186803b158015611b4357600080fd5b505afa158015611b57573d6000803e3d6000fd5b505050506040513d601f19601f82011682018060405250810190611b7b9190612c7a565b6040516317ba7d8560e01b81527f1fa6846b165d822fff79e37c67625706652fa9380c2aa49fd513ce534cc72ed460048201529091506000906001600160a01b038716906317ba7d859060240160206040518083038186803b158015611be057600080fd5b505afa158015611bf4573d6000803e3d6000fd5b505050506040513d601f19601f82011682018060405250810190611c189190612c7a565b604051634941d71d60e11b81527f686efe7bd1699b408d306db6bbee658ed667971c52d48d6912d7ee496e36e62760048201529091506000906001600160a01b03881690639283ae3a9060240160206040518083038186803b158015611c7d57600080fd5b505afa158015611c91573d6000803e3d6000fd5b505050506040513d601f19601f82011682018060405250810190611cb59190612ecd565b604051634941d71d60e11b81527fb75eae231d9582c6afc6491273df4a0ffbccd48ab2c48dbce59e5d68f2d19dc460048201529091506000906001600160a01b03891690639283ae3a9060240160206040518083038186803b158015611d1a57600080fd5b505afa158015611d2e573d6000803e3d6000fd5b505050506040513d601f19601f82011682018060405250810190611d529190612ecd565b604051634941d71d60e11b81527e634460a4b60c2e1bf8c87bfc42b6b68fd2a71f4bb2d760816eabc5038b503660048201529091506000906001600160a01b038a1690639283ae3a9060240160206040518083038186803b158015611db657600080fd5b505afa158015611dca573d6000803e3d6000fd5b505050506040513d601f19601f82011682018060405250810190611dee9190612ecd565b6040517ffd310d290000000000000000000000000000000000000000000000000000000081527fcd9b30ab6388c165d825b60b7d393528191ba59d975b4b1b52b7184b63b8a97c60048201529091506000906001600160a01b038b169063fd310d299060240160206040518083038186803b158015611e6c57600080fd5b505afa158015611e80573d6000803e3d6000fd5b505050506040513d601f19601f82011682018060405250810190611ea49190612c7a565b9050826001141561231f57600084611f4c576040516370a0823160e01b81526001600160a01b038b81166004830152670de0b6b3a764000091908416906370a08231906024015b60206040518083038186803b158015611f0357600080fd5b505afa158015611f17573d6000803e3d6000fd5b505050506040513d601f19601f82011682018060405250810190611f3b9190612ecd565b611f45919061321d565b90506122b0565b8460011415611fcf576040516370a0823160e01b81526001600160a01b038b811660048301528316906370a08231906024015b60206040518083038186803b158015611f9757600080fd5b505afa158015611fab573d6000803e3d6000fd5b505050506040513d601f19601f82011682018060405250810190611f459190612ecd565b846002141561200b57604051627eeac760e11b81526001600160a01b038b811660048301526024820185905283169062fdd58e90604401611f7f565b846003141561204a576040516329b6517360e21b81526001600160a01b038c811660048301528b8116602483015287169063a6d945cc90604401611f7f565b846004141561229f5760026040517f1ee1a2b00000000000000000000000000000000000000000000000000000000081526001600160a01b038d811660048301528a1690631ee1a2b09060240160206040518083038186803b1580156120af57600080fd5b505afa1580156120c3573d6000803e3d6000fd5b505050506040513d601f19601f820116820180604052508101906120e79190612e4d565b600381111561210657634e487b7160e01b600052602160045260246000fd5b1480156121a85750604051634941d71d60e11b81527f9ce69cf04065e3c7823cc5540c0598d8a694bd7a9a5a2a786d8bccf14ed6e2ea60048201526001600160a01b038c1690639283ae3a9060240160206040518083038186803b15801561216d57600080fd5b505afa158015612181573d6000803e3d6000fd5b505050506040513d601f19601f820116820180604052508101906121a59190612ecd565b42105b801561224857506040517f4fc0a76d0000000000000000000000000000000000000000000000000000000081526001600160a01b038c8116600483015260019190891690634fc0a76d9060240160206040518083038186803b15801561220d57600080fd5b505afa158015612221573d6000803e3d6000fd5b505050506040513d601f19601f820116820180604052508101906122459190612ecd565b10155b1561228e57604051633de222bb60e21b81526001600160a01b038c811660048301528b81166024830152670de0b6b3a764000091908a169063f7888aec90604401611eeb565b6001985050505050505050506111aa565b6000985050505050505050506111aa565b600081116122c9576000985050505050505050506111aa565b677fffffffffffffff81106122e9576032985050505050505050506111aa565b60006123046122ff6122fa846129cf565b6129ed565b612aef565b67ffffffffffffffff1699506111aa98505050505050505050565b82600214156124d6576000846123c6576040516370a0823160e01b81526001600160a01b038b81166004830152600091908416906370a08231906024015b60206040518083038186803b15801561237557600080fd5b505afa158015612389573d6000803e3d6000fd5b505050506040513d601f19601f820116820180604052508101906123ad9190612ecd565b116123b95760006123bc565b60015b60ff1690506124c7565b8460011415612401576040516370a0823160e01b81526001600160a01b038b81166004830152600091908416906370a082319060240161235d565b846002141561244157604051627eeac760e11b81526001600160a01b038b81166004830152602482018590526000919084169062fdd58e9060440161235d565b8460031415612484576040516329b6517360e21b81526001600160a01b038c811660048301528b811660248301526000919088169063a6d945cc9060440161235d565b846004141561229f57604051633de222bb60e21b81526001600160a01b038c811660048301528b81166024830152600091908a169063f7888aec9060440161235d565b97506111aa9650505050505050565b826128ba57600084612578576040516370a0823160e01b81526001600160a01b038b81166004830152670de0b6b3a764000091908416906370a08231906024015b60206040518083038186803b15801561252f57600080fd5b505afa158015612543573d6000803e3d6000fd5b505050506040513d601f19601f820116820180604052508101906125679190612ecd565b612571919061321d565b90506124c7565b84600114156125fb576040516370a0823160e01b81526001600160a01b038b811660048301528316906370a08231906024015b60206040518083038186803b1580156125c357600080fd5b505afa1580156125d7573d6000803e3d6000fd5b505050506040513d601f19601f820116820180604052508101906125719190612ecd565b846002141561263757604051627eeac760e11b81526001600160a01b038b811660048301526024820185905283169062fdd58e906044016125ab565b8460031415612676576040516329b6517360e21b81526001600160a01b038c811660048301528b8116602483015287169063a6d945cc906044016125ab565b846004141561229f5760026040517f1ee1a2b00000000000000000000000000000000000000000000000000000000081526001600160a01b038d811660048301528a1690631ee1a2b09060240160206040518083038186803b1580156126db57600080fd5b505afa1580156126ef573d6000803e3d6000fd5b505050506040513d601f19601f820116820180604052508101906127139190612e4d565b600381111561273257634e487b7160e01b600052602160045260246000fd5b1480156127d45750604051634941d71d60e11b81527f9ce69cf04065e3c7823cc5540c0598d8a694bd7a9a5a2a786d8bccf14ed6e2ea60048201526001600160a01b038c1690639283ae3a9060240160206040518083038186803b15801561279957600080fd5b505afa1580156127ad573d6000803e3d6000fd5b505050506040513d601f19601f820116820180604052508101906127d19190612ecd565b42105b801561287457506040517f4fc0a76d0000000000000000000000000000000000000000000000000000000081526001600160a01b038c8116600483015260019190891690634fc0a76d9060240160206040518083038186803b15801561283957600080fd5b505afa15801561284d573d6000803e3d6000fd5b505050506040513d601f19601f820116820180604052508101906128719190612ecd565b10155b1561228e57604051633de222bb60e21b81526001600160a01b038c811660048301528b81166024830152670de0b6b3a764000091908a169063f7888aec90604401612517565b60009750505050505050506111aa565b8160200151156129805781606001516001600160a01b0316635e5eb01384835a86516128f69190613231565b60408088015190517fffffffff0000000000000000000000000000000000000000000000000000000060e087901b1681526001600160a01b03948516600482015293909216602484015260448301526064820152608401600060405180830381600087803b15801561296757600080fd5b505af115801561297b573d6000803e3d6000fd5b505050505b826001600160a01b031663d4f7af436040518163ffffffff1660e01b8152600401600060405180830381600087803b1580156129bb57600080fd5b505af1158015610e79573d6000803e3d6000fd5b6000677fffffffffffffff8211156129e657600080fd5b5060401b90565b60008082600f0b136129fe57600080fd5b6000600f83900b680100000000000000008112612a1d576040918201911d5b6401000000008112612a31576020918201911d5b620100008112612a43576010918201911d5b6101008112612a54576008918201911d5b60108112612a64576004918201911d5b60048112612a74576002918201911d5b60028112612a83576001820191505b7fffffffffffffffffffffffffffffffffffffffffffffffffffffffffffffffc0820160401b600f85900b607f8490031b6780000000000000005b6000811315612ae45790800260ff81901c8281029390930192607f011c9060011d612abe565b509095945050505050565b60008082600f0b1215612b0157600080fd5b50600f0b60401d90565b828054828255906000526020600020908101928215612b46579160200282015b82811115612b46578251825591602001919060010190612b2b565b50612b52929150612bb8565b5090565b828054828255906000526020600020908101928215612b46579160200282015b82811115612b46578251825473ffffffffffffffffffffffffffffffffffffffff19166001600160a01b03909116178255602090920191600190910190612b76565b5b80821115612b525760008155600101612bb9565b8051612bd881613339565b919050565b60008083601f840112612bee578081fd5b50813567ffffffffffffffff811115612c05578182fd5b6020830191508360208260051b8501011115612c2057600080fd5b9250929050565b80518015158114612bd857600080fd5b80516fffffffffffffffffffffffffffffffff81168114612bd857600080fd5b600060208284031215612c68578081fd5b8135612c7381613339565b9392505050565b600060208284031215612c8b578081fd5b8151612c7381613339565b60006020808385031215612ca8578182fd5b825167ffffffffffffffff80821115612cbf578384fd5b818501915085601f830112612cd2578384fd5b815181811115612ce457612ce4613323565b8060051b604051601f19603f83011681018181108582111715612d0957612d09613323565b604052828152858101935084860182860187018a1015612d27578788fd5b8795505b83861015612d5057612d3c81612bcd565b855260019590950194938601938601612d2b565b5098975050505050505050565b600060208284031215612d6e578081fd5b612c7382612c27565b60008060408385031215612d89578081fd5b612d9283612c27565b9150602083015190509250929050565b600080600080600060608688031215612db9578081fd5b8535612dc481613339565b9450602086013567ffffffffffffffff80821115612de0578283fd5b612dec89838a01612bdd565b90965094506040880135915080821115612e04578283fd5b50612e1188828901612bdd565b969995985093965092949392505050565b60008060408385031215612e34578182fd5b8235612e3f81613339565b946020939093013593505050565b600060208284031215612e5e578081fd5b815160048110612c73578182fd5b600080600060608486031215612e80578283fd5b835160068110612e8e578384fd5b9250612e9c60208501612c37565b9150612eaa60408501612c37565b90509250925092565b600060208284031215612ec4578081fd5b612c7382612c37565b600060208284031215612ede578081fd5b5051919050565b60048110612ef557612ef561330d565b9052565b805160208084528151848201819052600092820190839060408701905b80831015612f3f5783516001600160a01b03168252928401926001929092019190840190612f16565b509695505050505050565b7fffffffffffffffff000000000000000000000000000000000000000000000000831681527f56696e7461676520476f7665726e6f7220416c6c6f636174696f6e2023000000600882015260008251612faa816025850160208701613248565b919091016025019392505050565b6001600160a01b038881168252602080830189905260a0604084018190528301879052600091889160c08501845b8a81101561300d578435612ff981613339565b841682529382019390820190600101612fe6565b5085810360608701528781527f07ffffffffffffffffffffffffffffffffffffffffffffffffffffffffffffff881115613045578485fd5b8760051b935083898383013790920190910191825250608091909101919091529695505050505050565b6001600160a01b03881681526020810187905260e081016130936040830188612ee5565b6fffffffffffffffffffffffffffffffff861660608301528460808301528360a08301528260c083015298975050505050505050565b6001600160a01b038716815260c060208083018290528751918301819052815160e0840181905260009282019083906101008601905b8083101561311f57835182529284019260019290920191908401906130ff565b508581036040870152613132818b612ef9565b94505050505084606083015283608083015261315160a0830184612ee5565b979650505050505050565b82815260408101600383106131735761317361330d565b8260208301529392505050565b6001600160a01b038516815283602082015282604082015260806060820152600082518060808401526131ba8160a0850160208701613248565b601f01601f19169190910160a00195945050505050565b60006fffffffffffffffffffffffffffffffff8083168185168083038211156131fc576131fc6132e1565b01949350505050565b60008219821115613218576132186132e1565b500190565b60008261322c5761322c6132f7565b500490565b600082821015613243576132436132e1565b500390565b60005b8381101561326357818101518382015260200161324b565b838111156118bf5750506000910152565b60007fffffffffffffffffffffffffffffffffffffffffffffffffffffffffffffffff8214156132a6576132a66132e1565b5060010190565b600060ff821660ff8114156132c4576132c46132e1565b60010192915050565b6000826132dc576132dc6132f7565b500690565b634e487b7160e01b600052601160045260246000fd5b634e487b7160e01b600052601260045260246000fd5b634e487b7160e01b600052602160045260246000fd5b634e487b7160e01b600052604160045260246000fd5b6001600160a01b038116811461334e57600080fd5b5056fea26469706673582212206a9931f85526b1e5ebde5ced4dd0410a8c4309f4697d828b8989fd742caaf48164736f6c63430008040033",
  "linkReferences": {},
  "deployedLinkReferences": {}
}