{
  "_format": "hh-sol-artifact-1",
  "contractName": "VintageVotingContract",
  "sourceName": "contracts/vintage/adapters/VintageVoting.sol",
  "abi": [
    {
      "anonymous": false,
      "inputs": [
        {
          "indexed": false,
          "internalType": "uint256",
          "name": "votingPeriod",
          "type": "uint256"
        },
        {
          "indexed": false,
          "internalType": "uint256",
          "name": "gracePeriod",
          "type": "uint256"
        }
      ],
      "name": "ConfigureDao",
      "type": "event"
    },
    {
      "anonymous": false,
      "inputs": [
        {
          "indexed": false,
          "internalType": "bytes32",
          "name": "proposalId",
          "type": "bytes32"
        },
        {
          "indexed": false,
          "internalType": "uint256",
          "name": "blocktime",
          "type": "uint256"
        },
        {
          "indexed": false,
          "internalType": "address",
          "name": "voter",
          "type": "address"
        },
        {
          "indexed": false,
          "internalType": "uint128",
          "name": "origenalVotingWeight",
          "type": "uint128"
        },
        {
          "indexed": false,
          "internalType": "uint256",
          "name": "origenalVoteValue",
          "type": "uint256"
        }
      ],
      "name": "RevokeVote",
      "type": "event"
    },
    {
      "anonymous": false,
      "inputs": [
        {
          "indexed": false,
          "internalType": "address",
          "name": "daoAddr",
          "type": "address"
        },
        {
          "indexed": false,
          "internalType": "bytes32",
          "name": "proposalId",
          "type": "bytes32"
        },
        {
          "indexed": false,
          "internalType": "uint256",
          "name": "votestartingTime",
          "type": "uint256"
        },
        {
          "indexed": false,
          "internalType": "uint256",
          "name": "voteblockNumber",
          "type": "uint256"
        }
      ],
      "name": "StartNewVotingForProposal",
      "type": "event"
    },
    {
      "anonymous": false,
      "inputs": [
        {
          "indexed": false,
          "internalType": "address",
          "name": "daoAddr",
          "type": "address"
        },
        {
          "indexed": false,
          "internalType": "bytes32",
          "name": "proposalId",
          "type": "bytes32"
        },
        {
          "indexed": false,
          "internalType": "uint256",
          "name": "votingTime",
          "type": "uint256"
        },
        {
          "indexed": false,
          "internalType": "uint256",
          "name": "voteStartTime",
          "type": "uint256"
        },
        {
          "indexed": false,
          "internalType": "uint256",
          "name": "voteStopTime",
          "type": "uint256"
        },
        {
          "indexed": false,
          "internalType": "address",
          "name": "voter",
          "type": "address"
        },
        {
          "indexed": false,
          "internalType": "uint256",
          "name": "voteValue",
          "type": "uint256"
        },
        {
          "indexed": false,
          "internalType": "uint256",
          "name": "nbYes",
          "type": "uint256"
        },
        {
          "indexed": false,
          "internalType": "uint256",
          "name": "nbNo",
          "type": "uint256"
        },
        {
          "indexed": false,
          "internalType": "uint256",
          "name": "currentQuorum",
          "type": "uint256"
        },
        {
          "indexed": false,
          "internalType": "uint256",
          "name": "currentSupport",
          "type": "uint256"
        }
      ],
      "name": "SubmitVote",
      "type": "event"
    },
    {
      "anonymous": false,
      "inputs": [
        {
          "indexed": false,
          "internalType": "bytes32",
          "name": "proposalId",
          "type": "bytes32"
        },
        {
          "indexed": false,
          "internalType": "uint256",
          "name": "blocktime",
          "type": "uint256"
        },
        {
          "indexed": false,
          "internalType": "address",
          "name": "voter",
          "type": "address"
        },
        {
          "indexed": false,
          "internalType": "uint128",
          "name": "oldVotingWeight",
          "type": "uint128"
        },
        {
          "indexed": false,
          "internalType": "uint128",
          "name": "newVotingWeight",
          "type": "uint128"
        },
        {
          "indexed": false,
          "internalType": "uint128",
          "name": "nbYes",
          "type": "uint128"
        },
        {
          "indexed": false,
          "internalType": "uint128",
          "name": "nbNo",
          "type": "uint128"
        }
      ],
      "name": "UpdateVoteWeight",
      "type": "event"
    },
    {
      "inputs": [],
      "name": "ADAPTER_NAME",
      "outputs": [
        {
          "internalType": "string",
          "name": "",
          "type": "string"
        }
      ],
      "stateMutability": "view",
      "type": "function"
    },
    {
      "inputs": [
        {
          "internalType": "contract DaoRegistry",
          "name": "dao",
          "type": "address"
        },
        {
          "internalType": "bytes32",
          "name": "proposalId",
          "type": "bytes32"
        },
        {
          "internalType": "address",
          "name": "voterAddr",
          "type": "address"
        }
      ],
      "name": "checkIfVoted",
      "outputs": [
        {
          "internalType": "bool",
          "name": "",
          "type": "bool"
        }
      ],
      "stateMutability": "view",
      "type": "function"
    },
    {
      "inputs": [
        {
          "internalType": "contract DaoRegistry",
          "name": "dao",
          "type": "address"
        },
        {
          "internalType": "uint256",
          "name": "votingPeriod",
          "type": "uint256"
        },
        {
          "internalType": "uint256",
          "name": "gracePeriod",
          "type": "uint256"
        }
      ],
      "name": "configureDao",
      "outputs": [],
      "stateMutability": "nonpayable",
      "type": "function"
    },
    {
      "inputs": [],
      "name": "getAdapterName",
      "outputs": [
        {
          "internalType": "string",
          "name": "",
          "type": "string"
        }
      ],
      "stateMutability": "pure",
      "type": "function"
    },
    {
      "inputs": [
        {
          "internalType": "contract DaoRegistry",
          "name": "dao",
          "type": "address"
        }
      ],
      "name": "getAllGovernorWeight",
      "outputs": [
        {
          "internalType": "uint128",
          "name": "",
          "type": "uint128"
        }
      ],
      "stateMutability": "view",
      "type": "function"
    },
    {
      "inputs": [
        {
          "internalType": "contract DaoRegistry",
          "name": "dao",
          "type": "address"
        },
        {
          "internalType": "bytes32",
          "name": "proposalId",
          "type": "bytes32"
        }
      ],
      "name": "getAllGovernorWeightByProposalId",
      "outputs": [
        {
          "internalType": "uint128",
          "name": "",
          "type": "uint128"
        }
      ],
      "stateMutability": "view",
      "type": "function"
    },
    {
      "inputs": [
        {
          "internalType": "contract DaoRegistry",
          "name": "dao",
          "type": "address"
        }
      ],
      "name": "getAllVintageGovernorVotingWeightByConfirmedDeposit",
      "outputs": [
        {
          "internalType": "uint128",
          "name": "",
          "type": "uint128"
        }
      ],
      "stateMutability": "view",
      "type": "function"
    },
    {
      "inputs": [
        {
          "internalType": "contract DaoRegistry",
          "name": "",
          "type": "address"
        },
        {
          "internalType": "address",
          "name": "",
          "type": "address"
        },
        {
          "internalType": "bytes",
          "name": "",
          "type": "bytes"
        },
        {
          "internalType": "address",
          "name": "sender",
          "type": "address"
        }
      ],
      "name": "getSenderAddress",
      "outputs": [
        {
          "internalType": "address",
          "name": "",
          "type": "address"
        }
      ],
      "stateMutability": "pure",
      "type": "function"
    },
    {
      "inputs": [
        {
          "internalType": "contract DaoRegistry",
          "name": "dao",
          "type": "address"
        },
        {
          "internalType": "address",
          "name": "account",
          "type": "address"
        }
      ],
      "name": "getVintageVotingWeightByConfirmedDeposit",
      "outputs": [
        {
          "internalType": "uint128",
          "name": "",
          "type": "uint128"
        }
      ],
      "stateMutability": "view",
      "type": "function"
    },
    {
      "inputs": [
        {
          "internalType": "contract DaoRegistry",
          "name": "dao",
          "type": "address"
        },
        {
          "internalType": "address",
          "name": "account",
          "type": "address"
        },
        {
          "internalType": "uint256",
          "name": "alloc",
          "type": "uint256"
        }
      ],
      "name": "getVintageVotingWeightToBeAllocated",
      "outputs": [
        {
          "internalType": "uint128",
          "name": "",
          "type": "uint128"
        }
      ],
      "stateMutability": "view",
      "type": "function"
    },
    {
      "inputs": [
        {
          "internalType": "contract DaoRegistry",
          "name": "dao",
          "type": "address"
        },
        {
          "internalType": "address",
          "name": "account",
          "type": "address"
        }
      ],
      "name": "getVotingWeight",
      "outputs": [
        {
          "internalType": "uint128",
          "name": "",
          "type": "uint128"
        }
      ],
      "stateMutability": "view",
      "type": "function"
    },
    {
      "inputs": [
        {
          "internalType": "contract DaoRegistry",
          "name": "dao",
          "type": "address"
        },
        {
          "internalType": "bytes32",
          "name": "proposalId",
          "type": "bytes32"
        },
        {
          "internalType": "uint256",
          "name": "projectVotingTimestamp",
          "type": "uint256"
        },
        {
          "internalType": "bytes",
          "name": "",
          "type": "bytes"
        }
      ],
      "name": "startNewVotingForProposal",
      "outputs": [],
      "stateMutability": "nonpayable",
      "type": "function"
    },
    {
      "inputs": [
        {
          "internalType": "contract DaoRegistry",
          "name": "dao",
          "type": "address"
        },
        {
          "internalType": "bytes32",
          "name": "proposalId",
          "type": "bytes32"
        },
        {
          "internalType": "uint256",
          "name": "voteValue",
          "type": "uint256"
        }
      ],
      "name": "submitVote",
      "outputs": [],
      "stateMutability": "nonpayable",
      "type": "function"
    },
    {
      "inputs": [
        {
          "internalType": "contract DaoRegistry",
          "name": "dao",
          "type": "address"
        },
        {
          "internalType": "bytes32",
          "name": "proposalId",
          "type": "bytes32"
        }
      ],
      "name": "voteResult",
      "outputs": [
        {
          "internalType": "enum IVintageVoting.VotingState",
          "name": "state",
          "type": "uint8"
        },
        {
          "internalType": "uint128",
          "name": "nbYes",
          "type": "uint128"
        },
        {
          "internalType": "uint128",
          "name": "nbNo",
          "type": "uint128"
        }
      ],
      "stateMutability": "view",
      "type": "function"
    },
    {
      "inputs": [
        {
          "internalType": "address",
          "name": "",
          "type": "address"
        },
        {
          "internalType": "bytes32",
          "name": "",
          "type": "bytes32"
        },
        {
          "internalType": "address",
          "name": "",
          "type": "address"
        }
      ],
      "name": "voteWeights",
      "outputs": [
        {
          "internalType": "uint128",
          "name": "",
          "type": "uint128"
        }
      ],
      "stateMutability": "view",
      "type": "function"
    },
    {
      "inputs": [
        {
          "internalType": "address",
          "name": "",
          "type": "address"
        },
        {
          "internalType": "bytes32",
          "name": "",
          "type": "bytes32"
        }
      ],
      "name": "votes",
      "outputs": [
        {
          "internalType": "uint128",
          "name": "nbYes",
          "type": "uint128"
        },
        {
          "internalType": "uint128",
          "name": "nbNo",
          "type": "uint128"
        },
        {
          "internalType": "uint256",
          "name": "startingTime",
          "type": "uint256"
        },
        {
          "internalType": "uint256",
          "name": "stopTime",
          "type": "uint256"
        },
        {
          "internalType": "uint256",
          "name": "voters",
          "type": "uint256"
        }
      ],
      "stateMutability": "view",
      "type": "function"
    }
  ],
  "bytecode": "0x608060405234801561001057600080fd5b50615056806100206000396000f3fe608060405234801561001057600080fd5b50600436106101005760003560e01c80637fa57aba11610097578063966917d011610066578063966917d014610316578063a60e68fe14610343578063f2b95da014610356578063f854f47d1461036957600080fd5b80637fa57aba1461027b5780637fd3cd8b1461028e57806387b9e959146102ca57806391d2fd53146102dd57600080fd5b8063325b72f2116100d3578063325b72f214610208578063565309101461021b578063669fd0ca1461024657806376225e731461025957600080fd5b80631db5ade8146101055780631f86f5b31461018e57806324a2cceb146101d057806326078cd0146101f3575b600080fd5b61015661011336600461497e565b6001602081815260009384526040808520909152918352912080549181015460028201546003909201546001600160801b0380851694600160801b900416929085565b604080516001600160801b039687168152959094166020860152928401919091526060830152608082015260a0015b60405180910390f35b60408051808201909152600e81527f566f74696e67436f6e747261637400000000000000000000000000000000000060208201525b6040516101859190614de4565b6101e36101de3660046149a9565b61037c565b6040519015158152602001610185565b610206610201366004614c98565b6103cb565b005b610206610216366004614c64565b6105c3565b61022e610229366004614b17565b610e78565b6040516001600160801b039091168152602001610185565b61022e610254366004614c52565b610e8d565b61026c610267366004614c52565b610ea2565b60405161018593929190614db2565b61022e610289366004614c12565b61157a565b6101c36040518060400160405280600e81526020017f566f74696e67436f6e747261637400000000000000000000000000000000000081525081565b61022e6102d8366004614b17565b611587565b61022e6102eb3660046149a9565b600060208181529381526040808220855292815282812090935282529020546001600160801b031681565b61032b610324366004614b4f565b9392505050565b6040516001600160a01b039091168152602001610185565b610206610351366004614c64565b611593565b61022e610364366004614afb565b61166d565b61022e610377366004614afb565b611679565b6001600160a01b03808416600090815260016020908152604080832086845282528083209385168352600484019091528120549091906103c0576000915050610324565b506001949350505050565b6040516368c18beb60e01b815233600482015285906001600160a01b038216906368c18beb9060240160206040518083038186803b15801561040c57600080fd5b505afa158015610420573d6000803e3d6000fd5b505050506040513d601f19601f820116820180604052508101906104449190614a9e565b80610453575061045381611684565b6104a45760405162461bcd60e51b815260206004820152600b60248201527f6f6e6c794164617074657200000000000000000000000000000000000000000060448201526064015b60405180910390fd5b6001600160a01b03861660008181526001602081815260408084208a8552909152918290209081018790559051634941d71d60e11b81527f9876c0f0505bfb2b1c38d3bbd25ba13159172cd0868972d76927723f5a9480fc6004820152909190639283ae3a9060240160206040518083038186803b15801561052557600080fd5b505afa158015610539573d6000803e3d6000fd5b505050506040513d601f19601f8201168201806040525081019061055d9190614ae3565b6105679042614e93565b6002820155604080516001600160a01b038916815260208101889052428183015243606082015290517f21af5d881aa8442475abc2be295d24c036524242db2bebe1b628b51ae5aba5289181900360800190a150505050505050565b826105ce813361188b565b8360006105da82611954565b6040517ff941f6910000000000000000000000000000000000000000000000000000000081529091506001600160a01b0387169063f941f69190610625908890600190600401614d8e565b60206040518083038186803b15801561063d57600080fd5b505afa158015610651573d6000803e3d6000fd5b505050506040513d601f19601f820116820180604052508101906106759190614a9e565b6106e75760405162461bcd60e51b815260206004820152602760248201527f7468652070726f706f73616c20686173206e6f74206265656e2073706f6e736f60448201527f7265642079657400000000000000000000000000000000000000000000000000606482015260840161049b565b6040517ff941f6910000000000000000000000000000000000000000000000000000000081526001600160a01b0387169063f941f6919061072f908890600290600401614d8e565b60206040518083038186803b15801561074757600080fd5b505afa15801561075b573d6000803e3d6000fd5b505050506040513d601f19601f8201168201806040525081019061077f9190614a9e565b156107f25760405162461bcd60e51b815260206004820152602760248201527f7468652070726f706f73616c2068617320616c7265616479206265656e20707260448201527f6f63657373656400000000000000000000000000000000000000000000000000606482015260840161049b565b6003841080156108025750600084115b6108745760405162461bcd60e51b815260206004820152602b60248201527f6f6e6c79207965732028312920616e64206e6f202832292061726520706f737360448201527f69626c652076616c756573000000000000000000000000000000000000000000606482015260840161049b565b6001600160a01b038616600090815260016020818152604080842089855290915290912090810154421180156108ae575060008160010154115b6109205760405162461bcd60e51b815260206004820152603860248201527f566f74696e673a3a7375626d6974566f74653a3a746869732070726f706f736160448201527f6c496420686173206e6f7420737461727420766f74696e670000000000000000606482015260840161049b565b806002015442106109735760405162461bcd60e51b815260206004820152600c60248201527f766f74696e6720656e6465640000000000000000000000000000000000000000604482015260640161049b565b336000908152600482016020526040902054156109d25760405162461bcd60e51b815260206004820152601860248201527f6d656d6265722068617320616c726561647920766f7465640000000000000000604482015260640161049b565b60006109de8833611c1f565b6001600160a01b0389166000908152602081815260408083208b84528252808320338452825280832080547fffffffffffffffffffffffffffffffff00000000000000000000000000000000166001600160801b038616179055600486019091528120889055600384018054929350600192909190610a5e908490614e93565b90915550506001861415610aba578154610a829082906001600160801b0316614e68565b82547fffffffffffffffffffffffffffffffff00000000000000000000000000000000166001600160801b0391909116178255610af9565b8560021415610af9578154610ae0908290600160801b90046001600160801b0316614e68565b82546001600160801b03918216600160801b0291161782555b604051634941d71d60e11b81527f8097540b5ab8a4c18e0b10cfbfd2c69e65e8da78f4f0485467006bafa393596460048201526000906001600160a01b038a1690639283ae3a9060240160206040518083038186803b158015610b5b57600080fd5b505afa158015610b6f573d6000803e3d6000fd5b505050506040513d601f19601f82011682018060405250810190610b939190614ae3565b600114610be957610ba4898961285e565b6001600160801b031615610bc157610bbc898961285e565b610bc4565b60015b8354610bda906001600160801b03166064614ee5565b610be49190614eab565b610c07565b8254610c07906001600160801b03600160801b820481169116614e68565b6001600160801b031690506000896001600160a01b0316639283ae3a7f561bc86bc227a0f760218574791a84f180f6f9f02be9519a1f99c14fce07a3106040518263ffffffff1660e01b8152600401610c6291815260200190565b60206040518083038186803b158015610c7a57600080fd5b505afa158015610c8e573d6000803e3d6000fd5b505050506040513d601f19601f82011682018060405250810190610cb29190614ae3565b600114610d30578354610cd7906001600160801b03600160801b820481169116614e68565b6001600160801b031615610d08578354610d03906001600160801b03600160801b820481169116614e68565b610d0b565b60015b8454610d21906001600160801b03166064614ee5565b610d2b9190614eab565b610d6b565b83546001600160801b03600160801b82048116911610610d68578354610d2b906001600160801b03600160801b820481169116614f51565b60005b6001600160801b031690507f702c2a29993fe1e5ce4c366928ffc1d53e245b20536bf8192399abb82b66c7108a8a4287600101548860020154338e8b60000160009054906101000a90046001600160801b03168c60000160109054906101000a90046001600160801b03168b8b604051610e5a9b9a999897969594939291906001600160a01b039b8c168152602081019a909a5260408a0198909852606089019690965260808801949094529190961660a086015260c08501959095526001600160801b0394851660e08501529093166101008301526101208201929092526101408101919091526101600190565b60405180910390a150505050610e708282612b8a565b505050505050565b6000610e848383612b95565b90505b92915050565b600080610e9a848461285e565b949350505050565b6001600160a01b0382166000908152600160208181526040808420858552909152822090810154829182914211610ef55754600093506001600160801b038082169350600160801b909104169050611573565b604051634941d71d60e11b81527f9876c0f0505bfb2b1c38d3bbd25ba13159172cd0868972d76927723f5a9480fc60048201526001600160a01b03871690639283ae3a9060240160206040518083038186803b158015610f5457600080fd5b505afa158015610f68573d6000803e3d6000fd5b505050506040513d601f19601f82011682018060405250810190610f8c9190614ae3565b8160010154610f9b9190614e93565b4211610fc35754600493506001600160801b038082169350600160801b909104169050611573565b604051634941d71d60e11b81527f561bc86bc227a0f760218574791a84f180f6f9f02be9519a1f99c14fce07a31060048201526000906001600160a01b03881690639283ae3a9060240160206040518083038186803b15801561102557600080fd5b505afa158015611039573d6000803e3d6000fd5b505050506040513d601f19601f8201168201806040525081019061105d9190614ae3565b604051634941d71d60e11b81527f8097540b5ab8a4c18e0b10cfbfd2c69e65e8da78f4f0485467006bafa393596460048201529091506000906001600160a01b03891690639283ae3a9060240160206040518083038186803b1580156110c257600080fd5b505afa1580156110d6573d6000803e3d6000fd5b505050506040513d601f19601f820116820180604052508101906110fa9190614ae3565b90506000611108898961285e565b845490915060009061112c906001600160801b03600160801b820481169116614e68565b6001600160801b031690508261122a57604051634941d71d60e11b81527f0324de13a5a6e302ddb95a9fdf81cc736fc8acee2abe558970daac27395904e760048201526000906064906001600160a01b038d1690639283ae3a9060240160206040518083038186803b1580156111a157600080fd5b505afa1580156111b5573d6000803e3d6000fd5b505050506040513d601f19601f820116820180604052508101906111d99190614ae3565b6111ec906001600160801b038616614f14565b6111f69190614ed1565b90508082116112285750509254600396506001600160801b038082169650600160801b90910416935061157392505050565b505b82600114156112f857604051634941d71d60e11b81527f0324de13a5a6e302ddb95a9fdf81cc736fc8acee2abe558970daac27395904e760048201526001600160a01b038b1690639283ae3a9060240160206040518083038186803b15801561129257600080fd5b505afa1580156112a6573d6000803e3d6000fd5b505050506040513d601f19601f820116820180604052508101906112ca9190614ae3565b81116112f85750509154600395506001600160801b038082169550600160801b909104169250611573915050565b8361143057604051634941d71d60e11b81527fb4c601c38beae7eebb719eda3438f59fcbfd4c6dd7d38c00665b6fd5b432df3260048201526000906064906001600160a01b038d1690639283ae3a9060240160206040518083038186803b15801561136257600080fd5b505afa158015611376573d6000803e3d6000fd5b505050506040513d601f19601f8201168201806040525081019061139a9190614ae3565b6113a49084614f14565b6113ae9190614ed1565b9050801580156113c6575085546001600160801b0316155b156113f45750509254600196506001600160801b038082169650600160801b90910416935061157392505050565b85546001600160801b0316811061142e5750509254600396506001600160801b038082169650600160801b90910416935061157392505050565b505b83600114156115505784546000906001600160801b03600160801b820481169116101561145e57600061147c565b855461147c906001600160801b03600160801b820481169116614f51565b604051634941d71d60e11b81527fb4c601c38beae7eebb719eda3438f59fcbfd4c6dd7d38c00665b6fd5b432df3260048201529091506001600160a01b038c1690639283ae3a9060240160206040518083038186803b1580156114de57600080fd5b505afa1580156114f2573d6000803e3d6000fd5b505050506040513d601f19601f820116820180604052508101906115169190614ae3565b816001600160801b03161161154e5750509254600396506001600160801b038082169650600160801b90910416935061157392505050565b505b50509154600295506001600160801b038082169550600160801b90910416925050505b9250925092565b6000610e9a848484613ac7565b6000610e848383611c1f565b6040516368c18beb60e01b815233600482015283906001600160a01b038216906368c18beb9060240160206040518083038186803b1580156115d457600080fd5b505afa1580156115e8573d6000803e3d6000fd5b505050506040513d601f19601f8201168201806040525081019061160c9190614a9e565b8061161b575061161b81611684565b6116675760405162461bcd60e51b815260206004820152600b60248201527f6f6e6c7941646170746572000000000000000000000000000000000000000000604482015260640161049b565b50505050565b60008061032483614550565b6000610e8782614627565b600080826001600160a01b031663c19d93fb6040518163ffffffff1660e01b815260040160206040518083038186803b1580156116c057600080fd5b505afa1580156116d4573d6000803e3d6000fd5b505050506040513d601f19601f820116820180604052508101906116f89190614d29565b600181111561171757634e487b7160e01b600052602160045260246000fd5b148015610e875750816001600160a01b031663c67143666040518163ffffffff1660e01b815260040160206040518083038186803b15801561175857600080fd5b505afa15801561176c573d6000803e3d6000fd5b505050506040513d601f19601f820116820180604052508101906117909190614ae3565b158061180e575060405163288c314960e21b81523360048201526001600160a01b0383169063a230c5249060240160206040518083038186803b1580156117d657600080fd5b505afa1580156117ea573d6000803e3d6000fd5b505050506040513d601f19601f8201168201806040525081019061180e9190614a9e565b80610e8757506040516368c18beb60e01b81523360048201526001600160a01b038316906368c18beb9060240160206040518083038186803b15801561185357600080fd5b505afa158015611867573d6000803e3d6000fd5b505050506040513d601f19601f82011682018060405250810190610e879190614a9e565b60405163288c314960e21b81526001600160a01b03828116600483015283169063a230c5249060240160206040518083038186803b1580156118cc57600080fd5b505afa1580156118e0573d6000803e3d6000fd5b505050506040513d601f19601f820116820180604052508101906119049190614a9e565b6119505760405162461bcd60e51b815260206004820152600c60248201527f6f6e6c79476f7665726e6f720000000000000000000000000000000000000000604482015260640161049b565b5050565b6040805160808101825260008082526020820181905291810182905260608101919091525a81600001818152505043826001600160a01b031663b21634826040518163ffffffff1660e01b815260040160206040518083038186803b1580156119bc57600080fd5b505afa1580156119d0573d6000803e3d6000fd5b505050506040513d601f19601f820116820180604052508101906119f49190614ae3565b1415611a425760405162461bcd60e51b815260206004820152601060248201527f7265656e7472616e637920677561726400000000000000000000000000000000604482015260640161049b565b816001600160a01b03166310fdb0a26040518163ffffffff1660e01b8152600401600060405180830381600087803b158015611a7d57600080fd5b505af1158015611a91573d6000803e3d6000fd5b50506040517f72c6838f0000000000000000000000000000000000000000000000000000000081527f1f2fd42ad6a6cacd573c4b212beb7a4e2499ad45d742a65337097f130e71daff6004820152600092506001600160a01b03851691506372c6838f9060240160206040518083038186803b158015611b1057600080fd5b505afa158015611b24573d6000803e3d6000fd5b505050506040513d601f19601f82011682018060405250810190611b489190614962565b90506001600160a01b038116611b645760006020830152611c19565b6001600160a01b038181166060840181905283516040517f43a8a3f1000000000000000000000000000000000000000000000000000000008152928616600484015260248301526000918291906343a8a3f190604401604080518083038186803b158015611bd157600080fd5b505afa158015611be5573d6000803e3d6000fd5b505050506040513d601f19601f82011682018060405250810190611c099190614ab8565b9015156020860152604085015250505b50919050565b6040516317ba7d8560e01b81527faaff643bdbd909f604d46ce015336f7e20fee3ac4a55cef3610188dee176c892600482015260009081906001600160a01b038516906317ba7d859060240160206040518083038186803b158015611c8357600080fd5b505afa158015611c97573d6000803e3d6000fd5b505050506040513d601f19601f82011682018060405250810190611cbb9190614962565b6040516317ba7d8560e01b81527f1fa6846b165d822fff79e37c67625706652fa9380c2aa49fd513ce534cc72ed460048201529091506000906001600160a01b038616906317ba7d859060240160206040518083038186803b158015611d2057600080fd5b505afa158015611d34573d6000803e3d6000fd5b505050506040513d601f19601f82011682018060405250810190611d589190614962565b604051634941d71d60e11b81527f686efe7bd1699b408d306db6bbee658ed667971c52d48d6912d7ee496e36e62760048201529091506000906001600160a01b03871690639283ae3a9060240160206040518083038186803b158015611dbd57600080fd5b505afa158015611dd1573d6000803e3d6000fd5b505050506040513d601f19601f82011682018060405250810190611df59190614ae3565b604051634941d71d60e11b81527fb75eae231d9582c6afc6491273df4a0ffbccd48ab2c48dbce59e5d68f2d19dc460048201529091506000906001600160a01b03881690639283ae3a9060240160206040518083038186803b158015611e5a57600080fd5b505afa158015611e6e573d6000803e3d6000fd5b505050506040513d601f19601f82011682018060405250810190611e929190614ae3565b604051634941d71d60e11b81527e634460a4b60c2e1bf8c87bfc42b6b68fd2a71f4bb2d760816eabc5038b503660048201529091506000906001600160a01b03891690639283ae3a9060240160206040518083038186803b158015611ef657600080fd5b505afa158015611f0a573d6000803e3d6000fd5b505050506040513d601f19601f82011682018060405250810190611f2e9190614ae3565b60405163fd310d2960e01b81527fcd9b30ab6388c165d825b60b7d393528191ba59d975b4b1b52b7184b63b8a97c60048201529091506000906001600160a01b038a169063fd310d299060240160206040518083038186803b158015611f9357600080fd5b505afa158015611fa7573d6000803e3d6000fd5b505050506040513d601f19601f82011682018060405250810190611fcb9190614962565b9050826001141561234857600084612073576040516370a0823160e01b81526001600160a01b038a81166004830152670de0b6b3a764000091908416906370a08231906024015b60206040518083038186803b15801561202a57600080fd5b505afa15801561203e573d6000803e3d6000fd5b505050506040513d601f19601f820116820180604052508101906120629190614ae3565b61206c9190614ed1565b90506122dc565b84600114156120f6576040516370a0823160e01b81526001600160a01b038a811660048301528316906370a08231906024015b60206040518083038186803b1580156120be57600080fd5b505afa1580156120d2573d6000803e3d6000fd5b505050506040513d601f19601f8201168201806040525081019061206c9190614ae3565b846002141561213257604051627eeac760e11b81526001600160a01b038a811660048301526024820185905283169062fdd58e906044016120a6565b8460031415612171576040516329b6517360e21b81526001600160a01b038b811660048301528a8116602483015287169063a6d945cc906044016120a6565b84600414156122cc576040516303455daf60e51b81526001600160a01b038b81166004830152600091908916906368abb5e09060240160206040518083038186803b1580156121bf57600080fd5b505afa1580156121d3573d6000803e3d6000fd5b505050506040513d601f19601f820116820180604052508101906121f79190614ae3565b111561223e57604051633de222bb60e21b81526001600160a01b038b811660048301528a81166024830152670de0b6b3a7640000919089169063f7888aec90604401612012565b60405163288c314960e21b81526001600160a01b038a811660048301528b169063a230c5249060240160206040518083038186803b15801561227f57600080fd5b505afa158015612293573d6000803e3d6000fd5b505050506040513d601f19601f820116820180604052508101906122b79190614a9e565b156122cc576001975050505050505050610e87565b6000975050505050505050610e87565b600081116122f4576000975050505050505050610e87565b677fffffffffffffff8110612313576032975050505050505050610e87565b600061232e61232961232484614703565b614721565b614818565b67ffffffffffffffff169850610e87975050505050505050565b82600214156125e2576000846123ef576040516370a0823160e01b81526001600160a01b038a81166004830152600091908416906370a08231906024015b60206040518083038186803b15801561239e57600080fd5b505afa1580156123b2573d6000803e3d6000fd5b505050506040513d601f19601f820116820180604052508101906123d69190614ae3565b116123e25760006123e5565b60015b60ff1690506125d4565b846001141561242a576040516370a0823160e01b81526001600160a01b038a81166004830152600091908416906370a0823190602401612386565b846002141561246a57604051627eeac760e11b81526001600160a01b038a81166004830152602482018590526000919084169062fdd58e90604401612386565b84600314156124ad576040516329b6517360e21b81526001600160a01b038b811660048301528a811660248301526000919088169063a6d945cc90604401612386565b84600414156122cc576040516303455daf60e51b81526001600160a01b038b81166004830152600091908916906368abb5e09060240160206040518083038186803b1580156124fb57600080fd5b505afa15801561250f573d6000803e3d6000fd5b505050506040513d601f19601f820116820180604052508101906125339190614ae3565b111561223e57604051633de222bb60e21b81526001600160a01b038b811660048301528a811660248301526000919089169063f7888aec9060440160206040518083038186803b15801561258657600080fd5b505afa15801561259a573d6000803e3d6000fd5b505050506040513d601f19601f820116820180604052508101906125be9190614ae3565b11156122cc576001975050505050505050610e87565b9650610e8795505050505050565b8261284f57600084612684576040516370a0823160e01b81526001600160a01b038a81166004830152670de0b6b3a764000091908416906370a08231906024015b60206040518083038186803b15801561263b57600080fd5b505afa15801561264f573d6000803e3d6000fd5b505050506040513d601f19601f820116820180604052508101906126739190614ae3565b61267d9190614ed1565b90506125d4565b8460011415612707576040516370a0823160e01b81526001600160a01b038a811660048301528316906370a08231906024015b60206040518083038186803b1580156126cf57600080fd5b505afa1580156126e3573d6000803e3d6000fd5b505050506040513d601f19601f8201168201806040525081019061267d9190614ae3565b846002141561274357604051627eeac760e11b81526001600160a01b038a811660048301526024820185905283169062fdd58e906044016126b7565b8460031415612782576040516329b6517360e21b81526001600160a01b038b811660048301528a8116602483015287169063a6d945cc906044016126b7565b84600414156122cc576040516303455daf60e51b81526001600160a01b038b81166004830152600091908916906368abb5e09060240160206040518083038186803b1580156127d057600080fd5b505afa1580156127e4573d6000803e3d6000fd5b505050506040513d601f19601f820116820180604052508101906128089190614ae3565b111561223e57604051633de222bb60e21b81526001600160a01b038b811660048301528a81166024830152670de0b6b3a7640000919089169063f7888aec90604401612623565b60009650505050505050610e87565b600080836001600160a01b031663a6f636416040518163ffffffff1660e01b815260040160006040518083038186803b15801561289a57600080fd5b505afa1580156128ae573d6000803e3d6000fd5b505050506040513d6000823e601f3d908101601f191682016040526128d691908101906149ea565b6040516317ba7d8560e01b81527fd3999c37f8f35da86f802a74f9bf032c4aeb46e49abd9c861f489ef4cb40d0a8600482015290915060009081906001600160a01b038716906317ba7d859060240160206040518083038186803b15801561293d57600080fd5b505afa158015612951573d6000803e3d6000fd5b505050506040513d601f19601f820116820180604052508101906129759190614962565b905060005b83518160ff161015612b7f57816001600160a01b03166324a2cceb8888878560ff16815181106129ba57634e487b7160e01b600052603260045260246000fd5b60200260200101516040518463ffffffff1660e01b81526004016129fe939291906001600160a01b0393841681526020810192909252909116604082015260600190565b60206040518083038186803b158015612a1657600080fd5b505afa158015612a2a573d6000803e3d6000fd5b505050506040513d601f19601f82011682018060405250810190612a4e9190614a9e565b15612b2c57816001600160a01b03166391d2fd538888878560ff1681518110612a8757634e487b7160e01b600052603260045260246000fd5b60200260200101516040518463ffffffff1660e01b8152600401612acb939291906001600160a01b0393841681526020810192909252909116604082015260600190565b60206040518083038186803b158015612ae357600080fd5b505afa158015612af7573d6000803e3d6000fd5b505050506040513d601f19601f82011682018060405250810190612b1b9190614d67565b612b259084614e68565b9250612b6d565b612b6087858360ff1681518110612b5357634e487b7160e01b600052603260045260246000fd5b6020026020010151611c1f565b612b6a9084614e68565b92505b80612b7781614f90565b91505061297a565b509095945050505050565b611950828233614834565b6040516317ba7d8560e01b81527faaff643bdbd909f604d46ce015336f7e20fee3ac4a55cef3610188dee176c892600482015260009081906001600160a01b038516906317ba7d859060240160206040518083038186803b158015612bf957600080fd5b505afa158015612c0d573d6000803e3d6000fd5b505050506040513d601f19601f82011682018060405250810190612c319190614962565b6040516317ba7d8560e01b81527f1fa6846b165d822fff79e37c67625706652fa9380c2aa49fd513ce534cc72ed460048201529091506000906001600160a01b038616906317ba7d859060240160206040518083038186803b158015612c9657600080fd5b505afa158015612caa573d6000803e3d6000fd5b505050506040513d601f19601f82011682018060405250810190612cce9190614962565b604051634941d71d60e11b81527f686efe7bd1699b408d306db6bbee658ed667971c52d48d6912d7ee496e36e62760048201529091506000906001600160a01b03871690639283ae3a9060240160206040518083038186803b158015612d3357600080fd5b505afa158015612d47573d6000803e3d6000fd5b505050506040513d601f19601f82011682018060405250810190612d6b9190614ae3565b604051634941d71d60e11b81527fb75eae231d9582c6afc6491273df4a0ffbccd48ab2c48dbce59e5d68f2d19dc460048201529091506000906001600160a01b03881690639283ae3a9060240160206040518083038186803b158015612dd057600080fd5b505afa158015612de4573d6000803e3d6000fd5b505050506040513d601f19601f82011682018060405250810190612e089190614ae3565b604051634941d71d60e11b81527e634460a4b60c2e1bf8c87bfc42b6b68fd2a71f4bb2d760816eabc5038b503660048201529091506000906001600160a01b03891690639283ae3a9060240160206040518083038186803b158015612e6c57600080fd5b505afa158015612e80573d6000803e3d6000fd5b505050506040513d601f19601f82011682018060405250810190612ea49190614ae3565b60405163fd310d2960e01b81527fcd9b30ab6388c165d825b60b7d393528191ba59d975b4b1b52b7184b63b8a97c60048201529091506000906001600160a01b038a169063fd310d299060240160206040518083038186803b158015612f0957600080fd5b505afa158015612f1d573d6000803e3d6000fd5b505050506040513d601f19601f82011682018060405250810190612f419190614962565b604051633de222bb60e21b81526001600160a01b038b811660048301528a8116602483015291925060009182919089169063f7888aec9060440160206040518083038186803b158015612f9357600080fd5b505afa158015612fa7573d6000803e3d6000fd5b505050506040513d601f19601f82011682018060405250810190612fcb9190614ae3565b6040516317ba7d8560e01b81527fa837e34a29b67bf52f684a1c93def79b84b9c012732becee4e5df62809df64ed60048201529091506000906001600160a01b038d16906317ba7d859060240160206040518083038186803b15801561303057600080fd5b505afa158015613044573d6000803e3d6000fd5b505050506040513d601f19601f820116820180604052508101906130689190614962565b6040517f01c22a3d0000000000000000000000000000000000000000000000000000000081526001600160a01b038e8116600483015291909116906301c22a3d9060240160206040518083038186803b1580156130c457600080fd5b505afa1580156130d8573d6000803e3d6000fd5b505050506040513d601f19601f820116820180604052508101906130fc9190614ae3565b905060026040516317ba7d8560e01b81527fa837e34a29b67bf52f684a1c93def79b84b9c012732becee4e5df62809df64ed60048201526001600160a01b038e16906317ba7d859060240160206040518083038186803b15801561315f57600080fd5b505afa158015613173573d6000803e3d6000fd5b505050506040513d601f19601f820116820180604052508101906131979190614962565b6040517f57670a190000000000000000000000000000000000000000000000000000000081526001600160a01b038f811660048301526024820185905291909116906357670a199060440160206040518083038186803b1580156131fa57600080fd5b505afa15801561320e573d6000803e3d6000fd5b505050506040513d601f19601f820116820180604052508101906132329190614d48565b600481111561325157634e487b7160e01b600052602160045260246000fd5b1415613309576040517f51ab67970000000000000000000000000000000000000000000000000000000081526001600160a01b038d81166004830152602482018390528c811660448301528a16906351ab67979060640160206040518083038186803b1580156132c057600080fd5b505afa1580156132d4573d6000803e3d6000fd5b505050506040513d601f19601f820116820180604052508101906132f89190614ae3565b6133029083614f79565b925061330d565b8192505b856001141561365d576000876133b2576040516370a0823160e01b81526001600160a01b038d81166004830152670de0b6b3a764000091908716906370a082319060240160206040518083038186803b15801561336957600080fd5b505afa15801561337d573d6000803e3d6000fd5b505050506040513d601f19601f820116820180604052508101906133a19190614ae3565b6133ab9190614ed1565b90506135f2565b8760011415613435576040516370a0823160e01b81526001600160a01b038d811660048301528616906370a08231906024015b60206040518083038186803b1580156133fd57600080fd5b505afa158015613411573d6000803e3d6000fd5b505050506040513d601f19601f820116820180604052508101906133ab9190614ae3565b876002141561347157604051627eeac760e11b81526001600160a01b038d811660048301526024820188905286169062fdd58e906044016133e5565b87600314156134b0576040516329b6517360e21b81526001600160a01b038e811660048301528d811660248301528a169063a6d945cc906044016133e5565b87600414156135df576040516303455daf60e51b81526001600160a01b038e81166004830152600091908c16906368abb5e09060240160206040518083038186803b1580156134fe57600080fd5b505afa158015613512573d6000803e3d6000fd5b505050506040513d601f19601f820116820180604052508101906135369190614ae3565b111561354e576133ab670de0b6b3a764000085614ed1565b60405163288c314960e21b81526001600160a01b038d811660048301528e169063a230c5249060240160206040518083038186803b15801561358f57600080fd5b505afa1580156135a3573d6000803e3d6000fd5b505050506040513d601f19601f820116820180604052508101906135c79190614a9e565b156135df5760019a5050505050505050505050610e87565b60009a5050505050505050505050610e87565b6000811161360d5760009a5050505050505050505050610e87565b677fffffffffffffff811061362f5760329a5050505050505050505050610e87565b600061364061232961232484614703565b67ffffffffffffffff169b50610e879a5050505050505050505050565b856002141561387857600087613704576040516370a0823160e01b81526001600160a01b038d81166004830152600091908716906370a08231906024015b60206040518083038186803b1580156136b357600080fd5b505afa1580156136c7573d6000803e3d6000fd5b505050506040513d601f19601f820116820180604052508101906136eb9190614ae3565b116136f75760006136fa565b60015b60ff169050613867565b876001141561373f576040516370a0823160e01b81526001600160a01b038d81166004830152600091908716906370a082319060240161369b565b876002141561377f57604051627eeac760e11b81526001600160a01b038d81166004830152602482018890526000919087169062fdd58e9060440161369b565b87600314156137c2576040516329b6517360e21b81526001600160a01b038e811660048301528d81166024830152600091908b169063a6d945cc9060440161369b565b87600414156135df576040516303455daf60e51b81526001600160a01b038e81166004830152600091908c16906368abb5e09060240160206040518083038186803b15801561381057600080fd5b505afa158015613824573d6000803e3d6000fd5b505050506040513d601f19601f820116820180604052508101906138489190614ae3565b111561354e5783156135df5760019a5050505050505050505050610e87565b9950610e8798505050505050505050565b85613ab557600087613919576040516370a0823160e01b81526001600160a01b038d81166004830152670de0b6b3a764000091908716906370a082319060240160206040518083038186803b1580156138d057600080fd5b505afa1580156138e4573d6000803e3d6000fd5b505050506040513d601f19601f820116820180604052508101906139089190614ae3565b6139129190614ed1565b9050613867565b876001141561399c576040516370a0823160e01b81526001600160a01b038d811660048301528616906370a08231906024015b60206040518083038186803b15801561396457600080fd5b505afa158015613978573d6000803e3d6000fd5b505050506040513d601f19601f820116820180604052508101906139129190614ae3565b87600214156139d857604051627eeac760e11b81526001600160a01b038d811660048301526024820188905286169062fdd58e9060440161394c565b8760031415613a17576040516329b6517360e21b81526001600160a01b038e811660048301528d811660248301528a169063a6d945cc9060440161394c565b87600414156135df576040516303455daf60e51b81526001600160a01b038e81166004830152600091908c16906368abb5e09060240160206040518083038186803b158015613a6557600080fd5b505afa158015613a79573d6000803e3d6000fd5b505050506040513d601f19601f82011682018060405250810190613a9d9190614ae3565b111561354e57613912670de0b6b3a764000085614ed1565b60009950505050505050505050610e87565b6040516317ba7d8560e01b81527faaff643bdbd909f604d46ce015336f7e20fee3ac4a55cef3610188dee176c892600482015260009081906001600160a01b038616906317ba7d859060240160206040518083038186803b158015613b2b57600080fd5b505afa158015613b3f573d6000803e3d6000fd5b505050506040513d601f19601f82011682018060405250810190613b639190614962565b604051634941d71d60e11b81527f686efe7bd1699b408d306db6bbee658ed667971c52d48d6912d7ee496e36e62760048201529091506000906001600160a01b03871690639283ae3a9060240160206040518083038186803b158015613bc857600080fd5b505afa158015613bdc573d6000803e3d6000fd5b505050506040513d601f19601f82011682018060405250810190613c009190614ae3565b604051634941d71d60e11b81527fb75eae231d9582c6afc6491273df4a0ffbccd48ab2c48dbce59e5d68f2d19dc460048201529091506000906001600160a01b03881690639283ae3a9060240160206040518083038186803b158015613c6557600080fd5b505afa158015613c79573d6000803e3d6000fd5b505050506040513d601f19601f82011682018060405250810190613c9d9190614ae3565b604051634941d71d60e11b81527e634460a4b60c2e1bf8c87bfc42b6b68fd2a71f4bb2d760816eabc5038b503660048201529091506000906001600160a01b03891690639283ae3a9060240160206040518083038186803b158015613d0157600080fd5b505afa158015613d15573d6000803e3d6000fd5b505050506040513d601f19601f82011682018060405250810190613d399190614ae3565b60405163fd310d2960e01b81527fcd9b30ab6388c165d825b60b7d393528191ba59d975b4b1b52b7184b63b8a97c60048201529091506000906001600160a01b038a169063fd310d299060240160206040518083038186803b158015613d9e57600080fd5b505afa158015613db2573d6000803e3d6000fd5b505050506040513d601f19601f82011682018060405250810190613dd69190614962565b9050826001141561409757600084613e7e576040516370a0823160e01b81526001600160a01b038a81166004830152670de0b6b3a764000091908416906370a08231906024015b60206040518083038186803b158015613e3557600080fd5b505afa158015613e49573d6000803e3d6000fd5b505050506040513d601f19601f82011682018060405250810190613e6d9190614ae3565b613e779190614ed1565b9050614038565b8460011415613f01576040516370a0823160e01b81526001600160a01b038a811660048301528316906370a08231906024015b60206040518083038186803b158015613ec957600080fd5b505afa158015613edd573d6000803e3d6000fd5b505050506040513d601f19601f82011682018060405250810190613e779190614ae3565b8460021415613f3d57604051627eeac760e11b81526001600160a01b038a811660048301526024820185905283169062fdd58e90604401613eb1565b8460031415613f4d575086614038565b8460041415614029576040516303455daf60e51b81526001600160a01b038b81166004830152600091908816906368abb5e09060240160206040518083038186803b158015613f9b57600080fd5b505afa158015613faf573d6000803e3d6000fd5b505050506040513d601f19601f82011682018060405250810190613fd39190614ae3565b111561401a57604051633de222bb60e21b81526001600160a01b038b811660048301528a81166024830152670de0b6b3a7640000919088169063f7888aec90604401613e1d565b60019650505050505050610324565b60009650505050505050610324565b6000811161404f5760009650505050505050610324565b677fffffffffffffff811061406d5760329650505050505050610324565b600061407e61232961232484614703565b67ffffffffffffffff1697506103249650505050505050565b82600214156143045760008461413e576040516370a0823160e01b81526001600160a01b038a81166004830152600091908416906370a08231906024015b60206040518083038186803b1580156140ed57600080fd5b505afa158015614101573d6000803e3d6000fd5b505050506040513d601f19601f820116820180604052508101906141259190614ae3565b11614131576000614134565b60015b60ff1690506142f7565b8460011415614179576040516370a0823160e01b81526001600160a01b038a81166004830152600091908416906370a08231906024016140d5565b84600214156141b957604051627eeac760e11b81526001600160a01b038a81166004830152602482018590526000919084169062fdd58e906044016140d5565b84600314156141d15760008811614131576000614134565b8460041415614029576040516303455daf60e51b81526001600160a01b038b81166004830152600091908816906368abb5e09060240160206040518083038186803b15801561421f57600080fd5b505afa158015614233573d6000803e3d6000fd5b505050506040513d601f19601f820116820180604052508101906142579190614ae3565b111561401a57604051633de222bb60e21b81526001600160a01b038b811660048301528a811660248301526000919088169063f7888aec9060440160206040518083038186803b1580156142aa57600080fd5b505afa1580156142be573d6000803e3d6000fd5b505050506040513d601f19601f820116820180604052508101906142e29190614ae3565b11156140295760019650505050505050610324565b9550610324945050505050565b82614542576000846143a6576040516370a0823160e01b81526001600160a01b038a81166004830152670de0b6b3a764000091908416906370a08231906024015b60206040518083038186803b15801561435d57600080fd5b505afa158015614371573d6000803e3d6000fd5b505050506040513d601f19601f820116820180604052508101906143959190614ae3565b61439f9190614ed1565b90506142f7565b8460011415614429576040516370a0823160e01b81526001600160a01b038a811660048301528316906370a08231906024015b60206040518083038186803b1580156143f157600080fd5b505afa158015614405573d6000803e3d6000fd5b505050506040513d601f19601f8201168201806040525081019061439f9190614ae3565b846002141561446557604051627eeac760e11b81526001600160a01b038a811660048301526024820185905283169062fdd58e906044016143d9565b84600314156144755750866142f7565b8460041415614029576040516303455daf60e51b81526001600160a01b038b81166004830152600091908816906368abb5e09060240160206040518083038186803b1580156144c357600080fd5b505afa1580156144d7573d6000803e3d6000fd5b505050506040513d601f19601f820116820180604052508101906144fb9190614ae3565b111561401a57604051633de222bb60e21b81526001600160a01b038b811660048301528a81166024830152670de0b6b3a7640000919088169063f7888aec90604401614345565b600095505050505050610324565b600080826001600160a01b031663a6f636416040518163ffffffff1660e01b815260040160006040518083038186803b15801561458c57600080fd5b505afa1580156145a0573d6000803e3d6000fd5b505050506040513d6000823e601f3d908101601f191682016040526145c891908101906149ea565b90506000805b82518160ff16101561461f5761460185848360ff1681518110612b5357634e487b7160e01b600052603260045260246000fd5b61460b9083614e68565b91508061461781614f90565b9150506145ce565b509392505050565b600080826001600160a01b031663a6f636416040518163ffffffff1660e01b815260040160006040518083038186803b15801561466357600080fd5b505afa158015614677573d6000803e3d6000fd5b505050506040513d6000823e601f3d908101601f1916820160405261469f91908101906149ea565b90506000805b82518160ff16101561461f576146e585848360ff16815181106146d857634e487b7160e01b600052603260045260246000fd5b6020026020010151612b95565b6146ef9083614e68565b9150806146fb81614f90565b9150506146a5565b6000677fffffffffffffff82111561471a57600080fd5b5060401b90565b60008082600f0b1361473257600080fd5b6000600f83900b680100000000000000008112614751576040918201911d5b6401000000008112614765576020918201911d5b620100008112614777576010918201911d5b6101008112614788576008918201911d5b60108112614798576004918201911d5b600481126147a8576002918201911d5b600281126147b7576001820191505b7fffffffffffffffffffffffffffffffffffffffffffffffffffffffffffffffc0820160401b600f85900b607f8490031b6780000000000000005b6000811315612b7f5790800260ff81901c8281029390930192607f011c9060011d6147f2565b60008082600f0b121561482a57600080fd5b50600f0b60401d90565b8160200151156148ea5781606001516001600160a01b0316635e5eb01384835a86516148609190614f79565b60408088015190517fffffffff0000000000000000000000000000000000000000000000000000000060e087901b1681526001600160a01b03948516600482015293909216602484015260448301526064820152608401600060405180830381600087803b1580156148d157600080fd5b505af11580156148e5573d6000803e3d6000fd5b505050505b826001600160a01b031663d4f7af436040518163ffffffff1660e01b8152600401600060405180830381600087803b15801561492557600080fd5b505af1158015614939573d6000803e3d6000fd5b50505050505050565b803561494d81615008565b919050565b8051801515811461494d57600080fd5b600060208284031215614973578081fd5b815161032481615008565b60008060408385031215614990578081fd5b823561499b81615008565b946020939093013593505050565b6000806000606084860312156149bd578081fd5b83356149c881615008565b92506020840135915060408401356149df81615008565b809150509250925092565b600060208083850312156149fc578182fd5b825167ffffffffffffffff80821115614a13578384fd5b818501915085601f830112614a26578384fd5b815181811115614a3857614a38614ff2565b8060051b9150614a49848301614e37565b8181528481019084860184860187018a1015614a63578788fd5b8795505b83861015614a915780519450614a7c85615008565b84835260019590950194918601918601614a67565b5098975050505050505050565b600060208284031215614aaf578081fd5b610e8482614952565b60008060408385031215614aca578182fd5b614ad383614952565b9150602083015190509250929050565b600060208284031215614af4578081fd5b5051919050565b600060208284031215614b0c578081fd5b813561032481615008565b60008060408385031215614b29578182fd5b8235614b3481615008565b91506020830135614b4481615008565b809150509250929050565b60008060008060808587031215614b64578081fd5b8435614b6f81615008565b9350602085810135614b8081615008565b9350604086013567ffffffffffffffff80821115614b9c578384fd5b818801915088601f830112614baf578384fd5b813581811115614bc157614bc1614ff2565b614bd384601f19601f84011601614e37565b91508082528984828501011115614be8578485fd5b80848401858401378101909201839052509150614c0760608601614942565b905092959194509250565b600080600060608486031215614c26578081fd5b8335614c3181615008565b92506020840135614c4181615008565b929592945050506040919091013590565b60008060408385031215614990578182fd5b600080600060608486031215614c78578081fd5b8335614c8381615008565b95602085013595506040909401359392505050565b600080600080600060808688031215614caf578283fd5b8535614cba81615008565b94506020860135935060408601359250606086013567ffffffffffffffff80821115614ce4578283fd5b818801915088601f830112614cf7578283fd5b813581811115614d05578384fd5b896020828501011115614d16578384fd5b9699959850939650602001949392505050565b600060208284031215614d3a578081fd5b815160028110610324578182fd5b600060208284031215614d59578081fd5b815160058110610324578182fd5b600060208284031215614d78578081fd5b81516001600160801b0381168114610324578182fd5b8281526040810160038310614da557614da5614fdc565b8260208301529392505050565b6060810160068510614dc657614dc6614fdc565b9381526001600160801b039283166020820152911660409091015290565b6000602080835283518082850152825b81811015614e1057858101830151858201604001528201614df4565b81811115614e215783604083870101525b50601f01601f1916929092016040019392505050565b604051601f8201601f1916810167ffffffffffffffff81118282101715614e6057614e60614ff2565b604052919050565b60006001600160801b03808316818516808303821115614e8a57614e8a614fb0565b01949350505050565b60008219821115614ea657614ea6614fb0565b500190565b60006001600160801b0380841680614ec557614ec5614fc6565b92169190910492915050565b600082614ee057614ee0614fc6565b500490565b60006001600160801b0380831681851681830481118215151615614f0b57614f0b614fb0565b02949350505050565b6000817fffffffffffffffffffffffffffffffffffffffffffffffffffffffffffffffff0483118215151615614f4c57614f4c614fb0565b500290565b60006001600160801b0383811690831681811015614f7157614f71614fb0565b039392505050565b600082821015614f8b57614f8b614fb0565b500390565b600060ff821660ff811415614fa757614fa7614fb0565b60010192915050565b634e487b7160e01b600052601160045260246000fd5b634e487b7160e01b600052601260045260246000fd5b634e487b7160e01b600052602160045260246000fd5b634e487b7160e01b600052604160045260246000fd5b6001600160a01b038116811461501d57600080fd5b5056fea2646970667358221220665edd644a667de5889103ccfc8ab0534c01b9d8a451419a26d831a01061e49864736f6c63430008040033",
  "linkReferences": {},
  "deployedLinkReferences": {}
}