{
  "_format": "hh-sol-artifact-1",
  "contractName": "VintageFundingPoolAdapterContract",
  "sourceName": "contracts/vintage/adapters/VintageFundingPoolAdapter.sol",
  "abi": [
    {
      "inputs": [],
      "name": "ACCESS_DENIED",
      "type": "error"
    },
    {
      "inputs": [],
      "name": "ERC1155_REQUIRMENT",
      "type": "error"
    },
    {
      "inputs": [],
      "name": "ERC20_REQUIRMENT",
      "type": "error"
    },
    {
      "inputs": [],
      "name": "ERC721_REQUIRMENT",
      "type": "error"
    },
    {
      "inputs": [],
      "name": "GREATER_THAN_MAX_DEPOSIT_AMOUNT",
      "type": "error"
    },
    {
      "inputs": [],
      "name": "GREATER_THAN_MAX_FUND_RAISING_AMOUNT",
      "type": "error"
    },
    {
      "inputs": [],
      "name": "INSUFFICIENT_ALLOWANCE",
      "type": "error"
    },
    {
      "inputs": [],
      "name": "INSUFFICIENT_BALANCE",
      "type": "error"
    },
    {
      "inputs": [],
      "name": "INVALID_AMOUNT",
      "type": "error"
    },
    {
      "inputs": [],
      "name": "LESS_THAN_MIN_DEPOSIT_AMOUNT",
      "type": "error"
    },
    {
      "inputs": [],
      "name": "MAX_PATICIPANT_AMOUNT_REACH",
      "type": "error"
    },
    {
      "inputs": [],
      "name": "NOT_IN_FUND_RAISING_WINDOW",
      "type": "error"
    },
    {
      "inputs": [],
      "name": "WHITELIST_REQUIRMENT",
      "type": "error"
    },
    {
      "anonymous": false,
      "inputs": [
        {
          "indexed": false,
          "internalType": "address",
          "name": "dao",
          "type": "address"
        },
        {
          "indexed": false,
          "internalType": "uint256",
          "name": "amount",
          "type": "uint256"
        },
        {
          "indexed": false,
          "internalType": "address",
          "name": "executor",
          "type": "address"
        }
      ],
      "name": "ClearFund",
      "type": "event"
    },
    {
      "anonymous": false,
      "inputs": [
        {
          "indexed": false,
          "internalType": "address",
          "name": "daoAddress",
          "type": "address"
        },
        {
          "indexed": false,
          "internalType": "uint256",
          "name": "amount",
          "type": "uint256"
        },
        {
          "indexed": false,
          "internalType": "address",
          "name": "account",
          "type": "address"
        }
      ],
      "name": "Deposit",
      "type": "event"
    },
    {
      "anonymous": false,
      "inputs": [
        {
          "indexed": false,
          "internalType": "address",
          "name": "dao",
          "type": "address"
        },
        {
          "indexed": false,
          "internalType": "uint256",
          "name": "fundRound",
          "type": "uint256"
        },
        {
          "indexed": false,
          "internalType": "uint256",
          "name": "fundRaiseState",
          "type": "uint256"
        },
        {
          "indexed": false,
          "internalType": "uint256",
          "name": "fundRaisedAmount",
          "type": "uint256"
        }
      ],
      "name": "ProcessFundRaise",
      "type": "event"
    },
    {
      "anonymous": false,
      "inputs": [
        {
          "indexed": false,
          "internalType": "address",
          "name": "dao",
          "type": "address"
        },
        {
          "indexed": false,
          "internalType": "address",
          "name": "account",
          "type": "address"
        },
        {
          "indexed": false,
          "internalType": "uint256",
          "name": "redempAmount",
          "type": "uint256"
        },
        {
          "indexed": false,
          "internalType": "uint256",
          "name": "redemptionFee",
          "type": "uint256"
        }
      ],
      "name": "RedeptionFeeCharged",
      "type": "event"
    },
    {
      "anonymous": false,
      "inputs": [
        {
          "indexed": false,
          "internalType": "address",
          "name": "daoAddress",
          "type": "address"
        },
        {
          "indexed": false,
          "internalType": "uint256",
          "name": "amount",
          "type": "uint256"
        },
        {
          "indexed": false,
          "internalType": "address",
          "name": "account",
          "type": "address"
        }
      ],
      "name": "WithDraw",
      "type": "event"
    },
    {
      "inputs": [
        {
          "internalType": "contract DaoRegistry",
          "name": "dao",
          "type": "address"
        },
        {
          "internalType": "address",
          "name": "investorAddr",
          "type": "address"
        }
      ],
      "name": "balanceOf",
      "outputs": [
        {
          "internalType": "uint256",
          "name": "",
          "type": "uint256"
        }
      ],
      "stateMutability": "view",
      "type": "function"
    },
    {
      "inputs": [
        {
          "internalType": "contract DaoRegistry",
          "name": "dao",
          "type": "address"
        }
      ],
      "name": "clearFund",
      "outputs": [],
      "stateMutability": "nonpayable",
      "type": "function"
    },
    {
      "inputs": [
        {
          "internalType": "contract DaoRegistry",
          "name": "dao",
          "type": "address"
        }
      ],
      "name": "clearInvestorWhitelist",
      "outputs": [],
      "stateMutability": "nonpayable",
      "type": "function"
    },
    {
      "inputs": [
        {
          "internalType": "address",
          "name": "",
          "type": "address"
        }
      ],
      "name": "daoFundRaisingStates",
      "outputs": [
        {
          "internalType": "enum DaoHelper.FundRaiseState",
          "name": "",
          "type": "uint8"
        }
      ],
      "stateMutability": "view",
      "type": "function"
    },
    {
      "inputs": [
        {
          "internalType": "contract DaoRegistry",
          "name": "dao",
          "type": "address"
        },
        {
          "internalType": "uint256",
          "name": "amount",
          "type": "uint256"
        }
      ],
      "name": "deposit",
      "outputs": [],
      "stateMutability": "nonpayable",
      "type": "function"
    },
    {
      "inputs": [
        {
          "internalType": "address",
          "name": "",
          "type": "address"
        },
        {
          "internalType": "bytes32",
          "name": "",
          "type": "bytes32"
        }
      ],
      "name": "freeINPriorityDeposits",
      "outputs": [
        {
          "internalType": "uint256",
          "name": "",
          "type": "uint256"
        }
      ],
      "stateMutability": "view",
      "type": "function"
    },
    {
      "inputs": [
        {
          "internalType": "contract DaoRegistry",
          "name": "dao",
          "type": "address"
        },
        {
          "internalType": "uint256",
          "name": "fundRound",
          "type": "uint256"
        }
      ],
      "name": "getFundInvestors",
      "outputs": [
        {
          "internalType": "address[]",
          "name": "",
          "type": "address[]"
        }
      ],
      "stateMutability": "view",
      "type": "function"
    },
    {
      "inputs": [
        {
          "internalType": "contract DaoRegistry",
          "name": "dao",
          "type": "address"
        }
      ],
      "name": "getInvestorMembershipWhiteList",
      "outputs": [
        {
          "internalType": "address[]",
          "name": "",
          "type": "address[]"
        }
      ],
      "stateMutability": "view",
      "type": "function"
    },
    {
      "inputs": [
        {
          "internalType": "contract DaoRegistry",
          "name": "dao",
          "type": "address"
        }
      ],
      "name": "governorBalance",
      "outputs": [
        {
          "internalType": "uint256",
          "name": "",
          "type": "uint256"
        }
      ],
      "stateMutability": "view",
      "type": "function"
    },
    {
      "inputs": [
        {
          "internalType": "contract DaoRegistry",
          "name": "dao",
          "type": "address"
        },
        {
          "internalType": "uint256",
          "name": "timeStamp",
          "type": "uint256"
        }
      ],
      "name": "ifInRedemptionPeriod",
      "outputs": [
        {
          "internalType": "bool",
          "name": "",
          "type": "bool"
        }
      ],
      "stateMutability": "view",
      "type": "function"
    },
    {
      "inputs": [
        {
          "internalType": "contract DaoRegistry",
          "name": "dao",
          "type": "address"
        },
        {
          "internalType": "address",
          "name": "account",
          "type": "address"
        }
      ],
      "name": "ifInvestorMembershipWhiteList",
      "outputs": [
        {
          "internalType": "bool",
          "name": "",
          "type": "bool"
        }
      ],
      "stateMutability": "view",
      "type": "function"
    },
    {
      "inputs": [
        {
          "internalType": "contract DaoRegistry",
          "name": "dao",
          "type": "address"
        },
        {
          "internalType": "address",
          "name": "_addr",
          "type": "address"
        }
      ],
      "name": "isActiveMember",
      "outputs": [
        {
          "internalType": "bool",
          "name": "",
          "type": "bool"
        }
      ],
      "stateMutability": "view",
      "type": "function"
    },
    {
      "inputs": [
        {
          "internalType": "contract DaoRegistry",
          "name": "dao",
          "type": "address"
        }
      ],
      "name": "poolBalance",
      "outputs": [
        {
          "internalType": "uint256",
          "name": "",
          "type": "uint256"
        }
      ],
      "stateMutability": "view",
      "type": "function"
    },
    {
      "inputs": [
        {
          "internalType": "address",
          "name": "",
          "type": "address"
        },
        {
          "internalType": "bytes32",
          "name": "",
          "type": "bytes32"
        },
        {
          "internalType": "address",
          "name": "",
          "type": "address"
        }
      ],
      "name": "priorityDepositers",
      "outputs": [
        {
          "internalType": "bool",
          "name": "",
          "type": "bool"
        }
      ],
      "stateMutability": "view",
      "type": "function"
    },
    {
      "inputs": [
        {
          "internalType": "contract DaoRegistry",
          "name": "dao",
          "type": "address"
        }
      ],
      "name": "processFundRaise",
      "outputs": [
        {
          "internalType": "bool",
          "name": "",
          "type": "bool"
        }
      ],
      "stateMutability": "nonpayable",
      "type": "function"
    },
    {
      "inputs": [],
      "name": "protocolFee",
      "outputs": [
        {
          "internalType": "uint256",
          "name": "",
          "type": "uint256"
        }
      ],
      "stateMutability": "view",
      "type": "function"
    },
    {
      "inputs": [
        {
          "internalType": "contract DaoRegistry",
          "name": "dao",
          "type": "address"
        },
        {
          "internalType": "address",
          "name": "account",
          "type": "address"
        }
      ],
      "name": "registerInvestorWhiteList",
      "outputs": [],
      "stateMutability": "nonpayable",
      "type": "function"
    },
    {
      "inputs": [
        {
          "internalType": "contract DaoRegistry",
          "name": "dao",
          "type": "address"
        }
      ],
      "name": "resetFundRaiseState",
      "outputs": [],
      "stateMutability": "nonpayable",
      "type": "function"
    },
    {
      "inputs": [
        {
          "internalType": "contract DaoRegistry",
          "name": "dao",
          "type": "address"
        },
        {
          "internalType": "uint256",
          "name": "feeProtocol",
          "type": "uint256"
        }
      ],
      "name": "setProtocolFee",
      "outputs": [],
      "stateMutability": "nonpayable",
      "type": "function"
    },
    {
      "inputs": [
        {
          "internalType": "contract DaoRegistry",
          "name": "dao",
          "type": "address"
        },
        {
          "internalType": "uint256",
          "name": "amount",
          "type": "uint256"
        }
      ],
      "name": "withdraw",
      "outputs": [],
      "stateMutability": "nonpayable",
      "type": "function"
    }
  ],
  "bytecode": "0x6080604052660aa87bee53800060055534801561001b57600080fd5b50615e75806200002c6000396000f3fe608060405234801561001057600080fd5b506004361061016c5760003560e01c80638ecf7720116100cd578063b5b3ca2c11610081578063f3fef3a311610066578063f3fef3a314610336578063f7888aec14610349578063ff8bb0d01461035c57600080fd5b8063b5b3ca2c14610310578063f10e6b6b1461032357600080fd5b8063a5e34110116100b2578063a5e34110146102e1578063ac7e7eba146102f4578063b0e21e8a1461030757600080fd5b80638ecf7720146102bb57806396609c42146102ce57600080fd5b80635e1d06061161012457806368abb5e01161010957806368abb5e01461025c57806383cffffe1461027d578063861f67521461029057600080fd5b80635e1d06061461021557806368395f3f1461024957600080fd5b80633a844ec0116101555780633a844ec0146101ca5780633e1d6ed8146101ed57806347e7ef241461020057600080fd5b80631d729e61146101715780631ee1a2b01461019a575b600080fd5b61018461017f366004615aa9565b61036f565b6040516101919190615cda565b60405180910390f35b6101bd6101a8366004615aa9565b60006020819052908152604090205460ff1681565b6040516101919190615d27565b6101dd6101d8366004615ca9565b610399565b6040519015158152602001610191565b6101846101fb366004615ca9565b6106ea565b61021361020e366004615ca9565b610720565b005b6101dd610223366004615b0c565b600460209081526000938452604080852082529284528284209052825290205460ff1681565b6101dd610257366004615c71565b611d40565b61026f61026a366004615aa9565b611d62565b604051908152602001610191565b61021361028b366004615aa9565b611e7b565b61026f61029e366004615ae1565b600360209081526000928352604080842090915290825290205481565b6101dd6102c9366004615c71565b6127d4565b6101dd6102dc366004615aa9565b61286a565b61026f6102ef366004615aa9565b613076565b610213610302366004615c71565b613143565b61026f60055481565b61021361031e366004615ca9565b61326b565b610213610331366004615aa9565b613426565b610213610344366004615ca9565b613512565b61026f610357366004615c71565b6140b5565b61021361036a366004615aa9565b6141d6565b6001600160a01b038116600090815260016020526040902060609061039390614371565b92915050565b604051634941d71d60e11b81527fd99dae5492aa0c08830764a319f29225cc739a0ed8683d8fd1b5bc3a8fe31672600482015260009081906001600160a01b03851690639283ae3a9060240160206040518083038186803b1580156103fd57600080fd5b505afa158015610411573d6000803e3d6000fd5b505050506040513d601f19601f820116820180604052508101906104359190615c59565b604051634941d71d60e11b81527f9ce69cf04065e3c7823cc5540c0598d8a694bd7a9a5a2a786d8bccf14ed6e2ea60048201529091506000906001600160a01b03861690639283ae3a9060240160206040518083038186803b15801561049a57600080fd5b505afa1580156104ae573d6000803e3d6000fd5b505050506040513d601f19601f820116820180604052508101906104d29190615c59565b604051634941d71d60e11b81527f6a2acfe6164f3ec20e6d80e2f4e4f7ae2b9962615c9596c872d01f6cd244aed360048201529091506000906001600160a01b03871690639283ae3a9060240160206040518083038186803b15801561053757600080fd5b505afa15801561054b573d6000803e3d6000fd5b505050506040513d601f19601f8201168201806040525081019061056f9190615c59565b604051634941d71d60e11b81527f2305fa3a9f84625f75d70f539e621c658cf49e7477ab5af9cacd278ca7904e3060048201529091506000906001600160a01b03881690639283ae3a9060240160206040518083038186803b1580156105d457600080fd5b505afa1580156105e8573d6000803e3d6000fd5b505050506040513d601f19601f8201168201806040525081019061060c9190615c59565b9050600061061a8585615dc4565b9050821580610627575081155b80610630575080155b1561064357600095505050505050610393565b600061064f8383615d67565b905060008060005b8381116106d85782156106735761066e8684615d4f565b61067d565b61067d868a615d4f565b92506106898784615dc4565b9150818b1180156106995750828b105b80156106a45750888b115b80156106af5750878b105b156106c65760019950505050505050505050610393565b6106d1600182615d4f565b9050610657565b5060009b9a5050505050505050505050565b6001600160a01b0382166000908152600260209081526040808320848452909152902060609061071990614371565b9392505050565b81600061072c8261437e565b604051634941d71d60e11b81527f1405d0156cf64c805704fdf6691baebfcfa0d409ea827c231693ff0581b0b7776004820152909150849033906001600160a01b03831690639283ae3a9060240160206040518083038186803b15801561079257600080fd5b505afa1580156107a6573d6000803e3d6000fd5b505050506040513d601f19601f820116820180604052508101906107ca9190615c59565b60011415610d0d57604051634941d71d60e11b81527f80140cd7e0b1d935bee578a67a41547c82987de8e7d6b3827d411b738110258b60048201526000906001600160a01b03841690639283ae3a9060240160206040518083038186803b15801561083457600080fd5b505afa158015610848573d6000803e3d6000fd5b505050506040513d601f19601f8201168201806040525081019061086c9190615c59565b6040517ffd310d290000000000000000000000000000000000000000000000000000000081527fe373ab56628c86db3f0e36774c2c5e0393f9272ff5c976bc3f0db2db60cdbc1460048201529091506000906001600160a01b0385169063fd310d299060240160206040518083038186803b1580156108ea57600080fd5b505afa1580156108fe573d6000803e3d6000fd5b505050506040513d601f19601f820116820180604052508101906109229190615ac5565b604051634941d71d60e11b81527f04ecaf460eb9f82aeb70035e3f24c18a3650fa0da9ddbe7e63d70de659b9b90160048201529091506000906001600160a01b03861690639283ae3a9060240160206040518083038186803b15801561098757600080fd5b505afa15801561099b573d6000803e3d6000fd5b505050506040513d601f19601f820116820180604052508101906109bf9190615c59565b604051634941d71d60e11b81527f6cb5bc3796b0717ca4ff665886c96fb0178d6341366eb7b6c737fe79083b836a60048201529091506000906001600160a01b03871690639283ae3a9060240160206040518083038186803b158015610a2457600080fd5b505afa158015610a38573d6000803e3d6000fd5b505050506040513d601f19601f82011682018060405250810190610a5c9190615c59565b905083158015610ae557506040516370a0823160e01b81526001600160a01b0386811660048301528391908516906370a082319060240160206040518083038186803b158015610aab57600080fd5b505afa158015610abf573d6000803e3d6000fd5b505050506040513d601f19601f82011682018060405250810190610ae39190615c59565b105b15610b1c576040517fc4cf1dc400000000000000000000000000000000000000000000000000000000815260040160405180910390fd5b836001148015610ba557506040516370a0823160e01b81526001600160a01b0386811660048301528391908516906370a082319060240160206040518083038186803b158015610b6b57600080fd5b505afa158015610b7f573d6000803e3d6000fd5b505050506040513d601f19601f82011682018060405250810190610ba39190615c59565b105b15610bdc576040517f7cef139500000000000000000000000000000000000000000000000000000000815260040160405180910390fd5b836002148015610c8357506040517efdd58e0000000000000000000000000000000000000000000000000000000081526001600160a01b0386811660048301526024820183905283919085169062fdd58e9060440160206040518083038186803b158015610c4957600080fd5b505afa158015610c5d573d6000803e3d6000fd5b505050506040513d601f19601f82011682018060405250810190610c819190615c59565b105b15610cba576040517f8722044800000000000000000000000000000000000000000000000000000000815260040160405180910390fd5b836003148015610cd15750610ccf8686611d40565b155b15610d08576040517f9eb91fe800000000000000000000000000000000000000000000000000000000815260040160405180910390fd5b505050505b60008511610d47576040517ffae8279100000000000000000000000000000000000000000000000000000000815260040160405180910390fd5b610d926040518060c0016040528060008152602001600081526020016000815260200160006001600160a01b0316815260200160006001600160a01b03168152602001600081525090565b604051634941d71d60e11b81527f5fa39c8100b49336846e52d39403e353bf782275f905a885f09224779ff1c92460048201526001600160a01b03881690639283ae3a9060240160206040518083038186803b158015610df157600080fd5b505afa158015610e05573d6000803e3d6000fd5b505050506040513d601f19601f82011682018060405250810190610e299190615c59565b8152604051634941d71d60e11b81527fbdd40865e74210f0a46799ae63462c62010da92014a08cbc32f1d049d0a22c6b60048201526001600160a01b03881690639283ae3a9060240160206040518083038186803b158015610e8a57600080fd5b505afa158015610e9e573d6000803e3d6000fd5b505050506040513d601f19601f82011682018060405250810190610ec29190615c59565b6020820152604051634941d71d60e11b81527f7e07fb4530796d057ca1d76d83f47aa8629dbb7e942ac28f30ad6f5e9e8d418960048201526001600160a01b03881690639283ae3a9060240160206040518083038186803b158015610f2657600080fd5b505afa158015610f3a573d6000803e3d6000fd5b505050506040513d601f19601f82011682018060405250810190610f5e9190615c59565b6040820152602081015115801590610f795750806020015186105b15610fb0576040517f2193e42400000000000000000000000000000000000000000000000000000000815260040160405180910390fd5b805115801590610fd357508051610fc788336140b5565b610fd19088615d4f565b115b1561100a576040517f504400aa00000000000000000000000000000000000000000000000000000000815260040160405180910390fd5b604051634941d71d60e11b81527fbd04d44792b7dbfe3b50b0f9f2006f7ef449e374a39021cb9bfa7cd0bdd850d7600482015242906001600160a01b03891690639283ae3a9060240160206040518083038186803b15801561106b57600080fd5b505afa15801561107f573d6000803e3d6000fd5b505050506040513d601f19601f820116820180604052508101906110a39190615c59565b1015806111475750604051634941d71d60e11b81527f533afc15b6312917b5e28e2272ea69d44e5ea8e00d3bd57cada1275c2f14c9e8600482015242906001600160a01b03891690639283ae3a9060240160206040518083038186803b15801561110c57600080fd5b505afa158015611120573d6000803e3d6000fd5b505050506040513d601f19601f820116820180604052508101906111449190615c59565b11155b1561117e576040517f31c550f600000000000000000000000000000000000000000000000000000000815260040160405180910390fd5b604051634941d71d60e11b81527fbe07eea886ce63e8ab49ef6fd986e9dea247fbb31da43dd1df3e153cc548277a60048201526001600160a01b03881690639283ae3a9060240160206040518083038186803b1580156111dd57600080fd5b505afa1580156111f1573d6000803e3d6000fd5b505050506040513d601f19601f820116820180604052508101906112159190615c59565b158015611226575060008160400151115b1561127c5780604001518661123a89611d62565b6112449190615d4f565b111561127c576040517f98ea576400000000000000000000000000000000000000000000000000000000815260040160405180910390fd5b604051632c9f4b5b60e11b81527f161fca6912f107b0f13c9c7275de7391b32d2ea1c52ffba65a3c961880a0c60f60048201526001600160a01b0388169063593e96b69060240160206040518083038186803b1580156112db57600080fd5b505afa1580156112ef573d6000803e3d6000fd5b505050506040513d601f19601f820116820180604052508101906113139190615ac5565b6001600160a01b0390811660608301526040516317ba7d8560e01b81527fa837e34a29b67bf52f684a1c93def79b84b9c012732becee4e5df62809df64ed6004820152908816906317ba7d859060240160206040518083038186803b15801561137b57600080fd5b505afa15801561138f573d6000803e3d6000fd5b505050506040513d601f19601f820116820180604052508101906113b39190615ac5565b6001600160a01b0390811660808301819052604051634fc0a76d60e01b8152918916600483015290634fc0a76d9060240160206040518083038186803b1580156113fc57600080fd5b505afa158015611410573d6000803e3d6000fd5b505050506040513d601f19601f820116820180604052508101906114349190615c59565b60a0820152604051634941d71d60e11b81527f69f4ffb3ebcb7809550bddd3e4d449a47e737bf6635bc7a730996643997b0e4860048201526001600160a01b03881690639283ae3a9060240160206040518083038186803b15801561149857600080fd5b505afa1580156114ac573d6000803e3d6000fd5b505050506040513d601f19601f820116820180604052508101906114d09190615c59565b60011480156115a45750604051634941d71d60e11b81527fecbde689cc6337d29a750b8b8a8abbfa97427b4ac800ab55be2f2c87311510f260048201526001600160a01b03881690639283ae3a9060240160206040518083038186803b15801561153957600080fd5b505afa15801561154d573d6000803e3d6000fd5b505050506040513d601f19601f820116820180604052508101906115719190615c59565b6001600160a01b038816600090815260026020908152604080832060a0860151845290915290206115a190614649565b10155b80156115de57506001600160a01b038716600090815260026020908152604080832060a0850151845290915290206115dc9033614653565b155b15611615576040517ffa088e8a00000000000000000000000000000000000000000000000000000000815260040160405180910390fd5b600081606001516001600160a01b031663a87af66c6040518163ffffffff1660e01b815260040160206040518083038186803b15801561165457600080fd5b505afa158015611668573d6000803e3d6000fd5b505050506040513d601f19601f8201168201806040525081019061168c9190615ac5565b6040516370a0823160e01b815233600482015290915087906001600160a01b038316906370a082319060240160206040518083038186803b1580156116d057600080fd5b505afa1580156116e4573d6000803e3d6000fd5b505050506040513d601f19601f820116820180604052508101906117089190615c59565b1015611740576040517f50b1f35600000000000000000000000000000000000000000000000000000000815260040160405180910390fd5b6040517fdd62ed3e00000000000000000000000000000000000000000000000000000000815233600482015230602482015287906001600160a01b0383169063dd62ed3e9060440160206040518083038186803b1580156117a057600080fd5b505afa1580156117b4573d6000803e3d6000fd5b505050506040513d601f19601f820116820180604052508101906117d89190615c59565b1015611810576040517f0fd3919300000000000000000000000000000000000000000000000000000000815260040160405180910390fd5b6040517f23b872dd000000000000000000000000000000000000000000000000000000008152336004820152306024820152604481018890526001600160a01b038216906323b872dd90606401602060405180830381600087803b15801561187757600080fd5b505af115801561188b573d6000803e3d6000fd5b505050506040513d601f19601f820116820180604052508101906118af9190615c14565b50604051632c9f4b5b60e11b81527f161fca6912f107b0f13c9c7275de7391b32d2ea1c52ffba65a3c961880a0c60f60048201526001600160a01b038083169163095ea7b3918b169063593e96b69060240160206040518083038186803b15801561191957600080fd5b505afa15801561192d573d6000803e3d6000fd5b505050506040513d601f19601f820116820180604052508101906119519190615ac5565b6040516001600160e01b031960e084901b1681526001600160a01b039091166004820152602481018a9052604401602060405180830381600087803b15801561199957600080fd5b505af11580156119ad573d6000803e3d6000fd5b505050506040513d601f19601f820116820180604052508101906119d19190615c14565b5060608201516040517fb08079a6000000000000000000000000000000000000000000000000000000008152336004820152602481018990526001600160a01b039091169063b08079a690604401600060405180830381600087803b158015611a3957600080fd5b505af1158015611a4d573d6000803e3d6000fd5b50505050611a6088338460a00151614675565b60808201516040516301c22a3d60e01b81526001600160a01b038a8116600483015290911690636d3cc040908a9083906301c22a3d9060240160206040518083038186803b158015611ab157600080fd5b505afa158015611ac5573d6000803e3d6000fd5b505050506040513d601f19601f82011682018060405250810190611ae99190615c59565b6040516001600160e01b031960e085901b1681526001600160a01b039092166004830152602482015233604482015260640160206040518083038186803b158015611b3357600080fd5b505afa158015611b47573d6000803e3d6000fd5b505050506040513d601f19601f82011682018060405250810190611b6b9190615c14565b15611ce4576001600160a01b03888116600081815260036020526040808220608087015191516301c22a3d60e01b815260048101949094528b9490939116906301c22a3d9060240160206040518083038186803b158015611bcb57600080fd5b505afa158015611bdf573d6000803e3d6000fd5b505050506040513d601f19601f82011682018060405250810190611c039190615c59565b81526020019081526020016000206000828254611c209190615d4f565b90915550506001600160a01b038881166000818152600460208190526040808320608088015191516301c22a3d60e01b81529283019490945260019416906301c22a3d9060240160206040518083038186803b158015611c7f57600080fd5b505afa158015611c93573d6000803e3d6000fd5b505050506040513d601f19601f82011682018060405250810190611cb79190615c59565b8152602080820192909252604090810160009081203382529092529020805460ff19169115159190911790555b604080516001600160a01b038a16815260208101899052338183015290517fe31c7b8d08ee7db0afa68782e1028ef92305caeea8626633ad44d413e30f6b2f9181900360600190a150505050611d3a82826146d3565b50505050565b6001600160a01b03821660009081526001602052604081206107199083614653565b604051632c9f4b5b60e11b81527f161fca6912f107b0f13c9c7275de7391b32d2ea1c52ffba65a3c961880a0c60f600482015260009081906001600160a01b0384169063593e96b69060240160206040518083038186803b158015611dc657600080fd5b505afa158015611dda573d6000803e3d6000fd5b505050506040513d601f19601f82011682018060405250810190611dfe9190615ac5565b6040516370a0823160e01b815261decd60048201529091506001600160a01b038216906370a08231906024015b60206040518083038186803b158015611e4357600080fd5b505afa158015611e57573d6000803e3d6000fd5b505050506040513d601f19601f820116820180604052508101906107199190615c59565b806000611e878261437e565b905060036001600160a01b03841660009081526020819052604090205460ff166003811115611ec657634e487b7160e01b600052602160045260246000fd5b148015611f685750604051634941d71d60e11b81527f533afc15b6312917b5e28e2272ea69d44e5ea8e00d3bd57cada1275c2f14c9e860048201526001600160a01b03841690639283ae3a9060240160206040518083038186803b158015611f2d57600080fd5b505afa158015611f41573d6000803e3d6000fd5b505050506040513d601f19601f82011682018060405250810190611f659190615c59565b42115b806120ee575060026001600160a01b03841660009081526020819052604090205460ff166003811115611fab57634e487b7160e01b600052602160045260246000fd5b1480156120ee5750604051634941d71d60e11b81527fb0d4178853a5320a41f8c55fa6d58af06637e392beff71e66dba4e8f32c39bb860048201526001600160a01b03841690639283ae3a9060240160206040518083038186803b15801561201257600080fd5b505afa158015612026573d6000803e3d6000fd5b505050506040513d601f19601f8201168201806040525081019061204a9190615c59565b604051634941d71d60e11b81527f9ce69cf04065e3c7823cc5540c0598d8a694bd7a9a5a2a786d8bccf14ed6e2ea60048201526001600160a01b03851690639283ae3a9060240160206040518083038186803b1580156120a957600080fd5b505afa1580156120bd573d6000803e3d6000fd5b505050506040513d601f19601f820116820180604052508101906120e19190615c59565b6120eb9190615d4f565b42115b61213f5760405162461bcd60e51b815260206004820152600a60248201527f21636c65617246756e640000000000000000000000000000000000000000000060448201526064015b60405180910390fd5b604051632c9f4b5b60e11b81527f161fca6912f107b0f13c9c7275de7391b32d2ea1c52ffba65a3c961880a0c60f60048201526000906001600160a01b0385169063593e96b69060240160206040518083038186803b1580156121a157600080fd5b505afa1580156121b5573d6000803e3d6000fd5b505050506040513d601f19601f820116820180604052508101906121d99190615ac5565b90506000816001600160a01b031663a87af66c6040518163ffffffff1660e01b815260040160206040518083038186803b15801561221657600080fd5b505afa15801561222a573d6000803e3d6000fd5b505050506040513d601f19601f8201168201806040525081019061224e9190615ac5565b90506000826001600160a01b031663b2f5a54c6040518163ffffffff1660e01b815260040160006040518083038186803b15801561228b57600080fd5b505afa15801561229f573d6000803e3d6000fd5b505050506040513d6000823e601f3d908101601f191682016040526122c79190810190615b4d565b6040516317ba7d8560e01b81527fa837e34a29b67bf52f684a1c93def79b84b9c012732becee4e5df62809df64ed60048201529091506000906001600160a01b038816906317ba7d859060240160206040518083038186803b15801561232c57600080fd5b505afa158015612340573d6000803e3d6000fd5b505050506040513d601f19601f820116820180604052508101906123649190615ac5565b604051634fc0a76d60e01b81526001600160a01b038981166004830152919250600091831690634fc0a76d9060240160206040518083038186803b1580156123ab57600080fd5b505afa1580156123bf573d6000803e3d6000fd5b505050506040513d601f19601f820116820180604052508101906123e39190615c59565b8351909150156127c0576000805b84518160ff1610156127615760006124338b878460ff168151811061242657634e487b7160e01b600052603260045260246000fd5b60200260200101516140b5565b9050801561274e576040516317ba7d8560e01b81527ff03649ccf5cbda635d0464f73bc807b602819fde8d2e1387f87b988bb0e858a360048201526000906001600160a01b038d16906317ba7d859060240160206040518083038186803b15801561249d57600080fd5b505afa1580156124b1573d6000803e3d6000fd5b505050506040513d601f19601f820116820180604052508101906124d59190615ac5565b9050806001600160a01b03166365017e838d878b8b8860ff168151811061250c57634e487b7160e01b600052603260045260246000fd5b60209081029190910101516040516001600160e01b031960e087901b1681526001600160a01b039485166004820152602481019390935290831660448301529190911660648201526084810185905260a401600060405180830381600087803b15801561257857600080fd5b505af115801561258c573d6000803e3d6000fd5b50506040516317ba7d8560e01b81527ff03649ccf5cbda635d0464f73bc807b602819fde8d2e1387f87b988bb0e858a360048201526001600160a01b03808d16935063e176b35e92508f16906317ba7d859060240160206040518083038186803b1580156125f957600080fd5b505afa15801561260d573d6000803e3d6000fd5b505050506040513d601f19601f820116820180604052508101906126319190615ac5565b6040516001600160e01b031960e084901b1681526001600160a01b039182166004820152908b16602482015260448101859052606401600060405180830381600087803b15801561268157600080fd5b505af1158015612695573d6000803e3d6000fd5b50505050886001600160a01b031663e3a05cc1888560ff16815181106126cb57634e487b7160e01b600052603260045260246000fd5b60209081029190910101516040516001600160e01b031960e084901b1681526001600160a01b039182166004820152908b16602482015260448101859052606401600060405180830381600087803b15801561272657600080fd5b505af115801561273a573d6000803e3d6000fd5b50505050818461274a9190615d4f565b9350505b508061275981615ddb565b9150506123f1565b506001600160a01b03891660008181526020818152604091829020805460ff19169055815192835282018390523382820152517f12d0dcfe23709357491021067eb05d73fa0b1f1aeb69310c2071218e089f057f9181900360600190a1505b50505050506127cf82826146d3565b505050565b6040517fa230c5240000000000000000000000000000000000000000000000000000000081526001600160a01b0382811660048301526000919084169063a230c5249060240160206040518083038186803b15801561283257600080fd5b505afa158015612846573d6000803e3d6000fd5b505050506040513d601f19601f820116820180604052508101906107199190615c14565b604051634941d71d60e11b81527f31af571e53636dddd77f772cce9d30b42075760f2da731636acc6962da2fbef8600482015260009081906001600160a01b03841690639283ae3a9060240160206040518083038186803b1580156128ce57600080fd5b505afa1580156128e2573d6000803e3d6000fd5b505050506040513d601f19601f820116820180604052508101906129069190615c59565b604051634941d71d60e11b81527f533afc15b6312917b5e28e2272ea69d44e5ea8e00d3bd57cada1275c2f14c9e860048201529091506000906001600160a01b03851690639283ae3a9060240160206040518083038186803b15801561296b57600080fd5b505afa15801561297f573d6000803e3d6000fd5b505050506040513d601f19601f820116820180604052508101906129a39190615c59565b6040516317ba7d8560e01b81527fa837e34a29b67bf52f684a1c93def79b84b9c012732becee4e5df62809df64ed60048201529091506000906001600160a01b038616906317ba7d859060240160206040518083038186803b158015612a0857600080fd5b505afa158015612a1c573d6000803e3d6000fd5b505050506040513d601f19601f82011682018060405250810190612a409190615ac5565b90508142118015612a8b575060016001600160a01b03861660009081526020819052604090205460ff166003811115612a8957634e487b7160e01b600052602160045260246000fd5b145b1561306b57604051634941d71d60e11b81527f686efe7bd1699b408d306db6bbee658ed667971c52d48d6912d7ee496e36e62760048201526001600160a01b03861690639283ae3a9060240160206040518083038186803b158015612aef57600080fd5b505afa158015612b03573d6000803e3d6000fd5b505050506040513d601f19601f82011682018060405250810190612b279190615c59565b6004148015612b3f57506000612b3c866146de565b11155b15612b6c576001600160a01b0385166000908152602081905260409020805460ff19166003179055612f5c565b82612b7686611d62565b10612e47576040517fda0f6c700000000000000000000000000000000000000000000000000000000081527fd99dae5492aa0c08830764a319f29225cc739a0ed8683d8fd1b5bc3a8fe3167260048201524260248201526001600160a01b0386169063da0f6c7090604401600060405180830381600087803b158015612bfb57600080fd5b505af1158015612c0f573d6000803e3d6000fd5b5050604051634941d71d60e11b81527ffbf58be2732249b32b8ee6ccb5eed8655c2fb8a45fe937b71c312b6e209f138060048201526001600160a01b038816925063da0f6c7091507f9ce69cf04065e3c7823cc5540c0598d8a694bd7a9a5a2a786d8bccf14ed6e2ea908390639283ae3a9060240160206040518083038186803b158015612c9c57600080fd5b505afa158015612cb0573d6000803e3d6000fd5b505050506040513d601f19601f82011682018060405250810190612cd49190615c59565b612cde9042615d4f565b6040516001600160e01b031960e085901b16815260048101929092526024820152604401600060405180830381600087803b158015612d1c57600080fd5b505af1158015612d30573d6000803e3d6000fd5b50505050612d3d8561487f565b6001600160a01b0385811660008181526020819052604090819020805460ff19166002179055516301c22a3d60e01b8152600481019190915290821690630c1c6f4490879083906301c22a3d9060240160206040518083038186803b158015612da557600080fd5b505afa158015612db9573d6000803e3d6000fd5b505050506040513d601f19601f82011682018060405250810190612ddd9190615c59565b6040516001600160e01b031960e085901b1681526001600160a01b039092166004830152602482015260016044820152606401600060405180830381600087803b158015612e2a57600080fd5b505af1158015612e3e573d6000803e3d6000fd5b50505050612f5c565b6001600160a01b0385166000908152602081905260409020805460ff19166003179055612e7385611e7b565b6040516301c22a3d60e01b81526001600160a01b038681166004830152821690630c1c6f4490879083906301c22a3d9060240160206040518083038186803b158015612ebe57600080fd5b505afa158015612ed2573d6000803e3d6000fd5b505050506040513d601f19601f82011682018060405250810190612ef69190615c59565b6040516001600160e01b031960e085901b1681526001600160a01b039092166004830152602482015260006044820152606401600060405180830381600087803b158015612f4357600080fd5b505af1158015612f57573d6000803e3d6000fd5b505050505b604051634fc0a76d60e01b81526001600160a01b0380871660048301527f5fd2225800b4a1978ad764ee103db4fc09f1f8db734ab768112047634fb868c2918791841690634fc0a76d9060240160206040518083038186803b158015612fc157600080fd5b505afa158015612fd5573d6000803e3d6000fd5b505050506040513d601f19601f82011682018060405250810190612ff99190615c59565b6001600160a01b03881660009081526020819052604090205460ff16600381111561303457634e487b7160e01b600052602160045260246000fd5b61303d89611d62565b604080516001600160a01b039095168552602085019390935291830152606082015260800160405180910390a15b506001949350505050565b604051632c9f4b5b60e11b81527f161fca6912f107b0f13c9c7275de7391b32d2ea1c52ffba65a3c961880a0c60f600482015260009081906001600160a01b0384169063593e96b69060240160206040518083038186803b1580156130da57600080fd5b505afa1580156130ee573d6000803e3d6000fd5b505050506040513d601f19601f820116820180604052508101906131129190615ac5565b6040516370a0823160e01b815261111160048201529091506001600160a01b038216906370a0823190602401611e2b565b6040516317ba7d8560e01b81527f5443327e16211d6f6930defab8b33523e6990ea67a94b67a6f23dee03dbeb88d60048201526001600160a01b038316906317ba7d859060240160206040518083038186803b1580156131a257600080fd5b505afa1580156131b6573d6000803e3d6000fd5b505050506040513d601f19601f820116820180604052508101906131da9190615ac5565b6001600160a01b0316336001600160a01b03161415801561320157506131ff82615402565b155b1561321f576040516395383ea160e01b815260040160405180910390fd5b6001600160a01b03821660009081526001602052604090206132419082614653565b613267576001600160a01b03821660009081526001602052604090206127cf908261563b565b5050565b8143816001600160a01b031663b21634826040518163ffffffff1660e01b815260040160206040518083038186803b1580156132a657600080fd5b505afa1580156132ba573d6000803e3d6000fd5b505050506040513d601f19601f820116820180604052508101906132de9190615c59565b141561332c5760405162461bcd60e51b815260206004820152601060248201527f7265656e7472616e6379206775617264000000000000000000000000000000006044820152606401612136565b806001600160a01b03166310fdb0a26040518163ffffffff1660e01b8152600401600060405180830381600087803b15801561336757600080fd5b505af115801561337b573d6000803e3d6000fd5b505050508261338981615650565b6001600160a01b0316336001600160a01b0316146133a657600080fd5b670de0b6b3a7640000831080156133bd5750600083115b6133c657600080fd5b8260058190555050806001600160a01b031663d4f7af436040518163ffffffff1660e01b8152600401600060405180830381600087803b15801561340957600080fd5b505af115801561341d573d6000803e3d6000fd5b50505050505050565b6040516317ba7d8560e01b81527fa837e34a29b67bf52f684a1c93def79b84b9c012732becee4e5df62809df64ed60048201526001600160a01b038216906317ba7d859060240160206040518083038186803b15801561348557600080fd5b505afa158015613499573d6000803e3d6000fd5b505050506040513d601f19601f820116820180604052508101906134bd9190615ac5565b6001600160a01b0316336001600160a01b0316146134ee576040516395383ea160e01b815260040160405180910390fd5b6001600160a01b03166000908152602081905260409020805460ff19166001179055565b81600061351e8261437e565b90506135298461286a565b5060016001600160a01b03851660009081526020819052604090205460ff16600381111561356757634e487b7160e01b600052602160045260246000fd5b1480156136095750604051634941d71d60e11b81527f533afc15b6312917b5e28e2272ea69d44e5ea8e00d3bd57cada1275c2f14c9e860048201526001600160a01b03851690639283ae3a9060240160206040518083038186803b1580156135ce57600080fd5b505afa1580156135e2573d6000803e3d6000fd5b505050506040513d601f19601f820116820180604052508101906136069190615c59565b42105b80156136aa5750604051634941d71d60e11b81527fbd04d44792b7dbfe3b50b0f9f2006f7ef449e374a39021cb9bfa7cd0bdd850d760048201526001600160a01b03851690639283ae3a9060240160206040518083038186803b15801561366f57600080fd5b505afa158015613683573d6000803e3d6000fd5b505050506040513d601f19601f820116820180604052508101906136a79190615c59565b42115b806136ef575060036001600160a01b03851660009081526020819052604090205460ff1660038111156136ed57634e487b7160e01b600052602160045260246000fd5b145b80613744575060026001600160a01b03851660009081526020819052604090205460ff16600381111561373257634e487b7160e01b600052602160045260246000fd5b14801561374457506137448442610399565b80613829575060026001600160a01b03851660009081526020819052604090205460ff16600381111561378757634e487b7160e01b600052602160045260246000fd5b1480156138295750604051634941d71d60e11b81527f9ce69cf04065e3c7823cc5540c0598d8a694bd7a9a5a2a786d8bccf14ed6e2ea60048201526001600160a01b03851690639283ae3a9060240160206040518083038186803b1580156137ee57600080fd5b505afa158015613802573d6000803e3d6000fd5b505050506040513d601f19601f820116820180604052508101906138269190615c59565b42115b6138755760405162461bcd60e51b815260206004820152600960248201527f21776974686472617700000000000000000000000000000000000000000000006044820152606401612136565b604051632c9f4b5b60e11b81527f161fca6912f107b0f13c9c7275de7391b32d2ea1c52ffba65a3c961880a0c60f60048201526000906001600160a01b0386169063593e96b69060240160206040518083038186803b1580156138d757600080fd5b505afa1580156138eb573d6000803e3d6000fd5b505050506040513d601f19601f8201168201806040525081019061390f9190615ac5565b90506000816001600160a01b031663a87af66c6040518163ffffffff1660e01b815260040160206040518083038186803b15801561394c57600080fd5b505afa158015613960573d6000803e3d6000fd5b505050506040513d601f19601f820116820180604052508101906139849190615ac5565b9050600061399287336140b5565b9050600086116139ce576040517ffae8279100000000000000000000000000000000000000000000000000000000815260040160405180910390fd5b80861115613a08576040517f50b1f35600000000000000000000000000000000000000000000000000000000815260040160405180910390fd5b600060026001600160a01b03891660009081526020819052604090205460ff166003811115613a4757634e487b7160e01b600052602160045260246000fd5b148015613a595750613a598842610399565b15613c9157604051634941d71d60e11b81527f3e453820e0fc9cb9a1e799559661cf9c1db4cc7d7fbcb7e0fdaf884cbe29c3566004820152670de0b6b3a76400009088906001600160a01b038b1690639283ae3a9060240160206040518083038186803b158015613ac957600080fd5b505afa158015613add573d6000803e3d6000fd5b505050506040513d601f19601f82011682018060405250810190613b019190615c59565b613b0b9190615d87565b613b159190615d67565b90508015613c40576040517ffd310d290000000000000000000000000000000000000000000000000000000081527f413223451819ea6086aa50ab7585bb5d8320c60e0c5f010376962c3ca02e3cac60048201526001600160a01b038086169163e176b35e918b169063fd310d299060240160206040518083038186803b158015613b9f57600080fd5b505afa158015613bb3573d6000803e3d6000fd5b505050506040513d601f19601f82011682018060405250810190613bd79190615ac5565b6040516001600160e01b031960e084901b1681526001600160a01b039182166004820152908616602482015260448101849052606401600060405180830381600087803b158015613c2757600080fd5b505af1158015613c3b573d6000803e3d6000fd5b505050505b604080516001600160a01b038a168152336020820152908101889052606081018290527f233193f33678454f0c1aa43ef4c404770a64e4a160b5614d929d896cc10ec1509060800160405180910390a15b6001600160a01b03841663f3fef3a333613cab848b615dc4565b6040516001600160e01b031960e085901b1681526001600160a01b0390921660048301526024820152604401600060405180830381600087803b158015613cf157600080fd5b505af1158015613d05573d6000803e3d6000fd5b50506040517fe3a05cc10000000000000000000000000000000000000000000000000000000081523360048201526001600160a01b038681166024830152604482018b90528716925063e3a05cc19150606401600060405180830381600087803b158015613d7257600080fd5b505af1158015613d86573d6000803e3d6000fd5b50506040516317ba7d8560e01b81527fa837e34a29b67bf52f684a1c93def79b84b9c012732becee4e5df62809df64ed6004820152600092506001600160a01b038b1691506317ba7d859060240160206040518083038186803b158015613dec57600080fd5b505afa158015613e00573d6000803e3d6000fd5b505050506040513d601f19601f82011682018060405250810190613e249190615ac5565b6040516301c22a3d60e01b81526001600160a01b038b811660048301529192506000918316906301c22a3d9060240160206040518083038186803b158015613e6b57600080fd5b505afa158015613e7f573d6000803e3d6000fd5b505050506040513d601f19601f82011682018060405250810190613ea39190615c59565b90506000613eb18b336140b5565b11613f4257604051634fc0a76d60e01b81526001600160a01b038b8116600483015260009190841690634fc0a76d9060240160206040518083038186803b158015613efb57600080fd5b505afa158015613f0f573d6000803e3d6000fd5b505050506040513d601f19601f82011682018060405250810190613f339190615c59565b9050613f408b3383615733565b505b6001600160a01b038a166000908152600460209081526040808320848452825280832033845290915290205460ff1680156140125750604051634941d71d60e11b81527f533afc15b6312917b5e28e2272ea69d44e5ea8e00d3bd57cada1275c2f14c9e860048201526001600160a01b038b1690639283ae3a9060240160206040518083038186803b158015613fd757600080fd5b505afa158015613feb573d6000803e3d6000fd5b505050506040513d601f19601f8201168201806040525081019061400f9190615c59565b42105b15614050576001600160a01b038a166000908152600360209081526040808320848452909152812080548b929061404a908490615dc4565b90915550505b7fd432fbc5f79eaeefd01acbebd76cf4b0d5f43d8372c2fd3e23761c06a60a75f18a61407c858c615dc4565b604080516001600160a01b0390931683526020830191909152339082015260600160405180910390a1505050505050611d3a82826146d3565b604051632c9f4b5b60e11b81527f161fca6912f107b0f13c9c7275de7391b32d2ea1c52ffba65a3c961880a0c60f600482015260009081906001600160a01b0385169063593e96b69060240160206040518083038186803b15801561411957600080fd5b505afa15801561412d573d6000803e3d6000fd5b505050506040513d601f19601f820116820180604052508101906141519190615ac5565b6040516370a0823160e01b81526001600160a01b038581166004830152919250908216906370a082319060240160206040518083038186803b15801561419657600080fd5b505afa1580156141aa573d6000803e3d6000fd5b505050506040513d601f19601f820116820180604052508101906141ce9190615c59565b949350505050565b6040516317ba7d8560e01b81527f145d8ebc4d7403f3cd60312331619ffb262c52c22bedf24c0148027dd4be3b0160048201526001600160a01b038216906317ba7d859060240160206040518083038186803b15801561423557600080fd5b505afa158015614249573d6000803e3d6000fd5b505050506040513d601f19601f8201168201806040525081019061426d9190615ac5565b6001600160a01b0316336001600160a01b03161461429e576040516395383ea160e01b815260040160405180910390fd5b6001600160a01b03811660009081526001602052604081206142bf90614371565b516001600160a01b03831660009081526001602052604090209091506060906142e790614371565b905081156127cf5760005b828160ff161015611d3a5761435e828260ff168151811061432357634e487b7160e01b600052603260045260246000fd5b602002602001015160016000876001600160a01b03166001600160a01b0316815260200190815260200160002061575c90919063ffffffff16565b508061436981615ddb565b9150506142f2565b6060600061071983615771565b6040805160808101825260008082526020820181905291810182905260608101919091525a81600001818152505043826001600160a01b031663b21634826040518163ffffffff1660e01b815260040160206040518083038186803b1580156143e657600080fd5b505afa1580156143fa573d6000803e3d6000fd5b505050506040513d601f19601f8201168201806040525081019061441e9190615c59565b141561446c5760405162461bcd60e51b815260206004820152601060248201527f7265656e7472616e6379206775617264000000000000000000000000000000006044820152606401612136565b816001600160a01b03166310fdb0a26040518163ffffffff1660e01b8152600401600060405180830381600087803b1580156144a757600080fd5b505af11580156144bb573d6000803e3d6000fd5b50506040517f72c6838f0000000000000000000000000000000000000000000000000000000081527f1f2fd42ad6a6cacd573c4b212beb7a4e2499ad45d742a65337097f130e71daff6004820152600092506001600160a01b03851691506372c6838f9060240160206040518083038186803b15801561453a57600080fd5b505afa15801561454e573d6000803e3d6000fd5b505050506040513d601f19601f820116820180604052508101906145729190615ac5565b90506001600160a01b03811661458e5760006020830152614643565b6001600160a01b038181166060840181905283516040517f43a8a3f1000000000000000000000000000000000000000000000000000000008152928616600484015260248301526000918291906343a8a3f190604401604080518083038186803b1580156145fb57600080fd5b505afa15801561460f573d6000803e3d6000fd5b505050506040513d601f19601f820116820180604052508101906146339190615c2e565b9015156020860152604085015250505b50919050565b6000610393825490565b6001600160a01b03811660009081526001830160205260408120541515610719565b6001600160a01b038316600090815260026020908152604080832084845290915290206146a29083614653565b6127cf576001600160a01b03831660009081526002602090815260408083208484529091529020611d3a908361563b565b6132678282336157cd565b6000806146ea836158a6565b604051632c9f4b5b60e11b81527f161fca6912f107b0f13c9c7275de7391b32d2ea1c52ffba65a3c961880a0c60f600482015290915060009081906001600160a01b0386169063593e96b69060240160206040518083038186803b15801561475157600080fd5b505afa158015614765573d6000803e3d6000fd5b505050506040513d601f19601f820116820180604052508101906147899190615ac5565b8351909150156148775760005b83518160ff16101561487557816001600160a01b03166370a08231858360ff16815181106147d457634e487b7160e01b600052603260045260246000fd5b60200260200101516040518263ffffffff1660e01b815260040161480791906001600160a01b0391909116815260200190565b60206040518083038186803b15801561481f57600080fd5b505afa158015614833573d6000803e3d6000fd5b505050506040513d601f19601f820116820180604052508101906148579190615c59565b6148619084615d4f565b92508061486d81615ddb565b915050614796565b505b509392505050565b6040805161014081018252600080825260208201819052818301819052606082018190526080820181905260a0820181905260c0820181905260e0820181905261010082018190526101208201529051634941d71d60e11b81527fbe07eea886ce63e8ab49ef6fd986e9dea247fbb31da43dd1df3e153cc548277a60048201526001600160a01b03831690639283ae3a9060240160206040518083038186803b15801561492b57600080fd5b505afa15801561493f573d6000803e3d6000fd5b505050506040513d601f19601f820116820180604052508101906149639190615c59565b6001148015614a0f5750604051634941d71d60e11b81527f7e07fb4530796d057ca1d76d83f47aa8629dbb7e942ac28f30ad6f5e9e8d418960048201526001600160a01b03831690639283ae3a9060240160206040518083038186803b1580156149cc57600080fd5b505afa1580156149e0573d6000803e3d6000fd5b505050506040513d601f19601f82011682018060405250810190614a049190615c59565b614a0d83611d62565b115b1561326757604051632c9f4b5b60e11b81527f161fca6912f107b0f13c9c7275de7391b32d2ea1c52ffba65a3c961880a0c60f60048201526001600160a01b0383169063593e96b69060240160206040518083038186803b158015614a7357600080fd5b505afa158015614a87573d6000803e3d6000fd5b505050506040513d601f19601f82011682018060405250810190614aab9190615ac5565b6001600160a01b0316808252604080517fb2f5a54c00000000000000000000000000000000000000000000000000000000815290516000929163b2f5a54c9160048083019286929190829003018186803b158015614b0857600080fd5b505afa158015614b1c573d6000803e3d6000fd5b505050506040513d6000823e601f3d908101601f19168201604052614b449190810190615b4d565b9050600082602001818152505081600001516001600160a01b031663a87af66c6040518163ffffffff1660e01b815260040160206040518083038186803b158015614b8e57600080fd5b505afa158015614ba2573d6000803e3d6000fd5b505050506040513d601f19601f82011682018060405250810190614bc69190615ac5565b6001600160a01b03908116604084810191909152516317ba7d8560e01b81527fa837e34a29b67bf52f684a1c93def79b84b9c012732becee4e5df62809df64ed6004820152908416906317ba7d859060240160206040518083038186803b158015614c3057600080fd5b505afa158015614c44573d6000803e3d6000fd5b505050506040513d601f19601f82011682018060405250810190614c689190615ac5565b6001600160a01b0390811660608401819052604051634fc0a76d60e01b8152918516600483015290634fc0a76d9060240160206040518083038186803b158015614cb157600080fd5b505afa158015614cc5573d6000803e3d6000fd5b505050506040513d601f19601f82011682018060405250810190614ce99190615c59565b60808301526040516317ba7d8560e01b81527f6a687e96f72a484e38a32d2ee3b61626294e792821961a90ce9a98d1999252d560048201526001600160a01b038416906317ba7d859060240160206040518083038186803b158015614d4d57600080fd5b505afa158015614d61573d6000803e3d6000fd5b505050506040513d601f19601f82011682018060405250810190614d859190615ac5565b6001600160a01b0390811660a0840152604051634941d71d60e11b81527f7e07fb4530796d057ca1d76d83f47aa8629dbb7e942ac28f30ad6f5e9e8d4189600482015290841690639283ae3a9060240160206040518083038186803b158015614ded57600080fd5b505afa158015614e01573d6000803e3d6000fd5b505050506040513d601f19601f82011682018060405250810190614e259190615c59565b60c083015260608201516040516301c22a3d60e01b81526001600160a01b038581166004830152909116906301c22a3d9060240160206040518083038186803b158015614e7157600080fd5b505afa158015614e85573d6000803e3d6000fd5b505050506040513d601f19601f82011682018060405250810190614ea99190615c59565b61012083019081526001600160a01b038416600090815260036020908152604080832093518352929052205460e0830152614ee383611d62565b61010083015260005b81518160ff161015611d3a578260c001518360e001511061502a576001600160a01b0384166000908152600460209081526040808320610120870151845290915281208351909190849060ff8516908110614f5757634e487b7160e01b600052603260045260246000fd5b6020908102919091018101516001600160a01b031682528101919091526040016000205460ff1615615003578260e001518360c00151614fb486858560ff168151811061242657634e487b7160e01b600052603260045260246000fd5b614fbe9190615d87565b614fc89190615d67565b614fef85848460ff168151811061242657634e487b7160e01b600052603260045260246000fd5b614ff99190615dc4565b602084015261514d565b614ff984838360ff168151811061242657634e487b7160e01b600052603260045260246000fd5b6001600160a01b0384166000908152600460209081526040808320610120870151845290915281208351909190849060ff851690811061507a57634e487b7160e01b600052603260045260246000fd5b6020908102919091018101516001600160a01b031682528101919091526040016000205460ff16156150b2576000602084015261514d565b8260e001518361010001516150c79190615dc4565b8360e001518460c001516150db9190615dc4565b61510286858560ff168151811061242657634e487b7160e01b600052603260045260246000fd5b61510c9190615d87565b6151169190615d67565b61513d85848460ff168151811061242657634e487b7160e01b600052603260045260246000fd5b6151479190615dc4565b60208401525b6020830151156153f0578260a001516001600160a01b03166365017e838585608001518660400151868660ff168151811061519857634e487b7160e01b600052603260045260246000fd5b602002602001015188602001516040518663ffffffff1660e01b81526004016151f39594939291906001600160a01b039586168152602081019490945291841660408401529092166060820152608081019190915260a00190565b600060405180830381600087803b15801561520d57600080fd5b505af1158015615221573d6000803e3d6000fd5b505084516040516317ba7d8560e01b81527f6a687e96f72a484e38a32d2ee3b61626294e792821961a90ce9a98d1999252d560048201526001600160a01b03918216935063e176b35e9250908716906317ba7d859060240160206040518083038186803b15801561529157600080fd5b505afa1580156152a5573d6000803e3d6000fd5b505050506040513d601f19601f820116820180604052508101906152c99190615ac5565b604080870151602088015191516001600160e01b031960e086901b1681526001600160a01b039384166004820152921660248301526044820152606401600060405180830381600087803b15801561532057600080fd5b505af1158015615334573d6000803e3d6000fd5b5050505082600001516001600160a01b031663e3a05cc1838360ff168151811061536e57634e487b7160e01b600052603260045260246000fd5b6020026020010151856040015186602001516040518463ffffffff1660e01b81526004016153bd939291906001600160a01b039384168152919092166020820152604081019190915260600190565b600060405180830381600087803b1580156153d757600080fd5b505af11580156153eb573d6000803e3d6000fd5b505050505b806153fa81615ddb565b915050614eec565b600080826001600160a01b031663c19d93fb6040518163ffffffff1660e01b815260040160206040518083038186803b15801561543e57600080fd5b505afa158015615452573d6000803e3d6000fd5b505050506040513d601f19601f820116820180604052508101906154769190615cbb565b600181111561549557634e487b7160e01b600052602160045260246000fd5b1480156103935750816001600160a01b031663c67143666040518163ffffffff1660e01b815260040160206040518083038186803b1580156154d657600080fd5b505afa1580156154ea573d6000803e3d6000fd5b505050506040513d601f19601f8201168201806040525081019061550e9190615c59565b15806155a557506040517fa230c5240000000000000000000000000000000000000000000000000000000081523360048201526001600160a01b0383169063a230c5249060240160206040518083038186803b15801561556d57600080fd5b505afa158015615581573d6000803e3d6000fd5b505050506040513d601f19601f820116820180604052508101906155a59190615c14565b8061039357506040517f68c18beb0000000000000000000000000000000000000000000000000000000081523360048201526001600160a01b038316906368c18beb9060240160206040518083038186803b15801561560357600080fd5b505afa158015615617573d6000803e3d6000fd5b505050506040513d601f19601f820116820180604052508101906103939190615c14565b6000610719836001600160a01b03841661591d565b6000816001600160a01b03166348f7f2a36040518163ffffffff1660e01b815260040160206040518083038186803b15801561568b57600080fd5b505afa15801561569f573d6000803e3d6000fd5b505050506040513d601f19601f820116820180604052508101906156c39190615ac5565b6001600160a01b0316638da5cb5b6040518163ffffffff1660e01b815260040160206040518083038186803b1580156156fb57600080fd5b505afa15801561570f573d6000803e3d6000fd5b505050506040513d601f19601f820116820180604052508101906103939190615ac5565b6001600160a01b03831660009081526002602090815260408083208484529091529020611d3a90835b6000610719836001600160a01b03841661596c565b6060816000018054806020026020016040519081016040528092919081815260200182805480156157c157602002820191906000526020600020905b8154815260200190600101908083116157ad575b50505050509050919050565b81602001511561586b5781606001516001600160a01b0316635e5eb01384835a86516157f99190615dc4565b60408088015190516001600160e01b031960e087901b1681526001600160a01b03948516600482015293909216602484015260448301526064820152608401600060405180830381600087803b15801561585257600080fd5b505af1158015615866573d6000803e3d6000fd5b505050505b826001600160a01b031663d4f7af436040518163ffffffff1660e01b8152600401600060405180830381600087803b15801561340957600080fd5b6060816001600160a01b031663a6f636416040518163ffffffff1660e01b815260040160006040518083038186803b1580156158e157600080fd5b505afa1580156158f5573d6000803e3d6000fd5b505050506040513d6000823e601f3d908101601f191682016040526103939190810190615b4d565b600081815260018301602052604081205461596457508154600181810184556000848152602080822090930184905584548482528286019093526040902091909155610393565b506000610393565b60008181526001830160205260408120548015615a7f576000615990600183615dc4565b85549091506000906159a490600190615dc4565b9050818114615a255760008660000182815481106159d257634e487b7160e01b600052603260045260246000fd5b9060005260206000200154905080876000018481548110615a0357634e487b7160e01b600052603260045260246000fd5b6000918252602080832090910192909255918252600188019052604090208390555b8554869080615a4457634e487b7160e01b600052603160045260246000fd5b600190038181906000526020600020016000905590558560010160008681526020019081526020016000206000905560019350505050610393565b6000915050610393565b8051615a9481615e27565b919050565b80518015158114615a9457600080fd5b600060208284031215615aba578081fd5b813561071981615e27565b600060208284031215615ad6578081fd5b815161071981615e27565b60008060408385031215615af3578081fd5b8235615afe81615e27565b946020939093013593505050565b600080600060608486031215615b20578081fd5b8335615b2b81615e27565b9250602084013591506040840135615b4281615e27565b809150509250925092565b60006020808385031215615b5f578182fd5b825167ffffffffffffffff80821115615b76578384fd5b818501915085601f830112615b89578384fd5b815181811115615b9b57615b9b615e11565b8060051b604051601f19603f83011681018181108582111715615bc057615bc0615e11565b604052828152858101935084860182860187018a1015615bde578788fd5b8795505b83861015615c0757615bf381615a89565b855260019590950194938601938601615be2565b5098975050505050505050565b600060208284031215615c25578081fd5b61071982615a99565b60008060408385031215615c40578182fd5b615c4983615a99565b9150602083015190509250929050565b600060208284031215615c6a578081fd5b5051919050565b60008060408385031215615c83578182fd5b8235615c8e81615e27565b91506020830135615c9e81615e27565b809150509250929050565b60008060408385031215615af3578182fd5b600060208284031215615ccc578081fd5b815160028110610719578182fd5b6020808252825182820181905260009190848201906040850190845b81811015615d1b5783516001600160a01b031683529284019291840191600101615cf6565b50909695505050505050565b6020810160048310615d4957634e487b7160e01b600052602160045260246000fd5b91905290565b60008219821115615d6257615d62615dfb565b500190565b600082615d8257634e487b7160e01b81526012600452602481fd5b500490565b6000817fffffffffffffffffffffffffffffffffffffffffffffffffffffffffffffffff0483118215151615615dbf57615dbf615dfb565b500290565b600082821015615dd657615dd6615dfb565b500390565b600060ff821660ff811415615df257615df2615dfb565b60010192915050565b634e487b7160e01b600052601160045260246000fd5b634e487b7160e01b600052604160045260246000fd5b6001600160a01b0381168114615e3c57600080fd5b5056fea2646970667358221220d4df863265c65483cf3738abe4d4aa920ea4638a2955324aa9b75406378b028464736f6c63430008040033",
  "linkReferences": {},
  "deployedLinkReferences": {}
}