{
  "_format": "hh-sol-artifact-1",
  "contractName": "VintageDaoSetAdapterContract",
  "sourceName": "contracts/vintage/adapters/VintageDaoSetAdapter.sol",
  "abi": [
    {
      "inputs": [],
      "name": "DAO_SET_PROPOSAL_NOT_FINALIZED",
      "type": "error"
    },
    {
      "inputs": [],
      "name": "INVALID_ALLOC_PARAMS",
      "type": "error"
    },
    {
      "inputs": [],
      "name": "OPERATION_PROPOSALS_NOT_DONE",
      "type": "error"
    },
    {
      "inputs": [],
      "name": "VOTING_NOT_FINISH",
      "type": "error"
    },
    {
      "anonymous": false,
      "inputs": [
        {
          "indexed": false,
          "internalType": "address",
          "name": "daoAddr",
          "type": "address"
        },
        {
          "indexed": false,
          "internalType": "bytes32",
          "name": "proposalId",
          "type": "bytes32"
        },
        {
          "indexed": false,
          "internalType": "enum VintageDaoSetAdapterContract.ProposalType",
          "name": "pType",
          "type": "uint8"
        }
      ],
      "name": "ProposalCreated",
      "type": "event"
    },
    {
      "anonymous": false,
      "inputs": [
        {
          "indexed": false,
          "internalType": "address",
          "name": "daoAddr",
          "type": "address"
        },
        {
          "indexed": false,
          "internalType": "bytes32",
          "name": "proposalId",
          "type": "bytes32"
        },
        {
          "indexed": false,
          "internalType": "enum VintageDaoSetAdapterContract.ProposalState",
          "name": "state",
          "type": "uint8"
        },
        {
          "indexed": false,
          "internalType": "uint256",
          "name": "voteResult",
          "type": "uint256"
        },
        {
          "indexed": false,
          "internalType": "uint128",
          "name": "allVotingWeight",
          "type": "uint128"
        },
        {
          "indexed": false,
          "internalType": "uint128",
          "name": "nbYes",
          "type": "uint128"
        },
        {
          "indexed": false,
          "internalType": "uint128",
          "name": "nbNo",
          "type": "uint128"
        }
      ],
      "name": "ProposalProcessed",
      "type": "event"
    },
    {
      "inputs": [
        {
          "internalType": "bytes32",
          "name": "proposalId",
          "type": "bytes32"
        }
      ],
      "name": "getinvestorMembershipWhiteLists",
      "outputs": [
        {
          "internalType": "address[]",
          "name": "",
          "type": "address[]"
        }
      ],
      "stateMutability": "view",
      "type": "function"
    },
    {
      "inputs": [
        {
          "internalType": "address",
          "name": "",
          "type": "address"
        },
        {
          "internalType": "bytes32",
          "name": "",
          "type": "bytes32"
        }
      ],
      "name": "governorMembershipProposals",
      "outputs": [
        {
          "internalType": "bytes32",
          "name": "proposalId",
          "type": "bytes32"
        },
        {
          "internalType": "string",
          "name": "name",
          "type": "string"
        },
        {
          "internalType": "bool",
          "name": "enable",
          "type": "bool"
        },
        {
          "internalType": "uint8",
          "name": "varifyType",
          "type": "uint8"
        },
        {
          "internalType": "uint256",
          "name": "minAmount",
          "type": "uint256"
        },
        {
          "internalType": "address",
          "name": "tokenAddress",
          "type": "address"
        },
        {
          "internalType": "uint256",
          "name": "tokenId",
          "type": "uint256"
        },
        {
          "internalType": "uint256",
          "name": "creationTime",
          "type": "uint256"
        },
        {
          "internalType": "uint256",
          "name": "stopVoteTime",
          "type": "uint256"
        },
        {
          "internalType": "enum VintageDaoSetAdapterContract.ProposalState",
          "name": "state",
          "type": "uint8"
        }
      ],
      "stateMutability": "view",
      "type": "function"
    },
    {
      "inputs": [
        {
          "internalType": "address",
          "name": "daoAddr",
          "type": "address"
        }
      ],
      "name": "isProposalAllDone",
      "outputs": [
        {
          "internalType": "bool",
          "name": "",
          "type": "bool"
        }
      ],
      "stateMutability": "view",
      "type": "function"
    },
    {
      "inputs": [
        {
          "internalType": "address",
          "name": "",
          "type": "address"
        }
      ],
      "name": "ongoingGovernorMembershipProposal",
      "outputs": [
        {
          "internalType": "bytes32",
          "name": "",
          "type": "bytes32"
        }
      ],
      "stateMutability": "view",
      "type": "function"
    },
    {
      "inputs": [
        {
          "internalType": "address",
          "name": "",
          "type": "address"
        }
      ],
      "name": "ongoingVotingProposal",
      "outputs": [
        {
          "internalType": "bytes32",
          "name": "",
          "type": "bytes32"
        }
      ],
      "stateMutability": "view",
      "type": "function"
    },
    {
      "inputs": [
        {
          "internalType": "contract DaoRegistry",
          "name": "dao",
          "type": "address"
        },
        {
          "internalType": "bytes32",
          "name": "proposalId",
          "type": "bytes32"
        }
      ],
      "name": "processGovernorMembershipProposal",
      "outputs": [],
      "stateMutability": "nonpayable",
      "type": "function"
    },
    {
      "inputs": [
        {
          "internalType": "contract DaoRegistry",
          "name": "dao",
          "type": "address"
        },
        {
          "internalType": "bytes32",
          "name": "proposalId",
          "type": "bytes32"
        }
      ],
      "name": "processVotingProposal",
      "outputs": [],
      "stateMutability": "nonpayable",
      "type": "function"
    },
    {
      "inputs": [
        {
          "components": [
            {
              "internalType": "contract DaoRegistry",
              "name": "dao",
              "type": "address"
            },
            {
              "internalType": "string",
              "name": "name",
              "type": "string"
            },
            {
              "internalType": "bool",
              "name": "enable",
              "type": "bool"
            },
            {
              "internalType": "uint8",
              "name": "varifyType",
              "type": "uint8"
            },
            {
              "internalType": "uint256",
              "name": "minAmount",
              "type": "uint256"
            },
            {
              "internalType": "address",
              "name": "tokenAddress",
              "type": "address"
            },
            {
              "internalType": "uint256",
              "name": "tokenId",
              "type": "uint256"
            },
            {
              "internalType": "address[]",
              "name": "whiteList",
              "type": "address[]"
            }
          ],
          "internalType": "struct VintageDaoSetAdapterContract.GovernorMembershipParams",
          "name": "params",
          "type": "tuple"
        }
      ],
      "name": "submitGovernorMembershipProposal",
      "outputs": [],
      "stateMutability": "nonpayable",
      "type": "function"
    },
    {
      "inputs": [
        {
          "internalType": "contract DaoRegistry",
          "name": "dao",
          "type": "address"
        },
        {
          "components": [
            {
              "internalType": "uint256",
              "name": "votingAssetType",
              "type": "uint256"
            },
            {
              "internalType": "address",
              "name": "tokenAddress",
              "type": "address"
            },
            {
              "internalType": "uint256",
              "name": "tokenID",
              "type": "uint256"
            },
            {
              "internalType": "uint256",
              "name": "votingWeightedType",
              "type": "uint256"
            },
            {
              "internalType": "uint256",
              "name": "supportType",
              "type": "uint256"
            },
            {
              "internalType": "uint256",
              "name": "quorumType",
              "type": "uint256"
            },
            {
              "internalType": "uint256",
              "name": "support",
              "type": "uint256"
            },
            {
              "internalType": "uint256",
              "name": "quorum",
              "type": "uint256"
            },
            {
              "internalType": "uint256",
              "name": "votingPeriod",
              "type": "uint256"
            },
            {
              "internalType": "uint256",
              "name": "executingPeriod",
              "type": "uint256"
            },
            {
              "internalType": "address[]",
              "name": "governors",
              "type": "address[]"
            },
            {
              "internalType": "uint256[]",
              "name": "allocations",
              "type": "uint256[]"
            }
          ],
          "internalType": "struct VintageDaoSetAdapterContract.VotingParams",
          "name": "params",
          "type": "tuple"
        }
      ],
      "name": "submitVotingProposal",
      "outputs": [],
      "stateMutability": "nonpayable",
      "type": "function"
    },
    {
      "inputs": [
        {
          "internalType": "address",
          "name": "",
          "type": "address"
        },
        {
          "internalType": "bytes32",
          "name": "",
          "type": "bytes32"
        }
      ],
      "name": "votingProposals",
      "outputs": [
        {
          "internalType": "bytes32",
          "name": "proposalId",
          "type": "bytes32"
        },
        {
          "components": [
            {
              "internalType": "uint256",
              "name": "supportType",
              "type": "uint256"
            },
            {
              "internalType": "uint256",
              "name": "quorumType",
              "type": "uint256"
            },
            {
              "internalType": "uint256",
              "name": "support",
              "type": "uint256"
            },
            {
              "internalType": "uint256",
              "name": "quorum",
              "type": "uint256"
            }
          ],
          "internalType": "struct VintageDaoSetAdapterContract.VotingSupportInfo",
          "name": "supportInfo",
          "type": "tuple"
        },
        {
          "components": [
            {
              "internalType": "uint256",
              "name": "votingAssetType",
              "type": "uint256"
            },
            {
              "internalType": "address",
              "name": "tokenAddress",
              "type": "address"
            },
            {
              "internalType": "uint256",
              "name": "tokenID",
              "type": "uint256"
            },
            {
              "internalType": "uint256",
              "name": "votingWeightedType",
              "type": "uint256"
            }
          ],
          "internalType": "struct VintageDaoSetAdapterContract.VotingAssetInfo",
          "name": "votingAssetInfo",
          "type": "tuple"
        },
        {
          "components": [
            {
              "internalType": "uint256",
              "name": "votingPeriod",
              "type": "uint256"
            },
            {
              "internalType": "uint256",
              "name": "executingPeriod",
              "type": "uint256"
            },
            {
              "internalType": "uint256",
              "name": "creationTime",
              "type": "uint256"
            },
            {
              "internalType": "uint256",
              "name": "stopVoteTime",
              "type": "uint256"
            }
          ],
          "internalType": "struct VintageDaoSetAdapterContract.VotingTimeInfo",
          "name": "timeInfo",
          "type": "tuple"
        },
        {
          "components": [
            {
              "internalType": "uint256[]",
              "name": "allocations",
              "type": "uint256[]"
            }
          ],
          "internalType": "struct VintageDaoSetAdapterContract.VotingAllocs",
          "name": "allocs",
          "type": "tuple"
        },
        {
          "internalType": "enum VintageDaoSetAdapterContract.ProposalState",
          "name": "state",
          "type": "uint8"
        }
      ],
      "stateMutability": "view",
      "type": "function"
    }
  ],
  "bytecode": "0x608060405234801561001057600080fd5b50614865806100206000396000f3fe608060405234801561001057600080fd5b50600436106100be5760003560e01c80639a0242fc11610076578063b377308f1161005b578063b377308f14610198578063b6939b7f146101ab578063be217625146101d957600080fd5b80639a0242fc14610162578063a860dfdd1461018557600080fd5b80631eb1cf39116100a75780631eb1cf3914610111578063731dac7d1461013a5780638e3588dc1461014f57600080fd5b80630bae2341146100c35780631d625e24146100ec575b600080fd5b6100d66100d1366004613f18565b6101f9565b6040516100e3919061426d565b60405180910390f35b6100ff6100fa366004613dc1565b610219565b6040516100e3969594939291906142f5565b61012461011f366004613dc1565b61032f565b6040516100e39a99989796959493929190614280565b61014d610148366004613f42565b610426565b005b61014d61015d366004613f30565b610c1f565b610175610170366004613d89565b610f93565b60405190151581526020016100e3565b61014d610193366004613f30565b610fe5565b61014d6101a6366004613ffd565b6112f3565b6101cb6101b9366004613d89565b60016020526000908152604090205481565b6040519081526020016100e3565b6101cb6101e7366004613d89565b60006020819052908152604090205481565b600081815260056020526040902060609061021390611a3c565b92915050565b600360208181526000938452604080852082529284529282902080548351608080820186526001840154825260028401548288015293830154818601526004830154606080830191909152855180860187526005850154815260068501546001600160a01b0316818901526007850154818801526008850154818301528651958601875260098501548652600a85015486890152600b85015486880152600c850154918601919091528551600d85018054808a02830189018952988201898152949893979296959491939092849291849184018282801561031957602002820191906000526020600020905b815481526020019060010190808311610305575b50505091909252505050600e9091015460ff1686565b60026020908152600092835260408084209091529082529020805460018201805491929161035c90614707565b80601f016020809104026020016040519081016040528092919081815260200182805461038890614707565b80156103d55780601f106103aa576101008083540402835291602001916103d5565b820191906000526020600020905b8154815290600101906020018083116103b857829003601f168201915b505050600284015460038501546004860154600587015460068801546007890154600890990154979860ff80871699610100909704811698509496506001600160a01b03909316949193909291168a565b816104318133611a50565b6001600160a01b038316600090815260208190526040902054839015158061047057506001600160a01b03811660009081526001602052604090205415155b156104a7576040517f8d875d9000000000000000000000000000000000000000000000000000000000815260040160405180910390fd5b8360006104b382611b37565b6040516317ba7d8560e01b81527f145d8ebc4d7403f3cd60312331619ffb262c52c22bedf24c0148027dd4be3b0160048201529091506001600160a01b038716906317ba7d859060240160206040518083038186803b15801561051557600080fd5b505afa158015610529573d6000803e3d6000fd5b505050506040513d601f19601f8201168201806040525081019061054d9190613da5565b6040517fd1fa9e100000000000000000000000000000000000000000000000000000000081526001600160a01b038881166004830152919091169063d1fa9e109060240160206040518083038186803b1580156105a957600080fd5b505afa1580156105bd573d6000803e3d6000fd5b505050506040513d601f19601f820116820180604052508101906105e19190613ecf565b610617576040517f206e98dc00000000000000000000000000000000000000000000000000000000815260040160405180910390fd5b6106256101608601866145d0565b90506106356101408701876145d0565b90501461066e576040517f8ea9ca9200000000000000000000000000000000000000000000000000000000815260040160405180910390fd5b61067786611e02565b856001600160a01b0316631bc0f7876040518163ffffffff1660e01b8152600401600060405180830381600087803b1580156106b257600080fd5b505af11580156106c6573d6000803e3d6000fd5b5050505060006107718760c01b61074c896001600160a01b031663656f9f996040518163ffffffff1660e01b815260040160206040518083038186803b15801561070f57600080fd5b505afa158015610723573d6000803e3d6000fd5b505050506040513d601f19601f820116820180604052508101906107479190614050565b61220d565b60405160200161075d929190614105565b604051602081830303815290604052612363565b90506040518060c001604052808281526020016040518060800160405280896080013581526020018960a0013581526020018960c0013581526020018960e0013581525081526020016040518060800160405280896000013581526020018960200160208101906107e29190613d89565b6001600160a01b0316815260200189604001358152602001896060013581525081526020016040518060800160405280896101000135815260200189610120013581526020014281526020018a6001600160a01b0316639283ae3a7f9876c0f0505bfb2b1c38d3bbd25ba13159172cd0868972d76927723f5a9480fc6040518263ffffffff1660e01b815260040161087c91815260200190565b60206040518083038186803b15801561089457600080fd5b505afa1580156108a8573d6000803e3d6000fd5b505050506040513d601f19601f820116820180604052508101906108cc9190614050565b6108d69042614698565b81525081526020016040518060200160405280898061014001906108fa91906145d0565b905067ffffffffffffffff81111561092257634e487b7160e01b600052604160045260246000fd5b60405190808252806020026020018201604052801561094b578160200160208202803683370190505b5090528152602001600090526001600160a01b038881166000908152600360208181526040808420878552825292839020855181558582015180516001830155808301516002830155808501519382019390935560609283015160048201558584015180516005830155808301516006830180547fffffffffffffffffffffffff0000000000000000000000000000000000000000169190971617909555848401516007820155938201516008850155818501518051600986015580820151600a86015592830151600b850155910151600c8301556080830151805180519192600d850192610a3d9284920190613c86565b50505060a0820151600e8201805460ff19166001836003811115610a7157634e487b7160e01b600052602160045260246000fd5b021790555050506001600160a01b0387166000908152600160205260408120829055610aa16101408801886145d0565b90501115610bc65760005b610aba6101408801886145d0565b90508160ff161015610bc457610ad46101608801886145d0565b8260ff16818110610af557634e487b7160e01b600052603260045260246000fd5b6001600160a01b038b1660009081526003602090815260408083208884528252909120600d01805492909102939093013592915060ff8416908110610b4a57634e487b7160e01b600052603260045260246000fd5b600091825260209091200155610bb1610b676101408901896145d0565b8360ff16818110610b8857634e487b7160e01b600052603260045260246000fd5b9050602002016020810190610b9d9190613d89565b60008481526006602052604090209061237f565b5080610bbc81614775565b915050610aac565b505b610bd08782612394565b7fa65d0c07e3b0d876ee52e871c234a4b150b9bf17a08f356f5aeda8d6782cc31a87826003604051610c049392919061423f565b60405180910390a150610c1782826125ae565b505050505050565b816000610c2b82611b37565b6001600160a01b03851660008181526002602090815260408083208884529091529081902090517f30490e9100000000000000000000000000000000000000000000000000000000815260048101879052929350916330490e9190602401600060405180830381600087803b158015610ca357600080fd5b505af1158015610cb7573d6000803e3d6000fd5b50506040516317ba7d8560e01b81527fd3999c37f8f35da86f802a74f9bf032c4aeb46e49abd9c861f489ef4cb40d0a86004820152600092506001600160a01b03881691506317ba7d859060240160206040518083038186803b158015610d1d57600080fd5b505afa158015610d31573d6000803e3d6000fd5b505050506040513d601f19601f82011682018060405250810190610d559190613da5565b6040517f76225e730000000000000000000000000000000000000000000000000000000081526001600160a01b03888116600483015260248201889052919250600091829182918516906376225e7390604401606060405180830381600087803b158015610dc257600080fd5b505af1158015610dd6573d6000803e3d6000fd5b505050506040513d601f19601f82011682018060405250810190610dfa9190613fb6565b919450925090506002836005811115610e2357634e487b7160e01b600052602160045260246000fd5b1415610e4f57610e3389866125b9565b6008850180546002919060ff19166001835b0217905550610ee9565b6003836005811115610e7157634e487b7160e01b600052602160045260246000fd5b1480610e9c57506001836005811115610e9a57634e487b7160e01b600052602160045260246000fd5b145b15610eb7576008850180546003919060ff1916600183610e45565b6040517f70fc772800000000000000000000000000000000000000000000000000000000815260040160405180910390fd5b6001600160a01b0389166000908152602081905260408120819055610f0e8a8a6126da565b60088701549091507fe0867d363777a6ada708063230ad9d25fe940a2b5913de073948e222345816b2908b908b9060ff16876005811115610f5f57634e487b7160e01b600052602160045260246000fd5b858888604051610f7597969594939291906141e1565b60405180910390a1505050505050610f8d82826125ae565b50505050565b6001600160a01b038116600090815260208190526040812054151580610fd057506001600160a01b03821660009081526001602052604090205415155b15610fdd57506000919050565b506001919050565b816000610ff182611b37565b6001600160a01b03851660008181526003602090815260408083208884529091529081902090517f30490e9100000000000000000000000000000000000000000000000000000000815260048101879052929350916330490e9190602401600060405180830381600087803b15801561106957600080fd5b505af115801561107d573d6000803e3d6000fd5b50506040516317ba7d8560e01b81527fd3999c37f8f35da86f802a74f9bf032c4aeb46e49abd9c861f489ef4cb40d0a86004820152600092506001600160a01b03881691506317ba7d859060240160206040518083038186803b1580156110e357600080fd5b505afa1580156110f7573d6000803e3d6000fd5b505050506040513d601f19601f8201168201806040525081019061111b9190613da5565b6040517f76225e730000000000000000000000000000000000000000000000000000000081526001600160a01b03888116600483015260248201889052919250600091829182918516906376225e7390604401606060405180830381600087803b15801561118857600080fd5b505af115801561119c573d6000803e3d6000fd5b505050506040513d601f19601f820116820180604052508101906111c09190613fb6565b9194509250905060028360058111156111e957634e487b7160e01b600052602160045260246000fd5b1415611215576111f98986612a06565b600e850180546002919060ff19166001835b021790555061127d565b600383600581111561123757634e487b7160e01b600052602160045260246000fd5b14806112625750600183600581111561126057634e487b7160e01b600052602160045260246000fd5b145b15610eb757600e850180546003919060ff191660018361120b565b6001600160a01b03891660009081526001602052604081208190556112a28a8a6126da565b600e8701549091507fe0867d363777a6ada708063230ad9d25fe940a2b5913de073948e222345816b2908b908b9060ff16876005811115610f5f57634e487b7160e01b600052602160045260246000fd5b6113006020820182613d89565b61130a8133611a50565b6113176020830183613d89565b6001600160a01b03811660009081526020819052604090205415158061135457506001600160a01b03811660009081526001602052604090205415155b1561138b576040517f8d875d9000000000000000000000000000000000000000000000000000000000815260040160405180910390fd5b6113986020840184613d89565b60006113a382611b37565b90506113ba6113b56020870187613d89565b611e02565b6113c76020860186613d89565b6040516317ba7d8560e01b81527f145d8ebc4d7403f3cd60312331619ffb262c52c22bedf24c0148027dd4be3b0160048201526001600160a01b0391909116906317ba7d859060240160206040518083038186803b15801561142857600080fd5b505afa15801561143c573d6000803e3d6000fd5b505050506040513d601f19601f820116820180604052508101906114609190613da5565b6001600160a01b031663d1fa9e1061147b6020880188613d89565b6040517fffffffff0000000000000000000000000000000000000000000000000000000060e084901b1681526001600160a01b03909116600482015260240160206040518083038186803b1580156114d257600080fd5b505afa1580156114e6573d6000803e3d6000fd5b505050506040513d601f19601f8201168201806040525081019061150a9190613ecf565b611540576040517f206e98dc00000000000000000000000000000000000000000000000000000000815260040160405180910390fd5b61154d6020860186613d89565b6001600160a01b031663c7e820cc6040518163ffffffff1660e01b8152600401600060405180830381600087803b15801561158757600080fd5b505af115801561159b573d6000803e3d6000fd5b506000925061161091506115b490506020880188613d89565b60c01b6115ff6115c760208a018a613d89565b6001600160a01b0316639e42c4036040518163ffffffff1660e01b815260040160206040518083038186803b15801561070f57600080fd5b60405160200161075d929190614173565b9050604051806101400160405280828152602001878060200190611634919061461f565b8080601f01602080910402602001604051908101604052809392919081815260200183838082843760009201919091525050509082525060200161167e6060890160408a01613eb3565b151581526020016116956080890160608a01614068565b60ff168152608088013560208201526040016116b760c0890160a08a01613d89565b6001600160a01b031681526020018760c0013581526020014281526020018760000160208101906116e89190613d89565b604051634941d71d60e11b81527f9876c0f0505bfb2b1c38d3bbd25ba13159172cd0868972d76927723f5a9480fc60048201526001600160a01b039190911690639283ae3a9060240160206040518083038186803b15801561174957600080fd5b505afa15801561175d573d6000803e3d6000fd5b505050506040513d601f19601f820116820180604052508101906117819190614050565b61178b9042614698565b815260200160009052600260006117a560208a018a613d89565b6001600160a01b03168152602080820192909252604090810160009081208582528352208251815582820151805191926117e792600185019290910190613cd1565b50604082015160028201805460608501517fffffffffffffffffffffffffffffffffffffffffffffffffffffffffffff00009091169215157fffffffffffffffffffffffffffffffffffffffffffffffffffffffffffff00ff169290921761010060ff9093168302179055608083015160038084019190915560a08401516004840180547fffffffffffffffffffffffff0000000000000000000000000000000000000000166001600160a01b0390921691909117905560c0840151600584015560e084015160068401559083015160078301556101208301516008830180549192909160ff19169060019084908111156118f257634e487b7160e01b600052602160045260246000fd5b02179055506000915061190a905060e08801886145d0565b9050111561199d5760005b61192260e08801886145d0565b90508160ff16101561199b5761198861193e60e08901896145d0565b8360ff1681811061195f57634e487b7160e01b600052603260045260246000fd5b90506020020160208101906119749190613d89565b60008481526004602052604090209061237f565b508061199381614775565b915050611915565b505b806000806119ae60208a018a613d89565b6001600160a01b03168152602080820192909252604001600020919091556119e2906119dc90880188613d89565b82612394565b7fa65d0c07e3b0d876ee52e871c234a4b150b9bf17a08f356f5aeda8d6782cc31a611a106020880188613d89565b826001604051611a229392919061423f565b60405180910390a150611a3582826125ae565b5050505050565b60606000611a4983612b63565b9392505050565b6040517fa230c5240000000000000000000000000000000000000000000000000000000081526001600160a01b03828116600483015283169063a230c5249060240160206040518083038186803b158015611aaa57600080fd5b505afa158015611abe573d6000803e3d6000fd5b505050506040513d601f19601f82011682018060405250810190611ae29190613ecf565b611b335760405162461bcd60e51b815260206004820152600c60248201527f6f6e6c79476f7665726e6f72000000000000000000000000000000000000000060448201526064015b60405180910390fd5b5050565b6040805160808101825260008082526020820181905291810182905260608101919091525a81600001818152505043826001600160a01b031663b21634826040518163ffffffff1660e01b815260040160206040518083038186803b158015611b9f57600080fd5b505afa158015611bb3573d6000803e3d6000fd5b505050506040513d601f19601f82011682018060405250810190611bd79190614050565b1415611c255760405162461bcd60e51b815260206004820152601060248201527f7265656e7472616e6379206775617264000000000000000000000000000000006044820152606401611b2a565b816001600160a01b03166310fdb0a26040518163ffffffff1660e01b8152600401600060405180830381600087803b158015611c6057600080fd5b505af1158015611c74573d6000803e3d6000fd5b50506040517f72c6838f0000000000000000000000000000000000000000000000000000000081527f1f2fd42ad6a6cacd573c4b212beb7a4e2499ad45d742a65337097f130e71daff6004820152600092506001600160a01b03851691506372c6838f9060240160206040518083038186803b158015611cf357600080fd5b505afa158015611d07573d6000803e3d6000fd5b505050506040513d601f19601f82011682018060405250810190611d2b9190613da5565b90506001600160a01b038116611d475760006020830152611dfc565b6001600160a01b038181166060840181905283516040517f43a8a3f1000000000000000000000000000000000000000000000000000000008152928616600484015260248301526000918291906343a8a3f190604401604080518083038186803b158015611db457600080fd5b505afa158015611dc8573d6000803e3d6000fd5b505050506040513d601f19601f82011682018060405250810190611dec9190613eeb565b9015156020860152604085015250505b50919050565b6040516317ba7d8560e01b81527faaff643bdbd909f604d46ce015336f7e20fee3ac4a55cef3610188dee176c89260048201526000906001600160a01b038316906317ba7d859060240160206040518083038186803b158015611e6457600080fd5b505afa158015611e78573d6000803e3d6000fd5b505050506040513d601f19601f82011682018060405250810190611e9c9190613da5565b6040516301ee1a2b60e41b81526001600160a01b038481166004830152919250600091831690631ee1a2b09060240160206040518083038186803b158015611ee357600080fd5b505afa158015611ef7573d6000803e3d6000fd5b505050506040513d601f19601f82011682018060405250810190611f1b9190613f97565b604051634941d71d60e11b81527fb0d4178853a5320a41f8c55fa6d58af06637e392beff71e66dba4e8f32c39bb860048201529091506000906001600160a01b03851690639283ae3a9060240160206040518083038186803b158015611f8057600080fd5b505afa158015611f94573d6000803e3d6000fd5b505050506040513d601f19601f82011682018060405250810190611fb89190614050565b90506000826003811115611fdc57634e487b7160e01b600052602160045260246000fd5b14806120075750600382600381111561200557634e487b7160e01b600052602160045260246000fd5b145b806120dd5750600282600381111561202f57634e487b7160e01b600052602160045260246000fd5b1480156120dd5750604051634941d71d60e11b81527f9ce69cf04065e3c7823cc5540c0598d8a694bd7a9a5a2a786d8bccf14ed6e2ea600482015281906001600160a01b03861690639283ae3a9060240160206040518083038186803b15801561209857600080fd5b505afa1580156120ac573d6000803e3d6000fd5b505050506040513d601f19601f820116820180604052508101906120d09190614050565b6120da9190614698565b42115b6121295760405162461bcd60e51b815260206004820152600b60248201527f46554e445f504552494f440000000000000000000000000000000000000000006044820152606401611b2a565b6040517f68abb5e00000000000000000000000000000000000000000000000000000000081526001600160a01b038581166004830152600091908516906368abb5e09060240160206040518083038186803b15801561218757600080fd5b505afa15801561219b573d6000803e3d6000fd5b505050506040513d601f19601f820116820180604052508101906121bf9190614050565b1115610f8d5760405162461bcd60e51b815260206004820152600b60248201527f21636c6561722066756e640000000000000000000000000000000000000000006044820152606401611b2a565b60608161224d57505060408051808201909152600181527f3000000000000000000000000000000000000000000000000000000000000000602082015290565b8160005b811561227757806122618161473c565b91506122709050600a836146b0565b9150612251565b60008167ffffffffffffffff8111156122a057634e487b7160e01b600052604160045260246000fd5b6040519080825280601f01601f1916602001820160405280156122ca576020820181803683370190505b5090505b841561235b576122df6001836146c4565b91506122ec600a86614795565b6122f7906030614698565b60f81b81838151811061231a57634e487b7160e01b600052603260045260246000fd5b60200101907effffffffffffffffffffffffffffffffffffffffffffffffffffffffffffff1916908160001a905350612354600a866146b0565b94506122ce565b949350505050565b600081516000141561237757506000919050565b506020015190565b6000611a49836001600160a01b038416612bbf565b6040517fb73dc389000000000000000000000000000000000000000000000000000000008152600481018290526001600160a01b0383169063b73dc38990602401600060405180830381600087803b1580156123ef57600080fd5b505af1158015612403573d6000803e3d6000fd5b50506040516317ba7d8560e01b81527fd3999c37f8f35da86f802a74f9bf032c4aeb46e49abd9c861f489ef4cb40d0a86004820152600092506001600160a01b03851691506317ba7d859060240160206040518083038186803b15801561246957600080fd5b505afa15801561247d573d6000803e3d6000fd5b505050506040513d601f19601f820116820180604052508101906124a19190613da5565b604080516020810182526000815290517f26078cd00000000000000000000000000000000000000000000000000000000081529192506001600160a01b038316916326078cd0916124fb9187918791429190600401614598565b600060405180830381600087803b15801561251557600080fd5b505af1158015612529573d6000803e3d6000fd5b50506040517f815a2bf4000000000000000000000000000000000000000000000000000000008152600481018590526001600160a01b0384811660248301528616925063815a2bf491506044015b600060405180830381600087803b15801561259157600080fd5b505af11580156125a5573d6000803e3d6000fd5b50505050505050565b611b33828233612c0e565b6040516317ba7d8560e01b81527f145d8ebc4d7403f3cd60312331619ffb262c52c22bedf24c0148027dd4be3b0160048201526000906001600160a01b038416906317ba7d859060240160206040518083038186803b15801561261b57600080fd5b505afa15801561262f573d6000803e3d6000fd5b505050506040513d601f19601f820116820180604052508101906126539190613da5565b6002830154600384015460058501546004808701548754600090815260209290925260409091209495506001600160a01b0380871695638217b1aa958a9560ff8083169660018d01966101009094049091169491939092909116906126b790611a3c565b6040518963ffffffff1660e01b815260040161257798979695949392919061448e565b600080836001600160a01b031663a6f636416040518163ffffffff1660e01b815260040160006040518083038186803b15801561271657600080fd5b505afa15801561272a573d6000803e3d6000fd5b505050506040513d6000823e601f3d908101601f191682016040526127529190810190613dec565b6040516317ba7d8560e01b81527fd3999c37f8f35da86f802a74f9bf032c4aeb46e49abd9c861f489ef4cb40d0a8600482015290915060009081906001600160a01b038716906317ba7d859060240160206040518083038186803b1580156127b957600080fd5b505afa1580156127cd573d6000803e3d6000fd5b505050506040513d601f19601f820116820180604052508101906127f19190613da5565b905060005b83518160ff1610156129fb57816001600160a01b03166324a2cceb8888878560ff168151811061283657634e487b7160e01b600052603260045260246000fd5b60200260200101516040518463ffffffff1660e01b815260040161287a939291906001600160a01b0393841681526020810192909252909116604082015260600190565b60206040518083038186803b15801561289257600080fd5b505afa1580156128a6573d6000803e3d6000fd5b505050506040513d601f19601f820116820180604052508101906128ca9190613ecf565b156129a857816001600160a01b03166391d2fd538888878560ff168151811061290357634e487b7160e01b600052603260045260246000fd5b60200260200101516040518463ffffffff1660e01b8152600401612947939291906001600160a01b0393841681526020810192909252909116604082015260600190565b60206040518083038186803b15801561295f57600080fd5b505afa158015612973573d6000803e3d6000fd5b505050506040513d601f19601f820116820180604052508101906129979190614036565b6129a19084614664565b92506129e9565b6129dc87858360ff16815181106129cf57634e487b7160e01b600052603260045260246000fd5b6020026020010151612cff565b6129e69084614664565b92505b806129f381614775565b9150506127f6565b509095945050505050565b6040516317ba7d8560e01b81527f145d8ebc4d7403f3cd60312331619ffb262c52c22bedf24c0148027dd4be3b0160048201526000906001600160a01b038416906317ba7d859060240160206040518083038186803b158015612a6857600080fd5b505afa158015612a7c573d6000803e3d6000fd5b505050506040513d601f19601f82011682018060405250810190612aa09190613da5565b60408051610120810182526005850154815260078501546020808301919091526008860154828401526001860154606083015260028601546080830152600486015460a0830152600386015460c0830152600986015460e0830152600a8601546101008301526006808701548754600090815291909252929092209293506001600160a01b0380851693638faeecd1938893921690600d880190612b4390611a3c565b6040518663ffffffff1660e01b81526004016125779594939291906143e9565b606081600001805480602002602001604051908101604052809291908181526020018280548015612bb357602002820191906000526020600020905b815481526020019060010190808311612b9f575b50505050509050919050565b6000818152600183016020526040812054612c0657508154600181810184556000848152602080822090930184905584548482528286019093526040902091909155610213565b506000610213565b816020015115612cc45781606001516001600160a01b0316635e5eb01384835a8651612c3a91906146c4565b60408088015190517fffffffff0000000000000000000000000000000000000000000000000000000060e087901b1681526001600160a01b03948516600482015293909216602484015260448301526064820152608401600060405180830381600087803b158015612cab57600080fd5b505af1158015612cbf573d6000803e3d6000fd5b505050505b826001600160a01b031663d4f7af436040518163ffffffff1660e01b8152600401600060405180830381600087803b15801561259157600080fd5b6040516317ba7d8560e01b81527faaff643bdbd909f604d46ce015336f7e20fee3ac4a55cef3610188dee176c892600482015260009081906001600160a01b038516906317ba7d859060240160206040518083038186803b158015612d6357600080fd5b505afa158015612d77573d6000803e3d6000fd5b505050506040513d601f19601f82011682018060405250810190612d9b9190613da5565b6040516317ba7d8560e01b81527fa837e34a29b67bf52f684a1c93def79b84b9c012732becee4e5df62809df64ed60048201529091506000906001600160a01b038616906317ba7d859060240160206040518083038186803b158015612e0057600080fd5b505afa158015612e14573d6000803e3d6000fd5b505050506040513d601f19601f82011682018060405250810190612e389190613da5565b6040516317ba7d8560e01b81527f1fa6846b165d822fff79e37c67625706652fa9380c2aa49fd513ce534cc72ed460048201529091506000906001600160a01b038716906317ba7d859060240160206040518083038186803b158015612e9d57600080fd5b505afa158015612eb1573d6000803e3d6000fd5b505050506040513d601f19601f82011682018060405250810190612ed59190613da5565b604051634941d71d60e11b81527f686efe7bd1699b408d306db6bbee658ed667971c52d48d6912d7ee496e36e62760048201529091506000906001600160a01b03881690639283ae3a9060240160206040518083038186803b158015612f3a57600080fd5b505afa158015612f4e573d6000803e3d6000fd5b505050506040513d601f19601f82011682018060405250810190612f729190614050565b604051634941d71d60e11b81527fb75eae231d9582c6afc6491273df4a0ffbccd48ab2c48dbce59e5d68f2d19dc460048201529091506000906001600160a01b03891690639283ae3a9060240160206040518083038186803b158015612fd757600080fd5b505afa158015612feb573d6000803e3d6000fd5b505050506040513d601f19601f8201168201806040525081019061300f9190614050565b604051634941d71d60e11b81527e634460a4b60c2e1bf8c87bfc42b6b68fd2a71f4bb2d760816eabc5038b503660048201529091506000906001600160a01b038a1690639283ae3a9060240160206040518083038186803b15801561307357600080fd5b505afa158015613087573d6000803e3d6000fd5b505050506040513d601f19601f820116820180604052508101906130ab9190614050565b6040517ffd310d290000000000000000000000000000000000000000000000000000000081527fcd9b30ab6388c165d825b60b7d393528191ba59d975b4b1b52b7184b63b8a97c60048201529091506000906001600160a01b038b169063fd310d299060240160206040518083038186803b15801561312957600080fd5b505afa15801561313d573d6000803e3d6000fd5b505050506040513d601f19601f820116820180604052508101906131619190613da5565b905082600114156135c357600084613209576040516370a0823160e01b81526001600160a01b038b81166004830152670de0b6b3a764000091908416906370a08231906024015b60206040518083038186803b1580156131c057600080fd5b505afa1580156131d4573d6000803e3d6000fd5b505050506040513d601f19601f820116820180604052508101906131f89190614050565b61320291906146b0565b9050613554565b846001141561328c576040516370a0823160e01b81526001600160a01b038b811660048301528316906370a08231906024015b60206040518083038186803b15801561325457600080fd5b505afa158015613268573d6000803e3d6000fd5b505050506040513d601f19601f820116820180604052508101906132029190614050565b84600214156132c857604051627eeac760e11b81526001600160a01b038b811660048301526024820185905283169062fdd58e9060440161323c565b8460031415613307576040516329b6517360e21b81526001600160a01b038c811660048301528b8116602483015287169063a6d945cc9060440161323c565b84600414156135435760026040516301ee1a2b60e41b81526001600160a01b038d811660048301528a1690631ee1a2b09060240160206040518083038186803b15801561335357600080fd5b505afa158015613367573d6000803e3d6000fd5b505050506040513d601f19601f8201168201806040525081019061338b9190613f97565b60038111156133aa57634e487b7160e01b600052602160045260246000fd5b14801561344c5750604051634941d71d60e11b81527f9ce69cf04065e3c7823cc5540c0598d8a694bd7a9a5a2a786d8bccf14ed6e2ea60048201526001600160a01b038c1690639283ae3a9060240160206040518083038186803b15801561341157600080fd5b505afa158015613425573d6000803e3d6000fd5b505050506040513d601f19601f820116820180604052508101906134499190614050565b42105b80156134ec57506040517f4fc0a76d0000000000000000000000000000000000000000000000000000000081526001600160a01b038c8116600483015260019190891690634fc0a76d9060240160206040518083038186803b1580156134b157600080fd5b505afa1580156134c5573d6000803e3d6000fd5b505050506040513d601f19601f820116820180604052508101906134e99190614050565b10155b1561353257604051633de222bb60e21b81526001600160a01b038c811660048301528b81166024830152670de0b6b3a764000091908a169063f7888aec906044016131a8565b600198505050505050505050610213565b600098505050505050505050610213565b6000811161356d57600098505050505050505050610213565b677fffffffffffffff811061358d57603298505050505050505050610213565b60006135a86135a361359e84613b55565b613b73565b613c6a565b67ffffffffffffffff16995061021398505050505050505050565b826002141561377a5760008461366a576040516370a0823160e01b81526001600160a01b038b81166004830152600091908416906370a08231906024015b60206040518083038186803b15801561361957600080fd5b505afa15801561362d573d6000803e3d6000fd5b505050506040513d601f19601f820116820180604052508101906136519190614050565b1161365d576000613660565b60015b60ff16905061376b565b84600114156136a5576040516370a0823160e01b81526001600160a01b038b81166004830152600091908416906370a0823190602401613601565b84600214156136e557604051627eeac760e11b81526001600160a01b038b81166004830152602482018590526000919084169062fdd58e90604401613601565b8460031415613728576040516329b6517360e21b81526001600160a01b038c811660048301528b811660248301526000919088169063a6d945cc90604401613601565b846004141561354357604051633de222bb60e21b81526001600160a01b038c811660048301528b81166024830152600091908a169063f7888aec90604401613601565b97506102139650505050505050565b82613b455760008461381c576040516370a0823160e01b81526001600160a01b038b81166004830152670de0b6b3a764000091908416906370a08231906024015b60206040518083038186803b1580156137d357600080fd5b505afa1580156137e7573d6000803e3d6000fd5b505050506040513d601f19601f8201168201806040525081019061380b9190614050565b61381591906146b0565b905061376b565b846001141561389f576040516370a0823160e01b81526001600160a01b038b811660048301528316906370a08231906024015b60206040518083038186803b15801561386757600080fd5b505afa15801561387b573d6000803e3d6000fd5b505050506040513d601f19601f820116820180604052508101906138159190614050565b84600214156138db57604051627eeac760e11b81526001600160a01b038b811660048301526024820185905283169062fdd58e9060440161384f565b846003141561391a576040516329b6517360e21b81526001600160a01b038c811660048301528b8116602483015287169063a6d945cc9060440161384f565b84600414156135435760026040516301ee1a2b60e41b81526001600160a01b038d811660048301528a1690631ee1a2b09060240160206040518083038186803b15801561396657600080fd5b505afa15801561397a573d6000803e3d6000fd5b505050506040513d601f19601f8201168201806040525081019061399e9190613f97565b60038111156139bd57634e487b7160e01b600052602160045260246000fd5b148015613a5f5750604051634941d71d60e11b81527f9ce69cf04065e3c7823cc5540c0598d8a694bd7a9a5a2a786d8bccf14ed6e2ea60048201526001600160a01b038c1690639283ae3a9060240160206040518083038186803b158015613a2457600080fd5b505afa158015613a38573d6000803e3d6000fd5b505050506040513d601f19601f82011682018060405250810190613a5c9190614050565b42105b8015613aff57506040517f4fc0a76d0000000000000000000000000000000000000000000000000000000081526001600160a01b038c8116600483015260019190891690634fc0a76d9060240160206040518083038186803b158015613ac457600080fd5b505afa158015613ad8573d6000803e3d6000fd5b505050506040513d601f19601f82011682018060405250810190613afc9190614050565b10155b1561353257604051633de222bb60e21b81526001600160a01b038c811660048301528b81166024830152670de0b6b3a764000091908a169063f7888aec906044016137bb565b6000975050505050505050610213565b6000677fffffffffffffff821115613b6c57600080fd5b5060401b90565b60008082600f0b13613b8457600080fd5b6000600f83900b680100000000000000008112613ba3576040918201911d5b6401000000008112613bb7576020918201911d5b620100008112613bc9576010918201911d5b6101008112613bda576008918201911d5b60108112613bea576004918201911d5b60048112613bfa576002918201911d5b60028112613c09576001820191505b7fffffffffffffffffffffffffffffffffffffffffffffffffffffffffffffffc0820160401b600f85900b607f8490031b6780000000000000005b60008113156129fb5790800260ff81901c8281029390930192607f011c9060011d613c44565b60008082600f0b1215613c7c57600080fd5b50600f0b60401d90565b828054828255906000526020600020908101928215613cc1579160200282015b82811115613cc1578251825591602001919060010190613ca6565b50613ccd929150613d44565b5090565b828054613cdd90614707565b90600052602060002090601f016020900481019282613cff5760008555613cc1565b82601f10613d1857805160ff1916838001178555613cc1565b82800160010185558215613cc15791820182811115613cc1578251825591602001919060010190613ca6565b5b80821115613ccd5760008155600101613d45565b8051613d648161480c565b919050565b80516fffffffffffffffffffffffffffffffff81168114613d6457600080fd5b600060208284031215613d9a578081fd5b8135611a498161480c565b600060208284031215613db6578081fd5b8151611a498161480c565b60008060408385031215613dd3578081fd5b8235613dde8161480c565b946020939093013593505050565b60006020808385031215613dfe578182fd5b825167ffffffffffffffff80821115613e15578384fd5b818501915085601f830112613e28578384fd5b815181811115613e3a57613e3a6147d5565b8060051b604051601f19603f83011681018181108582111715613e5f57613e5f6147d5565b604052828152858101935084860182860187018a1015613e7d578788fd5b8795505b83861015613ea657613e9281613d59565b855260019590950194938601938601613e81565b5098975050505050505050565b600060208284031215613ec4578081fd5b8135611a4981614821565b600060208284031215613ee0578081fd5b8151611a4981614821565b60008060408385031215613efd578182fd5b8251613f0881614821565b6020939093015192949293505050565b600060208284031215613f29578081fd5b5035919050565b60008060408385031215613dd3578182fd5b60008060408385031215613f54578182fd5b8235613f5f8161480c565b9150602083013567ffffffffffffffff811115613f7a578182fd5b83016101808186031215613f8c578182fd5b809150509250929050565b600060208284031215613fa8578081fd5b815160048110611a49578182fd5b600080600060608486031215613fca578081fd5b835160068110613fd8578182fd5b9250613fe660208501613d69565b9150613ff460408501613d69565b90509250925092565b60006020828403121561400e578081fd5b813567ffffffffffffffff811115614024578182fd5b82016101008185031215611a49578182fd5b600060208284031215614047578081fd5b611a4982613d69565b600060208284031215614061578081fd5b5051919050565b600060208284031215614079578081fd5b813560ff81168114611a49578182fd5b6000815180845260208085019450808401835b838110156140c15781516001600160a01b03168752958201959082019060010161409c565b509495945050505050565b600081518084526140e48160208601602086016146db565b601f01601f19169290920160200192915050565b614101816147eb565b9052565b7fffffffffffffffff000000000000000000000000000000000000000000000000831681527f766f74696e67230000000000000000000000000000000000000000000000000060088201526000825161416581600f8501602087016146db565b91909101600f019392505050565b7fffffffffffffffff000000000000000000000000000000000000000000000000831681527f476f7665726e6f722d4d656d62657273686970230000000000000000000000006008820152600082516141d381601c8501602087016146db565b91909101601c019392505050565b6001600160a01b03881681526020810187905260e08101614201876147eb565b604082019690965260608101949094526fffffffffffffffffffffffffffffffff928316608085015290821660a08401521660c09091015292915050565b6001600160a01b0384168152602081018390526060810161425f836147eb565b826040830152949350505050565b602081526000611a496020830184614089565b60006101408c835280602084015261429a8184018d6140cc565b915050891515604083015260ff891660608301528760808301526001600160a01b03871660a08301528560c08301528460e0830152836101008301526142df836147eb565b826101208301529b9a5050505050505050505050565b60006101e0888352602061432c8185018a805182526020810151602083015260408101516040830152606081015160608301525050565b875160a0850152808801516001600160a01b031660c085015260408089015160e08601526060808a015161010087015288516101208701526020890151610140870152908801516101608601528701516101808501526101a0840182905285519184018190528151610200850181905261022085019282019084905b808210156143c857825185529383019391830191600191909101906143a8565b50505050809150506143de6101c08301846140f8565b979650505050505050565b60006101a08083016001600160a01b03808a16855260208086018a865b600981101561442357815183529183019190830190600101614406565b5050509088166101408601526101608501929092528554908190528583528183206101c0850192909190845b8281101561446b5783548552938101936001938401930161444f565b505050508281036101808401526144828185614089565b98975050505050505050565b60006101006001600160a01b038b168352891515602084015280604084015281895483600182811c9150808316806144c757607f831692505b602083108114156144e657634e487b7160e01b87526022600452602487fd5b94870182815260200194808015614504576001811461451657614541565b60ff1985168752602087019550614541565b60008f815260209020885b8581101561453b5781548982015290840190602001614521565b88019650505b5050505050614555606085018a60ff169052565b8760808501528660a085015261457660c08501876001600160a01b03169052565b83810360e08501526145888186614089565b9c9b505050505050505050505050565b6001600160a01b03851681528360208201528260408201526080606082015260006145c660808301846140cc565b9695505050505050565b6000808335601e198436030181126145e6578283fd5b83018035915067ffffffffffffffff821115614600578283fd5b6020019150600581901b360382131561461857600080fd5b9250929050565b6000808335601e19843603018112614635578283fd5b83018035915067ffffffffffffffff82111561464f578283fd5b60200191503681900382131561461857600080fd5b60006fffffffffffffffffffffffffffffffff80831681851680830382111561468f5761468f6147a9565b01949350505050565b600082198211156146ab576146ab6147a9565b500190565b6000826146bf576146bf6147bf565b500490565b6000828210156146d6576146d66147a9565b500390565b60005b838110156146f65781810151838201526020016146de565b83811115610f8d5750506000910152565b600181811c9082168061471b57607f821691505b60208210811415611dfc57634e487b7160e01b600052602260045260246000fd5b60007fffffffffffffffffffffffffffffffffffffffffffffffffffffffffffffffff82141561476e5761476e6147a9565b5060010190565b600060ff821660ff81141561478c5761478c6147a9565b60010192915050565b6000826147a4576147a46147bf565b500690565b634e487b7160e01b600052601160045260246000fd5b634e487b7160e01b600052601260045260246000fd5b634e487b7160e01b600052604160045260246000fd5b6004811061480957634e487b7160e01b600052602160045260246000fd5b50565b6001600160a01b038116811461480957600080fd5b801515811461480957600080fdfea2646970667358221220c380cd8fc039bd0a7fd02bcd42bd440235c3f34a13677af655aa3da05affc6bc64736f6c63430008040033",
  "linkReferences": {},
  "deployedLinkReferences": {}
}