{
  "_format": "hh-sol-artifact-1",
  "contractName": "VintageFundRaiseAdapterContract",
  "sourceName": "contracts/vintage/adapters/VintageFundRaise.sol",
  "abi": [
    {
      "inputs": [],
      "name": "ACCESS_DENIED",
      "type": "error"
    },
    {
      "inputs": [],
      "name": "DAOSET_PROPOSAL_UNDONE",
      "type": "error"
    },
    {
      "inputs": [],
      "name": "INVALID_PARAM",
      "type": "error"
    },
    {
      "inputs": [],
      "name": "LAST_NEW_FUND_PROPOSAL_NOT_FINISH",
      "type": "error"
    },
    {
      "inputs": [],
      "name": "NOT_CLEAR_FUND",
      "type": "error"
    },
    {
      "inputs": [],
      "name": "UNDONE_INVESTMENT_PROPOSAL",
      "type": "error"
    },
    {
      "inputs": [],
      "name": "VOTING_ADAPTER_NOT_FOUND",
      "type": "error"
    },
    {
      "inputs": [],
      "name": "VOTING_NOT_FINISH",
      "type": "error"
    },
    {
      "anonymous": false,
      "inputs": [
        {
          "indexed": false,
          "internalType": "address",
          "name": "daoAddr",
          "type": "address"
        },
        {
          "indexed": false,
          "internalType": "bytes32",
          "name": "proposalId",
          "type": "bytes32"
        }
      ],
      "name": "ProposalCreated",
      "type": "event"
    },
    {
      "anonymous": false,
      "inputs": [
        {
          "indexed": false,
          "internalType": "address",
          "name": "daoAddr",
          "type": "address"
        },
        {
          "indexed": false,
          "internalType": "bytes32",
          "name": "proposalId",
          "type": "bytes32"
        },
        {
          "indexed": false,
          "internalType": "enum IVintageFundRaise.ProposalState",
          "name": "state",
          "type": "uint8"
        },
        {
          "indexed": false,
          "internalType": "uint128",
          "name": "allVotingWeight",
          "type": "uint128"
        },
        {
          "indexed": false,
          "internalType": "uint128",
          "name": "nbYes",
          "type": "uint128"
        },
        {
          "indexed": false,
          "internalType": "uint128",
          "name": "nbNo",
          "type": "uint128"
        },
        {
          "indexed": false,
          "internalType": "uint256",
          "name": "voteResult",
          "type": "uint256"
        }
      ],
      "name": "proposalExecuted",
      "type": "event"
    },
    {
      "inputs": [
        {
          "internalType": "address",
          "name": "",
          "type": "address"
        },
        {
          "internalType": "bytes32",
          "name": "",
          "type": "bytes32"
        }
      ],
      "name": "Proposals",
      "outputs": [
        {
          "internalType": "address",
          "name": "acceptTokenAddr",
          "type": "address"
        },
        {
          "components": [
            {
              "internalType": "uint256",
              "name": "fundRaiseTarget",
              "type": "uint256"
            },
            {
              "internalType": "uint256",
              "name": "fundRaiseMaxAmount",
              "type": "uint256"
            },
            {
              "internalType": "uint256",
              "name": "lpMinDepositAmount",
              "type": "uint256"
            },
            {
              "internalType": "uint256",
              "name": "lpMaxDepositAmount",
              "type": "uint256"
            }
          ],
          "internalType": "struct IVintageFundRaise.FundRaiseAmountInfo",
          "name": "amountInfo",
          "type": "tuple"
        },
        {
          "components": [
            {
              "internalType": "uint256",
              "name": "fundRaiseStartTime",
              "type": "uint256"
            },
            {
              "internalType": "uint256",
              "name": "fundRaiseEndTime",
              "type": "uint256"
            },
            {
              "internalType": "uint256",
              "name": "fundTerm",
              "type": "uint256"
            },
            {
              "internalType": "uint256",
              "name": "redemptPeriod",
              "type": "uint256"
            },
            {
              "internalType": "uint256",
              "name": "redemptDuration",
              "type": "uint256"
            },
            {
              "internalType": "uint256",
              "name": "refundDuration",
              "type": "uint256"
            }
          ],
          "internalType": "struct IVintageFundRaise.FundRiaseTimeInfo",
          "name": "timesInfo",
          "type": "tuple"
        },
        {
          "components": [
            {
              "internalType": "uint256",
              "name": "managementFeeRatio",
              "type": "uint256"
            },
            {
              "internalType": "uint256",
              "name": "paybackTokenManagementFeeRatio",
              "type": "uint256"
            },
            {
              "internalType": "uint256",
              "name": "redepmtFeeRatio",
              "type": "uint256"
            },
            {
              "internalType": "uint256",
              "name": "protocolFeeRatio",
              "type": "uint256"
            },
            {
              "internalType": "address",
              "name": "managementFeeAddress",
              "type": "address"
            },
            {
              "internalType": "address",
              "name": "redemptionFeeReceiver",
              "type": "address"
            }
          ],
          "internalType": "struct IVintageFundRaise.FundRaiseRewardAndFeeInfo",
          "name": "feeInfo",
          "type": "tuple"
        },
        {
          "components": [
            {
              "internalType": "uint256",
              "name": "fundFromInverstor",
              "type": "uint256"
            },
            {
              "internalType": "uint256",
              "name": "projectTokenFromInvestor",
              "type": "uint256"
            }
          ],
          "internalType": "struct IVintageFundRaise.ProoserReward",
          "name": "proposerReward",
          "type": "tuple"
        },
        {
          "components": [
            {
              "internalType": "bool",
              "name": "enable",
              "type": "bool"
            },
            {
              "internalType": "uint8",
              "name": "vtype",
              "type": "uint8"
            },
            {
              "internalType": "address",
              "name": "token",
              "type": "address"
            },
            {
              "internalType": "uint256",
              "name": "tokenId",
              "type": "uint256"
            },
            {
              "internalType": "uint256",
              "name": "amount",
              "type": "uint256"
            }
          ],
          "internalType": "struct IVintageFundRaise.PriorityDeposite",
          "name": "priorityDeposite",
          "type": "tuple"
        },
        {
          "internalType": "uint8",
          "name": "fundRaiseType",
          "type": "uint8"
        },
        {
          "internalType": "enum IVintageFundRaise.ProposalState",
          "name": "state",
          "type": "uint8"
        },
        {
          "internalType": "uint256",
          "name": "creationTime",
          "type": "uint256"
        },
        {
          "internalType": "uint256",
          "name": "stopVoteTime",
          "type": "uint256"
        },
        {
          "components": [
            {
              "internalType": "bool",
              "name": "enable",
              "type": "bool"
            },
            {
              "internalType": "uint256",
              "name": "cap",
              "type": "uint256"
            }
          ],
          "internalType": "struct IVintageFundRaise.VintageInvestorCapInfo",
          "name": "investorCap",
          "type": "tuple"
        },
        {
          "components": [
            {
              "internalType": "bool",
              "name": "enable",
              "type": "bool"
            },
            {
              "internalType": "string",
              "name": "name",
              "type": "string"
            },
            {
              "internalType": "uint8",
              "name": "varifyType",
              "type": "uint8"
            },
            {
              "internalType": "uint256",
              "name": "minAmount",
              "type": "uint256"
            },
            {
              "internalType": "address",
              "name": "tokenAddress",
              "type": "address"
            },
            {
              "internalType": "uint256",
              "name": "tokenId",
              "type": "uint256"
            },
            {
              "internalType": "address[]",
              "name": "whiteList",
              "type": "address[]"
            }
          ],
          "internalType": "struct IVintageFundRaise.VintageInvestorEligibility",
          "name": "investorEligibility",
          "type": "tuple"
        }
      ],
      "stateMutability": "view",
      "type": "function"
    },
    {
      "inputs": [
        {
          "internalType": "contract DaoRegistry",
          "name": "dao",
          "type": "address"
        }
      ],
      "name": "allDone",
      "outputs": [
        {
          "internalType": "bool",
          "name": "",
          "type": "bool"
        }
      ],
      "stateMutability": "view",
      "type": "function"
    },
    {
      "inputs": [
        {
          "internalType": "address",
          "name": "",
          "type": "address"
        }
      ],
      "name": "createdFundCounter",
      "outputs": [
        {
          "internalType": "uint256",
          "name": "",
          "type": "uint256"
        }
      ],
      "stateMutability": "view",
      "type": "function"
    },
    {
      "inputs": [
        {
          "internalType": "address",
          "name": "dao",
          "type": "address"
        },
        {
          "internalType": "bytes32",
          "name": "proposalId",
          "type": "bytes32"
        }
      ],
      "name": "getWhiteList",
      "outputs": [
        {
          "internalType": "address[]",
          "name": "",
          "type": "address[]"
        }
      ],
      "stateMutability": "view",
      "type": "function"
    },
    {
      "inputs": [
        {
          "internalType": "contract DaoRegistry",
          "name": "dao",
          "type": "address"
        },
        {
          "internalType": "bytes32",
          "name": "proposalId",
          "type": "bytes32"
        },
        {
          "internalType": "address",
          "name": "account",
          "type": "address"
        }
      ],
      "name": "isPriorityDepositer",
      "outputs": [
        {
          "internalType": "bool",
          "name": "",
          "type": "bool"
        }
      ],
      "stateMutability": "view",
      "type": "function"
    },
    {
      "inputs": [
        {
          "internalType": "address",
          "name": "",
          "type": "address"
        }
      ],
      "name": "lastProposalIds",
      "outputs": [
        {
          "internalType": "bytes32",
          "name": "",
          "type": "bytes32"
        }
      ],
      "stateMutability": "view",
      "type": "function"
    },
    {
      "inputs": [
        {
          "internalType": "contract DaoRegistry",
          "name": "dao",
          "type": "address"
        },
        {
          "internalType": "bytes32",
          "name": "proposalId",
          "type": "bytes32"
        }
      ],
      "name": "processProposal",
      "outputs": [],
      "stateMutability": "nonpayable",
      "type": "function"
    },
    {
      "inputs": [
        {
          "internalType": "contract DaoRegistry",
          "name": "dao",
          "type": "address"
        },
        {
          "internalType": "bytes32",
          "name": "proposalId",
          "type": "bytes32"
        },
        {
          "internalType": "bool",
          "name": "state",
          "type": "bool"
        }
      ],
      "name": "setProposalState",
      "outputs": [],
      "stateMutability": "nonpayable",
      "type": "function"
    },
    {
      "inputs": [
        {
          "components": [
            {
              "internalType": "contract DaoRegistry",
              "name": "dao",
              "type": "address"
            },
            {
              "components": [
                {
                  "internalType": "uint256",
                  "name": "fundRaiseMinTarget",
                  "type": "uint256"
                },
                {
                  "internalType": "uint256",
                  "name": "fundRaiseMaxCap",
                  "type": "uint256"
                },
                {
                  "internalType": "uint256",
                  "name": "lpMinDepositAmount",
                  "type": "uint256"
                },
                {
                  "internalType": "uint256",
                  "name": "lpMaxDepositAmount",
                  "type": "uint256"
                },
                {
                  "internalType": "uint8",
                  "name": "fundRaiseType",
                  "type": "uint8"
                }
              ],
              "internalType": "struct IVintageFundRaise.ProposalFundRaiseInfo",
              "name": "proposalFundRaiseInfo",
              "type": "tuple"
            },
            {
              "components": [
                {
                  "internalType": "uint256",
                  "name": "startTime",
                  "type": "uint256"
                },
                {
                  "internalType": "uint256",
                  "name": "endTime",
                  "type": "uint256"
                },
                {
                  "internalType": "uint256",
                  "name": "fundTerm",
                  "type": "uint256"
                },
                {
                  "internalType": "uint256",
                  "name": "redemptPeriod",
                  "type": "uint256"
                },
                {
                  "internalType": "uint256",
                  "name": "redemptInterval",
                  "type": "uint256"
                },
                {
                  "internalType": "uint256",
                  "name": "refundPeriod",
                  "type": "uint256"
                }
              ],
              "internalType": "struct IVintageFundRaise.ProposalTimeInfo",
              "name": "proposalTimeInfo",
              "type": "tuple"
            },
            {
              "components": [
                {
                  "internalType": "uint256",
                  "name": "managementFeeRatio",
                  "type": "uint256"
                },
                {
                  "internalType": "uint256",
                  "name": "paybackTokenManagementFeeRatio",
                  "type": "uint256"
                },
                {
                  "internalType": "uint256",
                  "name": "redepmtFeeRatio",
                  "type": "uint256"
                }
              ],
              "internalType": "struct IVintageFundRaise.ProposalFeeInfo",
              "name": "proposalFeeInfo",
              "type": "tuple"
            },
            {
              "components": [
                {
                  "internalType": "address",
                  "name": "managementFeeAddress",
                  "type": "address"
                },
                {
                  "internalType": "address",
                  "name": "redemptionFeeReceiver",
                  "type": "address"
                },
                {
                  "internalType": "address",
                  "name": "fundRaiseTokenAddress",
                  "type": "address"
                }
              ],
              "internalType": "struct IVintageFundRaise.ProposalAddressInfo",
              "name": "proposalAddressInfo",
              "type": "tuple"
            },
            {
              "components": [
                {
                  "internalType": "uint256",
                  "name": "fundFromInverstor",
                  "type": "uint256"
                },
                {
                  "internalType": "uint256",
                  "name": "projectTokenFromInvestor",
                  "type": "uint256"
                }
              ],
              "internalType": "struct IVintageFundRaise.ProoserReward",
              "name": "proposerReward",
              "type": "tuple"
            },
            {
              "components": [
                {
                  "internalType": "bool",
                  "name": "enable",
                  "type": "bool"
                },
                {
                  "internalType": "uint8",
                  "name": "vtype",
                  "type": "uint8"
                },
                {
                  "internalType": "address",
                  "name": "token",
                  "type": "address"
                },
                {
                  "internalType": "uint256",
                  "name": "tokenId",
                  "type": "uint256"
                },
                {
                  "internalType": "uint256",
                  "name": "amount",
                  "type": "uint256"
                },
                {
                  "internalType": "address[]",
                  "name": "whitelist",
                  "type": "address[]"
                }
              ],
              "internalType": "struct IVintageFundRaise.ProposalPriorityDepositInfo",
              "name": "priorityDeposite",
              "type": "tuple"
            },
            {
              "components": [
                {
                  "internalType": "bool",
                  "name": "enable",
                  "type": "bool"
                },
                {
                  "internalType": "uint256",
                  "name": "cap",
                  "type": "uint256"
                }
              ],
              "internalType": "struct IVintageFundRaise.VintageInvestorCapInfo",
              "name": "investorCap",
              "type": "tuple"
            },
            {
              "components": [
                {
                  "internalType": "bool",
                  "name": "enable",
                  "type": "bool"
                },
                {
                  "internalType": "string",
                  "name": "name",
                  "type": "string"
                },
                {
                  "internalType": "uint8",
                  "name": "varifyType",
                  "type": "uint8"
                },
                {
                  "internalType": "uint256",
                  "name": "minAmount",
                  "type": "uint256"
                },
                {
                  "internalType": "address",
                  "name": "tokenAddress",
                  "type": "address"
                },
                {
                  "internalType": "uint256",
                  "name": "tokenId",
                  "type": "uint256"
                },
                {
                  "internalType": "address[]",
                  "name": "whiteList",
                  "type": "address[]"
                }
              ],
              "internalType": "struct IVintageFundRaise.VintageInvestorEligibility",
              "name": "investorEligibility",
              "type": "tuple"
            }
          ],
          "internalType": "struct IVintageFundRaise.ProposalParams",
          "name": "params",
          "type": "tuple"
        }
      ],
      "name": "submitProposal",
      "outputs": [],
      "stateMutability": "nonpayable",
      "type": "function"
    }
  ],
  "bytecode": "0x608060405234801561001057600080fd5b506159c180620000216000396000f3fe608060405234801561001057600080fd5b50600436106100a35760003560e01c8063642fc0c0116100765780639573167d1161005b5780639573167d14610166578063bf49999414610179578063cb7adcb5146101a457600080fd5b8063642fc0c0146101305780636d3cc0401461015357600080fd5b806301c22a3d146100a85780630c1c6f44146100db5780634122a485146100f05780634fc0a76d14610110575b600080fd5b6100c86100b6366004614d36565b60026020526000908152604090205481565b6040519081526020015b60405180910390f35b6100ee6100e9366004614f30565b6101b7565b005b6101036100fe366004614d6e565b610308565b6040516100d291906154d2565b6100c861011e366004614d36565b60016020526000908152604090205481565b61014361013e366004614d36565b610340565b60405190151581526020016100d2565b610143610161366004614eef565b610377565b6100ee610174366004614edd565b6108de565b61018c610187366004614d6e565b610f89565b6040516100d29c9b9a99989796959493929190615354565b6100ee6101b2366004614fcc565b611351565b6040516317ba7d8560e01b81527faaff643bdbd909f604d46ce015336f7e20fee3ac4a55cef3610188dee176c89260048201526001600160a01b038416906317ba7d859060240160206040518083038186803b15801561021657600080fd5b505afa15801561022a573d6000803e3d6000fd5b505050506040513d601f19601f8201168201806040525081019061024e9190614d52565b6001600160a01b0316336001600160a01b031614610298576040517f95383ea100000000000000000000000000000000000000000000000000000000815260040160405180910390fd5b80156102d357506001600160a01b039190911660009081526020818152604080832093835292905220601601805461ff001916610300179055565b506001600160a01b039190911660009081526020818152604080832093835292905220601601805461ff001916610400179055565b6001600160a01b0382166000908152600360209081526040808320848452909152902060609061033790612d7f565b90505b92915050565b6001600160a01b0381166000908152600460205260408120819061036390612d8c565b1161036f57600161033a565b600092915050565b604051634941d71d60e11b81527f6c2aeb5335c37bc984e34d16b5daacfd3a43d3358ad5314ed1a17f8b68bc10a560048201526000906001600160a01b03851690639283ae3a9060240160206040518083038186803b1580156103d957600080fd5b505afa1580156103ed573d6000803e3d6000fd5b505050506040513d601f19601f820116820180604052508101906104119190614ec5565b600114156108d357604051634941d71d60e11b81527f1710acff43ba8f339e18305d5d5116602e0cf6b226983bae821884b877626aa660048201526000906001600160a01b03861690639283ae3a9060240160206040518083038186803b15801561047b57600080fd5b505afa15801561048f573d6000803e3d6000fd5b505050506040513d601f19601f820116820180604052508101906104b39190614ec5565b6040517ffd310d290000000000000000000000000000000000000000000000000000000081527f3b45967f728449b4fbffd6027f6b8d86035e572016480c7bc2a55edeec4f3ca560048201529091506000906001600160a01b0387169063fd310d299060240160206040518083038186803b15801561053157600080fd5b505afa158015610545573d6000803e3d6000fd5b505050506040513d601f19601f820116820180604052508101906105699190614d52565b604051634941d71d60e11b81527f20d88b77300b4133cc1f146fdec45d5266086bc18b256e8e607ef37ec1d047b260048201529091506000906001600160a01b03881690639283ae3a9060240160206040518083038186803b1580156105ce57600080fd5b505afa1580156105e2573d6000803e3d6000fd5b505050506040513d601f19601f820116820180604052508101906106069190614ec5565b604051634941d71d60e11b81527f04d4d5cbde9f5c38336ca61af88f78d20a912993a64a3951a1cc2ccd8bb0e89960048201529091506000906001600160a01b03891690639283ae3a9060240160206040518083038186803b15801561066b57600080fd5b505afa15801561067f573d6000803e3d6000fd5b505050506040513d601f19601f820116820180604052508101906106a39190614ec5565b90508315801561072d57506040516370a0823160e01b81526001600160a01b0387811660048301528391908516906370a082319060240160206040518083038186803b1580156106f257600080fd5b505afa158015610706573d6000803e3d6000fd5b505050506040513d601f19601f8201168201806040525081019061072a9190614ec5565b10155b1561073f5760019450505050506108d7565b8360011480156107c957506040516370a0823160e01b81526001600160a01b0387811660048301528391908516906370a082319060240160206040518083038186803b15801561078e57600080fd5b505afa1580156107a2573d6000803e3d6000fd5b505050506040513d601f19601f820116820180604052508101906107c69190614ec5565b10155b156107db5760019450505050506108d7565b83600214801561086a5750604051627eeac760e11b81526001600160a01b0387811660048301526024820183905283919085169062fdd58e9060440160206040518083038186803b15801561082f57600080fd5b505afa158015610843573d6000803e3d6000fd5b505050506040513d601f19601f820116820180604052508101906108679190614ec5565b10155b1561087c5760019450505050506108d7565b8360031480156108b457506001600160a01b03881660009081526003602090815260408083208a845290915290206108b49087612d96565b156108c65760019450505050506108d7565b60009450505050506108d7565b5060005b9392505050565b8160006108ea82612db8565b90506108f46149ff565b6001600160a01b0385166000818152602081815260408083208884529091529081902090517f30490e91000000000000000000000000000000000000000000000000000000008152600481018790529091906330490e9190602401600060405180830381600087803b15801561096957600080fd5b505af115801561097d573d6000803e3d6000fd5b50506040516317ba7d8560e01b81527faaff643bdbd909f604d46ce015336f7e20fee3ac4a55cef3610188dee176c89260048201526001600160a01b03891692506317ba7d85915060240160206040518083038186803b1580156109e057600080fd5b505afa1580156109f4573d6000803e3d6000fd5b505050506040513d601f19601f82011682018060405250810190610a189190614d52565b6001600160a01b0390811660608401526040517f40de703e00000000000000000000000000000000000000000000000000000000815260048101879052908716906340de703e9060240160206040518083038186803b158015610a7a57600080fd5b505afa158015610a8e573d6000803e3d6000fd5b505050506040513d601f19601f82011682018060405250810190610ab29190614d52565b6001600160a01b031660208301819052610af8576040517f72bacacc00000000000000000000000000000000000000000000000000000000815260040160405180910390fd5b60208201516040517f76225e730000000000000000000000000000000000000000000000000000000081526001600160a01b03888116600483015260248201889052909116906376225e739060440160606040518083038186803b158015610b5f57600080fd5b505afa158015610b73573d6000803e3d6000fd5b505050506040513d601f19601f82011682018060405250810190610b979190614f85565b6fffffffffffffffffffffffffffffffff80821660c0870152821660a086015260808501836005811115610bdb57634e487b7160e01b600052602160045260246000fd5b6005811115610bfa57634e487b7160e01b600052602160045260246000fd5b90525060029150610c089050565b82608001516005811115610c2c57634e487b7160e01b600052602160045260246000fd5b1415610dfc5760168101805461010061ff00199091161790556040516317ba7d8560e01b81527f5443327e16211d6f6930defab8b33523e6990ea67a94b67a6f23dee03dbeb88d60048201526001600160a01b038716906317ba7d859060240160206040518083038186803b158015610ca457600080fd5b505afa158015610cb8573d6000803e3d6000fd5b505050506040513d601f19601f82011682018060405250810190610cdc9190614d52565b6001600160a01b0316638696df5387836040518363ffffffff1660e01b8152600401610d0992919061551d565b600060405180830381600087803b158015610d2357600080fd5b505af1158015610d37573d6000803e3d6000fd5b50505060608301516040517ff10e6b6b0000000000000000000000000000000000000000000000000000000081526001600160a01b038981166004830152909116915063f10e6b6b90602401600060405180830381600087803b158015610d9d57600080fd5b505af1158015610db1573d6000803e3d6000fd5b5050505060168101805461ff0019166102001790556001600160a01b03861660009081526001602081905260408220805491929091610df1908490615815565b90915550610e9e9050565b600382608001516005811115610e2257634e487b7160e01b600052602160045260246000fd5b1480610e515750600182608001516005811115610e4f57634e487b7160e01b600052602160045260246000fd5b145b15610e6c5760168101805461ff001916610400179055610e9e565b6040517f70fc772800000000000000000000000000000000000000000000000000000000815260040160405180910390fd5b6001600160a01b0386166000908152600460205260409020610ec09086613083565b15610ee9576001600160a01b0386166000908152600460205260409020610ee7908661309b565b505b6000610ef587876130a7565b90507f2bdcd9364cd03f3b390f2f088b6dcef6ef67097a47a0a392d981c4ee723771be87878460160160019054906101000a900460ff16848760a001518860c0015189608001516005811115610f5b57634e487b7160e01b600052602160045260246000fd5b604051610f6e97969594939291906152f8565b60405180910390a1505050610f8382826133d3565b50505050565b6000602052816000526040600020602052806000526040600020600091509150508060000160009054906101000a90046001600160a01b0316908060010160405180608001604052908160008201548152602001600182015481526020016002820154815260200160038201548152505090806005016040518060c001604052908160008201548152602001600182015481526020016002820154815260200160038201548152602001600482015481526020016005820154815250509080600b016040518060c0016040529081600082015481526020016001820154815260200160028201548152602001600382015481526020016004820160009054906101000a90046001600160a01b03166001600160a01b03166001600160a01b031681526020016005820160009054906101000a90046001600160a01b03166001600160a01b03166001600160a01b03168152505090806011016040518060400160405290816000820154815260200160018201548152505090806013016040518060a00160405290816000820160009054906101000a900460ff161515151581526020016000820160019054906101000a900460ff1660ff1660ff1681526020016000820160029054906101000a90046001600160a01b03166001600160a01b03166001600160a01b0316815260200160018201548152602001600282015481525050908060160160009054906101000a900460ff16908060160160019054906101000a900460ff1690806017015490806018015490806019016040518060400160405290816000820160009054906101000a900460ff161515151581526020016001820154815250509080601b016040518060e00160405290816000820160009054906101000a900460ff1615151515815260200160018201805461122d90615884565b80601f016020809104026020016040519081016040528092919081815260200182805461125990615884565b80156112a65780601f1061127b576101008083540402835291602001916112a6565b820191906000526020600020905b81548152906001019060200180831161128957829003601f168201915b5050509183525050600282015460ff16602080830191909152600383015460408084019190915260048401546001600160a01b031660608401526005840154608084015260068401805482518185028101850190935280835260a090940193919290919083018282801561134357602002820191906000526020600020905b81546001600160a01b03168152600190910190602001808311611325575b50505050508152505090508c565b61135e6020820182614d36565b61136881336133e2565b6113756020830183614d36565b600061138082612db8565b905060006002816113946020880188614d36565b6001600160a01b03166001600160a01b03168152602001908152602001600020541415801561151a5750600080806113cf6020880188614d36565b6001600160a01b03166001600160a01b031681526020019081526020016000206000600260008860000160208101906114089190614d36565b6001600160a01b03166001600160a01b0316815260200190815260200160002054815260200190815260200160002060160160019054906101000a900460ff16600481111561146757634e487b7160e01b600052602160045260246000fd5b148061151a575060016000806114806020880188614d36565b6001600160a01b03166001600160a01b031681526020019081526020016000206000600260008860000160208101906114b99190614d36565b6001600160a01b03166001600160a01b0316815260200190815260200160002054815260200190815260200160002060160160019054906101000a900460ff16600481111561151857634e487b7160e01b600052602160045260246000fd5b145b15611551576040517fc49f1f0a00000000000000000000000000000000000000000000000000000000815260040160405180910390fd5b611644604051806102e001604052806000815260200160006001600160a01b0316815260200160006001600160a01b0316815260200160006001600160a01b0316815260200160006001600160a01b0316815260200160008019168152602001600081526020016000815260200160008152602001600081526020016000815260200160008152602001600081526020016000815260200160008152602001600081526020016000815260200160008152602001600081526020016000815260200160006001600160a01b0316815260200160006001600160a01b0316815260200160006001600160a01b031681525090565b6116516020860186614d36565b6040516317ba7d8560e01b81527f77cdf6056467142a33aa6f753fc1e3907f6850ebf08c7b63b107b0611a69b04e60048201526001600160a01b0391909116906317ba7d859060240160206040518083038186803b1580156116b257600080fd5b505afa1580156116c6573d6000803e3d6000fd5b505050506040513d601f19601f820116820180604052508101906116ea9190614d52565b6001600160a01b03166102a08201819052639a0242fc61170d6020880188614d36565b6040516001600160e01b031960e084901b1681526001600160a01b03909116600482015260240160206040518083038186803b15801561174c57600080fd5b505afa158015611760573d6000803e3d6000fd5b505050506040513d601f19601f820116820180604052508101906117849190614e7c565b6117ba576040517fd9c6abc500000000000000000000000000000000000000000000000000000000815260040160405180910390fd5b6117c76020860186614d36565b6040516317ba7d8560e01b81527f0fd8cce4ef00a7a8c0c5f91194bc80f122deefe664dd2a2384687da62ab117d160048201526001600160a01b0391909116906317ba7d859060240160206040518083038186803b15801561182857600080fd5b505afa15801561183c573d6000803e3d6000fd5b505050506040513d601f19601f820116820180604052508101906118609190614d52565b6001600160a01b03166102c0820181905260009063a5d6fb136118866020890189614d36565b6040516001600160e01b031960e084901b1681526001600160a01b03909116600482015260240160206040518083038186803b1580156118c557600080fd5b505afa1580156118d9573d6000803e3d6000fd5b505050506040513d601f19601f820116820180604052508101906118fd9190614ec5565b11806119a257506102c08101516000906001600160a01b03166362e86df56119286020890189614d36565b6040516001600160e01b031960e084901b1681526001600160a01b03909116600482015260240160206040518083038186803b15801561196757600080fd5b505afa15801561197b573d6000803e3d6000fd5b505050506040513d601f19601f8201168201806040525081019061199f9190614ec5565b14155b156119d9576040517f1721fd7900000000000000000000000000000000000000000000000000000000815260040160405180910390fd5b6119e66020860186614d36565b604051634941d71d60e11b81527f9ce69cf04065e3c7823cc5540c0598d8a694bd7a9a5a2a786d8bccf14ed6e2ea60048201526001600160a01b039190911690639283ae3a9060240160206040518083038186803b158015611a4757600080fd5b505afa158015611a5b573d6000803e3d6000fd5b505050506040513d601f19601f82011682018060405250810190611a7f9190614ec5565b8152611a8e6020860186614d36565b604051634941d71d60e11b81527fb0d4178853a5320a41f8c55fa6d58af06637e392beff71e66dba4e8f32c39bb860048201526001600160a01b039190911690639283ae3a9060240160206040518083038186803b158015611aef57600080fd5b505afa158015611b03573d6000803e3d6000fd5b505050506040513d601f19601f82011682018060405250810190611b279190614ec5565b6101e0820152611b3a6020860186614d36565b6040516317ba7d8560e01b81527faaff643bdbd909f604d46ce015336f7e20fee3ac4a55cef3610188dee176c89260048201526001600160a01b0391909116906317ba7d859060240160206040518083038186803b158015611b9b57600080fd5b505afa158015611baf573d6000803e3d6000fd5b505050506040513d601f19601f82011682018060405250810190611bd39190614d52565b6001600160a01b031661028082018190526000906368abb5e0611bf96020890189614d36565b6040516001600160e01b031960e084901b1681526001600160a01b03909116600482015260240160206040518083038186803b158015611c3857600080fd5b505afa158015611c4c573d6000803e3d6000fd5b505050506040513d601f19601f82011682018060405250810190611c709190614ec5565b1115611ca8576040517fb4b87a0f00000000000000000000000000000000000000000000000000000000815260040160405180910390fd5b6101e08101518151611cc291611cbd91615815565b6134c0565b60006102808201516001600160a01b0316631ee1a2b0611ce56020890189614d36565b6040516001600160e01b031960e084901b1681526001600160a01b03909116600482015260240160206040518083038186803b158015611d2457600080fd5b505afa158015611d38573d6000803e3d6000fd5b505050506040513d601f19601f82011682018060405250810190611d5c9190614f66565b6003811115611d7b57634e487b7160e01b600052602160045260246000fd5b1480611e3d575060036102808201516001600160a01b0316631ee1a2b0611da56020890189614d36565b6040516001600160e01b031960e084901b1681526001600160a01b03909116600482015260240160206040518083038186803b158015611de457600080fd5b505afa158015611df8573d6000803e3d6000fd5b505050506040513d601f19601f82011682018060405250810190611e1c9190614f66565b6003811115611e3b57634e487b7160e01b600052602160045260246000fd5b145b80611f19575060026102808201516001600160a01b0316631ee1a2b0611e666020890189614d36565b6040516001600160e01b031960e084901b1681526001600160a01b03909116600482015260240160206040518083038186803b158015611ea557600080fd5b505afa158015611eb9573d6000803e3d6000fd5b505050506040513d601f19601f82011682018060405250810190611edd9190614f66565b6003811115611efc57634e487b7160e01b600052602160045260246000fd5b148015611f1957506101e08101518151611f169190615815565b42115b611f6a5760405162461bcd60e51b815260206004820152600760248201527f6e6f74206e6f770000000000000000000000000000000000000000000000000060448201526064015b60405180910390fd5b8061028001516001600160a01b031663b0e21e8a6040518163ffffffff1660e01b815260040160206040518083038186803b158015611fa857600080fd5b505afa158015611fbc573d6000803e3d6000fd5b505050506040513d601f19601f82011682018060405250810190611fe09190614ec5565b6102608201526020850135158061200c575060408501351580159061200c575060208501356040860135105b80612015575060005b80612036575060808501351580159061203657506060850135608086013511155b8061204457504260c0860135105b80612056575060c085013560e0860135105b806120645750610100850135155b806120785750610140850135610120860135115b8061208c5750610100850135610140860135115b806120a45750670de0b6b3a764000061018086013510155b806120ad575060005b806120c55750670de0b6b3a76400006101c086013510155b806120ce575060005b806120d7575060005b806120ef5750670de0b6b3a764000061024086013510155b806120f8575060005b806121105750670de0b6b3a764000061026086013510155b15612147576040517f22ee6ae700000000000000000000000000000000000000000000000000000000815260040160405180910390fd5b6121546020860186614d36565b6040516317ba7d8560e01b81527fd3999c37f8f35da86f802a74f9bf032c4aeb46e49abd9c861f489ef4cb40d0a860048201526001600160a01b0391909116906317ba7d859060240160206040518083038186803b1580156121b557600080fd5b505afa1580156121c9573d6000803e3d6000fd5b505050506040513d601f19601f820116820180604052508101906121ed9190614d52565b6001600160a01b031660208083019190915261220b90860186614d36565b6001600160a01b0316630b9411ba6040518163ffffffff1660e01b8152600401600060405180830381600087803b15801561224557600080fd5b505af1158015612259573d6000803e3d6000fd5b5061231c925061226f9150506020870187614d36565b60c01b6122f76122826020890189614d36565b6001600160a01b031663a25950c56040518163ffffffff1660e01b815260040160206040518083038186803b1580156122ba57600080fd5b505afa1580156122ce573d6000803e3d6000fd5b505050506040513d601f19601f820116820180604052508101906122f29190614ec5565b613536565b60405160200161230892919061528a565b60405160208183030381529060405261368c565b60a082015261232e6020860186614d36565b6001600160a01b031663b73dc3898260a001516040518263ffffffff1660e01b815260040161235f91815260200190565b600060405180830381600087803b15801561237957600080fd5b505af115801561238d573d6000803e3d6000fd5b505060408051610180810190915291508190506123b261024088016102208901614d36565b6001600160a01b03168152604080516080808201835260208a81013583528a840135838201526060808c0135848601528b8301358185015281860193909352835160c08082018652808d0135825260e08d0135828401526101008d0135828701526101208d0135828601526101408d0135828501526101608d013560a083015285870191909152845190810185526101808c013581526101a08c0135918101919091526101c08b0135938101939093526102608601518383015292019181016124836102008a016101e08b01614d36565b6001600160a01b031681526020016124a36102208a016102008b01614d36565b6001600160a01b0316905281526040805180820182526102408901358152610260890135602082810191909152830152805160a081018252910190806124ed6102808a018a615771565b6124fb906020810190614e60565b151581526020016125106102808a018a615771565b61252190604081019060200161501f565b60ff1681526020016125376102808a018a615771565b612548906060810190604001614d36565b6001600160a01b031681526020016125646102808a018a615771565b60600135815260200161257b6102808a018a615771565b608001359052815260200161259660c0880160a0890161501f565b60ff168152602001600081526020014281526020018660000160208101906125be9190614d36565b604051634941d71d60e11b81527f9876c0f0505bfb2b1c38d3bbd25ba13159172cd0868972d76927723f5a9480fc60048201526001600160a01b039190911690639283ae3a9060240160206040518083038186803b15801561261f57600080fd5b505afa158015612633573d6000803e3d6000fd5b505050506040513d601f19601f820116820180604052508101906126579190614ec5565b6126619042615815565b81526020016040518060400160405280886102a00160000160208101906126889190614e60565b151581526102c08901356020918201529082526040805160e08101909152910190806126b86102e08a018a6157ae565b6126c6906020810190614e60565b151581526020016126db6102e08a018a6157ae565b6126e990602081019061572c565b8080601f0160208091040260200160405190810160405280939291908181526020018383808284376000920191909152505050908252506020016127316102e08a018a6157ae565b61274290606081019060400161501f565b60ff1681526020016127586102e08a018a6157ae565b60600135815260200161276f6102e08a018a6157ae565b6127809060a0810190608001614d36565b6001600160a01b0316815260200161279c6102e08a018a6157ae565b60a0013581526020016127b36102e08a018a6157ae565b6127c19060c08101906156dd565b808060200260200160405190810160405280939291908181526020018383602002808284376000920182905250939094525050919092529050806128086020890189614d36565b6001600160a01b0390811682526020808301939093526040918201600090812060a0808801518352908552908390208551815490841673ffffffffffffffffffffffffffffffffffffffff1991821617825586860151805160018401558087015160028401558086015160038401556060908101516004808501919091558887015180516005860155808901516006860155808801516007860155808301516008860155608080820151600987015590860151600a860155828a01518051600b870155808a0151600c87015580890151600d87015580840151600e87015580820151600f87018054918a16918716919091179055860151601086018054918916919095161790935582890151805160118601558801516012850155938801518051601385018054998301519883015190971662010000027fffffffffffffffffffff0000000000000000000000000000000000000000ffff60ff998a1661010090810261ff0019941515949094167fffffffffffffffffffffffffffffffffffffffffffffffffffffffffffff00009c8d16179390931716179096559081015160148401550151601582015560c08601516016820180549190951660ff1982168117865560e08801519296929594919092169091179184908111156129fd57634e487b7160e01b600052602160045260246000fd5b021790555061010082015160178201556101208201516018820155610140820151805160198301805491151560ff19928316179055602091820151601a8401556101608401518051601b85018054911515919093161782558083015180519193612a6f92601c87019290910190614a50565b50604082015160028201805460ff191660ff90921691909117905560608201516003820155608082015160048201805473ffffffffffffffffffffffffffffffffffffffff19166001600160a01b0390921691909117905560a0820151600582015560c08201518051612aec916006840191602090910190614ad4565b50612b01935050506102808701905086615771565b612b0f906020810190614e60565b8015612b3c5750612b24610280860186615771565b612b3590604081019060200161501f565b60ff166003145b8015612b6557506000612b53610280870187615771565b612b619060a08101906156dd565b9050115b15612ba057612ba0612b7a6020870187614d36565b60a0830151612b8d610280890189615771565b612b9b9060a08101906156dd565b6136a8565b6020808201516001600160a01b0316906326078cd090612bc290880188614d36565b60a0840151604080516020810182526000815290516001600160e01b031960e086901b168152612bf893929142916004016154e5565b600060405180830381600087803b158015612c1257600080fd5b505af1158015612c26573d6000803e3d6000fd5b50612c38925050506020860186614d36565b6001600160a01b031663815a2bf48260a0015183602001516040518363ffffffff1660e01b8152600401612c7f9291909182526001600160a01b0316602082015260400190565b600060405180830381600087803b158015612c9957600080fd5b505af1158015612cad573d6000803e3d6000fd5b50505060a0820151612cea915060046000612ccb60208a018a614d36565b6001600160a01b03168152602081019190915260400160002090613734565b5060a081015160026000612d016020890189614d36565b6001600160a01b03168152602080820192909252604001600020919091557ffe22c13d0cc04eef2a813c30901da5f8cd64f5ba91866fccce71c606ce46487490612d4d90870187614d36565b60a0830151604080516001600160a01b03909316835260208301919091520160405180910390a150610f8382826133d3565b606060006108d783613740565b600061033a825490565b6001600160a01b03811660009081526001830160205260408120541515610337565b6040805160808101825260008082526020820181905291810182905260608101919091525a81600001818152505043826001600160a01b031663b21634826040518163ffffffff1660e01b815260040160206040518083038186803b158015612e2057600080fd5b505afa158015612e34573d6000803e3d6000fd5b505050506040513d601f19601f82011682018060405250810190612e589190614ec5565b1415612ea65760405162461bcd60e51b815260206004820152601060248201527f7265656e7472616e6379206775617264000000000000000000000000000000006044820152606401611f61565b816001600160a01b03166310fdb0a26040518163ffffffff1660e01b8152600401600060405180830381600087803b158015612ee157600080fd5b505af1158015612ef5573d6000803e3d6000fd5b50506040517f72c6838f0000000000000000000000000000000000000000000000000000000081527f1f2fd42ad6a6cacd573c4b212beb7a4e2499ad45d742a65337097f130e71daff6004820152600092506001600160a01b03851691506372c6838f9060240160206040518083038186803b158015612f7457600080fd5b505afa158015612f88573d6000803e3d6000fd5b505050506040513d601f19601f82011682018060405250810190612fac9190614d52565b90506001600160a01b038116612fc8576000602083015261307d565b6001600160a01b038181166060840181905283516040517f43a8a3f1000000000000000000000000000000000000000000000000000000008152928616600484015260248301526000918291906343a8a3f190604401604080518083038186803b15801561303557600080fd5b505afa158015613049573d6000803e3d6000fd5b505050506040513d601f19601f8201168201806040525081019061306d9190614e98565b9015156020860152604085015250505b50919050565b60008181526001830160205260408120541515610337565b6000610337838361379c565b600080836001600160a01b031663a6f636416040518163ffffffff1660e01b815260040160006040518083038186803b1580156130e357600080fd5b505afa1580156130f7573d6000803e3d6000fd5b505050506040513d6000823e601f3d908101601f1916820160405261311f9190810190614d99565b6040516317ba7d8560e01b81527fd3999c37f8f35da86f802a74f9bf032c4aeb46e49abd9c861f489ef4cb40d0a8600482015290915060009081906001600160a01b038716906317ba7d859060240160206040518083038186803b15801561318657600080fd5b505afa15801561319a573d6000803e3d6000fd5b505050506040513d601f19601f820116820180604052508101906131be9190614d52565b905060005b83518160ff1610156133c857816001600160a01b03166324a2cceb8888878560ff168151811061320357634e487b7160e01b600052603260045260246000fd5b60200260200101516040518463ffffffff1660e01b8152600401613247939291906001600160a01b0393841681526020810192909252909116604082015260600190565b60206040518083038186803b15801561325f57600080fd5b505afa158015613273573d6000803e3d6000fd5b505050506040513d601f19601f820116820180604052508101906132979190614e7c565b1561337557816001600160a01b03166391d2fd538888878560ff16815181106132d057634e487b7160e01b600052603260045260246000fd5b60200260200101516040518463ffffffff1660e01b8152600401613314939291906001600160a01b0393841681526020810192909252909116604082015260600190565b60206040518083038186803b15801561332c57600080fd5b505afa158015613340573d6000803e3d6000fd5b505050506040513d601f19601f820116820180604052508101906133649190615005565b61336e90846157e1565b92506133b6565b6133a987858360ff168151811061339c57634e487b7160e01b600052603260045260246000fd5b60200260200101516138b9565b6133b390846157e1565b92505b806133c0816158f2565b9150506131c3565b509095945050505050565b6133de82823361474e565b5050565b6040517fa230c5240000000000000000000000000000000000000000000000000000000081526001600160a01b03828116600483015283169063a230c5249060240160206040518083038186803b15801561343c57600080fd5b505afa158015613450573d6000803e3d6000fd5b505050506040513d601f19601f820116820180604052508101906134749190614e7c565b6133de5760405162461bcd60e51b815260206004820152600c60248201527f6f6e6c79476f7665726e6f7200000000000000000000000000000000000000006044820152606401611f61565b613533816040516024016134d691815260200190565b60408051601f198184030181529190526020810180517bffffffffffffffffffffffffffffffffffffffffffffffffffffffff167ff82c50f100000000000000000000000000000000000000000000000000000000179052614844565b50565b60608161357657505060408051808201909152600181527f3000000000000000000000000000000000000000000000000000000000000000602082015290565b8160005b81156135a0578061358a816158b9565b91506135999050600a8361582d565b915061357a565b60008167ffffffffffffffff8111156135c957634e487b7160e01b600052604160045260246000fd5b6040519080825280601f01601f1916602001820160405280156135f3576020820181803683370190505b5090505b841561368457613608600183615841565b9150613615600a86615912565b613620906030615815565b60f81b81838151811061364357634e487b7160e01b600052603260045260246000fd5b60200101907effffffffffffffffffffffffffffffffffffffffffffffffffffffffffffff1916908160001a90535061367d600a8661582d565b94506135f7565b949350505050565b60008151600014156136a057506000919050565b506020015190565b60005b60ff811682111561372d5761371a83838360ff168181106136dc57634e487b7160e01b600052603260045260246000fd5b90506020020160208101906136f19190614d36565b6001600160a01b038716600090815260036020908152604080832089845290915290209061484d565b5080613725816158f2565b9150506136ab565b5050505050565b6000610337838361485e565b60608160000180548060200260200160405190810160405280929190818152602001828054801561379057602002820191906000526020600020905b81548152602001906001019080831161377c575b50505050509050919050565b600081815260018301602052604081205480156138af5760006137c0600183615841565b85549091506000906137d490600190615841565b905081811461385557600086600001828154811061380257634e487b7160e01b600052603260045260246000fd5b906000526020600020015490508087600001848154811061383357634e487b7160e01b600052603260045260246000fd5b6000918252602080832090910192909255918252600188019052604090208390555b855486908061387457634e487b7160e01b600052603160045260246000fd5b60019003818190600052602060002001600090559055856001016000868152602001908152602001600020600090556001935050505061033a565b600091505061033a565b6040516317ba7d8560e01b81527faaff643bdbd909f604d46ce015336f7e20fee3ac4a55cef3610188dee176c892600482015260009081906001600160a01b038516906317ba7d859060240160206040518083038186803b15801561391d57600080fd5b505afa158015613931573d6000803e3d6000fd5b505050506040513d601f19601f820116820180604052508101906139559190614d52565b6040516317ba7d8560e01b81527fa837e34a29b67bf52f684a1c93def79b84b9c012732becee4e5df62809df64ed60048201529091506000906001600160a01b038616906317ba7d859060240160206040518083038186803b1580156139ba57600080fd5b505afa1580156139ce573d6000803e3d6000fd5b505050506040513d601f19601f820116820180604052508101906139f29190614d52565b6040516317ba7d8560e01b81527f1fa6846b165d822fff79e37c67625706652fa9380c2aa49fd513ce534cc72ed460048201529091506000906001600160a01b038716906317ba7d859060240160206040518083038186803b158015613a5757600080fd5b505afa158015613a6b573d6000803e3d6000fd5b505050506040513d601f19601f82011682018060405250810190613a8f9190614d52565b604051634941d71d60e11b81527f686efe7bd1699b408d306db6bbee658ed667971c52d48d6912d7ee496e36e62760048201529091506000906001600160a01b03881690639283ae3a9060240160206040518083038186803b158015613af457600080fd5b505afa158015613b08573d6000803e3d6000fd5b505050506040513d601f19601f82011682018060405250810190613b2c9190614ec5565b604051634941d71d60e11b81527fb75eae231d9582c6afc6491273df4a0ffbccd48ab2c48dbce59e5d68f2d19dc460048201529091506000906001600160a01b03891690639283ae3a9060240160206040518083038186803b158015613b9157600080fd5b505afa158015613ba5573d6000803e3d6000fd5b505050506040513d601f19601f82011682018060405250810190613bc99190614ec5565b604051634941d71d60e11b81527e634460a4b60c2e1bf8c87bfc42b6b68fd2a71f4bb2d760816eabc5038b503660048201529091506000906001600160a01b038a1690639283ae3a9060240160206040518083038186803b158015613c2d57600080fd5b505afa158015613c41573d6000803e3d6000fd5b505050506040513d601f19601f82011682018060405250810190613c659190614ec5565b6040517ffd310d290000000000000000000000000000000000000000000000000000000081527fcd9b30ab6388c165d825b60b7d393528191ba59d975b4b1b52b7184b63b8a97c60048201529091506000906001600160a01b038b169063fd310d299060240160206040518083038186803b158015613ce357600080fd5b505afa158015613cf7573d6000803e3d6000fd5b505050506040513d601f19601f82011682018060405250810190613d1b9190614d52565b9050826001141561419657600084613dc3576040516370a0823160e01b81526001600160a01b038b81166004830152670de0b6b3a764000091908416906370a08231906024015b60206040518083038186803b158015613d7a57600080fd5b505afa158015613d8e573d6000803e3d6000fd5b505050506040513d601f19601f82011682018060405250810190613db29190614ec5565b613dbc919061582d565b9050614127565b8460011415613e46576040516370a0823160e01b81526001600160a01b038b811660048301528316906370a08231906024015b60206040518083038186803b158015613e0e57600080fd5b505afa158015613e22573d6000803e3d6000fd5b505050506040513d601f19601f82011682018060405250810190613dbc9190614ec5565b8460021415613e8257604051627eeac760e11b81526001600160a01b038b811660048301526024820185905283169062fdd58e90604401613df6565b8460031415613ec1576040516329b6517360e21b81526001600160a01b038c811660048301528b8116602483015287169063a6d945cc90604401613df6565b84600414156141165760026040517f1ee1a2b00000000000000000000000000000000000000000000000000000000081526001600160a01b038d811660048301528a1690631ee1a2b09060240160206040518083038186803b158015613f2657600080fd5b505afa158015613f3a573d6000803e3d6000fd5b505050506040513d601f19601f82011682018060405250810190613f5e9190614f66565b6003811115613f7d57634e487b7160e01b600052602160045260246000fd5b14801561401f5750604051634941d71d60e11b81527f9ce69cf04065e3c7823cc5540c0598d8a694bd7a9a5a2a786d8bccf14ed6e2ea60048201526001600160a01b038c1690639283ae3a9060240160206040518083038186803b158015613fe457600080fd5b505afa158015613ff8573d6000803e3d6000fd5b505050506040513d601f19601f8201168201806040525081019061401c9190614ec5565b42105b80156140bf57506040517f4fc0a76d0000000000000000000000000000000000000000000000000000000081526001600160a01b038c8116600483015260019190891690634fc0a76d9060240160206040518083038186803b15801561408457600080fd5b505afa158015614098573d6000803e3d6000fd5b505050506040513d601f19601f820116820180604052508101906140bc9190614ec5565b10155b1561410557604051633de222bb60e21b81526001600160a01b038c811660048301528b81166024830152670de0b6b3a764000091908a169063f7888aec90604401613d62565b60019850505050505050505061033a565b60009850505050505050505061033a565b600081116141405760009850505050505050505061033a565b677fffffffffffffff81106141605760329850505050505050505061033a565b600061417b614176614171846148ad565b6148cb565b6149c2565b67ffffffffffffffff16995061033a98505050505050505050565b826002141561434d5760008461423d576040516370a0823160e01b81526001600160a01b038b81166004830152600091908416906370a08231906024015b60206040518083038186803b1580156141ec57600080fd5b505afa158015614200573d6000803e3d6000fd5b505050506040513d601f19601f820116820180604052508101906142249190614ec5565b11614230576000614233565b60015b60ff16905061433e565b8460011415614278576040516370a0823160e01b81526001600160a01b038b81166004830152600091908416906370a08231906024016141d4565b84600214156142b857604051627eeac760e11b81526001600160a01b038b81166004830152602482018590526000919084169062fdd58e906044016141d4565b84600314156142fb576040516329b6517360e21b81526001600160a01b038c811660048301528b811660248301526000919088169063a6d945cc906044016141d4565b846004141561411657604051633de222bb60e21b81526001600160a01b038c811660048301528b81166024830152600091908a169063f7888aec906044016141d4565b975061033a9650505050505050565b82614731576000846143ef576040516370a0823160e01b81526001600160a01b038b81166004830152670de0b6b3a764000091908416906370a08231906024015b60206040518083038186803b1580156143a657600080fd5b505afa1580156143ba573d6000803e3d6000fd5b505050506040513d601f19601f820116820180604052508101906143de9190614ec5565b6143e8919061582d565b905061433e565b8460011415614472576040516370a0823160e01b81526001600160a01b038b811660048301528316906370a08231906024015b60206040518083038186803b15801561443a57600080fd5b505afa15801561444e573d6000803e3d6000fd5b505050506040513d601f19601f820116820180604052508101906143e89190614ec5565b84600214156144ae57604051627eeac760e11b81526001600160a01b038b811660048301526024820185905283169062fdd58e90604401614422565b84600314156144ed576040516329b6517360e21b81526001600160a01b038c811660048301528b8116602483015287169063a6d945cc90604401614422565b84600414156141165760026040517f1ee1a2b00000000000000000000000000000000000000000000000000000000081526001600160a01b038d811660048301528a1690631ee1a2b09060240160206040518083038186803b15801561455257600080fd5b505afa158015614566573d6000803e3d6000fd5b505050506040513d601f19601f8201168201806040525081019061458a9190614f66565b60038111156145a957634e487b7160e01b600052602160045260246000fd5b14801561464b5750604051634941d71d60e11b81527f9ce69cf04065e3c7823cc5540c0598d8a694bd7a9a5a2a786d8bccf14ed6e2ea60048201526001600160a01b038c1690639283ae3a9060240160206040518083038186803b15801561461057600080fd5b505afa158015614624573d6000803e3d6000fd5b505050506040513d601f19601f820116820180604052508101906146489190614ec5565b42105b80156146eb57506040517f4fc0a76d0000000000000000000000000000000000000000000000000000000081526001600160a01b038c8116600483015260019190891690634fc0a76d9060240160206040518083038186803b1580156146b057600080fd5b505afa1580156146c4573d6000803e3d6000fd5b505050506040513d601f19601f820116820180604052508101906146e89190614ec5565b10155b1561410557604051633de222bb60e21b81526001600160a01b038c811660048301528b81166024830152670de0b6b3a764000091908a169063f7888aec9060440161438e565b600097505050505050505061033a565b5050505050505092915050565b8160200151156147ec5781606001516001600160a01b0316635e5eb01384835a865161477a9190615841565b60408088015190516001600160e01b031960e087901b1681526001600160a01b03948516600482015293909216602484015260448301526064820152608401600060405180830381600087803b1580156147d357600080fd5b505af11580156147e7573d6000803e3d6000fd5b505050505b826001600160a01b031663d4f7af436040518163ffffffff1660e01b8152600401600060405180830381600087803b15801561482757600080fd5b505af115801561483b573d6000803e3d6000fd5b50505050505050565b613533816149de565b6000610337836001600160a01b0384165b60008181526001830160205260408120546148a55750815460018181018455600084815260208082209093018490558454848252828601909352604090209190915561033a565b50600061033a565b6000677fffffffffffffff8211156148c457600080fd5b5060401b90565b60008082600f0b136148dc57600080fd5b6000600f83900b6801000000000000000081126148fb576040918201911d5b640100000000811261490f576020918201911d5b620100008112614921576010918201911d5b6101008112614932576008918201911d5b60108112614942576004918201911d5b60048112614952576002918201911d5b60028112614961576001820191505b7fffffffffffffffffffffffffffffffffffffffffffffffffffffffffffffffc0820160401b600f85900b607f8490031b6780000000000000005b60008113156133c85790800260ff81901c8281029390930192607f011c9060011d61499c565b60008082600f0b12156149d457600080fd5b50600f0b60401d90565b60006a636f6e736f6c652e6c6f679050600080835160208501845afa505050565b6040805161012081018252600080825260208201819052918101829052606081018290529060808201908152600060208201819052604082018190526060820152608001614a4b614b36565b905290565b828054614a5c90615884565b90600052602060002090601f016020900481019282614a7e5760008555614ac4565b82601f10614a9757805160ff1916838001178555614ac4565b82800160010185558215614ac4579182015b82811115614ac4578251825591602001919060010190614aa9565b50614ad0929150614cf1565b5090565b828054828255906000526020600020908101928215614ac4579160200282015b82811115614ac4578251825473ffffffffffffffffffffffffffffffffffffffff19166001600160a01b03909116178255602090920191600190910190614af4565b60405180610180016040528060006001600160a01b03168152602001614b7d6040518060800160405280600081526020016000815260200160008152602001600081525090565b8152602001614bbb6040518060c001604052806000815260200160008152602001600081526020016000815260200160008152602001600081525090565b8152602001614c0b6040518060c001604052806000815260200160008152602001600081526020016000815260200160006001600160a01b0316815260200160006001600160a01b031681525090565b8152602001614c2d604051806040016040528060008152602001600081525090565b81526040805160a08101825260008082526020828101829052928201819052606082018190526080820152910190815260006020820181905260409091019081526020016000815260200160008152602001614c9e6040518060400160405280600015158152602001600081525090565b8152602001614a4b6040518060e0016040528060001515815260200160608152602001600060ff1681526020016000815260200160006001600160a01b0316815260200160008152602001606081525090565b5b80821115614ad05760008155600101614cf2565b8051614d1181615968565b919050565b80516fffffffffffffffffffffffffffffffff81168114614d1157600080fd5b600060208284031215614d47578081fd5b81356108d781615968565b600060208284031215614d63578081fd5b81516108d781615968565b60008060408385031215614d80578081fd5b8235614d8b81615968565b946020939093013593505050565b60006020808385031215614dab578182fd5b825167ffffffffffffffff80821115614dc2578384fd5b818501915085601f830112614dd5578384fd5b815181811115614de757614de7615952565b8060051b604051601f19603f83011681018181108582111715614e0c57614e0c615952565b604052828152858101935084860182860187018a1015614e2a578788fd5b8795505b83861015614e5357614e3f81614d06565b855260019590950194938601938601614e2e565b5098975050505050505050565b600060208284031215614e71578081fd5b81356108d78161597d565b600060208284031215614e8d578081fd5b81516108d78161597d565b60008060408385031215614eaa578182fd5b8251614eb58161597d565b6020939093015192949293505050565b600060208284031215614ed6578081fd5b5051919050565b60008060408385031215614d80578182fd5b600080600060608486031215614f03578081fd5b8335614f0e81615968565b9250602084013591506040840135614f2581615968565b809150509250925092565b600080600060608486031215614f44578283fd5b8335614f4f81615968565b9250602084013591506040840135614f258161597d565b600060208284031215614f77578081fd5b8151600481106108d7578182fd5b600080600060608486031215614f99578081fd5b835160068110614fa7578182fd5b9250614fb560208501614d16565b9150614fc360408501614d16565b90509250925092565b600060208284031215614fdd578081fd5b813567ffffffffffffffff811115614ff3578182fd5b820161030081850312156108d7578182fd5b600060208284031215615016578081fd5b61033782614d16565b600060208284031215615030578081fd5b813560ff811681146108d7578182fd5b6000815180845260208085019450808401835b838110156150785781516001600160a01b031687529582019590820190600101615053565b509495945050505050565b6000815480845260208085019450838352808320835b838110156150785781546001600160a01b031687529582019560019182019101615099565b600081518084526150d6816020860160208601615858565b601f01601f19169290920160200192915050565b6005811061510857634e487b7160e01b600052602160045260246000fd5b9052565b8054600090600181811c908083168061512657607f831692505b602080841082141561514657634e487b7160e01b86526022600452602486fd5b83885260208801828015615161576001811461517257614741565b60ff19871682528282019750614741565b60008981526020902060005b878110156151975781548482015290860190840161517e565b9092019a9950505050505050505050565b8051151582526000602082015160e060208501526151c960e08501826150be565b905060ff6040840151166040850152606083015160608501526001600160a01b03608084015116608085015260a083015160a085015260c083015184820360c08601526152168282615040565b95945050505050565b60ff8154161515825260e06020830152600061524160e084016001840161510c565b600283015460ff1660408501526003830154606085015260048301546001600160a01b03166080850152600583015460a085015283810360c08501526136848160068501615083565b7fffffffffffffffff000000000000000000000000000000000000000000000000831681527f46756e6445737461626c6973686d656e742300000000000000000000000000006008820152600082516152ea81601a850160208701615858565b91909101601a019392505050565b6001600160a01b03881681526020810187905260e0810161531c60408301886150ea565b6fffffffffffffffffffffffffffffffff958616606083015293851660808201529190931660a082015260c001919091529392505050565b60006103e06001600160a01b038f1683528d51602084015260208e0151604084015260408e0151606084015260608e015160808401526153cc60a084018e805182526020810151602083015260408101516040830152606081015160608301526080810151608083015260a081015160a08301525050565b8b5161016084015260208c015161018084015260408c01516101a084015260608c01516101c084015260808c01516001600160a01b039081166101e085015260a08d0151166102008401528a5161022084015260208b01516102408401528951151561026084015260208a015160ff1661028084015260408a01516001600160a01b03166102a084015260608a01516102c084015260808a01516102e084015260ff89166103008401526154846103208401896150ea565b86610340840152856103608401526154ac610380840186805115158252602090810151910152565b806103c08401526154bf818401856151a8565b9f9e505050505050505050505050505050565b6020815260006103376020830184615040565b6001600160a01b038516815283602082015282604082015260806060820152600061551360808301846150be565b9695505050505050565b6001600160a01b0383168152604060208201526155556040820161554884546001600160a01b031690565b6001600160a01b03169052565b6001820154606082015260028201546080820152600382015460a0820152600482015460c0820152600582015460e08201526006820154610100820152600782015461012082015260088201546101408201526009820154610160820152600a820154610180820152600b8201546101a0820152600c8201546101c0820152600d8201546101e0820152600e820154610200820152600f8201546001600160a01b039081166102208301526010830154166102408201526011820154610260820152601282015461028082015261566b6102a0820160138401805460ff80821615158452600882901c16602084015260101c6001600160a01b031660408301526001810154606083015260020154608090910152565b601682015460ff8116610340830152600090615691610360840160ff8360081c166150ea565b50601783015461038083015260188301546103a0830152601983015460ff1615156103c0830152601a8301546103e08301526103e06104008301526136846104208301601b850161521f565b6000808335601e198436030181126156f3578283fd5b83018035915067ffffffffffffffff82111561570d578283fd5b6020019150600581901b360382131561572557600080fd5b9250929050565b6000808335601e19843603018112615742578283fd5b83018035915067ffffffffffffffff82111561575c578283fd5b60200191503681900382131561572557600080fd5b600082357fffffffffffffffffffffffffffffffffffffffffffffffffffffffffffffff418336030181126157a4578182fd5b9190910192915050565b600082357fffffffffffffffffffffffffffffffffffffffffffffffffffffffffffffff218336030181126157a4578182fd5b60006fffffffffffffffffffffffffffffffff80831681851680830382111561580c5761580c615926565b01949350505050565b6000821982111561582857615828615926565b500190565b60008261583c5761583c61593c565b500490565b60008282101561585357615853615926565b500390565b60005b8381101561587357818101518382015260200161585b565b83811115610f835750506000910152565b600181811c9082168061589857607f821691505b6020821081141561307d57634e487b7160e01b600052602260045260246000fd5b60007fffffffffffffffffffffffffffffffffffffffffffffffffffffffffffffffff8214156158eb576158eb615926565b5060010190565b600060ff821660ff81141561590957615909615926565b60010192915050565b6000826159215761592161593c565b500690565b634e487b7160e01b600052601160045260246000fd5b634e487b7160e01b600052601260045260246000fd5b634e487b7160e01b600052604160045260246000fd5b6001600160a01b038116811461353357600080fd5b801515811461353357600080fdfea2646970667358221220ef051c263f46158fff41a8f79b3b460ccc766708216e078f8cb0016e98df354f64736f6c63430008040033",
  "linkReferences": {},
  "deployedLinkReferences": {}
}