{
  "_format": "hh-sol-artifact-1",
  "contractName": "VintageFundingPoolAdapterContract",
  "sourceName": "contracts/vintage/adapters/VintageFundingPoolAdapter.sol",
  "abi": [
    {
      "inputs": [],
      "name": "ACCESS_DENIED",
      "type": "error"
    },
    {
      "inputs": [],
      "name": "ERC1155_REQUIRMENT",
      "type": "error"
    },
    {
      "inputs": [],
      "name": "ERC20_REQUIRMENT",
      "type": "error"
    },
    {
      "inputs": [],
      "name": "ERC721_REQUIRMENT",
      "type": "error"
    },
    {
      "inputs": [],
      "name": "GREATER_THAN_MAX_DEPOSIT_AMOUNT",
      "type": "error"
    },
    {
      "inputs": [],
      "name": "GREATER_THAN_MAX_FUND_RAISING_AMOUNT",
      "type": "error"
    },
    {
      "inputs": [],
      "name": "INSUFFICIENT_ALLOWANCE",
      "type": "error"
    },
    {
      "inputs": [],
      "name": "INSUFFICIENT_BALANCE",
      "type": "error"
    },
    {
      "inputs": [],
      "name": "INVALID_AMOUNT",
      "type": "error"
    },
    {
      "inputs": [],
      "name": "LESS_THAN_MIN_DEPOSIT_AMOUNT",
      "type": "error"
    },
    {
      "inputs": [],
      "name": "MAX_PATICIPANT_AMOUNT_REACH",
      "type": "error"
    },
    {
      "inputs": [],
      "name": "NOT_IN_FUND_RAISING_WINDOW",
      "type": "error"
    },
    {
      "inputs": [],
      "name": "WHITELIST_REQUIRMENT",
      "type": "error"
    },
    {
      "anonymous": false,
      "inputs": [
        {
          "indexed": false,
          "internalType": "address",
          "name": "dao",
          "type": "address"
        },
        {
          "indexed": false,
          "internalType": "uint256",
          "name": "amount",
          "type": "uint256"
        },
        {
          "indexed": false,
          "internalType": "address",
          "name": "executor",
          "type": "address"
        }
      ],
      "name": "ClearFund",
      "type": "event"
    },
    {
      "anonymous": false,
      "inputs": [
        {
          "indexed": false,
          "internalType": "address",
          "name": "daoAddress",
          "type": "address"
        },
        {
          "indexed": false,
          "internalType": "uint256",
          "name": "amount",
          "type": "uint256"
        },
        {
          "indexed": false,
          "internalType": "address",
          "name": "account",
          "type": "address"
        }
      ],
      "name": "Deposit",
      "type": "event"
    },
    {
      "anonymous": false,
      "inputs": [
        {
          "indexed": false,
          "internalType": "address",
          "name": "dao",
          "type": "address"
        },
        {
          "indexed": false,
          "internalType": "uint256",
          "name": "fundRound",
          "type": "uint256"
        },
        {
          "indexed": false,
          "internalType": "uint256",
          "name": "fundRaiseState",
          "type": "uint256"
        },
        {
          "indexed": false,
          "internalType": "uint256",
          "name": "fundRaisedAmount",
          "type": "uint256"
        }
      ],
      "name": "ProcessFundRaise",
      "type": "event"
    },
    {
      "anonymous": false,
      "inputs": [
        {
          "indexed": false,
          "internalType": "address",
          "name": "dao",
          "type": "address"
        },
        {
          "indexed": false,
          "internalType": "address",
          "name": "account",
          "type": "address"
        },
        {
          "indexed": false,
          "internalType": "uint256",
          "name": "redempAmount",
          "type": "uint256"
        },
        {
          "indexed": false,
          "internalType": "uint256",
          "name": "redemptionFee",
          "type": "uint256"
        }
      ],
      "name": "RedeptionFeeCharged",
      "type": "event"
    },
    {
      "anonymous": false,
      "inputs": [
        {
          "indexed": false,
          "internalType": "address",
          "name": "daoAddress",
          "type": "address"
        },
        {
          "indexed": false,
          "internalType": "uint256",
          "name": "amount",
          "type": "uint256"
        },
        {
          "indexed": false,
          "internalType": "address",
          "name": "account",
          "type": "address"
        }
      ],
      "name": "WithDraw",
      "type": "event"
    },
    {
      "inputs": [
        {
          "internalType": "contract DaoRegistry",
          "name": "dao",
          "type": "address"
        },
        {
          "internalType": "address",
          "name": "investorAddr",
          "type": "address"
        }
      ],
      "name": "balanceOf",
      "outputs": [
        {
          "internalType": "uint256",
          "name": "",
          "type": "uint256"
        }
      ],
      "stateMutability": "view",
      "type": "function"
    },
    {
      "inputs": [
        {
          "internalType": "contract DaoRegistry",
          "name": "dao",
          "type": "address"
        }
      ],
      "name": "clearFund",
      "outputs": [],
      "stateMutability": "nonpayable",
      "type": "function"
    },
    {
      "inputs": [
        {
          "internalType": "contract DaoRegistry",
          "name": "dao",
          "type": "address"
        }
      ],
      "name": "clearInvestorWhitelist",
      "outputs": [],
      "stateMutability": "nonpayable",
      "type": "function"
    },
    {
      "inputs": [
        {
          "internalType": "address",
          "name": "",
          "type": "address"
        }
      ],
      "name": "daoFundRaisingStates",
      "outputs": [
        {
          "internalType": "enum DaoHelper.FundRaiseState",
          "name": "",
          "type": "uint8"
        }
      ],
      "stateMutability": "view",
      "type": "function"
    },
    {
      "inputs": [
        {
          "internalType": "contract DaoRegistry",
          "name": "dao",
          "type": "address"
        },
        {
          "internalType": "uint256",
          "name": "amount",
          "type": "uint256"
        }
      ],
      "name": "deposit",
      "outputs": [],
      "stateMutability": "nonpayable",
      "type": "function"
    },
    {
      "inputs": [
        {
          "internalType": "address",
          "name": "",
          "type": "address"
        },
        {
          "internalType": "bytes32",
          "name": "",
          "type": "bytes32"
        }
      ],
      "name": "freeINPriorityDeposits",
      "outputs": [
        {
          "internalType": "uint256",
          "name": "",
          "type": "uint256"
        }
      ],
      "stateMutability": "view",
      "type": "function"
    },
    {
      "inputs": [
        {
          "internalType": "contract DaoRegistry",
          "name": "dao",
          "type": "address"
        },
        {
          "internalType": "uint256",
          "name": "fundRound",
          "type": "uint256"
        }
      ],
      "name": "getFundInvestors",
      "outputs": [
        {
          "internalType": "address[]",
          "name": "",
          "type": "address[]"
        }
      ],
      "stateMutability": "view",
      "type": "function"
    },
    {
      "inputs": [
        {
          "internalType": "contract DaoRegistry",
          "name": "dao",
          "type": "address"
        }
      ],
      "name": "getInvestorMembershipWhiteList",
      "outputs": [
        {
          "internalType": "address[]",
          "name": "",
          "type": "address[]"
        }
      ],
      "stateMutability": "view",
      "type": "function"
    },
    {
      "inputs": [
        {
          "internalType": "contract DaoRegistry",
          "name": "dao",
          "type": "address"
        }
      ],
      "name": "governorBalance",
      "outputs": [
        {
          "internalType": "uint256",
          "name": "",
          "type": "uint256"
        }
      ],
      "stateMutability": "view",
      "type": "function"
    },
    {
      "inputs": [
        {
          "internalType": "contract DaoRegistry",
          "name": "dao",
          "type": "address"
        },
        {
          "internalType": "uint256",
          "name": "timeStamp",
          "type": "uint256"
        }
      ],
      "name": "ifInRedemptionPeriod",
      "outputs": [
        {
          "internalType": "bool",
          "name": "",
          "type": "bool"
        }
      ],
      "stateMutability": "view",
      "type": "function"
    },
    {
      "inputs": [
        {
          "internalType": "contract DaoRegistry",
          "name": "dao",
          "type": "address"
        },
        {
          "internalType": "address",
          "name": "account",
          "type": "address"
        }
      ],
      "name": "ifInvestorMembershipWhiteList",
      "outputs": [
        {
          "internalType": "bool",
          "name": "",
          "type": "bool"
        }
      ],
      "stateMutability": "view",
      "type": "function"
    },
    {
      "inputs": [
        {
          "internalType": "contract DaoRegistry",
          "name": "dao",
          "type": "address"
        },
        {
          "internalType": "address",
          "name": "_addr",
          "type": "address"
        }
      ],
      "name": "isActiveMember",
      "outputs": [
        {
          "internalType": "bool",
          "name": "",
          "type": "bool"
        }
      ],
      "stateMutability": "view",
      "type": "function"
    },
    {
      "inputs": [
        {
          "internalType": "contract DaoRegistry",
          "name": "dao",
          "type": "address"
        }
      ],
      "name": "poolBalance",
      "outputs": [
        {
          "internalType": "uint256",
          "name": "",
          "type": "uint256"
        }
      ],
      "stateMutability": "view",
      "type": "function"
    },
    {
      "inputs": [
        {
          "internalType": "address",
          "name": "",
          "type": "address"
        },
        {
          "internalType": "bytes32",
          "name": "",
          "type": "bytes32"
        },
        {
          "internalType": "address",
          "name": "",
          "type": "address"
        }
      ],
      "name": "priorityDepositers",
      "outputs": [
        {
          "internalType": "bool",
          "name": "",
          "type": "bool"
        }
      ],
      "stateMutability": "view",
      "type": "function"
    },
    {
      "inputs": [
        {
          "internalType": "contract DaoRegistry",
          "name": "dao",
          "type": "address"
        }
      ],
      "name": "processFundRaise",
      "outputs": [
        {
          "internalType": "bool",
          "name": "",
          "type": "bool"
        }
      ],
      "stateMutability": "nonpayable",
      "type": "function"
    },
    {
      "inputs": [],
      "name": "protocolFee",
      "outputs": [
        {
          "internalType": "uint256",
          "name": "",
          "type": "uint256"
        }
      ],
      "stateMutability": "view",
      "type": "function"
    },
    {
      "inputs": [
        {
          "internalType": "contract DaoRegistry",
          "name": "dao",
          "type": "address"
        },
        {
          "internalType": "address",
          "name": "account",
          "type": "address"
        }
      ],
      "name": "registerInvestorWhiteList",
      "outputs": [],
      "stateMutability": "nonpayable",
      "type": "function"
    },
    {
      "inputs": [
        {
          "internalType": "contract DaoRegistry",
          "name": "dao",
          "type": "address"
        }
      ],
      "name": "resetFundRaiseState",
      "outputs": [],
      "stateMutability": "nonpayable",
      "type": "function"
    },
    {
      "inputs": [
        {
          "internalType": "contract DaoRegistry",
          "name": "dao",
          "type": "address"
        },
        {
          "internalType": "uint256",
          "name": "feeProtocol",
          "type": "uint256"
        }
      ],
      "name": "setProtocolFee",
      "outputs": [],
      "stateMutability": "nonpayable",
      "type": "function"
    },
    {
      "inputs": [
        {
          "internalType": "contract DaoRegistry",
          "name": "dao",
          "type": "address"
        },
        {
          "internalType": "uint256",
          "name": "amount",
          "type": "uint256"
        }
      ],
      "name": "withdraw",
      "outputs": [],
      "stateMutability": "nonpayable",
      "type": "function"
    }
  ],
  "bytecode": "0x6080604052660aa87bee53800060055534801561001b57600080fd5b50615fa3806200002c6000396000f3fe608060405234801561001057600080fd5b506004361061016c5760003560e01c80638ecf7720116100cd578063b5b3ca2c11610081578063f3fef3a311610066578063f3fef3a314610336578063f7888aec14610349578063ff8bb0d01461035c57600080fd5b8063b5b3ca2c14610310578063f10e6b6b1461032357600080fd5b8063a5e34110116100b2578063a5e34110146102e1578063ac7e7eba146102f4578063b0e21e8a1461030757600080fd5b80638ecf7720146102bb57806396609c42146102ce57600080fd5b80635e1d06061161012457806368abb5e01161010957806368abb5e01461025c57806383cffffe1461027d578063861f67521461029057600080fd5b80635e1d06061461021557806368395f3f1461024957600080fd5b80633a844ec0116101555780633a844ec0146101ca5780633e1d6ed8146101ed57806347e7ef241461020057600080fd5b80631d729e61146101715780631ee1a2b01461019a575b600080fd5b61018461017f366004615bd7565b61036f565b6040516101919190615e08565b60405180910390f35b6101bd6101a8366004615bd7565b60006020819052908152604090205460ff1681565b6040516101919190615e55565b6101dd6101d8366004615dd7565b610399565b6040519015158152602001610191565b6101846101fb366004615dd7565b6106ea565b61021361020e366004615dd7565b610720565b005b6101dd610223366004615c3a565b600460209081526000938452604080852082529284528284209052825290205460ff1681565b6101dd610257366004615d9f565b611d53565b61026f61026a366004615bd7565b611d75565b604051908152602001610191565b61021361028b366004615bd7565b611e8e565b61026f61029e366004615c0f565b600360209081526000928352604080842090915290825290205481565b6101dd6102c9366004615d9f565b6128f5565b6101dd6102dc366004615bd7565b61298b565b61026f6102ef366004615bd7565b613197565b610213610302366004615d9f565b613264565b61026f60055481565b61021361031e366004615dd7565b61338c565b610213610331366004615bd7565b613547565b610213610344366004615dd7565b613633565b61026f610357366004615d9f565b6141d6565b61021361036a366004615bd7565b6142f7565b6001600160a01b038116600090815260016020526040902060609061039390614492565b92915050565b604051634941d71d60e11b81527fd99dae5492aa0c08830764a319f29225cc739a0ed8683d8fd1b5bc3a8fe31672600482015260009081906001600160a01b03851690639283ae3a9060240160206040518083038186803b1580156103fd57600080fd5b505afa158015610411573d6000803e3d6000fd5b505050506040513d601f19601f820116820180604052508101906104359190615d87565b604051634941d71d60e11b81527f9ce69cf04065e3c7823cc5540c0598d8a694bd7a9a5a2a786d8bccf14ed6e2ea60048201529091506000906001600160a01b03861690639283ae3a9060240160206040518083038186803b15801561049a57600080fd5b505afa1580156104ae573d6000803e3d6000fd5b505050506040513d601f19601f820116820180604052508101906104d29190615d87565b604051634941d71d60e11b81527f6a2acfe6164f3ec20e6d80e2f4e4f7ae2b9962615c9596c872d01f6cd244aed360048201529091506000906001600160a01b03871690639283ae3a9060240160206040518083038186803b15801561053757600080fd5b505afa15801561054b573d6000803e3d6000fd5b505050506040513d601f19601f8201168201806040525081019061056f9190615d87565b604051634941d71d60e11b81527f2305fa3a9f84625f75d70f539e621c658cf49e7477ab5af9cacd278ca7904e3060048201529091506000906001600160a01b03881690639283ae3a9060240160206040518083038186803b1580156105d457600080fd5b505afa1580156105e8573d6000803e3d6000fd5b505050506040513d601f19601f8201168201806040525081019061060c9190615d87565b9050600061061a8585615ef2565b9050821580610627575081155b80610630575080155b1561064357600095505050505050610393565b600061064f8383615e95565b905060008060005b8381116106d85782156106735761066e8684615e7d565b61067d565b61067d868a615e7d565b92506106898784615ef2565b9150818b1180156106995750828b105b80156106a45750888b115b80156106af5750878b105b156106c65760019950505050505050505050610393565b6106d1600182615e7d565b9050610657565b5060009b9a5050505050505050505050565b6001600160a01b0382166000908152600260209081526040808320848452909152902060609061071990614492565b9392505050565b81600061072c8261449f565b604051634941d71d60e11b81527f1405d0156cf64c805704fdf6691baebfcfa0d409ea827c231693ff0581b0b7776004820152909150849033906001600160a01b03831690639283ae3a9060240160206040518083038186803b15801561079257600080fd5b505afa1580156107a6573d6000803e3d6000fd5b505050506040513d601f19601f820116820180604052508101906107ca9190615d87565b60011415610d0d57604051634941d71d60e11b81527f80140cd7e0b1d935bee578a67a41547c82987de8e7d6b3827d411b738110258b60048201526000906001600160a01b03841690639283ae3a9060240160206040518083038186803b15801561083457600080fd5b505afa158015610848573d6000803e3d6000fd5b505050506040513d601f19601f8201168201806040525081019061086c9190615d87565b6040517ffd310d290000000000000000000000000000000000000000000000000000000081527fe373ab56628c86db3f0e36774c2c5e0393f9272ff5c976bc3f0db2db60cdbc1460048201529091506000906001600160a01b0385169063fd310d299060240160206040518083038186803b1580156108ea57600080fd5b505afa1580156108fe573d6000803e3d6000fd5b505050506040513d601f19601f820116820180604052508101906109229190615bf3565b604051634941d71d60e11b81527f04ecaf460eb9f82aeb70035e3f24c18a3650fa0da9ddbe7e63d70de659b9b90160048201529091506000906001600160a01b03861690639283ae3a9060240160206040518083038186803b15801561098757600080fd5b505afa15801561099b573d6000803e3d6000fd5b505050506040513d601f19601f820116820180604052508101906109bf9190615d87565b604051634941d71d60e11b81527f6cb5bc3796b0717ca4ff665886c96fb0178d6341366eb7b6c737fe79083b836a60048201529091506000906001600160a01b03871690639283ae3a9060240160206040518083038186803b158015610a2457600080fd5b505afa158015610a38573d6000803e3d6000fd5b505050506040513d601f19601f82011682018060405250810190610a5c9190615d87565b905083158015610ae557506040516370a0823160e01b81526001600160a01b0386811660048301528391908516906370a082319060240160206040518083038186803b158015610aab57600080fd5b505afa158015610abf573d6000803e3d6000fd5b505050506040513d601f19601f82011682018060405250810190610ae39190615d87565b105b15610b1c576040517fc4cf1dc400000000000000000000000000000000000000000000000000000000815260040160405180910390fd5b836001148015610ba557506040516370a0823160e01b81526001600160a01b0386811660048301528391908516906370a082319060240160206040518083038186803b158015610b6b57600080fd5b505afa158015610b7f573d6000803e3d6000fd5b505050506040513d601f19601f82011682018060405250810190610ba39190615d87565b105b15610bdc576040517f7cef139500000000000000000000000000000000000000000000000000000000815260040160405180910390fd5b836002148015610c8357506040517efdd58e0000000000000000000000000000000000000000000000000000000081526001600160a01b0386811660048301526024820183905283919085169062fdd58e9060440160206040518083038186803b158015610c4957600080fd5b505afa158015610c5d573d6000803e3d6000fd5b505050506040513d601f19601f82011682018060405250810190610c819190615d87565b105b15610cba576040517f8722044800000000000000000000000000000000000000000000000000000000815260040160405180910390fd5b836003148015610cd15750610ccf8686611d53565b155b15610d08576040517f9eb91fe800000000000000000000000000000000000000000000000000000000815260040160405180910390fd5b505050505b60008511610d47576040517ffae8279100000000000000000000000000000000000000000000000000000000815260040160405180910390fd5b610d926040518060c0016040528060008152602001600081526020016000815260200160006001600160a01b0316815260200160006001600160a01b03168152602001600081525090565b604051634941d71d60e11b81527f5fa39c8100b49336846e52d39403e353bf782275f905a885f09224779ff1c92460048201526001600160a01b03881690639283ae3a9060240160206040518083038186803b158015610df157600080fd5b505afa158015610e05573d6000803e3d6000fd5b505050506040513d601f19601f82011682018060405250810190610e299190615d87565b8152604051634941d71d60e11b81527fbdd40865e74210f0a46799ae63462c62010da92014a08cbc32f1d049d0a22c6b60048201526001600160a01b03881690639283ae3a9060240160206040518083038186803b158015610e8a57600080fd5b505afa158015610e9e573d6000803e3d6000fd5b505050506040513d601f19601f82011682018060405250810190610ec29190615d87565b6020820152604051634941d71d60e11b81527f7e07fb4530796d057ca1d76d83f47aa8629dbb7e942ac28f30ad6f5e9e8d418960048201526001600160a01b03881690639283ae3a9060240160206040518083038186803b158015610f2657600080fd5b505afa158015610f3a573d6000803e3d6000fd5b505050506040513d601f19601f82011682018060405250810190610f5e9190615d87565b6040820152602081015115801590610f8c57508060200151610f8088336141d6565b610f8a9088615e7d565b105b15610fc3576040517f2193e42400000000000000000000000000000000000000000000000000000000815260040160405180910390fd5b805115801590610fe657508051610fda88336141d6565b610fe49088615e7d565b115b1561101d576040517f504400aa00000000000000000000000000000000000000000000000000000000815260040160405180910390fd5b604051634941d71d60e11b81527fbd04d44792b7dbfe3b50b0f9f2006f7ef449e374a39021cb9bfa7cd0bdd850d7600482015242906001600160a01b03891690639283ae3a9060240160206040518083038186803b15801561107e57600080fd5b505afa158015611092573d6000803e3d6000fd5b505050506040513d601f19601f820116820180604052508101906110b69190615d87565b10158061115a5750604051634941d71d60e11b81527f533afc15b6312917b5e28e2272ea69d44e5ea8e00d3bd57cada1275c2f14c9e8600482015242906001600160a01b03891690639283ae3a9060240160206040518083038186803b15801561111f57600080fd5b505afa158015611133573d6000803e3d6000fd5b505050506040513d601f19601f820116820180604052508101906111579190615d87565b11155b15611191576040517f31c550f600000000000000000000000000000000000000000000000000000000815260040160405180910390fd5b604051634941d71d60e11b81527fbe07eea886ce63e8ab49ef6fd986e9dea247fbb31da43dd1df3e153cc548277a60048201526001600160a01b03881690639283ae3a9060240160206040518083038186803b1580156111f057600080fd5b505afa158015611204573d6000803e3d6000fd5b505050506040513d601f19601f820116820180604052508101906112289190615d87565b158015611239575060008160400151115b1561128f5780604001518661124d89611d75565b6112579190615e7d565b111561128f576040517f98ea576400000000000000000000000000000000000000000000000000000000815260040160405180910390fd5b604051632c9f4b5b60e11b81527f161fca6912f107b0f13c9c7275de7391b32d2ea1c52ffba65a3c961880a0c60f60048201526001600160a01b0388169063593e96b69060240160206040518083038186803b1580156112ee57600080fd5b505afa158015611302573d6000803e3d6000fd5b505050506040513d601f19601f820116820180604052508101906113269190615bf3565b6001600160a01b0390811660608301526040516317ba7d8560e01b81527fa837e34a29b67bf52f684a1c93def79b84b9c012732becee4e5df62809df64ed6004820152908816906317ba7d859060240160206040518083038186803b15801561138e57600080fd5b505afa1580156113a2573d6000803e3d6000fd5b505050506040513d601f19601f820116820180604052508101906113c69190615bf3565b6001600160a01b0390811660808301819052604051634fc0a76d60e01b8152918916600483015290634fc0a76d9060240160206040518083038186803b15801561140f57600080fd5b505afa158015611423573d6000803e3d6000fd5b505050506040513d601f19601f820116820180604052508101906114479190615d87565b60a0820152604051634941d71d60e11b81527f69f4ffb3ebcb7809550bddd3e4d449a47e737bf6635bc7a730996643997b0e4860048201526001600160a01b03881690639283ae3a9060240160206040518083038186803b1580156114ab57600080fd5b505afa1580156114bf573d6000803e3d6000fd5b505050506040513d601f19601f820116820180604052508101906114e39190615d87565b60011480156115b75750604051634941d71d60e11b81527fecbde689cc6337d29a750b8b8a8abbfa97427b4ac800ab55be2f2c87311510f260048201526001600160a01b03881690639283ae3a9060240160206040518083038186803b15801561154c57600080fd5b505afa158015611560573d6000803e3d6000fd5b505050506040513d601f19601f820116820180604052508101906115849190615d87565b6001600160a01b038816600090815260026020908152604080832060a0860151845290915290206115b49061476a565b10155b80156115f157506001600160a01b038716600090815260026020908152604080832060a0850151845290915290206115ef9033614774565b155b15611628576040517ffa088e8a00000000000000000000000000000000000000000000000000000000815260040160405180910390fd5b600081606001516001600160a01b031663a87af66c6040518163ffffffff1660e01b815260040160206040518083038186803b15801561166757600080fd5b505afa15801561167b573d6000803e3d6000fd5b505050506040513d601f19601f8201168201806040525081019061169f9190615bf3565b6040516370a0823160e01b815233600482015290915087906001600160a01b038316906370a082319060240160206040518083038186803b1580156116e357600080fd5b505afa1580156116f7573d6000803e3d6000fd5b505050506040513d601f19601f8201168201806040525081019061171b9190615d87565b1015611753576040517f50b1f35600000000000000000000000000000000000000000000000000000000815260040160405180910390fd5b6040517fdd62ed3e00000000000000000000000000000000000000000000000000000000815233600482015230602482015287906001600160a01b0383169063dd62ed3e9060440160206040518083038186803b1580156117b357600080fd5b505afa1580156117c7573d6000803e3d6000fd5b505050506040513d601f19601f820116820180604052508101906117eb9190615d87565b1015611823576040517f0fd3919300000000000000000000000000000000000000000000000000000000815260040160405180910390fd5b6040517f23b872dd000000000000000000000000000000000000000000000000000000008152336004820152306024820152604481018890526001600160a01b038216906323b872dd90606401602060405180830381600087803b15801561188a57600080fd5b505af115801561189e573d6000803e3d6000fd5b505050506040513d601f19601f820116820180604052508101906118c29190615d42565b50604051632c9f4b5b60e11b81527f161fca6912f107b0f13c9c7275de7391b32d2ea1c52ffba65a3c961880a0c60f60048201526001600160a01b038083169163095ea7b3918b169063593e96b69060240160206040518083038186803b15801561192c57600080fd5b505afa158015611940573d6000803e3d6000fd5b505050506040513d601f19601f820116820180604052508101906119649190615bf3565b6040516001600160e01b031960e084901b1681526001600160a01b039091166004820152602481018a9052604401602060405180830381600087803b1580156119ac57600080fd5b505af11580156119c0573d6000803e3d6000fd5b505050506040513d601f19601f820116820180604052508101906119e49190615d42565b5060608201516040517fb08079a6000000000000000000000000000000000000000000000000000000008152336004820152602481018990526001600160a01b039091169063b08079a690604401600060405180830381600087803b158015611a4c57600080fd5b505af1158015611a60573d6000803e3d6000fd5b50505050611a7388338460a00151614796565b60808201516040516301c22a3d60e01b81526001600160a01b038a8116600483015290911690636d3cc040908a9083906301c22a3d9060240160206040518083038186803b158015611ac457600080fd5b505afa158015611ad8573d6000803e3d6000fd5b505050506040513d601f19601f82011682018060405250810190611afc9190615d87565b6040516001600160e01b031960e085901b1681526001600160a01b039092166004830152602482015233604482015260640160206040518083038186803b158015611b4657600080fd5b505afa158015611b5a573d6000803e3d6000fd5b505050506040513d601f19601f82011682018060405250810190611b7e9190615d42565b15611cf7576001600160a01b03888116600081815260036020526040808220608087015191516301c22a3d60e01b815260048101949094528b9490939116906301c22a3d9060240160206040518083038186803b158015611bde57600080fd5b505afa158015611bf2573d6000803e3d6000fd5b505050506040513d601f19601f82011682018060405250810190611c169190615d87565b81526020019081526020016000206000828254611c339190615e7d565b90915550506001600160a01b038881166000818152600460208190526040808320608088015191516301c22a3d60e01b81529283019490945260019416906301c22a3d9060240160206040518083038186803b158015611c9257600080fd5b505afa158015611ca6573d6000803e3d6000fd5b505050506040513d601f19601f82011682018060405250810190611cca9190615d87565b8152602080820192909252604090810160009081203382529092529020805460ff19169115159190911790555b604080516001600160a01b038a16815260208101899052338183015290517fe31c7b8d08ee7db0afa68782e1028ef92305caeea8626633ad44d413e30f6b2f9181900360600190a150505050611d4d82826147f4565b50505050565b6001600160a01b03821660009081526001602052604081206107199083614774565b604051632c9f4b5b60e11b81527f161fca6912f107b0f13c9c7275de7391b32d2ea1c52ffba65a3c961880a0c60f600482015260009081906001600160a01b0384169063593e96b69060240160206040518083038186803b158015611dd957600080fd5b505afa158015611ded573d6000803e3d6000fd5b505050506040513d601f19601f82011682018060405250810190611e119190615bf3565b6040516370a0823160e01b815261decd60048201529091506001600160a01b038216906370a08231906024015b60206040518083038186803b158015611e5657600080fd5b505afa158015611e6a573d6000803e3d6000fd5b505050506040513d601f19601f820116820180604052508101906107199190615d87565b806000611e9a8261449f565b905060036001600160a01b03841660009081526020819052604090205460ff166003811115611ed957634e487b7160e01b600052602160045260246000fd5b148015611f7b5750604051634941d71d60e11b81527f533afc15b6312917b5e28e2272ea69d44e5ea8e00d3bd57cada1275c2f14c9e860048201526001600160a01b03841690639283ae3a9060240160206040518083038186803b158015611f4057600080fd5b505afa158015611f54573d6000803e3d6000fd5b505050506040513d601f19601f82011682018060405250810190611f789190615d87565b42115b80612101575060026001600160a01b03841660009081526020819052604090205460ff166003811115611fbe57634e487b7160e01b600052602160045260246000fd5b1480156121015750604051634941d71d60e11b81527fb0d4178853a5320a41f8c55fa6d58af06637e392beff71e66dba4e8f32c39bb860048201526001600160a01b03841690639283ae3a9060240160206040518083038186803b15801561202557600080fd5b505afa158015612039573d6000803e3d6000fd5b505050506040513d601f19601f8201168201806040525081019061205d9190615d87565b604051634941d71d60e11b81527f9ce69cf04065e3c7823cc5540c0598d8a694bd7a9a5a2a786d8bccf14ed6e2ea60048201526001600160a01b03851690639283ae3a9060240160206040518083038186803b1580156120bc57600080fd5b505afa1580156120d0573d6000803e3d6000fd5b505050506040513d601f19601f820116820180604052508101906120f49190615d87565b6120fe9190615e7d565b42115b6121525760405162461bcd60e51b815260206004820152600a60248201527f21636c65617246756e640000000000000000000000000000000000000000000060448201526064015b60405180910390fd5b604051632c9f4b5b60e11b81527f161fca6912f107b0f13c9c7275de7391b32d2ea1c52ffba65a3c961880a0c60f60048201526000906001600160a01b0385169063593e96b69060240160206040518083038186803b1580156121b457600080fd5b505afa1580156121c8573d6000803e3d6000fd5b505050506040513d601f19601f820116820180604052508101906121ec9190615bf3565b90506000816001600160a01b031663a87af66c6040518163ffffffff1660e01b815260040160206040518083038186803b15801561222957600080fd5b505afa15801561223d573d6000803e3d6000fd5b505050506040513d601f19601f820116820180604052508101906122619190615bf3565b90506000826001600160a01b031663b2f5a54c6040518163ffffffff1660e01b815260040160006040518083038186803b15801561229e57600080fd5b505afa1580156122b2573d6000803e3d6000fd5b505050506040513d6000823e601f3d908101601f191682016040526122da9190810190615c7b565b6040516317ba7d8560e01b81527fa837e34a29b67bf52f684a1c93def79b84b9c012732becee4e5df62809df64ed60048201529091506000906001600160a01b038816906317ba7d859060240160206040518083038186803b15801561233f57600080fd5b505afa158015612353573d6000803e3d6000fd5b505050506040513d601f19601f820116820180604052508101906123779190615bf3565b604051634fc0a76d60e01b81526001600160a01b038981166004830152919250600091831690634fc0a76d9060240160206040518083038186803b1580156123be57600080fd5b505afa1580156123d2573d6000803e3d6000fd5b505050506040513d601f19601f820116820180604052508101906123f69190615d87565b8351909150156128e1576000805b84518160ff1610156128965760006124468b878460ff168151811061243957634e487b7160e01b600052603260045260246000fd5b60200260200101516141d6565b90508015612883576040516317ba7d8560e01b81527ff03649ccf5cbda635d0464f73bc807b602819fde8d2e1387f87b988bb0e858a360048201526000906001600160a01b038d16906317ba7d859060240160206040518083038186803b1580156124b057600080fd5b505afa1580156124c4573d6000803e3d6000fd5b505050506040513d601f19601f820116820180604052508101906124e89190615bf3565b905060036001600160a01b038d1660009081526020819052604090205460ff16600381111561252757634e487b7160e01b600052602160045260246000fd5b14156125eb57806001600160a01b031663145148178d878b8b8860ff168151811061256257634e487b7160e01b600052603260045260246000fd5b60209081029190910101516040516001600160e01b031960e087901b1681526001600160a01b039485166004820152602481019390935290831660448301529190911660648201526084810185905260a401600060405180830381600087803b1580156125ce57600080fd5b505af11580156125e2573d6000803e3d6000fd5b505050506126c5565b806001600160a01b0316631dc5b10f8d878b8b8860ff168151811061262057634e487b7160e01b600052603260045260246000fd5b60209081029190910101516040516001600160e01b031960e087901b1681526001600160a01b039485166004820152602481019390935290831660448301529190911660648201526084810185905260a401600060405180830381600087803b15801561268c57600080fd5b505af11580156126a0573d6000803e3d6000fd5b505050506001600160a01b038c166000908152602081905260409020805460ff191690555b6040516317ba7d8560e01b81527ff03649ccf5cbda635d0464f73bc807b602819fde8d2e1387f87b988bb0e858a360048201526001600160a01b03808b169163e176b35e918f16906317ba7d859060240160206040518083038186803b15801561272e57600080fd5b505afa158015612742573d6000803e3d6000fd5b505050506040513d601f19601f820116820180604052508101906127669190615bf3565b6040516001600160e01b031960e084901b1681526001600160a01b039182166004820152908b16602482015260448101859052606401600060405180830381600087803b1580156127b657600080fd5b505af11580156127ca573d6000803e3d6000fd5b50505050886001600160a01b031663e3a05cc1888560ff168151811061280057634e487b7160e01b600052603260045260246000fd5b60209081029190910101516040516001600160e01b031960e084901b1681526001600160a01b039182166004820152908b16602482015260448101859052606401600060405180830381600087803b15801561285b57600080fd5b505af115801561286f573d6000803e3d6000fd5b50505050818461287f9190615e7d565b9350505b508061288e81615f09565b915050612404565b50604080516001600160a01b038b16815260208101839052338183015290517f12d0dcfe23709357491021067eb05d73fa0b1f1aeb69310c2071218e089f057f9181900360600190a1505b50505050506128f082826147f4565b505050565b6040517fa230c5240000000000000000000000000000000000000000000000000000000081526001600160a01b0382811660048301526000919084169063a230c5249060240160206040518083038186803b15801561295357600080fd5b505afa158015612967573d6000803e3d6000fd5b505050506040513d601f19601f820116820180604052508101906107199190615d42565b604051634941d71d60e11b81527f31af571e53636dddd77f772cce9d30b42075760f2da731636acc6962da2fbef8600482015260009081906001600160a01b03841690639283ae3a9060240160206040518083038186803b1580156129ef57600080fd5b505afa158015612a03573d6000803e3d6000fd5b505050506040513d601f19601f82011682018060405250810190612a279190615d87565b604051634941d71d60e11b81527f533afc15b6312917b5e28e2272ea69d44e5ea8e00d3bd57cada1275c2f14c9e860048201529091506000906001600160a01b03851690639283ae3a9060240160206040518083038186803b158015612a8c57600080fd5b505afa158015612aa0573d6000803e3d6000fd5b505050506040513d601f19601f82011682018060405250810190612ac49190615d87565b6040516317ba7d8560e01b81527fa837e34a29b67bf52f684a1c93def79b84b9c012732becee4e5df62809df64ed60048201529091506000906001600160a01b038616906317ba7d859060240160206040518083038186803b158015612b2957600080fd5b505afa158015612b3d573d6000803e3d6000fd5b505050506040513d601f19601f82011682018060405250810190612b619190615bf3565b90508142118015612bac575060016001600160a01b03861660009081526020819052604090205460ff166003811115612baa57634e487b7160e01b600052602160045260246000fd5b145b1561318c57604051634941d71d60e11b81527f686efe7bd1699b408d306db6bbee658ed667971c52d48d6912d7ee496e36e62760048201526001600160a01b03861690639283ae3a9060240160206040518083038186803b158015612c1057600080fd5b505afa158015612c24573d6000803e3d6000fd5b505050506040513d601f19601f82011682018060405250810190612c489190615d87565b6004148015612c6057506000612c5d866147ff565b11155b15612c8d576001600160a01b0385166000908152602081905260409020805460ff1916600317905561307d565b82612c9786611d75565b10612f68576040517fda0f6c700000000000000000000000000000000000000000000000000000000081527fd99dae5492aa0c08830764a319f29225cc739a0ed8683d8fd1b5bc3a8fe3167260048201524260248201526001600160a01b0386169063da0f6c7090604401600060405180830381600087803b158015612d1c57600080fd5b505af1158015612d30573d6000803e3d6000fd5b5050604051634941d71d60e11b81527ffbf58be2732249b32b8ee6ccb5eed8655c2fb8a45fe937b71c312b6e209f138060048201526001600160a01b038816925063da0f6c7091507f9ce69cf04065e3c7823cc5540c0598d8a694bd7a9a5a2a786d8bccf14ed6e2ea908390639283ae3a9060240160206040518083038186803b158015612dbd57600080fd5b505afa158015612dd1573d6000803e3d6000fd5b505050506040513d601f19601f82011682018060405250810190612df59190615d87565b612dff9042615e7d565b6040516001600160e01b031960e085901b16815260048101929092526024820152604401600060405180830381600087803b158015612e3d57600080fd5b505af1158015612e51573d6000803e3d6000fd5b50505050612e5e856149a0565b6001600160a01b0385811660008181526020819052604090819020805460ff19166002179055516301c22a3d60e01b8152600481019190915290821690630c1c6f4490879083906301c22a3d9060240160206040518083038186803b158015612ec657600080fd5b505afa158015612eda573d6000803e3d6000fd5b505050506040513d601f19601f82011682018060405250810190612efe9190615d87565b6040516001600160e01b031960e085901b1681526001600160a01b039092166004830152602482015260016044820152606401600060405180830381600087803b158015612f4b57600080fd5b505af1158015612f5f573d6000803e3d6000fd5b5050505061307d565b6001600160a01b0385166000908152602081905260409020805460ff19166003179055612f9485611e8e565b6040516301c22a3d60e01b81526001600160a01b038681166004830152821690630c1c6f4490879083906301c22a3d9060240160206040518083038186803b158015612fdf57600080fd5b505afa158015612ff3573d6000803e3d6000fd5b505050506040513d601f19601f820116820180604052508101906130179190615d87565b6040516001600160e01b031960e085901b1681526001600160a01b039092166004830152602482015260006044820152606401600060405180830381600087803b15801561306457600080fd5b505af1158015613078573d6000803e3d6000fd5b505050505b604051634fc0a76d60e01b81526001600160a01b0380871660048301527f5fd2225800b4a1978ad764ee103db4fc09f1f8db734ab768112047634fb868c2918791841690634fc0a76d9060240160206040518083038186803b1580156130e257600080fd5b505afa1580156130f6573d6000803e3d6000fd5b505050506040513d601f19601f8201168201806040525081019061311a9190615d87565b6001600160a01b03881660009081526020819052604090205460ff16600381111561315557634e487b7160e01b600052602160045260246000fd5b61315e89611d75565b604080516001600160a01b039095168552602085019390935291830152606082015260800160405180910390a15b506001949350505050565b604051632c9f4b5b60e11b81527f161fca6912f107b0f13c9c7275de7391b32d2ea1c52ffba65a3c961880a0c60f600482015260009081906001600160a01b0384169063593e96b69060240160206040518083038186803b1580156131fb57600080fd5b505afa15801561320f573d6000803e3d6000fd5b505050506040513d601f19601f820116820180604052508101906132339190615bf3565b6040516370a0823160e01b815261111160048201529091506001600160a01b038216906370a0823190602401611e3e565b6040516317ba7d8560e01b81527f5443327e16211d6f6930defab8b33523e6990ea67a94b67a6f23dee03dbeb88d60048201526001600160a01b038316906317ba7d859060240160206040518083038186803b1580156132c357600080fd5b505afa1580156132d7573d6000803e3d6000fd5b505050506040513d601f19601f820116820180604052508101906132fb9190615bf3565b6001600160a01b0316336001600160a01b031614158015613322575061332082615530565b155b15613340576040516395383ea160e01b815260040160405180910390fd5b6001600160a01b03821660009081526001602052604090206133629082614774565b613388576001600160a01b03821660009081526001602052604090206128f09082615769565b5050565b8143816001600160a01b031663b21634826040518163ffffffff1660e01b815260040160206040518083038186803b1580156133c757600080fd5b505afa1580156133db573d6000803e3d6000fd5b505050506040513d601f19601f820116820180604052508101906133ff9190615d87565b141561344d5760405162461bcd60e51b815260206004820152601060248201527f7265656e7472616e6379206775617264000000000000000000000000000000006044820152606401612149565b806001600160a01b03166310fdb0a26040518163ffffffff1660e01b8152600401600060405180830381600087803b15801561348857600080fd5b505af115801561349c573d6000803e3d6000fd5b50505050826134aa8161577e565b6001600160a01b0316336001600160a01b0316146134c757600080fd5b670de0b6b3a7640000831080156134de5750600083115b6134e757600080fd5b8260058190555050806001600160a01b031663d4f7af436040518163ffffffff1660e01b8152600401600060405180830381600087803b15801561352a57600080fd5b505af115801561353e573d6000803e3d6000fd5b50505050505050565b6040516317ba7d8560e01b81527fa837e34a29b67bf52f684a1c93def79b84b9c012732becee4e5df62809df64ed60048201526001600160a01b038216906317ba7d859060240160206040518083038186803b1580156135a657600080fd5b505afa1580156135ba573d6000803e3d6000fd5b505050506040513d601f19601f820116820180604052508101906135de9190615bf3565b6001600160a01b0316336001600160a01b03161461360f576040516395383ea160e01b815260040160405180910390fd5b6001600160a01b03166000908152602081905260409020805460ff19166001179055565b81600061363f8261449f565b905061364a8461298b565b5060016001600160a01b03851660009081526020819052604090205460ff16600381111561368857634e487b7160e01b600052602160045260246000fd5b14801561372a5750604051634941d71d60e11b81527f533afc15b6312917b5e28e2272ea69d44e5ea8e00d3bd57cada1275c2f14c9e860048201526001600160a01b03851690639283ae3a9060240160206040518083038186803b1580156136ef57600080fd5b505afa158015613703573d6000803e3d6000fd5b505050506040513d601f19601f820116820180604052508101906137279190615d87565b42105b80156137cb5750604051634941d71d60e11b81527fbd04d44792b7dbfe3b50b0f9f2006f7ef449e374a39021cb9bfa7cd0bdd850d760048201526001600160a01b03851690639283ae3a9060240160206040518083038186803b15801561379057600080fd5b505afa1580156137a4573d6000803e3d6000fd5b505050506040513d601f19601f820116820180604052508101906137c89190615d87565b42115b80613810575060036001600160a01b03851660009081526020819052604090205460ff16600381111561380e57634e487b7160e01b600052602160045260246000fd5b145b80613865575060026001600160a01b03851660009081526020819052604090205460ff16600381111561385357634e487b7160e01b600052602160045260246000fd5b14801561386557506138658442610399565b8061394a575060026001600160a01b03851660009081526020819052604090205460ff1660038111156138a857634e487b7160e01b600052602160045260246000fd5b14801561394a5750604051634941d71d60e11b81527f9ce69cf04065e3c7823cc5540c0598d8a694bd7a9a5a2a786d8bccf14ed6e2ea60048201526001600160a01b03851690639283ae3a9060240160206040518083038186803b15801561390f57600080fd5b505afa158015613923573d6000803e3d6000fd5b505050506040513d601f19601f820116820180604052508101906139479190615d87565b42115b6139965760405162461bcd60e51b815260206004820152600960248201527f21776974686472617700000000000000000000000000000000000000000000006044820152606401612149565b604051632c9f4b5b60e11b81527f161fca6912f107b0f13c9c7275de7391b32d2ea1c52ffba65a3c961880a0c60f60048201526000906001600160a01b0386169063593e96b69060240160206040518083038186803b1580156139f857600080fd5b505afa158015613a0c573d6000803e3d6000fd5b505050506040513d601f19601f82011682018060405250810190613a309190615bf3565b90506000816001600160a01b031663a87af66c6040518163ffffffff1660e01b815260040160206040518083038186803b158015613a6d57600080fd5b505afa158015613a81573d6000803e3d6000fd5b505050506040513d601f19601f82011682018060405250810190613aa59190615bf3565b90506000613ab387336141d6565b905060008611613aef576040517ffae8279100000000000000000000000000000000000000000000000000000000815260040160405180910390fd5b80861115613b29576040517f50b1f35600000000000000000000000000000000000000000000000000000000815260040160405180910390fd5b600060026001600160a01b03891660009081526020819052604090205460ff166003811115613b6857634e487b7160e01b600052602160045260246000fd5b148015613b7a5750613b7a8842610399565b15613db257604051634941d71d60e11b81527f3e453820e0fc9cb9a1e799559661cf9c1db4cc7d7fbcb7e0fdaf884cbe29c3566004820152670de0b6b3a76400009088906001600160a01b038b1690639283ae3a9060240160206040518083038186803b158015613bea57600080fd5b505afa158015613bfe573d6000803e3d6000fd5b505050506040513d601f19601f82011682018060405250810190613c229190615d87565b613c2c9190615eb5565b613c369190615e95565b90508015613d61576040517ffd310d290000000000000000000000000000000000000000000000000000000081527f413223451819ea6086aa50ab7585bb5d8320c60e0c5f010376962c3ca02e3cac60048201526001600160a01b038086169163e176b35e918b169063fd310d299060240160206040518083038186803b158015613cc057600080fd5b505afa158015613cd4573d6000803e3d6000fd5b505050506040513d601f19601f82011682018060405250810190613cf89190615bf3565b6040516001600160e01b031960e084901b1681526001600160a01b039182166004820152908616602482015260448101849052606401600060405180830381600087803b158015613d4857600080fd5b505af1158015613d5c573d6000803e3d6000fd5b505050505b604080516001600160a01b038a168152336020820152908101889052606081018290527f233193f33678454f0c1aa43ef4c404770a64e4a160b5614d929d896cc10ec1509060800160405180910390a15b6001600160a01b03841663f3fef3a333613dcc848b615ef2565b6040516001600160e01b031960e085901b1681526001600160a01b0390921660048301526024820152604401600060405180830381600087803b158015613e1257600080fd5b505af1158015613e26573d6000803e3d6000fd5b50506040517fe3a05cc10000000000000000000000000000000000000000000000000000000081523360048201526001600160a01b038681166024830152604482018b90528716925063e3a05cc19150606401600060405180830381600087803b158015613e9357600080fd5b505af1158015613ea7573d6000803e3d6000fd5b50506040516317ba7d8560e01b81527fa837e34a29b67bf52f684a1c93def79b84b9c012732becee4e5df62809df64ed6004820152600092506001600160a01b038b1691506317ba7d859060240160206040518083038186803b158015613f0d57600080fd5b505afa158015613f21573d6000803e3d6000fd5b505050506040513d601f19601f82011682018060405250810190613f459190615bf3565b6040516301c22a3d60e01b81526001600160a01b038b811660048301529192506000918316906301c22a3d9060240160206040518083038186803b158015613f8c57600080fd5b505afa158015613fa0573d6000803e3d6000fd5b505050506040513d601f19601f82011682018060405250810190613fc49190615d87565b90506000613fd28b336141d6565b1161406357604051634fc0a76d60e01b81526001600160a01b038b8116600483015260009190841690634fc0a76d9060240160206040518083038186803b15801561401c57600080fd5b505afa158015614030573d6000803e3d6000fd5b505050506040513d601f19601f820116820180604052508101906140549190615d87565b90506140618b3383615861565b505b6001600160a01b038a166000908152600460209081526040808320848452825280832033845290915290205460ff1680156141335750604051634941d71d60e11b81527f533afc15b6312917b5e28e2272ea69d44e5ea8e00d3bd57cada1275c2f14c9e860048201526001600160a01b038b1690639283ae3a9060240160206040518083038186803b1580156140f857600080fd5b505afa15801561410c573d6000803e3d6000fd5b505050506040513d601f19601f820116820180604052508101906141309190615d87565b42105b15614171576001600160a01b038a166000908152600360209081526040808320848452909152812080548b929061416b908490615ef2565b90915550505b7fd432fbc5f79eaeefd01acbebd76cf4b0d5f43d8372c2fd3e23761c06a60a75f18a61419d858c615ef2565b604080516001600160a01b0390931683526020830191909152339082015260600160405180910390a1505050505050611d4d82826147f4565b604051632c9f4b5b60e11b81527f161fca6912f107b0f13c9c7275de7391b32d2ea1c52ffba65a3c961880a0c60f600482015260009081906001600160a01b0385169063593e96b69060240160206040518083038186803b15801561423a57600080fd5b505afa15801561424e573d6000803e3d6000fd5b505050506040513d601f19601f820116820180604052508101906142729190615bf3565b6040516370a0823160e01b81526001600160a01b038581166004830152919250908216906370a082319060240160206040518083038186803b1580156142b757600080fd5b505afa1580156142cb573d6000803e3d6000fd5b505050506040513d601f19601f820116820180604052508101906142ef9190615d87565b949350505050565b6040516317ba7d8560e01b81527f145d8ebc4d7403f3cd60312331619ffb262c52c22bedf24c0148027dd4be3b0160048201526001600160a01b038216906317ba7d859060240160206040518083038186803b15801561435657600080fd5b505afa15801561436a573d6000803e3d6000fd5b505050506040513d601f19601f8201168201806040525081019061438e9190615bf3565b6001600160a01b0316336001600160a01b0316146143bf576040516395383ea160e01b815260040160405180910390fd5b6001600160a01b03811660009081526001602052604081206143e090614492565b516001600160a01b038316600090815260016020526040902090915060609061440890614492565b905081156128f05760005b828160ff161015611d4d5761447f828260ff168151811061444457634e487b7160e01b600052603260045260246000fd5b602002602001015160016000876001600160a01b03166001600160a01b0316815260200190815260200160002061588a90919063ffffffff16565b508061448a81615f09565b915050614413565b606060006107198361589f565b6040805160808101825260008082526020820181905291810182905260608101919091525a81600001818152505043826001600160a01b031663b21634826040518163ffffffff1660e01b815260040160206040518083038186803b15801561450757600080fd5b505afa15801561451b573d6000803e3d6000fd5b505050506040513d601f19601f8201168201806040525081019061453f9190615d87565b141561458d5760405162461bcd60e51b815260206004820152601060248201527f7265656e7472616e6379206775617264000000000000000000000000000000006044820152606401612149565b816001600160a01b03166310fdb0a26040518163ffffffff1660e01b8152600401600060405180830381600087803b1580156145c857600080fd5b505af11580156145dc573d6000803e3d6000fd5b50506040517f72c6838f0000000000000000000000000000000000000000000000000000000081527f1f2fd42ad6a6cacd573c4b212beb7a4e2499ad45d742a65337097f130e71daff6004820152600092506001600160a01b03851691506372c6838f9060240160206040518083038186803b15801561465b57600080fd5b505afa15801561466f573d6000803e3d6000fd5b505050506040513d601f19601f820116820180604052508101906146939190615bf3565b90506001600160a01b0381166146af5760006020830152614764565b6001600160a01b038181166060840181905283516040517f43a8a3f1000000000000000000000000000000000000000000000000000000008152928616600484015260248301526000918291906343a8a3f190604401604080518083038186803b15801561471c57600080fd5b505afa158015614730573d6000803e3d6000fd5b505050506040513d601f19601f820116820180604052508101906147549190615d5c565b9015156020860152604085015250505b50919050565b6000610393825490565b6001600160a01b03811660009081526001830160205260408120541515610719565b6001600160a01b038316600090815260026020908152604080832084845290915290206147c39083614774565b6128f0576001600160a01b03831660009081526002602090815260408083208484529091529020611d4d9083615769565b6133888282336158fb565b60008061480b836159d4565b604051632c9f4b5b60e11b81527f161fca6912f107b0f13c9c7275de7391b32d2ea1c52ffba65a3c961880a0c60f600482015290915060009081906001600160a01b0386169063593e96b69060240160206040518083038186803b15801561487257600080fd5b505afa158015614886573d6000803e3d6000fd5b505050506040513d601f19601f820116820180604052508101906148aa9190615bf3565b8351909150156149985760005b83518160ff16101561499657816001600160a01b03166370a08231858360ff16815181106148f557634e487b7160e01b600052603260045260246000fd5b60200260200101516040518263ffffffff1660e01b815260040161492891906001600160a01b0391909116815260200190565b60206040518083038186803b15801561494057600080fd5b505afa158015614954573d6000803e3d6000fd5b505050506040513d601f19601f820116820180604052508101906149789190615d87565b6149829084615e7d565b92508061498e81615f09565b9150506148b7565b505b509392505050565b6040805161016081018252600080825260208201819052818301819052606082018190526080820181905260a0820181905260c0820181905260e08201819052610100820181905261012082018190526101408201529051634941d71d60e11b81527fbe07eea886ce63e8ab49ef6fd986e9dea247fbb31da43dd1df3e153cc548277a60048201526001600160a01b03831690639283ae3a9060240160206040518083038186803b158015614a5457600080fd5b505afa158015614a68573d6000803e3d6000fd5b505050506040513d601f19601f82011682018060405250810190614a8c9190615d87565b6001148015614b385750604051634941d71d60e11b81527f7e07fb4530796d057ca1d76d83f47aa8629dbb7e942ac28f30ad6f5e9e8d418960048201526001600160a01b03831690639283ae3a9060240160206040518083038186803b158015614af557600080fd5b505afa158015614b09573d6000803e3d6000fd5b505050506040513d601f19601f82011682018060405250810190614b2d9190615d87565b614b3683611d75565b115b1561338857604051632c9f4b5b60e11b81527f161fca6912f107b0f13c9c7275de7391b32d2ea1c52ffba65a3c961880a0c60f60048201526001600160a01b0383169063593e96b69060240160206040518083038186803b158015614b9c57600080fd5b505afa158015614bb0573d6000803e3d6000fd5b505050506040513d601f19601f82011682018060405250810190614bd49190615bf3565b6001600160a01b0316808252604080517fb2f5a54c00000000000000000000000000000000000000000000000000000000815290516000929163b2f5a54c9160048083019286929190829003018186803b158015614c3157600080fd5b505afa158015614c45573d6000803e3d6000fd5b505050506040513d6000823e601f3d908101601f19168201604052614c6d9190810190615c7b565b9050600082602001818152505081600001516001600160a01b031663a87af66c6040518163ffffffff1660e01b815260040160206040518083038186803b158015614cb757600080fd5b505afa158015614ccb573d6000803e3d6000fd5b505050506040513d601f19601f82011682018060405250810190614cef9190615bf3565b6001600160a01b03908116604084810191909152516317ba7d8560e01b81527fa837e34a29b67bf52f684a1c93def79b84b9c012732becee4e5df62809df64ed6004820152908416906317ba7d859060240160206040518083038186803b158015614d5957600080fd5b505afa158015614d6d573d6000803e3d6000fd5b505050506040513d601f19601f82011682018060405250810190614d919190615bf3565b6001600160a01b0390811660608401819052604051634fc0a76d60e01b8152918516600483015290634fc0a76d9060240160206040518083038186803b158015614dda57600080fd5b505afa158015614dee573d6000803e3d6000fd5b505050506040513d601f19601f82011682018060405250810190614e129190615d87565b60808301526040516317ba7d8560e01b81527ff03649ccf5cbda635d0464f73bc807b602819fde8d2e1387f87b988bb0e858a360048201526001600160a01b038416906317ba7d859060240160206040518083038186803b158015614e7657600080fd5b505afa158015614e8a573d6000803e3d6000fd5b505050506040513d601f19601f82011682018060405250810190614eae9190615bf3565b6001600160a01b0390811660c0840152604051634941d71d60e11b81527f7e07fb4530796d057ca1d76d83f47aa8629dbb7e942ac28f30ad6f5e9e8d4189600482015290841690639283ae3a9060240160206040518083038186803b158015614f1657600080fd5b505afa158015614f2a573d6000803e3d6000fd5b505050506040513d601f19601f82011682018060405250810190614f4e9190615d87565b60e083015260608201516040516301c22a3d60e01b81526001600160a01b038581166004830152909116906301c22a3d9060240160206040518083038186803b158015614f9a57600080fd5b505afa158015614fae573d6000803e3d6000fd5b505050506040513d601f19601f82011682018060405250810190614fd29190615d87565b61014083019081526001600160a01b038416600090815260036020908152604080832093518352929052205461010083015261500d83611d75565b61012083015260005b81518160ff161015611d4d578260e0015183610100015110615156576001600160a01b0384166000908152600460209081526040808320610140870151845290915281208351909190849060ff851690811061508257634e487b7160e01b600052603260045260246000fd5b6020908102919091018101516001600160a01b031682528101919091526040016000205460ff161561512f578261010001518360e001516150e086858560ff168151811061243957634e487b7160e01b600052603260045260246000fd5b6150ea9190615eb5565b6150f49190615e95565b61511b85848460ff168151811061243957634e487b7160e01b600052603260045260246000fd5b6151259190615ef2565b602084015261527b565b61512584838360ff168151811061243957634e487b7160e01b600052603260045260246000fd5b6001600160a01b0384166000908152600460209081526040808320610140870151845290915281208351909190849060ff85169081106151a657634e487b7160e01b600052603260045260246000fd5b6020908102919091018101516001600160a01b031682528101919091526040016000205460ff16156151de576000602084015261527b565b8261010001518361012001516151f49190615ef2565b8361010001518460e001516152099190615ef2565b61523086858560ff168151811061243957634e487b7160e01b600052603260045260246000fd5b61523a9190615eb5565b6152449190615e95565b61526b85848460ff168151811061243957634e487b7160e01b600052603260045260246000fd5b6152759190615ef2565b60208401525b60208301511561551e578260c001516001600160a01b031663f9e4c5228585608001518660400151868660ff16815181106152c657634e487b7160e01b600052603260045260246000fd5b602002602001015188602001516040518663ffffffff1660e01b81526004016153219594939291906001600160a01b039586168152602081019490945291841660408401529092166060820152608081019190915260a00190565b600060405180830381600087803b15801561533b57600080fd5b505af115801561534f573d6000803e3d6000fd5b505084516040516317ba7d8560e01b81527ff03649ccf5cbda635d0464f73bc807b602819fde8d2e1387f87b988bb0e858a360048201526001600160a01b03918216935063e176b35e9250908716906317ba7d859060240160206040518083038186803b1580156153bf57600080fd5b505afa1580156153d3573d6000803e3d6000fd5b505050506040513d601f19601f820116820180604052508101906153f79190615bf3565b604080870151602088015191516001600160e01b031960e086901b1681526001600160a01b039384166004820152921660248301526044820152606401600060405180830381600087803b15801561544e57600080fd5b505af1158015615462573d6000803e3d6000fd5b5050505082600001516001600160a01b031663e3a05cc1838360ff168151811061549c57634e487b7160e01b600052603260045260246000fd5b6020026020010151856040015186602001516040518463ffffffff1660e01b81526004016154eb939291906001600160a01b039384168152919092166020820152604081019190915260600190565b600060405180830381600087803b15801561550557600080fd5b505af1158015615519573d6000803e3d6000fd5b505050505b8061552881615f09565b915050615016565b600080826001600160a01b031663c19d93fb6040518163ffffffff1660e01b815260040160206040518083038186803b15801561556c57600080fd5b505afa158015615580573d6000803e3d6000fd5b505050506040513d601f19601f820116820180604052508101906155a49190615de9565b60018111156155c357634e487b7160e01b600052602160045260246000fd5b1480156103935750816001600160a01b031663c67143666040518163ffffffff1660e01b815260040160206040518083038186803b15801561560457600080fd5b505afa158015615618573d6000803e3d6000fd5b505050506040513d601f19601f8201168201806040525081019061563c9190615d87565b15806156d357506040517fa230c5240000000000000000000000000000000000000000000000000000000081523360048201526001600160a01b0383169063a230c5249060240160206040518083038186803b15801561569b57600080fd5b505afa1580156156af573d6000803e3d6000fd5b505050506040513d601f19601f820116820180604052508101906156d39190615d42565b8061039357506040517f68c18beb0000000000000000000000000000000000000000000000000000000081523360048201526001600160a01b038316906368c18beb9060240160206040518083038186803b15801561573157600080fd5b505afa158015615745573d6000803e3d6000fd5b505050506040513d601f19601f820116820180604052508101906103939190615d42565b6000610719836001600160a01b038416615a4b565b6000816001600160a01b03166348f7f2a36040518163ffffffff1660e01b815260040160206040518083038186803b1580156157b957600080fd5b505afa1580156157cd573d6000803e3d6000fd5b505050506040513d601f19601f820116820180604052508101906157f19190615bf3565b6001600160a01b0316638da5cb5b6040518163ffffffff1660e01b815260040160206040518083038186803b15801561582957600080fd5b505afa15801561583d573d6000803e3d6000fd5b505050506040513d601f19601f820116820180604052508101906103939190615bf3565b6001600160a01b03831660009081526002602090815260408083208484529091529020611d4d90835b6000610719836001600160a01b038416615a9a565b6060816000018054806020026020016040519081016040528092919081815260200182805480156158ef57602002820191906000526020600020905b8154815260200190600101908083116158db575b50505050509050919050565b8160200151156159995781606001516001600160a01b0316635e5eb01384835a86516159279190615ef2565b60408088015190516001600160e01b031960e087901b1681526001600160a01b03948516600482015293909216602484015260448301526064820152608401600060405180830381600087803b15801561598057600080fd5b505af1158015615994573d6000803e3d6000fd5b505050505b826001600160a01b031663d4f7af436040518163ffffffff1660e01b8152600401600060405180830381600087803b15801561352a57600080fd5b6060816001600160a01b031663a6f636416040518163ffffffff1660e01b815260040160006040518083038186803b158015615a0f57600080fd5b505afa158015615a23573d6000803e3d6000fd5b505050506040513d6000823e601f3d908101601f191682016040526103939190810190615c7b565b6000818152600183016020526040812054615a9257508154600181810184556000848152602080822090930184905584548482528286019093526040902091909155610393565b506000610393565b60008181526001830160205260408120548015615bad576000615abe600183615ef2565b8554909150600090615ad290600190615ef2565b9050818114615b53576000866000018281548110615b0057634e487b7160e01b600052603260045260246000fd5b9060005260206000200154905080876000018481548110615b3157634e487b7160e01b600052603260045260246000fd5b6000918252602080832090910192909255918252600188019052604090208390555b8554869080615b7257634e487b7160e01b600052603160045260246000fd5b600190038181906000526020600020016000905590558560010160008681526020019081526020016000206000905560019350505050610393565b6000915050610393565b8051615bc281615f55565b919050565b80518015158114615bc257600080fd5b600060208284031215615be8578081fd5b813561071981615f55565b600060208284031215615c04578081fd5b815161071981615f55565b60008060408385031215615c21578081fd5b8235615c2c81615f55565b946020939093013593505050565b600080600060608486031215615c4e578081fd5b8335615c5981615f55565b9250602084013591506040840135615c7081615f55565b809150509250925092565b60006020808385031215615c8d578182fd5b825167ffffffffffffffff80821115615ca4578384fd5b818501915085601f830112615cb7578384fd5b815181811115615cc957615cc9615f3f565b8060051b604051601f19603f83011681018181108582111715615cee57615cee615f3f565b604052828152858101935084860182860187018a1015615d0c578788fd5b8795505b83861015615d3557615d2181615bb7565b855260019590950194938601938601615d10565b5098975050505050505050565b600060208284031215615d53578081fd5b61071982615bc7565b60008060408385031215615d6e578182fd5b615d7783615bc7565b9150602083015190509250929050565b600060208284031215615d98578081fd5b5051919050565b60008060408385031215615db1578182fd5b8235615dbc81615f55565b91506020830135615dcc81615f55565b809150509250929050565b60008060408385031215615c21578182fd5b600060208284031215615dfa578081fd5b815160028110610719578182fd5b6020808252825182820181905260009190848201906040850190845b81811015615e495783516001600160a01b031683529284019291840191600101615e24565b50909695505050505050565b6020810160048310615e7757634e487b7160e01b600052602160045260246000fd5b91905290565b60008219821115615e9057615e90615f29565b500190565b600082615eb057634e487b7160e01b81526012600452602481fd5b500490565b6000817fffffffffffffffffffffffffffffffffffffffffffffffffffffffffffffffff0483118215151615615eed57615eed615f29565b500290565b600082821015615f0457615f04615f29565b500390565b600060ff821660ff811415615f2057615f20615f29565b60010192915050565b634e487b7160e01b600052601160045260246000fd5b634e487b7160e01b600052604160045260246000fd5b6001600160a01b0381168114615f6a57600080fd5b5056fea2646970667358221220c8483a81bfccfbce1a9eab6ccfc901f58a4fb4f59646db52edad58dff67ea7a364736f6c63430008040033",
  "linkReferences": {},
  "deployedLinkReferences": {}
}