{
  "_format": "hh-sol-artifact-1",
  "contractName": "VintageFundingAdapterContract",
  "sourceName": "contracts/vintage/adapters/VintageFundingAdapter.sol",
  "abi": [
    {
      "inputs": [],
      "name": "Empty",
      "type": "error"
    },
    {
      "inputs": [],
      "name": "INVESTMENT_PROPOSAL_NOT_FINALIZED",
      "type": "error"
    },
    {
      "anonymous": false,
      "inputs": [
        {
          "indexed": false,
          "internalType": "address",
          "name": "daoAddr",
          "type": "address"
        },
        {
          "indexed": false,
          "internalType": "bytes32",
          "name": "proposalId",
          "type": "bytes32"
        }
      ],
      "name": "ProposalCreated",
      "type": "event"
    },
    {
      "anonymous": false,
      "inputs": [
        {
          "indexed": false,
          "internalType": "address",
          "name": "daoAddr",
          "type": "address"
        },
        {
          "indexed": false,
          "internalType": "bytes32",
          "name": "proposalID",
          "type": "bytes32"
        },
        {
          "indexed": false,
          "internalType": "uint128",
          "name": "allVotingWeight",
          "type": "uint128"
        },
        {
          "indexed": false,
          "internalType": "uint128",
          "name": "nbYes",
          "type": "uint128"
        },
        {
          "indexed": false,
          "internalType": "uint128",
          "name": "nbNo",
          "type": "uint128"
        },
        {
          "indexed": false,
          "internalType": "address[]",
          "name": "investors",
          "type": "address[]"
        }
      ],
      "name": "ProposalExecuted",
      "type": "event"
    },
    {
      "anonymous": false,
      "inputs": [
        {
          "indexed": false,
          "internalType": "address",
          "name": "daoAddr",
          "type": "address"
        },
        {
          "indexed": false,
          "internalType": "bytes32",
          "name": "proposalID",
          "type": "bytes32"
        }
      ],
      "name": "StartVote",
      "type": "event"
    },
    {
      "inputs": [
        {
          "internalType": "contract DaoRegistry",
          "name": "dao",
          "type": "address"
        }
      ],
      "name": "getFrontProposalId",
      "outputs": [
        {
          "internalType": "bytes32",
          "name": "",
          "type": "bytes32"
        }
      ],
      "stateMutability": "view",
      "type": "function"
    },
    {
      "inputs": [
        {
          "internalType": "contract DaoRegistry",
          "name": "dao",
          "type": "address"
        }
      ],
      "name": "getQueueLength",
      "outputs": [
        {
          "internalType": "uint256",
          "name": "",
          "type": "uint256"
        }
      ],
      "stateMutability": "view",
      "type": "function"
    },
    {
      "inputs": [
        {
          "internalType": "address",
          "name": "",
          "type": "address"
        }
      ],
      "name": "ongoingProposal",
      "outputs": [
        {
          "internalType": "bytes32",
          "name": "",
          "type": "bytes32"
        }
      ],
      "stateMutability": "view",
      "type": "function"
    },
    {
      "inputs": [
        {
          "internalType": "contract DaoRegistry",
          "name": "dao",
          "type": "address"
        },
        {
          "internalType": "bytes32",
          "name": "proposalId",
          "type": "bytes32"
        }
      ],
      "name": "processProposal",
      "outputs": [
        {
          "internalType": "bool",
          "name": "",
          "type": "bool"
        }
      ],
      "stateMutability": "nonpayable",
      "type": "function"
    },
    {
      "inputs": [
        {
          "internalType": "address",
          "name": "",
          "type": "address"
        },
        {
          "internalType": "bytes32",
          "name": "",
          "type": "bytes32"
        },
        {
          "internalType": "address",
          "name": "",
          "type": "address"
        }
      ],
      "name": "projectTeamLockedTokens",
      "outputs": [
        {
          "internalType": "uint256",
          "name": "",
          "type": "uint256"
        }
      ],
      "stateMutability": "view",
      "type": "function"
    },
    {
      "inputs": [
        {
          "internalType": "address",
          "name": "",
          "type": "address"
        }
      ],
      "name": "proposalQueue",
      "outputs": [
        {
          "internalType": "int128",
          "name": "_begin",
          "type": "int128"
        },
        {
          "internalType": "int128",
          "name": "_end",
          "type": "int128"
        }
      ],
      "stateMutability": "view",
      "type": "function"
    },
    {
      "inputs": [
        {
          "internalType": "address",
          "name": "",
          "type": "address"
        },
        {
          "internalType": "bytes32",
          "name": "",
          "type": "bytes32"
        }
      ],
      "name": "proposals",
      "outputs": [
        {
          "internalType": "address",
          "name": "investmentToken",
          "type": "address"
        },
        {
          "internalType": "uint256",
          "name": "investmentAmount",
          "type": "uint256"
        },
        {
          "internalType": "uint256",
          "name": "totalAmount",
          "type": "uint256"
        },
        {
          "internalType": "uint256",
          "name": "price",
          "type": "uint256"
        },
        {
          "internalType": "address",
          "name": "recipientAddr",
          "type": "address"
        },
        {
          "internalType": "address",
          "name": "proposer",
          "type": "address"
        },
        {
          "internalType": "enum InvestmentLibrary.ProposalState",
          "name": "status",
          "type": "uint8"
        },
        {
          "components": [
            {
              "internalType": "string",
              "name": "name",
              "type": "string"
            },
            {
              "internalType": "string",
              "name": "description",
              "type": "string"
            },
            {
              "internalType": "uint256",
              "name": "vestingStartTime",
              "type": "uint256"
            },
            {
              "internalType": "uint256",
              "name": "vetingEndTime",
              "type": "uint256"
            },
            {
              "internalType": "uint256",
              "name": "vestingCliffEndTime",
              "type": "uint256"
            },
            {
              "internalType": "uint256",
              "name": "vestingCliffLockAmount",
              "type": "uint256"
            },
            {
              "internalType": "uint256",
              "name": "vestingInterval",
              "type": "uint256"
            }
          ],
          "internalType": "struct InvestmentLibrary.VestInfo",
          "name": "vestInfo",
          "type": "tuple"
        },
        {
          "components": [
            {
              "internalType": "bool",
              "name": "escrow",
              "type": "bool"
            },
            {
              "internalType": "address",
              "name": "paybackToken",
              "type": "address"
            },
            {
              "internalType": "uint256",
              "name": "paybackTokenAmount",
              "type": "uint256"
            },
            {
              "internalType": "address",
              "name": "approveOwnerAddr",
              "type": "address"
            },
            {
              "internalType": "bool",
              "name": "nftEnable",
              "type": "bool"
            },
            {
              "internalType": "address",
              "name": "erc721",
              "type": "address"
            }
          ],
          "internalType": "struct InvestmentLibrary.ProposalPaybackTokenInfo",
          "name": "proposalPaybackTokenInfo",
          "type": "tuple"
        },
        {
          "components": [
            {
              "internalType": "uint256",
              "name": "inQueueTimestamp",
              "type": "uint256"
            },
            {
              "internalType": "uint256",
              "name": "proposalStartVotingTimestamp",
              "type": "uint256"
            },
            {
              "internalType": "uint256",
              "name": "proposalStopVotingTimestamp",
              "type": "uint256"
            },
            {
              "internalType": "uint256",
              "name": "proposalExecuteTimestamp",
              "type": "uint256"
            }
          ],
          "internalType": "struct InvestmentLibrary.ProposalTimeInfo",
          "name": "proposalTimeInfo",
          "type": "tuple"
        },
        {
          "internalType": "uint256",
          "name": "executeBlockNum",
          "type": "uint256"
        }
      ],
      "stateMutability": "view",
      "type": "function"
    },
    {
      "inputs": [],
      "name": "protocolAddress",
      "outputs": [
        {
          "internalType": "address",
          "name": "",
          "type": "address"
        }
      ],
      "stateMutability": "view",
      "type": "function"
    },
    {
      "inputs": [
        {
          "internalType": "contract DaoRegistry",
          "name": "dao",
          "type": "address"
        },
        {
          "internalType": "address",
          "name": "_protocolAddress",
          "type": "address"
        }
      ],
      "name": "setProtocolAddress",
      "outputs": [],
      "stateMutability": "nonpayable",
      "type": "function"
    },
    {
      "inputs": [
        {
          "internalType": "contract DaoRegistry",
          "name": "dao",
          "type": "address"
        },
        {
          "internalType": "bytes32",
          "name": "proposalId",
          "type": "bytes32"
        }
      ],
      "name": "startVotingProcess",
      "outputs": [],
      "stateMutability": "nonpayable",
      "type": "function"
    },
    {
      "inputs": [
        {
          "internalType": "contract DaoRegistry",
          "name": "dao",
          "type": "address"
        },
        {
          "components": [
            {
              "components": [
                {
                  "internalType": "uint256",
                  "name": "investmentAmount",
                  "type": "uint256"
                },
                {
                  "internalType": "address",
                  "name": "investmentToken",
                  "type": "address"
                },
                {
                  "internalType": "address",
                  "name": "receiver",
                  "type": "address"
                }
              ],
              "internalType": "struct IVintageInvestment.InvestmentInfo",
              "name": "investmentInfo",
              "type": "tuple"
            },
            {
              "components": [
                {
                  "internalType": "bool",
                  "name": "escrow",
                  "type": "bool"
                },
                {
                  "internalType": "address",
                  "name": "paybackToken",
                  "type": "address"
                },
                {
                  "internalType": "uint256",
                  "name": "price",
                  "type": "uint256"
                },
                {
                  "internalType": "uint256",
                  "name": "paybackTokenAmount",
                  "type": "uint256"
                },
                {
                  "internalType": "address",
                  "name": "approver",
                  "type": "address"
                },
                {
                  "internalType": "bool",
                  "name": "nftEnable",
                  "type": "bool"
                },
                {
                  "internalType": "address",
                  "name": "vestingNft",
                  "type": "address"
                }
              ],
              "internalType": "struct IVintageInvestment.PaybackTokenInfo",
              "name": "paybackTokenInfo",
              "type": "tuple"
            },
            {
              "components": [
                {
                  "internalType": "string",
                  "name": "name",
                  "type": "string"
                },
                {
                  "internalType": "string",
                  "name": "description",
                  "type": "string"
                },
                {
                  "internalType": "uint256",
                  "name": "vestingStartTime",
                  "type": "uint256"
                },
                {
                  "internalType": "uint256",
                  "name": "vetingEndTime",
                  "type": "uint256"
                },
                {
                  "internalType": "uint256",
                  "name": "vestingCliffEndTime",
                  "type": "uint256"
                },
                {
                  "internalType": "uint256",
                  "name": "vestingCliffLockAmount",
                  "type": "uint256"
                },
                {
                  "internalType": "uint256",
                  "name": "vestingInterval",
                  "type": "uint256"
                }
              ],
              "internalType": "struct IVintageInvestment.VestInfo",
              "name": "vestInfo",
              "type": "tuple"
            }
          ],
          "internalType": "struct IVintageInvestment.InvestmentProposalParams",
          "name": "params",
          "type": "tuple"
        }
      ],
      "name": "submitProposal",
      "outputs": [],
      "stateMutability": "nonpayable",
      "type": "function"
    },
    {
      "inputs": [
        {
          "internalType": "contract DaoRegistry",
          "name": "dao",
          "type": "address"
        },
        {
          "internalType": "bytes32",
          "name": "proposalId",
          "type": "bytes32"
        }
      ],
      "name": "unLockProjectTeamToken",
      "outputs": [],
      "stateMutability": "nonpayable",
      "type": "function"
    }
  ],
  "bytecode": "0x6080604052600480546001600160a01b031916739ac9c636404c8d46d9eb966d7179983ba5a3941a17905534801561003657600080fd5b50615be080620000476000396000f3fe608060405234801561001057600080fd5b50600436106100d45760003560e01c80639573167d11610081578063d5bef02e1161005b578063d5bef02e1461021b578063f33821ec1461024c578063f8d90d5d1461025f57600080fd5b80639573167d1461019c578063a5d6fb13146101bf578063ca696d83146101d257600080fd5b8063438d9312116100b2578063438d93121461013f5780635cb752761461015257806362e86df51461017c57600080fd5b80630676c1b7146100d95780632b73de35146101095780633d67a5fc1461011e575b600080fd5b6004546100ec906001600160a01b031681565b6040516001600160a01b0390911681526020015b60405180910390f35b61011c6101173660046150fa565b610272565b005b61013161012c366004614efe565b610d6d565b604051908152602001610100565b61011c61014d3660046150c2565b610dd3565b610165610160366004614f3d565b610f8e565b6040516101009b9a99989796959493929190615510565b61013161018a366004614efe565b60026020526000908152604090205481565b6101af6101aa3660046150fa565b6111ee565b6040519015158152602001610100565b6101316101cd366004614efe565b611f0e565b6102016101e0366004614efe565b600360205260009081526040902054600f81810b91600160801b9004900b82565b60408051600f93840b81529190920b602082015201610100565b610131610229366004614f68565b600160209081526000938452604080852082529284528284209052825290205481565b61011c61025a36600461510c565b611f72565b61011c61026d3660046150fa565b612c8b565b81600061027e82612e14565b90508361028b81336130df565b600061029686611f0e565b116102e85760405162461bcd60e51b815260206004820152600e60248201527f2150726f706f73616c517565756500000000000000000000000000000000000060448201526064015b60405180910390fd5b6001600160a01b0385166000908152600360205260409020610309906131c1565b84146103575760405162461bcd60e51b815260206004820152601460248201527f2148656164517565756550726f706f73616c496400000000000000000000000060448201526064016102df565b6040805160e08101825260008082526020808301829052828401829052606083018290526080830182905260a0830182905260c083018290526001600160a01b0389168083526002825284832054845282528181528382208883529052919091208151156104b65760036001600160a01b03881660009081526020818152604080832086518452909152902060050154600160a01b900460ff16600481111561041057634e487b7160e01b600052602160045260246000fd5b148061046a575060046001600160a01b03881660009081526020818152604080832086518452909152902060050154600160a01b900460ff16600481111561046857634e487b7160e01b600052602160045260246000fd5b145b6104b65760405162461bcd60e51b815260206004820152601160248201527f50726550726f7073616c4e6f74446f6e6500000000000000000000000000000060448201526064016102df565b6040516317ba7d8560e01b81527faaff643bdbd909f604d46ce015336f7e20fee3ac4a55cef3610188dee176c89260048201526001600160a01b038816906317ba7d859060240160206040518083038186803b15801561051557600080fd5b505afa158015610529573d6000803e3d6000fd5b505050506040513d601f19601f8201168201806040525081019061054d9190614f21565b6001600160a01b0390811660408481019190915251634941d71d60e11b81527f9876c0f0505bfb2b1c38d3bbd25ba13159172cd0868972d76927723f5a9480fc600482015290881690639283ae3a9060240160206040518083038186803b1580156105b757600080fd5b505afa1580156105cb573d6000803e3d6000fd5b505050506040513d601f19601f820116820180604052508101906105ef91906152d8565b6105f99042615a30565b60808301526040808301519051634941d71d60e11b81527f02a3530cbb6e7c084516c86f68bd62c3e3fcd783c6c5d7e138616207f7a3225060048201526001600160a01b0391821691633a844ec0918a91821690639283ae3a9060240160206040518083038186803b15801561066e57600080fd5b505afa158015610682573d6000803e3d6000fd5b505050506040513d601f19601f820116820180604052508101906106a691906152d8565b85608001516106b59190615a30565b6040517fffffffff0000000000000000000000000000000000000000000000000000000060e085901b1681526001600160a01b039092166004830152602482015260440160206040518083038186803b15801561071157600080fd5b505afa158015610725573d6000803e3d6000fd5b505050506040513d601f19601f820116820180604052508101906107499190615079565b156107965760405162461bcd60e51b815260206004820152601160248201527f486974526564656d707465506572696f6400000000000000000000000000000060448201526064016102df565b60006005820154600160a01b900460ff1660048111156107c657634e487b7160e01b600052602160045260246000fd5b146108135760405162461bcd60e51b815260206004820152601260248201527f50726f706f73616c4e6f74496e5175657565000000000000000000000000000060448201526064016102df565b6001600160a01b038716600090815260036020526040902061083490613238565b506040516317ba7d8560e01b81527fd3999c37f8f35da86f802a74f9bf032c4aeb46e49abd9c861f489ef4cb40d0a860048201526001600160a01b038816906317ba7d859060240160206040518083038186803b15801561089457600080fd5b505afa1580156108a8573d6000803e3d6000fd5b505050506040513d601f19601f820116820180604052508101906108cc9190614f21565b6001600160a01b0390811660c0840152600282015460408085015190517f68abb5e00000000000000000000000000000000000000000000000000000000081528a84166004820152919216906368abb5e09060240160206040518083038186803b15801561093957600080fd5b505afa15801561094d573d6000803e3d6000fd5b505050506040513d601f19601f8201168201806040525081019061097191906152d8565b1080610ab75750604051634941d71d60e11b81527f9ce69cf04065e3c7823cc5540c0598d8a694bd7a9a5a2a786d8bccf14ed6e2ea60048201526001600160a01b03881690639283ae3a9060240160206040518083038186803b1580156109d757600080fd5b505afa1580156109eb573d6000803e3d6000fd5b505050506040513d601f19601f82011682018060405250810190610a0f91906152d8565b604051634941d71d60e11b81527f02a3530cbb6e7c084516c86f68bd62c3e3fcd783c6c5d7e138616207f7a3225060048201526001600160a01b03891690639283ae3a9060240160206040518083038186803b158015610a6e57600080fd5b505afa158015610a82573d6000803e3d6000fd5b505050506040513d601f19601f82011682018060405250810190610aa691906152d8565b8360800151610ab59190615a30565b115b15610ade576005810180546004919060ff60a01b1916600160a01b835b0217905550610d18565b600d81015460ff1615610c4857600f810154600d820154600e830154610b1c928a926001600160a01b0391821692610100909104909116908a6132f5565b151560a08301819052610b45576005810180546004919060ff60a01b1916600160a01b83610ad4565b600e8101546001600160a01b0380891660009081526001602090815260408083208b84528252808320600f8701548516845282528083209490945560c08601518451918201855291815292517f26078cd00000000000000000000000000000000000000000000000000000000081529116916326078cd091610bcf918b918b91429160040161570b565b600060405180830381600087803b158015610be957600080fd5b505af1158015610bfd573d6000803e3d6000fd5b50504260128401555050608082015160138201556001600160a01b03871660009081526002602052604090208690556005810180546001919060ff60a01b1916600160a01b83610ad4565b60c0820151604080516020810182526000815290517f26078cd00000000000000000000000000000000000000000000000000000000081526001600160a01b03909216916326078cd091610ca5918b918b9142919060040161570b565b600060405180830381600087803b158015610cbf57600080fd5b505af1158015610cd3573d6000803e3d6000fd5b50504260128401555050608082015160138201556001600160a01b038716600090815260026020526040902086905560058101805460ff60a01b1916600160a01b1790555b604080516001600160a01b0389168152602081018890527f753eb58faf3992b1f62f6c6a4234abd516596fe79423b146e2300a3291b4f7d3910160405180910390a1505050610d678282613452565b50505050565b6001600160a01b038116600090815260036020526040812054600f81810b810b600160801b909204810b900b1315610dc6576001600160a01b0382166000908152600360205260409020610dc0906131c1565b92915050565b506000919050565b919050565b8143816001600160a01b031663b21634826040518163ffffffff1660e01b815260040160206040518083038186803b158015610e0e57600080fd5b505afa158015610e22573d6000803e3d6000fd5b505050506040513d601f19601f82011682018060405250810190610e4691906152d8565b1415610e945760405162461bcd60e51b815260206004820152601060248201527f7265656e7472616e63792067756172640000000000000000000000000000000060448201526064016102df565b806001600160a01b03166310fdb0a26040518163ffffffff1660e01b8152600401600060405180830381600087803b158015610ecf57600080fd5b505af1158015610ee3573d6000803e3d6000fd5b5050505082610ef18161345d565b6001600160a01b0316336001600160a01b031614610f0e57600080fd5b82600460006101000a8154816001600160a01b0302191690836001600160a01b0316021790555050806001600160a01b031663d4f7af436040518163ffffffff1660e01b8152600401600060405180830381600087803b158015610f7157600080fd5b505af1158015610f85573d6000803e3d6000fd5b50505050505050565b600060208181529281526040808220909352908152819020805460018201546002830154600384015460048501546005860154875160e081019098526006870180546001600160a01b03978816999698959794969385169594831694600160a01b90930460ff169391908290829061100590615abe565b80601f016020809104026020016040519081016040528092919081815260200182805461103190615abe565b801561107e5780601f106110535761010080835404028352916020019161107e565b820191906000526020600020905b81548152906001019060200180831161106157829003601f168201915b5050505050815260200160018201805461109790615abe565b80601f01602080910402602001604051908101604052809291908181526020018280546110c390615abe565b80156111105780601f106110e557610100808354040283529160200191611110565b820191906000526020600020905b8154815290600101906020018083116110f357829003601f168201915b5050509183525050600282015460208083019190915260038301546040808401919091526004840154606080850191909152600585015460808086019190915260069095015460a094850152815160c081018352600d88015460ff808216151583526001600160a01b03610100909204821683870152600e8a015483860152600f8a015480831684860152600160a01b9004161515828801526010890154169481019490945281519485018252601187015485526012870154928501929092526013860154908401526014850154908301526015909301549192918b565b60008260006111fc82612e14565b9050611298604080516101808101825260008082526020820181905291810182905260608101829052906080820190815260200160006fffffffffffffffffffffffffffffffff16815260200160006fffffffffffffffffffffffffffffffff16815260200160006fffffffffffffffffffffffffffffffff168152602001600081526020016000815260200160008152602001606081525090565b6001600160a01b0386166000908152600260205260409020548082521561130957805185146113095760405162461bcd60e51b815260206004820152601160248201527f496e76616c6964205072706f73616c496400000000000000000000000000000060448201526064016102df565b6001600160a01b03861660009081526020818152604080832088845290915290206013810154421161137d5760405162461bcd60e51b815260206004820152601060248201527f496e20566f74696e6720506572696f640000000000000000000000000000000060448201526064016102df565b60026005820154600160a01b900460ff1660048111156113ad57634e487b7160e01b600052602160045260246000fd5b14156113fb5760405162461bcd60e51b815260206004820152601360248201527f496e20457865637574652050726f67726573730000000000000000000000000060448201526064016102df565b6040517f30490e91000000000000000000000000000000000000000000000000000000008152600481018790526001600160a01b038816906330490e9190602401600060405180830381600087803b15801561145657600080fd5b505af115801561146a573d6000803e3d6000fd5b50506040517f593e96b60000000000000000000000000000000000000000000000000000000081527f161fca6912f107b0f13c9c7275de7391b32d2ea1c52ffba65a3c961880a0c60f60048201526001600160a01b038a16925063593e96b6915060240160206040518083038186803b1580156114e657600080fd5b505afa1580156114fa573d6000803e3d6000fd5b505050506040513d601f19601f8201168201806040525081019061151e9190614f21565b6001600160a01b0390811660608401526040517f40de703e00000000000000000000000000000000000000000000000000000000815260048101889052908816906340de703e9060240160206040518083038186803b15801561158057600080fd5b505afa158015611594573d6000803e3d6000fd5b505050506040513d601f19601f820116820180604052508101906115b89190614f21565b6001600160a01b0316602083018190526116145760405162461bcd60e51b815260206004820152601160248201527f41646170746572204e6f7420466f756e6400000000000000000000000000000060448201526064016102df565b61161e8787613540565b6fffffffffffffffffffffffffffffffff1660e083015260208201516040517f76225e730000000000000000000000000000000000000000000000000000000081526001600160a01b03898116600483015260248201899052909116906376225e739060440160606040518083038186803b15801561169c57600080fd5b505afa1580156116b0573d6000803e3d6000fd5b505050506040513d601f19601f820116820180604052508101906116d49190615175565b6fffffffffffffffffffffffffffffffff80821660c0870152821660a08601526080850183600581111561171857634e487b7160e01b600052602160045260246000fd5b600581111561173757634e487b7160e01b600052602160045260246000fd5b905250600291506117459050565b8260800151600581111561176957634e487b7160e01b600052602160045260246000fd5b1415611dd2576005810180547402000000000000000000000000000000000000000060ff60a01b199091161790556001600160a01b03871660008181526002602052604090819020889055516317ba7d8560e01b81527faaff643bdbd909f604d46ce015336f7e20fee3ac4a55cef3610188dee176c89260048201526317ba7d859060240160206040518083038186803b15801561180657600080fd5b505afa15801561181a573d6000803e3d6000fd5b505050506040513d601f19601f8201168201806040525081019061183e9190614f21565b6001600160a01b0390811660408481019190915251634941d71d60e11b81527f11618fa890234170104debf73b2563b667bd200bac1d7d8dd024e2f3fadaefd26004820152670de0b6b3a764000091891690639283ae3a9060240160206040518083038186803b1580156118b157600080fd5b505afa1580156118c5573d6000803e3d6000fd5b505050506040513d601f19601f820116820180604052508101906118e991906152d8565b82600201546118f89190615a5c565b6119029190615a48565b82610120018181525050670de0b6b3a764000082604001516001600160a01b031663b0e21e8a6040518163ffffffff1660e01b815260040160206040518083038186803b15801561195257600080fd5b505afa158015611966573d6000803e3d6000fd5b505050506040513d601f19601f8201168201806040525081019061198a91906152d8565b82600201546119999190615a5c565b6119a39190615a48565b610100830152604051634941d71d60e11b81527f66ed99f9a48fc961fffd6425cceb65d9444f5bda8af3bc46d14fd6b5a844fde56004820152670de0b6b3a7640000906001600160a01b03891690639283ae3a9060240160206040518083038186803b158015611a1257600080fd5b505afa158015611a26573d6000803e3d6000fd5b505050506040513d601f19601f82011682018060405250810190611a4a91906152d8565b8260020154611a599190615a5c565b611a639190615a48565b82610140018181525050806002015482606001516001600160a01b03166318160ddd6040518163ffffffff1660e01b815260040160206040518083038186803b158015611aaf57600080fd5b505afa158015611ac3573d6000803e3d6000fd5b505050506040513d601f19601f82011682018060405250810190611ae791906152d8565b1015611b0f576005810180546004919060ff60a01b1916600160a01b835b0217905550611e7a565b6040516317ba7d8560e01b81527fe1cf6669e8110c379c9ea0aceed535b5ed15ea1db2447ab3fbda96c746d21a1a60048201526000906001600160a01b038916906317ba7d859060240160206040518083038186803b158015611b7157600080fd5b505afa158015611b85573d6000803e3d6000fd5b505050506040513d601f19601f82011682018060405250810190611ba99190614f21565b60408051606080820183526004808701546001600160a01b039081168452815481166020808601919091526005890154821685870152855160808101875260018a015481526101208b0151918101919091526101008a0151818701526101408a01519381019390935293517f9f8c714900000000000000000000000000000000000000000000000000000000815294955092851693639f8c714993611c54938e93909290910161565c565b600060405180830381600087803b158015611c6e57600080fd5b505af1158015611c82573d6000803e3d6000fd5b50505050600d82015460ff1615611cd357611c9d888861386c565b6001600160a01b0380891660009081526001602090815260408083208b84528252808320600f8701549094168352929052908120555b60018201546101008401516101208501516101408601516040517fba8c778f0000000000000000000000000000000000000000000000000000000081526001600160a01b038d8116600483015260248201959095526044810193909352606483019190915260848201529082169063ba8c778f9060a401600060405180830381600087803b158015611d6457600080fd5b505af1158015611d78573d6000803e3d6000fd5b505050506040513d6000823e601f3d908101601f19168201604052611da09190810190614fa9565b6101608401525060058101805460ff60a01b191674030000000000000000000000000000000000000000179055611e7a565b600382608001516005811115611df857634e487b7160e01b600052602160045260246000fd5b1480611e275750600182608001516005811115611e2557634e487b7160e01b600052602160045260246000fd5b145b15611e48576005810180546004919060ff60a01b1916600160a01b83611b05565b6040517f70ea4a3100000000000000000000000000000000000000000000000000000000815260040160405180910390fd5b4260148201556001600160a01b0387166000908152600260205260408082209190915543601583015560e083015160a084015160c085015161016086015193517ff23b76a28b82c634fbaa1f48dce71beec04bd13aaf967439843a8216cea75ad694611eee948d948d949193909290615482565b60405180910390a1600194505050611f068282613452565b505092915050565b6001600160a01b038116600090815260036020526040812054600f81810b810b600160801b909204810b900b1315610dc6576001600160a01b038216600090815260036020526040902054600f81810b810b600160801b909204810b900b03610dc0565b81611f7d81336130df565b826000611f8982612e14565b6040516317ba7d8560e01b81527f77cdf6056467142a33aa6f753fc1e3907f6850ebf08c7b63b107b0611a69b04e60048201529091506001600160a01b038616906317ba7d859060240160206040518083038186803b158015611feb57600080fd5b505afa158015611fff573d6000803e3d6000fd5b505050506040513d601f19601f820116820180604052508101906120239190614f21565b6040517f9a0242fc0000000000000000000000000000000000000000000000000000000081526001600160a01b0387811660048301529190911690639a0242fc9060240160206040518083038186803b15801561207f57600080fd5b505afa158015612093573d6000803e3d6000fd5b505050506040513d601f19601f820116820180604052508101906120b79190615079565b6121035760405162461bcd60e51b815260206004820152601660248201527f44616f5365742050726f706f73616c20556e646f6e650000000000000000000060448201526064016102df565b6040805161018081018252600080825260208201819052918101829052606081018290526080810182905260a0810182905260c0810182905260e08101829052610100810182905261012081018290526101408101829052610160810191909152856001600160a01b031663776d13c56040518163ffffffff1660e01b8152600401600060405180830381600087803b15801561219f57600080fd5b505af11580156121b3573d6000803e3d6000fd5b505050506122938660c01b6040518060400160405280600b81526020017f496e766573746d656e742300000000000000000000000000000000000000000081525061226d896001600160a01b031663f1457aac6040518163ffffffff1660e01b815260040160206040518083038186803b15801561223057600080fd5b505afa158015612244573d6000803e3d6000fd5b505050506040513d601f19601f8201168201806040525081019061226891906152d8565b613a01565b60405160200161227f93929190615424565b604051602081830303815290604052613b57565b608082018190526040517fb73dc38900000000000000000000000000000000000000000000000000000000815260048101919091526001600160a01b0387169063b73dc38990602401600060405180830381600087803b1580156122f657600080fd5b505af115801561230a573d6000803e3d6000fd5b505050506001600160a01b0386811660009081526020818152604080832060808681015185529083529281902081516101608101835281548616815260018201549381019390935260028101549183019190915260038101546060830152600480820154851693830193909352600581015493841660a08301529092909160c0840191600160a01b900460ff16908111156123b557634e487b7160e01b600052602160045260246000fd5b60048111156123d457634e487b7160e01b600052602160045260246000fd5b8152602001600682016040518060e00160405290816000820180546123f890615abe565b80601f016020809104026020016040519081016040528092919081815260200182805461242490615abe565b80156124715780601f1061244657610100808354040283529160200191612471565b820191906000526020600020905b81548152906001019060200180831161245457829003601f168201915b5050505050815260200160018201805461248a90615abe565b80601f01602080910402602001604051908101604052809291908181526020018280546124b690615abe565b80156125035780601f106124d857610100808354040283529160200191612503565b820191906000526020600020905b8154815290600101906020018083116124e657829003601f168201915b5050509183525050600282015460208083019190915260038301546040808401919091526004840154606080850191909152600585015460808086019190915260069095015460a094850152948652805160c08082018352600d89015460ff808216151584526001600160a01b03610100909204821684870152600e8b015484860152600f8b0154808316858b0152600160a01b90041615158388015260108a0154168286015287840191909152815180860183526011890154815260128901548185015260138901548184015260148901548188015287830152601590970154958501959095528451610160810186528c3581528c830135918101919091524294810194909452600092840183905290830182905282015273__$681cb9474e9d0742d402d6511ae484696d$__926378f55c1b9290918a91810161264c6101408c018c615941565b6040013581526020016126636101408c018c615941565b60800135815260200161267a6101408c018c615941565b6060013581526020016126916101408c018c615941565b60a0013581526020016126a86101408c018c615941565b60c09081013590915260408051918201815281906126cb908d0160208e01614efe565b6001600160a01b031681526020016126ea6101008d0160e08e01614efe565b6001600160a01b0316815260200161270860a08d0160808e01614efe565b6001600160a01b0316815233602082015260409081019061272f9060608e01908e01614efe565b6001600160a01b0316815260200161274f6101408d016101208e01614efe565b6001600160a01b0316905261276a60808c0160608d0161505d565b61277c6101208d016101008e0161505d565b61278a6101408e018e615941565b61279490806158d7565b8e8061014001906127a59190615941565b6127b39060208101906158d7565b6040518b63ffffffff1660e01b81526004016127d89a99989796959493929190615739565b60006040518083038186803b1580156127f057600080fd5b505af4158015612804573d6000803e3d6000fd5b505050506040513d6000823e601f3d908101601f1916820160405261282c91908101906151bc565b6001600160a01b03808816600090815260208181526040808320608080880151855290835292819020855181549086167fffffffffffffffffffffffff00000000000000000000000000000000000000009182161782559286015160018201559085015160028201556060850151600382015591840151600480840180549286169284169290921790915560a0850151600584018054919095169281168317855560c08601519394927fffffffffffffffffffffff0000000000000000000000000000000000000000009091161790600160a01b90849081111561292057634e487b7160e01b600052602160045260246000fd5b021790555060e082015180518051600684019161294291839160200190614c1d565b50602082810151805161295b9260018501920190614c1d565b506040828101516002830155606080840151600384015560808085015160048086019190915560a080870151600587015560c090960151600690950194909455610100878101518051600d890180546020808501517fffffffffffffffffffffff0000000000000000000000000000000000000000009283169415157fffffffffffffffffffffff0000000000000000000000000000000000000000ff16949094176001600160a01b039485169096029590951790915582870151600e8b015582860151600f8b01805485880151928516931692909217600160a01b911515919091021790559601516010880180547fffffffffffffffffffffffff00000000000000000000000000000000000000001691881691909117905561012088015180516011890155908101516012880155808401516013880155909101516014860155610140909501516015909401939093559284015191516317ba7d8560e01b81527fd3999c37f8f35da86f802a74f9bf032c4aeb46e49abd9c861f489ef4cb40d0a89381019390935288169163815a2bf4919083906317ba7d859060240160206040518083038186803b158015612b1257600080fd5b505afa158015612b26573d6000803e3d6000fd5b505050506040513d601f19601f82011682018060405250810190612b4a9190614f21565b6040517fffffffff0000000000000000000000000000000000000000000000000000000060e085901b16815260048101929092526001600160a01b03166024820152604401600060405180830381600087803b158015612ba957600080fd5b505af1158015612bbd573d6000803e3d6000fd5b5050505060808101516001600160a01b0387166000908152600360205260409020612c31918154600160801b90819004600f90810b80820b820b6000908152600180870160205260409091209490945584549301900b6fffffffffffffffffffffffffffffffff9081169091029116179055565b6080810151604080516001600160a01b038916815260208101929092527ffe22c13d0cc04eef2a813c30901da5f8cd64f5ba91866fccce71c606ce464874910160405180910390a150612c848282613452565b5050505050565b816000612c9782612e14565b6001600160a01b03851660008181526020818152604080832088845290915280822090516317ba7d8560e01b81527fde483f9dde6f6b12a62abdfd75010c5234f3ce7693a592507d331ec725f772576004820152939450929091906317ba7d859060240160206040518083038186803b158015612d1357600080fd5b505afa158015612d27573d6000803e3d6000fd5b505050506040513d601f19601f82011682018060405250810190612d4b9190614f21565b600d83015460058401546040517f7132e8a10000000000000000000000000000000000000000000000000000000081529293506001600160a01b0380851693637132e8a193612db5938c938c9361010090930416913391600160a01b900460ff16906004016156cd565b602060405180830381600087803b158015612dcf57600080fd5b505af1158015612de3573d6000803e3d6000fd5b505050506040513d601f19601f82011682018060405250810190612e079190615079565b505050610d678282613452565b6040805160808101825260008082526020820181905291810182905260608101919091525a81600001818152505043826001600160a01b031663b21634826040518163ffffffff1660e01b815260040160206040518083038186803b158015612e7c57600080fd5b505afa158015612e90573d6000803e3d6000fd5b505050506040513d601f19601f82011682018060405250810190612eb491906152d8565b1415612f025760405162461bcd60e51b815260206004820152601060248201527f7265656e7472616e63792067756172640000000000000000000000000000000060448201526064016102df565b816001600160a01b03166310fdb0a26040518163ffffffff1660e01b8152600401600060405180830381600087803b158015612f3d57600080fd5b505af1158015612f51573d6000803e3d6000fd5b50506040517f72c6838f0000000000000000000000000000000000000000000000000000000081527f1f2fd42ad6a6cacd573c4b212beb7a4e2499ad45d742a65337097f130e71daff6004820152600092506001600160a01b03851691506372c6838f9060240160206040518083038186803b158015612fd057600080fd5b505afa158015612fe4573d6000803e3d6000fd5b505050506040513d601f19601f820116820180604052508101906130089190614f21565b90506001600160a01b03811661302457600060208301526130d9565b6001600160a01b038181166060840181905283516040517f43a8a3f1000000000000000000000000000000000000000000000000000000008152928616600484015260248301526000918291906343a8a3f190604401604080518083038186803b15801561309157600080fd5b505afa1580156130a5573d6000803e3d6000fd5b505050506040513d601f19601f820116820180604052508101906130c99190615095565b9015156020860152604085015250505b50919050565b6040517fa230c5240000000000000000000000000000000000000000000000000000000081526001600160a01b03828116600483015283169063a230c5249060240160206040518083038186803b15801561313957600080fd5b505afa15801561314d573d6000803e3d6000fd5b505050506040513d601f19601f820116820180604052508101906131719190615079565b6131bd5760405162461bcd60e51b815260206004820152600c60248201527f6f6e6c79476f7665726e6f72000000000000000000000000000000000000000060448201526064016102df565b5050565b60006131e08254600f81810b810b600160801b909204810b900b131590565b15613217576040517f3db2a12a00000000000000000000000000000000000000000000000000000000815260040160405180910390fd5b508054600f90810b810b900b60009081526001909101602052604090205490565b60006132578254600f81810b810b600160801b909204810b900b131590565b1561328e576040517f3db2a12a00000000000000000000000000000000000000000000000000000000815260040160405180910390fd5b508054600f90810b80820b820b600090815260018085016020526040822080549290558454920190920b6fffffffffffffffffffffffffffffffff167fffffffffffffffffffffffffffffffff000000000000000000000000000000009091161790915590565b6040516317ba7d8560e01b81527fde483f9dde6f6b12a62abdfd75010c5234f3ce7693a592507d331ec725f77257600482015260009081906001600160a01b038816906317ba7d859060240160206040518083038186803b15801561335957600080fd5b505afa15801561336d573d6000803e3d6000fd5b505050506040513d601f19601f820116820180604052508101906133919190614f21565b6040517fd705e0cd000000000000000000000000000000000000000000000000000000008152600481018690526001600160a01b03898116602483015288811660448301528781166064830152608482018690529192509082169063d705e0cd9060a401602060405180830381600087803b15801561340f57600080fd5b505af1158015613423573d6000803e3d6000fd5b505050506040513d601f19601f820116820180604052508101906134479190615079565b979650505050505050565b6131bd828233613b73565b6000816001600160a01b03166348f7f2a36040518163ffffffff1660e01b815260040160206040518083038186803b15801561349857600080fd5b505afa1580156134ac573d6000803e3d6000fd5b505050506040513d601f19601f820116820180604052508101906134d09190614f21565b6001600160a01b0316638da5cb5b6040518163ffffffff1660e01b815260040160206040518083038186803b15801561350857600080fd5b505afa15801561351c573d6000803e3d6000fd5b505050506040513d601f19601f82011682018060405250810190610dc09190614f21565b600080836001600160a01b031663a6f636416040518163ffffffff1660e01b815260040160006040518083038186803b15801561357c57600080fd5b505afa158015613590573d6000803e3d6000fd5b505050506040513d6000823e601f3d908101601f191682016040526135b89190810190614fa9565b6040516317ba7d8560e01b81527fd3999c37f8f35da86f802a74f9bf032c4aeb46e49abd9c861f489ef4cb40d0a8600482015290915060009081906001600160a01b038716906317ba7d859060240160206040518083038186803b15801561361f57600080fd5b505afa158015613633573d6000803e3d6000fd5b505050506040513d601f19601f820116820180604052508101906136579190614f21565b905060005b83518160ff16101561386157816001600160a01b03166324a2cceb8888878560ff168151811061369c57634e487b7160e01b600052603260045260246000fd5b60200260200101516040518463ffffffff1660e01b81526004016136e0939291906001600160a01b0393841681526020810192909252909116604082015260600190565b60206040518083038186803b1580156136f857600080fd5b505afa15801561370c573d6000803e3d6000fd5b505050506040513d601f19601f820116820180604052508101906137309190615079565b1561380e57816001600160a01b03166391d2fd538888878560ff168151811061376957634e487b7160e01b600052603260045260246000fd5b60200260200101516040518463ffffffff1660e01b81526004016137ad939291906001600160a01b0393841681526020810192909252909116604082015260600190565b60206040518083038186803b1580156137c557600080fd5b505afa1580156137d9573d6000803e3d6000fd5b505050506040513d601f19601f820116820180604052508101906137fd91906152be565b61380790846159fc565b925061384f565b61384287858360ff168151811061383557634e487b7160e01b600052603260045260246000fd5b6020026020010151613c64565b61384c90846159fc565b92505b8061385981615b0e565b91505061365c565b509095945050505050565b6040516317ba7d8560e01b81527f99d271900d627893bad1d8649a7d7eb3501c339595ec52be94d222433d75560360048201526000906001600160a01b038416906317ba7d859060240160206040518083038186803b1580156138ce57600080fd5b505afa1580156138e2573d6000803e3d6000fd5b505050506040513d601f19601f820116820180604052508101906139069190614f21565b6001600160a01b03808516600090815260208181526040808320878452825291829020825160c081018452600e8201548152600882015492810192909252600981015482840152600a8101546060830152600b8101546080830152600c81015460a0830152600d810154600582015493517f24d1669d00000000000000000000000000000000000000000000000000000000815295965090949193808716936324d1669d936139c8938b9361010090910481169216908a9088906004016155fa565b600060405180830381600087803b1580156139e257600080fd5b505af11580156139f6573d6000803e3d6000fd5b505050505050505050565b606081613a4157505060408051808201909152600181527f3000000000000000000000000000000000000000000000000000000000000000602082015290565b8160005b8115613a6b5780613a5581615af3565b9150613a649050600a83615a48565b9150613a45565b60008167ffffffffffffffff811115613a9457634e487b7160e01b600052604160045260246000fd5b6040519080825280601f01601f191660200182016040528015613abe576020820181803683370190505b5090505b8415613b4f57613ad3600183615a7b565b9150613ae0600a86615b2e565b613aeb906030615a30565b60f81b818381518110613b0e57634e487b7160e01b600052603260045260246000fd5b60200101907effffffffffffffffffffffffffffffffffffffffffffffffffffffffffffff1916908160001a905350613b48600a86615a48565b9450613ac2565b949350505050565b6000815160001415613b6b57506000919050565b506020015190565b816020015115613c295781606001516001600160a01b0316635e5eb01384835a8651613b9f9190615a7b565b60408088015190517fffffffff0000000000000000000000000000000000000000000000000000000060e087901b1681526001600160a01b03948516600482015293909216602484015260448301526064820152608401600060405180830381600087803b158015613c1057600080fd5b505af1158015613c24573d6000803e3d6000fd5b505050505b826001600160a01b031663d4f7af436040518163ffffffff1660e01b8152600401600060405180830381600087803b158015610f7157600080fd5b6040516317ba7d8560e01b81527faaff643bdbd909f604d46ce015336f7e20fee3ac4a55cef3610188dee176c892600482015260009081906001600160a01b038516906317ba7d859060240160206040518083038186803b158015613cc857600080fd5b505afa158015613cdc573d6000803e3d6000fd5b505050506040513d601f19601f82011682018060405250810190613d009190614f21565b6040516317ba7d8560e01b81527fa837e34a29b67bf52f684a1c93def79b84b9c012732becee4e5df62809df64ed60048201529091506000906001600160a01b038616906317ba7d859060240160206040518083038186803b158015613d6557600080fd5b505afa158015613d79573d6000803e3d6000fd5b505050506040513d601f19601f82011682018060405250810190613d9d9190614f21565b6040516317ba7d8560e01b81527f1fa6846b165d822fff79e37c67625706652fa9380c2aa49fd513ce534cc72ed460048201529091506000906001600160a01b038716906317ba7d859060240160206040518083038186803b158015613e0257600080fd5b505afa158015613e16573d6000803e3d6000fd5b505050506040513d601f19601f82011682018060405250810190613e3a9190614f21565b604051634941d71d60e11b81527f686efe7bd1699b408d306db6bbee658ed667971c52d48d6912d7ee496e36e62760048201529091506000906001600160a01b03881690639283ae3a9060240160206040518083038186803b158015613e9f57600080fd5b505afa158015613eb3573d6000803e3d6000fd5b505050506040513d601f19601f82011682018060405250810190613ed791906152d8565b604051634941d71d60e11b81527fb75eae231d9582c6afc6491273df4a0ffbccd48ab2c48dbce59e5d68f2d19dc460048201529091506000906001600160a01b03891690639283ae3a9060240160206040518083038186803b158015613f3c57600080fd5b505afa158015613f50573d6000803e3d6000fd5b505050506040513d601f19601f82011682018060405250810190613f7491906152d8565b604051634941d71d60e11b81527e634460a4b60c2e1bf8c87bfc42b6b68fd2a71f4bb2d760816eabc5038b503660048201529091506000906001600160a01b038a1690639283ae3a9060240160206040518083038186803b158015613fd857600080fd5b505afa158015613fec573d6000803e3d6000fd5b505050506040513d601f19601f8201168201806040525081019061401091906152d8565b6040517ffd310d290000000000000000000000000000000000000000000000000000000081527fcd9b30ab6388c165d825b60b7d393528191ba59d975b4b1b52b7184b63b8a97c60048201529091506000906001600160a01b038b169063fd310d299060240160206040518083038186803b15801561408e57600080fd5b505afa1580156140a2573d6000803e3d6000fd5b505050506040513d601f19601f820116820180604052508101906140c69190614f21565b905082600114156145415760008461416e576040516370a0823160e01b81526001600160a01b038b81166004830152670de0b6b3a764000091908416906370a08231906024015b60206040518083038186803b15801561412557600080fd5b505afa158015614139573d6000803e3d6000fd5b505050506040513d601f19601f8201168201806040525081019061415d91906152d8565b6141679190615a48565b90506144d2565b84600114156141f1576040516370a0823160e01b81526001600160a01b038b811660048301528316906370a08231906024015b60206040518083038186803b1580156141b957600080fd5b505afa1580156141cd573d6000803e3d6000fd5b505050506040513d601f19601f8201168201806040525081019061416791906152d8565b846002141561422d57604051627eeac760e11b81526001600160a01b038b811660048301526024820185905283169062fdd58e906044016141a1565b846003141561426c576040516329b6517360e21b81526001600160a01b038c811660048301528b8116602483015287169063a6d945cc906044016141a1565b84600414156144c15760026040517f1ee1a2b00000000000000000000000000000000000000000000000000000000081526001600160a01b038d811660048301528a1690631ee1a2b09060240160206040518083038186803b1580156142d157600080fd5b505afa1580156142e5573d6000803e3d6000fd5b505050506040513d601f19601f820116820180604052508101906143099190615156565b600381111561432857634e487b7160e01b600052602160045260246000fd5b1480156143ca5750604051634941d71d60e11b81527f9ce69cf04065e3c7823cc5540c0598d8a694bd7a9a5a2a786d8bccf14ed6e2ea60048201526001600160a01b038c1690639283ae3a9060240160206040518083038186803b15801561438f57600080fd5b505afa1580156143a3573d6000803e3d6000fd5b505050506040513d601f19601f820116820180604052508101906143c791906152d8565b42105b801561446a57506040517f4fc0a76d0000000000000000000000000000000000000000000000000000000081526001600160a01b038c8116600483015260019190891690634fc0a76d9060240160206040518083038186803b15801561442f57600080fd5b505afa158015614443573d6000803e3d6000fd5b505050506040513d601f19601f8201168201806040525081019061446791906152d8565b10155b156144b057604051633de222bb60e21b81526001600160a01b038c811660048301528b81166024830152670de0b6b3a764000091908a169063f7888aec9060440161410d565b600198505050505050505050610dc0565b600098505050505050505050610dc0565b600081116144eb57600098505050505050505050610dc0565b677fffffffffffffff811061450b57603298505050505050505050610dc0565b600061452661452161451c84614aec565b614b0a565b614c01565b67ffffffffffffffff169950610dc098505050505050505050565b82600214156146f8576000846145e8576040516370a0823160e01b81526001600160a01b038b81166004830152600091908416906370a08231906024015b60206040518083038186803b15801561459757600080fd5b505afa1580156145ab573d6000803e3d6000fd5b505050506040513d601f19601f820116820180604052508101906145cf91906152d8565b116145db5760006145de565b60015b60ff1690506146e9565b8460011415614623576040516370a0823160e01b81526001600160a01b038b81166004830152600091908416906370a082319060240161457f565b846002141561466357604051627eeac760e11b81526001600160a01b038b81166004830152602482018590526000919084169062fdd58e9060440161457f565b84600314156146a6576040516329b6517360e21b81526001600160a01b038c811660048301528b811660248301526000919088169063a6d945cc9060440161457f565b84600414156144c157604051633de222bb60e21b81526001600160a01b038c811660048301528b81166024830152600091908a169063f7888aec9060440161457f565b9750610dc09650505050505050565b82614adc5760008461479a576040516370a0823160e01b81526001600160a01b038b81166004830152670de0b6b3a764000091908416906370a08231906024015b60206040518083038186803b15801561475157600080fd5b505afa158015614765573d6000803e3d6000fd5b505050506040513d601f19601f8201168201806040525081019061478991906152d8565b6147939190615a48565b90506146e9565b846001141561481d576040516370a0823160e01b81526001600160a01b038b811660048301528316906370a08231906024015b60206040518083038186803b1580156147e557600080fd5b505afa1580156147f9573d6000803e3d6000fd5b505050506040513d601f19601f8201168201806040525081019061479391906152d8565b846002141561485957604051627eeac760e11b81526001600160a01b038b811660048301526024820185905283169062fdd58e906044016147cd565b8460031415614898576040516329b6517360e21b81526001600160a01b038c811660048301528b8116602483015287169063a6d945cc906044016147cd565b84600414156144c15760026040517f1ee1a2b00000000000000000000000000000000000000000000000000000000081526001600160a01b038d811660048301528a1690631ee1a2b09060240160206040518083038186803b1580156148fd57600080fd5b505afa158015614911573d6000803e3d6000fd5b505050506040513d601f19601f820116820180604052508101906149359190615156565b600381111561495457634e487b7160e01b600052602160045260246000fd5b1480156149f65750604051634941d71d60e11b81527f9ce69cf04065e3c7823cc5540c0598d8a694bd7a9a5a2a786d8bccf14ed6e2ea60048201526001600160a01b038c1690639283ae3a9060240160206040518083038186803b1580156149bb57600080fd5b505afa1580156149cf573d6000803e3d6000fd5b505050506040513d601f19601f820116820180604052508101906149f391906152d8565b42105b8015614a9657506040517f4fc0a76d0000000000000000000000000000000000000000000000000000000081526001600160a01b038c8116600483015260019190891690634fc0a76d9060240160206040518083038186803b158015614a5b57600080fd5b505afa158015614a6f573d6000803e3d6000fd5b505050506040513d601f19601f82011682018060405250810190614a9391906152d8565b10155b156144b057604051633de222bb60e21b81526001600160a01b038c811660048301528b81166024830152670de0b6b3a764000091908a169063f7888aec90604401614739565b6000975050505050505050610dc0565b6000677fffffffffffffff821115614b0357600080fd5b5060401b90565b60008082600f0b13614b1b57600080fd5b6000600f83900b680100000000000000008112614b3a576040918201911d5b6401000000008112614b4e576020918201911d5b620100008112614b60576010918201911d5b6101008112614b71576008918201911d5b60108112614b81576004918201911d5b60048112614b91576002918201911d5b60028112614ba0576001820191505b7fffffffffffffffffffffffffffffffffffffffffffffffffffffffffffffffc0820160401b600f85900b607f8490031b6780000000000000005b60008113156138615790800260ff81901c8281029390930192607f011c9060011d614bdb565b60008082600f0b1215614c1357600080fd5b50600f0b60401d90565b828054614c2990615abe565b90600052602060002090601f016020900481019282614c4b5760008555614c91565b82601f10614c6457805160ff1916838001178555614c91565b82800160010185558215614c91579182015b82811115614c91578251825591602001919060010190614c76565b50614c9d929150614ca1565b5090565b5b80821115614c9d5760008155600101614ca2565b8051610dce81615b84565b805160058110610dce57600080fd5b600082601f830112614ce0578081fd5b815167ffffffffffffffff811115614cfa57614cfa615b6e565b614d0d6020601f19601f840116016159cb565b818152846020838601011115614d21578283fd5b613b4f826020830160208701615a92565b600060c08284031215614d43578081fd5b60405160c0810181811067ffffffffffffffff82111715614d6657614d66615b6e565b80604052508091508251614d7981615b9c565b81526020830151614d8981615b84565b6020820152604083810151908201526060830151614da681615b84565b60608201526080830151614db981615b9c565b608082015260a0830151614dcc81615b84565b60a0919091015292915050565b600060808284031215614dea578081fd5b6040516080810181811067ffffffffffffffff82111715614e0d57614e0d615b6e565b8060405250809150825181526020830151602082015260408301516040820152606083015160608201525092915050565b600060e08284031215614e4f578081fd5b614e5761597e565b9050815167ffffffffffffffff80821115614e7157600080fd5b614e7d85838601614cd0565b83526020840151915080821115614e9357600080fd5b50614ea084828501614cd0565b60208301525060408201516040820152606082015160608201526080820151608082015260a082015160a082015260c082015160c082015292915050565b80516fffffffffffffffffffffffffffffffff81168114610dce57600080fd5b600060208284031215614f0f578081fd5b8135614f1a81615b84565b9392505050565b600060208284031215614f32578081fd5b8151614f1a81615b84565b60008060408385031215614f4f578081fd5b8235614f5a81615b84565b946020939093013593505050565b600080600060608486031215614f7c578081fd5b8335614f8781615b84565b9250602084013591506040840135614f9e81615b84565b809150509250925092565b60006020808385031215614fbb578182fd5b825167ffffffffffffffff80821115614fd2578384fd5b818501915085601f830112614fe5578384fd5b815181811115614ff757614ff7615b6e565b8060051b91506150088483016159cb565b8181528481019084860184860187018a1015615022578788fd5b8795505b83861015615050578051945061503b85615b84565b84835260019590950194918601918601615026565b5098975050505050505050565b60006020828403121561506e578081fd5b8135614f1a81615b9c565b60006020828403121561508a578081fd5b8151614f1a81615b9c565b600080604083850312156150a7578182fd5b82516150b281615b9c565b6020939093015192949293505050565b600080604083850312156150d4578182fd5b82356150df81615b84565b915060208301356150ef81615b84565b809150509250929050565b60008060408385031215614f4f578182fd5b6000806040838503121561511e578182fd5b823561512981615b84565b9150602083013567ffffffffffffffff811115615144578182fd5b830161016081860312156150ef578182fd5b600060208284031215615167578081fd5b815160048110614f1a578182fd5b600080600060608486031215615189578081fd5b835160068110615197578182fd5b92506151a560208501614ede565b91506151b360408501614ede565b90509250925092565b6000602082840312156151cd578081fd5b815167ffffffffffffffff808211156151e4578283fd5b9083019061026082860312156151f8578283fd5b6152006159a7565b61520983614cb6565b815260208301516020820152604083015160408201526060830151606082015261523560808401614cb6565b608082015261524660a08401614cb6565b60a082015261525760c08401614cc1565b60c082015260e08301518281111561526d578485fd5b61527987828601614e3e565b60e083015250610100915061529086838501614d32565b828201526152a2866101c08501614dd9565b6101208201526102409290920151610140830152509392505050565b6000602082840312156152cf578081fd5b614f1a82614ede565b6000602082840312156152e9578081fd5b5051919050565b8060005b6006811015610d675781516001600160a01b03168452602093840193909101906001016152f4565b8060005b600b811015610d67578151845260209384019390910190600101615320565b60008151808452615357816020860160208601615a92565b601f01601f19169290920160200192915050565b6005811061538957634e487b7160e01b600052602160045260246000fd5b9052565b8183528181602085013750600080602083850101526020601f19601f840116840101905092915050565b6000815160e084526153cc60e085018261533f565b9050602083015184820360208601526153e5828261533f565b91505060408301516040850152606083015160608501526080830151608085015260a083015160a085015260c083015160c08501528091505092915050565b7fffffffffffffffff000000000000000000000000000000000000000000000000841681526000835161545e816008850160208801615a92565b835190830190615475816008840160208801615a92565b0160080195945050505050565b600060c082016001600160a01b03808a168452602089818601526fffffffffffffffffffffffffffffffff808a166040870152808916606087015280881660808701525060c060a086015282865180855260e0870191508288019450855b818110156154fe5785518516835294830194918301916001016154e0565b50909c9b505050505050505050505050565b60006102606001600160a01b03808f1684528d60208501528c60408501528b6060850152808b166080850152808a1660a08501525061555260c084018961536b565b8060e0840152615564818401886153b7565b8651151561010085015260208701516001600160a01b039081166101208601526040880151610140860152606088015181166101608601526080880151151561018086015260a0880151166101a085015291506155be9050565b83516101c083015260208401516101e0830152604084015161020083015260609093015161022082015261024001529998505050505050505050565b6000610140820190506001600160a01b03808816835260208188168185015281871660408501528560608501526080840191508460005b600681101561564e57815184529282019290820190600101615631565b505050509695505050505050565b6001600160a01b03848116825261010082019060208084018660005b6003811015615697578151851683529183019190830190600101615678565b5050506080840191508460005b60048110156156c1578151845292820192908201906001016156a4565b50505050949350505050565b6001600160a01b0386811682526020820186905284811660408301528316606082015260a08101615701608083018461536b565b9695505050505050565b6001600160a01b0385168152836020820152826040820152608060608201526000615701608083018461533f565b60006102e08083526157568184018e516001600160a01b03169052565b5060208c015161030083015260408c015161032083015260608c015161034083015260808c01516001600160a01b0390811661036084015260a08d01511661038083015260c08c01516157ad6103a084018261536b565b5060e08c0151610260806103c08501526157cb6105408501836153b7565b6101008f0151805115156103e087015260208101516001600160a01b039081166104008801526040820151610420880152606082015181166104408801526080820151151561046088015260a082015116610480870152909250506101208e015180516104a086015260208101516104c086015260408101516104e08601526060810151610500860152506101408e01516105208501526001600160a01b038d16602085015261587e604085018d61531c565b61588c6101a085018c6152f0565b891515908401528715156102808401528281036102a08401526158b081878961538d565b90508281036102c08401526158c681858761538d565b9d9c50505050505050505050505050565b60008083357fffffffffffffffffffffffffffffffffffffffffffffffffffffffffffffffe184360301811261590b578283fd5b83018035915067ffffffffffffffff821115615925578283fd5b60200191503681900382131561593a57600080fd5b9250929050565b600082357fffffffffffffffffffffffffffffffffffffffffffffffffffffffffffffff21833603018112615974578182fd5b9190910192915050565b60405160e0810167ffffffffffffffff811182821017156159a1576159a1615b6e565b60405290565b604051610160810167ffffffffffffffff811182821017156159a1576159a1615b6e565b604051601f8201601f1916810167ffffffffffffffff811182821017156159f4576159f4615b6e565b604052919050565b60006fffffffffffffffffffffffffffffffff808316818516808303821115615a2757615a27615b42565b01949350505050565b60008219821115615a4357615a43615b42565b500190565b600082615a5757615a57615b58565b500490565b6000816000190483118215151615615a7657615a76615b42565b500290565b600082821015615a8d57615a8d615b42565b500390565b60005b83811015615aad578181015183820152602001615a95565b83811115610d675750506000910152565b600181811c90821680615ad257607f821691505b602082108114156130d957634e487b7160e01b600052602260045260246000fd5b6000600019821415615b0757615b07615b42565b5060010190565b600060ff821660ff811415615b2557615b25615b42565b60010192915050565b600082615b3d57615b3d615b58565b500690565b634e487b7160e01b600052601160045260246000fd5b634e487b7160e01b600052601260045260246000fd5b634e487b7160e01b600052604160045260246000fd5b6001600160a01b0381168114615b9957600080fd5b50565b8015158114615b9957600080fdfea2646970667358221220a459c62e94a76c47c2e78e13eb263880298b1bd66b3694dd864142c12e8efbd764736f6c63430008040033",
  "linkReferences": {
    "contracts/vintage/libraries/fundingLibrary.sol": {
      "InvestmentLibrary": [
        {
          "length": 20,
          "start": 9829
        }
      ]
    }
  },
  "deployedLinkReferences": {
    "contracts/vintage/libraries/fundingLibrary.sol": {
      "InvestmentLibrary": [
        {
          "length": 20,
          "start": 9758
        }
      ]
    }
  }
}