{
  "_format": "hh-sol-artifact-1",
  "contractName": "VintageFundingPoolAdapterContract",
  "sourceName": "contracts/vintage/adapters/VintageFundingPoolAdapter.sol",
  "abi": [
    {
      "inputs": [],
      "name": "ACCESS_DENIED",
      "type": "error"
    },
    {
      "inputs": [],
      "name": "ERC1155_REQUIRMENT",
      "type": "error"
    },
    {
      "inputs": [],
      "name": "ERC20_REQUIRMENT",
      "type": "error"
    },
    {
      "inputs": [],
      "name": "ERC721_REQUIRMENT",
      "type": "error"
    },
    {
      "inputs": [],
      "name": "GREATER_THAN_MAX_DEPOSIT_AMOUNT",
      "type": "error"
    },
    {
      "inputs": [],
      "name": "GREATER_THAN_MAX_FUND_RAISING_AMOUNT",
      "type": "error"
    },
    {
      "inputs": [],
      "name": "INSUFFICIENT_ALLOWANCE",
      "type": "error"
    },
    {
      "inputs": [],
      "name": "INSUFFICIENT_BALANCE",
      "type": "error"
    },
    {
      "inputs": [],
      "name": "INVALID_AMOUNT",
      "type": "error"
    },
    {
      "inputs": [],
      "name": "LESS_THAN_MIN_DEPOSIT_AMOUNT",
      "type": "error"
    },
    {
      "inputs": [],
      "name": "MAX_PATICIPANT_AMOUNT_REACH",
      "type": "error"
    },
    {
      "inputs": [],
      "name": "NOT_IN_FUND_RAISING_WINDOW",
      "type": "error"
    },
    {
      "inputs": [],
      "name": "NOT_NOW",
      "type": "error"
    },
    {
      "inputs": [],
      "name": "WHITELIST_REQUIRMENT",
      "type": "error"
    },
    {
      "anonymous": false,
      "inputs": [
        {
          "indexed": false,
          "internalType": "address",
          "name": "dao",
          "type": "address"
        },
        {
          "indexed": false,
          "internalType": "uint256",
          "name": "amount",
          "type": "uint256"
        },
        {
          "indexed": false,
          "internalType": "address",
          "name": "executor",
          "type": "address"
        }
      ],
      "name": "ClearFund",
      "type": "event"
    },
    {
      "anonymous": false,
      "inputs": [
        {
          "indexed": false,
          "internalType": "address",
          "name": "daoAddress",
          "type": "address"
        },
        {
          "indexed": false,
          "internalType": "uint256",
          "name": "amount",
          "type": "uint256"
        },
        {
          "indexed": false,
          "internalType": "address",
          "name": "account",
          "type": "address"
        }
      ],
      "name": "Deposit",
      "type": "event"
    },
    {
      "anonymous": false,
      "inputs": [
        {
          "indexed": false,
          "internalType": "address",
          "name": "dao",
          "type": "address"
        },
        {
          "indexed": false,
          "internalType": "uint256",
          "name": "fundRound",
          "type": "uint256"
        },
        {
          "indexed": false,
          "internalType": "uint256",
          "name": "fundRaiseState",
          "type": "uint256"
        },
        {
          "indexed": false,
          "internalType": "uint256",
          "name": "fundRaisedAmount",
          "type": "uint256"
        }
      ],
      "name": "ProcessFundRaise",
      "type": "event"
    },
    {
      "anonymous": false,
      "inputs": [
        {
          "indexed": false,
          "internalType": "address",
          "name": "dao",
          "type": "address"
        },
        {
          "indexed": false,
          "internalType": "address",
          "name": "account",
          "type": "address"
        },
        {
          "indexed": false,
          "internalType": "uint256",
          "name": "redempAmount",
          "type": "uint256"
        },
        {
          "indexed": false,
          "internalType": "uint256",
          "name": "redemptionFee",
          "type": "uint256"
        }
      ],
      "name": "RedeptionFeeCharged",
      "type": "event"
    },
    {
      "anonymous": false,
      "inputs": [
        {
          "indexed": false,
          "internalType": "address",
          "name": "daoAddress",
          "type": "address"
        },
        {
          "indexed": false,
          "internalType": "uint256",
          "name": "amount",
          "type": "uint256"
        },
        {
          "indexed": false,
          "internalType": "address",
          "name": "account",
          "type": "address"
        }
      ],
      "name": "WithDraw",
      "type": "event"
    },
    {
      "inputs": [
        {
          "internalType": "contract DaoRegistry",
          "name": "dao",
          "type": "address"
        },
        {
          "internalType": "address",
          "name": "investorAddr",
          "type": "address"
        }
      ],
      "name": "balanceOf",
      "outputs": [
        {
          "internalType": "uint256",
          "name": "",
          "type": "uint256"
        }
      ],
      "stateMutability": "view",
      "type": "function"
    },
    {
      "inputs": [
        {
          "internalType": "contract DaoRegistry",
          "name": "dao",
          "type": "address"
        }
      ],
      "name": "clearFund",
      "outputs": [],
      "stateMutability": "nonpayable",
      "type": "function"
    },
    {
      "inputs": [
        {
          "internalType": "contract DaoRegistry",
          "name": "dao",
          "type": "address"
        }
      ],
      "name": "clearInvestorWhitelist",
      "outputs": [],
      "stateMutability": "nonpayable",
      "type": "function"
    },
    {
      "inputs": [
        {
          "internalType": "address",
          "name": "",
          "type": "address"
        }
      ],
      "name": "daoFundRaisingStates",
      "outputs": [
        {
          "internalType": "enum DaoHelper.FundRaiseState",
          "name": "",
          "type": "uint8"
        }
      ],
      "stateMutability": "view",
      "type": "function"
    },
    {
      "inputs": [
        {
          "internalType": "contract DaoRegistry",
          "name": "dao",
          "type": "address"
        },
        {
          "internalType": "uint256",
          "name": "amount",
          "type": "uint256"
        }
      ],
      "name": "deposit",
      "outputs": [],
      "stateMutability": "nonpayable",
      "type": "function"
    },
    {
      "inputs": [
        {
          "internalType": "address",
          "name": "",
          "type": "address"
        },
        {
          "internalType": "bytes32",
          "name": "",
          "type": "bytes32"
        },
        {
          "internalType": "address",
          "name": "",
          "type": "address"
        }
      ],
      "name": "depositInFundRaising",
      "outputs": [
        {
          "internalType": "uint256",
          "name": "",
          "type": "uint256"
        }
      ],
      "stateMutability": "view",
      "type": "function"
    },
    {
      "inputs": [
        {
          "internalType": "address",
          "name": "",
          "type": "address"
        },
        {
          "internalType": "bytes32",
          "name": "",
          "type": "bytes32"
        }
      ],
      "name": "freeINPriorityDeposits",
      "outputs": [
        {
          "internalType": "uint256",
          "name": "",
          "type": "uint256"
        }
      ],
      "stateMutability": "view",
      "type": "function"
    },
    {
      "inputs": [
        {
          "internalType": "address",
          "name": "",
          "type": "address"
        },
        {
          "internalType": "bytes32",
          "name": "",
          "type": "bytes32"
        }
      ],
      "name": "fundRaisingByFundRaisePId",
      "outputs": [
        {
          "internalType": "uint256",
          "name": "",
          "type": "uint256"
        }
      ],
      "stateMutability": "view",
      "type": "function"
    },
    {
      "inputs": [
        {
          "internalType": "contract DaoRegistry",
          "name": "dao",
          "type": "address"
        },
        {
          "internalType": "uint256",
          "name": "fundRound",
          "type": "uint256"
        }
      ],
      "name": "getFundInvestors",
      "outputs": [
        {
          "internalType": "address[]",
          "name": "",
          "type": "address[]"
        }
      ],
      "stateMutability": "view",
      "type": "function"
    },
    {
      "inputs": [
        {
          "internalType": "contract DaoRegistry",
          "name": "dao",
          "type": "address"
        }
      ],
      "name": "getInvestorMembershipWhiteList",
      "outputs": [
        {
          "internalType": "address[]",
          "name": "",
          "type": "address[]"
        }
      ],
      "stateMutability": "view",
      "type": "function"
    },
    {
      "inputs": [
        {
          "internalType": "contract DaoRegistry",
          "name": "dao",
          "type": "address"
        }
      ],
      "name": "governorBalance",
      "outputs": [
        {
          "internalType": "uint256",
          "name": "",
          "type": "uint256"
        }
      ],
      "stateMutability": "view",
      "type": "function"
    },
    {
      "inputs": [
        {
          "internalType": "contract DaoRegistry",
          "name": "dao",
          "type": "address"
        },
        {
          "internalType": "address",
          "name": "account",
          "type": "address"
        }
      ],
      "name": "ifInvestorMembershipWhiteList",
      "outputs": [
        {
          "internalType": "bool",
          "name": "",
          "type": "bool"
        }
      ],
      "stateMutability": "view",
      "type": "function"
    },
    {
      "inputs": [
        {
          "internalType": "contract DaoRegistry",
          "name": "dao",
          "type": "address"
        },
        {
          "internalType": "address",
          "name": "_addr",
          "type": "address"
        }
      ],
      "name": "isActiveMember",
      "outputs": [
        {
          "internalType": "bool",
          "name": "",
          "type": "bool"
        }
      ],
      "stateMutability": "view",
      "type": "function"
    },
    {
      "inputs": [
        {
          "internalType": "contract DaoRegistry",
          "name": "dao",
          "type": "address"
        }
      ],
      "name": "poolBalance",
      "outputs": [
        {
          "internalType": "uint256",
          "name": "",
          "type": "uint256"
        }
      ],
      "stateMutability": "view",
      "type": "function"
    },
    {
      "inputs": [
        {
          "internalType": "address",
          "name": "",
          "type": "address"
        },
        {
          "internalType": "bytes32",
          "name": "",
          "type": "bytes32"
        },
        {
          "internalType": "address",
          "name": "",
          "type": "address"
        }
      ],
      "name": "priorityDepositers",
      "outputs": [
        {
          "internalType": "bool",
          "name": "",
          "type": "bool"
        }
      ],
      "stateMutability": "view",
      "type": "function"
    },
    {
      "inputs": [
        {
          "internalType": "contract DaoRegistry",
          "name": "dao",
          "type": "address"
        }
      ],
      "name": "processFundRaise",
      "outputs": [
        {
          "internalType": "bool",
          "name": "",
          "type": "bool"
        }
      ],
      "stateMutability": "nonpayable",
      "type": "function"
    },
    {
      "inputs": [],
      "name": "protocolFee",
      "outputs": [
        {
          "internalType": "uint256",
          "name": "",
          "type": "uint256"
        }
      ],
      "stateMutability": "view",
      "type": "function"
    },
    {
      "inputs": [
        {
          "internalType": "contract DaoRegistry",
          "name": "dao",
          "type": "address"
        },
        {
          "internalType": "address",
          "name": "account",
          "type": "address"
        }
      ],
      "name": "registerInvestorWhiteList",
      "outputs": [],
      "stateMutability": "nonpayable",
      "type": "function"
    },
    {
      "inputs": [
        {
          "internalType": "contract DaoRegistry",
          "name": "dao",
          "type": "address"
        }
      ],
      "name": "resetFundRaiseState",
      "outputs": [],
      "stateMutability": "nonpayable",
      "type": "function"
    },
    {
      "inputs": [
        {
          "internalType": "contract DaoRegistry",
          "name": "dao",
          "type": "address"
        },
        {
          "internalType": "uint256",
          "name": "feeProtocol",
          "type": "uint256"
        }
      ],
      "name": "setProtocolFee",
      "outputs": [],
      "stateMutability": "nonpayable",
      "type": "function"
    },
    {
      "inputs": [
        {
          "internalType": "contract DaoRegistry",
          "name": "dao",
          "type": "address"
        },
        {
          "internalType": "uint256",
          "name": "amount",
          "type": "uint256"
        }
      ],
      "name": "withdraw",
      "outputs": [],
      "stateMutability": "nonpayable",
      "type": "function"
    }
  ],
  "bytecode": "0x6080604052660aa87bee53800060075534801561001b57600080fd5b50615c8d806200002c6000396000f3fe608060405234801561001057600080fd5b50600436106101775760003560e01c80638ecf7720116100d8578063b0e21e8a1161008c578063f3fef3a311610066578063f3fef3a31461038a578063f7888aec1461039d578063ff8bb0d0146103b057600080fd5b8063b0e21e8a1461035b578063b5b3ca2c14610364578063f10e6b6b1461037757600080fd5b8063a5e34110116100bd578063a5e341101461030a578063aa3c06461461031d578063ac7e7eba1461034857600080fd5b80638ecf7720146102e457806396609c42146102f757600080fd5b80635e1d06061161012f57806368abb5e01161011457806368abb5e01461029357806383cffffe146102a6578063861f6752146102b957600080fd5b80635e1d06061461023c57806368395f3f1461028057600080fd5b80633e1d6ed8116101605780633e1d6ed8146101d557806347e7ef24146101e857806351ab6797146101fd57600080fd5b80631d729e611461017c5780631ee1a2b0146101a5575b600080fd5b61018f61018a3660046158c1565b6103c3565b60405161019c9190615af2565b60405180910390f35b6101c86101b33660046158c1565b60006020819052908152604090205460ff1681565b60405161019c9190615b3f565b61018f6101e3366004615ac1565b6103ed565b6101fb6101f6366004615ac1565b610423565b005b61022e61020b366004615924565b600560209081526000938452604080852082529284528284209052825290205481565b60405190815260200161019c565b61027061024a366004615924565b600460209081526000938452604080852082529284528284209052825290205460ff1681565b604051901515815260200161019c565b61027061028e366004615a89565b6119d8565b61022e6102a13660046158c1565b6119fa565b6101fb6102b43660046158c1565b611b10565b61022e6102c73660046158f9565b600360209081526000928352604080842090915290825290205481565b6102706102f2366004615a89565b612506565b6102706103053660046158c1565b61259c565b61022e6103183660046158c1565b612cb0565b61022e61032b3660046158f9565b600660209081526000928352604080842090915290825290205481565b6101fb610356366004615a89565b612d7a565b61022e60075481565b6101fb610372366004615ac1565b612ea2565b6101fb6103853660046158c1565b61305d565b6101fb610398366004615ac1565b613149565b61022e6103ab366004615a89565b613fc7565b6101fb6103be3660046158c1565b6140dc565b6001600160a01b03811660009081526001602052604090206060906103e790614275565b92915050565b6001600160a01b0382166000908152600260209081526040808320848452909152902060609061041c90614275565b9392505050565b81600061042f82614282565b604051634941d71d60e11b81527f1405d0156cf64c805704fdf6691baebfcfa0d409ea827c231693ff0581b0b7776004820152909150849033906001600160a01b03831690639283ae3a9060240160206040518083038186803b15801561049557600080fd5b505afa1580156104a9573d6000803e3d6000fd5b505050506040513d601f19601f820116820180604052508101906104cd9190615a71565b60011415610a0257604051634941d71d60e11b81527f80140cd7e0b1d935bee578a67a41547c82987de8e7d6b3827d411b738110258b60048201526000906001600160a01b03841690639283ae3a9060240160206040518083038186803b15801561053757600080fd5b505afa15801561054b573d6000803e3d6000fd5b505050506040513d601f19601f8201168201806040525081019061056f9190615a71565b6040517ffd310d290000000000000000000000000000000000000000000000000000000081527fe373ab56628c86db3f0e36774c2c5e0393f9272ff5c976bc3f0db2db60cdbc1460048201529091506000906001600160a01b0385169063fd310d299060240160206040518083038186803b1580156105ed57600080fd5b505afa158015610601573d6000803e3d6000fd5b505050506040513d601f19601f8201168201806040525081019061062591906158dd565b604051634941d71d60e11b81527f04ecaf460eb9f82aeb70035e3f24c18a3650fa0da9ddbe7e63d70de659b9b90160048201529091506000906001600160a01b03861690639283ae3a9060240160206040518083038186803b15801561068a57600080fd5b505afa15801561069e573d6000803e3d6000fd5b505050506040513d601f19601f820116820180604052508101906106c29190615a71565b90508215801561074b57506040516370a0823160e01b81526001600160a01b0385811660048301528291908416906370a082319060240160206040518083038186803b15801561071157600080fd5b505afa158015610725573d6000803e3d6000fd5b505050506040513d601f19601f820116820180604052508101906107499190615a71565b105b15610782576040517fc4cf1dc400000000000000000000000000000000000000000000000000000000815260040160405180910390fd5b82600114801561080b57506040516370a0823160e01b81526001600160a01b0385811660048301528291908416906370a082319060240160206040518083038186803b1580156107d157600080fd5b505afa1580156107e5573d6000803e3d6000fd5b505050506040513d601f19601f820116820180604052508101906108099190615a71565b105b15610842576040517f7cef139500000000000000000000000000000000000000000000000000000000815260040160405180910390fd5b826002148015610979575080826001600160a01b031662fdd58e86886001600160a01b0316639283ae3a7f6cb5bc3796b0717ca4ff665886c96fb0178d6341366eb7b6c737fe79083b836a6040518263ffffffff1660e01b81526004016108ab91815260200190565b60206040518083038186803b1580156108c357600080fd5b505afa1580156108d7573d6000803e3d6000fd5b505050506040513d601f19601f820116820180604052508101906108fb9190615a71565b6040516001600160e01b031960e085901b1681526001600160a01b039092166004830152602482015260440160206040518083038186803b15801561093f57600080fd5b505afa158015610953573d6000803e3d6000fd5b505050506040513d601f19601f820116820180604052508101906109779190615a71565b105b156109b0576040517f8722044800000000000000000000000000000000000000000000000000000000815260040160405180910390fd5b8260031480156109c757506109c585856119d8565b155b156109fe576040517f9eb91fe800000000000000000000000000000000000000000000000000000000815260040160405180910390fd5b5050505b60008511610a3c576040517ffae8279100000000000000000000000000000000000000000000000000000000815260040160405180910390fd5b6040805160e081018252600080825260208201819052818301819052606082018190526080820181905260a0820181905260c08201529051634941d71d60e11b81527f5fa39c8100b49336846e52d39403e353bf782275f905a885f09224779ff1c92460048201526001600160a01b03881690639283ae3a9060240160206040518083038186803b158015610ad057600080fd5b505afa158015610ae4573d6000803e3d6000fd5b505050506040513d601f19601f82011682018060405250810190610b089190615a71565b8152604051634941d71d60e11b81527fbdd40865e74210f0a46799ae63462c62010da92014a08cbc32f1d049d0a22c6b60048201526001600160a01b03881690639283ae3a9060240160206040518083038186803b158015610b6957600080fd5b505afa158015610b7d573d6000803e3d6000fd5b505050506040513d601f19601f82011682018060405250810190610ba19190615a71565b6020820152604051634941d71d60e11b81527f7e07fb4530796d057ca1d76d83f47aa8629dbb7e942ac28f30ad6f5e9e8d418960048201526001600160a01b03881690639283ae3a9060240160206040518083038186803b158015610c0557600080fd5b505afa158015610c19573d6000803e3d6000fd5b505050506040513d601f19601f82011682018060405250810190610c3d9190615a71565b6040820152602081015115801590610c6b57508060200151610c5f8833613fc7565b610c699088615b67565b105b15610ca2576040517f2193e42400000000000000000000000000000000000000000000000000000000815260040160405180910390fd5b805115801590610cc557508051610cb98833613fc7565b610cc39088615b67565b115b15610cfc576040517f504400aa00000000000000000000000000000000000000000000000000000000815260040160405180910390fd5b604051634941d71d60e11b81527fbd04d44792b7dbfe3b50b0f9f2006f7ef449e374a39021cb9bfa7cd0bdd850d7600482015242906001600160a01b03891690639283ae3a9060240160206040518083038186803b158015610d5d57600080fd5b505afa158015610d71573d6000803e3d6000fd5b505050506040513d601f19601f82011682018060405250810190610d959190615a71565b101580610e395750604051634941d71d60e11b81527f533afc15b6312917b5e28e2272ea69d44e5ea8e00d3bd57cada1275c2f14c9e8600482015242906001600160a01b03891690639283ae3a9060240160206040518083038186803b158015610dfe57600080fd5b505afa158015610e12573d6000803e3d6000fd5b505050506040513d601f19601f82011682018060405250810190610e369190615a71565b11155b15610e70576040517f31c550f600000000000000000000000000000000000000000000000000000000815260040160405180910390fd5b604051634941d71d60e11b81527fbe07eea886ce63e8ab49ef6fd986e9dea247fbb31da43dd1df3e153cc548277a60048201526001600160a01b03881690639283ae3a9060240160206040518083038186803b158015610ecf57600080fd5b505afa158015610ee3573d6000803e3d6000fd5b505050506040513d601f19601f82011682018060405250810190610f079190615a71565b158015610f18575060008160400151115b15610f6e57806040015186610f2c896119fa565b610f369190615b67565b1115610f6e576040517f98ea576400000000000000000000000000000000000000000000000000000000815260040160405180910390fd5b604051632c9f4b5b60e11b81527f161fca6912f107b0f13c9c7275de7391b32d2ea1c52ffba65a3c961880a0c60f60048201526001600160a01b0388169063593e96b69060240160206040518083038186803b158015610fcd57600080fd5b505afa158015610fe1573d6000803e3d6000fd5b505050506040513d601f19601f8201168201806040525081019061100591906158dd565b6001600160a01b0390811660608301526040516317ba7d8560e01b81527fa837e34a29b67bf52f684a1c93def79b84b9c012732becee4e5df62809df64ed6004820152908816906317ba7d859060240160206040518083038186803b15801561106d57600080fd5b505afa158015611081573d6000803e3d6000fd5b505050506040513d601f19601f820116820180604052508101906110a591906158dd565b6001600160a01b0390811660808301819052604051634fc0a76d60e01b8152918916600483015290634fc0a76d9060240160206040518083038186803b1580156110ee57600080fd5b505afa158015611102573d6000803e3d6000fd5b505050506040513d601f19601f820116820180604052508101906111269190615a71565b60a0820152604051634941d71d60e11b81527f69f4ffb3ebcb7809550bddd3e4d449a47e737bf6635bc7a730996643997b0e4860048201526001600160a01b03881690639283ae3a9060240160206040518083038186803b15801561118a57600080fd5b505afa15801561119e573d6000803e3d6000fd5b505050506040513d601f19601f820116820180604052508101906111c29190615a71565b60011480156112965750604051634941d71d60e11b81527fecbde689cc6337d29a750b8b8a8abbfa97427b4ac800ab55be2f2c87311510f260048201526001600160a01b03881690639283ae3a9060240160206040518083038186803b15801561122b57600080fd5b505afa15801561123f573d6000803e3d6000fd5b505050506040513d601f19601f820116820180604052508101906112639190615a71565b6001600160a01b038816600090815260026020908152604080832060a0860151845290915290206112939061454d565b10155b80156112d057506001600160a01b038716600090815260026020908152604080832060a0850151845290915290206112ce9033614557565b155b15611307576040517ffa088e8a00000000000000000000000000000000000000000000000000000000815260040160405180910390fd5b600081606001516001600160a01b031663a87af66c6040518163ffffffff1660e01b815260040160206040518083038186803b15801561134657600080fd5b505afa15801561135a573d6000803e3d6000fd5b505050506040513d601f19601f8201168201806040525081019061137e91906158dd565b6040516370a0823160e01b815233600482015290915087906001600160a01b038316906370a082319060240160206040518083038186803b1580156113c257600080fd5b505afa1580156113d6573d6000803e3d6000fd5b505050506040513d601f19601f820116820180604052508101906113fa9190615a71565b1015611432576040517f50b1f35600000000000000000000000000000000000000000000000000000000815260040160405180910390fd5b6040517fdd62ed3e00000000000000000000000000000000000000000000000000000000815233600482015230602482015287906001600160a01b0383169063dd62ed3e9060440160206040518083038186803b15801561149257600080fd5b505afa1580156114a6573d6000803e3d6000fd5b505050506040513d601f19601f820116820180604052508101906114ca9190615a71565b1015611502576040517f0fd3919300000000000000000000000000000000000000000000000000000000815260040160405180910390fd5b6040517f23b872dd000000000000000000000000000000000000000000000000000000008152336004820152306024820152604481018890526001600160a01b038216906323b872dd90606401602060405180830381600087803b15801561156957600080fd5b505af115801561157d573d6000803e3d6000fd5b505050506040513d601f19601f820116820180604052508101906115a19190615a2c565b50604051632c9f4b5b60e11b81527f161fca6912f107b0f13c9c7275de7391b32d2ea1c52ffba65a3c961880a0c60f60048201526001600160a01b038083169163095ea7b3918b169063593e96b69060240160206040518083038186803b15801561160b57600080fd5b505afa15801561161f573d6000803e3d6000fd5b505050506040513d601f19601f8201168201806040525081019061164391906158dd565b6040516001600160e01b031960e084901b1681526001600160a01b039091166004820152602481018a9052604401602060405180830381600087803b15801561168b57600080fd5b505af115801561169f573d6000803e3d6000fd5b505050506040513d601f19601f820116820180604052508101906116c39190615a2c565b5060608201516040517fb08079a6000000000000000000000000000000000000000000000000000000008152336004820152602481018990526001600160a01b039091169063b08079a690604401600060405180830381600087803b15801561172b57600080fd5b505af115801561173f573d6000803e3d6000fd5b5050505061175288338460a00151614579565b60808201516040516301c22a3d60e01b81526001600160a01b038a81166004830152909116906301c22a3d9060240160206040518083038186803b15801561179957600080fd5b505afa1580156117ad573d6000803e3d6000fd5b505050506040513d601f19601f820116820180604052508101906117d19190615a71565b60c083019081526001600160a01b03891660009081526005602090815260408083209351835292815282822033835290529081208054899290611815908490615b67565b90915550506001600160a01b038816600090815260066020908152604080832060c0860151845290915281208054899290611851908490615b67565b9091555050608082015160c08301516040517f6d3cc0400000000000000000000000000000000000000000000000000000000081526001600160a01b038b811660048301526024820192909252336044820152911690636d3cc0409060640160206040518083038186803b1580156118c857600080fd5b505afa1580156118dc573d6000803e3d6000fd5b505050506040513d601f19601f820116820180604052508101906119009190615a2c565b1561197c576001600160a01b038816600090815260036020908152604080832060c086015184529091528120805489929061193c908490615b67565b90915550506001600160a01b038816600090815260046020908152604080832060c0860151845282528083203384529091529020805460ff191660011790555b604080516001600160a01b038a16815260208101899052338183015290517fe31c7b8d08ee7db0afa68782e1028ef92305caeea8626633ad44d413e30f6b2f9181900360600190a1505050506119d282826145d7565b50505050565b6001600160a01b038216600090815260016020526040812061041c9083614557565b604051632c9f4b5b60e11b81527f161fca6912f107b0f13c9c7275de7391b32d2ea1c52ffba65a3c961880a0c60f60048201526000906001600160a01b0383169063593e96b69060240160206040518083038186803b158015611a5c57600080fd5b505afa158015611a70573d6000803e3d6000fd5b505050506040513d601f19601f82011682018060405250810190611a9491906158dd565b6040516370a0823160e01b815261decd60048201526001600160a01b0391909116906370a08231906024015b60206040518083038186803b158015611ad857600080fd5b505afa158015611aec573d6000803e3d6000fd5b505050506040513d601f19601f820116820180604052508101906103e79190615a71565b806000611b1c82614282565b6001600160a01b03841660009081526020819052604090205490915060ff166003816003811115611b5d57634e487b7160e01b600052602160045260246000fd5b148015611bff5750604051634941d71d60e11b81527f533afc15b6312917b5e28e2272ea69d44e5ea8e00d3bd57cada1275c2f14c9e860048201526001600160a01b03851690639283ae3a9060240160206040518083038186803b158015611bc457600080fd5b505afa158015611bd8573d6000803e3d6000fd5b505050506040513d601f19601f82011682018060405250810190611bfc9190615a71565b42115b80611d6a57506002816003811115611c2757634e487b7160e01b600052602160045260246000fd5b148015611d6a5750604051634941d71d60e11b81527fb0d4178853a5320a41f8c55fa6d58af06637e392beff71e66dba4e8f32c39bb860048201526001600160a01b03851690639283ae3a9060240160206040518083038186803b158015611c8e57600080fd5b505afa158015611ca2573d6000803e3d6000fd5b505050506040513d601f19601f82011682018060405250810190611cc69190615a71565b604051634941d71d60e11b81527f9ce69cf04065e3c7823cc5540c0598d8a694bd7a9a5a2a786d8bccf14ed6e2ea60048201526001600160a01b03861690639283ae3a9060240160206040518083038186803b158015611d2557600080fd5b505afa158015611d39573d6000803e3d6000fd5b505050506040513d601f19601f82011682018060405250810190611d5d9190615a71565b611d679190615b67565b42115b611dbb5760405162461bcd60e51b815260206004820152600a60248201527f21636c65617246756e640000000000000000000000000000000000000000000060448201526064015b60405180910390fd5b604051632c9f4b5b60e11b81527f161fca6912f107b0f13c9c7275de7391b32d2ea1c52ffba65a3c961880a0c60f60048201526000906001600160a01b0386169063593e96b69060240160206040518083038186803b158015611e1d57600080fd5b505afa158015611e31573d6000803e3d6000fd5b505050506040513d601f19601f82011682018060405250810190611e5591906158dd565b90506000816001600160a01b031663a87af66c6040518163ffffffff1660e01b815260040160206040518083038186803b158015611e9257600080fd5b505afa158015611ea6573d6000803e3d6000fd5b505050506040513d601f19601f82011682018060405250810190611eca91906158dd565b90506000826001600160a01b031663b2f5a54c6040518163ffffffff1660e01b815260040160006040518083038186803b158015611f0757600080fd5b505afa158015611f1b573d6000803e3d6000fd5b505050506040513d6000823e601f3d908101601f19168201604052611f439190810190615965565b8051909150156124f3576000805b82518160ff1610156124a8576000611f938a858460ff1681518110611f8657634e487b7160e01b600052603260045260246000fd5b6020026020010151613fc7565b90508015612495576040516317ba7d8560e01b81527ff03649ccf5cbda635d0464f73bc807b602819fde8d2e1387f87b988bb0e858a360048201526000906001600160a01b038c16906317ba7d859060240160206040518083038186803b158015611ffd57600080fd5b505afa158015612011573d6000803e3d6000fd5b505050506040513d601f19601f8201168201806040525081019061203591906158dd565b9050600388600381111561205957634e487b7160e01b600052602160045260246000fd5b141561218d57806001600160a01b031663145148178c8d6001600160a01b031663a25950c56040518163ffffffff1660e01b815260040160206040518083038186803b1580156120a857600080fd5b505afa1580156120bc573d6000803e3d6000fd5b505050506040513d601f19601f820116820180604052508101906120e09190615a71565b89898860ff168151811061210457634e487b7160e01b600052603260045260246000fd5b60209081029190910101516040516001600160e01b031960e087901b1681526001600160a01b039485166004820152602481019390935290831660448301529190911660648201526084810185905260a401600060405180830381600087803b15801561217057600080fd5b505af1158015612184573d6000803e3d6000fd5b505050506122d7565b806001600160a01b0316631dc5b10f8c8d6001600160a01b031663a25950c56040518163ffffffff1660e01b815260040160206040518083038186803b1580156121d657600080fd5b505afa1580156121ea573d6000803e3d6000fd5b505050506040513d601f19601f8201168201806040525081019061220e9190615a71565b89898860ff168151811061223257634e487b7160e01b600052603260045260246000fd5b60209081029190910101516040516001600160e01b031960e087901b1681526001600160a01b039485166004820152602481019390935290831660448301529190911660648201526084810185905260a401600060405180830381600087803b15801561229e57600080fd5b505af11580156122b2573d6000803e3d6000fd5b505050506001600160a01b038b166000908152602081905260409020805460ff191690555b6040516317ba7d8560e01b81527ff03649ccf5cbda635d0464f73bc807b602819fde8d2e1387f87b988bb0e858a360048201526001600160a01b038089169163e176b35e918e16906317ba7d859060240160206040518083038186803b15801561234057600080fd5b505afa158015612354573d6000803e3d6000fd5b505050506040513d601f19601f8201168201806040525081019061237891906158dd565b6040516001600160e01b031960e084901b1681526001600160a01b039182166004820152908916602482015260448101859052606401600060405180830381600087803b1580156123c857600080fd5b505af11580156123dc573d6000803e3d6000fd5b50505050866001600160a01b031663e3a05cc1868560ff168151811061241257634e487b7160e01b600052603260045260246000fd5b60209081029190910101516040516001600160e01b031960e084901b1681526001600160a01b039182166004820152908916602482015260448101859052606401600060405180830381600087803b15801561246d57600080fd5b505af1158015612481573d6000803e3d6000fd5b5050505081846124919190615b67565b9350505b50806124a081615bf3565b915050611f51565b50604080516001600160a01b038a16815260208101839052338183015290517f12d0dcfe23709357491021067eb05d73fa0b1f1aeb69310c2071218e089f057f9181900360600190a1505b5050505061250182826145d7565b505050565b6040517fa230c5240000000000000000000000000000000000000000000000000000000081526001600160a01b0382811660048301526000919084169063a230c5249060240160206040518083038186803b15801561256457600080fd5b505afa158015612578573d6000803e3d6000fd5b505050506040513d601f19601f8201168201806040525081019061041c9190615a2c565b6040516317ba7d8560e01b81527fa837e34a29b67bf52f684a1c93def79b84b9c012732becee4e5df62809df64ed600482015260009081906001600160a01b038416906317ba7d859060240160206040518083038186803b15801561260057600080fd5b505afa158015612614573d6000803e3d6000fd5b505050506040513d601f19601f8201168201806040525081019061263891906158dd565b604051634941d71d60e11b81527f533afc15b6312917b5e28e2272ea69d44e5ea8e00d3bd57cada1275c2f14c9e860048201529091506000906001600160a01b03851690639283ae3a9060240160206040518083038186803b15801561269d57600080fd5b505afa1580156126b1573d6000803e3d6000fd5b505050506040513d601f19601f820116820180604052508101906126d59190615a71565b4211801561271d575060016001600160a01b03851660009081526020819052604090205460ff16600381111561271b57634e487b7160e01b600052602160045260246000fd5b145b15612ca657604051634941d71d60e11b81527f686efe7bd1699b408d306db6bbee658ed667971c52d48d6912d7ee496e36e62760048201526001600160a01b03851690639283ae3a9060240160206040518083038186803b15801561278157600080fd5b505afa158015612795573d6000803e3d6000fd5b505050506040513d601f19601f820116820180604052508101906127b99190615a71565b60041480156127d1575060006127ce856145e2565b11155b156127de57506000612a51565b604051634941d71d60e11b81527f31af571e53636dddd77f772cce9d30b42075760f2da731636acc6962da2fbef860048201526001600160a01b03851690639283ae3a9060240160206040518083038186803b15801561283d57600080fd5b505afa158015612851573d6000803e3d6000fd5b505050506040513d601f19601f820116820180604052508101906128759190615a71565b61287e856119fa565b10612a4d576040517fda0f6c700000000000000000000000000000000000000000000000000000000081527fd99dae5492aa0c08830764a319f29225cc739a0ed8683d8fd1b5bc3a8fe3167260048201524260248201526001600160a01b0385169063da0f6c7090604401600060405180830381600087803b15801561290357600080fd5b505af1158015612917573d6000803e3d6000fd5b5050604051634941d71d60e11b81527ffbf58be2732249b32b8ee6ccb5eed8655c2fb8a45fe937b71c312b6e209f138060048201526001600160a01b038716925063da0f6c7091507f9ce69cf04065e3c7823cc5540c0598d8a694bd7a9a5a2a786d8bccf14ed6e2ea908390639283ae3a9060240160206040518083038186803b1580156129a457600080fd5b505afa1580156129b8573d6000803e3d6000fd5b505050506040513d601f19601f820116820180604052508101906129dc9190615a71565b6129e69042615b67565b6040516001600160e01b031960e085901b16815260048101929092526024820152604401600060405180830381600087803b158015612a2457600080fd5b505af1158015612a38573d6000803e3d6000fd5b50505050612a4584614783565b506001612a51565b5060005b6040516301c22a3d60e01b81526001600160a01b038581166004830152831690630c1c6f4490869083906301c22a3d9060240160206040518083038186803b158015612a9c57600080fd5b505afa158015612ab0573d6000803e3d6000fd5b505050506040513d601f19601f82011682018060405250810190612ad49190615a71565b6040516001600160e01b031960e085901b1681526001600160a01b03909216600483015260248201528315156044820152606401600060405180830381600087803b158015612b2257600080fd5b505af1158015612b36573d6000803e3d6000fd5b5050508115159050612b73576001600160a01b0384166000908152602081905260409020805460ff19166003179055612b6e84611b10565b612b97565b6001600160a01b0384166000908152602081905260409020805460ff191660021790555b604051634fc0a76d60e01b81526001600160a01b0380861660048301527f5fd2225800b4a1978ad764ee103db4fc09f1f8db734ab768112047634fb868c2918691851690634fc0a76d9060240160206040518083038186803b158015612bfc57600080fd5b505afa158015612c10573d6000803e3d6000fd5b505050506040513d601f19601f82011682018060405250810190612c349190615a71565b6001600160a01b03871660009081526020819052604090205460ff166003811115612c6f57634e487b7160e01b600052602160045260246000fd5b612c78886119fa565b604080516001600160a01b039095168552602085019390935291830152606082015260800160405180910390a15b5060019392505050565b604051632c9f4b5b60e11b81527f161fca6912f107b0f13c9c7275de7391b32d2ea1c52ffba65a3c961880a0c60f60048201526000906001600160a01b0383169063593e96b69060240160206040518083038186803b158015612d1257600080fd5b505afa158015612d26573d6000803e3d6000fd5b505050506040513d601f19601f82011682018060405250810190612d4a91906158dd565b6040516370a0823160e01b815261111160048201526001600160a01b0391909116906370a0823190602401611ac0565b6040516317ba7d8560e01b81527f5443327e16211d6f6930defab8b33523e6990ea67a94b67a6f23dee03dbeb88d60048201526001600160a01b038316906317ba7d859060240160206040518083038186803b158015612dd957600080fd5b505afa158015612ded573d6000803e3d6000fd5b505050506040513d601f19601f82011682018060405250810190612e1191906158dd565b6001600160a01b0316336001600160a01b031614158015612e385750612e368261521a565b155b15612e56576040516395383ea160e01b815260040160405180910390fd5b6001600160a01b0382166000908152600160205260409020612e789082614557565b612e9e576001600160a01b03821660009081526001602052604090206125019082615453565b5050565b8143816001600160a01b031663b21634826040518163ffffffff1660e01b815260040160206040518083038186803b158015612edd57600080fd5b505afa158015612ef1573d6000803e3d6000fd5b505050506040513d601f19601f82011682018060405250810190612f159190615a71565b1415612f635760405162461bcd60e51b815260206004820152601060248201527f7265656e7472616e6379206775617264000000000000000000000000000000006044820152606401611db2565b806001600160a01b03166310fdb0a26040518163ffffffff1660e01b8152600401600060405180830381600087803b158015612f9e57600080fd5b505af1158015612fb2573d6000803e3d6000fd5b5050505082612fc081615468565b6001600160a01b0316336001600160a01b031614612fdd57600080fd5b670de0b6b3a764000083108015612ff45750600083115b612ffd57600080fd5b8260078190555050806001600160a01b031663d4f7af436040518163ffffffff1660e01b8152600401600060405180830381600087803b15801561304057600080fd5b505af1158015613054573d6000803e3d6000fd5b50505050505050565b6040516317ba7d8560e01b81527fa837e34a29b67bf52f684a1c93def79b84b9c012732becee4e5df62809df64ed60048201526001600160a01b038216906317ba7d859060240160206040518083038186803b1580156130bc57600080fd5b505afa1580156130d0573d6000803e3d6000fd5b505050506040513d601f19601f820116820180604052508101906130f491906158dd565b6001600160a01b0316336001600160a01b031614613125576040516395383ea160e01b815260040160405180910390fd5b6001600160a01b03166000908152602081905260409020805460ff19166001179055565b81600061315582614282565b90506131986040805160e08101909152806000815260006020820181905260408201819052606082018190526080820181905260a0820181905260c09091015290565b6131a18561259c565b506001600160a01b038516600090815260208190526040902054819060ff1660038111156131df57634e487b7160e01b600052602160045260246000fd5b9081600381111561320057634e487b7160e01b600052602160045260246000fd5b905250604051634941d71d60e11b81527f533afc15b6312917b5e28e2272ea69d44e5ea8e00d3bd57cada1275c2f14c9e860048201526001600160a01b03861690639283ae3a9060240160206040518083038186803b15801561326257600080fd5b505afa158015613276573d6000803e3d6000fd5b505050506040513d601f19601f8201168201806040525081019061329a9190615a71565b6020820152604051634941d71d60e11b81527fbd04d44792b7dbfe3b50b0f9f2006f7ef449e374a39021cb9bfa7cd0bdd850d760048201526001600160a01b03861690639283ae3a9060240160206040518083038186803b1580156132fe57600080fd5b505afa158015613312573d6000803e3d6000fd5b505050506040513d601f19601f820116820180604052508101906133369190615a71565b604082810191909152516317ba7d8560e01b81527fe70101dfebc310a1a68aa271bb3eb593540746781f9eaca3d7f52f31ba60f5d160048201526000906001600160a01b038716906317ba7d859060240160206040518083038186803b15801561339f57600080fd5b505afa1580156133b3573d6000803e3d6000fd5b505050506040513d601f19601f820116820180604052508101906133d791906158dd565b6040517f3a844ec00000000000000000000000000000000000000000000000000000000081526001600160a01b0388811660048301524260248301529190911690633a844ec09060440160206040518083038186803b15801561343957600080fd5b505afa15801561344d573d6000803e3d6000fd5b505050506040513d601f19601f820116820180604052508101906134719190615a2c565b905060018251600381111561349657634e487b7160e01b600052602160045260246000fd5b1480156134a65750816020015142105b80156134b55750816040015142115b806134e057506003825160038111156134de57634e487b7160e01b600052602160045260246000fd5b145b80613513575060028251600381111561350957634e487b7160e01b600052602160045260246000fd5b1480156135135750805b80613720575060028251600381111561353c57634e487b7160e01b600052602160045260246000fd5b1480156135de5750604051634941d71d60e11b81527f9ce69cf04065e3c7823cc5540c0598d8a694bd7a9a5a2a786d8bccf14ed6e2ea60048201526001600160a01b03871690639283ae3a9060240160206040518083038186803b1580156135a357600080fd5b505afa1580156135b7573d6000803e3d6000fd5b505050506040513d601f19601f820116820180604052508101906135db9190615a71565b42115b80156137205750604051634941d71d60e11b81527fb0d4178853a5320a41f8c55fa6d58af06637e392beff71e66dba4e8f32c39bb860048201526001600160a01b03871690639283ae3a9060240160206040518083038186803b15801561364457600080fd5b505afa158015613658573d6000803e3d6000fd5b505050506040513d601f19601f8201168201806040525081019061367c9190615a71565b604051634941d71d60e11b81527f9ce69cf04065e3c7823cc5540c0598d8a694bd7a9a5a2a786d8bccf14ed6e2ea60048201526001600160a01b03881690639283ae3a9060240160206040518083038186803b1580156136db57600080fd5b505afa1580156136ef573d6000803e3d6000fd5b505050506040513d601f19601f820116820180604052508101906137139190615a71565b61371d9190615b67565b42105b61376c5760405162461bcd60e51b815260206004820152600960248201527f21776974686472617700000000000000000000000000000000000000000000006044820152606401611db2565b604051632c9f4b5b60e11b81527f161fca6912f107b0f13c9c7275de7391b32d2ea1c52ffba65a3c961880a0c60f60048201526001600160a01b0387169063593e96b69060240160206040518083038186803b1580156137cb57600080fd5b505afa1580156137df573d6000803e3d6000fd5b505050506040513d601f19601f8201168201806040525081019061380391906158dd565b6001600160a01b031660608301819052604080517fa87af66c000000000000000000000000000000000000000000000000000000008152905163a87af66c91600480820192602092909190829003018186803b15801561386257600080fd5b505afa158015613876573d6000803e3d6000fd5b505050506040513d601f19601f8201168201806040525081019061389a91906158dd565b6001600160a01b03166080830152846138df576040517ffae8279100000000000000000000000000000000000000000000000000000000815260040160405180910390fd5b6138e98633613fc7565b851115613922576040517f50b1f35600000000000000000000000000000000000000000000000000000000815260040160405180910390fd5b600060028351600381111561394757634e487b7160e01b600052602160045260246000fd5b1480156139515750815b15613b8457604051634941d71d60e11b81527f3e453820e0fc9cb9a1e799559661cf9c1db4cc7d7fbcb7e0fdaf884cbe29c3566004820152670de0b6b3a76400009087906001600160a01b038a1690639283ae3a9060240160206040518083038186803b1580156139c157600080fd5b505afa1580156139d5573d6000803e3d6000fd5b505050506040513d601f19601f820116820180604052508101906139f99190615a71565b613a039190615b9f565b613a0d9190615b7f565b90508015613b335782606001516001600160a01b031663e176b35e886001600160a01b031663fd310d297f413223451819ea6086aa50ab7585bb5d8320c60e0c5f010376962c3ca02e3cac6040518263ffffffff1660e01b8152600401613a7691815260200190565b60206040518083038186803b158015613a8e57600080fd5b505afa158015613aa2573d6000803e3d6000fd5b505050506040513d601f19601f82011682018060405250810190613ac691906158dd565b60808601516040516001600160e01b031960e085901b1681526001600160a01b0392831660048201529116602482015260448101849052606401600060405180830381600087803b158015613b1a57600080fd5b505af1158015613b2e573d6000803e3d6000fd5b505050505b604080516001600160a01b0389168152336020820152908101879052606081018290527f233193f33678454f0c1aa43ef4c404770a64e4a160b5614d929d896cc10ec1509060800160405180910390a15b60608301516001600160a01b031663f3fef3a333613ba2848a615bdc565b6040516001600160e01b031960e085901b1681526001600160a01b0390921660048301526024820152604401600060405180830381600087803b158015613be857600080fd5b505af1158015613bfc573d6000803e3d6000fd5b50505050606083015160808401516040517fe3a05cc10000000000000000000000000000000000000000000000000000000081523360048201526001600160a01b0391821660248201526044810189905291169063e3a05cc190606401600060405180830381600087803b158015613c7357600080fd5b505af1158015613c87573d6000803e3d6000fd5b50506040516317ba7d8560e01b81527fa837e34a29b67bf52f684a1c93def79b84b9c012732becee4e5df62809df64ed60048201526001600160a01b038a1692506317ba7d85915060240160206040518083038186803b158015613cea57600080fd5b505afa158015613cfe573d6000803e3d6000fd5b505050506040513d601f19601f82011682018060405250810190613d2291906158dd565b6001600160a01b0390811660c085018190526040516301c22a3d60e01b81529189166004830152906301c22a3d9060240160206040518083038186803b158015613d6b57600080fd5b505afa158015613d7f573d6000803e3d6000fd5b505050506040513d601f19601f82011682018060405250810190613da39190615a71565b60a0840152602083015142108015613dbe5750826040015142115b15613e44576001600160a01b038716600090815260056020908152604080832060a08701518452825280832033845290915281208054889290613e02908490615bdc565b90915550506001600160a01b038716600090815260066020908152604080832060a0870151845290915281208054889290613e3e908490615bdc565b90915550505b6000613e508833613fc7565b11613ee15760c0830151604051634fc0a76d60e01b81526001600160a01b03808a166004830152613ee1928a92339290911690634fc0a76d9060240160206040518083038186803b158015613ea457600080fd5b505afa158015613eb8573d6000803e3d6000fd5b505050506040513d601f19601f82011682018060405250810190613edc9190615a71565b61554b565b6001600160a01b038716600090815260046020908152604080832060a08701518452825280832033845290915290205460ff168015613f235750826020015142105b15613f65576001600160a01b038716600090815260036020908152604080832060a0870151845290915281208054889290613f5f908490615bdc565b90915550505b7fd432fbc5f79eaeefd01acbebd76cf4b0d5f43d8372c2fd3e23761c06a60a75f187613f918389615bdc565b604080516001600160a01b0390931683526020830191909152339082015260600160405180910390a15050506119d282826145d7565b604051632c9f4b5b60e11b81527f161fca6912f107b0f13c9c7275de7391b32d2ea1c52ffba65a3c961880a0c60f60048201526000906001600160a01b0384169063593e96b69060240160206040518083038186803b15801561402957600080fd5b505afa15801561403d573d6000803e3d6000fd5b505050506040513d601f19601f8201168201806040525081019061406191906158dd565b6040516370a0823160e01b81526001600160a01b03848116600483015291909116906370a082319060240160206040518083038186803b1580156140a457600080fd5b505afa1580156140b8573d6000803e3d6000fd5b505050506040513d601f19601f8201168201806040525081019061041c9190615a71565b6040516317ba7d8560e01b81527f145d8ebc4d7403f3cd60312331619ffb262c52c22bedf24c0148027dd4be3b0160048201526001600160a01b038216906317ba7d859060240160206040518083038186803b15801561413b57600080fd5b505afa15801561414f573d6000803e3d6000fd5b505050506040513d601f19601f8201168201806040525081019061417391906158dd565b6001600160a01b0316336001600160a01b0316146141a4576040516395383ea160e01b815260040160405180910390fd5b6001600160a01b03811660009081526001602052604081206141c590614275565b516001600160a01b0383166000908152600160205260408120919250906141eb90614275565b905081156125015760005b828160ff1610156119d257614262828260ff168151811061422757634e487b7160e01b600052603260045260246000fd5b602002602001015160016000876001600160a01b03166001600160a01b0316815260200190815260200160002061557490919063ffffffff16565b508061426d81615bf3565b9150506141f6565b6060600061041c83615589565b6040805160808101825260008082526020820181905291810182905260608101919091525a81600001818152505043826001600160a01b031663b21634826040518163ffffffff1660e01b815260040160206040518083038186803b1580156142ea57600080fd5b505afa1580156142fe573d6000803e3d6000fd5b505050506040513d601f19601f820116820180604052508101906143229190615a71565b14156143705760405162461bcd60e51b815260206004820152601060248201527f7265656e7472616e6379206775617264000000000000000000000000000000006044820152606401611db2565b816001600160a01b03166310fdb0a26040518163ffffffff1660e01b8152600401600060405180830381600087803b1580156143ab57600080fd5b505af11580156143bf573d6000803e3d6000fd5b50506040517f72c6838f0000000000000000000000000000000000000000000000000000000081527f1f2fd42ad6a6cacd573c4b212beb7a4e2499ad45d742a65337097f130e71daff6004820152600092506001600160a01b03851691506372c6838f9060240160206040518083038186803b15801561443e57600080fd5b505afa158015614452573d6000803e3d6000fd5b505050506040513d601f19601f8201168201806040525081019061447691906158dd565b90506001600160a01b0381166144925760006020830152614547565b6001600160a01b038181166060840181905283516040517f43a8a3f1000000000000000000000000000000000000000000000000000000008152928616600484015260248301526000918291906343a8a3f190604401604080518083038186803b1580156144ff57600080fd5b505afa158015614513573d6000803e3d6000fd5b505050506040513d601f19601f820116820180604052508101906145379190615a46565b9015156020860152604085015250505b50919050565b60006103e7825490565b6001600160a01b0381166000908152600183016020526040812054151561041c565b6001600160a01b038316600090815260026020908152604080832084845290915290206145a69083614557565b612501576001600160a01b038316600090815260026020908152604080832084845290915290206119d29083615453565b612e9e8282336155e5565b6000806145ee836156be565b604051632c9f4b5b60e11b81527f161fca6912f107b0f13c9c7275de7391b32d2ea1c52ffba65a3c961880a0c60f600482015290915060009081906001600160a01b0386169063593e96b69060240160206040518083038186803b15801561465557600080fd5b505afa158015614669573d6000803e3d6000fd5b505050506040513d601f19601f8201168201806040525081019061468d91906158dd565b83519091501561477b5760005b83518160ff16101561477957816001600160a01b03166370a08231858360ff16815181106146d857634e487b7160e01b600052603260045260246000fd5b60200260200101516040518263ffffffff1660e01b815260040161470b91906001600160a01b0391909116815260200190565b60206040518083038186803b15801561472357600080fd5b505afa158015614737573d6000803e3d6000fd5b505050506040513d601f19601f8201168201806040525081019061475b9190615a71565b6147659084615b67565b92508061477181615bf3565b91505061469a565b505b509392505050565b6040805161018081018252600080825260208201819052918101829052606081018290526080810182905260a0810182905260c0810182905260e081018290526101008101829052610120810182905261014081018290526101608101919091526147ed826119fa565b610100820152604051634941d71d60e11b81527fbe07eea886ce63e8ab49ef6fd986e9dea247fbb31da43dd1df3e153cc548277a60048201526001600160a01b03831690639283ae3a9060240160206040518083038186803b15801561485257600080fd5b505afa158015614866573d6000803e3d6000fd5b505050506040513d601f19601f8201168201806040525081019061488a9190615a71565b60011480156149335750604051634941d71d60e11b81527f7e07fb4530796d057ca1d76d83f47aa8629dbb7e942ac28f30ad6f5e9e8d418960048201526001600160a01b03831690639283ae3a9060240160206040518083038186803b1580156148f357600080fd5b505afa158015614907573d6000803e3d6000fd5b505050506040513d601f19601f8201168201806040525081019061492b9190615a71565b816101000151115b15612e9e57604051632c9f4b5b60e11b81527f161fca6912f107b0f13c9c7275de7391b32d2ea1c52ffba65a3c961880a0c60f60048201526001600160a01b0383169063593e96b69060240160206040518083038186803b15801561499757600080fd5b505afa1580156149ab573d6000803e3d6000fd5b505050506040513d601f19601f820116820180604052508101906149cf91906158dd565b6001600160a01b0316808252604080517fb2f5a54c00000000000000000000000000000000000000000000000000000000815290516000929163b2f5a54c9160048083019286929190829003018186803b158015614a2c57600080fd5b505afa158015614a40573d6000803e3d6000fd5b505050506040513d6000823e601f3d908101601f19168201604052614a689190810190615965565b9050600082602001818152505081600001516001600160a01b031663a87af66c6040518163ffffffff1660e01b815260040160206040518083038186803b158015614ab257600080fd5b505afa158015614ac6573d6000803e3d6000fd5b505050506040513d601f19601f82011682018060405250810190614aea91906158dd565b6001600160a01b0390811660408481019190915251634941d71d60e11b81527f7e07fb4530796d057ca1d76d83f47aa8629dbb7e942ac28f30ad6f5e9e8d4189600482015290841690639283ae3a9060240160206040518083038186803b158015614b5457600080fd5b505afa158015614b68573d6000803e3d6000fd5b505050506040513d601f19601f82011682018060405250810190614b8c9190615a71565b60c08301526040516317ba7d8560e01b81527fa837e34a29b67bf52f684a1c93def79b84b9c012732becee4e5df62809df64ed60048201526001600160a01b038416906317ba7d859060240160206040518083038186803b158015614bf057600080fd5b505afa158015614c04573d6000803e3d6000fd5b505050506040513d601f19601f82011682018060405250810190614c2891906158dd565b6040516301c22a3d60e01b81526001600160a01b03858116600483015291909116906301c22a3d9060240160206040518083038186803b158015614c6b57600080fd5b505afa158015614c7f573d6000803e3d6000fd5b505050506040513d601f19601f82011682018060405250810190614ca39190615a71565b61012083019081526001600160a01b0384166000908152600360209081526040808320935183529290529081205460e08401525b81518160ff1610156119d257614d0a84838360ff1681518110611f8657634e487b7160e01b600052603260045260246000fd5b6101408401526001600160a01b0384166000908152600460209081526040808320610120870151845290915281208351909190849060ff8516908110614d6057634e487b7160e01b600052603260045260246000fd5b6020908102919091018101516001600160a01b031682528101919091526040016000205460ff16151561016084015260c083015160e084015110614df75782610160015115614de7578260e001518360c00151846101400151614dc39190615b9f565b614dcd9190615b7f565b836101400151614ddd9190615bdc565b6020840152614e67565b6101408301516020840152614e67565b82610160015115614e0e5760006020840152614e67565b8260e00151836101000151614e239190615bdc565b8360e001518460c00151614e379190615bdc565b846101400151614e479190615b9f565b614e519190615b7f565b836101400151614e619190615bdc565b60208401525b602083015115615208576040516317ba7d8560e01b81527ff03649ccf5cbda635d0464f73bc807b602819fde8d2e1387f87b988bb0e858a360048201526001600160a01b038516906317ba7d859060240160206040518083038186803b158015614ed057600080fd5b505afa158015614ee4573d6000803e3d6000fd5b505050506040513d601f19601f82011682018060405250810190614f0891906158dd565b6001600160a01b031663f9e4c52285866001600160a01b031663a25950c56040518163ffffffff1660e01b815260040160206040518083038186803b158015614f5057600080fd5b505afa158015614f64573d6000803e3d6000fd5b505050506040513d601f19601f82011682018060405250810190614f889190615a71565b8660400151868660ff1681518110614fb057634e487b7160e01b600052603260045260246000fd5b602002602001015188602001516040518663ffffffff1660e01b815260040161500b9594939291906001600160a01b039586168152602081019490945291841660408401529092166060820152608081019190915260a00190565b600060405180830381600087803b15801561502557600080fd5b505af1158015615039573d6000803e3d6000fd5b505084516040516317ba7d8560e01b81527ff03649ccf5cbda635d0464f73bc807b602819fde8d2e1387f87b988bb0e858a360048201526001600160a01b03918216935063e176b35e9250908716906317ba7d859060240160206040518083038186803b1580156150a957600080fd5b505afa1580156150bd573d6000803e3d6000fd5b505050506040513d601f19601f820116820180604052508101906150e191906158dd565b604080870151602088015191516001600160e01b031960e086901b1681526001600160a01b039384166004820152921660248301526044820152606401600060405180830381600087803b15801561513857600080fd5b505af115801561514c573d6000803e3d6000fd5b5050505082600001516001600160a01b031663e3a05cc1838360ff168151811061518657634e487b7160e01b600052603260045260246000fd5b6020026020010151856040015186602001516040518463ffffffff1660e01b81526004016151d5939291906001600160a01b039384168152919092166020820152604081019190915260600190565b600060405180830381600087803b1580156151ef57600080fd5b505af1158015615203573d6000803e3d6000fd5b505050505b8061521281615bf3565b915050614cd7565b600080826001600160a01b031663c19d93fb6040518163ffffffff1660e01b815260040160206040518083038186803b15801561525657600080fd5b505afa15801561526a573d6000803e3d6000fd5b505050506040513d601f19601f8201168201806040525081019061528e9190615ad3565b60018111156152ad57634e487b7160e01b600052602160045260246000fd5b1480156103e75750816001600160a01b031663c67143666040518163ffffffff1660e01b815260040160206040518083038186803b1580156152ee57600080fd5b505afa158015615302573d6000803e3d6000fd5b505050506040513d601f19601f820116820180604052508101906153269190615a71565b15806153bd57506040517fa230c5240000000000000000000000000000000000000000000000000000000081523360048201526001600160a01b0383169063a230c5249060240160206040518083038186803b15801561538557600080fd5b505afa158015615399573d6000803e3d6000fd5b505050506040513d601f19601f820116820180604052508101906153bd9190615a2c565b806103e757506040517f68c18beb0000000000000000000000000000000000000000000000000000000081523360048201526001600160a01b038316906368c18beb9060240160206040518083038186803b15801561541b57600080fd5b505afa15801561542f573d6000803e3d6000fd5b505050506040513d601f19601f820116820180604052508101906103e79190615a2c565b600061041c836001600160a01b038416615735565b6000816001600160a01b03166348f7f2a36040518163ffffffff1660e01b815260040160206040518083038186803b1580156154a357600080fd5b505afa1580156154b7573d6000803e3d6000fd5b505050506040513d601f19601f820116820180604052508101906154db91906158dd565b6001600160a01b0316638da5cb5b6040518163ffffffff1660e01b815260040160206040518083038186803b15801561551357600080fd5b505afa158015615527573d6000803e3d6000fd5b505050506040513d601f19601f820116820180604052508101906103e791906158dd565b6001600160a01b038316600090815260026020908152604080832084845290915290206119d290835b600061041c836001600160a01b038416615784565b6060816000018054806020026020016040519081016040528092919081815260200182805480156155d957602002820191906000526020600020905b8154815260200190600101908083116155c5575b50505050509050919050565b8160200151156156835781606001516001600160a01b0316635e5eb01384835a86516156119190615bdc565b60408088015190516001600160e01b031960e087901b1681526001600160a01b03948516600482015293909216602484015260448301526064820152608401600060405180830381600087803b15801561566a57600080fd5b505af115801561567e573d6000803e3d6000fd5b505050505b826001600160a01b031663d4f7af436040518163ffffffff1660e01b8152600401600060405180830381600087803b15801561304057600080fd5b6060816001600160a01b031663a6f636416040518163ffffffff1660e01b815260040160006040518083038186803b1580156156f957600080fd5b505afa15801561570d573d6000803e3d6000fd5b505050506040513d6000823e601f3d908101601f191682016040526103e79190810190615965565b600081815260018301602052604081205461577c575081546001818101845560008481526020808220909301849055845484825282860190935260409020919091556103e7565b5060006103e7565b600081815260018301602052604081205480156158975760006157a8600183615bdc565b85549091506000906157bc90600190615bdc565b905081811461583d5760008660000182815481106157ea57634e487b7160e01b600052603260045260246000fd5b906000526020600020015490508087600001848154811061581b57634e487b7160e01b600052603260045260246000fd5b6000918252602080832090910192909255918252600188019052604090208390555b855486908061585c57634e487b7160e01b600052603160045260246000fd5b6001900381819060005260206000200160009055905585600101600086815260200190815260200160002060009055600193505050506103e7565b60009150506103e7565b80516158ac81615c3f565b919050565b805180151581146158ac57600080fd5b6000602082840312156158d2578081fd5b813561041c81615c3f565b6000602082840312156158ee578081fd5b815161041c81615c3f565b6000806040838503121561590b578081fd5b823561591681615c3f565b946020939093013593505050565b600080600060608486031215615938578081fd5b833561594381615c3f565b925060208401359150604084013561595a81615c3f565b809150509250925092565b60006020808385031215615977578182fd5b825167ffffffffffffffff8082111561598e578384fd5b818501915085601f8301126159a1578384fd5b8151818111156159b3576159b3615c29565b8060051b604051601f19603f830116810181811085821117156159d8576159d8615c29565b604052828152858101935084860182860187018a10156159f6578788fd5b8795505b83861015615a1f57615a0b816158a1565b8552600195909501949386019386016159fa565b5098975050505050505050565b600060208284031215615a3d578081fd5b61041c826158b1565b60008060408385031215615a58578182fd5b615a61836158b1565b9150602083015190509250929050565b600060208284031215615a82578081fd5b5051919050565b60008060408385031215615a9b578182fd5b8235615aa681615c3f565b91506020830135615ab681615c3f565b809150509250929050565b6000806040838503121561590b578182fd5b600060208284031215615ae4578081fd5b81516002811061041c578182fd5b6020808252825182820181905260009190848201906040850190845b81811015615b335783516001600160a01b031683529284019291840191600101615b0e565b50909695505050505050565b6020810160048310615b6157634e487b7160e01b600052602160045260246000fd5b91905290565b60008219821115615b7a57615b7a615c13565b500190565b600082615b9a57634e487b7160e01b81526012600452602481fd5b500490565b6000817fffffffffffffffffffffffffffffffffffffffffffffffffffffffffffffffff0483118215151615615bd757615bd7615c13565b500290565b600082821015615bee57615bee615c13565b500390565b600060ff821660ff811415615c0a57615c0a615c13565b60010192915050565b634e487b7160e01b600052601160045260246000fd5b634e487b7160e01b600052604160045260246000fd5b6001600160a01b0381168114615c5457600080fd5b5056fea26469706673582212206a7549be185425f28f51982c1d01b74354a2fbe53fcb0914a4d6dc2507dbb5e064736f6c63430008040033",
  "linkReferences": {},
  "deployedLinkReferences": {}
}